{
  "_format": "hh-sol-artifact-1",
  "contractName": "Battle",
  "sourceName": "contracts/Battle.sol",
  "abi": [
    {
      "inputs": [
        {
          "internalType": "address",
          "name": "_characterContractAddress",
          "type": "address"
        },
        {
          "internalType": "address",
          "name": "_battleSkillsContractAddress",
          "type": "address"
        }
      ],
      "stateMutability": "nonpayable",
      "type": "constructor"
    },
    {
      "anonymous": false,
      "inputs": [
        {
          "indexed": true,
          "internalType": "uint256",
          "name": "battleId",
          "type": "uint256"
        },
        {
          "indexed": true,
          "internalType": "address",
          "name": "player",
          "type": "address"
        }
      ],
      "name": "BattleCancelled",
      "type": "event"
    },
    {
      "anonymous": false,
      "inputs": [
        {
          "indexed": false,
          "internalType": "uint256",
          "name": "battleId",
          "type": "uint256"
        },
        {
          "indexed": false,
          "internalType": "address",
          "name": "creator",
          "type": "address"
        },
        {
          "indexed": false,
          "internalType": "uint256",
          "name": "characterId",
          "type": "uint256"
        }
      ],
      "name": "BattleCreated",
      "type": "event"
    },
    {
      "anonymous": false,
      "inputs": [
        {
          "indexed": false,
          "internalType": "string",
          "name": "battleName",
          "type": "string"
        },
        {
          "indexed": false,
          "internalType": "uint256",
          "name": "battleId",
          "type": "uint256"
        },
        {
          "indexed": true,
          "internalType": "address",
          "name": "winner",
          "type": "address"
        },
        {
          "indexed": true,
          "internalType": "address",
          "name": "loser",
          "type": "address"
        }
      ],
      "name": "BattleEnded",
      "type": "event"
    },
    {
      "anonymous": false,
      "inputs": [
        {
          "indexed": false,
          "internalType": "uint256",
          "name": "battleId",
          "type": "uint256"
        },
        {
          "indexed": false,
          "internalType": "address",
          "name": "player1",
          "type": "address"
        },
        {
          "indexed": false,
          "internalType": "uint256",
          "name": "health1",
          "type": "uint256"
        },
        {
          "indexed": false,
          "internalType": "address",
          "name": "player2",
          "type": "address"
        },
        {
          "indexed": false,
          "internalType": "uint256",
          "name": "health2",
          "type": "uint256"
        }
      ],
      "name": "HealthUpdated",
      "type": "event"
    },
    {
      "anonymous": false,
      "inputs": [
        {
          "indexed": true,
          "internalType": "uint256",
          "name": "battleId",
          "type": "uint256"
        },
        {
          "indexed": true,
          "internalType": "address",
          "name": "player",
          "type": "address"
        },
        {
          "indexed": false,
          "internalType": "enum Battle.Move",
          "name": "move",
          "type": "uint8"
        }
      ],
      "name": "MoveSubmitted",
      "type": "event"
    },
    {
      "anonymous": false,
      "inputs": [
        {
          "indexed": false,
          "internalType": "string",
          "name": "battleName",
          "type": "string"
        },
        {
          "indexed": false,
          "internalType": "uint256",
          "name": "battleId",
          "type": "uint256"
        },
        {
          "indexed": true,
          "internalType": "address",
          "name": "player1",
          "type": "address"
        },
        {
          "indexed": true,
          "internalType": "address",
          "name": "player2",
          "type": "address"
        }
      ],
      "name": "NewBattle",
      "type": "event"
    },
    {
      "anonymous": false,
      "inputs": [
        {
          "indexed": false,
          "internalType": "address[2]",
          "name": "damagedPlayers",
          "type": "address[2]"
        }
      ],
      "name": "RoundEnded",
      "type": "event"
    },
    {
      "inputs": [
        {
          "internalType": "uint256",
          "name": "",
          "type": "uint256"
        }
      ],
      "name": "activeBattlesId",
      "outputs": [
        {
          "internalType": "uint256",
          "name": "",
          "type": "uint256"
        }
      ],
      "stateMutability": "view",
      "type": "function"
    },
    {
      "inputs": [],
      "name": "battleCounter",
      "outputs": [
        {
          "internalType": "uint256",
          "name": "",
          "type": "uint256"
        }
      ],
      "stateMutability": "view",
      "type": "function"
    },
    {
      "inputs": [
        {
          "internalType": "uint256",
          "name": "",
          "type": "uint256"
        }
      ],
      "name": "battles",
      "outputs": [
        {
          "internalType": "uint256",
          "name": "battleId",
          "type": "uint256"
        },
        {
          "internalType": "string",
          "name": "name",
          "type": "string"
        },
        {
          "internalType": "enum Battle.BattleStatus",
          "name": "battleStatus",
          "type": "uint8"
        },
        {
          "internalType": "address",
          "name": "winner",
          "type": "address"
        }
      ],
      "stateMutability": "view",
      "type": "function"
    },
    {
      "inputs": [
        {
          "internalType": "uint256",
          "name": "_battleId",
          "type": "uint256"
        }
      ],
      "name": "cancelBattle",
      "outputs": [],
      "stateMutability": "nonpayable",
      "type": "function"
    },
    {
      "inputs": [
        {
          "internalType": "string",
          "name": "_name",
          "type": "string"
        },
        {
          "internalType": "uint256",
          "name": "_characterTokenId",
          "type": "uint256"
        }
      ],
      "name": "createBattle",
      "outputs": [],
      "stateMutability": "nonpayable",
      "type": "function"
    },
    {
      "inputs": [],
      "name": "getActiveBattlesCount",
      "outputs": [
        {
          "internalType": "uint256",
          "name": "",
          "type": "uint256"
        }
      ],
      "stateMutability": "view",
      "type": "function"
    },
    {
      "inputs": [],
      "name": "getActiveBattlesId",
      "outputs": [
        {
          "internalType": "uint256[]",
          "name": "",
          "type": "uint256[]"
        }
      ],
      "stateMutability": "view",
      "type": "function"
    },
    {
      "inputs": [
        {
          "internalType": "uint256",
          "name": "_battleId",
          "type": "uint256"
        }
      ],
      "name": "getBattle",
      "outputs": [
        {
          "components": [
            {
              "internalType": "uint256",
              "name": "battleId",
              "type": "uint256"
            },
            {
              "internalType": "string",
              "name": "name",
              "type": "string"
            },
            {
              "internalType": "address[2]",
              "name": "players",
              "type": "address[2]"
            },
            {
              "internalType": "uint256[2]",
              "name": "characterIds",
              "type": "uint256[2]"
            },
            {
              "internalType": "uint256[2]",
              "name": "moves",
              "type": "uint256[2]"
            },
            {
              "internalType": "enum Battle.BattleStatus",
              "name": "battleStatus",
              "type": "uint8"
            },
            {
              "internalType": "address",
              "name": "winner",
              "type": "address"
            },
            {
              "internalType": "uint256[2]",
              "name": "initialHealth",
              "type": "uint256[2]"
            },
            {
              "internalType": "bool[2]",
              "name": "moveSubmitted",
              "type": "bool[2]"
            }
          ],
          "internalType": "struct Battle.BattleData",
          "name": "",
          "type": "tuple"
        }
      ],
      "stateMutability": "view",
      "type": "function"
    },
    {
      "inputs": [
        {
          "internalType": "uint256",
          "name": "battleId",
          "type": "uint256"
        }
      ],
      "name": "getBattleMoves",
      "outputs": [
        {
          "internalType": "uint256[2]",
          "name": "",
          "type": "uint256[2]"
        }
      ],
      "stateMutability": "view",
      "type": "function"
    },
    {
      "inputs": [
        {
          "internalType": "uint256",
          "name": "battleId",
          "type": "uint256"
        }
      ],
      "name": "getBattleParticipants",
      "outputs": [
        {
          "internalType": "address[2]",
          "name": "",
          "type": "address[2]"
        }
      ],
      "stateMutability": "view",
      "type": "function"
    },
    {
      "inputs": [
        {
          "internalType": "uint256",
          "name": "battleId",
          "type": "uint256"
        },
        {
          "internalType": "address",
          "name": "player",
          "type": "address"
        }
      ],
      "name": "getCharacterHealth",
      "outputs": [
        {
          "internalType": "uint256",
          "name": "",
          "type": "uint256"
        }
      ],
      "stateMutability": "view",
      "type": "function"
    },
    {
      "inputs": [
        {
          "internalType": "uint256",
          "name": "battleId",
          "type": "uint256"
        },
        {
          "internalType": "address",
          "name": "player",
          "type": "address"
        }
      ],
      "name": "getCharacterProxy",
      "outputs": [
        {
          "components": [
            {
              "internalType": "uint256",
              "name": "id",
              "type": "uint256"
            },
            {
              "internalType": "address",
              "name": "owner",
              "type": "address"
            },
            {
              "internalType": "uint256",
              "name": "health",
              "type": "uint256"
            },
            {
              "internalType": "uint256",
              "name": "attack",
              "type": "uint256"
            },
            {
              "internalType": "uint256",
              "name": "defense",
              "type": "uint256"
            },
            {
              "internalType": "uint256",
              "name": "mana",
              "type": "uint256"
            },
            {
              "internalType": "uint256",
              "name": "typeId",
              "type": "uint256"
            }
          ],
          "internalType": "struct Battle.CharacterProxy",
          "name": "",
          "type": "tuple"
        }
      ],
      "stateMutability": "view",
      "type": "function"
    },
    {
      "inputs": [
        {
          "internalType": "uint256",
          "name": "battleId",
          "type": "uint256"
        },
        {
          "internalType": "uint256",
          "name": "characterTokenId",
          "type": "uint256"
        }
      ],
      "name": "joinBattle",
      "outputs": [],
      "stateMutability": "nonpayable",
      "type": "function"
    },
    {
      "inputs": [
        {
          "internalType": "address",
          "name": "",
          "type": "address"
        }
      ],
      "name": "playerOngoingBattle",
      "outputs": [
        {
          "internalType": "uint256",
          "name": "",
          "type": "uint256"
        }
      ],
      "stateMutability": "view",
      "type": "function"
    },
    {
      "inputs": [
        {
          "internalType": "uint256",
          "name": "_battleId",
          "type": "uint256"
        }
      ],
      "name": "quitBattle",
      "outputs": [],
      "stateMutability": "nonpayable",
      "type": "function"
    },
    {
      "inputs": [
        {
          "internalType": "uint256",
          "name": "battleId",
          "type": "uint256"
        },
        {
          "internalType": "enum Battle.Move",
          "name": "move",
          "type": "uint8"
        }
      ],
      "name": "submitMove",
      "outputs": [],
      "stateMutability": "nonpayable",
      "type": "function"
    }
  ],
  "bytecode": "0x6080346200009657601f62002fab38819003918201601f19168301916001600160401b038311848410176200009b57808492604094855283398101031262000096576200005a60206200005283620000b1565b9201620000b1565b600680546001600160a01b039384166001600160a01b03199182161790915560078054929093169116179055604051612ee49081620000c78239f35b600080fd5b634e487b7160e01b600052604160045260246000fd5b51906001600160a01b0382168203620000965756fe60806040526004361015610013575b600080fd5b60003560e01c8063068a1e4914610153578063239752ab1461014a57806332ccca0e1461014157806333056109146101385780634188de5a1461012f5780634c4c447e14610126578063606d2e961461011d5780636dd0ce7a146101145780636efe60c11461010b5780638bdb3b2f14610102578063a10d80de146100f9578063a9b9be3f146100f0578063b39ab4c5146100e7578063ba7b5596146100de578063dc55da6f146100d55763e44dba4f146100cd57600080fd5b61000e610d7c565b5061000e610c62565b5061000e610bea565b5061000e610b4c565b5061000e610b2d565b5061000e610a55565b5061000e6109dc565b5061000e61095a565b5061000e6108a7565b5061000e6106ed565b5061000e610366565b5061000e610333565b5061000e6102d2565b5061000e6101fc565b5061000e6101bc565b503461000e57600036600319011261000e576020600154604051908152f35b50634e487b7160e01b600052603260045260246000fd5b6001548110156101af575b6001600052600080516020612e8f8339815191520190600090565b6101b7610172565b610194565b503461000e57602036600319011261000e5760043560015481101561000e576020906001600052600080516020612e8f8339815191520154604051908152f35b503461000e5760008060031936011261029857604051809160019081549384845260208094018095848452600080516020612e8f83398151915290845b818110610285575050508161024f910382610628565b6040519380850191818652518092526040850195925b8281106102725785870386f35b8351875295810195928101928401610265565b8254845292870192918601918601610239565b80fd5b6040810192916000915b600283106102b257505050565b81516001600160a01b0316815260019290920191602091820191016102a5565b503461000e57602036600319011261000e57604080516102f1816105f2565b369037600435600052600060205261031e6103126002604060002001612061565b6040519182918261029b565b0390f35b6001600160a01b0381160361000e57565b503461000e57604036600319011261000e57602061035e60243561035681610322565b600435612d80565b604051908152f35b503461000e57602036600319011261000e57600435600090808252816020526103df6008604084206103b46103a4600283015460018060a01b031690565b6001600160a01b03163314611a14565b016103d26103c3825460ff1690565b6103cc816106c0565b15611a6f565b805460ff19166002179055565b336000908152600360205260409020829055610405816000526002602052604060002090565b5461046161042961041f61041a600154611352565b610189565b90549060031b1c90565b6104518161043685610189565b90919082549060031b600019811b9283911b16911916179055565b6000526002602052604060002090565b5561046a611abb565b8161047f826000526002602052604060002090565b556040519033907fb91ae85405a99ffc07c694757cfbb7a52994c3b4daf39d040a6d56b1429ed7c78484a3f35b90600182811c921680156104dc575b60208310146104c657565b634e487b7160e01b600052602260045260246000fd5b91607f16916104bb565b90600092918054916104f7836104ac565b9182825260019384811690816000146105595750600114610519575b50505050565b90919394506000526020928360002092846000945b838610610545575050505001019038808080610513565b80548587018301529401938590820161052e565b9294505050602093945060ff191683830152151560051b01019038808080610513565b50634e487b7160e01b600052604160045260246000fd5b61012081019081106001600160401b038211176105af57604052565b6105b761057c565b604052565b60e081019081106001600160401b038211176105af57604052565b60a081019081106001600160401b038211176105af57604052565b604081019081106001600160401b038211176105af57604052565b606081019081106001600160401b038211176105af57604052565b90601f801991011681019081106001600160401b038211176105af57604052565b9061066461065d92604051938480926104e6565b0383610628565b565b918091926000905b82821061068657501161067f575050565b6000910152565b9150806020918301518186015201829161066e565b906020916106b481518092818552858086019101610666565b601f01601f1916010190565b600311156106ca57565b634e487b7160e01b600052602160045260246000fd5b906106ea826106c0565b52565b503461000e57602036600319011261000e5760043560005260006020526040600020805460086040519261072f8461072881600185016104e6565b0385610628565b015460ff811690610752604051948594855260806020860152608085019061069b565b9161075c816106c0565b604084015260081c6001600160a01b031660608301520390f35b6000915b6002831061078757505050565b81516001600160a01b03168152600192909201916020918201910161077a565b6000915b600283106107b857505050565b6001908251815260208091019201920191906107ab565b6000915b600283106107e057505050565b60019082511515815260208091019201920191906107d3565b6108a49060208152825160208201526101a061010061082960208601516101c060408601526101e085019061069b565b9461083c60408201516060860190610776565b61084e606082015160a08601906107a7565b610860608082015160e08601906107a7565b61087360a08201516101208601906106e0565b60c08101516001600160a01b031661014085015261089a60e08201516101608601906107a7565b01519101906107cf565b90565b503461000e57602036600319011261000e5761031e604080516108c981610593565b600081526060602082015281516108df816105f2565b823682378282015281516108f2816105f2565b823682376060820152610903612d6c565b6080820152600060a0820152600060c082015261091e612d6c565b60e082015261010061092e612d6c565b91015261094f61094a6004356000526000602052604060002090565b612b5d565b9051918291826107f9565b503461000e57602036600319011261000e5760043561097881610322565b60018060a01b031660005260036020526020604060002054604051908152f35b6040519061066482610593565b60405190610664826105f2565b6020906001600160401b0381116109cf575b601f01601f19160190565b6109d761057c565b6109c4565b503461000e57604036600319011261000e576004356001600160401b03811161000e573660238201121561000e578060040135610a18816109b2565b90610a266040519283610628565b808252366024828501011161000e576020816000926024610a5396018386013783010152602435906113bf565b005b503461000e57602036600319011261000e5760043560018060a01b0390610aa582610a9d6002610a8f856000526000602052604060002090565b01546001600160a01b031690565b161515612ac7565b6040610abe61094a836000526000602052604060002090565b0191610ad98351828151163314908115610b14575b50612bfe565b82515116338103610b095750610b03610af6610a53935160200190565b516001600160a01b031690565b90612c4a565b90610a539250612c4a565b6020015133915083166001600160a01b03161438610ad3565b503461000e57600036600319011261000e576020600554604051908152f35b503461000e57604036600319011261000e57600435602435600381101561000e5781610a5392600052600060205260018060a01b036002604060002001541633148015610ba2575b610b9d90611bd7565b611e09565b50610b9d610be1610bd5610bc0600260406000200160010190600090565b905460039190911b1c6001600160a01b031690565b6001600160a01b031690565b33149050610b94565b503461000e57602036600319011261000e576040808051610c0a816105f2565b36903760043560005260006020528060002060078251918383018381106001600160401b03821117610c55575b84526006810154835201546020820152610c53825180926107a7565bf35b610c5d61057c565b610c37565b503461000e5760408060031936011261000e5761031e90610d26610d21602435610c8b81610322565b8360c08151610c99816105bc565b600091818380935282602082015282858201528260608201528260808201528260a0820152015281516020810190610cff81610cf18760043586909160349282526001600160601b03199060601b1660208201520190565b03601f198101835282610628565b51902081526004602052209060018060a01b0316600052602052604060002090565b611fec565b90519182918291909160c08060e08301948051845260018060a01b03602082015116602085015260408101516040850152606081015160608501526080810151608085015260a081015160a08501520151910152565b503461000e57604036600319011261000e57600480357fa72410bb9591bbefc185513ffe3391dab998fd386517820464188cc105719bcf610f05610ef3610bd5610bc0610ee686602435610ece610ddd610bd560065460018060a01b031690565b602060405180926331a9108f60e11b8252818f610e0288839283019190602083019252565b03915afa908115610f38575b600091610f0a575b506001600160a01b0390610e2d9082163314610f67565b336000908152600360205260409020610e48905b5415610fb3565b610ead83610436610e63876000526000602052604060002090565b9e8f610ea36008820196610e8a610e7b895460ff1690565b610e84816106c0565b15611b23565b610e9c600284019d8e60010190600090565b1615611b6f565b0160010190600090565b6001860180546001600160a01b03191633179055805460ff19166001179055565b3360008181526003602052604090208390559061165a565b546001600160a01b031690565b92604051918291600133970183611bbb565b0390a3005b610f2b915060203d8111610f31575b610f238183610628565b810190610f45565b38610e16565b503d610f19565b610f40610f5a565b610e0e565b9081602091031261000e57516108a481610322565b506040513d6000823e3d90fd5b15610f6e57565b60405162461bcd60e51b815260206004820152601e60248201527f4e6f7420746865206f776e6572206f66207468652063686172616374657200006044820152606490fd5b15610fba57565b60405162461bcd60e51b815260206004820152602e60248201527f506c6179657220616c72656164792070617274696369706174696e6720696e2060448201526d616e6f7468657220626174746c6560901b6064820152608490fd5b6106ea826106c0565b90601f811161102d57505050565b600091825260208220906020601f850160051c83019410611069575b601f0160051c01915b82811061105e57505050565b818155600101611052565b9092508290611049565b91909182516001600160401b038111611142575b61109b8161109584546104ac565b8461101f565b602080601f83116001146110d75750819293946000926110cc575b50508160011b916000199060031b1c1916179055565b0151905038806110b6565b90601f198316956110ed85600052602060002090565b926000905b88821061112a57505083600195969710611111575b505050811b019055565b015160001960f88460031b161c19169055388080611107565b806001859682949686015181550195019301906110f2565b61114a61057c565b611087565b50634e487b7160e01b600052601160045260246000fd5b906000905b6002821061117857505050565b805183546001600160a01b0319166001600160a01b0391909116178355600192830192919091019060200161116b565b906000905b600282106111ba57505050565b60016020828293518655019301910190916111ad565b906111da816106c0565b60ff80198354169116179055565b60009081925b600284106111fc5750505050565b8060209151151583548560031b60ff811b9283911b169119161783550192600180930192601f8411611233575b50600101926111ee565b60009350909101906001611229565b600b6101006106649380518455611260602082015160018601611073565b611271604082015160028601611166565b6112826060820151600486016111a8565b6112936080820151600686016111a8565b6112e1600885016112b160a08401516112ab816106c0565b826111d0565b60c08301516001600160a01b03168154610100600160a81b03191660089190911b610100600160a81b0316179055565b6112f260e0820151600986016111a8565b015191016111e8565b60015468010000000000000000811015611345575b6001810180600155811015611338575b6001600052600080516020612e8f8339815191520155565b611340610172565b611320565b61134d61057c565b611310565b60018110611362575b6000190190565b61136a61114f565b61135b565b6003811061137f575b6002190190565b61138761114f565b611378565b818110611397570390565b61139f61114f565b0390565b60019060001981146113b3570190565b6113bb61114f565b0190565b6006547fcd51df591e2f9319b98d783b63c675c8ab2e63d44101da9e5a12af2b1fcab47992919061150b906113fc906001600160a01b0316610bd5565b6040516331a9108f60e11b81526004810185905260209161144491908390829060249082905afa908115611598575b60009161157b575b506001600160a01b03163314610f67565b33600090815260036020526040902061145c90610e41565b600554926114686109a5565b3381526000838201526114796109a5565b86815260008482015261148a6109a5565b906000825260008583015261149d6109a5565b92600084526000868501526114b06109a5565b94600086526000878701526114c3610998565b96898852870152604086015260608501526080840152600060a0840152600060c084015260e0830152610100820152611506836000526000602052604060002090565b611242565b611514816112fb565b61151f600154611352565b611533826000526002602052604060002090565b5533600090815260036020526040902081905561155181338461165a565b60408051918252336020830152810191909152606090a16106646115766005546113a3565b600555565b6115929150833d8511610f3157610f238183610628565b38611433565b6115a0610f5a565b61142b565b9081602091031261000e575190565b604051906115c18261060d565b602282526132b960f11b6040837f4368617261637465722070726f7879206372656174656420666f7220706c617960208201520152565b60405190611605826105f2565b60078252662432b0b63a341d60c91b6020830152565b60405190611628826105f2565b600582526426b0b7309d60d91b6020830152565b600282101561164d575b0190600090565b611655610172565b611646565b604080516020808201868152606086901b6bffffffffffffffffffffffff191683850152949592949092916116c79187916116b0919061169d8160548101610cf1565b5190206000526004602052604060002090565b9060018060a01b0316600052602052604060002090565b8381556001810180546001600160a01b0319166001600160a01b0388161790559160068054909190611701906001600160a01b0316610bd5565b918651946316442a7f60e11b8652828660049581806117278c8a83019190602083019252565b03915afa958615611a07575b6000966119da575b50600281018681558254909896976118cf976118bf9695949392611767906001600160a01b0316610bd5565b85825180926319ddc96160e21b82528180611789888d83019190602083019252565b03915afa9081156119cd575b6000916119b0575b50600384015583546117b7906001600160a01b0316610bd5565b85825180926323ce9af360e11b825281806117d9888d83019190602083019252565b03915afa9081156119a3575b600091611986575b50838701558354611806906001600160a01b0316610bd5565b958582518098633aeec56760e11b82528180611829888783019190602083019252565b03915afa968715611979575b600097611950575b5091859161187d9388600587015561185e610bd5885460018060a01b031690565b9151631bd2a47760e01b81529081019283529384928391829160200190565b03915afa938415611943575b600094611914575b505001556118a6876118a16115b4565b612e40565b6118b7856118b26115f8565b612de2565b6118b261161b565b6000526000602052604060002090565b60028101549093906118e9906001600160a01b0316610bd5565b6001600160a01b0390911603611903575060099054910155565b61066492909150600a016000610436565b611934929450803d1061193c575b61192c8183610628565b8101906115a5565b913880611891565b503d611922565b61194b610f5a565b611889565b61187d939197509161196f8793843d861161193c5761192c8183610628565b979193509161183d565b611981610f5a565b611835565b61199d9150863d881161193c5761192c8183610628565b386117ed565b6119ab610f5a565b6117e5565b6119c79150863d881161193c5761192c8183610628565b3861179d565b6119d5610f5a565b611795565b6118cf9650906119fc8493926118bf96953d861161193c5761192c8183610628565b96509091929361173b565b611a0f610f5a565b611733565b15611a1b57565b60405162461bcd60e51b815260206004820152602660248201527f4f6e6c79207468652063726561746f722063616e2063616e63656c2074686520604482015265626174746c6560d01b6064820152608490fd5b15611a7657565b60405162461bcd60e51b815260206004820152601e60248201527f43616e6e6f742063616e63656c2061207374617274656420626174746c6500006044820152606490fd5b6001548015611b0d5760007fb10e2d527612073b26eecdfd717e6a320cf44b4afac2b0732d9fcbe2b7fa0cf5811983019280841015611b00575b600183520155600155565b611b08610172565b611af5565b634e487b7160e01b600052603160045260246000fd5b15611b2a57565b60405162461bcd60e51b815260206004820152601a60248201527f426174746c652068617320616c726561647920737461727465640000000000006044820152606490fd5b15611b7657565b60405162461bcd60e51b815260206004820152601e60248201527f426174746c6520616c7265616479206861732074776f20706c617965727300006044820152606490fd5b929190611bd26020916040865260408601906104e6565b930152565b15611bde57565b60405162461bcd60e51b815260206004820152602860248201527f4f6e6c79207061727469636970616e74732063616e2063616c6c207468697320604482015267333ab731ba34b7b760c11b6064820152608490fd5b15611c3b57565b60405162461bcd60e51b815260206004820152602b60248201527f426174746c6520686173206e6f742073746172746564206f722068617320616c60448201526a1c9958591e48195b99195960aa1b6064820152608490fd5b15611c9b57565b60405162461bcd60e51b815260206004820152603260248201527f496e76616c6964206d6f76653a206d7573742062652041545441434b2c204445604482015271119153910b081bdc881554d157d4d2d2531360721b6064820152608490fd5b601f909291926002841015611d15575b8360051c01921690565b611d1d610172565b611d0b565b15611d2957565b606460405162461bcd60e51b815260206004820152602060248201527f4d6f766520616c7265616479207375626d697474656420627920706c617965726044820152fd5b919060208301926106ea826106c0565b60405190611d8a8261060d565b60248252633910189d60e11b6040837f4368617261637465722070726f7879206865616c746820666f7220706c61796560208201520152565b60405190611dd08261060d565b60248252633910191d60e11b6040837f4368617261637465722070726f7879206865616c746820666f7220706c61796560208201520152565b90611e1e826000526000602052604060002090565b90611e416001611e32600885015460ff1690565b611e3b816106c0565b14611c34565b611e4a816106c0565b80158015611fd9575b8015611fc6575b611e6390611c94565b600282018054909190611e7e906001600160a01b0316610bd5565b3303611fbd5760ff60005b168181600b860195611e9b8288611cfb565b905460039190911b1c60ff1615611eb190611d22565b611eba836106c0565b60060190611ec79161163c565b611ee4929082549060031b600019811b9283911b16911916179055565b611eee9084611cfb565b611f0d919060019082549060031b60ff811b9283911b16911916179055565b83604051803393611f1e9082611d6d565b037fdf31d6d9480a495c0b6667daa4c8f92d5420a9b58cc52f19657329ba9aa8143a91a380546001600160a01b0316611f579084612d80565b611f5f611d7d565b90611f6991612de2565b60010154611f80906001600160a01b031683612d80565b611f88611dc3565b90611f9291612de2565b5460ff81169081611faf575b50611fa65750565b610664906121d2565b60ff915060081c1638611f9e565b60ff6001611e89565b50611fd0816106c0565b60028114611e5a565b50611fe3816106c0565b60018114611e53565b90604051611ff9816105bc565b8254815260018301546001600160a01b03166020820152600283015460408201526003830154606082015260048301546080820152600583015460a082015260069092015460c0830152565b60039060031981116113b3570190565b811981116113b3570190565b60405191906000835b6002821061207e57505050610664826105f2565b82546001600160a01b03168152600192830192919091019060200161206a565b9080601f8301121561000e578151906001600160401b038211612105575b8160051b604051936020936120d385840187610628565b8552838086019282010192831161000e578301905b8282106120f6575050505090565b815181529083019083016120e8565b61210d61057c565b6120bc565b602091828282031261000e5781516001600160401b039283821161000e57019160a08383031261000e5760405193612149856105d7565b835185528084015182811161000e5784019083601f8301121561000e57815191612172836109b2565b926121806040519485610628565b8084528583828401011161000e5761219d91838086019101610666565b8501526040830151604085015260608301516060850152608083015190811161000e576121ca920161209e565b608082015290565b6121e6816000526000602052604060002090565b9060018060a01b03600283015416916040517fc6bf860cbc15f7020f73993a671f01bbb1831a8a7a12c126ca735eb632e757756125196020830183612245888884909160349282526001600160601b03199060601b1660208201520190565b0393612259601f1995868101835282610628565b5190209261226b600386016000610bc0565b906122a8604051918261229c60208201958b87909160349282526001600160601b03199060601b1660208201520190565b03908101835282610628565b5190206122c6610d21886116b0876000526004602052604060002090565b9384612306610d216122e2856000526004602052604060002090565b6122f060038b016000610bc0565b60018060a01b0316600052602052604060002090565b988992886123126109a5565b600080825260208201526006820154908082158080612a2a575b156128565750505084612403612403956116b0612474968a60029c976124649761235d60606124829f9e0151612a3f565b61236a6060850151612a3f565b90604085019081519080821160001461284c576123869161138c565b905b52604089018051909180821115612842576123a29161138c565b905b5260a088016123b3815161136f565b905260a083016123c3815161136f565b90526123d08f8301612061565b9e8f915b146126f8575b5060026123eb60078301600061041f565b14612576575b50506000526004602052604060002090565b8151815560208201516001820180546001600160a01b0319166001600160a01b03929092169190911790559060069060c09060408101516002850155606081015160038501556080810151600485015560a081015160058501550151910155565b6000526004602052604060002090565b6122f060038a016000610bc0565b60028501547fe85058f4893f92696bd72945da4fc8a26957c32630cd7492babba8aa5b7446fc906040906001600160a01b031695018051909561250a60406124ce60038b016000610bc0565b9b018051604080518d81526001600160a01b0395861660208201529081019590955292909b1660608401526080830191909152819060a0820190565b0390a16040519182918261029b565b0390a1518015801561256d575b156125585761066493511060001461254a57600201546001600160a01b0316610b03565b610b03906003016000610bc0565b50600b01805461ffff19169055506106649050565b50835115612526565b60609160006125cb602061259661041f6004612614970160010190600090565b6006546125ab906001600160a01b0316610bd5565b604051808095819463ef3877c560e01b8352600483019190602083019252565b03915afa9081156126eb575b82916126cc575b506007546125f4906001600160a01b0316610bd5565b6040518080968194635ec407d760e11b8352600483019190602083019252565b03915afa9182156126bf575b600092612690575b5061263e83612643920151604084015190612055565b612a3f565b6040880180519091808211156126865761265c9161138c565b905b52015161267060a08c0191825161138c565b90526001600160a01b0383168c528f8a906123f1565b505060009061265e565b612643919250836126b661263e923d806000833e6126ae8183610628565b810190612112565b93925050612628565b6126c7610f5a565b612620565b6126e5915060203d60201161193c5761192c8183610628565b386125de565b6126f3610f5a565b6125d7565b6127de90606061276a6000612721602060048801546125ab610bd560065460018060a01b031690565b03915afa908115612835575b8291612816575b5060075461274a906001600160a01b0316610bd5565b6040518080958194635ec407d760e11b8352600483019190602083019252565b03915afa908115612809575b6000916127ee575b5061279461263e838d0151604084015190612055565b6040870180519091808211156127e4576127ad9161138c565b905b5201516127c160a08b0191825161138c565b90526127d1600384016000610bc0565b6001600160a01b03169052565b8d6123da565b50506000906127af565b61280391503d806000833e6126ae8183610628565b3861277e565b612811610f5a565b612776565b61282f915060203d60201161193c5761192c8183610628565b38612734565b61283d610f5a565b61272d565b50506000906123a4565b5050600090612388565b956116b0612474968a859c976124829c9b9660028961240398886124039f60016124649e1490818092612a13575b156128b3575050505060a08a0161289b8151612045565b905260a085016128ab8151612045565b90525b6123d4565b806129fc575b156129465750506128ae906128d160608d0151612a3f565b6080880151818110612910575b505060a08c016128ee815161136f565b905260a087016128fe8151612045565b90526127d16001878601016000610bc0565b6129199161138c565b60408801805190918082111561293c576129329161138c565b905b5238806128de565b5050600090612934565b806129e7575b612958575b50506123d4565b6129a8918c61296a60608a0151612a3f565b6080820151908082106129af575b505060a0016129878151612045565b905260a08801612997815161136f565b90526001600160a01b039091169052565b3888612951565b6040916129bb9161138c565b910180519091808211156129dd576129d29161138c565b905b528c3880612978565b50506000906129d4565b506129f660078701600061041f565b1561294c565b506001612a0d60078901600061041f565b146128b9565b506001612a2460078a01600061041f565b14612884565b50612a3960078601600061041f565b1561232c565b600a90046001601460405160208101904482524260408201523360601b606082015260548152608081018181106001600160401b03821117612aba575b6040525190200681198111612aad575b01908060001904821181151516612aa1570290565b612aa961114f565b0290565b612ab561114f565b612a8c565b612ac261057c565b612a7c565b15612ace57565b60405162461bcd60e51b8152602060048201526011602482015270426174746c65206e6f7420666f756e642160781b6044820152606490fd5b60405191906000835b60028210612b2457505050610664826105f2565b6001602081928554815201930191019091612b10565b9060ff60405192548181161515845260081c1615156020830152610664826105f2565b90612bf6600b612b6b610998565b9380548552612b7c60018201610649565b6020860152612b8d60028201612061565b6040860152612b9e60048201612b07565b6060860152612baf60068201612b07565b6080860152612bdf6008820154612bcc60ff821660a08901611016565b60081c6001600160a01b031660c0870152565b612beb60098201612b07565b60e086015201612b3a565b610100830152565b15612c0557565b60405162461bcd60e51b815260206004820152601b60248201527f596f7520617265206e6f7420696e207468697320626174746c652100000000006044820152606490fd5b7f0baf086d5a49a7d9df72185aa0488cadd724e398bb5e99c615ee24c699deba91612c7f826000526000602052604060002090565b60088082018054610100600160a81b0319169186901b610100600160a81b0316919091178155909390612cb1906103d2565b612cc5836000526002602052604060002090565b54612cda61042961041f61041a600154611352565b55612ce3611abb565b6000838152600260205260408120556002840192612d5f612d1a610bc0612d10875460018060a01b031690565b9660010190600090565b6001600160a01b0386811660008181526003602052604080822082905584841682528120559481169690948703612d645750915b600160405194859416970183611bbb565b0390a3565b905091612d4e565b60405190612d79826105f2565b6040368337565b600291612ddd91604051612db681610cf185602083019586909160349282526001600160601b03199060601b1660208201520190565b519020600052600460205260406000209060018060a01b0316600052602052604060002090565b015490565b612e25612e119161066493604051938492632d839cb360e21b602085015260406024850152606484019061069b565b90604483015203601f198101835282610628565b600080916020815191016a636f6e736f6c652e6c6f675afa50565b612e25612e6f916106649360405193849263319af33360e01b602085015260406024850152606484019061069b565b6001600160a01b0391909116604483015203601f19810183528261062856feb10e2d527612073b26eecdfd717e6a320cf44b4afac2b0732d9fcbe2b7fa0cf6a2646970667358221220d7a5e7be5f1a641e1c95bb80422f907c47c36e3e137e029a40469f20e7d1736364736f6c634300080f0033",
  "linkReferences": {},
  "deployedLinkReferences": {}
}