{
  "_format": "hh-sol-artifact-1",
  "contractName": "BattleItems",
  "sourceName": "contracts/BattleItems.sol",
  "abi": [
    {
      "inputs": [],
      "stateMutability": "nonpayable",
      "type": "constructor"
    },
    {
      "inputs": [
        {
          "internalType": "address",
          "name": "operator",
          "type": "address"
        }
      ],
      "name": "OperatorNotAllowed",
      "type": "error"
    },
    {
      "anonymous": false,
      "inputs": [
        {
          "indexed": true,
          "internalType": "address",
          "name": "_owner",
          "type": "address"
        },
        {
          "indexed": true,
          "internalType": "address",
          "name": "_operator",
          "type": "address"
        },
        {
          "indexed": false,
          "internalType": "bool",
          "name": "_approved",
          "type": "bool"
        }
      ],
      "name": "ApprovalForAll",
      "type": "event"
    },
    {
      "anonymous": false,
      "inputs": [
        {
          "indexed": false,
          "internalType": "string",
          "name": "prevURI",
          "type": "string"
        },
        {
          "indexed": false,
          "internalType": "string",
          "name": "newURI",
          "type": "string"
        }
      ],
      "name": "ContractURIUpdated",
      "type": "event"
    },
    {
      "anonymous": false,
      "inputs": [
        {
          "indexed": true,
          "internalType": "address",
          "name": "newRoyaltyRecipient",
          "type": "address"
        },
        {
          "indexed": false,
          "internalType": "uint256",
          "name": "newRoyaltyBps",
          "type": "uint256"
        }
      ],
      "name": "DefaultRoyalty",
      "type": "event"
    },
    {
      "anonymous": false,
      "inputs": [
        {
          "indexed": true,
          "internalType": "uint256",
          "name": "itemId",
          "type": "uint256"
        },
        {
          "indexed": false,
          "internalType": "string",
          "name": "name",
          "type": "string"
        },
        {
          "indexed": false,
          "internalType": "uint256",
          "name": "attack",
          "type": "uint256"
        },
        {
          "indexed": false,
          "internalType": "uint256",
          "name": "defense",
          "type": "uint256"
        },
        {
          "indexed": false,
          "internalType": "uint256",
          "name": "health",
          "type": "uint256"
        },
        {
          "indexed": false,
          "internalType": "uint256",
          "name": "mana",
          "type": "uint256"
        },
        {
          "indexed": false,
          "internalType": "enum CharData.ItemType",
          "name": "itemType",
          "type": "uint8"
        }
      ],
      "name": "NewItem",
      "type": "event"
    },
    {
      "anonymous": false,
      "inputs": [
        {
          "indexed": false,
          "internalType": "bool",
          "name": "restriction",
          "type": "bool"
        }
      ],
      "name": "OperatorRestriction",
      "type": "event"
    },
    {
      "anonymous": false,
      "inputs": [
        {
          "indexed": true,
          "internalType": "address",
          "name": "prevOwner",
          "type": "address"
        },
        {
          "indexed": true,
          "internalType": "address",
          "name": "newOwner",
          "type": "address"
        }
      ],
      "name": "OwnerUpdated",
      "type": "event"
    },
    {
      "anonymous": false,
      "inputs": [
        {
          "indexed": true,
          "internalType": "uint256",
          "name": "tokenId",
          "type": "uint256"
        },
        {
          "indexed": true,
          "internalType": "address",
          "name": "royaltyRecipient",
          "type": "address"
        },
        {
          "indexed": false,
          "internalType": "uint256",
          "name": "royaltyBps",
          "type": "uint256"
        }
      ],
      "name": "RoyaltyForToken",
      "type": "event"
    },
    {
      "anonymous": false,
      "inputs": [
        {
          "indexed": true,
          "internalType": "address",
          "name": "_operator",
          "type": "address"
        },
        {
          "indexed": true,
          "internalType": "address",
          "name": "_from",
          "type": "address"
        },
        {
          "indexed": true,
          "internalType": "address",
          "name": "_to",
          "type": "address"
        },
        {
          "indexed": false,
          "internalType": "uint256[]",
          "name": "_ids",
          "type": "uint256[]"
        },
        {
          "indexed": false,
          "internalType": "uint256[]",
          "name": "_values",
          "type": "uint256[]"
        }
      ],
      "name": "TransferBatch",
      "type": "event"
    },
    {
      "anonymous": false,
      "inputs": [
        {
          "indexed": true,
          "internalType": "address",
          "name": "_operator",
          "type": "address"
        },
        {
          "indexed": true,
          "internalType": "address",
          "name": "_from",
          "type": "address"
        },
        {
          "indexed": true,
          "internalType": "address",
          "name": "_to",
          "type": "address"
        },
        {
          "indexed": false,
          "internalType": "uint256",
          "name": "_id",
          "type": "uint256"
        },
        {
          "indexed": false,
          "internalType": "uint256",
          "name": "_value",
          "type": "uint256"
        }
      ],
      "name": "TransferSingle",
      "type": "event"
    },
    {
      "anonymous": false,
      "inputs": [
        {
          "indexed": false,
          "internalType": "string",
          "name": "_value",
          "type": "string"
        },
        {
          "indexed": true,
          "internalType": "uint256",
          "name": "_id",
          "type": "uint256"
        }
      ],
      "name": "URI",
      "type": "event"
    },
    {
      "anonymous": false,
      "inputs": [
        {
          "indexed": true,
          "internalType": "uint256",
          "name": "itemId",
          "type": "uint256"
        },
        {
          "indexed": false,
          "internalType": "string",
          "name": "name",
          "type": "string"
        },
        {
          "indexed": false,
          "internalType": "uint256",
          "name": "attack",
          "type": "uint256"
        },
        {
          "indexed": false,
          "internalType": "uint256",
          "name": "defense",
          "type": "uint256"
        },
        {
          "indexed": false,
          "internalType": "uint256",
          "name": "health",
          "type": "uint256"
        },
        {
          "indexed": false,
          "internalType": "uint256",
          "name": "mana",
          "type": "uint256"
        }
      ],
      "name": "UpdatedItem",
      "type": "event"
    },
    {
      "inputs": [],
      "name": "OPERATOR_FILTER_REGISTRY",
      "outputs": [
        {
          "internalType": "contract IOperatorFilterRegistry",
          "name": "",
          "type": "address"
        }
      ],
      "stateMutability": "view",
      "type": "function"
    },
    {
      "inputs": [
        {
          "internalType": "address",
          "name": "",
          "type": "address"
        },
        {
          "internalType": "uint256",
          "name": "",
          "type": "uint256"
        }
      ],
      "name": "balanceOf",
      "outputs": [
        {
          "internalType": "uint256",
          "name": "",
          "type": "uint256"
        }
      ],
      "stateMutability": "view",
      "type": "function"
    },
    {
      "inputs": [
        {
          "internalType": "address[]",
          "name": "accounts",
          "type": "address[]"
        },
        {
          "internalType": "uint256[]",
          "name": "ids",
          "type": "uint256[]"
        }
      ],
      "name": "balanceOfBatch",
      "outputs": [
        {
          "internalType": "uint256[]",
          "name": "",
          "type": "uint256[]"
        }
      ],
      "stateMutability": "view",
      "type": "function"
    },
    {
      "inputs": [
        {
          "internalType": "address",
          "name": "_to",
          "type": "address"
        },
        {
          "internalType": "uint256[]",
          "name": "_tokenIds",
          "type": "uint256[]"
        },
        {
          "internalType": "uint256[]",
          "name": "_amounts",
          "type": "uint256[]"
        },
        {
          "internalType": "string",
          "name": "_baseURI",
          "type": "string"
        }
      ],
      "name": "batchMintTo",
      "outputs": [],
      "stateMutability": "nonpayable",
      "type": "function"
    },
    {
      "inputs": [
        {
          "internalType": "address",
          "name": "_owner",
          "type": "address"
        },
        {
          "internalType": "uint256",
          "name": "_tokenId",
          "type": "uint256"
        },
        {
          "internalType": "uint256",
          "name": "_amount",
          "type": "uint256"
        }
      ],
      "name": "burn",
      "outputs": [],
      "stateMutability": "nonpayable",
      "type": "function"
    },
    {
      "inputs": [
        {
          "internalType": "address",
          "name": "_owner",
          "type": "address"
        },
        {
          "internalType": "uint256[]",
          "name": "_tokenIds",
          "type": "uint256[]"
        },
        {
          "internalType": "uint256[]",
          "name": "_amounts",
          "type": "uint256[]"
        }
      ],
      "name": "burnBatch",
      "outputs": [],
      "stateMutability": "nonpayable",
      "type": "function"
    },
    {
      "inputs": [],
      "name": "contractURI",
      "outputs": [
        {
          "internalType": "string",
          "name": "",
          "type": "string"
        }
      ],
      "stateMutability": "view",
      "type": "function"
    },
    {
      "inputs": [
        {
          "internalType": "string",
          "name": "_name",
          "type": "string"
        },
        {
          "internalType": "uint256",
          "name": "_attack",
          "type": "uint256"
        },
        {
          "internalType": "uint256",
          "name": "_defense",
          "type": "uint256"
        },
        {
          "internalType": "uint256",
          "name": "_health",
          "type": "uint256"
        },
        {
          "internalType": "uint256",
          "name": "_mana",
          "type": "uint256"
        },
        {
          "internalType": "enum CharData.ItemType",
          "name": "_itemType",
          "type": "uint8"
        },
        {
          "internalType": "string",
          "name": "_tokenURI",
          "type": "string"
        }
      ],
      "name": "createItem",
      "outputs": [],
      "stateMutability": "nonpayable",
      "type": "function"
    },
    {
      "inputs": [],
      "name": "getBaseURICount",
      "outputs": [
        {
          "internalType": "uint256",
          "name": "",
          "type": "uint256"
        }
      ],
      "stateMutability": "view",
      "type": "function"
    },
    {
      "inputs": [
        {
          "internalType": "uint256",
          "name": "_index",
          "type": "uint256"
        }
      ],
      "name": "getBatchIdAtIndex",
      "outputs": [
        {
          "internalType": "uint256",
          "name": "",
          "type": "uint256"
        }
      ],
      "stateMutability": "view",
      "type": "function"
    },
    {
      "inputs": [],
      "name": "getDefaultRoyaltyInfo",
      "outputs": [
        {
          "internalType": "address",
          "name": "",
          "type": "address"
        },
        {
          "internalType": "uint16",
          "name": "",
          "type": "uint16"
        }
      ],
      "stateMutability": "view",
      "type": "function"
    },
    {
      "inputs": [
        {
          "internalType": "uint256",
          "name": "_itemId",
          "type": "uint256"
        }
      ],
      "name": "getItem",
      "outputs": [
        {
          "components": [
            {
              "internalType": "string",
              "name": "name",
              "type": "string"
            },
            {
              "internalType": "uint256",
              "name": "attack",
              "type": "uint256"
            },
            {
              "internalType": "uint256",
              "name": "defense",
              "type": "uint256"
            },
            {
              "internalType": "uint256",
              "name": "health",
              "type": "uint256"
            },
            {
              "internalType": "uint256",
              "name": "mana",
              "type": "uint256"
            },
            {
              "internalType": "enum CharData.ItemType",
              "name": "itemType",
              "type": "uint8"
            }
          ],
          "internalType": "struct BattleItems.Item",
          "name": "",
          "type": "tuple"
        }
      ],
      "stateMutability": "view",
      "type": "function"
    },
    {
      "inputs": [
        {
          "internalType": "uint256",
          "name": "tokenId",
          "type": "uint256"
        }
      ],
      "name": "getItemType",
      "outputs": [
        {
          "internalType": "enum CharData.ItemType",
          "name": "",
          "type": "uint8"
        }
      ],
      "stateMutability": "view",
      "type": "function"
    },
    {
      "inputs": [
        {
          "internalType": "uint256",
          "name": "_tokenId",
          "type": "uint256"
        }
      ],
      "name": "getRoyaltyInfoForToken",
      "outputs": [
        {
          "internalType": "address",
          "name": "",
          "type": "address"
        },
        {
          "internalType": "uint16",
          "name": "",
          "type": "uint16"
        }
      ],
      "stateMutability": "view",
      "type": "function"
    },
    {
      "inputs": [
        {
          "internalType": "address",
          "name": "",
          "type": "address"
        },
        {
          "internalType": "address",
          "name": "",
          "type": "address"
        }
      ],
      "name": "isApprovedForAll",
      "outputs": [
        {
          "internalType": "bool",
          "name": "",
          "type": "bool"
        }
      ],
      "stateMutability": "view",
      "type": "function"
    },
    {
      "inputs": [
        {
          "internalType": "uint256",
          "name": "",
          "type": "uint256"
        }
      ],
      "name": "items",
      "outputs": [
        {
          "internalType": "string",
          "name": "name",
          "type": "string"
        },
        {
          "internalType": "uint256",
          "name": "attack",
          "type": "uint256"
        },
        {
          "internalType": "uint256",
          "name": "defense",
          "type": "uint256"
        },
        {
          "internalType": "uint256",
          "name": "health",
          "type": "uint256"
        },
        {
          "internalType": "uint256",
          "name": "mana",
          "type": "uint256"
        },
        {
          "internalType": "enum CharData.ItemType",
          "name": "itemType",
          "type": "uint8"
        }
      ],
      "stateMutability": "view",
      "type": "function"
    },
    {
      "inputs": [
        {
          "internalType": "uint256",
          "name": "_itemId",
          "type": "uint256"
        }
      ],
      "name": "mintItem",
      "outputs": [],
      "stateMutability": "nonpayable",
      "type": "function"
    },
    {
      "inputs": [
        {
          "internalType": "address",
          "name": "_to",
          "type": "address"
        },
        {
          "internalType": "uint256",
          "name": "_tokenId",
          "type": "uint256"
        },
        {
          "internalType": "string",
          "name": "_tokenURI",
          "type": "string"
        },
        {
          "internalType": "uint256",
          "name": "_amount",
          "type": "uint256"
        }
      ],
      "name": "mintTo",
      "outputs": [],
      "stateMutability": "nonpayable",
      "type": "function"
    },
    {
      "inputs": [
        {
          "internalType": "bytes[]",
          "name": "data",
          "type": "bytes[]"
        }
      ],
      "name": "multicall",
      "outputs": [
        {
          "internalType": "bytes[]",
          "name": "results",
          "type": "bytes[]"
        }
      ],
      "stateMutability": "nonpayable",
      "type": "function"
    },
    {
      "inputs": [],
      "name": "name",
      "outputs": [
        {
          "internalType": "string",
          "name": "",
          "type": "string"
        }
      ],
      "stateMutability": "view",
      "type": "function"
    },
    {
      "inputs": [],
      "name": "nextTokenIdToMint",
      "outputs": [
        {
          "internalType": "uint256",
          "name": "",
          "type": "uint256"
        }
      ],
      "stateMutability": "view",
      "type": "function"
    },
    {
      "inputs": [],
      "name": "operatorRestriction",
      "outputs": [
        {
          "internalType": "bool",
          "name": "",
          "type": "bool"
        }
      ],
      "stateMutability": "view",
      "type": "function"
    },
    {
      "inputs": [],
      "name": "owner",
      "outputs": [
        {
          "internalType": "address",
          "name": "",
          "type": "address"
        }
      ],
      "stateMutability": "view",
      "type": "function"
    },
    {
      "inputs": [
        {
          "internalType": "uint256",
          "name": "tokenId",
          "type": "uint256"
        },
        {
          "internalType": "uint256",
          "name": "salePrice",
          "type": "uint256"
        }
      ],
      "name": "royaltyInfo",
      "outputs": [
        {
          "internalType": "address",
          "name": "receiver",
          "type": "address"
        },
        {
          "internalType": "uint256",
          "name": "royaltyAmount",
          "type": "uint256"
        }
      ],
      "stateMutability": "view",
      "type": "function"
    },
    {
      "inputs": [
        {
          "internalType": "address",
          "name": "from",
          "type": "address"
        },
        {
          "internalType": "address",
          "name": "to",
          "type": "address"
        },
        {
          "internalType": "uint256[]",
          "name": "ids",
          "type": "uint256[]"
        },
        {
          "internalType": "uint256[]",
          "name": "amounts",
          "type": "uint256[]"
        },
        {
          "internalType": "bytes",
          "name": "data",
          "type": "bytes"
        }
      ],
      "name": "safeBatchTransferFrom",
      "outputs": [],
      "stateMutability": "nonpayable",
      "type": "function"
    },
    {
      "inputs": [
        {
          "internalType": "address",
          "name": "from",
          "type": "address"
        },
        {
          "internalType": "address",
          "name": "to",
          "type": "address"
        },
        {
          "internalType": "uint256",
          "name": "id",
          "type": "uint256"
        },
        {
          "internalType": "uint256",
          "name": "amount",
          "type": "uint256"
        },
        {
          "internalType": "bytes",
          "name": "data",
          "type": "bytes"
        }
      ],
      "name": "safeTransferFrom",
      "outputs": [],
      "stateMutability": "nonpayable",
      "type": "function"
    },
    {
      "inputs": [
        {
          "internalType": "address",
          "name": "operator",
          "type": "address"
        },
        {
          "internalType": "bool",
          "name": "approved",
          "type": "bool"
        }
      ],
      "name": "setApprovalForAll",
      "outputs": [],
      "stateMutability": "nonpayable",
      "type": "function"
    },
    {
      "inputs": [
        {
          "internalType": "string",
          "name": "_uri",
          "type": "string"
        }
      ],
      "name": "setContractURI",
      "outputs": [],
      "stateMutability": "nonpayable",
      "type": "function"
    },
    {
      "inputs": [
        {
          "internalType": "address",
          "name": "_royaltyRecipient",
          "type": "address"
        },
        {
          "internalType": "uint256",
          "name": "_royaltyBps",
          "type": "uint256"
        }
      ],
      "name": "setDefaultRoyaltyInfo",
      "outputs": [],
      "stateMutability": "nonpayable",
      "type": "function"
    },
    {
      "inputs": [
        {
          "internalType": "bool",
          "name": "_restriction",
          "type": "bool"
        }
      ],
      "name": "setOperatorRestriction",
      "outputs": [],
      "stateMutability": "nonpayable",
      "type": "function"
    },
    {
      "inputs": [
        {
          "internalType": "address",
          "name": "_newOwner",
          "type": "address"
        }
      ],
      "name": "setOwner",
      "outputs": [],
      "stateMutability": "nonpayable",
      "type": "function"
    },
    {
      "inputs": [
        {
          "internalType": "uint256",
          "name": "_tokenId",
          "type": "uint256"
        },
        {
          "internalType": "address",
          "name": "_recipient",
          "type": "address"
        },
        {
          "internalType": "uint256",
          "name": "_bps",
          "type": "uint256"
        }
      ],
      "name": "setRoyaltyInfoForToken",
      "outputs": [],
      "stateMutability": "nonpayable",
      "type": "function"
    },
    {
      "inputs": [
        {
          "internalType": "bytes4",
          "name": "interfaceId",
          "type": "bytes4"
        }
      ],
      "name": "supportsInterface",
      "outputs": [
        {
          "internalType": "bool",
          "name": "",
          "type": "bool"
        }
      ],
      "stateMutability": "view",
      "type": "function"
    },
    {
      "inputs": [],
      "name": "symbol",
      "outputs": [
        {
          "internalType": "string",
          "name": "",
          "type": "string"
        }
      ],
      "stateMutability": "view",
      "type": "function"
    },
    {
      "inputs": [
        {
          "internalType": "uint256",
          "name": "",
          "type": "uint256"
        }
      ],
      "name": "totalSupply",
      "outputs": [
        {
          "internalType": "uint256",
          "name": "",
          "type": "uint256"
        }
      ],
      "stateMutability": "view",
      "type": "function"
    },
    {
      "inputs": [
        {
          "internalType": "uint256",
          "name": "_itemId",
          "type": "uint256"
        },
        {
          "internalType": "string",
          "name": "_name",
          "type": "string"
        },
        {
          "internalType": "uint256",
          "name": "_attack",
          "type": "uint256"
        },
        {
          "internalType": "uint256",
          "name": "_defense",
          "type": "uint256"
        },
        {
          "internalType": "uint256",
          "name": "_health",
          "type": "uint256"
        },
        {
          "internalType": "uint256",
          "name": "_mana",
          "type": "uint256"
        }
      ],
      "name": "updateItem",
      "outputs": [],
      "stateMutability": "nonpayable",
      "type": "function"
    },
    {
      "inputs": [
        {
          "internalType": "uint256",
          "name": "_tokenId",
          "type": "uint256"
        }
      ],
      "name": "uri",
      "outputs": [
        {
          "internalType": "string",
          "name": "",
          "type": "string"
        }
      ],
      "stateMutability": "view",
      "type": "function"
    }
  ],
  "bytecode": "0x60806040523480156200001157600080fd5b506040518060400160405280600c81526020016b125d195b50dbdb9d1c9858dd60a21b81525060405180604001604052806002815260200161494360f01b815250600080733cc6cdda760b79bafa08df41ecfa224f810dceb66001858581600090816200007f9190620003fe565b5060016200008e8282620003fe565b5050506daaeb6d7670e522a718067333cd4e3b15620001d65780156200012457604051633e9f1edf60e11b81523060048201526001600160a01b03831660248201526daaeb6d7670e522a718067333cd4e90637d3e3dbe906044015b600060405180830381600087803b1580156200010557600080fd5b505af11580156200011a573d6000803e3d6000fd5b50505050620001d6565b6001600160a01b03821615620001755760405163a0af290360e01b81523060048201526001600160a01b03831660248201526daaeb6d7670e522a718067333cd4e9063a0af290390604401620000ea565b604051632210724360e11b81523060048201526daaeb6d7670e522a718067333cd4e90634420e48690602401600060405180830381600087803b158015620001bc57600080fd5b505af1158015620001d1573d6000803e3d6000fd5b505050505b50620001e490503362000215565b620001f9826001600160801b03831662000267565b62000205600162000312565b50506001600c5550620004ca9050565b600680546001600160a01b038381166001600160a01b0319831681179093556040519116919082907f8292fce18fa69edf4db7b94ea2e58241df0ae57f97e0a6c9b29067028bf92d7690600090a35050565b612710811115620002b05760405162461bcd60e51b815260206004820152600f60248201526e45786365656473206d61782062707360881b604482015260640160405180910390fd5b600780546001600160a01b0384166001600160b01b03199091168117600160a01b61ffff851602179091556040518281527f90d7ec04bcb8978719414f82e52e4cb651db41d0e6f8cea6118c2191e6183adb9060200160405180910390a25050565b600b805460ff19168215159081179091556040519081527f38475885990d8dfe9ca01f0ef160a1b5514426eab9ddbc953a3353410ba780969060200160405180910390a150565b634e487b7160e01b600052604160045260246000fd5b600181811c908216806200038457607f821691505b602082108103620003a557634e487b7160e01b600052602260045260246000fd5b50919050565b601f821115620003f957600081815260208120601f850160051c81016020861015620003d45750805b601f850160051c820191505b81811015620003f557828155600101620003e0565b5050505b505050565b81516001600160401b038111156200041a576200041a62000359565b62000432816200042b84546200036f565b84620003ab565b602080601f8311600181146200046a5760008415620004515750858301515b600019600386901b1c1916600185901b178555620003f5565b600085815260208120601f198616915b828110156200049b578886015182559484019460019091019084016200047a565b5085821015620004ba5787850151600019600388901b60f8161c191681555b5050505050600190811b01905550565b613c0080620004da6000396000f3fe608060405234801561001057600080fd5b50600436106102265760003560e01c806363b45e2d11610130578063b03f4528116100b8578063d13d8a6a1161007c578063d13d8a6a1461055a578063e8a3d4851461056d578063e985e9c514610575578063f242432a146105a3578063f5298aca146105b657600080fd5b8063b03f4528146104c4578063b24f2d39146104d7578063bd85b039146104f5578063bfb231d214610515578063c19a4ef51461053a57600080fd5b8063949c09f7116100ff578063949c09f71461046357806395d89b41146104765780639bcf7a151461047e578063a22cb46514610491578063ac9650d8146104a457600080fd5b806363b45e2d146104245780636b20c4541461042c5780638da5cb5b1461043f578063938e3d7b1461045057600080fd5b80633129e773116101b35780634cc157df116101825780634cc157df1461039c5780634e1273f4146103d1578063504c6e01146103f157806355455b5e146103fe578063600dd5ea1461041157600080fd5b80633129e7731461033457806332f0cd64146103545780633b1475a71461036757806341f434341461036f57600080fd5b806313af4035116101fa57806313af4035146102b457806317fb8594146102c95780632419f51b146102dc5780632a55205a146102ef5780632eb2c2d61461032157600080fd5b8062fdd58e1461022b57806301ffc9a71461026957806306fdde031461028c5780630e89341c146102a1575b600080fd5b610256610239366004612c88565b600260209081526000928352604080842090915290825290205481565b6040519081526020015b60405180910390f35b61027c610277366004612cc8565b6105c9565b6040519015158152602001610260565b610294610636565b6040516102609190612d35565b6102946102af366004612d48565b6106c4565b6102c76102c2366004612d61565b6107b2565b005b6102c76102d7366004612d48565b6107eb565b6102566102ea366004612d48565b610863565b6103026102fd366004612d7c565b6108d1565b604080516001600160a01b039093168352602083019190915201610260565b6102c761032f366004612ee7565b61090e565b610347610342366004612d48565b61093d565b6040516102609190612fc8565b6102c761036236600461302e565b610a4f565b600c54610256565b6103846daaeb6d7670e522a718067333cd4e81565b6040516001600160a01b039091168152602001610260565b6103af6103aa366004612d48565b610ac0565b604080516001600160a01b03909316835261ffff909116602083015201610260565b6103e46103df36600461304b565b610b2b565b6040516102609190613150565b600b5461027c9060ff1681565b6102c761040c366004613163565b610c3f565b6102c761041f366004612c88565b610d69565b600954610256565b6102c761043a366004613205565b610d97565b6006546001600160a01b0316610384565b6102c761045e366004613278565b610f39565b6102c76104713660046132ac565b610f66565b610294611161565b6102c761048c366004613344565b61116e565b6102c761049f366004613379565b6111a2565b6104b76104b23660046133b0565b6111b6565b6040516102609190613424565b6102c76104d2366004613486565b6112aa565b6007546001600160a01b03811690600160a01b900461ffff166103af565b610256610503366004612d48565b600d6020526000908152604090205481565b610528610523366004612d48565b611395565b604051610260969594939291906134e4565b61054d610548366004612d48565b611455565b6040516102609190613529565b6102c7610568366004613537565b6114c1565b610294611595565b61027c6105833660046135a0565b600360209081526000928352604080842090915290825290205460ff1681565b6102c76105b13660046135d3565b6115a2565b6102c76105c4366004613637565b6115c9565b60006301ffc9a760e01b6001600160e01b0319831614806105fa5750636cdb3d1360e11b6001600160e01b03198316145b8061061557506303a24d0760e21b6001600160e01b03198316145b8061063057506001600160e01b0319821663152a902d60e11b145b92915050565b600080546106439061366a565b80601f016020809104026020016040519081016040528092919081815260200182805461066f9061366a565b80156106bc5780601f10610691576101008083540402835291602001916106bc565b820191906000526020600020905b81548152906001019060200180831161069f57829003601f168201915b505050505081565b6000818152600460205260408120805460609291906106e29061366a565b80601f016020809104026020016040519081016040528092919081815260200182805461070e9061366a565b801561075b5780601f106107305761010080835404028352916020019161075b565b820191906000526020600020905b81548152906001019060200180831161073e57829003601f168201915b505050505090506000815111156107725792915050565b600061077d846116be565b9050806107898561185a565b60405160200161079a9291906136a4565b60405160208183030381529060405292505050919050565b6107ba611962565b6107df5760405162461bcd60e51b81526004016107d6906136d3565b60405180910390fd5b6107e88161198f565b50565b600f5481111580156107fc57508015155b61083e5760405162461bcd60e51b8152602060048201526013602482015272125d195b48191bd95cc81b9bdd08195e1a5cdd606a1b60448201526064016107d6565b600081905061085f33826001604051806020016040528060008152506119e1565b5050565b600061086e60095490565b82106108ac5760405162461bcd60e51b815260206004820152600d60248201526c092dcecc2d8d2c840d2dcc8caf609b1b60448201526064016107d6565b600982815481106108bf576108bf6136fb565b90600052602060002001549050919050565b6000806000806108e086610ac0565b90945084925061ffff1690506127106108f98287613727565b6109039190613754565b925050509250929050565b846001600160a01b03811633146109285761092833611ac1565b6109358686868686611b85565b505050505050565b610945612c26565b6000828152600e602052604090819020815160c0810190925280548290829061096d9061366a565b80601f01602080910402602001604051908101604052809291908181526020018280546109999061366a565b80156109e65780601f106109bb576101008083540402835291602001916109e6565b820191906000526020600020905b8154815290600101906020018083116109c957829003601f168201915b50505091835250506001820154602082015260028201546040820152600382015460608201526004808301546080830152600583015460a09092019160ff1690811115610a3557610a35612f90565b6004811115610a4657610a46612f90565b90525092915050565b610a57611962565b610ab75760405162461bcd60e51b815260206004820152602b60248201527f4e6f7420617574686f72697a656420746f20736574206f70657261746f72207260448201526a32b9ba3934b1ba34b7b71760a91b60648201526084016107d6565b6107e881611c0d565b6000818152600860209081526040808320815180830190925280546001600160a01b031680835260019091015492820192909252829115610b075780516020820151610b21565b6007546001600160a01b03811690600160a01b900461ffff165b9250925050915091565b60608151835114610b4e5760405162461bcd60e51b81526004016107d690613768565b600083516001600160401b03811115610b6957610b69612d9e565b604051908082528060200260200182016040528015610b92578160200160208202803683370190505b50905060005b8451811015610c375760026000868381518110610bb757610bb76136fb565b60200260200101516001600160a01b03166001600160a01b031681526020019081526020016000206000858381518110610bf357610bf36136fb565b6020026020010151815260200190815260200160002054828281518110610c1c57610c1c6136fb565b6020908102919091010152610c3081613791565b9050610b98565b509392505050565b600f8054600019916000610c5283613791565b91905055506040518060c00160405280898152602001888152602001878152602001868152602001858152602001846004811115610c9257610c92612f90565b9052600f546000908152600e6020526040902081518190610cb390826137f0565b506020820151816001015560408201518160020155606082015181600301556080820151816004015560a08201518160050160006101000a81548160ff02191690836004811115610d0657610d06612f90565b0217905550905050610d1b33828460016112aa565b600f547f72179630b0270540e4712367108b0fc82aa3c3d27b89592989bdc1526e40cbcb898989898989604051610d57969594939291906134e4565b60405180910390a25050505050505050565b610d71611962565b610d8d5760405162461bcd60e51b81526004016107d6906136d3565b61085f8282611c54565b336001600160a01b038416811480610dd457506001600160a01b0380851660009081526003602090815260408083209385168352929052205460ff165b610e145760405162461bcd60e51b81526020600482015260116024820152702ab730b8383937bb32b21031b0b63632b960791b60448201526064016107d6565b8151835114610e575760405162461bcd60e51b815260206004820152600f60248201526e098cadccee8d040dad2e6dac2e8c6d608b1b60448201526064016107d6565b60005b8351811015610f2757828181518110610e7557610e756136fb565b602002602001015160026000876001600160a01b03166001600160a01b031681526020019081526020016000206000868481518110610eb657610eb66136fb565b60200260200101518152602001908152602001600020541015610f155760405162461bcd60e51b8152602060048201526017602482015276139bdd08195b9bdd59da081d1bdad95b9cc81bdddb9959604a1b60448201526064016107d6565b610f206001826138af565b9050610e5a565b50610f33848484611cfa565b50505050565b610f41611962565b610f5d5760405162461bcd60e51b81526004016107d6906136d3565b6107e881611eaf565b610f6e611962565b610fb45760405162461bcd60e51b81526020600482015260176024820152762737ba1030baba3437b934bd32b2103a379036b4b73a1760491b60448201526064016107d6565b6000825111610ffc5760405162461bcd60e51b815260206004820152601460248201527326b4b73a34b733903d32b937903a37b5b2b7399760611b60448201526064016107d6565b81518351146110405760405162461bcd60e51b815260206004820152601060248201526f2632b733ba341036b4b9b6b0ba31b41760811b60448201526064016107d6565b600061104b600c5490565b9050806000805b865181101561112157600019878281518110611070576110706136fb565b6020026020010151036110ba5783878281518110611090576110906136fb565b60209081029190910101526110a66001856138af565b93506110b36001836138af565b915061110f565b838782815181106110cd576110cd6136fb565b60200260200101511061110f5760405162461bcd60e51b815260206004820152600a6024820152691a5b9d985b1a59081a5960b21b60448201526064016107d6565b61111a6001826138af565b9050611052565b50801561113657611133828286611f8b565b50505b82600c8190555061115887878760405180602001604052806000815250611fef565b50505050505050565b600180546106439061366a565b611176611962565b6111925760405162461bcd60e51b81526004016107d6906136d3565b61119d83838361214a565b505050565b816111ac81611ac1565b61119d8383612214565b6060816001600160401b038111156111d0576111d0612d9e565b60405190808252806020026020018201604052801561120357816020015b60608152602001906001900390816111ee5790505b50905060005b828110156112a35761127330858584818110611227576112276136fb565b905060200281019061123991906138c2565b8080601f0160208091040260200160405190810160405280939291908181526020018383808284376000920191909152506122c392505050565b828281518110611285576112856136fb565b6020026020010181905250808061129b90613791565b915050611209565b5092915050565b6112b2611962565b6112f85760405162461bcd60e51b81526020600482015260176024820152762737ba1030baba3437b934bd32b2103a379036b4b73a1760491b60448201526064016107d6565b600080611304600c5490565b9050600019850361133a578091506001600c600082825461132591906138af565b90915550611335905081856122ef565b61137a565b8085106113765760405162461bcd60e51b815260206004820152600a6024820152691a5b9d985b1a59081a5960b21b60448201526064016107d6565b8491505b610935868385604051806020016040528060008152506119e1565b600e602052600090815260409020805481906113b09061366a565b80601f01602080910402602001604051908101604052809291908181526020018280546113dc9061366a565b80156114295780601f106113fe57610100808354040283529160200191611429565b820191906000526020600020905b81548152906001019060200180831161140c57829003601f168201915b505050600184015460028501546003860154600487015460059097015495969295919450925060ff1686565b6000818152600d60205260408120546114a85760405162461bcd60e51b8152602060048201526015602482015274125b9d985b1a59081a5d195b481d1bdad95b881251605a1b60448201526064016107d6565b506000908152600e602052604090206005015460ff1690565b600f548611156115095760405162461bcd60e51b8152602060048201526013602482015272125d195b48191bd95cc81b9bdd08195e1a5cdd606a1b60448201526064016107d6565b6000868152600e6020526040902061152186826137f0565b506000868152600e6020526040908190206001810186905560028101859055600381018490556004018290555186907f37a429bc969345aff9788d658800803d998060e9538858b0985ec4c33f90a32b90611585908890889088908890889061390f565b60405180910390a2505050505050565b600580546106439061366a565b846001600160a01b03811633146115bc576115bc33611ac1565b6109358686868686612307565b336001600160a01b03841681148061160657506001600160a01b0380851660009081526003602090815260408083209385168352929052205460ff165b6116465760405162461bcd60e51b81526020600482015260116024820152702ab730b8383937bb32b21031b0b63632b960791b60448201526064016107d6565b6001600160a01b03841660009081526002602090815260408083208684529091529020548211156116b35760405162461bcd60e51b8152602060048201526017602482015276139bdd08195b9bdd59da081d1bdad95b9cc81bdddb9959604a1b60448201526064016107d6565b610f3384848461238f565b606060006116cb60095490565b90506000600980548060200260200160405190810160405280929190818152602001828054801561171b57602002820191906000526020600020905b815481526020019060010190808311611707575b5050505050905060005b8281101561181f5781818151811061173f5761173f6136fb565b602002602001015185101561180d57600a6000838381518110611764576117646136fb565b6020026020010151815260200190815260200160002080546117859061366a565b80601f01602080910402602001604051908101604052809291908181526020018280546117b19061366a565b80156117fe5780601f106117d3576101008083540402835291602001916117fe565b820191906000526020600020905b8154815290600101906020018083116117e157829003601f168201915b50505050509350505050919050565b6118186001826138af565b9050611725565b5060405162461bcd60e51b815260206004820152600f60248201526e125b9d985b1a59081d1bdad95b9259608a1b60448201526064016107d6565b6060816000036118815750506040805180820190915260018152600360fc1b602082015290565b8160005b81156118ab578061189581613791565b91506118a49050600a83613754565b9150611885565b6000816001600160401b038111156118c5576118c5612d9e565b6040519080825280601f01601f1916602001820160405280156118ef576020820181803683370190505b5090505b841561195a57611904600183613946565b9150611911600a86613959565b61191c9060306138af565b60f81b818381518110611931576119316136fb565b60200101906001600160f81b031916908160001a905350611953600a86613754565b94506118f3565b949350505050565b60006119766006546001600160a01b031690565b6001600160a01b0316336001600160a01b031614905090565b600680546001600160a01b038381166001600160a01b0319831681179093556040519116919082907f8292fce18fa69edf4db7b94ea2e58241df0ae57f97e0a6c9b29067028bf92d7690600090a35050565b6001600160a01b038416611a075760405162461bcd60e51b81526004016107d69061396d565b33611a2781600087611a18886124b4565b611a21886124b4565b876124ff565b6001600160a01b038516600090815260026020908152604080832087845290915281208054859290611a5a9084906138af565b909155505060408051858152602081018590526001600160a01b0380881692600092918516917fc3d58168c5ae7397731d063d5bbf3d657854427343f4c083240f7aacaa2d0f62910160405180910390a4611aba8160008787878761260b565b5050505050565b600b5460ff16156107e8576daaeb6d7670e522a718067333cd4e3b156107e857604051633185c44d60e21b81523060048201526001600160a01b03821660248201526daaeb6d7670e522a718067333cd4e9063c617113490604401602060405180830381865afa158015611b39573d6000803e3d6000fd5b505050506040513d601f19601f82011682018060405250810190611b5d9190613993565b6107e857604051633b79c77360e21b81526001600160a01b03821660048201526024016107d6565b6001600160a01b038516331480611bbf57506001600160a01b038516600090815260036020908152604080832033845290915290205460ff165b611c005760405162461bcd60e51b81526020600482015260126024820152710853d5d3915497d3d497d054141493d5915160721b60448201526064016107d6565b611aba858585858561275e565b600b805460ff19168215159081179091556040519081527f38475885990d8dfe9ca01f0ef160a1b5514426eab9ddbc953a3353410ba780969060200160405180910390a150565b612710811115611c985760405162461bcd60e51b815260206004820152600f60248201526e45786365656473206d61782062707360881b60448201526064016107d6565b600780546001600160a01b0384166001600160b01b03199091168117600160a01b61ffff851602179091556040518281527f90d7ec04bcb8978719414f82e52e4cb651db41d0e6f8cea6118c2191e6183adb9060200160405180910390a25050565b6001600160a01b038316611d415760405162461bcd60e51b815260206004820152600e60248201526d232927a6afad22a927afa0a2222960911b60448201526064016107d6565b8051825114611d625760405162461bcd60e51b81526004016107d690613768565b6000339050611d85818560008686604051806020016040528060008152506124ff565b60005b8351811015611e50576000848281518110611da557611da56136fb565b602002602001015190506000848381518110611dc357611dc36136fb565b6020908102919091018101516001600160a01b0389166000908152600283526040808220868352909352919091205490915081811015611e155760405162461bcd60e51b81526004016107d6906139b0565b6001600160a01b0388166000908152600260209081526040808320958352949052929092209103905580611e4881613791565b915050611d88565b5060006001600160a01b0316846001600160a01b0316826001600160a01b03167f4a39dc06d4c0dbc64b70af90fd698a233a518aa5d07e595d983b8c0526c8f7fb8686604051611ea19291906139da565b60405180910390a450505050565b600060058054611ebe9061366a565b80601f0160208091040260200160405190810160405280929190818152602001828054611eea9061366a565b8015611f375780601f10611f0c57610100808354040283529160200191611f37565b820191906000526020600020905b815481529060010190602001808311611f1a57829003601f168201915b505050505090508160059081611f4d91906137f0565b507fc9c7c3fe08b88b4df9d4d47ef47d2c43d55c025a0ba88ca442580ed9e7348a168183604051611f7f929190613a08565b60405180910390a15050565b600080611f9884866138af565b60098054600181019091557f6e1540171b6c0c960b71a7020d9f60077f6af931a8bbf590da0223dacf75c7af018190556000818152600a60205260409020909250829150611fe684826137f0565b50935093915050565b6001600160a01b0384166120155760405162461bcd60e51b81526004016107d69061396d565b81518351146120365760405162461bcd60e51b81526004016107d690613768565b33612046816000878787876124ff565b60005b84518110156120e257838181518110612064576120646136fb565b602002602001015160026000886001600160a01b03166001600160a01b0316815260200190815260200160002060008784815181106120a5576120a56136fb565b6020026020010151815260200190815260200160002060008282546120ca91906138af565b909155508190506120da81613791565b915050612049565b50846001600160a01b031660006001600160a01b0316826001600160a01b03167f4a39dc06d4c0dbc64b70af90fd698a233a518aa5d07e595d983b8c0526c8f7fb87876040516121339291906139da565b60405180910390a4611aba8160008787878761290d565b61271081111561218e5760405162461bcd60e51b815260206004820152600f60248201526e45786365656473206d61782062707360881b60448201526064016107d6565b6040805180820182526001600160a01b038481168083526020808401868152600089815260088352869020945185546001600160a01b031916941693909317845591516001909301929092559151838152909185917f7365cf4122f072a3365c20d54eff9b38d73c096c28e1892ec8f5b0e403a0f12d91015b60405180910390a3505050565b336001600160a01b038316810361225e5760405162461bcd60e51b815260206004820152600e60248201526d20a8282927ab24a723afa9a2a62360911b60448201526064016107d6565b6001600160a01b03818116600081815260036020908152604080832094881680845294825291829020805460ff191687151590811790915591519182527f17307eab39ab6107e8899845ad3d59bd9653f200f220920489ca2b5937696c319101612207565b60606122e88383604051806060016040528060278152602001613ba4602791396129ea565b9392505050565b600082815260046020526040902061119d82826137f0565b6001600160a01b03851633148061234157506001600160a01b038516600090815260036020908152604080832033845290915290205460ff165b6123825760405162461bcd60e51b81526020600482015260126024820152710853d5d3915497d3d497d054141493d5915160721b60448201526064016107d6565b611aba8585858585612ac7565b6001600160a01b0383166123d65760405162461bcd60e51b815260206004820152600e60248201526d232927a6afad22a927afa0a2222960911b60448201526064016107d6565b33612405818560006123e7876124b4565b6123f0876124b4565b604051806020016040528060008152506124ff565b6001600160a01b0384166000908152600260209081526040808320868452909152902054828110156124495760405162461bcd60e51b81526004016107d6906139b0565b6001600160a01b03858116600081815260026020908152604080832089845282528083208887039055805189815291820188905291938616917fc3d58168c5ae7397731d063d5bbf3d657854427343f4c083240f7aacaa2d0f62910160405180910390a45050505050565b604080516001808252818301909252606091600091906020808301908036833701905050905082816000815181106124ee576124ee6136fb565b602090810291909101015292915050565b6001600160a01b0385166125865760005b83518110156125845782818151811061252b5761252b6136fb565b6020026020010151600d6000868481518110612549576125496136fb565b60200260200101518152602001908152602001600020600082825461256e91906138af565b9091555061257d905081613791565b9050612510565b505b6001600160a01b0384166109355760005b8351811015611158578281815181106125b2576125b26136fb565b6020026020010151600d60008684815181106125d0576125d06136fb565b6020026020010151815260200190815260200160002060008282546125f59190613946565b90915550612604905081613791565b9050612597565b6001600160a01b0384163b156109355760405163f23a6e6160e01b81526001600160a01b0385169063f23a6e619061264f9089908990889088908890600401613a2d565b6020604051808303816000875af192505050801561268a575060408051601f3d908101601f1916820190925261268791810190613a67565b60015b61270c57612696613a84565b806308c379a0036126cf57506126aa613aa0565b806126b557506126d1565b8060405162461bcd60e51b81526004016107d69190612d35565b505b60405162461bcd60e51b815260206004820152601060248201526f10a2a92198989a9aa922a1a2a4ab22a960811b60448201526064016107d6565b6001600160e01b0319811663f23a6e6160e01b146111585760405162461bcd60e51b815260206004820152600f60248201526e1513d2d15394d7d491529150d51151608a1b60448201526064016107d6565b815183511461277f5760405162461bcd60e51b81526004016107d690613768565b6001600160a01b0384166127a55760405162461bcd60e51b81526004016107d69061396d565b336127b48187878787876124ff565b60005b84518110156128ab5760008582815181106127d4576127d46136fb565b6020026020010151905060008583815181106127f2576127f26136fb565b6020908102919091018101516001600160a01b038b1660009081526002835260408082208683529093529190912054909150818110156128445760405162461bcd60e51b81526004016107d6906139b0565b6001600160a01b03808b16600090815260026020818152604080842088855282528084208787039055938d168352908152828220868352905290812080548492906128909084906138af565b92505081905550505050806128a490613791565b90506127b7565b50846001600160a01b0316866001600160a01b0316826001600160a01b03167f4a39dc06d4c0dbc64b70af90fd698a233a518aa5d07e595d983b8c0526c8f7fb87876040516128fb9291906139da565b60405180910390a46109358187878787875b6001600160a01b0384163b156109355760405163bc197c8160e01b81526001600160a01b0385169063bc197c81906129519089908990889088908890600401613b29565b6020604051808303816000875af192505050801561298c575060408051601f3d908101601f1916820190925261298991810190613a67565b60015b61299857612696613a84565b6001600160e01b0319811663bc197c8160e01b146111585760405162461bcd60e51b815260206004820152600f60248201526e1513d2d15394d7d491529150d51151608a1b60448201526064016107d6565b60606001600160a01b0384163b612a525760405162461bcd60e51b815260206004820152602660248201527f416464726573733a2064656c65676174652063616c6c20746f206e6f6e2d636f6044820152651b9d1c9858dd60d21b60648201526084016107d6565b600080856001600160a01b031685604051612a6d9190613b87565b600060405180830381855af49150503d8060008114612aa8576040519150601f19603f3d011682016040523d82523d6000602084013e612aad565b606091505b5091509150612abd828286612bed565b9695505050505050565b6001600160a01b038416612aed5760405162461bcd60e51b81526004016107d69061396d565b33612afd818787611a18886124b4565b6001600160a01b038616600090815260026020908152604080832087845290915290205483811015612b415760405162461bcd60e51b81526004016107d6906139b0565b6001600160a01b0380881660009081526002602081815260408084208a855282528084208987039055938a16835290815282822088835290529081208054869290612b8d9084906138af565b909155505060408051868152602081018690526001600160a01b03808916928a821692918616917fc3d58168c5ae7397731d063d5bbf3d657854427343f4c083240f7aacaa2d0f62910160405180910390a461115882888888888861260b565b60608315612bfc5750816122e8565b825115612c0c5782518084602001fd5b8160405162461bcd60e51b81526004016107d69190612d35565b6040518060c00160405280606081526020016000815260200160008152602001600081526020016000815260200160006004811115612c6757612c67612f90565b905290565b80356001600160a01b0381168114612c8357600080fd5b919050565b60008060408385031215612c9b57600080fd5b612ca483612c6c565b946020939093013593505050565b6001600160e01b0319811681146107e857600080fd5b600060208284031215612cda57600080fd5b81356122e881612cb2565b60005b83811015612d00578181015183820152602001612ce8565b50506000910152565b60008151808452612d21816020860160208601612ce5565b601f01601f19169290920160200192915050565b6020815260006122e86020830184612d09565b600060208284031215612d5a57600080fd5b5035919050565b600060208284031215612d7357600080fd5b6122e882612c6c565b60008060408385031215612d8f57600080fd5b50508035926020909101359150565b634e487b7160e01b600052604160045260246000fd5b601f8201601f191681016001600160401b0381118282101715612dd957612dd9612d9e565b6040525050565b60006001600160401b03821115612df957612df9612d9e565b5060051b60200190565b600082601f830112612e1457600080fd5b81356020612e2182612de0565b604051612e2e8282612db4565b83815260059390931b8501820192828101915086841115612e4e57600080fd5b8286015b84811015612e695780358352918301918301612e52565b509695505050505050565b600082601f830112612e8557600080fd5b81356001600160401b03811115612e9e57612e9e612d9e565b604051612eb5601f8301601f191660200182612db4565b818152846020838601011115612eca57600080fd5b816020850160208301376000918101602001919091529392505050565b600080600080600060a08688031215612eff57600080fd5b612f0886612c6c565b9450612f1660208701612c6c565b935060408601356001600160401b0380821115612f3257600080fd5b612f3e89838a01612e03565b94506060880135915080821115612f5457600080fd5b612f6089838a01612e03565b93506080880135915080821115612f7657600080fd5b50612f8388828901612e74565b9150509295509295909350565b634e487b7160e01b600052602160045260246000fd5b60058110612fc457634e487b7160e01b600052602160045260246000fd5b9052565b602081526000825160c06020840152612fe460e0840182612d09565b9050602084015160408401526040840151606084015260608401516080840152608084015160a084015260a0840151610c3760c0850182612fa6565b80151581146107e857600080fd5b60006020828403121561304057600080fd5b81356122e881613020565b6000806040838503121561305e57600080fd5b82356001600160401b038082111561307557600080fd5b818501915085601f83011261308957600080fd5b8135602061309682612de0565b6040516130a38282612db4565b83815260059390931b85018201928281019150898411156130c357600080fd5b948201945b838610156130e8576130d986612c6c565b825294820194908201906130c8565b965050860135925050808211156130fe57600080fd5b5061310b85828601612e03565b9150509250929050565b600081518084526020808501945080840160005b8381101561314557815187529582019590820190600101613129565b509495945050505050565b6020815260006122e86020830184613115565b600080600080600080600060e0888a03121561317e57600080fd5b87356001600160401b038082111561319557600080fd5b6131a18b838c01612e74565b985060208a0135975060408a0135965060608a0135955060808a0135945060a08a01359150600582106131d357600080fd5b90925060c089013590808211156131e957600080fd5b506131f68a828b01612e74565b91505092959891949750929550565b60008060006060848603121561321a57600080fd5b61322384612c6c565b925060208401356001600160401b038082111561323f57600080fd5b61324b87838801612e03565b9350604086013591508082111561326157600080fd5b5061326e86828701612e03565b9150509250925092565b60006020828403121561328a57600080fd5b81356001600160401b038111156132a057600080fd5b61195a84828501612e74565b600080600080608085870312156132c257600080fd5b6132cb85612c6c565b935060208501356001600160401b03808211156132e757600080fd5b6132f388838901612e03565b9450604087013591508082111561330957600080fd5b61331588838901612e03565b9350606087013591508082111561332b57600080fd5b5061333887828801612e74565b91505092959194509250565b60008060006060848603121561335957600080fd5b8335925061336960208501612c6c565b9150604084013590509250925092565b6000806040838503121561338c57600080fd5b61339583612c6c565b915060208301356133a581613020565b809150509250929050565b600080602083850312156133c357600080fd5b82356001600160401b03808211156133da57600080fd5b818501915085601f8301126133ee57600080fd5b8135818111156133fd57600080fd5b8660208260051b850101111561341257600080fd5b60209290920196919550909350505050565b6000602080830181845280855180835260408601915060408160051b870101925083870160005b8281101561347957603f19888603018452613467858351612d09565b9450928501929085019060010161344b565b5092979650505050505050565b6000806000806080858703121561349c57600080fd5b6134a585612c6c565b93506020850135925060408501356001600160401b038111156134c757600080fd5b6134d387828801612e74565b949793965093946060013593505050565b60c0815260006134f760c0830189612d09565b905086602083015285604083015284606083015283608083015261351e60a0830184612fa6565b979650505050505050565b602081016106308284612fa6565b60008060008060008060c0878903121561355057600080fd5b8635955060208701356001600160401b0381111561356d57600080fd5b61357989828a01612e74565b96999698505050506040850135946060810135946080820135945060a09091013592509050565b600080604083850312156135b357600080fd5b6135bc83612c6c565b91506135ca60208401612c6c565b90509250929050565b600080600080600060a086880312156135eb57600080fd5b6135f486612c6c565b945061360260208701612c6c565b9350604086013592506060860135915060808601356001600160401b0381111561362b57600080fd5b612f8388828901612e74565b60008060006060848603121561364c57600080fd5b61365584612c6c565b95602085013595506040909401359392505050565b600181811c9082168061367e57607f821691505b60208210810361369e57634e487b7160e01b600052602260045260246000fd5b50919050565b600083516136b6818460208801612ce5565b8351908301906136ca818360208801612ce5565b01949350505050565b6020808252600e908201526d139bdd08185d5d1a1bdc9a5e995960921b604082015260600190565b634e487b7160e01b600052603260045260246000fd5b634e487b7160e01b600052601160045260246000fd5b808202811582820484141761063057610630613711565b634e487b7160e01b600052601260045260246000fd5b6000826137635761376361373e565b500490565b6020808252600f908201526e0988a9c8ea890be9a92a69a82a8869608b1b604082015260600190565b6000600182016137a3576137a3613711565b5060010190565b601f82111561119d57600081815260208120601f850160051c810160208610156137d15750805b601f850160051c820191505b81811015610935578281556001016137dd565b81516001600160401b0381111561380957613809612d9e565b61381d81613817845461366a565b846137aa565b602080601f831160018114613852576000841561383a5750858301515b600019600386901b1c1916600185901b178555610935565b600085815260208120601f198616915b8281101561388157888601518255948401946001909101908401613862565b508582101561389f5787850151600019600388901b60f8161c191681555b5050505050600190811b01905550565b8082018082111561063057610630613711565b6000808335601e198436030181126138d957600080fd5b8301803591506001600160401b038211156138f357600080fd5b60200191503681900382131561390857600080fd5b9250929050565b60a08152600061392260a0830188612d09565b90508560208301528460408301528360608301528260808301529695505050505050565b8181038181111561063057610630613711565b6000826139685761396861373e565b500690565b6020808252600c908201526b2a27afad22a927afa0a2222960a11b604082015260600190565b6000602082840312156139a557600080fd5b81516122e881613020565b60208082526010908201526f125394d551919250d251539517d0905360821b604082015260600190565b6040815260006139ed6040830185613115565b82810360208401526139ff8185613115565b95945050505050565b604081526000613a1b6040830185612d09565b82810360208401526139ff8185612d09565b6001600160a01b03868116825285166020820152604081018490526060810183905260a06080820181905260009061351e90830184612d09565b600060208284031215613a7957600080fd5b81516122e881612cb2565b600060033d1115613a9d5760046000803e5060005160e01c5b90565b600060443d1015613aae5790565b6040516003193d81016004833e81513d6001600160401b038160248401118184111715613add57505050505090565b8285019150815181811115613af55750505050505090565b843d8701016020828501011115613b0f5750505050505090565b613b1e60208286010187612db4565b509095945050505050565b6001600160a01b0386811682528516602082015260a060408201819052600090613b5590830186613115565b8281036060840152613b678186613115565b90508281036080840152613b7b8185612d09565b98975050505050505050565b60008251613b99818460208701612ce5565b919091019291505056fe416464726573733a206c6f772d6c6576656c2064656c65676174652063616c6c206661696c6564a2646970667358221220d6f6db06e91e47b1ce456e2d33868fa5289a3791c3f1463e407b57f56c534baf64736f6c63430008110033",
  "linkReferences": {},
  "deployedLinkReferences": {}
}