{
  "_format": "hh-sol-artifact-1",
  "contractName": "BattleItems",
  "sourceName": "contracts/BattleItems.sol",
  "abi": [
    {
      "inputs": [],
      "stateMutability": "nonpayable",
      "type": "constructor"
    },
    {
      "inputs": [
        {
          "internalType": "address",
          "name": "operator",
          "type": "address"
        }
      ],
      "name": "OperatorNotAllowed",
      "type": "error"
    },
    {
      "anonymous": false,
      "inputs": [
        {
          "indexed": true,
          "internalType": "address",
          "name": "_owner",
          "type": "address"
        },
        {
          "indexed": true,
          "internalType": "address",
          "name": "_operator",
          "type": "address"
        },
        {
          "indexed": false,
          "internalType": "bool",
          "name": "_approved",
          "type": "bool"
        }
      ],
      "name": "ApprovalForAll",
      "type": "event"
    },
    {
      "anonymous": false,
      "inputs": [
        {
          "indexed": false,
          "internalType": "string",
          "name": "prevURI",
          "type": "string"
        },
        {
          "indexed": false,
          "internalType": "string",
          "name": "newURI",
          "type": "string"
        }
      ],
      "name": "ContractURIUpdated",
      "type": "event"
    },
    {
      "anonymous": false,
      "inputs": [
        {
          "indexed": true,
          "internalType": "address",
          "name": "newRoyaltyRecipient",
          "type": "address"
        },
        {
          "indexed": false,
          "internalType": "uint256",
          "name": "newRoyaltyBps",
          "type": "uint256"
        }
      ],
      "name": "DefaultRoyalty",
      "type": "event"
    },
    {
      "anonymous": false,
      "inputs": [
        {
          "indexed": false,
          "internalType": "bool",
          "name": "restriction",
          "type": "bool"
        }
      ],
      "name": "OperatorRestriction",
      "type": "event"
    },
    {
      "anonymous": false,
      "inputs": [
        {
          "indexed": true,
          "internalType": "address",
          "name": "prevOwner",
          "type": "address"
        },
        {
          "indexed": true,
          "internalType": "address",
          "name": "newOwner",
          "type": "address"
        }
      ],
      "name": "OwnerUpdated",
      "type": "event"
    },
    {
      "anonymous": false,
      "inputs": [
        {
          "indexed": true,
          "internalType": "uint256",
          "name": "tokenId",
          "type": "uint256"
        },
        {
          "indexed": true,
          "internalType": "address",
          "name": "royaltyRecipient",
          "type": "address"
        },
        {
          "indexed": false,
          "internalType": "uint256",
          "name": "royaltyBps",
          "type": "uint256"
        }
      ],
      "name": "RoyaltyForToken",
      "type": "event"
    },
    {
      "anonymous": false,
      "inputs": [
        {
          "indexed": true,
          "internalType": "address",
          "name": "_operator",
          "type": "address"
        },
        {
          "indexed": true,
          "internalType": "address",
          "name": "_from",
          "type": "address"
        },
        {
          "indexed": true,
          "internalType": "address",
          "name": "_to",
          "type": "address"
        },
        {
          "indexed": false,
          "internalType": "uint256[]",
          "name": "_ids",
          "type": "uint256[]"
        },
        {
          "indexed": false,
          "internalType": "uint256[]",
          "name": "_values",
          "type": "uint256[]"
        }
      ],
      "name": "TransferBatch",
      "type": "event"
    },
    {
      "anonymous": false,
      "inputs": [
        {
          "indexed": true,
          "internalType": "address",
          "name": "_operator",
          "type": "address"
        },
        {
          "indexed": true,
          "internalType": "address",
          "name": "_from",
          "type": "address"
        },
        {
          "indexed": true,
          "internalType": "address",
          "name": "_to",
          "type": "address"
        },
        {
          "indexed": false,
          "internalType": "uint256",
          "name": "_id",
          "type": "uint256"
        },
        {
          "indexed": false,
          "internalType": "uint256",
          "name": "_value",
          "type": "uint256"
        }
      ],
      "name": "TransferSingle",
      "type": "event"
    },
    {
      "anonymous": false,
      "inputs": [
        {
          "indexed": false,
          "internalType": "string",
          "name": "_value",
          "type": "string"
        },
        {
          "indexed": true,
          "internalType": "uint256",
          "name": "_id",
          "type": "uint256"
        }
      ],
      "name": "URI",
      "type": "event"
    },
    {
      "inputs": [],
      "name": "OPERATOR_FILTER_REGISTRY",
      "outputs": [
        {
          "internalType": "contract IOperatorFilterRegistry",
          "name": "",
          "type": "address"
        }
      ],
      "stateMutability": "view",
      "type": "function"
    },
    {
      "inputs": [
        {
          "internalType": "address",
          "name": "",
          "type": "address"
        },
        {
          "internalType": "uint256",
          "name": "",
          "type": "uint256"
        }
      ],
      "name": "balanceOf",
      "outputs": [
        {
          "internalType": "uint256",
          "name": "",
          "type": "uint256"
        }
      ],
      "stateMutability": "view",
      "type": "function"
    },
    {
      "inputs": [
        {
          "internalType": "address[]",
          "name": "accounts",
          "type": "address[]"
        },
        {
          "internalType": "uint256[]",
          "name": "ids",
          "type": "uint256[]"
        }
      ],
      "name": "balanceOfBatch",
      "outputs": [
        {
          "internalType": "uint256[]",
          "name": "",
          "type": "uint256[]"
        }
      ],
      "stateMutability": "view",
      "type": "function"
    },
    {
      "inputs": [
        {
          "internalType": "address",
          "name": "_to",
          "type": "address"
        },
        {
          "internalType": "uint256[]",
          "name": "_tokenIds",
          "type": "uint256[]"
        },
        {
          "internalType": "uint256[]",
          "name": "_amounts",
          "type": "uint256[]"
        },
        {
          "internalType": "string",
          "name": "_baseURI",
          "type": "string"
        }
      ],
      "name": "batchMintTo",
      "outputs": [],
      "stateMutability": "nonpayable",
      "type": "function"
    },
    {
      "inputs": [
        {
          "internalType": "address",
          "name": "_owner",
          "type": "address"
        },
        {
          "internalType": "uint256",
          "name": "_tokenId",
          "type": "uint256"
        },
        {
          "internalType": "uint256",
          "name": "_amount",
          "type": "uint256"
        }
      ],
      "name": "burn",
      "outputs": [],
      "stateMutability": "nonpayable",
      "type": "function"
    },
    {
      "inputs": [
        {
          "internalType": "address",
          "name": "_owner",
          "type": "address"
        },
        {
          "internalType": "uint256[]",
          "name": "_tokenIds",
          "type": "uint256[]"
        },
        {
          "internalType": "uint256[]",
          "name": "_amounts",
          "type": "uint256[]"
        }
      ],
      "name": "burnBatch",
      "outputs": [],
      "stateMutability": "nonpayable",
      "type": "function"
    },
    {
      "inputs": [],
      "name": "contractURI",
      "outputs": [
        {
          "internalType": "string",
          "name": "",
          "type": "string"
        }
      ],
      "stateMutability": "view",
      "type": "function"
    },
    {
      "inputs": [
        {
          "internalType": "string",
          "name": "_name",
          "type": "string"
        },
        {
          "internalType": "uint256",
          "name": "_attack",
          "type": "uint256"
        },
        {
          "internalType": "uint256",
          "name": "_defense",
          "type": "uint256"
        },
        {
          "internalType": "uint256",
          "name": "_health",
          "type": "uint256"
        },
        {
          "internalType": "uint256",
          "name": "_skill",
          "type": "uint256"
        },
        {
          "internalType": "string",
          "name": "_tokenURI",
          "type": "string"
        }
      ],
      "name": "createItem",
      "outputs": [],
      "stateMutability": "nonpayable",
      "type": "function"
    },
    {
      "inputs": [],
      "name": "getBaseURICount",
      "outputs": [
        {
          "internalType": "uint256",
          "name": "",
          "type": "uint256"
        }
      ],
      "stateMutability": "view",
      "type": "function"
    },
    {
      "inputs": [
        {
          "internalType": "uint256",
          "name": "_index",
          "type": "uint256"
        }
      ],
      "name": "getBatchIdAtIndex",
      "outputs": [
        {
          "internalType": "uint256",
          "name": "",
          "type": "uint256"
        }
      ],
      "stateMutability": "view",
      "type": "function"
    },
    {
      "inputs": [],
      "name": "getDefaultRoyaltyInfo",
      "outputs": [
        {
          "internalType": "address",
          "name": "",
          "type": "address"
        },
        {
          "internalType": "uint16",
          "name": "",
          "type": "uint16"
        }
      ],
      "stateMutability": "view",
      "type": "function"
    },
    {
      "inputs": [
        {
          "internalType": "uint256",
          "name": "_itemId",
          "type": "uint256"
        }
      ],
      "name": "getItem",
      "outputs": [
        {
          "components": [
            {
              "internalType": "string",
              "name": "name",
              "type": "string"
            },
            {
              "internalType": "uint256",
              "name": "attack",
              "type": "uint256"
            },
            {
              "internalType": "uint256",
              "name": "defense",
              "type": "uint256"
            },
            {
              "internalType": "uint256",
              "name": "health",
              "type": "uint256"
            },
            {
              "internalType": "uint256",
              "name": "skill",
              "type": "uint256"
            }
          ],
          "internalType": "struct BattleItems.Item",
          "name": "",
          "type": "tuple"
        }
      ],
      "stateMutability": "view",
      "type": "function"
    },
    {
      "inputs": [],
      "name": "getRandomItem",
      "outputs": [
        {
          "internalType": "uint256",
          "name": "",
          "type": "uint256"
        }
      ],
      "stateMutability": "view",
      "type": "function"
    },
    {
      "inputs": [
        {
          "internalType": "uint256",
          "name": "_tokenId",
          "type": "uint256"
        }
      ],
      "name": "getRoyaltyInfoForToken",
      "outputs": [
        {
          "internalType": "address",
          "name": "",
          "type": "address"
        },
        {
          "internalType": "uint16",
          "name": "",
          "type": "uint16"
        }
      ],
      "stateMutability": "view",
      "type": "function"
    },
    {
      "inputs": [
        {
          "internalType": "address",
          "name": "",
          "type": "address"
        },
        {
          "internalType": "address",
          "name": "",
          "type": "address"
        }
      ],
      "name": "isApprovedForAll",
      "outputs": [
        {
          "internalType": "bool",
          "name": "",
          "type": "bool"
        }
      ],
      "stateMutability": "view",
      "type": "function"
    },
    {
      "inputs": [
        {
          "internalType": "uint256",
          "name": "",
          "type": "uint256"
        }
      ],
      "name": "items",
      "outputs": [
        {
          "internalType": "string",
          "name": "name",
          "type": "string"
        },
        {
          "internalType": "uint256",
          "name": "attack",
          "type": "uint256"
        },
        {
          "internalType": "uint256",
          "name": "defense",
          "type": "uint256"
        },
        {
          "internalType": "uint256",
          "name": "health",
          "type": "uint256"
        },
        {
          "internalType": "uint256",
          "name": "skill",
          "type": "uint256"
        }
      ],
      "stateMutability": "view",
      "type": "function"
    },
    {
      "inputs": [
        {
          "internalType": "uint256",
          "name": "_itemId",
          "type": "uint256"
        }
      ],
      "name": "mintItem",
      "outputs": [],
      "stateMutability": "nonpayable",
      "type": "function"
    },
    {
      "inputs": [
        {
          "internalType": "address",
          "name": "_to",
          "type": "address"
        },
        {
          "internalType": "uint256",
          "name": "_tokenId",
          "type": "uint256"
        },
        {
          "internalType": "string",
          "name": "_tokenURI",
          "type": "string"
        },
        {
          "internalType": "uint256",
          "name": "_amount",
          "type": "uint256"
        }
      ],
      "name": "mintTo",
      "outputs": [],
      "stateMutability": "nonpayable",
      "type": "function"
    },
    {
      "inputs": [
        {
          "internalType": "bytes[]",
          "name": "data",
          "type": "bytes[]"
        }
      ],
      "name": "multicall",
      "outputs": [
        {
          "internalType": "bytes[]",
          "name": "results",
          "type": "bytes[]"
        }
      ],
      "stateMutability": "nonpayable",
      "type": "function"
    },
    {
      "inputs": [],
      "name": "name",
      "outputs": [
        {
          "internalType": "string",
          "name": "",
          "type": "string"
        }
      ],
      "stateMutability": "view",
      "type": "function"
    },
    {
      "inputs": [],
      "name": "nextTokenIdToMint",
      "outputs": [
        {
          "internalType": "uint256",
          "name": "",
          "type": "uint256"
        }
      ],
      "stateMutability": "view",
      "type": "function"
    },
    {
      "inputs": [],
      "name": "numItems",
      "outputs": [
        {
          "internalType": "uint256",
          "name": "",
          "type": "uint256"
        }
      ],
      "stateMutability": "view",
      "type": "function"
    },
    {
      "inputs": [],
      "name": "operatorRestriction",
      "outputs": [
        {
          "internalType": "bool",
          "name": "",
          "type": "bool"
        }
      ],
      "stateMutability": "view",
      "type": "function"
    },
    {
      "inputs": [],
      "name": "owner",
      "outputs": [
        {
          "internalType": "address",
          "name": "",
          "type": "address"
        }
      ],
      "stateMutability": "view",
      "type": "function"
    },
    {
      "inputs": [
        {
          "internalType": "uint256",
          "name": "tokenId",
          "type": "uint256"
        },
        {
          "internalType": "uint256",
          "name": "salePrice",
          "type": "uint256"
        }
      ],
      "name": "royaltyInfo",
      "outputs": [
        {
          "internalType": "address",
          "name": "receiver",
          "type": "address"
        },
        {
          "internalType": "uint256",
          "name": "royaltyAmount",
          "type": "uint256"
        }
      ],
      "stateMutability": "view",
      "type": "function"
    },
    {
      "inputs": [
        {
          "internalType": "address",
          "name": "from",
          "type": "address"
        },
        {
          "internalType": "address",
          "name": "to",
          "type": "address"
        },
        {
          "internalType": "uint256[]",
          "name": "ids",
          "type": "uint256[]"
        },
        {
          "internalType": "uint256[]",
          "name": "amounts",
          "type": "uint256[]"
        },
        {
          "internalType": "bytes",
          "name": "data",
          "type": "bytes"
        }
      ],
      "name": "safeBatchTransferFrom",
      "outputs": [],
      "stateMutability": "nonpayable",
      "type": "function"
    },
    {
      "inputs": [
        {
          "internalType": "address",
          "name": "from",
          "type": "address"
        },
        {
          "internalType": "address",
          "name": "to",
          "type": "address"
        },
        {
          "internalType": "uint256",
          "name": "id",
          "type": "uint256"
        },
        {
          "internalType": "uint256",
          "name": "amount",
          "type": "uint256"
        },
        {
          "internalType": "bytes",
          "name": "data",
          "type": "bytes"
        }
      ],
      "name": "safeTransferFrom",
      "outputs": [],
      "stateMutability": "nonpayable",
      "type": "function"
    },
    {
      "inputs": [
        {
          "internalType": "address",
          "name": "operator",
          "type": "address"
        },
        {
          "internalType": "bool",
          "name": "approved",
          "type": "bool"
        }
      ],
      "name": "setApprovalForAll",
      "outputs": [],
      "stateMutability": "nonpayable",
      "type": "function"
    },
    {
      "inputs": [
        {
          "internalType": "string",
          "name": "_uri",
          "type": "string"
        }
      ],
      "name": "setContractURI",
      "outputs": [],
      "stateMutability": "nonpayable",
      "type": "function"
    },
    {
      "inputs": [
        {
          "internalType": "address",
          "name": "_royaltyRecipient",
          "type": "address"
        },
        {
          "internalType": "uint256",
          "name": "_royaltyBps",
          "type": "uint256"
        }
      ],
      "name": "setDefaultRoyaltyInfo",
      "outputs": [],
      "stateMutability": "nonpayable",
      "type": "function"
    },
    {
      "inputs": [
        {
          "internalType": "bool",
          "name": "_restriction",
          "type": "bool"
        }
      ],
      "name": "setOperatorRestriction",
      "outputs": [],
      "stateMutability": "nonpayable",
      "type": "function"
    },
    {
      "inputs": [
        {
          "internalType": "address",
          "name": "_newOwner",
          "type": "address"
        }
      ],
      "name": "setOwner",
      "outputs": [],
      "stateMutability": "nonpayable",
      "type": "function"
    },
    {
      "inputs": [
        {
          "internalType": "uint256",
          "name": "_tokenId",
          "type": "uint256"
        },
        {
          "internalType": "address",
          "name": "_recipient",
          "type": "address"
        },
        {
          "internalType": "uint256",
          "name": "_bps",
          "type": "uint256"
        }
      ],
      "name": "setRoyaltyInfoForToken",
      "outputs": [],
      "stateMutability": "nonpayable",
      "type": "function"
    },
    {
      "inputs": [
        {
          "internalType": "bytes4",
          "name": "interfaceId",
          "type": "bytes4"
        }
      ],
      "name": "supportsInterface",
      "outputs": [
        {
          "internalType": "bool",
          "name": "",
          "type": "bool"
        }
      ],
      "stateMutability": "view",
      "type": "function"
    },
    {
      "inputs": [],
      "name": "symbol",
      "outputs": [
        {
          "internalType": "string",
          "name": "",
          "type": "string"
        }
      ],
      "stateMutability": "view",
      "type": "function"
    },
    {
      "inputs": [
        {
          "internalType": "uint256",
          "name": "",
          "type": "uint256"
        }
      ],
      "name": "tokenIdToItemId",
      "outputs": [
        {
          "internalType": "uint256",
          "name": "",
          "type": "uint256"
        }
      ],
      "stateMutability": "view",
      "type": "function"
    },
    {
      "inputs": [
        {
          "internalType": "uint256",
          "name": "",
          "type": "uint256"
        }
      ],
      "name": "totalSupply",
      "outputs": [
        {
          "internalType": "uint256",
          "name": "",
          "type": "uint256"
        }
      ],
      "stateMutability": "view",
      "type": "function"
    },
    {
      "inputs": [
        {
          "internalType": "uint256",
          "name": "_itemId",
          "type": "uint256"
        },
        {
          "internalType": "string",
          "name": "_name",
          "type": "string"
        },
        {
          "internalType": "uint256",
          "name": "_attack",
          "type": "uint256"
        },
        {
          "internalType": "uint256",
          "name": "_defense",
          "type": "uint256"
        },
        {
          "internalType": "uint256",
          "name": "_health",
          "type": "uint256"
        },
        {
          "internalType": "uint256",
          "name": "_skill",
          "type": "uint256"
        }
      ],
      "name": "updateItem",
      "outputs": [],
      "stateMutability": "nonpayable",
      "type": "function"
    },
    {
      "inputs": [
        {
          "internalType": "uint256",
          "name": "_tokenId",
          "type": "uint256"
        }
      ],
      "name": "uri",
      "outputs": [
        {
          "internalType": "string",
          "name": "",
          "type": "string"
        }
      ],
      "stateMutability": "view",
      "type": "function"
    }
  ],
  "bytecode": "0x60806040818152346200044f576000916200001a8162000454565b600c81526020906b125d195b50dbdb9d1c9858dd60a21b82820152825193620000438562000454565b6002855261494360f01b8386015281516001600160401b0395908681116200043b578254906001948583811c9316801562000430575b878410146200033a578190601f93848111620003dd575b508790848311600114620003795786926200036d575b5050600019600383901b1c191690851b1783555b815191878311620003595784548581811c911680156200034e575b878210146200033a5790818385949311620002e5575b50869183116001146200028157849262000275575b5050600019600383901b1c191690831b1782555b6daaeb6d7670e522a718067333cd4e94853b620001dd575b5060068054336001600160a01b03198216811790925594955060008051602062003e47833981519152946001600160a01b03167f8292fce18fa69edf4db7b94ea2e58241df0ae57f97e0a6c9b29067028bf92d768380a3600780546001600160b01b031916905584518181527f90d7ec04bcb8978719414f82e52e4cb651db41d0e6f8cea6118c2191e6183adb908490a28060ff19600b541617600b558351908152a1516139c09081620004878239f35b8582963b15620002715782906044875180958193633e9f1edf60e11b8352306004840152733cc6cdda760b79bafa08df41ecfa224f810dceb660248401525af18015620002675762000233575b8591506200012c565b81116200025357835260008051602062003e47833981519152386200022a565b634e487b7160e01b85526041600452602485fd5b85513d88823e3d90fd5b8280fd5b01519050388062000100565b8585528685208694509190601f198416865b89828210620002ce5750508411620002b4575b505050811b01825562000114565b015160001960f88460031b161c19169055388080620002a6565b838501518655899790950194938401930162000293565b909192508585528685208380860160051c82019289871062000330575b91869589929594930160051c01915b82811062000321575050620000eb565b87815586955088910162000311565b9250819262000302565b634e487b7160e01b85526022600452602485fd5b90607f1690620000d5565b634e487b7160e01b84526041600452602484fd5b015190503880620000a6565b8680528887208894509190601f198416885b8b828210620003c65750508411620003ac575b505050811b018355620000ba565b015160001960f88460031b161c191690553880806200039e565b8385015186558b979095019493840193016200038b565b9091508580528786208480850160051c8201928a861062000426575b918991869594930160051c01915b8281106200041757505062000090565b88815585945089910162000407565b92508192620003f9565b92607f169262000079565b634e487b7160e01b83526041600452602483fd5b600080fd5b604081019081106001600160401b038211176200047057604052565b634e487b7160e01b600052604160045260246000fdfe6080604052600436101561001257600080fd5b60003560e01c8062fdd58e1461028657806301ffc9a71461028157806306fdde031461027c5780630e89341c1461027757806313af40351461027257806317fb85941461026d5780632419f51b146102685780632a55205a146102635780632eb2c2d61461025e5780633129e7731461025957806332f0cd641461025457806337f4be6b1461024f5780633b1475a71461024a57806341f43434146102455780634cc157df146102405780634e1273f41461023b578063504c6e01146102365780635bfadae414610231578063600dd5ea1461022c57806363b45e2d14610227578063667837fc146102225780636b20c4541461021d5780638da5cb5b14610218578063938e3d7b14610213578063949c09f71461020e57806395d89b41146102095780639bcf7a1514610204578063a22cb465146101ff578063ac9650d8146101fa578063b03f4528146101f5578063b24f2d39146101f0578063b4e603c6146101eb578063bd85b039146101e6578063bfb231d2146101e1578063d13d8a6a146101dc578063e8a3d485146101d7578063e985e9c5146101d2578063f242432a146101cd5763f5298aca146101c857600080fd5b612093565b611ebc565b611e5f565b611e43565b611cc1565b611c4f565b611c23565b611a40565b611a0a565b611891565b61182c565b6116e0565b611616565b611591565b61144e565b6112cd565b6112a4565b6111a0565b61113d565b61111f565b611056565b611038565b611015565b610f5c565b610eda565b610eb1565b610e93565b610e67565b610da1565b610d04565b610b33565b6109ea565b610964565b610802565b61075d565b61072a565b610669565b610344565b6102ea565b600435906001600160a01b03821682036102a157565b600080fd5b602435906001600160a01b03821682036102a157565b35906001600160a01b03821682036102a157565b6001600160a01b0316600090815260026020526040902090565b346102a15760403660031901126102a1576001600160a01b0361030b61028b565b16600052600260205260406000206024356000526020526020604060002054604051908152f35b6001600160e01b03198116036102a157565b346102a15760203660031901126102a157602060043561036381610332565b63ffffffff60e01b166301ffc9a760e01b81149081156103b9575b81156103a8575b8115610397575b506040519015158152f35b63152a902d60e11b1490503861038c565b6303a24d0760e21b81149150610385565b636cdb3d1360e11b8114915061037e565b90600182811c921680156103fa575b60208310146103e457565b634e487b7160e01b600052602260045260246000fd5b91607f16916103d9565b634e487b7160e01b600052604160045260246000fd5b60a081019081106001600160401b0382111761043557604052565b610404565b604081019081106001600160401b0382111761043557604052565b602081019081106001600160401b0382111761043557604052565b606081019081106001600160401b0382111761043557604052565b90601f801991011681019081106001600160401b0382111761043557604052565b60405190600082600554916104c0836103ca565b80835260019380851690811561054857506001146104e8575b506104e69250038361048b565b565b600560009081527f036b6384b5eca791c62761152d0c79bb0604c104a5fb6f4eb0703f3154bb3db094602093509091905b8183106105305750506104e69350820101386104d9565b85548884018501529485019487945091830191610519565b90506104e694506020925060ff191682840152151560051b820101386104d9565b906040519182600082549261057d846103ca565b9081845260019485811690816000146105ea57506001146105a7575b50506104e69250038361048b565b9093915060005260209081600020936000915b8183106105d25750506104e693508201013880610599565b855488840185015294850194879450918301916105ba565b9150506104e694506020925060ff191682840152151560051b8201013880610599565b60005b8381106106205750506000910152565b8181015183820152602001610610565b906020916106498151809281855285808601910161060d565b601f01601f1916010190565b906020610666928181520190610630565b90565b346102a1576000806003193601126107275760405181805461068a816103ca565b808452906001908181169081156106ff57506001146106c4575b6106c0846106b48188038261048b565b60405191829182610655565b0390f35b93508180526020938483205b8284106106ec57505050816106c0936106b492820101936106a4565b80548585018701529285019281016106d0565b6106c096506106b49450602092508593915060ff191682840152151560051b820101936106a4565b80fd5b346102a15760203660031901126102a1576106c0610749600435612205565b604051918291602083526020830190610630565b346102a15760203660031901126102a15761077661028b565b600654906001600160a01b0380831691338390036107c857166001600160a01b03199290921682176006557f8292fce18fa69edf4db7b94ea2e58241df0ae57f97e0a6c9b29067028bf92d76600080a3005b60405162461bcd60e51b815260206004820152600e60248201526d139bdd08185d5d1a1bdc9a5e995960921b6044820152606490fd5b0390fd5b346102a15760203660031901126102a157600435610824600f54821115613908565b60405161083081610455565b60009182825233159161084383156125f3565b61084c826131b7565b91610855613190565b91855b84518110156108a5578061086f6108a092866123e1565b51610899610891610880848a6123e1565b51600052600d602052604060002090565b918254612329565b90556124fc565b610858565b50929093610919575b5050610909906108d0836108c1336102d0565b90600052602052604060002090565b6108da815461230d565b9055604080518481526001602082015233918691839160008051602061396b83398151915291a4823333612dbf565b8082526010602052604082205580f35b91928491945b8351811015610954578061093661094f92886123e1565b5161089961094761088084896123e1565b91825461266d565b61091f565b50909350919050610909386108ae565b346102a15760203660031901126102a1576004356009548110156109b55760096000527f6e1540171b6c0c960b71a7020d9f60077f6af931a8bbf590da0223dacf75c7af0154604051908152602090f35b60405162461bcd60e51b815260206004820152600d60248201526c092dcecc2d8d2c840d2dcc8caf609b1b6044820152606490fd5b346102a15760403660031901126102a15760243561ffff610a0c6004356135a8565b9190911691828102928184041490151715610a3f57604080516001600160a01b0390921682526127109092046020820152f35b6122f7565b604051906104e68261041a565b6001600160401b0381116104355760051b60200190565b81601f820112156102a157803591610a7f83610a51565b92610a8d604051948561048b565b808452602092838086019260051b8201019283116102a1578301905b828210610ab7575050505090565b81358152908301908301610aa9565b6001600160401b03811161043557601f01601f191660200190565b929192610aed82610ac6565b91610afb604051938461048b565b8294818452818301116102a1578281602093846000960137010152565b9080601f830112156102a15781602061066693359101610ae1565b346102a15760a03660031901126102a157610b4c61028b565b610b546102a6565b6001600160401b03916044358381116102a157610b75903690600401610a68565b926064358181116102a157610b8e903690600401610a68565b906084359081116102a157610ba7903690600401610b18565b6001600160a01b0383811694919033861480159081610cb3575b90610c90575b610bd0906125b2565b610bdd87518551146124be565b8216610bea8115156125f3565b610bf68488858861267a565b60005b8751811015610c5c5780610c10610c57928a6123e1565b51610899610891610c21848a6123e1565b51928a610c4d826108c187610c39836108c1876102d0565b54610c468282101561262e565b03936102d0565b556108c1896102d0565b610bf9565b50610c8e969394919560405160008051602061394b833981519152339180610c858a8a8361270a565b0390a433613156565b005b50600086815260036020908152604080832033845290915290205460ff16610bc7565b610cbc336134e5565b610bc1565b6020815260a06080610cde845183602086015260c0850190610630565b936020810151604085015260408101516060850152606081015182850152015191015290565b346102a15760203660031901126102a1576106c060408060808151610d288161041a565b606081526000918183602081940152828582015282606082015201526004358152600e60205220906004815192610d5e8461041a565b610d6781610569565b84526001810154602085015260028101548385015260038101546060850152015460808301525191829182610cc1565b801515036102a157565b346102a15760203660031901126102a157600435610dbe81610d97565b6006546001600160a01b03163303610e0e5760207f38475885990d8dfe9ca01f0ef160a1b5514426eab9ddbc953a3353410ba7809691151560ff19600b541660ff821617600b55604051908152a1005b60405162461bcd60e51b815260206004820152602b60248201527f4e6f7420617574686f72697a656420746f20736574206f70657261746f72207260448201526a32b9ba3934b1ba34b7b71760a91b6064820152608490fd5b346102a15760203660031901126102a15760043560005260106020526020604060002054604051908152f35b346102a15760003660031901126102a1576020600c54604051908152f35b346102a15760003660031901126102a15760206040516daaeb6d7670e522a718067333cd4e8152f35b346102a15760203660031901126102a157610ef66004356135a8565b604080516001600160a01b0393909316835261ffff91909116602083015290f35b90815180825260208080930193019160005b828110610f37575050505090565b835185529381019392810192600101610f29565b906020610666928181520190610f17565b346102a15760403660031901126102a1576004356001600160401b038082116102a157366023830112156102a1578160040135610f9881610a51565b92610fa6604051948561048b565b81845260209160248386019160051b830101913683116102a157602401905b828210610ffe57856024358681116102a1576106c091610fec610ff2923690600401610a68565b9061250b565b60405191829182610f4b565b83809161100a846102bc565b815201910190610fc5565b346102a15760003660031901126102a157602060ff600b54166040519015158152f35b346102a15760003660031901126102a1576020600f54604051908152f35b346102a15760403660031901126102a15761106f61028b565b600654602435916001600160a01b0391821633036107c85761271083116110e857600780546001600160b01b0319169190921690811760a084901b61ffff60a01b1617909155604051918252907f90d7ec04bcb8978719414f82e52e4cb651db41d0e6f8cea6118c2191e6183adb9080602081010390a2005b60405162461bcd60e51b815260206004820152600f60248201526e45786365656473206d61782062707360881b6044820152606490fd5b346102a15760003660031901126102a1576020600954604051908152f35b346102a15760003660031901126102a1576040516020810190428252602081526111668161043a565b519020600f5490811561118a570660018101809111610a3f57602090604051908152f35b634e487b7160e01b600052601260045260246000fd5b346102a15760603660031901126102a1576111b961028b565b6001600160401b036024358181116102a1576111d9903690600401610a68565b906044359081116102a1576111f2903690600401610a68565b906001600160a01b038316338114801561127d575b61121191506123fa565b61121e8151835114612480565b60005b81518110156112735761126e9061126961125661123d876102d0565b61124784876123e1565b51600052602052604060002090565b5461126183876123e1565b51111561243a565b61230d565b611221565b50610c8e92612b24565b5060009081526003602090815260408083203384529091529020546112119060ff16611207565b346102a15760003660031901126102a1576006546040516001600160a01b039091168152602090f35b346102a1576020806003193601126102a1576001600160401b03906004358281116102a157611300903690600401610b18565b6006549091906001600160a01b031633036107c85761131d6104ac565b9082519384116104355761133b846113366005546103ca565b61272f565b80601f85116001146113a8575092807fc9c7c3fe08b88b4df9d4d47ef47d2c43d55c025a0ba88ca442580ed9e7348a169460009161139d575b508160011b916000199060031b1c1916176005555b611398604051928392836133e9565b0390a1005b905083015138611374565b600560005290601f1985167f036b6384b5eca791c62761152d0c79bb0604c104a5fb6f4eb0703f3154bb3db0926000905b8282106114365750509185917fc9c7c3fe08b88b4df9d4d47ef47d2c43d55c025a0ba88ca442580ed9e7348a16966001941061141d575b5050811b01600555611389565b85015160001960f88460031b161c191690553880611410565b80600185968294968a015181550195019301906113d9565b346102a15760803660031901126102a15761146761028b565b6001600160401b036024358181116102a157611487903690600401610a68565b6044358281116102a15761149f903690600401610a68565b916064359081116102a157906114ba84923690600401610b18565b916114d060018060a01b03600654163314612278565b6114dc84511515612349565b6114e9825185511461238c565b600c54600094859291805b85518510156115595760001961150a86886123e1565b510361153e5761153161152b8261153793611525898b6123e1565b5261230d565b9861230d565b9461230d565b93966114f4565b96938061126989611552611537948a6123e1565b51106122be565b919493506115749295610c8e9780611582575b505050600c55565b61157c612336565b926129c8565b61158b926132cb565b8861156c565b346102a157600080600319360112610727576040518160018054906115b5826103ca565b808552918181169081156106ff57506001146115db576106c0846106b48188038261048b565b80945082526020938483205b82841061160357505050816106c0936106b492820101936106a4565b80548585018701529285019281016115e7565b346102a15760603660031901126102a1576004356116326102a6565b6006546001600160a01b03929160443591841633036107c85761271082116110e8577f7365cf4122f072a3365c20d54eff9b38d73c096c28e1892ec8f5b0e403a0f12d916116db916001866040519261168a8461043a565b168083526020808401858152600089815260089092526040909120935184546001600160a01b0319166001600160a01b0391909a161698909817835596519101556040519081529081906020820190565b0390a3005b346102a15760403660031901126102a1576116f961028b565b60243561170581610d97565b61170e826134e5565b6001600160a01b03821691338314611794578161174d61175e9233600052600360205260406000209060018060a01b0316600052602052604060002090565b9060ff801983541691151516179055565b604051901515815233907f17307eab39ab6107e8899845ad3d59bd9653f200f220920489ca2b5937696c319080602081016116db565b60405162461bcd60e51b815260206004820152600e60248201526d20a8282927ab24a723afa9a2a62360911b6044820152606490fd5b602080820190808352835180925260408301928160408460051b8301019501936000915b8483106117fe5750505050505090565b909192939495848061181c600193603f198682030187528a51610630565b98019301930191949392906117ee565b346102a15760203660031901126102a1576001600160401b036004358181116102a157366023820112156102a15780600401359182116102a1573660248360051b830101116102a1576106c0916024611885920161340e565b604051918291826117ca565b346102a15760803660031901126102a1576118aa61028b565b602435604435916001600160401b03928381116102a1576118cf903690600401610b18565b926118e560018060a01b03600654163314612278565b600c5490600019938481146000146119ef57508193600192838101808211610a3f57600c55600052602092600484526040600020938751938411610435576119378461193187546103ca565b87612783565b80601f851160011461198057508392918391610c8e99600095611975575b50501b9260031b1c19161790555b61196b612336565b91606435916128c6565b015193503880611955565b91939290601f1984169861199987600052602060002090565b936000905b8b82106119d857505084610c8e9a106119c0575b50505050811b019055611963565b01519060f88460031b161c19169055388080806119b2565b80888597829496860151815501960193019061199e565b610c8e955080939450611a04929150106122be565b90611963565b346102a15760003660031901126102a157600754604080516001600160a01b038316815260a09290921c61ffff16602083015290f35b346102a15760c03660031901126102a1576001600160401b036004358181116102a157611a71903690600401610b18565b9060a4358181116102a157611a8a903690600401610b18565b91611aa060018060a01b03600654163314612278565b600c5491600192838101808211610a3f57600c55600094818652602092600484526040872091805191821161043557611ae382611add85546103ca565b85612783565b8490601f8311600114611bb457611b2294939291899183611ba9575b5050600019600383901b1c191690871b1790555b611b1b612336565b90336127d7565b600f54928301809311610a3f57600c54600019810193908411610a3f57611ba6938552601082526040852055611b61611b5c600f546124fc565b600f55565b611b69610a44565b91825260243590820152604435604082015260643560608201526084356080820152611ba1600f54600052600e602052604060002090565b613809565b80f35b015190503880611aff565b9392918791601f19821690611bce85600052602060002090565b918b5b89828210611c0d5750509683611b229810611bf4575b505050811b019055611b13565b015160001960f88460031b161c19169055388080611be7565b838a015185558c96909401939283019201611bd1565b346102a15760203660031901126102a157600435600052600d6020526020604060002054604051908152f35b346102a15760203660031901126102a157600435600052600e602052611ca86040600020611c7c81610569565b90600181015490600281015490600460038201549101549160405195869560a0875260a0870190610630565b9360208601526040850152606084015260808301520390f35b346102a15760c03660031901126102a1576004356001600160401b036024358181116102a157611cf5903690600401610b18565b91611d04600f54821115613908565b600091818352602090600e82526040842091855191821161043557611d2d82611add85546103ca565b80601f8311600114611dd5575084958293949592611dca575b50508160011b916000199060031b1c19161790555b6044356001611d7483600052600e602052604060002090565b01556064356002611d8f83600052600e602052604060002090565b01556084356003611daa83600052600e602052604060002090565b01556004611dc560a43592600052600e602052604060002090565b015580f35b015190503880611d46565b90601f19831696611deb85600052602060002090565b9287905b898210611e2b5750508360019596979810611e12575b505050811b019055611d5b565b015160001960f88460031b161c19169055388080611e05565b80600185968294968601518155019501930190611def565b346102a15760003660031901126102a1576106c06107496104ac565b346102a15760403660031901126102a157602060ff611eb0611e7f61028b565b611e876102a6565b6001600160a01b0391821660009081526003865260408082209290931681526020919091522090565b54166040519015158152f35b346102a15760a03660031901126102a157611ed561028b565b611edd6102a6565b6064356044356084356001600160401b0381116102a157611f02903690600401610b18565b6001600160a01b03858116959194919033871480159081612085575b90612062575b611f2d906125b2565b8216801596611f3c88156125f3565b611f45856131b7565b611f4e876131b7565b988215612017575b611fcc575b50610c8e975085611f6f866108c1866102d0565b54611f7c8282101561262e565b03611f8a866108c1866102d0565b55611f98856108c1866102d0565b611fa3878254612329565b90556040805186815260208101889052339160008051602061396b83398151915291a433612fca565b959391600097959391975b87518110156120045780611fee611fff928c6123e1565b51610899610947610880848d6123e1565b611fd7565b5091939550919395610c8e975038611f5b565b97959391600097959391975b8a8951821015612052579089610899610891610880846120468161204d986123e1565b51946123e1565b612023565b5050919395979690929496611f56565b50600087815260036020908152604080832033845290915290205460ff16611f24565b61208e336134e5565b611f1e565b346102a15760603660031901126102a1576120ac61028b565b602435906044356001600160a01b03821633811480156121e2575b6120d0906123fa565b6000908082526002602052604082208583526020526120f5836040842054101561243a565b8015946121028615612ae7565b61210b816131b7565b93612115816131b7565b968460405161212381610455565b526121a5575b835b85518110156121585780612142612153928a6123e1565b51610899610947610880848b6123e1565b61212b565b5083945061219f60008051602061396b8339815191529187612185856108c184610c39836108c1876102d0565b556040805194855260208501919091523393918291820190565b0390a480f35b94929190825b85518110156121d857806121c26121d3928a6123e1565b51610899610891610880848b6123e1565b6121ab565b5090919294612129565b50600081815260036020908152604080832033845290915290205460ff166120c7565b8060005260206004815261221c6040600020610569565b8051612272575061066690612239612233846131f7565b9361373e565b926040519381612252869351809286808701910161060d565b82016122668251809386808501910161060d565b0103808452018261048b565b91505090565b1561227f57565b60405162461bcd60e51b81526020600482015260176024820152762737ba1030baba3437b934bd32b2103a379036b4b73a1760491b6044820152606490fd5b156122c557565b60405162461bcd60e51b815260206004820152600a6024820152691a5b9d985b1a59081a5960b21b6044820152606490fd5b634e487b7160e01b600052601160045260246000fd5b9060018201809211610a3f57565b6030019081603011610a3f57565b91908201809211610a3f57565b6040519061234382610455565b60008252565b1561235057565b60405162461bcd60e51b815260206004820152601460248201527326b4b73a34b733903d32b937903a37b5b2b7399760611b6044820152606490fd5b1561239357565b60405162461bcd60e51b815260206004820152601060248201526f2632b733ba341036b4b9b6b0ba31b41760811b6044820152606490fd5b634e487b7160e01b600052603260045260246000fd5b80518210156123f55760209160051b010190565b6123cb565b1561240157565b60405162461bcd60e51b81526020600482015260116024820152702ab730b8383937bb32b21031b0b63632b960791b6044820152606490fd5b1561244157565b60405162461bcd60e51b8152602060048201526017602482015276139bdd08195b9bdd59da081d1bdad95b9cc81bdddb9959604a1b6044820152606490fd5b1561248757565b60405162461bcd60e51b815260206004820152600f60248201526e098cadccee8d040dad2e6dac2e8c6d608b1b6044820152606490fd5b156124c557565b60405162461bcd60e51b815260206004820152600f60248201526e0988a9c8ea890be9a92a69a82a8869608b1b6044820152606490fd5b6000198114610a3f5760010190565b91909161251b81518451146124be565b80519261252784610a51565b916040946125378651948561048b565b808452612546601f1991610a51565b0190602091368386013760005b81518110156125a9576125a4906001600160a01b0361257282856123e1565b5116600052600284528760002061258982876123e1565b516000528452876000205461259e82886123e1565b526124fc565b612553565b50929450505050565b156125b957565b60405162461bcd60e51b81526020600482015260126024820152710853d5d3915497d3d497d054141493d5915160721b6044820152606490fd5b156125fa57565b60405162461bcd60e51b815260206004820152600c60248201526b2a27afad22a927afa0a2222960a11b6044820152606490fd5b1561263557565b60405162461bcd60e51b815260206004820152601060248201526f125394d551919250d251539517d0905360821b6044820152606490fd5b91908203918211610a3f57565b9293926001600160a01b0391908216156126d0575b161561269a57509050565b60005b81518110156126ca57806126b46126c592866123e1565b5161089961094761088084876123e1565b61269d565b50509050565b929060005b835181101561270257806126ec6126fd92886123e1565b5161089961089161088084896123e1565b6126d5565b50909261268f565b909161272161066693604084526040840190610f17565b916020818403910152610f17565b601f811161273b575050565b6000906005825260208220906020601f850160051c83019410612779575b601f0160051c01915b82811061276e57505050565b818155600101612762565b9092508290612759565b90601f811161279157505050565b600091825260208220906020601f850160051c830194106127cd575b601f0160051c01915b8281106127c257505050565b8181556001016127b6565b90925082906127ad565b6001600160a01b0381169384159391929091906127f485156125f3565b6127fd816131b7565b93612806613190565b9660005b86518110156128375780612821612832928b6123e1565b51610899610891610880848c6123e1565b61280a565b509193959490929461288f575b506104e6949550612858836108c1846102d0565b612862815461230d565b90556040805184815260016020820152600091339160008051602061396b8339815191529190a433612dbf565b93916000959391955b85518110156128b457806121426128af928a6123e1565b612898565b509193509194506104e6938594612844565b6001600160a01b03811694851594919390926128e286156125f3565b6128eb816131b7565b946128f5836131b7565b9760005b87518110156129265780612910612921928c6123e1565b51610899610891610880848d6123e1565b6128f9565b509193959092949661297f575b506104e6959650612947836108c1846102d0565b612952858254612329565b90556040805184815260208101869052600091339160008051602061396b8339815191529190a433612ef6565b94929095939160005b86518110156129b5578061299f6129b0928b6123e1565b51610899610947610880848c6123e1565b612988565b50919396509193506104e6948695612933565b90936001600160a01b038216801594909291906129e586156125f3565b6129f287518651146124be565b60005b8751811015612a3357612a0881876123e1565b5190612a17610880828b6123e1565b918254908101809111610a3f57612a2e92556124fc565b6129f5565b5090919495939295612aad575b60005b8451811015612a795780612a5a612a7492866123e1565b51610899610891612a6a8a6102d0565b611247858b6123e1565b612a43565b50929094936104e694600060405160008051602061394b833981519152339180612aa489898361270a565b0390a43361311f565b939060005b8451811015612adf5780612ac9612ada92866123e1565b51610899610947610880848a6123e1565b612ab2565b509093612a40565b15612aee57565b60405162461bcd60e51b815260206004820152600e60248201526d232927a6afad22a927afa0a2222960911b6044820152606490fd5b9192916001600160a01b038116908115612b3e8115612ae7565b612b4b84518751146124be565b612b53612336565b50612c02575b60005b8351811015612b785780610936612b7392886123e1565b612b5c565b5091909260005b8251811015612bd55780612b96612bd092856123e1565b51612bca612ba4838a6123e1565b51612bb2836108c18a6102d0565b54612bbf8282101561262e565b03916108c1886102d0565b556124fc565b612b7f565b50936000939250612bfd60008051602061394b8339815191529160405191829133958361270a565b0390a4565b929060009492945b8551811015612c4857612c1d81856123e1565b5190612c2c61088082896123e1565b918254908101809111610a3f57612c4392556124fc565b612c0a565b509092939193612b59565b908160209103126102a1575161066681610332565b610666939260a092600180851b03168252600060208301526040820152600160608201528160808201520190610630565b909260a0926106669594600180861b0316835260006020840152604083015260608201528160808201520190610630565b919261066695949160a094600180871b038092168552166020840152604083015260608201528160808201520190610630565b6040513d6000823e3d90fd5b60609060208152600f60208201526e1513d2d15394d7d491529150d51151608a1b60408201520190565b60009060033d11612d4057565b905060046000803e60005160e01c90565b600060443d1061066657604051600319913d83016004833e81516001600160401b03918282113d602484011117612dae57818401948551938411612db6573d85010160208487010111612dae57506106669291016020019061048b565b949350505050565b50949350505050565b92919091823b612dd0575b50505050565b612df792602092600060405180968195829463f23a6e6160e01b9a8b855260048501612c68565b03926001600160a01b03165af160009181612ec6575b50612e9e5750506001612e1e612d33565b6308c379a014612e6f575b612e37575b38808080612dca565b60405162461bcd60e51b815260206004820152601060248201526f10a2a92198989a9aa922a1a2a4ab22a960811b6044820152606490fd5b612e77612d51565b80612e825750612e29565b60405162461bcd60e51b81529081906107fe9060048301610655565b6001600160e01b03191614612e2e5760405162461bcd60e51b8152806107fe60048201612d09565b612ee891925060203d8111612eef575b612ee0818361048b565b810190612c53565b9038612e0d565b503d612ed6565b9390803b612f06575b5050505050565b612f2e9360006020946040519687958694859363f23a6e6160e01b9b8c865260048601612c99565b03926001600160a01b03165af160009181612faa575b50612f825750506001612f55612d33565b6308c379a014612f6f575b612e37575b3880808080612eff565b612f77612d51565b80612e825750612f60565b6001600160e01b03191614612f655760405162461bcd60e51b8152806107fe60048201612d09565b612fc391925060203d8111612eef57612ee0818361048b565b9038612f44565b9493919092813b612fde575b505050505050565b60006020946130056040519788968795869463f23a6e6160e01b9c8d875260048701612cca565b03926001600160a01b03165af160009181613082575b5061305a575050600161302c612d33565b6308c379a014613047575b612e37575b388080808080612fd6565b61304f612d51565b80612e825750613037565b6001600160e01b0319161461303c5760405162461bcd60e51b8152806107fe60048201612d09565b61309b91925060203d8111612eef57612ee0818361048b565b903861301b565b926130d161066695936130df9360018060a01b031686526000602087015260a0604087015260a0860190610f17565b908482036060860152610f17565b916080818403910152610630565b939061066695936130d1916130df9460018060a01b03809216885216602087015260a0604087015260a0860190610f17565b9390803b61312e575050505050565b612f2e9360006020946040519687958694859363bc197c8160e01b9b8c8652600486016130a2565b9493919092813b61316957505050505050565b60006020946130056040519788968795869463bc197c8160e01b9c8d8752600487016130ed565b60405161319c8161043a565b600181526020810160203682378151156123f5576001905290565b604051906131c48261043a565b600182526020820160203682378251156123f5575290565b6009548110156123f557600960005260206000200190600090565b6009549060405190818381528260208092016009600052826000209260005b8781106132b457505061322b9250038361048b565b60005b83811061326c5760405162461bcd60e51b815260206004820152600f60248201526e125b9d985b1a59081d1bdad95b9259608a1b6044820152606490fd5b61327681846123e1565b51821061328b576132869061230d565b61322e565b610666935061329e91506132af926123e1565b51600052600a602052604060002090565b610569565b845483526001948501948794509282019201613216565b92908301809311610a3f5760095483929083600160401b82101561043557613317816132fe6001948581016009556131dc565b90919082549060031b91821b91600019901b1916179055565b600052602091600a83526040600020928151916001600160401b038311610435576133468361193187546103ca565b81601f841160011461337f5750928293918392600094613374575b50501b916000199060031b1c1916179055565b015192503880613361565b919083601f19811661339688600052602060002090565b946000905b888383106133cf57505050106133b6575b505050811b019055565b015160001960f88460031b161c191690553880806133ac565b85870151885590960195948501948793509081019061339b565b909161340061066693604084526040840190610630565b916020818403910152610630565b9061341881610a51565b91613426604051938461048b565b818352601f1961343583610a51565b0160005b8181106134bf57505060005b8281106134525750505090565b8060051b820135601e19833603018112156102a1578201908135916001600160401b0383116102a15760200182360381136102a15761349961349f916134ba943691610ae1565b30613603565b6134a982876123e1565b526134b481866123e1565b506124fc565b613445565b806060602080938801015201613439565b908160209103126102a1575161066681610d97565b600b5460ff166134f25750565b6daaeb6d7670e522a718067333cd4e803b61350b575050565b604051633185c44d60e21b81523060048201526001600160a01b038316602482015290602090829060449082905afa9081156135a357600091613575575b50156135525750565b604051633b79c77360e21b81526001600160a01b03919091166004820152602490fd5b613596915060203d811161359c575b61358e818361048b565b8101906134d0565b38613549565b503d613584565b612cfd565b60005260086020526040600020906020604051926135c58461043a565b80546001600160a01b0390811680865260019092015492909401829052806135fa57505061ffff6007549283169260a01c1690565b925061ffff1690565b906040519061361182610470565b602782527f416464726573733a206c6f772d6c6576656c2064656c65676174652063616c6c6020830152660819985a5b195960ca1b6040830152823b15613699576000816106669460208394519201905af43d15613691573d9061367482610ac6565b91613682604051938461048b565b82523d6000602084013e6136ed565b6060906136ed565b60405162461bcd60e51b815260206004820152602660248201527f416464726573733a2064656c65676174652063616c6c20746f206e6f6e2d636f6044820152651b9d1c9858dd60d21b6064820152608490fd5b909190156136f9575090565b8151156137095750805190602001fd5b60405162461bcd60e51b8152602060048201529081906107fe906024830190610630565b9081518110156123f5570160200190565b80156137eb57806000908282935b6137d7575061375a83610ac6565b92613768604051948561048b565b80845281601f1961377883610ac6565b013660208701375b61378a5750505090565b6000198101908111610a3f578091600a916137ce6137c56137b56137af86860661231b565b60ff1690565b60f81b6001600160f81b03191690565b861a918761372d565b53049081613780565b926137e3600a916124fc565b93048061374c565b506040516137f88161043a565b60018152600360fc1b602082015290565b90805180516001600160401b038111610435576138308161382a86546103ca565b86612783565b6020918290601f8311600114613895579180608094926004969460009261388a575b50508160011b916000199060031b1c19161785555b810151600185015560408101516002850155606081015160038501550151910155565b015190503880613852565b90601f198316916138ab87600052602060002090565b9260005b8181106138f157509260019285926004989660809896106138d8575b505050811b018555613867565b015160001960f88460031b161c191690553880806138cb565b9293866001819287860151815501950193016138af565b1561390f57565b60405162461bcd60e51b8152602060048201526013602482015272125d195b48191bd95cc81b9bdd08195e1a5cdd606a1b6044820152606490fdfe4a39dc06d4c0dbc64b70af90fd698a233a518aa5d07e595d983b8c0526c8f7fbc3d58168c5ae7397731d063d5bbf3d657854427343f4c083240f7aacaa2d0f62a2646970667358221220d1266e92d61bc3142030e08a6fd5e1e2c0b9d41ab24c66a1034807c9c5b4e1e764736f6c6343000812003338475885990d8dfe9ca01f0ef160a1b5514426eab9ddbc953a3353410ba78096",
  "linkReferences": {},
  "deployedLinkReferences": {}
}