{
  "_format": "hh-sol-artifact-1",
  "contractName": "BattleEffects",
  "sourceName": "contracts/BattleEffects.sol",
  "abi": [
    {
      "inputs": [],
      "stateMutability": "nonpayable",
      "type": "constructor"
    },
    {
      "inputs": [
        {
          "internalType": "address",
          "name": "operator",
          "type": "address"
        }
      ],
      "name": "OperatorNotAllowed",
      "type": "error"
    },
    {
      "anonymous": false,
      "inputs": [
        {
          "indexed": true,
          "internalType": "address",
          "name": "_owner",
          "type": "address"
        },
        {
          "indexed": true,
          "internalType": "address",
          "name": "_operator",
          "type": "address"
        },
        {
          "indexed": false,
          "internalType": "bool",
          "name": "_approved",
          "type": "bool"
        }
      ],
      "name": "ApprovalForAll",
      "type": "event"
    },
    {
      "anonymous": false,
      "inputs": [
        {
          "indexed": false,
          "internalType": "string",
          "name": "prevURI",
          "type": "string"
        },
        {
          "indexed": false,
          "internalType": "string",
          "name": "newURI",
          "type": "string"
        }
      ],
      "name": "ContractURIUpdated",
      "type": "event"
    },
    {
      "anonymous": false,
      "inputs": [
        {
          "indexed": true,
          "internalType": "address",
          "name": "newRoyaltyRecipient",
          "type": "address"
        },
        {
          "indexed": false,
          "internalType": "uint256",
          "name": "newRoyaltyBps",
          "type": "uint256"
        }
      ],
      "name": "DefaultRoyalty",
      "type": "event"
    },
    {
      "anonymous": false,
      "inputs": [
        {
          "indexed": false,
          "internalType": "bool",
          "name": "restriction",
          "type": "bool"
        }
      ],
      "name": "OperatorRestriction",
      "type": "event"
    },
    {
      "anonymous": false,
      "inputs": [
        {
          "indexed": true,
          "internalType": "address",
          "name": "prevOwner",
          "type": "address"
        },
        {
          "indexed": true,
          "internalType": "address",
          "name": "newOwner",
          "type": "address"
        }
      ],
      "name": "OwnerUpdated",
      "type": "event"
    },
    {
      "anonymous": false,
      "inputs": [
        {
          "indexed": true,
          "internalType": "uint256",
          "name": "tokenId",
          "type": "uint256"
        },
        {
          "indexed": true,
          "internalType": "address",
          "name": "royaltyRecipient",
          "type": "address"
        },
        {
          "indexed": false,
          "internalType": "uint256",
          "name": "royaltyBps",
          "type": "uint256"
        }
      ],
      "name": "RoyaltyForToken",
      "type": "event"
    },
    {
      "anonymous": false,
      "inputs": [
        {
          "indexed": true,
          "internalType": "address",
          "name": "_operator",
          "type": "address"
        },
        {
          "indexed": true,
          "internalType": "address",
          "name": "_from",
          "type": "address"
        },
        {
          "indexed": true,
          "internalType": "address",
          "name": "_to",
          "type": "address"
        },
        {
          "indexed": false,
          "internalType": "uint256[]",
          "name": "_ids",
          "type": "uint256[]"
        },
        {
          "indexed": false,
          "internalType": "uint256[]",
          "name": "_values",
          "type": "uint256[]"
        }
      ],
      "name": "TransferBatch",
      "type": "event"
    },
    {
      "anonymous": false,
      "inputs": [
        {
          "indexed": true,
          "internalType": "address",
          "name": "_operator",
          "type": "address"
        },
        {
          "indexed": true,
          "internalType": "address",
          "name": "_from",
          "type": "address"
        },
        {
          "indexed": true,
          "internalType": "address",
          "name": "_to",
          "type": "address"
        },
        {
          "indexed": false,
          "internalType": "uint256",
          "name": "_id",
          "type": "uint256"
        },
        {
          "indexed": false,
          "internalType": "uint256",
          "name": "_value",
          "type": "uint256"
        }
      ],
      "name": "TransferSingle",
      "type": "event"
    },
    {
      "anonymous": false,
      "inputs": [
        {
          "indexed": false,
          "internalType": "string",
          "name": "_value",
          "type": "string"
        },
        {
          "indexed": true,
          "internalType": "uint256",
          "name": "_id",
          "type": "uint256"
        }
      ],
      "name": "URI",
      "type": "event"
    },
    {
      "inputs": [],
      "name": "OPERATOR_FILTER_REGISTRY",
      "outputs": [
        {
          "internalType": "contract IOperatorFilterRegistry",
          "name": "",
          "type": "address"
        }
      ],
      "stateMutability": "view",
      "type": "function"
    },
    {
      "inputs": [
        {
          "internalType": "address",
          "name": "",
          "type": "address"
        },
        {
          "internalType": "uint256",
          "name": "",
          "type": "uint256"
        }
      ],
      "name": "balanceOf",
      "outputs": [
        {
          "internalType": "uint256",
          "name": "",
          "type": "uint256"
        }
      ],
      "stateMutability": "view",
      "type": "function"
    },
    {
      "inputs": [
        {
          "internalType": "address[]",
          "name": "accounts",
          "type": "address[]"
        },
        {
          "internalType": "uint256[]",
          "name": "ids",
          "type": "uint256[]"
        }
      ],
      "name": "balanceOfBatch",
      "outputs": [
        {
          "internalType": "uint256[]",
          "name": "",
          "type": "uint256[]"
        }
      ],
      "stateMutability": "view",
      "type": "function"
    },
    {
      "inputs": [
        {
          "internalType": "address",
          "name": "_to",
          "type": "address"
        },
        {
          "internalType": "uint256[]",
          "name": "_tokenIds",
          "type": "uint256[]"
        },
        {
          "internalType": "uint256[]",
          "name": "_amounts",
          "type": "uint256[]"
        },
        {
          "internalType": "string",
          "name": "_baseURI",
          "type": "string"
        }
      ],
      "name": "batchMintTo",
      "outputs": [],
      "stateMutability": "nonpayable",
      "type": "function"
    },
    {
      "inputs": [
        {
          "internalType": "address",
          "name": "_owner",
          "type": "address"
        },
        {
          "internalType": "uint256",
          "name": "_tokenId",
          "type": "uint256"
        },
        {
          "internalType": "uint256",
          "name": "_amount",
          "type": "uint256"
        }
      ],
      "name": "burn",
      "outputs": [],
      "stateMutability": "nonpayable",
      "type": "function"
    },
    {
      "inputs": [
        {
          "internalType": "address",
          "name": "_owner",
          "type": "address"
        },
        {
          "internalType": "uint256[]",
          "name": "_tokenIds",
          "type": "uint256[]"
        },
        {
          "internalType": "uint256[]",
          "name": "_amounts",
          "type": "uint256[]"
        }
      ],
      "name": "burnBatch",
      "outputs": [],
      "stateMutability": "nonpayable",
      "type": "function"
    },
    {
      "inputs": [],
      "name": "contractURI",
      "outputs": [
        {
          "internalType": "string",
          "name": "",
          "type": "string"
        }
      ],
      "stateMutability": "view",
      "type": "function"
    },
    {
      "inputs": [
        {
          "internalType": "string",
          "name": "_name",
          "type": "string"
        },
        {
          "internalType": "uint256",
          "name": "_duration",
          "type": "uint256"
        },
        {
          "internalType": "bool",
          "name": "_isPositive",
          "type": "bool"
        },
        {
          "internalType": "uint256",
          "name": "_attackBoost",
          "type": "uint256"
        },
        {
          "internalType": "uint256",
          "name": "_attackReduction",
          "type": "uint256"
        },
        {
          "internalType": "uint256",
          "name": "_defenseBoost",
          "type": "uint256"
        },
        {
          "internalType": "uint256",
          "name": "_defenseReduction",
          "type": "uint256"
        },
        {
          "internalType": "uint256",
          "name": "_healPerTurn",
          "type": "uint256"
        },
        {
          "internalType": "uint256",
          "name": "_damagePerTurn",
          "type": "uint256"
        },
        {
          "internalType": "bool",
          "name": "_isStun",
          "type": "bool"
        },
        {
          "internalType": "string",
          "name": "_tokenURI",
          "type": "string"
        }
      ],
      "name": "createStatusEffect",
      "outputs": [],
      "stateMutability": "nonpayable",
      "type": "function"
    },
    {
      "inputs": [],
      "name": "getBaseURICount",
      "outputs": [
        {
          "internalType": "uint256",
          "name": "",
          "type": "uint256"
        }
      ],
      "stateMutability": "view",
      "type": "function"
    },
    {
      "inputs": [
        {
          "internalType": "uint256",
          "name": "_index",
          "type": "uint256"
        }
      ],
      "name": "getBatchIdAtIndex",
      "outputs": [
        {
          "internalType": "uint256",
          "name": "",
          "type": "uint256"
        }
      ],
      "stateMutability": "view",
      "type": "function"
    },
    {
      "inputs": [],
      "name": "getDefaultRoyaltyInfo",
      "outputs": [
        {
          "internalType": "address",
          "name": "",
          "type": "address"
        },
        {
          "internalType": "uint16",
          "name": "",
          "type": "uint16"
        }
      ],
      "stateMutability": "view",
      "type": "function"
    },
    {
      "inputs": [
        {
          "internalType": "uint256",
          "name": "_tokenId",
          "type": "uint256"
        }
      ],
      "name": "getRoyaltyInfoForToken",
      "outputs": [
        {
          "internalType": "address",
          "name": "",
          "type": "address"
        },
        {
          "internalType": "uint16",
          "name": "",
          "type": "uint16"
        }
      ],
      "stateMutability": "view",
      "type": "function"
    },
    {
      "inputs": [
        {
          "internalType": "uint256",
          "name": "_effectId",
          "type": "uint256"
        }
      ],
      "name": "getStatusEffect",
      "outputs": [
        {
          "components": [
            {
              "internalType": "uint256",
              "name": "effectId",
              "type": "uint256"
            },
            {
              "internalType": "string",
              "name": "name",
              "type": "string"
            },
            {
              "internalType": "bool",
              "name": "isPositive",
              "type": "bool"
            },
            {
              "internalType": "uint256",
              "name": "duration",
              "type": "uint256"
            },
            {
              "internalType": "uint256",
              "name": "attackBoost",
              "type": "uint256"
            },
            {
              "internalType": "uint256",
              "name": "attackReduction",
              "type": "uint256"
            },
            {
              "internalType": "uint256",
              "name": "defenseBoost",
              "type": "uint256"
            },
            {
              "internalType": "uint256",
              "name": "defenseReduction",
              "type": "uint256"
            },
            {
              "internalType": "uint256",
              "name": "healPerTurn",
              "type": "uint256"
            },
            {
              "internalType": "uint256",
              "name": "damagePerTurn",
              "type": "uint256"
            },
            {
              "internalType": "bool",
              "name": "isStun",
              "type": "bool"
            }
          ],
          "internalType": "struct BattleEffects.StatusEffect",
          "name": "",
          "type": "tuple"
        }
      ],
      "stateMutability": "view",
      "type": "function"
    },
    {
      "inputs": [
        {
          "internalType": "address",
          "name": "",
          "type": "address"
        },
        {
          "internalType": "address",
          "name": "",
          "type": "address"
        }
      ],
      "name": "isApprovedForAll",
      "outputs": [
        {
          "internalType": "bool",
          "name": "",
          "type": "bool"
        }
      ],
      "stateMutability": "view",
      "type": "function"
    },
    {
      "inputs": [
        {
          "internalType": "uint256",
          "name": "_effectId",
          "type": "uint256"
        },
        {
          "internalType": "address",
          "name": "_caller",
          "type": "address"
        }
      ],
      "name": "mintStatusEffect",
      "outputs": [],
      "stateMutability": "nonpayable",
      "type": "function"
    },
    {
      "inputs": [
        {
          "internalType": "address",
          "name": "_to",
          "type": "address"
        },
        {
          "internalType": "uint256",
          "name": "_tokenId",
          "type": "uint256"
        },
        {
          "internalType": "string",
          "name": "_tokenURI",
          "type": "string"
        },
        {
          "internalType": "uint256",
          "name": "_amount",
          "type": "uint256"
        }
      ],
      "name": "mintTo",
      "outputs": [],
      "stateMutability": "nonpayable",
      "type": "function"
    },
    {
      "inputs": [
        {
          "internalType": "bytes[]",
          "name": "data",
          "type": "bytes[]"
        }
      ],
      "name": "multicall",
      "outputs": [
        {
          "internalType": "bytes[]",
          "name": "results",
          "type": "bytes[]"
        }
      ],
      "stateMutability": "nonpayable",
      "type": "function"
    },
    {
      "inputs": [],
      "name": "name",
      "outputs": [
        {
          "internalType": "string",
          "name": "",
          "type": "string"
        }
      ],
      "stateMutability": "view",
      "type": "function"
    },
    {
      "inputs": [],
      "name": "nextTokenIdToMint",
      "outputs": [
        {
          "internalType": "uint256",
          "name": "",
          "type": "uint256"
        }
      ],
      "stateMutability": "view",
      "type": "function"
    },
    {
      "inputs": [],
      "name": "numStatusEffects",
      "outputs": [
        {
          "internalType": "uint256",
          "name": "",
          "type": "uint256"
        }
      ],
      "stateMutability": "view",
      "type": "function"
    },
    {
      "inputs": [],
      "name": "operatorRestriction",
      "outputs": [
        {
          "internalType": "bool",
          "name": "",
          "type": "bool"
        }
      ],
      "stateMutability": "view",
      "type": "function"
    },
    {
      "inputs": [],
      "name": "owner",
      "outputs": [
        {
          "internalType": "address",
          "name": "",
          "type": "address"
        }
      ],
      "stateMutability": "view",
      "type": "function"
    },
    {
      "inputs": [
        {
          "internalType": "uint256",
          "name": "tokenId",
          "type": "uint256"
        },
        {
          "internalType": "uint256",
          "name": "salePrice",
          "type": "uint256"
        }
      ],
      "name": "royaltyInfo",
      "outputs": [
        {
          "internalType": "address",
          "name": "receiver",
          "type": "address"
        },
        {
          "internalType": "uint256",
          "name": "royaltyAmount",
          "type": "uint256"
        }
      ],
      "stateMutability": "view",
      "type": "function"
    },
    {
      "inputs": [
        {
          "internalType": "address",
          "name": "from",
          "type": "address"
        },
        {
          "internalType": "address",
          "name": "to",
          "type": "address"
        },
        {
          "internalType": "uint256[]",
          "name": "ids",
          "type": "uint256[]"
        },
        {
          "internalType": "uint256[]",
          "name": "amounts",
          "type": "uint256[]"
        },
        {
          "internalType": "bytes",
          "name": "data",
          "type": "bytes"
        }
      ],
      "name": "safeBatchTransferFrom",
      "outputs": [],
      "stateMutability": "nonpayable",
      "type": "function"
    },
    {
      "inputs": [
        {
          "internalType": "address",
          "name": "from",
          "type": "address"
        },
        {
          "internalType": "address",
          "name": "to",
          "type": "address"
        },
        {
          "internalType": "uint256",
          "name": "id",
          "type": "uint256"
        },
        {
          "internalType": "uint256",
          "name": "amount",
          "type": "uint256"
        },
        {
          "internalType": "bytes",
          "name": "data",
          "type": "bytes"
        }
      ],
      "name": "safeTransferFrom",
      "outputs": [],
      "stateMutability": "nonpayable",
      "type": "function"
    },
    {
      "inputs": [
        {
          "internalType": "address",
          "name": "operator",
          "type": "address"
        },
        {
          "internalType": "bool",
          "name": "approved",
          "type": "bool"
        }
      ],
      "name": "setApprovalForAll",
      "outputs": [],
      "stateMutability": "nonpayable",
      "type": "function"
    },
    {
      "inputs": [
        {
          "internalType": "string",
          "name": "_uri",
          "type": "string"
        }
      ],
      "name": "setContractURI",
      "outputs": [],
      "stateMutability": "nonpayable",
      "type": "function"
    },
    {
      "inputs": [
        {
          "internalType": "address",
          "name": "_royaltyRecipient",
          "type": "address"
        },
        {
          "internalType": "uint256",
          "name": "_royaltyBps",
          "type": "uint256"
        }
      ],
      "name": "setDefaultRoyaltyInfo",
      "outputs": [],
      "stateMutability": "nonpayable",
      "type": "function"
    },
    {
      "inputs": [
        {
          "internalType": "bool",
          "name": "_restriction",
          "type": "bool"
        }
      ],
      "name": "setOperatorRestriction",
      "outputs": [],
      "stateMutability": "nonpayable",
      "type": "function"
    },
    {
      "inputs": [
        {
          "internalType": "address",
          "name": "_newOwner",
          "type": "address"
        }
      ],
      "name": "setOwner",
      "outputs": [],
      "stateMutability": "nonpayable",
      "type": "function"
    },
    {
      "inputs": [
        {
          "internalType": "uint256",
          "name": "_tokenId",
          "type": "uint256"
        },
        {
          "internalType": "address",
          "name": "_recipient",
          "type": "address"
        },
        {
          "internalType": "uint256",
          "name": "_bps",
          "type": "uint256"
        }
      ],
      "name": "setRoyaltyInfoForToken",
      "outputs": [],
      "stateMutability": "nonpayable",
      "type": "function"
    },
    {
      "inputs": [
        {
          "internalType": "uint256",
          "name": "",
          "type": "uint256"
        }
      ],
      "name": "statusEffects",
      "outputs": [
        {
          "internalType": "uint256",
          "name": "effectId",
          "type": "uint256"
        },
        {
          "internalType": "string",
          "name": "name",
          "type": "string"
        },
        {
          "internalType": "bool",
          "name": "isPositive",
          "type": "bool"
        },
        {
          "internalType": "uint256",
          "name": "duration",
          "type": "uint256"
        },
        {
          "internalType": "uint256",
          "name": "attackBoost",
          "type": "uint256"
        },
        {
          "internalType": "uint256",
          "name": "attackReduction",
          "type": "uint256"
        },
        {
          "internalType": "uint256",
          "name": "defenseBoost",
          "type": "uint256"
        },
        {
          "internalType": "uint256",
          "name": "defenseReduction",
          "type": "uint256"
        },
        {
          "internalType": "uint256",
          "name": "healPerTurn",
          "type": "uint256"
        },
        {
          "internalType": "uint256",
          "name": "damagePerTurn",
          "type": "uint256"
        },
        {
          "internalType": "bool",
          "name": "isStun",
          "type": "bool"
        }
      ],
      "stateMutability": "view",
      "type": "function"
    },
    {
      "inputs": [
        {
          "internalType": "bytes4",
          "name": "interfaceId",
          "type": "bytes4"
        }
      ],
      "name": "supportsInterface",
      "outputs": [
        {
          "internalType": "bool",
          "name": "",
          "type": "bool"
        }
      ],
      "stateMutability": "view",
      "type": "function"
    },
    {
      "inputs": [],
      "name": "symbol",
      "outputs": [
        {
          "internalType": "string",
          "name": "",
          "type": "string"
        }
      ],
      "stateMutability": "view",
      "type": "function"
    },
    {
      "inputs": [
        {
          "internalType": "uint256",
          "name": "",
          "type": "uint256"
        }
      ],
      "name": "totalSupply",
      "outputs": [
        {
          "internalType": "uint256",
          "name": "",
          "type": "uint256"
        }
      ],
      "stateMutability": "view",
      "type": "function"
    },
    {
      "inputs": [
        {
          "internalType": "uint256",
          "name": "_tokenId",
          "type": "uint256"
        }
      ],
      "name": "uri",
      "outputs": [
        {
          "internalType": "string",
          "name": "",
          "type": "string"
        }
      ],
      "stateMutability": "view",
      "type": "function"
    }
  ],
  "bytecode": "0x60806040523480156200001157600080fd5b506040518060400160405280600f81526020016e14dd185d1d5cd159999958dd139195608a1b81525060405180604001604052806002815260200161534560f01b815250600080733cc6cdda760b79bafa08df41ecfa224f810dceb660018585816000908162000082919062000401565b50600162000091828262000401565b5050506daaeb6d7670e522a718067333cd4e3b15620001d95780156200012757604051633e9f1edf60e11b81523060048201526001600160a01b03831660248201526daaeb6d7670e522a718067333cd4e90637d3e3dbe906044015b600060405180830381600087803b1580156200010857600080fd5b505af11580156200011d573d6000803e3d6000fd5b50505050620001d9565b6001600160a01b03821615620001785760405163a0af290360e01b81523060048201526001600160a01b03831660248201526daaeb6d7670e522a718067333cd4e9063a0af290390604401620000ed565b604051632210724360e11b81523060048201526daaeb6d7670e522a718067333cd4e90634420e48690602401600060405180830381600087803b158015620001bf57600080fd5b505af1158015620001d4573d6000803e3d6000fd5b505050505b50620001e790503362000218565b620001fc826001600160801b0383166200026a565b62000208600162000315565b50506001600c5550620004cd9050565b600680546001600160a01b038381166001600160a01b0319831681179093556040519116919082907f8292fce18fa69edf4db7b94ea2e58241df0ae57f97e0a6c9b29067028bf92d7690600090a35050565b612710811115620002b35760405162461bcd60e51b815260206004820152600f60248201526e45786365656473206d61782062707360881b604482015260640160405180910390fd5b600780546001600160a01b0384166001600160b01b03199091168117600160a01b61ffff851602179091556040518281527f90d7ec04bcb8978719414f82e52e4cb651db41d0e6f8cea6118c2191e6183adb9060200160405180910390a25050565b600b805460ff19168215159081179091556040519081527f38475885990d8dfe9ca01f0ef160a1b5514426eab9ddbc953a3353410ba780969060200160405180910390a150565b634e487b7160e01b600052604160045260246000fd5b600181811c908216806200038757607f821691505b602082108103620003a857634e487b7160e01b600052602260045260246000fd5b50919050565b601f821115620003fc57600081815260208120601f850160051c81016020861015620003d75750805b601f850160051c820191505b81811015620003f857828155600101620003e3565b5050505b505050565b81516001600160401b038111156200041d576200041d6200035c565b62000435816200042e845462000372565b84620003ae565b602080601f8311600181146200046d5760008415620004545750858301515b600019600386901b1c1916600185901b178555620003f8565b600085815260208120601f198616915b828110156200049e578886015182559484019460019091019084016200047d565b5085821015620004bd5787850151600019600388901b60f8161c191681555b5050505050600190811b01905550565b613ae580620004dd6000396000f3fe608060405234801561001057600080fd5b506004361061021b5760003560e01c806363b45e2d11610125578063ac9650d8116100ad578063c7cd32c61161007c578063c7cd32c614610513578063e8a3d4851461053d578063e985e9c514610545578063f242432a14610573578063f5298aca1461058657600080fd5b8063ac9650d8146104a2578063b03f4528146104c2578063b24f2d39146104d5578063bd85b039146104f357600080fd5b8063938e3d7b116100f4578063938e3d7b1461044e578063949c09f71461046157806395d89b41146104745780639bcf7a151461047c578063a22cb4651461048f57600080fd5b806363b45e2d146104195780636b20c454146104215780637bdaa4ef146104345780638da5cb5b1461043d57600080fd5b80632eb2c2d6116101a85780634cc157df116101775780634cc157df146103915780634e1273f4146103c65780634f17bb4f146103e6578063504c6e01146103f9578063600dd5ea1461040657600080fd5b80632eb2c2d61461033657806332f0cd64146103495780633b1475a71461035c57806341f434341461036457600080fd5b80631187bd51116101ef5780631187bd51146102a957806313af4035146102c95780632419f51b146102de5780632a55205a146102f15780632c6a0f5f1461032357600080fd5b8062fdd58e1461022057806301ffc9a71461025e57806306fdde03146102815780630e89341c14610296575b600080fd5b61024b61022e366004612b79565b600260209081526000928352604080842090915290825290205481565b6040519081526020015b60405180910390f35b61027161026c366004612bb9565b610599565b6040519015158152602001610255565b610289610606565b6040516102559190612c26565b6102896102a4366004612c39565b610694565b6102bc6102b7366004612c39565b610782565b6040516102559190612c52565b6102dc6102d7366004612d02565b61090d565b005b61024b6102ec366004612c39565b610946565b6103046102ff366004612d1d565b6109b4565b604080516001600160a01b039093168352602083019190915201610255565b6102dc610331366004612e0d565b6109f1565b6102dc610344366004612f6d565b610b22565b6102dc610357366004613016565b610b51565b600c5461024b565b6103796daaeb6d7670e522a718067333cd4e81565b6040516001600160a01b039091168152602001610255565b6103a461039f366004612c39565b610bc2565b604080516001600160a01b03909316835261ffff909116602083015201610255565b6103d96103d4366004613033565b610c2d565b6040516102559190613138565b6102dc6103f436600461314b565b610d41565b600b546102719060ff1681565b6102dc610414366004612b79565b610db8565b60095461024b565b6102dc61042f366004613177565b610dea565b61024b600f5481565b6006546001600160a01b0316610379565b6102dc61045c3660046131ea565b610f8c565b6102dc61046f36600461321e565b610fb9565b6102896111b4565b6102dc61048a3660046132b6565b6111c1565b6102dc61049d3660046132eb565b6111f0565b6104b56104b0366004613322565b611204565b6040516102559190613396565b6102dc6104d03660046133f8565b6112f8565b6007546001600160a01b03811690600160a01b900461ffff166103a4565b61024b610501366004612c39565b600d6020526000908152604090205481565b610526610521366004612c39565b6113e3565b6040516102559b9a99989796959493929190613456565b6102896114c8565b6102716105533660046134ba565b600360209081526000928352604080842090915290825290205460ff1681565b6102dc6105813660046134e4565b6114d5565b6102dc610594366004613548565b6114fc565b60006301ffc9a760e01b6001600160e01b0319831614806105ca5750636cdb3d1360e11b6001600160e01b03198316145b806105e557506303a24d0760e21b6001600160e01b03198316145b8061060057506001600160e01b0319821663152a902d60e11b145b92915050565b600080546106139061357b565b80601f016020809104026020016040519081016040528092919081815260200182805461063f9061357b565b801561068c5780601f106106615761010080835404028352916020019161068c565b820191906000526020600020905b81548152906001019060200180831161066f57829003601f168201915b505050505081565b6000818152600460205260408120805460609291906106b29061357b565b80601f01602080910402602001604051908101604052809291908181526020018280546106de9061357b565b801561072b5780601f106107005761010080835404028352916020019161072b565b820191906000526020600020905b81548152906001019060200180831161070e57829003601f168201915b505050505090506000815111156107425792915050565b600061074d846115f1565b9050806107598561178d565b60405160200161076a9291906135b5565b60405160208183030381529060405292505050919050565b6107e36040518061016001604052806000815260200160608152602001600015158152602001600081526020016000815260200160008152602001600081526020016000815260200160008152602001600081526020016000151581525090565b600e6000838152602001908152602001600020604051806101600160405290816000820154815260200160018201805461081c9061357b565b80601f01602080910402602001604051908101604052809291908181526020018280546108489061357b565b80156108955780601f1061086a57610100808354040283529160200191610895565b820191906000526020600020905b81548152906001019060200180831161087857829003601f168201915b5050509183525050600282015460ff90811615156020830152600383015460408301526004830154606083015260058301546080830152600683015460a0830152600783015460c0830152600883015460e08301526009830154610100830152600a9092015490911615156101209091015292915050565b610915611895565b61093a5760405162461bcd60e51b8152600401610931906135e4565b60405180910390fd5b610943816118c2565b50565b600061095160095490565b821061098f5760405162461bcd60e51b815260206004820152600d60248201526c092dcecc2d8d2c840d2dcc8caf609b1b6044820152606401610931565b600982815481106109a2576109a261360c565b90600052602060002001549050919050565b6000806000806109c386610bc2565b90945084925061ffff1690506127106109dc8287613638565b6109e69190613665565b925050509250929050565b600f8054600019916000610a0483613679565b9190505550604051806101600160405280600f5481526020018d81526020018b151581526020018c81526020018a8152602001898152602001888152602001878152602001868152602001858152602001841515815250600e6000600f548152602001908152602001600020600082015181600001556020820151816001019081610a8f91906136d8565b50604082015160028201805491151560ff19928316179055606083015160038301556080830151600483015560a0830151600583015560c0830151600683015560e083015160078301556101008301516008830155610120830151600983015561014090920151600a909101805491151591909216179055610b1433828460016112f8565b505050505050505050505050565b846001600160a01b0381163314610b3c57610b3c33611914565b610b4986868686866119d8565b505050505050565b610b59611895565b610bb95760405162461bcd60e51b815260206004820152602b60248201527f4e6f7420617574686f72697a656420746f20736574206f70657261746f72207260448201526a32b9ba3934b1ba34b7b71760a91b6064820152608401610931565b61094381611a67565b6000818152600860209081526040808320815180830190925280546001600160a01b031680835260019091015492820192909252829115610c095780516020820151610c23565b6007546001600160a01b03811690600160a01b900461ffff165b9250925050915091565b60608151835114610c505760405162461bcd60e51b815260040161093190613797565b600083516001600160401b03811115610c6b57610c6b612d3f565b604051908082528060200260200182016040528015610c94578160200160208202803683370190505b50905060005b8451811015610d395760026000868381518110610cb957610cb961360c565b60200260200101516001600160a01b03166001600160a01b031681526020019081526020016000206000858381518110610cf557610cf561360c565b6020026020010151815260200190815260200160002054828281518110610d1e57610d1e61360c565b6020908102919091010152610d3281613679565b9050610c9a565b509392505050565b600f548211158015610d5257508115155b610d925760405162461bcd60e51b8152602060048201526011602482015270125b9d985b1a59081959999958dd081251607a1b6044820152606401610931565b6000829050610db38282600160405180602001604052806000815250611aae565b505050565b610dc0611895565b610ddc5760405162461bcd60e51b8152600401610931906135e4565b610de68282611b87565b5050565b336001600160a01b038416811480610e2757506001600160a01b0380851660009081526003602090815260408083209385168352929052205460ff165b610e675760405162461bcd60e51b81526020600482015260116024820152702ab730b8383937bb32b21031b0b63632b960791b6044820152606401610931565b8151835114610eaa5760405162461bcd60e51b815260206004820152600f60248201526e098cadccee8d040dad2e6dac2e8c6d608b1b6044820152606401610931565b60005b8351811015610f7a57828181518110610ec857610ec861360c565b602002602001015160026000876001600160a01b03166001600160a01b031681526020019081526020016000206000868481518110610f0957610f0961360c565b60200260200101518152602001908152602001600020541015610f685760405162461bcd60e51b8152602060048201526017602482015276139bdd08195b9bdd59da081d1bdad95b9cc81bdddb9959604a1b6044820152606401610931565b610f736001826137c0565b9050610ead565b50610f86848484611c2d565b50505050565b610f94611895565b610fb05760405162461bcd60e51b8152600401610931906135e4565b61094381611de2565b610fc1611895565b6110075760405162461bcd60e51b81526020600482015260176024820152762737ba1030baba3437b934bd32b2103a379036b4b73a1760491b6044820152606401610931565b600082511161104f5760405162461bcd60e51b815260206004820152601460248201527326b4b73a34b733903d32b937903a37b5b2b7399760611b6044820152606401610931565b81518351146110935760405162461bcd60e51b815260206004820152601060248201526f2632b733ba341036b4b9b6b0ba31b41760811b6044820152606401610931565b600061109e600c5490565b9050806000805b8651811015611174576000198782815181106110c3576110c361360c565b60200260200101510361110d57838782815181106110e3576110e361360c565b60209081029190910101526110f96001856137c0565b93506111066001836137c0565b9150611162565b838782815181106111205761112061360c565b6020026020010151106111625760405162461bcd60e51b815260206004820152600a6024820152691a5b9d985b1a59081a5960b21b6044820152606401610931565b61116d6001826137c0565b90506110a5565b50801561118957611186828286611ebe565b50505b82600c819055506111ab87878760405180602001604052806000815250611f22565b50505050505050565b600180546106139061357b565b6111c9611895565b6111e55760405162461bcd60e51b8152600401610931906135e4565b610db383838361207d565b816111fa81611914565b610db38383612147565b6060816001600160401b0381111561121e5761121e612d3f565b60405190808252806020026020018201604052801561125157816020015b606081526020019060019003908161123c5790505b50905060005b828110156112f1576112c1308585848181106112755761127561360c565b905060200281019061128791906137d3565b8080601f0160208091040260200160405190810160405280939291908181526020018383808284376000920191909152506121f692505050565b8282815181106112d3576112d361360c565b602002602001018190525080806112e990613679565b915050611257565b5092915050565b611300611895565b6113465760405162461bcd60e51b81526020600482015260176024820152762737ba1030baba3437b934bd32b2103a379036b4b73a1760491b6044820152606401610931565b600080611352600c5490565b90506000198503611388578091506001600c600082825461137391906137c0565b9091555061138390508185612222565b6113c8565b8085106113c45760405162461bcd60e51b815260206004820152600a6024820152691a5b9d985b1a59081a5960b21b6044820152606401610931565b8491505b610b4986838560405180602001604052806000815250611aae565b600e60205260009081526040902080546001820180549192916114059061357b565b80601f01602080910402602001604051908101604052809291908181526020018280546114319061357b565b801561147e5780601f106114535761010080835404028352916020019161147e565b820191906000526020600020905b81548152906001019060200180831161146157829003601f168201915b50505060028401546003850154600486015460058701546006880154600789015460088a015460098b0154600a909b0154999a60ff9788169a96995094975092959194909391168b565b600580546106139061357b565b846001600160a01b03811633146114ef576114ef33611914565b610b49868686868661223a565b336001600160a01b03841681148061153957506001600160a01b0380851660009081526003602090815260408083209385168352929052205460ff165b6115795760405162461bcd60e51b81526020600482015260116024820152702ab730b8383937bb32b21031b0b63632b960791b6044820152606401610931565b6001600160a01b03841660009081526002602090815260408083208684529091529020548211156115e65760405162461bcd60e51b8152602060048201526017602482015276139bdd08195b9bdd59da081d1bdad95b9cc81bdddb9959604a1b6044820152606401610931565b610f868484846122c2565b606060006115fe60095490565b90506000600980548060200260200160405190810160405280929190818152602001828054801561164e57602002820191906000526020600020905b81548152602001906001019080831161163a575b5050505050905060005b82811015611752578181815181106116725761167261360c565b602002602001015185101561174057600a60008383815181106116975761169761360c565b6020026020010151815260200190815260200160002080546116b89061357b565b80601f01602080910402602001604051908101604052809291908181526020018280546116e49061357b565b80156117315780601f1061170657610100808354040283529160200191611731565b820191906000526020600020905b81548152906001019060200180831161171457829003601f168201915b50505050509350505050919050565b61174b6001826137c0565b9050611658565b5060405162461bcd60e51b815260206004820152600f60248201526e125b9d985b1a59081d1bdad95b9259608a1b6044820152606401610931565b6060816000036117b45750506040805180820190915260018152600360fc1b602082015290565b8160005b81156117de57806117c881613679565b91506117d79050600a83613665565b91506117b8565b6000816001600160401b038111156117f8576117f8612d3f565b6040519080825280601f01601f191660200182016040528015611822576020820181803683370190505b5090505b841561188d57611837600183613820565b9150611844600a86613833565b61184f9060306137c0565b60f81b8183815181106118645761186461360c565b60200101906001600160f81b031916908160001a905350611886600a86613665565b9450611826565b949350505050565b60006118a96006546001600160a01b031690565b6001600160a01b0316336001600160a01b031614905090565b600680546001600160a01b038381166001600160a01b0319831681179093556040519116919082907f8292fce18fa69edf4db7b94ea2e58241df0ae57f97e0a6c9b29067028bf92d7690600090a35050565b600b5460ff1615610943576daaeb6d7670e522a718067333cd4e3b1561094357604051633185c44d60e21b81523060048201526001600160a01b03821660248201526daaeb6d7670e522a718067333cd4e9063c617113490604401602060405180830381865afa15801561198c573d6000803e3d6000fd5b505050506040513d601f19601f820116820180604052508101906119b09190613847565b61094357604051633b79c77360e21b81526001600160a01b0382166004820152602401610931565b6001600160a01b038516331480611a1257506001600160a01b038516600090815260036020908152604080832033845290915290205460ff165b611a535760405162461bcd60e51b81526020600482015260126024820152710853d5d3915497d3d497d054141493d5915160721b6044820152606401610931565b611a6085858585856123e7565b5050505050565b600b805460ff19168215159081179091556040519081527f38475885990d8dfe9ca01f0ef160a1b5514426eab9ddbc953a3353410ba780969060200160405180910390a150565b6001600160a01b038416611ad45760405162461bcd60e51b815260040161093190613864565b33611af481600087611ae58861259a565b611aee8861259a565b876125e5565b6001600160a01b038516600090815260026020908152604080832087845290915281208054859290611b279084906137c0565b909155505060408051858152602081018590526001600160a01b0380881692600092918516917fc3d58168c5ae7397731d063d5bbf3d657854427343f4c083240f7aacaa2d0f62910160405180910390a4611a60816000878787876126f1565b612710811115611bcb5760405162461bcd60e51b815260206004820152600f60248201526e45786365656473206d61782062707360881b6044820152606401610931565b600780546001600160a01b0384166001600160b01b03199091168117600160a01b61ffff851602179091556040518281527f90d7ec04bcb8978719414f82e52e4cb651db41d0e6f8cea6118c2191e6183adb9060200160405180910390a25050565b6001600160a01b038316611c745760405162461bcd60e51b815260206004820152600e60248201526d232927a6afad22a927afa0a2222960911b6044820152606401610931565b8051825114611c955760405162461bcd60e51b815260040161093190613797565b6000339050611cb8818560008686604051806020016040528060008152506125e5565b60005b8351811015611d83576000848281518110611cd857611cd861360c565b602002602001015190506000848381518110611cf657611cf661360c565b6020908102919091018101516001600160a01b0389166000908152600283526040808220868352909352919091205490915081811015611d485760405162461bcd60e51b81526004016109319061388a565b6001600160a01b0388166000908152600260209081526040808320958352949052929092209103905580611d7b81613679565b915050611cbb565b5060006001600160a01b0316846001600160a01b0316826001600160a01b03167f4a39dc06d4c0dbc64b70af90fd698a233a518aa5d07e595d983b8c0526c8f7fb8686604051611dd49291906138b4565b60405180910390a450505050565b600060058054611df19061357b565b80601f0160208091040260200160405190810160405280929190818152602001828054611e1d9061357b565b8015611e6a5780601f10611e3f57610100808354040283529160200191611e6a565b820191906000526020600020905b815481529060010190602001808311611e4d57829003601f168201915b505050505090508160059081611e8091906136d8565b507fc9c7c3fe08b88b4df9d4d47ef47d2c43d55c025a0ba88ca442580ed9e7348a168183604051611eb29291906138e2565b60405180910390a15050565b600080611ecb84866137c0565b60098054600181019091557f6e1540171b6c0c960b71a7020d9f60077f6af931a8bbf590da0223dacf75c7af018190556000818152600a60205260409020909250829150611f1984826136d8565b50935093915050565b6001600160a01b038416611f485760405162461bcd60e51b815260040161093190613864565b8151835114611f695760405162461bcd60e51b815260040161093190613797565b33611f79816000878787876125e5565b60005b845181101561201557838181518110611f9757611f9761360c565b602002602001015160026000886001600160a01b03166001600160a01b031681526020019081526020016000206000878481518110611fd857611fd861360c565b602002602001015181526020019081526020016000206000828254611ffd91906137c0565b9091555081905061200d81613679565b915050611f7c565b50846001600160a01b031660006001600160a01b0316826001600160a01b03167f4a39dc06d4c0dbc64b70af90fd698a233a518aa5d07e595d983b8c0526c8f7fb87876040516120669291906138b4565b60405180910390a4611a6081600087878787612844565b6127108111156120c15760405162461bcd60e51b815260206004820152600f60248201526e45786365656473206d61782062707360881b6044820152606401610931565b6040805180820182526001600160a01b038481168083526020808401868152600089815260088352869020945185546001600160a01b031916941693909317845591516001909301929092559151838152909185917f7365cf4122f072a3365c20d54eff9b38d73c096c28e1892ec8f5b0e403a0f12d91015b60405180910390a3505050565b336001600160a01b03831681036121915760405162461bcd60e51b815260206004820152600e60248201526d20a8282927ab24a723afa9a2a62360911b6044820152606401610931565b6001600160a01b03818116600081815260036020908152604080832094881680845294825291829020805460ff191687151590811790915591519182527f17307eab39ab6107e8899845ad3d59bd9653f200f220920489ca2b5937696c31910161213a565b606061221b8383604051806060016040528060278152602001613a8960279139612921565b9392505050565b6000828152600460205260409020610db382826136d8565b6001600160a01b03851633148061227457506001600160a01b038516600090815260036020908152604080832033845290915290205460ff165b6122b55760405162461bcd60e51b81526020600482015260126024820152710853d5d3915497d3d497d054141493d5915160721b6044820152606401610931565b611a6085858585856129fe565b6001600160a01b0383166123095760405162461bcd60e51b815260206004820152600e60248201526d232927a6afad22a927afa0a2222960911b6044820152606401610931565b336123388185600061231a8761259a565b6123238761259a565b604051806020016040528060008152506125e5565b6001600160a01b03841660009081526002602090815260408083208684529091529020548281101561237c5760405162461bcd60e51b81526004016109319061388a565b6001600160a01b03858116600081815260026020908152604080832089845282528083208887039055805189815291820188905291938616917fc3d58168c5ae7397731d063d5bbf3d657854427343f4c083240f7aacaa2d0f62910160405180910390a45050505050565b81518351146124085760405162461bcd60e51b815260040161093190613797565b6001600160a01b03841661242e5760405162461bcd60e51b815260040161093190613864565b3361243d8187878787876125e5565b60005b845181101561253457600085828151811061245d5761245d61360c565b60200260200101519050600085838151811061247b5761247b61360c565b6020908102919091018101516001600160a01b038b1660009081526002835260408082208683529093529190912054909150818110156124cd5760405162461bcd60e51b81526004016109319061388a565b6001600160a01b03808b16600090815260026020818152604080842088855282528084208787039055938d168352908152828220868352905290812080548492906125199084906137c0565b925050819055505050508061252d90613679565b9050612440565b50846001600160a01b0316866001600160a01b0316826001600160a01b03167f4a39dc06d4c0dbc64b70af90fd698a233a518aa5d07e595d983b8c0526c8f7fb87876040516125849291906138b4565b60405180910390a4610b49818787878787612844565b604080516001808252818301909252606091600091906020808301908036833701905050905082816000815181106125d4576125d461360c565b602090810291909101015292915050565b6001600160a01b03851661266c5760005b835181101561266a578281815181106126115761261161360c565b6020026020010151600d600086848151811061262f5761262f61360c565b60200260200101518152602001908152602001600020600082825461265491906137c0565b90915550612663905081613679565b90506125f6565b505b6001600160a01b038416610b495760005b83518110156111ab578281815181106126985761269861360c565b6020026020010151600d60008684815181106126b6576126b661360c565b6020026020010151815260200190815260200160002060008282546126db9190613820565b909155506126ea905081613679565b905061267d565b6001600160a01b0384163b15610b495760405163f23a6e6160e01b81526001600160a01b0385169063f23a6e61906127359089908990889088908890600401613907565b6020604051808303816000875af1925050508015612770575060408051601f3d908101601f1916820190925261276d9181019061394c565b60015b6127f25761277c613969565b806308c379a0036127b55750612790613985565b8061279b57506127b7565b8060405162461bcd60e51b81526004016109319190612c26565b505b60405162461bcd60e51b815260206004820152601060248201526f10a2a92198989a9aa922a1a2a4ab22a960811b6044820152606401610931565b6001600160e01b0319811663f23a6e6160e01b146111ab5760405162461bcd60e51b815260206004820152600f60248201526e1513d2d15394d7d491529150d51151608a1b6044820152606401610931565b6001600160a01b0384163b15610b495760405163bc197c8160e01b81526001600160a01b0385169063bc197c81906128889089908990889088908890600401613a0e565b6020604051808303816000875af19250505080156128c3575060408051601f3d908101601f191682019092526128c09181019061394c565b60015b6128cf5761277c613969565b6001600160e01b0319811663bc197c8160e01b146111ab5760405162461bcd60e51b815260206004820152600f60248201526e1513d2d15394d7d491529150d51151608a1b6044820152606401610931565b60606001600160a01b0384163b6129895760405162461bcd60e51b815260206004820152602660248201527f416464726573733a2064656c65676174652063616c6c20746f206e6f6e2d636f6044820152651b9d1c9858dd60d21b6064820152608401610931565b600080856001600160a01b0316856040516129a49190613a6c565b600060405180830381855af49150503d80600081146129df576040519150601f19603f3d011682016040523d82523d6000602084013e6129e4565b606091505b50915091506129f4828286612b24565b9695505050505050565b6001600160a01b038416612a245760405162461bcd60e51b815260040161093190613864565b33612a34818787611ae58861259a565b6001600160a01b038616600090815260026020908152604080832087845290915290205483811015612a785760405162461bcd60e51b81526004016109319061388a565b6001600160a01b0380881660009081526002602081815260408084208a855282528084208987039055938a16835290815282822088835290529081208054869290612ac49084906137c0565b909155505060408051868152602081018690526001600160a01b03808916928a821692918616917fc3d58168c5ae7397731d063d5bbf3d657854427343f4c083240f7aacaa2d0f62910160405180910390a46111ab8288888888886126f1565b60608315612b3357508161221b565b825115612b435782518084602001fd5b8160405162461bcd60e51b81526004016109319190612c26565b80356001600160a01b0381168114612b7457600080fd5b919050565b60008060408385031215612b8c57600080fd5b612b9583612b5d565b946020939093013593505050565b6001600160e01b03198116811461094357600080fd5b600060208284031215612bcb57600080fd5b813561221b81612ba3565b60005b83811015612bf1578181015183820152602001612bd9565b50506000910152565b60008151808452612c12816020860160208601612bd6565b601f01601f19169290920160200192915050565b60208152600061221b6020830184612bfa565b600060208284031215612c4b57600080fd5b5035919050565b602081528151602082015260006020830151610160806040850152612c7b610180850183612bfa565b91506040850151612c90606086018215159052565b5060608501516080850152608085015160a085015260a085015160c085015260c085015160e085015260e0850151610100818187015280870151915050610120818187015280870151915050610140818187015280870151915050612cf88286018215159052565b5090949350505050565b600060208284031215612d1457600080fd5b61221b82612b5d565b60008060408385031215612d3057600080fd5b50508035926020909101359150565b634e487b7160e01b600052604160045260246000fd5b601f8201601f191681016001600160401b0381118282101715612d7a57612d7a612d3f565b6040525050565b600082601f830112612d9257600080fd5b81356001600160401b03811115612dab57612dab612d3f565b604051612dc2601f8301601f191660200182612d55565b818152846020838601011115612dd757600080fd5b816020850160208301376000918101602001919091529392505050565b801515811461094357600080fd5b8035612b7481612df4565b60008060008060008060008060008060006101608c8e031215612e2f57600080fd5b6001600160401b03808d351115612e4557600080fd5b612e528e8e358f01612d81565b9b5060208d01359a50612e6760408e01612e02565b995060608d0135985060808d0135975060a08d0135965060c08d0135955060e08d013594506101008d01359350612ea16101208e01612e02565b9250806101408e01351115612eb557600080fd5b50612ec78d6101408e01358e01612d81565b90509295989b509295989b9093969950565b60006001600160401b03821115612ef257612ef2612d3f565b5060051b60200190565b600082601f830112612f0d57600080fd5b81356020612f1a82612ed9565b604051612f278282612d55565b83815260059390931b8501820192828101915086841115612f4757600080fd5b8286015b84811015612f625780358352918301918301612f4b565b509695505050505050565b600080600080600060a08688031215612f8557600080fd5b612f8e86612b5d565b9450612f9c60208701612b5d565b935060408601356001600160401b0380821115612fb857600080fd5b612fc489838a01612efc565b94506060880135915080821115612fda57600080fd5b612fe689838a01612efc565b93506080880135915080821115612ffc57600080fd5b5061300988828901612d81565b9150509295509295909350565b60006020828403121561302857600080fd5b813561221b81612df4565b6000806040838503121561304657600080fd5b82356001600160401b038082111561305d57600080fd5b818501915085601f83011261307157600080fd5b8135602061307e82612ed9565b60405161308b8282612d55565b83815260059390931b85018201928281019150898411156130ab57600080fd5b948201945b838610156130d0576130c186612b5d565b825294820194908201906130b0565b965050860135925050808211156130e657600080fd5b506130f385828601612efc565b9150509250929050565b600081518084526020808501945080840160005b8381101561312d57815187529582019590820190600101613111565b509495945050505050565b60208152600061221b60208301846130fd565b6000806040838503121561315e57600080fd5b8235915061316e60208401612b5d565b90509250929050565b60008060006060848603121561318c57600080fd5b61319584612b5d565b925060208401356001600160401b03808211156131b157600080fd5b6131bd87838801612efc565b935060408601359150808211156131d357600080fd5b506131e086828701612efc565b9150509250925092565b6000602082840312156131fc57600080fd5b81356001600160401b0381111561321257600080fd5b61188d84828501612d81565b6000806000806080858703121561323457600080fd5b61323d85612b5d565b935060208501356001600160401b038082111561325957600080fd5b61326588838901612efc565b9450604087013591508082111561327b57600080fd5b61328788838901612efc565b9350606087013591508082111561329d57600080fd5b506132aa87828801612d81565b91505092959194509250565b6000806000606084860312156132cb57600080fd5b833592506132db60208501612b5d565b9150604084013590509250925092565b600080604083850312156132fe57600080fd5b61330783612b5d565b9150602083013561331781612df4565b809150509250929050565b6000806020838503121561333557600080fd5b82356001600160401b038082111561334c57600080fd5b818501915085601f83011261336057600080fd5b81358181111561336f57600080fd5b8660208260051b850101111561338457600080fd5b60209290920196919550909350505050565b6000602080830181845280855180835260408601915060408160051b870101925083870160005b828110156133eb57603f198886030184526133d9858351612bfa565b945092850192908501906001016133bd565b5092979650505050505050565b6000806000806080858703121561340e57600080fd5b61341785612b5d565b93506020850135925060408501356001600160401b0381111561343957600080fd5b61344587828801612d81565b949793965093946060013593505050565b60006101608d83528060208401526134708184018e612bfa565b9b1515604084015250506060810198909852608088019690965260a087019490945260c086019290925260e085015261010084015261012083015215156101409091015292915050565b600080604083850312156134cd57600080fd5b6134d683612b5d565b915061316e60208401612b5d565b600080600080600060a086880312156134fc57600080fd5b61350586612b5d565b945061351360208701612b5d565b9350604086013592506060860135915060808601356001600160401b0381111561353c57600080fd5b61300988828901612d81565b60008060006060848603121561355d57600080fd5b61356684612b5d565b95602085013595506040909401359392505050565b600181811c9082168061358f57607f821691505b6020821081036135af57634e487b7160e01b600052602260045260246000fd5b50919050565b600083516135c7818460208801612bd6565b8351908301906135db818360208801612bd6565b01949350505050565b6020808252600e908201526d139bdd08185d5d1a1bdc9a5e995960921b604082015260600190565b634e487b7160e01b600052603260045260246000fd5b634e487b7160e01b600052601160045260246000fd5b808202811582820484141761060057610600613622565b634e487b7160e01b600052601260045260246000fd5b6000826136745761367461364f565b500490565b60006001820161368b5761368b613622565b5060010190565b601f821115610db357600081815260208120601f850160051c810160208610156136b95750805b601f850160051c820191505b81811015610b49578281556001016136c5565b81516001600160401b038111156136f1576136f1612d3f565b613705816136ff845461357b565b84613692565b602080601f83116001811461373a57600084156137225750858301515b600019600386901b1c1916600185901b178555610b49565b600085815260208120601f198616915b828110156137695788860151825594840194600190910190840161374a565b50858210156137875787850151600019600388901b60f8161c191681555b5050505050600190811b01905550565b6020808252600f908201526e0988a9c8ea890be9a92a69a82a8869608b1b604082015260600190565b8082018082111561060057610600613622565b6000808335601e198436030181126137ea57600080fd5b8301803591506001600160401b0382111561380457600080fd5b60200191503681900382131561381957600080fd5b9250929050565b8181038181111561060057610600613622565b6000826138425761384261364f565b500690565b60006020828403121561385957600080fd5b815161221b81612df4565b6020808252600c908201526b2a27afad22a927afa0a2222960a11b604082015260600190565b60208082526010908201526f125394d551919250d251539517d0905360821b604082015260600190565b6040815260006138c760408301856130fd565b82810360208401526138d981856130fd565b95945050505050565b6040815260006138f56040830185612bfa565b82810360208401526138d98185612bfa565b6001600160a01b03868116825285166020820152604081018490526060810183905260a06080820181905260009061394190830184612bfa565b979650505050505050565b60006020828403121561395e57600080fd5b815161221b81612ba3565b600060033d11156139825760046000803e5060005160e01c5b90565b600060443d10156139935790565b6040516003193d81016004833e81513d6001600160401b0381602484011181841117156139c257505050505090565b82850191508151818111156139da5750505050505090565b843d87010160208285010111156139f45750505050505090565b613a0360208286010187612d55565b509095945050505050565b6001600160a01b0386811682528516602082015260a060408201819052600090613a3a908301866130fd565b8281036060840152613a4c81866130fd565b90508281036080840152613a608185612bfa565b98975050505050505050565b60008251613a7e818460208701612bd6565b919091019291505056fe416464726573733a206c6f772d6c6576656c2064656c65676174652063616c6c206661696c6564a2646970667358221220598fe6990647724b52231d627e9cac88a6b4249bee83659dcc24548c41815c6e64736f6c63430008110033",
  "linkReferences": {},
  "deployedLinkReferences": {}
}