{
  "_format": "hh-sol-artifact-1",
  "contractName": "BattleItems",
  "sourceName": "contracts/BattleItems.sol",
  "abi": [
    {
      "inputs": [],
      "stateMutability": "nonpayable",
      "type": "constructor"
    },
    {
      "inputs": [
        {
          "internalType": "address",
          "name": "operator",
          "type": "address"
        }
      ],
      "name": "OperatorNotAllowed",
      "type": "error"
    },
    {
      "anonymous": false,
      "inputs": [
        {
          "indexed": true,
          "internalType": "address",
          "name": "_owner",
          "type": "address"
        },
        {
          "indexed": true,
          "internalType": "address",
          "name": "_operator",
          "type": "address"
        },
        {
          "indexed": false,
          "internalType": "bool",
          "name": "_approved",
          "type": "bool"
        }
      ],
      "name": "ApprovalForAll",
      "type": "event"
    },
    {
      "anonymous": false,
      "inputs": [
        {
          "indexed": false,
          "internalType": "string",
          "name": "prevURI",
          "type": "string"
        },
        {
          "indexed": false,
          "internalType": "string",
          "name": "newURI",
          "type": "string"
        }
      ],
      "name": "ContractURIUpdated",
      "type": "event"
    },
    {
      "anonymous": false,
      "inputs": [
        {
          "indexed": true,
          "internalType": "address",
          "name": "newRoyaltyRecipient",
          "type": "address"
        },
        {
          "indexed": false,
          "internalType": "uint256",
          "name": "newRoyaltyBps",
          "type": "uint256"
        }
      ],
      "name": "DefaultRoyalty",
      "type": "event"
    },
    {
      "anonymous": false,
      "inputs": [
        {
          "indexed": false,
          "internalType": "bool",
          "name": "restriction",
          "type": "bool"
        }
      ],
      "name": "OperatorRestriction",
      "type": "event"
    },
    {
      "anonymous": false,
      "inputs": [
        {
          "indexed": true,
          "internalType": "address",
          "name": "prevOwner",
          "type": "address"
        },
        {
          "indexed": true,
          "internalType": "address",
          "name": "newOwner",
          "type": "address"
        }
      ],
      "name": "OwnerUpdated",
      "type": "event"
    },
    {
      "anonymous": false,
      "inputs": [
        {
          "indexed": true,
          "internalType": "uint256",
          "name": "tokenId",
          "type": "uint256"
        },
        {
          "indexed": true,
          "internalType": "address",
          "name": "royaltyRecipient",
          "type": "address"
        },
        {
          "indexed": false,
          "internalType": "uint256",
          "name": "royaltyBps",
          "type": "uint256"
        }
      ],
      "name": "RoyaltyForToken",
      "type": "event"
    },
    {
      "anonymous": false,
      "inputs": [
        {
          "indexed": true,
          "internalType": "address",
          "name": "_operator",
          "type": "address"
        },
        {
          "indexed": true,
          "internalType": "address",
          "name": "_from",
          "type": "address"
        },
        {
          "indexed": true,
          "internalType": "address",
          "name": "_to",
          "type": "address"
        },
        {
          "indexed": false,
          "internalType": "uint256[]",
          "name": "_ids",
          "type": "uint256[]"
        },
        {
          "indexed": false,
          "internalType": "uint256[]",
          "name": "_values",
          "type": "uint256[]"
        }
      ],
      "name": "TransferBatch",
      "type": "event"
    },
    {
      "anonymous": false,
      "inputs": [
        {
          "indexed": true,
          "internalType": "address",
          "name": "_operator",
          "type": "address"
        },
        {
          "indexed": true,
          "internalType": "address",
          "name": "_from",
          "type": "address"
        },
        {
          "indexed": true,
          "internalType": "address",
          "name": "_to",
          "type": "address"
        },
        {
          "indexed": false,
          "internalType": "uint256",
          "name": "_id",
          "type": "uint256"
        },
        {
          "indexed": false,
          "internalType": "uint256",
          "name": "_value",
          "type": "uint256"
        }
      ],
      "name": "TransferSingle",
      "type": "event"
    },
    {
      "anonymous": false,
      "inputs": [
        {
          "indexed": false,
          "internalType": "string",
          "name": "_value",
          "type": "string"
        },
        {
          "indexed": true,
          "internalType": "uint256",
          "name": "_id",
          "type": "uint256"
        }
      ],
      "name": "URI",
      "type": "event"
    },
    {
      "inputs": [],
      "name": "OPERATOR_FILTER_REGISTRY",
      "outputs": [
        {
          "internalType": "contract IOperatorFilterRegistry",
          "name": "",
          "type": "address"
        }
      ],
      "stateMutability": "view",
      "type": "function"
    },
    {
      "inputs": [
        {
          "internalType": "address",
          "name": "",
          "type": "address"
        },
        {
          "internalType": "uint256",
          "name": "",
          "type": "uint256"
        }
      ],
      "name": "balanceOf",
      "outputs": [
        {
          "internalType": "uint256",
          "name": "",
          "type": "uint256"
        }
      ],
      "stateMutability": "view",
      "type": "function"
    },
    {
      "inputs": [
        {
          "internalType": "address[]",
          "name": "accounts",
          "type": "address[]"
        },
        {
          "internalType": "uint256[]",
          "name": "ids",
          "type": "uint256[]"
        }
      ],
      "name": "balanceOfBatch",
      "outputs": [
        {
          "internalType": "uint256[]",
          "name": "",
          "type": "uint256[]"
        }
      ],
      "stateMutability": "view",
      "type": "function"
    },
    {
      "inputs": [
        {
          "internalType": "address",
          "name": "_to",
          "type": "address"
        },
        {
          "internalType": "uint256[]",
          "name": "_tokenIds",
          "type": "uint256[]"
        },
        {
          "internalType": "uint256[]",
          "name": "_amounts",
          "type": "uint256[]"
        },
        {
          "internalType": "string",
          "name": "_baseURI",
          "type": "string"
        }
      ],
      "name": "batchMintTo",
      "outputs": [],
      "stateMutability": "nonpayable",
      "type": "function"
    },
    {
      "inputs": [
        {
          "internalType": "address",
          "name": "_owner",
          "type": "address"
        },
        {
          "internalType": "uint256",
          "name": "_tokenId",
          "type": "uint256"
        },
        {
          "internalType": "uint256",
          "name": "_amount",
          "type": "uint256"
        }
      ],
      "name": "burn",
      "outputs": [],
      "stateMutability": "nonpayable",
      "type": "function"
    },
    {
      "inputs": [
        {
          "internalType": "address",
          "name": "_owner",
          "type": "address"
        },
        {
          "internalType": "uint256[]",
          "name": "_tokenIds",
          "type": "uint256[]"
        },
        {
          "internalType": "uint256[]",
          "name": "_amounts",
          "type": "uint256[]"
        }
      ],
      "name": "burnBatch",
      "outputs": [],
      "stateMutability": "nonpayable",
      "type": "function"
    },
    {
      "inputs": [],
      "name": "contractURI",
      "outputs": [
        {
          "internalType": "string",
          "name": "",
          "type": "string"
        }
      ],
      "stateMutability": "view",
      "type": "function"
    },
    {
      "inputs": [
        {
          "internalType": "string",
          "name": "_name",
          "type": "string"
        },
        {
          "internalType": "uint256",
          "name": "_attack",
          "type": "uint256"
        },
        {
          "internalType": "uint256",
          "name": "_defense",
          "type": "uint256"
        },
        {
          "internalType": "uint256",
          "name": "_health",
          "type": "uint256"
        },
        {
          "internalType": "uint256",
          "name": "_skill",
          "type": "uint256"
        },
        {
          "internalType": "string",
          "name": "_tokenURI",
          "type": "string"
        }
      ],
      "name": "createItem",
      "outputs": [],
      "stateMutability": "nonpayable",
      "type": "function"
    },
    {
      "inputs": [],
      "name": "getBaseURICount",
      "outputs": [
        {
          "internalType": "uint256",
          "name": "",
          "type": "uint256"
        }
      ],
      "stateMutability": "view",
      "type": "function"
    },
    {
      "inputs": [
        {
          "internalType": "uint256",
          "name": "_index",
          "type": "uint256"
        }
      ],
      "name": "getBatchIdAtIndex",
      "outputs": [
        {
          "internalType": "uint256",
          "name": "",
          "type": "uint256"
        }
      ],
      "stateMutability": "view",
      "type": "function"
    },
    {
      "inputs": [],
      "name": "getDefaultRoyaltyInfo",
      "outputs": [
        {
          "internalType": "address",
          "name": "",
          "type": "address"
        },
        {
          "internalType": "uint16",
          "name": "",
          "type": "uint16"
        }
      ],
      "stateMutability": "view",
      "type": "function"
    },
    {
      "inputs": [
        {
          "internalType": "uint256",
          "name": "_itemId",
          "type": "uint256"
        }
      ],
      "name": "getItem",
      "outputs": [
        {
          "components": [
            {
              "internalType": "string",
              "name": "name",
              "type": "string"
            },
            {
              "internalType": "uint256",
              "name": "attack",
              "type": "uint256"
            },
            {
              "internalType": "uint256",
              "name": "defense",
              "type": "uint256"
            },
            {
              "internalType": "uint256",
              "name": "health",
              "type": "uint256"
            },
            {
              "internalType": "uint256",
              "name": "skill",
              "type": "uint256"
            }
          ],
          "internalType": "struct BattleItems.Item",
          "name": "",
          "type": "tuple"
        }
      ],
      "stateMutability": "view",
      "type": "function"
    },
    {
      "inputs": [],
      "name": "getRandomItem",
      "outputs": [
        {
          "internalType": "uint256",
          "name": "",
          "type": "uint256"
        }
      ],
      "stateMutability": "view",
      "type": "function"
    },
    {
      "inputs": [
        {
          "internalType": "uint256",
          "name": "_tokenId",
          "type": "uint256"
        }
      ],
      "name": "getRoyaltyInfoForToken",
      "outputs": [
        {
          "internalType": "address",
          "name": "",
          "type": "address"
        },
        {
          "internalType": "uint16",
          "name": "",
          "type": "uint16"
        }
      ],
      "stateMutability": "view",
      "type": "function"
    },
    {
      "inputs": [
        {
          "internalType": "address",
          "name": "",
          "type": "address"
        },
        {
          "internalType": "address",
          "name": "",
          "type": "address"
        }
      ],
      "name": "isApprovedForAll",
      "outputs": [
        {
          "internalType": "bool",
          "name": "",
          "type": "bool"
        }
      ],
      "stateMutability": "view",
      "type": "function"
    },
    {
      "inputs": [
        {
          "internalType": "uint256",
          "name": "",
          "type": "uint256"
        }
      ],
      "name": "items",
      "outputs": [
        {
          "internalType": "string",
          "name": "name",
          "type": "string"
        },
        {
          "internalType": "uint256",
          "name": "attack",
          "type": "uint256"
        },
        {
          "internalType": "uint256",
          "name": "defense",
          "type": "uint256"
        },
        {
          "internalType": "uint256",
          "name": "health",
          "type": "uint256"
        },
        {
          "internalType": "uint256",
          "name": "skill",
          "type": "uint256"
        }
      ],
      "stateMutability": "view",
      "type": "function"
    },
    {
      "inputs": [
        {
          "internalType": "uint256",
          "name": "_itemId",
          "type": "uint256"
        }
      ],
      "name": "mintItem",
      "outputs": [],
      "stateMutability": "nonpayable",
      "type": "function"
    },
    {
      "inputs": [
        {
          "internalType": "address",
          "name": "_to",
          "type": "address"
        },
        {
          "internalType": "uint256",
          "name": "_tokenId",
          "type": "uint256"
        },
        {
          "internalType": "string",
          "name": "_tokenURI",
          "type": "string"
        },
        {
          "internalType": "uint256",
          "name": "_amount",
          "type": "uint256"
        }
      ],
      "name": "mintTo",
      "outputs": [],
      "stateMutability": "nonpayable",
      "type": "function"
    },
    {
      "inputs": [
        {
          "internalType": "bytes[]",
          "name": "data",
          "type": "bytes[]"
        }
      ],
      "name": "multicall",
      "outputs": [
        {
          "internalType": "bytes[]",
          "name": "results",
          "type": "bytes[]"
        }
      ],
      "stateMutability": "nonpayable",
      "type": "function"
    },
    {
      "inputs": [],
      "name": "name",
      "outputs": [
        {
          "internalType": "string",
          "name": "",
          "type": "string"
        }
      ],
      "stateMutability": "view",
      "type": "function"
    },
    {
      "inputs": [],
      "name": "nextTokenIdToMint",
      "outputs": [
        {
          "internalType": "uint256",
          "name": "",
          "type": "uint256"
        }
      ],
      "stateMutability": "view",
      "type": "function"
    },
    {
      "inputs": [],
      "name": "numItems",
      "outputs": [
        {
          "internalType": "uint256",
          "name": "",
          "type": "uint256"
        }
      ],
      "stateMutability": "view",
      "type": "function"
    },
    {
      "inputs": [],
      "name": "operatorRestriction",
      "outputs": [
        {
          "internalType": "bool",
          "name": "",
          "type": "bool"
        }
      ],
      "stateMutability": "view",
      "type": "function"
    },
    {
      "inputs": [],
      "name": "owner",
      "outputs": [
        {
          "internalType": "address",
          "name": "",
          "type": "address"
        }
      ],
      "stateMutability": "view",
      "type": "function"
    },
    {
      "inputs": [
        {
          "internalType": "uint256",
          "name": "tokenId",
          "type": "uint256"
        },
        {
          "internalType": "uint256",
          "name": "salePrice",
          "type": "uint256"
        }
      ],
      "name": "royaltyInfo",
      "outputs": [
        {
          "internalType": "address",
          "name": "receiver",
          "type": "address"
        },
        {
          "internalType": "uint256",
          "name": "royaltyAmount",
          "type": "uint256"
        }
      ],
      "stateMutability": "view",
      "type": "function"
    },
    {
      "inputs": [
        {
          "internalType": "address",
          "name": "from",
          "type": "address"
        },
        {
          "internalType": "address",
          "name": "to",
          "type": "address"
        },
        {
          "internalType": "uint256[]",
          "name": "ids",
          "type": "uint256[]"
        },
        {
          "internalType": "uint256[]",
          "name": "amounts",
          "type": "uint256[]"
        },
        {
          "internalType": "bytes",
          "name": "data",
          "type": "bytes"
        }
      ],
      "name": "safeBatchTransferFrom",
      "outputs": [],
      "stateMutability": "nonpayable",
      "type": "function"
    },
    {
      "inputs": [
        {
          "internalType": "address",
          "name": "from",
          "type": "address"
        },
        {
          "internalType": "address",
          "name": "to",
          "type": "address"
        },
        {
          "internalType": "uint256",
          "name": "id",
          "type": "uint256"
        },
        {
          "internalType": "uint256",
          "name": "amount",
          "type": "uint256"
        },
        {
          "internalType": "bytes",
          "name": "data",
          "type": "bytes"
        }
      ],
      "name": "safeTransferFrom",
      "outputs": [],
      "stateMutability": "nonpayable",
      "type": "function"
    },
    {
      "inputs": [
        {
          "internalType": "address",
          "name": "operator",
          "type": "address"
        },
        {
          "internalType": "bool",
          "name": "approved",
          "type": "bool"
        }
      ],
      "name": "setApprovalForAll",
      "outputs": [],
      "stateMutability": "nonpayable",
      "type": "function"
    },
    {
      "inputs": [
        {
          "internalType": "string",
          "name": "_uri",
          "type": "string"
        }
      ],
      "name": "setContractURI",
      "outputs": [],
      "stateMutability": "nonpayable",
      "type": "function"
    },
    {
      "inputs": [
        {
          "internalType": "address",
          "name": "_royaltyRecipient",
          "type": "address"
        },
        {
          "internalType": "uint256",
          "name": "_royaltyBps",
          "type": "uint256"
        }
      ],
      "name": "setDefaultRoyaltyInfo",
      "outputs": [],
      "stateMutability": "nonpayable",
      "type": "function"
    },
    {
      "inputs": [
        {
          "internalType": "bool",
          "name": "_restriction",
          "type": "bool"
        }
      ],
      "name": "setOperatorRestriction",
      "outputs": [],
      "stateMutability": "nonpayable",
      "type": "function"
    },
    {
      "inputs": [
        {
          "internalType": "address",
          "name": "_newOwner",
          "type": "address"
        }
      ],
      "name": "setOwner",
      "outputs": [],
      "stateMutability": "nonpayable",
      "type": "function"
    },
    {
      "inputs": [
        {
          "internalType": "uint256",
          "name": "_tokenId",
          "type": "uint256"
        },
        {
          "internalType": "address",
          "name": "_recipient",
          "type": "address"
        },
        {
          "internalType": "uint256",
          "name": "_bps",
          "type": "uint256"
        }
      ],
      "name": "setRoyaltyInfoForToken",
      "outputs": [],
      "stateMutability": "nonpayable",
      "type": "function"
    },
    {
      "inputs": [
        {
          "internalType": "bytes4",
          "name": "interfaceId",
          "type": "bytes4"
        }
      ],
      "name": "supportsInterface",
      "outputs": [
        {
          "internalType": "bool",
          "name": "",
          "type": "bool"
        }
      ],
      "stateMutability": "view",
      "type": "function"
    },
    {
      "inputs": [],
      "name": "symbol",
      "outputs": [
        {
          "internalType": "string",
          "name": "",
          "type": "string"
        }
      ],
      "stateMutability": "view",
      "type": "function"
    },
    {
      "inputs": [
        {
          "internalType": "uint256",
          "name": "",
          "type": "uint256"
        }
      ],
      "name": "tokenIdToItemId",
      "outputs": [
        {
          "internalType": "uint256",
          "name": "",
          "type": "uint256"
        }
      ],
      "stateMutability": "view",
      "type": "function"
    },
    {
      "inputs": [
        {
          "internalType": "uint256",
          "name": "",
          "type": "uint256"
        }
      ],
      "name": "totalSupply",
      "outputs": [
        {
          "internalType": "uint256",
          "name": "",
          "type": "uint256"
        }
      ],
      "stateMutability": "view",
      "type": "function"
    },
    {
      "inputs": [
        {
          "internalType": "uint256",
          "name": "_itemId",
          "type": "uint256"
        },
        {
          "internalType": "string",
          "name": "_name",
          "type": "string"
        },
        {
          "internalType": "uint256",
          "name": "_attack",
          "type": "uint256"
        },
        {
          "internalType": "uint256",
          "name": "_defense",
          "type": "uint256"
        },
        {
          "internalType": "uint256",
          "name": "_health",
          "type": "uint256"
        },
        {
          "internalType": "uint256",
          "name": "_skill",
          "type": "uint256"
        }
      ],
      "name": "updateItem",
      "outputs": [],
      "stateMutability": "nonpayable",
      "type": "function"
    },
    {
      "inputs": [
        {
          "internalType": "uint256",
          "name": "_tokenId",
          "type": "uint256"
        }
      ],
      "name": "uri",
      "outputs": [
        {
          "internalType": "string",
          "name": "",
          "type": "string"
        }
      ],
      "stateMutability": "view",
      "type": "function"
    }
  ],
  "bytecode": "0x60806040818152346200044f576000916200001a8162000454565b600c81526020906b125d195b50dbdb9d1c9858dd60a21b82820152825193620000438562000454565b6002855261494360f01b8386015281516001600160401b0395908681116200043b578254906001948583811c9316801562000430575b878410146200033a578190601f93848111620003dd575b508790848311600114620003795786926200036d575b5050600019600383901b1c191690851b1783555b815191878311620003595784548581811c911680156200034e575b878210146200033a5790818385949311620002e5575b50869183116001146200028157849262000275575b5050600019600383901b1c191690831b1782555b6daaeb6d7670e522a718067333cd4e94853b620001dd575b5060068054336001600160a01b0319821681179092558551959650600080516020620040d0833981519152957f90d7ec04bcb8978719414f82e52e4cb651db41d0e6f8cea6118c2191e6183adb9286926001600160a01b03167f8292fce18fa69edf4db7b94ea2e58241df0ae57f97e0a6c9b29067028bf92d768684a3600780546001600160b01b0319169055838152a28060ff19600b541617600b558351908152a151613c499081620004878239f35b8582963b15620002715782906044875180958193633e9f1edf60e11b8352306004840152733cc6cdda760b79bafa08df41ecfa224f810dceb660248401525af18015620002675762000233575b8591506200012c565b811162000253578352600080516020620040d0833981519152386200022a565b634e487b7160e01b85526041600452602485fd5b85513d88823e3d90fd5b8280fd5b01519050388062000100565b8585528685208694509190601f198416865b89828210620002ce5750508411620002b4575b505050811b01825562000114565b015160001960f88460031b161c19169055388080620002a6565b838501518655899790950194938401930162000293565b909192508585528685208380860160051c82019289871062000330575b91869589929594930160051c01915b82811062000321575050620000eb565b87815586955088910162000311565b9250819262000302565b634e487b7160e01b85526022600452602485fd5b90607f1690620000d5565b634e487b7160e01b84526041600452602484fd5b015190503880620000a6565b8680528887208894509190601f198416885b8b828210620003c65750508411620003ac575b505050811b018355620000ba565b015160001960f88460031b161c191690553880806200039e565b8385015186558b979095019493840193016200038b565b9091508580528786208480850160051c8201928a861062000426575b918991869594930160051c01915b8281106200041757505062000090565b88815585945089910162000407565b92508192620003f9565b92607f169262000079565b634e487b7160e01b83526041600452602483fd5b600080fd5b604081019081106001600160401b038211176200047057604052565b634e487b7160e01b600052604160045260246000fdfe60806040526004361015610013575b600080fd5b60003560e01c8062fdd58e1461031e57806301ffc9a71461031557806306fdde031461030c5780630e89341c1461030357806313af4035146102fa57806317fb8594146102f15780632419f51b146102e85780632a55205a146102df5780632eb2c2d6146102d65780633129e773146102cd57806332f0cd64146102c457806337f4be6b146102bb5780633b1475a7146102b257806341f43434146102a95780634cc157df146102a05780634e1273f414610297578063504c6e011461028e5780635bfadae414610285578063600dd5ea1461027c57806363b45e2d14610273578063667837fc1461026a5780636b20c454146102615780638da5cb5b14610258578063938e3d7b1461024f578063949c09f71461024657806395d89b411461023d5780639bcf7a1514610234578063a22cb4651461022b578063ac9650d814610222578063b03f452814610219578063b24f2d3914610210578063b4e603c614610207578063bd85b039146101fe578063bfb231d2146101f5578063d13d8a6a146101ec578063e8a3d485146101e3578063e985e9c5146101da578063f242432a146101d15763f5298aca146101c957600080fd5b61000e61225c565b5061000e612084565b5061000e612026565b5061000e611f93565b5061000e611e00565b5061000e611d8d565b5061000e611d60565b5061000e611b41565b5061000e611b0a565b5061000e611974565b5061000e61190e565b5061000e6117c1565b5061000e6116f6565b5061000e611670565b5061000e61152c565b5061000e6113ae565b5061000e611384565b5061000e61127f565b5061000e61120e565b5061000e6111ef565b5061000e611125565b5061000e611106565b5061000e6110e2565b5061000e611028565b5061000e610fa5565b5061000e610f7b565b5061000e610f5c565b5061000e610f2f565b5061000e610e68565b5061000e610dca565b5061000e610bf8565b5061000e610a89565b5061000e610a02565b5061000e61089d565b5061000e6107ef565b5061000e6107bb565b5061000e6106f9565b5061000e6103dc565b5061000e610381565b600435906001600160a01b038216820361000e57565b602435906001600160a01b038216820361000e57565b35906001600160a01b038216820361000e57565b6001600160a01b0316600090815260026020526040902090565b503461000e57604036600319011261000e576001600160a01b036103a3610327565b16600052600260205260406000206024356000526020526020604060002054604051908152f35b6001600160e01b031981160361000e57565b503461000e57602036600319011261000e5760206004356103fc816103ca565b63ffffffff60e01b166301ffc9a760e01b8114908115610452575b8115610441575b8115610430575b506040519015158152f35b63152a902d60e11b14905038610425565b6303a24d0760e21b8114915061041e565b636cdb3d1360e11b81149150610417565b90600182811c92168015610493575b602083101461047d57565b634e487b7160e01b600052602260045260246000fd5b91607f1691610472565b50634e487b7160e01b600052604160045260246000fd5b60a081019081106001600160401b038211176104cf57604052565b6104d761049d565b604052565b604081019081106001600160401b038211176104cf57604052565b602081019081106001600160401b038211176104cf57604052565b606081019081106001600160401b038211176104cf57604052565b90601f801991011681019081106001600160401b038211176104cf57604052565b604051906000826005549161056283610463565b8083526001938085169081156105d8575060011461058a575b506105889250038361052d565b565b60056000908152600080516020613bf483398151915294602093509091905b8183106105c057505061058893508201013861057b565b855488840185015294850194879450918301916105a9565b905061058894506020925060ff191682840152151560051b8201013861057b565b906040519182600082549261060d84610463565b90818452600194858116908160001461067a5750600114610637575b50506105889250038361052d565b9093915060005260209081600020936000915b81831061066257505061058893508201013880610629565b8554888401850152948501948794509183019161064a565b91505061058894506020925060ff191682840152151560051b8201013880610629565b60005b8381106106b05750506000910152565b81810151838201526020016106a0565b906020916106d98151809281855285808601910161069d565b601f01601f1916010190565b9060206106f69281815201906106c0565b90565b503461000e576000806003193601126107b85760405181805461071b81610463565b808452906001908181169081156107905750600114610755575b610751846107458188038261052d565b604051918291826106e5565b0390f35b93508180526020938483205b82841061077d5750505081610751936107459282010193610735565b8054858501870152928501928101610761565b61075196506107459450602092508593915060ff191682840152151560051b82010193610735565b80fd5b503461000e57602036600319011261000e576107516107db6004356123d1565b6040519182916020835260208301906106c0565b503461000e57602036600319011261000e57610809610327565b6006546001600160a01b03808216919033839003610863576001600160a01b0319909116921691821760065560405160009290917f8292fce18fa69edf4db7b94ea2e58241df0ae57f97e0a6c9b29067028bf92d768484a3f35b60405162461bcd60e51b815260206004820152600e60248201526d139bdd08185d5d1a1bdc9a5e995960921b6044820152606490fd5b0390fd5b503461000e57602036600319011261000e576004356108c0600f54821115613b71565b6040516108cc816104f7565b6000918282523315916108df83156127df565b6108e882613395565b916108f1613363565b91855b8451811015610941578061090b61093c92866125b7565b5161093561092d61091c848a6125b7565b51600052600d602052604060002090565b9182546124fe565b90556126db565b6108f4565b509290936109b7575b50506109a59061096c8361095d33610367565b90600052602052604060002090565b61097681546124da565b90556040805184815260016020820152339186918391600080516020613bd483398151915291a4823333612f92565b80825260106020526040822055604051f35b91928491945b83518110156109f257806109d46109ed92886125b7565b516109356109e561091c84896125b7565b918254612859565b6109bd565b509093509190506109a53861094a565b503461000e57602036600319011261000e57600435600954811015610a545760096000527f6e1540171b6c0c960b71a7020d9f60077f6af931a8bbf590da0223dacf75c7af0154604051908152602090f35b60405162461bcd60e51b815260206004820152600d60248201526c092dcecc2d8d2c840d2dcc8caf609b1b6044820152606490fd5b503461000e57604036600319011261000e57604061ffff612710602435610ab16004356137c9565b90931690801515600019829004831116610ade575b84516001600160a01b03909416845202046020820152f35b610ae66124c3565b610ac6565b60405190610588826104b4565b6020906001600160401b038111610b11575b60051b0190565b610b1961049d565b610b0a565b81601f8201121561000e57803591610b3583610af8565b92610b43604051948561052d565b808452602092838086019260051b82010192831161000e578301905b828210610b6d575050505090565b81358152908301908301610b5f565b6020906001600160401b038111610b99575b601f01601f19160190565b610ba161049d565b610b8e565b929192610bb282610b7c565b91610bc0604051938461052d565b82948184528183011161000e578281602093846000960137010152565b9080601f8301121561000e578160206106f693359101610ba6565b503461000e5760a036600319011261000e57610c12610327565b610c1a61033d565b6001600160401b039160443583811161000e57610c3b903690600401610b1e565b9260643581811161000e57610c54903690600401610b1e565b9060843590811161000e57610c6d903690600401610bdd565b6001600160a01b0383811694919033861480159081610d79575b90610d56575b610c969061279e565b610ca3875185511461269d565b8216610cb08115156127df565b610cbc84888588612866565b60005b8751811015610d225780610cd6610d1d928a6125b7565b5161093561092d610ce7848a6125b7565b51928a610d138261095d87610cff8361095d87610367565b54610d0c8282101561281a565b0393610367565b5561095d89610367565b610cbf565b50610d549693949195604051600080516020613bb4833981519152339180610d4b8a8a836128f6565b0390a433613329565b005b50600086815260036020908152604080832033845290915290205460ff16610c8d565b610d82336136fd565b610c87565b6020815260a06080610da4845183602086015260c08501906106c0565b936020810151604085015260408101516060850152606081015182850152015191015290565b503461000e57602036600319011261000e5761075160408060808151610def816104b4565b606081526000918183602081940152828582015282606082015201526004358152600e60205220906004815192610e25846104b4565b610e2e816105f9565b84526001810154602085015260028101548385015260038101546060850152015460808301525191829182610d87565b8015150361000e57565b503461000e57602036600319011261000e57600435610e8681610e5e565b6006546001600160a01b03163303610ed65760207f38475885990d8dfe9ca01f0ef160a1b5514426eab9ddbc953a3353410ba7809691151560ff19600b541660ff821617600b55604051908152a1005b60405162461bcd60e51b815260206004820152602b60248201527f4e6f7420617574686f72697a656420746f20736574206f70657261746f72207260448201526a32b9ba3934b1ba34b7b71760a91b6064820152608490fd5b503461000e57602036600319011261000e5760043560005260106020526020604060002054604051908152f35b503461000e57600036600319011261000e576020600c54604051908152f35b503461000e57600036600319011261000e5760206040516daaeb6d7670e522a718067333cd4e8152f35b503461000e57602036600319011261000e57610fc26004356137c9565b604080516001600160a01b0393909316835261ffff91909116602083015290f35b90815180825260208080930193019160005b828110611003575050505090565b835185529381019392810192600101610ff5565b9060206106f6928181520190610fe3565b503461000e57604036600319011261000e576004356001600160401b0380821161000e573660238301121561000e57816004013561106581610af8565b92611073604051948561052d565b81845260209160248386019160051b8301019136831161000e57602401905b8282106110cb578560243586811161000e57610751916110b96110bf923690600401610b1e565b906126f7565b60405191829182611017565b8380916110d784610353565b815201910190611092565b503461000e57600036600319011261000e57602060ff600b54166040519015158152f35b503461000e57600036600319011261000e576020600f54604051908152f35b503461000e57604036600319011261000e5761113f610327565b600654602435916001600160a01b0391821633036108635761271083116111b857600780546001600160b01b0319169190921690811760a084901b61ffff60a01b1617909155604051918252907f90d7ec04bcb8978719414f82e52e4cb651db41d0e6f8cea6118c2191e6183adb9080602081010390a2005b60405162461bcd60e51b815260206004820152600f60248201526e45786365656473206d61782062707360881b6044820152606490fd5b503461000e57600036600319011261000e576020600954604051908152f35b503461000e57600036600319011261000e57604051602081019042825260208152611238816104dc565b519020600f54801561126957602091066001810180911161125c575b604051908152f35b6112646124c3565b611254565b634e487b7160e01b600052601260045260246000fd5b503461000e57606036600319011261000e57611299610327565b6001600160401b0360243581811161000e576112b9903690600401610b1e565b9060443590811161000e576112d2903690600401610b1e565b906001600160a01b038316338114801561135d575b6112f191506125d9565b6112fe815183511461265f565b60005b81518110156113535761134e9061134961133661131d87610367565b61132784876125b7565b51600052602052604060002090565b5461134183876125b7565b511115612619565b6124da565b611301565b50610d5492612d16565b5060009081526003602090815260408083203384529091529020546112f19060ff166112e7565b503461000e57600036600319011261000e576006546040516001600160a01b039091168152602090f35b503461000e5760208060031936011261000e576001600160401b039060043582811161000e576113e2903690600401610bdd565b6006549091906001600160a01b03163303610863576113ff61054e565b90825193841161151f575b61141e84611419600554610463565b61291b565b80601f851160011461148b575092807fc9c7c3fe08b88b4df9d4d47ef47d2c43d55c025a0ba88ca442580ed9e7348a1694600091611480575b508160011b916000199060031b1c1916176005555b61147b60405192839283613601565b0390a1005b905083015138611457565b600560005290601f198516600080516020613bf4833981519152926000905b8282106115075750509185917fc9c7c3fe08b88b4df9d4d47ef47d2c43d55c025a0ba88ca442580ed9e7348a1696600194106114ee575b5050811b0160055561146c565b85015160001960f88460031b161c1916905538806114e1565b80600185968294968a015181550195019301906114aa565b61152761049d565b61140a565b503461000e57608036600319011261000e57611546610327565b6001600160401b0360243581811161000e57611566903690600401610b1e565b60443582811161000e5761157e903690600401610b1e565b9160643590811161000e579061159984923690600401610bdd565b916115af60018060a01b03600654163314612444565b6115bb8451151561251e565b6115c88251855114612561565b600c54600094859291805b8551851015611638576000196115e986886125b7565b510361161d5761161061160a8261161693611604898b6125b7565b526124da565b986124da565b946124da565b93966115d3565b96938061134989611631611616948a6125b7565b511061248a565b919493506116539295610d549780611661575b505050600c55565b61165b61250b565b92612bb4565b61166a926134b7565b8861164b565b503461000e576000806003193601126107b85760405181600180549061169582610463565b8085529181811690811561079057506001146116bb57610751846107458188038261052d565b80945082526020938483205b8284106116e35750505081610751936107459282010193610735565b80548585018701529285019281016116c7565b503461000e57606036600319011261000e5760043561171361033d565b6006546001600160a01b03929160443591841633036108635761271082116111b8577f7365cf4122f072a3365c20d54eff9b38d73c096c28e1892ec8f5b0e403a0f12d916117bc916001866040519261176b846104dc565b168083526020808401858152600089815260089092526040909120935184546001600160a01b0319166001600160a01b0391909a161698909817835596519101556040519081529081906020820190565b0390a3005b503461000e57604036600319011261000e576117db610327565b6024356117e781610e5e565b6117f0826136fd565b6001600160a01b03821691338314611876578161182f6118409233600052600360205260406000209060018060a01b0316600052602052604060002090565b9060ff801983541691151516179055565b604051901515815233907f17307eab39ab6107e8899845ad3d59bd9653f200f220920489ca2b5937696c319080602081016117bc565b60405162461bcd60e51b815260206004820152600e60248201526d20a8282927ab24a723afa9a2a62360911b6044820152606490fd5b602080820190808352835180925260408301928160408460051b8301019501936000915b8483106118e05750505050505090565b90919293949584806118fe600193603f198682030187528a516106c0565b98019301930191949392906118d0565b503461000e57602036600319011261000e576001600160401b0360043581811161000e573660238201121561000e57806004013591821161000e573660248360051b8301011161000e576107519160246119689201613626565b604051918291826118ac565b503461000e57608036600319011261000e5761198e610327565b602435604435916001600160401b039283811161000e576119b3903690600401610bdd565b926119c960018060a01b03600654163314612444565b600c549060001993848114600014611aef57508193600192838101808211611ae2575b600c55600052602092600484526040600020938751938411611ad5575b611a1d84611a178754610463565b8761296f565b80601f8511600114611a6657508392918391610d5499600095611a5b575b50501b9260031b1c19161790555b611a5161250b565b9160643591612ab2565b015193503880611a3b565b91939290601f19841698611a7f87600052602060002090565b936000905b8b8210611abe57505084610d549a10611aa6575b50505050811b019055611a49565b01519060f88460031b161c1916905538808080611a98565b808885978294968601518155019601930190611a84565b611add61049d565b611a09565b611aea6124c3565b6119ec565b610d54955080939450611b049291501061248a565b90611a49565b503461000e57600036600319011261000e57600754604080516001600160a01b038316815260a09290921c61ffff16602083015290f35b503461000e5760c036600319011261000e576001600160401b0360043581811161000e57611b73903690600401610bdd565b60a43582811161000e57611b8b903690600401610bdd565b90611ba160018060a01b03600654163314612444565b600c54926001808501808611611d53575b600c556000938585526020926004845260408620918051918211611d46575b611be582611bdf8554610463565b8561296f565b8490601f8311600114611cd4579180611c299492899a94611caa9a92611cc9575b5050600019600383901b1c191690851b1790555b611c2261250b565b90336129c3565b600f54908101809111611cbc575b600c546000198101908111611caf575b8552601082526040852055611c65611c60600f546126db565b600f55565b611c6d610aeb565b91825260243590820152604435604082015260643560608201526084356080820152611ca5600f54600052600e602052604060002090565b613a64565b604051f35b611cb76124c3565b611c47565b611cc46124c3565b611c37565b015190503880611c06565b90601f19831691611cea85600052602060002090565b92895b818110611d3157509286928592611caa9b9c96611c29989610611d18575b505050811b019055611c1a565b015160001960f88460031b161c19169055388080611d0b565b82840151855593870193928801928801611ced565b611d4e61049d565b611bd1565b611d5b6124c3565b611bb2565b503461000e57602036600319011261000e57600435600052600d6020526020604060002054604051908152f35b503461000e57602036600319011261000e57600435600052600e602052611de76040600020611dbb816105f9565b90600181015490600281015490600460038201549101549160405195869560a0875260a08701906106c0565b9360208601526040850152606084015260808301520390f35b503461000e5760c036600319011261000e576004356001600160401b0360243581811161000e57611e35903690600401610bdd565b91611e44600f54821115613b71565b600091818352602090600e825260408420918551918211611f86575b611e6e82611bdf8554610463565b80601f8311600114611f18575084958293949592611f0d575b50508160011b916000199060031b1c19161790555b6044356001611eb583600052600e602052604060002090565b01556064356002611ed083600052600e602052604060002090565b01556084356003611eeb83600052600e602052604060002090565b01556004611f0660a43592600052600e602052604060002090565b0155604051f35b015190503880611e87565b90601f19831696611f2e85600052602060002090565b9287905b898210611f6e5750508360019596979810611f55575b505050811b019055611e9c565b015160001960f88460031b161c19169055388080611f48565b80600185968294968601518155019501930190611f32565b611f8e61049d565b611e60565b503461000e576000806003193601126107b85760405181600554611fb681610463565b808452906001908181169081156107905750600114611fdf57610751846107458188038261052d565b6005835260209450600080516020613bf48339815191525b8284106120135750505081610751936107459282010193610735565b8054858501870152928501928101611ff7565b503461000e57604036600319011261000e57602060ff612078612047610327565b61204f61033d565b6001600160a01b0391821660009081526003865260408082209290931681526020919091522090565b54166040519015158152f35b503461000e5760a036600319011261000e5761209e610327565b6120a661033d565b6064356044356084356001600160401b03811161000e576120cb903690600401610bdd565b6001600160a01b0385811695919491903387148015908161224e575b9061222b575b6120f69061279e565b821680159661210588156127df565b61210e85613395565b61211787613395565b9882156121e0575b612195575b50610d549750856121388661095d86610367565b546121458282101561281a565b036121538661095d86610367565b556121618561095d86610367565b61216c8782546124fe565b905560408051868152602081018890523391600080516020613bd483398151915291a43361319d565b959391600097959391975b87518110156121cd57806121b76121c8928c6125b7565b516109356109e561091c848d6125b7565b6121a0565b5091939550919395610d54975038612124565b97959391600097959391975b8a895182101561221b57908961093561092d61091c8461220f81612216986125b7565b51946125b7565b6121ec565b505091939597969092949661211f565b50600087815260036020908152604080832033845290915290205460ff166120ed565b612257336136fd565b6120e7565b503461000e57606036600319011261000e57612276610327565b602435906044356001600160a01b03821633811480156123ae575b61229a906125d9565b6000908082526002602052604082208583526020526122bf8360408420541015612619565b8015946122cc8615612cd9565b6122d581613395565b936122df81613395565b96846040516122ed816104f7565b52612371575b835b8551811015612322578061230c61231d928a6125b7565b516109356109e561091c848b6125b7565b6122f5565b50839450612369600080516020613bd4833981519152918761234f8561095d84610cff8361095d87610367565b556040805194855260208501919091523393918291820190565b0390a4604051f35b94929190825b85518110156123a4578061238e61239f928a6125b7565b5161093561092d61091c848b6125b7565b612377565b50909192946122f3565b50600081815260036020908152604080832033845290915290205460ff16612291565b806000526020600481526123e860406000206105f9565b805161243e57506106f6906124056123ff846133e3565b9361398b565b92604051938161241e869351809286808701910161069d565b82016124328251809386808501910161069d565b0103808452018261052d565b91505090565b1561244b57565b60405162461bcd60e51b81526020600482015260176024820152762737ba1030baba3437b934bd32b2103a379036b4b73a1760491b6044820152606490fd5b1561249157565b60405162461bcd60e51b815260206004820152600a6024820152691a5b9d985b1a59081a5960b21b6044820152606490fd5b50634e487b7160e01b600052601160045260246000fd5b90600182018092116124e857565b6105886124c3565b60300190816030116124e857565b919082018092116124e857565b60405190612518826104f7565b60008252565b1561252557565b60405162461bcd60e51b815260206004820152601460248201527326b4b73a34b733903d32b937903a37b5b2b7399760611b6044820152606490fd5b1561256857565b60405162461bcd60e51b815260206004820152601060248201526f2632b733ba341036b4b9b6b0ba31b41760811b6044820152606490fd5b50634e487b7160e01b600052603260045260246000fd5b60209181518110156125cc575b60051b010190565b6125d46125a0565b6125c4565b156125e057565b60405162461bcd60e51b81526020600482015260116024820152702ab730b8383937bb32b21031b0b63632b960791b6044820152606490fd5b1561262057565b60405162461bcd60e51b8152602060048201526017602482015276139bdd08195b9bdd59da081d1bdad95b9cc81bdddb9959604a1b6044820152606490fd5b1561266657565b60405162461bcd60e51b815260206004820152600f60248201526e098cadccee8d040dad2e6dac2e8c6d608b1b6044820152606490fd5b156126a457565b60405162461bcd60e51b815260206004820152600f60248201526e0988a9c8ea890be9a92a69a82a8869608b1b6044820152606490fd5b60019060001981146126eb570190565b6126f36124c3565b0190565b919091612707815184511461269d565b80519261271384610af8565b916040946127238651948561052d565b808452612732601f1991610af8565b0190602091368386013760005b815181101561279557612790906001600160a01b0361275e82856125b7565b5116600052600284528760002061277582876125b7565b516000528452876000205461278a82886125b7565b526126db565b61273f565b50929450505050565b156127a557565b60405162461bcd60e51b81526020600482015260126024820152710853d5d3915497d3d497d054141493d5915160721b6044820152606490fd5b156127e657565b60405162461bcd60e51b815260206004820152600c60248201526b2a27afad22a927afa0a2222960a11b6044820152606490fd5b1561282157565b60405162461bcd60e51b815260206004820152601060248201526f125394d551919250d251539517d0905360821b6044820152606490fd5b919082039182116124e857565b9293926001600160a01b0391908216156128bc575b161561288657509050565b60005b81518110156128b657806128a06128b192866125b7565b516109356109e561091c84876125b7565b612889565b50509050565b929060005b83518110156128ee57806128d86128e992886125b7565b5161093561092d61091c84896125b7565b6128c1565b50909261287b565b909161290d6106f693604084526040840190610fe3565b916020818403910152610fe3565b601f8111612927575050565b6000906005825260208220906020601f850160051c83019410612965575b601f0160051c01915b82811061295a57505050565b81815560010161294e565b9092508290612945565b90601f811161297d57505050565b600091825260208220906020601f850160051c830194106129b9575b601f0160051c01915b8281106129ae57505050565b8181556001016129a2565b9092508290612999565b6001600160a01b0381169384159391929091906129e085156127df565b6129e981613395565b936129f2613363565b9660005b8651811015612a235780612a0d612a1e928b6125b7565b5161093561092d61091c848c6125b7565b6129f6565b5091939594909294612a7b575b50610588949550612a448361095d84610367565b612a4e81546124da565b905560408051848152600160208201526000913391600080516020613bd48339815191529190a433612f92565b93916000959391955b8551811015612aa0578061230c612a9b928a6125b7565b612a84565b50919350919450610588938594612a30565b6001600160a01b0381169485159491939092612ace86156127df565b612ad781613395565b94612ae183613395565b9760005b8751811015612b125780612afc612b0d928c6125b7565b5161093561092d61091c848d6125b7565b612ae5565b5091939590929496612b6b575b50610588959650612b338361095d84610367565b612b3e8582546124fe565b905560408051848152602081018690526000913391600080516020613bd48339815191529190a4336130c9565b94929095939160005b8651811015612ba15780612b8b612b9c928b6125b7565b516109356109e561091c848c6125b7565b612b74565b5091939650919350610588948695612b1f565b6001600160a01b03811694851594929392612bcf86156127df565b612bdc855185511461269d565b60005b8551811015612c295780612bf6612c1792876125b7565b51612c0461091c838a6125b7565b8054918201809211612c1c575b556126db565b612bdf565b612c246124c3565b612c11565b50909194612c9f575b60005b8451811015612c6b5780612c4c612c6692866125b7565b5161093561092d612c5c8a610367565b611327858b6125b7565b612c35565b5092909493610588946000604051600080516020613bb4833981519152339180612c968989836128f6565b0390a4336132f2565b939060005b8451811015612cd15780612cbb612ccc92866125b7565b516109356109e561091c848a6125b7565b612ca4565b509093612c32565b15612ce057565b60405162461bcd60e51b815260206004820152600e60248201526d232927a6afad22a927afa0a2222960911b6044820152606490fd5b9192916001600160a01b038116908115612d308115612cd9565b612d3d845187511461269d565b612d4561250b565b50612dee575b60005b8351811015612d6a57806109d4612d6592886125b7565b612d4e565b5091909260005b8251811015612dc15780612d88612dbc92856125b7565b51612c11612d96838a6125b7565b51612da48361095d8a610367565b54612db18282101561281a565b039161095d88610367565b612d71565b50936000939250612de9600080516020613bb4833981519152916040519182913395836128f6565b0390a4565b929060005b8351811015612e1d5780612e0a612e1892886125b7565b51612c0461091c83886125b7565b612df3565b509092612d4b565b9081602091031261000e57516106f6816103ca565b6106f6939260a092600180851b031682526000602083015260408201526001606082015281608082015201906106c0565b909260a0926106f69594600180861b03168352600060208401526040830152606082015281608082015201906106c0565b91926106f695949160a094600180871b0380921685521660208401526040830152606082015281608082015201906106c0565b506040513d6000823e3d90fd5b60609060208152600f60208201526e1513d2d15394d7d491529150d51151608a1b60408201520190565b60009060033d11612f1357565b905060046000803e60005160e01c90565b600060443d106106f657604051600319913d83016004833e81516001600160401b03918282113d602484011117612f8157818401948551938411612f89573d85010160208487010111612f8157506106f69291016020019061052d565b949350505050565b50949350505050565b92919091823b612fa3575b50505050565b612fca92602092600060405180968195829463f23a6e6160e01b9a8b855260048501612e3a565b03926001600160a01b03165af160009181613099575b506130715750506001612ff1612f06565b6308c379a014613042575b61300a575b38808080612f9d565b60405162461bcd60e51b815260206004820152601060248201526f10a2a92198989a9aa922a1a2a4ab22a960811b6044820152606490fd5b61304a612f24565b806130555750612ffc565b60405162461bcd60e51b815290819061089990600483016106e5565b6001600160e01b031916146130015760405162461bcd60e51b81528061089960048201612edc565b6130bb91925060203d81116130c2575b6130b3818361052d565b810190612e25565b9038612fe0565b503d6130a9565b9390803b6130d9575b5050505050565b6131019360006020946040519687958694859363f23a6e6160e01b9b8c865260048601612e6b565b03926001600160a01b03165af16000918161317d575b506131555750506001613128612f06565b6308c379a014613142575b61300a575b38808080806130d2565b61314a612f24565b806130555750613133565b6001600160e01b031916146131385760405162461bcd60e51b81528061089960048201612edc565b61319691925060203d81116130c2576130b3818361052d565b9038613117565b9493919092813b6131b1575b505050505050565b60006020946131d86040519788968795869463f23a6e6160e01b9c8d875260048701612e9c565b03926001600160a01b03165af160009181613255575b5061322d57505060016131ff612f06565b6308c379a01461321a575b61300a575b3880808080806131a9565b613222612f24565b80613055575061320a565b6001600160e01b0319161461320f5760405162461bcd60e51b81528061089960048201612edc565b61326e91925060203d81116130c2576130b3818361052d565b90386131ee565b926132a46106f695936132b29360018060a01b031686526000602087015260a0604087015260a0860190610fe3565b908482036060860152610fe3565b9160808184039101526106c0565b93906106f695936132a4916132b29460018060a01b03809216885216602087015260a0604087015260a0860190610fe3565b9390803b613301575050505050565b6131019360006020946040519687958694859363bc197c8160e01b9b8c865260048601613275565b9493919092813b61333c57505050505050565b60006020946131d86040519788968795869463bc197c8160e01b9c8d8752600487016132c0565b60405161336f816104dc565b600181526001602082016020368237825115613389575290565b6133916125a0565b5290565b604051906133a2826104dc565b60018252602082016020368237825115613389575290565b6009548110156133d6575b600960005260206000200190600090565b6133de6125a0565b6133c5565b6009549060405190818381528260208092016009600052826000209260005b8781106134a05750506134179250038361052d565b60005b8381106134585760405162461bcd60e51b815260206004820152600f60248201526e125b9d985b1a59081d1bdad95b9259608a1b6044820152606490fd5b61346281846125b7565b51821061347757613472906124da565b61341a565b6106f6935061348a915061349b926125b7565b51600052600a602052604060002090565b6105f9565b845483526001948501948794509282019201613402565b929083018093116135f4575b60095483929083600160401b8210156135e7575b613507816134ec6001948581016009556133ba565b90919082549060031b600019811b9283911b16911916179055565b600052602091600a83526040600020928151916001600160401b0383116135da575b61353783611a178754610463565b81601f84116001146135705750928293918392600094613565575b50501b916000199060031b1c1916179055565b015192503880613552565b919083601f19811661358788600052602060002090565b946000905b888383106135c057505050106135a7575b505050811b019055565b015160001960f88460031b161c1916905538808061359d565b85870151885590960195948501948793509081019061358c565b6135e261049d565b613529565b6135ef61049d565b6134d7565b6135fc6124c3565b6134c3565b90916136186106f6936040845260408401906106c0565b9160208184039101526106c0565b9061363081610af8565b9161363e604051938461052d565b818352601f1961364d83610af8565b0160005b8181106136d757505060005b82811061366a5750505090565b8060051b820135601e198336030181121561000e578201908135916001600160401b03831161000e57602001823603811361000e576136b16136b7916136d2943691610ba6565b30613842565b6136c182876125b7565b526136cc81866125b7565b506126db565b61365d565b806060602080938801015201613651565b9081602091031261000e57516106f681610e5e565b600b5460ff1661370a5750565b6daaeb6d7670e522a718067333cd4e803b613723575050565b604051633185c44d60e21b81523060048201526001600160a01b038316602482015290602090829060449082905afa9081156137bc575b60009161378e575b501561376b5750565b604051633b79c77360e21b81526001600160a01b03919091166004820152602490fd5b6137af915060203d81116137b5575b6137a7818361052d565b8101906136e8565b38613762565b503d61379d565b6137c4612ecf565b61375a565b6000526008602052604060002090602060405192604084018481106001600160401b03821117613835575b60405280546001600160a01b03908116808652600190920154929094018290528061382c57505061ffff6007549283169260a01c1690565b925061ffff1690565b61383d61049d565b6137f4565b906040519061385082610512565b602782527f416464726573733a206c6f772d6c6576656c2064656c65676174652063616c6c6020830152660819985a5b195960ca1b6040830152823b156138d8576000816106f69460208394519201905af43d156138d0573d906138b382610b7c565b916138c1604051938461052d565b82523d6000602084013e61392c565b60609061392c565b60405162461bcd60e51b815260206004820152602660248201527f416464726573733a2064656c65676174652063616c6c20746f206e6f6e2d636f6044820152651b9d1c9858dd60d21b6064820152608490fd5b90919015613938575090565b8151156139485750805190602001fd5b60405162461bcd60e51b8152602060048201529081906108999060248301906106c0565b90602091805182101561397e57010190565b6139866125a0565b010190565b8015613a4657806000908282935b613a3257506139a783610b7c565b926139b5604051948561052d565b80845281601f196139c583610b7c565b013660208701375b6139d75750505090565b6000198101908111613a25575b8091600a91613a1c613a13613a036139fd8686066124f0565b60ff1690565b60f81b6001600160f81b03191690565b861a918761396c565b530490816139cd565b613a2d6124c3565b6139e4565b92613a3e600a916126db565b930480613999565b50604051613a53816104dc565b60018152600360fc1b602082015290565b90805180516001600160401b038111613b64575b613a8c81613a868654610463565b8661296f565b6020918290601f8311600114613af15791806080949260049694600092613ae6575b50508160011b916000199060031b1c19161785555b810151600185015560408101516002850155606081015160038501550151910155565b015190503880613aae565b90601f19831691613b0787600052602060002090565b9260005b818110613b4d5750926001928592600498966080989610613b34575b505050811b018555613ac3565b015160001960f88460031b161c19169055388080613b27565b929386600181928786015181550195019301613b0b565b613b6c61049d565b613a78565b15613b7857565b60405162461bcd60e51b8152602060048201526013602482015272125d195b48191bd95cc81b9bdd08195e1a5cdd606a1b6044820152606490fdfe4a39dc06d4c0dbc64b70af90fd698a233a518aa5d07e595d983b8c0526c8f7fbc3d58168c5ae7397731d063d5bbf3d657854427343f4c083240f7aacaa2d0f62036b6384b5eca791c62761152d0c79bb0604c104a5fb6f4eb0703f3154bb3db0a26469706673582212206ef9389ca5a7d9feabacbccb74eb1e4bbb8c3cdb1f2e8c043258c446fb9b13d564736f6c6343000810003338475885990d8dfe9ca01f0ef160a1b5514426eab9ddbc953a3353410ba78096",
  "linkReferences": {},
  "deployedLinkReferences": {}
}