{
  "_format": "hh-sol-artifact-1",
  "contractName": "Battle",
  "sourceName": "contracts/Battle.sol",
  "abi": [
    {
      "inputs": [
        {
          "internalType": "address",
          "name": "_characterContractAddress",
          "type": "address"
        },
        {
          "internalType": "address",
          "name": "_battleSkillsContractAddress",
          "type": "address"
        }
      ],
      "stateMutability": "nonpayable",
      "type": "constructor"
    },
    {
      "anonymous": false,
      "inputs": [
        {
          "indexed": true,
          "internalType": "uint256",
          "name": "battleId",
          "type": "uint256"
        },
        {
          "indexed": true,
          "internalType": "address",
          "name": "player",
          "type": "address"
        }
      ],
      "name": "BattleCanceled",
      "type": "event"
    },
    {
      "anonymous": false,
      "inputs": [
        {
          "indexed": false,
          "internalType": "uint256",
          "name": "battleId",
          "type": "uint256"
        },
        {
          "indexed": false,
          "internalType": "address",
          "name": "creator",
          "type": "address"
        },
        {
          "indexed": false,
          "internalType": "uint256",
          "name": "characterId",
          "type": "uint256"
        }
      ],
      "name": "BattleCreated",
      "type": "event"
    },
    {
      "anonymous": false,
      "inputs": [
        {
          "indexed": false,
          "internalType": "address",
          "name": "winner",
          "type": "address"
        }
      ],
      "name": "BattleEnded",
      "type": "event"
    },
    {
      "anonymous": false,
      "inputs": [
        {
          "indexed": false,
          "internalType": "uint256",
          "name": "battleId",
          "type": "uint256"
        },
        {
          "indexed": false,
          "internalType": "address",
          "name": "joiner",
          "type": "address"
        },
        {
          "indexed": false,
          "internalType": "uint256",
          "name": "characterId",
          "type": "uint256"
        }
      ],
      "name": "BattleJoined",
      "type": "event"
    },
    {
      "anonymous": false,
      "inputs": [
        {
          "indexed": false,
          "internalType": "uint256",
          "name": "battleId",
          "type": "uint256"
        },
        {
          "indexed": false,
          "internalType": "address",
          "name": "player1",
          "type": "address"
        },
        {
          "indexed": false,
          "internalType": "uint256",
          "name": "health1",
          "type": "uint256"
        },
        {
          "indexed": false,
          "internalType": "address",
          "name": "player2",
          "type": "address"
        },
        {
          "indexed": false,
          "internalType": "uint256",
          "name": "health2",
          "type": "uint256"
        }
      ],
      "name": "HealthUpdated",
      "type": "event"
    },
    {
      "anonymous": false,
      "inputs": [
        {
          "indexed": true,
          "internalType": "uint256",
          "name": "battleId",
          "type": "uint256"
        },
        {
          "indexed": true,
          "internalType": "address",
          "name": "player",
          "type": "address"
        },
        {
          "indexed": false,
          "internalType": "enum Battle.Move",
          "name": "move",
          "type": "uint8"
        }
      ],
      "name": "MoveSubmitted",
      "type": "event"
    },
    {
      "anonymous": false,
      "inputs": [
        {
          "indexed": false,
          "internalType": "address[2]",
          "name": "damagedPlayers",
          "type": "address[2]"
        }
      ],
      "name": "RoundEnded",
      "type": "event"
    },
    {
      "inputs": [],
      "name": "battleCounter",
      "outputs": [
        {
          "internalType": "uint256",
          "name": "",
          "type": "uint256"
        }
      ],
      "stateMutability": "view",
      "type": "function"
    },
    {
      "inputs": [
        {
          "internalType": "uint256",
          "name": "",
          "type": "uint256"
        }
      ],
      "name": "battles",
      "outputs": [
        {
          "internalType": "string",
          "name": "name",
          "type": "string"
        },
        {
          "internalType": "bool",
          "name": "isBattleStarted",
          "type": "bool"
        },
        {
          "internalType": "bool",
          "name": "isBattleEnded",
          "type": "bool"
        },
        {
          "internalType": "address",
          "name": "winner",
          "type": "address"
        }
      ],
      "stateMutability": "view",
      "type": "function"
    },
    {
      "inputs": [
        {
          "internalType": "uint256",
          "name": "battleId",
          "type": "uint256"
        }
      ],
      "name": "cancelBattle",
      "outputs": [],
      "stateMutability": "nonpayable",
      "type": "function"
    },
    {
      "inputs": [
        {
          "internalType": "uint256",
          "name": "characterTokenId",
          "type": "uint256"
        }
      ],
      "name": "createBattle",
      "outputs": [],
      "stateMutability": "nonpayable",
      "type": "function"
    },
    {
      "inputs": [
        {
          "internalType": "uint256",
          "name": "battleId",
          "type": "uint256"
        }
      ],
      "name": "getBattleMoves",
      "outputs": [
        {
          "internalType": "uint256[2]",
          "name": "",
          "type": "uint256[2]"
        }
      ],
      "stateMutability": "view",
      "type": "function"
    },
    {
      "inputs": [
        {
          "internalType": "uint256",
          "name": "battleId",
          "type": "uint256"
        }
      ],
      "name": "getBattleParticipants",
      "outputs": [
        {
          "internalType": "address[2]",
          "name": "",
          "type": "address[2]"
        }
      ],
      "stateMutability": "view",
      "type": "function"
    },
    {
      "inputs": [
        {
          "internalType": "uint256",
          "name": "battleId",
          "type": "uint256"
        },
        {
          "internalType": "address",
          "name": "player",
          "type": "address"
        }
      ],
      "name": "getCharacterHealth",
      "outputs": [
        {
          "internalType": "uint256",
          "name": "",
          "type": "uint256"
        }
      ],
      "stateMutability": "view",
      "type": "function"
    },
    {
      "inputs": [
        {
          "internalType": "uint256",
          "name": "battleId",
          "type": "uint256"
        },
        {
          "internalType": "address",
          "name": "player",
          "type": "address"
        }
      ],
      "name": "getCharacterProxy",
      "outputs": [
        {
          "components": [
            {
              "internalType": "address",
              "name": "owner",
              "type": "address"
            },
            {
              "internalType": "uint256",
              "name": "health",
              "type": "uint256"
            },
            {
              "internalType": "uint256",
              "name": "attack",
              "type": "uint256"
            },
            {
              "internalType": "uint256",
              "name": "defense",
              "type": "uint256"
            },
            {
              "internalType": "uint256",
              "name": "mana",
              "type": "uint256"
            }
          ],
          "internalType": "struct Battle.CharacterProxy",
          "name": "",
          "type": "tuple"
        }
      ],
      "stateMutability": "view",
      "type": "function"
    },
    {
      "inputs": [
        {
          "internalType": "uint256",
          "name": "battleId",
          "type": "uint256"
        },
        {
          "internalType": "uint256",
          "name": "characterTokenId",
          "type": "uint256"
        }
      ],
      "name": "joinBattle",
      "outputs": [],
      "stateMutability": "nonpayable",
      "type": "function"
    },
    {
      "inputs": [
        {
          "internalType": "address",
          "name": "",
          "type": "address"
        }
      ],
      "name": "playerOngoingBattle",
      "outputs": [
        {
          "internalType": "uint256",
          "name": "",
          "type": "uint256"
        }
      ],
      "stateMutability": "view",
      "type": "function"
    },
    {
      "inputs": [
        {
          "internalType": "uint256",
          "name": "_battleId",
          "type": "uint256"
        }
      ],
      "name": "quitBattle",
      "outputs": [],
      "stateMutability": "nonpayable",
      "type": "function"
    },
    {
      "inputs": [
        {
          "internalType": "uint256",
          "name": "battleId",
          "type": "uint256"
        },
        {
          "internalType": "enum Battle.Move",
          "name": "move",
          "type": "uint8"
        }
      ],
      "name": "submitMove",
      "outputs": [],
      "stateMutability": "nonpayable",
      "type": "function"
    }
  ],
  "bytecode": "0x6080346200009657601f6200244e38819003918201601f19168301916001600160401b038311848410176200009b57808492604094855283398101031262000096576200005a60206200005283620000b1565b9201620000b1565b600480546001600160a01b039384166001600160a01b031991821617909155600580549290931691161790556040516123879081620000c78239f35b600080fd5b634e487b7160e01b600052604160045260246000fd5b51906001600160a01b0382168203620000965756fe60806040526004361015610013575b600080fd5b60003560e01c806333056109146101035780634188de5a146100fa5780634c4c447e146100f1578063606d2e96146100e85780636efe60c1146100df57806394d44f12146100d6578063a10d80de146100cd578063a9b9be3f146100c4578063b39ab4c5146100bb578063ba7b5596146100b2578063dc55da6f146100a95763e44dba4f146100a157600080fd5b61000e6109f4565b5061000e6108d9565b5061000e610847565b5061000e6107b5565b5061000e610796565b5061000e6106b7565b5061000e610527565b5061000e6104e9565b5061000e610471565b5061000e6101bb565b5061000e610188565b503461000e5760208060031936011261000e5760408051610123816102ed565b369037600435600052600081526001906101428260406000200161204b565b91604051918293906000945b6002861061015b57604085f35b82516001600160a01b031681529483019491810191810161014e565b6001600160a01b0381160361000e57565b503461000e57604036600319011261000e5760206101b36024356101ab81610177565b60043561225c565b604051908152f35b503461000e57602036600319011261000e57600435600081815260208190526040812060018101549192916001600160a01b0316330361026957600761023d910161021661021161020d835460ff1690565b1590565b6110ab565b3360009081526001602052604090208490558054610100600160b01b031916610100179055565b6040519033907f8d7df0ced4aeda0e69d998705dddbf1eac70be8d7fb991edc80ddf6f29424a738484a3f35b60405162461bcd60e51b815260206004820152601d60248201527f4e6f74207468652063726561746f72206f662074686520626174746c650000006044820152606490fd5b50634e487b7160e01b600052604160045260246000fd5b60a081019081106001600160401b038211176102e057604052565b6102e86102ae565b604052565b604081019081106001600160401b038211176102e057604052565b606081019081106001600160401b038211176102e057604052565b90601f801991011681019081106001600160401b038211176102e057604052565b9060405190600092805493600185811c9281871691821561041f575b602091828610841461040b57879861037f878a98999a60209181520190565b949081156103ea57506001146103a2575b505050506103a092500383610323565b565b6103b6919450959195600052602060002090565b946000935b8285106103d4575050506103a093500138808080610390565b86548585015295860195889550938101936103bb565b93505050506103a09491925060ff19168252151560051b0138808080610390565b634e487b7160e01b85526022600452602485fd5b93607f1693610360565b60005b83811061043c5750506000910152565b818101518382015260200161042c565b9060209161046581518092818552858086019101610429565b601f01601f1916010190565b503461000e57602036600319011261000e5760043560005260006020526104b8604060002060076104a182610344565b91015460405192839260808452608084019061044c565b60ff80831615156020850152600883901c161515604084015260109190911c6001600160a01b031660608301520390f35b503461000e57602036600319011261000e5760043561050781610177565b60018060a01b031660005260016020526020604060002054604051908152f35b503461000e57602036600319011261000e57600480547fcd51df591e2f9319b98d783b63c675c8ab2e63d44101da9e5a12af2b1fcab4799135906105c19061057f906001600160a01b03165b6001600160a01b031690565b6040516331a9108f60e11b81526004810184905290602090829060249082905afa9081156106aa575b60009161067c575b506001600160a01b03163314610bc5565b3360009081526001602052604090206105dc905b5415610c11565b6105ef6105ea600354610c8b565b600355565b60035461062c33600161060c846000526000602052604060002090565b0180546001600160a01b0319166001600160a01b03909216919091179055565b816003610643836000526000602052604060002090565b015533600090815260016020526040902081905b55610663813384610dab565b60408051918252336020830152810191909152606090a1005b61069d915060203d81116106a3575b6106958183610323565b810190610ba0565b386105b0565b503d61068b565b6106b2610bb8565b6105a8565b503461000e57602036600319011261000e5760043560018060a01b0390610707826106ff60016106f1856000526000602052604060002090565b01546001600160a01b031690565b16151561200b565b6020610725610720836000526000602052604060002090565b6120de565b0191610740835182815116331490811561077d575b50612180565b82515116338103610772575061076a61075d610770935160200190565b516001600160a01b031690565b906121cc565b005b9061077092506121cc565b6020015133915083166001600160a01b0316143861073a565b503461000e57600036600319011261000e576020600354604051908152f35b503461000e57604036600319011261000e57600435602435600381101561000e578161077092600052600060205260018060a01b03600160406000200154163314801561080b575b6108069061118f565b611444565b5061080661083e610573610829600160406000200160010190600090565b905460039190911b1c6001600160a01b031690565b331490506107fd565b503461000e5760208060031936011261000e57604090818051610869816102ed565b369037600435600052600081528160002060068351918483018381106001600160401b038211176108cc575b8552600581015483520154828201528251916000835b600282106108b7578585f35b828060019286518152019401910190926108ab565b6108d46102ae565b610895565b503461000e5760408060031936011261000e576109f0906109706024356108ff81610177565b826080815161090d816102c5565b6000918183809352826020820152828582015282606082015201528151602081019061094e816109408760043586610ca7565b03601f198101835282610323565b51902081526002602052209060018060a01b0316600052602052604060002090565b90600481519261097f846102c5565b60018060a01b038154168452600181015460208501526002810154838501526003810154606085015201546080830152519182918291909160808060a083019460018060a01b0381511684526020810151602085015260408101516040850152606081015160608501520151910152565b0390f35b503461000e57604036600319011261000e577fa47b02d2d7d744d434c03db59a4362b0fc7a74d04df715cc6200d66fd65df98960043560243590610b5f610a4561057360045460018060a01b031690565b6040516331a9108f60e11b81526004810185905290602090829060249082905afa908115610b93575b600091610b75575b506001600160a01b0390610a8d9082163314610bc5565b336000908152600160205260409020610aa5906105d5565b610b52610b30610abf856000526000602052604060002090565b92610b2787610b0c60036007880197610ae4610adf61020d8b5460ff1690565b6110f7565b6001810195610b0290610afb600284016000610829565b1615611143565b0160010190600090565b90919082549060031b600019811b9283911b16911916179055565b60010190600090565b81546001600160a01b0360039290921b91821b80199091163390921b16179055565b805460ff19166001179055565b3360009081526001602052604090208190610657565b610b8d915060203d81116106a3576106958183610323565b38610a76565b610b9b610bb8565b610a6e565b9081602091031261000e5751610bb581610177565b90565b506040513d6000823e3d90fd5b15610bcc57565b60405162461bcd60e51b815260206004820152601e60248201527f4e6f7420746865206f776e6572206f66207468652063686172616374657200006044820152606490fd5b15610c1857565b60405162461bcd60e51b815260206004820152602e60248201527f506c6179657220616c72656164792070617274696369706174696e6720696e2060448201526d616e6f7468657220626174746c6560901b6064820152608490fd5b50634e487b7160e01b600052601160045260246000fd5b6001906000198114610c9b570190565b610ca3610c74565b0190565b90815260609190911b6bffffffffffffffffffffffff1916602082015260340190565b9081602091031261000e575190565b6040519061012082018281106001600160401b038211176102e057604052565b6020906001600160401b038111610d16575b601f01601f19160190565b610d1e6102ae565b610d0b565b60405190610d3082610308565b602282526132b960f11b6040837f4368617261637465722070726f7879206372656174656420666f7220706c617960208201520152565b60405190610d74826102ed565b60078252662432b0b63a341d60c91b6020830152565b60405190610d97826102ed565b600582526426b0b7309d60d91b6020830152565b9091604051610df784610de060209384810190610dcd81610940868a86610ca7565b5190206000526002602052604060002090565b9060018060a01b0316600052602052604060002090565b80546001600160a01b0319166001600160a01b0386161781559160048054610e27906001600160a01b0316610573565b928060405180956316442a7f60e11b82528180610e4b8b8883019190602083019252565b03915afa93841561109e575b600094611075575b50908185610f4b610f90946001610fa098990199898b55610e89610573875460018060a01b031690565b8260405180926319ddc96160e21b82528180610eac878d83019190602083019252565b03915afa908115611068575b60009161104b575b5060028501558554610eda906001600160a01b0316610573565b8260405180926323ce9af360e11b82528180610efd878d83019190602083019252565b03915afa90811561103e575b600091611021575b5060038501558554610f2b906001600160a01b0316610573565b604051633aeec56760e11b81528781019283529384928391829160200190565b03915afa928315611014575b600093610fe5575b50509181920155610f7787610f72610d23565b612303565b610f8885610f83610d67565b6122a5565b610f83610d8a565b6000526000602052604060002090565b6001810154909390610fba906001600160a01b0316610573565b6001600160a01b0390911603610fd4575060089054910155565b6103a0929091506009016000610b0c565b611005929350803d1061100d575b610ffd8183610323565b810190610cca565b903880610f5f565b503d610ff3565b61101c610bb8565b610f57565b6110389150833d851161100d57610ffd8183610323565b38610f11565b611046610bb8565b610f09565b6110629150833d851161100d57610ffd8183610323565b38610ec0565b611070610bb8565b610eb8565b610fa0945090611095610f909392823d841161100d57610ffd8183610323565b94509091610e5f565b6110a6610bb8565b610e57565b156110b257565b60405162461bcd60e51b815260206004820152601e60248201527f43616e6e6f742063616e63656c2061207374617274656420626174746c6500006044820152606490fd5b156110fe57565b60405162461bcd60e51b815260206004820152601a60248201527f426174746c652068617320616c726561647920737461727465640000000000006044820152606490fd5b1561114a57565b60405162461bcd60e51b815260206004820152601e60248201527f426174746c6520616c7265616479206861732074776f20706c617965727300006044820152606490fd5b1561119657565b60405162461bcd60e51b815260206004820152602860248201527f4f6e6c79207061727469636970616e74732063616e2063616c6c207468697320604482015267333ab731ba34b7b760c11b6064820152608490fd5b156111f357565b60405162461bcd60e51b815260206004820152601660248201527510985d1d1b19481a185cc81b9bdd081cdd185c9d195960521b6044820152606490fd5b1561123857565b60405162461bcd60e51b815260206004820152601060248201526f10985d1d1b19481a185cc8195b99195960821b6044820152606490fd5b6003111561127a57565b634e487b7160e01b600052602160045260246000fd5b1561129757565b60405162461bcd60e51b815260206004820152603260248201527f496e76616c6964206d6f76653a206d7573742062652041545441434b2c204445604482015271119153910b081bdc881554d157d4d2d2531360721b6064820152608490fd5b156112fe57565b60405162461bcd60e51b815260206004820152602260248201527f4d6f766520616c7265616479207375626d697474656420627920706c61796572604482015261101960f11b6064820152608490fd5b91906020830192600382101561127a5752565b1561136857565b60405162461bcd60e51b815260206004820152602260248201527f4d6f766520616c7265616479207375626d697474656420627920706c61796572604482015261203160f01b6064820152608490fd5b604051906113c582610308565b60248252633910189d60e11b6040837f4368617261637465722070726f7879206865616c746820666f7220706c61796560208201520152565b6040519061140b82610308565b60248252633910191d60e11b6040837f4368617261637465722070726f7879206865616c746820666f7220706c61796560208201520152565b90611459826000526000602052604060002090565b61147860ff600783015461146e8282166111ec565b60081c1615611231565b61148182611270565b8115801561168f575b801561167c575b61149a90611290565b6001810180546114b2906001600160a01b0316610573565b33036115905761155c61155661082961156493600a966115008888016114e46114df61020d835460ff1690565b611361565b6114ed83611270565b8260058a0155600160ff19825416179055565b887fdf31d6d9480a495c0b6667daa4c8f92d5420a9b58cc52f19657329ba9aa8143a6040518061153133958261134e565b0390a35b8054610b279061154e906001600160a01b03168a61225c565b610f836113b8565b8561225c565b610f836113fe565b015460ff81169081611582575b506115795750565b6103a09061185a565b60ff915060081c1638611571565b6115a1610573600183016000610829565b33036116375761155c61155661082961156493600a966115fe8888016115d76115d261020d835460ff9060081c1690565b6112f7565b6115e083611270565b6115ef8360068b016000610b0c565b805461ff001916610100179055565b887fdf31d6d9480a495c0b6667daa4c8f92d5420a9b58cc52f19657329ba9aa8143a6040518061162f33958261134e565b0390a3611535565b60405162461bcd60e51b815260206004820152601f60248201527f4e6f742061207061727469636970616e74206f662074686520626174746c65006044820152606490fd5b5061168682611270565b60028214611491565b5061169982611270565b6001821461148a565b906040516116af816102c5565b82546001600160a01b031681526001830154602082015260028301546040820152600383015460608201526004909201546080830152565b6002198101919082116116f657565b6103a0610c74565b919082039182116116f657565b90600382018092116116f657565b919082018092116116f657565b9080601f8301121561000e578151906001600160401b03821161178d575b8160051b6040519360209361175b85840187610323565b8552838086019282010192831161000e578301905b82821061177e575050505090565b81518152908301908301611770565b6117956102ae565b611744565b602091828282031261000e5781516001600160401b039283821161000e57019160a08383031261000e57604051936117d1856102c5565b835185528084015182811161000e5784019083601f8301121561000e578151916117fa83610cf9565b926118086040519485610323565b8084528583828401011161000e5761182591838086019101610429565b8501526040830151604085015260608301516060850152608083015190811161000e576118529201611726565b608082015290565b610de090611872816000526000602052604060002090565b611a27611a8e82611a27611a8060018060a01b03600184015416611a70886118e46118f06040516118d3610829600160208401846118b18b8a84610ca7565b03946118c5601f1996878101835282610323565b5190209b0160010190600090565b604051938491602083019687610ca7565b03908101835282610323565b5190209161191461190f82610de0896000526002602052604060002090565b6116a2565b97889161195b61190f8c611945610829600161193a8b6000526002602052604060002090565b930160010190600090565b60018060a01b0316600052602052604060002090565b9c8d988c600260058201548c8115808091611f6e575b15611df5575061198460408a0151611f83565b60206119936040840151611f83565b92018051909160009181811115611ded576119ae92506116fe565b905b52602089018051909160009181811115611de5576119ce92506116fe565b905b52608088016119df81516116e7565b905260808d016119ef81516116e7565b90525b14611ccf575b8a6002611a0f6006840160005b90549060031b1c90565b14611b73575b50506000526002602052604060002090565b815181546001600160a01b0319166001600160a01b0391909116178155906004906080906020810151600185015560408101516002850155606081015160038501550151910155565b6000526002602052604060002090565b611945600287016000610829565b60018201547fe85058f4893f92696bd72945da4fc8a26957c32630cd7492babba8aa5b7446fc906020906001600160a01b0316920180519092611b166020611ada600288016000610829565b98018051604080518a81526001600160a01b039586166020820152908101959095529290981660608401526080830191909152819060a0820190565b0390a15180158015611b6a575b15611b55576103a0935110600014611b4757600101546001600160a01b031661076a565b61076a906002016000610829565b50600a01805461ffff19169055506103a09050565b50835115611b23565b611c15611c39916000611bcc6020611b97611a056003611c3e990160010190600090565b600454611bac906001600160a01b0316610573565b604051808095819463ef3877c560e01b8352600483019190602083019252565b03915afa908115611cc2575b8291611ca3575b50600554611bf5906001600160a01b0316610573565b6040518080968194635ec407d760e11b8352600483019190602083019252565b03915afa918215611c96575b600092611c6d575b5060408091015191015190611719565b611f83565b602086018051909160009181811115611c6557611c5b92506116fe565b905b528c8a611a15565b505090611c5d565b611c8e604092939183923d8091833e611c868183610323565b81019061179a565b929150611c29565b611c9e610bb8565b611c21565b611cbc915060203d60201161100d57610ffd8183610323565b38611bdf565b611cca610bb8565b611bd8565b611c39611d416000611cf860206003611d65960154611bac61057360045460018060a01b031690565b03915afa908115611dd8575b8291611db9575b50600554611d21906001600160a01b0316610573565b6040518080958194635ec407d760e11b8352600483019190602083019252565b03915afa908115611dac575b600091611d93575b5060408089015191015190611719565b60208b018051909160009181811115611d8b57611d8292506116fe565b905b528c6119f8565b505090611d84565b611da6913d8091833e611c868183610323565b38611d55565b611db4610bb8565b611d4d565b611dd2915060203d60201161100d57610ffd8183610323565b38611d0b565b611de0610bb8565b611d04565b5050906119d0565b5050906119b0565b60018314908180611f57575b15611e2e5750505060808801611e17815161170b565b905260808d01611e27815161170b565b90526119f2565b80611f40575b15611ea05750611e4760408a0151611f83565b606082015190808210611e66575b50505060808801611e1781516116e7565b602091611e72916116fe565b91018051909160009181811115611e9857611e8d92506116fe565b905b528c3880611e55565b505090611e8f565b80611f2b575b611eb1575b506119f2565b6040611ebe910151611f83565b6060890151818110611ef3575b505060808801611edb815161170b565b905260808d01611eeb81516116e7565b90528c611eab565b611efc916116fe565b602089018051909160009181811115611f2357611f1992506116fe565b905b523880611ecb565b505090611f1b565b50611f3a600685016000611a05565b15611ea6565b506001611f51600687016000611a05565b14611e34565b506001611f68600688016000611a05565b14611e01565b50611f7d600686016000611a05565b15611971565b600a9004601460405160208101904482524260408201523360601b606082015260548152608081018181106001600160401b03821117611ffe575b604052519020069060018201809211611ff1575b8060001904821181151516611fe5570290565b611fed610c74565b0290565b611ff9610c74565b611fd2565b6120066102ae565b611fbe565b1561201257565b60405162461bcd60e51b8152602060048201526011602482015270426174746c65206e6f7420666f756e642160781b6044820152606490fd5b60405191906000835b60028210612068575050506103a0826102ed565b82546001600160a01b031681526001928301929190910190602001612054565b60405191906000835b600282106120a5575050506103a0826102ed565b6001602081928554815201930191019091612091565b9060ff60405192548181161515845260081c16151560208301526103a0826102ed565b90612178600a6120ec610cd9565b936120f681610344565b85526121046001820161204b565b602086015261211560038201612088565b604086015261212660058201612088565b6060860152600781015460ff81161515608087015261216190600881901c60ff16151560a088015260101c6001600160a01b031660c0870152565b61216d60088201612088565b60e0860152016120bb565b610100830152565b1561218757565b60405162461bcd60e51b815260206004820152601b60248201527f596f7520617265206e6f7420696e207468697320626174746c652100000000006044820152606490fd5b600090815260208181526040808320600781018054610100600160b01b031916601087901b62010000600160b01b0316176101001790556001808201546001600160a01b039081168652908452828520859055600290910154811684529083207f7edb248de9fac68f1cc16f2c382aea736ff5085080a906ca9382347ed563e2b2949293905560405191168152a1565b6001916122a0916040516122798161094085602083019586610ca7565b519020600052600260205260406000209060018060a01b0316600052602052604060002090565b015490565b6122e86122d4916103a093604051938492632d839cb360e21b602085015260406024850152606484019061044c565b90604483015203601f198101835282610323565b600080916020815191016a636f6e736f6c652e6c6f675afa50565b6122e8612332916103a09360405193849263319af33360e01b602085015260406024850152606484019061044c565b6001600160a01b0391909116604483015203601f19810183528261032356fea2646970667358221220e03325eb1ab2aeabb5167889004628fb9b087ccc44d4e2f5346702c3c4a8321264736f6c63430008100033",
  "linkReferences": {},
  "deployedLinkReferences": {}
}