{
  "_format": "hh-sol-artifact-1",
  "contractName": "Battle",
  "sourceName": "contracts/Battle.sol",
  "abi": [
    {
      "inputs": [
        {
          "internalType": "address",
          "name": "_characterContractAddress",
          "type": "address"
        },
        {
          "internalType": "address",
          "name": "_battleSkillsContractAddress",
          "type": "address"
        },
        {
          "internalType": "address",
          "name": "_battleEffectsContractAddress",
          "type": "address"
        },
        {
          "internalType": "address",
          "name": "_compositeTokensContractAddress",
          "type": "address"
        }
      ],
      "stateMutability": "nonpayable",
      "type": "constructor"
    },
    {
      "anonymous": false,
      "inputs": [
        {
          "indexed": true,
          "internalType": "uint256",
          "name": "battleId",
          "type": "uint256"
        },
        {
          "indexed": true,
          "internalType": "address",
          "name": "player",
          "type": "address"
        }
      ],
      "name": "BattleCancelled",
      "type": "event"
    },
    {
      "anonymous": false,
      "inputs": [
        {
          "indexed": true,
          "internalType": "uint256",
          "name": "battleId",
          "type": "uint256"
        },
        {
          "indexed": true,
          "internalType": "address",
          "name": "creator",
          "type": "address"
        },
        {
          "indexed": false,
          "internalType": "uint256",
          "name": "characterId",
          "type": "uint256"
        }
      ],
      "name": "BattleCreated",
      "type": "event"
    },
    {
      "anonymous": false,
      "inputs": [
        {
          "indexed": false,
          "internalType": "string",
          "name": "battleName",
          "type": "string"
        },
        {
          "indexed": true,
          "internalType": "uint256",
          "name": "battleId",
          "type": "uint256"
        },
        {
          "indexed": true,
          "internalType": "address",
          "name": "winner",
          "type": "address"
        },
        {
          "indexed": true,
          "internalType": "address",
          "name": "loser",
          "type": "address"
        }
      ],
      "name": "BattleEnded",
      "type": "event"
    },
    {
      "anonymous": false,
      "inputs": [
        {
          "indexed": true,
          "internalType": "uint256",
          "name": "battleId",
          "type": "uint256"
        },
        {
          "indexed": false,
          "internalType": "uint256",
          "name": "round",
          "type": "uint256"
        },
        {
          "indexed": true,
          "internalType": "address",
          "name": "quitter",
          "type": "address"
        }
      ],
      "name": "BattleQuit",
      "type": "event"
    },
    {
      "anonymous": false,
      "inputs": [
        {
          "indexed": false,
          "internalType": "uint256",
          "name": "battleId",
          "type": "uint256"
        },
        {
          "indexed": false,
          "internalType": "address",
          "name": "player",
          "type": "address"
        },
        {
          "indexed": false,
          "internalType": "uint256",
          "name": "id",
          "type": "uint256"
        },
        {
          "indexed": false,
          "internalType": "address",
          "name": "owner",
          "type": "address"
        },
        {
          "indexed": false,
          "internalType": "uint256",
          "name": "health",
          "type": "uint256"
        },
        {
          "indexed": false,
          "internalType": "uint256",
          "name": "attack",
          "type": "uint256"
        },
        {
          "indexed": false,
          "internalType": "uint256",
          "name": "defense",
          "type": "uint256"
        },
        {
          "indexed": false,
          "internalType": "uint256",
          "name": "mana",
          "type": "uint256"
        },
        {
          "indexed": false,
          "internalType": "uint256",
          "name": "typeId",
          "type": "uint256"
        },
        {
          "indexed": false,
          "internalType": "uint256[]",
          "name": "equippedSkills",
          "type": "uint256[]"
        }
      ],
      "name": "CharacterProxyData",
      "type": "event"
    },
    {
      "anonymous": false,
      "inputs": [
        {
          "indexed": true,
          "internalType": "uint256",
          "name": "battleId",
          "type": "uint256"
        },
        {
          "indexed": true,
          "internalType": "address",
          "name": "player",
          "type": "address"
        },
        {
          "indexed": false,
          "internalType": "uint256",
          "name": "round",
          "type": "uint256"
        },
        {
          "indexed": false,
          "internalType": "uint256",
          "name": "diceNumber",
          "type": "uint256"
        }
      ],
      "name": "DiceRolled",
      "type": "event"
    },
    {
      "anonymous": false,
      "inputs": [
        {
          "indexed": true,
          "internalType": "uint256",
          "name": "battleId",
          "type": "uint256"
        },
        {
          "indexed": true,
          "internalType": "address",
          "name": "player1",
          "type": "address"
        },
        {
          "indexed": false,
          "internalType": "uint256",
          "name": "health1",
          "type": "uint256"
        },
        {
          "indexed": true,
          "internalType": "address",
          "name": "player2",
          "type": "address"
        },
        {
          "indexed": false,
          "internalType": "uint256",
          "name": "health2",
          "type": "uint256"
        }
      ],
      "name": "HealthUpdated",
      "type": "event"
    },
    {
      "anonymous": false,
      "inputs": [
        {
          "indexed": true,
          "internalType": "uint256",
          "name": "battleId",
          "type": "uint256"
        },
        {
          "indexed": true,
          "internalType": "address",
          "name": "player",
          "type": "address"
        },
        {
          "indexed": false,
          "internalType": "enum StructsLibrary.Move",
          "name": "move",
          "type": "uint8"
        },
        {
          "indexed": false,
          "internalType": "uint256",
          "name": "round",
          "type": "uint256"
        }
      ],
      "name": "MoveSubmitted",
      "type": "event"
    },
    {
      "anonymous": false,
      "inputs": [
        {
          "indexed": false,
          "internalType": "string",
          "name": "battleName",
          "type": "string"
        },
        {
          "indexed": true,
          "internalType": "uint256",
          "name": "battleId",
          "type": "uint256"
        },
        {
          "indexed": true,
          "internalType": "address",
          "name": "player1",
          "type": "address"
        },
        {
          "indexed": true,
          "internalType": "address",
          "name": "player2",
          "type": "address"
        },
        {
          "indexed": false,
          "internalType": "uint256",
          "name": "characterId",
          "type": "uint256"
        }
      ],
      "name": "NewBattle",
      "type": "event"
    },
    {
      "anonymous": false,
      "inputs": [
        {
          "indexed": true,
          "internalType": "address",
          "name": "prevOwner",
          "type": "address"
        },
        {
          "indexed": true,
          "internalType": "address",
          "name": "newOwner",
          "type": "address"
        }
      ],
      "name": "OwnerUpdated",
      "type": "event"
    },
    {
      "anonymous": false,
      "inputs": [
        {
          "indexed": true,
          "internalType": "uint256",
          "name": "battleId",
          "type": "uint256"
        },
        {
          "indexed": false,
          "internalType": "address[2]",
          "name": "damagedPlayers",
          "type": "address[2]"
        },
        {
          "indexed": false,
          "internalType": "uint256[2]",
          "name": "damageDealt",
          "type": "uint256[2]"
        },
        {
          "indexed": false,
          "internalType": "uint256[2]",
          "name": "damageTaken",
          "type": "uint256[2]"
        },
        {
          "indexed": true,
          "internalType": "uint256",
          "name": "round",
          "type": "uint256"
        }
      ],
      "name": "RoundEnded",
      "type": "event"
    },
    {
      "anonymous": false,
      "inputs": [
        {
          "indexed": true,
          "internalType": "uint256",
          "name": "battleId",
          "type": "uint256"
        },
        {
          "indexed": false,
          "internalType": "uint256",
          "name": "round",
          "type": "uint256"
        },
        {
          "indexed": true,
          "internalType": "address",
          "name": "player",
          "type": "address"
        },
        {
          "indexed": false,
          "internalType": "uint256",
          "name": "skillId",
          "type": "uint256"
        },
        {
          "indexed": false,
          "internalType": "string",
          "name": "skillName",
          "type": "string"
        },
        {
          "indexed": false,
          "internalType": "uint256",
          "name": "totalDamage",
          "type": "uint256"
        }
      ],
      "name": "SkillExecuted",
      "type": "event"
    },
    {
      "anonymous": false,
      "inputs": [
        {
          "indexed": true,
          "internalType": "uint256",
          "name": "battleId",
          "type": "uint256"
        },
        {
          "indexed": false,
          "internalType": "uint256",
          "name": "round",
          "type": "uint256"
        },
        {
          "indexed": true,
          "internalType": "address",
          "name": "character",
          "type": "address"
        },
        {
          "indexed": false,
          "internalType": "string",
          "name": "statusEffectName",
          "type": "string"
        },
        {
          "indexed": false,
          "internalType": "uint256",
          "name": "duration",
          "type": "uint256"
        }
      ],
      "name": "StatusEffectApplied",
      "type": "event"
    },
    {
      "anonymous": false,
      "inputs": [
        {
          "indexed": true,
          "internalType": "uint256",
          "name": "battleId",
          "type": "uint256"
        },
        {
          "indexed": true,
          "internalType": "address",
          "name": "player",
          "type": "address"
        },
        {
          "indexed": false,
          "internalType": "uint256",
          "name": "effectId",
          "type": "uint256"
        },
        {
          "indexed": false,
          "internalType": "string",
          "name": "effectName",
          "type": "string"
        },
        {
          "indexed": false,
          "internalType": "string",
          "name": "effectType",
          "type": "string"
        },
        {
          "indexed": false,
          "internalType": "uint256",
          "name": "effectValue",
          "type": "uint256"
        },
        {
          "indexed": false,
          "internalType": "uint256",
          "name": "round",
          "type": "uint256"
        },
        {
          "indexed": false,
          "internalType": "uint256",
          "name": "duration",
          "type": "uint256"
        }
      ],
      "name": "StatusEffectResolved",
      "type": "event"
    },
    {
      "stateMutability": "payable",
      "type": "fallback"
    },
    {
      "inputs": [
        {
          "internalType": "uint256",
          "name": "",
          "type": "uint256"
        }
      ],
      "name": "activeBattlesId",
      "outputs": [
        {
          "internalType": "uint256",
          "name": "",
          "type": "uint256"
        }
      ],
      "stateMutability": "view",
      "type": "function"
    },
    {
      "inputs": [],
      "name": "battleCounter",
      "outputs": [
        {
          "internalType": "uint256",
          "name": "",
          "type": "uint256"
        }
      ],
      "stateMutability": "view",
      "type": "function"
    },
    {
      "inputs": [
        {
          "internalType": "uint256",
          "name": "",
          "type": "uint256"
        }
      ],
      "name": "battles",
      "outputs": [
        {
          "internalType": "uint256",
          "name": "battleId",
          "type": "uint256"
        },
        {
          "internalType": "string",
          "name": "name",
          "type": "string"
        },
        {
          "internalType": "enum StructsLibrary.BattleStatus",
          "name": "battleStatus",
          "type": "uint8"
        },
        {
          "internalType": "address",
          "name": "winner",
          "type": "address"
        },
        {
          "internalType": "uint256",
          "name": "round",
          "type": "uint256"
        },
        {
          "components": [
            {
              "internalType": "uint256[2]",
              "name": "initialHealth",
              "type": "uint256[2]"
            },
            {
              "internalType": "uint256[2]",
              "name": "initialMana",
              "type": "uint256[2]"
            },
            {
              "internalType": "uint256[2]",
              "name": "totalDamageDealt",
              "type": "uint256[2]"
            },
            {
              "internalType": "uint256[2]",
              "name": "totalDamageTaken",
              "type": "uint256[2]"
            },
            {
              "internalType": "uint256[2]",
              "name": "damageReduced",
              "type": "uint256[2]"
            },
            {
              "internalType": "uint256[2]",
              "name": "healthRegenerated",
              "type": "uint256[2]"
            },
            {
              "internalType": "uint256[2]",
              "name": "manaRegenerated",
              "type": "uint256[2]"
            },
            {
              "internalType": "uint256[2]",
              "name": "expReceived",
              "type": "uint256[2]"
            },
            {
              "internalType": "uint256[2]",
              "name": "leagueBattlePointsEarned",
              "type": "uint256[2]"
            }
          ],
          "internalType": "struct StructsLibrary.BattleStats",
          "name": "battleStats",
          "type": "tuple"
        }
      ],
      "stateMutability": "view",
      "type": "function"
    },
    {
      "inputs": [
        {
          "internalType": "uint256",
          "name": "_battleId",
          "type": "uint256"
        }
      ],
      "name": "cancelBattle",
      "outputs": [],
      "stateMutability": "nonpayable",
      "type": "function"
    },
    {
      "inputs": [
        {
          "internalType": "string",
          "name": "_name",
          "type": "string"
        },
        {
          "internalType": "uint256",
          "name": "_characterTokenId",
          "type": "uint256"
        }
      ],
      "name": "createBattle",
      "outputs": [],
      "stateMutability": "nonpayable",
      "type": "function"
    },
    {
      "inputs": [],
      "name": "feeCollected",
      "outputs": [
        {
          "internalType": "uint256",
          "name": "",
          "type": "uint256"
        }
      ],
      "stateMutability": "view",
      "type": "function"
    },
    {
      "inputs": [],
      "name": "getActiveBattlesCount",
      "outputs": [
        {
          "internalType": "uint256",
          "name": "",
          "type": "uint256"
        }
      ],
      "stateMutability": "view",
      "type": "function"
    },
    {
      "inputs": [],
      "name": "getActiveBattlesId",
      "outputs": [
        {
          "internalType": "uint256[]",
          "name": "",
          "type": "uint256[]"
        }
      ],
      "stateMutability": "view",
      "type": "function"
    },
    {
      "inputs": [
        {
          "internalType": "uint256",
          "name": "_battleId",
          "type": "uint256"
        }
      ],
      "name": "getBattle",
      "outputs": [
        {
          "components": [
            {
              "internalType": "uint256",
              "name": "battleId",
              "type": "uint256"
            },
            {
              "internalType": "string",
              "name": "name",
              "type": "string"
            },
            {
              "internalType": "address[2]",
              "name": "players",
              "type": "address[2]"
            },
            {
              "internalType": "uint256[2]",
              "name": "characterIds",
              "type": "uint256[2]"
            },
            {
              "internalType": "uint256[2]",
              "name": "moves",
              "type": "uint256[2]"
            },
            {
              "internalType": "uint256[2]",
              "name": "skillIndices",
              "type": "uint256[2]"
            },
            {
              "internalType": "enum StructsLibrary.BattleStatus",
              "name": "battleStatus",
              "type": "uint8"
            },
            {
              "internalType": "address",
              "name": "winner",
              "type": "address"
            },
            {
              "internalType": "bool[2]",
              "name": "moveSubmitted",
              "type": "bool[2]"
            },
            {
              "internalType": "uint256",
              "name": "round",
              "type": "uint256"
            },
            {
              "components": [
                {
                  "internalType": "uint256[2]",
                  "name": "initialHealth",
                  "type": "uint256[2]"
                },
                {
                  "internalType": "uint256[2]",
                  "name": "initialMana",
                  "type": "uint256[2]"
                },
                {
                  "internalType": "uint256[2]",
                  "name": "totalDamageDealt",
                  "type": "uint256[2]"
                },
                {
                  "internalType": "uint256[2]",
                  "name": "totalDamageTaken",
                  "type": "uint256[2]"
                },
                {
                  "internalType": "uint256[2]",
                  "name": "damageReduced",
                  "type": "uint256[2]"
                },
                {
                  "internalType": "uint256[2]",
                  "name": "healthRegenerated",
                  "type": "uint256[2]"
                },
                {
                  "internalType": "uint256[2]",
                  "name": "manaRegenerated",
                  "type": "uint256[2]"
                },
                {
                  "internalType": "uint256[2]",
                  "name": "expReceived",
                  "type": "uint256[2]"
                },
                {
                  "internalType": "uint256[2]",
                  "name": "leagueBattlePointsEarned",
                  "type": "uint256[2]"
                }
              ],
              "internalType": "struct StructsLibrary.BattleStats",
              "name": "battleStats",
              "type": "tuple"
            }
          ],
          "internalType": "struct StructsLibrary.BattleData",
          "name": "",
          "type": "tuple"
        }
      ],
      "stateMutability": "view",
      "type": "function"
    },
    {
      "inputs": [
        {
          "internalType": "uint256",
          "name": "battleId",
          "type": "uint256"
        }
      ],
      "name": "getBattleMoves",
      "outputs": [
        {
          "internalType": "uint256[2]",
          "name": "",
          "type": "uint256[2]"
        }
      ],
      "stateMutability": "view",
      "type": "function"
    },
    {
      "inputs": [
        {
          "internalType": "uint256",
          "name": "battleId",
          "type": "uint256"
        }
      ],
      "name": "getBattleParticipants",
      "outputs": [
        {
          "internalType": "address[2]",
          "name": "",
          "type": "address[2]"
        }
      ],
      "stateMutability": "view",
      "type": "function"
    },
    {
      "inputs": [
        {
          "internalType": "uint256",
          "name": "battleId",
          "type": "uint256"
        },
        {
          "internalType": "address",
          "name": "player",
          "type": "address"
        }
      ],
      "name": "getCharacterHealth",
      "outputs": [
        {
          "internalType": "uint256",
          "name": "",
          "type": "uint256"
        }
      ],
      "stateMutability": "view",
      "type": "function"
    },
    {
      "inputs": [
        {
          "internalType": "uint256",
          "name": "battleId",
          "type": "uint256"
        },
        {
          "internalType": "address",
          "name": "player",
          "type": "address"
        }
      ],
      "name": "getCharacterProxy",
      "outputs": [
        {
          "components": [
            {
              "internalType": "uint256",
              "name": "id",
              "type": "uint256"
            },
            {
              "internalType": "address",
              "name": "owner",
              "type": "address"
            },
            {
              "internalType": "uint256",
              "name": "health",
              "type": "uint256"
            },
            {
              "internalType": "uint256",
              "name": "attack",
              "type": "uint256"
            },
            {
              "internalType": "uint256",
              "name": "defense",
              "type": "uint256"
            },
            {
              "internalType": "uint256",
              "name": "mana",
              "type": "uint256"
            },
            {
              "internalType": "uint256",
              "name": "typeId",
              "type": "uint256"
            },
            {
              "internalType": "uint256[]",
              "name": "equippedSkills",
              "type": "uint256[]"
            }
          ],
          "internalType": "struct StructsLibrary.CharacterProxyView",
          "name": "",
          "type": "tuple"
        }
      ],
      "stateMutability": "view",
      "type": "function"
    },
    {
      "inputs": [
        {
          "internalType": "uint256",
          "name": "battleId",
          "type": "uint256"
        },
        {
          "internalType": "address",
          "name": "player",
          "type": "address"
        }
      ],
      "name": "getCharacterProxyActiveEffects",
      "outputs": [
        {
          "internalType": "uint256[]",
          "name": "effectIds",
          "type": "uint256[]"
        },
        {
          "internalType": "uint256[]",
          "name": "durations",
          "type": "uint256[]"
        }
      ],
      "stateMutability": "view",
      "type": "function"
    },
    {
      "inputs": [
        {
          "internalType": "uint256",
          "name": "battleId",
          "type": "uint256"
        },
        {
          "internalType": "uint256",
          "name": "characterTokenId",
          "type": "uint256"
        }
      ],
      "name": "joinBattle",
      "outputs": [],
      "stateMutability": "nonpayable",
      "type": "function"
    },
    {
      "inputs": [],
      "name": "leagueRewards",
      "outputs": [
        {
          "internalType": "uint256",
          "name": "",
          "type": "uint256"
        }
      ],
      "stateMutability": "view",
      "type": "function"
    },
    {
      "inputs": [],
      "name": "owner",
      "outputs": [
        {
          "internalType": "address",
          "name": "",
          "type": "address"
        }
      ],
      "stateMutability": "view",
      "type": "function"
    },
    {
      "inputs": [
        {
          "internalType": "address",
          "name": "",
          "type": "address"
        }
      ],
      "name": "playerCredit",
      "outputs": [
        {
          "internalType": "uint256",
          "name": "",
          "type": "uint256"
        }
      ],
      "stateMutability": "view",
      "type": "function"
    },
    {
      "inputs": [
        {
          "internalType": "address",
          "name": "",
          "type": "address"
        }
      ],
      "name": "playerOngoingBattle",
      "outputs": [
        {
          "internalType": "uint256",
          "name": "",
          "type": "uint256"
        }
      ],
      "stateMutability": "view",
      "type": "function"
    },
    {
      "inputs": [
        {
          "internalType": "uint256",
          "name": "_battleId",
          "type": "uint256"
        }
      ],
      "name": "quitBattle",
      "outputs": [],
      "stateMutability": "nonpayable",
      "type": "function"
    },
    {
      "inputs": [
        {
          "internalType": "address",
          "name": "_newOwner",
          "type": "address"
        }
      ],
      "name": "setOwner",
      "outputs": [],
      "stateMutability": "nonpayable",
      "type": "function"
    },
    {
      "inputs": [],
      "name": "staminaCost",
      "outputs": [
        {
          "internalType": "uint256",
          "name": "",
          "type": "uint256"
        }
      ],
      "stateMutability": "view",
      "type": "function"
    },
    {
      "inputs": [
        {
          "internalType": "uint256",
          "name": "battleId",
          "type": "uint256"
        },
        {
          "internalType": "enum StructsLibrary.Move",
          "name": "move",
          "type": "uint8"
        },
        {
          "internalType": "uint256",
          "name": "skillId",
          "type": "uint256"
        }
      ],
      "name": "submitMove",
      "outputs": [],
      "stateMutability": "nonpayable",
      "type": "function"
    },
    {
      "inputs": [
        {
          "internalType": "uint256",
          "name": "newCost",
          "type": "uint256"
        }
      ],
      "name": "updateStaminaCost",
      "outputs": [],
      "stateMutability": "nonpayable",
      "type": "function"
    },
    {
      "stateMutability": "payable",
      "type": "receive"
    }
  ],
  "bytecode": "0x6080604052600a6004553480156200001657600080fd5b5060405162005f7538038062005f758339810160408190526200003991620000aa565b600c80546001600160a01b039586166001600160a01b031991821617909155600d805494861694821694909417909355600e805492851692841692909217909155600f805491909316911617905562000107565b80516001600160a01b0381168114620000a557600080fd5b919050565b60008060008060808587031215620000c157600080fd5b620000cc856200008d565b9350620000dc602086016200008d565b9250620000ec604086016200008d565b9150620000fc606086016200008d565b905092959194509250565b615e5e80620001176000396000f3fe6080604052600436106101435760003560e01c80636dd0ce7a116100b0578063a9b9be3f1161006c578063a9b9be3f146103cc578063ba7b5596146103e2578063d054fe001461040f578063daf241aa14610425578063dc55da6f14610453578063e44dba4f1461048057005b80636dd0ce7a146102dd5780636efe60c11461030a5780638bdb3b2f146103375780638da5cb5b1461035757806396033b761461037f578063a10d80de146103ac57005b806333056109116100ff57806333056109146102085780634188de5a146102355780634c4c447e14610255578063606d2e96146102755780636bc8e4a9146102a75780636ca7f95c146102c757005b8063068a1e491461014c578063086d35c2146101705780630ba5a8e61461018657806313af4035146101a6578063239752ab146101c657806332ccca0e146101e657005b3661014a57005b005b34801561015857600080fd5b506006545b6040519081526020015b60405180910390f35b34801561017c57600080fd5b5061015d60035481565b34801561019257600080fd5b5061014a6101a1366004614ed4565b6104a0565b3480156101b257600080fd5b5061014a6101c1366004614f02565b6104f5565b3480156101d257600080fd5b5061015d6101e1366004614ed4565b610501565b3480156101f257600080fd5b506101fb610522565b6040516101679190614f61565b34801561021457600080fd5b50610228610223366004614ed4565b61057a565b6040516101679190614fa6565b34801561024157600080fd5b5061015d610250366004614fb4565b6105cf565b34801561026157600080fd5b5061014a610270366004614ed4565b61062e565b34801561028157600080fd5b50610295610290366004614ed4565b610813565b6040516101679695949392919061512b565b3480156102b357600080fd5b5061014a6102c2366004615183565b610ad8565b3480156102d357600080fd5b5061015d60025481565b3480156102e957600080fd5b506102fd6102f8366004614ed4565b611070565b60405161016791906151e4565b34801561031657600080fd5b5061015d610325366004614f02565b60086020526000908152604090205481565b34801561034357600080fd5b5061014a61035236600461539b565b6114cc565b34801561036357600080fd5b506000546040516001600160a01b039091168152602001610167565b34801561038b57600080fd5b5061015d61039a366004614f02565b600b6020526000908152604090205481565b3480156103b857600080fd5b5061014a6103c7366004614ed4565b611a1d565b3480156103d857600080fd5b5061015d600a5481565b3480156103ee57600080fd5b506104026103fd366004614ed4565b611fcf565b604051610167919061541c565b34801561041b57600080fd5b5061015d60045481565b34801561043157600080fd5b50610445610440366004614fb4565b612004565b60405161016792919061542a565b34801561045f57600080fd5b5061047361046e366004614fb4565b612181565b6040516101679190615458565b34801561048c57600080fd5b5061014a61049b3660046154fd565b6122cd565b6000546001600160a01b031633146104f05760405162461bcd60e51b815260206004820152600e60248201526d139bdd08185d5d1a1bdc9a5e995960921b60448201526064015b60405180910390fd5b600455565b6104fe81612592565b50565b6006818154811061051157600080fd5b600091825260209091200154905081565b6060600680548060200260200160405190810160405280929190818152602001828054801561057057602002820191906000526020600020905b81548152602001906001019080831161055c575b5050505050905090565b610582614c5b565b60008281526005602052604090819020815180830192839052916002918201919082845b81546001600160a01b031681526001909101906020018083116105a65750505050509050919050565b60006009600084846040516020016105e892919061551f565b60408051601f19818403018152918152815160209283012083528282019390935290820160009081206001600160a01b0386168252909152206002015490505b92915050565b600081815260056020526040902060028101546001600160a01b031633146106a75760405162461bcd60e51b815260206004820152602660248201527f4f6e6c79207468652063726561746f722063616e2063616e63656c2074686520604482015265626174746c6560d01b60648201526084016104e7565b6000600a82015460ff1660028111156106c2576106c2615034565b1461070f5760405162461bcd60e51b815260206004820152601e60248201527f43616e6e6f742063616e63656c2061207374617274656420626174746c65000060448201526064016104e7565b600a8101805460ff1916600217905533600090815260086020908152604080832083905584835260079091528120546006549091906107509060019061556b565b90506000600682815481106107675761076761553f565b9060005260206000200154905080600684815481106107885761078861553f565b600091825260208083209091019290925582815260079091526040902083905560068054806107b9576107b961557e565b60008281526020808220830160001990810183905590920190925586825260079052604080822082905551339187917fb91ae85405a99ffc07c694757cfbb7a52994c3b4daf39d040a6d56b1429ed7c79190a35050505050565b6005602052600090815260409020805460018201805491929161083590615594565b80601f016020809104026020016040519081016040528092919081815260200182805461086190615594565b80156108ae5780601f10610883576101008083540402835291602001916108ae565b820191906000526020600020905b81548152906001019060200180831161089157829003601f168201915b50505050600a830154600c84015460408051610160810191829052949560ff8416956101009094046001600160a01b03169450919290600d8301908290610120820190839060029082845b8154815260200190600101908083116108f957505050918352505060408051808201918290526020909201919060028481019182845b81548152602001906001019080831161092f575050509183525050604080518082019182905260209092019190600484019060029082845b815481526020019060010190808311610967575050509183525050604080518082019182905260209092019190600684019060029082845b81548152602001906001019080831161099f575050509183525050604080518082019182905260209092019190600884019060029082845b8154815260200190600101908083116109d7575050509183525050604080518082019182905260209092019190600a84019060029082845b815481526020019060010190808311610a0f575050509183525050604080518082019182905260209092019190600c84019060029082845b815481526020019060010190808311610a47575050509183525050604080518082019182905260209092019190600e84019060029082845b815481526020019060010190808311610a7f575050509183525050604080518082019182905260209092019190601084019060029082845b815481526020019060010190808311610ab757505050505081525050905086565b60008381526005602052604081208491610b0191600201905b01546001600160a01b03166125e2565b6000818152600560205260409020610b1d906002016001610af1565b600081815260056020526040902060028101546003909101546001600160a01b03918216911633821480610b595750336001600160a01b038216145b610bb65760405162461bcd60e51b815260206004820152602860248201527f4f6e6c79207061727469636970616e74732063616e2063616c6c207468697320604482015267333ab731ba34b7b760c11b60648201526084016104e7565b60008681526005602052604090206001600a82015460ff166002811115610bdf57610bdf615034565b14610c405760405162461bcd60e51b815260206004820152602b60248201527f426174746c6520686173206e6f742073746172746564206f722068617320616c60448201526a1c9958591e48195b99195960aa1b60648201526084016104e7565b6000866003811115610c5457610c54615034565b1480610c7157506001866003811115610c6f57610c6f615034565b145b80610c8d57506002866003811115610c8b57610c8b615034565b145b80610ca957506003866003811115610ca757610ca7615034565b145b610d1b5760405162461bcd60e51b815260206004820152603e60248201527f496e76616c6964206d6f76653a206d7573742062652041545441434b2c20444560448201527f46454e442c205553455f534b494c4c2c206f7220444f5f4e4f5448494e47000060648201526084016104e7565b6000600282018101546001600160a01b03163314610d3a576001610d3d565b60005b60ff16905081600b018160028110610d5757610d5761553f565b602081049091015460ff601f9092166101000a90041615610dba5760405162461bcd60e51b815260206004820181905260248201527f4d6f766520616c7265616479207375626d697474656420627920706c6179657260448201526064016104e7565b60008833604051602001610dcf92919061551f565b60408051601f19818403018152828252805160209182012060008181526009835283812033808352935292909220600c8701549294509290918c917f8aeb59a0d4a813dbcc0850f4aaf78c3bbdb6a8e181a23013ab163cc9a4cf647091610e38918e91906155ce565b60405180910390a36001896003811115610e5457610e54615034565b14158015610e7457506003896003811115610e7157610e71615034565b14155b15610ed157610e8161262a565b600c80830182905585015460405133928d927f44c60cf2e549d3f07067958fb2907081416087b158fe86d2ddad6ec761790c5892610ec89290918252602082015260400190565b60405180910390a35b6002896003811115610ee557610ee5615034565b03610f8b576000805b6007830154811015610f3b5789836007018281548110610f1057610f1061553f565b906000526020600020015403610f295760019150610f3b565b80610f33816155ec565b915050610eee565b5080610f895760405162461bcd60e51b815260206004820152601f60248201527f5375626d697474656420736b696c6c206973206e6f742065717569707065640060448201526064016104e7565b505b886003811115610f9d57610f9d615034565b846006018460028110610fb257610fb261553f565b01556001600b85018460028110610fcb57610fcb61553f565b602091828204019190066101000a81548160ff02191690831515021790555060026003811115610ffd57610ffd615034565b89600381111561100f5761100f615034565b0361102d578784600801846002811061102a5761102a61553f565b01555b600b84015460ff16801561104a5750600b840154610100900460ff165b156110645760088401546009850154611064918c916126b4565b50505050505050505050565b611078614c79565b6005600083815260200190815260200160002060405180610160016040529081600082015481526020016001820180546110b190615594565b80601f01602080910402602001604051908101604052809291908181526020018280546110dd90615594565b801561112a5780601f106110ff5761010080835404028352916020019161112a565b820191906000526020600020905b81548152906001019060200180831161110d57829003601f168201915b505050918352505060408051808201918290526020909201919060028481019182845b81546001600160a01b0316815260019091019060200180831161114d575050509183525050604080518082019182905260209092019190600484019060029082845b81548152602001906001019080831161118f575050509183525050604080518082019182905260209092019190600684019060029082845b8154815260200190600101908083116111c7575050509183525050604080518082019182905260209092019190600884019060029082845b8154815260200190600101908083116111ff575050509183525050600a82015460209091019060ff16600281111561123957611239615034565b600281111561124a5761124a615034565b8152600a82015461010090046001600160a01b0316602082015260408051808201808352919092019190600b840190600290826000855b825461010083900a900460ff1615158152602060019283018181049485019490930390920291018084116112815790505050509183525050600c82015460208201526040805161016081018252910190600d83018161012081018260028282826020028201915b8154815260200190600101908083116112e857505050918352505060408051808201918290526020909201919060028481019182845b81548152602001906001019080831161131e575050509183525050604080518082019182905260209092019190600484019060029082845b815481526020019060010190808311611356575050509183525050604080518082019182905260209092019190600684019060029082845b81548152602001906001019080831161138e575050509183525050604080518082019182905260209092019190600884019060029082845b8154815260200190600101908083116113c6575050509183525050604080518082019182905260209092019190600a84019060029082845b8154815260200190600101908083116113fe575050509183525050604080518082019182905260209092019190600c84019060029082845b815481526020019060010190808311611436575050509183525050604080518082019182905260209092019190600e84019060029082845b81548152602001906001019080831161146e575050509183525050604080518082019182905260209092019190601084019060029082845b8154815260200190600101908083116114a6575050509190925250505090525092915050565b600c546040516331a9108f60e11b81526004810183905233916001600160a01b031690636352211e90602401602060405180830381865afa158015611515573d6000803e3d6000fd5b505050506040513d601f19601f820116820180604052508101906115399190615605565b6001600160a01b03161461158f5760405162461bcd60e51b815260206004820152601e60248201527f4e6f7420746865206f776e6572206f662074686520636861726163746572000060448201526064016104e7565b33600090815260086020526040902054156115bc5760405162461bcd60e51b81526004016104e790615622565b600a546040805161016081018252828152602080820186905282518084018452338152600081830181905283850191909152835180850185528681528083018290526060840152835180850185528181528083018290526080840152835180850190945280845290830181905260a082019290925260c08101828152600060208083018290526040805180820182528381528083018490528185015260016060808601829052825161016081018452610120810186815261014082018790528152835180850185528681528086018790528186015283518085018552868152808601879052818501528351808501855286815280860187905291810191909152825180840184528581528085018690526080828101919091528351808501855286815280860187905260a08301528351808501855286815280860187905260c08301528351808501855286815280860187905260e083015283518085018552868152808601879052610100830152909501949094528683526005825290912083518155908301519293508392909182019061175790826156be565b50604082015161176d9060028084019190614cf6565b5060608201516117839060048301906002614d4e565b5060808201516117999060068301906002614d4e565b5060a08201516117af9060088301906002614d4e565b5060c0820151600a8201805460ff191660018360028111156117d3576117d3615034565b021790555060e0820151600a82018054610100600160a81b0319166101006001600160a01b03909316830217905582015161181490600b8301906002614d7c565b50610120820151600c8201556101408201518051600d83019061183a9082906002614d4e565b5060208201516118509060028084019190614d4e565b5060408201516118669060048301906002614d4e565b50606082015161187c9060068301906002614d4e565b5060808201516118929060088301906002614d4e565b5060a08201516118a890600a8301906002614d4e565b5060c08201516118be90600c8301906002614d4e565b5060e08201516118d490600e8301906002614d4e565b506101008201516118eb9060108301906002614d4e565b5050600680546001818101835560008390527ff652222313e28459528d920b65115c16c04f3efc82aaedc97be59f3f377c0d3f90910187905590546119359450909250905061556b565b600083815260076020908152604080832093909355338083526008909152919020839055611965908490846129ab565b600c546004805460405163739420a560e01b815291820186905260248201526001600160a01b039091169063739420a590604401600060405180830381600087803b1580156119b357600080fd5b505af11580156119c7573d6000803e3d6000fd5b50506040518581523392508491507fcd51df591e2f9319b98d783b63c675c8ab2e63d44101da9e5a12af2b1fcab4799060200160405180910390a3600a8054906000611a12836155ec565b919050555050505050565b6000818152600560205260409020600201546001600160a01b0316611a785760405162461bcd60e51b8152602060048201526011602482015270426174746c65206e6f7420666f756e642160781b60448201526064016104e7565b6000600560008381526020019081526020016000206040518061016001604052908160008201548152602001600182018054611ab390615594565b80601f0160208091040260200160405190810160405280929190818152602001828054611adf90615594565b8015611b2c5780601f10611b0157610100808354040283529160200191611b2c565b820191906000526020600020905b815481529060010190602001808311611b0f57829003601f168201915b505050918352505060408051808201918290526020909201919060028481019182845b81546001600160a01b03168152600190910190602001808311611b4f575050509183525050604080518082019182905260209092019190600484019060029082845b815481526020019060010190808311611b91575050509183525050604080518082019182905260209092019190600684019060029082845b815481526020019060010190808311611bc9575050509183525050604080518082019182905260209092019190600884019060029082845b815481526020019060010190808311611c01575050509183525050600a82015460209091019060ff166002811115611c3b57611c3b615034565b6002811115611c4c57611c4c615034565b8152600a82015461010090046001600160a01b0316602082015260408051808201808352919092019190600b840190600290826000855b825461010083900a900460ff161515815260206001928301818104948501949093039092029101808411611c835790505050509183525050600c82015460208201526040805161016081018252910190600d83018161012081018260028282826020028201915b815481526020019060010190808311611cea57505050918352505060408051808201918290526020909201919060028481019182845b815481526020019060010190808311611d20575050509183525050604080518082019182905260209092019190600484019060029082845b815481526020019060010190808311611d58575050509183525050604080518082019182905260209092019190600684019060029082845b815481526020019060010190808311611d90575050509183525050604080518082019182905260209092019190600884019060029082845b815481526020019060010190808311611dc8575050509183525050604080518082019182905260209092019190600a84019060029082845b815481526020019060010190808311611e00575050509183525050604080518082019182905260209092019190600c84019060029082845b815481526020019060010190808311611e38575050509183525050604080518082019182905260209092019190600e84019060029082845b815481526020019060010190808311611e70575050509183525050604080518082019182905260209092019190601084019060029082845b815481526020019060010190808311611ea857505050919092525050509052506040810151519091506001600160a01b0316331480611ef757506040810151602001516001600160a01b031633145b611f435760405162461bcd60e51b815260206004820152601b60248201527f596f7520617265206e6f7420696e207468697320626174746c6521000000000060448201526064016104e7565b336001600160a01b0316827f3ff46d129afe6d0143c3e8ba124cdf4f4a5552918a50cd50b784ca9bdce4e357836101200151604051611f8491815260200190565b60405180910390a36040810151516001600160a01b03163314611fbd576040810151611fb990839060005b6020020151612c3a565b5050565b6040810151611fb99083906001611faf565b611fd7614c5b565b50600090815260056020908152604091829020825180840190935260068101548352600701549082015290565b6060806000848460405160200161201c92919061551f565b60408051601f1981840301815291815281516020928301206000818152600984528281206001600160a01b03891682529093529120600881015491925090806001600160401b03811115612072576120726152c0565b60405190808252806020026020018201604052801561209b578160200160208202803683370190505b509450806001600160401b038111156120b6576120b66152c0565b6040519080825280602002602001820160405280156120df578160200160208202803683370190505b50935060005b818110156121765760008360080182815481106121045761210461553f565b90600052602060002001549050808783815181106121245761212461553f565b602002602001018181525050836009016000828152602001908152602001600020548683815181106121585761215861553f565b6020908102919091010152508061216e816155ec565b9150506120e5565b505050509250929050565b6121d26040518061010001604052806000815260200160006001600160a01b031681526020016000815260200160008152602001600081526020016000815260200160008152602001606081525090565b600083836040516020016121e792919061551f565b60408051601f1981840301815282825280516020918201206000818152600983528381206001600160a01b03808a16835290845284822061010087018652805487526001810154909116868501526002810154868601526003810154606087015260048101546080870152600581015460a0870152600681015460c087015260078101805486518187028101870190975280875293975090959194919360e0850193908301828280156122b957602002820191906000526020600020905b8154815260200190600101908083116122a5575b505050919092525090979650505050505050565b600c546040516331a9108f60e11b81526004810183905233916001600160a01b031690636352211e90602401602060405180830381865afa158015612316573d6000803e3d6000fd5b505050506040513d601f19601f8201168201806040525081019061233a9190615605565b6001600160a01b0316146123905760405162461bcd60e51b815260206004820152601e60248201527f4e6f7420746865206f776e6572206f662074686520636861726163746572000060448201526064016104e7565b33600090815260086020526040902054156123bd5760405162461bcd60e51b81526004016104e790615622565b600082815260056020526040812090600a82015460ff1660028111156123e5576123e5615034565b146124325760405162461bcd60e51b815260206004820152601a60248201527f426174746c652068617320616c7265616479207374617274656400000000000060448201526064016104e7565b60038101546001600160a01b03161561248d5760405162461bcd60e51b815260206004820152601e60248201527f426174746c6520616c7265616479206861732074776f20706c6179657273000060448201526064016104e7565b600581018290556003810180546001600160a01b03191633908117909155600a8201805460ff1916600117905560008181526008602052604090208490556124d7908390856129ab565b600c546004805460405163739420a560e01b815291820185905260248201526001600160a01b039091169063739420a590604401600060405180830381600087803b15801561252557600080fd5b505af1158015612539573d6000803e3d6000fd5b50505050600281015460405133916001600160a01b03169085907f062c68eb2a964de2eed3fb17d55e0f1609ab0b928d7b24a44821401688ceafab9061258590600187019088906157fa565b60405180910390a4505050565b600080546001600160a01b038381166001600160a01b0319831681178455604051919092169283917f8292fce18fa69edf4db7b94ea2e58241df0ae57f97e0a6c9b29067028bf92d769190a35050565b6040516001600160a01b03821660248201526104fe9060440160408051601f198184030181529190526020810180516001600160e01b031663161765e160e11b179052612f8c565b600080601444423360405160200161266793929190928352602083019190915260601b6bffffffffffffffffffffffff1916604082015260540190565b6040516020818303038152906040528051906020012060001c61268a9190615832565b612695906001615846565b90506126a2816064615859565b6126ae906103e8615846565b91505090565b6000838152600560205260408120906126dd8560028401835b01546001600160a01b0316612fad565b905060006126f0866002850160016126cd565b90506126fa614c5b565b612702614c5b565b61270a614c5b565b6127198987600c015487613001565b8152600c86015461272c908a9086613001565b6020820152600b85015460ff161561274657600360068701555b600b84015460ff161561275b57600360078701555b6127668686866131de565b6006860154600214801561277e575060078601546002145b6127925761278d868686613275565b935091505b6006860154600119016127ca57600c8601546127bc908790878b886006850160010154600161338c565b83526001600160a01b031683525b60078601546001190161280e57600c8601546127f4908790868a896006850160000154600061338c565b6020848101919091526001600160a01b0391909116908401525b61281b81868685876136e8565b6001600c868101829055850155815160118701805460009061283e908490615846565b9091555050602082015160128701805460009061285c908490615846565b9091555050602082015160138701805460009061287a908490615846565b90915550508151601487018054600090612895908490615846565b9250508190555085600c0154897f1c18d51d882ce69ed20679aff51d0bc25f77878b0bbc4051e6d9ab2342f5e47f85856040518060400160405280886001600281106128e3576128e361553f565b60200201518152602001886000600281106129005761290061553f565b6020020151905260405161291693929190615870565b60405180910390a36002850154158061293157506002840154155b1561297657600280850154908601546000911061295b5760038701546001600160a01b031661296a565b60028701546001600160a01b03165b90506110648a82612c3a565b600b8601805461ffff19169055600c860180546001919060009061299b908490615846565b9091555050505050505050505050565b600081836040516020016129c092919061551f565b60408051808303601f19018152908290528051602090910120600c5462d8301960e41b8352600483018790529092506000916001600160a01b0390911690630d83019090602401600060405180830381865afa158015612a24573d6000803e3d6000fd5b505050506040513d6000823e601f3d908101601f19168201604052612a4c91908101906158a0565b60008381526009602090815260408083206001600160a01b038916808552908352928190208981556001810180546001600160a01b031916909417909355835160028401558184015160038401558301516004830155606083015160058301556080830151600683015560a083015180519394509192612ad29260078501920190614e09565b50612af5604051806060016040528060228152602001615e076022913986613752565b612b25604051806040016040528060078152602001662432b0b63a341d60c91b8152508260020160000154613797565b612b536040518060400160405280600581526020016426b0b7309d60d91b8152508260020160030154613797565b600084815260056020526040902060028101546001600160a01b0390811690871603612b92576002820154600d8201556005820154600f820155612ba7565b6002820154600e820155600582015460108201555b7f3f6e56e1bcf6454c5e7f32cffe9f99778fd7cf50a886af17d91dcebb8e35250f858784600001548560010160009054906101000a90046001600160a01b031686600201600001548760020160010154886002016002015489600201600301548a600201600401548b600701604051612c299a999897969594939291906159a4565b60405180910390a150505050505050565b6000828152600560205260409020600a8101805460ff196001600160a01b03851661010002166001600160a81b0319909116176002179055612c7b836137dc565b600281015460038201546001600160a01b03918216600081815260086020526040808220829055928416808252928120819055909285168314612cbe5782612cc0565b815b90506000836001600160a01b0316866001600160a01b031614612ce4576001612ce7565b60005b60ff1690506000846001600160a01b0316836001600160a01b031614612d0e576001612d11565b60005b60ff169050612d2288878484613899565b6000600960008a88604051602001612d3b92919061551f565b6040516020818303038152906040528051906020012081526020019081526020016000206000876001600160a01b03166001600160a01b031681526020019081526020016000206002016000015490506000600960008b88604051602001612da492919061551f565b60408051601f19818403018152918152815160209283012083528282019390935290820160009081206001600160a01b038a168252909152908120600201549150821580612df0575081155b90508015612f3057600c546001600160a01b0316636a0558a660048b018760028110612e1e57612e1e61553f565b01546040516001600160e01b031960e084901b168152600481019190915260646024820152604401600060405180830381600087803b158015612e6057600080fd5b505af1158015612e74573d6000803e3d6000fd5b5050600c546001600160a01b03169150636a0558a6905060048b018660028110612ea057612ea061553f565b01546040516001600160e01b031960e084901b1681526004810191909152601e6024820152604401600060405180830381600087803b158015612ee257600080fd5b505af1158015612ef6573d6000803e3d6000fd5b50505050606489600d01600e018660028110612f1457612f1461553f565b0155601e601b8a018560028110612f2d57612f2d61553f565b01555b856001600160a01b03168a6001600160a01b03168c7f0baf086d5a49a7d9df72185aa0488cadd724e398bb5e99c615ee24c699deba918c600101604051612f779190615a41565b60405180910390a45050505050505050505050565b80516a636f6e736f6c652e6c6f67602083016000808483855afa5050505050565b6000808383604051602001612fc392919061551f565b60408051601f1981840301815291815281516020928301206000908152600983528181206001600160a01b0387168252909252902091505092915050565b6000806000806000806000806000613039600e60009054906101000a90046001600160a01b03168c8c613ae79092919063ffffffff16565b9750975097509750975097509750975060005b86518110156131cd578780156130c857506040516339ba3ab760e11b6020820152602401604051602081830303815290604052805190602001208582815181106130985761309861553f565b60200260200101516040516020016130b09190615a54565b60405160208183030381529060405280519060200120145b156131bb5760018b015487516001600160a01b03909116908e907f42cc68fd968d66bad9f556a6420453409337a500953cec681ce375d56c143d8e908a90859081106131165761311661553f565b60200260200101518985815181106131305761313061553f565b602002602001015189868151811061314a5761314a61553f565b60200260200101518987815181106131645761316461553f565b602002602001015189888151811061317e5761317e61553f565b60200260200101518989815181106131985761319861553f565b60200260200101516040516131b296959493929190615a70565b60405180910390a35b806131c5816155ec565b91505061304c565b50969b9a5050505050505050505050565b6006830154600019016132275760038260020160030160008282546132039190615846565b90915550600390506019840160000160008282546132219190615846565b90915550505b60078301546000190161327057600381600201600301600082825461324c9190615846565b909155506003905060198401600101600082825461326a9190615846565b90915550505b505050565b61327d614c5b565b613285614c5b565b61328d614c5b565b613295614c5b565b60068701546007880154811580156132ab575080155b156132c4576132bb8989896143c9565b9450925061337d565b811580156132d25750600181145b156132e2576132bb8989896144fa565b6001821480156132f0575080155b15613300576132bb89898961460d565b8115801561330e5750600381145b1561331e576132bb898989614718565b60038214801561332c575080155b1561333c576132bb8989896147a2565b8115801561334a5750600281145b1561335a576132bb898989614718565b600282148015613368575080155b1561337d5761337889898961484c565b945092505b50909791965090945050505050565b60008060008061271088111561342157600f5460405163681377c960e01b8152600481018a90526000916001600160a01b03169063681377c99060240161014060405180830381865afa1580156133e7573d6000803e3d6000fd5b505050506040513d601f19601f8201168201806040525081019061340b9190615ace565b90508060c0015192508060e00151915050613428565b5086905060005b600d54604051635ec407d760e11b8152600481018490526000916001600160a01b03169063bd880fae90602401600060405180830381865afa158015613472573d6000803e3d6000fd5b505050506040513d6000823e601f3d908101601f1916820160405261349a9190810190615ba8565b905060006103e882604001518c600c01546134b59190615859565b6134bf9190615c4b565b90506134ce8b600c01546148c6565b6134db82604001516148c6565b6134e4816148c6565b6001880361355457600489015481116134fe57600061350d565b600489015461350d908261556b565b905080896002016000015411613527576004890154613529565b805b60158e01886002811061353e5761353e61553f565b01600082825461354e9190615846565b90915550505b801561359d576002890154811015613595578089600201600001600082825461357d919061556b565b90915550506002890154613590906148c6565b61359d565b600060028a01555b8a60010160009054906101000a90046001600160a01b03166001600160a01b03168d600001547f1ecb56d20fc766331c458aed06ae76e03aa301e223d100edbc01a21eaf7ffa228e878660200151866040516135fc9493929190615c5f565b60405180910390a3606082015160058c01805460009061361d90849061556b565b909155505082156136b8578c54600e54604051631187bd5160e01b8152600481018690526136b892918f916001600160a01b0390911690631187bd5190602401600060405180830381865afa15801561367a573d6000803e3d6000fd5b505050506040513d6000823e601f3d908101601f191682016040526136a29190810190615c9f565b604001516136b0578b6136b2565b8d5b8661490b565b600081116136c75760006136d6565b60018901546001600160a01b03165b9d909c509a5050505050505050505050565b8451156137005760018401546001600160a01b031681525b60208501511561371e5760018301546001600160a01b031660208201525b84518251839061372f908390615846565b9052506020808601519083018051613748908390615846565b9052505050505050565b611fb98282604051602401613768929190615d89565b60408051601f198184030181529190526020810180516001600160e01b031663319af33360e01b179052612f8c565b611fb982826040516024016137ad929190615db3565b60408051601f198184030181529190526020810180516001600160e01b0316632d839cb360e21b179052612f8c565b6000818152600760205260408120546006549091906137fd9060019061556b565b90506000600682815481106138145761381461553f565b9060005260206000200154905080600684815481106138355761383561553f565b600091825260208083209091019290925582815260079091526040902083905560068054806138665761386661557e565b60019003818190600052602060002001600090559055600760008581526020019081526020016000206000905550505050565b60008360020183600281106138b0576138b061553f565b01546001600160a01b031690506000600280860190849081106138d5576138d561553f565b01546040516001600160a01b03909116915060009060099082906138ff908a90879060200161551f565b60408051601f19818403018152918152815160209283012083528282019390935290820160009081206001600160a01b03871682529091522060050154600f870186600281106139515761395161553f565b015461395d919061556b565b9050600060096000898560405160200161397892919061551f565b60408051601f19818403018152918152815160209283012083528282019390935290820160009081206001600160a01b03871682529091522060050154600f880186600281106139ca576139ca61553f565b01546139d6919061556b565b600c549091506001600160a01b03166345d5007e6004890188600281106139ff576139ff61553f565b0154846040518363ffffffff1660e01b8152600401613a28929190918252602082015260400190565b600060405180830381600087803b158015613a4257600080fd5b505af1158015613a56573d6000803e3d6000fd5b5050600c546001600160a01b031691506345d5007e9050600489018760028110613a8257613a8261553f565b0154836040518363ffffffff1660e01b8152600401613aab929190918252602082015260400190565b600060405180830381600087803b158015613ac557600080fd5b505af1158015613ad9573d6000803e3d6000fd5b505050505050505050505050565b60088301546000908190606090819081908190819081906001600160401b03811115613b1557613b156152c0565b604051908082528060200260200182016040528015613b3e578160200160208202803683370190505b5060088c01549096506001600160401b03811115613b5e57613b5e6152c0565b604051908082528060200260200182016040528015613b9157816020015b6060815260200190600190039081613b7c5790505b5060088c01549095506001600160401b03811115613bb157613bb16152c0565b604051908082528060200260200182016040528015613be457816020015b6060815260200190600190039081613bcf5790505b5060088c01549094506001600160401b03811115613c0457613c046152c0565b604051908082528060200260200182016040528015613c2d578160200160208202803683370190505b5060088c01549093506001600160401b03811115613c4d57613c4d6152c0565b604051908082528060200260200182016040528015613c76578160200160208202803683370190505b5060088c01549092506001600160401b03811115613c9657613c966152c0565b604051908082528060200260200182016040528015613cbf578160200160208202803683370190505b50905060005b60088c01548110156143a95760008c6008018281548110613ce857613ce861553f565b6000918252602082200154604051631187bd5160e01b8152600481018290529092506001600160a01b038e1690631187bd5190602401600060405180830381865afa158015613d3b573d6000803e3d6000fd5b505050506040513d6000823e601f3d908101601f19168201604052613d639190810190615c9f565b90508061014001518015613d865750600082815260098f01602052604090205415155b15613dea57600199506040518060400160405280600481526020016339ba3ab760e11b815250878481518110613dbe57613dbe61553f565b60200260200101819052506001868481518110613ddd57613ddd61553f565b6020026020010181815250505b600082815260098f0160205260408120805460019290613e0b90849061556b565b9091555050608081015115613e8e57613e298e8383608001516149f1565b6040518060400160405280600b81526020016a185d1d1858dad09bdbdcdd60aa1b815250878481518110613e5f57613e5f61553f565b60200260200101819052508060800151868481518110613e8157613e8161553f565b6020026020010181815250505b60a081015115613f1057613ea78e838360a00151614a38565b6040518060400160405280600f81526020016e30ba3a30b1b5a932b23ab1ba34b7b760891b815250878481518110613ee157613ee161553f565b60200260200101819052508060a00151868481518110613f0357613f0361553f565b6020026020010181815250505b60c081015115613f8f57613f298e838360c00151614a97565b6040518060400160405280600c81526020016b191959995b9cd9509bdbdcdd60a21b815250878481518110613f6057613f6061553f565b60200260200101819052508060c00151868481518110613f8257613f8261553f565b6020026020010181815250505b60e08101511561401257613fa88e838360e00151614ade565b6040518060400160405280601081526020016f3232b332b739b2a932b23ab1ba34b7b760811b815250878481518110613fe357613fe361553f565b60200260200101819052508060e001518684815181106140055761400561553f565b6020026020010181815250505b610100810151156140925761402c8e826101000151614b3d565b6040518060400160405280600b81526020016a3432b0b62832b92a3ab93760a91b8152508784815181106140625761406261553f565b60200260200101819052508061010001518684815181106140855761408561553f565b6020026020010181815250505b610120810151156141495760008e6002016000015490506140b88f836101200151614b5d565b60028f01548111156140e05760028f01546140d3908261556b565b6140dd908d615846565b9b505b6040518060400160405280600d81526020016c3230b6b0b3b2a832b92a3ab93760991b8152508885815181106141185761411861553f565b602002602001018190525081610120015187858151811061413b5761413b61553f565b602002602001018181525050505b600082815260098f0160205260408120549003614300576080810151156141a157608081015160038f01805460009061418390849061556b565b90915550506000828152600a8f0160205260409020805460ff191690555b60a0810151156141e25760a081015160038f0180546000906141c4908490615846565b90915550506000828152600a8f0160205260409020805460ff191690555b60c0810151156142235760c081015160048f01805460009061420590849061556b565b90915550506000828152600a8f0160205260409020805460ff191690555b60e0810151156142645760e081015160048f018054600090614246908490615846565b90915550506000828152600a8f0160205260409020805460ff191690555b60088e0154600110156142c05760088e0180546142839060019061556b565b815481106142935761429361553f565b90600052602060002001548e60080184815481106142b3576142b361553f565b6000918252602090912001555b8d6008018054806142d3576142d361557e565b60019003818190600052602060002001600090559055600083111561430057826142fc81615dc6565b9350505b818984815181106143135761431361553f565b60200260200101818152505080602001518884815181106143365761433661553f565b60200260200101819052508b8584815181106143545761435461553f565b6020026020010181815250508d6009016000838152602001908152602001600020548484815181106143885761438861553f565b602002602001018181525050505080806143a1906155ec565b915050613cc5565b50600b8b01805488151560ff199091161790559397509397509397509397565b6143d1614c5b565b6143d9614c5b565b60006103e885600c015486600201600101546143f59190615859565b6143ff9190615c4b565b905060006103e885600c0154866002016001015461441d9190615859565b6144279190615c4b565b90508185600201600001541161443e57600061444e565b600285015461444e90839061556b565b6002808701919091558601548110614467576000614477565b600286015461447790829061556b565b60028701556005860180546003919060009061449490849061556b565b9091555050600585018054600391906000906144b190849061556b565b909155505060408051808201825260028901546001600160a01b0390811682526003909901549098166020808a0191909152815180830190925292815291820152959350505050565b614502614c5b565b61450a614c5b565b6040518060400160405280600081526020016000815250915060006103e885600c0154866002016001015461453f9190615859565b6145499190615c4b565b905080846002016002015410156145cb57600484015460009061456c908361556b565b905080856002016000015411614583576000614593565b600285015461459390829061556b565b600286015560038701546001600160a01b0316835280845260048501546016880180546000906145c4908490615846565b9091555050505b806015870160010160008282546145e29190615846565b9091555050600585018054600391906000906145ff90849061556b565b909155505050935093915050565b614615614c5b565b61461d614c5b565b6040518060400160405280600081526020016000815250915060006103e884600c015485600201600101546146529190615859565b61465c9190615c4b565b905080856002016002015410156146e457600485015460009061467f908361556b565b9050808660020160000154116146965760006146a6565b60028601546146a690829061556b565b6002878101919091558701546001600160a01b031683526020840181905260048601546015880180546000906146dd908490615846565b9091555050505b806015870160000160008282546146fb9190615846565b9091555050600584018054600391906000906145ff90849061556b565b614720614c5b565b614728614c5b565b60006103e885600c015486600201600101546147449190615859565b61474e9190615c4b565b905080846002016000015411614765576000614775565b600284015461477590829061556b565b60028501556003808701546001600160a01b031683528184526005860180546000906145ff90849061556b565b6147aa614c5b565b6147b2614c5b565b60006103e884600c015485600201600101546147ce9190615859565b6147d89190615c4b565b9050808560020160000154116147ef5760006147ff565b60028501546147ff90829061556b565b6002868101919091558601546001600160a01b03168260005b6001600160a01b039092166020929092020152808360016020020152600584018054600391906000906145ff90849061556b565b614854614c5b565b61485c614c5b565b60006103e884600c015485600201600101546148789190615859565b6148829190615c4b565b9050808560020160000154116148995760006148a9565b60028501546148a990829061556b565b6002868101919091558601546001600160a01b0316826001614818565b6104fe816040516024016148dc91815260200190565b60408051601f198184030181529190526020810180516001600160e01b031663f82c50f160e01b179052612f8c565b600e54604051631187bd5160e01b8152600481018390526000916001600160a01b031690631187bd5190602401600060405180830381865afa158015614955573d6000803e3d6000fd5b505050506040513d6000823e601f3d908101601f1916820160405261497d9190810190615c9f565b8051606082015191925061499391859190614bcf565b6001830154602082015160608301516040516001600160a01b039093169288927ff8c9f3444c314390f17c07435638f20d537b994d7767fd8e9a2bd203791d3ef7926149e2928a929190615ddd565b60405180910390a35050505050565b6000828152600a8401602052604090205460ff16613270576000828152600a840160205260408120805460ff1916600117905560038401805483929061326a908490615846565b6000828152600a8401602052604090205460ff16613270576000828152600a840160205260409020805460ff1916600117905560038301548110614a7d576000614a8d565b6003830154614a8d90829061556b565b6003840155505050565b6000828152600a8401602052604090205460ff16613270576000828152600a840160205260408120805460ff1916600117905560048401805483929061326a908490615846565b6000828152600a8401602052604090205460ff16613270576000828152600a840160205260409020805460ff1916600117905560048301548110614b23576000614b33565b6004830154614b3390829061556b565b6004840155505050565b80826002016000016000828254614b549190615846565b90915550505050565b6002820154614b6b906148c6565b614b9d6040518060400160405280601081526020016f64616d616765206f7665722074696d6560801b81525082613797565b60028201548110614baf576000614bbf565b6002820154614bbf90829061556b565b60028301819055611fb9906148c6565b60005b6008840154811015614c2b5782846008018281548110614bf457614bf461553f565b906000526020600020015403614c195750600091825260099092016020526040902055565b80614c23816155ec565b915050614bd2565b50600883018054600181018255600091825260208083209091018490559281526009909301909152604090912055565b60405180604001604052806002906020820280368337509192915050565b6040518061016001604052806000815260200160608152602001614c9b614c5b565b8152602001614ca8614c5b565b8152602001614cb5614c5b565b8152602001614cc2614c5b565b81526020016000815260006020820152604001614cdd614c5b565b815260200160008152602001614cf1614e43565b905290565b8260028101928215614d3e579160200282015b82811115614d3e57825182546001600160a01b0319166001600160a01b03909116178255602090920191600190910190614d09565b50614d4a929150614ebf565b5090565b8260028101928215614d3e579160200282015b82811115614d3e578251825591602001919060010190614d61565b600183019183908215614d3e5791602002820160005b83821115614dcf57835183826101000a81548160ff0219169083151502179055509260200192600101602081600001049283019260010302614d92565b8015614dfc5782816101000a81549060ff0219169055600101602081600001049283019260010302614dcf565b5050614d4a929150614ebf565b828054828255906000526020600020908101928215614d3e5791602002820182811115614d3e578251825591602001919060010190614d61565b604051806101200160405280614e57614c5b565b8152602001614e64614c5b565b8152602001614e71614c5b565b8152602001614e7e614c5b565b8152602001614e8b614c5b565b8152602001614e98614c5b565b8152602001614ea5614c5b565b8152602001614eb2614c5b565b8152602001614cf1614c5b565b5b80821115614d4a5760008155600101614ec0565b600060208284031215614ee657600080fd5b5035919050565b6001600160a01b03811681146104fe57600080fd5b600060208284031215614f1457600080fd5b8135614f1f81614eed565b9392505050565b600081518084526020808501945080840160005b83811015614f5657815187529582019590820190600101614f3a565b509495945050505050565b602081526000614f1f6020830184614f26565b8060005b6002811015614fa05781516001600160a01b0316845260209384019390910190600101614f78565b50505050565b604081016106288284614f74565b60008060408385031215614fc757600080fd5b823591506020830135614fd981614eed565b809150509250929050565b60005b83811015614fff578181015183820152602001614fe7565b50506000910152565b60008151808452615020816020860160208601614fe4565b601f01601f19169290920160200192915050565b634e487b7160e01b600052602160045260246000fd5b6003811061505a5761505a615034565b9052565b8060005b6002811015614fa0578151845260209384019390910190600101615062565b61508c82825161505e565b602081015161509e604084018261505e565b5060408101516150b1608084018261505e565b5060608101516150c460c084018261505e565b5060808101516101006150d98185018361505e565b60a083015191506150ee61014085018361505e565b60c0830151915061510361018085018361505e565b60e083015191506151186101c085018361505e565b820151905061327061020084018261505e565b60006102e088835280602084015261514581840189615008565b915050615155604083018761504a565b6001600160a01b03851660608301526080820184905261517860a0830184615081565b979650505050505050565b60008060006060848603121561519857600080fd5b833592506020840135600481106151ae57600080fd5b929592945050506040919091013590565b8060005b6002811015614fa057815115158452602093840193909101906001016151c3565b602081528151602082015260006020830151610420604084015261520c610440840182615008565b905060408401516152206060850182614f74565b50606084015161523360a085018261505e565b50608084015161524660e085018261505e565b5060a084015161012061525b8186018361505e565b60c0860151915061527061016086018361504a565b60e08601516001600160a01b0316610180860152610100860151915061529a6101a08601836151bf565b8501516101e0850152506101408401516152b8610200850182615081565b509392505050565b634e487b7160e01b600052604160045260246000fd5b60405160c081016001600160401b03811182821017156152f8576152f86152c0565b60405290565b60405161014081016001600160401b03811182821017156152f8576152f86152c0565b60405161016081016001600160401b03811182821017156152f8576152f86152c0565b604051601f8201601f191681016001600160401b038111828210171561536c5761536c6152c0565b604052919050565b60006001600160401b0382111561538d5761538d6152c0565b50601f01601f191660200190565b600080604083850312156153ae57600080fd5b82356001600160401b038111156153c457600080fd5b8301601f810185136153d557600080fd5b80356153e86153e382615374565b615344565b8181528660208385010111156153fd57600080fd5b8160208401602083013760006020928201830152969401359450505050565b60408101610628828461505e565b60408152600061543d6040830185614f26565b828103602084015261544f8185614f26565b95945050505050565b60006020808352610120830184518285015260018060a01b03828601511660408501526040850151606085015260608501516080850152608085015160a085015260a085015160c085015260c085015160e085015260e0850151610100808187015250818151808452610140870191508483019350600092505b808310156154f257835182529284019260019290920191908401906154d2565b509695505050505050565b6000806040838503121561551057600080fd5b50508035926020909101359150565b91825260601b6bffffffffffffffffffffffff1916602082015260340190565b634e487b7160e01b600052603260045260246000fd5b634e487b7160e01b600052601160045260246000fd5b8181038181111561062857610628615555565b634e487b7160e01b600052603160045260246000fd5b600181811c908216806155a857607f821691505b6020821081036155c857634e487b7160e01b600052602260045260246000fd5b50919050565b60408101600484106155e2576155e2615034565b9281526020015290565b6000600182016155fe576155fe615555565b5060010190565b60006020828403121561561757600080fd5b8151614f1f81614eed565b6020808252602e908201527f506c6179657220616c72656164792070617274696369706174696e6720696e2060408201526d616e6f7468657220626174746c6560901b606082015260800190565b601f82111561327057600081815260208120601f850160051c810160208610156156975750805b601f850160051c820191505b818110156156b6578281556001016156a3565b505050505050565b81516001600160401b038111156156d7576156d76152c0565b6156eb816156e58454615594565b84615670565b602080601f83116001811461572057600084156157085750858301515b600019600386901b1c1916600185901b1785556156b6565b600085815260208120601f198616915b8281101561574f57888601518255948401946001909101908401615730565b508582101561576d5787850151600019600388901b60f8161c191681555b5050505050600190811b01905550565b6000815461578a81615594565b8085526020600183811680156157a757600181146157c1576157ef565b60ff1985168884015283151560051b8801830195506157ef565b866000528260002060005b858110156157e75781548a82018601529083019084016157cc565b890184019650505b505050505092915050565b60408152600061580d604083018561577d565b90508260208301529392505050565b634e487b7160e01b600052601260045260246000fd5b6000826158415761584161581c565b500690565b8082018082111561062857610628615555565b808202811582820484141761062857610628615555565b60c0810161587e8286614f74565b61588b604083018561505e565b615898608083018461505e565b949350505050565b600060208083850312156158b357600080fd5b82516001600160401b03808211156158ca57600080fd5b9084019060c082870312156158de57600080fd5b6158e66152d6565b82518152838301518482015260408301516040820152606083015160608201526080830151608082015260a08301518281111561592257600080fd5b80840193505086601f84011261593757600080fd5b825182811115615949576159496152c0565b8060051b925061595a858401615344565b818152928401850192858101908985111561597457600080fd5b948601945b8486101561599257855182529486019490860190615979565b60a08401525090979650505050505050565b60006101408083018d8452602060018060a01b03808f16828701528d6040870152808d166060870152508a60808601528960a08601528860c08601528760e086015286610100860152826101208601528192508554808352610160860193508660005281600020925060005b81811015615a2c57835485529382019360019384019301615a10565b50929f9e505050505050505050505050505050565b602081526000614f1f602083018461577d565b60008251615a66818460208701614fe4565b9190910192915050565b86815260c060208201526000615a8960c0830188615008565b8281036040840152615a9b8188615008565b60608401969096525050608081019290925260a0909101529392505050565b805160058110615ac957600080fd5b919050565b60006101408284031215615ae157600080fd5b615ae96152fe565b8251815260208301516020820152615b0360408401615aba565b6040820152615b1460608401615aba565b60608201526080830151608082015260a083015160a082015260c083015160c082015260e083015160e08201526101008084015181830152506101208084015181830152508091505092915050565b600082601f830112615b7457600080fd5b8151615b826153e382615374565b818152846020838601011115615b9757600080fd5b615898826020830160208701614fe4565b600060208284031215615bba57600080fd5b81516001600160401b0380821115615bd157600080fd5b9083019060808286031215615be557600080fd5b604051608081018181108382111715615c0057615c006152c0565b60405282518152602083015182811115615c1957600080fd5b615c2587828601615b63565b602083015250604083015160408201526060830151606082015280935050505092915050565b600082615c5a57615c5a61581c565b500490565b848152836020820152608060408201526000615c7e6080830185615008565b905082606083015295945050505050565b80518015158114615ac957600080fd5b600060208284031215615cb157600080fd5b81516001600160401b0380821115615cc857600080fd5b908301906101608286031215615cdd57600080fd5b615ce5615321565b82518152602083015182811115615cfb57600080fd5b615d0787828601615b63565b602083015250615d1960408401615c8f565b6040820152606083015160608201526080830151608082015260a083015160a082015260c083015160c082015260e083015160e082015261010091508183015182820152610120915081830151828201526101409150615d7a828401615c8f565b91810191909152949350505050565b604081526000615d9c6040830185615008565b905060018060a01b03831660208301529392505050565b60408152600061580d6040830185615008565b600081615dd557615dd5615555565b506000190190565b838152606060208201526000615df66060830185615008565b905082604083015294935050505056fe4368617261637465722070726f7879206372656174656420666f7220706c61796572a264697066735822122034922b62713cde237540d28098be58fdd2cf17fdc2567b780097246535e854aa64736f6c63430008110033",
  "linkReferences": {},
  "deployedLinkReferences": {}
}