{
  "_format": "hh-sol-artifact-1",
  "contractName": "Battle",
  "sourceName": "contracts/Battle.sol",
  "abi": [
    {
      "inputs": [
        {
          "internalType": "address",
          "name": "_characterContractAddress",
          "type": "address"
        },
        {
          "internalType": "address",
          "name": "_battleSkillsContractAddress",
          "type": "address"
        },
        {
          "internalType": "address",
          "name": "_battleEffectsContractAddress",
          "type": "address"
        },
        {
          "internalType": "address",
          "name": "_compositeTokensContractAddress",
          "type": "address"
        }
      ],
      "stateMutability": "nonpayable",
      "type": "constructor"
    },
    {
      "anonymous": false,
      "inputs": [
        {
          "indexed": true,
          "internalType": "uint256",
          "name": "battleId",
          "type": "uint256"
        },
        {
          "indexed": true,
          "internalType": "address",
          "name": "player",
          "type": "address"
        }
      ],
      "name": "BattleCancelled",
      "type": "event"
    },
    {
      "anonymous": false,
      "inputs": [
        {
          "indexed": true,
          "internalType": "uint256",
          "name": "battleId",
          "type": "uint256"
        },
        {
          "indexed": true,
          "internalType": "address",
          "name": "creator",
          "type": "address"
        },
        {
          "indexed": false,
          "internalType": "uint256",
          "name": "characterId",
          "type": "uint256"
        }
      ],
      "name": "BattleCreated",
      "type": "event"
    },
    {
      "anonymous": false,
      "inputs": [
        {
          "indexed": false,
          "internalType": "string",
          "name": "battleName",
          "type": "string"
        },
        {
          "indexed": true,
          "internalType": "uint256",
          "name": "battleId",
          "type": "uint256"
        },
        {
          "indexed": true,
          "internalType": "address",
          "name": "winner",
          "type": "address"
        },
        {
          "indexed": true,
          "internalType": "address",
          "name": "loser",
          "type": "address"
        }
      ],
      "name": "BattleEnded",
      "type": "event"
    },
    {
      "anonymous": false,
      "inputs": [
        {
          "indexed": true,
          "internalType": "uint256",
          "name": "battleId",
          "type": "uint256"
        },
        {
          "indexed": false,
          "internalType": "uint256",
          "name": "round",
          "type": "uint256"
        },
        {
          "indexed": true,
          "internalType": "address",
          "name": "quitter",
          "type": "address"
        }
      ],
      "name": "BattleQuit",
      "type": "event"
    },
    {
      "anonymous": false,
      "inputs": [
        {
          "indexed": false,
          "internalType": "uint256",
          "name": "battleId",
          "type": "uint256"
        },
        {
          "indexed": false,
          "internalType": "address",
          "name": "player",
          "type": "address"
        },
        {
          "indexed": false,
          "internalType": "uint256",
          "name": "id",
          "type": "uint256"
        },
        {
          "indexed": false,
          "internalType": "address",
          "name": "owner",
          "type": "address"
        },
        {
          "indexed": false,
          "internalType": "uint256",
          "name": "health",
          "type": "uint256"
        },
        {
          "indexed": false,
          "internalType": "uint256",
          "name": "attack",
          "type": "uint256"
        },
        {
          "indexed": false,
          "internalType": "uint256",
          "name": "defense",
          "type": "uint256"
        },
        {
          "indexed": false,
          "internalType": "uint256",
          "name": "mana",
          "type": "uint256"
        },
        {
          "indexed": false,
          "internalType": "uint256",
          "name": "typeId",
          "type": "uint256"
        },
        {
          "indexed": false,
          "internalType": "uint256[]",
          "name": "equippedSkills",
          "type": "uint256[]"
        }
      ],
      "name": "CharacterProxyData",
      "type": "event"
    },
    {
      "anonymous": false,
      "inputs": [
        {
          "indexed": true,
          "internalType": "uint256",
          "name": "battleId",
          "type": "uint256"
        },
        {
          "indexed": true,
          "internalType": "address",
          "name": "player",
          "type": "address"
        },
        {
          "indexed": false,
          "internalType": "uint256",
          "name": "round",
          "type": "uint256"
        },
        {
          "indexed": false,
          "internalType": "uint256",
          "name": "diceNumber",
          "type": "uint256"
        }
      ],
      "name": "DiceRolled",
      "type": "event"
    },
    {
      "anonymous": false,
      "inputs": [
        {
          "indexed": true,
          "internalType": "uint256",
          "name": "battleId",
          "type": "uint256"
        },
        {
          "indexed": true,
          "internalType": "address",
          "name": "player1",
          "type": "address"
        },
        {
          "indexed": false,
          "internalType": "uint256",
          "name": "health1",
          "type": "uint256"
        },
        {
          "indexed": true,
          "internalType": "address",
          "name": "player2",
          "type": "address"
        },
        {
          "indexed": false,
          "internalType": "uint256",
          "name": "health2",
          "type": "uint256"
        }
      ],
      "name": "HealthUpdated",
      "type": "event"
    },
    {
      "anonymous": false,
      "inputs": [
        {
          "indexed": true,
          "internalType": "uint256",
          "name": "battleId",
          "type": "uint256"
        },
        {
          "indexed": true,
          "internalType": "address",
          "name": "player",
          "type": "address"
        },
        {
          "indexed": false,
          "internalType": "enum StructsLibrary.Move",
          "name": "move",
          "type": "uint8"
        },
        {
          "indexed": false,
          "internalType": "uint256",
          "name": "round",
          "type": "uint256"
        }
      ],
      "name": "MoveSubmitted",
      "type": "event"
    },
    {
      "anonymous": false,
      "inputs": [
        {
          "indexed": false,
          "internalType": "string",
          "name": "battleName",
          "type": "string"
        },
        {
          "indexed": true,
          "internalType": "uint256",
          "name": "battleId",
          "type": "uint256"
        },
        {
          "indexed": true,
          "internalType": "address",
          "name": "player1",
          "type": "address"
        },
        {
          "indexed": true,
          "internalType": "address",
          "name": "player2",
          "type": "address"
        },
        {
          "indexed": false,
          "internalType": "uint256",
          "name": "characterId",
          "type": "uint256"
        }
      ],
      "name": "NewBattle",
      "type": "event"
    },
    {
      "anonymous": false,
      "inputs": [
        {
          "indexed": true,
          "internalType": "address",
          "name": "prevOwner",
          "type": "address"
        },
        {
          "indexed": true,
          "internalType": "address",
          "name": "newOwner",
          "type": "address"
        }
      ],
      "name": "OwnerUpdated",
      "type": "event"
    },
    {
      "anonymous": false,
      "inputs": [
        {
          "indexed": true,
          "internalType": "uint256",
          "name": "battleId",
          "type": "uint256"
        },
        {
          "indexed": false,
          "internalType": "address[2]",
          "name": "damagedPlayers",
          "type": "address[2]"
        },
        {
          "indexed": false,
          "internalType": "uint256[2]",
          "name": "damageDealt",
          "type": "uint256[2]"
        },
        {
          "indexed": false,
          "internalType": "uint256[2]",
          "name": "damageTaken",
          "type": "uint256[2]"
        },
        {
          "indexed": true,
          "internalType": "uint256",
          "name": "round",
          "type": "uint256"
        }
      ],
      "name": "RoundEnded",
      "type": "event"
    },
    {
      "anonymous": false,
      "inputs": [
        {
          "indexed": true,
          "internalType": "uint256",
          "name": "battleId",
          "type": "uint256"
        },
        {
          "indexed": false,
          "internalType": "uint256",
          "name": "round",
          "type": "uint256"
        },
        {
          "indexed": true,
          "internalType": "address",
          "name": "player",
          "type": "address"
        },
        {
          "indexed": false,
          "internalType": "uint256",
          "name": "skillId",
          "type": "uint256"
        },
        {
          "indexed": false,
          "internalType": "string",
          "name": "skillName",
          "type": "string"
        },
        {
          "indexed": false,
          "internalType": "uint256",
          "name": "totalDamage",
          "type": "uint256"
        }
      ],
      "name": "SkillExecuted",
      "type": "event"
    },
    {
      "anonymous": false,
      "inputs": [
        {
          "indexed": true,
          "internalType": "uint256",
          "name": "battleId",
          "type": "uint256"
        },
        {
          "indexed": false,
          "internalType": "uint256",
          "name": "round",
          "type": "uint256"
        },
        {
          "indexed": true,
          "internalType": "address",
          "name": "character",
          "type": "address"
        },
        {
          "indexed": false,
          "internalType": "string",
          "name": "statusEffectName",
          "type": "string"
        },
        {
          "indexed": false,
          "internalType": "uint256",
          "name": "duration",
          "type": "uint256"
        }
      ],
      "name": "StatusEffectApplied",
      "type": "event"
    },
    {
      "anonymous": false,
      "inputs": [
        {
          "indexed": true,
          "internalType": "uint256",
          "name": "battleId",
          "type": "uint256"
        },
        {
          "indexed": true,
          "internalType": "address",
          "name": "player",
          "type": "address"
        },
        {
          "indexed": false,
          "internalType": "uint256",
          "name": "effectId",
          "type": "uint256"
        },
        {
          "indexed": false,
          "internalType": "string",
          "name": "effectName",
          "type": "string"
        },
        {
          "indexed": false,
          "internalType": "string",
          "name": "effectType",
          "type": "string"
        },
        {
          "indexed": false,
          "internalType": "uint256",
          "name": "effectValue",
          "type": "uint256"
        },
        {
          "indexed": false,
          "internalType": "uint256",
          "name": "round",
          "type": "uint256"
        },
        {
          "indexed": false,
          "internalType": "uint256",
          "name": "duration",
          "type": "uint256"
        }
      ],
      "name": "StatusEffectResolved",
      "type": "event"
    },
    {
      "stateMutability": "payable",
      "type": "fallback"
    },
    {
      "inputs": [
        {
          "internalType": "uint256",
          "name": "",
          "type": "uint256"
        }
      ],
      "name": "activeBattlesId",
      "outputs": [
        {
          "internalType": "uint256",
          "name": "",
          "type": "uint256"
        }
      ],
      "stateMutability": "view",
      "type": "function"
    },
    {
      "inputs": [],
      "name": "battleCounter",
      "outputs": [
        {
          "internalType": "uint256",
          "name": "",
          "type": "uint256"
        }
      ],
      "stateMutability": "view",
      "type": "function"
    },
    {
      "inputs": [
        {
          "internalType": "uint256",
          "name": "",
          "type": "uint256"
        }
      ],
      "name": "battles",
      "outputs": [
        {
          "internalType": "uint256",
          "name": "battleId",
          "type": "uint256"
        },
        {
          "internalType": "string",
          "name": "name",
          "type": "string"
        },
        {
          "internalType": "enum StructsLibrary.BattleStatus",
          "name": "battleStatus",
          "type": "uint8"
        },
        {
          "internalType": "address",
          "name": "winner",
          "type": "address"
        },
        {
          "internalType": "uint256",
          "name": "round",
          "type": "uint256"
        },
        {
          "components": [
            {
              "internalType": "uint256[2]",
              "name": "initialHealth",
              "type": "uint256[2]"
            },
            {
              "internalType": "uint256[2]",
              "name": "initialMana",
              "type": "uint256[2]"
            },
            {
              "internalType": "uint256[2]",
              "name": "totalDamageDealt",
              "type": "uint256[2]"
            },
            {
              "internalType": "uint256[2]",
              "name": "totalDamageTaken",
              "type": "uint256[2]"
            },
            {
              "internalType": "uint256[2]",
              "name": "damageReduced",
              "type": "uint256[2]"
            },
            {
              "internalType": "uint256[2]",
              "name": "healthRegenerated",
              "type": "uint256[2]"
            },
            {
              "internalType": "uint256[2]",
              "name": "manaRegenerated",
              "type": "uint256[2]"
            },
            {
              "internalType": "uint256[2]",
              "name": "expReceived",
              "type": "uint256[2]"
            },
            {
              "internalType": "uint256[2]",
              "name": "leagueBattlePointsEarned",
              "type": "uint256[2]"
            }
          ],
          "internalType": "struct StructsLibrary.BattleStats",
          "name": "battleStats",
          "type": "tuple"
        }
      ],
      "stateMutability": "view",
      "type": "function"
    },
    {
      "inputs": [
        {
          "internalType": "uint256",
          "name": "_battleId",
          "type": "uint256"
        }
      ],
      "name": "cancelBattle",
      "outputs": [],
      "stateMutability": "nonpayable",
      "type": "function"
    },
    {
      "inputs": [
        {
          "internalType": "string",
          "name": "_name",
          "type": "string"
        },
        {
          "internalType": "uint256",
          "name": "_characterTokenId",
          "type": "uint256"
        }
      ],
      "name": "createBattle",
      "outputs": [],
      "stateMutability": "nonpayable",
      "type": "function"
    },
    {
      "inputs": [],
      "name": "feeCollected",
      "outputs": [
        {
          "internalType": "uint256",
          "name": "",
          "type": "uint256"
        }
      ],
      "stateMutability": "view",
      "type": "function"
    },
    {
      "inputs": [],
      "name": "getActiveBattlesCount",
      "outputs": [
        {
          "internalType": "uint256",
          "name": "",
          "type": "uint256"
        }
      ],
      "stateMutability": "view",
      "type": "function"
    },
    {
      "inputs": [],
      "name": "getActiveBattlesId",
      "outputs": [
        {
          "internalType": "uint256[]",
          "name": "",
          "type": "uint256[]"
        }
      ],
      "stateMutability": "view",
      "type": "function"
    },
    {
      "inputs": [
        {
          "internalType": "uint256",
          "name": "_battleId",
          "type": "uint256"
        }
      ],
      "name": "getBattle",
      "outputs": [
        {
          "components": [
            {
              "internalType": "uint256",
              "name": "battleId",
              "type": "uint256"
            },
            {
              "internalType": "string",
              "name": "name",
              "type": "string"
            },
            {
              "internalType": "address[2]",
              "name": "players",
              "type": "address[2]"
            },
            {
              "internalType": "uint256[2]",
              "name": "characterIds",
              "type": "uint256[2]"
            },
            {
              "internalType": "uint256[2]",
              "name": "moves",
              "type": "uint256[2]"
            },
            {
              "internalType": "uint256[2]",
              "name": "skillIndices",
              "type": "uint256[2]"
            },
            {
              "internalType": "enum StructsLibrary.BattleStatus",
              "name": "battleStatus",
              "type": "uint8"
            },
            {
              "internalType": "address",
              "name": "winner",
              "type": "address"
            },
            {
              "internalType": "bool[2]",
              "name": "moveSubmitted",
              "type": "bool[2]"
            },
            {
              "internalType": "uint256",
              "name": "round",
              "type": "uint256"
            },
            {
              "components": [
                {
                  "internalType": "uint256[2]",
                  "name": "initialHealth",
                  "type": "uint256[2]"
                },
                {
                  "internalType": "uint256[2]",
                  "name": "initialMana",
                  "type": "uint256[2]"
                },
                {
                  "internalType": "uint256[2]",
                  "name": "totalDamageDealt",
                  "type": "uint256[2]"
                },
                {
                  "internalType": "uint256[2]",
                  "name": "totalDamageTaken",
                  "type": "uint256[2]"
                },
                {
                  "internalType": "uint256[2]",
                  "name": "damageReduced",
                  "type": "uint256[2]"
                },
                {
                  "internalType": "uint256[2]",
                  "name": "healthRegenerated",
                  "type": "uint256[2]"
                },
                {
                  "internalType": "uint256[2]",
                  "name": "manaRegenerated",
                  "type": "uint256[2]"
                },
                {
                  "internalType": "uint256[2]",
                  "name": "expReceived",
                  "type": "uint256[2]"
                },
                {
                  "internalType": "uint256[2]",
                  "name": "leagueBattlePointsEarned",
                  "type": "uint256[2]"
                }
              ],
              "internalType": "struct StructsLibrary.BattleStats",
              "name": "battleStats",
              "type": "tuple"
            }
          ],
          "internalType": "struct StructsLibrary.BattleData",
          "name": "",
          "type": "tuple"
        }
      ],
      "stateMutability": "view",
      "type": "function"
    },
    {
      "inputs": [
        {
          "internalType": "uint256",
          "name": "battleId",
          "type": "uint256"
        }
      ],
      "name": "getBattleMoves",
      "outputs": [
        {
          "internalType": "uint256[2]",
          "name": "",
          "type": "uint256[2]"
        }
      ],
      "stateMutability": "view",
      "type": "function"
    },
    {
      "inputs": [
        {
          "internalType": "uint256",
          "name": "battleId",
          "type": "uint256"
        }
      ],
      "name": "getBattleParticipants",
      "outputs": [
        {
          "internalType": "address[2]",
          "name": "",
          "type": "address[2]"
        }
      ],
      "stateMutability": "view",
      "type": "function"
    },
    {
      "inputs": [
        {
          "internalType": "uint256",
          "name": "battleId",
          "type": "uint256"
        },
        {
          "internalType": "address",
          "name": "player",
          "type": "address"
        }
      ],
      "name": "getCharacterHealth",
      "outputs": [
        {
          "internalType": "uint256",
          "name": "",
          "type": "uint256"
        }
      ],
      "stateMutability": "view",
      "type": "function"
    },
    {
      "inputs": [
        {
          "internalType": "uint256",
          "name": "battleId",
          "type": "uint256"
        },
        {
          "internalType": "address",
          "name": "player",
          "type": "address"
        }
      ],
      "name": "getCharacterProxy",
      "outputs": [
        {
          "components": [
            {
              "internalType": "uint256",
              "name": "id",
              "type": "uint256"
            },
            {
              "internalType": "address",
              "name": "owner",
              "type": "address"
            },
            {
              "internalType": "uint256",
              "name": "health",
              "type": "uint256"
            },
            {
              "internalType": "uint256",
              "name": "attack",
              "type": "uint256"
            },
            {
              "internalType": "uint256",
              "name": "defense",
              "type": "uint256"
            },
            {
              "internalType": "uint256",
              "name": "mana",
              "type": "uint256"
            },
            {
              "internalType": "uint256",
              "name": "typeId",
              "type": "uint256"
            },
            {
              "internalType": "uint256[]",
              "name": "equippedSkills",
              "type": "uint256[]"
            }
          ],
          "internalType": "struct StructsLibrary.CharacterProxyView",
          "name": "",
          "type": "tuple"
        }
      ],
      "stateMutability": "view",
      "type": "function"
    },
    {
      "inputs": [
        {
          "internalType": "uint256",
          "name": "battleId",
          "type": "uint256"
        },
        {
          "internalType": "address",
          "name": "player",
          "type": "address"
        }
      ],
      "name": "getCharacterProxyActiveEffects",
      "outputs": [
        {
          "internalType": "uint256[]",
          "name": "effectIds",
          "type": "uint256[]"
        },
        {
          "internalType": "uint256[]",
          "name": "durations",
          "type": "uint256[]"
        }
      ],
      "stateMutability": "view",
      "type": "function"
    },
    {
      "inputs": [
        {
          "internalType": "uint256",
          "name": "battleId",
          "type": "uint256"
        },
        {
          "internalType": "uint256",
          "name": "characterTokenId",
          "type": "uint256"
        }
      ],
      "name": "joinBattle",
      "outputs": [],
      "stateMutability": "nonpayable",
      "type": "function"
    },
    {
      "inputs": [],
      "name": "leagueRewards",
      "outputs": [
        {
          "internalType": "uint256",
          "name": "",
          "type": "uint256"
        }
      ],
      "stateMutability": "view",
      "type": "function"
    },
    {
      "inputs": [],
      "name": "owner",
      "outputs": [
        {
          "internalType": "address",
          "name": "",
          "type": "address"
        }
      ],
      "stateMutability": "view",
      "type": "function"
    },
    {
      "inputs": [
        {
          "internalType": "address",
          "name": "",
          "type": "address"
        }
      ],
      "name": "playerCredit",
      "outputs": [
        {
          "internalType": "uint256",
          "name": "",
          "type": "uint256"
        }
      ],
      "stateMutability": "view",
      "type": "function"
    },
    {
      "inputs": [
        {
          "internalType": "address",
          "name": "",
          "type": "address"
        }
      ],
      "name": "playerOngoingBattle",
      "outputs": [
        {
          "internalType": "uint256",
          "name": "",
          "type": "uint256"
        }
      ],
      "stateMutability": "view",
      "type": "function"
    },
    {
      "inputs": [
        {
          "internalType": "uint256",
          "name": "_battleId",
          "type": "uint256"
        }
      ],
      "name": "quitBattle",
      "outputs": [],
      "stateMutability": "nonpayable",
      "type": "function"
    },
    {
      "inputs": [
        {
          "internalType": "address",
          "name": "_newOwner",
          "type": "address"
        }
      ],
      "name": "setOwner",
      "outputs": [],
      "stateMutability": "nonpayable",
      "type": "function"
    },
    {
      "inputs": [],
      "name": "staminaCost",
      "outputs": [
        {
          "internalType": "uint256",
          "name": "",
          "type": "uint256"
        }
      ],
      "stateMutability": "view",
      "type": "function"
    },
    {
      "inputs": [
        {
          "internalType": "uint256",
          "name": "battleId",
          "type": "uint256"
        },
        {
          "internalType": "enum StructsLibrary.Move",
          "name": "move",
          "type": "uint8"
        },
        {
          "internalType": "uint256",
          "name": "skillId",
          "type": "uint256"
        }
      ],
      "name": "submitMove",
      "outputs": [],
      "stateMutability": "nonpayable",
      "type": "function"
    },
    {
      "inputs": [
        {
          "internalType": "uint256",
          "name": "newCost",
          "type": "uint256"
        }
      ],
      "name": "updateStaminaCost",
      "outputs": [],
      "stateMutability": "nonpayable",
      "type": "function"
    },
    {
      "stateMutability": "payable",
      "type": "receive"
    }
  ],
  "bytecode": "0x6080604052600a6004553480156200001657600080fd5b5060405162005c2338038062005c238339810160408190526200003991620000aa565b600c80546001600160a01b039586166001600160a01b031991821617909155600d805494861694821694909417909355600e805492851692841692909217909155600f805491909316911617905562000107565b80516001600160a01b0381168114620000a557600080fd5b919050565b60008060008060808587031215620000c157600080fd5b620000cc856200008d565b9350620000dc602086016200008d565b9250620000ec604086016200008d565b9150620000fc606086016200008d565b905092959194509250565b615b0c80620001176000396000f3fe6080604052600436106101435760003560e01c80636dd0ce7a116100b0578063a9b9be3f1161006c578063a9b9be3f146103cc578063ba7b5596146103e2578063d054fe001461040f578063daf241aa14610425578063dc55da6f14610453578063e44dba4f1461048057005b80636dd0ce7a146102dd5780636efe60c11461030a5780638bdb3b2f146103375780638da5cb5b1461035757806396033b761461037f578063a10d80de146103ac57005b806333056109116100ff57806333056109146102085780634188de5a146102355780634c4c447e14610255578063606d2e96146102755780636bc8e4a9146102a75780636ca7f95c146102c757005b8063068a1e491461014c578063086d35c2146101705780630ba5a8e61461018657806313af4035146101a6578063239752ab146101c657806332ccca0e146101e657005b3661014a57005b005b34801561015857600080fd5b506006545b6040519081526020015b60405180910390f35b34801561017c57600080fd5b5061015d60035481565b34801561019257600080fd5b5061014a6101a1366004614b9b565b6104a0565b3480156101b257600080fd5b5061014a6101c1366004614bc9565b6104f5565b3480156101d257600080fd5b5061015d6101e1366004614b9b565b610501565b3480156101f257600080fd5b506101fb610522565b6040516101679190614c28565b34801561021457600080fd5b50610228610223366004614b9b565b61057a565b6040516101679190614c6d565b34801561024157600080fd5b5061015d610250366004614c7b565b6105cf565b34801561026157600080fd5b5061014a610270366004614b9b565b61062e565b34801561028157600080fd5b50610295610290366004614b9b565b610813565b60405161016796959493929190614df2565b3480156102b357600080fd5b5061014a6102c2366004614e4a565b610ad8565b3480156102d357600080fd5b5061015d60025481565b3480156102e957600080fd5b506102fd6102f8366004614b9b565b611011565b6040516101679190614eab565b34801561031657600080fd5b5061015d610325366004614bc9565b60086020526000908152604090205481565b34801561034357600080fd5b5061014a610352366004615063565b61146d565b34801561036357600080fd5b506000546040516001600160a01b039091168152602001610167565b34801561038b57600080fd5b5061015d61039a366004614bc9565b600b6020526000908152604090205481565b3480156103b857600080fd5b5061014a6103c7366004614b9b565b6119ee565b3480156103d857600080fd5b5061015d600a5481565b3480156103ee57600080fd5b506104026103fd366004614b9b565b611fa0565b60405161016791906150e4565b34801561041b57600080fd5b5061015d60045481565b34801561043157600080fd5b50610445610440366004614c7b565b611fd5565b6040516101679291906150f2565b34801561045f57600080fd5b5061047361046e366004614c7b565b612152565b6040516101679190615120565b34801561048c57600080fd5b5061014a61049b3660046151c5565b61229e565b6000546001600160a01b031633146104f05760405162461bcd60e51b815260206004820152600e60248201526d139bdd08185d5d1a1bdc9a5e995960921b60448201526064015b60405180910390fd5b600455565b6104fe816125aa565b50565b6006818154811061051157600080fd5b600091825260209091200154905081565b6060600680548060200260200160405190810160405280929190818152602001828054801561057057602002820191906000526020600020905b81548152602001906001019080831161055c575b5050505050905090565b610582614922565b60008281526005602052604090819020815180830192839052916002918201919082845b81546001600160a01b031681526001909101906020018083116105a65750505050509050919050565b60006009600084846040516020016105e89291906151e7565b60408051601f19818403018152918152815160209283012083528282019390935290820160009081206001600160a01b0386168252909152206003015490505b92915050565b600081815260056020526040902060028101546001600160a01b031633146106a75760405162461bcd60e51b815260206004820152602660248201527f4f6e6c79207468652063726561746f722063616e2063616e63656c2074686520604482015265626174746c6560d01b60648201526084016104e7565b6000600a82015460ff1660028111156106c2576106c2614cfb565b1461070f5760405162461bcd60e51b815260206004820152601e60248201527f43616e6e6f742063616e63656c2061207374617274656420626174746c65000060448201526064016104e7565b600a8101805460ff19166002179055336000908152600860209081526040808320839055848352600790915281205460065490919061075090600190615233565b905060006006828154811061076757610767615207565b90600052602060002001549050806006848154811061078857610788615207565b600091825260208083209091019290925582815260079091526040902083905560068054806107b9576107b9615246565b60008281526020808220830160001990810183905590920190925586825260079052604080822082905551339187917fb91ae85405a99ffc07c694757cfbb7a52994c3b4daf39d040a6d56b1429ed7c79190a35050505050565b600560205260009081526040902080546001820180549192916108359061525c565b80601f01602080910402602001604051908101604052809291908181526020018280546108619061525c565b80156108ae5780601f10610883576101008083540402835291602001916108ae565b820191906000526020600020905b81548152906001019060200180831161089157829003601f168201915b50505050600a830154600c84015460408051610160810191829052949560ff8416956101009094046001600160a01b03169450919290600d8301908290610120820190839060029082845b8154815260200190600101908083116108f957505050918352505060408051808201918290526020909201919060028481019182845b81548152602001906001019080831161092f575050509183525050604080518082019182905260209092019190600484019060029082845b815481526020019060010190808311610967575050509183525050604080518082019182905260209092019190600684019060029082845b81548152602001906001019080831161099f575050509183525050604080518082019182905260209092019190600884019060029082845b8154815260200190600101908083116109d7575050509183525050604080518082019182905260209092019190600a84019060029082845b815481526020019060010190808311610a0f575050509183525050604080518082019182905260209092019190600c84019060029082845b815481526020019060010190808311610a47575050509183525050604080518082019182905260209092019190600e84019060029082845b815481526020019060010190808311610a7f575050509183525050604080518082019182905260209092019190601084019060029082845b815481526020019060010190808311610ab757505050505081525050905086565b6000838152600560205260409020600281015460039091015484916001600160a01b03908116911633821480610b165750336001600160a01b038216145b610b565760405162461bcd60e51b81526020600482015260116024820152704f6e6c79207061727469636970616e747360781b60448201526064016104e7565b60008681526005602052604090206001600a82015460ff166002811115610b7f57610b7f614cfb565b14610be05760405162461bcd60e51b815260206004820152602b60248201527f426174746c6520686173206e6f742073746172746564206f722068617320616c60448201526a1c9958591e48195b99195960aa1b60648201526084016104e7565b6000866003811115610bf457610bf4614cfb565b1480610c1157506001866003811115610c0f57610c0f614cfb565b145b80610c2d57506002866003811115610c2b57610c2b614cfb565b145b80610c4957506003866003811115610c4757610c47614cfb565b145b610cbb5760405162461bcd60e51b815260206004820152603e60248201527f496e76616c6964206d6f76653a206d7573742062652041545441434b2c20444560448201527f46454e442c205553455f534b494c4c2c206f7220444f5f4e4f5448494e47000060648201526084016104e7565b6000600282018101546001600160a01b03163314610cda576001610cdd565b60005b60ff16905081600b018160028110610cf757610cf7615207565b602081049091015460ff601f9092166101000a90041615610d5a5760405162461bcd60e51b815260206004820181905260248201527f4d6f766520616c7265616479207375626d697474656420627920706c6179657260448201526064016104e7565b60008833604051602001610d6f9291906151e7565b60408051601f19818403018152828252805160209182012060008181526009835283812033808352935292909220600c8701549294509290918c917f8aeb59a0d4a813dbcc0850f4aaf78c3bbdb6a8e181a23013ab163cc9a4cf647091610dd8918e9190615296565b60405180910390a36001896003811115610df457610df4614cfb565b14158015610e1457506003896003811115610e1157610e11614cfb565b14155b15610e7257610e216125fa565b600f8201819055600c85015460405133928d927f44c60cf2e549d3f07067958fb2907081416087b158fe86d2ddad6ec761790c5892610e699290918252602082015260400190565b60405180910390a35b6002896003811115610e8657610e86614cfb565b03610f2c576000805b600a830154811015610edc578983600a018281548110610eb157610eb1615207565b906000526020600020015403610eca5760019150610edc565b80610ed4816152b4565b915050610e8f565b5080610f2a5760405162461bcd60e51b815260206004820152601f60248201527f5375626d697474656420736b696c6c206973206e6f742065717569707065640060448201526064016104e7565b505b886003811115610f3e57610f3e614cfb565b846006018460028110610f5357610f53615207565b01556001600b85018460028110610f6c57610f6c615207565b602091828204019190066101000a81548160ff02191690831515021790555060026003811115610f9e57610f9e614cfb565b896003811115610fb057610fb0614cfb565b03610fce5787846008018460028110610fcb57610fcb615207565b01555b600b84015460ff168015610feb5750600b840154610100900460ff165b156110055760088401546009850154611005918c91612684565b50505050505050505050565b611019614940565b6005600083815260200190815260200160002060405180610160016040529081600082015481526020016001820180546110529061525c565b80601f016020809104026020016040519081016040528092919081815260200182805461107e9061525c565b80156110cb5780601f106110a0576101008083540402835291602001916110cb565b820191906000526020600020905b8154815290600101906020018083116110ae57829003601f168201915b505050918352505060408051808201918290526020909201919060028481019182845b81546001600160a01b031681526001909101906020018083116110ee575050509183525050604080518082019182905260209092019190600484019060029082845b815481526020019060010190808311611130575050509183525050604080518082019182905260209092019190600684019060029082845b815481526020019060010190808311611168575050509183525050604080518082019182905260209092019190600884019060029082845b8154815260200190600101908083116111a0575050509183525050600a82015460209091019060ff1660028111156111da576111da614cfb565b60028111156111eb576111eb614cfb565b8152600a82015461010090046001600160a01b0316602082015260408051808201808352919092019190600b840190600290826000855b825461010083900a900460ff1615158152602060019283018181049485019490930390920291018084116112225790505050509183525050600c82015460208201526040805161016081018252910190600d83018161012081018260028282826020028201915b81548152602001906001019080831161128957505050918352505060408051808201918290526020909201919060028481019182845b8154815260200190600101908083116112bf575050509183525050604080518082019182905260209092019190600484019060029082845b8154815260200190600101908083116112f7575050509183525050604080518082019182905260209092019190600684019060029082845b81548152602001906001019080831161132f575050509183525050604080518082019182905260209092019190600884019060029082845b815481526020019060010190808311611367575050509183525050604080518082019182905260209092019190600a84019060029082845b81548152602001906001019080831161139f575050509183525050604080518082019182905260209092019190600c84019060029082845b8154815260200190600101908083116113d7575050509183525050604080518082019182905260209092019190600e84019060029082845b81548152602001906001019080831161140f575050509183525050604080518082019182905260209092019190601084019060029082845b815481526020019060010190808311611447575050509190925250505090525092915050565b600c546040516331a9108f60e11b81526004810183905233916001600160a01b031690636352211e90602401602060405180830381865afa1580156114b6573d6000803e3d6000fd5b505050506040513d601f19601f820116820180604052508101906114da91906152cd565b6001600160a01b0316146115305760405162461bcd60e51b815260206004820152601e60248201527f4e6f7420746865206f776e6572206f662074686520636861726163746572000060448201526064016104e7565b336000908152600860205260409020541561158d5760405162461bcd60e51b815260206004820152601860248201527f506c6179657220696e20616e6f7468657220626174746c65000000000000000060448201526064016104e7565b600a546040805161016081018252828152602080820186905282518084018452338152600081830181905283850191909152835180850185528681528083018290526060840152835180850185528181528083018290526080840152835180850190945280845290830181905260a082019290925260c08101828152600060208083018290526040805180820182528381528083018490528185015260016060808601829052825161016081018452610120810186815261014082018790528152835180850185528681528086018790528186015283518085018552868152808601879052818501528351808501855286815280860187905291810191909152825180840184528581528085018690526080828101919091528351808501855286815280860187905260a08301528351808501855286815280860187905260c08301528351808501855286815280860187905260e08301528351808501855286815280860187905261010083015290950194909452868352600582529091208351815590830151929350839290918201906117289082615338565b50604082015161173e90600280840191906149bd565b5060608201516117549060048301906002614a15565b50608082015161176a9060068301906002614a15565b5060a08201516117809060088301906002614a15565b5060c0820151600a8201805460ff191660018360028111156117a4576117a4614cfb565b021790555060e0820151600a82018054610100600160a81b0319166101006001600160a01b0390931683021790558201516117e590600b8301906002614a43565b50610120820151600c8201556101408201518051600d83019061180b9082906002614a15565b5060208201516118219060028084019190614a15565b5060408201516118379060048301906002614a15565b50606082015161184d9060068301906002614a15565b5060808201516118639060088301906002614a15565b5060a082015161187990600a8301906002614a15565b5060c082015161188f90600c8301906002614a15565b5060e08201516118a590600e8301906002614a15565b506101008201516118bc9060108301906002614a15565b5050600680546001818101835560008390527ff652222313e28459528d920b65115c16c04f3efc82aaedc97be59f3f377c0d3f909101879055905461190694509092509050615233565b6000838152600760209081526040808320939093553380835260089091529190208390556119369084908461297b565b600c546004805460405163739420a560e01b815291820186905260248201526001600160a01b039091169063739420a590604401600060405180830381600087803b15801561198457600080fd5b505af1158015611998573d6000803e3d6000fd5b50506040518581523392508491507fcd51df591e2f9319b98d783b63c675c8ab2e63d44101da9e5a12af2b1fcab4799060200160405180910390a3600a80549060006119e3836152b4565b919050555050505050565b6000818152600560205260409020600201546001600160a01b0316611a495760405162461bcd60e51b8152602060048201526011602482015270426174746c65206e6f7420666f756e642160781b60448201526064016104e7565b6000600560008381526020019081526020016000206040518061016001604052908160008201548152602001600182018054611a849061525c565b80601f0160208091040260200160405190810160405280929190818152602001828054611ab09061525c565b8015611afd5780601f10611ad257610100808354040283529160200191611afd565b820191906000526020600020905b815481529060010190602001808311611ae057829003601f168201915b505050918352505060408051808201918290526020909201919060028481019182845b81546001600160a01b03168152600190910190602001808311611b20575050509183525050604080518082019182905260209092019190600484019060029082845b815481526020019060010190808311611b62575050509183525050604080518082019182905260209092019190600684019060029082845b815481526020019060010190808311611b9a575050509183525050604080518082019182905260209092019190600884019060029082845b815481526020019060010190808311611bd2575050509183525050600a82015460209091019060ff166002811115611c0c57611c0c614cfb565b6002811115611c1d57611c1d614cfb565b8152600a82015461010090046001600160a01b0316602082015260408051808201808352919092019190600b840190600290826000855b825461010083900a900460ff161515815260206001928301818104948501949093039092029101808411611c545790505050509183525050600c82015460208201526040805161016081018252910190600d83018161012081018260028282826020028201915b815481526020019060010190808311611cbb57505050918352505060408051808201918290526020909201919060028481019182845b815481526020019060010190808311611cf1575050509183525050604080518082019182905260209092019190600484019060029082845b815481526020019060010190808311611d29575050509183525050604080518082019182905260209092019190600684019060029082845b815481526020019060010190808311611d61575050509183525050604080518082019182905260209092019190600884019060029082845b815481526020019060010190808311611d99575050509183525050604080518082019182905260209092019190600a84019060029082845b815481526020019060010190808311611dd1575050509183525050604080518082019182905260209092019190600c84019060029082845b815481526020019060010190808311611e09575050509183525050604080518082019182905260209092019190600e84019060029082845b815481526020019060010190808311611e41575050509183525050604080518082019182905260209092019190601084019060029082845b815481526020019060010190808311611e7957505050919092525050509052506040810151519091506001600160a01b0316331480611ec857506040810151602001516001600160a01b031633145b611f145760405162461bcd60e51b815260206004820152601b60248201527f596f7520617265206e6f7420696e207468697320626174746c6521000000000060448201526064016104e7565b336001600160a01b0316827f3ff46d129afe6d0143c3e8ba124cdf4f4a5552918a50cd50b784ca9bdce4e357836101200151604051611f5591815260200190565b60405180910390a36040810151516001600160a01b03163314611f8e576040810151611f8a90839060005b6020020151612bab565b5050565b6040810151611f8a9083906001611f80565b611fa8614922565b50600090815260056020908152604091829020825180840190935260068101548352600701549082015290565b60608060008484604051602001611fed9291906151e7565b60408051601f1981840301815291815281516020928301206000818152600984528281206001600160a01b03891682529093529120600b81015491925090806001600160401b0381111561204357612043614f87565b60405190808252806020026020018201604052801561206c578160200160208202803683370190505b509450806001600160401b0381111561208757612087614f87565b6040519080825280602002602001820160405280156120b0578160200160208202803683370190505b50935060005b8181101561214757600083600b0182815481106120d5576120d5615207565b90600052602060002001549050808783815181106120f5576120f5615207565b60200260200101818152505083600c0160008281526020019081526020016000205486838151811061212957612129615207565b6020908102919091010152508061213f816152b4565b9150506120b6565b505050509250929050565b6121a36040518061010001604052806000815260200160006001600160a01b031681526020016000815260200160008152602001600081526020016000815260200160008152602001606081525090565b600083836040516020016121b89291906151e7565b60408051601f198184030181528282528051602091820120600081815260098084528482206001600160a01b03808b16845290855285832061010088018752805488526001810154909116878601526003810154878701526004810154606088015260058101546080880152600681015460a08801529081015460c0870152600a8101805486518187028101870190975280875293975090959194919360e08501939083018282801561228a57602002820191906000526020600020905b815481526020019060010190808311612276575b505050919092525090979650505050505050565b600c546040516331a9108f60e11b81526004810183905233916001600160a01b031690636352211e90602401602060405180830381865afa1580156122e7573d6000803e3d6000fd5b505050506040513d601f19601f8201168201806040525081019061230b91906152cd565b6001600160a01b0316146123615760405162461bcd60e51b815260206004820152601e60248201527f4e6f7420746865206f776e6572206f662074686520636861726163746572000060448201526064016104e7565b33600090815260086020526040902054156123d55760405162461bcd60e51b815260206004820152602e60248201527f506c6179657220616c72656164792070617274696369706174696e6720696e2060448201526d616e6f7468657220626174746c6560901b60648201526084016104e7565b600082815260056020526040812090600a82015460ff1660028111156123fd576123fd614cfb565b1461244a5760405162461bcd60e51b815260206004820152601a60248201527f426174746c652068617320616c7265616479207374617274656400000000000060448201526064016104e7565b60038101546001600160a01b0316156124a55760405162461bcd60e51b815260206004820152601e60248201527f426174746c6520616c7265616479206861732074776f20706c6179657273000060448201526064016104e7565b600581018290556003810180546001600160a01b03191633908117909155600a8201805460ff1916600117905560008181526008602052604090208490556124ef9083908561297b565b600c546004805460405163739420a560e01b815291820185905260248201526001600160a01b039091169063739420a590604401600060405180830381600087803b15801561253d57600080fd5b505af1158015612551573d6000803e3d6000fd5b50505050600281015460405133916001600160a01b03169085907f062c68eb2a964de2eed3fb17d55e0f1609ab0b928d7b24a44821401688ceafab9061259d9060018701908890615474565b60405180910390a4505050565b600080546001600160a01b038381166001600160a01b0319831681178455604051919092169283917f8292fce18fa69edf4db7b94ea2e58241df0ae57f97e0a6c9b29067028bf92d769190a35050565b600080601444423360405160200161263793929190928352602083019190915260601b6bffffffffffffffffffffffff1916604082015260540190565b6040516020818303038152906040528051906020012060001c61265a91906154ac565b6126659060016154c0565b90506126728160646154d3565b61267e906103e86154c0565b91505090565b6000838152600560205260408120906126ad8560028401835b01546001600160a01b0316612ef1565b905060006126c08660028501600161269d565b90506126ca614922565b6126d2614922565b6126da614922565b6126e98987600c015487612f45565b8152600c8601546126fc908a9086612f45565b6020820152600e85015460ff161561271657600360068701555b600e84015460ff161561272b57600360078701555b612736868686613122565b6006860154600214801561274e575060078601546002145b6127625761275d8686866131b9565b935091505b60068601546001190161279a57600c86015461278c908790878b8860068501600101546001613324565b83526001600160a01b031683525b6007860154600119016127de57600c8601546127c4908790868a8960068501600001546000613324565b6020848101919091526001600160a01b0391909116908401525b6127eb8186868587613650565b6001600f868101829055850155815160118701805460009061280e9084906154c0565b9091555050602082015160128701805460009061282c9084906154c0565b9091555050602082015160138701805460009061284a9084906154c0565b909155505081516014870180546000906128659084906154c0565b9250508190555085600c0154897f1c18d51d882ce69ed20679aff51d0bc25f77878b0bbc4051e6d9ab2342f5e47f85856040518060400160405280886001600281106128b3576128b3615207565b60200201518152602001886000600281106128d0576128d0615207565b602002015190526040516128e6939291906154ea565b60405180910390a36003850154158061290157506003840154155b1561294657600380850154908601546000911061292b5760038701546001600160a01b031661293a565b60028701546001600160a01b03165b90506110058a82612bab565b600b8601805461ffff19169055600c860180546001919060009061296b9084906154c0565b9091555050505050505050505050565b600081836040516020016129909291906151e7565b60408051808303601f19018152908290528051602090910120600c5462d8301960e41b8352600483018790529092506000916001600160a01b0390911690630d83019090602401600060405180830381865afa1580156129f4573d6000803e3d6000fd5b505050506040513d6000823e601f3d908101601f19168201604052612a1c919081019061558e565b60008381526009602081815260408084206001600160a01b038a16808652908352938190208a81556001810180546001600160a01b031916909517909455845160028501558185015160078501558401516008840155606084015160038401556080840151600484015560a0840151600584015560c0840151600684015560e08401519183019190915561010083015180519394509192612ac392600a8501920190614ad0565b50600084815260056020526040902060028101546001600160a01b0390811690871603612b03576003820154600d8201556006820154600f820155612b18565b6003820154600e820155600682015460108201555b7f3f6e56e1bcf6454c5e7f32cffe9f99778fd7cf50a886af17d91dcebb8e35250f858784600001548560010160009054906101000a90046001600160a01b031686600201600101548760020160020154886002016003015489600201600401548a600201600701548b600a01604051612b9a9a9998979695949392919061564f565b60405180910390a150505050505050565b6000828152600560205260409020600a8101805460ff196001600160a01b03851661010002166001600160a81b0319909116176002179055612bec836136ba565b600281015460038201546001600160a01b03918216600081815260086020526040808220829055928416808252928120819055909285168314612c2f5782612c31565b815b90506000836001600160a01b0316866001600160a01b031614612c55576001612c58565b60005b60ff1690506000846001600160a01b0316836001600160a01b031614612c7f576001612c82565b60005b60ff1690506000600960008a88604051602001612ca09291906151e7565b6040516020818303038152906040528051906020012081526020019081526020016000206000876001600160a01b03166001600160a01b031681526020019081526020016000206002016001015490506000600960008b88604051602001612d099291906151e7565b60408051601f19818403018152918152815160209283012083528282019390935290820160009081206001600160a01b038a168252909152908120600301549150821580612d55575081155b90508015612e9557600c546001600160a01b0316636a0558a660048b018760028110612d8357612d83615207565b01546040516001600160e01b031960e084901b168152600481019190915260646024820152604401600060405180830381600087803b158015612dc557600080fd5b505af1158015612dd9573d6000803e3d6000fd5b5050600c546001600160a01b03169150636a0558a6905060048b018660028110612e0557612e05615207565b01546040516001600160e01b031960e084901b1681526004810191909152601e6024820152604401600060405180830381600087803b158015612e4757600080fd5b505af1158015612e5b573d6000803e3d6000fd5b50505050606489600d01600e018660028110612e7957612e79615207565b0155601e601b8a018560028110612e9257612e92615207565b01555b856001600160a01b03168a6001600160a01b03168c7f0baf086d5a49a7d9df72185aa0488cadd724e398bb5e99c615ee24c699deba918c600101604051612edc91906156ec565b60405180910390a45050505050505050505050565b6000808383604051602001612f079291906151e7565b60408051601f1981840301815291815281516020928301206000908152600983528181206001600160a01b0387168252909252902091505092915050565b6000806000806000806000806000612f7d600e60009054906101000a90046001600160a01b03168c8c6137779092919063ffffffff16565b9750975097509750975097509750975060005b86518110156131115787801561300c57506040516339ba3ab760e11b602082015260240160405160208183030381529060405280519060200120858281518110612fdc57612fdc615207565b6020026020010151604051602001612ff491906156ff565b60405160208183030381529060405280519060200120145b156130ff5760018b015487516001600160a01b03909116908e907f42cc68fd968d66bad9f556a6420453409337a500953cec681ce375d56c143d8e908a908590811061305a5761305a615207565b602002602001015189858151811061307457613074615207565b602002602001015189868151811061308e5761308e615207565b60200260200101518987815181106130a8576130a8615207565b60200260200101518988815181106130c2576130c2615207565b60200260200101518989815181106130dc576130dc615207565b60200260200101516040516130f69695949392919061571b565b60405180910390a35b80613109816152b4565b915050612f90565b50969b9a5050505050505050505050565b60068301546000190161316b57600382600201600401600082825461314791906154c0565b909155506003905060198401600001600082825461316591906154c0565b90915550505b6007830154600019016131b457600381600201600401600082825461319091906154c0565b90915550600390506019840160010160008282546131ae91906154c0565b90915550505b505050565b6131c1614922565b6131c9614922565b6131d1614922565b6131d9614922565b60006131e58787614059565b60646131ef6140eb565b6131f991906154ac565b10905060006132088789614059565b60646132126140eb565b61321c91906154ac565b60068b015460078c01549290911092509081158015613239575080155b156132545761324b8b8b8b8787614127565b96509450613313565b811580156132625750600181145b156132735761324b8b8b8b8761426c565b600182148015613281575080155b156132925761324b8b8b8b86614336565b811580156132a05750600381145b156132b15761324b8b8b8b876143f7565b6003821480156132bf575080155b156132d05761324b8b8b8b8661448c565b811580156132de5750600281145b156132ef5761324b8b8b8b876143f7565b6002821480156132fd575080155b156133135761330e8b8b8b8661448c565b965094505b509299939850929650505050505050565b6000806000806127108811156133b957600f5460405163681377c960e01b8152600481018a90526000916001600160a01b03169063681377c99060240161014060405180830381865afa15801561337f573d6000803e3d6000fd5b505050506040513d601f19601f820116820180604052508101906133a39190615779565b90508060c0015192508060e001519150506133c0565b5086905060005b600d54604051635ec407d760e11b8152600481018490526000916001600160a01b03169063bd880fae90602401600060405180830381865afa15801561340a573d6000803e3d6000fd5b505050506040513d6000823e601f3d908101601f191682016040526134329190810190615853565b905060006103e882604001518c600f015461344d91906154d3565b61345791906158f6565b9050600188036134c95760058901548111613473576000613482565b60058901546134829082615233565b90508089600201600101541161349c57600589015461349e565b805b60158e0188600281106134b3576134b3615207565b0160008282546134c391906154c0565b90915550505b80156135055760038901548110156134fd57808960020160010160008282546134f29190615233565b909155506135059050565b600060038a01555b8a60010160009054906101000a90046001600160a01b03166001600160a01b03168d600001547f1ecb56d20fc766331c458aed06ae76e03aa301e223d100edbc01a21eaf7ffa228e87866020015186604051613564949392919061590a565b60405180910390a3606082015160068c018054600090613585908490615233565b90915550508215613620578c54600e54604051631187bd5160e01b81526004810186905261362092918f916001600160a01b0390911690631187bd5190602401600060405180830381865afa1580156135e2573d6000803e3d6000fd5b505050506040513d6000823e601f3d908101601f1916820160405261360a919081019061594a565b60400151613618578b61361a565b8d5b8661452b565b6000811161362f57600061363e565b60018901546001600160a01b03165b9d909c509a5050505050505050505050565b8451156136685760018401546001600160a01b031681525b6020850151156136865760018301546001600160a01b031660208201525b8451825183906136979083906154c0565b90525060208086015190830180516136b09083906154c0565b9052505050505050565b6000818152600760205260408120546006549091906136db90600190615233565b90506000600682815481106136f2576136f2615207565b90600052602060002001549050806006848154811061371357613713615207565b6000918252602080832090910192909255828152600790915260409020839055600680548061374457613744615246565b60019003818190600052602060002001600090559055600760008581526020019081526020016000206000905550505050565b600b8301546000908190606090819081908190819081906001600160401b038111156137a5576137a5614f87565b6040519080825280602002602001820160405280156137ce578160200160208202803683370190505b50600b8c01549096506001600160401b038111156137ee576137ee614f87565b60405190808252806020026020018201604052801561382157816020015b606081526020019060019003908161380c5790505b50600b8c01549095506001600160401b0381111561384157613841614f87565b60405190808252806020026020018201604052801561387457816020015b606081526020019060019003908161385f5790505b50600b8c01549094506001600160401b0381111561389457613894614f87565b6040519080825280602002602001820160405280156138bd578160200160208202803683370190505b50600b8c01549093506001600160401b038111156138dd576138dd614f87565b604051908082528060200260200182016040528015613906578160200160208202803683370190505b50600b8c01549092506001600160401b0381111561392657613926614f87565b60405190808252806020026020018201604052801561394f578160200160208202803683370190505b50905060005b600b8c01548110156140395760008c600b01828154811061397857613978615207565b6000918252602082200154604051631187bd5160e01b8152600481018290529092506001600160a01b038e1690631187bd5190602401600060405180830381865afa1580156139cb573d6000803e3d6000fd5b505050506040513d6000823e601f3d908101601f191682016040526139f3919081019061594a565b90508061014001518015613a1657506000828152600c8f01602052604090205415155b15613a7a57600199506040518060400160405280600481526020016339ba3ab760e11b815250878481518110613a4e57613a4e615207565b60200260200101819052506001868481518110613a6d57613a6d615207565b6020026020010181815250505b6000828152600c8f0160205260408120805460019290613a9b908490615233565b9091555050608081015115613b1e57613ab98e838360800151614611565b6040518060400160405280600b81526020016a185d1d1858dad09bdbdcdd60aa1b815250878481518110613aef57613aef615207565b60200260200101819052508060800151868481518110613b1157613b11615207565b6020026020010181815250505b60a081015115613ba057613b378e838360a00151614658565b6040518060400160405280600f81526020016e30ba3a30b1b5a932b23ab1ba34b7b760891b815250878481518110613b7157613b71615207565b60200260200101819052508060a00151868481518110613b9357613b93615207565b6020026020010181815250505b60c081015115613c1f57613bb98e838360c001516146b7565b6040518060400160405280600c81526020016b191959995b9cd9509bdbdcdd60a21b815250878481518110613bf057613bf0615207565b60200260200101819052508060c00151868481518110613c1257613c12615207565b6020026020010181815250505b60e081015115613ca257613c388e838360e001516146fe565b6040518060400160405280601081526020016f3232b332b739b2a932b23ab1ba34b7b760811b815250878481518110613c7357613c73615207565b60200260200101819052508060e00151868481518110613c9557613c95615207565b6020026020010181815250505b61010081015115613d2257613cbc8e82610100015161475d565b6040518060400160405280600b81526020016a3432b0b62832b92a3ab93760a91b815250878481518110613cf257613cf2615207565b6020026020010181905250806101000151868481518110613d1557613d15615207565b6020026020010181815250505b61012081015115613dd95760008e600201600101549050613d488f83610120015161477d565b60038f0154811115613d705760038f0154613d639082615233565b613d6d908d6154c0565b9b505b6040518060400160405280600d81526020016c3230b6b0b3b2a832b92a3ab93760991b815250888581518110613da857613da8615207565b6020026020010181905250816101200151878581518110613dcb57613dcb615207565b602002602001018181525050505b6000828152600c8f0160205260408120549003613f9057608081015115613e3157608081015160048f018054600090613e13908490615233565b90915550506000828152600d8f0160205260409020805460ff191690555b60a081015115613e725760a081015160048f018054600090613e549084906154c0565b90915550506000828152600d8f0160205260409020805460ff191690555b60c081015115613eb35760c081015160058f018054600090613e95908490615233565b90915550506000828152600d8f0160205260409020805460ff191690555b60e081015115613ef45760e081015160058f018054600090613ed69084906154c0565b90915550506000828152600d8f0160205260409020805460ff191690555b600b8e015460011015613f5057600b8e018054613f1390600190615233565b81548110613f2357613f23615207565b90600052602060002001548e600b018481548110613f4357613f43615207565b6000918252602090912001555b8d600b01805480613f6357613f63615246565b600190038181906000526020600020016000905590556000831115613f905782613f8c81615a34565b9350505b81898481518110613fa357613fa3615207565b6020026020010181815250508060200151888481518110613fc657613fc6615207565b60200260200101819052508b858481518110613fe457613fe4615207565b6020026020010181815250508d600c0160008381526020019081526020016000205484848151811061401857614018615207565b60200260200101818152505050508080614031906152b4565b915050613955565b50600e8b01805488151560ff199091161790559397509397509397509397565b6002808201549083015460009182916140729190615a4b565b600280850154919250600091614087916154d3565b6140919083615a72565b600785015460088701549192506000916140ab9084615a72565b6140b59190615a4b565b905060648113156140cc5760649350505050610628565b60008112156140e15760009350505050610628565b9250610628915050565b60004442604051602001614109929190918252602082015260400190565b6040516020818303038152906040528051906020012060001c905090565b61412f614922565b614137614922565b600084614145576000614166565b600f87015460048801546103e89161415c916154d3565b61416691906158f6565b9050600084614176576000614197565b600f87015460048801546103e89161418d916154d3565b61419791906158f6565b9050818760020160010154116141ae5760006141be565b60038701546141be908390615233565b60038089019190915588015481106141d75760006141e7565b60038801546141e7908290615233565b6003808a0191909155600689018054600090614204908490615233565b909155505060068701805460039190600090614221908490615233565b909155505060408051808201825260028b01546001600160a01b0390811682526003909b0154909a166020808c01919091528151808301909252928152918201529795505050505050565b614274614922565b61427c614922565b60008361428a5760006142ab565b600f86015460048701546103e8916142a1916154d3565b6142ab91906158f6565b9050808560020160030154101561430f5760058501546000906142ce9083615233565b9050808660020160010154116142e55760006142f5565b60038601546142f5908290615233565b6003878101919091558801546001600160a01b0316835283525b60038660020160040160008282546143279190615233565b90915550505094509492505050565b61433e614922565b614346614922565b600083614354576000614375565b600f85015460048601546103e89161436b916154d3565b61437591906158f6565b905080866002016003015410156143df5760058601546000906143989083615233565b9050808760020160010154116143af5760006143bf565b60038701546143bf908290615233565b600388015560028801546001600160a01b03166020808501919091528401525b60038560020160040160008282546143279190615233565b6143ff614922565b614407614922565b600083614415576000614436565b600f86015460048701546103e89161442c916154d3565b61443691906158f6565b90508085600201600101541161444d57600061445d565b600385015461445d908290615233565b600386810191909155878101546001600160a01b03168352818452600687018054600090614327908490615233565b614494614922565b61449c614922565b6000836144aa5760006144cb565b600f85015460048601546103e8916144c1916154d3565b6144cb91906158f6565b9050808660020160010154116144e25760006144f2565b60038601546144f2908290615233565b60038781019190915560028801546001600160a01b03166020808501919091528401829052600686018054600090614327908490615233565b600e54604051631187bd5160e01b8152600481018390526000916001600160a01b031690631187bd5190602401600060405180830381865afa158015614575573d6000803e3d6000fd5b505050506040513d6000823e601f3d908101601f1916820160405261459d919081019061594a565b805160608201519192506145b3918591906147ef565b6001830154602082015160608301516040516001600160a01b039093169288927ff8c9f3444c314390f17c07435638f20d537b994d7767fd8e9a2bd203791d3ef792614602928a929190615a9a565b60405180910390a35050505050565b6000828152600d8401602052604090205460ff166131b4576000828152600d840160205260408120805460ff191660011790556004840180548392906131ae9084906154c0565b6000828152600d8401602052604090205460ff166131b4576000828152600d840160205260409020805460ff191660011790556004830154811061469d5760006146ad565b60048301546146ad908290615233565b6004840155505050565b6000828152600d8401602052604090205460ff166131b4576000828152600d840160205260408120805460ff191660011790556005840180548392906131ae9084906154c0565b6000828152600d8401602052604090205460ff166131b4576000828152600d840160205260409020805460ff1916600117905560058301548110614743576000614753565b6005830154614753908290615233565b6005840155505050565b8082600201600101600082825461477491906154c0565b90915550505050565b600382015461478b9061487b565b6147bd6040518060400160405280601081526020016f64616d616765206f7665722074696d6560801b815250826148c0565b600382015481106147cf5760006147df565b60038201546147df908290615233565b60038301819055611f8a9061487b565b60005b600b84015481101561484b578284600b01828154811061481457614814615207565b90600052602060002001540361483957506000918252600c9092016020526040902055565b80614843816152b4565b9150506147f2565b50600b8301805460018101825560009182526020808320909101849055928152600c909301909152604090912055565b6104fe8160405160240161489191815260200190565b60408051601f198184030181529190526020810180516001600160e01b031663f82c50f160e01b179052614901565b611f8a82826040516024016148d6929190615ac3565b60408051601f198184030181529190526020810180516001600160e01b0316632d839cb360e21b1790525b80516a636f6e736f6c652e6c6f67602083016000808483855afa5050505050565b60405180604001604052806002906020820280368337509192915050565b6040518061016001604052806000815260200160608152602001614962614922565b815260200161496f614922565b815260200161497c614922565b8152602001614989614922565b815260200160008152600060208201526040016149a4614922565b8152602001600081526020016149b8614b0a565b905290565b8260028101928215614a05579160200282015b82811115614a0557825182546001600160a01b0319166001600160a01b039091161782556020909201916001909101906149d0565b50614a11929150614b86565b5090565b8260028101928215614a05579160200282015b82811115614a05578251825591602001919060010190614a28565b600183019183908215614a055791602002820160005b83821115614a9657835183826101000a81548160ff0219169083151502179055509260200192600101602081600001049283019260010302614a59565b8015614ac35782816101000a81549060ff0219169055600101602081600001049283019260010302614a96565b5050614a11929150614b86565b828054828255906000526020600020908101928215614a055791602002820182811115614a05578251825591602001919060010190614a28565b604051806101200160405280614b1e614922565b8152602001614b2b614922565b8152602001614b38614922565b8152602001614b45614922565b8152602001614b52614922565b8152602001614b5f614922565b8152602001614b6c614922565b8152602001614b79614922565b81526020016149b8614922565b5b80821115614a115760008155600101614b87565b600060208284031215614bad57600080fd5b5035919050565b6001600160a01b03811681146104fe57600080fd5b600060208284031215614bdb57600080fd5b8135614be681614bb4565b9392505050565b600081518084526020808501945080840160005b83811015614c1d57815187529582019590820190600101614c01565b509495945050505050565b602081526000614be66020830184614bed565b8060005b6002811015614c675781516001600160a01b0316845260209384019390910190600101614c3f565b50505050565b604081016106288284614c3b565b60008060408385031215614c8e57600080fd5b823591506020830135614ca081614bb4565b809150509250929050565b60005b83811015614cc6578181015183820152602001614cae565b50506000910152565b60008151808452614ce7816020860160208601614cab565b601f01601f19169290920160200192915050565b634e487b7160e01b600052602160045260246000fd5b60038110614d2157614d21614cfb565b9052565b8060005b6002811015614c67578151845260209384019390910190600101614d29565b614d53828251614d25565b6020810151614d656040840182614d25565b506040810151614d786080840182614d25565b506060810151614d8b60c0840182614d25565b506080810151610100614da081850183614d25565b60a08301519150614db5610140850183614d25565b60c08301519150614dca610180850183614d25565b60e08301519150614ddf6101c0850183614d25565b82015190506131b4610200840182614d25565b60006102e0888352806020840152614e0c81840189614ccf565b915050614e1c6040830187614d11565b6001600160a01b038516606083015260808201849052614e3f60a0830184614d48565b979650505050505050565b600080600060608486031215614e5f57600080fd5b83359250602084013560048110614e7557600080fd5b929592945050506040919091013590565b8060005b6002811015614c675781511515845260209384019390910190600101614e8a565b6020815281516020820152600060208301516104206040840152614ed3610440840182614ccf565b90506040840151614ee76060850182614c3b565b506060840151614efa60a0850182614d25565b506080840151614f0d60e0850182614d25565b5060a0840151610120614f2281860183614d25565b60c08601519150614f37610160860183614d11565b60e08601516001600160a01b03166101808601526101008601519150614f616101a0860183614e86565b8501516101e085015250610140840151614f7f610200850182614d48565b509392505050565b634e487b7160e01b600052604160045260246000fd5b60405161012081016001600160401b0381118282101715614fc057614fc0614f87565b60405290565b60405161014081016001600160401b0381118282101715614fc057614fc0614f87565b60405161016081016001600160401b0381118282101715614fc057614fc0614f87565b604051601f8201601f191681016001600160401b038111828210171561503457615034614f87565b604052919050565b60006001600160401b0382111561505557615055614f87565b50601f01601f191660200190565b6000806040838503121561507657600080fd5b82356001600160401b0381111561508c57600080fd5b8301601f8101851361509d57600080fd5b80356150b06150ab8261503c565b61500c565b8181528660208385010111156150c557600080fd5b8160208401602083013760006020928201830152969401359450505050565b604081016106288284614d25565b6040815260006151056040830185614bed565b82810360208401526151178185614bed565b95945050505050565b60006020808352610120830184518285015260018060a01b03828601511660408501526040850151606085015260608501516080850152608085015160a085015260a085015160c085015260c085015160e085015260e0850151610100808187015250818151808452610140870191508483019350600092505b808310156151ba578351825292840192600192909201919084019061519a565b509695505050505050565b600080604083850312156151d857600080fd5b50508035926020909101359150565b91825260601b6bffffffffffffffffffffffff1916602082015260340190565b634e487b7160e01b600052603260045260246000fd5b634e487b7160e01b600052601160045260246000fd5b818103818111156106285761062861521d565b634e487b7160e01b600052603160045260246000fd5b600181811c9082168061527057607f821691505b60208210810361529057634e487b7160e01b600052602260045260246000fd5b50919050565b60408101600484106152aa576152aa614cfb565b9281526020015290565b6000600182016152c6576152c661521d565b5060010190565b6000602082840312156152df57600080fd5b8151614be681614bb4565b601f8211156131b457600081815260208120601f850160051c810160208610156153115750805b601f850160051c820191505b818110156153305782815560010161531d565b505050505050565b81516001600160401b0381111561535157615351614f87565b6153658161535f845461525c565b846152ea565b602080601f83116001811461539a57600084156153825750858301515b600019600386901b1c1916600185901b178555615330565b600085815260208120601f198616915b828110156153c9578886015182559484019460019091019084016153aa565b50858210156153e75787850151600019600388901b60f8161c191681555b5050505050600190811b01905550565b600081546154048161525c565b808552602060018381168015615421576001811461543b57615469565b60ff1985168884015283151560051b880183019550615469565b866000528260002060005b858110156154615781548a8201860152908301908401615446565b890184019650505b505050505092915050565b60408152600061548760408301856153f7565b90508260208301529392505050565b634e487b7160e01b600052601260045260246000fd5b6000826154bb576154bb615496565b500690565b808201808211156106285761062861521d565b80820281158282048414176106285761062861521d565b60c081016154f88286614c3b565b6155056040830185614d25565b6155126080830184614d25565b949350505050565b600082601f83011261552b57600080fd5b815160206001600160401b0382111561554657615546614f87565b8160051b61555582820161500c565b928352848101820192828101908785111561556f57600080fd5b83870192505b84831015614e3f57825182529183019190830190615575565b6000602082840312156155a057600080fd5b81516001600160401b03808211156155b757600080fd5b9083019061012082860312156155cc57600080fd5b6155d4614f9d565b825181526020830151602082015260408301516040820152606083015160608201526080830151608082015260a083015160a082015260c083015160c082015260e083015160e0820152610100808401518381111561563257600080fd5b61563e8882870161551a565b918301919091525095945050505050565b60006101408083018d8452602060018060a01b03808f16828701528d6040870152808d166060870152508a60808601528960a08601528860c08601528760e086015286610100860152826101208601528192508554808352610160860193508660005281600020925060005b818110156156d7578354855293820193600193840193016156bb565b50929f9e505050505050505050505050505050565b602081526000614be660208301846153f7565b60008251615711818460208701614cab565b9190910192915050565b86815260c06020820152600061573460c0830188614ccf565b82810360408401526157468188614ccf565b60608401969096525050608081019290925260a0909101529392505050565b80516005811061577457600080fd5b919050565b6000610140828403121561578c57600080fd5b615794614fc6565b82518152602083015160208201526157ae60408401615765565b60408201526157bf60608401615765565b60608201526080830151608082015260a083015160a082015260c083015160c082015260e083015160e08201526101008084015181830152506101208084015181830152508091505092915050565b600082601f83011261581f57600080fd5b815161582d6150ab8261503c565b81815284602083860101111561584257600080fd5b615512826020830160208701614cab565b60006020828403121561586557600080fd5b81516001600160401b038082111561587c57600080fd5b908301906080828603121561589057600080fd5b6040516080810181811083821117156158ab576158ab614f87565b604052825181526020830151828111156158c457600080fd5b6158d08782860161580e565b602083015250604083015160408201526060830151606082015280935050505092915050565b60008261590557615905615496565b500490565b8481528360208201526080604082015260006159296080830185614ccf565b905082606083015295945050505050565b8051801515811461577457600080fd5b60006020828403121561595c57600080fd5b81516001600160401b038082111561597357600080fd5b90830190610160828603121561598857600080fd5b615990614fe9565b825181526020830151828111156159a657600080fd5b6159b28782860161580e565b6020830152506159c46040840161593a565b6040820152606083015160608201526080830151608082015260a083015160a082015260c083015160c082015260e083015160e082015261010091508183015182820152610120915081830151828201526101409150615a2582840161593a565b91810191909152949350505050565b600081615a4357615a4361521d565b506000190190565b8181036000831280158383131683831282161715615a6b57615a6b61521d565b5092915050565b8082018281126000831280158216821582161715615a9257615a9261521d565b505092915050565b838152606060208201526000615ab36060830185614ccf565b9050826040830152949350505050565b6040815260006154876040830185614ccf56fea26469706673582212202847bcf30cf53b009132c0eaf95061ba9d84e88b41ea3b8e7a52072b18d0cc6e64736f6c63430008110033",
  "linkReferences": {},
  "deployedLinkReferences": {}
}