{
  "_format": "hh-sol-artifact-1",
  "contractName": "BattleSkills",
  "sourceName": "contracts/BattleSkills.sol",
  "abi": [
    {
      "inputs": [],
      "stateMutability": "nonpayable",
      "type": "constructor"
    },
    {
      "inputs": [
        {
          "internalType": "address",
          "name": "operator",
          "type": "address"
        }
      ],
      "name": "OperatorNotAllowed",
      "type": "error"
    },
    {
      "anonymous": false,
      "inputs": [
        {
          "indexed": true,
          "internalType": "address",
          "name": "_owner",
          "type": "address"
        },
        {
          "indexed": true,
          "internalType": "address",
          "name": "_operator",
          "type": "address"
        },
        {
          "indexed": false,
          "internalType": "bool",
          "name": "_approved",
          "type": "bool"
        }
      ],
      "name": "ApprovalForAll",
      "type": "event"
    },
    {
      "anonymous": false,
      "inputs": [
        {
          "indexed": false,
          "internalType": "string",
          "name": "prevURI",
          "type": "string"
        },
        {
          "indexed": false,
          "internalType": "string",
          "name": "newURI",
          "type": "string"
        }
      ],
      "name": "ContractURIUpdated",
      "type": "event"
    },
    {
      "anonymous": false,
      "inputs": [
        {
          "indexed": true,
          "internalType": "address",
          "name": "newRoyaltyRecipient",
          "type": "address"
        },
        {
          "indexed": false,
          "internalType": "uint256",
          "name": "newRoyaltyBps",
          "type": "uint256"
        }
      ],
      "name": "DefaultRoyalty",
      "type": "event"
    },
    {
      "anonymous": false,
      "inputs": [
        {
          "indexed": false,
          "internalType": "bool",
          "name": "restriction",
          "type": "bool"
        }
      ],
      "name": "OperatorRestriction",
      "type": "event"
    },
    {
      "anonymous": false,
      "inputs": [
        {
          "indexed": true,
          "internalType": "address",
          "name": "prevOwner",
          "type": "address"
        },
        {
          "indexed": true,
          "internalType": "address",
          "name": "newOwner",
          "type": "address"
        }
      ],
      "name": "OwnerUpdated",
      "type": "event"
    },
    {
      "anonymous": false,
      "inputs": [
        {
          "indexed": true,
          "internalType": "uint256",
          "name": "tokenId",
          "type": "uint256"
        },
        {
          "indexed": true,
          "internalType": "address",
          "name": "royaltyRecipient",
          "type": "address"
        },
        {
          "indexed": false,
          "internalType": "uint256",
          "name": "royaltyBps",
          "type": "uint256"
        }
      ],
      "name": "RoyaltyForToken",
      "type": "event"
    },
    {
      "anonymous": false,
      "inputs": [
        {
          "indexed": false,
          "internalType": "uint256",
          "name": "skillId",
          "type": "uint256"
        },
        {
          "indexed": false,
          "internalType": "string",
          "name": "name",
          "type": "string"
        },
        {
          "indexed": false,
          "internalType": "uint256",
          "name": "damage",
          "type": "uint256"
        },
        {
          "indexed": false,
          "internalType": "uint256",
          "name": "manaCost",
          "type": "uint256"
        }
      ],
      "name": "SkillCreated",
      "type": "event"
    },
    {
      "anonymous": false,
      "inputs": [
        {
          "indexed": false,
          "internalType": "uint256",
          "name": "skillId",
          "type": "uint256"
        },
        {
          "indexed": false,
          "internalType": "address",
          "name": "caller",
          "type": "address"
        }
      ],
      "name": "SkillMinted",
      "type": "event"
    },
    {
      "anonymous": false,
      "inputs": [
        {
          "indexed": false,
          "internalType": "uint256",
          "name": "skillId",
          "type": "uint256"
        },
        {
          "indexed": false,
          "internalType": "string",
          "name": "name",
          "type": "string"
        },
        {
          "indexed": false,
          "internalType": "uint256",
          "name": "damage",
          "type": "uint256"
        },
        {
          "indexed": false,
          "internalType": "uint256",
          "name": "manaCost",
          "type": "uint256"
        }
      ],
      "name": "SkillUpdated",
      "type": "event"
    },
    {
      "anonymous": false,
      "inputs": [
        {
          "indexed": true,
          "internalType": "address",
          "name": "_operator",
          "type": "address"
        },
        {
          "indexed": true,
          "internalType": "address",
          "name": "_from",
          "type": "address"
        },
        {
          "indexed": true,
          "internalType": "address",
          "name": "_to",
          "type": "address"
        },
        {
          "indexed": false,
          "internalType": "uint256[]",
          "name": "_ids",
          "type": "uint256[]"
        },
        {
          "indexed": false,
          "internalType": "uint256[]",
          "name": "_values",
          "type": "uint256[]"
        }
      ],
      "name": "TransferBatch",
      "type": "event"
    },
    {
      "anonymous": false,
      "inputs": [
        {
          "indexed": true,
          "internalType": "address",
          "name": "_operator",
          "type": "address"
        },
        {
          "indexed": true,
          "internalType": "address",
          "name": "_from",
          "type": "address"
        },
        {
          "indexed": true,
          "internalType": "address",
          "name": "_to",
          "type": "address"
        },
        {
          "indexed": false,
          "internalType": "uint256",
          "name": "_id",
          "type": "uint256"
        },
        {
          "indexed": false,
          "internalType": "uint256",
          "name": "_value",
          "type": "uint256"
        }
      ],
      "name": "TransferSingle",
      "type": "event"
    },
    {
      "anonymous": false,
      "inputs": [
        {
          "indexed": false,
          "internalType": "string",
          "name": "_value",
          "type": "string"
        },
        {
          "indexed": true,
          "internalType": "uint256",
          "name": "_id",
          "type": "uint256"
        }
      ],
      "name": "URI",
      "type": "event"
    },
    {
      "inputs": [],
      "name": "OPERATOR_FILTER_REGISTRY",
      "outputs": [
        {
          "internalType": "contract IOperatorFilterRegistry",
          "name": "",
          "type": "address"
        }
      ],
      "stateMutability": "view",
      "type": "function"
    },
    {
      "inputs": [
        {
          "internalType": "address",
          "name": "",
          "type": "address"
        },
        {
          "internalType": "uint256",
          "name": "",
          "type": "uint256"
        }
      ],
      "name": "balanceOf",
      "outputs": [
        {
          "internalType": "uint256",
          "name": "",
          "type": "uint256"
        }
      ],
      "stateMutability": "view",
      "type": "function"
    },
    {
      "inputs": [
        {
          "internalType": "address[]",
          "name": "accounts",
          "type": "address[]"
        },
        {
          "internalType": "uint256[]",
          "name": "ids",
          "type": "uint256[]"
        }
      ],
      "name": "balanceOfBatch",
      "outputs": [
        {
          "internalType": "uint256[]",
          "name": "",
          "type": "uint256[]"
        }
      ],
      "stateMutability": "view",
      "type": "function"
    },
    {
      "inputs": [
        {
          "internalType": "address",
          "name": "_to",
          "type": "address"
        },
        {
          "internalType": "uint256[]",
          "name": "_tokenIds",
          "type": "uint256[]"
        },
        {
          "internalType": "uint256[]",
          "name": "_amounts",
          "type": "uint256[]"
        },
        {
          "internalType": "string",
          "name": "_baseURI",
          "type": "string"
        }
      ],
      "name": "batchMintTo",
      "outputs": [],
      "stateMutability": "nonpayable",
      "type": "function"
    },
    {
      "inputs": [
        {
          "internalType": "address",
          "name": "_owner",
          "type": "address"
        },
        {
          "internalType": "uint256",
          "name": "_tokenId",
          "type": "uint256"
        },
        {
          "internalType": "uint256",
          "name": "_amount",
          "type": "uint256"
        }
      ],
      "name": "burn",
      "outputs": [],
      "stateMutability": "nonpayable",
      "type": "function"
    },
    {
      "inputs": [
        {
          "internalType": "address",
          "name": "_owner",
          "type": "address"
        },
        {
          "internalType": "uint256[]",
          "name": "_tokenIds",
          "type": "uint256[]"
        },
        {
          "internalType": "uint256[]",
          "name": "_amounts",
          "type": "uint256[]"
        }
      ],
      "name": "burnBatch",
      "outputs": [],
      "stateMutability": "nonpayable",
      "type": "function"
    },
    {
      "inputs": [],
      "name": "contractURI",
      "outputs": [
        {
          "internalType": "string",
          "name": "",
          "type": "string"
        }
      ],
      "stateMutability": "view",
      "type": "function"
    },
    {
      "inputs": [
        {
          "internalType": "string",
          "name": "_name",
          "type": "string"
        },
        {
          "internalType": "uint256",
          "name": "_damage",
          "type": "uint256"
        },
        {
          "internalType": "uint256",
          "name": "_manaCost",
          "type": "uint256"
        },
        {
          "internalType": "string",
          "name": "_tokenURI",
          "type": "string"
        }
      ],
      "name": "createSkill",
      "outputs": [],
      "stateMutability": "nonpayable",
      "type": "function"
    },
    {
      "inputs": [
        {
          "internalType": "uint256",
          "name": "skillId",
          "type": "uint256"
        }
      ],
      "name": "doesSkillExist",
      "outputs": [
        {
          "internalType": "bool",
          "name": "",
          "type": "bool"
        }
      ],
      "stateMutability": "view",
      "type": "function"
    },
    {
      "inputs": [],
      "name": "getBaseURICount",
      "outputs": [
        {
          "internalType": "uint256",
          "name": "",
          "type": "uint256"
        }
      ],
      "stateMutability": "view",
      "type": "function"
    },
    {
      "inputs": [
        {
          "internalType": "uint256",
          "name": "_index",
          "type": "uint256"
        }
      ],
      "name": "getBatchIdAtIndex",
      "outputs": [
        {
          "internalType": "uint256",
          "name": "",
          "type": "uint256"
        }
      ],
      "stateMutability": "view",
      "type": "function"
    },
    {
      "inputs": [],
      "name": "getDefaultRoyaltyInfo",
      "outputs": [
        {
          "internalType": "address",
          "name": "",
          "type": "address"
        },
        {
          "internalType": "uint16",
          "name": "",
          "type": "uint16"
        }
      ],
      "stateMutability": "view",
      "type": "function"
    },
    {
      "inputs": [
        {
          "internalType": "uint256",
          "name": "_tokenId",
          "type": "uint256"
        }
      ],
      "name": "getRoyaltyInfoForToken",
      "outputs": [
        {
          "internalType": "address",
          "name": "",
          "type": "address"
        },
        {
          "internalType": "uint16",
          "name": "",
          "type": "uint16"
        }
      ],
      "stateMutability": "view",
      "type": "function"
    },
    {
      "inputs": [
        {
          "internalType": "uint256",
          "name": "_skillId",
          "type": "uint256"
        }
      ],
      "name": "getSkill",
      "outputs": [
        {
          "components": [
            {
              "internalType": "uint256",
              "name": "skillId",
              "type": "uint256"
            },
            {
              "internalType": "string",
              "name": "name",
              "type": "string"
            },
            {
              "internalType": "uint256",
              "name": "damage",
              "type": "uint256"
            },
            {
              "internalType": "uint256",
              "name": "manaCost",
              "type": "uint256"
            }
          ],
          "internalType": "struct BattleSkills.Skill",
          "name": "",
          "type": "tuple"
        }
      ],
      "stateMutability": "view",
      "type": "function"
    },
    {
      "inputs": [
        {
          "internalType": "address",
          "name": "",
          "type": "address"
        },
        {
          "internalType": "address",
          "name": "",
          "type": "address"
        }
      ],
      "name": "isApprovedForAll",
      "outputs": [
        {
          "internalType": "bool",
          "name": "",
          "type": "bool"
        }
      ],
      "stateMutability": "view",
      "type": "function"
    },
    {
      "inputs": [
        {
          "internalType": "uint256",
          "name": "_skillId",
          "type": "uint256"
        },
        {
          "internalType": "address",
          "name": "_caller",
          "type": "address"
        }
      ],
      "name": "mintSkill",
      "outputs": [],
      "stateMutability": "nonpayable",
      "type": "function"
    },
    {
      "inputs": [
        {
          "internalType": "address",
          "name": "_to",
          "type": "address"
        },
        {
          "internalType": "uint256",
          "name": "_tokenId",
          "type": "uint256"
        },
        {
          "internalType": "string",
          "name": "_tokenURI",
          "type": "string"
        },
        {
          "internalType": "uint256",
          "name": "_amount",
          "type": "uint256"
        }
      ],
      "name": "mintTo",
      "outputs": [],
      "stateMutability": "nonpayable",
      "type": "function"
    },
    {
      "inputs": [
        {
          "internalType": "bytes[]",
          "name": "data",
          "type": "bytes[]"
        }
      ],
      "name": "multicall",
      "outputs": [
        {
          "internalType": "bytes[]",
          "name": "results",
          "type": "bytes[]"
        }
      ],
      "stateMutability": "nonpayable",
      "type": "function"
    },
    {
      "inputs": [],
      "name": "name",
      "outputs": [
        {
          "internalType": "string",
          "name": "",
          "type": "string"
        }
      ],
      "stateMutability": "view",
      "type": "function"
    },
    {
      "inputs": [],
      "name": "nextTokenIdToMint",
      "outputs": [
        {
          "internalType": "uint256",
          "name": "",
          "type": "uint256"
        }
      ],
      "stateMutability": "view",
      "type": "function"
    },
    {
      "inputs": [],
      "name": "numSkills",
      "outputs": [
        {
          "internalType": "uint256",
          "name": "",
          "type": "uint256"
        }
      ],
      "stateMutability": "view",
      "type": "function"
    },
    {
      "inputs": [],
      "name": "operatorRestriction",
      "outputs": [
        {
          "internalType": "bool",
          "name": "",
          "type": "bool"
        }
      ],
      "stateMutability": "view",
      "type": "function"
    },
    {
      "inputs": [],
      "name": "owner",
      "outputs": [
        {
          "internalType": "address",
          "name": "",
          "type": "address"
        }
      ],
      "stateMutability": "view",
      "type": "function"
    },
    {
      "inputs": [
        {
          "internalType": "uint256",
          "name": "tokenId",
          "type": "uint256"
        },
        {
          "internalType": "uint256",
          "name": "salePrice",
          "type": "uint256"
        }
      ],
      "name": "royaltyInfo",
      "outputs": [
        {
          "internalType": "address",
          "name": "receiver",
          "type": "address"
        },
        {
          "internalType": "uint256",
          "name": "royaltyAmount",
          "type": "uint256"
        }
      ],
      "stateMutability": "view",
      "type": "function"
    },
    {
      "inputs": [
        {
          "internalType": "address",
          "name": "from",
          "type": "address"
        },
        {
          "internalType": "address",
          "name": "to",
          "type": "address"
        },
        {
          "internalType": "uint256[]",
          "name": "ids",
          "type": "uint256[]"
        },
        {
          "internalType": "uint256[]",
          "name": "amounts",
          "type": "uint256[]"
        },
        {
          "internalType": "bytes",
          "name": "data",
          "type": "bytes"
        }
      ],
      "name": "safeBatchTransferFrom",
      "outputs": [],
      "stateMutability": "nonpayable",
      "type": "function"
    },
    {
      "inputs": [
        {
          "internalType": "address",
          "name": "from",
          "type": "address"
        },
        {
          "internalType": "address",
          "name": "to",
          "type": "address"
        },
        {
          "internalType": "uint256",
          "name": "id",
          "type": "uint256"
        },
        {
          "internalType": "uint256",
          "name": "amount",
          "type": "uint256"
        },
        {
          "internalType": "bytes",
          "name": "data",
          "type": "bytes"
        }
      ],
      "name": "safeTransferFrom",
      "outputs": [],
      "stateMutability": "nonpayable",
      "type": "function"
    },
    {
      "inputs": [
        {
          "internalType": "address",
          "name": "operator",
          "type": "address"
        },
        {
          "internalType": "bool",
          "name": "approved",
          "type": "bool"
        }
      ],
      "name": "setApprovalForAll",
      "outputs": [],
      "stateMutability": "nonpayable",
      "type": "function"
    },
    {
      "inputs": [
        {
          "internalType": "string",
          "name": "_uri",
          "type": "string"
        }
      ],
      "name": "setContractURI",
      "outputs": [],
      "stateMutability": "nonpayable",
      "type": "function"
    },
    {
      "inputs": [
        {
          "internalType": "address",
          "name": "_royaltyRecipient",
          "type": "address"
        },
        {
          "internalType": "uint256",
          "name": "_royaltyBps",
          "type": "uint256"
        }
      ],
      "name": "setDefaultRoyaltyInfo",
      "outputs": [],
      "stateMutability": "nonpayable",
      "type": "function"
    },
    {
      "inputs": [
        {
          "internalType": "bool",
          "name": "_restriction",
          "type": "bool"
        }
      ],
      "name": "setOperatorRestriction",
      "outputs": [],
      "stateMutability": "nonpayable",
      "type": "function"
    },
    {
      "inputs": [
        {
          "internalType": "address",
          "name": "_newOwner",
          "type": "address"
        }
      ],
      "name": "setOwner",
      "outputs": [],
      "stateMutability": "nonpayable",
      "type": "function"
    },
    {
      "inputs": [
        {
          "internalType": "uint256",
          "name": "_tokenId",
          "type": "uint256"
        },
        {
          "internalType": "address",
          "name": "_recipient",
          "type": "address"
        },
        {
          "internalType": "uint256",
          "name": "_bps",
          "type": "uint256"
        }
      ],
      "name": "setRoyaltyInfoForToken",
      "outputs": [],
      "stateMutability": "nonpayable",
      "type": "function"
    },
    {
      "inputs": [
        {
          "internalType": "uint256",
          "name": "",
          "type": "uint256"
        }
      ],
      "name": "skills",
      "outputs": [
        {
          "internalType": "uint256",
          "name": "skillId",
          "type": "uint256"
        },
        {
          "internalType": "string",
          "name": "name",
          "type": "string"
        },
        {
          "internalType": "uint256",
          "name": "damage",
          "type": "uint256"
        },
        {
          "internalType": "uint256",
          "name": "manaCost",
          "type": "uint256"
        }
      ],
      "stateMutability": "view",
      "type": "function"
    },
    {
      "inputs": [
        {
          "internalType": "bytes4",
          "name": "interfaceId",
          "type": "bytes4"
        }
      ],
      "name": "supportsInterface",
      "outputs": [
        {
          "internalType": "bool",
          "name": "",
          "type": "bool"
        }
      ],
      "stateMutability": "view",
      "type": "function"
    },
    {
      "inputs": [],
      "name": "symbol",
      "outputs": [
        {
          "internalType": "string",
          "name": "",
          "type": "string"
        }
      ],
      "stateMutability": "view",
      "type": "function"
    },
    {
      "inputs": [
        {
          "internalType": "uint256",
          "name": "",
          "type": "uint256"
        }
      ],
      "name": "totalSupply",
      "outputs": [
        {
          "internalType": "uint256",
          "name": "",
          "type": "uint256"
        }
      ],
      "stateMutability": "view",
      "type": "function"
    },
    {
      "inputs": [
        {
          "internalType": "uint256",
          "name": "_skillId",
          "type": "uint256"
        },
        {
          "internalType": "string",
          "name": "_name",
          "type": "string"
        },
        {
          "internalType": "uint256",
          "name": "_damage",
          "type": "uint256"
        },
        {
          "internalType": "uint256",
          "name": "_manaCost",
          "type": "uint256"
        }
      ],
      "name": "updateSkill",
      "outputs": [],
      "stateMutability": "nonpayable",
      "type": "function"
    },
    {
      "inputs": [
        {
          "internalType": "uint256",
          "name": "_tokenId",
          "type": "uint256"
        }
      ],
      "name": "uri",
      "outputs": [
        {
          "internalType": "string",
          "name": "",
          "type": "string"
        }
      ],
      "stateMutability": "view",
      "type": "function"
    }
  ],
  "bytecode": "0x60806040523480156200001157600080fd5b506040518060400160405280600c81526020016b426174746c65536b696c6c7360a01b81525060405180604001604052806002815260200161425360f01b815250600080733cc6cdda760b79bafa08df41ecfa224f810dceb66001858581600090816200007f9190620003fe565b5060016200008e8282620003fe565b5050506daaeb6d7670e522a718067333cd4e3b15620001d65780156200012457604051633e9f1edf60e11b81523060048201526001600160a01b03831660248201526daaeb6d7670e522a718067333cd4e90637d3e3dbe906044015b600060405180830381600087803b1580156200010557600080fd5b505af11580156200011a573d6000803e3d6000fd5b50505050620001d6565b6001600160a01b03821615620001755760405163a0af290360e01b81523060048201526001600160a01b03831660248201526daaeb6d7670e522a718067333cd4e9063a0af290390604401620000ea565b604051632210724360e11b81523060048201526daaeb6d7670e522a718067333cd4e90634420e48690602401600060405180830381600087803b158015620001bc57600080fd5b505af1158015620001d1573d6000803e3d6000fd5b505050505b50620001e490503362000215565b620001f9826001600160801b03831662000267565b62000205600162000312565b50506001600c5550620004ca9050565b600680546001600160a01b038381166001600160a01b0319831681179093556040519116919082907f8292fce18fa69edf4db7b94ea2e58241df0ae57f97e0a6c9b29067028bf92d7690600090a35050565b612710811115620002b05760405162461bcd60e51b815260206004820152600f60248201526e45786365656473206d61782062707360881b604482015260640160405180910390fd5b600780546001600160a01b0384166001600160b01b03199091168117600160a01b61ffff851602179091556040518281527f90d7ec04bcb8978719414f82e52e4cb651db41d0e6f8cea6118c2191e6183adb9060200160405180910390a25050565b600b805460ff19168215159081179091556040519081527f38475885990d8dfe9ca01f0ef160a1b5514426eab9ddbc953a3353410ba780969060200160405180910390a150565b634e487b7160e01b600052604160045260246000fd5b600181811c908216806200038457607f821691505b602082108103620003a557634e487b7160e01b600052602260045260246000fd5b50919050565b601f821115620003f957600081815260208120601f850160051c81016020861015620003d45750805b601f850160051c820191505b81811015620003f557828155600101620003e0565b5050505b505050565b81516001600160401b038111156200041a576200041a62000359565b62000432816200042b84546200036f565b84620003ab565b602080601f8311600181146200046a5760008415620004515750858301515b600019600386901b1c1916600185901b178555620003f5565b600085815260208120601f198616915b828110156200049b578886015182559484019460019091019084016200047a565b5085821015620004ba5787850151600019600388901b60f8161c191681555b5050505050600190811b01905550565b613a6380620004da6000396000f3fe608060405234801561001057600080fd5b50600436106102315760003560e01c80636febc04d11610130578063b03f4528116100b8578063d6bc3d731161007c578063d6bc3d731461055f578063e8a3d48514610572578063e985e9c51461057a578063f242432a146105a8578063f5298aca146105bb57600080fd5b8063b03f4528146104db578063b24f2d39146104ee578063bd85b0391461050c578063bd880fae1461052c578063bfa0fedb1461054c57600080fd5b806395d89b41116100ff57806395d89b411461047a5780639bcf7a1514610482578063a22cb46514610495578063aab284e7146104a8578063ac9650d8146104bb57600080fd5b80636febc04d1461043a5780638da5cb5b14610443578063938e3d7b14610454578063949c09f71461046757600080fd5b80633b1475a7116101be578063504c6e0111610182578063504c6e01146103dc57806350d15fbe146103e9578063600dd5ea1461040c57806363b45e2d1461041f5780636b20c4541461042757600080fd5b80633b1475a71461033f57806341f4343414610347578063465e4088146103745780634cc157df146103875780634e1273f4146103bc57600080fd5b806313af40351161020557806313af4035146102bf5780632419f51b146102d45780632a55205a146102e75780632eb2c2d61461031957806332f0cd641461032c57600080fd5b8062fdd58e1461023657806301ffc9a71461027457806306fdde03146102975780630e89341c146102ac575b600080fd5b610261610244366004612bbd565b600260209081526000928352604080842090915290825290205481565b6040519081526020015b60405180910390f35b610287610282366004612bfd565b6105ce565b604051901515815260200161026b565b61029f61063b565b60405161026b9190612c6a565b61029f6102ba366004612c7d565b6106c9565b6102d26102cd366004612c96565b6107b7565b005b6102616102e2366004612c7d565b6107f0565b6102fa6102f5366004612cb1565b61085e565b604080516001600160a01b03909316835260208301919091520161026b565b6102d2610327366004612e1c565b61089b565b6102d261033a366004612ed3565b6108ca565b600c54610261565b61035c6daaeb6d7670e522a718067333cd4e81565b6040516001600160a01b03909116815260200161026b565b6102d2610382366004612ef0565b61093b565b61039a610395366004612c7d565b6109ff565b604080516001600160a01b03909316835261ffff90911660208301520161026b565b6103cf6103ca366004612f46565b610a6a565b60405161026b919061304b565b600b546102879060ff1681565b6103fc6103f7366004612c7d565b610b7e565b60405161026b949392919061305e565b6102d261041a366004612bbd565b610c2f565b600954610261565b6102d261043536600461308a565b610c61565b610261600f5481565b6006546001600160a01b031661035c565b6102d26104623660046130fd565b610e03565b6102d2610475366004613131565b610e30565b61029f61102b565b6102d26104903660046131c9565b611038565b6102d26104a33660046131fe565b61106c565b6102d26104b6366004613235565b611080565b6104ce6104c9366004613292565b61114d565b60405161026b9190613306565b6102d26104e9366004613368565b611241565b6007546001600160a01b03811690600160a01b900461ffff1661039a565b61026161051a366004612c7d565b600d6020526000908152604090205481565b61053f61053a366004612c7d565b61132c565b60405161026b91906133c6565b6102d261055a36600461340c565b61142c565b61028761056d366004612c7d565b6114e3565b61029f61150c565b610287610588366004613438565b600360209081526000928352604080842090915290825290205460ff1681565b6102d26105b6366004613462565b611519565b6102d26105c93660046134c6565b611540565b60006301ffc9a760e01b6001600160e01b0319831614806105ff5750636cdb3d1360e11b6001600160e01b03198316145b8061061a57506303a24d0760e21b6001600160e01b03198316145b8061063557506001600160e01b0319821663152a902d60e11b145b92915050565b60008054610648906134f9565b80601f0160208091040260200160405190810160405280929190818152602001828054610674906134f9565b80156106c15780601f10610696576101008083540402835291602001916106c1565b820191906000526020600020905b8154815290600101906020018083116106a457829003601f168201915b505050505081565b6000818152600460205260408120805460609291906106e7906134f9565b80601f0160208091040260200160405190810160405280929190818152602001828054610713906134f9565b80156107605780601f1061073557610100808354040283529160200191610760565b820191906000526020600020905b81548152906001019060200180831161074357829003601f168201915b505050505090506000815111156107775792915050565b600061078284611635565b90508061078e856117d1565b60405160200161079f929190613533565b60405160208183030381529060405292505050919050565b6107bf6118d9565b6107e45760405162461bcd60e51b81526004016107db90613562565b60405180910390fd5b6107ed81611906565b50565b60006107fb60095490565b82106108395760405162461bcd60e51b815260206004820152600d60248201526c092dcecc2d8d2c840d2dcc8caf609b1b60448201526064016107db565b6009828154811061084c5761084c61358a565b90600052602060002001549050919050565b60008060008061086d866109ff565b90945084925061ffff16905061271061088682876135b6565b61089091906135e3565b925050509250929050565b846001600160a01b03811633146108b5576108b533611958565b6108c28686868686611a1c565b505050505050565b6108d26118d9565b6109325760405162461bcd60e51b815260206004820152602b60248201527f4e6f7420617574686f72697a656420746f20736574206f70657261746f72207260448201526a32b9ba3934b1ba34b7b71760a91b60648201526084016107db565b6107ed81611aab565b600f548411156109845760405162461bcd60e51b815260206004820152601460248201527314dada5b1b08191bd95cc81b9bdd08195e1a5cdd60621b60448201526064016107db565b6000848152600e6020526040902060010161099f848261363d565b506000848152600e60205260409081902060028101849055600301829055517f6bdce87fe79dd897b3a7b02dcbd1daad88ae77778c04c6429535ee35c0b42ecf906109f190869086908690869061305e565b60405180910390a150505050565b6000818152600860209081526040808320815180830190925280546001600160a01b031680835260019091015492820192909252829115610a465780516020820151610a60565b6007546001600160a01b03811690600160a01b900461ffff165b9250925050915091565b60608151835114610a8d5760405162461bcd60e51b81526004016107db906136fc565b600083516001600160401b03811115610aa857610aa8612cd3565b604051908082528060200260200182016040528015610ad1578160200160208202803683370190505b50905060005b8451811015610b765760026000868381518110610af657610af661358a565b60200260200101516001600160a01b03166001600160a01b031681526020019081526020016000206000858381518110610b3257610b3261358a565b6020026020010151815260200190815260200160002054828281518110610b5b57610b5b61358a565b6020908102919091010152610b6f81613725565b9050610ad7565b509392505050565b600e6020526000908152604090208054600182018054919291610ba0906134f9565b80601f0160208091040260200160405190810160405280929190818152602001828054610bcc906134f9565b8015610c195780601f10610bee57610100808354040283529160200191610c19565b820191906000526020600020905b815481529060010190602001808311610bfc57829003601f168201915b5050505050908060020154908060030154905084565b610c376118d9565b610c535760405162461bcd60e51b81526004016107db90613562565b610c5d8282611af2565b5050565b336001600160a01b038416811480610c9e57506001600160a01b0380851660009081526003602090815260408083209385168352929052205460ff165b610cde5760405162461bcd60e51b81526020600482015260116024820152702ab730b8383937bb32b21031b0b63632b960791b60448201526064016107db565b8151835114610d215760405162461bcd60e51b815260206004820152600f60248201526e098cadccee8d040dad2e6dac2e8c6d608b1b60448201526064016107db565b60005b8351811015610df157828181518110610d3f57610d3f61358a565b602002602001015160026000876001600160a01b03166001600160a01b031681526020019081526020016000206000868481518110610d8057610d8061358a565b60200260200101518152602001908152602001600020541015610ddf5760405162461bcd60e51b8152602060048201526017602482015276139bdd08195b9bdd59da081d1bdad95b9cc81bdddb9959604a1b60448201526064016107db565b610dea60018261373e565b9050610d24565b50610dfd848484611b98565b50505050565b610e0b6118d9565b610e275760405162461bcd60e51b81526004016107db90613562565b6107ed81611d4d565b610e386118d9565b610e7e5760405162461bcd60e51b81526020600482015260176024820152762737ba1030baba3437b934bd32b2103a379036b4b73a1760491b60448201526064016107db565b6000825111610ec65760405162461bcd60e51b815260206004820152601460248201527326b4b73a34b733903d32b937903a37b5b2b7399760611b60448201526064016107db565b8151835114610f0a5760405162461bcd60e51b815260206004820152601060248201526f2632b733ba341036b4b9b6b0ba31b41760811b60448201526064016107db565b6000610f15600c5490565b9050806000805b8651811015610feb57600019878281518110610f3a57610f3a61358a565b602002602001015103610f845783878281518110610f5a57610f5a61358a565b6020908102919091010152610f7060018561373e565b9350610f7d60018361373e565b9150610fd9565b83878281518110610f9757610f9761358a565b602002602001015110610fd95760405162461bcd60e51b815260206004820152600a6024820152691a5b9d985b1a59081a5960b21b60448201526064016107db565b610fe460018261373e565b9050610f1c565b50801561100057610ffd828286611e29565b50505b82600c8190555061102287878760405180602001604052806000815250611e8d565b50505050505050565b60018054610648906134f9565b6110406118d9565b61105c5760405162461bcd60e51b81526004016107db90613562565b611067838383611fe8565b505050565b8161107681611958565b61106783836120b2565b600f805460001991600061109383613725565b91905055506110a53382846001611241565b60408051608081018252600f548082526020808301898152838501899052606084018890526000928352600e90915292902081518155915190919060018201906110ef908261363d565b5060408201518160020155606082015181600301559050507f151fb88cae2f0593836dba02d7c08b0f93b84d4747f6ca1aa4c19902dffe8230600f5486868660405161113e949392919061305e565b60405180910390a15050505050565b6060816001600160401b0381111561116757611167612cd3565b60405190808252806020026020018201604052801561119a57816020015b60608152602001906001900390816111855790505b50905060005b8281101561123a5761120a308585848181106111be576111be61358a565b90506020028101906111d09190613751565b8080601f01602080910402602001604051908101604052809392919081815260200183838082843760009201919091525061216192505050565b82828151811061121c5761121c61358a565b6020026020010181905250808061123290613725565b9150506111a0565b5092915050565b6112496118d9565b61128f5760405162461bcd60e51b81526020600482015260176024820152762737ba1030baba3437b934bd32b2103a379036b4b73a1760491b60448201526064016107db565b60008061129b600c5490565b905060001985036112d1578091506001600c60008282546112bc919061373e565b909155506112cc9050818561218d565b611311565b80851061130d5760405162461bcd60e51b815260206004820152600a6024820152691a5b9d985b1a59081a5960b21b60448201526064016107db565b8491505b6108c2868385604051806020016040528060008152506121a5565b6113576040518060800160405280600081526020016060815260200160008152602001600081525090565b600e60008381526020019081526020016000206040518060800160405290816000820154815260200160018201805461138f906134f9565b80601f01602080910402602001604051908101604052809291908181526020018280546113bb906134f9565b80156114085780601f106113dd57610100808354040283529160200191611408565b820191906000526020600020905b8154815290600101906020018083116113eb57829003601f168201915b50505050508152602001600282015481526020016003820154815250509050919050565b600f54821115801561143d57508115155b61147c5760405162461bcd60e51b815260206004820152601060248201526f125b9d985b1a59081cdada5b1b08125160821b60448201526064016107db565b600082905061149d82826001604051806020016040528060008152506121a5565b604080518481526001600160a01b03841660208201527fc5b5b56a37ab6149673a31dd40da12b894fea2776012a9a70a9c69802aa67786910160405180910390a1505050565b6000818152600e602052604081206001018054829190611502906134f9565b9050119050919050565b60058054610648906134f9565b846001600160a01b03811633146115335761153333611958565b6108c2868686868661227e565b336001600160a01b03841681148061157d57506001600160a01b0380851660009081526003602090815260408083209385168352929052205460ff165b6115bd5760405162461bcd60e51b81526020600482015260116024820152702ab730b8383937bb32b21031b0b63632b960791b60448201526064016107db565b6001600160a01b038416600090815260026020908152604080832086845290915290205482111561162a5760405162461bcd60e51b8152602060048201526017602482015276139bdd08195b9bdd59da081d1bdad95b9cc81bdddb9959604a1b60448201526064016107db565b610dfd848484612306565b6060600061164260095490565b90506000600980548060200260200160405190810160405280929190818152602001828054801561169257602002820191906000526020600020905b81548152602001906001019080831161167e575b5050505050905060005b82811015611796578181815181106116b6576116b661358a565b602002602001015185101561178457600a60008383815181106116db576116db61358a565b6020026020010151815260200190815260200160002080546116fc906134f9565b80601f0160208091040260200160405190810160405280929190818152602001828054611728906134f9565b80156117755780601f1061174a57610100808354040283529160200191611775565b820191906000526020600020905b81548152906001019060200180831161175857829003601f168201915b50505050509350505050919050565b61178f60018261373e565b905061169c565b5060405162461bcd60e51b815260206004820152600f60248201526e125b9d985b1a59081d1bdad95b9259608a1b60448201526064016107db565b6060816000036117f85750506040805180820190915260018152600360fc1b602082015290565b8160005b8115611822578061180c81613725565b915061181b9050600a836135e3565b91506117fc565b6000816001600160401b0381111561183c5761183c612cd3565b6040519080825280601f01601f191660200182016040528015611866576020820181803683370190505b5090505b84156118d15761187b60018361379e565b9150611888600a866137b1565b61189390603061373e565b60f81b8183815181106118a8576118a861358a565b60200101906001600160f81b031916908160001a9053506118ca600a866135e3565b945061186a565b949350505050565b60006118ed6006546001600160a01b031690565b6001600160a01b0316336001600160a01b031614905090565b600680546001600160a01b038381166001600160a01b0319831681179093556040519116919082907f8292fce18fa69edf4db7b94ea2e58241df0ae57f97e0a6c9b29067028bf92d7690600090a35050565b600b5460ff16156107ed576daaeb6d7670e522a718067333cd4e3b156107ed57604051633185c44d60e21b81523060048201526001600160a01b03821660248201526daaeb6d7670e522a718067333cd4e9063c617113490604401602060405180830381865afa1580156119d0573d6000803e3d6000fd5b505050506040513d601f19601f820116820180604052508101906119f491906137c5565b6107ed57604051633b79c77360e21b81526001600160a01b03821660048201526024016107db565b6001600160a01b038516331480611a5657506001600160a01b038516600090815260036020908152604080832033845290915290205460ff165b611a975760405162461bcd60e51b81526020600482015260126024820152710853d5d3915497d3d497d054141493d5915160721b60448201526064016107db565b611aa4858585858561242b565b5050505050565b600b805460ff19168215159081179091556040519081527f38475885990d8dfe9ca01f0ef160a1b5514426eab9ddbc953a3353410ba780969060200160405180910390a150565b612710811115611b365760405162461bcd60e51b815260206004820152600f60248201526e45786365656473206d61782062707360881b60448201526064016107db565b600780546001600160a01b0384166001600160b01b03199091168117600160a01b61ffff851602179091556040518281527f90d7ec04bcb8978719414f82e52e4cb651db41d0e6f8cea6118c2191e6183adb9060200160405180910390a25050565b6001600160a01b038316611bdf5760405162461bcd60e51b815260206004820152600e60248201526d232927a6afad22a927afa0a2222960911b60448201526064016107db565b8051825114611c005760405162461bcd60e51b81526004016107db906136fc565b6000339050611c23818560008686604051806020016040528060008152506125de565b60005b8351811015611cee576000848281518110611c4357611c4361358a565b602002602001015190506000848381518110611c6157611c6161358a565b6020908102919091018101516001600160a01b0389166000908152600283526040808220868352909352919091205490915081811015611cb35760405162461bcd60e51b81526004016107db906137e2565b6001600160a01b0388166000908152600260209081526040808320958352949052929092209103905580611ce681613725565b915050611c26565b5060006001600160a01b0316846001600160a01b0316826001600160a01b03167f4a39dc06d4c0dbc64b70af90fd698a233a518aa5d07e595d983b8c0526c8f7fb8686604051611d3f92919061380c565b60405180910390a450505050565b600060058054611d5c906134f9565b80601f0160208091040260200160405190810160405280929190818152602001828054611d88906134f9565b8015611dd55780601f10611daa57610100808354040283529160200191611dd5565b820191906000526020600020905b815481529060010190602001808311611db857829003601f168201915b505050505090508160059081611deb919061363d565b507fc9c7c3fe08b88b4df9d4d47ef47d2c43d55c025a0ba88ca442580ed9e7348a168183604051611e1d92919061383a565b60405180910390a15050565b600080611e36848661373e565b60098054600181019091557f6e1540171b6c0c960b71a7020d9f60077f6af931a8bbf590da0223dacf75c7af018190556000818152600a60205260409020909250829150611e84848261363d565b50935093915050565b6001600160a01b038416611eb35760405162461bcd60e51b81526004016107db9061385f565b8151835114611ed45760405162461bcd60e51b81526004016107db906136fc565b33611ee4816000878787876125de565b60005b8451811015611f8057838181518110611f0257611f0261358a565b602002602001015160026000886001600160a01b03166001600160a01b031681526020019081526020016000206000878481518110611f4357611f4361358a565b602002602001015181526020019081526020016000206000828254611f68919061373e565b90915550819050611f7881613725565b915050611ee7565b50846001600160a01b031660006001600160a01b0316826001600160a01b03167f4a39dc06d4c0dbc64b70af90fd698a233a518aa5d07e595d983b8c0526c8f7fb8787604051611fd192919061380c565b60405180910390a4611aa4816000878787876126ea565b61271081111561202c5760405162461bcd60e51b815260206004820152600f60248201526e45786365656473206d61782062707360881b60448201526064016107db565b6040805180820182526001600160a01b038481168083526020808401868152600089815260088352869020945185546001600160a01b031916941693909317845591516001909301929092559151838152909185917f7365cf4122f072a3365c20d54eff9b38d73c096c28e1892ec8f5b0e403a0f12d91015b60405180910390a3505050565b336001600160a01b03831681036120fc5760405162461bcd60e51b815260206004820152600e60248201526d20a8282927ab24a723afa9a2a62360911b60448201526064016107db565b6001600160a01b03818116600081815260036020908152604080832094881680845294825291829020805460ff191687151590811790915591519182527f17307eab39ab6107e8899845ad3d59bd9653f200f220920489ca2b5937696c3191016120a5565b60606121868383604051806060016040528060278152602001613a076027913961283d565b9392505050565b6000828152600460205260409020611067828261363d565b6001600160a01b0384166121cb5760405162461bcd60e51b81526004016107db9061385f565b336121eb816000876121dc8861291a565b6121e58861291a565b876125de565b6001600160a01b03851660009081526002602090815260408083208784529091528120805485929061221e90849061373e565b909155505060408051858152602081018590526001600160a01b0380881692600092918516917fc3d58168c5ae7397731d063d5bbf3d657854427343f4c083240f7aacaa2d0f62910160405180910390a4611aa481600087878787612965565b6001600160a01b0385163314806122b857506001600160a01b038516600090815260036020908152604080832033845290915290205460ff165b6122f95760405162461bcd60e51b81526020600482015260126024820152710853d5d3915497d3d497d054141493d5915160721b60448201526064016107db565b611aa48585858585612a42565b6001600160a01b03831661234d5760405162461bcd60e51b815260206004820152600e60248201526d232927a6afad22a927afa0a2222960911b60448201526064016107db565b3361237c8185600061235e8761291a565b6123678761291a565b604051806020016040528060008152506125de565b6001600160a01b0384166000908152600260209081526040808320868452909152902054828110156123c05760405162461bcd60e51b81526004016107db906137e2565b6001600160a01b03858116600081815260026020908152604080832089845282528083208887039055805189815291820188905291938616917fc3d58168c5ae7397731d063d5bbf3d657854427343f4c083240f7aacaa2d0f62910160405180910390a45050505050565b815183511461244c5760405162461bcd60e51b81526004016107db906136fc565b6001600160a01b0384166124725760405162461bcd60e51b81526004016107db9061385f565b336124818187878787876125de565b60005b84518110156125785760008582815181106124a1576124a161358a565b6020026020010151905060008583815181106124bf576124bf61358a565b6020908102919091018101516001600160a01b038b1660009081526002835260408082208683529093529190912054909150818110156125115760405162461bcd60e51b81526004016107db906137e2565b6001600160a01b03808b16600090815260026020818152604080842088855282528084208787039055938d1683529081528282208683529052908120805484929061255d90849061373e565b925050819055505050508061257190613725565b9050612484565b50846001600160a01b0316866001600160a01b0316826001600160a01b03167f4a39dc06d4c0dbc64b70af90fd698a233a518aa5d07e595d983b8c0526c8f7fb87876040516125c892919061380c565b60405180910390a46108c28187878787876126ea565b6001600160a01b0385166126655760005b83518110156126635782818151811061260a5761260a61358a565b6020026020010151600d60008684815181106126285761262861358a565b60200260200101518152602001908152602001600020600082825461264d919061373e565b9091555061265c905081613725565b90506125ef565b505b6001600160a01b0384166108c25760005b8351811015611022578281815181106126915761269161358a565b6020026020010151600d60008684815181106126af576126af61358a565b6020026020010151815260200190815260200160002060008282546126d4919061379e565b909155506126e3905081613725565b9050612676565b6001600160a01b0384163b156108c25760405163bc197c8160e01b81526001600160a01b0385169063bc197c819061272e9089908990889088908890600401613885565b6020604051808303816000875af1925050508015612769575060408051601f3d908101601f19168201909252612766918101906138e3565b60015b6127eb57612775613900565b806308c379a0036127ae575061278961391c565b8061279457506127b0565b8060405162461bcd60e51b81526004016107db9190612c6a565b505b60405162461bcd60e51b815260206004820152601060248201526f10a2a92198989a9aa922a1a2a4ab22a960811b60448201526064016107db565b6001600160e01b0319811663bc197c8160e01b146110225760405162461bcd60e51b815260206004820152600f60248201526e1513d2d15394d7d491529150d51151608a1b60448201526064016107db565b60606001600160a01b0384163b6128a55760405162461bcd60e51b815260206004820152602660248201527f416464726573733a2064656c65676174652063616c6c20746f206e6f6e2d636f6044820152651b9d1c9858dd60d21b60648201526084016107db565b600080856001600160a01b0316856040516128c091906139a5565b600060405180830381855af49150503d80600081146128fb576040519150601f19603f3d011682016040523d82523d6000602084013e612900565b606091505b5091509150612910828286612b68565b9695505050505050565b604080516001808252818301909252606091600091906020808301908036833701905050905082816000815181106129545761295461358a565b602090810291909101015292915050565b6001600160a01b0384163b156108c25760405163f23a6e6160e01b81526001600160a01b0385169063f23a6e61906129a990899089908890889088906004016139c1565b6020604051808303816000875af19250505080156129e4575060408051601f3d908101601f191682019092526129e1918101906138e3565b60015b6129f057612775613900565b6001600160e01b0319811663f23a6e6160e01b146110225760405162461bcd60e51b815260206004820152600f60248201526e1513d2d15394d7d491529150d51151608a1b60448201526064016107db565b6001600160a01b038416612a685760405162461bcd60e51b81526004016107db9061385f565b33612a788187876121dc8861291a565b6001600160a01b038616600090815260026020908152604080832087845290915290205483811015612abc5760405162461bcd60e51b81526004016107db906137e2565b6001600160a01b0380881660009081526002602081815260408084208a855282528084208987039055938a16835290815282822088835290529081208054869290612b0890849061373e565b909155505060408051868152602081018690526001600160a01b03808916928a821692918616917fc3d58168c5ae7397731d063d5bbf3d657854427343f4c083240f7aacaa2d0f62910160405180910390a4611022828888888888612965565b60608315612b77575081612186565b825115612b875782518084602001fd5b8160405162461bcd60e51b81526004016107db9190612c6a565b80356001600160a01b0381168114612bb857600080fd5b919050565b60008060408385031215612bd057600080fd5b612bd983612ba1565b946020939093013593505050565b6001600160e01b0319811681146107ed57600080fd5b600060208284031215612c0f57600080fd5b813561218681612be7565b60005b83811015612c35578181015183820152602001612c1d565b50506000910152565b60008151808452612c56816020860160208601612c1a565b601f01601f19169290920160200192915050565b6020815260006121866020830184612c3e565b600060208284031215612c8f57600080fd5b5035919050565b600060208284031215612ca857600080fd5b61218682612ba1565b60008060408385031215612cc457600080fd5b50508035926020909101359150565b634e487b7160e01b600052604160045260246000fd5b601f8201601f191681016001600160401b0381118282101715612d0e57612d0e612cd3565b6040525050565b60006001600160401b03821115612d2e57612d2e612cd3565b5060051b60200190565b600082601f830112612d4957600080fd5b81356020612d5682612d15565b604051612d638282612ce9565b83815260059390931b8501820192828101915086841115612d8357600080fd5b8286015b84811015612d9e5780358352918301918301612d87565b509695505050505050565b600082601f830112612dba57600080fd5b81356001600160401b03811115612dd357612dd3612cd3565b604051612dea601f8301601f191660200182612ce9565b818152846020838601011115612dff57600080fd5b816020850160208301376000918101602001919091529392505050565b600080600080600060a08688031215612e3457600080fd5b612e3d86612ba1565b9450612e4b60208701612ba1565b935060408601356001600160401b0380821115612e6757600080fd5b612e7389838a01612d38565b94506060880135915080821115612e8957600080fd5b612e9589838a01612d38565b93506080880135915080821115612eab57600080fd5b50612eb888828901612da9565b9150509295509295909350565b80151581146107ed57600080fd5b600060208284031215612ee557600080fd5b813561218681612ec5565b60008060008060808587031215612f0657600080fd5b8435935060208501356001600160401b03811115612f2357600080fd5b612f2f87828801612da9565b949794965050505060408301359260600135919050565b60008060408385031215612f5957600080fd5b82356001600160401b0380821115612f7057600080fd5b818501915085601f830112612f8457600080fd5b81356020612f9182612d15565b604051612f9e8282612ce9565b83815260059390931b8501820192828101915089841115612fbe57600080fd5b948201945b83861015612fe357612fd486612ba1565b82529482019490820190612fc3565b96505086013592505080821115612ff957600080fd5b5061300685828601612d38565b9150509250929050565b600081518084526020808501945080840160005b8381101561304057815187529582019590820190600101613024565b509495945050505050565b6020815260006121866020830184613010565b8481526080602082015260006130776080830186612c3e565b6040830194909452506060015292915050565b60008060006060848603121561309f57600080fd5b6130a884612ba1565b925060208401356001600160401b03808211156130c457600080fd5b6130d087838801612d38565b935060408601359150808211156130e657600080fd5b506130f386828701612d38565b9150509250925092565b60006020828403121561310f57600080fd5b81356001600160401b0381111561312557600080fd5b6118d184828501612da9565b6000806000806080858703121561314757600080fd5b61315085612ba1565b935060208501356001600160401b038082111561316c57600080fd5b61317888838901612d38565b9450604087013591508082111561318e57600080fd5b61319a88838901612d38565b935060608701359150808211156131b057600080fd5b506131bd87828801612da9565b91505092959194509250565b6000806000606084860312156131de57600080fd5b833592506131ee60208501612ba1565b9150604084013590509250925092565b6000806040838503121561321157600080fd5b61321a83612ba1565b9150602083013561322a81612ec5565b809150509250929050565b6000806000806080858703121561324b57600080fd5b84356001600160401b038082111561326257600080fd5b61326e88838901612da9565b9550602087013594506040870135935060608701359150808211156131b057600080fd5b600080602083850312156132a557600080fd5b82356001600160401b03808211156132bc57600080fd5b818501915085601f8301126132d057600080fd5b8135818111156132df57600080fd5b8660208260051b85010111156132f457600080fd5b60209290920196919550909350505050565b6000602080830181845280855180835260408601915060408160051b870101925083870160005b8281101561335b57603f19888603018452613349858351612c3e565b9450928501929085019060010161332d565b5092979650505050505050565b6000806000806080858703121561337e57600080fd5b61338785612ba1565b93506020850135925060408501356001600160401b038111156133a957600080fd5b6133b587828801612da9565b949793965093946060013593505050565b602081528151602082015260006020830151608060408401526133ec60a0840182612c3e565b905060408401516060840152606084015160808401528091505092915050565b6000806040838503121561341f57600080fd5b8235915061342f60208401612ba1565b90509250929050565b6000806040838503121561344b57600080fd5b61345483612ba1565b915061342f60208401612ba1565b600080600080600060a0868803121561347a57600080fd5b61348386612ba1565b945061349160208701612ba1565b9350604086013592506060860135915060808601356001600160401b038111156134ba57600080fd5b612eb888828901612da9565b6000806000606084860312156134db57600080fd5b6134e484612ba1565b95602085013595506040909401359392505050565b600181811c9082168061350d57607f821691505b60208210810361352d57634e487b7160e01b600052602260045260246000fd5b50919050565b60008351613545818460208801612c1a565b835190830190613559818360208801612c1a565b01949350505050565b6020808252600e908201526d139bdd08185d5d1a1bdc9a5e995960921b604082015260600190565b634e487b7160e01b600052603260045260246000fd5b634e487b7160e01b600052601160045260246000fd5b8082028115828204841417610635576106356135a0565b634e487b7160e01b600052601260045260246000fd5b6000826135f2576135f26135cd565b500490565b601f82111561106757600081815260208120601f850160051c8101602086101561361e5750805b601f850160051c820191505b818110156108c25782815560010161362a565b81516001600160401b0381111561365657613656612cd3565b61366a8161366484546134f9565b846135f7565b602080601f83116001811461369f57600084156136875750858301515b600019600386901b1c1916600185901b1785556108c2565b600085815260208120601f198616915b828110156136ce578886015182559484019460019091019084016136af565b50858210156136ec5787850151600019600388901b60f8161c191681555b5050505050600190811b01905550565b6020808252600f908201526e0988a9c8ea890be9a92a69a82a8869608b1b604082015260600190565b600060018201613737576137376135a0565b5060010190565b80820180821115610635576106356135a0565b6000808335601e1984360301811261376857600080fd5b8301803591506001600160401b0382111561378257600080fd5b60200191503681900382131561379757600080fd5b9250929050565b81810381811115610635576106356135a0565b6000826137c0576137c06135cd565b500690565b6000602082840312156137d757600080fd5b815161218681612ec5565b60208082526010908201526f125394d551919250d251539517d0905360821b604082015260600190565b60408152600061381f6040830185613010565b82810360208401526138318185613010565b95945050505050565b60408152600061384d6040830185612c3e565b82810360208401526138318185612c3e565b6020808252600c908201526b2a27afad22a927afa0a2222960a11b604082015260600190565b6001600160a01b0386811682528516602082015260a0604082018190526000906138b190830186613010565b82810360608401526138c38186613010565b905082810360808401526138d78185612c3e565b98975050505050505050565b6000602082840312156138f557600080fd5b815161218681612be7565b600060033d11156139195760046000803e5060005160e01c5b90565b600060443d101561392a5790565b6040516003193d81016004833e81513d6001600160401b03816024840111818411171561395957505050505090565b82850191508151818111156139715750505050505090565b843d870101602082850101111561398b5750505050505090565b61399a60208286010187612ce9565b509095945050505050565b600082516139b7818460208701612c1a565b9190910192915050565b6001600160a01b03868116825285166020820152604081018490526060810183905260a0608082018190526000906139fb90830184612c3e565b97965050505050505056fe416464726573733a206c6f772d6c6576656c2064656c65676174652063616c6c206661696c6564a2646970667358221220640b45308232664d874fed45c1821734dd87099077685436042e65e9d002062864736f6c63430008110033",
  "linkReferences": {},
  "deployedLinkReferences": {}
}