{
  "_format": "hh-sol-artifact-1",
  "contractName": "BattleSkills",
  "sourceName": "contracts/BattleSkills.sol",
  "abi": [
    {
      "inputs": [],
      "stateMutability": "nonpayable",
      "type": "constructor"
    },
    {
      "inputs": [
        {
          "internalType": "address",
          "name": "operator",
          "type": "address"
        }
      ],
      "name": "OperatorNotAllowed",
      "type": "error"
    },
    {
      "anonymous": false,
      "inputs": [
        {
          "indexed": true,
          "internalType": "address",
          "name": "_owner",
          "type": "address"
        },
        {
          "indexed": true,
          "internalType": "address",
          "name": "_operator",
          "type": "address"
        },
        {
          "indexed": false,
          "internalType": "bool",
          "name": "_approved",
          "type": "bool"
        }
      ],
      "name": "ApprovalForAll",
      "type": "event"
    },
    {
      "anonymous": false,
      "inputs": [
        {
          "indexed": false,
          "internalType": "string",
          "name": "prevURI",
          "type": "string"
        },
        {
          "indexed": false,
          "internalType": "string",
          "name": "newURI",
          "type": "string"
        }
      ],
      "name": "ContractURIUpdated",
      "type": "event"
    },
    {
      "anonymous": false,
      "inputs": [
        {
          "indexed": true,
          "internalType": "address",
          "name": "newRoyaltyRecipient",
          "type": "address"
        },
        {
          "indexed": false,
          "internalType": "uint256",
          "name": "newRoyaltyBps",
          "type": "uint256"
        }
      ],
      "name": "DefaultRoyalty",
      "type": "event"
    },
    {
      "anonymous": false,
      "inputs": [
        {
          "indexed": false,
          "internalType": "bool",
          "name": "restriction",
          "type": "bool"
        }
      ],
      "name": "OperatorRestriction",
      "type": "event"
    },
    {
      "anonymous": false,
      "inputs": [
        {
          "indexed": true,
          "internalType": "address",
          "name": "prevOwner",
          "type": "address"
        },
        {
          "indexed": true,
          "internalType": "address",
          "name": "newOwner",
          "type": "address"
        }
      ],
      "name": "OwnerUpdated",
      "type": "event"
    },
    {
      "anonymous": false,
      "inputs": [
        {
          "indexed": true,
          "internalType": "uint256",
          "name": "tokenId",
          "type": "uint256"
        },
        {
          "indexed": true,
          "internalType": "address",
          "name": "royaltyRecipient",
          "type": "address"
        },
        {
          "indexed": false,
          "internalType": "uint256",
          "name": "royaltyBps",
          "type": "uint256"
        }
      ],
      "name": "RoyaltyForToken",
      "type": "event"
    },
    {
      "anonymous": false,
      "inputs": [
        {
          "indexed": false,
          "internalType": "uint256",
          "name": "skillId",
          "type": "uint256"
        },
        {
          "indexed": false,
          "internalType": "string",
          "name": "name",
          "type": "string"
        },
        {
          "indexed": false,
          "internalType": "uint256",
          "name": "damage",
          "type": "uint256"
        },
        {
          "indexed": false,
          "internalType": "uint256",
          "name": "manaCost",
          "type": "uint256"
        }
      ],
      "name": "SkillCreated",
      "type": "event"
    },
    {
      "anonymous": false,
      "inputs": [
        {
          "indexed": false,
          "internalType": "uint256",
          "name": "skillId",
          "type": "uint256"
        },
        {
          "indexed": false,
          "internalType": "address",
          "name": "caller",
          "type": "address"
        }
      ],
      "name": "SkillMinted",
      "type": "event"
    },
    {
      "anonymous": false,
      "inputs": [
        {
          "indexed": false,
          "internalType": "uint256",
          "name": "skillId",
          "type": "uint256"
        },
        {
          "indexed": false,
          "internalType": "string",
          "name": "name",
          "type": "string"
        },
        {
          "indexed": false,
          "internalType": "uint256",
          "name": "damage",
          "type": "uint256"
        },
        {
          "indexed": false,
          "internalType": "uint256",
          "name": "manaCost",
          "type": "uint256"
        }
      ],
      "name": "SkillUpdated",
      "type": "event"
    },
    {
      "anonymous": false,
      "inputs": [
        {
          "indexed": true,
          "internalType": "address",
          "name": "_operator",
          "type": "address"
        },
        {
          "indexed": true,
          "internalType": "address",
          "name": "_from",
          "type": "address"
        },
        {
          "indexed": true,
          "internalType": "address",
          "name": "_to",
          "type": "address"
        },
        {
          "indexed": false,
          "internalType": "uint256[]",
          "name": "_ids",
          "type": "uint256[]"
        },
        {
          "indexed": false,
          "internalType": "uint256[]",
          "name": "_values",
          "type": "uint256[]"
        }
      ],
      "name": "TransferBatch",
      "type": "event"
    },
    {
      "anonymous": false,
      "inputs": [
        {
          "indexed": true,
          "internalType": "address",
          "name": "_operator",
          "type": "address"
        },
        {
          "indexed": true,
          "internalType": "address",
          "name": "_from",
          "type": "address"
        },
        {
          "indexed": true,
          "internalType": "address",
          "name": "_to",
          "type": "address"
        },
        {
          "indexed": false,
          "internalType": "uint256",
          "name": "_id",
          "type": "uint256"
        },
        {
          "indexed": false,
          "internalType": "uint256",
          "name": "_value",
          "type": "uint256"
        }
      ],
      "name": "TransferSingle",
      "type": "event"
    },
    {
      "anonymous": false,
      "inputs": [
        {
          "indexed": false,
          "internalType": "string",
          "name": "_value",
          "type": "string"
        },
        {
          "indexed": true,
          "internalType": "uint256",
          "name": "_id",
          "type": "uint256"
        }
      ],
      "name": "URI",
      "type": "event"
    },
    {
      "inputs": [],
      "name": "OPERATOR_FILTER_REGISTRY",
      "outputs": [
        {
          "internalType": "contract IOperatorFilterRegistry",
          "name": "",
          "type": "address"
        }
      ],
      "stateMutability": "view",
      "type": "function"
    },
    {
      "inputs": [
        {
          "internalType": "address",
          "name": "",
          "type": "address"
        },
        {
          "internalType": "uint256",
          "name": "",
          "type": "uint256"
        }
      ],
      "name": "balanceOf",
      "outputs": [
        {
          "internalType": "uint256",
          "name": "",
          "type": "uint256"
        }
      ],
      "stateMutability": "view",
      "type": "function"
    },
    {
      "inputs": [
        {
          "internalType": "address[]",
          "name": "accounts",
          "type": "address[]"
        },
        {
          "internalType": "uint256[]",
          "name": "ids",
          "type": "uint256[]"
        }
      ],
      "name": "balanceOfBatch",
      "outputs": [
        {
          "internalType": "uint256[]",
          "name": "",
          "type": "uint256[]"
        }
      ],
      "stateMutability": "view",
      "type": "function"
    },
    {
      "inputs": [
        {
          "internalType": "address",
          "name": "_to",
          "type": "address"
        },
        {
          "internalType": "uint256[]",
          "name": "_tokenIds",
          "type": "uint256[]"
        },
        {
          "internalType": "uint256[]",
          "name": "_amounts",
          "type": "uint256[]"
        },
        {
          "internalType": "string",
          "name": "_baseURI",
          "type": "string"
        }
      ],
      "name": "batchMintTo",
      "outputs": [],
      "stateMutability": "nonpayable",
      "type": "function"
    },
    {
      "inputs": [
        {
          "internalType": "address",
          "name": "_owner",
          "type": "address"
        },
        {
          "internalType": "uint256",
          "name": "_tokenId",
          "type": "uint256"
        },
        {
          "internalType": "uint256",
          "name": "_amount",
          "type": "uint256"
        }
      ],
      "name": "burn",
      "outputs": [],
      "stateMutability": "nonpayable",
      "type": "function"
    },
    {
      "inputs": [
        {
          "internalType": "address",
          "name": "_owner",
          "type": "address"
        },
        {
          "internalType": "uint256[]",
          "name": "_tokenIds",
          "type": "uint256[]"
        },
        {
          "internalType": "uint256[]",
          "name": "_amounts",
          "type": "uint256[]"
        }
      ],
      "name": "burnBatch",
      "outputs": [],
      "stateMutability": "nonpayable",
      "type": "function"
    },
    {
      "inputs": [
        {
          "internalType": "uint256",
          "name": "_skillId",
          "type": "uint256"
        },
        {
          "internalType": "address",
          "name": "_caller",
          "type": "address"
        }
      ],
      "name": "burnSkill",
      "outputs": [],
      "stateMutability": "nonpayable",
      "type": "function"
    },
    {
      "inputs": [],
      "name": "contractURI",
      "outputs": [
        {
          "internalType": "string",
          "name": "",
          "type": "string"
        }
      ],
      "stateMutability": "view",
      "type": "function"
    },
    {
      "inputs": [
        {
          "internalType": "string",
          "name": "_name",
          "type": "string"
        },
        {
          "internalType": "uint256",
          "name": "_damage",
          "type": "uint256"
        },
        {
          "internalType": "uint256",
          "name": "_manaCost",
          "type": "uint256"
        },
        {
          "internalType": "string",
          "name": "_tokenURI",
          "type": "string"
        }
      ],
      "name": "createSkill",
      "outputs": [],
      "stateMutability": "nonpayable",
      "type": "function"
    },
    {
      "inputs": [
        {
          "internalType": "uint256",
          "name": "skillId",
          "type": "uint256"
        }
      ],
      "name": "doesSkillExist",
      "outputs": [
        {
          "internalType": "bool",
          "name": "",
          "type": "bool"
        }
      ],
      "stateMutability": "view",
      "type": "function"
    },
    {
      "inputs": [],
      "name": "getBaseURICount",
      "outputs": [
        {
          "internalType": "uint256",
          "name": "",
          "type": "uint256"
        }
      ],
      "stateMutability": "view",
      "type": "function"
    },
    {
      "inputs": [
        {
          "internalType": "uint256",
          "name": "_index",
          "type": "uint256"
        }
      ],
      "name": "getBatchIdAtIndex",
      "outputs": [
        {
          "internalType": "uint256",
          "name": "",
          "type": "uint256"
        }
      ],
      "stateMutability": "view",
      "type": "function"
    },
    {
      "inputs": [],
      "name": "getDefaultRoyaltyInfo",
      "outputs": [
        {
          "internalType": "address",
          "name": "",
          "type": "address"
        },
        {
          "internalType": "uint16",
          "name": "",
          "type": "uint16"
        }
      ],
      "stateMutability": "view",
      "type": "function"
    },
    {
      "inputs": [
        {
          "internalType": "uint256",
          "name": "_tokenId",
          "type": "uint256"
        }
      ],
      "name": "getRoyaltyInfoForToken",
      "outputs": [
        {
          "internalType": "address",
          "name": "",
          "type": "address"
        },
        {
          "internalType": "uint16",
          "name": "",
          "type": "uint16"
        }
      ],
      "stateMutability": "view",
      "type": "function"
    },
    {
      "inputs": [
        {
          "internalType": "uint256",
          "name": "_skillId",
          "type": "uint256"
        }
      ],
      "name": "getSkill",
      "outputs": [
        {
          "components": [
            {
              "internalType": "uint256",
              "name": "skillId",
              "type": "uint256"
            },
            {
              "internalType": "string",
              "name": "name",
              "type": "string"
            },
            {
              "internalType": "uint256",
              "name": "damage",
              "type": "uint256"
            },
            {
              "internalType": "uint256",
              "name": "manaCost",
              "type": "uint256"
            }
          ],
          "internalType": "struct BattleSkills.Skill",
          "name": "",
          "type": "tuple"
        }
      ],
      "stateMutability": "view",
      "type": "function"
    },
    {
      "inputs": [
        {
          "internalType": "address",
          "name": "",
          "type": "address"
        },
        {
          "internalType": "address",
          "name": "",
          "type": "address"
        }
      ],
      "name": "isApprovedForAll",
      "outputs": [
        {
          "internalType": "bool",
          "name": "",
          "type": "bool"
        }
      ],
      "stateMutability": "view",
      "type": "function"
    },
    {
      "inputs": [
        {
          "internalType": "uint256",
          "name": "_skillId",
          "type": "uint256"
        },
        {
          "internalType": "address",
          "name": "_caller",
          "type": "address"
        }
      ],
      "name": "mintSkill",
      "outputs": [],
      "stateMutability": "nonpayable",
      "type": "function"
    },
    {
      "inputs": [
        {
          "internalType": "address",
          "name": "_to",
          "type": "address"
        },
        {
          "internalType": "uint256",
          "name": "_tokenId",
          "type": "uint256"
        },
        {
          "internalType": "string",
          "name": "_tokenURI",
          "type": "string"
        },
        {
          "internalType": "uint256",
          "name": "_amount",
          "type": "uint256"
        }
      ],
      "name": "mintTo",
      "outputs": [],
      "stateMutability": "nonpayable",
      "type": "function"
    },
    {
      "inputs": [
        {
          "internalType": "bytes[]",
          "name": "data",
          "type": "bytes[]"
        }
      ],
      "name": "multicall",
      "outputs": [
        {
          "internalType": "bytes[]",
          "name": "results",
          "type": "bytes[]"
        }
      ],
      "stateMutability": "nonpayable",
      "type": "function"
    },
    {
      "inputs": [],
      "name": "name",
      "outputs": [
        {
          "internalType": "string",
          "name": "",
          "type": "string"
        }
      ],
      "stateMutability": "view",
      "type": "function"
    },
    {
      "inputs": [],
      "name": "nextTokenIdToMint",
      "outputs": [
        {
          "internalType": "uint256",
          "name": "",
          "type": "uint256"
        }
      ],
      "stateMutability": "view",
      "type": "function"
    },
    {
      "inputs": [],
      "name": "numSkills",
      "outputs": [
        {
          "internalType": "uint256",
          "name": "",
          "type": "uint256"
        }
      ],
      "stateMutability": "view",
      "type": "function"
    },
    {
      "inputs": [],
      "name": "operatorRestriction",
      "outputs": [
        {
          "internalType": "bool",
          "name": "",
          "type": "bool"
        }
      ],
      "stateMutability": "view",
      "type": "function"
    },
    {
      "inputs": [],
      "name": "owner",
      "outputs": [
        {
          "internalType": "address",
          "name": "",
          "type": "address"
        }
      ],
      "stateMutability": "view",
      "type": "function"
    },
    {
      "inputs": [
        {
          "internalType": "uint256",
          "name": "tokenId",
          "type": "uint256"
        },
        {
          "internalType": "uint256",
          "name": "salePrice",
          "type": "uint256"
        }
      ],
      "name": "royaltyInfo",
      "outputs": [
        {
          "internalType": "address",
          "name": "receiver",
          "type": "address"
        },
        {
          "internalType": "uint256",
          "name": "royaltyAmount",
          "type": "uint256"
        }
      ],
      "stateMutability": "view",
      "type": "function"
    },
    {
      "inputs": [
        {
          "internalType": "address",
          "name": "from",
          "type": "address"
        },
        {
          "internalType": "address",
          "name": "to",
          "type": "address"
        },
        {
          "internalType": "uint256[]",
          "name": "ids",
          "type": "uint256[]"
        },
        {
          "internalType": "uint256[]",
          "name": "amounts",
          "type": "uint256[]"
        },
        {
          "internalType": "bytes",
          "name": "data",
          "type": "bytes"
        }
      ],
      "name": "safeBatchTransferFrom",
      "outputs": [],
      "stateMutability": "nonpayable",
      "type": "function"
    },
    {
      "inputs": [
        {
          "internalType": "address",
          "name": "from",
          "type": "address"
        },
        {
          "internalType": "address",
          "name": "to",
          "type": "address"
        },
        {
          "internalType": "uint256",
          "name": "id",
          "type": "uint256"
        },
        {
          "internalType": "uint256",
          "name": "amount",
          "type": "uint256"
        },
        {
          "internalType": "bytes",
          "name": "data",
          "type": "bytes"
        }
      ],
      "name": "safeTransferFrom",
      "outputs": [],
      "stateMutability": "nonpayable",
      "type": "function"
    },
    {
      "inputs": [
        {
          "internalType": "address",
          "name": "operator",
          "type": "address"
        },
        {
          "internalType": "bool",
          "name": "approved",
          "type": "bool"
        }
      ],
      "name": "setApprovalForAll",
      "outputs": [],
      "stateMutability": "nonpayable",
      "type": "function"
    },
    {
      "inputs": [
        {
          "internalType": "string",
          "name": "_uri",
          "type": "string"
        }
      ],
      "name": "setContractURI",
      "outputs": [],
      "stateMutability": "nonpayable",
      "type": "function"
    },
    {
      "inputs": [
        {
          "internalType": "address",
          "name": "_royaltyRecipient",
          "type": "address"
        },
        {
          "internalType": "uint256",
          "name": "_royaltyBps",
          "type": "uint256"
        }
      ],
      "name": "setDefaultRoyaltyInfo",
      "outputs": [],
      "stateMutability": "nonpayable",
      "type": "function"
    },
    {
      "inputs": [
        {
          "internalType": "bool",
          "name": "_restriction",
          "type": "bool"
        }
      ],
      "name": "setOperatorRestriction",
      "outputs": [],
      "stateMutability": "nonpayable",
      "type": "function"
    },
    {
      "inputs": [
        {
          "internalType": "address",
          "name": "_newOwner",
          "type": "address"
        }
      ],
      "name": "setOwner",
      "outputs": [],
      "stateMutability": "nonpayable",
      "type": "function"
    },
    {
      "inputs": [
        {
          "internalType": "uint256",
          "name": "_tokenId",
          "type": "uint256"
        },
        {
          "internalType": "address",
          "name": "_recipient",
          "type": "address"
        },
        {
          "internalType": "uint256",
          "name": "_bps",
          "type": "uint256"
        }
      ],
      "name": "setRoyaltyInfoForToken",
      "outputs": [],
      "stateMutability": "nonpayable",
      "type": "function"
    },
    {
      "inputs": [
        {
          "internalType": "uint256",
          "name": "",
          "type": "uint256"
        }
      ],
      "name": "skills",
      "outputs": [
        {
          "internalType": "uint256",
          "name": "skillId",
          "type": "uint256"
        },
        {
          "internalType": "string",
          "name": "name",
          "type": "string"
        },
        {
          "internalType": "uint256",
          "name": "damage",
          "type": "uint256"
        },
        {
          "internalType": "uint256",
          "name": "manaCost",
          "type": "uint256"
        }
      ],
      "stateMutability": "view",
      "type": "function"
    },
    {
      "inputs": [
        {
          "internalType": "address",
          "name": "_subscription",
          "type": "address"
        }
      ],
      "name": "subscribeToRegistry",
      "outputs": [],
      "stateMutability": "nonpayable",
      "type": "function"
    },
    {
      "inputs": [
        {
          "internalType": "bytes4",
          "name": "interfaceId",
          "type": "bytes4"
        }
      ],
      "name": "supportsInterface",
      "outputs": [
        {
          "internalType": "bool",
          "name": "",
          "type": "bool"
        }
      ],
      "stateMutability": "view",
      "type": "function"
    },
    {
      "inputs": [],
      "name": "symbol",
      "outputs": [
        {
          "internalType": "string",
          "name": "",
          "type": "string"
        }
      ],
      "stateMutability": "view",
      "type": "function"
    },
    {
      "inputs": [
        {
          "internalType": "uint256",
          "name": "",
          "type": "uint256"
        }
      ],
      "name": "totalSupply",
      "outputs": [
        {
          "internalType": "uint256",
          "name": "",
          "type": "uint256"
        }
      ],
      "stateMutability": "view",
      "type": "function"
    },
    {
      "inputs": [
        {
          "internalType": "uint256",
          "name": "_skillId",
          "type": "uint256"
        },
        {
          "internalType": "string",
          "name": "_name",
          "type": "string"
        },
        {
          "internalType": "uint256",
          "name": "_damage",
          "type": "uint256"
        },
        {
          "internalType": "uint256",
          "name": "_manaCost",
          "type": "uint256"
        }
      ],
      "name": "updateSkill",
      "outputs": [],
      "stateMutability": "nonpayable",
      "type": "function"
    },
    {
      "inputs": [
        {
          "internalType": "uint256",
          "name": "_tokenId",
          "type": "uint256"
        }
      ],
      "name": "uri",
      "outputs": [
        {
          "internalType": "string",
          "name": "",
          "type": "string"
        }
      ],
      "stateMutability": "view",
      "type": "function"
    }
  ],
  "bytecode": "0x60806040523480156200001157600080fd5b50336040518060400160405280600c81526020016b426174746c65536b696c6c7360a01b81525060405180604001604052806002815260200161425360f01b815250600080733cc6cdda760b79bafa08df41ecfa224f810dceb6600185858160009081620000809190620003f7565b5060016200008f8282620003f7565b505050620000a48282620000e460201b60201c565b50620000b290508562000212565b620000c7826001600160801b03831662000264565b620000d360016200030f565b50506001600c5550620004c3915050565b6daaeb6d7670e522a718067333cd4e3b156200020e576001600160a01b0382163b15620001c75780156200018657604051633e9f1edf60e11b81523060048201526001600160a01b03831660248201526daaeb6d7670e522a718067333cd4e90637d3e3dbe906044015b600060405180830381600087803b1580156200016957600080fd5b505af11580156200017e573d6000803e3d6000fd5b505050505050565b60405163a0af290360e01b81523060048201526001600160a01b03831660248201526daaeb6d7670e522a718067333cd4e9063a0af2903906044016200014e565b604051632210724360e11b81523060048201526daaeb6d7670e522a718067333cd4e90634420e48690602401600060405180830381600087803b1580156200016957600080fd5b5050565b600680546001600160a01b038381166001600160a01b0319831681179093556040519116919082907f8292fce18fa69edf4db7b94ea2e58241df0ae57f97e0a6c9b29067028bf92d7690600090a35050565b612710811115620002ad5760405162461bcd60e51b815260206004820152600f60248201526e45786365656473206d61782062707360881b604482015260640160405180910390fd5b600780546001600160a01b0384166001600160b01b03199091168117600160a01b61ffff851602179091556040518281527f90d7ec04bcb8978719414f82e52e4cb651db41d0e6f8cea6118c2191e6183adb9060200160405180910390a25050565b600b805460ff19168215159081179091556040519081527f38475885990d8dfe9ca01f0ef160a1b5514426eab9ddbc953a3353410ba780969060200160405180910390a150565b634e487b7160e01b600052604160045260246000fd5b600181811c908216806200038157607f821691505b602082108103620003a257634e487b7160e01b600052602260045260246000fd5b50919050565b601f821115620003f257600081815260208120601f850160051c81016020861015620003d15750805b601f850160051c820191505b818110156200017e57828155600101620003dd565b505050565b81516001600160401b0381111562000413576200041362000356565b6200042b816200042484546200036c565b84620003a8565b602080601f8311600181146200046357600084156200044a5750858301515b600019600386901b1c1916600185901b1785556200017e565b600085815260208120601f198616915b82811015620004945788860151825594840194600190910190840162000473565b5085821015620004b35787850151600019600388901b60f8161c191681555b5050505050600190811b01905550565b613ce180620004d36000396000f3fe608060405234801561001057600080fd5b50600436106102475760003560e01c80636febc04d1161013b578063b24f2d39116100b8578063e5ae11e41161007c578063e5ae11e41461059b578063e8a3d485146105ae578063e985e9c5146105b6578063f242432a146105e4578063f5298aca146105f757600080fd5b8063b24f2d3914610517578063bd85b03914610535578063bd880fae14610555578063bfa0fedb14610575578063d6bc3d731461058857600080fd5b80639bcf7a15116100ff5780639bcf7a15146104ab578063a22cb465146104be578063aab284e7146104d1578063ac9650d8146104e4578063b03f45281461050457600080fd5b80636febc04d146104635780638da5cb5b1461046c578063938e3d7b1461047d578063949c09f71461049057806395d89b41146104a357600080fd5b806341f43434116101c957806350d15fbe1161018d57806350d15fbe146103ff57806357fd845514610422578063600dd5ea1461043557806363b45e2d146104485780636b20c4541461045057600080fd5b806341f434341461035d578063465e40881461038a5780634cc157df1461039d5780634e1273f4146103d2578063504c6e01146103f257600080fd5b80632419f51b116102105780632419f51b146102ea5780632a55205a146102fd5780632eb2c2d61461032f57806332f0cd64146103425780633b1475a71461035557600080fd5b8062fdd58e1461024c57806301ffc9a71461028a57806306fdde03146102ad5780630e89341c146102c257806313af4035146102d5575b600080fd5b61027761025a366004612e3b565b600260209081526000928352604080842090915290825290205481565b6040519081526020015b60405180910390f35b61029d610298366004612e7b565b61060a565b6040519015158152602001610281565b6102b5610677565b6040516102819190612ee8565b6102b56102d0366004612efb565b610705565b6102e86102e3366004612f14565b6107f3565b005b6102776102f8366004612efb565b61082c565b61031061030b366004612f2f565b61089a565b604080516001600160a01b039093168352602083019190915201610281565b6102e861033d36600461309a565b6108d7565b6102e8610350366004613151565b610906565b600c54610277565b6103726daaeb6d7670e522a718067333cd4e81565b6040516001600160a01b039091168152602001610281565b6102e861039836600461316e565b610977565b6103b06103ab366004612efb565b610a3b565b604080516001600160a01b03909316835261ffff909116602083015201610281565b6103e56103e03660046131c4565b610aa6565b60405161028191906132c9565b600b5461029d9060ff1681565b61041261040d366004612efb565b610bba565b60405161028194939291906132dc565b6102e8610430366004612f14565b610c6b565b6102e8610443366004612e3b565b610cdb565b600954610277565b6102e861045e366004613308565b610d0d565b610277600f5481565b6006546001600160a01b0316610372565b6102e861048b36600461337b565b610eaf565b6102e861049e3660046133af565b610edc565b6102b56110d7565b6102e86104b9366004613447565b6110e4565b6102e86104cc36600461347c565b611118565b6102e86104df3660046134b3565b61112c565b6104f76104f2366004613510565b6111f9565b6040516102819190613584565b6102e86105123660046135e6565b6112ed565b6007546001600160a01b03811690600160a01b900461ffff166103b0565b610277610543366004612efb565b600d6020526000908152604090205481565b610568610563366004612efb565b6113d8565b6040516102819190613644565b6102e861058336600461368a565b6114d8565b61029d610596366004612efb565b61158f565b6102e86105a936600461368a565b6115b8565b6102b5611684565b61029d6105c43660046136b6565b600360209081526000928352604080842090915290825290205460ff1681565b6102e86105f23660046136e0565b611691565b6102e8610605366004613744565b6116b8565b60006301ffc9a760e01b6001600160e01b03198316148061063b5750636cdb3d1360e11b6001600160e01b03198316145b8061065657506303a24d0760e21b6001600160e01b03198316145b8061067157506001600160e01b0319821663152a902d60e11b145b92915050565b6000805461068490613777565b80601f01602080910402602001604051908101604052809291908181526020018280546106b090613777565b80156106fd5780601f106106d2576101008083540402835291602001916106fd565b820191906000526020600020905b8154815290600101906020018083116106e057829003601f168201915b505050505081565b60008181526004602052604081208054606092919061072390613777565b80601f016020809104026020016040519081016040528092919081815260200182805461074f90613777565b801561079c5780601f106107715761010080835404028352916020019161079c565b820191906000526020600020905b81548152906001019060200180831161077f57829003601f168201915b505050505090506000815111156107b35792915050565b60006107be846117ad565b9050806107ca85611949565b6040516020016107db9291906137b1565b60405160208183030381529060405292505050919050565b6107fb611a51565b6108205760405162461bcd60e51b8152600401610817906137e0565b60405180910390fd5b61082981611a7e565b50565b600061083760095490565b82106108755760405162461bcd60e51b815260206004820152600d60248201526c092dcecc2d8d2c840d2dcc8caf609b1b6044820152606401610817565b6009828154811061088857610888613808565b90600052602060002001549050919050565b6000806000806108a986610a3b565b90945084925061ffff1690506127106108c28287613834565b6108cc9190613861565b925050509250929050565b846001600160a01b03811633146108f1576108f133611ad0565b6108fe8686868686611b94565b505050505050565b61090e611a51565b61096e5760405162461bcd60e51b815260206004820152602b60248201527f4e6f7420617574686f72697a656420746f20736574206f70657261746f72207260448201526a32b9ba3934b1ba34b7b71760a91b6064820152608401610817565b61082981611c23565b600f548411156109c05760405162461bcd60e51b815260206004820152601460248201527314dada5b1b08191bd95cc81b9bdd08195e1a5cdd60621b6044820152606401610817565b6000848152600e602052604090206001016109db84826138bb565b506000848152600e60205260409081902060028101849055600301829055517f6bdce87fe79dd897b3a7b02dcbd1daad88ae77778c04c6429535ee35c0b42ecf90610a2d9086908690869086906132dc565b60405180910390a150505050565b6000818152600860209081526040808320815180830190925280546001600160a01b031680835260019091015492820192909252829115610a825780516020820151610a9c565b6007546001600160a01b03811690600160a01b900461ffff165b9250925050915091565b60608151835114610ac95760405162461bcd60e51b81526004016108179061397a565b600083516001600160401b03811115610ae457610ae4612f51565b604051908082528060200260200182016040528015610b0d578160200160208202803683370190505b50905060005b8451811015610bb25760026000868381518110610b3257610b32613808565b60200260200101516001600160a01b03166001600160a01b031681526020019081526020016000206000858381518110610b6e57610b6e613808565b6020026020010151815260200190815260200160002054828281518110610b9757610b97613808565b6020908102919091010152610bab816139a3565b9050610b13565b509392505050565b600e6020526000908152604090208054600182018054919291610bdc90613777565b80601f0160208091040260200160405190810160405280929190818152602001828054610c0890613777565b8015610c555780601f10610c2a57610100808354040283529160200191610c55565b820191906000526020600020905b815481529060010190602001808311610c3857829003601f168201915b5050505050908060020154908060030154905084565b610c73611a51565b610cd05760405162461bcd60e51b815260206004820152602860248201527f4e6f7420617574686f72697a656420746f2073756273637269626520746f207260448201526732b3b4b9ba393c9760c11b6064820152608401610817565b610829816001611c6a565b610ce3611a51565b610cff5760405162461bcd60e51b8152600401610817906137e0565b610d098282611d70565b5050565b336001600160a01b038416811480610d4a57506001600160a01b0380851660009081526003602090815260408083209385168352929052205460ff165b610d8a5760405162461bcd60e51b81526020600482015260116024820152702ab730b8383937bb32b21031b0b63632b960791b6044820152606401610817565b8151835114610dcd5760405162461bcd60e51b815260206004820152600f60248201526e098cadccee8d040dad2e6dac2e8c6d608b1b6044820152606401610817565b60005b8351811015610e9d57828181518110610deb57610deb613808565b602002602001015160026000876001600160a01b03166001600160a01b031681526020019081526020016000206000868481518110610e2c57610e2c613808565b60200260200101518152602001908152602001600020541015610e8b5760405162461bcd60e51b8152602060048201526017602482015276139bdd08195b9bdd59da081d1bdad95b9cc81bdddb9959604a1b6044820152606401610817565b610e966001826139bc565b9050610dd0565b50610ea9848484611e16565b50505050565b610eb7611a51565b610ed35760405162461bcd60e51b8152600401610817906137e0565b61082981611fcb565b610ee4611a51565b610f2a5760405162461bcd60e51b81526020600482015260176024820152762737ba1030baba3437b934bd32b2103a379036b4b73a1760491b6044820152606401610817565b6000825111610f725760405162461bcd60e51b815260206004820152601460248201527326b4b73a34b733903d32b937903a37b5b2b7399760611b6044820152606401610817565b8151835114610fb65760405162461bcd60e51b815260206004820152601060248201526f2632b733ba341036b4b9b6b0ba31b41760811b6044820152606401610817565b6000610fc1600c5490565b9050806000805b865181101561109757600019878281518110610fe657610fe6613808565b602002602001015103611030578387828151811061100657611006613808565b602090810291909101015261101c6001856139bc565b93506110296001836139bc565b9150611085565b8387828151811061104357611043613808565b6020026020010151106110855760405162461bcd60e51b815260206004820152600a6024820152691a5b9d985b1a59081a5960b21b6044820152606401610817565b6110906001826139bc565b9050610fc8565b5080156110ac576110a98282866120a7565b50505b82600c819055506110ce8787876040518060200160405280600081525061210b565b50505050505050565b6001805461068490613777565b6110ec611a51565b6111085760405162461bcd60e51b8152600401610817906137e0565b611113838383612266565b505050565b8161112281611ad0565b6111138383612330565b600f805460001991600061113f836139a3565b919050555061115133828460016112ed565b60408051608081018252600f548082526020808301898152838501899052606084018890526000928352600e909152929020815181559151909190600182019061119b90826138bb565b5060408201518160020155606082015181600301559050507f151fb88cae2f0593836dba02d7c08b0f93b84d4747f6ca1aa4c19902dffe8230600f548686866040516111ea94939291906132dc565b60405180910390a15050505050565b6060816001600160401b0381111561121357611213612f51565b60405190808252806020026020018201604052801561124657816020015b60608152602001906001900390816112315790505b50905060005b828110156112e6576112b63085858481811061126a5761126a613808565b905060200281019061127c91906139cf565b8080601f0160208091040260200160405190810160405280939291908181526020018383808284376000920191909152506123df92505050565b8282815181106112c8576112c8613808565b602002602001018190525080806112de906139a3565b91505061124c565b5092915050565b6112f5611a51565b61133b5760405162461bcd60e51b81526020600482015260176024820152762737ba1030baba3437b934bd32b2103a379036b4b73a1760491b6044820152606401610817565b600080611347600c5490565b9050600019850361137d578091506001600c600082825461136891906139bc565b909155506113789050818561240b565b6113bd565b8085106113b95760405162461bcd60e51b815260206004820152600a6024820152691a5b9d985b1a59081a5960b21b6044820152606401610817565b8491505b6108fe86838560405180602001604052806000815250612423565b6114036040518060800160405280600081526020016060815260200160008152602001600081525090565b600e60008381526020019081526020016000206040518060800160405290816000820154815260200160018201805461143b90613777565b80601f016020809104026020016040519081016040528092919081815260200182805461146790613777565b80156114b45780601f10611489576101008083540402835291602001916114b4565b820191906000526020600020905b81548152906001019060200180831161149757829003601f168201915b50505050508152602001600282015481526020016003820154815250509050919050565b600f5482111580156114e957508115155b6115285760405162461bcd60e51b815260206004820152601060248201526f125b9d985b1a59081cdada5b1b08125160821b6044820152606401610817565b60008290506115498282600160405180602001604052806000815250612423565b604080518481526001600160a01b03841660208201527fc5b5b56a37ab6149673a31dd40da12b894fea2776012a9a70a9c69802aa67786910160405180910390a1505050565b6000818152600e6020526040812060010180548291906115ae90613777565b9050119050919050565b600f5482111580156115c957508115155b6116085760405162461bcd60e51b815260206004820152601060248201526f125b9d985b1a59081cdada5b1b08125160821b6044820152606401610817565b6001600160a01b03811660009081526002602090815260408083208584529091529020546116785760405162461bcd60e51b815260206004820152601e60248201527f43616c6c657220646f6573206e6f74206f776e207468697320736b696c6c00006044820152606401610817565b610d09818360016124fc565b6005805461068490613777565b846001600160a01b03811633146116ab576116ab33611ad0565b6108fe8686868686612621565b336001600160a01b0384168114806116f557506001600160a01b0380851660009081526003602090815260408083209385168352929052205460ff165b6117355760405162461bcd60e51b81526020600482015260116024820152702ab730b8383937bb32b21031b0b63632b960791b6044820152606401610817565b6001600160a01b03841660009081526002602090815260408083208684529091529020548211156117a25760405162461bcd60e51b8152602060048201526017602482015276139bdd08195b9bdd59da081d1bdad95b9cc81bdddb9959604a1b6044820152606401610817565b610ea98484846124fc565b606060006117ba60095490565b90506000600980548060200260200160405190810160405280929190818152602001828054801561180a57602002820191906000526020600020905b8154815260200190600101908083116117f6575b5050505050905060005b8281101561190e5781818151811061182e5761182e613808565b60200260200101518510156118fc57600a600083838151811061185357611853613808565b60200260200101518152602001908152602001600020805461187490613777565b80601f01602080910402602001604051908101604052809291908181526020018280546118a090613777565b80156118ed5780601f106118c2576101008083540402835291602001916118ed565b820191906000526020600020905b8154815290600101906020018083116118d057829003601f168201915b50505050509350505050919050565b6119076001826139bc565b9050611814565b5060405162461bcd60e51b815260206004820152600f60248201526e125b9d985b1a59081d1bdad95b9259608a1b6044820152606401610817565b6060816000036119705750506040805180820190915260018152600360fc1b602082015290565b8160005b811561199a5780611984816139a3565b91506119939050600a83613861565b9150611974565b6000816001600160401b038111156119b4576119b4612f51565b6040519080825280601f01601f1916602001820160405280156119de576020820181803683370190505b5090505b8415611a49576119f3600183613a1c565b9150611a00600a86613a2f565b611a0b9060306139bc565b60f81b818381518110611a2057611a20613808565b60200101906001600160f81b031916908160001a905350611a42600a86613861565b94506119e2565b949350505050565b6000611a656006546001600160a01b031690565b6001600160a01b0316336001600160a01b031614905090565b600680546001600160a01b038381166001600160a01b0319831681179093556040519116919082907f8292fce18fa69edf4db7b94ea2e58241df0ae57f97e0a6c9b29067028bf92d7690600090a35050565b600b5460ff1615610829576daaeb6d7670e522a718067333cd4e3b1561082957604051633185c44d60e21b81523060048201526001600160a01b03821660248201526daaeb6d7670e522a718067333cd4e9063c617113490604401602060405180830381865afa158015611b48573d6000803e3d6000fd5b505050506040513d601f19601f82011682018060405250810190611b6c9190613a43565b61082957604051633b79c77360e21b81526001600160a01b0382166004820152602401610817565b6001600160a01b038516331480611bce57506001600160a01b038516600090815260036020908152604080832033845290915290205460ff165b611c0f5760405162461bcd60e51b81526020600482015260126024820152710853d5d3915497d3d497d054141493d5915160721b6044820152606401610817565b611c1c85858585856126a9565b5050505050565b600b805460ff19168215159081179091556040519081527f38475885990d8dfe9ca01f0ef160a1b5514426eab9ddbc953a3353410ba780969060200160405180910390a150565b6daaeb6d7670e522a718067333cd4e3b15610d09576001600160a01b0382163b15611d3f578015611cff57604051633e9f1edf60e11b81523060048201526001600160a01b03831660248201526daaeb6d7670e522a718067333cd4e90637d3e3dbe906044015b600060405180830381600087803b158015611ceb57600080fd5b505af11580156108fe573d6000803e3d6000fd5b60405163a0af290360e01b81523060048201526001600160a01b03831660248201526daaeb6d7670e522a718067333cd4e9063a0af290390604401611cd1565b604051632210724360e11b81523060048201526daaeb6d7670e522a718067333cd4e90634420e48690602401611cd1565b612710811115611db45760405162461bcd60e51b815260206004820152600f60248201526e45786365656473206d61782062707360881b6044820152606401610817565b600780546001600160a01b0384166001600160b01b03199091168117600160a01b61ffff851602179091556040518281527f90d7ec04bcb8978719414f82e52e4cb651db41d0e6f8cea6118c2191e6183adb9060200160405180910390a25050565b6001600160a01b038316611e5d5760405162461bcd60e51b815260206004820152600e60248201526d232927a6afad22a927afa0a2222960911b6044820152606401610817565b8051825114611e7e5760405162461bcd60e51b81526004016108179061397a565b6000339050611ea18185600086866040518060200160405280600081525061285c565b60005b8351811015611f6c576000848281518110611ec157611ec1613808565b602002602001015190506000848381518110611edf57611edf613808565b6020908102919091018101516001600160a01b0389166000908152600283526040808220868352909352919091205490915081811015611f315760405162461bcd60e51b815260040161081790613a60565b6001600160a01b0388166000908152600260209081526040808320958352949052929092209103905580611f64816139a3565b915050611ea4565b5060006001600160a01b0316846001600160a01b0316826001600160a01b03167f4a39dc06d4c0dbc64b70af90fd698a233a518aa5d07e595d983b8c0526c8f7fb8686604051611fbd929190613a8a565b60405180910390a450505050565b600060058054611fda90613777565b80601f016020809104026020016040519081016040528092919081815260200182805461200690613777565b80156120535780601f1061202857610100808354040283529160200191612053565b820191906000526020600020905b81548152906001019060200180831161203657829003601f168201915b50505050509050816005908161206991906138bb565b507fc9c7c3fe08b88b4df9d4d47ef47d2c43d55c025a0ba88ca442580ed9e7348a16818360405161209b929190613ab8565b60405180910390a15050565b6000806120b484866139bc565b60098054600181019091557f6e1540171b6c0c960b71a7020d9f60077f6af931a8bbf590da0223dacf75c7af018190556000818152600a6020526040902090925082915061210284826138bb565b50935093915050565b6001600160a01b0384166121315760405162461bcd60e51b815260040161081790613add565b81518351146121525760405162461bcd60e51b81526004016108179061397a565b336121628160008787878761285c565b60005b84518110156121fe5783818151811061218057612180613808565b602002602001015160026000886001600160a01b03166001600160a01b0316815260200190815260200160002060008784815181106121c1576121c1613808565b6020026020010151815260200190815260200160002060008282546121e691906139bc565b909155508190506121f6816139a3565b915050612165565b50846001600160a01b031660006001600160a01b0316826001600160a01b03167f4a39dc06d4c0dbc64b70af90fd698a233a518aa5d07e595d983b8c0526c8f7fb878760405161224f929190613a8a565b60405180910390a4611c1c81600087878787612968565b6127108111156122aa5760405162461bcd60e51b815260206004820152600f60248201526e45786365656473206d61782062707360881b6044820152606401610817565b6040805180820182526001600160a01b038481168083526020808401868152600089815260088352869020945185546001600160a01b031916941693909317845591516001909301929092559151838152909185917f7365cf4122f072a3365c20d54eff9b38d73c096c28e1892ec8f5b0e403a0f12d91015b60405180910390a3505050565b336001600160a01b038316810361237a5760405162461bcd60e51b815260206004820152600e60248201526d20a8282927ab24a723afa9a2a62360911b6044820152606401610817565b6001600160a01b03818116600081815260036020908152604080832094881680845294825291829020805460ff191687151590811790915591519182527f17307eab39ab6107e8899845ad3d59bd9653f200f220920489ca2b5937696c319101612323565b60606124048383604051806060016040528060278152602001613c8560279139612abb565b9392505050565b600082815260046020526040902061111382826138bb565b6001600160a01b0384166124495760405162461bcd60e51b815260040161081790613add565b336124698160008761245a88612b98565b61246388612b98565b8761285c565b6001600160a01b03851660009081526002602090815260408083208784529091528120805485929061249c9084906139bc565b909155505060408051858152602081018590526001600160a01b0380881692600092918516917fc3d58168c5ae7397731d063d5bbf3d657854427343f4c083240f7aacaa2d0f62910160405180910390a4611c1c81600087878787612be3565b6001600160a01b0383166125435760405162461bcd60e51b815260206004820152600e60248201526d232927a6afad22a927afa0a2222960911b6044820152606401610817565b336125728185600061255487612b98565b61255d87612b98565b6040518060200160405280600081525061285c565b6001600160a01b0384166000908152600260209081526040808320868452909152902054828110156125b65760405162461bcd60e51b815260040161081790613a60565b6001600160a01b03858116600081815260026020908152604080832089845282528083208887039055805189815291820188905291938616917fc3d58168c5ae7397731d063d5bbf3d657854427343f4c083240f7aacaa2d0f62910160405180910390a45050505050565b6001600160a01b03851633148061265b57506001600160a01b038516600090815260036020908152604080832033845290915290205460ff165b61269c5760405162461bcd60e51b81526020600482015260126024820152710853d5d3915497d3d497d054141493d5915160721b6044820152606401610817565b611c1c8585858585612cc0565b81518351146126ca5760405162461bcd60e51b81526004016108179061397a565b6001600160a01b0384166126f05760405162461bcd60e51b815260040161081790613add565b336126ff81878787878761285c565b60005b84518110156127f657600085828151811061271f5761271f613808565b60200260200101519050600085838151811061273d5761273d613808565b6020908102919091018101516001600160a01b038b16600090815260028352604080822086835290935291909120549091508181101561278f5760405162461bcd60e51b815260040161081790613a60565b6001600160a01b03808b16600090815260026020818152604080842088855282528084208787039055938d168352908152828220868352905290812080548492906127db9084906139bc565b92505081905550505050806127ef906139a3565b9050612702565b50846001600160a01b0316866001600160a01b0316826001600160a01b03167f4a39dc06d4c0dbc64b70af90fd698a233a518aa5d07e595d983b8c0526c8f7fb8787604051612846929190613a8a565b60405180910390a46108fe818787878787612968565b6001600160a01b0385166128e35760005b83518110156128e15782818151811061288857612888613808565b6020026020010151600d60008684815181106128a6576128a6613808565b6020026020010151815260200190815260200160002060008282546128cb91906139bc565b909155506128da9050816139a3565b905061286d565b505b6001600160a01b0384166108fe5760005b83518110156110ce5782818151811061290f5761290f613808565b6020026020010151600d600086848151811061292d5761292d613808565b6020026020010151815260200190815260200160002060008282546129529190613a1c565b909155506129619050816139a3565b90506128f4565b6001600160a01b0384163b156108fe5760405163bc197c8160e01b81526001600160a01b0385169063bc197c81906129ac9089908990889088908890600401613b03565b6020604051808303816000875af19250505080156129e7575060408051601f3d908101601f191682019092526129e491810190613b61565b60015b612a69576129f3613b7e565b806308c379a003612a2c5750612a07613b9a565b80612a125750612a2e565b8060405162461bcd60e51b81526004016108179190612ee8565b505b60405162461bcd60e51b815260206004820152601060248201526f10a2a92198989a9aa922a1a2a4ab22a960811b6044820152606401610817565b6001600160e01b0319811663bc197c8160e01b146110ce5760405162461bcd60e51b815260206004820152600f60248201526e1513d2d15394d7d491529150d51151608a1b6044820152606401610817565b60606001600160a01b0384163b612b235760405162461bcd60e51b815260206004820152602660248201527f416464726573733a2064656c65676174652063616c6c20746f206e6f6e2d636f6044820152651b9d1c9858dd60d21b6064820152608401610817565b600080856001600160a01b031685604051612b3e9190613c23565b600060405180830381855af49150503d8060008114612b79576040519150601f19603f3d011682016040523d82523d6000602084013e612b7e565b606091505b5091509150612b8e828286612de6565b9695505050505050565b60408051600180825281830190925260609160009190602080830190803683370190505090508281600081518110612bd257612bd2613808565b602090810291909101015292915050565b6001600160a01b0384163b156108fe5760405163f23a6e6160e01b81526001600160a01b0385169063f23a6e6190612c279089908990889088908890600401613c3f565b6020604051808303816000875af1925050508015612c62575060408051601f3d908101601f19168201909252612c5f91810190613b61565b60015b612c6e576129f3613b7e565b6001600160e01b0319811663f23a6e6160e01b146110ce5760405162461bcd60e51b815260206004820152600f60248201526e1513d2d15394d7d491529150d51151608a1b6044820152606401610817565b6001600160a01b038416612ce65760405162461bcd60e51b815260040161081790613add565b33612cf681878761245a88612b98565b6001600160a01b038616600090815260026020908152604080832087845290915290205483811015612d3a5760405162461bcd60e51b815260040161081790613a60565b6001600160a01b0380881660009081526002602081815260408084208a855282528084208987039055938a16835290815282822088835290529081208054869290612d869084906139bc565b909155505060408051868152602081018690526001600160a01b03808916928a821692918616917fc3d58168c5ae7397731d063d5bbf3d657854427343f4c083240f7aacaa2d0f62910160405180910390a46110ce828888888888612be3565b60608315612df5575081612404565b825115612e055782518084602001fd5b8160405162461bcd60e51b81526004016108179190612ee8565b80356001600160a01b0381168114612e3657600080fd5b919050565b60008060408385031215612e4e57600080fd5b612e5783612e1f565b946020939093013593505050565b6001600160e01b03198116811461082957600080fd5b600060208284031215612e8d57600080fd5b813561240481612e65565b60005b83811015612eb3578181015183820152602001612e9b565b50506000910152565b60008151808452612ed4816020860160208601612e98565b601f01601f19169290920160200192915050565b6020815260006124046020830184612ebc565b600060208284031215612f0d57600080fd5b5035919050565b600060208284031215612f2657600080fd5b61240482612e1f565b60008060408385031215612f4257600080fd5b50508035926020909101359150565b634e487b7160e01b600052604160045260246000fd5b601f8201601f191681016001600160401b0381118282101715612f8c57612f8c612f51565b6040525050565b60006001600160401b03821115612fac57612fac612f51565b5060051b60200190565b600082601f830112612fc757600080fd5b81356020612fd482612f93565b604051612fe18282612f67565b83815260059390931b850182019282810191508684111561300157600080fd5b8286015b8481101561301c5780358352918301918301613005565b509695505050505050565b600082601f83011261303857600080fd5b81356001600160401b0381111561305157613051612f51565b604051613068601f8301601f191660200182612f67565b81815284602083860101111561307d57600080fd5b816020850160208301376000918101602001919091529392505050565b600080600080600060a086880312156130b257600080fd5b6130bb86612e1f565b94506130c960208701612e1f565b935060408601356001600160401b03808211156130e557600080fd5b6130f189838a01612fb6565b9450606088013591508082111561310757600080fd5b61311389838a01612fb6565b9350608088013591508082111561312957600080fd5b5061313688828901613027565b9150509295509295909350565b801515811461082957600080fd5b60006020828403121561316357600080fd5b813561240481613143565b6000806000806080858703121561318457600080fd5b8435935060208501356001600160401b038111156131a157600080fd5b6131ad87828801613027565b949794965050505060408301359260600135919050565b600080604083850312156131d757600080fd5b82356001600160401b03808211156131ee57600080fd5b818501915085601f83011261320257600080fd5b8135602061320f82612f93565b60405161321c8282612f67565b83815260059390931b850182019282810191508984111561323c57600080fd5b948201945b838610156132615761325286612e1f565b82529482019490820190613241565b9650508601359250508082111561327757600080fd5b5061328485828601612fb6565b9150509250929050565b600081518084526020808501945080840160005b838110156132be578151875295820195908201906001016132a2565b509495945050505050565b602081526000612404602083018461328e565b8481526080602082015260006132f56080830186612ebc565b6040830194909452506060015292915050565b60008060006060848603121561331d57600080fd5b61332684612e1f565b925060208401356001600160401b038082111561334257600080fd5b61334e87838801612fb6565b9350604086013591508082111561336457600080fd5b5061337186828701612fb6565b9150509250925092565b60006020828403121561338d57600080fd5b81356001600160401b038111156133a357600080fd5b611a4984828501613027565b600080600080608085870312156133c557600080fd5b6133ce85612e1f565b935060208501356001600160401b03808211156133ea57600080fd5b6133f688838901612fb6565b9450604087013591508082111561340c57600080fd5b61341888838901612fb6565b9350606087013591508082111561342e57600080fd5b5061343b87828801613027565b91505092959194509250565b60008060006060848603121561345c57600080fd5b8335925061346c60208501612e1f565b9150604084013590509250925092565b6000806040838503121561348f57600080fd5b61349883612e1f565b915060208301356134a881613143565b809150509250929050565b600080600080608085870312156134c957600080fd5b84356001600160401b03808211156134e057600080fd5b6134ec88838901613027565b95506020870135945060408701359350606087013591508082111561342e57600080fd5b6000806020838503121561352357600080fd5b82356001600160401b038082111561353a57600080fd5b818501915085601f83011261354e57600080fd5b81358181111561355d57600080fd5b8660208260051b850101111561357257600080fd5b60209290920196919550909350505050565b6000602080830181845280855180835260408601915060408160051b870101925083870160005b828110156135d957603f198886030184526135c7858351612ebc565b945092850192908501906001016135ab565b5092979650505050505050565b600080600080608085870312156135fc57600080fd5b61360585612e1f565b93506020850135925060408501356001600160401b0381111561362757600080fd5b61363387828801613027565b949793965093946060013593505050565b6020815281516020820152600060208301516080604084015261366a60a0840182612ebc565b905060408401516060840152606084015160808401528091505092915050565b6000806040838503121561369d57600080fd5b823591506136ad60208401612e1f565b90509250929050565b600080604083850312156136c957600080fd5b6136d283612e1f565b91506136ad60208401612e1f565b600080600080600060a086880312156136f857600080fd5b61370186612e1f565b945061370f60208701612e1f565b9350604086013592506060860135915060808601356001600160401b0381111561373857600080fd5b61313688828901613027565b60008060006060848603121561375957600080fd5b61376284612e1f565b95602085013595506040909401359392505050565b600181811c9082168061378b57607f821691505b6020821081036137ab57634e487b7160e01b600052602260045260246000fd5b50919050565b600083516137c3818460208801612e98565b8351908301906137d7818360208801612e98565b01949350505050565b6020808252600e908201526d139bdd08185d5d1a1bdc9a5e995960921b604082015260600190565b634e487b7160e01b600052603260045260246000fd5b634e487b7160e01b600052601160045260246000fd5b80820281158282048414176106715761067161381e565b634e487b7160e01b600052601260045260246000fd5b6000826138705761387061384b565b500490565b601f82111561111357600081815260208120601f850160051c8101602086101561389c5750805b601f850160051c820191505b818110156108fe578281556001016138a8565b81516001600160401b038111156138d4576138d4612f51565b6138e8816138e28454613777565b84613875565b602080601f83116001811461391d57600084156139055750858301515b600019600386901b1c1916600185901b1785556108fe565b600085815260208120601f198616915b8281101561394c5788860151825594840194600190910190840161392d565b508582101561396a5787850151600019600388901b60f8161c191681555b5050505050600190811b01905550565b6020808252600f908201526e0988a9c8ea890be9a92a69a82a8869608b1b604082015260600190565b6000600182016139b5576139b561381e565b5060010190565b808201808211156106715761067161381e565b6000808335601e198436030181126139e657600080fd5b8301803591506001600160401b03821115613a0057600080fd5b602001915036819003821315613a1557600080fd5b9250929050565b818103818111156106715761067161381e565b600082613a3e57613a3e61384b565b500690565b600060208284031215613a5557600080fd5b815161240481613143565b60208082526010908201526f125394d551919250d251539517d0905360821b604082015260600190565b604081526000613a9d604083018561328e565b8281036020840152613aaf818561328e565b95945050505050565b604081526000613acb6040830185612ebc565b8281036020840152613aaf8185612ebc565b6020808252600c908201526b2a27afad22a927afa0a2222960a11b604082015260600190565b6001600160a01b0386811682528516602082015260a060408201819052600090613b2f9083018661328e565b8281036060840152613b41818661328e565b90508281036080840152613b558185612ebc565b98975050505050505050565b600060208284031215613b7357600080fd5b815161240481612e65565b600060033d1115613b975760046000803e5060005160e01c5b90565b600060443d1015613ba85790565b6040516003193d81016004833e81513d6001600160401b038160248401118184111715613bd757505050505090565b8285019150815181811115613bef5750505050505090565b843d8701016020828501011115613c095750505050505090565b613c1860208286010187612f67565b509095945050505050565b60008251613c35818460208701612e98565b9190910192915050565b6001600160a01b03868116825285166020820152604081018490526060810183905260a060808201819052600090613c7990830184612ebc565b97965050505050505056fe416464726573733a206c6f772d6c6576656c2064656c65676174652063616c6c206661696c6564a2646970667358221220e1a7e7ebf9cd57716b103557d06c6ec1b65b38ea6160c3fd07b677af45e99f0d64736f6c63430008110033",
  "linkReferences": {},
  "deployedLinkReferences": {}
}