{
  "_format": "hh-sol-artifact-1",
  "contractName": "BattleItems",
  "sourceName": "contracts/BattleItems.sol",
  "abi": [
    {
      "inputs": [],
      "stateMutability": "nonpayable",
      "type": "constructor"
    },
    {
      "inputs": [
        {
          "internalType": "address",
          "name": "operator",
          "type": "address"
        }
      ],
      "name": "OperatorNotAllowed",
      "type": "error"
    },
    {
      "anonymous": false,
      "inputs": [
        {
          "indexed": true,
          "internalType": "address",
          "name": "_owner",
          "type": "address"
        },
        {
          "indexed": true,
          "internalType": "address",
          "name": "_operator",
          "type": "address"
        },
        {
          "indexed": false,
          "internalType": "bool",
          "name": "_approved",
          "type": "bool"
        }
      ],
      "name": "ApprovalForAll",
      "type": "event"
    },
    {
      "anonymous": false,
      "inputs": [
        {
          "indexed": false,
          "internalType": "string",
          "name": "prevURI",
          "type": "string"
        },
        {
          "indexed": false,
          "internalType": "string",
          "name": "newURI",
          "type": "string"
        }
      ],
      "name": "ContractURIUpdated",
      "type": "event"
    },
    {
      "anonymous": false,
      "inputs": [
        {
          "indexed": true,
          "internalType": "address",
          "name": "newRoyaltyRecipient",
          "type": "address"
        },
        {
          "indexed": false,
          "internalType": "uint256",
          "name": "newRoyaltyBps",
          "type": "uint256"
        }
      ],
      "name": "DefaultRoyalty",
      "type": "event"
    },
    {
      "anonymous": false,
      "inputs": [
        {
          "indexed": true,
          "internalType": "uint256",
          "name": "itemId",
          "type": "uint256"
        },
        {
          "indexed": false,
          "internalType": "string",
          "name": "name",
          "type": "string"
        },
        {
          "indexed": false,
          "internalType": "uint256",
          "name": "attack",
          "type": "uint256"
        },
        {
          "indexed": false,
          "internalType": "uint256",
          "name": "defense",
          "type": "uint256"
        },
        {
          "indexed": false,
          "internalType": "uint256",
          "name": "health",
          "type": "uint256"
        },
        {
          "indexed": false,
          "internalType": "uint256",
          "name": "mana",
          "type": "uint256"
        },
        {
          "indexed": false,
          "internalType": "enum CharData.ItemType",
          "name": "itemType",
          "type": "uint8"
        }
      ],
      "name": "NewItem",
      "type": "event"
    },
    {
      "anonymous": false,
      "inputs": [
        {
          "indexed": false,
          "internalType": "bool",
          "name": "restriction",
          "type": "bool"
        }
      ],
      "name": "OperatorRestriction",
      "type": "event"
    },
    {
      "anonymous": false,
      "inputs": [
        {
          "indexed": true,
          "internalType": "address",
          "name": "prevOwner",
          "type": "address"
        },
        {
          "indexed": true,
          "internalType": "address",
          "name": "newOwner",
          "type": "address"
        }
      ],
      "name": "OwnerUpdated",
      "type": "event"
    },
    {
      "anonymous": false,
      "inputs": [
        {
          "indexed": true,
          "internalType": "uint256",
          "name": "tokenId",
          "type": "uint256"
        },
        {
          "indexed": true,
          "internalType": "address",
          "name": "royaltyRecipient",
          "type": "address"
        },
        {
          "indexed": false,
          "internalType": "uint256",
          "name": "royaltyBps",
          "type": "uint256"
        }
      ],
      "name": "RoyaltyForToken",
      "type": "event"
    },
    {
      "anonymous": false,
      "inputs": [
        {
          "indexed": true,
          "internalType": "address",
          "name": "_operator",
          "type": "address"
        },
        {
          "indexed": true,
          "internalType": "address",
          "name": "_from",
          "type": "address"
        },
        {
          "indexed": true,
          "internalType": "address",
          "name": "_to",
          "type": "address"
        },
        {
          "indexed": false,
          "internalType": "uint256[]",
          "name": "_ids",
          "type": "uint256[]"
        },
        {
          "indexed": false,
          "internalType": "uint256[]",
          "name": "_values",
          "type": "uint256[]"
        }
      ],
      "name": "TransferBatch",
      "type": "event"
    },
    {
      "anonymous": false,
      "inputs": [
        {
          "indexed": true,
          "internalType": "address",
          "name": "_operator",
          "type": "address"
        },
        {
          "indexed": true,
          "internalType": "address",
          "name": "_from",
          "type": "address"
        },
        {
          "indexed": true,
          "internalType": "address",
          "name": "_to",
          "type": "address"
        },
        {
          "indexed": false,
          "internalType": "uint256",
          "name": "_id",
          "type": "uint256"
        },
        {
          "indexed": false,
          "internalType": "uint256",
          "name": "_value",
          "type": "uint256"
        }
      ],
      "name": "TransferSingle",
      "type": "event"
    },
    {
      "anonymous": false,
      "inputs": [
        {
          "indexed": false,
          "internalType": "string",
          "name": "_value",
          "type": "string"
        },
        {
          "indexed": true,
          "internalType": "uint256",
          "name": "_id",
          "type": "uint256"
        }
      ],
      "name": "URI",
      "type": "event"
    },
    {
      "anonymous": false,
      "inputs": [
        {
          "indexed": true,
          "internalType": "uint256",
          "name": "itemId",
          "type": "uint256"
        },
        {
          "indexed": false,
          "internalType": "string",
          "name": "name",
          "type": "string"
        },
        {
          "indexed": false,
          "internalType": "uint256",
          "name": "attack",
          "type": "uint256"
        },
        {
          "indexed": false,
          "internalType": "uint256",
          "name": "defense",
          "type": "uint256"
        },
        {
          "indexed": false,
          "internalType": "uint256",
          "name": "health",
          "type": "uint256"
        },
        {
          "indexed": false,
          "internalType": "uint256",
          "name": "mana",
          "type": "uint256"
        }
      ],
      "name": "UpdatedItem",
      "type": "event"
    },
    {
      "inputs": [],
      "name": "OPERATOR_FILTER_REGISTRY",
      "outputs": [
        {
          "internalType": "contract IOperatorFilterRegistry",
          "name": "",
          "type": "address"
        }
      ],
      "stateMutability": "view",
      "type": "function"
    },
    {
      "inputs": [
        {
          "internalType": "address",
          "name": "",
          "type": "address"
        },
        {
          "internalType": "uint256",
          "name": "",
          "type": "uint256"
        }
      ],
      "name": "balanceOf",
      "outputs": [
        {
          "internalType": "uint256",
          "name": "",
          "type": "uint256"
        }
      ],
      "stateMutability": "view",
      "type": "function"
    },
    {
      "inputs": [
        {
          "internalType": "address[]",
          "name": "accounts",
          "type": "address[]"
        },
        {
          "internalType": "uint256[]",
          "name": "ids",
          "type": "uint256[]"
        }
      ],
      "name": "balanceOfBatch",
      "outputs": [
        {
          "internalType": "uint256[]",
          "name": "",
          "type": "uint256[]"
        }
      ],
      "stateMutability": "view",
      "type": "function"
    },
    {
      "inputs": [
        {
          "internalType": "address",
          "name": "_to",
          "type": "address"
        },
        {
          "internalType": "uint256[]",
          "name": "_tokenIds",
          "type": "uint256[]"
        },
        {
          "internalType": "uint256[]",
          "name": "_amounts",
          "type": "uint256[]"
        },
        {
          "internalType": "string",
          "name": "_baseURI",
          "type": "string"
        }
      ],
      "name": "batchMintTo",
      "outputs": [],
      "stateMutability": "nonpayable",
      "type": "function"
    },
    {
      "inputs": [
        {
          "internalType": "address",
          "name": "_owner",
          "type": "address"
        },
        {
          "internalType": "uint256",
          "name": "_tokenId",
          "type": "uint256"
        },
        {
          "internalType": "uint256",
          "name": "_amount",
          "type": "uint256"
        }
      ],
      "name": "burn",
      "outputs": [],
      "stateMutability": "nonpayable",
      "type": "function"
    },
    {
      "inputs": [
        {
          "internalType": "address",
          "name": "_owner",
          "type": "address"
        },
        {
          "internalType": "uint256[]",
          "name": "_tokenIds",
          "type": "uint256[]"
        },
        {
          "internalType": "uint256[]",
          "name": "_amounts",
          "type": "uint256[]"
        }
      ],
      "name": "burnBatch",
      "outputs": [],
      "stateMutability": "nonpayable",
      "type": "function"
    },
    {
      "inputs": [
        {
          "internalType": "uint256",
          "name": "_itemId",
          "type": "uint256"
        },
        {
          "internalType": "address",
          "name": "_caller",
          "type": "address"
        }
      ],
      "name": "burnItem",
      "outputs": [],
      "stateMutability": "nonpayable",
      "type": "function"
    },
    {
      "inputs": [],
      "name": "contractURI",
      "outputs": [
        {
          "internalType": "string",
          "name": "",
          "type": "string"
        }
      ],
      "stateMutability": "view",
      "type": "function"
    },
    {
      "inputs": [
        {
          "internalType": "string",
          "name": "_name",
          "type": "string"
        },
        {
          "internalType": "uint256",
          "name": "_attack",
          "type": "uint256"
        },
        {
          "internalType": "uint256",
          "name": "_defense",
          "type": "uint256"
        },
        {
          "internalType": "uint256",
          "name": "_health",
          "type": "uint256"
        },
        {
          "internalType": "uint256",
          "name": "_mana",
          "type": "uint256"
        },
        {
          "internalType": "enum CharData.ItemType",
          "name": "_itemType",
          "type": "uint8"
        },
        {
          "internalType": "string",
          "name": "_tokenURI",
          "type": "string"
        }
      ],
      "name": "createItem",
      "outputs": [],
      "stateMutability": "nonpayable",
      "type": "function"
    },
    {
      "inputs": [],
      "name": "getBaseURICount",
      "outputs": [
        {
          "internalType": "uint256",
          "name": "",
          "type": "uint256"
        }
      ],
      "stateMutability": "view",
      "type": "function"
    },
    {
      "inputs": [
        {
          "internalType": "uint256",
          "name": "_index",
          "type": "uint256"
        }
      ],
      "name": "getBatchIdAtIndex",
      "outputs": [
        {
          "internalType": "uint256",
          "name": "",
          "type": "uint256"
        }
      ],
      "stateMutability": "view",
      "type": "function"
    },
    {
      "inputs": [],
      "name": "getDefaultRoyaltyInfo",
      "outputs": [
        {
          "internalType": "address",
          "name": "",
          "type": "address"
        },
        {
          "internalType": "uint16",
          "name": "",
          "type": "uint16"
        }
      ],
      "stateMutability": "view",
      "type": "function"
    },
    {
      "inputs": [
        {
          "internalType": "uint256",
          "name": "_itemId",
          "type": "uint256"
        }
      ],
      "name": "getItem",
      "outputs": [
        {
          "components": [
            {
              "internalType": "string",
              "name": "name",
              "type": "string"
            },
            {
              "internalType": "uint256",
              "name": "attack",
              "type": "uint256"
            },
            {
              "internalType": "uint256",
              "name": "defense",
              "type": "uint256"
            },
            {
              "internalType": "uint256",
              "name": "health",
              "type": "uint256"
            },
            {
              "internalType": "uint256",
              "name": "mana",
              "type": "uint256"
            },
            {
              "internalType": "enum CharData.ItemType",
              "name": "itemType",
              "type": "uint8"
            }
          ],
          "internalType": "struct BattleItems.Item",
          "name": "",
          "type": "tuple"
        }
      ],
      "stateMutability": "view",
      "type": "function"
    },
    {
      "inputs": [
        {
          "internalType": "uint256",
          "name": "tokenId",
          "type": "uint256"
        }
      ],
      "name": "getItemType",
      "outputs": [
        {
          "internalType": "enum CharData.ItemType",
          "name": "",
          "type": "uint8"
        }
      ],
      "stateMutability": "view",
      "type": "function"
    },
    {
      "inputs": [
        {
          "internalType": "uint256",
          "name": "_tokenId",
          "type": "uint256"
        }
      ],
      "name": "getRoyaltyInfoForToken",
      "outputs": [
        {
          "internalType": "address",
          "name": "",
          "type": "address"
        },
        {
          "internalType": "uint16",
          "name": "",
          "type": "uint16"
        }
      ],
      "stateMutability": "view",
      "type": "function"
    },
    {
      "inputs": [
        {
          "internalType": "address",
          "name": "",
          "type": "address"
        },
        {
          "internalType": "address",
          "name": "",
          "type": "address"
        }
      ],
      "name": "isApprovedForAll",
      "outputs": [
        {
          "internalType": "bool",
          "name": "",
          "type": "bool"
        }
      ],
      "stateMutability": "view",
      "type": "function"
    },
    {
      "inputs": [
        {
          "internalType": "uint256",
          "name": "",
          "type": "uint256"
        }
      ],
      "name": "items",
      "outputs": [
        {
          "internalType": "string",
          "name": "name",
          "type": "string"
        },
        {
          "internalType": "uint256",
          "name": "attack",
          "type": "uint256"
        },
        {
          "internalType": "uint256",
          "name": "defense",
          "type": "uint256"
        },
        {
          "internalType": "uint256",
          "name": "health",
          "type": "uint256"
        },
        {
          "internalType": "uint256",
          "name": "mana",
          "type": "uint256"
        },
        {
          "internalType": "enum CharData.ItemType",
          "name": "itemType",
          "type": "uint8"
        }
      ],
      "stateMutability": "view",
      "type": "function"
    },
    {
      "inputs": [
        {
          "internalType": "uint256",
          "name": "_itemId",
          "type": "uint256"
        },
        {
          "internalType": "address",
          "name": "_caller",
          "type": "address"
        }
      ],
      "name": "mintItem",
      "outputs": [],
      "stateMutability": "nonpayable",
      "type": "function"
    },
    {
      "inputs": [
        {
          "internalType": "address",
          "name": "_to",
          "type": "address"
        },
        {
          "internalType": "uint256",
          "name": "_tokenId",
          "type": "uint256"
        },
        {
          "internalType": "string",
          "name": "_tokenURI",
          "type": "string"
        },
        {
          "internalType": "uint256",
          "name": "_amount",
          "type": "uint256"
        }
      ],
      "name": "mintTo",
      "outputs": [],
      "stateMutability": "nonpayable",
      "type": "function"
    },
    {
      "inputs": [
        {
          "internalType": "bytes[]",
          "name": "data",
          "type": "bytes[]"
        }
      ],
      "name": "multicall",
      "outputs": [
        {
          "internalType": "bytes[]",
          "name": "results",
          "type": "bytes[]"
        }
      ],
      "stateMutability": "nonpayable",
      "type": "function"
    },
    {
      "inputs": [],
      "name": "name",
      "outputs": [
        {
          "internalType": "string",
          "name": "",
          "type": "string"
        }
      ],
      "stateMutability": "view",
      "type": "function"
    },
    {
      "inputs": [],
      "name": "nextTokenIdToMint",
      "outputs": [
        {
          "internalType": "uint256",
          "name": "",
          "type": "uint256"
        }
      ],
      "stateMutability": "view",
      "type": "function"
    },
    {
      "inputs": [],
      "name": "operatorRestriction",
      "outputs": [
        {
          "internalType": "bool",
          "name": "",
          "type": "bool"
        }
      ],
      "stateMutability": "view",
      "type": "function"
    },
    {
      "inputs": [],
      "name": "owner",
      "outputs": [
        {
          "internalType": "address",
          "name": "",
          "type": "address"
        }
      ],
      "stateMutability": "view",
      "type": "function"
    },
    {
      "inputs": [
        {
          "internalType": "uint256",
          "name": "tokenId",
          "type": "uint256"
        },
        {
          "internalType": "uint256",
          "name": "salePrice",
          "type": "uint256"
        }
      ],
      "name": "royaltyInfo",
      "outputs": [
        {
          "internalType": "address",
          "name": "receiver",
          "type": "address"
        },
        {
          "internalType": "uint256",
          "name": "royaltyAmount",
          "type": "uint256"
        }
      ],
      "stateMutability": "view",
      "type": "function"
    },
    {
      "inputs": [
        {
          "internalType": "address",
          "name": "from",
          "type": "address"
        },
        {
          "internalType": "address",
          "name": "to",
          "type": "address"
        },
        {
          "internalType": "uint256[]",
          "name": "ids",
          "type": "uint256[]"
        },
        {
          "internalType": "uint256[]",
          "name": "amounts",
          "type": "uint256[]"
        },
        {
          "internalType": "bytes",
          "name": "data",
          "type": "bytes"
        }
      ],
      "name": "safeBatchTransferFrom",
      "outputs": [],
      "stateMutability": "nonpayable",
      "type": "function"
    },
    {
      "inputs": [
        {
          "internalType": "address",
          "name": "from",
          "type": "address"
        },
        {
          "internalType": "address",
          "name": "to",
          "type": "address"
        },
        {
          "internalType": "uint256",
          "name": "id",
          "type": "uint256"
        },
        {
          "internalType": "uint256",
          "name": "amount",
          "type": "uint256"
        },
        {
          "internalType": "bytes",
          "name": "data",
          "type": "bytes"
        }
      ],
      "name": "safeTransferFrom",
      "outputs": [],
      "stateMutability": "nonpayable",
      "type": "function"
    },
    {
      "inputs": [
        {
          "internalType": "address",
          "name": "operator",
          "type": "address"
        },
        {
          "internalType": "bool",
          "name": "approved",
          "type": "bool"
        }
      ],
      "name": "setApprovalForAll",
      "outputs": [],
      "stateMutability": "nonpayable",
      "type": "function"
    },
    {
      "inputs": [
        {
          "internalType": "string",
          "name": "_uri",
          "type": "string"
        }
      ],
      "name": "setContractURI",
      "outputs": [],
      "stateMutability": "nonpayable",
      "type": "function"
    },
    {
      "inputs": [
        {
          "internalType": "address",
          "name": "_royaltyRecipient",
          "type": "address"
        },
        {
          "internalType": "uint256",
          "name": "_royaltyBps",
          "type": "uint256"
        }
      ],
      "name": "setDefaultRoyaltyInfo",
      "outputs": [],
      "stateMutability": "nonpayable",
      "type": "function"
    },
    {
      "inputs": [
        {
          "internalType": "bool",
          "name": "_restriction",
          "type": "bool"
        }
      ],
      "name": "setOperatorRestriction",
      "outputs": [],
      "stateMutability": "nonpayable",
      "type": "function"
    },
    {
      "inputs": [
        {
          "internalType": "address",
          "name": "_newOwner",
          "type": "address"
        }
      ],
      "name": "setOwner",
      "outputs": [],
      "stateMutability": "nonpayable",
      "type": "function"
    },
    {
      "inputs": [
        {
          "internalType": "uint256",
          "name": "_tokenId",
          "type": "uint256"
        },
        {
          "internalType": "address",
          "name": "_recipient",
          "type": "address"
        },
        {
          "internalType": "uint256",
          "name": "_bps",
          "type": "uint256"
        }
      ],
      "name": "setRoyaltyInfoForToken",
      "outputs": [],
      "stateMutability": "nonpayable",
      "type": "function"
    },
    {
      "inputs": [
        {
          "internalType": "address",
          "name": "_subscription",
          "type": "address"
        }
      ],
      "name": "subscribeToRegistry",
      "outputs": [],
      "stateMutability": "nonpayable",
      "type": "function"
    },
    {
      "inputs": [
        {
          "internalType": "bytes4",
          "name": "interfaceId",
          "type": "bytes4"
        }
      ],
      "name": "supportsInterface",
      "outputs": [
        {
          "internalType": "bool",
          "name": "",
          "type": "bool"
        }
      ],
      "stateMutability": "view",
      "type": "function"
    },
    {
      "inputs": [],
      "name": "symbol",
      "outputs": [
        {
          "internalType": "string",
          "name": "",
          "type": "string"
        }
      ],
      "stateMutability": "view",
      "type": "function"
    },
    {
      "inputs": [
        {
          "internalType": "uint256",
          "name": "",
          "type": "uint256"
        }
      ],
      "name": "totalSupply",
      "outputs": [
        {
          "internalType": "uint256",
          "name": "",
          "type": "uint256"
        }
      ],
      "stateMutability": "view",
      "type": "function"
    },
    {
      "inputs": [
        {
          "internalType": "uint256",
          "name": "_itemId",
          "type": "uint256"
        },
        {
          "internalType": "string",
          "name": "_name",
          "type": "string"
        },
        {
          "internalType": "uint256",
          "name": "_attack",
          "type": "uint256"
        },
        {
          "internalType": "uint256",
          "name": "_defense",
          "type": "uint256"
        },
        {
          "internalType": "uint256",
          "name": "_health",
          "type": "uint256"
        },
        {
          "internalType": "uint256",
          "name": "_mana",
          "type": "uint256"
        }
      ],
      "name": "updateItem",
      "outputs": [],
      "stateMutability": "nonpayable",
      "type": "function"
    },
    {
      "inputs": [
        {
          "internalType": "uint256",
          "name": "_tokenId",
          "type": "uint256"
        }
      ],
      "name": "uri",
      "outputs": [
        {
          "internalType": "string",
          "name": "",
          "type": "string"
        }
      ],
      "stateMutability": "view",
      "type": "function"
    }
  ],
  "bytecode": "0x60806040523480156200001157600080fd5b50336040518060400160405280600c81526020016b125d195b50dbdb9d1c9858dd60a21b81525060405180604001604052806002815260200161494360f01b815250600080733cc6cdda760b79bafa08df41ecfa224f810dceb6600185858160009081620000809190620003f7565b5060016200008f8282620003f7565b505050620000a48282620000e460201b60201c565b50620000b290508562000212565b620000c7826001600160801b03831662000264565b620000d360016200030f565b50506001600c5550620004c3915050565b6daaeb6d7670e522a718067333cd4e3b156200020e576001600160a01b0382163b15620001c75780156200018657604051633e9f1edf60e11b81523060048201526001600160a01b03831660248201526daaeb6d7670e522a718067333cd4e90637d3e3dbe906044015b600060405180830381600087803b1580156200016957600080fd5b505af11580156200017e573d6000803e3d6000fd5b505050505050565b60405163a0af290360e01b81523060048201526001600160a01b03831660248201526daaeb6d7670e522a718067333cd4e9063a0af2903906044016200014e565b604051632210724360e11b81523060048201526daaeb6d7670e522a718067333cd4e90634420e48690602401600060405180830381600087803b1580156200016957600080fd5b5050565b600680546001600160a01b038381166001600160a01b0319831681179093556040519116919082907f8292fce18fa69edf4db7b94ea2e58241df0ae57f97e0a6c9b29067028bf92d7690600090a35050565b612710811115620002ad5760405162461bcd60e51b815260206004820152600f60248201526e45786365656473206d61782062707360881b604482015260640160405180910390fd5b600780546001600160a01b0384166001600160b01b03199091168117600160a01b61ffff851602179091556040518281527f90d7ec04bcb8978719414f82e52e4cb651db41d0e6f8cea6118c2191e6183adb9060200160405180910390a25050565b600b805460ff19168215159081179091556040519081527f38475885990d8dfe9ca01f0ef160a1b5514426eab9ddbc953a3353410ba780969060200160405180910390a150565b634e487b7160e01b600052604160045260246000fd5b600181811c908216806200038157607f821691505b602082108103620003a257634e487b7160e01b600052602260045260246000fd5b50919050565b601f821115620003f257600081815260208120601f850160051c81016020861015620003d15750805b601f850160051c820191505b818110156200017e57828155600101620003dd565b505050565b81516001600160401b0381111562000413576200041362000356565b6200042b816200042484546200036c565b84620003a8565b602080601f8311600181146200046357600084156200044a5750858301515b600019600386901b1c1916600185901b1785556200017e565b600085815260208120601f198616915b82811015620004945788860151825594840194600190910190840162000473565b5085821015620004b35787850151600019600388901b60f8161c191681555b5050505050600190811b01905550565b613ea480620004d36000396000f3fe608060405234801561001057600080fd5b506004361061023c5760003560e01c806363b45e2d1161013b578063b03f4528116100b8578063d13d8a6a1161007c578063d13d8a6a14610596578063e8a3d485146105a9578063e985e9c5146105b1578063f242432a146105df578063f5298aca146105f257600080fd5b8063b03f452814610500578063b24f2d3914610513578063bd85b03914610531578063bfb231d214610551578063c19a4ef51461057657600080fd5b8063949c09f7116100ff578063949c09f71461049f57806395d89b41146104b25780639bcf7a15146104ba578063a22cb465146104cd578063ac9650d8146104e057600080fd5b806363b45e2d1461044d5780636878bc3c146104555780636b20c454146104685780638da5cb5b1461047b578063938e3d7b1461048c57600080fd5b806332f0cd64116101c95780634e1273f41161018d5780634e1273f4146103e7578063504c6e011461040757806355455b5e1461041457806357fd845514610427578063600dd5ea1461043a57600080fd5b806332f0cd64146103575780633b1475a71461036a57806341f43434146103725780634cc157df1461039f5780634dc936c0146103d457600080fd5b806313af40351161021057806313af4035146102ca5780632419f51b146102df5780632a55205a146102f25780632eb2c2d6146103245780633129e7731461033757600080fd5b8062fdd58e1461024157806301ffc9a71461027f57806306fdde03146102a25780630e89341c146102b7575b600080fd5b61026c61024f366004612f09565b600260209081526000928352604080842090915290825290205481565b6040519081526020015b60405180910390f35b61029261028d366004612f49565b610605565b6040519015158152602001610276565b6102aa610672565b6040516102769190612fb6565b6102aa6102c5366004612fc9565b610700565b6102dd6102d8366004612fe2565b6107ee565b005b61026c6102ed366004612fc9565b610827565b610305610300366004612ffd565b610895565b604080516001600160a01b039093168352602083019190915201610276565b6102dd610332366004613168565b6108d2565b61034a610345366004612fc9565b610901565b6040516102769190613249565b6102dd6103653660046132af565b610a13565b600c5461026c565b6103876daaeb6d7670e522a718067333cd4e81565b6040516001600160a01b039091168152602001610276565b6103b26103ad366004612fc9565b610a84565b604080516001600160a01b03909316835261ffff909116602083015201610276565b6102dd6103e23660046132cc565b610aef565b6103fa6103f53660046132f8565b610b68565b60405161027691906133fd565b600b546102929060ff1681565b6102dd610422366004613410565b610c7c565b6102dd610435366004612fe2565b610da6565b6102dd610448366004612f09565b610e16565b60095461026c565b6102dd6104633660046132cc565b610e48565b6102dd6104763660046134b2565b610f13565b6006546001600160a01b0316610387565b6102dd61049a366004613525565b6110b5565b6102dd6104ad366004613559565b6110e2565b6102aa6112dd565b6102dd6104c83660046135f1565b6112ea565b6102dd6104db366004613626565b611319565b6104f36104ee36600461365d565b61132d565b60405161027691906136d1565b6102dd61050e366004613733565b611421565b6007546001600160a01b03811690600160a01b900461ffff166103b2565b61026c61053f366004612fc9565b600d6020526000908152604090205481565b61056461055f366004612fc9565b61150c565b60405161027696959493929190613791565b610589610584366004612fc9565b6115cc565b60405161027691906137d6565b6102dd6105a43660046137e4565b611638565b6102aa61170c565b6102926105bf36600461384d565b600360209081526000928352604080842090915290825290205460ff1681565b6102dd6105ed366004613877565b611719565b6102dd6106003660046138db565b611740565b60006301ffc9a760e01b6001600160e01b0319831614806106365750636cdb3d1360e11b6001600160e01b03198316145b8061065157506303a24d0760e21b6001600160e01b03198316145b8061066c57506001600160e01b0319821663152a902d60e11b145b92915050565b6000805461067f9061390e565b80601f01602080910402602001604051908101604052809291908181526020018280546106ab9061390e565b80156106f85780601f106106cd576101008083540402835291602001916106f8565b820191906000526020600020905b8154815290600101906020018083116106db57829003601f168201915b505050505081565b60008181526004602052604081208054606092919061071e9061390e565b80601f016020809104026020016040519081016040528092919081815260200182805461074a9061390e565b80156107975780601f1061076c57610100808354040283529160200191610797565b820191906000526020600020905b81548152906001019060200180831161077a57829003601f168201915b505050505090506000815111156107ae5792915050565b60006107b984611835565b9050806107c5856119d1565b6040516020016107d6929190613948565b60405160208183030381529060405292505050919050565b6107f6611ad9565b61081b5760405162461bcd60e51b815260040161081290613977565b60405180910390fd5b61082481611b06565b50565b600061083260095490565b82106108705760405162461bcd60e51b815260206004820152600d60248201526c092dcecc2d8d2c840d2dcc8caf609b1b6044820152606401610812565b600982815481106108835761088361399f565b90600052602060002001549050919050565b6000806000806108a486610a84565b90945084925061ffff1690506127106108bd82876139cb565b6108c791906139f8565b925050509250929050565b846001600160a01b03811633146108ec576108ec33611b58565b6108f98686868686611c1c565b505050505050565b610909612ea7565b6000828152600e602052604090819020815160c081019092528054829082906109319061390e565b80601f016020809104026020016040519081016040528092919081815260200182805461095d9061390e565b80156109aa5780601f1061097f576101008083540402835291602001916109aa565b820191906000526020600020905b81548152906001019060200180831161098d57829003601f168201915b50505091835250506001820154602082015260028201546040820152600382015460608201526004808301546080830152600583015460a09092019160ff16908111156109f9576109f9613211565b6004811115610a0a57610a0a613211565b90525092915050565b610a1b611ad9565b610a7b5760405162461bcd60e51b815260206004820152602b60248201527f4e6f7420617574686f72697a656420746f20736574206f70657261746f72207260448201526a32b9ba3934b1ba34b7b71760a91b6064820152608401610812565b61082481611cab565b6000818152600860209081526040808320815180830190925280546001600160a01b031680835260019091015492820192909252829115610acb5780516020820151610ae5565b6007546001600160a01b03811690600160a01b900461ffff165b9250925050915091565b600f548211158015610b0057508115155b610b425760405162461bcd60e51b8152602060048201526013602482015272125d195b48191bd95cc81b9bdd08195e1a5cdd606a1b6044820152606401610812565b6000829050610b638282600160405180602001604052806000815250611cf2565b505050565b60608151835114610b8b5760405162461bcd60e51b815260040161081290613a0c565b600083516001600160401b03811115610ba657610ba661301f565b604051908082528060200260200182016040528015610bcf578160200160208202803683370190505b50905060005b8451811015610c745760026000868381518110610bf457610bf461399f565b60200260200101516001600160a01b03166001600160a01b031681526020019081526020016000206000858381518110610c3057610c3061399f565b6020026020010151815260200190815260200160002054828281518110610c5957610c5961399f565b6020908102919091010152610c6d81613a35565b9050610bd5565b509392505050565b600f8054600019916000610c8f83613a35565b91905055506040518060c00160405280898152602001888152602001878152602001868152602001858152602001846004811115610ccf57610ccf613211565b9052600f546000908152600e6020526040902081518190610cf09082613a94565b506020820151816001015560408201518160020155606082015181600301556080820151816004015560a08201518160050160006101000a81548160ff02191690836004811115610d4357610d43613211565b0217905550905050610d583382846001611421565b600f547f72179630b0270540e4712367108b0fc82aa3c3d27b89592989bdc1526e40cbcb898989898989604051610d9496959493929190613791565b60405180910390a25050505050505050565b610dae611ad9565b610e0b5760405162461bcd60e51b815260206004820152602860248201527f4e6f7420617574686f72697a656420746f2073756273637269626520746f207260448201526732b3b4b9ba393c9760c11b6064820152608401610812565b610824816001611dcb565b610e1e611ad9565b610e3a5760405162461bcd60e51b815260040161081290613977565b610e448282611ed1565b5050565b600f548211158015610e5957508115155b610e975760405162461bcd60e51b815260206004820152600f60248201526e125b9d985b1a59081a5d195b481251608a1b6044820152606401610812565b6001600160a01b0381166000908152600260209081526040808320858452909152902054610f075760405162461bcd60e51b815260206004820152601e60248201527f43616c6c657220646f6573206e6f74206f776e207468697320736b696c6c00006044820152606401610812565b610e4481836001611f77565b336001600160a01b038416811480610f5057506001600160a01b0380851660009081526003602090815260408083209385168352929052205460ff165b610f905760405162461bcd60e51b81526020600482015260116024820152702ab730b8383937bb32b21031b0b63632b960791b6044820152606401610812565b8151835114610fd35760405162461bcd60e51b815260206004820152600f60248201526e098cadccee8d040dad2e6dac2e8c6d608b1b6044820152606401610812565b60005b83518110156110a357828181518110610ff157610ff161399f565b602002602001015160026000876001600160a01b03166001600160a01b0316815260200190815260200160002060008684815181106110325761103261399f565b602002602001015181526020019081526020016000205410156110915760405162461bcd60e51b8152602060048201526017602482015276139bdd08195b9bdd59da081d1bdad95b9cc81bdddb9959604a1b6044820152606401610812565b61109c600182613b53565b9050610fd6565b506110af84848461209c565b50505050565b6110bd611ad9565b6110d95760405162461bcd60e51b815260040161081290613977565b61082481612251565b6110ea611ad9565b6111305760405162461bcd60e51b81526020600482015260176024820152762737ba1030baba3437b934bd32b2103a379036b4b73a1760491b6044820152606401610812565b60008251116111785760405162461bcd60e51b815260206004820152601460248201527326b4b73a34b733903d32b937903a37b5b2b7399760611b6044820152606401610812565b81518351146111bc5760405162461bcd60e51b815260206004820152601060248201526f2632b733ba341036b4b9b6b0ba31b41760811b6044820152606401610812565b60006111c7600c5490565b9050806000805b865181101561129d576000198782815181106111ec576111ec61399f565b602002602001015103611236578387828151811061120c5761120c61399f565b6020908102919091010152611222600185613b53565b935061122f600183613b53565b915061128b565b838782815181106112495761124961399f565b60200260200101511061128b5760405162461bcd60e51b815260206004820152600a6024820152691a5b9d985b1a59081a5960b21b6044820152606401610812565b611296600182613b53565b90506111ce565b5080156112b2576112af82828661232d565b50505b82600c819055506112d487878760405180602001604052806000815250612391565b50505050505050565b6001805461067f9061390e565b6112f2611ad9565b61130e5760405162461bcd60e51b815260040161081290613977565b610b638383836124ec565b8161132381611b58565b610b6383836125b6565b6060816001600160401b038111156113475761134761301f565b60405190808252806020026020018201604052801561137a57816020015b60608152602001906001900390816113655790505b50905060005b8281101561141a576113ea3085858481811061139e5761139e61399f565b90506020028101906113b09190613b66565b8080601f01602080910402602001604051908101604052809392919081815260200183838082843760009201919091525061266592505050565b8282815181106113fc576113fc61399f565b6020026020010181905250808061141290613a35565b915050611380565b5092915050565b611429611ad9565b61146f5760405162461bcd60e51b81526020600482015260176024820152762737ba1030baba3437b934bd32b2103a379036b4b73a1760491b6044820152606401610812565b60008061147b600c5490565b905060001985036114b1578091506001600c600082825461149c9190613b53565b909155506114ac90508185612691565b6114f1565b8085106114ed5760405162461bcd60e51b815260206004820152600a6024820152691a5b9d985b1a59081a5960b21b6044820152606401610812565b8491505b6108f986838560405180602001604052806000815250611cf2565b600e602052600090815260409020805481906115279061390e565b80601f01602080910402602001604051908101604052809291908181526020018280546115539061390e565b80156115a05780601f10611575576101008083540402835291602001916115a0565b820191906000526020600020905b81548152906001019060200180831161158357829003601f168201915b505050600184015460028501546003860154600487015460059097015495969295919450925060ff1686565b6000818152600d602052604081205461161f5760405162461bcd60e51b8152602060048201526015602482015274125b9d985b1a59081a5d195b481d1bdad95b881251605a1b6044820152606401610812565b506000908152600e602052604090206005015460ff1690565b600f548611156116805760405162461bcd60e51b8152602060048201526013602482015272125d195b48191bd95cc81b9bdd08195e1a5cdd606a1b6044820152606401610812565b6000868152600e602052604090206116988682613a94565b506000868152600e6020526040908190206001810186905560028101859055600381018490556004018290555186907f37a429bc969345aff9788d658800803d998060e9538858b0985ec4c33f90a32b906116fc9088908890889088908890613bb3565b60405180910390a2505050505050565b6005805461067f9061390e565b846001600160a01b03811633146117335761173333611b58565b6108f986868686866126a9565b336001600160a01b03841681148061177d57506001600160a01b0380851660009081526003602090815260408083209385168352929052205460ff165b6117bd5760405162461bcd60e51b81526020600482015260116024820152702ab730b8383937bb32b21031b0b63632b960791b6044820152606401610812565b6001600160a01b038416600090815260026020908152604080832086845290915290205482111561182a5760405162461bcd60e51b8152602060048201526017602482015276139bdd08195b9bdd59da081d1bdad95b9cc81bdddb9959604a1b6044820152606401610812565b6110af848484611f77565b6060600061184260095490565b90506000600980548060200260200160405190810160405280929190818152602001828054801561189257602002820191906000526020600020905b81548152602001906001019080831161187e575b5050505050905060005b82811015611996578181815181106118b6576118b661399f565b602002602001015185101561198457600a60008383815181106118db576118db61399f565b6020026020010151815260200190815260200160002080546118fc9061390e565b80601f01602080910402602001604051908101604052809291908181526020018280546119289061390e565b80156119755780601f1061194a57610100808354040283529160200191611975565b820191906000526020600020905b81548152906001019060200180831161195857829003601f168201915b50505050509350505050919050565b61198f600182613b53565b905061189c565b5060405162461bcd60e51b815260206004820152600f60248201526e125b9d985b1a59081d1bdad95b9259608a1b6044820152606401610812565b6060816000036119f85750506040805180820190915260018152600360fc1b602082015290565b8160005b8115611a225780611a0c81613a35565b9150611a1b9050600a836139f8565b91506119fc565b6000816001600160401b03811115611a3c57611a3c61301f565b6040519080825280601f01601f191660200182016040528015611a66576020820181803683370190505b5090505b8415611ad157611a7b600183613bea565b9150611a88600a86613bfd565b611a93906030613b53565b60f81b818381518110611aa857611aa861399f565b60200101906001600160f81b031916908160001a905350611aca600a866139f8565b9450611a6a565b949350505050565b6000611aed6006546001600160a01b031690565b6001600160a01b0316336001600160a01b031614905090565b600680546001600160a01b038381166001600160a01b0319831681179093556040519116919082907f8292fce18fa69edf4db7b94ea2e58241df0ae57f97e0a6c9b29067028bf92d7690600090a35050565b600b5460ff1615610824576daaeb6d7670e522a718067333cd4e3b1561082457604051633185c44d60e21b81523060048201526001600160a01b03821660248201526daaeb6d7670e522a718067333cd4e9063c617113490604401602060405180830381865afa158015611bd0573d6000803e3d6000fd5b505050506040513d601f19601f82011682018060405250810190611bf49190613c11565b61082457604051633b79c77360e21b81526001600160a01b0382166004820152602401610812565b6001600160a01b038516331480611c5657506001600160a01b038516600090815260036020908152604080832033845290915290205460ff165b611c975760405162461bcd60e51b81526020600482015260126024820152710853d5d3915497d3d497d054141493d5915160721b6044820152606401610812565b611ca48585858585612731565b5050505050565b600b805460ff19168215159081179091556040519081527f38475885990d8dfe9ca01f0ef160a1b5514426eab9ddbc953a3353410ba780969060200160405180910390a150565b6001600160a01b038416611d185760405162461bcd60e51b815260040161081290613c2e565b33611d3881600087611d29886128e4565b611d32886128e4565b8761292f565b6001600160a01b038516600090815260026020908152604080832087845290915281208054859290611d6b908490613b53565b909155505060408051858152602081018590526001600160a01b0380881692600092918516917fc3d58168c5ae7397731d063d5bbf3d657854427343f4c083240f7aacaa2d0f62910160405180910390a4611ca481600087878787612a3b565b6daaeb6d7670e522a718067333cd4e3b15610e44576001600160a01b0382163b15611ea0578015611e6057604051633e9f1edf60e11b81523060048201526001600160a01b03831660248201526daaeb6d7670e522a718067333cd4e90637d3e3dbe906044015b600060405180830381600087803b158015611e4c57600080fd5b505af11580156108f9573d6000803e3d6000fd5b60405163a0af290360e01b81523060048201526001600160a01b03831660248201526daaeb6d7670e522a718067333cd4e9063a0af290390604401611e32565b604051632210724360e11b81523060048201526daaeb6d7670e522a718067333cd4e90634420e48690602401611e32565b612710811115611f155760405162461bcd60e51b815260206004820152600f60248201526e45786365656473206d61782062707360881b6044820152606401610812565b600780546001600160a01b0384166001600160b01b03199091168117600160a01b61ffff851602179091556040518281527f90d7ec04bcb8978719414f82e52e4cb651db41d0e6f8cea6118c2191e6183adb9060200160405180910390a25050565b6001600160a01b038316611fbe5760405162461bcd60e51b815260206004820152600e60248201526d232927a6afad22a927afa0a2222960911b6044820152606401610812565b33611fed81856000611fcf876128e4565b611fd8876128e4565b6040518060200160405280600081525061292f565b6001600160a01b0384166000908152600260209081526040808320868452909152902054828110156120315760405162461bcd60e51b815260040161081290613c54565b6001600160a01b03858116600081815260026020908152604080832089845282528083208887039055805189815291820188905291938616917fc3d58168c5ae7397731d063d5bbf3d657854427343f4c083240f7aacaa2d0f62910160405180910390a45050505050565b6001600160a01b0383166120e35760405162461bcd60e51b815260206004820152600e60248201526d232927a6afad22a927afa0a2222960911b6044820152606401610812565b80518251146121045760405162461bcd60e51b815260040161081290613a0c565b60003390506121278185600086866040518060200160405280600081525061292f565b60005b83518110156121f25760008482815181106121475761214761399f565b6020026020010151905060008483815181106121655761216561399f565b6020908102919091018101516001600160a01b03891660009081526002835260408082208683529093529190912054909150818110156121b75760405162461bcd60e51b815260040161081290613c54565b6001600160a01b03881660009081526002602090815260408083209583529490529290922091039055806121ea81613a35565b91505061212a565b5060006001600160a01b0316846001600160a01b0316826001600160a01b03167f4a39dc06d4c0dbc64b70af90fd698a233a518aa5d07e595d983b8c0526c8f7fb8686604051612243929190613c7e565b60405180910390a450505050565b6000600580546122609061390e565b80601f016020809104026020016040519081016040528092919081815260200182805461228c9061390e565b80156122d95780601f106122ae576101008083540402835291602001916122d9565b820191906000526020600020905b8154815290600101906020018083116122bc57829003601f168201915b5050505050905081600590816122ef9190613a94565b507fc9c7c3fe08b88b4df9d4d47ef47d2c43d55c025a0ba88ca442580ed9e7348a168183604051612321929190613cac565b60405180910390a15050565b60008061233a8486613b53565b60098054600181019091557f6e1540171b6c0c960b71a7020d9f60077f6af931a8bbf590da0223dacf75c7af018190556000818152600a602052604090209092508291506123888482613a94565b50935093915050565b6001600160a01b0384166123b75760405162461bcd60e51b815260040161081290613c2e565b81518351146123d85760405162461bcd60e51b815260040161081290613a0c565b336123e88160008787878761292f565b60005b8451811015612484578381815181106124065761240661399f565b602002602001015160026000886001600160a01b03166001600160a01b0316815260200190815260200160002060008784815181106124475761244761399f565b60200260200101518152602001908152602001600020600082825461246c9190613b53565b9091555081905061247c81613a35565b9150506123eb565b50846001600160a01b031660006001600160a01b0316826001600160a01b03167f4a39dc06d4c0dbc64b70af90fd698a233a518aa5d07e595d983b8c0526c8f7fb87876040516124d5929190613c7e565b60405180910390a4611ca481600087878787612b8e565b6127108111156125305760405162461bcd60e51b815260206004820152600f60248201526e45786365656473206d61782062707360881b6044820152606401610812565b6040805180820182526001600160a01b038481168083526020808401868152600089815260088352869020945185546001600160a01b031916941693909317845591516001909301929092559151838152909185917f7365cf4122f072a3365c20d54eff9b38d73c096c28e1892ec8f5b0e403a0f12d91015b60405180910390a3505050565b336001600160a01b03831681036126005760405162461bcd60e51b815260206004820152600e60248201526d20a8282927ab24a723afa9a2a62360911b6044820152606401610812565b6001600160a01b03818116600081815260036020908152604080832094881680845294825291829020805460ff191687151590811790915591519182527f17307eab39ab6107e8899845ad3d59bd9653f200f220920489ca2b5937696c3191016125a9565b606061268a8383604051806060016040528060278152602001613e4860279139612c6b565b9392505050565b6000828152600460205260409020610b638282613a94565b6001600160a01b0385163314806126e357506001600160a01b038516600090815260036020908152604080832033845290915290205460ff165b6127245760405162461bcd60e51b81526020600482015260126024820152710853d5d3915497d3d497d054141493d5915160721b6044820152606401610812565b611ca48585858585612d48565b81518351146127525760405162461bcd60e51b815260040161081290613a0c565b6001600160a01b0384166127785760405162461bcd60e51b815260040161081290613c2e565b3361278781878787878761292f565b60005b845181101561287e5760008582815181106127a7576127a761399f565b6020026020010151905060008583815181106127c5576127c561399f565b6020908102919091018101516001600160a01b038b1660009081526002835260408082208683529093529190912054909150818110156128175760405162461bcd60e51b815260040161081290613c54565b6001600160a01b03808b16600090815260026020818152604080842088855282528084208787039055938d16835290815282822086835290529081208054849290612863908490613b53565b925050819055505050508061287790613a35565b905061278a565b50846001600160a01b0316866001600160a01b0316826001600160a01b03167f4a39dc06d4c0dbc64b70af90fd698a233a518aa5d07e595d983b8c0526c8f7fb87876040516128ce929190613c7e565b60405180910390a46108f9818787878787612b8e565b6040805160018082528183019092526060916000919060208083019080368337019050509050828160008151811061291e5761291e61399f565b602090810291909101015292915050565b6001600160a01b0385166129b65760005b83518110156129b45782818151811061295b5761295b61399f565b6020026020010151600d60008684815181106129795761297961399f565b60200260200101518152602001908152602001600020600082825461299e9190613b53565b909155506129ad905081613a35565b9050612940565b505b6001600160a01b0384166108f95760005b83518110156112d4578281815181106129e2576129e261399f565b6020026020010151600d6000868481518110612a0057612a0061399f565b602002602001015181526020019081526020016000206000828254612a259190613bea565b90915550612a34905081613a35565b90506129c7565b6001600160a01b0384163b156108f95760405163f23a6e6160e01b81526001600160a01b0385169063f23a6e6190612a7f9089908990889088908890600401613cd1565b6020604051808303816000875af1925050508015612aba575060408051601f3d908101601f19168201909252612ab791810190613d0b565b60015b612b3c57612ac6613d28565b806308c379a003612aff5750612ada613d44565b80612ae55750612b01565b8060405162461bcd60e51b81526004016108129190612fb6565b505b60405162461bcd60e51b815260206004820152601060248201526f10a2a92198989a9aa922a1a2a4ab22a960811b6044820152606401610812565b6001600160e01b0319811663f23a6e6160e01b146112d45760405162461bcd60e51b815260206004820152600f60248201526e1513d2d15394d7d491529150d51151608a1b6044820152606401610812565b6001600160a01b0384163b156108f95760405163bc197c8160e01b81526001600160a01b0385169063bc197c8190612bd29089908990889088908890600401613dcd565b6020604051808303816000875af1925050508015612c0d575060408051601f3d908101601f19168201909252612c0a91810190613d0b565b60015b612c1957612ac6613d28565b6001600160e01b0319811663bc197c8160e01b146112d45760405162461bcd60e51b815260206004820152600f60248201526e1513d2d15394d7d491529150d51151608a1b6044820152606401610812565b60606001600160a01b0384163b612cd35760405162461bcd60e51b815260206004820152602660248201527f416464726573733a2064656c65676174652063616c6c20746f206e6f6e2d636f6044820152651b9d1c9858dd60d21b6064820152608401610812565b600080856001600160a01b031685604051612cee9190613e2b565b600060405180830381855af49150503d8060008114612d29576040519150601f19603f3d011682016040523d82523d6000602084013e612d2e565b606091505b5091509150612d3e828286612e6e565b9695505050505050565b6001600160a01b038416612d6e5760405162461bcd60e51b815260040161081290613c2e565b33612d7e818787611d29886128e4565b6001600160a01b038616600090815260026020908152604080832087845290915290205483811015612dc25760405162461bcd60e51b815260040161081290613c54565b6001600160a01b0380881660009081526002602081815260408084208a855282528084208987039055938a16835290815282822088835290529081208054869290612e0e908490613b53565b909155505060408051868152602081018690526001600160a01b03808916928a821692918616917fc3d58168c5ae7397731d063d5bbf3d657854427343f4c083240f7aacaa2d0f62910160405180910390a46112d4828888888888612a3b565b60608315612e7d57508161268a565b825115612e8d5782518084602001fd5b8160405162461bcd60e51b81526004016108129190612fb6565b6040518060c00160405280606081526020016000815260200160008152602001600081526020016000815260200160006004811115612ee857612ee8613211565b905290565b80356001600160a01b0381168114612f0457600080fd5b919050565b60008060408385031215612f1c57600080fd5b612f2583612eed565b946020939093013593505050565b6001600160e01b03198116811461082457600080fd5b600060208284031215612f5b57600080fd5b813561268a81612f33565b60005b83811015612f81578181015183820152602001612f69565b50506000910152565b60008151808452612fa2816020860160208601612f66565b601f01601f19169290920160200192915050565b60208152600061268a6020830184612f8a565b600060208284031215612fdb57600080fd5b5035919050565b600060208284031215612ff457600080fd5b61268a82612eed565b6000806040838503121561301057600080fd5b50508035926020909101359150565b634e487b7160e01b600052604160045260246000fd5b601f8201601f191681016001600160401b038111828210171561305a5761305a61301f565b6040525050565b60006001600160401b0382111561307a5761307a61301f565b5060051b60200190565b600082601f83011261309557600080fd5b813560206130a282613061565b6040516130af8282613035565b83815260059390931b85018201928281019150868411156130cf57600080fd5b8286015b848110156130ea57803583529183019183016130d3565b509695505050505050565b600082601f83011261310657600080fd5b81356001600160401b0381111561311f5761311f61301f565b604051613136601f8301601f191660200182613035565b81815284602083860101111561314b57600080fd5b816020850160208301376000918101602001919091529392505050565b600080600080600060a0868803121561318057600080fd5b61318986612eed565b945061319760208701612eed565b935060408601356001600160401b03808211156131b357600080fd5b6131bf89838a01613084565b945060608801359150808211156131d557600080fd5b6131e189838a01613084565b935060808801359150808211156131f757600080fd5b50613204888289016130f5565b9150509295509295909350565b634e487b7160e01b600052602160045260246000fd5b6005811061324557634e487b7160e01b600052602160045260246000fd5b9052565b602081526000825160c0602084015261326560e0840182612f8a565b9050602084015160408401526040840151606084015260608401516080840152608084015160a084015260a0840151610c7460c0850182613227565b801515811461082457600080fd5b6000602082840312156132c157600080fd5b813561268a816132a1565b600080604083850312156132df57600080fd5b823591506132ef60208401612eed565b90509250929050565b6000806040838503121561330b57600080fd5b82356001600160401b038082111561332257600080fd5b818501915085601f83011261333657600080fd5b8135602061334382613061565b6040516133508282613035565b83815260059390931b850182019282810191508984111561337057600080fd5b948201945b838610156133955761338686612eed565b82529482019490820190613375565b965050860135925050808211156133ab57600080fd5b506133b885828601613084565b9150509250929050565b600081518084526020808501945080840160005b838110156133f2578151875295820195908201906001016133d6565b509495945050505050565b60208152600061268a60208301846133c2565b600080600080600080600060e0888a03121561342b57600080fd5b87356001600160401b038082111561344257600080fd5b61344e8b838c016130f5565b985060208a0135975060408a0135965060608a0135955060808a0135945060a08a013591506005821061348057600080fd5b90925060c0890135908082111561349657600080fd5b506134a38a828b016130f5565b91505092959891949750929550565b6000806000606084860312156134c757600080fd5b6134d084612eed565b925060208401356001600160401b03808211156134ec57600080fd5b6134f887838801613084565b9350604086013591508082111561350e57600080fd5b5061351b86828701613084565b9150509250925092565b60006020828403121561353757600080fd5b81356001600160401b0381111561354d57600080fd5b611ad1848285016130f5565b6000806000806080858703121561356f57600080fd5b61357885612eed565b935060208501356001600160401b038082111561359457600080fd5b6135a088838901613084565b945060408701359150808211156135b657600080fd5b6135c288838901613084565b935060608701359150808211156135d857600080fd5b506135e5878288016130f5565b91505092959194509250565b60008060006060848603121561360657600080fd5b8335925061361660208501612eed565b9150604084013590509250925092565b6000806040838503121561363957600080fd5b61364283612eed565b91506020830135613652816132a1565b809150509250929050565b6000806020838503121561367057600080fd5b82356001600160401b038082111561368757600080fd5b818501915085601f83011261369b57600080fd5b8135818111156136aa57600080fd5b8660208260051b85010111156136bf57600080fd5b60209290920196919550909350505050565b6000602080830181845280855180835260408601915060408160051b870101925083870160005b8281101561372657603f19888603018452613714858351612f8a565b945092850192908501906001016136f8565b5092979650505050505050565b6000806000806080858703121561374957600080fd5b61375285612eed565b93506020850135925060408501356001600160401b0381111561377457600080fd5b613780878288016130f5565b949793965093946060013593505050565b60c0815260006137a460c0830189612f8a565b90508660208301528560408301528460608301528360808301526137cb60a0830184613227565b979650505050505050565b6020810161066c8284613227565b60008060008060008060c087890312156137fd57600080fd5b8635955060208701356001600160401b0381111561381a57600080fd5b61382689828a016130f5565b96999698505050506040850135946060810135946080820135945060a09091013592509050565b6000806040838503121561386057600080fd5b61386983612eed565b91506132ef60208401612eed565b600080600080600060a0868803121561388f57600080fd5b61389886612eed565b94506138a660208701612eed565b9350604086013592506060860135915060808601356001600160401b038111156138cf57600080fd5b613204888289016130f5565b6000806000606084860312156138f057600080fd5b6138f984612eed565b95602085013595506040909401359392505050565b600181811c9082168061392257607f821691505b60208210810361394257634e487b7160e01b600052602260045260246000fd5b50919050565b6000835161395a818460208801612f66565b83519083019061396e818360208801612f66565b01949350505050565b6020808252600e908201526d139bdd08185d5d1a1bdc9a5e995960921b604082015260600190565b634e487b7160e01b600052603260045260246000fd5b634e487b7160e01b600052601160045260246000fd5b808202811582820484141761066c5761066c6139b5565b634e487b7160e01b600052601260045260246000fd5b600082613a0757613a076139e2565b500490565b6020808252600f908201526e0988a9c8ea890be9a92a69a82a8869608b1b604082015260600190565b600060018201613a4757613a476139b5565b5060010190565b601f821115610b6357600081815260208120601f850160051c81016020861015613a755750805b601f850160051c820191505b818110156108f957828155600101613a81565b81516001600160401b03811115613aad57613aad61301f565b613ac181613abb845461390e565b84613a4e565b602080601f831160018114613af65760008415613ade5750858301515b600019600386901b1c1916600185901b1785556108f9565b600085815260208120601f198616915b82811015613b2557888601518255948401946001909101908401613b06565b5085821015613b435787850151600019600388901b60f8161c191681555b5050505050600190811b01905550565b8082018082111561066c5761066c6139b5565b6000808335601e19843603018112613b7d57600080fd5b8301803591506001600160401b03821115613b9757600080fd5b602001915036819003821315613bac57600080fd5b9250929050565b60a081526000613bc660a0830188612f8a565b90508560208301528460408301528360608301528260808301529695505050505050565b8181038181111561066c5761066c6139b5565b600082613c0c57613c0c6139e2565b500690565b600060208284031215613c2357600080fd5b815161268a816132a1565b6020808252600c908201526b2a27afad22a927afa0a2222960a11b604082015260600190565b60208082526010908201526f125394d551919250d251539517d0905360821b604082015260600190565b604081526000613c9160408301856133c2565b8281036020840152613ca381856133c2565b95945050505050565b604081526000613cbf6040830185612f8a565b8281036020840152613ca38185612f8a565b6001600160a01b03868116825285166020820152604081018490526060810183905260a0608082018190526000906137cb90830184612f8a565b600060208284031215613d1d57600080fd5b815161268a81612f33565b600060033d1115613d415760046000803e5060005160e01c5b90565b600060443d1015613d525790565b6040516003193d81016004833e81513d6001600160401b038160248401118184111715613d8157505050505090565b8285019150815181811115613d995750505050505090565b843d8701016020828501011115613db35750505050505090565b613dc260208286010187613035565b509095945050505050565b6001600160a01b0386811682528516602082015260a060408201819052600090613df9908301866133c2565b8281036060840152613e0b81866133c2565b90508281036080840152613e1f8185612f8a565b98975050505050505050565b60008251613e3d818460208701612f66565b919091019291505056fe416464726573733a206c6f772d6c6576656c2064656c65676174652063616c6c206661696c6564a264697066735822122026c0644e6392b77a242b1c8fce4b51ba585ace9628c9131199a7279e8426fc6364736f6c63430008130033",
  "linkReferences": {},
  "deployedLinkReferences": {}
}