{
  "_format": "hh-sol-artifact-1",
  "contractName": "Battle",
  "sourceName": "contracts/Battle.sol",
  "abi": [
    {
      "inputs": [
        {
          "internalType": "address",
          "name": "_characterContractAddress",
          "type": "address"
        },
        {
          "internalType": "address",
          "name": "_battleSkillsContractAddress",
          "type": "address"
        },
        {
          "internalType": "address",
          "name": "_battleEffectsContractAddress",
          "type": "address"
        },
        {
          "internalType": "address",
          "name": "_compositeTokensContractAddress",
          "type": "address"
        }
      ],
      "stateMutability": "nonpayable",
      "type": "constructor"
    },
    {
      "anonymous": false,
      "inputs": [
        {
          "indexed": true,
          "internalType": "uint256",
          "name": "battleId",
          "type": "uint256"
        },
        {
          "indexed": true,
          "internalType": "address",
          "name": "player",
          "type": "address"
        }
      ],
      "name": "BattleCancelled",
      "type": "event"
    },
    {
      "anonymous": false,
      "inputs": [
        {
          "indexed": true,
          "internalType": "uint256",
          "name": "battleId",
          "type": "uint256"
        },
        {
          "indexed": true,
          "internalType": "address",
          "name": "creator",
          "type": "address"
        },
        {
          "indexed": false,
          "internalType": "uint256",
          "name": "characterId",
          "type": "uint256"
        }
      ],
      "name": "BattleCreated",
      "type": "event"
    },
    {
      "anonymous": false,
      "inputs": [
        {
          "indexed": false,
          "internalType": "string",
          "name": "battleName",
          "type": "string"
        },
        {
          "indexed": true,
          "internalType": "uint256",
          "name": "battleId",
          "type": "uint256"
        },
        {
          "indexed": true,
          "internalType": "address",
          "name": "winner",
          "type": "address"
        },
        {
          "indexed": true,
          "internalType": "address",
          "name": "loser",
          "type": "address"
        }
      ],
      "name": "BattleEnded",
      "type": "event"
    },
    {
      "anonymous": false,
      "inputs": [
        {
          "indexed": true,
          "internalType": "uint256",
          "name": "battleId",
          "type": "uint256"
        },
        {
          "indexed": false,
          "internalType": "uint256",
          "name": "round",
          "type": "uint256"
        },
        {
          "indexed": true,
          "internalType": "address",
          "name": "quitter",
          "type": "address"
        }
      ],
      "name": "BattleQuit",
      "type": "event"
    },
    {
      "anonymous": false,
      "inputs": [
        {
          "indexed": false,
          "internalType": "uint256",
          "name": "battleId",
          "type": "uint256"
        },
        {
          "indexed": false,
          "internalType": "address",
          "name": "player",
          "type": "address"
        },
        {
          "indexed": false,
          "internalType": "uint256",
          "name": "id",
          "type": "uint256"
        },
        {
          "indexed": false,
          "internalType": "address",
          "name": "owner",
          "type": "address"
        },
        {
          "indexed": false,
          "internalType": "uint256",
          "name": "health",
          "type": "uint256"
        },
        {
          "indexed": false,
          "internalType": "uint256",
          "name": "attack",
          "type": "uint256"
        },
        {
          "indexed": false,
          "internalType": "uint256",
          "name": "defense",
          "type": "uint256"
        },
        {
          "indexed": false,
          "internalType": "uint256",
          "name": "mana",
          "type": "uint256"
        },
        {
          "indexed": false,
          "internalType": "uint256",
          "name": "typeId",
          "type": "uint256"
        },
        {
          "indexed": false,
          "internalType": "uint256[]",
          "name": "equippedSkills",
          "type": "uint256[]"
        }
      ],
      "name": "CharacterProxyData",
      "type": "event"
    },
    {
      "anonymous": false,
      "inputs": [
        {
          "indexed": true,
          "internalType": "uint256",
          "name": "battleId",
          "type": "uint256"
        },
        {
          "indexed": true,
          "internalType": "address",
          "name": "player",
          "type": "address"
        },
        {
          "indexed": false,
          "internalType": "uint256",
          "name": "round",
          "type": "uint256"
        },
        {
          "indexed": false,
          "internalType": "uint256",
          "name": "diceNumber",
          "type": "uint256"
        }
      ],
      "name": "DiceRolled",
      "type": "event"
    },
    {
      "anonymous": false,
      "inputs": [
        {
          "indexed": true,
          "internalType": "uint256",
          "name": "battleId",
          "type": "uint256"
        },
        {
          "indexed": true,
          "internalType": "address",
          "name": "player1",
          "type": "address"
        },
        {
          "indexed": false,
          "internalType": "uint256",
          "name": "health1",
          "type": "uint256"
        },
        {
          "indexed": true,
          "internalType": "address",
          "name": "player2",
          "type": "address"
        },
        {
          "indexed": false,
          "internalType": "uint256",
          "name": "health2",
          "type": "uint256"
        }
      ],
      "name": "HealthUpdated",
      "type": "event"
    },
    {
      "anonymous": false,
      "inputs": [
        {
          "indexed": true,
          "internalType": "uint256",
          "name": "battleId",
          "type": "uint256"
        },
        {
          "indexed": true,
          "internalType": "address",
          "name": "player",
          "type": "address"
        },
        {
          "indexed": false,
          "internalType": "enum StructsLibrary.Move",
          "name": "move",
          "type": "uint8"
        },
        {
          "indexed": false,
          "internalType": "uint256",
          "name": "round",
          "type": "uint256"
        }
      ],
      "name": "MoveSubmitted",
      "type": "event"
    },
    {
      "anonymous": false,
      "inputs": [
        {
          "indexed": false,
          "internalType": "string",
          "name": "battleName",
          "type": "string"
        },
        {
          "indexed": true,
          "internalType": "uint256",
          "name": "battleId",
          "type": "uint256"
        },
        {
          "indexed": true,
          "internalType": "address",
          "name": "player1",
          "type": "address"
        },
        {
          "indexed": true,
          "internalType": "address",
          "name": "player2",
          "type": "address"
        },
        {
          "indexed": false,
          "internalType": "uint256",
          "name": "characterId",
          "type": "uint256"
        }
      ],
      "name": "NewBattle",
      "type": "event"
    },
    {
      "anonymous": false,
      "inputs": [
        {
          "indexed": true,
          "internalType": "address",
          "name": "prevOwner",
          "type": "address"
        },
        {
          "indexed": true,
          "internalType": "address",
          "name": "newOwner",
          "type": "address"
        }
      ],
      "name": "OwnerUpdated",
      "type": "event"
    },
    {
      "anonymous": false,
      "inputs": [
        {
          "indexed": true,
          "internalType": "uint256",
          "name": "battleId",
          "type": "uint256"
        },
        {
          "indexed": false,
          "internalType": "address[2]",
          "name": "damagedPlayers",
          "type": "address[2]"
        },
        {
          "indexed": false,
          "internalType": "uint256[2]",
          "name": "damageDealt",
          "type": "uint256[2]"
        },
        {
          "indexed": false,
          "internalType": "uint256[2]",
          "name": "damageTaken",
          "type": "uint256[2]"
        },
        {
          "indexed": true,
          "internalType": "uint256",
          "name": "round",
          "type": "uint256"
        }
      ],
      "name": "RoundEnded",
      "type": "event"
    },
    {
      "anonymous": false,
      "inputs": [
        {
          "indexed": true,
          "internalType": "uint256",
          "name": "battleId",
          "type": "uint256"
        },
        {
          "indexed": false,
          "internalType": "uint256",
          "name": "round",
          "type": "uint256"
        },
        {
          "indexed": true,
          "internalType": "address",
          "name": "player",
          "type": "address"
        },
        {
          "indexed": false,
          "internalType": "uint256",
          "name": "skillId",
          "type": "uint256"
        },
        {
          "indexed": false,
          "internalType": "string",
          "name": "skillName",
          "type": "string"
        },
        {
          "indexed": false,
          "internalType": "uint256",
          "name": "totalDamage",
          "type": "uint256"
        }
      ],
      "name": "SkillExecuted",
      "type": "event"
    },
    {
      "anonymous": false,
      "inputs": [
        {
          "indexed": true,
          "internalType": "uint256",
          "name": "battleId",
          "type": "uint256"
        },
        {
          "indexed": false,
          "internalType": "uint256",
          "name": "round",
          "type": "uint256"
        },
        {
          "indexed": true,
          "internalType": "address",
          "name": "character",
          "type": "address"
        },
        {
          "indexed": false,
          "internalType": "string",
          "name": "statusEffectName",
          "type": "string"
        },
        {
          "indexed": false,
          "internalType": "uint256",
          "name": "duration",
          "type": "uint256"
        }
      ],
      "name": "StatusEffectApplied",
      "type": "event"
    },
    {
      "anonymous": false,
      "inputs": [
        {
          "indexed": true,
          "internalType": "uint256",
          "name": "battleId",
          "type": "uint256"
        },
        {
          "indexed": true,
          "internalType": "address",
          "name": "player",
          "type": "address"
        },
        {
          "indexed": false,
          "internalType": "uint256",
          "name": "effectId",
          "type": "uint256"
        },
        {
          "indexed": false,
          "internalType": "string",
          "name": "effectName",
          "type": "string"
        },
        {
          "indexed": false,
          "internalType": "string",
          "name": "effectType",
          "type": "string"
        },
        {
          "indexed": false,
          "internalType": "uint256",
          "name": "effectValue",
          "type": "uint256"
        },
        {
          "indexed": false,
          "internalType": "uint256",
          "name": "round",
          "type": "uint256"
        },
        {
          "indexed": false,
          "internalType": "uint256",
          "name": "duration",
          "type": "uint256"
        }
      ],
      "name": "StatusEffectResolved",
      "type": "event"
    },
    {
      "stateMutability": "payable",
      "type": "fallback"
    },
    {
      "inputs": [
        {
          "internalType": "uint256",
          "name": "",
          "type": "uint256"
        }
      ],
      "name": "activeBattlesId",
      "outputs": [
        {
          "internalType": "uint256",
          "name": "",
          "type": "uint256"
        }
      ],
      "stateMutability": "view",
      "type": "function"
    },
    {
      "inputs": [],
      "name": "battleCounter",
      "outputs": [
        {
          "internalType": "uint256",
          "name": "",
          "type": "uint256"
        }
      ],
      "stateMutability": "view",
      "type": "function"
    },
    {
      "inputs": [],
      "name": "battleFee",
      "outputs": [
        {
          "internalType": "uint256",
          "name": "",
          "type": "uint256"
        }
      ],
      "stateMutability": "view",
      "type": "function"
    },
    {
      "inputs": [
        {
          "internalType": "uint256",
          "name": "",
          "type": "uint256"
        }
      ],
      "name": "battles",
      "outputs": [
        {
          "internalType": "uint256",
          "name": "battleId",
          "type": "uint256"
        },
        {
          "internalType": "string",
          "name": "name",
          "type": "string"
        },
        {
          "internalType": "enum StructsLibrary.BattleStatus",
          "name": "battleStatus",
          "type": "uint8"
        },
        {
          "internalType": "address",
          "name": "winner",
          "type": "address"
        },
        {
          "internalType": "uint256",
          "name": "round",
          "type": "uint256"
        },
        {
          "components": [
            {
              "internalType": "uint256[2]",
              "name": "initialHealth",
              "type": "uint256[2]"
            },
            {
              "internalType": "uint256[2]",
              "name": "initialMana",
              "type": "uint256[2]"
            },
            {
              "internalType": "uint256[2]",
              "name": "totalDamageDealt",
              "type": "uint256[2]"
            },
            {
              "internalType": "uint256[2]",
              "name": "totalDamageTaken",
              "type": "uint256[2]"
            },
            {
              "internalType": "uint256[2]",
              "name": "damageReduced",
              "type": "uint256[2]"
            },
            {
              "internalType": "uint256[2]",
              "name": "healthRegenerated",
              "type": "uint256[2]"
            },
            {
              "internalType": "uint256[2]",
              "name": "manaRegenerated",
              "type": "uint256[2]"
            },
            {
              "internalType": "uint256[2]",
              "name": "expReceived",
              "type": "uint256[2]"
            },
            {
              "internalType": "uint256[2]",
              "name": "leagueBattlePointsEarned",
              "type": "uint256[2]"
            }
          ],
          "internalType": "struct StructsLibrary.BattleStats",
          "name": "battleStats",
          "type": "tuple"
        }
      ],
      "stateMutability": "view",
      "type": "function"
    },
    {
      "inputs": [
        {
          "internalType": "uint256",
          "name": "_battleId",
          "type": "uint256"
        }
      ],
      "name": "cancelBattle",
      "outputs": [],
      "stateMutability": "nonpayable",
      "type": "function"
    },
    {
      "inputs": [
        {
          "internalType": "string",
          "name": "_name",
          "type": "string"
        },
        {
          "internalType": "uint256",
          "name": "_characterTokenId",
          "type": "uint256"
        }
      ],
      "name": "createBattle",
      "outputs": [],
      "stateMutability": "nonpayable",
      "type": "function"
    },
    {
      "inputs": [],
      "name": "feeCollected",
      "outputs": [
        {
          "internalType": "uint256",
          "name": "",
          "type": "uint256"
        }
      ],
      "stateMutability": "view",
      "type": "function"
    },
    {
      "inputs": [],
      "name": "getActiveBattlesCount",
      "outputs": [
        {
          "internalType": "uint256",
          "name": "",
          "type": "uint256"
        }
      ],
      "stateMutability": "view",
      "type": "function"
    },
    {
      "inputs": [],
      "name": "getActiveBattlesId",
      "outputs": [
        {
          "internalType": "uint256[]",
          "name": "",
          "type": "uint256[]"
        }
      ],
      "stateMutability": "view",
      "type": "function"
    },
    {
      "inputs": [
        {
          "internalType": "uint256",
          "name": "_battleId",
          "type": "uint256"
        }
      ],
      "name": "getBattle",
      "outputs": [
        {
          "components": [
            {
              "internalType": "uint256",
              "name": "battleId",
              "type": "uint256"
            },
            {
              "internalType": "string",
              "name": "name",
              "type": "string"
            },
            {
              "internalType": "address[2]",
              "name": "players",
              "type": "address[2]"
            },
            {
              "internalType": "uint256[2]",
              "name": "characterIds",
              "type": "uint256[2]"
            },
            {
              "internalType": "uint256[2]",
              "name": "moves",
              "type": "uint256[2]"
            },
            {
              "internalType": "uint256[2]",
              "name": "skillIndices",
              "type": "uint256[2]"
            },
            {
              "internalType": "enum StructsLibrary.BattleStatus",
              "name": "battleStatus",
              "type": "uint8"
            },
            {
              "internalType": "address",
              "name": "winner",
              "type": "address"
            },
            {
              "internalType": "bool[2]",
              "name": "moveSubmitted",
              "type": "bool[2]"
            },
            {
              "internalType": "uint256",
              "name": "round",
              "type": "uint256"
            },
            {
              "components": [
                {
                  "internalType": "uint256[2]",
                  "name": "initialHealth",
                  "type": "uint256[2]"
                },
                {
                  "internalType": "uint256[2]",
                  "name": "initialMana",
                  "type": "uint256[2]"
                },
                {
                  "internalType": "uint256[2]",
                  "name": "totalDamageDealt",
                  "type": "uint256[2]"
                },
                {
                  "internalType": "uint256[2]",
                  "name": "totalDamageTaken",
                  "type": "uint256[2]"
                },
                {
                  "internalType": "uint256[2]",
                  "name": "damageReduced",
                  "type": "uint256[2]"
                },
                {
                  "internalType": "uint256[2]",
                  "name": "healthRegenerated",
                  "type": "uint256[2]"
                },
                {
                  "internalType": "uint256[2]",
                  "name": "manaRegenerated",
                  "type": "uint256[2]"
                },
                {
                  "internalType": "uint256[2]",
                  "name": "expReceived",
                  "type": "uint256[2]"
                },
                {
                  "internalType": "uint256[2]",
                  "name": "leagueBattlePointsEarned",
                  "type": "uint256[2]"
                }
              ],
              "internalType": "struct StructsLibrary.BattleStats",
              "name": "battleStats",
              "type": "tuple"
            }
          ],
          "internalType": "struct StructsLibrary.BattleData",
          "name": "",
          "type": "tuple"
        }
      ],
      "stateMutability": "view",
      "type": "function"
    },
    {
      "inputs": [
        {
          "internalType": "uint256",
          "name": "battleId",
          "type": "uint256"
        }
      ],
      "name": "getBattleMoves",
      "outputs": [
        {
          "internalType": "uint256[2]",
          "name": "",
          "type": "uint256[2]"
        }
      ],
      "stateMutability": "view",
      "type": "function"
    },
    {
      "inputs": [
        {
          "internalType": "uint256",
          "name": "battleId",
          "type": "uint256"
        }
      ],
      "name": "getBattleParticipants",
      "outputs": [
        {
          "internalType": "address[2]",
          "name": "",
          "type": "address[2]"
        }
      ],
      "stateMutability": "view",
      "type": "function"
    },
    {
      "inputs": [
        {
          "internalType": "uint256",
          "name": "battleId",
          "type": "uint256"
        },
        {
          "internalType": "address",
          "name": "player",
          "type": "address"
        }
      ],
      "name": "getCharacterHealth",
      "outputs": [
        {
          "internalType": "uint256",
          "name": "",
          "type": "uint256"
        }
      ],
      "stateMutability": "view",
      "type": "function"
    },
    {
      "inputs": [
        {
          "internalType": "uint256",
          "name": "battleId",
          "type": "uint256"
        },
        {
          "internalType": "address",
          "name": "player",
          "type": "address"
        }
      ],
      "name": "getCharacterProxy",
      "outputs": [
        {
          "components": [
            {
              "internalType": "uint256",
              "name": "id",
              "type": "uint256"
            },
            {
              "internalType": "address",
              "name": "owner",
              "type": "address"
            },
            {
              "internalType": "uint256",
              "name": "health",
              "type": "uint256"
            },
            {
              "internalType": "uint256",
              "name": "attack",
              "type": "uint256"
            },
            {
              "internalType": "uint256",
              "name": "defense",
              "type": "uint256"
            },
            {
              "internalType": "uint256",
              "name": "mana",
              "type": "uint256"
            },
            {
              "internalType": "uint256",
              "name": "typeId",
              "type": "uint256"
            },
            {
              "internalType": "uint256[]",
              "name": "equippedSkills",
              "type": "uint256[]"
            }
          ],
          "internalType": "struct StructsLibrary.CharacterProxyView",
          "name": "",
          "type": "tuple"
        }
      ],
      "stateMutability": "view",
      "type": "function"
    },
    {
      "inputs": [
        {
          "internalType": "uint256",
          "name": "battleId",
          "type": "uint256"
        },
        {
          "internalType": "address",
          "name": "player",
          "type": "address"
        }
      ],
      "name": "getCharacterProxyActiveEffects",
      "outputs": [
        {
          "internalType": "uint256[]",
          "name": "effectIds",
          "type": "uint256[]"
        },
        {
          "internalType": "uint256[]",
          "name": "durations",
          "type": "uint256[]"
        }
      ],
      "stateMutability": "view",
      "type": "function"
    },
    {
      "inputs": [
        {
          "internalType": "uint256",
          "name": "battleId",
          "type": "uint256"
        },
        {
          "internalType": "uint256",
          "name": "characterTokenId",
          "type": "uint256"
        }
      ],
      "name": "joinBattle",
      "outputs": [],
      "stateMutability": "nonpayable",
      "type": "function"
    },
    {
      "inputs": [],
      "name": "leagueRewards",
      "outputs": [
        {
          "internalType": "uint256",
          "name": "",
          "type": "uint256"
        }
      ],
      "stateMutability": "view",
      "type": "function"
    },
    {
      "inputs": [],
      "name": "owner",
      "outputs": [
        {
          "internalType": "address",
          "name": "",
          "type": "address"
        }
      ],
      "stateMutability": "view",
      "type": "function"
    },
    {
      "inputs": [
        {
          "internalType": "address",
          "name": "",
          "type": "address"
        }
      ],
      "name": "playerCredit",
      "outputs": [
        {
          "internalType": "uint256",
          "name": "",
          "type": "uint256"
        }
      ],
      "stateMutability": "view",
      "type": "function"
    },
    {
      "inputs": [
        {
          "internalType": "address",
          "name": "",
          "type": "address"
        }
      ],
      "name": "playerOngoingBattle",
      "outputs": [
        {
          "internalType": "uint256",
          "name": "",
          "type": "uint256"
        }
      ],
      "stateMutability": "view",
      "type": "function"
    },
    {
      "inputs": [
        {
          "internalType": "uint256",
          "name": "_battleId",
          "type": "uint256"
        }
      ],
      "name": "quitBattle",
      "outputs": [],
      "stateMutability": "nonpayable",
      "type": "function"
    },
    {
      "inputs": [
        {
          "internalType": "address",
          "name": "_newOwner",
          "type": "address"
        }
      ],
      "name": "setOwner",
      "outputs": [],
      "stateMutability": "nonpayable",
      "type": "function"
    },
    {
      "inputs": [],
      "name": "staminaCost",
      "outputs": [
        {
          "internalType": "uint256",
          "name": "",
          "type": "uint256"
        }
      ],
      "stateMutability": "view",
      "type": "function"
    },
    {
      "inputs": [
        {
          "internalType": "uint256",
          "name": "_tokenId1",
          "type": "uint256"
        },
        {
          "internalType": "uint256",
          "name": "_tokenId2",
          "type": "uint256"
        }
      ],
      "name": "storeStamina",
      "outputs": [],
      "stateMutability": "nonpayable",
      "type": "function"
    },
    {
      "inputs": [
        {
          "internalType": "uint256",
          "name": "battleId",
          "type": "uint256"
        },
        {
          "internalType": "enum StructsLibrary.Move",
          "name": "move",
          "type": "uint8"
        },
        {
          "internalType": "uint256",
          "name": "skillId",
          "type": "uint256"
        }
      ],
      "name": "submitMove",
      "outputs": [],
      "stateMutability": "nonpayable",
      "type": "function"
    },
    {
      "inputs": [
        {
          "internalType": "uint256",
          "name": "newCost",
          "type": "uint256"
        }
      ],
      "name": "updateStaminaCost",
      "outputs": [],
      "stateMutability": "nonpayable",
      "type": "function"
    },
    {
      "stateMutability": "payable",
      "type": "receive"
    }
  ],
  "bytecode": "0x6080604052600a6004553480156200001657600080fd5b50604051620060cd380380620060cd8339810160408190526200003991620000aa565b600c80546001600160a01b039586166001600160a01b031991821617909155600d805494861694821694909417909355600e805492851692841692909217909155600f805491909316911617905562000107565b80516001600160a01b0381168114620000a557600080fd5b919050565b60008060008060808587031215620000c157600080fd5b620000cc856200008d565b9350620000dc602086016200008d565b9250620000ec604086016200008d565b9150620000fc606086016200008d565b905092959194509250565b615fb680620001176000396000f3fe6080604052600436106101735760003560e01c80636efe60c1116100c8578063a9b9be3f11610084578063d054fe0011610061578063d054fe0014610474578063daf241aa1461048a578063dc55da6f146104b8578063e44dba4f146104e557005b8063a9b9be3f1461041c578063ba7b559614610432578063c7f42c641461045f57005b80636efe60c11461033a5780638bdb3b2f146103675780638da5cb5b146103875780638e4c1999146103af57806396033b76146103cf578063a10d80de146103fc57005b8063330561091161012f578063606d2e961161010c578063606d2e96146102a55780636bc8e4a9146102d75780636ca7f95c146102f75780636dd0ce7a1461030d57005b806333056109146102385780634188de5a146102655780634c4c447e1461028557005b8063068a1e491461017c578063086d35c2146101a05780630ba5a8e6146101b657806313af4035146101d6578063239752ab146101f657806332ccca0e1461021657005b3661017a57005b005b34801561018857600080fd5b506006545b6040519081526020015b60405180910390f35b3480156101ac57600080fd5b5061018d60035481565b3480156101c257600080fd5b5061017a6101d1366004614f9a565b610505565b3480156101e257600080fd5b5061017a6101f1366004614fc8565b61055a565b34801561020257600080fd5b5061018d610211366004614f9a565b610566565b34801561022257600080fd5b5061022b610587565b6040516101979190615027565b34801561024457600080fd5b50610258610253366004614f9a565b6105df565b604051610197919061506c565b34801561027157600080fd5b5061018d61028036600461507a565b610634565b34801561029157600080fd5b5061017a6102a0366004614f9a565b610693565b3480156102b157600080fd5b506102c56102c0366004614f9a565b610878565b604051610197969594939291906151f1565b3480156102e357600080fd5b5061017a6102f2366004615249565b610b3d565b34801561030357600080fd5b5061018d60025481565b34801561031957600080fd5b5061032d610328366004614f9a565b6110d5565b60405161019791906152aa565b34801561034657600080fd5b5061018d610355366004614fc8565b60086020526000908152604090205481565b34801561037357600080fd5b5061017a610382366004615461565b611531565b34801561039357600080fd5b506000546040516001600160a01b039091168152602001610197565b3480156103bb57600080fd5b5061017a6103ca3660046154e2565b611a82565b3480156103db57600080fd5b5061018d6103ea366004614fc8565b600b6020526000908152604090205481565b34801561040857600080fd5b5061017a610417366004614f9a565b611b42565b34801561042857600080fd5b5061018d600a5481565b34801561043e57600080fd5b5061045261044d366004614f9a565b6120f4565b6040516101979190615504565b34801561046b57600080fd5b5061018d612129565b34801561048057600080fd5b5061018d60045481565b34801561049657600080fd5b506104aa6104a536600461507a565b6121eb565b604051610197929190615512565b3480156104c457600080fd5b506104d86104d336600461507a565b612368565b6040516101979190615540565b3480156104f157600080fd5b5061017a6105003660046154e2565b6124b4565b6000546001600160a01b031633146105555760405162461bcd60e51b815260206004820152600e60248201526d139bdd08185d5d1a1bdc9a5e995960921b60448201526064015b60405180910390fd5b600455565b61056381612779565b50565b6006818154811061057657600080fd5b600091825260209091200154905081565b606060068054806020026020016040519081016040528092919081815260200182805480156105d557602002820191906000526020600020905b8154815260200190600101908083116105c1575b5050505050905090565b6105e7614d21565b60008281526005602052604090819020815180830192839052916002918201919082845b81546001600160a01b0316815260019091019060200180831161060b5750505050509050919050565b600060096000848460405160200161064d9291906155e5565b60408051601f19818403018152918152815160209283012083528282019390935290820160009081206001600160a01b0386168252909152206002015490505b92915050565b600081815260056020526040902060028101546001600160a01b0316331461070c5760405162461bcd60e51b815260206004820152602660248201527f4f6e6c79207468652063726561746f722063616e2063616e63656c2074686520604482015265626174746c6560d01b606482015260840161054c565b6000600a82015460ff166002811115610727576107276150fa565b146107745760405162461bcd60e51b815260206004820152601e60248201527f43616e6e6f742063616e63656c2061207374617274656420626174746c650000604482015260640161054c565b600a8101805460ff1916600217905533600090815260086020908152604080832083905584835260079091528120546006549091906107b590600190615631565b90506000600682815481106107cc576107cc615605565b9060005260206000200154905080600684815481106107ed576107ed615605565b6000918252602080832090910192909255828152600790915260409020839055600680548061081e5761081e615644565b60008281526020808220830160001990810183905590920190925586825260079052604080822082905551339187917fb91ae85405a99ffc07c694757cfbb7a52994c3b4daf39d040a6d56b1429ed7c79190a35050505050565b6005602052600090815260409020805460018201805491929161089a9061565a565b80601f01602080910402602001604051908101604052809291908181526020018280546108c69061565a565b80156109135780601f106108e857610100808354040283529160200191610913565b820191906000526020600020905b8154815290600101906020018083116108f657829003601f168201915b50505050600a830154600c84015460408051610160810191829052949560ff8416956101009094046001600160a01b03169450919290600d8301908290610120820190839060029082845b81548152602001906001019080831161095e57505050918352505060408051808201918290526020909201919060028481019182845b815481526020019060010190808311610994575050509183525050604080518082019182905260209092019190600484019060029082845b8154815260200190600101908083116109cc575050509183525050604080518082019182905260209092019190600684019060029082845b815481526020019060010190808311610a04575050509183525050604080518082019182905260209092019190600884019060029082845b815481526020019060010190808311610a3c575050509183525050604080518082019182905260209092019190600a84019060029082845b815481526020019060010190808311610a74575050509183525050604080518082019182905260209092019190600c84019060029082845b815481526020019060010190808311610aac575050509183525050604080518082019182905260209092019190600e84019060029082845b815481526020019060010190808311610ae4575050509183525050604080518082019182905260209092019190601084019060029082845b815481526020019060010190808311610b1c57505050505081525050905086565b60008381526005602052604081208491610b6691600201905b01546001600160a01b03166127c9565b6000818152600560205260409020610b82906002016001610b56565b600081815260056020526040902060028101546003909101546001600160a01b03918216911633821480610bbe5750336001600160a01b038216145b610c1b5760405162461bcd60e51b815260206004820152602860248201527f4f6e6c79207061727469636970616e74732063616e2063616c6c207468697320604482015267333ab731ba34b7b760c11b606482015260840161054c565b60008681526005602052604090206001600a82015460ff166002811115610c4457610c446150fa565b14610ca55760405162461bcd60e51b815260206004820152602b60248201527f426174746c6520686173206e6f742073746172746564206f722068617320616c60448201526a1c9958591e48195b99195960aa1b606482015260840161054c565b6000866003811115610cb957610cb96150fa565b1480610cd657506001866003811115610cd457610cd46150fa565b145b80610cf257506002866003811115610cf057610cf06150fa565b145b80610d0e57506003866003811115610d0c57610d0c6150fa565b145b610d805760405162461bcd60e51b815260206004820152603e60248201527f496e76616c6964206d6f76653a206d7573742062652041545441434b2c20444560448201527f46454e442c205553455f534b494c4c2c206f7220444f5f4e4f5448494e470000606482015260840161054c565b6000600282018101546001600160a01b03163314610d9f576001610da2565b60005b60ff16905081600b018160028110610dbc57610dbc615605565b602081049091015460ff601f9092166101000a90041615610e1f5760405162461bcd60e51b815260206004820181905260248201527f4d6f766520616c7265616479207375626d697474656420627920706c61796572604482015260640161054c565b60008833604051602001610e349291906155e5565b60408051601f19818403018152828252805160209182012060008181526009835283812033808352935292909220600c8701549294509290918c917f8aeb59a0d4a813dbcc0850f4aaf78c3bbdb6a8e181a23013ab163cc9a4cf647091610e9d918e9190615694565b60405180910390a36001896003811115610eb957610eb96150fa565b14158015610ed957506003896003811115610ed657610ed66150fa565b14155b15610f3657610ee6612811565b600c80830182905585015460405133928d927f44c60cf2e549d3f07067958fb2907081416087b158fe86d2ddad6ec761790c5892610f2d9290918252602082015260400190565b60405180910390a35b6002896003811115610f4a57610f4a6150fa565b03610ff0576000805b6007830154811015610fa05789836007018281548110610f7557610f75615605565b906000526020600020015403610f8e5760019150610fa0565b80610f98816156b2565b915050610f53565b5080610fee5760405162461bcd60e51b815260206004820152601f60248201527f5375626d697474656420736b696c6c206973206e6f7420657175697070656400604482015260640161054c565b505b886003811115611002576110026150fa565b84600601846002811061101757611017615605565b01556001600b8501846002811061103057611030615605565b602091828204019190066101000a81548160ff02191690831515021790555060026003811115611062576110626150fa565b896003811115611074576110746150fa565b03611092578784600801846002811061108f5761108f615605565b01555b600b84015460ff1680156110af5750600b840154610100900460ff165b156110c957600884015460098501546110c9918c9161289b565b50505050505050505050565b6110dd614d3f565b6005600083815260200190815260200160002060405180610160016040529081600082015481526020016001820180546111169061565a565b80601f01602080910402602001604051908101604052809291908181526020018280546111429061565a565b801561118f5780601f106111645761010080835404028352916020019161118f565b820191906000526020600020905b81548152906001019060200180831161117257829003601f168201915b505050918352505060408051808201918290526020909201919060028481019182845b81546001600160a01b031681526001909101906020018083116111b2575050509183525050604080518082019182905260209092019190600484019060029082845b8154815260200190600101908083116111f4575050509183525050604080518082019182905260209092019190600684019060029082845b81548152602001906001019080831161122c575050509183525050604080518082019182905260209092019190600884019060029082845b815481526020019060010190808311611264575050509183525050600a82015460209091019060ff16600281111561129e5761129e6150fa565b60028111156112af576112af6150fa565b8152600a82015461010090046001600160a01b0316602082015260408051808201808352919092019190600b840190600290826000855b825461010083900a900460ff1615158152602060019283018181049485019490930390920291018084116112e65790505050509183525050600c82015460208201526040805161016081018252910190600d83018161012081018260028282826020028201915b81548152602001906001019080831161134d57505050918352505060408051808201918290526020909201919060028481019182845b815481526020019060010190808311611383575050509183525050604080518082019182905260209092019190600484019060029082845b8154815260200190600101908083116113bb575050509183525050604080518082019182905260209092019190600684019060029082845b8154815260200190600101908083116113f3575050509183525050604080518082019182905260209092019190600884019060029082845b81548152602001906001019080831161142b575050509183525050604080518082019182905260209092019190600a84019060029082845b815481526020019060010190808311611463575050509183525050604080518082019182905260209092019190600c84019060029082845b81548152602001906001019080831161149b575050509183525050604080518082019182905260209092019190600e84019060029082845b8154815260200190600101908083116114d3575050509183525050604080518082019182905260209092019190601084019060029082845b81548152602001906001019080831161150b575050509190925250505090525092915050565b600c546040516331a9108f60e11b81526004810183905233916001600160a01b031690636352211e90602401602060405180830381865afa15801561157a573d6000803e3d6000fd5b505050506040513d601f19601f8201168201806040525081019061159e91906156cb565b6001600160a01b0316146115f45760405162461bcd60e51b815260206004820152601e60248201527f4e6f7420746865206f776e6572206f6620746865206368617261637465720000604482015260640161054c565b33600090815260086020526040902054156116215760405162461bcd60e51b815260040161054c906156e8565b600a546040805161016081018252828152602080820186905282518084018452338152600081830181905283850191909152835180850185528681528083018290526060840152835180850185528181528083018290526080840152835180850190945280845290830181905260a082019290925260c08101828152600060208083018290526040805180820182528381528083018490528185015260016060808601829052825161016081018452610120810186815261014082018790528152835180850185528681528086018790528186015283518085018552868152808601879052818501528351808501855286815280860187905291810191909152825180840184528581528085018690526080828101919091528351808501855286815280860187905260a08301528351808501855286815280860187905260c08301528351808501855286815280860187905260e08301528351808501855286815280860187905261010083015290950194909452868352600582529091208351815590830151929350839290918201906117bc908261577c565b5060408201516117d29060028084019190614dbc565b5060608201516117e89060048301906002614e14565b5060808201516117fe9060068301906002614e14565b5060a08201516118149060088301906002614e14565b5060c0820151600a8201805460ff19166001836002811115611838576118386150fa565b021790555060e0820151600a82018054610100600160a81b0319166101006001600160a01b03909316830217905582015161187990600b8301906002614e42565b50610120820151600c8201556101408201518051600d83019061189f9082906002614e14565b5060208201516118b59060028084019190614e14565b5060408201516118cb9060048301906002614e14565b5060608201516118e19060068301906002614e14565b5060808201516118f79060088301906002614e14565b5060a082015161190d90600a8301906002614e14565b5060c082015161192390600c8301906002614e14565b5060e082015161193990600e8301906002614e14565b506101008201516119509060108301906002614e14565b5050600680546001818101835560008390527ff652222313e28459528d920b65115c16c04f3efc82aaedc97be59f3f377c0d3f909101879055905461199a94509092509050615631565b6000838152600760209081526040808320939093553380835260089091529190208390556119ca90849084612b8f565b600c546004805460405163739420a560e01b815291820186905260248201526001600160a01b039091169063739420a590604401600060405180830381600087803b158015611a1857600080fd5b505af1158015611a2c573d6000803e3d6000fd5b50506040518581523392508491507fcd51df591e2f9319b98d783b63c675c8ab2e63d44101da9e5a12af2b1fcab4799060200160405180910390a3600a8054906000611a77836156b2565b919050555050505050565b600c54604051631a3bcbcf60e11b8152600481018490526001600160a01b0390911690633477979e90602401600060405180830381600087803b158015611ac857600080fd5b505af1158015611adc573d6000803e3d6000fd5b5050600c54604051631a3bcbcf60e11b8152600481018590526001600160a01b039091169250633477979e9150602401600060405180830381600087803b158015611b2657600080fd5b505af1158015611b3a573d6000803e3d6000fd5b505050505050565b6000818152600560205260409020600201546001600160a01b0316611b9d5760405162461bcd60e51b8152602060048201526011602482015270426174746c65206e6f7420666f756e642160781b604482015260640161054c565b6000600560008381526020019081526020016000206040518061016001604052908160008201548152602001600182018054611bd89061565a565b80601f0160208091040260200160405190810160405280929190818152602001828054611c049061565a565b8015611c515780601f10611c2657610100808354040283529160200191611c51565b820191906000526020600020905b815481529060010190602001808311611c3457829003601f168201915b505050918352505060408051808201918290526020909201919060028481019182845b81546001600160a01b03168152600190910190602001808311611c74575050509183525050604080518082019182905260209092019190600484019060029082845b815481526020019060010190808311611cb6575050509183525050604080518082019182905260209092019190600684019060029082845b815481526020019060010190808311611cee575050509183525050604080518082019182905260209092019190600884019060029082845b815481526020019060010190808311611d26575050509183525050600a82015460209091019060ff166002811115611d6057611d606150fa565b6002811115611d7157611d716150fa565b8152600a82015461010090046001600160a01b0316602082015260408051808201808352919092019190600b840190600290826000855b825461010083900a900460ff161515815260206001928301818104948501949093039092029101808411611da85790505050509183525050600c82015460208201526040805161016081018252910190600d83018161012081018260028282826020028201915b815481526020019060010190808311611e0f57505050918352505060408051808201918290526020909201919060028481019182845b815481526020019060010190808311611e45575050509183525050604080518082019182905260209092019190600484019060029082845b815481526020019060010190808311611e7d575050509183525050604080518082019182905260209092019190600684019060029082845b815481526020019060010190808311611eb5575050509183525050604080518082019182905260209092019190600884019060029082845b815481526020019060010190808311611eed575050509183525050604080518082019182905260209092019190600a84019060029082845b815481526020019060010190808311611f25575050509183525050604080518082019182905260209092019190600c84019060029082845b815481526020019060010190808311611f5d575050509183525050604080518082019182905260209092019190600e84019060029082845b815481526020019060010190808311611f95575050509183525050604080518082019182905260209092019190601084019060029082845b815481526020019060010190808311611fcd57505050919092525050509052506040810151519091506001600160a01b031633148061201c57506040810151602001516001600160a01b031633145b6120685760405162461bcd60e51b815260206004820152601b60248201527f596f7520617265206e6f7420696e207468697320626174746c65210000000000604482015260640161054c565b336001600160a01b0316827f3ff46d129afe6d0143c3e8ba124cdf4f4a5552918a50cd50b784ca9bdce4e3578361012001516040516120a991815260200190565b60405180910390a36040810151516001600160a01b031633146120e25760408101516120de90839060005b6020020151612e1e565b5050565b60408101516120de90839060016120d4565b6120fc614d21565b50600090815260056020908152604091829020825180840190935260068101548352600701549082015290565b600080600160009054906101000a90046001600160a01b03166001600160a01b031663feaf968c6040518163ffffffff1660e01b815260040160a060405180830381865afa15801561217f573d6000803e3d6000fd5b505050506040513d601f19601f820116820180604052508101906121a3919061585a565b5050509150506000816402540be4006121bc91906158aa565b905066b1a2bc2ec50000816121d982670de0b6b3a76400006158da565b6121e39190615907565b935050505090565b606080600084846040516020016122039291906155e5565b60408051601f1981840301815291815281516020928301206000818152600984528281206001600160a01b03891682529093529120600881015491925090806001600160401b0381111561225957612259615386565b604051908082528060200260200182016040528015612282578160200160208202803683370190505b509450806001600160401b0381111561229d5761229d615386565b6040519080825280602002602001820160405280156122c6578160200160208202803683370190505b50935060005b8181101561235d5760008360080182815481106122eb576122eb615605565b906000526020600020015490508087838151811061230b5761230b615605565b6020026020010181815250508360090160008281526020019081526020016000205486838151811061233f5761233f615605565b60209081029190910101525080612355816156b2565b9150506122cc565b505050509250929050565b6123b96040518061010001604052806000815260200160006001600160a01b031681526020016000815260200160008152602001600081526020016000815260200160008152602001606081525090565b600083836040516020016123ce9291906155e5565b60408051601f1981840301815282825280516020918201206000818152600983528381206001600160a01b03808a16835290845284822061010087018652805487526001810154909116868501526002810154868601526003810154606087015260048101546080870152600581015460a0870152600681015460c087015260078101805486518187028101870190975280875293975090959194919360e0850193908301828280156124a057602002820191906000526020600020905b81548152602001906001019080831161248c575b505050919092525090979650505050505050565b600c546040516331a9108f60e11b81526004810183905233916001600160a01b031690636352211e90602401602060405180830381865afa1580156124fd573d6000803e3d6000fd5b505050506040513d601f19601f8201168201806040525081019061252191906156cb565b6001600160a01b0316146125775760405162461bcd60e51b815260206004820152601e60248201527f4e6f7420746865206f776e6572206f6620746865206368617261637465720000604482015260640161054c565b33600090815260086020526040902054156125a45760405162461bcd60e51b815260040161054c906156e8565b600082815260056020526040812090600a82015460ff1660028111156125cc576125cc6150fa565b146126195760405162461bcd60e51b815260206004820152601a60248201527f426174746c652068617320616c72656164792073746172746564000000000000604482015260640161054c565b60038101546001600160a01b0316156126745760405162461bcd60e51b815260206004820152601e60248201527f426174746c6520616c7265616479206861732074776f20706c61796572730000604482015260640161054c565b600581018290556003810180546001600160a01b03191633908117909155600a8201805460ff1916600117905560008181526008602052604090208490556126be90839085612b8f565b600c546004805460405163739420a560e01b815291820185905260248201526001600160a01b039091169063739420a590604401600060405180830381600087803b15801561270c57600080fd5b505af1158015612720573d6000803e3d6000fd5b50505050600281015460405133916001600160a01b03169085907f062c68eb2a964de2eed3fb17d55e0f1609ab0b928d7b24a44821401688ceafab9061276c9060018701908890615998565b60405180910390a4505050565b600080546001600160a01b038381166001600160a01b0319831681178455604051919092169283917f8292fce18fa69edf4db7b94ea2e58241df0ae57f97e0a6c9b29067028bf92d769190a35050565b6040516001600160a01b03821660248201526105639060440160408051601f198184030181529190526020810180516001600160e01b031663161765e160e11b179052613170565b600080601444423360405160200161284e93929190928352602083019190915260601b6bffffffffffffffffffffffff1916604082015260540190565b6040516020818303038152906040528051906020012060001c61287191906159ba565b61287c9060016159ce565b90506128898160646158da565b612895906103e86159ce565b91505090565b6000838152600560205260408120906128c48560028401835b01546001600160a01b0316613191565b905060006128d7866002850160016128b4565b90506128e1614d21565b6128e9614d21565b6128f1614d21565b6129008987600c0154876131e5565b8152600c860154612913908a90866131e5565b6020820152600b85015460ff161561292d57600360068701555b600b84015460ff161561294257600360078701555b61294d8686866133c2565b60068601546002148015612965575060078601546002145b61297957612974868686613459565b935091505b6006860154600119016129b1578554600c8701546129a39190878b8860068c0160015b0154613570565b83526001600160a01b031683525b6007860154600119016129f2578554600c8701546129d89190868a8960068c01600061299c565b6020848101919091526001600160a01b0391909116908401525b6129ff818686858761383f565b6001600c8681018290558501558151601187018054600090612a229084906159ce565b90915550506020820151601287018054600090612a409084906159ce565b90915550506020820151601387018054600090612a5e9084906159ce565b90915550508151601487018054600090612a799084906159ce565b9250508190555085600c0154897f1c18d51d882ce69ed20679aff51d0bc25f77878b0bbc4051e6d9ab2342f5e47f8585604051806040016040528088600160028110612ac757612ac7615605565b6020020151815260200188600060028110612ae457612ae4615605565b60200201519052604051612afa939291906159e1565b60405180910390a360028501541580612b1557506002840154155b15612b5a576002808501549086015460009110612b3f5760038701546001600160a01b0316612b4e565b60028701546001600160a01b03165b90506110c98a82612e1e565b600b8601805461ffff19169055600c8601805460019190600090612b7f9084906159ce565b9091555050505050505050505050565b60008183604051602001612ba49291906155e5565b60408051808303601f19018152908290528051602090910120600c5462d8301960e41b8352600483018790529092506000916001600160a01b0390911690630d83019090602401600060405180830381865afa158015612c08573d6000803e3d6000fd5b505050506040513d6000823e601f3d908101601f19168201604052612c309190810190615a11565b60008381526009602090815260408083206001600160a01b038916808552908352928190208981556001810180546001600160a01b031916909417909355835160028401558184015160038401558301516004830155606083015160058301556080830151600683015560a083015180519394509192612cb69260078501920190614ecf565b50612cd9604051806060016040528060228152602001615f5f60229139866138a9565b612d09604051806040016040528060078152602001662432b0b63a341d60c91b81525082600201600001546138ee565b612d376040518060400160405280600581526020016426b0b7309d60d91b81525082600201600301546138ee565b600084815260056020526040902060028101546001600160a01b0390811690871603612d76576002820154600d8201556005820154600f820155612d8b565b6002820154600e820155600582015460108201555b7f3f6e56e1bcf6454c5e7f32cffe9f99778fd7cf50a886af17d91dcebb8e35250f858784600001548560010160009054906101000a90046001600160a01b031686600201600001548760020160010154886002016002015489600201600301548a600201600401548b600701604051612e0d9a99989796959493929190615b15565b60405180910390a150505050505050565b6000828152600560205260409020600a8101805460ff196001600160a01b03851661010002166001600160a81b0319909116176002179055612e5f83613933565b600281015460038201546001600160a01b03918216600081815260086020526040808220829055928416808252928120819055909285168314612ea25782612ea4565b815b90506000836001600160a01b0316866001600160a01b031614612ec8576001612ecb565b60005b60ff1690506000846001600160a01b0316836001600160a01b031614612ef2576001612ef5565b60005b60ff169050612f06888784846139f0565b6000600960008a88604051602001612f1f9291906155e5565b6040516020818303038152906040528051906020012081526020019081526020016000206000876001600160a01b03166001600160a01b031681526020019081526020016000206002016000015490506000600960008b88604051602001612f889291906155e5565b60408051601f19818403018152918152815160209283012083528282019390935290820160009081206001600160a01b038a168252909152908120600201549150821580612fd4575081155b9050801561311457600c546001600160a01b0316636a0558a660048b01876002811061300257613002615605565b01546040516001600160e01b031960e084901b168152600481019190915260646024820152604401600060405180830381600087803b15801561304457600080fd5b505af1158015613058573d6000803e3d6000fd5b5050600c546001600160a01b03169150636a0558a6905060048b01866002811061308457613084615605565b01546040516001600160e01b031960e084901b1681526004810191909152601e6024820152604401600060405180830381600087803b1580156130c657600080fd5b505af11580156130da573d6000803e3d6000fd5b50505050606489600d01600e0186600281106130f8576130f8615605565b0155601e601b8a01856002811061311157613111615605565b01555b856001600160a01b03168a6001600160a01b03168c7f0baf086d5a49a7d9df72185aa0488cadd724e398bb5e99c615ee24c699deba918c60010160405161315b9190615bb2565b60405180910390a45050505050505050505050565b80516a636f6e736f6c652e6c6f67602083016000808483855afa5050505050565b60008083836040516020016131a79291906155e5565b60408051601f1981840301815291815281516020928301206000908152600983528181206001600160a01b0387168252909252902091505092915050565b600080600080600080600080600061321d600e60009054906101000a90046001600160a01b03168c8c613c3e9092919063ffffffff16565b9750975097509750975097509750975060005b86518110156133b1578780156132ac57506040516339ba3ab760e11b60208201526024016040516020818303038152906040528051906020012085828151811061327c5761327c615605565b60200260200101516040516020016132949190615bc5565b60405160208183030381529060405280519060200120145b1561339f5760018b015487516001600160a01b03909116908e907f42cc68fd968d66bad9f556a6420453409337a500953cec681ce375d56c143d8e908a90859081106132fa576132fa615605565b602002602001015189858151811061331457613314615605565b602002602001015189868151811061332e5761332e615605565b602002602001015189878151811061334857613348615605565b602002602001015189888151811061336257613362615605565b602002602001015189898151811061337c5761337c615605565b602002602001015160405161339696959493929190615be1565b60405180910390a35b806133a9816156b2565b915050613230565b50969b9a5050505050505050505050565b60068301546000190161340b5760038260020160030160008282546133e791906159ce565b909155506003905060198401600001600082825461340591906159ce565b90915550505b60078301546000190161345457600381600201600301600082825461343091906159ce565b909155506003905060198401600101600082825461344e91906159ce565b90915550505b505050565b613461614d21565b613469614d21565b613471614d21565b613479614d21565b600687015460078801548115801561348f575080155b156134a85761349f898989614520565b94509250613561565b811580156134b65750600181145b156134c65761349f898989614651565b6001821480156134d4575080155b156134e45761349f898989614764565b811580156134f25750600381145b156135025761349f89898961486f565b600382148015613510575080155b156135205761349f8989896148f9565b8115801561352e5750600281145b1561353e5761349f89898961486f565b60028214801561354c575080155b156135615761355c8989896148f9565b945092505b50909791965090945050505050565b600f5460405163681377c960e01b815260048101859052600091829182916001600160a01b03169063681377c99060240161014060405180830381865afa1580156135bf573d6000803e3d6000fd5b505050506040513d601f19601f820116820180604052508101906135e39190615c3a565b600d5460c0820151604051635ec407d760e11b81529293506000926001600160a01b039092169163bd880fae916136209160040190815260200190565b600060405180830381865afa15801561363d573d6000803e3d6000fd5b505050506040513d6000823e601f3d908101601f191682016040526136659190810190615d14565b905060006103e882604001518a600c015461368091906158da565b61368a9190615907565b9050600186036136b857600487015481116136a65760006136b5565b60048701546136b59082615631565b90505b6000811180156136cb5750600287015481105b156136f257808760020160000160008282546136e79190615631565b909155506136fa9050565b600060028801555b8860010160009054906101000a90046001600160a01b03166001600160a01b03168b7f1ecb56d20fc766331c458aed06ae76e03aa301e223d100edbc01a21eaf7ffa228c8660c001518660200151866040516137599493929190615db7565b60405180910390a3606082015160058a01805460009061377a908490615631565b909155505060e08301511561382057600e5460e0840151604051631187bd5160e01b81526004810191909152613820918d918d916001600160a01b031690631187bd5190602401600060405180830381865afa1580156137de573d6000803e3d6000fd5b505050506040513d6000823e601f3d908101601f191682016040526138069190810190615df7565b604001516138145789613816565b8b5b8660e0015161498c565b60018701546001600160a01b0316945092505050965096945050505050565b8451156138575760018401546001600160a01b031681525b6020850151156138755760018301546001600160a01b031660208201525b8451825183906138869083906159ce565b905250602080860151908301805161389f9083906159ce565b9052505050505050565b6120de82826040516024016138bf929190615ee1565b60408051601f198184030181529190526020810180516001600160e01b031663319af33360e01b179052613170565b6120de8282604051602401613904929190615f0b565b60408051601f198184030181529190526020810180516001600160e01b0316632d839cb360e21b179052613170565b60008181526007602052604081205460065490919061395490600190615631565b905060006006828154811061396b5761396b615605565b90600052602060002001549050806006848154811061398c5761398c615605565b600091825260208083209091019290925582815260079091526040902083905560068054806139bd576139bd615644565b60019003818190600052602060002001600090559055600760008581526020019081526020016000206000905550505050565b6000836002018360028110613a0757613a07615605565b01546001600160a01b03169050600060028086019084908110613a2c57613a2c615605565b01546040516001600160a01b0390911691506000906009908290613a56908a9087906020016155e5565b60408051601f19818403018152918152815160209283012083528282019390935290820160009081206001600160a01b03871682529091522060050154600f87018660028110613aa857613aa8615605565b0154613ab49190615631565b90506000600960008985604051602001613acf9291906155e5565b60408051601f19818403018152918152815160209283012083528282019390935290820160009081206001600160a01b03871682529091522060050154600f88018660028110613b2157613b21615605565b0154613b2d9190615631565b600c549091506001600160a01b03166345d5007e600489018860028110613b5657613b56615605565b0154846040518363ffffffff1660e01b8152600401613b7f929190918252602082015260400190565b600060405180830381600087803b158015613b9957600080fd5b505af1158015613bad573d6000803e3d6000fd5b5050600c546001600160a01b031691506345d5007e9050600489018760028110613bd957613bd9615605565b0154836040518363ffffffff1660e01b8152600401613c02929190918252602082015260400190565b600060405180830381600087803b158015613c1c57600080fd5b505af1158015613c30573d6000803e3d6000fd5b505050505050505050505050565b60088301546000908190606090819081908190819081906001600160401b03811115613c6c57613c6c615386565b604051908082528060200260200182016040528015613c95578160200160208202803683370190505b5060088c01549096506001600160401b03811115613cb557613cb5615386565b604051908082528060200260200182016040528015613ce857816020015b6060815260200190600190039081613cd35790505b5060088c01549095506001600160401b03811115613d0857613d08615386565b604051908082528060200260200182016040528015613d3b57816020015b6060815260200190600190039081613d265790505b5060088c01549094506001600160401b03811115613d5b57613d5b615386565b604051908082528060200260200182016040528015613d84578160200160208202803683370190505b5060088c01549093506001600160401b03811115613da457613da4615386565b604051908082528060200260200182016040528015613dcd578160200160208202803683370190505b5060088c01549092506001600160401b03811115613ded57613ded615386565b604051908082528060200260200182016040528015613e16578160200160208202803683370190505b50905060005b60088c01548110156145005760008c6008018281548110613e3f57613e3f615605565b6000918252602082200154604051631187bd5160e01b8152600481018290529092506001600160a01b038e1690631187bd5190602401600060405180830381865afa158015613e92573d6000803e3d6000fd5b505050506040513d6000823e601f3d908101601f19168201604052613eba9190810190615df7565b90508061014001518015613edd5750600082815260098f01602052604090205415155b15613f4157600199506040518060400160405280600481526020016339ba3ab760e11b815250878481518110613f1557613f15615605565b60200260200101819052506001868481518110613f3457613f34615605565b6020026020010181815250505b600082815260098f0160205260408120805460019290613f62908490615631565b9091555050608081015115613fe557613f808e838360800151614a72565b6040518060400160405280600b81526020016a185d1d1858dad09bdbdcdd60aa1b815250878481518110613fb657613fb6615605565b60200260200101819052508060800151868481518110613fd857613fd8615605565b6020026020010181815250505b60a08101511561406757613ffe8e838360a00151614ab9565b6040518060400160405280600f81526020016e30ba3a30b1b5a932b23ab1ba34b7b760891b81525087848151811061403857614038615605565b60200260200101819052508060a0015186848151811061405a5761405a615605565b6020026020010181815250505b60c0810151156140e6576140808e838360c00151614b18565b6040518060400160405280600c81526020016b191959995b9cd9509bdbdcdd60a21b8152508784815181106140b7576140b7615605565b60200260200101819052508060c001518684815181106140d9576140d9615605565b6020026020010181815250505b60e081015115614169576140ff8e838360e00151614b5f565b6040518060400160405280601081526020016f3232b332b739b2a932b23ab1ba34b7b760811b81525087848151811061413a5761413a615605565b60200260200101819052508060e0015186848151811061415c5761415c615605565b6020026020010181815250505b610100810151156141e9576141838e826101000151614bbe565b6040518060400160405280600b81526020016a3432b0b62832b92a3ab93760a91b8152508784815181106141b9576141b9615605565b60200260200101819052508061010001518684815181106141dc576141dc615605565b6020026020010181815250505b610120810151156142a05760008e60020160000154905061420f8f836101200151614bde565b60028f01548111156142375760028f015461422a9082615631565b614234908d6159ce565b9b505b6040518060400160405280600d81526020016c3230b6b0b3b2a832b92a3ab93760991b81525088858151811061426f5761426f615605565b602002602001018190525081610120015187858151811061429257614292615605565b602002602001018181525050505b600082815260098f0160205260408120549003614457576080810151156142f857608081015160038f0180546000906142da908490615631565b90915550506000828152600a8f0160205260409020805460ff191690555b60a0810151156143395760a081015160038f01805460009061431b9084906159ce565b90915550506000828152600a8f0160205260409020805460ff191690555b60c08101511561437a5760c081015160048f01805460009061435c908490615631565b90915550506000828152600a8f0160205260409020805460ff191690555b60e0810151156143bb5760e081015160048f01805460009061439d9084906159ce565b90915550506000828152600a8f0160205260409020805460ff191690555b60088e0154600110156144175760088e0180546143da90600190615631565b815481106143ea576143ea615605565b90600052602060002001548e600801848154811061440a5761440a615605565b6000918252602090912001555b8d60080180548061442a5761442a615644565b600190038181906000526020600020016000905590556000831115614457578261445381615f1e565b9350505b8189848151811061446a5761446a615605565b602002602001018181525050806020015188848151811061448d5761448d615605565b60200260200101819052508b8584815181106144ab576144ab615605565b6020026020010181815250508d6009016000838152602001908152602001600020548484815181106144df576144df615605565b602002602001018181525050505080806144f8906156b2565b915050613e1c565b50600b8b01805488151560ff199091161790559397509397509397509397565b614528614d21565b614530614d21565b60006103e885600c0154866002016001015461454c91906158da565b6145569190615907565b905060006103e885600c0154866002016001015461457491906158da565b61457e9190615907565b9050818560020160000154116145955760006145a5565b60028501546145a5908390615631565b60028087019190915586015481106145be5760006145ce565b60028601546145ce908290615631565b6002870155600586018054600391906000906145eb908490615631565b909155505060058501805460039190600090614608908490615631565b909155505060408051808201825260028901546001600160a01b0390811682526003909901549098166020808a0191909152815180830190925292815291820152959350505050565b614659614d21565b614661614d21565b6040518060400160405280600081526020016000815250915060006103e885600c0154866002016001015461469691906158da565b6146a09190615907565b905080846002016002015410156147225760048401546000906146c39083615631565b9050808560020160000154116146da5760006146ea565b60028501546146ea908290615631565b600286015560038701546001600160a01b03168352808452600485015460168801805460009061471b9084906159ce565b9091555050505b8060158701600101600082825461473991906159ce565b909155505060058501805460039190600090614756908490615631565b909155505050935093915050565b61476c614d21565b614774614d21565b6040518060400160405280600081526020016000815250915060006103e884600c015485600201600101546147a991906158da565b6147b39190615907565b9050808560020160020154101561483b5760048501546000906147d69083615631565b9050808660020160000154116147ed5760006147fd565b60028601546147fd908290615631565b6002878101919091558701546001600160a01b031683526020840181905260048601546015880180546000906148349084906159ce565b9091555050505b8060158701600001600082825461485291906159ce565b909155505060058401805460039190600090614756908490615631565b614877614d21565b61487f614d21565b60006103e885600c0154866002016001015461489b91906158da565b6148a59190615907565b9050808460020160000154116148bc5760006148cc565b60028401546148cc908290615631565b60028501556003808701546001600160a01b03168352818452600586018054600090614756908490615631565b614901614d21565b614909614d21565b60006103e884600c0154856002016001015461492591906158da565b61492f9190615907565b905080856002016000015411614946576000614956565b6002850154614956908290615631565b6002868101919091558601546001600160a01b031682526020830181905260058401805460039190600090614756908490615631565b600e54604051631187bd5160e01b8152600481018390526000916001600160a01b031690631187bd5190602401600060405180830381865afa1580156149d6573d6000803e3d6000fd5b505050506040513d6000823e601f3d908101601f191682016040526149fe9190810190615df7565b80516060820151919250614a1491859190614c50565b6001830154602082015160608301516040516001600160a01b039093169288927ff8c9f3444c314390f17c07435638f20d537b994d7767fd8e9a2bd203791d3ef792614a63928a929190615f35565b60405180910390a35050505050565b6000828152600a8401602052604090205460ff16613454576000828152600a840160205260408120805460ff1916600117905560038401805483929061344e9084906159ce565b6000828152600a8401602052604090205460ff16613454576000828152600a840160205260409020805460ff1916600117905560038301548110614afe576000614b0e565b6003830154614b0e908290615631565b6003840155505050565b6000828152600a8401602052604090205460ff16613454576000828152600a840160205260408120805460ff1916600117905560048401805483929061344e9084906159ce565b6000828152600a8401602052604090205460ff16613454576000828152600a840160205260409020805460ff1916600117905560048301548110614ba4576000614bb4565b6004830154614bb4908290615631565b6004840155505050565b80826002016000016000828254614bd591906159ce565b90915550505050565b6002820154614bec90614cdc565b614c1e6040518060400160405280601081526020016f64616d616765206f7665722074696d6560801b815250826138ee565b60028201548110614c30576000614c40565b6002820154614c40908290615631565b600283018190556120de90614cdc565b60005b6008840154811015614cac5782846008018281548110614c7557614c75615605565b906000526020600020015403614c9a5750600091825260099092016020526040902055565b80614ca4816156b2565b915050614c53565b50600883018054600181018255600091825260208083209091018490559281526009909301909152604090912055565b61056381604051602401614cf291815260200190565b60408051601f198184030181529190526020810180516001600160e01b031663f82c50f160e01b179052613170565b60405180604001604052806002906020820280368337509192915050565b6040518061016001604052806000815260200160608152602001614d61614d21565b8152602001614d6e614d21565b8152602001614d7b614d21565b8152602001614d88614d21565b81526020016000815260006020820152604001614da3614d21565b815260200160008152602001614db7614f09565b905290565b8260028101928215614e04579160200282015b82811115614e0457825182546001600160a01b0319166001600160a01b03909116178255602090920191600190910190614dcf565b50614e10929150614f85565b5090565b8260028101928215614e04579160200282015b82811115614e04578251825591602001919060010190614e27565b600183019183908215614e045791602002820160005b83821115614e9557835183826101000a81548160ff0219169083151502179055509260200192600101602081600001049283019260010302614e58565b8015614ec25782816101000a81549060ff0219169055600101602081600001049283019260010302614e95565b5050614e10929150614f85565b828054828255906000526020600020908101928215614e045791602002820182811115614e04578251825591602001919060010190614e27565b604051806101200160405280614f1d614d21565b8152602001614f2a614d21565b8152602001614f37614d21565b8152602001614f44614d21565b8152602001614f51614d21565b8152602001614f5e614d21565b8152602001614f6b614d21565b8152602001614f78614d21565b8152602001614db7614d21565b5b80821115614e105760008155600101614f86565b600060208284031215614fac57600080fd5b5035919050565b6001600160a01b038116811461056357600080fd5b600060208284031215614fda57600080fd5b8135614fe581614fb3565b9392505050565b600081518084526020808501945080840160005b8381101561501c57815187529582019590820190600101615000565b509495945050505050565b602081526000614fe56020830184614fec565b8060005b60028110156150665781516001600160a01b031684526020938401939091019060010161503e565b50505050565b6040810161068d828461503a565b6000806040838503121561508d57600080fd5b82359150602083013561509f81614fb3565b809150509250929050565b60005b838110156150c55781810151838201526020016150ad565b50506000910152565b600081518084526150e68160208601602086016150aa565b601f01601f19169290920160200192915050565b634e487b7160e01b600052602160045260246000fd5b60038110615120576151206150fa565b9052565b8060005b6002811015615066578151845260209384019390910190600101615128565b615152828251615124565b60208101516151646040840182615124565b5060408101516151776080840182615124565b50606081015161518a60c0840182615124565b50608081015161010061519f81850183615124565b60a083015191506151b4610140850183615124565b60c083015191506151c9610180850183615124565b60e083015191506151de6101c0850183615124565b8201519050613454610200840182615124565b60006102e088835280602084015261520b818401896150ce565b91505061521b6040830187615110565b6001600160a01b03851660608301526080820184905261523e60a0830184615147565b979650505050505050565b60008060006060848603121561525e57600080fd5b8335925060208401356004811061527457600080fd5b929592945050506040919091013590565b8060005b60028110156150665781511515845260209384019390910190600101615289565b60208152815160208201526000602083015161042060408401526152d26104408401826150ce565b905060408401516152e6606085018261503a565b5060608401516152f960a0850182615124565b50608084015161530c60e0850182615124565b5060a084015161012061532181860183615124565b60c08601519150615336610160860183615110565b60e08601516001600160a01b031661018086015261010086015191506153606101a0860183615285565b8501516101e08501525061014084015161537e610200850182615147565b509392505050565b634e487b7160e01b600052604160045260246000fd5b60405160c081016001600160401b03811182821017156153be576153be615386565b60405290565b60405161014081016001600160401b03811182821017156153be576153be615386565b60405161016081016001600160401b03811182821017156153be576153be615386565b604051601f8201601f191681016001600160401b038111828210171561543257615432615386565b604052919050565b60006001600160401b0382111561545357615453615386565b50601f01601f191660200190565b6000806040838503121561547457600080fd5b82356001600160401b0381111561548a57600080fd5b8301601f8101851361549b57600080fd5b80356154ae6154a98261543a565b61540a565b8181528660208385010111156154c357600080fd5b8160208401602083013760006020928201830152969401359450505050565b600080604083850312156154f557600080fd5b50508035926020909101359150565b6040810161068d8284615124565b6040815260006155256040830185614fec565b82810360208401526155378185614fec565b95945050505050565b60006020808352610120830184518285015260018060a01b03828601511660408501526040850151606085015260608501516080850152608085015160a085015260a085015160c085015260c085015160e085015260e0850151610100808187015250818151808452610140870191508483019350600092505b808310156155da57835182529284019260019290920191908401906155ba565b509695505050505050565b91825260601b6bffffffffffffffffffffffff1916602082015260340190565b634e487b7160e01b600052603260045260246000fd5b634e487b7160e01b600052601160045260246000fd5b8181038181111561068d5761068d61561b565b634e487b7160e01b600052603160045260246000fd5b600181811c9082168061566e57607f821691505b60208210810361568e57634e487b7160e01b600052602260045260246000fd5b50919050565b60408101600484106156a8576156a86150fa565b9281526020015290565b6000600182016156c4576156c461561b565b5060010190565b6000602082840312156156dd57600080fd5b8151614fe581614fb3565b6020808252602e908201527f506c6179657220616c72656164792070617274696369706174696e6720696e2060408201526d616e6f7468657220626174746c6560901b606082015260800190565b601f82111561345457600081815260208120601f850160051c8101602086101561575d5750805b601f850160051c820191505b81811015611b3a57828155600101615769565b81516001600160401b0381111561579557615795615386565b6157a9816157a3845461565a565b84615736565b602080601f8311600181146157de57600084156157c65750858301515b600019600386901b1c1916600185901b178555611b3a565b600085815260208120601f198616915b8281101561580d578886015182559484019460019091019084016157ee565b508582101561582b5787850151600019600388901b60f8161c191681555b5050505050600190811b01905550565b805169ffffffffffffffffffff8116811461585557600080fd5b919050565b600080600080600060a0868803121561587257600080fd5b61587b8661583b565b945060208601519350604086015192506060860151915061589e6080870161583b565b90509295509295909350565b80820260008212600160ff1b841416156158c6576158c661561b565b818105831482151761068d5761068d61561b565b808202811582820484141761068d5761068d61561b565b634e487b7160e01b600052601260045260246000fd5b600082615916576159166158f1565b500490565b600081546159288161565a565b808552602060018381168015615945576001811461595f5761598d565b60ff1985168884015283151560051b88018301955061598d565b866000528260002060005b858110156159855781548a820186015290830190840161596a565b890184019650505b505050505092915050565b6040815260006159ab604083018561591b565b90508260208301529392505050565b6000826159c9576159c96158f1565b500690565b8082018082111561068d5761068d61561b565b60c081016159ef828661503a565b6159fc6040830185615124565b615a096080830184615124565b949350505050565b60006020808385031215615a2457600080fd5b82516001600160401b0380821115615a3b57600080fd5b9084019060c08287031215615a4f57600080fd5b615a5761539c565b82518152838301518482015260408301516040820152606083015160608201526080830151608082015260a083015182811115615a9357600080fd5b80840193505086601f840112615aa857600080fd5b825182811115615aba57615aba615386565b8060051b9250615acb85840161540a565b8181529284018501928581019089851115615ae557600080fd5b948601945b84861015615b0357855182529486019490860190615aea565b60a08401525090979650505050505050565b60006101408083018d8452602060018060a01b03808f16828701528d6040870152808d166060870152508a60808601528960a08601528860c08601528760e086015286610100860152826101208601528192508554808352610160860193508660005281600020925060005b81811015615b9d57835485529382019360019384019301615b81565b50929f9e505050505050505050505050505050565b602081526000614fe5602083018461591b565b60008251615bd78184602087016150aa565b9190910192915050565b86815260c060208201526000615bfa60c08301886150ce565b8281036040840152615c0c81886150ce565b60608401969096525050608081019290925260a0909101529392505050565b80516005811061585557600080fd5b60006101408284031215615c4d57600080fd5b615c556153c4565b8251815260208301516020820152615c6f60408401615c2b565b6040820152615c8060608401615c2b565b60608201526080830151608082015260a083015160a082015260c083015160c082015260e083015160e08201526101008084015181830152506101208084015181830152508091505092915050565b600082601f830112615ce057600080fd5b8151615cee6154a98261543a565b818152846020838601011115615d0357600080fd5b615a098260208301602087016150aa565b600060208284031215615d2657600080fd5b81516001600160401b0380821115615d3d57600080fd5b9083019060808286031215615d5157600080fd5b604051608081018181108382111715615d6c57615d6c615386565b60405282518152602083015182811115615d8557600080fd5b615d9187828601615ccf565b602083015250604083015160408201526060830151606082015280935050505092915050565b848152836020820152608060408201526000615dd660808301856150ce565b905082606083015295945050505050565b8051801515811461585557600080fd5b600060208284031215615e0957600080fd5b81516001600160401b0380821115615e2057600080fd5b908301906101608286031215615e3557600080fd5b615e3d6153e7565b82518152602083015182811115615e5357600080fd5b615e5f87828601615ccf565b602083015250615e7160408401615de7565b6040820152606083015160608201526080830151608082015260a083015160a082015260c083015160c082015260e083015160e082015261010091508183015182820152610120915081830151828201526101409150615ed2828401615de7565b91810191909152949350505050565b604081526000615ef460408301856150ce565b905060018060a01b03831660208301529392505050565b6040815260006159ab60408301856150ce565b600081615f2d57615f2d61561b565b506000190190565b838152606060208201526000615f4e60608301856150ce565b905082604083015294935050505056fe4368617261637465722070726f7879206372656174656420666f7220706c61796572a2646970667358221220f8fec961abb72025fb8c4b2c0453c075499b248f3d617ffc5c9fc48abc6bad6964736f6c63430008110033",
  "linkReferences": {},
  "deployedLinkReferences": {}
}