{
  "_format": "hh-sol-artifact-1",
  "contractName": "Battle",
  "sourceName": "contracts/Battle.sol",
  "abi": [
    {
      "inputs": [
        {
          "internalType": "address",
          "name": "_characterContractAddress",
          "type": "address"
        },
        {
          "internalType": "address",
          "name": "_battleSkillsContractAddress",
          "type": "address"
        }
      ],
      "stateMutability": "nonpayable",
      "type": "constructor"
    },
    {
      "anonymous": false,
      "inputs": [
        {
          "indexed": true,
          "internalType": "uint256",
          "name": "battleId",
          "type": "uint256"
        },
        {
          "indexed": true,
          "internalType": "address",
          "name": "player",
          "type": "address"
        }
      ],
      "name": "BattleCancelled",
      "type": "event"
    },
    {
      "anonymous": false,
      "inputs": [
        {
          "indexed": false,
          "internalType": "uint256",
          "name": "battleId",
          "type": "uint256"
        },
        {
          "indexed": false,
          "internalType": "address",
          "name": "creator",
          "type": "address"
        },
        {
          "indexed": false,
          "internalType": "uint256",
          "name": "characterId",
          "type": "uint256"
        }
      ],
      "name": "BattleCreated",
      "type": "event"
    },
    {
      "anonymous": false,
      "inputs": [
        {
          "indexed": false,
          "internalType": "uint256",
          "name": "battleId",
          "type": "uint256"
        },
        {
          "indexed": false,
          "internalType": "address",
          "name": "winner",
          "type": "address"
        }
      ],
      "name": "BattleEnded",
      "type": "event"
    },
    {
      "anonymous": false,
      "inputs": [
        {
          "indexed": false,
          "internalType": "uint256",
          "name": "battleId",
          "type": "uint256"
        },
        {
          "indexed": false,
          "internalType": "address",
          "name": "joiner",
          "type": "address"
        },
        {
          "indexed": false,
          "internalType": "uint256",
          "name": "characterId",
          "type": "uint256"
        }
      ],
      "name": "BattleJoined",
      "type": "event"
    },
    {
      "anonymous": false,
      "inputs": [
        {
          "indexed": false,
          "internalType": "uint256",
          "name": "battleId",
          "type": "uint256"
        },
        {
          "indexed": false,
          "internalType": "address",
          "name": "player1",
          "type": "address"
        },
        {
          "indexed": false,
          "internalType": "uint256",
          "name": "health1",
          "type": "uint256"
        },
        {
          "indexed": false,
          "internalType": "address",
          "name": "player2",
          "type": "address"
        },
        {
          "indexed": false,
          "internalType": "uint256",
          "name": "health2",
          "type": "uint256"
        }
      ],
      "name": "HealthUpdated",
      "type": "event"
    },
    {
      "anonymous": false,
      "inputs": [
        {
          "indexed": true,
          "internalType": "uint256",
          "name": "battleId",
          "type": "uint256"
        },
        {
          "indexed": true,
          "internalType": "address",
          "name": "player",
          "type": "address"
        },
        {
          "indexed": false,
          "internalType": "enum Battle.Move",
          "name": "move",
          "type": "uint8"
        }
      ],
      "name": "MoveSubmitted",
      "type": "event"
    },
    {
      "anonymous": false,
      "inputs": [
        {
          "indexed": false,
          "internalType": "address[2]",
          "name": "damagedPlayers",
          "type": "address[2]"
        }
      ],
      "name": "RoundEnded",
      "type": "event"
    },
    {
      "inputs": [
        {
          "internalType": "uint256",
          "name": "",
          "type": "uint256"
        }
      ],
      "name": "activeBattlesId",
      "outputs": [
        {
          "internalType": "uint256",
          "name": "",
          "type": "uint256"
        }
      ],
      "stateMutability": "view",
      "type": "function"
    },
    {
      "inputs": [],
      "name": "battleCounter",
      "outputs": [
        {
          "internalType": "uint256",
          "name": "",
          "type": "uint256"
        }
      ],
      "stateMutability": "view",
      "type": "function"
    },
    {
      "inputs": [
        {
          "internalType": "uint256",
          "name": "",
          "type": "uint256"
        }
      ],
      "name": "battles",
      "outputs": [
        {
          "internalType": "uint256",
          "name": "battleId",
          "type": "uint256"
        },
        {
          "internalType": "string",
          "name": "name",
          "type": "string"
        },
        {
          "internalType": "enum Battle.BattleStatus",
          "name": "battleStatus",
          "type": "uint8"
        },
        {
          "internalType": "address",
          "name": "winner",
          "type": "address"
        }
      ],
      "stateMutability": "view",
      "type": "function"
    },
    {
      "inputs": [
        {
          "internalType": "uint256",
          "name": "_battleId",
          "type": "uint256"
        }
      ],
      "name": "cancelBattle",
      "outputs": [],
      "stateMutability": "nonpayable",
      "type": "function"
    },
    {
      "inputs": [
        {
          "internalType": "string",
          "name": "_name",
          "type": "string"
        },
        {
          "internalType": "uint256",
          "name": "_characterTokenId",
          "type": "uint256"
        }
      ],
      "name": "createBattle",
      "outputs": [],
      "stateMutability": "nonpayable",
      "type": "function"
    },
    {
      "inputs": [],
      "name": "getActiveBattlesCount",
      "outputs": [
        {
          "internalType": "uint256",
          "name": "",
          "type": "uint256"
        }
      ],
      "stateMutability": "view",
      "type": "function"
    },
    {
      "inputs": [],
      "name": "getActiveBattlesId",
      "outputs": [
        {
          "internalType": "uint256[]",
          "name": "",
          "type": "uint256[]"
        }
      ],
      "stateMutability": "view",
      "type": "function"
    },
    {
      "inputs": [
        {
          "internalType": "uint256",
          "name": "_battleId",
          "type": "uint256"
        }
      ],
      "name": "getBattle",
      "outputs": [
        {
          "components": [
            {
              "internalType": "uint256",
              "name": "battleId",
              "type": "uint256"
            },
            {
              "internalType": "string",
              "name": "name",
              "type": "string"
            },
            {
              "internalType": "address[2]",
              "name": "players",
              "type": "address[2]"
            },
            {
              "internalType": "uint256[2]",
              "name": "characterIds",
              "type": "uint256[2]"
            },
            {
              "internalType": "uint256[2]",
              "name": "moves",
              "type": "uint256[2]"
            },
            {
              "internalType": "enum Battle.BattleStatus",
              "name": "battleStatus",
              "type": "uint8"
            },
            {
              "internalType": "address",
              "name": "winner",
              "type": "address"
            },
            {
              "internalType": "uint256[2]",
              "name": "initialHealth",
              "type": "uint256[2]"
            },
            {
              "internalType": "bool[2]",
              "name": "moveSubmitted",
              "type": "bool[2]"
            }
          ],
          "internalType": "struct Battle.BattleData",
          "name": "",
          "type": "tuple"
        }
      ],
      "stateMutability": "view",
      "type": "function"
    },
    {
      "inputs": [
        {
          "internalType": "uint256",
          "name": "battleId",
          "type": "uint256"
        }
      ],
      "name": "getBattleMoves",
      "outputs": [
        {
          "internalType": "uint256[2]",
          "name": "",
          "type": "uint256[2]"
        }
      ],
      "stateMutability": "view",
      "type": "function"
    },
    {
      "inputs": [
        {
          "internalType": "uint256",
          "name": "battleId",
          "type": "uint256"
        }
      ],
      "name": "getBattleParticipants",
      "outputs": [
        {
          "internalType": "address[2]",
          "name": "",
          "type": "address[2]"
        }
      ],
      "stateMutability": "view",
      "type": "function"
    },
    {
      "inputs": [
        {
          "internalType": "uint256",
          "name": "battleId",
          "type": "uint256"
        },
        {
          "internalType": "address",
          "name": "player",
          "type": "address"
        }
      ],
      "name": "getCharacterHealth",
      "outputs": [
        {
          "internalType": "uint256",
          "name": "",
          "type": "uint256"
        }
      ],
      "stateMutability": "view",
      "type": "function"
    },
    {
      "inputs": [
        {
          "internalType": "uint256",
          "name": "battleId",
          "type": "uint256"
        },
        {
          "internalType": "address",
          "name": "player",
          "type": "address"
        }
      ],
      "name": "getCharacterProxy",
      "outputs": [
        {
          "components": [
            {
              "internalType": "uint256",
              "name": "id",
              "type": "uint256"
            },
            {
              "internalType": "address",
              "name": "owner",
              "type": "address"
            },
            {
              "internalType": "uint256",
              "name": "health",
              "type": "uint256"
            },
            {
              "internalType": "uint256",
              "name": "attack",
              "type": "uint256"
            },
            {
              "internalType": "uint256",
              "name": "defense",
              "type": "uint256"
            },
            {
              "internalType": "uint256",
              "name": "mana",
              "type": "uint256"
            },
            {
              "internalType": "uint256",
              "name": "typeId",
              "type": "uint256"
            }
          ],
          "internalType": "struct Battle.CharacterProxy",
          "name": "",
          "type": "tuple"
        }
      ],
      "stateMutability": "view",
      "type": "function"
    },
    {
      "inputs": [
        {
          "internalType": "uint256",
          "name": "battleId",
          "type": "uint256"
        },
        {
          "internalType": "uint256",
          "name": "characterTokenId",
          "type": "uint256"
        }
      ],
      "name": "joinBattle",
      "outputs": [],
      "stateMutability": "nonpayable",
      "type": "function"
    },
    {
      "inputs": [
        {
          "internalType": "address",
          "name": "",
          "type": "address"
        }
      ],
      "name": "playerOngoingBattle",
      "outputs": [
        {
          "internalType": "uint256",
          "name": "",
          "type": "uint256"
        }
      ],
      "stateMutability": "view",
      "type": "function"
    },
    {
      "inputs": [
        {
          "internalType": "uint256",
          "name": "_battleId",
          "type": "uint256"
        }
      ],
      "name": "quitBattle",
      "outputs": [],
      "stateMutability": "nonpayable",
      "type": "function"
    },
    {
      "inputs": [
        {
          "internalType": "uint256",
          "name": "battleId",
          "type": "uint256"
        },
        {
          "internalType": "enum Battle.Move",
          "name": "move",
          "type": "uint8"
        }
      ],
      "name": "submitMove",
      "outputs": [],
      "stateMutability": "nonpayable",
      "type": "function"
    }
  ],
  "bytecode": "0x6080346200009657601f62002d8238819003918201601f19168301916001600160401b038311848410176200009b57808492604094855283398101031262000096576200005a60206200005283620000b1565b9201620000b1565b600680546001600160a01b039384166001600160a01b03199182161790915560078054929093169116179055604051612cbb9081620000c78239f35b600080fd5b634e487b7160e01b600052604160045260246000fd5b51906001600160a01b0382168203620000965756fe60806040526004361015610013575b600080fd5b60003560e01c8063068a1e4914610153578063239752ab1461014a57806332ccca0e1461014157806333056109146101385780634188de5a1461012f5780634c4c447e14610126578063606d2e961461011d5780636dd0ce7a146101145780636efe60c11461010b5780638bdb3b2f14610102578063a10d80de146100f9578063a9b9be3f146100f0578063b39ab4c5146100e7578063ba7b5596146100de578063dc55da6f146100d55763e44dba4f146100cd57600080fd5b61000e610d15565b5061000e610c14565b5061000e610b9c565b5061000e610b02565b5061000e610ae3565b5061000e610a0b565b5061000e610992565b5061000e610910565b5061000e610859565b5061000e6106ae565b5061000e610349565b5061000e610316565b5061000e610292565b5061000e6101f2565b5061000e6101b2565b503461000e57600036600319011261000e576020600154604051908152f35b50634e487b7160e01b600052603260045260246000fd5b6001548110156101a5575b600160005260206000200190600090565b6101ad610172565b610194565b503461000e57602036600319011261000e5760043560015481101561000e576001600052600080516020612c668339815191520154604051908152602090f35b503461000e5760008060031936011261028f5760405160018054808352818452602080840194909390918590600080516020612c6683398151915290845b81811061027c5750505081610246910382610572565b6040519380850191818652518092526040850195925b8281106102695785870386f35b835187529581019592810192840161025c565b8254845292870192918601918601610230565b80fd5b503461000e5760208060031936011261000e57604080516102b28161053c565b3690376004356000526000815260026102d0816040600020016128a2565b6040519290600090845b8483106102e657604086f35b81516001600160a01b03168152600192909201919083019083016102da565b6001600160a01b0381160361000e57565b503461000e57604036600319011261000e57602061034160243561033981610305565b600435612b70565b604051908152f35b503461000e57602036600319011261000e57600435600090808252816020526103c2600860408420610397610387600283015460018060a01b031690565b6001600160a01b0316331461195d565b016103b56103a6825460ff1690565b6103af81610681565b156119b8565b805460ff19166002179055565b3360009081526003602052604090208290556103e8816000526002602052604060002090565b5461044461040c6104026103fd6001546112b3565b610189565b90549060031b1c90565b6104348161041985610189565b90919082549060031b600019811b9283911b16911916179055565b6000526002602052604060002090565b5561044d611a04565b81610462826000526002602052604060002090565b5533907fb91ae85405a99ffc07c694757cfbb7a52994c3b4daf39d040a6d56b1429ed7c78380a380f35b90600182811c921680156104bc575b60208310146104a657565b634e487b7160e01b600052602260045260246000fd5b91607f169161049b565b50634e487b7160e01b600052604160045260246000fd5b61012081019081106001600160401b038211176104f957604052565b6105016104c6565b604052565b60e081019081106001600160401b038211176104f957604052565b60a081019081106001600160401b038211176104f957604052565b604081019081106001600160401b038211176104f957604052565b606081019081106001600160401b038211176104f957604052565b90601f801991011681019081106001600160401b038211176104f957604052565b90604051918260008254926105a78461048c565b90818452600194858116908160001461061657506001146105d3575b50506105d192500383610572565b565b9093915060005260209081600020936000915b8183106105fe5750506105d1935082010138806105c3565b855488840185015294850194879450918301916105e6565b9150506105d194506020925060ff191682840152151560051b82010138806105c3565b60005b83811061064c5750506000910152565b818101518382015260200161063c565b9060209161067581518092818552858086019101610639565b601f01601f1916010190565b6003111561068b57565b634e487b7160e01b600052602160045260246000fd5b906106ab82610681565b52565b503461000e57602036600319011261000e5760043560005260006020526040600020805460086106e060018401610593565b92015460ff811690610704604051948594855260806020860152608085019061065c565b9161070e81610681565b604084015260081c6001600160a01b031660608301520390f35b6000915b6002831061073957505050565b81516001600160a01b03168152600192909201916020918201910161072c565b6000915b6002831061076a57505050565b60019082518152602080910192019201919061075d565b6000915b6002831061079257505050565b6001908251151581526020809101920192019190610785565b6108569060208152825160208201526101a06101006107db60208601516101c060408601526101e085019061065c565b946107ee60408201516060860190610728565b610800606082015160a0860190610759565b610812608082015160e0860190610759565b61082560a08201516101208601906106a1565b60c08101516001600160a01b031661014085015261084c60e0820151610160860190610759565b0151910190610781565b90565b503461000e57602036600319011261000e5761090c6040805161087b816104dd565b600081526060602082015281516108918161053c565b823682378282015281516108a48161053c565b8236823760608201526108b5612b5c565b6080820152600060a0820152600060c08201526108d0612b5c565b60e08201526101006108e0612b5c565b9101526109016108fc6004356000526000602052604060002090565b612935565b9051918291826107ab565b0390f35b503461000e57602036600319011261000e5760043561092e81610305565b60018060a01b031660005260036020526020604060002054604051908152f35b604051906105d1826104dd565b604051906105d18261053c565b6020906001600160401b038111610985575b601f01601f19160190565b61098d6104c6565b61097a565b503461000e57604036600319011261000e576004356001600160401b03811161000e573660238201121561000e5780600401356109ce81610968565b906109dc6040519283610572565b808252366024828501011161000e576020816000926024610a099601838601378301015260243590611302565b005b503461000e57602036600319011261000e5760043560018060a01b0390610a5b82610a536002610a45856000526000602052604060002090565b01546001600160a01b031690565b161515612862565b6040610a746108fc836000526000602052604060002090565b0191610a8f8351828151163314908115610aca575b506129d6565b82515116338103610abf5750610ab9610aac610a09935160200190565b516001600160a01b031690565b90612a22565b90610a099250612a22565b6020015133915083166001600160a01b03161438610a89565b503461000e57600036600319011261000e576020600554604051908152f35b503461000e57604036600319011261000e57600435602435600381101561000e57610b58906000928084528360205260018060a01b0360026040862001541633148015610b5b575b610b5390611ae9565b611d1b565b80f35b5060408420610b5390610b9390610b879060030160005b905460039190911b1c6001600160a01b031690565b6001600160a01b031690565b33149050610b4a565b503461000e57602036600319011261000e576040808051610bbc8161053c565b36903760043560005260006020528060002060078251918383018381106001600160401b03821117610c07575b84526006810154835201546020820152610c0582518092610759565bf35b610c0f6104c6565b610be9565b503461000e5760408060031936011261000e5761090c90610cbf610cba602435610c3d81610305565b8360c08151610c4b81610506565b600091818380935282602082015282858201528260608201528260808201528260a0820152015281516020810190610c9881610c8a87600435866114e8565b03601f198101835282610572565b51902081526004602052209060018060a01b0316600052602052604060002090565b611efe565b90519182918291909160c08060e08301948051845260018060a01b03602082015116602085015260408101516040850152606081015160608501526080810151608085015260a081015160a08501520151910152565b503461000e57604036600319011261000e576006547fa47b02d2d7d744d434c03db59a4362b0fc7a74d04df715cc6200d66fd65df989906024359060043590610e7390610d6a906001600160a01b0316610b87565b6040516331a9108f60e11b81526004810185905290602090829060249082905afa908115610ed7575b600091610ea9575b506001600160a01b0390610db29082163314610f06565b336000908152600360205260409020610dcd905b5415610f52565b610e66610e44610de7856000526000602052604060002090565b92610e3b8761041960046008880197610e13610e048a5460ff1690565b610e0d81610681565b15611a51565b6002810195610e3190610e2a600384016000610b72565b1615611a9d565b0160010190600090565b60010190600090565b81546001600160a01b0360039290921b91821b80199091163390921b16179055565b805460ff19166001179055565b336000908152600360205260409020819055610e908133846115c0565b60408051918252336020830152810191909152606090a1005b610eca915060203d8111610ed0575b610ec28183610572565b810190610ee4565b38610d9b565b503d610eb8565b610edf610ef9565b610d93565b9081602091031261000e575161085681610305565b506040513d6000823e3d90fd5b15610f0d57565b60405162461bcd60e51b815260206004820152601e60248201527f4e6f7420746865206f776e6572206f66207468652063686172616374657200006044820152606490fd5b15610f5957565b60405162461bcd60e51b815260206004820152602e60248201527f506c6179657220616c72656164792070617274696369706174696e6720696e2060448201526d616e6f7468657220626174746c6560901b6064820152608490fd5b6106ab82610681565b90601f8111610fcc57505050565b600091825260208220906020601f850160051c83019410611008575b601f0160051c01915b828110610ffd57505050565b818155600101610ff1565b9092508290610fe8565b91909182516001600160401b0381116110e1575b61103a81611034845461048c565b84610fbe565b602080601f831160011461107657508192939460009261106b575b50508160011b916000199060031b1c1916179055565b015190503880611055565b90601f1983169561108c85600052602060002090565b926000905b8882106110c9575050836001959697106110b0575b505050811b019055565b015160001960f88460031b161c191690553880806110a6565b80600185968294968601518155019501930190611091565b6110e96104c6565b611026565b50634e487b7160e01b600052601160045260246000fd5b9060005b6002811061111657505050565b81516001600160a01b031681840155602090910190600101611109565b9060005b6002811061114457505050565b600190602083519301928185015501611137565b9061116281610681565b60ff80198354169116179055565b600091825b6002811061118257505055565b9092602060019185511515908460031b60ff811b9283911b169119161794019101611175565b600b6101006105d193805184556111c6602082015160018601611012565b6111d7604082015160028601611105565b6111e8606082015160048601611133565b6111f9608082015160068601611133565b6112476008850161121760a084015161121181610681565b82611158565b60c08301516001600160a01b03168154610100600160a81b03191660089190911b610100600160a81b0316179055565b61125860e082015160098601611133565b01519101611170565b600154600160401b8110156112a6575b6001810180600155811015611299575b6001600052600080516020612c668339815191520155565b6112a1610172565b611281565b6112ae6104c6565b611271565b6000198101919082116112c257565b6105d16110ee565b6002198101919082116112c257565b919082039182116112c257565b60019060001981146112f6570190565b6112fe6110ee565b0190565b6006547fcd51df591e2f9319b98d783b63c675c8ab2e63d44101da9e5a12af2b1fcab47992919061144e9061133f906001600160a01b0316610b87565b6040516331a9108f60e11b81526004810185905260209161138791908390829060249082905afa9081156114db575b6000916114be575b506001600160a01b03163314610f06565b33600090815260036020526040902061139f90610dc6565b600554926113ab61095b565b3381526000838201526113bc61095b565b8681526000848201526113cd61095b565b90600082526000858301526113e061095b565b92600084526000868501526113f361095b565b946000865260008787015261140661094e565b96898852870152604086015260608501526080840152600060a0840152600060c084015260e0830152610100820152611449836000526000602052604060002090565b6111a8565b61145781611261565b6114626001546112b3565b611476826000526002602052604060002090565b553360009081526003602052604090208190556114948133846115c0565b60408051918252336020830152810191909152606090a16105d16114b96005546112e6565b600555565b6114d59150833d8511610ed057610ec28183610572565b38611376565b6114e3610ef9565b61136e565b90815260609190911b6bffffffffffffffffffffffff1916602082015260340190565b9081602091031261000e575190565b6040519061152782610557565b602282526132b960f11b6040837f4368617261637465722070726f7879206372656174656420666f7220706c617960208201520152565b6040519061156b8261053c565b60078252662432b0b63a341d60c91b6020830152565b6040519061158e8261053c565b600582526426b0b7309d60d91b6020830152565b60028210156115b3575b0190600090565b6115bb610172565b6115ac565b919091604091825190611610856115f9602094858101906115e681610c8a8689866114e8565b5190206000526004602052604060002090565b9060018060a01b0316600052602052604060002090565b8381556001810180546001600160a01b0319166001600160a01b038816179055916006805490919061164a906001600160a01b0316610b87565b918651946316442a7f60e11b8652828660049581806116708c8a83019190602083019252565b03915afa958615611950575b600096611923575b50600281018681558254909896976118189761180896959493926116b0906001600160a01b0316610b87565b85825180926319ddc96160e21b825281806116d2888d83019190602083019252565b03915afa908115611916575b6000916118f9575b5060038401558354611700906001600160a01b0316610b87565b85825180926323ce9af360e11b82528180611722888d83019190602083019252565b03915afa9081156118ec575b6000916118cf575b5083870155835461174f906001600160a01b0316610b87565b958582518098633aeec56760e11b82528180611772888783019190602083019252565b03915afa9687156118c2575b600097611899575b509185916117c6938860058701556117a7610b87885460018060a01b031690565b9151631bd2a47760e01b81529081019283529384928391829160200190565b03915afa93841561188c575b60009461185d575b505001556117ef876117ea61151a565b612c17565b611800856117fb61155e565b612bb9565b6117fb611581565b6000526000602052604060002090565b6002810154909390611832906001600160a01b0316610b87565b6001600160a01b039091160361184c575060099054910155565b6105d192909150600a016000610419565b61187d929450803d10611885575b6118758183610572565b81019061150b565b9138806117da565b503d61186b565b611894610ef9565b6117d2565b6117c693919750916118b88793843d8611611885576118758183610572565b9791935091611786565b6118ca610ef9565b61177e565b6118e69150863d8811611885576118758183610572565b38611736565b6118f4610ef9565b61172e565b6119109150863d8811611885576118758183610572565b386116e6565b61191e610ef9565b6116de565b61181896509061194584939261180896953d8611611885576118758183610572565b965090919293611684565b611958610ef9565b61167c565b1561196457565b60405162461bcd60e51b815260206004820152602660248201527f4f6e6c79207468652063726561746f722063616e2063616e63656c2074686520604482015265626174746c6560d01b6064820152608490fd5b156119bf57565b60405162461bcd60e51b815260206004820152601e60248201527f43616e6e6f742063616e63656c2061207374617274656420626174746c6500006044820152606490fd5b6001548015611a3b57600080198083019280841015611a2e575b6001835260208320010155600155565b611a36610172565b611a1e565b634e487b7160e01b600052603160045260246000fd5b15611a5857565b60405162461bcd60e51b815260206004820152601a60248201527f426174746c652068617320616c726561647920737461727465640000000000006044820152606490fd5b15611aa457565b60405162461bcd60e51b815260206004820152601e60248201527f426174746c6520616c7265616479206861732074776f20706c617965727300006044820152606490fd5b15611af057565b60405162461bcd60e51b815260206004820152602860248201527f4f6e6c79207061727469636970616e74732063616e2063616c6c207468697320604482015267333ab731ba34b7b760c11b6064820152608490fd5b15611b4d57565b60405162461bcd60e51b815260206004820152602b60248201527f426174746c6520686173206e6f742073746172746564206f722068617320616c60448201526a1c9958591e48195b99195960aa1b6064820152608490fd5b15611bad57565b60405162461bcd60e51b815260206004820152603260248201527f496e76616c6964206d6f76653a206d7573742062652041545441434b2c204445604482015271119153910b081bdc881554d157d4d2d2531360721b6064820152608490fd5b601f909291926002841015611c27575b8360051c01921690565b611c2f610172565b611c1d565b15611c3b57565b606460405162461bcd60e51b815260206004820152602060248201527f4d6f766520616c7265616479207375626d697474656420627920706c617965726044820152fd5b919060208301926106ab82610681565b60405190611c9c82610557565b60248252633910189d60e11b6040837f4368617261637465722070726f7879206865616c746820666f7220706c61796560208201520152565b60405190611ce282610557565b60248252633910191d60e11b6040837f4368617261637465722070726f7879206865616c746820666f7220706c61796560208201520152565b90611d30826000526000602052604060002090565b90611d536001611d44600885015460ff1690565b611d4d81610681565b14611b46565b611d5c81610681565b80158015611eeb575b8015611ed8575b611d7590611ba6565b600282018054909190611d90906001600160a01b0316610b87565b3303611ecf5760ff60005b168181600b860195611dad8288611c0d565b905460039190911b1c60ff1615611dc390611c34565b611dcc83610681565b60060190611dd9916115a2565b611df6929082549060031b600019811b9283911b16911916179055565b611e009084611c0d565b611e1f919060019082549060031b60ff811b9283911b16911916179055565b83604051803393611e309082611c7f565b037fdf31d6d9480a495c0b6667daa4c8f92d5420a9b58cc52f19657329ba9aa8143a91a380546001600160a01b0316611e699084612b70565b611e71611c8f565b90611e7b91612bb9565b60010154611e92906001600160a01b031683612b70565b611e9a611cd5565b90611ea491612bb9565b5460ff81169081611ec1575b50611eb85750565b6105d1906120a6565b60ff915060081c1638611eb0565b60ff6001611d9b565b50611ee281610681565b60028114611d6c565b50611ef581610681565b60018114611d65565b90604051611f0b81610506565b8254815260018301546001600160a01b03166020820152600283015460408201526003830154606082015260048301546080820152600583015460a082015260069092015460c0830152565b90600382018092116112c257565b919082018092116112c257565b9080601f8301121561000e578151906001600160401b038211611fd9575b8160051b60405193602093611fa785840187610572565b8552838086019282010192831161000e578301905b828210611fca575050505090565b81518152908301908301611fbc565b611fe16104c6565b611f90565b602091828282031261000e5781516001600160401b039283821161000e57019160a08383031261000e576040519361201d85610521565b835185528084015182811161000e5784019083601f8301121561000e5781519161204683610968565b926120546040519485610572565b8084528583828401011161000e5761207191838086019101610639565b8501526040830151604085015260608301516060850152608083015190811161000e5761209e9201611f72565b608082015290565b6115f9906120be816000526000602052604060002090565b6122686122e7826122686122d960018060a01b036002840154166122c98861213061213c60405161211f610b72600260208401846120fd8b8a846114e8565b0394612111601f1996878101835282610572565b5190209b0160010190600090565b6040519384916020830196876114e8565b03908101835282610572565b5190209161215b610cba826115f9896000526004602052604060002090565b9788916121a2610cba8c61218c610b7260026121818b6000526004602052604060002090565b930160010190600090565b60018060a01b0316600052602052604060002090565b9c8d988c600260068201548c81158080916127c9575b1561265057506121cb60608a01516127de565b60406121da60608401516127de565b92018051909160009181811115612648576121f592506112d9565b905b526040890180519091600091818111156126405761221592506112d9565b905b5260a0880161222681516112ca565b905260a08d0161223681516112ca565b90525b14612529575b8a6002612250600784016000610402565b146123cc575b50506000526004602052604060002090565b8151815560208201516001820180546001600160a01b0319166001600160a01b03929092169190911790559060069060c09060408101516002850155606081015160038501556080810151600485015560a081015160058501550151910155565b6000526004602052604060002090565b61218c600387016000610b72565b60028201547fe85058f4893f92696bd72945da4fc8a26957c32630cd7492babba8aa5b7446fc906040906001600160a01b031692018051909261236f6040612333600388016000610b72565b98018051604080518a81526001600160a01b039586166020820152908101959095529290981660608401526080830191909152819060a0820190565b0390a151801580156123c3575b156123ae576105d19351106000146123a057600201546001600160a01b0316610ab9565b610ab9906003016000610b72565b50600b01805461ffff19169055506105d19050565b5083511561237c565b61246e61249391600061242560206123f06104026004612498990160010190600090565b600654612405906001600160a01b0316610b87565b604051808095819463ef3877c560e01b8352600483019190602083019252565b03915afa90811561251c575b82916124fd575b5060075461244e906001600160a01b0316610b87565b6040518080968194635ec407d760e11b8352600483019190602083019252565b03915afa9182156124f0575b6000926124c7575b506060604091015191015190611f65565b6127de565b6040860180519091600091818111156124bf576124b592506112d9565b905b528c8a612256565b5050906124b7565b6124e8606091604093943d8091833e6124e08183610572565b810190611fe6565b929150612482565b6124f8610ef9565b61247a565b612516915060203d602011611885576118758183610572565b38612438565b612524610ef9565b612431565b61249361259b6000612552602060046125c0960154612405610b8760065460018060a01b031690565b03915afa908115612633575b8291612614575b5060075461257b906001600160a01b0316610b87565b6040518080958194635ec407d760e11b8352600483019190602083019252565b03915afa908115612607575b6000916125ee575b506040606089015191015190611f65565b60408b0180519091600091818111156125e6576125dd92506112d9565b905b528c61223f565b5050906125df565b612601913d8091833e6124e08183610572565b386125af565b61260f610ef9565b6125a7565b61262d915060203d602011611885576118758183610572565b38612565565b61263b610ef9565b61255e565b505090612217565b5050906121f7565b600183149081806127b2575b156126895750505060a088016126728151611f57565b905260a08d016126828151611f57565b9052612239565b8061279b575b156126fb57506126a260608a01516127de565b6080820151908082106126c1575b50505060a0880161267281516112ca565b6040916126cd916112d9565b910180519091600091818111156126f3576126e892506112d9565b905b528c38806126b0565b5050906126ea565b80612786575b61270c575b50612239565b60606127199101516127de565b608089015181811061274e575b505060a088016127368151611f57565b905260a08d0161274681516112ca565b90528c612706565b612757916112d9565b60408901805190916000918181111561277e5761277492506112d9565b905b523880612726565b505090612776565b50612795600785016000610402565b15612701565b5060016127ac600787016000610402565b1461268f565b5060016127c3600788016000610402565b1461265c565b506127d8600786016000610402565b156121b8565b600a9004601460405160208101904482524260408201523360601b606082015260548152608081018181106001600160401b03821117612855575b604052519020069060018201809211612848575b8181029181830414901517156128405790565b6108566110ee565b6128506110ee565b61282d565b61285d6104c6565b612819565b1561286957565b60405162461bcd60e51b8152602060048201526011602482015270426174746c65206e6f7420666f756e642160781b6044820152606490fd5b60405191906000835b600282106128bf575050506105d18261053c565b82546001600160a01b0316815260019283019291909101906020016128ab565b60405191906000835b600282106128fc575050506105d18261053c565b60016020819285548152019301910190916128e8565b9060ff60405192548181161515845260081c16151560208301526105d18261053c565b906129ce600b61294361094e565b938054855261295460018201610593565b6020860152612965600282016128a2565b6040860152612976600482016128df565b6060860152612987600682016128df565b60808601526129b760088201546129a460ff821660a08901610fb5565b60081c6001600160a01b031660c0870152565b6129c3600982016128df565b60e086015201612912565b610100830152565b156129dd57565b60405162461bcd60e51b815260206004820152601b60248201527f596f7520617265206e6f7420696e207468697320626174746c652100000000006044820152606490fd5b600081815260208181526040808320600890810180549187901b610100600160a81b03166001600160a81b031990921691909117600290811790915590915281207f31441bdee20d4f2b04147c4adc8cb7987cd9a676c7774dfc5540a7897d0781f89392919054612aae612a9a6103fd6001546112b3565b90549060031b1c6104348161041985610189565b55612ab7611a04565b80612acc836000526002602052604060002090565b55612b40612ae96002610a45856000526000602052604060002090565b82612b25612b09610b726002610e31896000526000602052604060002090565b6001600160a01b03909316600090815260036020526040902090565b556001600160a01b0316600090815260036020526040902090565b55604080519182526001600160a01b03929092166020820152a1565b60405190612b698261053c565b6040368337565b600291612bb491604051612b8d81610c8a856020830195866114e8565b519020600052600460205260406000209060018060a01b0316600052602052604060002090565b015490565b612bfc612be8916105d193604051938492632d839cb360e21b602085015260406024850152606484019061065c565b90604483015203601f198101835282610572565b600080916020815191016a636f6e736f6c652e6c6f675afa50565b612bfc612c46916105d19360405193849263319af33360e01b602085015260406024850152606484019061065c565b6001600160a01b0391909116604483015203601f19810183528261057256feb10e2d527612073b26eecdfd717e6a320cf44b4afac2b0732d9fcbe2b7fa0cf6a2646970667358221220caac171c8871886a4406f7d9ee63259693c08489d4d6f3c45dc8f15267e50a8564736f6c63430008110033",
  "linkReferences": {},
  "deployedLinkReferences": {}
}