{
  "_format": "hh-sol-artifact-1",
  "contractName": "Battle",
  "sourceName": "contracts/Battle.sol",
  "abi": [
    {
      "inputs": [
        {
          "internalType": "address",
          "name": "_characterContractAddress",
          "type": "address"
        },
        {
          "internalType": "address",
          "name": "_battleSkillsContractAddress",
          "type": "address"
        }
      ],
      "stateMutability": "nonpayable",
      "type": "constructor"
    },
    {
      "anonymous": false,
      "inputs": [
        {
          "indexed": true,
          "internalType": "uint256",
          "name": "battleId",
          "type": "uint256"
        },
        {
          "indexed": true,
          "internalType": "address",
          "name": "player",
          "type": "address"
        }
      ],
      "name": "BattleCancelled",
      "type": "event"
    },
    {
      "anonymous": false,
      "inputs": [
        {
          "indexed": true,
          "internalType": "uint256",
          "name": "battleId",
          "type": "uint256"
        },
        {
          "indexed": true,
          "internalType": "address",
          "name": "creator",
          "type": "address"
        },
        {
          "indexed": false,
          "internalType": "uint256",
          "name": "characterId",
          "type": "uint256"
        }
      ],
      "name": "BattleCreated",
      "type": "event"
    },
    {
      "anonymous": false,
      "inputs": [
        {
          "indexed": false,
          "internalType": "string",
          "name": "battleName",
          "type": "string"
        },
        {
          "indexed": true,
          "internalType": "uint256",
          "name": "battleId",
          "type": "uint256"
        },
        {
          "indexed": true,
          "internalType": "address",
          "name": "winner",
          "type": "address"
        },
        {
          "indexed": true,
          "internalType": "address",
          "name": "loser",
          "type": "address"
        }
      ],
      "name": "BattleEnded",
      "type": "event"
    },
    {
      "anonymous": false,
      "inputs": [
        {
          "indexed": true,
          "internalType": "uint256",
          "name": "battleId",
          "type": "uint256"
        },
        {
          "indexed": false,
          "internalType": "uint256",
          "name": "round",
          "type": "uint256"
        },
        {
          "indexed": true,
          "internalType": "address",
          "name": "quitter",
          "type": "address"
        }
      ],
      "name": "BattleQuit",
      "type": "event"
    },
    {
      "anonymous": false,
      "inputs": [
        {
          "indexed": false,
          "internalType": "uint256",
          "name": "battleId",
          "type": "uint256"
        },
        {
          "indexed": false,
          "internalType": "address",
          "name": "player",
          "type": "address"
        },
        {
          "indexed": false,
          "internalType": "uint256",
          "name": "id",
          "type": "uint256"
        },
        {
          "indexed": false,
          "internalType": "address",
          "name": "owner",
          "type": "address"
        },
        {
          "indexed": false,
          "internalType": "uint256",
          "name": "health",
          "type": "uint256"
        },
        {
          "indexed": false,
          "internalType": "uint256",
          "name": "attack",
          "type": "uint256"
        },
        {
          "indexed": false,
          "internalType": "uint256",
          "name": "defense",
          "type": "uint256"
        },
        {
          "indexed": false,
          "internalType": "uint256",
          "name": "mana",
          "type": "uint256"
        },
        {
          "indexed": false,
          "internalType": "uint256",
          "name": "typeId",
          "type": "uint256"
        },
        {
          "indexed": false,
          "internalType": "uint256[]",
          "name": "equippedSkills",
          "type": "uint256[]"
        }
      ],
      "name": "CharacterProxyData",
      "type": "event"
    },
    {
      "anonymous": false,
      "inputs": [
        {
          "indexed": true,
          "internalType": "uint256",
          "name": "battleId",
          "type": "uint256"
        },
        {
          "indexed": true,
          "internalType": "address",
          "name": "player",
          "type": "address"
        },
        {
          "indexed": false,
          "internalType": "uint256",
          "name": "round",
          "type": "uint256"
        },
        {
          "indexed": false,
          "internalType": "uint256",
          "name": "diceNumber",
          "type": "uint256"
        }
      ],
      "name": "DiceRolled",
      "type": "event"
    },
    {
      "anonymous": false,
      "inputs": [
        {
          "indexed": true,
          "internalType": "uint256",
          "name": "battleId",
          "type": "uint256"
        },
        {
          "indexed": true,
          "internalType": "address",
          "name": "player",
          "type": "address"
        },
        {
          "indexed": false,
          "internalType": "enum StructsLibrary.Move",
          "name": "move",
          "type": "uint8"
        },
        {
          "indexed": false,
          "internalType": "uint256",
          "name": "round",
          "type": "uint256"
        }
      ],
      "name": "MoveSubmitted",
      "type": "event"
    },
    {
      "anonymous": false,
      "inputs": [
        {
          "indexed": false,
          "internalType": "string",
          "name": "battleName",
          "type": "string"
        },
        {
          "indexed": true,
          "internalType": "uint256",
          "name": "battleId",
          "type": "uint256"
        },
        {
          "indexed": true,
          "internalType": "address",
          "name": "player1",
          "type": "address"
        },
        {
          "indexed": true,
          "internalType": "address",
          "name": "player2",
          "type": "address"
        },
        {
          "indexed": false,
          "internalType": "uint256",
          "name": "characterId",
          "type": "uint256"
        }
      ],
      "name": "NewBattle",
      "type": "event"
    },
    {
      "anonymous": false,
      "inputs": [
        {
          "indexed": true,
          "internalType": "address",
          "name": "prevOwner",
          "type": "address"
        },
        {
          "indexed": true,
          "internalType": "address",
          "name": "newOwner",
          "type": "address"
        }
      ],
      "name": "OwnerUpdated",
      "type": "event"
    },
    {
      "anonymous": false,
      "inputs": [
        {
          "indexed": true,
          "internalType": "uint256",
          "name": "battleId",
          "type": "uint256"
        },
        {
          "indexed": false,
          "internalType": "address[2]",
          "name": "damagedPlayers",
          "type": "address[2]"
        },
        {
          "indexed": false,
          "internalType": "uint256[2]",
          "name": "damageDealt",
          "type": "uint256[2]"
        },
        {
          "indexed": false,
          "internalType": "uint256[2]",
          "name": "damageTaken",
          "type": "uint256[2]"
        },
        {
          "indexed": true,
          "internalType": "uint256",
          "name": "round",
          "type": "uint256"
        }
      ],
      "name": "RoundEnded",
      "type": "event"
    },
    {
      "anonymous": false,
      "inputs": [
        {
          "indexed": true,
          "internalType": "uint256",
          "name": "battleId",
          "type": "uint256"
        },
        {
          "indexed": false,
          "internalType": "uint256",
          "name": "round",
          "type": "uint256"
        },
        {
          "indexed": true,
          "internalType": "address",
          "name": "player",
          "type": "address"
        },
        {
          "indexed": false,
          "internalType": "uint256",
          "name": "skillId",
          "type": "uint256"
        },
        {
          "indexed": false,
          "internalType": "string",
          "name": "skillName",
          "type": "string"
        },
        {
          "indexed": false,
          "internalType": "uint256",
          "name": "totalDamage",
          "type": "uint256"
        }
      ],
      "name": "SkillExecuted",
      "type": "event"
    },
    {
      "anonymous": false,
      "inputs": [
        {
          "indexed": true,
          "internalType": "uint256",
          "name": "battleId",
          "type": "uint256"
        },
        {
          "indexed": false,
          "internalType": "uint256",
          "name": "round",
          "type": "uint256"
        },
        {
          "indexed": true,
          "internalType": "address",
          "name": "character",
          "type": "address"
        },
        {
          "indexed": false,
          "internalType": "string",
          "name": "statusEffectName",
          "type": "string"
        },
        {
          "indexed": false,
          "internalType": "uint256",
          "name": "duration",
          "type": "uint256"
        }
      ],
      "name": "StatusEffectApplied",
      "type": "event"
    },
    {
      "anonymous": false,
      "inputs": [
        {
          "indexed": true,
          "internalType": "uint256",
          "name": "battleId",
          "type": "uint256"
        },
        {
          "indexed": true,
          "internalType": "address",
          "name": "player",
          "type": "address"
        },
        {
          "indexed": false,
          "internalType": "uint256",
          "name": "effectId",
          "type": "uint256"
        },
        {
          "indexed": false,
          "internalType": "string",
          "name": "effectName",
          "type": "string"
        },
        {
          "indexed": false,
          "internalType": "string",
          "name": "effectType",
          "type": "string"
        },
        {
          "indexed": false,
          "internalType": "uint256",
          "name": "effectValue",
          "type": "uint256"
        },
        {
          "indexed": false,
          "internalType": "uint256",
          "name": "round",
          "type": "uint256"
        },
        {
          "indexed": false,
          "internalType": "uint256",
          "name": "duration",
          "type": "uint256"
        }
      ],
      "name": "StatusEffectResolved",
      "type": "event"
    },
    {
      "stateMutability": "payable",
      "type": "fallback"
    },
    {
      "inputs": [
        {
          "internalType": "uint256",
          "name": "",
          "type": "uint256"
        }
      ],
      "name": "activeBattlesId",
      "outputs": [
        {
          "internalType": "uint256",
          "name": "",
          "type": "uint256"
        }
      ],
      "stateMutability": "view",
      "type": "function"
    },
    {
      "inputs": [],
      "name": "battleCounter",
      "outputs": [
        {
          "internalType": "uint256",
          "name": "",
          "type": "uint256"
        }
      ],
      "stateMutability": "view",
      "type": "function"
    },
    {
      "inputs": [],
      "name": "battleFee",
      "outputs": [
        {
          "internalType": "uint256",
          "name": "",
          "type": "uint256"
        }
      ],
      "stateMutability": "view",
      "type": "function"
    },
    {
      "inputs": [
        {
          "internalType": "uint256",
          "name": "",
          "type": "uint256"
        }
      ],
      "name": "battles",
      "outputs": [
        {
          "internalType": "uint256",
          "name": "battleId",
          "type": "uint256"
        },
        {
          "internalType": "string",
          "name": "name",
          "type": "string"
        },
        {
          "internalType": "enum StructsLibrary.BattleStatus",
          "name": "battleStatus",
          "type": "uint8"
        },
        {
          "internalType": "address",
          "name": "winner",
          "type": "address"
        },
        {
          "internalType": "uint256",
          "name": "round",
          "type": "uint256"
        },
        {
          "components": [
            {
              "internalType": "uint256[2]",
              "name": "initialHealth",
              "type": "uint256[2]"
            },
            {
              "internalType": "uint256[2]",
              "name": "initialMana",
              "type": "uint256[2]"
            },
            {
              "internalType": "uint256[2]",
              "name": "totalDamageDealt",
              "type": "uint256[2]"
            },
            {
              "internalType": "uint256[2]",
              "name": "totalDamageTaken",
              "type": "uint256[2]"
            }
          ],
          "internalType": "struct StructsLibrary.BattleStats",
          "name": "battleStats",
          "type": "tuple"
        }
      ],
      "stateMutability": "view",
      "type": "function"
    },
    {
      "inputs": [
        {
          "internalType": "uint256",
          "name": "_battleId",
          "type": "uint256"
        }
      ],
      "name": "cancelBattle",
      "outputs": [],
      "stateMutability": "nonpayable",
      "type": "function"
    },
    {
      "inputs": [
        {
          "internalType": "string",
          "name": "_name",
          "type": "string"
        },
        {
          "internalType": "uint256",
          "name": "_characterTokenId",
          "type": "uint256"
        }
      ],
      "name": "createBattle",
      "outputs": [],
      "stateMutability": "nonpayable",
      "type": "function"
    },
    {
      "inputs": [],
      "name": "feeCollected",
      "outputs": [
        {
          "internalType": "uint256",
          "name": "",
          "type": "uint256"
        }
      ],
      "stateMutability": "view",
      "type": "function"
    },
    {
      "inputs": [],
      "name": "getActiveBattlesCount",
      "outputs": [
        {
          "internalType": "uint256",
          "name": "",
          "type": "uint256"
        }
      ],
      "stateMutability": "view",
      "type": "function"
    },
    {
      "inputs": [],
      "name": "getActiveBattlesId",
      "outputs": [
        {
          "internalType": "uint256[]",
          "name": "",
          "type": "uint256[]"
        }
      ],
      "stateMutability": "view",
      "type": "function"
    },
    {
      "inputs": [
        {
          "internalType": "uint256",
          "name": "_battleId",
          "type": "uint256"
        }
      ],
      "name": "getBattle",
      "outputs": [
        {
          "components": [
            {
              "internalType": "uint256",
              "name": "battleId",
              "type": "uint256"
            },
            {
              "internalType": "string",
              "name": "name",
              "type": "string"
            },
            {
              "internalType": "address[2]",
              "name": "players",
              "type": "address[2]"
            },
            {
              "internalType": "uint256[2]",
              "name": "characterIds",
              "type": "uint256[2]"
            },
            {
              "internalType": "uint256[2]",
              "name": "moves",
              "type": "uint256[2]"
            },
            {
              "internalType": "uint256[2]",
              "name": "skillIndices",
              "type": "uint256[2]"
            },
            {
              "internalType": "enum StructsLibrary.BattleStatus",
              "name": "battleStatus",
              "type": "uint8"
            },
            {
              "internalType": "address",
              "name": "winner",
              "type": "address"
            },
            {
              "internalType": "bool[2]",
              "name": "moveSubmitted",
              "type": "bool[2]"
            },
            {
              "internalType": "uint256",
              "name": "round",
              "type": "uint256"
            },
            {
              "components": [
                {
                  "internalType": "uint256[2]",
                  "name": "initialHealth",
                  "type": "uint256[2]"
                },
                {
                  "internalType": "uint256[2]",
                  "name": "initialMana",
                  "type": "uint256[2]"
                },
                {
                  "internalType": "uint256[2]",
                  "name": "totalDamageDealt",
                  "type": "uint256[2]"
                },
                {
                  "internalType": "uint256[2]",
                  "name": "totalDamageTaken",
                  "type": "uint256[2]"
                }
              ],
              "internalType": "struct StructsLibrary.BattleStats",
              "name": "battleStats",
              "type": "tuple"
            }
          ],
          "internalType": "struct StructsLibrary.BattleData",
          "name": "",
          "type": "tuple"
        }
      ],
      "stateMutability": "view",
      "type": "function"
    },
    {
      "inputs": [
        {
          "internalType": "uint256",
          "name": "battleId",
          "type": "uint256"
        }
      ],
      "name": "getBattleMoves",
      "outputs": [
        {
          "internalType": "uint256[2]",
          "name": "",
          "type": "uint256[2]"
        }
      ],
      "stateMutability": "view",
      "type": "function"
    },
    {
      "inputs": [
        {
          "internalType": "uint256",
          "name": "battleId",
          "type": "uint256"
        }
      ],
      "name": "getBattleParticipants",
      "outputs": [
        {
          "internalType": "address[2]",
          "name": "",
          "type": "address[2]"
        }
      ],
      "stateMutability": "view",
      "type": "function"
    },
    {
      "inputs": [
        {
          "internalType": "uint256",
          "name": "_battleId",
          "type": "uint256"
        }
      ],
      "name": "getBattleSummary",
      "outputs": [
        {
          "internalType": "uint256",
          "name": "round",
          "type": "uint256"
        },
        {
          "internalType": "uint256[2]",
          "name": "damageTaken",
          "type": "uint256[2]"
        },
        {
          "internalType": "uint256[2]",
          "name": "damageDealt",
          "type": "uint256[2]"
        },
        {
          "internalType": "uint256[2]",
          "name": "manaConsumed",
          "type": "uint256[2]"
        },
        {
          "internalType": "address",
          "name": "winner",
          "type": "address"
        },
        {
          "internalType": "address",
          "name": "loser",
          "type": "address"
        }
      ],
      "stateMutability": "view",
      "type": "function"
    },
    {
      "inputs": [
        {
          "internalType": "uint256",
          "name": "battleId",
          "type": "uint256"
        },
        {
          "internalType": "address",
          "name": "player",
          "type": "address"
        }
      ],
      "name": "getCharacterHealth",
      "outputs": [
        {
          "internalType": "uint256",
          "name": "",
          "type": "uint256"
        }
      ],
      "stateMutability": "view",
      "type": "function"
    },
    {
      "inputs": [
        {
          "internalType": "uint256",
          "name": "battleId",
          "type": "uint256"
        },
        {
          "internalType": "address",
          "name": "player",
          "type": "address"
        }
      ],
      "name": "getCharacterProxy",
      "outputs": [
        {
          "components": [
            {
              "internalType": "uint256",
              "name": "id",
              "type": "uint256"
            },
            {
              "internalType": "address",
              "name": "owner",
              "type": "address"
            },
            {
              "internalType": "uint256",
              "name": "health",
              "type": "uint256"
            },
            {
              "internalType": "uint256",
              "name": "attack",
              "type": "uint256"
            },
            {
              "internalType": "uint256",
              "name": "defense",
              "type": "uint256"
            },
            {
              "internalType": "uint256",
              "name": "mana",
              "type": "uint256"
            },
            {
              "internalType": "uint256",
              "name": "typeId",
              "type": "uint256"
            },
            {
              "internalType": "uint256[]",
              "name": "equippedSkills",
              "type": "uint256[]"
            }
          ],
          "internalType": "struct StructsLibrary.CharacterProxyView",
          "name": "",
          "type": "tuple"
        }
      ],
      "stateMutability": "view",
      "type": "function"
    },
    {
      "inputs": [
        {
          "internalType": "uint256",
          "name": "battleId",
          "type": "uint256"
        },
        {
          "internalType": "address",
          "name": "player",
          "type": "address"
        }
      ],
      "name": "getCharacterProxyActiveEffects",
      "outputs": [
        {
          "internalType": "uint256[]",
          "name": "effectIds",
          "type": "uint256[]"
        },
        {
          "internalType": "uint256[]",
          "name": "durations",
          "type": "uint256[]"
        }
      ],
      "stateMutability": "view",
      "type": "function"
    },
    {
      "inputs": [
        {
          "internalType": "uint256",
          "name": "battleId",
          "type": "uint256"
        },
        {
          "internalType": "uint256",
          "name": "characterTokenId",
          "type": "uint256"
        }
      ],
      "name": "joinBattle",
      "outputs": [],
      "stateMutability": "nonpayable",
      "type": "function"
    },
    {
      "inputs": [],
      "name": "leagueRewards",
      "outputs": [
        {
          "internalType": "uint256",
          "name": "",
          "type": "uint256"
        }
      ],
      "stateMutability": "view",
      "type": "function"
    },
    {
      "inputs": [],
      "name": "owner",
      "outputs": [
        {
          "internalType": "address",
          "name": "",
          "type": "address"
        }
      ],
      "stateMutability": "view",
      "type": "function"
    },
    {
      "inputs": [
        {
          "internalType": "address",
          "name": "",
          "type": "address"
        }
      ],
      "name": "playerCredit",
      "outputs": [
        {
          "internalType": "uint256",
          "name": "",
          "type": "uint256"
        }
      ],
      "stateMutability": "view",
      "type": "function"
    },
    {
      "inputs": [
        {
          "internalType": "address",
          "name": "",
          "type": "address"
        }
      ],
      "name": "playerOngoingBattle",
      "outputs": [
        {
          "internalType": "uint256",
          "name": "",
          "type": "uint256"
        }
      ],
      "stateMutability": "view",
      "type": "function"
    },
    {
      "inputs": [
        {
          "internalType": "uint256",
          "name": "_battleId",
          "type": "uint256"
        }
      ],
      "name": "quitBattle",
      "outputs": [],
      "stateMutability": "nonpayable",
      "type": "function"
    },
    {
      "inputs": [
        {
          "internalType": "address",
          "name": "_newOwner",
          "type": "address"
        }
      ],
      "name": "setOwner",
      "outputs": [],
      "stateMutability": "nonpayable",
      "type": "function"
    },
    {
      "inputs": [],
      "name": "staminaCost",
      "outputs": [
        {
          "internalType": "uint256",
          "name": "",
          "type": "uint256"
        }
      ],
      "stateMutability": "view",
      "type": "function"
    },
    {
      "inputs": [
        {
          "internalType": "uint256",
          "name": "_tokenId1",
          "type": "uint256"
        },
        {
          "internalType": "uint256",
          "name": "_tokenId2",
          "type": "uint256"
        }
      ],
      "name": "storeStamina",
      "outputs": [],
      "stateMutability": "nonpayable",
      "type": "function"
    },
    {
      "inputs": [
        {
          "internalType": "uint256",
          "name": "battleId",
          "type": "uint256"
        },
        {
          "internalType": "enum StructsLibrary.Move",
          "name": "move",
          "type": "uint8"
        },
        {
          "internalType": "uint256",
          "name": "skillId",
          "type": "uint256"
        }
      ],
      "name": "submitMove",
      "outputs": [],
      "stateMutability": "nonpayable",
      "type": "function"
    },
    {
      "inputs": [
        {
          "internalType": "uint256",
          "name": "newCost",
          "type": "uint256"
        }
      ],
      "name": "updateStaminaCost",
      "outputs": [],
      "stateMutability": "nonpayable",
      "type": "function"
    },
    {
      "stateMutability": "payable",
      "type": "receive"
    }
  ],
  "bytecode": "0x608060405260196004553480156200001657600080fd5b5060405162005d6738038062005d67833981016040819052620000399162000088565b600c80546001600160a01b039384166001600160a01b031991821617909155600d8054929093169116179055620000c0565b80516001600160a01b03811681146200008357600080fd5b919050565b600080604083850312156200009c57600080fd5b620000a7836200006b565b9150620000b7602084016200006b565b90509250929050565b615c9780620000d06000396000f3fe60806040526004361061018b5760003560e01c80636efe60c1116100e0578063ba7b559611610084578063daf241aa11610061578063daf241aa146104a2578063dc55da6f146104d0578063e44dba4f146104fd578063f30293091461051d57005b8063ba7b55961461044a578063c7f42c6414610477578063d054fe001461048c57005b80638e4c1999116100bd5780638e4c1999146103c757806396033b76146103e7578063a10d80de14610414578063a9b9be3f1461043457005b80636efe60c1146103525780638bdb3b2f1461037f5780638da5cb5b1461039f57005b80633305610911610147578063606d2e9611610124578063606d2e96146102bd5780636bc8e4a9146102ef5780636ca7f95c1461030f5780636dd0ce7a1461032557005b806333056109146102505780634188de5a1461027d5780634c4c447e1461029d57005b8063068a1e4914610194578063086d35c2146101b85780630ba5a8e6146101ce57806313af4035146101ee578063239752ab1461020e57806332ccca0e1461022e57005b3661019257005b005b3480156101a057600080fd5b506006545b6040519081526020015b60405180910390f35b3480156101c457600080fd5b506101a560035481565b3480156101da57600080fd5b506101926101e9366004614da6565b61054f565b3480156101fa57600080fd5b50610192610209366004614dd4565b6105a4565b34801561021a57600080fd5b506101a5610229366004614da6565b6105b0565b34801561023a57600080fd5b506102436105d1565b6040516101af9190614e33565b34801561025c57600080fd5b5061027061026b366004614da6565b610629565b6040516101af9190614e78565b34801561028957600080fd5b506101a5610298366004614e86565b61067e565b3480156102a957600080fd5b506101926102b8366004614da6565b6106dd565b3480156102c957600080fd5b506102dd6102d8366004614da6565b6108c2565b6040516101af96959493929190614f96565b3480156102fb57600080fd5b5061019261030a366004614fee565b610a6d565b34801561031b57600080fd5b506101a560025481565b34801561033157600080fd5b50610345610340366004614da6565b611005565b6040516101af919061504f565b34801561035e57600080fd5b506101a561036d366004614dd4565b60086020526000908152604090205481565b34801561038b57600080fd5b5061019261039a3660046151e3565b611347565b3480156103ab57600080fd5b506000546040516001600160a01b0390911681526020016101af565b3480156103d357600080fd5b506101926103e2366004615264565b6117b8565b3480156103f357600080fd5b506101a5610402366004614dd4565b600b6020526000908152604090205481565b34801561042057600080fd5b5061019261042f366004614da6565b611878565b34801561044057600080fd5b506101a5600a5481565b34801561045657600080fd5b5061046a610465366004614da6565b611d10565b6040516101af9190615286565b34801561048357600080fd5b506101a5611d45565b34801561049857600080fd5b506101a560045481565b3480156104ae57600080fd5b506104c26104bd366004614e86565b611e07565b6040516101af929190615294565b3480156104dc57600080fd5b506104f06104eb366004614e86565b611f84565b6040516101af91906152c2565b34801561050957600080fd5b50610192610518366004615264565b6120d0565b34801561052957600080fd5b5061053d610538366004614da6565b612395565b6040516101af96959493929190615367565b6000546001600160a01b0316331461059f5760405162461bcd60e51b815260206004820152600e60248201526d139bdd08185d5d1a1bdc9a5e995960921b60448201526064015b60405180910390fd5b600455565b6105ad8161258e565b50565b600681815481106105c057600080fd5b600091825260209091200154905081565b6060600680548060200260200160405190810160405280929190818152602001828054801561061f57602002820191906000526020600020905b81548152602001906001019080831161060b575b5050505050905090565b610631614b6f565b60008281526005602052604090819020815180830192839052916002918201919082845b81546001600160a01b031681526001909101906020018083116106555750505050509050919050565b60006009600084846040516020016106979291906153bc565b60408051601f19818403018152918152815160209283012083528282019390935290820160009081206001600160a01b0386168252909152206002015490505b92915050565b600081815260056020526040902060028101546001600160a01b031633146107565760405162461bcd60e51b815260206004820152602660248201527f4f6e6c79207468652063726561746f722063616e2063616e63656c2074686520604482015265626174746c6560d01b6064820152608401610596565b6000600a82015460ff16600281111561077157610771614f06565b146107be5760405162461bcd60e51b815260206004820152601e60248201527f43616e6e6f742063616e63656c2061207374617274656420626174746c6500006044820152606401610596565b600a8101805460ff1916600217905533600090815260086020908152604080832083905584835260079091528120546006549091906107ff90600190615408565b9050600060068281548110610816576108166153dc565b906000526020600020015490508060068481548110610837576108376153dc565b600091825260208083209091019290925582815260079091526040902083905560068054806108685761086861541b565b60008281526020808220830160001990810183905590920190925586825260079052604080822082905551339187917fb91ae85405a99ffc07c694757cfbb7a52994c3b4daf39d040a6d56b1429ed7c79190a35050505050565b600560205260009081526040902080546001820180549192916108e490615431565b80601f016020809104026020016040519081016040528092919081815260200182805461091090615431565b801561095d5780601f106109325761010080835404028352916020019161095d565b820191906000526020600020905b81548152906001019060200180831161094057829003601f168201915b50505050600a830154600c8401546040805160c0810191829052949560ff8416956101009094046001600160a01b03169450919290600d83019082906080820190839060029082845b8154815260200190600101908083116109a657505050918352505060408051808201918290526020909201919060028481019182845b8154815260200190600101908083116109dc575050509183525050604080518082019182905260209092019190600484019060029082845b815481526020019060010190808311610a14575050509183525050604080518082019182905260209092019190600684019060029082845b815481526020019060010190808311610a4c57505050505081525050905086565b60008381526005602052604081208491610a9691600201905b01546001600160a01b03166125de565b6000818152600560205260409020610ab2906002016001610a86565b600081815260056020526040902060028101546003909101546001600160a01b03918216911633821480610aee5750336001600160a01b038216145b610b4b5760405162461bcd60e51b815260206004820152602860248201527f4f6e6c79207061727469636970616e74732063616e2063616c6c207468697320604482015267333ab731ba34b7b760c11b6064820152608401610596565b60008681526005602052604090206001600a82015460ff166002811115610b7457610b74614f06565b14610bd55760405162461bcd60e51b815260206004820152602b60248201527f426174746c6520686173206e6f742073746172746564206f722068617320616c60448201526a1c9958591e48195b99195960aa1b6064820152608401610596565b6000866003811115610be957610be9614f06565b1480610c0657506001866003811115610c0457610c04614f06565b145b80610c2257506002866003811115610c2057610c20614f06565b145b80610c3e57506003866003811115610c3c57610c3c614f06565b145b610cb05760405162461bcd60e51b815260206004820152603e60248201527f496e76616c6964206d6f76653a206d7573742062652041545441434b2c20444560448201527f46454e442c205553455f534b494c4c2c206f7220444f5f4e4f5448494e4700006064820152608401610596565b6000600282018101546001600160a01b03163314610ccf576001610cd2565b60005b60ff16905081600b018160028110610cec57610cec6153dc565b602081049091015460ff601f9092166101000a90041615610d4f5760405162461bcd60e51b815260206004820181905260248201527f4d6f766520616c7265616479207375626d697474656420627920706c617965726044820152606401610596565b60008833604051602001610d649291906153bc565b60408051601f19818403018152828252805160209182012060008181526009835283812033808352935292909220600c8701549294509290918c917f8aeb59a0d4a813dbcc0850f4aaf78c3bbdb6a8e181a23013ab163cc9a4cf647091610dcd918e919061546b565b60405180910390a36001896003811115610de957610de9614f06565b14158015610e0957506003896003811115610e0657610e06614f06565b14155b15610e6657610e16612626565b600c80830182905585015460405133928d927f44c60cf2e549d3f07067958fb2907081416087b158fe86d2ddad6ec761790c5892610e5d9290918252602082015260400190565b60405180910390a35b6002896003811115610e7a57610e7a614f06565b03610f20576000805b6007830154811015610ed05789836007018281548110610ea557610ea56153dc565b906000526020600020015403610ebe5760019150610ed0565b80610ec881615489565b915050610e83565b5080610f1e5760405162461bcd60e51b815260206004820152601f60248201527f5375626d697474656420736b696c6c206973206e6f74206571756970706564006044820152606401610596565b505b886003811115610f3257610f32614f06565b846006018460028110610f4757610f476153dc565b01556001600b85018460028110610f6057610f606153dc565b602091828204019190066101000a81548160ff02191690831515021790555060026003811115610f9257610f92614f06565b896003811115610fa457610fa4614f06565b03610fc25787846008018460028110610fbf57610fbf6153dc565b01555b600b84015460ff168015610fdf5750600b840154610100900460ff165b15610ff95760088401546009850154610ff9918c916126b0565b50505050505050505050565b61100d614b8d565b60056000838152602001908152602001600020604051806101600160405290816000820154815260200160018201805461104690615431565b80601f016020809104026020016040519081016040528092919081815260200182805461107290615431565b80156110bf5780601f10611094576101008083540402835291602001916110bf565b820191906000526020600020905b8154815290600101906020018083116110a257829003601f168201915b505050918352505060408051808201918290526020909201919060028481019182845b81546001600160a01b031681526001909101906020018083116110e2575050509183525050604080518082019182905260209092019190600484019060029082845b815481526020019060010190808311611124575050509183525050604080518082019182905260209092019190600684019060029082845b81548152602001906001019080831161115c575050509183525050604080518082019182905260209092019190600884019060029082845b815481526020019060010190808311611194575050509183525050600a82015460209091019060ff1660028111156111ce576111ce614f06565b60028111156111df576111df614f06565b8152600a82015461010090046001600160a01b0316602082015260408051808201808352919092019190600b840190600290826000855b825461010083900a900460ff1615158152602060019283018181049485019490930390920291018084116112165790505050509183525050600c82015460208201526040805160c081018252910190600d830181608081018260028282826020028201915b81548152602001906001019080831161127b57505050918352505060408051808201918290526020909201919060028481019182845b8154815260200190600101908083116112b1575050509183525050604080518082019182905260209092019190600484019060029082845b8154815260200190600101908083116112e9575050509183525050604080518082019182905260209092019190600684019060029082845b815481526020019060010190808311611321575050509190925250505090525092915050565b600c546040516331a9108f60e11b81526004810183905233916001600160a01b031690636352211e90602401602060405180830381865afa158015611390573d6000803e3d6000fd5b505050506040513d601f19601f820116820180604052508101906113b491906154a2565b6001600160a01b03161461140a5760405162461bcd60e51b815260206004820152601e60248201527f4e6f7420746865206f776e6572206f66207468652063686172616374657200006044820152606401610596565b33600090815260086020526040902054156114375760405162461bcd60e51b8152600401610596906154bf565b600a546040805161016081018252828152602080820186905282518084018452338152600081830181905283850191909152835180850185528681528083018290526060840152835180850185528181528083018290526080840152835180850190945280845290830181905260a082019290925260c08101828152600060208083018290526040805180820182528381528083018490528185015260016060808601829052825160c081018452608081810187815260a083018890528252845180860186528781528087018890528287015284518086018652878152808701889052828601528451808601865287815280870188905292820192909252950194909452868352600582529091208351815590830151929350839290918201906115619082615553565b5060408201516115779060028084019190614c0a565b50606082015161158d9060048301906002614c62565b5060808201516115a39060068301906002614c62565b5060a08201516115b99060088301906002614c62565b5060c0820151600a8201805460ff191660018360028111156115dd576115dd614f06565b021790555060e0820151600a82018054610100600160a81b0319166101006001600160a01b03909316830217905582015161161e90600b8301906002614c90565b50610120820151600c8201556101408201518051600d8301906116449082906002614c62565b50602082015161165a9060028084019190614c62565b5060408201516116709060048301906002614c62565b5060608201516116869060068301906002614c62565b5050600680546001818101835560008390527ff652222313e28459528d920b65115c16c04f3efc82aaedc97be59f3f377c0d3f90910187905590546116d094509092509050615408565b600083815260076020908152604080832093909355338083526008909152919020839055611700908490846129a6565b600c546004805460405163739420a560e01b815291820186905260248201526001600160a01b039091169063739420a590604401600060405180830381600087803b15801561174e57600080fd5b505af1158015611762573d6000803e3d6000fd5b50506040518581523392508491507fcd51df591e2f9319b98d783b63c675c8ab2e63d44101da9e5a12af2b1fcab4799060200160405180910390a3600a80549060006117ad83615489565b919050555050505050565b600c54604051631a3bcbcf60e11b8152600481018490526001600160a01b0390911690633477979e90602401600060405180830381600087803b1580156117fe57600080fd5b505af1158015611812573d6000803e3d6000fd5b5050600c54604051631a3bcbcf60e11b8152600481018590526001600160a01b039091169250633477979e9150602401600060405180830381600087803b15801561185c57600080fd5b505af1158015611870573d6000803e3d6000fd5b505050505050565b6000818152600560205260409020600201546001600160a01b03166118d35760405162461bcd60e51b8152602060048201526011602482015270426174746c65206e6f7420666f756e642160781b6044820152606401610596565b600060056000838152602001908152602001600020604051806101600160405290816000820154815260200160018201805461190e90615431565b80601f016020809104026020016040519081016040528092919081815260200182805461193a90615431565b80156119875780601f1061195c57610100808354040283529160200191611987565b820191906000526020600020905b81548152906001019060200180831161196a57829003601f168201915b505050918352505060408051808201918290526020909201919060028481019182845b81546001600160a01b031681526001909101906020018083116119aa575050509183525050604080518082019182905260209092019190600484019060029082845b8154815260200190600101908083116119ec575050509183525050604080518082019182905260209092019190600684019060029082845b815481526020019060010190808311611a24575050509183525050604080518082019182905260209092019190600884019060029082845b815481526020019060010190808311611a5c575050509183525050600a82015460209091019060ff166002811115611a9657611a96614f06565b6002811115611aa757611aa7614f06565b8152600a82015461010090046001600160a01b0316602082015260408051808201808352919092019190600b840190600290826000855b825461010083900a900460ff161515815260206001928301818104948501949093039092029101808411611ade5790505050509183525050600c82015460208201526040805160c081018252910190600d830181608081018260028282826020028201915b815481526020019060010190808311611b4357505050918352505060408051808201918290526020909201919060028481019182845b815481526020019060010190808311611b79575050509183525050604080518082019182905260209092019190600484019060029082845b815481526020019060010190808311611bb1575050509183525050604080518082019182905260209092019190600684019060029082845b815481526020019060010190808311611be957505050919092525050509052506040810151519091506001600160a01b0316331480611c3857506040810151602001516001600160a01b031633145b611c845760405162461bcd60e51b815260206004820152601b60248201527f596f7520617265206e6f7420696e207468697320626174746c652100000000006044820152606401610596565b336001600160a01b0316827f3ff46d129afe6d0143c3e8ba124cdf4f4a5552918a50cd50b784ca9bdce4e357836101200151604051611cc591815260200190565b60405180910390a36040810151516001600160a01b03163314611cfe576040810151611cfa90839060005b6020020151612e1a565b5050565b6040810151611cfa9083906001611cf0565b611d18614b6f565b50600090815260056020908152604091829020825180840190935260068101548352600701549082015290565b600080600160009054906101000a90046001600160a01b03166001600160a01b031663feaf968c6040518163ffffffff1660e01b815260040160a060405180830381865afa158015611d9b573d6000803e3d6000fd5b505050506040513d601f19601f82011682018060405250810190611dbf9190615631565b5050509150506000816402540be400611dd89190615681565b905066b1a2bc2ec5000081611df582670de0b6b3a76400006156b1565b611dff91906156de565b935050505090565b60608060008484604051602001611e1f9291906153bc565b60408051601f1981840301815291815281516020928301206000818152600984528281206001600160a01b03891682529093529120600881015491925090806001600160401b03811115611e7557611e7561512b565b604051908082528060200260200182016040528015611e9e578160200160208202803683370190505b509450806001600160401b03811115611eb957611eb961512b565b604051908082528060200260200182016040528015611ee2578160200160208202803683370190505b50935060005b81811015611f79576000836008018281548110611f0757611f076153dc565b9060005260206000200154905080878381518110611f2757611f276153dc565b60200260200101818152505083600901600082815260200190815260200160002054868381518110611f5b57611f5b6153dc565b60209081029190910101525080611f7181615489565b915050611ee8565b505050509250929050565b611fd56040518061010001604052806000815260200160006001600160a01b031681526020016000815260200160008152602001600081526020016000815260200160008152602001606081525090565b60008383604051602001611fea9291906153bc565b60408051601f1981840301815282825280516020918201206000818152600983528381206001600160a01b03808a16835290845284822061010087018652805487526001810154909116868501526002810154868601526003810154606087015260048101546080870152600581015460a0870152600681015460c087015260078101805486518187028101870190975280875293975090959194919360e0850193908301828280156120bc57602002820191906000526020600020905b8154815260200190600101908083116120a8575b505050919092525090979650505050505050565b600c546040516331a9108f60e11b81526004810183905233916001600160a01b031690636352211e90602401602060405180830381865afa158015612119573d6000803e3d6000fd5b505050506040513d601f19601f8201168201806040525081019061213d91906154a2565b6001600160a01b0316146121935760405162461bcd60e51b815260206004820152601e60248201527f4e6f7420746865206f776e6572206f66207468652063686172616374657200006044820152606401610596565b33600090815260086020526040902054156121c05760405162461bcd60e51b8152600401610596906154bf565b600082815260056020526040812090600a82015460ff1660028111156121e8576121e8614f06565b146122355760405162461bcd60e51b815260206004820152601a60248201527f426174746c652068617320616c726561647920737461727465640000000000006044820152606401610596565b60038101546001600160a01b0316156122905760405162461bcd60e51b815260206004820152601e60248201527f426174746c6520616c7265616479206861732074776f20706c617965727300006044820152606401610596565b600581018290556003810180546001600160a01b03191633908117909155600a8201805460ff1916600117905560008181526008602052604090208490556122da908390856129a6565b600c546004805460405163739420a560e01b815291820185905260248201526001600160a01b039091169063739420a590604401600060405180830381600087803b15801561232857600080fd5b505af115801561233c573d6000803e3d6000fd5b50505050600281015460405133916001600160a01b03169085907f062c68eb2a964de2eed3fb17d55e0f1609ab0b928d7b24a44821401688ceafab90612388906001870190889061576f565b60405180910390a4505050565b600061239f614b6f565b6123a7614b6f565b6123af614b6f565b600085815260056020526040808220600c8101548251808401938490529097508392601383019060029082845b8154815260200190600101908083116123dc5750506040805180820191829052949a5060118601935060029250905082845b81548152602001906001019080831161240e5750505050509450600081600201600060028110612440576124406153dc565b01546001600160a01b03169050600060028301600101546001600160a01b031690506000600f840181015490506000600f85016001015490506000600960008e876040516020016124929291906153bc565b60408051601f19818403018152918152815160209283012083528282019390935290820160009081206001600160a01b038916825290915220600501546124d99084615408565b90506000600960008f876040516020016124f49291906153bc565b60408051601f19818403018152918152815160209283012083528282019390935290820160009081206001600160a01b0389168252909152206005015461253b9084615408565b6040805180820190915283815260208101829052600a890154909b506001600160a01b0361010090910481169a509091508616891461257a578561257c565b845b97505050505050505091939550919395565b600080546001600160a01b038381166001600160a01b0319831681178455604051919092169283917f8292fce18fa69edf4db7b94ea2e58241df0ae57f97e0a6c9b29067028bf92d769190a35050565b6040516001600160a01b03821660248201526105ad9060440160408051601f198184030181529190526020810180516001600160e01b031663161765e160e11b179052613137565b600080601444423360405160200161266393929190928352602083019190915260601b6bffffffffffffffffffffffff1916604082015260540190565b6040516020818303038152906040528051906020012060001c6126869190615791565b6126919060016157a5565b905061269e8160646156b1565b6126aa906103e86157a5565b91505090565b6000838152600560205260408120906126d98560028401835b01546001600160a01b0316613158565b905060006126ec866002850160016126c9565b90506126f6614b6f565b6126fe614b6f565b612706614b6f565b6127158987600c0154876131ac565b8152600c860154612728908a90866131ac565b6020820152600b85015460ff161561274257600360068701555b600b84015460ff161561275757600360078701555b612762868686613389565b600686015460021480159061277c57506007860154600214155b156127915761278c8686866133e4565b935091505b6006860154600119016127c9578554600c8701546127bb9190878b8860068c0160015b0154613537565b83526001600160a01b031683525b60078601546001190161280a578554600c8701546127f09190868a8960068c0160006127b4565b6020848101919091526001600160a01b0391909116908401525b61281681868685613894565b6001600c86810182905585015581516011870180546000906128399084906157a5565b909155505060208201516012870180546000906128579084906157a5565b909155505060208201516013870180546000906128759084906157a5565b909155505081516014870180546000906128909084906157a5565b9250508190555085600c0154897f1c18d51d882ce69ed20679aff51d0bc25f77878b0bbc4051e6d9ab2342f5e47f85856040518060400160405280886001600281106128de576128de6153dc565b60200201518152602001886000600281106128fb576128fb6153dc565b60200201519052604051612911939291906157b8565b60405180910390a36002850154158061292c57506002840154155b156129715760028085015490860154600091106129565760038701546001600160a01b0316612965565b60028701546001600160a01b03165b9050610ff98a82612e1a565b600b8601805461ffff19169055600c86018054600191906000906129969084906157a5565b9091555050505050505050505050565b600081836040516020016129bb9291906153bc565b60408051808303601f1901815282825280516020918201206000818152600983528381206001600160a01b03898116808452919094529390208881556001810180546001600160a01b031916909417909355600c546316442a7f60e11b8552600485018990529094509192911690632c8854fe90602401602060405180830381865afa158015612a4f573d6000803e3d6000fd5b505050506040513d601f19601f82011682018060405250810190612a7391906157e8565b6002820155600c546040516319ddc96160e21b8152600481018790526001600160a01b0390911690636777258490602401602060405180830381865afa158015612ac1573d6000803e3d6000fd5b505050506040513d601f19601f82011682018060405250810190612ae591906157e8565b6003820155600c546040516323ce9af360e11b8152600481018790526001600160a01b039091169063479d35e690602401602060405180830381865afa158015612b33573d6000803e3d6000fd5b505050506040513d601f19601f82011682018060405250810190612b5791906157e8565b600482810191909155600c54604051633a274a5560e11b81529182018790526001600160a01b03169063744e94aa90602401602060405180830381865afa158015612ba6573d6000803e3d6000fd5b505050506040513d601f19601f82011682018060405250810190612bca91906157e8565b6005820155600c54604051631bd2a47760e01b8152600481018790526001600160a01b0390911690631bd2a47790602401602060405180830381865afa158015612c18573d6000803e3d6000fd5b505050506040513d601f19601f82011682018060405250810190612c3c91906157e8565b6006820155600c5460405163806227f560e01b8152600481018790526001600160a01b039091169063806227f590602401600060405180830381865afa158015612c8a573d6000803e3d6000fd5b505050506040513d6000823e601f3d908101601f19168201604052612cb29190810190615801565b8051612cc8916007840191602090910190614d1d565b50612ceb604051806060016040528060228152602001615c406022913985613939565b612d1b604051806040016040528060078152602001662432b0b63a341d60c91b815250826002016000015461397e565b612d496040518060400160405280600581526020016426b0b7309d60d91b815250826002016003015461397e565b600083815260056020526040902060028101546001600160a01b0390811690861603612d88576002820154600d8201556005820154600f820155612d9d565b6002820154600e820155600582015460108201555b81546001830154600284015460038501546004860154600587015460068801546040517f3f6e56e1bcf6454c5e7f32cffe9f99778fd7cf50a886af17d91dcebb8e35250f97612e0a978d978f9792966001600160a01b0390921695909492939192909160078e01906158a6565b60405180910390a1505050505050565b6000828152600560205260409020600a8101805460ff196001600160a01b03851661010002166001600160a81b0319909116176002179055612e5b836139c3565b600281015460038201546001600160a01b03918216600081815260086020526040808220829055928416808252928120819055909285168314612e9e5782612ea0565b815b90506000836001600160a01b0316866001600160a01b031614612ec4576001612ec7565b60005b60ff1690506000846001600160a01b0316836001600160a01b031614612eee576001612ef1565b60005b60ff169050612f0288878484613a80565b6000600960008a88604051602001612f1b9291906153bc565b6040516020818303038152906040528051906020012081526020019081526020016000206000876001600160a01b03166001600160a01b031681526020019081526020016000206002016000015490506000600960008b88604051602001612f849291906153bc565b60408051601f19818403018152918152815160209283012083528282019390935290820160009081206001600160a01b038a168252909152908120600201549150821580612fd0575081155b905080156130db57600c546001600160a01b0316636a0558a660048b018760028110612ffe57612ffe6153dc565b01546040516001600160e01b031960e084901b168152600481019190915260646024820152604401600060405180830381600087803b15801561304057600080fd5b505af1158015613054573d6000803e3d6000fd5b5050600c546001600160a01b03169150636a0558a6905060048b018660028110613080576130806153dc565b01546040516001600160e01b031960e084901b1681526004810191909152601e6024820152604401600060405180830381600087803b1580156130c257600080fd5b505af11580156130d6573d6000803e3d6000fd5b505050505b856001600160a01b03168a6001600160a01b03168c7f0baf086d5a49a7d9df72185aa0488cadd724e398bb5e99c615ee24c699deba918c6001016040516131229190615943565b60405180910390a45050505050505050505050565b80516a636f6e736f6c652e6c6f67602083016000808483855afa5050505050565b600080838360405160200161316e9291906153bc565b60408051601f1981840301815291815281516020928301206000908152600983528181206001600160a01b0387168252909252902091505092915050565b60008060008060008060008060006131e4600d60009054906101000a90046001600160a01b03168c8c613c799092919063ffffffff16565b9750975097509750975097509750975060005b86518110156133785787801561327357506040516339ba3ab760e11b602082015260240160405160208183030381529060405280519060200120858281518110613243576132436153dc565b602002602001015160405160200161325b9190615956565b60405160208183030381529060405280519060200120145b156133665760018b015487516001600160a01b03909116908e907f42cc68fd968d66bad9f556a6420453409337a500953cec681ce375d56c143d8e908a90859081106132c1576132c16153dc565b60200260200101518985815181106132db576132db6153dc565b60200260200101518986815181106132f5576132f56153dc565b602002602001015189878151811061330f5761330f6153dc565b6020026020010151898881518110613329576133296153dc565b6020026020010151898981518110613343576133436153dc565b602002602001015160405161335d96959493929190615972565b60405180910390a35b8061337081615489565b9150506131f7565b50969b9a5050505050505050505050565b6006830154600019016133b45760038260020160030160008282546133ae91906157a5565b90915550505b6007830154600019016133df5760038160020160030160008282546133d991906157a5565b90915550505b505050565b6133ec614b6f565b6133f4614b6f565b6133fc614b6f565b613404614b6f565b600687015460078801548115801561341a575080155b156134335761342a89898961455b565b94509250613528565b811580156134415750600181145b156134515761342a89898961468c565b60018214801561345f575080155b1561346f5761342a898989614780565b8115801561347d5750600381145b1561348d5761342a89898961486b565b60038214801561349b575080155b156134ab5761342a8989896148f5565b811580156134b95750600281145b156134c95761342a89898961486b565b6002821480156134d7575080155b156134e75761342a8989896148f5565b6001821480156134f75750600281145b156135055761342a88614988565b6002821480156135155750600181145b156135285761352387614988565b945092505b50909791965090945050505050565b600d54604051635ec407d760e11b815260048101859052600091829182916001600160a01b03169063bd880fae90602401600060405180830381865afa158015613585573d6000803e3d6000fd5b505050506040513d6000823e601f3d908101601f191682016040526135ad9190810190615a01565b905060006103e8826040015189600c01546135c891906156b1565b6135d291906156de565b9050806001860361360157600487015482116135ef5760006135fe565b60048701546135fe9083615408565b90505b60008115613640576002880154821061361b57600061362b565b600288015461362b908390615408565b60028901555060018701546001600160a01b03165b8960010160009054906101000a90046001600160a01b03166001600160a01b03168c7f1ecb56d20fc766331c458aed06ae76e03aa301e223d100edbc01a21eaf7ffa228d8c88602001518760405161369b9493929190615a98565b60405180910390a3600d546080850151604051631187bd5160e01b815260048101919091526000916001600160a01b031690631187bd5190602401600060405180830381865afa1580156136f3573d6000803e3d6000fd5b505050506040513d6000823e601f3d908101601f1916820160405261371b9190810190615ad8565b90508060400151156137c7576080850151606082015160088d0180546001810182556000918252602080832090910184905592815260098e019092526040909120558860010160009054906101000a90046001600160a01b03166001600160a01b03168d7ff8c9f3444c314390f17c07435638f20d537b994d7767fd8e9a2bd203791d3ef78e846020015185606001516040516137ba93929190615bc2565b60405180910390a3613863565b6080850151606082015160088b0180546001810182556000918252602080832090910184905592815260098c019092526040909120558860010160009054906101000a90046001600160a01b03166001600160a01b03168d7ff8c9f3444c314390f17c07435638f20d537b994d7767fd8e9a2bd203791d3ef78e8460200151856060015160405161385a93929190615bc2565b60405180910390a35b606085015160058c01805460009061387c908490615408565b90915550919d929c50919a5050505050505050505050565b8351600284015411156138c25783516002840180546000906138b7908490615408565b909155506138ca9050565b600060028401555b6020840151600283015411156138fe5760208401516002830180546000906138f3908490615408565b909155506139069050565b600060028301555b8351815182906139179083906157a5565b90525060208085015190820180516139309083906157a5565b90525050505050565b611cfa828260405160240161394f929190615beb565b60408051601f198184030181529190526020810180516001600160e01b031663319af33360e01b179052613137565b611cfa8282604051602401613994929190615c15565b60408051601f198184030181529190526020810180516001600160e01b0316632d839cb360e21b179052613137565b6000818152600760205260408120546006549091906139e490600190615408565b90506000600682815481106139fb576139fb6153dc565b906000526020600020015490508060068481548110613a1c57613a1c6153dc565b60009182526020808320909101929092558281526007909152604090208390556006805480613a4d57613a4d61541b565b60019003818190600052602060002001600090559055600760008581526020019081526020016000206000905550505050565b600283015460038401546040516001600160a01b0392831692909116906000906009908290613ab5908a9087906020016153bc565b60408051808303601f19018152918152815160209283012083528282019390935290820160009081206001600160a01b03871682529091522060050154600f870154613b019190615408565b90506000600960008985604051602001613b1c9291906153bc565b60408051808303601f19018152918152815160209283012083528282019390935290820160009081206001600160a01b038716825290915220600501546010880154613b689190615408565b600c549091506001600160a01b03166345d5007e600489018860028110613b9157613b916153dc565b0154846040518363ffffffff1660e01b8152600401613bba929190918252602082015260400190565b600060405180830381600087803b158015613bd457600080fd5b505af1158015613be8573d6000803e3d6000fd5b5050600c546001600160a01b031691506345d5007e9050600489018760028110613c1457613c146153dc565b0154836040518363ffffffff1660e01b8152600401613c3d929190918252602082015260400190565b600060405180830381600087803b158015613c5757600080fd5b505af1158015613c6b573d6000803e3d6000fd5b505050505050505050505050565b60088301546000908190606090819081908190819081906001600160401b03811115613ca757613ca761512b565b604051908082528060200260200182016040528015613cd0578160200160208202803683370190505b5060088c01549096506001600160401b03811115613cf057613cf061512b565b604051908082528060200260200182016040528015613d2357816020015b6060815260200190600190039081613d0e5790505b5060088c01549095506001600160401b03811115613d4357613d4361512b565b604051908082528060200260200182016040528015613d7657816020015b6060815260200190600190039081613d615790505b5060088c01549094506001600160401b03811115613d9657613d9661512b565b604051908082528060200260200182016040528015613dbf578160200160208202803683370190505b5060088c01549093506001600160401b03811115613ddf57613ddf61512b565b604051908082528060200260200182016040528015613e08578160200160208202803683370190505b5060088c01549092506001600160401b03811115613e2857613e2861512b565b604051908082528060200260200182016040528015613e51578160200160208202803683370190505b50905060005b60088c015481101561453b5760008c6008018281548110613e7a57613e7a6153dc565b6000918252602082200154604051631187bd5160e01b8152600481018290529092506001600160a01b038e1690631187bd5190602401600060405180830381865afa158015613ecd573d6000803e3d6000fd5b505050506040513d6000823e601f3d908101601f19168201604052613ef59190810190615ad8565b90508061014001518015613f185750600082815260098f01602052604090205415155b15613f7c57600199506040518060400160405280600481526020016339ba3ab760e11b815250878481518110613f5057613f506153dc565b60200260200101819052506001868481518110613f6f57613f6f6153dc565b6020026020010181815250505b600082815260098f0160205260408120805460019290613f9d908490615408565b909155505060808101511561402057613fbb8e8383608001516149d5565b6040518060400160405280600b81526020016a185d1d1858dad09bdbdcdd60aa1b815250878481518110613ff157613ff16153dc565b60200260200101819052508060800151868481518110614013576140136153dc565b6020026020010181815250505b60a0810151156140a2576140398e838360a00151614a1c565b6040518060400160405280600f81526020016e30ba3a30b1b5a932b23ab1ba34b7b760891b815250878481518110614073576140736153dc565b60200260200101819052508060a00151868481518110614095576140956153dc565b6020026020010181815250505b60c081015115614121576140bb8e838360c00151614a7b565b6040518060400160405280600c81526020016b191959995b9cd9509bdbdcdd60a21b8152508784815181106140f2576140f26153dc565b60200260200101819052508060c00151868481518110614114576141146153dc565b6020026020010181815250505b60e0810151156141a45761413a8e838360e00151614ac2565b6040518060400160405280601081526020016f3232b332b739b2a932b23ab1ba34b7b760811b815250878481518110614175576141756153dc565b60200260200101819052508060e00151868481518110614197576141976153dc565b6020026020010181815250505b61010081015115614224576141be8e826101000151614b21565b6040518060400160405280600b81526020016a3432b0b62832b92a3ab93760a91b8152508784815181106141f4576141f46153dc565b6020026020010181905250806101000151868481518110614217576142176153dc565b6020026020010181815250505b610120810151156142db5760008e60020160000154905061424a8f836101200151614b41565b60028f01548111156142725760028f01546142659082615408565b61426f908d6157a5565b9b505b6040518060400160405280600d81526020016c3230b6b0b3b2a832b92a3ab93760991b8152508885815181106142aa576142aa6153dc565b60200260200101819052508161012001518785815181106142cd576142cd6153dc565b602002602001018181525050505b600082815260098f01602052604081205490036144925760808101511561433357608081015160038f018054600090614315908490615408565b90915550506000828152600a8f0160205260409020805460ff191690555b60a0810151156143745760a081015160038f0180546000906143569084906157a5565b90915550506000828152600a8f0160205260409020805460ff191690555b60c0810151156143b55760c081015160048f018054600090614397908490615408565b90915550506000828152600a8f0160205260409020805460ff191690555b60e0810151156143f65760e081015160048f0180546000906143d89084906157a5565b90915550506000828152600a8f0160205260409020805460ff191690555b60088e0154600110156144525760088e01805461441590600190615408565b81548110614425576144256153dc565b90600052602060002001548e6008018481548110614445576144456153dc565b6000918252602090912001555b8d6008018054806144655761446561541b565b600190038181906000526020600020016000905590556000831115614492578261448e81615c28565b9350505b818984815181106144a5576144a56153dc565b60200260200101818152505080602001518884815181106144c8576144c86153dc565b60200260200101819052508b8584815181106144e6576144e66153dc565b6020026020010181815250508d60090160008381526020019081526020016000205484848151811061451a5761451a6153dc565b6020026020010181815250505050808061453390615489565b915050613e57565b50600b8b01805488151560ff199091161790559397509397509397509397565b614563614b6f565b61456b614b6f565b60006103e885600c0154866002016001015461458791906156b1565b61459191906156de565b905060006103e885600c015486600201600101546145af91906156b1565b6145b991906156de565b9050818560020160000154116145d05760006145e0565b60028501546145e0908390615408565b60028087019190915586015481106145f9576000614609565b6002860154614609908290615408565b600287015560058601805460039190600090614626908490615408565b909155505060058501805460039190600090614643908490615408565b909155505060408051808201825260028901546001600160a01b0390811682526003909901549098166020808a0191909152815180830190925292815291820152959350505050565b614694614b6f565b61469c614b6f565b6040518060400160405280600081526020016000815250915060006103e885600c015486600201600101546146d191906156b1565b6146db91906156de565b9050808460020160020154101561473d5760048401546000906146fe9083615408565b905080856002016000015411614715576000614725565b6002850154614725908290615408565b600286015560038701546001600160a01b0316835283525b60038560020160030160008282546147559190615408565b9091555050600584018054600391906000906147729084906157a5565b909155505050935093915050565b614788614b6f565b614790614b6f565b6040518060400160405280600081526020016000815250915060006103e884600c015485600201600101546147c591906156b1565b6147cf91906156de565b905080856002016002015410156148365760048501546000906147f29083615408565b905080866002016000015411614809576000614819565b6002860154614819908290615408565b6002878101919091558701546001600160a01b0316835260208401525b600385600201600301600082825461484e91906157a5565b909155505060058401805460039190600090614772908490615408565b614873614b6f565b61487b614b6f565b60006103e885600c0154866002016001015461489791906156b1565b6148a191906156de565b9050808460020160000154116148b85760006148c8565b60028401546148c8908290615408565b60028501556003808701546001600160a01b03168352818452600586018054600090614772908490615408565b6148fd614b6f565b614905614b6f565b60006103e884600c0154856002016001015461492191906156b1565b61492b91906156de565b905080856002016000015411614942576000614952565b6002850154614952908290615408565b6002868101919091558601546001600160a01b031682526020830181905260058401805460039190600090614772908490615408565b614990614b6f565b614998614b6f565b6040518060400160405280600081526020016000815250915060038360020160030160008282546149c991906157a5565b92505081905550915091565b6000828152600a8401602052604090205460ff166133df576000828152600a840160205260408120805460ff191660011790556003840180548392906133d99084906157a5565b6000828152600a8401602052604090205460ff166133df576000828152600a840160205260409020805460ff1916600117905560038301548110614a61576000614a71565b6003830154614a71908290615408565b6003840155505050565b6000828152600a8401602052604090205460ff166133df576000828152600a840160205260408120805460ff191660011790556004840180548392906133d99084906157a5565b6000828152600a8401602052604090205460ff166133df576000828152600a840160205260409020805460ff1916600117905560048301548110614b07576000614b17565b6004830154614b17908290615408565b6004840155505050565b80826002016000016000828254614b3891906157a5565b90915550505050565b60028201548110614b53576000614b63565b6002820154614b63908290615408565b60029092019190915550565b60405180604001604052806002906020820280368337509192915050565b6040518061016001604052806000815260200160608152602001614baf614b6f565b8152602001614bbc614b6f565b8152602001614bc9614b6f565b8152602001614bd6614b6f565b81526020016000815260006020820152604001614bf1614b6f565b815260200160008152602001614c05614d57565b905290565b8260028101928215614c52579160200282015b82811115614c5257825182546001600160a01b0319166001600160a01b03909116178255602090920191600190910190614c1d565b50614c5e929150614d91565b5090565b8260028101928215614c52579160200282015b82811115614c52578251825591602001919060010190614c75565b600183019183908215614c525791602002820160005b83821115614ce357835183826101000a81548160ff0219169083151502179055509260200192600101602081600001049283019260010302614ca6565b8015614d105782816101000a81549060ff0219169055600101602081600001049283019260010302614ce3565b5050614c5e929150614d91565b828054828255906000526020600020908101928215614c525791602002820182811115614c52578251825591602001919060010190614c75565b6040518060800160405280614d6a614b6f565b8152602001614d77614b6f565b8152602001614d84614b6f565b8152602001614c05614b6f565b5b80821115614c5e5760008155600101614d92565b600060208284031215614db857600080fd5b5035919050565b6001600160a01b03811681146105ad57600080fd5b600060208284031215614de657600080fd5b8135614df181614dbf565b9392505050565b600081518084526020808501945080840160005b83811015614e2857815187529582019590820190600101614e0c565b509495945050505050565b602081526000614df16020830184614df8565b8060005b6002811015614e725781516001600160a01b0316845260209384019390910190600101614e4a565b50505050565b604081016106d78284614e46565b60008060408385031215614e9957600080fd5b823591506020830135614eab81614dbf565b809150509250929050565b60005b83811015614ed1578181015183820152602001614eb9565b50506000910152565b60008151808452614ef2816020860160208601614eb6565b601f01601f19169290920160200192915050565b634e487b7160e01b600052602160045260246000fd5b60038110614f2c57614f2c614f06565b9052565b8060005b6002811015614e72578151845260209384019390910190600101614f34565b614f5e828251614f30565b6020810151614f706040840182614f30565b506040810151614f836080840182614f30565b5060608101516133df60c0840182614f30565b60006101a0888352806020840152614fb081840189614eda565b915050614fc06040830187614f1c565b6001600160a01b038516606083015260808201849052614fe360a0830184614f53565b979650505050505050565b60008060006060848603121561500357600080fd5b8335925060208401356004811061501957600080fd5b929592945050506040919091013590565b8060005b6002811015614e72578151151584526020938401939091019060010161502e565b6020815281516020820152600060208301516102e06040840152615077610300840182614eda565b9050604084015161508b6060850182614e46565b50606084015161509e60a0850182614f30565b5060808401516150b160e0850182614f30565b5060a08401516101206150c681860183614f30565b60c086015191506150db610160860183614f1c565b60e08601516001600160a01b031661018086015261010086015191506151056101a086018361502a565b8501516101e085015250610140840151615123610200850182614f53565b509392505050565b634e487b7160e01b600052604160045260246000fd5b60405160a081016001600160401b03811182821017156151635761516361512b565b60405290565b60405161016081016001600160401b03811182821017156151635761516361512b565b604051601f8201601f191681016001600160401b03811182821017156151b4576151b461512b565b604052919050565b60006001600160401b038211156151d5576151d561512b565b50601f01601f191660200190565b600080604083850312156151f657600080fd5b82356001600160401b0381111561520c57600080fd5b8301601f8101851361521d57600080fd5b803561523061522b826151bc565b61518c565b81815286602083850101111561524557600080fd5b8160208401602083013760006020928201830152969401359450505050565b6000806040838503121561527757600080fd5b50508035926020909101359150565b604081016106d78284614f30565b6040815260006152a76040830185614df8565b82810360208401526152b98185614df8565b95945050505050565b60006020808352610120830184518285015260018060a01b03828601511660408501526040850151606085015260608501516080850152608085015160a085015260a085015160c085015260c085015160e085015260e0850151610100808187015250818151808452610140870191508483019350600092505b8083101561535c578351825292840192600192909201919084019061533c565b509695505050505050565b868152610120810161537c6020830188614f30565b6153896060830187614f30565b61539660a0830186614f30565b6001600160a01b0393841660e08301529190921661010090920191909152949350505050565b91825260601b6bffffffffffffffffffffffff1916602082015260340190565b634e487b7160e01b600052603260045260246000fd5b634e487b7160e01b600052601160045260246000fd5b818103818111156106d7576106d76153f2565b634e487b7160e01b600052603160045260246000fd5b600181811c9082168061544557607f821691505b60208210810361546557634e487b7160e01b600052602260045260246000fd5b50919050565b604081016004841061547f5761547f614f06565b9281526020015290565b60006001820161549b5761549b6153f2565b5060010190565b6000602082840312156154b457600080fd5b8151614df181614dbf565b6020808252602e908201527f506c6179657220616c72656164792070617274696369706174696e6720696e2060408201526d616e6f7468657220626174746c6560901b606082015260800190565b601f8211156133df57600081815260208120601f850160051c810160208610156155345750805b601f850160051c820191505b8181101561187057828155600101615540565b81516001600160401b0381111561556c5761556c61512b565b6155808161557a8454615431565b8461550d565b602080601f8311600181146155b5576000841561559d5750858301515b600019600386901b1c1916600185901b178555611870565b600085815260208120601f198616915b828110156155e4578886015182559484019460019091019084016155c5565b50858210156156025787850151600019600388901b60f8161c191681555b5050505050600190811b01905550565b805169ffffffffffffffffffff8116811461562c57600080fd5b919050565b600080600080600060a0868803121561564957600080fd5b61565286615612565b945060208601519350604086015192506060860151915061567560808701615612565b90509295509295909350565b80820260008212600160ff1b8414161561569d5761569d6153f2565b81810583148215176106d7576106d76153f2565b80820281158282048414176106d7576106d76153f2565b634e487b7160e01b600052601260045260246000fd5b6000826156ed576156ed6156c8565b500490565b600081546156ff81615431565b80855260206001838116801561571c576001811461573657615764565b60ff1985168884015283151560051b880183019550615764565b866000528260002060005b8581101561575c5781548a8201860152908301908401615741565b890184019650505b505050505092915050565b60408152600061578260408301856156f2565b90508260208301529392505050565b6000826157a0576157a06156c8565b500690565b808201808211156106d7576106d76153f2565b60c081016157c68286614e46565b6157d36040830185614f30565b6157e06080830184614f30565b949350505050565b6000602082840312156157fa57600080fd5b5051919050565b6000602080838503121561581457600080fd5b82516001600160401b038082111561582b57600080fd5b818501915085601f83011261583f57600080fd5b8151818111156158515761585161512b565b8060051b915061586284830161518c565b818152918301840191848101908884111561587c57600080fd5b938501935b8385101561589a57845182529385019390850190615881565b98975050505050505050565b60006101408083018d8452602060018060a01b03808f16828701528d6040870152808d166060870152508a60808601528960a08601528860c08601528760e086015286610100860152826101208601528192508554808352610160860193508660005281600020925060005b8181101561592e57835485529382019360019384019301615912565b50929f9e505050505050505050505050505050565b602081526000614df160208301846156f2565b60008251615968818460208701614eb6565b9190910192915050565b86815260c06020820152600061598b60c0830188614eda565b828103604084015261599d8188614eda565b60608401969096525050608081019290925260a0909101529392505050565b600082601f8301126159cd57600080fd5b81516159db61522b826151bc565b8181528460208386010111156159f057600080fd5b6157e0826020830160208701614eb6565b600060208284031215615a1357600080fd5b81516001600160401b0380821115615a2a57600080fd5b9083019060a08286031215615a3e57600080fd5b615a46615141565b82518152602083015182811115615a5c57600080fd5b615a68878286016159bc565b60208301525060408301516040820152606083015160608201526080830151608082015280935050505092915050565b848152836020820152608060408201526000615ab76080830185614eda565b905082606083015295945050505050565b8051801515811461562c57600080fd5b600060208284031215615aea57600080fd5b81516001600160401b0380821115615b0157600080fd5b908301906101608286031215615b1657600080fd5b615b1e615169565b82518152602083015182811115615b3457600080fd5b615b40878286016159bc565b602083015250615b5260408401615ac8565b6040820152606083015160608201526080830151608082015260a083015160a082015260c083015160c082015260e083015160e082015261010091508183015182820152610120915081830151828201526101409150615bb3828401615ac8565b91810191909152949350505050565b838152606060208201526000615bdb6060830185614eda565b9050826040830152949350505050565b604081526000615bfe6040830185614eda565b905060018060a01b03831660208301529392505050565b6040815260006157826040830185614eda565b600081615c3757615c376153f2565b50600019019056fe4368617261637465722070726f7879206372656174656420666f7220706c61796572a2646970667358221220f91e5f06c2c05e96366c800727dcb9b0b5ed22a129cbb3743181a3a7156f627d64736f6c63430008110033",
  "linkReferences": {},
  "deployedLinkReferences": {}
}