{
  "_format": "hh-sol-artifact-1",
  "contractName": "Battle",
  "sourceName": "contracts/Battle.sol",
  "abi": [
    {
      "inputs": [
        {
          "internalType": "address",
          "name": "_characterContractAddress",
          "type": "address"
        },
        {
          "internalType": "address",
          "name": "_battleSkillsContractAddress",
          "type": "address"
        }
      ],
      "stateMutability": "nonpayable",
      "type": "constructor"
    },
    {
      "anonymous": false,
      "inputs": [
        {
          "indexed": true,
          "internalType": "uint256",
          "name": "battleId",
          "type": "uint256"
        },
        {
          "indexed": true,
          "internalType": "address",
          "name": "player",
          "type": "address"
        }
      ],
      "name": "BattleCancelled",
      "type": "event"
    },
    {
      "anonymous": false,
      "inputs": [
        {
          "indexed": true,
          "internalType": "uint256",
          "name": "battleId",
          "type": "uint256"
        },
        {
          "indexed": true,
          "internalType": "address",
          "name": "creator",
          "type": "address"
        },
        {
          "indexed": false,
          "internalType": "uint256",
          "name": "characterId",
          "type": "uint256"
        }
      ],
      "name": "BattleCreated",
      "type": "event"
    },
    {
      "anonymous": false,
      "inputs": [
        {
          "indexed": false,
          "internalType": "string",
          "name": "battleName",
          "type": "string"
        },
        {
          "indexed": true,
          "internalType": "uint256",
          "name": "battleId",
          "type": "uint256"
        },
        {
          "indexed": true,
          "internalType": "address",
          "name": "winner",
          "type": "address"
        },
        {
          "indexed": true,
          "internalType": "address",
          "name": "loser",
          "type": "address"
        }
      ],
      "name": "BattleEnded",
      "type": "event"
    },
    {
      "anonymous": false,
      "inputs": [
        {
          "indexed": true,
          "internalType": "uint256",
          "name": "battleId",
          "type": "uint256"
        },
        {
          "indexed": false,
          "internalType": "uint256",
          "name": "round",
          "type": "uint256"
        },
        {
          "indexed": true,
          "internalType": "address",
          "name": "quitter",
          "type": "address"
        }
      ],
      "name": "BattleQuit",
      "type": "event"
    },
    {
      "anonymous": false,
      "inputs": [
        {
          "indexed": false,
          "internalType": "uint256",
          "name": "battleId",
          "type": "uint256"
        },
        {
          "indexed": false,
          "internalType": "address",
          "name": "player",
          "type": "address"
        },
        {
          "indexed": false,
          "internalType": "uint256",
          "name": "id",
          "type": "uint256"
        },
        {
          "indexed": false,
          "internalType": "address",
          "name": "owner",
          "type": "address"
        },
        {
          "indexed": false,
          "internalType": "uint256",
          "name": "health",
          "type": "uint256"
        },
        {
          "indexed": false,
          "internalType": "uint256",
          "name": "attack",
          "type": "uint256"
        },
        {
          "indexed": false,
          "internalType": "uint256",
          "name": "defense",
          "type": "uint256"
        },
        {
          "indexed": false,
          "internalType": "uint256",
          "name": "mana",
          "type": "uint256"
        },
        {
          "indexed": false,
          "internalType": "uint256",
          "name": "typeId",
          "type": "uint256"
        },
        {
          "indexed": false,
          "internalType": "uint256[]",
          "name": "equippedSkills",
          "type": "uint256[]"
        }
      ],
      "name": "CharacterProxyData",
      "type": "event"
    },
    {
      "anonymous": false,
      "inputs": [
        {
          "indexed": true,
          "internalType": "uint256",
          "name": "battleId",
          "type": "uint256"
        },
        {
          "indexed": true,
          "internalType": "address",
          "name": "player",
          "type": "address"
        },
        {
          "indexed": false,
          "internalType": "uint256",
          "name": "round",
          "type": "uint256"
        },
        {
          "indexed": false,
          "internalType": "uint256",
          "name": "diceNumber",
          "type": "uint256"
        }
      ],
      "name": "DiceRolled",
      "type": "event"
    },
    {
      "anonymous": false,
      "inputs": [
        {
          "indexed": true,
          "internalType": "uint256",
          "name": "battleId",
          "type": "uint256"
        },
        {
          "indexed": true,
          "internalType": "address",
          "name": "player1",
          "type": "address"
        },
        {
          "indexed": false,
          "internalType": "uint256",
          "name": "health1",
          "type": "uint256"
        },
        {
          "indexed": true,
          "internalType": "address",
          "name": "player2",
          "type": "address"
        },
        {
          "indexed": false,
          "internalType": "uint256",
          "name": "health2",
          "type": "uint256"
        }
      ],
      "name": "HealthUpdated",
      "type": "event"
    },
    {
      "anonymous": false,
      "inputs": [
        {
          "indexed": true,
          "internalType": "uint256",
          "name": "battleId",
          "type": "uint256"
        },
        {
          "indexed": true,
          "internalType": "address",
          "name": "player",
          "type": "address"
        },
        {
          "indexed": false,
          "internalType": "enum StructsLibrary.Move",
          "name": "move",
          "type": "uint8"
        },
        {
          "indexed": false,
          "internalType": "uint256",
          "name": "round",
          "type": "uint256"
        }
      ],
      "name": "MoveSubmitted",
      "type": "event"
    },
    {
      "anonymous": false,
      "inputs": [
        {
          "indexed": false,
          "internalType": "string",
          "name": "battleName",
          "type": "string"
        },
        {
          "indexed": true,
          "internalType": "uint256",
          "name": "battleId",
          "type": "uint256"
        },
        {
          "indexed": true,
          "internalType": "address",
          "name": "player1",
          "type": "address"
        },
        {
          "indexed": true,
          "internalType": "address",
          "name": "player2",
          "type": "address"
        },
        {
          "indexed": false,
          "internalType": "uint256",
          "name": "characterId",
          "type": "uint256"
        }
      ],
      "name": "NewBattle",
      "type": "event"
    },
    {
      "anonymous": false,
      "inputs": [
        {
          "indexed": true,
          "internalType": "address",
          "name": "prevOwner",
          "type": "address"
        },
        {
          "indexed": true,
          "internalType": "address",
          "name": "newOwner",
          "type": "address"
        }
      ],
      "name": "OwnerUpdated",
      "type": "event"
    },
    {
      "anonymous": false,
      "inputs": [
        {
          "indexed": true,
          "internalType": "uint256",
          "name": "battleId",
          "type": "uint256"
        },
        {
          "indexed": false,
          "internalType": "address[2]",
          "name": "damagedPlayers",
          "type": "address[2]"
        },
        {
          "indexed": false,
          "internalType": "uint256[2]",
          "name": "damageDealt",
          "type": "uint256[2]"
        },
        {
          "indexed": false,
          "internalType": "uint256[2]",
          "name": "damageTaken",
          "type": "uint256[2]"
        },
        {
          "indexed": true,
          "internalType": "uint256",
          "name": "round",
          "type": "uint256"
        }
      ],
      "name": "RoundEnded",
      "type": "event"
    },
    {
      "anonymous": false,
      "inputs": [
        {
          "indexed": true,
          "internalType": "uint256",
          "name": "battleId",
          "type": "uint256"
        },
        {
          "indexed": false,
          "internalType": "uint256",
          "name": "round",
          "type": "uint256"
        },
        {
          "indexed": true,
          "internalType": "address",
          "name": "player",
          "type": "address"
        },
        {
          "indexed": false,
          "internalType": "string",
          "name": "skillName",
          "type": "string"
        },
        {
          "indexed": false,
          "internalType": "uint256",
          "name": "totalDamage",
          "type": "uint256"
        }
      ],
      "name": "SkillExecuted",
      "type": "event"
    },
    {
      "anonymous": false,
      "inputs": [
        {
          "indexed": true,
          "internalType": "uint256",
          "name": "battleId",
          "type": "uint256"
        },
        {
          "indexed": false,
          "internalType": "uint256",
          "name": "round",
          "type": "uint256"
        },
        {
          "indexed": true,
          "internalType": "address",
          "name": "character",
          "type": "address"
        },
        {
          "indexed": false,
          "internalType": "string",
          "name": "statusEffectName",
          "type": "string"
        },
        {
          "indexed": false,
          "internalType": "uint256",
          "name": "duration",
          "type": "uint256"
        }
      ],
      "name": "StatusEffectApplied",
      "type": "event"
    },
    {
      "anonymous": false,
      "inputs": [
        {
          "indexed": true,
          "internalType": "uint256",
          "name": "battleId",
          "type": "uint256"
        },
        {
          "indexed": true,
          "internalType": "address",
          "name": "player",
          "type": "address"
        },
        {
          "indexed": false,
          "internalType": "uint256",
          "name": "effectId",
          "type": "uint256"
        },
        {
          "indexed": false,
          "internalType": "string",
          "name": "effectName",
          "type": "string"
        },
        {
          "indexed": false,
          "internalType": "string",
          "name": "effectType",
          "type": "string"
        },
        {
          "indexed": false,
          "internalType": "uint256",
          "name": "effectValue",
          "type": "uint256"
        },
        {
          "indexed": false,
          "internalType": "uint256",
          "name": "round",
          "type": "uint256"
        },
        {
          "indexed": false,
          "internalType": "uint256",
          "name": "duration",
          "type": "uint256"
        }
      ],
      "name": "StatusEffectResolved",
      "type": "event"
    },
    {
      "stateMutability": "payable",
      "type": "fallback"
    },
    {
      "inputs": [
        {
          "internalType": "uint256",
          "name": "",
          "type": "uint256"
        }
      ],
      "name": "activeBattlesId",
      "outputs": [
        {
          "internalType": "uint256",
          "name": "",
          "type": "uint256"
        }
      ],
      "stateMutability": "view",
      "type": "function"
    },
    {
      "inputs": [],
      "name": "battleCounter",
      "outputs": [
        {
          "internalType": "uint256",
          "name": "",
          "type": "uint256"
        }
      ],
      "stateMutability": "view",
      "type": "function"
    },
    {
      "inputs": [],
      "name": "battleFee",
      "outputs": [
        {
          "internalType": "uint256",
          "name": "",
          "type": "uint256"
        }
      ],
      "stateMutability": "view",
      "type": "function"
    },
    {
      "inputs": [
        {
          "internalType": "uint256",
          "name": "",
          "type": "uint256"
        }
      ],
      "name": "battles",
      "outputs": [
        {
          "internalType": "uint256",
          "name": "battleId",
          "type": "uint256"
        },
        {
          "internalType": "string",
          "name": "name",
          "type": "string"
        },
        {
          "internalType": "enum StructsLibrary.BattleStatus",
          "name": "battleStatus",
          "type": "uint8"
        },
        {
          "internalType": "address",
          "name": "winner",
          "type": "address"
        },
        {
          "internalType": "uint256",
          "name": "round",
          "type": "uint256"
        },
        {
          "components": [
            {
              "internalType": "uint256[2]",
              "name": "initialHealth",
              "type": "uint256[2]"
            },
            {
              "internalType": "uint256[2]",
              "name": "initialMana",
              "type": "uint256[2]"
            },
            {
              "internalType": "uint256[2]",
              "name": "totalDamageDealt",
              "type": "uint256[2]"
            },
            {
              "internalType": "uint256[2]",
              "name": "totalDamageTaken",
              "type": "uint256[2]"
            },
            {
              "internalType": "uint256[2]",
              "name": "damageReduced",
              "type": "uint256[2]"
            },
            {
              "internalType": "uint256[2]",
              "name": "healthRegenerated",
              "type": "uint256[2]"
            },
            {
              "internalType": "uint256[2]",
              "name": "manaRegenerated",
              "type": "uint256[2]"
            },
            {
              "internalType": "uint256[2]",
              "name": "expReceived",
              "type": "uint256[2]"
            },
            {
              "internalType": "uint256[2]",
              "name": "leagueBattlePointsEarned",
              "type": "uint256[2]"
            }
          ],
          "internalType": "struct StructsLibrary.BattleStats",
          "name": "battleStats",
          "type": "tuple"
        }
      ],
      "stateMutability": "view",
      "type": "function"
    },
    {
      "inputs": [
        {
          "internalType": "uint256",
          "name": "_battleId",
          "type": "uint256"
        }
      ],
      "name": "cancelBattle",
      "outputs": [],
      "stateMutability": "nonpayable",
      "type": "function"
    },
    {
      "inputs": [
        {
          "internalType": "string",
          "name": "_name",
          "type": "string"
        },
        {
          "internalType": "uint256",
          "name": "_characterTokenId",
          "type": "uint256"
        }
      ],
      "name": "createBattle",
      "outputs": [],
      "stateMutability": "nonpayable",
      "type": "function"
    },
    {
      "inputs": [],
      "name": "feeCollected",
      "outputs": [
        {
          "internalType": "uint256",
          "name": "",
          "type": "uint256"
        }
      ],
      "stateMutability": "view",
      "type": "function"
    },
    {
      "inputs": [],
      "name": "getActiveBattlesCount",
      "outputs": [
        {
          "internalType": "uint256",
          "name": "",
          "type": "uint256"
        }
      ],
      "stateMutability": "view",
      "type": "function"
    },
    {
      "inputs": [],
      "name": "getActiveBattlesId",
      "outputs": [
        {
          "internalType": "uint256[]",
          "name": "",
          "type": "uint256[]"
        }
      ],
      "stateMutability": "view",
      "type": "function"
    },
    {
      "inputs": [
        {
          "internalType": "uint256",
          "name": "_battleId",
          "type": "uint256"
        }
      ],
      "name": "getBattle",
      "outputs": [
        {
          "components": [
            {
              "internalType": "uint256",
              "name": "battleId",
              "type": "uint256"
            },
            {
              "internalType": "string",
              "name": "name",
              "type": "string"
            },
            {
              "internalType": "address[2]",
              "name": "players",
              "type": "address[2]"
            },
            {
              "internalType": "uint256[2]",
              "name": "characterIds",
              "type": "uint256[2]"
            },
            {
              "internalType": "uint256[2]",
              "name": "moves",
              "type": "uint256[2]"
            },
            {
              "internalType": "uint256[2]",
              "name": "skillIndices",
              "type": "uint256[2]"
            },
            {
              "internalType": "enum StructsLibrary.BattleStatus",
              "name": "battleStatus",
              "type": "uint8"
            },
            {
              "internalType": "address",
              "name": "winner",
              "type": "address"
            },
            {
              "internalType": "bool[2]",
              "name": "moveSubmitted",
              "type": "bool[2]"
            },
            {
              "internalType": "uint256",
              "name": "round",
              "type": "uint256"
            },
            {
              "components": [
                {
                  "internalType": "uint256[2]",
                  "name": "initialHealth",
                  "type": "uint256[2]"
                },
                {
                  "internalType": "uint256[2]",
                  "name": "initialMana",
                  "type": "uint256[2]"
                },
                {
                  "internalType": "uint256[2]",
                  "name": "totalDamageDealt",
                  "type": "uint256[2]"
                },
                {
                  "internalType": "uint256[2]",
                  "name": "totalDamageTaken",
                  "type": "uint256[2]"
                },
                {
                  "internalType": "uint256[2]",
                  "name": "damageReduced",
                  "type": "uint256[2]"
                },
                {
                  "internalType": "uint256[2]",
                  "name": "healthRegenerated",
                  "type": "uint256[2]"
                },
                {
                  "internalType": "uint256[2]",
                  "name": "manaRegenerated",
                  "type": "uint256[2]"
                },
                {
                  "internalType": "uint256[2]",
                  "name": "expReceived",
                  "type": "uint256[2]"
                },
                {
                  "internalType": "uint256[2]",
                  "name": "leagueBattlePointsEarned",
                  "type": "uint256[2]"
                }
              ],
              "internalType": "struct StructsLibrary.BattleStats",
              "name": "battleStats",
              "type": "tuple"
            }
          ],
          "internalType": "struct StructsLibrary.BattleData",
          "name": "",
          "type": "tuple"
        }
      ],
      "stateMutability": "view",
      "type": "function"
    },
    {
      "inputs": [
        {
          "internalType": "uint256",
          "name": "battleId",
          "type": "uint256"
        }
      ],
      "name": "getBattleMoves",
      "outputs": [
        {
          "internalType": "uint256[2]",
          "name": "",
          "type": "uint256[2]"
        }
      ],
      "stateMutability": "view",
      "type": "function"
    },
    {
      "inputs": [
        {
          "internalType": "uint256",
          "name": "battleId",
          "type": "uint256"
        }
      ],
      "name": "getBattleParticipants",
      "outputs": [
        {
          "internalType": "address[2]",
          "name": "",
          "type": "address[2]"
        }
      ],
      "stateMutability": "view",
      "type": "function"
    },
    {
      "inputs": [
        {
          "internalType": "uint256",
          "name": "battleId",
          "type": "uint256"
        },
        {
          "internalType": "address",
          "name": "player",
          "type": "address"
        }
      ],
      "name": "getCharacterHealth",
      "outputs": [
        {
          "internalType": "uint256",
          "name": "",
          "type": "uint256"
        }
      ],
      "stateMutability": "view",
      "type": "function"
    },
    {
      "inputs": [
        {
          "internalType": "uint256",
          "name": "battleId",
          "type": "uint256"
        },
        {
          "internalType": "address",
          "name": "player",
          "type": "address"
        }
      ],
      "name": "getCharacterProxy",
      "outputs": [
        {
          "components": [
            {
              "internalType": "uint256",
              "name": "id",
              "type": "uint256"
            },
            {
              "internalType": "address",
              "name": "owner",
              "type": "address"
            },
            {
              "internalType": "uint256",
              "name": "health",
              "type": "uint256"
            },
            {
              "internalType": "uint256",
              "name": "attack",
              "type": "uint256"
            },
            {
              "internalType": "uint256",
              "name": "defense",
              "type": "uint256"
            },
            {
              "internalType": "uint256",
              "name": "mana",
              "type": "uint256"
            },
            {
              "internalType": "uint256",
              "name": "typeId",
              "type": "uint256"
            },
            {
              "internalType": "uint256[]",
              "name": "equippedSkills",
              "type": "uint256[]"
            }
          ],
          "internalType": "struct StructsLibrary.CharacterProxyView",
          "name": "",
          "type": "tuple"
        }
      ],
      "stateMutability": "view",
      "type": "function"
    },
    {
      "inputs": [
        {
          "internalType": "uint256",
          "name": "battleId",
          "type": "uint256"
        },
        {
          "internalType": "address",
          "name": "player",
          "type": "address"
        }
      ],
      "name": "getCharacterProxyActiveEffects",
      "outputs": [
        {
          "internalType": "uint256[]",
          "name": "effectIds",
          "type": "uint256[]"
        },
        {
          "internalType": "uint256[]",
          "name": "durations",
          "type": "uint256[]"
        }
      ],
      "stateMutability": "view",
      "type": "function"
    },
    {
      "inputs": [
        {
          "internalType": "uint256",
          "name": "battleId",
          "type": "uint256"
        },
        {
          "internalType": "uint256",
          "name": "characterTokenId",
          "type": "uint256"
        }
      ],
      "name": "joinBattle",
      "outputs": [],
      "stateMutability": "nonpayable",
      "type": "function"
    },
    {
      "inputs": [],
      "name": "leagueRewards",
      "outputs": [
        {
          "internalType": "uint256",
          "name": "",
          "type": "uint256"
        }
      ],
      "stateMutability": "view",
      "type": "function"
    },
    {
      "inputs": [],
      "name": "owner",
      "outputs": [
        {
          "internalType": "address",
          "name": "",
          "type": "address"
        }
      ],
      "stateMutability": "view",
      "type": "function"
    },
    {
      "inputs": [
        {
          "internalType": "address",
          "name": "",
          "type": "address"
        }
      ],
      "name": "playerCredit",
      "outputs": [
        {
          "internalType": "uint256",
          "name": "",
          "type": "uint256"
        }
      ],
      "stateMutability": "view",
      "type": "function"
    },
    {
      "inputs": [
        {
          "internalType": "address",
          "name": "",
          "type": "address"
        }
      ],
      "name": "playerOngoingBattle",
      "outputs": [
        {
          "internalType": "uint256",
          "name": "",
          "type": "uint256"
        }
      ],
      "stateMutability": "view",
      "type": "function"
    },
    {
      "inputs": [
        {
          "internalType": "uint256",
          "name": "_battleId",
          "type": "uint256"
        }
      ],
      "name": "quitBattle",
      "outputs": [],
      "stateMutability": "nonpayable",
      "type": "function"
    },
    {
      "inputs": [
        {
          "internalType": "address",
          "name": "_newOwner",
          "type": "address"
        }
      ],
      "name": "setOwner",
      "outputs": [],
      "stateMutability": "nonpayable",
      "type": "function"
    },
    {
      "inputs": [],
      "name": "staminaCost",
      "outputs": [
        {
          "internalType": "uint256",
          "name": "",
          "type": "uint256"
        }
      ],
      "stateMutability": "view",
      "type": "function"
    },
    {
      "inputs": [
        {
          "internalType": "uint256",
          "name": "_tokenId1",
          "type": "uint256"
        },
        {
          "internalType": "uint256",
          "name": "_tokenId2",
          "type": "uint256"
        }
      ],
      "name": "storeStamina",
      "outputs": [],
      "stateMutability": "nonpayable",
      "type": "function"
    },
    {
      "inputs": [
        {
          "internalType": "uint256",
          "name": "battleId",
          "type": "uint256"
        },
        {
          "internalType": "enum StructsLibrary.Move",
          "name": "move",
          "type": "uint8"
        },
        {
          "internalType": "uint256",
          "name": "skillId",
          "type": "uint256"
        }
      ],
      "name": "submitMove",
      "outputs": [],
      "stateMutability": "nonpayable",
      "type": "function"
    },
    {
      "inputs": [
        {
          "internalType": "uint256",
          "name": "newCost",
          "type": "uint256"
        }
      ],
      "name": "updateStaminaCost",
      "outputs": [],
      "stateMutability": "nonpayable",
      "type": "function"
    },
    {
      "stateMutability": "payable",
      "type": "receive"
    }
  ],
  "bytecode": "0x6080604052600a6004553480156200001657600080fd5b506040516200600338038062006003833981016040819052620000399162000088565b600c80546001600160a01b039384166001600160a01b031991821617909155600d8054929093169116179055620000c0565b80516001600160a01b03811681146200008357600080fd5b919050565b600080604083850312156200009c57600080fd5b620000a7836200006b565b9150620000b7602084016200006b565b90509250929050565b615f3380620000d06000396000f3fe6080604052600436106101735760003560e01c80636efe60c1116100c8578063a9b9be3f11610084578063d054fe0011610061578063d054fe0014610474578063daf241aa1461048a578063dc55da6f146104b8578063e44dba4f146104e557005b8063a9b9be3f1461041c578063ba7b559614610432578063c7f42c641461045f57005b80636efe60c11461033a5780638bdb3b2f146103675780638da5cb5b146103875780638e4c1999146103af57806396033b76146103cf578063a10d80de146103fc57005b8063330561091161012f578063606d2e961161010c578063606d2e96146102a55780636bc8e4a9146102d75780636ca7f95c146102f75780636dd0ce7a1461030d57005b806333056109146102385780634188de5a146102655780634c4c447e1461028557005b8063068a1e491461017c578063086d35c2146101a05780630ba5a8e6146101b657806313af4035146101d6578063239752ab146101f657806332ccca0e1461021657005b3661017a57005b005b34801561018857600080fd5b506006545b6040519081526020015b60405180910390f35b3480156101ac57600080fd5b5061018d60035481565b3480156101c257600080fd5b5061017a6101d1366004615060565b610505565b3480156101e257600080fd5b5061017a6101f136600461508e565b61055a565b34801561020257600080fd5b5061018d610211366004615060565b610566565b34801561022257600080fd5b5061022b610587565b60405161019791906150ed565b34801561024457600080fd5b50610258610253366004615060565b6105df565b6040516101979190615132565b34801561027157600080fd5b5061018d610280366004615140565b610634565b34801561029157600080fd5b5061017a6102a0366004615060565b610693565b3480156102b157600080fd5b506102c56102c0366004615060565b610878565b604051610197969594939291906152b7565b3480156102e357600080fd5b5061017a6102f236600461530f565b610b3d565b34801561030357600080fd5b5061018d60025481565b34801561031957600080fd5b5061032d610328366004615060565b6110d5565b6040516101979190615370565b34801561034657600080fd5b5061018d61035536600461508e565b60086020526000908152604090205481565b34801561037357600080fd5b5061017a610382366004615504565b611531565b34801561039357600080fd5b506000546040516001600160a01b039091168152602001610197565b3480156103bb57600080fd5b5061017a6103ca366004615585565b611a82565b3480156103db57600080fd5b5061018d6103ea36600461508e565b600b6020526000908152604090205481565b34801561040857600080fd5b5061017a610417366004615060565b611b42565b34801561042857600080fd5b5061018d600a5481565b34801561043e57600080fd5b5061045261044d366004615060565b6120f4565b60405161019791906155a7565b34801561046b57600080fd5b5061018d612129565b34801561048057600080fd5b5061018d60045481565b34801561049657600080fd5b506104aa6104a5366004615140565b6121eb565b6040516101979291906155b5565b3480156104c457600080fd5b506104d86104d3366004615140565b612368565b60405161019791906155e3565b3480156104f157600080fd5b5061017a610500366004615585565b6124b4565b6000546001600160a01b031633146105555760405162461bcd60e51b815260206004820152600e60248201526d139bdd08185d5d1a1bdc9a5e995960921b60448201526064015b60405180910390fd5b600455565b61056381612779565b50565b6006818154811061057657600080fd5b600091825260209091200154905081565b606060068054806020026020016040519081016040528092919081815260200182805480156105d557602002820191906000526020600020905b8154815260200190600101908083116105c1575b5050505050905090565b6105e7614de7565b60008281526005602052604090819020815180830192839052916002918201919082845b81546001600160a01b0316815260019091019060200180831161060b5750505050509050919050565b600060096000848460405160200161064d929190615688565b60408051601f19818403018152918152815160209283012083528282019390935290820160009081206001600160a01b0386168252909152206002015490505b92915050565b600081815260056020526040902060028101546001600160a01b0316331461070c5760405162461bcd60e51b815260206004820152602660248201527f4f6e6c79207468652063726561746f722063616e2063616e63656c2074686520604482015265626174746c6560d01b606482015260840161054c565b6000600a82015460ff166002811115610727576107276151c0565b146107745760405162461bcd60e51b815260206004820152601e60248201527f43616e6e6f742063616e63656c2061207374617274656420626174746c650000604482015260640161054c565b600a8101805460ff1916600217905533600090815260086020908152604080832083905584835260079091528120546006549091906107b5906001906156d4565b90506000600682815481106107cc576107cc6156a8565b9060005260206000200154905080600684815481106107ed576107ed6156a8565b6000918252602080832090910192909255828152600790915260409020839055600680548061081e5761081e6156e7565b60008281526020808220830160001990810183905590920190925586825260079052604080822082905551339187917fb91ae85405a99ffc07c694757cfbb7a52994c3b4daf39d040a6d56b1429ed7c79190a35050505050565b6005602052600090815260409020805460018201805491929161089a906156fd565b80601f01602080910402602001604051908101604052809291908181526020018280546108c6906156fd565b80156109135780601f106108e857610100808354040283529160200191610913565b820191906000526020600020905b8154815290600101906020018083116108f657829003601f168201915b50505050600a830154600c84015460408051610160810191829052949560ff8416956101009094046001600160a01b03169450919290600d8301908290610120820190839060029082845b81548152602001906001019080831161095e57505050918352505060408051808201918290526020909201919060028481019182845b815481526020019060010190808311610994575050509183525050604080518082019182905260209092019190600484019060029082845b8154815260200190600101908083116109cc575050509183525050604080518082019182905260209092019190600684019060029082845b815481526020019060010190808311610a04575050509183525050604080518082019182905260209092019190600884019060029082845b815481526020019060010190808311610a3c575050509183525050604080518082019182905260209092019190600a84019060029082845b815481526020019060010190808311610a74575050509183525050604080518082019182905260209092019190600c84019060029082845b815481526020019060010190808311610aac575050509183525050604080518082019182905260209092019190600e84019060029082845b815481526020019060010190808311610ae4575050509183525050604080518082019182905260209092019190601084019060029082845b815481526020019060010190808311610b1c57505050505081525050905086565b60008381526005602052604081208491610b6691600201905b01546001600160a01b03166127c9565b6000818152600560205260409020610b82906002016001610b56565b600081815260056020526040902060028101546003909101546001600160a01b03918216911633821480610bbe5750336001600160a01b038216145b610c1b5760405162461bcd60e51b815260206004820152602860248201527f4f6e6c79207061727469636970616e74732063616e2063616c6c207468697320604482015267333ab731ba34b7b760c11b606482015260840161054c565b60008681526005602052604090206001600a82015460ff166002811115610c4457610c446151c0565b14610ca55760405162461bcd60e51b815260206004820152602b60248201527f426174746c6520686173206e6f742073746172746564206f722068617320616c60448201526a1c9958591e48195b99195960aa1b606482015260840161054c565b6000866003811115610cb957610cb96151c0565b1480610cd657506001866003811115610cd457610cd46151c0565b145b80610cf257506002866003811115610cf057610cf06151c0565b145b80610d0e57506003866003811115610d0c57610d0c6151c0565b145b610d805760405162461bcd60e51b815260206004820152603e60248201527f496e76616c6964206d6f76653a206d7573742062652041545441434b2c20444560448201527f46454e442c205553455f534b494c4c2c206f7220444f5f4e4f5448494e470000606482015260840161054c565b6000600282018101546001600160a01b03163314610d9f576001610da2565b60005b60ff16905081600b018160028110610dbc57610dbc6156a8565b602081049091015460ff601f9092166101000a90041615610e1f5760405162461bcd60e51b815260206004820181905260248201527f4d6f766520616c7265616479207375626d697474656420627920706c61796572604482015260640161054c565b60008833604051602001610e34929190615688565b60408051601f19818403018152828252805160209182012060008181526009835283812033808352935292909220600c8701549294509290918c917f8aeb59a0d4a813dbcc0850f4aaf78c3bbdb6a8e181a23013ab163cc9a4cf647091610e9d918e9190615737565b60405180910390a36001896003811115610eb957610eb96151c0565b14158015610ed957506003896003811115610ed657610ed66151c0565b14155b15610f3657610ee6612811565b600c80830182905585015460405133928d927f44c60cf2e549d3f07067958fb2907081416087b158fe86d2ddad6ec761790c5892610f2d9290918252602082015260400190565b60405180910390a35b6002896003811115610f4a57610f4a6151c0565b03610ff0576000805b6007830154811015610fa05789836007018281548110610f7557610f756156a8565b906000526020600020015403610f8e5760019150610fa0565b80610f9881615755565b915050610f53565b5080610fee5760405162461bcd60e51b815260206004820152601f60248201527f5375626d697474656420736b696c6c206973206e6f7420657175697070656400604482015260640161054c565b505b886003811115611002576110026151c0565b846006018460028110611017576110176156a8565b01556001600b85018460028110611030576110306156a8565b602091828204019190066101000a81548160ff02191690831515021790555060026003811115611062576110626151c0565b896003811115611074576110746151c0565b03611092578784600801846002811061108f5761108f6156a8565b01555b600b84015460ff1680156110af5750600b840154610100900460ff165b156110c957600884015460098501546110c9918c9161289b565b50505050505050505050565b6110dd614e05565b600560008381526020019081526020016000206040518061016001604052908160008201548152602001600182018054611116906156fd565b80601f0160208091040260200160405190810160405280929190818152602001828054611142906156fd565b801561118f5780601f106111645761010080835404028352916020019161118f565b820191906000526020600020905b81548152906001019060200180831161117257829003601f168201915b505050918352505060408051808201918290526020909201919060028481019182845b81546001600160a01b031681526001909101906020018083116111b2575050509183525050604080518082019182905260209092019190600484019060029082845b8154815260200190600101908083116111f4575050509183525050604080518082019182905260209092019190600684019060029082845b81548152602001906001019080831161122c575050509183525050604080518082019182905260209092019190600884019060029082845b815481526020019060010190808311611264575050509183525050600a82015460209091019060ff16600281111561129e5761129e6151c0565b60028111156112af576112af6151c0565b8152600a82015461010090046001600160a01b0316602082015260408051808201808352919092019190600b840190600290826000855b825461010083900a900460ff1615158152602060019283018181049485019490930390920291018084116112e65790505050509183525050600c82015460208201526040805161016081018252910190600d83018161012081018260028282826020028201915b81548152602001906001019080831161134d57505050918352505060408051808201918290526020909201919060028481019182845b815481526020019060010190808311611383575050509183525050604080518082019182905260209092019190600484019060029082845b8154815260200190600101908083116113bb575050509183525050604080518082019182905260209092019190600684019060029082845b8154815260200190600101908083116113f3575050509183525050604080518082019182905260209092019190600884019060029082845b81548152602001906001019080831161142b575050509183525050604080518082019182905260209092019190600a84019060029082845b815481526020019060010190808311611463575050509183525050604080518082019182905260209092019190600c84019060029082845b81548152602001906001019080831161149b575050509183525050604080518082019182905260209092019190600e84019060029082845b8154815260200190600101908083116114d3575050509183525050604080518082019182905260209092019190601084019060029082845b81548152602001906001019080831161150b575050509190925250505090525092915050565b600c546040516331a9108f60e11b81526004810183905233916001600160a01b031690636352211e90602401602060405180830381865afa15801561157a573d6000803e3d6000fd5b505050506040513d601f19601f8201168201806040525081019061159e919061576e565b6001600160a01b0316146115f45760405162461bcd60e51b815260206004820152601e60248201527f4e6f7420746865206f776e6572206f6620746865206368617261637465720000604482015260640161054c565b33600090815260086020526040902054156116215760405162461bcd60e51b815260040161054c9061578b565b600a546040805161016081018252828152602080820186905282518084018452338152600081830181905283850191909152835180850185528681528083018290526060840152835180850185528181528083018290526080840152835180850190945280845290830181905260a082019290925260c08101828152600060208083018290526040805180820182528381528083018490528185015260016060808601829052825161016081018452610120810186815261014082018790528152835180850185528681528086018790528186015283518085018552868152808601879052818501528351808501855286815280860187905291810191909152825180840184528581528085018690526080828101919091528351808501855286815280860187905260a08301528351808501855286815280860187905260c08301528351808501855286815280860187905260e08301528351808501855286815280860187905261010083015290950194909452868352600582529091208351815590830151929350839290918201906117bc908261581f565b5060408201516117d29060028084019190614e82565b5060608201516117e89060048301906002614eda565b5060808201516117fe9060068301906002614eda565b5060a08201516118149060088301906002614eda565b5060c0820151600a8201805460ff19166001836002811115611838576118386151c0565b021790555060e0820151600a82018054610100600160a81b0319166101006001600160a01b03909316830217905582015161187990600b8301906002614f08565b50610120820151600c8201556101408201518051600d83019061189f9082906002614eda565b5060208201516118b59060028084019190614eda565b5060408201516118cb9060048301906002614eda565b5060608201516118e19060068301906002614eda565b5060808201516118f79060088301906002614eda565b5060a082015161190d90600a8301906002614eda565b5060c082015161192390600c8301906002614eda565b5060e082015161193990600e8301906002614eda565b506101008201516119509060108301906002614eda565b5050600680546001818101835560008390527ff652222313e28459528d920b65115c16c04f3efc82aaedc97be59f3f377c0d3f909101879055905461199a945090925090506156d4565b6000838152600760209081526040808320939093553380835260089091529190208390556119ca90849084612b8e565b600c546004805460405163739420a560e01b815291820186905260248201526001600160a01b039091169063739420a590604401600060405180830381600087803b158015611a1857600080fd5b505af1158015611a2c573d6000803e3d6000fd5b50506040518581523392508491507fcd51df591e2f9319b98d783b63c675c8ab2e63d44101da9e5a12af2b1fcab4799060200160405180910390a3600a8054906000611a7783615755565b919050555050505050565b600c54604051631a3bcbcf60e11b8152600481018490526001600160a01b0390911690633477979e90602401600060405180830381600087803b158015611ac857600080fd5b505af1158015611adc573d6000803e3d6000fd5b5050600c54604051631a3bcbcf60e11b8152600481018590526001600160a01b039091169250633477979e9150602401600060405180830381600087803b158015611b2657600080fd5b505af1158015611b3a573d6000803e3d6000fd5b505050505050565b6000818152600560205260409020600201546001600160a01b0316611b9d5760405162461bcd60e51b8152602060048201526011602482015270426174746c65206e6f7420666f756e642160781b604482015260640161054c565b6000600560008381526020019081526020016000206040518061016001604052908160008201548152602001600182018054611bd8906156fd565b80601f0160208091040260200160405190810160405280929190818152602001828054611c04906156fd565b8015611c515780601f10611c2657610100808354040283529160200191611c51565b820191906000526020600020905b815481529060010190602001808311611c3457829003601f168201915b505050918352505060408051808201918290526020909201919060028481019182845b81546001600160a01b03168152600190910190602001808311611c74575050509183525050604080518082019182905260209092019190600484019060029082845b815481526020019060010190808311611cb6575050509183525050604080518082019182905260209092019190600684019060029082845b815481526020019060010190808311611cee575050509183525050604080518082019182905260209092019190600884019060029082845b815481526020019060010190808311611d26575050509183525050600a82015460209091019060ff166002811115611d6057611d606151c0565b6002811115611d7157611d716151c0565b8152600a82015461010090046001600160a01b0316602082015260408051808201808352919092019190600b840190600290826000855b825461010083900a900460ff161515815260206001928301818104948501949093039092029101808411611da85790505050509183525050600c82015460208201526040805161016081018252910190600d83018161012081018260028282826020028201915b815481526020019060010190808311611e0f57505050918352505060408051808201918290526020909201919060028481019182845b815481526020019060010190808311611e45575050509183525050604080518082019182905260209092019190600484019060029082845b815481526020019060010190808311611e7d575050509183525050604080518082019182905260209092019190600684019060029082845b815481526020019060010190808311611eb5575050509183525050604080518082019182905260209092019190600884019060029082845b815481526020019060010190808311611eed575050509183525050604080518082019182905260209092019190600a84019060029082845b815481526020019060010190808311611f25575050509183525050604080518082019182905260209092019190600c84019060029082845b815481526020019060010190808311611f5d575050509183525050604080518082019182905260209092019190600e84019060029082845b815481526020019060010190808311611f95575050509183525050604080518082019182905260209092019190601084019060029082845b815481526020019060010190808311611fcd57505050919092525050509052506040810151519091506001600160a01b031633148061201c57506040810151602001516001600160a01b031633145b6120685760405162461bcd60e51b815260206004820152601b60248201527f596f7520617265206e6f7420696e207468697320626174746c65210000000000604482015260640161054c565b336001600160a01b0316827f3ff46d129afe6d0143c3e8ba124cdf4f4a5552918a50cd50b784ca9bdce4e3578361012001516040516120a991815260200190565b60405180910390a36040810151516001600160a01b031633146120e25760408101516120de90839060005b6020020151613002565b5050565b60408101516120de90839060016120d4565b6120fc614de7565b50600090815260056020908152604091829020825180840190935260068101548352600701549082015290565b600080600160009054906101000a90046001600160a01b03166001600160a01b031663feaf968c6040518163ffffffff1660e01b815260040160a060405180830381865afa15801561217f573d6000803e3d6000fd5b505050506040513d601f19601f820116820180604052508101906121a391906158fd565b5050509150506000816402540be4006121bc919061594d565b905066b1a2bc2ec50000816121d982670de0b6b3a764000061597d565b6121e391906159aa565b935050505090565b60608060008484604051602001612203929190615688565b60408051601f1981840301815291815281516020928301206000818152600984528281206001600160a01b03891682529093529120600881015491925090806001600160401b038111156122595761225961544c565b604051908082528060200260200182016040528015612282578160200160208202803683370190505b509450806001600160401b0381111561229d5761229d61544c565b6040519080825280602002602001820160405280156122c6578160200160208202803683370190505b50935060005b8181101561235d5760008360080182815481106122eb576122eb6156a8565b906000526020600020015490508087838151811061230b5761230b6156a8565b6020026020010181815250508360090160008281526020019081526020016000205486838151811061233f5761233f6156a8565b6020908102919091010152508061235581615755565b9150506122cc565b505050509250929050565b6123b96040518061010001604052806000815260200160006001600160a01b031681526020016000815260200160008152602001600081526020016000815260200160008152602001606081525090565b600083836040516020016123ce929190615688565b60408051601f1981840301815282825280516020918201206000818152600983528381206001600160a01b03808a16835290845284822061010087018652805487526001810154909116868501526002810154868601526003810154606087015260048101546080870152600581015460a0870152600681015460c087015260078101805486518187028101870190975280875293975090959194919360e0850193908301828280156124a057602002820191906000526020600020905b81548152602001906001019080831161248c575b505050919092525090979650505050505050565b600c546040516331a9108f60e11b81526004810183905233916001600160a01b031690636352211e90602401602060405180830381865afa1580156124fd573d6000803e3d6000fd5b505050506040513d601f19601f82011682018060405250810190612521919061576e565b6001600160a01b0316146125775760405162461bcd60e51b815260206004820152601e60248201527f4e6f7420746865206f776e6572206f6620746865206368617261637465720000604482015260640161054c565b33600090815260086020526040902054156125a45760405162461bcd60e51b815260040161054c9061578b565b600082815260056020526040812090600a82015460ff1660028111156125cc576125cc6151c0565b146126195760405162461bcd60e51b815260206004820152601a60248201527f426174746c652068617320616c72656164792073746172746564000000000000604482015260640161054c565b60038101546001600160a01b0316156126745760405162461bcd60e51b815260206004820152601e60248201527f426174746c6520616c7265616479206861732074776f20706c61796572730000604482015260640161054c565b600581018290556003810180546001600160a01b03191633908117909155600a8201805460ff1916600117905560008181526008602052604090208490556126be90839085612b8e565b600c546004805460405163739420a560e01b815291820185905260248201526001600160a01b039091169063739420a590604401600060405180830381600087803b15801561270c57600080fd5b505af1158015612720573d6000803e3d6000fd5b50505050600281015460405133916001600160a01b03169085907f062c68eb2a964de2eed3fb17d55e0f1609ab0b928d7b24a44821401688ceafab9061276c9060018701908890615a3b565b60405180910390a4505050565b600080546001600160a01b038381166001600160a01b0319831681178455604051919092169283917f8292fce18fa69edf4db7b94ea2e58241df0ae57f97e0a6c9b29067028bf92d769190a35050565b6040516001600160a01b03821660248201526105639060440160408051601f198184030181529190526020810180516001600160e01b031663161765e160e11b179052613354565b600080601444423360405160200161284e93929190928352602083019190915260601b6bffffffffffffffffffffffff1916604082015260540190565b6040516020818303038152906040528051906020012060001c6128719190615a5d565b61287c906001615a71565b905061288981606461597d565b612895906103e8615a71565b91505090565b6000838152600560205260408120906128c48560028401835b01546001600160a01b0316613375565b905060006128d7866002850160016128b4565b90506128e1614de7565b6128e9614de7565b6128f1614de7565b6129008987600c0154876133c9565b8152600c860154612913908a90866133c9565b6020820152600b85015460ff161561292d57600360068701555b600b84015460ff161561294257600360078701555b61294d8686866135a6565b60068601546002148015612965575060078601546002145b6129795761297486868661363d565b935091505b6006860154600119016129b1578554600c8701546129a39190878b8860068c0160015b0154613754565b83526001600160a01b031683525b6007860154600119016129f2578554600c8701546129d89190868a8960068c01600061299c565b6020848101919091526001600160a01b0391909116908401525b6129fe81868685613ad9565b6001600c8681018290558501558151601187018054600090612a21908490615a71565b90915550506020820151601287018054600090612a3f908490615a71565b90915550506020820151601387018054600090612a5d908490615a71565b90915550508151601487018054600090612a78908490615a71565b9250508190555085600c0154897f1c18d51d882ce69ed20679aff51d0bc25f77878b0bbc4051e6d9ab2342f5e47f8585604051806040016040528088600160028110612ac657612ac66156a8565b6020020151815260200188600060028110612ae357612ae36156a8565b60200201519052604051612af993929190615a84565b60405180910390a360028501541580612b1457506002840154155b15612b59576002808501549086015460009110612b3e5760038701546001600160a01b0316612b4d565b60028701546001600160a01b03165b90506110c98a82613002565b600b8601805461ffff19169055600c8601805460019190600090612b7e908490615a71565b9091555050505050505050505050565b60008183604051602001612ba3929190615688565b60408051808303601f1901815282825280516020918201206000818152600983528381206001600160a01b03898116808452919094529390208881556001810180546001600160a01b031916909417909355600c546316442a7f60e11b8552600485018990529094509192911690632c8854fe90602401602060405180830381865afa158015612c37573d6000803e3d6000fd5b505050506040513d601f19601f82011682018060405250810190612c5b9190615ab4565b6002820155600c546040516319ddc96160e21b8152600481018790526001600160a01b0390911690636777258490602401602060405180830381865afa158015612ca9573d6000803e3d6000fd5b505050506040513d601f19601f82011682018060405250810190612ccd9190615ab4565b6003820155600c546040516323ce9af360e11b8152600481018790526001600160a01b039091169063479d35e690602401602060405180830381865afa158015612d1b573d6000803e3d6000fd5b505050506040513d601f19601f82011682018060405250810190612d3f9190615ab4565b600482810191909155600c54604051633a274a5560e11b81529182018790526001600160a01b03169063744e94aa90602401602060405180830381865afa158015612d8e573d6000803e3d6000fd5b505050506040513d601f19601f82011682018060405250810190612db29190615ab4565b6005820155600c54604051631bd2a47760e01b8152600481018790526001600160a01b0390911690631bd2a47790602401602060405180830381865afa158015612e00573d6000803e3d6000fd5b505050506040513d601f19601f82011682018060405250810190612e249190615ab4565b6006820155600c5460405163806227f560e01b8152600481018790526001600160a01b039091169063806227f590602401600060405180830381865afa158015612e72573d6000803e3d6000fd5b505050506040513d6000823e601f3d908101601f19168201604052612e9a9190810190615acd565b8051612eb0916007840191602090910190614f95565b50612ed3604051806060016040528060228152602001615edc6022913985613b7e565b612f03604051806040016040528060078152602001662432b0b63a341d60c91b8152508260020160000154613bc3565b612f316040518060400160405280600581526020016426b0b7309d60d91b8152508260020160030154613bc3565b600083815260056020526040902060028101546001600160a01b0390811690861603612f70576002820154600d8201556005820154600f820155612f85565b6002820154600e820155600582015460108201555b81546001830154600284015460038501546004860154600587015460068801546040517f3f6e56e1bcf6454c5e7f32cffe9f99778fd7cf50a886af17d91dcebb8e35250f97612ff2978d978f9792966001600160a01b0390921695909492939192909160078e0190615b72565b60405180910390a1505050505050565b6000828152600560205260409020600a8101805460ff196001600160a01b03851661010002166001600160a81b031990911617600217905561304383613c08565b600281015460038201546001600160a01b039182166000818152600860205260408082208290559284168082529281208190559092851683146130865782613088565b815b90506000836001600160a01b0316866001600160a01b0316146130ac5760016130af565b60005b60ff1690506000846001600160a01b0316836001600160a01b0316146130d65760016130d9565b60005b60ff1690506130ea88878484613cc5565b6000600960008a88604051602001613103929190615688565b6040516020818303038152906040528051906020012081526020019081526020016000206000876001600160a01b03166001600160a01b031681526020019081526020016000206002016000015490506000600960008b8860405160200161316c929190615688565b60408051601f19818403018152918152815160209283012083528282019390935290820160009081206001600160a01b038a1682529091529081206002015491508215806131b8575081155b905080156132f857600c546001600160a01b0316636a0558a660048b0187600281106131e6576131e66156a8565b01546040516001600160e01b031960e084901b168152600481019190915260646024820152604401600060405180830381600087803b15801561322857600080fd5b505af115801561323c573d6000803e3d6000fd5b5050600c546001600160a01b03169150636a0558a6905060048b018660028110613268576132686156a8565b01546040516001600160e01b031960e084901b1681526004810191909152601e6024820152604401600060405180830381600087803b1580156132aa57600080fd5b505af11580156132be573d6000803e3d6000fd5b50505050606489600d01600e0186600281106132dc576132dc6156a8565b0155601e601b8a0185600281106132f5576132f56156a8565b01555b856001600160a01b03168a6001600160a01b03168c7f0baf086d5a49a7d9df72185aa0488cadd724e398bb5e99c615ee24c699deba918c60010160405161333f9190615c0f565b60405180910390a45050505050505050505050565b80516a636f6e736f6c652e6c6f67602083016000808483855afa5050505050565b600080838360405160200161338b929190615688565b60408051601f1981840301815291815281516020928301206000908152600983528181206001600160a01b0387168252909252902091505092915050565b6000806000806000806000806000613401600d60009054906101000a90046001600160a01b03168c8c613ebe9092919063ffffffff16565b9750975097509750975097509750975060005b86518110156135955787801561349057506040516339ba3ab760e11b602082015260240160405160208183030381529060405280519060200120858281518110613460576134606156a8565b60200260200101516040516020016134789190615c22565b60405160208183030381529060405280519060200120145b156135835760018b015487516001600160a01b03909116908e907f42cc68fd968d66bad9f556a6420453409337a500953cec681ce375d56c143d8e908a90859081106134de576134de6156a8565b60200260200101518985815181106134f8576134f86156a8565b6020026020010151898681518110613512576135126156a8565b602002602001015189878151811061352c5761352c6156a8565b6020026020010151898881518110613546576135466156a8565b6020026020010151898981518110613560576135606156a8565b602002602001015160405161357a96959493929190615c3e565b60405180910390a35b8061358d81615755565b915050613414565b50969b9a5050505050505050505050565b6006830154600019016135ef5760038260020160030160008282546135cb9190615a71565b90915550600390506019840160000160008282546135e99190615a71565b90915550505b6007830154600019016136385760038160020160030160008282546136149190615a71565b90915550600390506019840160010160008282546136329190615a71565b90915550505b505050565b613645614de7565b61364d614de7565b613655614de7565b61365d614de7565b6006870154600788015481158015613673575080155b1561368c576136838989896147a0565b94509250613745565b8115801561369a5750600181145b156136aa576136838989896148d1565b6001821480156136b8575080155b156136c8576136838989896149c8565b811580156136d65750600381145b156136e657613683898989614ab7565b6003821480156136f4575080155b1561370457613683898989614b41565b811580156137125750600281145b1561372257613683898989614ab7565b600282148015613730575080155b1561374557613740898989614b41565b945092505b50909791965090945050505050565b600d54604051635ec407d760e11b815260048101859052600091829182916001600160a01b03169063bd880fae90602401600060405180830381865afa1580156137a2573d6000803e3d6000fd5b505050506040513d6000823e601f3d908101601f191682016040526137ca9190810190615ccd565b905060006103e8826040015189600c01546137e5919061597d565b6137ef91906159aa565b9050806001860361388a576004870154821161380c57600061381b565b600487015461381b90836156d4565b905061382781836156d4565b60008c8152600560205260409020600281015460018a01546015909201916001600160a01b0391821691161461385e576001613861565b60005b60ff1660028110613874576138746156a8565b0160008282546138849190615a71565b90915550505b600081156138c957600288015482106138a45760006138b4565b60028801546138b49083906156d4565b60028901555060018701546001600160a01b03165b8960010160009054906101000a90046001600160a01b03166001600160a01b03168c7f63ec13d335b37765a01ffaa4ae432010169435e348c05ab134fb6b626ef5b53a8d87602001518660405161392293929190615d64565b60405180910390a3600d546080850151604051631187bd5160e01b815260048101919091526000916001600160a01b031690631187bd5190602401600060405180830381865afa15801561397a573d6000803e3d6000fd5b505050506040513d6000823e601f3d908101601f191682016040526139a29190810190615d9d565b9050806040015115613a2d57608085015160608201516139c3918d91614bd4565b8860010160009054906101000a90046001600160a01b03166001600160a01b03168d7ff8c9f3444c314390f17c07435638f20d537b994d7767fd8e9a2bd203791d3ef78e84602001518560600151604051613a2093929190615d64565b60405180910390a3613aa8565b60808501516060820151613a42918b91614bd4565b8860010160009054906101000a90046001600160a01b03166001600160a01b03168d7ff8c9f3444c314390f17c07435638f20d537b994d7767fd8e9a2bd203791d3ef78e84602001518560600151604051613a9f93929190615d64565b60405180910390a35b606085015160058c018054600090613ac19084906156d4565b90915550919d929c50919a5050505050505050505050565b835160028401541115613b07578351600284018054600090613afc9084906156d4565b90915550613b0f9050565b600060028401555b602084015160028301541115613b43576020840151600283018054600090613b389084906156d4565b90915550613b4b9050565b600060028301555b835181518290613b5c908390615a71565b9052506020808501519082018051613b75908390615a71565b90525050505050565b6120de8282604051602401613b94929190615e87565b60408051601f198184030181529190526020810180516001600160e01b031663319af33360e01b179052613354565b6120de8282604051602401613bd9929190615eb1565b60408051601f198184030181529190526020810180516001600160e01b0316632d839cb360e21b179052613354565b600081815260076020526040812054600654909190613c29906001906156d4565b9050600060068281548110613c4057613c406156a8565b906000526020600020015490508060068481548110613c6157613c616156a8565b60009182526020808320909101929092558281526007909152604090208390556006805480613c9257613c926156e7565b60019003818190600052602060002001600090559055600760008581526020019081526020016000206000905550505050565b600283015460038401546040516001600160a01b0392831692909116906000906009908290613cfa908a908790602001615688565b60408051808303601f19018152918152815160209283012083528282019390935290820160009081206001600160a01b03871682529091522060050154600f870154613d4691906156d4565b90506000600960008985604051602001613d61929190615688565b60408051808303601f19018152918152815160209283012083528282019390935290820160009081206001600160a01b038716825290915220600501546010880154613dad91906156d4565b600c549091506001600160a01b03166345d5007e600489018860028110613dd657613dd66156a8565b0154846040518363ffffffff1660e01b8152600401613dff929190918252602082015260400190565b600060405180830381600087803b158015613e1957600080fd5b505af1158015613e2d573d6000803e3d6000fd5b5050600c546001600160a01b031691506345d5007e9050600489018760028110613e5957613e596156a8565b0154836040518363ffffffff1660e01b8152600401613e82929190918252602082015260400190565b600060405180830381600087803b158015613e9c57600080fd5b505af1158015613eb0573d6000803e3d6000fd5b505050505050505050505050565b60088301546000908190606090819081908190819081906001600160401b03811115613eec57613eec61544c565b604051908082528060200260200182016040528015613f15578160200160208202803683370190505b5060088c01549096506001600160401b03811115613f3557613f3561544c565b604051908082528060200260200182016040528015613f6857816020015b6060815260200190600190039081613f535790505b5060088c01549095506001600160401b03811115613f8857613f8861544c565b604051908082528060200260200182016040528015613fbb57816020015b6060815260200190600190039081613fa65790505b5060088c01549094506001600160401b03811115613fdb57613fdb61544c565b604051908082528060200260200182016040528015614004578160200160208202803683370190505b5060088c01549093506001600160401b038111156140245761402461544c565b60405190808252806020026020018201604052801561404d578160200160208202803683370190505b5060088c01549092506001600160401b0381111561406d5761406d61544c565b604051908082528060200260200182016040528015614096578160200160208202803683370190505b50905060005b60088c01548110156147805760008c60080182815481106140bf576140bf6156a8565b6000918252602082200154604051631187bd5160e01b8152600481018290529092506001600160a01b038e1690631187bd5190602401600060405180830381865afa158015614112573d6000803e3d6000fd5b505050506040513d6000823e601f3d908101601f1916820160405261413a9190810190615d9d565b9050806101400151801561415d5750600082815260098f01602052604090205415155b156141c157600199506040518060400160405280600481526020016339ba3ab760e11b815250878481518110614195576141956156a8565b602002602001018190525060018684815181106141b4576141b46156a8565b6020026020010181815250505b600082815260098f01602052604081208054600192906141e29084906156d4565b9091555050608081015115614265576142008e838360800151614c4d565b6040518060400160405280600b81526020016a185d1d1858dad09bdbdcdd60aa1b815250878481518110614236576142366156a8565b60200260200101819052508060800151868481518110614258576142586156a8565b6020026020010181815250505b60a0810151156142e75761427e8e838360a00151614c94565b6040518060400160405280600f81526020016e30ba3a30b1b5a932b23ab1ba34b7b760891b8152508784815181106142b8576142b86156a8565b60200260200101819052508060a001518684815181106142da576142da6156a8565b6020026020010181815250505b60c081015115614366576143008e838360c00151614cf3565b6040518060400160405280600c81526020016b191959995b9cd9509bdbdcdd60a21b815250878481518110614337576143376156a8565b60200260200101819052508060c00151868481518110614359576143596156a8565b6020026020010181815250505b60e0810151156143e95761437f8e838360e00151614d3a565b6040518060400160405280601081526020016f3232b332b739b2a932b23ab1ba34b7b760811b8152508784815181106143ba576143ba6156a8565b60200260200101819052508060e001518684815181106143dc576143dc6156a8565b6020026020010181815250505b61010081015115614469576144038e826101000151614d99565b6040518060400160405280600b81526020016a3432b0b62832b92a3ab93760a91b815250878481518110614439576144396156a8565b602002602001018190525080610100015186848151811061445c5761445c6156a8565b6020026020010181815250505b610120810151156145205760008e60020160000154905061448f8f836101200151614db9565b60028f01548111156144b75760028f01546144aa90826156d4565b6144b4908d615a71565b9b505b6040518060400160405280600d81526020016c3230b6b0b3b2a832b92a3ab93760991b8152508885815181106144ef576144ef6156a8565b6020026020010181905250816101200151878581518110614512576145126156a8565b602002602001018181525050505b600082815260098f01602052604081205490036146d75760808101511561457857608081015160038f01805460009061455a9084906156d4565b90915550506000828152600a8f0160205260409020805460ff191690555b60a0810151156145b95760a081015160038f01805460009061459b908490615a71565b90915550506000828152600a8f0160205260409020805460ff191690555b60c0810151156145fa5760c081015160048f0180546000906145dc9084906156d4565b90915550506000828152600a8f0160205260409020805460ff191690555b60e08101511561463b5760e081015160048f01805460009061461d908490615a71565b90915550506000828152600a8f0160205260409020805460ff191690555b60088e0154600110156146975760088e01805461465a906001906156d4565b8154811061466a5761466a6156a8565b90600052602060002001548e600801848154811061468a5761468a6156a8565b6000918252602090912001555b8d6008018054806146aa576146aa6156e7565b6001900381819060005260206000200160009055905560008311156146d757826146d381615ec4565b9350505b818984815181106146ea576146ea6156a8565b602002602001018181525050806020015188848151811061470d5761470d6156a8565b60200260200101819052508b85848151811061472b5761472b6156a8565b6020026020010181815250508d60090160008381526020019081526020016000205484848151811061475f5761475f6156a8565b6020026020010181815250505050808061477890615755565b91505061409c565b50600b8b01805488151560ff199091161790559397509397509397509397565b6147a8614de7565b6147b0614de7565b60006103e885600c015486600201600101546147cc919061597d565b6147d691906159aa565b905060006103e885600c015486600201600101546147f4919061597d565b6147fe91906159aa565b905081856002016000015411614815576000614825565b60028501546148259083906156d4565b600280870191909155860154811061483e57600061484e565b600286015461484e9082906156d4565b60028701556005860180546003919060009061486b9084906156d4565b9091555050600585018054600391906000906148889084906156d4565b909155505060408051808201825260028901546001600160a01b0390811682526003909901549098166020808a0191909152815180830190925292815291820152959350505050565b6148d9614de7565b6148e1614de7565b6040518060400160405280600081526020016000815250915060006103e885600c01548660020160010154614916919061597d565b61492091906159aa565b905080846002016002015410156149a257600484015460009061494390836156d4565b90508085600201600001541161495a57600061496a565b600285015461496a9082906156d4565b600286015560038701546001600160a01b03168352808452600485015460168801805460009061499b908490615a71565b9091555050505b60038560020160030160008282546149ba91906156d4565b909155505050935093915050565b6149d0614de7565b6149d8614de7565b6040518060400160405280600081526020016000815250915060006103e884600c01548560020160010154614a0d919061597d565b614a1791906159aa565b90508085600201600201541015614a9f576004850154600090614a3a90836156d4565b905080866002016000015411614a51576000614a61565b6002860154614a619082906156d4565b6002878101919091558701546001600160a01b03168352602084018190526004860154601588018054600090614a98908490615a71565b9091555050505b60038460020160030160008282546149ba91906156d4565b614abf614de7565b614ac7614de7565b60006103e885600c01548660020160010154614ae3919061597d565b614aed91906159aa565b905080846002016000015411614b04576000614b14565b6002840154614b149082906156d4565b60028501556003808701546001600160a01b031683528184526005860180546000906149ba9084906156d4565b614b49614de7565b614b51614de7565b60006103e884600c01548560020160010154614b6d919061597d565b614b7791906159aa565b905080856002016000015411614b8e576000614b9e565b6002850154614b9e9082906156d4565b6002868101919091558601546001600160a01b0316825260208301819052600584018054600391906000906149ba9084906156d4565b60005b6008840154811015614c305782846008018281548110614bf957614bf96156a8565b906000526020600020015403614c1e5750600091825260099092016020526040902055565b80614c2881615755565b915050614bd7565b505060089091018054600181018255600091825260209091200155565b6000828152600a8401602052604090205460ff16613638576000828152600a840160205260408120805460ff19166001179055600384018054839290613632908490615a71565b6000828152600a8401602052604090205460ff16613638576000828152600a840160205260409020805460ff1916600117905560038301548110614cd9576000614ce9565b6003830154614ce99082906156d4565b6003840155505050565b6000828152600a8401602052604090205460ff16613638576000828152600a840160205260408120805460ff19166001179055600484018054839290613632908490615a71565b6000828152600a8401602052604090205460ff16613638576000828152600a840160205260409020805460ff1916600117905560048301548110614d7f576000614d8f565b6004830154614d8f9082906156d4565b6004840155505050565b80826002016000016000828254614db09190615a71565b90915550505050565b60028201548110614dcb576000614ddb565b6002820154614ddb9082906156d4565b60029092019190915550565b60405180604001604052806002906020820280368337509192915050565b6040518061016001604052806000815260200160608152602001614e27614de7565b8152602001614e34614de7565b8152602001614e41614de7565b8152602001614e4e614de7565b81526020016000815260006020820152604001614e69614de7565b815260200160008152602001614e7d614fcf565b905290565b8260028101928215614eca579160200282015b82811115614eca57825182546001600160a01b0319166001600160a01b03909116178255602090920191600190910190614e95565b50614ed692915061504b565b5090565b8260028101928215614eca579160200282015b82811115614eca578251825591602001919060010190614eed565b600183019183908215614eca5791602002820160005b83821115614f5b57835183826101000a81548160ff0219169083151502179055509260200192600101602081600001049283019260010302614f1e565b8015614f885782816101000a81549060ff0219169055600101602081600001049283019260010302614f5b565b5050614ed692915061504b565b828054828255906000526020600020908101928215614eca5791602002820182811115614eca578251825591602001919060010190614eed565b604051806101200160405280614fe3614de7565b8152602001614ff0614de7565b8152602001614ffd614de7565b815260200161500a614de7565b8152602001615017614de7565b8152602001615024614de7565b8152602001615031614de7565b815260200161503e614de7565b8152602001614e7d614de7565b5b80821115614ed6576000815560010161504c565b60006020828403121561507257600080fd5b5035919050565b6001600160a01b038116811461056357600080fd5b6000602082840312156150a057600080fd5b81356150ab81615079565b9392505050565b600081518084526020808501945080840160005b838110156150e2578151875295820195908201906001016150c6565b509495945050505050565b6020815260006150ab60208301846150b2565b8060005b600281101561512c5781516001600160a01b0316845260209384019390910190600101615104565b50505050565b6040810161068d8284615100565b6000806040838503121561515357600080fd5b82359150602083013561516581615079565b809150509250929050565b60005b8381101561518b578181015183820152602001615173565b50506000910152565b600081518084526151ac816020860160208601615170565b601f01601f19169290920160200192915050565b634e487b7160e01b600052602160045260246000fd5b600381106151e6576151e66151c0565b9052565b8060005b600281101561512c5781518452602093840193909101906001016151ee565b6152188282516151ea565b602081015161522a60408401826151ea565b50604081015161523d60808401826151ea565b50606081015161525060c08401826151ea565b506080810151610100615265818501836151ea565b60a0830151915061527a6101408501836151ea565b60c0830151915061528f6101808501836151ea565b60e083015191506152a46101c08501836151ea565b82015190506136386102008401826151ea565b60006102e08883528060208401526152d181840189615194565b9150506152e160408301876151d6565b6001600160a01b03851660608301526080820184905261530460a083018461520d565b979650505050505050565b60008060006060848603121561532457600080fd5b8335925060208401356004811061533a57600080fd5b929592945050506040919091013590565b8060005b600281101561512c578151151584526020938401939091019060010161534f565b6020815281516020820152600060208301516104206040840152615398610440840182615194565b905060408401516153ac6060850182615100565b5060608401516153bf60a08501826151ea565b5060808401516153d260e08501826151ea565b5060a08401516101206153e7818601836151ea565b60c086015191506153fc6101608601836151d6565b60e08601516001600160a01b031661018086015261010086015191506154266101a086018361534b565b8501516101e08501525061014084015161544461020085018261520d565b509392505050565b634e487b7160e01b600052604160045260246000fd5b60405160a081016001600160401b03811182821017156154845761548461544c565b60405290565b60405161016081016001600160401b03811182821017156154845761548461544c565b604051601f8201601f191681016001600160401b03811182821017156154d5576154d561544c565b604052919050565b60006001600160401b038211156154f6576154f661544c565b50601f01601f191660200190565b6000806040838503121561551757600080fd5b82356001600160401b0381111561552d57600080fd5b8301601f8101851361553e57600080fd5b803561555161554c826154dd565b6154ad565b81815286602083850101111561556657600080fd5b8160208401602083013760006020928201830152969401359450505050565b6000806040838503121561559857600080fd5b50508035926020909101359150565b6040810161068d82846151ea565b6040815260006155c860408301856150b2565b82810360208401526155da81856150b2565b95945050505050565b60006020808352610120830184518285015260018060a01b03828601511660408501526040850151606085015260608501516080850152608085015160a085015260a085015160c085015260c085015160e085015260e0850151610100808187015250818151808452610140870191508483019350600092505b8083101561567d578351825292840192600192909201919084019061565d565b509695505050505050565b91825260601b6bffffffffffffffffffffffff1916602082015260340190565b634e487b7160e01b600052603260045260246000fd5b634e487b7160e01b600052601160045260246000fd5b8181038181111561068d5761068d6156be565b634e487b7160e01b600052603160045260246000fd5b600181811c9082168061571157607f821691505b60208210810361573157634e487b7160e01b600052602260045260246000fd5b50919050565b604081016004841061574b5761574b6151c0565b9281526020015290565b600060018201615767576157676156be565b5060010190565b60006020828403121561578057600080fd5b81516150ab81615079565b6020808252602e908201527f506c6179657220616c72656164792070617274696369706174696e6720696e2060408201526d616e6f7468657220626174746c6560901b606082015260800190565b601f82111561363857600081815260208120601f850160051c810160208610156158005750805b601f850160051c820191505b81811015611b3a5782815560010161580c565b81516001600160401b038111156158385761583861544c565b61584c8161584684546156fd565b846157d9565b602080601f83116001811461588157600084156158695750858301515b600019600386901b1c1916600185901b178555611b3a565b600085815260208120601f198616915b828110156158b057888601518255948401946001909101908401615891565b50858210156158ce5787850151600019600388901b60f8161c191681555b5050505050600190811b01905550565b805169ffffffffffffffffffff811681146158f857600080fd5b919050565b600080600080600060a0868803121561591557600080fd5b61591e866158de565b9450602086015193506040860151925060608601519150615941608087016158de565b90509295509295909350565b80820260008212600160ff1b84141615615969576159696156be565b818105831482151761068d5761068d6156be565b808202811582820484141761068d5761068d6156be565b634e487b7160e01b600052601260045260246000fd5b6000826159b9576159b9615994565b500490565b600081546159cb816156fd565b8085526020600183811680156159e85760018114615a0257615a30565b60ff1985168884015283151560051b880183019550615a30565b866000528260002060005b85811015615a285781548a8201860152908301908401615a0d565b890184019650505b505050505092915050565b604081526000615a4e60408301856159be565b90508260208301529392505050565b600082615a6c57615a6c615994565b500690565b8082018082111561068d5761068d6156be565b60c08101615a928286615100565b615a9f60408301856151ea565b615aac60808301846151ea565b949350505050565b600060208284031215615ac657600080fd5b5051919050565b60006020808385031215615ae057600080fd5b82516001600160401b0380821115615af757600080fd5b818501915085601f830112615b0b57600080fd5b815181811115615b1d57615b1d61544c565b8060051b9150615b2e8483016154ad565b8181529183018401918481019088841115615b4857600080fd5b938501935b83851015615b6657845182529385019390850190615b4d565b98975050505050505050565b60006101408083018d8452602060018060a01b03808f16828701528d6040870152808d166060870152508a60808601528960a08601528860c08601528760e086015286610100860152826101208601528192508554808352610160860193508660005281600020925060005b81811015615bfa57835485529382019360019384019301615bde565b50929f9e505050505050505050505050505050565b6020815260006150ab60208301846159be565b60008251615c34818460208701615170565b9190910192915050565b86815260c060208201526000615c5760c0830188615194565b8281036040840152615c698188615194565b60608401969096525050608081019290925260a0909101529392505050565b600082601f830112615c9957600080fd5b8151615ca761554c826154dd565b818152846020838601011115615cbc57600080fd5b615aac826020830160208701615170565b600060208284031215615cdf57600080fd5b81516001600160401b0380821115615cf657600080fd5b9083019060a08286031215615d0a57600080fd5b615d12615462565b82518152602083015182811115615d2857600080fd5b615d3487828601615c88565b60208301525060408301516040820152606083015160608201526080830151608082015280935050505092915050565b838152606060208201526000615d7d6060830185615194565b9050826040830152949350505050565b805180151581146158f857600080fd5b600060208284031215615daf57600080fd5b81516001600160401b0380821115615dc657600080fd5b908301906101608286031215615ddb57600080fd5b615de361548a565b82518152602083015182811115615df957600080fd5b615e0587828601615c88565b602083015250615e1760408401615d8d565b6040820152606083015160608201526080830151608082015260a083015160a082015260c083015160c082015260e083015160e082015261010091508183015182820152610120915081830151828201526101409150615e78828401615d8d565b91810191909152949350505050565b604081526000615e9a6040830185615194565b905060018060a01b03831660208301529392505050565b604081526000615a4e6040830185615194565b600081615ed357615ed36156be565b50600019019056fe4368617261637465722070726f7879206372656174656420666f7220706c61796572a264697066735822122031102ccaec07d12b1c69f59ab5f873e0adcc5ee2603c2273f375458dca13894e64736f6c63430008110033",
  "linkReferences": {},
  "deployedLinkReferences": {}
}