{
  "_format": "hh-sol-artifact-1",
  "contractName": "Battle",
  "sourceName": "contracts/Battle.sol",
  "abi": [
    {
      "inputs": [
        {
          "internalType": "address",
          "name": "_characterContractAddress",
          "type": "address"
        },
        {
          "internalType": "address",
          "name": "_battleSkillsContractAddress",
          "type": "address"
        }
      ],
      "stateMutability": "nonpayable",
      "type": "constructor"
    },
    {
      "anonymous": false,
      "inputs": [
        {
          "indexed": true,
          "internalType": "uint256",
          "name": "battleId",
          "type": "uint256"
        },
        {
          "indexed": true,
          "internalType": "address",
          "name": "player",
          "type": "address"
        }
      ],
      "name": "BattleCancelled",
      "type": "event"
    },
    {
      "anonymous": false,
      "inputs": [
        {
          "indexed": true,
          "internalType": "uint256",
          "name": "battleId",
          "type": "uint256"
        },
        {
          "indexed": true,
          "internalType": "address",
          "name": "creator",
          "type": "address"
        },
        {
          "indexed": false,
          "internalType": "uint256",
          "name": "characterId",
          "type": "uint256"
        }
      ],
      "name": "BattleCreated",
      "type": "event"
    },
    {
      "anonymous": false,
      "inputs": [
        {
          "indexed": false,
          "internalType": "string",
          "name": "battleName",
          "type": "string"
        },
        {
          "indexed": true,
          "internalType": "uint256",
          "name": "battleId",
          "type": "uint256"
        },
        {
          "indexed": true,
          "internalType": "address",
          "name": "winner",
          "type": "address"
        },
        {
          "indexed": true,
          "internalType": "address",
          "name": "loser",
          "type": "address"
        }
      ],
      "name": "BattleEnded",
      "type": "event"
    },
    {
      "anonymous": false,
      "inputs": [
        {
          "indexed": true,
          "internalType": "uint256",
          "name": "battleId",
          "type": "uint256"
        },
        {
          "indexed": false,
          "internalType": "uint256",
          "name": "round",
          "type": "uint256"
        },
        {
          "indexed": true,
          "internalType": "address",
          "name": "quitter",
          "type": "address"
        }
      ],
      "name": "BattleQuit",
      "type": "event"
    },
    {
      "anonymous": false,
      "inputs": [
        {
          "indexed": true,
          "internalType": "uint256",
          "name": "battleId",
          "type": "uint256"
        },
        {
          "indexed": true,
          "internalType": "address",
          "name": "player",
          "type": "address"
        },
        {
          "indexed": false,
          "internalType": "uint256",
          "name": "round",
          "type": "uint256"
        },
        {
          "indexed": false,
          "internalType": "uint256",
          "name": "diceNumber",
          "type": "uint256"
        }
      ],
      "name": "DiceRolled",
      "type": "event"
    },
    {
      "anonymous": false,
      "inputs": [
        {
          "indexed": true,
          "internalType": "uint256",
          "name": "battleId",
          "type": "uint256"
        },
        {
          "indexed": true,
          "internalType": "address",
          "name": "player1",
          "type": "address"
        },
        {
          "indexed": false,
          "internalType": "uint256",
          "name": "health1",
          "type": "uint256"
        },
        {
          "indexed": true,
          "internalType": "address",
          "name": "player2",
          "type": "address"
        },
        {
          "indexed": false,
          "internalType": "uint256",
          "name": "health2",
          "type": "uint256"
        }
      ],
      "name": "HealthUpdated",
      "type": "event"
    },
    {
      "anonymous": false,
      "inputs": [
        {
          "indexed": true,
          "internalType": "uint256",
          "name": "battleId",
          "type": "uint256"
        },
        {
          "indexed": true,
          "internalType": "address",
          "name": "player",
          "type": "address"
        },
        {
          "indexed": false,
          "internalType": "enum Battle.Move",
          "name": "move",
          "type": "uint8"
        },
        {
          "indexed": false,
          "internalType": "uint256",
          "name": "round",
          "type": "uint256"
        }
      ],
      "name": "MoveSubmitted",
      "type": "event"
    },
    {
      "anonymous": false,
      "inputs": [
        {
          "indexed": false,
          "internalType": "string",
          "name": "battleName",
          "type": "string"
        },
        {
          "indexed": true,
          "internalType": "uint256",
          "name": "battleId",
          "type": "uint256"
        },
        {
          "indexed": true,
          "internalType": "address",
          "name": "player1",
          "type": "address"
        },
        {
          "indexed": true,
          "internalType": "address",
          "name": "player2",
          "type": "address"
        }
      ],
      "name": "NewBattle",
      "type": "event"
    },
    {
      "anonymous": false,
      "inputs": [
        {
          "indexed": true,
          "internalType": "address",
          "name": "prevOwner",
          "type": "address"
        },
        {
          "indexed": true,
          "internalType": "address",
          "name": "newOwner",
          "type": "address"
        }
      ],
      "name": "OwnerUpdated",
      "type": "event"
    },
    {
      "anonymous": false,
      "inputs": [
        {
          "indexed": true,
          "internalType": "uint256",
          "name": "battleId",
          "type": "uint256"
        },
        {
          "indexed": false,
          "internalType": "address[2]",
          "name": "damagedPlayers",
          "type": "address[2]"
        },
        {
          "indexed": false,
          "internalType": "uint256[2]",
          "name": "damageDealt",
          "type": "uint256[2]"
        },
        {
          "indexed": false,
          "internalType": "uint256[2]",
          "name": "damageTaken",
          "type": "uint256[2]"
        },
        {
          "indexed": false,
          "internalType": "uint256",
          "name": "round",
          "type": "uint256"
        }
      ],
      "name": "RoundEnded",
      "type": "event"
    },
    {
      "anonymous": false,
      "inputs": [
        {
          "indexed": true,
          "internalType": "uint256",
          "name": "battleId",
          "type": "uint256"
        },
        {
          "indexed": false,
          "internalType": "uint256",
          "name": "round",
          "type": "uint256"
        },
        {
          "indexed": true,
          "internalType": "address",
          "name": "player",
          "type": "address"
        },
        {
          "indexed": false,
          "internalType": "string",
          "name": "skillName",
          "type": "string"
        },
        {
          "indexed": false,
          "internalType": "uint256",
          "name": "totalDamage",
          "type": "uint256"
        }
      ],
      "name": "SkillExecuted",
      "type": "event"
    },
    {
      "anonymous": false,
      "inputs": [
        {
          "indexed": true,
          "internalType": "uint256",
          "name": "battleId",
          "type": "uint256"
        },
        {
          "indexed": false,
          "internalType": "uint256",
          "name": "round",
          "type": "uint256"
        },
        {
          "indexed": true,
          "internalType": "address",
          "name": "character",
          "type": "address"
        },
        {
          "indexed": false,
          "internalType": "string",
          "name": "statusEffectName",
          "type": "string"
        },
        {
          "indexed": false,
          "internalType": "uint256",
          "name": "duration",
          "type": "uint256"
        }
      ],
      "name": "StatusEffectApplied",
      "type": "event"
    },
    {
      "anonymous": false,
      "inputs": [
        {
          "indexed": true,
          "internalType": "uint256",
          "name": "battleId",
          "type": "uint256"
        },
        {
          "indexed": true,
          "internalType": "address",
          "name": "owner",
          "type": "address"
        },
        {
          "indexed": false,
          "internalType": "uint256",
          "name": "effectId",
          "type": "uint256"
        },
        {
          "indexed": false,
          "internalType": "string",
          "name": "effectName",
          "type": "string"
        },
        {
          "indexed": false,
          "internalType": "string",
          "name": "effectType",
          "type": "string"
        },
        {
          "indexed": false,
          "internalType": "uint256",
          "name": "effectValue",
          "type": "uint256"
        },
        {
          "indexed": false,
          "internalType": "uint256",
          "name": "round",
          "type": "uint256"
        }
      ],
      "name": "StatusEffectResolved",
      "type": "event"
    },
    {
      "stateMutability": "payable",
      "type": "fallback"
    },
    {
      "inputs": [
        {
          "internalType": "uint256",
          "name": "",
          "type": "uint256"
        }
      ],
      "name": "activeBattlesId",
      "outputs": [
        {
          "internalType": "uint256",
          "name": "",
          "type": "uint256"
        }
      ],
      "stateMutability": "view",
      "type": "function"
    },
    {
      "inputs": [],
      "name": "battleCounter",
      "outputs": [
        {
          "internalType": "uint256",
          "name": "",
          "type": "uint256"
        }
      ],
      "stateMutability": "view",
      "type": "function"
    },
    {
      "inputs": [],
      "name": "battleFee",
      "outputs": [
        {
          "internalType": "uint256",
          "name": "",
          "type": "uint256"
        }
      ],
      "stateMutability": "view",
      "type": "function"
    },
    {
      "inputs": [
        {
          "internalType": "uint256",
          "name": "",
          "type": "uint256"
        }
      ],
      "name": "battles",
      "outputs": [
        {
          "internalType": "uint256",
          "name": "battleId",
          "type": "uint256"
        },
        {
          "internalType": "string",
          "name": "name",
          "type": "string"
        },
        {
          "internalType": "enum Battle.BattleStatus",
          "name": "battleStatus",
          "type": "uint8"
        },
        {
          "internalType": "address",
          "name": "winner",
          "type": "address"
        },
        {
          "internalType": "uint256",
          "name": "round",
          "type": "uint256"
        },
        {
          "components": [
            {
              "internalType": "uint256[2]",
              "name": "initialHealth",
              "type": "uint256[2]"
            },
            {
              "internalType": "uint256[2]",
              "name": "initialMana",
              "type": "uint256[2]"
            },
            {
              "internalType": "uint256[2]",
              "name": "totalDamageDealt",
              "type": "uint256[2]"
            },
            {
              "internalType": "uint256[2]",
              "name": "totalDamageTaken",
              "type": "uint256[2]"
            }
          ],
          "internalType": "struct Battle.BattleStats",
          "name": "battleStats",
          "type": "tuple"
        }
      ],
      "stateMutability": "view",
      "type": "function"
    },
    {
      "inputs": [
        {
          "internalType": "uint256",
          "name": "_battleId",
          "type": "uint256"
        }
      ],
      "name": "cancelBattle",
      "outputs": [],
      "stateMutability": "nonpayable",
      "type": "function"
    },
    {
      "inputs": [
        {
          "internalType": "string",
          "name": "_name",
          "type": "string"
        },
        {
          "internalType": "uint256",
          "name": "_characterTokenId",
          "type": "uint256"
        }
      ],
      "name": "createBattle",
      "outputs": [],
      "stateMutability": "nonpayable",
      "type": "function"
    },
    {
      "inputs": [],
      "name": "feeCollected",
      "outputs": [
        {
          "internalType": "uint256",
          "name": "",
          "type": "uint256"
        }
      ],
      "stateMutability": "view",
      "type": "function"
    },
    {
      "inputs": [],
      "name": "getActiveBattlesCount",
      "outputs": [
        {
          "internalType": "uint256",
          "name": "",
          "type": "uint256"
        }
      ],
      "stateMutability": "view",
      "type": "function"
    },
    {
      "inputs": [],
      "name": "getActiveBattlesId",
      "outputs": [
        {
          "internalType": "uint256[]",
          "name": "",
          "type": "uint256[]"
        }
      ],
      "stateMutability": "view",
      "type": "function"
    },
    {
      "inputs": [
        {
          "internalType": "uint256",
          "name": "_battleId",
          "type": "uint256"
        }
      ],
      "name": "getBattle",
      "outputs": [
        {
          "components": [
            {
              "internalType": "uint256",
              "name": "battleId",
              "type": "uint256"
            },
            {
              "internalType": "string",
              "name": "name",
              "type": "string"
            },
            {
              "internalType": "address[2]",
              "name": "players",
              "type": "address[2]"
            },
            {
              "internalType": "uint256[2]",
              "name": "characterIds",
              "type": "uint256[2]"
            },
            {
              "internalType": "uint256[2]",
              "name": "moves",
              "type": "uint256[2]"
            },
            {
              "internalType": "uint256[2]",
              "name": "skillIndices",
              "type": "uint256[2]"
            },
            {
              "internalType": "enum Battle.BattleStatus",
              "name": "battleStatus",
              "type": "uint8"
            },
            {
              "internalType": "address",
              "name": "winner",
              "type": "address"
            },
            {
              "internalType": "bool[2]",
              "name": "moveSubmitted",
              "type": "bool[2]"
            },
            {
              "internalType": "uint256",
              "name": "round",
              "type": "uint256"
            },
            {
              "components": [
                {
                  "internalType": "uint256[2]",
                  "name": "initialHealth",
                  "type": "uint256[2]"
                },
                {
                  "internalType": "uint256[2]",
                  "name": "initialMana",
                  "type": "uint256[2]"
                },
                {
                  "internalType": "uint256[2]",
                  "name": "totalDamageDealt",
                  "type": "uint256[2]"
                },
                {
                  "internalType": "uint256[2]",
                  "name": "totalDamageTaken",
                  "type": "uint256[2]"
                }
              ],
              "internalType": "struct Battle.BattleStats",
              "name": "battleStats",
              "type": "tuple"
            }
          ],
          "internalType": "struct Battle.BattleData",
          "name": "",
          "type": "tuple"
        }
      ],
      "stateMutability": "view",
      "type": "function"
    },
    {
      "inputs": [
        {
          "internalType": "uint256",
          "name": "battleId",
          "type": "uint256"
        }
      ],
      "name": "getBattleMoves",
      "outputs": [
        {
          "internalType": "uint256[2]",
          "name": "",
          "type": "uint256[2]"
        }
      ],
      "stateMutability": "view",
      "type": "function"
    },
    {
      "inputs": [
        {
          "internalType": "uint256",
          "name": "battleId",
          "type": "uint256"
        }
      ],
      "name": "getBattleParticipants",
      "outputs": [
        {
          "internalType": "address[2]",
          "name": "",
          "type": "address[2]"
        }
      ],
      "stateMutability": "view",
      "type": "function"
    },
    {
      "inputs": [
        {
          "internalType": "uint256",
          "name": "_battleId",
          "type": "uint256"
        }
      ],
      "name": "getBattleSummary",
      "outputs": [
        {
          "internalType": "uint256",
          "name": "round",
          "type": "uint256"
        },
        {
          "internalType": "uint256[2]",
          "name": "damageTaken",
          "type": "uint256[2]"
        },
        {
          "internalType": "uint256[2]",
          "name": "damageDealt",
          "type": "uint256[2]"
        },
        {
          "internalType": "uint256[2]",
          "name": "manaConsumed",
          "type": "uint256[2]"
        },
        {
          "internalType": "address",
          "name": "winner",
          "type": "address"
        },
        {
          "internalType": "address",
          "name": "loser",
          "type": "address"
        }
      ],
      "stateMutability": "view",
      "type": "function"
    },
    {
      "inputs": [
        {
          "internalType": "uint256",
          "name": "battleId",
          "type": "uint256"
        },
        {
          "internalType": "address",
          "name": "player",
          "type": "address"
        }
      ],
      "name": "getCharacterHealth",
      "outputs": [
        {
          "internalType": "uint256",
          "name": "",
          "type": "uint256"
        }
      ],
      "stateMutability": "view",
      "type": "function"
    },
    {
      "inputs": [
        {
          "internalType": "uint256",
          "name": "battleId",
          "type": "uint256"
        },
        {
          "internalType": "address",
          "name": "player",
          "type": "address"
        }
      ],
      "name": "getCharacterProxy",
      "outputs": [
        {
          "components": [
            {
              "internalType": "uint256",
              "name": "id",
              "type": "uint256"
            },
            {
              "internalType": "address",
              "name": "owner",
              "type": "address"
            },
            {
              "internalType": "uint256",
              "name": "health",
              "type": "uint256"
            },
            {
              "internalType": "uint256",
              "name": "attack",
              "type": "uint256"
            },
            {
              "internalType": "uint256",
              "name": "defense",
              "type": "uint256"
            },
            {
              "internalType": "uint256",
              "name": "mana",
              "type": "uint256"
            },
            {
              "internalType": "uint256",
              "name": "typeId",
              "type": "uint256"
            },
            {
              "internalType": "uint256[]",
              "name": "equippedSkills",
              "type": "uint256[]"
            }
          ],
          "internalType": "struct Battle.CharacterProxyView",
          "name": "",
          "type": "tuple"
        }
      ],
      "stateMutability": "view",
      "type": "function"
    },
    {
      "inputs": [
        {
          "internalType": "uint256",
          "name": "battleId",
          "type": "uint256"
        },
        {
          "internalType": "address",
          "name": "player",
          "type": "address"
        }
      ],
      "name": "getCharacterProxyActiveEffects",
      "outputs": [
        {
          "internalType": "uint256[]",
          "name": "effectIds",
          "type": "uint256[]"
        },
        {
          "internalType": "uint256[]",
          "name": "durations",
          "type": "uint256[]"
        }
      ],
      "stateMutability": "view",
      "type": "function"
    },
    {
      "inputs": [
        {
          "internalType": "uint256",
          "name": "battleId",
          "type": "uint256"
        },
        {
          "internalType": "uint256",
          "name": "characterTokenId",
          "type": "uint256"
        }
      ],
      "name": "joinBattle",
      "outputs": [],
      "stateMutability": "nonpayable",
      "type": "function"
    },
    {
      "inputs": [],
      "name": "leagueRewards",
      "outputs": [
        {
          "internalType": "uint256",
          "name": "",
          "type": "uint256"
        }
      ],
      "stateMutability": "view",
      "type": "function"
    },
    {
      "inputs": [],
      "name": "owner",
      "outputs": [
        {
          "internalType": "address",
          "name": "",
          "type": "address"
        }
      ],
      "stateMutability": "view",
      "type": "function"
    },
    {
      "inputs": [
        {
          "internalType": "address",
          "name": "",
          "type": "address"
        }
      ],
      "name": "playerCredit",
      "outputs": [
        {
          "internalType": "uint256",
          "name": "",
          "type": "uint256"
        }
      ],
      "stateMutability": "view",
      "type": "function"
    },
    {
      "inputs": [
        {
          "internalType": "address",
          "name": "",
          "type": "address"
        }
      ],
      "name": "playerOngoingBattle",
      "outputs": [
        {
          "internalType": "uint256",
          "name": "",
          "type": "uint256"
        }
      ],
      "stateMutability": "view",
      "type": "function"
    },
    {
      "inputs": [
        {
          "internalType": "uint256",
          "name": "_battleId",
          "type": "uint256"
        }
      ],
      "name": "quitBattle",
      "outputs": [],
      "stateMutability": "nonpayable",
      "type": "function"
    },
    {
      "inputs": [
        {
          "internalType": "address",
          "name": "_newOwner",
          "type": "address"
        }
      ],
      "name": "setOwner",
      "outputs": [],
      "stateMutability": "nonpayable",
      "type": "function"
    },
    {
      "inputs": [],
      "name": "staminaCost",
      "outputs": [
        {
          "internalType": "uint256",
          "name": "",
          "type": "uint256"
        }
      ],
      "stateMutability": "view",
      "type": "function"
    },
    {
      "inputs": [
        {
          "internalType": "uint256",
          "name": "_tokenId1",
          "type": "uint256"
        },
        {
          "internalType": "uint256",
          "name": "_tokenId2",
          "type": "uint256"
        }
      ],
      "name": "storeStamina",
      "outputs": [],
      "stateMutability": "nonpayable",
      "type": "function"
    },
    {
      "inputs": [
        {
          "internalType": "uint256",
          "name": "battleId",
          "type": "uint256"
        },
        {
          "internalType": "enum Battle.Move",
          "name": "move",
          "type": "uint8"
        },
        {
          "internalType": "uint256",
          "name": "skillId",
          "type": "uint256"
        }
      ],
      "name": "submitMove",
      "outputs": [],
      "stateMutability": "nonpayable",
      "type": "function"
    },
    {
      "inputs": [
        {
          "internalType": "uint256",
          "name": "newCost",
          "type": "uint256"
        }
      ],
      "name": "updateStaminaCost",
      "outputs": [],
      "stateMutability": "nonpayable",
      "type": "function"
    },
    {
      "stateMutability": "payable",
      "type": "receive"
    }
  ],
  "bytecode": "0x608060405260196004553480156200001657600080fd5b50604051620058ce380380620058ce833981016040819052620000399162000088565b600c80546001600160a01b039384166001600160a01b031991821617909155600d8054929093169116179055620000c0565b80516001600160a01b03811681146200008357600080fd5b919050565b600080604083850312156200009c57600080fd5b620000a7836200006b565b9150620000b7602084016200006b565b90509250929050565b6157fe80620000d06000396000f3fe60806040526004361061018b5760003560e01c80636efe60c1116100e0578063ba7b559611610084578063daf241aa11610061578063daf241aa146104a2578063dc55da6f146104d0578063e44dba4f146104fd578063f30293091461051d57005b8063ba7b55961461044a578063c7f42c6414610477578063d054fe001461048c57005b80638e4c1999116100bd5780638e4c1999146103c757806396033b76146103e7578063a10d80de14610414578063a9b9be3f1461043457005b80636efe60c1146103525780638bdb3b2f1461037f5780638da5cb5b1461039f57005b80633305610911610147578063606d2e9611610124578063606d2e96146102bd5780636bc8e4a9146102ef5780636ca7f95c1461030f5780636dd0ce7a1461032557005b806333056109146102505780634188de5a1461027d5780634c4c447e1461029d57005b8063068a1e4914610194578063086d35c2146101b85780630ba5a8e6146101ce57806313af4035146101ee578063239752ab1461020e57806332ccca0e1461022e57005b3661019257005b005b3480156101a057600080fd5b506006545b6040519081526020015b60405180910390f35b3480156101c457600080fd5b506101a560035481565b3480156101da57600080fd5b506101926101e9366004614760565b61054f565b3480156101fa57600080fd5b5061019261020936600461478e565b6105a4565b34801561021a57600080fd5b506101a5610229366004614760565b6105b0565b34801561023a57600080fd5b506102436105d1565b6040516101af91906147ed565b34801561025c57600080fd5b5061027061026b366004614760565b610629565b6040516101af919061482c565b34801561028957600080fd5b506101a561029836600461483a565b61067e565b3480156102a957600080fd5b506101926102b8366004614760565b6106dd565b3480156102c957600080fd5b506102dd6102d8366004614760565b6108c2565b6040516101af96959493929190614952565b3480156102fb57600080fd5b5061019261030a3660046149aa565b610a6d565b34801561031b57600080fd5b506101a560025481565b34801561033157600080fd5b50610345610340366004614760565b611005565b6040516101af9190614a0b565b34801561035e57600080fd5b506101a561036d36600461478e565b60086020526000908152604090205481565b34801561038b57600080fd5b5061019261039a366004614ba3565b611347565b3480156103ab57600080fd5b506000546040516001600160a01b0390911681526020016101af565b3480156103d357600080fd5b506101926103e2366004614c25565b6117b8565b3480156103f357600080fd5b506101a561040236600461478e565b600b6020526000908152604090205481565b34801561042057600080fd5b5061019261042f366004614760565b611878565b34801561044057600080fd5b506101a5600a5481565b34801561045657600080fd5b5061046a610465366004614760565b611d10565b6040516101af9190614c47565b34801561048357600080fd5b506101a5611d45565b34801561049857600080fd5b506101a560045481565b3480156104ae57600080fd5b506104c26104bd36600461483a565b611e07565b6040516101af929190614c55565b3480156104dc57600080fd5b506104f06104eb36600461483a565b611f86565b6040516101af9190614c83565b34801561050957600080fd5b50610192610518366004614c25565b6120d2565b34801561052957600080fd5b5061053d610538366004614760565b612395565b6040516101af96959493929190614d28565b6000546001600160a01b0316331461059f5760405162461bcd60e51b815260206004820152600e60248201526d139bdd08185d5d1a1bdc9a5e995960921b60448201526064015b60405180910390fd5b600455565b6105ad8161258e565b50565b600681815481106105c057600080fd5b600091825260209091200154905081565b6060600680548060200260200160405190810160405280929190818152602001828054801561061f57602002820191906000526020600020905b81548152602001906001019080831161060b575b5050505050905090565b610631614529565b60008281526005602052604090819020815180830192839052916002918201919082845b81546001600160a01b031681526001909101906020018083116106555750505050509050919050565b6000600960008484604051602001610697929190614d7d565b60408051601f19818403018152918152815160209283012083528282019390935290820160009081206001600160a01b0386168252909152206002015490505b92915050565b600081815260056020526040902060028101546001600160a01b031633146107565760405162461bcd60e51b815260206004820152602660248201527f4f6e6c79207468652063726561746f722063616e2063616e63656c2074686520604482015265626174746c6560d01b6064820152608401610596565b6000600a82015460ff166002811115610771576107716148c2565b146107be5760405162461bcd60e51b815260206004820152601e60248201527f43616e6e6f742063616e63656c2061207374617274656420626174746c6500006044820152606401610596565b600a8101805460ff1916600217905533600090815260086020908152604080832083905584835260079091528120546006549091906107ff90600190614dc9565b905060006006828154811061081657610816614d9d565b90600052602060002001549050806006848154811061083757610837614d9d565b6000918252602080832090910192909255828152600790915260409020839055600680548061086857610868614de0565b60008281526020808220830160001990810183905590920190925586825260079052604080822082905551339187917fb91ae85405a99ffc07c694757cfbb7a52994c3b4daf39d040a6d56b1429ed7c79190a35050505050565b600560205260009081526040902080546001820180549192916108e490614df6565b80601f016020809104026020016040519081016040528092919081815260200182805461091090614df6565b801561095d5780601f106109325761010080835404028352916020019161095d565b820191906000526020600020905b81548152906001019060200180831161094057829003601f168201915b50505050600a830154600c8401546040805160c0810191829052949560ff8416956101009094046001600160a01b03169450919290600d83019082906080820190839060029082845b8154815260200190600101908083116109a657505050918352505060408051808201918290526020909201919060028481019182845b8154815260200190600101908083116109dc575050509183525050604080518082019182905260209092019190600484019060029082845b815481526020019060010190808311610a14575050509183525050604080518082019182905260209092019190600684019060029082845b815481526020019060010190808311610a4c57505050505081525050905086565b60008381526005602052604081208491610a9691600201905b01546001600160a01b03166125de565b6000818152600560205260409020610ab2906002016001610a86565b600081815260056020526040902060028101546003909101546001600160a01b03918216911633821480610aee5750336001600160a01b038216145b610b4b5760405162461bcd60e51b815260206004820152602860248201527f4f6e6c79207061727469636970616e74732063616e2063616c6c207468697320604482015267333ab731ba34b7b760c11b6064820152608401610596565b60008681526005602052604090206001600a82015460ff166002811115610b7457610b746148c2565b14610bd55760405162461bcd60e51b815260206004820152602b60248201527f426174746c6520686173206e6f742073746172746564206f722068617320616c60448201526a1c9958591e48195b99195960aa1b6064820152608401610596565b6000866003811115610be957610be96148c2565b1480610c0657506001866003811115610c0457610c046148c2565b145b80610c2257506002866003811115610c2057610c206148c2565b145b80610c3e57506003866003811115610c3c57610c3c6148c2565b145b610cb05760405162461bcd60e51b815260206004820152603e60248201527f496e76616c6964206d6f76653a206d7573742062652041545441434b2c20444560448201527f46454e442c205553455f534b494c4c2c206f7220444f5f4e4f5448494e4700006064820152608401610596565b6000600282018101546001600160a01b03163314610ccf576001610cd2565b60005b60ff16905081600b018160028110610cec57610cec614d9d565b602081049091015460ff601f9092166101000a90041615610d4f5760405162461bcd60e51b815260206004820181905260248201527f4d6f766520616c7265616479207375626d697474656420627920706c617965726044820152606401610596565b60008833604051602001610d64929190614d7d565b60408051601f19818403018152828252805160209182012060008181526009835283812033808352935292909220600c8701549294509290918c917f8aeb59a0d4a813dbcc0850f4aaf78c3bbdb6a8e181a23013ab163cc9a4cf647091610dcd918e9190614e30565b60405180910390a36001896003811115610de957610de96148c2565b14158015610e0957506003896003811115610e0657610e066148c2565b14155b15610e6657610e16612626565b600c80830182905585015460405133928d927f44c60cf2e549d3f07067958fb2907081416087b158fe86d2ddad6ec761790c5892610e5d9290918252602082015260400190565b60405180910390a35b6002896003811115610e7a57610e7a6148c2565b03610f20576000805b6007830154811015610ed05789836007018281548110610ea557610ea5614d9d565b906000526020600020015403610ebe5760019150610ed0565b80610ec881614e4e565b915050610e83565b5080610f1e5760405162461bcd60e51b815260206004820152601f60248201527f5375626d697474656420736b696c6c206973206e6f74206571756970706564006044820152606401610596565b505b886003811115610f3257610f326148c2565b846006018460028110610f4757610f47614d9d565b01556001600b85018460028110610f6057610f60614d9d565b602091828204019190066101000a81548160ff02191690831515021790555060026003811115610f9257610f926148c2565b896003811115610fa457610fa46148c2565b03610fc25787846008018460028110610fbf57610fbf614d9d565b01555b600b84015460ff168015610fdf5750600b840154610100900460ff165b15610ff95760088401546009850154610ff9918c916126b0565b50505050505050505050565b61100d614547565b60056000838152602001908152602001600020604051806101600160405290816000820154815260200160018201805461104690614df6565b80601f016020809104026020016040519081016040528092919081815260200182805461107290614df6565b80156110bf5780601f10611094576101008083540402835291602001916110bf565b820191906000526020600020905b8154815290600101906020018083116110a257829003601f168201915b505050918352505060408051808201918290526020909201919060028481019182845b81546001600160a01b031681526001909101906020018083116110e2575050509183525050604080518082019182905260209092019190600484019060029082845b815481526020019060010190808311611124575050509183525050604080518082019182905260209092019190600684019060029082845b81548152602001906001019080831161115c575050509183525050604080518082019182905260209092019190600884019060029082845b815481526020019060010190808311611194575050509183525050600a82015460209091019060ff1660028111156111ce576111ce6148c2565b60028111156111df576111df6148c2565b8152600a82015461010090046001600160a01b0316602082015260408051808201808352919092019190600b840190600290826000855b825461010083900a900460ff1615158152602060019283018181049485019490930390920291018084116112165790505050509183525050600c82015460208201526040805160c081018252910190600d830181608081018260028282826020028201915b81548152602001906001019080831161127b57505050918352505060408051808201918290526020909201919060028481019182845b8154815260200190600101908083116112b1575050509183525050604080518082019182905260209092019190600484019060029082845b8154815260200190600101908083116112e9575050509183525050604080518082019182905260209092019190600684019060029082845b815481526020019060010190808311611321575050509190925250505090525092915050565b600c546040516331a9108f60e11b81526004810183905233916001600160a01b031690636352211e90602401602060405180830381865afa158015611390573d6000803e3d6000fd5b505050506040513d601f19601f820116820180604052508101906113b49190614e67565b6001600160a01b03161461140a5760405162461bcd60e51b815260206004820152601e60248201527f4e6f7420746865206f776e6572206f66207468652063686172616374657200006044820152606401610596565b33600090815260086020526040902054156114375760405162461bcd60e51b815260040161059690614e84565b600a546040805161016081018252828152602080820186905282518084018452338152600081830181905283850191909152835180850185528681528083018290526060840152835180850185528181528083018290526080840152835180850190945280845290830181905260a082019290925260c08101828152600060208083018290526040805180820182528381528083018490528185015260016060808601829052825160c081018452608081810187815260a083018890528252845180860186528781528087018890528287015284518086018652878152808701889052828601528451808601865287815280870188905292820192909252950194909452868352600582529091208351815590830151929350839290918201906115619082614f18565b50604082015161157790600280840191906145c4565b50606082015161158d906004830190600261461c565b5060808201516115a3906006830190600261461c565b5060a08201516115b9906008830190600261461c565b5060c0820151600a8201805460ff191660018360028111156115dd576115dd6148c2565b021790555060e0820151600a82018054610100600160a81b0319166101006001600160a01b03909316830217905582015161161e90600b830190600261464a565b50610120820151600c8201556101408201518051600d830190611644908290600261461c565b50602082015161165a906002808401919061461c565b506040820151611670906004830190600261461c565b506060820151611686906006830190600261461c565b5050600680546001818101835560008390527ff652222313e28459528d920b65115c16c04f3efc82aaedc97be59f3f377c0d3f90910187905590546116d094509092509050614dc9565b600083815260076020908152604080832093909355338083526008909152919020839055611700908490846128f0565b600c546004805460405163739420a560e01b815291820186905260248201526001600160a01b039091169063739420a590604401600060405180830381600087803b15801561174e57600080fd5b505af1158015611762573d6000803e3d6000fd5b50506040518581523392508491507fcd51df591e2f9319b98d783b63c675c8ab2e63d44101da9e5a12af2b1fcab4799060200160405180910390a3600a80549060006117ad83614e4e565b919050555050505050565b600c54604051631a3bcbcf60e11b8152600481018490526001600160a01b0390911690633477979e90602401600060405180830381600087803b1580156117fe57600080fd5b505af1158015611812573d6000803e3d6000fd5b5050600c54604051631a3bcbcf60e11b8152600481018590526001600160a01b039091169250633477979e9150602401600060405180830381600087803b15801561185c57600080fd5b505af1158015611870573d6000803e3d6000fd5b505050505050565b6000818152600560205260409020600201546001600160a01b03166118d35760405162461bcd60e51b8152602060048201526011602482015270426174746c65206e6f7420666f756e642160781b6044820152606401610596565b600060056000838152602001908152602001600020604051806101600160405290816000820154815260200160018201805461190e90614df6565b80601f016020809104026020016040519081016040528092919081815260200182805461193a90614df6565b80156119875780601f1061195c57610100808354040283529160200191611987565b820191906000526020600020905b81548152906001019060200180831161196a57829003601f168201915b505050918352505060408051808201918290526020909201919060028481019182845b81546001600160a01b031681526001909101906020018083116119aa575050509183525050604080518082019182905260209092019190600484019060029082845b8154815260200190600101908083116119ec575050509183525050604080518082019182905260209092019190600684019060029082845b815481526020019060010190808311611a24575050509183525050604080518082019182905260209092019190600884019060029082845b815481526020019060010190808311611a5c575050509183525050600a82015460209091019060ff166002811115611a9657611a966148c2565b6002811115611aa757611aa76148c2565b8152600a82015461010090046001600160a01b0316602082015260408051808201808352919092019190600b840190600290826000855b825461010083900a900460ff161515815260206001928301818104948501949093039092029101808411611ade5790505050509183525050600c82015460208201526040805160c081018252910190600d830181608081018260028282826020028201915b815481526020019060010190808311611b4357505050918352505060408051808201918290526020909201919060028481019182845b815481526020019060010190808311611b79575050509183525050604080518082019182905260209092019190600484019060029082845b815481526020019060010190808311611bb1575050509183525050604080518082019182905260209092019190600684019060029082845b815481526020019060010190808311611be957505050919092525050509052506040810151519091506001600160a01b0316331480611c3857506040810151602001516001600160a01b031633145b611c845760405162461bcd60e51b815260206004820152601b60248201527f596f7520617265206e6f7420696e207468697320626174746c652100000000006044820152606401610596565b336001600160a01b0316827f3ff46d129afe6d0143c3e8ba124cdf4f4a5552918a50cd50b784ca9bdce4e357836101200151604051611cc591815260200190565b60405180910390a36040810151516001600160a01b03163314611cfe576040810151611cfa90839060005b6020020151612cee565b5050565b6040810151611cfa9083906001611cf0565b611d18614529565b50600090815260056020908152604091829020825180840190935260068101548352600701549082015290565b600080600160009054906101000a90046001600160a01b03166001600160a01b031663feaf968c6040518163ffffffff1660e01b815260040160a060405180830381865afa158015611d9b573d6000803e3d6000fd5b505050506040513d601f19601f82011682018060405250810190611dbf9190614ff7565b5050509150506000816402540be400611dd89190615047565b905066b1a2bc2ec5000081611df582670de0b6b3a76400006150cc565b611dff9190615101565b935050505090565b60608060008484604051602001611e1f929190614d7d565b60408051601f1981840301815291815281516020928301206000818152600984528281206001600160a01b038916825290935291206008810154919250908067ffffffffffffffff811115611e7657611e76614ae7565b604051908082528060200260200182016040528015611e9f578160200160208202803683370190505b5094508067ffffffffffffffff811115611ebb57611ebb614ae7565b604051908082528060200260200182016040528015611ee4578160200160208202803683370190505b50935060005b81811015611f7b576000836008018281548110611f0957611f09614d9d565b9060005260206000200154905080878381518110611f2957611f29614d9d565b60200260200101818152505083600901600082815260200190815260200160002054868381518110611f5d57611f5d614d9d565b60209081029190910101525080611f7381614e4e565b915050611eea565b505050509250929050565b611fd76040518061010001604052806000815260200160006001600160a01b031681526020016000815260200160008152602001600081526020016000815260200160008152602001606081525090565b60008383604051602001611fec929190614d7d565b60408051601f1981840301815282825280516020918201206000818152600983528381206001600160a01b03808a16835290845284822061010087018652805487526001810154909116868501526002810154868601526003810154606087015260048101546080870152600581015460a0870152600681015460c087015260078101805486518187028101870190975280875293975090959194919360e0850193908301828280156120be57602002820191906000526020600020905b8154815260200190600101908083116120aa575b505050919092525090979650505050505050565b600c546040516331a9108f60e11b81526004810183905233916001600160a01b031690636352211e90602401602060405180830381865afa15801561211b573d6000803e3d6000fd5b505050506040513d601f19601f8201168201806040525081019061213f9190614e67565b6001600160a01b0316146121955760405162461bcd60e51b815260206004820152601e60248201527f4e6f7420746865206f776e6572206f66207468652063686172616374657200006044820152606401610596565b33600090815260086020526040902054156121c25760405162461bcd60e51b815260040161059690614e84565b600082815260056020526040812090600a82015460ff1660028111156121ea576121ea6148c2565b146122375760405162461bcd60e51b815260206004820152601a60248201527f426174746c652068617320616c726561647920737461727465640000000000006044820152606401610596565b60038101546001600160a01b0316156122925760405162461bcd60e51b815260206004820152601e60248201527f426174746c6520616c7265616479206861732074776f20706c617965727300006044820152606401610596565b600581018290556003810180546001600160a01b03191633908117909155600a8201805460ff1916600117905560008181526008602052604090208490556122dc908390856128f0565b600c546004805460405163739420a560e01b815291820185905260248201526001600160a01b039091169063739420a590604401600060405180830381600087803b15801561232a57600080fd5b505af115801561233e573d6000803e3d6000fd5b50505050600281015460405133916001600160a01b03169085907fa72410bb9591bbefc185513ffe3391dab998fd386517820464188cc105719bcf90612388906001870190615115565b60405180910390a4505050565b600061239f614529565b6123a7614529565b6123af614529565b600085815260056020526040808220600c8101548251808401938490529097508392601383019060029082845b8154815260200190600101908083116123dc5750506040805180820191829052949a5060118601935060029250905082845b81548152602001906001019080831161240e575050505050945060008160020160006002811061244057612440614d9d565b01546001600160a01b03169050600060028301600101546001600160a01b031690506000600f840181015490506000600f85016001015490506000600960008e87604051602001612492929190614d7d565b60408051601f19818403018152918152815160209283012083528282019390935290820160009081206001600160a01b038916825290915220600501546124d99084614dc9565b90506000600960008f876040516020016124f4929190614d7d565b60408051601f19818403018152918152815160209283012083528282019390935290820160009081206001600160a01b0389168252909152206005015461253b9084614dc9565b6040805180820190915283815260208101829052600a890154909b506001600160a01b0361010090910481169a509091508616891461257a578561257c565b845b97505050505050505091939550919395565b600080546001600160a01b038381166001600160a01b0319831681178455604051919092169283917f8292fce18fa69edf4db7b94ea2e58241df0ae57f97e0a6c9b29067028bf92d769190a35050565b6040516001600160a01b03821660248201526105ad9060440160408051601f198184030181529190526020810180516001600160e01b031663161765e160e11b17905261300b565b600080601444423360405160200161266393929190928352602083019190915260601b6bffffffffffffffffffffffff1916604082015260540190565b6040516020818303038152906040528051906020012060001c61268691906151a0565b6126919060016151b4565b905061269e8160646150cc565b6126aa906103e86151b4565b91505090565b6000838152600560205260408120906126d98560028401835b01546001600160a01b031661302c565b905060006126ec866002850160016126c9565b90506126f6614529565b6126fe614529565b612706614529565b61270e614529565b61271d8a88600c015488613080565b8152600c870154612730908b9087613080565b6020820152600b86015460ff161561274a57600360068801555b600b85015460ff161561275f57600360078801555b6006870154600788015461277591908888613628565b6127828787878c8c61367a565b9450925061279381878785876137bb565b6001600c87810182905586015582516011880180546000906127b69084906151b4565b909155505060208301516012880180546000906127d49084906151b4565b909155505081516013880180546000906127ef9084906151b4565b9091555050602082015160148801805460009061280d9084906151b4565b9091555050600c8701546040518b917f1c18d51d882ce69ed20679aff51d0bc25f77878b0bbc4051e6d9ab2342f5e47f9161284d918891889188916151cc565b60405180910390a26002860154158061286857506002850154155b156128ba5760028086015490870154600091106128925760038801546001600160a01b03166128a1565b60028801546001600160a01b03165b90506128ad8b82612cee565b5050505050505050505050565b600b8701805461ffff19169055600c87018054600191906000906128df9084906151b4565b909155505050505050505050505050565b60008183604051602001612905929190614d7d565b60408051808303601f1901815282825280516020918201206000818152600983528381206001600160a01b03898116808452919094529390208881556001810180546001600160a01b031916909417909355600c546316442a7f60e11b8552600485018990529094509192911690632c8854fe90602401602060405180830381865afa158015612999573d6000803e3d6000fd5b505050506040513d601f19601f820116820180604052508101906129bd9190615203565b6002820155600c546040516319ddc96160e21b8152600481018790526001600160a01b0390911690636777258490602401602060405180830381865afa158015612a0b573d6000803e3d6000fd5b505050506040513d601f19601f82011682018060405250810190612a2f9190615203565b6003820155600c546040516323ce9af360e11b8152600481018790526001600160a01b039091169063479d35e690602401602060405180830381865afa158015612a7d573d6000803e3d6000fd5b505050506040513d601f19601f82011682018060405250810190612aa19190615203565b600482810191909155600c54604051633a274a5560e11b81529182018790526001600160a01b03169063744e94aa90602401602060405180830381865afa158015612af0573d6000803e3d6000fd5b505050506040513d601f19601f82011682018060405250810190612b149190615203565b6005820155600c54604051631bd2a47760e01b8152600481018790526001600160a01b0390911690631bd2a47790602401602060405180830381865afa158015612b62573d6000803e3d6000fd5b505050506040513d601f19601f82011682018060405250810190612b869190615203565b6006820155600c5460405163806227f560e01b8152600481018790526001600160a01b039091169063806227f590602401600060405180830381865afa158015612bd4573d6000803e3d6000fd5b505050506040513d6000823e601f3d908101601f19168201604052612bfc919081019061521c565b8051612c129160078401916020909101906146d7565b50612c356040518060600160405280602281526020016157a760229139856138bc565b612c65604051806040016040528060078152602001662432b0b63a341d60c91b8152508260020160000154613901565b612c936040518060400160405280600581526020016426b0b7309d60d91b8152508260020160030154613901565b600083815260056020526040902060028101546001600160a01b0390811690861603612cd2576002820154600d8201556005820154600f820155611870565b6002820154600e82015560059091015460109091015550505050565b6000828152600560205260409020600a8101805460ff196001600160a01b03851661010002166001600160a81b0319909116176002179055612d2f83613946565b600281015460038201546001600160a01b03918216600081815260086020526040808220829055928416808252928120819055909285168314612d725782612d74565b815b90506000836001600160a01b0316866001600160a01b031614612d98576001612d9b565b60005b60ff1690506000846001600160a01b0316836001600160a01b031614612dc2576001612dc5565b60005b60ff169050612dd688878484613a03565b6000600960008a88604051602001612def929190614d7d565b6040516020818303038152906040528051906020012081526020019081526020016000206000876001600160a01b03166001600160a01b031681526020019081526020016000206002016000015490506000600960008b88604051602001612e58929190614d7d565b60408051601f19818403018152918152815160209283012083528282019390935290820160009081206001600160a01b038a168252909152908120600201549150821580612ea4575081155b90508015612faf57600c546001600160a01b0316636a0558a660048b018760028110612ed257612ed2614d9d565b01546040516001600160e01b031960e084901b168152600481019190915260646024820152604401600060405180830381600087803b158015612f1457600080fd5b505af1158015612f28573d6000803e3d6000fd5b5050600c546001600160a01b03169150636a0558a6905060048b018660028110612f5457612f54614d9d565b01546040516001600160e01b031960e084901b1681526004810191909152601e6024820152604401600060405180830381600087803b158015612f9657600080fd5b505af1158015612faa573d6000803e3d6000fd5b505050505b856001600160a01b03168a6001600160a01b03168c7f0baf086d5a49a7d9df72185aa0488cadd724e398bb5e99c615ee24c699deba918c600101604051612ff69190615115565b60405180910390a45050505050505050505050565b80516a636f6e736f6c652e6c6f67602083016000808483855afa5050505050565b6000808383604051602001613042929190614d7d565b60408051601f1981840301815291815281516020928301206000908152600983528181206001600160a01b0387168252909252902091505092915050565b60008080805b600885015481101561360b5760008560080182815481106130a9576130a9614d9d565b6000918252602082200154600d54604051631187bd5160e01b8152600481018390529193506001600160a01b031690631187bd5190602401600060405180830381865afa1580156130fe573d6000803e3d6000fd5b505050506040513d6000823e601f3d908101601f19168201604052613126919081019061531f565b60808101519091501561318a5761314287838360800151613bfc565b6001870154602082015160808301516040516001600160a01b03909316928c926000805160206157878339815191529261318192889291908f9061540a565b60405180910390a35b60a0810151156131eb576131a387838360a00151613c4e565b6001870154602082015160a08301516040516001600160a01b03909316928c92600080516020615787833981519152926131e292889291908f9061545f565b60405180910390a35b60c08101511561324c5761320487838360c00151613cad565b6001870154602082015160c08301516040516001600160a01b03909316928c926000805160206157878339815191529261324392889291908f906154b8565b60405180910390a35b60e0810151156132ad5761326587838360e00151613cf4565b6001870154602082015160e08301516040516001600160a01b03909316928c92600080516020615787833981519152926132a492889291908f9061550e565b60405180910390a35b61010081015115613310576132c787826101000151613d53565b600187015460208201516101008301516040516001600160a01b03909316928c926000805160206157878339815191529261330792889291908f90615568565b60405180910390a35b806101400151156133785760008281526009880160205260409020541561333657600194505b60018088015460208301516040516001600160a01b03909216928c926000805160206157878339815191529261336f9288928f906155bd565b60405180910390a35b61012081015115613419576002870154610120820151613399908990613d73565b60028801548111156133c15760028801546133b49082614dc9565b6133be90866151b4565b94505b8760010160009054906101000a90046001600160a01b03166001600160a01b03168a6000805160206157878339815191528585602001518661012001518e60405161340f949392919061560b565b60405180910390a3505b6000828152600988016020526040812080546001929061343a908490614dc9565b9091555050600082815260098801602052604081205490036135f657608081015115613497576080810151600388018054600090613479908490614dc9565b90915550506000828152600a880160205260409020805460ff191690555b60a0810151156134d85760a08101516003880180546000906134ba9084906151b4565b90915550506000828152600a880160205260409020805460ff191690555b60c0810151156135195760c08101516004880180546000906134fb908490614dc9565b90915550506000828152600a880160205260409020805460ff191690555b60e08101511561355a5760e081015160048801805460009061353c9084906151b4565b90915550506000828152600a880160205260409020805460ff191690555b6008870154600110156135b65760088701805461357990600190614dc9565b8154811061358957613589614d9d565b90600052602060002001548760080184815481106135a9576135a9614d9d565b6000918252602090912001555b866008018054806135c9576135c9614de0565b6001900381819060005260206000200160009055905560008311156135f657826135f281615662565b9350505b5050808061360390614e4e565b915050613086565b50600b93909301805460ff19169115159190911790555092915050565b6001840361364e57600382600201600301600082825461364891906151b4565b90915550505b6001830361367457600381600201600301600082825461366e91906151b4565b90915550505b50505050565b613682614529565b61368a614529565b613692614529565b61369a614529565b600689015460078a0154811580156136b0575080155b156136c9576136c08b8b8b613da1565b94509250613746565b811580156136d75750600181145b156136e7576136c08b8b8b613ed2565b6001821480156136f5575080155b15613705576136c08b8b8b613fc6565b811580156137135750600381145b15613723576136c08b8b8b6140b1565b600382148015613731575080155b15613746576137418b8b8b61413b565b945092505b60028203613772576137648b600001548c600c01548c8b8d866141ce565b84526001600160a01b031684525b600281036137aa576137908b600001548c600c01548b8a8e876141ce565b6020858101919091526001600160a01b0391909116908501525b509099919850909650505050505050565b8451600285015411156137fc5784516002850180546000906137de908490614dc9565b90915550508451825183906137f49083906151b4565b90525061381b565b6002840154825183906138109083906151b4565b905250600060028501555b602085015160028401541115613867576020850151600284018054600090613844908490614dc9565b9091555050602080860151908301805161385f9083906151b4565b905250613888565b600283015460208301805161387d9083906151b4565b905250600060028401555b8451815182906138999083906151b4565b90525060208086015190820180516138b29083906151b4565b9052505050505050565b611cfa82826040516024016138d2929190615679565b60408051601f198184030181529190526020810180516001600160e01b031663319af33360e01b17905261300b565b611cfa82826040516024016139179291906156a3565b60408051601f198184030181529190526020810180516001600160e01b0316632d839cb360e21b17905261300b565b60008181526007602052604081205460065490919061396790600190614dc9565b905060006006828154811061397e5761397e614d9d565b90600052602060002001549050806006848154811061399f5761399f614d9d565b600091825260208083209091019290925582815260079091526040902083905560068054806139d0576139d0614de0565b60019003818190600052602060002001600090559055600760008581526020019081526020016000206000905550505050565b600283015460038401546040516001600160a01b0392831692909116906000906009908290613a38908a908790602001614d7d565b60408051808303601f19018152918152815160209283012083528282019390935290820160009081206001600160a01b03871682529091522060050154600f870154613a849190614dc9565b90506000600960008985604051602001613a9f929190614d7d565b60408051808303601f19018152918152815160209283012083528282019390935290820160009081206001600160a01b038716825290915220600501546010880154613aeb9190614dc9565b600c549091506001600160a01b03166345d5007e600489018860028110613b1457613b14614d9d565b0154846040518363ffffffff1660e01b8152600401613b3d929190918252602082015260400190565b600060405180830381600087803b158015613b5757600080fd5b505af1158015613b6b573d6000803e3d6000fd5b5050600c546001600160a01b031691506345d5007e9050600489018760028110613b9757613b97614d9d565b0154836040518363ffffffff1660e01b8152600401613bc0929190918252602082015260400190565b600060405180830381600087803b158015613bda57600080fd5b505af1158015613bee573d6000803e3d6000fd5b505050505050505050505050565b6000828152600a8401602052604090205460ff16613c49576000828152600a840160205260408120805460ff19166001179055600384018054839290613c439084906151b4565b90915550505b505050565b6000828152600a8401602052604090205460ff16613c49576000828152600a840160205260409020805460ff1916600117905560038301548110613c93576000613ca3565b6003830154613ca3908290614dc9565b6003840155505050565b6000828152600a8401602052604090205460ff16613c49576000828152600a840160205260408120805460ff19166001179055600484018054839290613c439084906151b4565b6000828152600a8401602052604090205460ff16613c49576000828152600a840160205260409020805460ff1916600117905560048301548110613d39576000613d49565b6004830154613d49908290614dc9565b6004840155505050565b80826002016000016000828254613d6a91906151b4565b90915550505050565b60028201548110613d85576000613d95565b6002820154613d95908290614dc9565b60029092019190915550565b613da9614529565b613db1614529565b60006103e885600c01548660020160010154613dcd91906150cc565b613dd79190615101565b905060006103e885600c01548660020160010154613df591906150cc565b613dff9190615101565b905081856002016000015411613e16576000613e26565b6002850154613e26908390614dc9565b6002808701919091558601548110613e3f576000613e4f565b6002860154613e4f908290614dc9565b600287015560058601805460039190600090613e6c908490614dc9565b909155505060058501805460039190600090613e89908490614dc9565b909155505060408051808201825260028901546001600160a01b0390811682526003909901549098166020808a0191909152815180830190925292815291820152959350505050565b613eda614529565b613ee2614529565b6040518060400160405280600081526020016000815250915060006103e885600c01548660020160010154613f1791906150cc565b613f219190615101565b90508084600201600201541015613f83576004840154600090613f449083614dc9565b905080856002016000015411613f5b576000613f6b565b6002850154613f6b908290614dc9565b600286015560038701546001600160a01b0316835283525b6003856002016003016000828254613f9b9190614dc9565b909155505060058401805460039190600090613fb89084906151b4565b909155505050935093915050565b613fce614529565b613fd6614529565b6040518060400160405280600081526020016000815250915060006103e884600c0154856002016001015461400b91906150cc565b6140159190615101565b9050808560020160020154101561407c5760048501546000906140389083614dc9565b90508086600201600001541161404f57600061405f565b600286015461405f908290614dc9565b6002878101919091558701546001600160a01b0316835260208401525b600385600201600301600082825461409491906151b4565b909155505060058401805460039190600090613fb8908490614dc9565b6140b9614529565b6140c1614529565b60006103e885600c015486600201600101546140dd91906150cc565b6140e79190615101565b9050808460020160000154116140fe57600061410e565b600284015461410e908290614dc9565b60028501556003808701546001600160a01b03168352818452600586018054600090613fb8908490614dc9565b614143614529565b61414b614529565b60006103e884600c0154856002016001015461416791906150cc565b6141719190615101565b905080856002016000015411614188576000614198565b6002850154614198908290614dc9565b6002868101919091558601546001600160a01b031682526020830181905260058401805460039190600090613fb8908490614dc9565b600d54604051635ec407d760e11b815260048101859052600091829182916001600160a01b03169063bd880fae90602401600060405180830381865afa15801561421c573d6000803e3d6000fd5b505050506040513d6000823e601f3d908101601f1916820160405261424491908101906156c5565b905060006103e8826040015189600c015461425f91906150cc565b6142699190615101565b905080600186036142985760048701548211614286576000614295565b60048701546142959083614dc9565b90505b600081156142d757600288015482106142b25760006142c2565b60028801546142c2908390614dc9565b60028901555060018701546001600160a01b03165b8960010160009054906101000a90046001600160a01b03166001600160a01b03168c7f63ec13d335b37765a01ffaa4ae432010169435e348c05ab134fb6b626ef5b53a8d8760200151866040516143309392919061575d565b60405180910390a3600d546080850151604051631187bd5160e01b815260048101919091526000916001600160a01b031690631187bd5190602401600060405180830381865afa158015614388573d6000803e3d6000fd5b505050506040513d6000823e601f3d908101601f191682016040526143b0919081019061531f565b905080604001511561445c576080850151606082015160088d0180546001810182556000918252602080832090910184905592815260098e019092526040909120558860010160009054906101000a90046001600160a01b03166001600160a01b03168d7ff8c9f3444c314390f17c07435638f20d537b994d7767fd8e9a2bd203791d3ef78e8460200151856060015160405161444f9392919061575d565b60405180910390a36144f8565b6080850151606082015160088b0180546001810182556000918252602080832090910184905592815260098c019092526040909120558860010160009054906101000a90046001600160a01b03166001600160a01b03168d7ff8c9f3444c314390f17c07435638f20d537b994d7767fd8e9a2bd203791d3ef78e846020015185606001516040516144ef9392919061575d565b60405180910390a35b606085015160058c018054600090614511908490614dc9565b90915550919d929c50919a5050505050505050505050565b60405180604001604052806002906020820280368337509192915050565b6040518061016001604052806000815260200160608152602001614569614529565b8152602001614576614529565b8152602001614583614529565b8152602001614590614529565b815260200160008152600060208201526040016145ab614529565b8152602001600081526020016145bf614711565b905290565b826002810192821561460c579160200282015b8281111561460c57825182546001600160a01b0319166001600160a01b039091161782556020909201916001909101906145d7565b5061461892915061474b565b5090565b826002810192821561460c579160200282015b8281111561460c57825182559160200191906001019061462f565b60018301918390821561460c5791602002820160005b8382111561469d57835183826101000a81548160ff0219169083151502179055509260200192600101602081600001049283019260010302614660565b80156146ca5782816101000a81549060ff021916905560010160208160000104928301926001030261469d565b505061461892915061474b565b82805482825590600052602060002090810192821561460c579160200282018281111561460c57825182559160200191906001019061462f565b6040518060800160405280614724614529565b8152602001614731614529565b815260200161473e614529565b81526020016145bf614529565b5b80821115614618576000815560010161474c565b60006020828403121561477257600080fd5b5035919050565b6001600160a01b03811681146105ad57600080fd5b6000602082840312156147a057600080fd5b81356147ab81614779565b9392505050565b600081518084526020808501945080840160005b838110156147e2578151875295820195908201906001016147c6565b509495945050505050565b6020815260006147ab60208301846147b2565b8060005b60028110156136745781516001600160a01b0316845260209384019390910190600101614804565b604081016106d78284614800565b6000806040838503121561484d57600080fd5b82359150602083013561485f81614779565b809150509250929050565b60005b8381101561488557818101518382015260200161486d565b838111156136745750506000910152565b600081518084526148ae81602086016020860161486a565b601f01601f19169290920160200192915050565b634e487b7160e01b600052602160045260246000fd5b600381106148e8576148e86148c2565b9052565b8060005b60028110156136745781518452602093840193909101906001016148f0565b61491a8282516148ec565b602081015161492c60408401826148ec565b50604081015161493f60808401826148ec565b506060810151613c4960c08401826148ec565b60006101a088835280602084015261496c81840189614896565b91505061497c60408301876148d8565b6001600160a01b03851660608301526080820184905261499f60a083018461490f565b979650505050505050565b6000806000606084860312156149bf57600080fd5b833592506020840135600481106149d557600080fd5b929592945050506040919091013590565b8060005b600281101561367457815115158452602093840193909101906001016149ea565b6020815281516020820152600060208301516102e06040840152614a33610300840182614896565b90506040840151614a476060850182614800565b506060840151614a5a60a08501826148ec565b506080840151614a6d60e08501826148ec565b5060a0840151610120614a82818601836148ec565b60c08601519150614a976101608601836148d8565b60e08601516001600160a01b03166101808601526101008601519150614ac16101a08601836149e6565b8501516101e085015250610140840151614adf61020085018261490f565b509392505050565b634e487b7160e01b600052604160045260246000fd5b604051610160810167ffffffffffffffff81118282101715614b2157614b21614ae7565b60405290565b60405160a0810167ffffffffffffffff81118282101715614b2157614b21614ae7565b604051601f8201601f1916810167ffffffffffffffff81118282101715614b7357614b73614ae7565b604052919050565b600067ffffffffffffffff821115614b9557614b95614ae7565b50601f01601f191660200190565b60008060408385031215614bb657600080fd5b823567ffffffffffffffff811115614bcd57600080fd5b8301601f81018513614bde57600080fd5b8035614bf1614bec82614b7b565b614b4a565b818152866020838501011115614c0657600080fd5b8160208401602083013760006020928201830152969401359450505050565b60008060408385031215614c3857600080fd5b50508035926020909101359150565b604081016106d782846148ec565b604081526000614c6860408301856147b2565b8281036020840152614c7a81856147b2565b95945050505050565b60006020808352610120830184518285015260018060a01b03828601511660408501526040850151606085015260608501516080850152608085015160a085015260a085015160c085015260c085015160e085015260e0850151610100808187015250818151808452610140870191508483019350600092505b80831015614d1d5783518252928401926001929092019190840190614cfd565b509695505050505050565b8681526101208101614d3d60208301886148ec565b614d4a60608301876148ec565b614d5760a08301866148ec565b6001600160a01b0393841660e08301529190921661010090920191909152949350505050565b91825260601b6bffffffffffffffffffffffff1916602082015260340190565b634e487b7160e01b600052603260045260246000fd5b634e487b7160e01b600052601160045260246000fd5b600082821015614ddb57614ddb614db3565b500390565b634e487b7160e01b600052603160045260246000fd5b600181811c90821680614e0a57607f821691505b602082108103614e2a57634e487b7160e01b600052602260045260246000fd5b50919050565b6040810160048410614e4457614e446148c2565b9281526020015290565b600060018201614e6057614e60614db3565b5060010190565b600060208284031215614e7957600080fd5b81516147ab81614779565b6020808252602e908201527f506c6179657220616c72656164792070617274696369706174696e6720696e2060408201526d616e6f7468657220626174746c6560901b606082015260800190565b601f821115613c4957600081815260208120601f850160051c81016020861015614ef95750805b601f850160051c820191505b8181101561187057828155600101614f05565b815167ffffffffffffffff811115614f3257614f32614ae7565b614f4681614f408454614df6565b84614ed2565b602080601f831160018114614f7b5760008415614f635750858301515b600019600386901b1c1916600185901b178555611870565b600085815260208120601f198616915b82811015614faa57888601518255948401946001909101908401614f8b565b5085821015614fc85787850151600019600388901b60f8161c191681555b5050505050600190811b01905550565b805169ffffffffffffffffffff81168114614ff257600080fd5b919050565b600080600080600060a0868803121561500f57600080fd5b61501886614fd8565b945060208601519350604086015192506060860151915061503b60808701614fd8565b90509295509295909350565b60006001600160ff1b038184138284138082168684048611161561506d5761506d614db3565b600160ff1b600087128281168783058912161561508c5761508c614db3565b600087129250878205871284841616156150a8576150a8614db3565b878505871281841616156150be576150be614db3565b505050929093029392505050565b60008160001904831182151516156150e6576150e6614db3565b500290565b634e487b7160e01b600052601260045260246000fd5b600082615110576151106150eb565b500490565b600060208083526000845461512981614df6565b8084870152604060018084166000811461514a576001811461516457615192565b60ff1985168984015283151560051b890183019550615192565b896000528660002060005b8581101561518a5781548b820186015290830190880161516f565b8a0184019650505b509398975050505050505050565b6000826151af576151af6150eb565b500690565b600082198211156151c7576151c7614db3565b500190565b60e081016151da8287614800565b6151e760408301866148ec565b6151f460808301856148ec565b8260c083015295945050505050565b60006020828403121561521557600080fd5b5051919050565b6000602080838503121561522f57600080fd5b825167ffffffffffffffff8082111561524757600080fd5b818501915085601f83011261525b57600080fd5b81518181111561526d5761526d614ae7565b8060051b915061527e848301614b4a565b818152918301840191848101908884111561529857600080fd5b938501935b838510156152b65784518252938501939085019061529d565b98975050505050505050565b600082601f8301126152d357600080fd5b81516152e1614bec82614b7b565b8181528460208386010111156152f657600080fd5b61530782602083016020870161486a565b949350505050565b80518015158114614ff257600080fd5b60006020828403121561533157600080fd5b815167ffffffffffffffff8082111561534957600080fd5b90830190610160828603121561535e57600080fd5b615366614afd565b8251815260208301518281111561537c57600080fd5b615388878286016152c2565b60208301525061539a6040840161530f565b6040820152606083015160608201526080830151608082015260a083015160a082015260c083015160c082015260e083015160e0820152610100915081830151828201526101209150818301518282015261014091506153fb82840161530f565b91810191909152949350505050565b84815260a06020820152600061542360a0830186614896565b8281036040840152600b81526a185d1d1858dad09bdbdcdd60aa1b60208201526040810191505083606083015282608083015295945050505050565b84815260a06020820152600061547860a0830186614896565b8281036040840152600f81526e30ba3a30b1b5a932b23ab1ba34b7b760891b60208201526040810191505083606083015282608083015295945050505050565b84815260a0602082015260006154d160a0830186614896565b8281036040840152600c81526b191959995b9cd9509bdbdcdd60a21b60208201526040810191505083606083015282608083015295945050505050565b84815260a06020820152600061552760a0830186614896565b8281036040840152601081526f3232b332b739b2a932b23ab1ba34b7b760811b60208201526040810191505083606083015282608083015295945050505050565b84815260a06020820152600061558160a0830186614896565b8281036040840152600b81526a3432b0b62832b92a3ab93760a91b60208201526040810191505083606083015282608083015295945050505050565b84815260a0602082015260006155d660a0830186614896565b8281036040840152600481526339ba3ab760e11b60208201526040810191505083606083015282608083015295945050505050565b84815260a06020820152600061562460a0830186614896565b8281036040840152600d81526c3230b6b0b3b2a832b92a3ab93760991b60208201526040810191505083606083015282608083015295945050505050565b60008161567157615671614db3565b506000190190565b60408152600061568c6040830185614896565b905060018060a01b03831660208301529392505050565b6040815260006156b66040830185614896565b90508260208301529392505050565b6000602082840312156156d757600080fd5b815167ffffffffffffffff808211156156ef57600080fd5b9083019060a0828603121561570357600080fd5b61570b614b27565b8251815260208301518281111561572157600080fd5b61572d878286016152c2565b60208301525060408301516040820152606083015160608201526080830151608082015280935050505092915050565b8381526060602082015260006157766060830185614896565b905082604083015294935050505056fe2da6403b45d090931d2cc8b2333951ab2c07cf7a70d48459add4ab2c8bad8d554368617261637465722070726f7879206372656174656420666f7220706c61796572a26469706673582212208a1165cfe88ded8a07e98d29bf037c759651dac9e5d1a7dafd848e49e0a4715364736f6c634300080f0033",
  "linkReferences": {},
  "deployedLinkReferences": {}
}