{
  "_format": "hh-sol-artifact-1",
  "contractName": "BattleSkills",
  "sourceName": "contracts/BattleSkills.sol",
  "abi": [
    {
      "inputs": [],
      "stateMutability": "nonpayable",
      "type": "constructor"
    },
    {
      "inputs": [
        {
          "internalType": "address",
          "name": "operator",
          "type": "address"
        }
      ],
      "name": "OperatorNotAllowed",
      "type": "error"
    },
    {
      "anonymous": false,
      "inputs": [
        {
          "indexed": true,
          "internalType": "address",
          "name": "_owner",
          "type": "address"
        },
        {
          "indexed": true,
          "internalType": "address",
          "name": "_operator",
          "type": "address"
        },
        {
          "indexed": false,
          "internalType": "bool",
          "name": "_approved",
          "type": "bool"
        }
      ],
      "name": "ApprovalForAll",
      "type": "event"
    },
    {
      "anonymous": false,
      "inputs": [
        {
          "indexed": false,
          "internalType": "string",
          "name": "prevURI",
          "type": "string"
        },
        {
          "indexed": false,
          "internalType": "string",
          "name": "newURI",
          "type": "string"
        }
      ],
      "name": "ContractURIUpdated",
      "type": "event"
    },
    {
      "anonymous": false,
      "inputs": [
        {
          "indexed": true,
          "internalType": "address",
          "name": "newRoyaltyRecipient",
          "type": "address"
        },
        {
          "indexed": false,
          "internalType": "uint256",
          "name": "newRoyaltyBps",
          "type": "uint256"
        }
      ],
      "name": "DefaultRoyalty",
      "type": "event"
    },
    {
      "anonymous": false,
      "inputs": [
        {
          "indexed": false,
          "internalType": "bool",
          "name": "restriction",
          "type": "bool"
        }
      ],
      "name": "OperatorRestriction",
      "type": "event"
    },
    {
      "anonymous": false,
      "inputs": [
        {
          "indexed": true,
          "internalType": "address",
          "name": "prevOwner",
          "type": "address"
        },
        {
          "indexed": true,
          "internalType": "address",
          "name": "newOwner",
          "type": "address"
        }
      ],
      "name": "OwnerUpdated",
      "type": "event"
    },
    {
      "anonymous": false,
      "inputs": [
        {
          "indexed": true,
          "internalType": "uint256",
          "name": "tokenId",
          "type": "uint256"
        },
        {
          "indexed": true,
          "internalType": "address",
          "name": "royaltyRecipient",
          "type": "address"
        },
        {
          "indexed": false,
          "internalType": "uint256",
          "name": "royaltyBps",
          "type": "uint256"
        }
      ],
      "name": "RoyaltyForToken",
      "type": "event"
    },
    {
      "anonymous": false,
      "inputs": [
        {
          "indexed": true,
          "internalType": "address",
          "name": "_operator",
          "type": "address"
        },
        {
          "indexed": true,
          "internalType": "address",
          "name": "_from",
          "type": "address"
        },
        {
          "indexed": true,
          "internalType": "address",
          "name": "_to",
          "type": "address"
        },
        {
          "indexed": false,
          "internalType": "uint256[]",
          "name": "_ids",
          "type": "uint256[]"
        },
        {
          "indexed": false,
          "internalType": "uint256[]",
          "name": "_values",
          "type": "uint256[]"
        }
      ],
      "name": "TransferBatch",
      "type": "event"
    },
    {
      "anonymous": false,
      "inputs": [
        {
          "indexed": true,
          "internalType": "address",
          "name": "_operator",
          "type": "address"
        },
        {
          "indexed": true,
          "internalType": "address",
          "name": "_from",
          "type": "address"
        },
        {
          "indexed": true,
          "internalType": "address",
          "name": "_to",
          "type": "address"
        },
        {
          "indexed": false,
          "internalType": "uint256",
          "name": "_id",
          "type": "uint256"
        },
        {
          "indexed": false,
          "internalType": "uint256",
          "name": "_value",
          "type": "uint256"
        }
      ],
      "name": "TransferSingle",
      "type": "event"
    },
    {
      "anonymous": false,
      "inputs": [
        {
          "indexed": false,
          "internalType": "string",
          "name": "_value",
          "type": "string"
        },
        {
          "indexed": true,
          "internalType": "uint256",
          "name": "_id",
          "type": "uint256"
        }
      ],
      "name": "URI",
      "type": "event"
    },
    {
      "inputs": [],
      "name": "OPERATOR_FILTER_REGISTRY",
      "outputs": [
        {
          "internalType": "contract IOperatorFilterRegistry",
          "name": "",
          "type": "address"
        }
      ],
      "stateMutability": "view",
      "type": "function"
    },
    {
      "inputs": [
        {
          "internalType": "address",
          "name": "",
          "type": "address"
        },
        {
          "internalType": "uint256",
          "name": "",
          "type": "uint256"
        }
      ],
      "name": "balanceOf",
      "outputs": [
        {
          "internalType": "uint256",
          "name": "",
          "type": "uint256"
        }
      ],
      "stateMutability": "view",
      "type": "function"
    },
    {
      "inputs": [
        {
          "internalType": "address[]",
          "name": "accounts",
          "type": "address[]"
        },
        {
          "internalType": "uint256[]",
          "name": "ids",
          "type": "uint256[]"
        }
      ],
      "name": "balanceOfBatch",
      "outputs": [
        {
          "internalType": "uint256[]",
          "name": "",
          "type": "uint256[]"
        }
      ],
      "stateMutability": "view",
      "type": "function"
    },
    {
      "inputs": [
        {
          "internalType": "address",
          "name": "_to",
          "type": "address"
        },
        {
          "internalType": "uint256[]",
          "name": "_tokenIds",
          "type": "uint256[]"
        },
        {
          "internalType": "uint256[]",
          "name": "_amounts",
          "type": "uint256[]"
        },
        {
          "internalType": "string",
          "name": "_baseURI",
          "type": "string"
        }
      ],
      "name": "batchMintTo",
      "outputs": [],
      "stateMutability": "nonpayable",
      "type": "function"
    },
    {
      "inputs": [
        {
          "internalType": "address",
          "name": "_owner",
          "type": "address"
        },
        {
          "internalType": "uint256",
          "name": "_tokenId",
          "type": "uint256"
        },
        {
          "internalType": "uint256",
          "name": "_amount",
          "type": "uint256"
        }
      ],
      "name": "burn",
      "outputs": [],
      "stateMutability": "nonpayable",
      "type": "function"
    },
    {
      "inputs": [
        {
          "internalType": "address",
          "name": "_owner",
          "type": "address"
        },
        {
          "internalType": "uint256[]",
          "name": "_tokenIds",
          "type": "uint256[]"
        },
        {
          "internalType": "uint256[]",
          "name": "_amounts",
          "type": "uint256[]"
        }
      ],
      "name": "burnBatch",
      "outputs": [],
      "stateMutability": "nonpayable",
      "type": "function"
    },
    {
      "inputs": [],
      "name": "contractURI",
      "outputs": [
        {
          "internalType": "string",
          "name": "",
          "type": "string"
        }
      ],
      "stateMutability": "view",
      "type": "function"
    },
    {
      "inputs": [
        {
          "internalType": "string",
          "name": "_name",
          "type": "string"
        },
        {
          "internalType": "uint256",
          "name": "_damage",
          "type": "uint256"
        },
        {
          "internalType": "uint256",
          "name": "_manaCost",
          "type": "uint256"
        },
        {
          "internalType": "uint256[]",
          "name": "_statusEffects",
          "type": "uint256[]"
        },
        {
          "internalType": "string",
          "name": "_tokenURI",
          "type": "string"
        }
      ],
      "name": "createSkill",
      "outputs": [],
      "stateMutability": "nonpayable",
      "type": "function"
    },
    {
      "inputs": [
        {
          "internalType": "string",
          "name": "_name",
          "type": "string"
        },
        {
          "internalType": "uint256",
          "name": "_duration",
          "type": "uint256"
        },
        {
          "internalType": "bool",
          "name": "_isPositive",
          "type": "bool"
        },
        {
          "internalType": "uint256",
          "name": "_damageOverTime",
          "type": "uint256"
        },
        {
          "internalType": "uint256",
          "name": "_stunDuration",
          "type": "uint256"
        },
        {
          "internalType": "uint256",
          "name": "_defenseBoost",
          "type": "uint256"
        },
        {
          "internalType": "uint256",
          "name": "_healAmount",
          "type": "uint256"
        }
      ],
      "name": "createStatusEffect",
      "outputs": [],
      "stateMutability": "nonpayable",
      "type": "function"
    },
    {
      "inputs": [],
      "name": "getBaseURICount",
      "outputs": [
        {
          "internalType": "uint256",
          "name": "",
          "type": "uint256"
        }
      ],
      "stateMutability": "view",
      "type": "function"
    },
    {
      "inputs": [
        {
          "internalType": "uint256",
          "name": "_index",
          "type": "uint256"
        }
      ],
      "name": "getBatchIdAtIndex",
      "outputs": [
        {
          "internalType": "uint256",
          "name": "",
          "type": "uint256"
        }
      ],
      "stateMutability": "view",
      "type": "function"
    },
    {
      "inputs": [],
      "name": "getDefaultRoyaltyInfo",
      "outputs": [
        {
          "internalType": "address",
          "name": "",
          "type": "address"
        },
        {
          "internalType": "uint16",
          "name": "",
          "type": "uint16"
        }
      ],
      "stateMutability": "view",
      "type": "function"
    },
    {
      "inputs": [
        {
          "internalType": "uint256",
          "name": "_enemyLevel",
          "type": "uint256"
        }
      ],
      "name": "getRandomSkill",
      "outputs": [
        {
          "internalType": "uint256",
          "name": "",
          "type": "uint256"
        }
      ],
      "stateMutability": "view",
      "type": "function"
    },
    {
      "inputs": [
        {
          "internalType": "uint256",
          "name": "_tokenId",
          "type": "uint256"
        }
      ],
      "name": "getRoyaltyInfoForToken",
      "outputs": [
        {
          "internalType": "address",
          "name": "",
          "type": "address"
        },
        {
          "internalType": "uint16",
          "name": "",
          "type": "uint16"
        }
      ],
      "stateMutability": "view",
      "type": "function"
    },
    {
      "inputs": [
        {
          "internalType": "uint256",
          "name": "_skillId",
          "type": "uint256"
        }
      ],
      "name": "getSkill",
      "outputs": [
        {
          "components": [
            {
              "internalType": "uint256",
              "name": "skillId",
              "type": "uint256"
            },
            {
              "internalType": "string",
              "name": "name",
              "type": "string"
            },
            {
              "internalType": "uint256",
              "name": "damage",
              "type": "uint256"
            },
            {
              "internalType": "uint256",
              "name": "manaCost",
              "type": "uint256"
            },
            {
              "internalType": "uint256[]",
              "name": "statusEffects",
              "type": "uint256[]"
            }
          ],
          "internalType": "struct BattleSkills.Skill",
          "name": "",
          "type": "tuple"
        }
      ],
      "stateMutability": "view",
      "type": "function"
    },
    {
      "inputs": [
        {
          "internalType": "uint256",
          "name": "_effectId",
          "type": "uint256"
        }
      ],
      "name": "getStatusEffect",
      "outputs": [
        {
          "components": [
            {
              "internalType": "uint256",
              "name": "effectId",
              "type": "uint256"
            },
            {
              "internalType": "string",
              "name": "name",
              "type": "string"
            },
            {
              "internalType": "uint256",
              "name": "duration",
              "type": "uint256"
            },
            {
              "internalType": "bool",
              "name": "isPositive",
              "type": "bool"
            },
            {
              "internalType": "uint256",
              "name": "damageOverTime",
              "type": "uint256"
            },
            {
              "internalType": "uint256",
              "name": "stunDuration",
              "type": "uint256"
            },
            {
              "internalType": "uint256",
              "name": "defenseBoost",
              "type": "uint256"
            },
            {
              "internalType": "uint256",
              "name": "healAmount",
              "type": "uint256"
            }
          ],
          "internalType": "struct BattleSkills.StatusEffect",
          "name": "",
          "type": "tuple"
        }
      ],
      "stateMutability": "view",
      "type": "function"
    },
    {
      "inputs": [
        {
          "internalType": "address",
          "name": "",
          "type": "address"
        },
        {
          "internalType": "address",
          "name": "",
          "type": "address"
        }
      ],
      "name": "isApprovedForAll",
      "outputs": [
        {
          "internalType": "bool",
          "name": "",
          "type": "bool"
        }
      ],
      "stateMutability": "view",
      "type": "function"
    },
    {
      "inputs": [
        {
          "internalType": "uint256",
          "name": "_skillId",
          "type": "uint256"
        },
        {
          "internalType": "address",
          "name": "_caller",
          "type": "address"
        }
      ],
      "name": "mintSkill",
      "outputs": [],
      "stateMutability": "nonpayable",
      "type": "function"
    },
    {
      "inputs": [
        {
          "internalType": "address",
          "name": "_to",
          "type": "address"
        },
        {
          "internalType": "uint256",
          "name": "_tokenId",
          "type": "uint256"
        },
        {
          "internalType": "string",
          "name": "_tokenURI",
          "type": "string"
        },
        {
          "internalType": "uint256",
          "name": "_amount",
          "type": "uint256"
        }
      ],
      "name": "mintTo",
      "outputs": [],
      "stateMutability": "nonpayable",
      "type": "function"
    },
    {
      "inputs": [
        {
          "internalType": "bytes[]",
          "name": "data",
          "type": "bytes[]"
        }
      ],
      "name": "multicall",
      "outputs": [
        {
          "internalType": "bytes[]",
          "name": "results",
          "type": "bytes[]"
        }
      ],
      "stateMutability": "nonpayable",
      "type": "function"
    },
    {
      "inputs": [],
      "name": "name",
      "outputs": [
        {
          "internalType": "string",
          "name": "",
          "type": "string"
        }
      ],
      "stateMutability": "view",
      "type": "function"
    },
    {
      "inputs": [],
      "name": "nextTokenIdToMint",
      "outputs": [
        {
          "internalType": "uint256",
          "name": "",
          "type": "uint256"
        }
      ],
      "stateMutability": "view",
      "type": "function"
    },
    {
      "inputs": [],
      "name": "numSkills",
      "outputs": [
        {
          "internalType": "uint256",
          "name": "",
          "type": "uint256"
        }
      ],
      "stateMutability": "view",
      "type": "function"
    },
    {
      "inputs": [],
      "name": "numStatusEffects",
      "outputs": [
        {
          "internalType": "uint256",
          "name": "",
          "type": "uint256"
        }
      ],
      "stateMutability": "view",
      "type": "function"
    },
    {
      "inputs": [],
      "name": "operatorRestriction",
      "outputs": [
        {
          "internalType": "bool",
          "name": "",
          "type": "bool"
        }
      ],
      "stateMutability": "view",
      "type": "function"
    },
    {
      "inputs": [],
      "name": "owner",
      "outputs": [
        {
          "internalType": "address",
          "name": "",
          "type": "address"
        }
      ],
      "stateMutability": "view",
      "type": "function"
    },
    {
      "inputs": [
        {
          "internalType": "uint256",
          "name": "tokenId",
          "type": "uint256"
        },
        {
          "internalType": "uint256",
          "name": "salePrice",
          "type": "uint256"
        }
      ],
      "name": "royaltyInfo",
      "outputs": [
        {
          "internalType": "address",
          "name": "receiver",
          "type": "address"
        },
        {
          "internalType": "uint256",
          "name": "royaltyAmount",
          "type": "uint256"
        }
      ],
      "stateMutability": "view",
      "type": "function"
    },
    {
      "inputs": [
        {
          "internalType": "address",
          "name": "from",
          "type": "address"
        },
        {
          "internalType": "address",
          "name": "to",
          "type": "address"
        },
        {
          "internalType": "uint256[]",
          "name": "ids",
          "type": "uint256[]"
        },
        {
          "internalType": "uint256[]",
          "name": "amounts",
          "type": "uint256[]"
        },
        {
          "internalType": "bytes",
          "name": "data",
          "type": "bytes"
        }
      ],
      "name": "safeBatchTransferFrom",
      "outputs": [],
      "stateMutability": "nonpayable",
      "type": "function"
    },
    {
      "inputs": [
        {
          "internalType": "address",
          "name": "from",
          "type": "address"
        },
        {
          "internalType": "address",
          "name": "to",
          "type": "address"
        },
        {
          "internalType": "uint256",
          "name": "id",
          "type": "uint256"
        },
        {
          "internalType": "uint256",
          "name": "amount",
          "type": "uint256"
        },
        {
          "internalType": "bytes",
          "name": "data",
          "type": "bytes"
        }
      ],
      "name": "safeTransferFrom",
      "outputs": [],
      "stateMutability": "nonpayable",
      "type": "function"
    },
    {
      "inputs": [
        {
          "internalType": "address",
          "name": "operator",
          "type": "address"
        },
        {
          "internalType": "bool",
          "name": "approved",
          "type": "bool"
        }
      ],
      "name": "setApprovalForAll",
      "outputs": [],
      "stateMutability": "nonpayable",
      "type": "function"
    },
    {
      "inputs": [
        {
          "internalType": "string",
          "name": "_uri",
          "type": "string"
        }
      ],
      "name": "setContractURI",
      "outputs": [],
      "stateMutability": "nonpayable",
      "type": "function"
    },
    {
      "inputs": [
        {
          "internalType": "address",
          "name": "_royaltyRecipient",
          "type": "address"
        },
        {
          "internalType": "uint256",
          "name": "_royaltyBps",
          "type": "uint256"
        }
      ],
      "name": "setDefaultRoyaltyInfo",
      "outputs": [],
      "stateMutability": "nonpayable",
      "type": "function"
    },
    {
      "inputs": [
        {
          "internalType": "bool",
          "name": "_restriction",
          "type": "bool"
        }
      ],
      "name": "setOperatorRestriction",
      "outputs": [],
      "stateMutability": "nonpayable",
      "type": "function"
    },
    {
      "inputs": [
        {
          "internalType": "address",
          "name": "_newOwner",
          "type": "address"
        }
      ],
      "name": "setOwner",
      "outputs": [],
      "stateMutability": "nonpayable",
      "type": "function"
    },
    {
      "inputs": [
        {
          "internalType": "uint256",
          "name": "_tokenId",
          "type": "uint256"
        },
        {
          "internalType": "address",
          "name": "_recipient",
          "type": "address"
        },
        {
          "internalType": "uint256",
          "name": "_bps",
          "type": "uint256"
        }
      ],
      "name": "setRoyaltyInfoForToken",
      "outputs": [],
      "stateMutability": "nonpayable",
      "type": "function"
    },
    {
      "inputs": [
        {
          "internalType": "uint256",
          "name": "",
          "type": "uint256"
        }
      ],
      "name": "skills",
      "outputs": [
        {
          "internalType": "uint256",
          "name": "skillId",
          "type": "uint256"
        },
        {
          "internalType": "string",
          "name": "name",
          "type": "string"
        },
        {
          "internalType": "uint256",
          "name": "damage",
          "type": "uint256"
        },
        {
          "internalType": "uint256",
          "name": "manaCost",
          "type": "uint256"
        }
      ],
      "stateMutability": "view",
      "type": "function"
    },
    {
      "inputs": [
        {
          "internalType": "uint256",
          "name": "",
          "type": "uint256"
        }
      ],
      "name": "statusEffects",
      "outputs": [
        {
          "internalType": "uint256",
          "name": "effectId",
          "type": "uint256"
        },
        {
          "internalType": "string",
          "name": "name",
          "type": "string"
        },
        {
          "internalType": "uint256",
          "name": "duration",
          "type": "uint256"
        },
        {
          "internalType": "bool",
          "name": "isPositive",
          "type": "bool"
        },
        {
          "internalType": "uint256",
          "name": "damageOverTime",
          "type": "uint256"
        },
        {
          "internalType": "uint256",
          "name": "stunDuration",
          "type": "uint256"
        },
        {
          "internalType": "uint256",
          "name": "defenseBoost",
          "type": "uint256"
        },
        {
          "internalType": "uint256",
          "name": "healAmount",
          "type": "uint256"
        }
      ],
      "stateMutability": "view",
      "type": "function"
    },
    {
      "inputs": [
        {
          "internalType": "bytes4",
          "name": "interfaceId",
          "type": "bytes4"
        }
      ],
      "name": "supportsInterface",
      "outputs": [
        {
          "internalType": "bool",
          "name": "",
          "type": "bool"
        }
      ],
      "stateMutability": "view",
      "type": "function"
    },
    {
      "inputs": [],
      "name": "symbol",
      "outputs": [
        {
          "internalType": "string",
          "name": "",
          "type": "string"
        }
      ],
      "stateMutability": "view",
      "type": "function"
    },
    {
      "inputs": [
        {
          "internalType": "uint256",
          "name": "",
          "type": "uint256"
        }
      ],
      "name": "totalSupply",
      "outputs": [
        {
          "internalType": "uint256",
          "name": "",
          "type": "uint256"
        }
      ],
      "stateMutability": "view",
      "type": "function"
    },
    {
      "inputs": [
        {
          "internalType": "uint256",
          "name": "_skillId",
          "type": "uint256"
        },
        {
          "internalType": "string",
          "name": "_name",
          "type": "string"
        },
        {
          "internalType": "uint256",
          "name": "_damage",
          "type": "uint256"
        },
        {
          "internalType": "uint256",
          "name": "_manaCost",
          "type": "uint256"
        },
        {
          "internalType": "uint256[]",
          "name": "_statusEffects",
          "type": "uint256[]"
        }
      ],
      "name": "updateSkill",
      "outputs": [],
      "stateMutability": "nonpayable",
      "type": "function"
    },
    {
      "inputs": [
        {
          "internalType": "uint256",
          "name": "_tokenId",
          "type": "uint256"
        }
      ],
      "name": "uri",
      "outputs": [
        {
          "internalType": "string",
          "name": "",
          "type": "string"
        }
      ],
      "stateMutability": "view",
      "type": "function"
    }
  ],
  "bytecode": "0x60806040818152346200044f576000916200001a8162000454565b600c81526020906b426174746c65536b696c6c7360a01b82820152825193620000438562000454565b6002855261425360f01b8386015281516001600160401b0395908681116200043b578254906001948583811c9316801562000430575b878410146200033a578190601f93848111620003dd575b508790848311600114620003795786926200036d575b5050600019600383901b1c191690851b1783555b815191878311620003595784548581811c911680156200034e575b878210146200033a5790818385949311620002e5575b50869183116001146200028157849262000275575b5050600019600383901b1c191690831b1782555b6daaeb6d7670e522a718067333cd4e94853b620001dd575b5060068054336001600160a01b0319821681179092559495506000805160206200457c833981519152946001600160a01b03167f8292fce18fa69edf4db7b94ea2e58241df0ae57f97e0a6c9b29067028bf92d768380a3600780546001600160b01b031916905584518181527f90d7ec04bcb8978719414f82e52e4cb651db41d0e6f8cea6118c2191e6183adb908490a28060ff19600b541617600b558351908152a1516140f59081620004878239f35b8582963b15620002715782906044875180958193633e9f1edf60e11b8352306004840152733cc6cdda760b79bafa08df41ecfa224f810dceb660248401525af18015620002675762000233575b8591506200012c565b8111620002535783526000805160206200457c833981519152386200022a565b634e487b7160e01b85526041600452602485fd5b85513d88823e3d90fd5b8280fd5b01519050388062000100565b8585528685208694509190601f198416865b89828210620002ce5750508411620002b4575b505050811b01825562000114565b015160001960f88460031b161c19169055388080620002a6565b838501518655899790950194938401930162000293565b909192508585528685208380860160051c82019289871062000330575b91869589929594930160051c01915b82811062000321575050620000eb565b87815586955088910162000311565b9250819262000302565b634e487b7160e01b85526022600452602485fd5b90607f1690620000d5565b634e487b7160e01b84526041600452602484fd5b015190503880620000a6565b8680528887208894509190601f198416885b8b828210620003c65750508411620003ac575b505050811b018355620000ba565b015160001960f88460031b161c191690553880806200039e565b8385015186558b979095019493840193016200038b565b9091508580528786208480850160051c8201928a861062000426575b918991869594930160051c01915b8281106200041757505062000090565b88815585945089910162000407565b92508192620003f9565b92607f169262000079565b634e487b7160e01b83526041600452602483fd5b600080fd5b604081019081106001600160401b038211176200047057604052565b634e487b7160e01b600052604160045260246000fdfe60806040526004361015610013575b600080fd5b60003560e01c8062fdd58e1461035a57806301ffc9a71461035157806306fdde03146103485780630e89341c1461033f5780631187bd511461033657806313af40351461032d5780632419f51b146103245780632a55205a1461031b5780632eb2c2d61461031257806332f0cd64146103095780633b1475a71461030057806341f43434146102f75780634cc157df146102ee5780634e1273f4146102e55780634e41cd81146102dc578063504c6e01146102d357806350d15fbe146102ca578063600dd5ea146102c157806363b45e2d146102b85780636b20c454146102af5780636febc04d146102a65780637bdaa4ef1461029d5780637cc2a91d146102945780638da5cb5b1461028b578063938e3d7b14610282578063949c09f71461027957806395d89b41146102705780639bcf7a1514610267578063a22cb4651461025e578063ac9650d814610255578063b03f45281461024c578063b24f2d3914610243578063bd85b0391461023a578063bd880fae14610231578063bfa0fedb14610228578063c7cd32c61461021f578063d8d2558314610216578063e8a3d4851461020d578063e985e9c514610204578063ec7ae9c0146101fb578063f242432a146101f25763f5298aca146101ea57600080fd5b61000e612560565b5061000e612388565b5061000e6121c4565b5061000e612166565b5061000e6120d3565b5061000e611fcf565b5061000e611f6b565b5061000e611dd9565b5061000e611d3d565b5061000e611cbd565b5061000e611c86565b5061000e611af0565b5061000e611a8a565b5061000e61193d565b5061000e611872565b5061000e6117ec565b5061000e6116a8565b5061000e61152a565b5061000e611500565b5061000e61147e565b5061000e61145f565b5061000e611440565b5061000e61133b565b5061000e61131c565b5061000e611252565b5061000e6111ec565b5061000e6111c8565b5061000e61101f565b5061000e610f65565b5061000e610ee2565b5061000e610eb8565b5061000e610e99565b5061000e610dd2565b5061000e610c1b565b5061000e610aac565b5061000e610a25565b5061000e61097f565b5061000e6108ad565b5061000e610813565b5061000e610751565b5061000e610418565b5061000e6103bd565b600435906001600160a01b038216820361000e57565b602435906001600160a01b038216820361000e57565b35906001600160a01b038216820361000e57565b6001600160a01b0316600090815260026020526040902090565b503461000e57604036600319011261000e576001600160a01b036103df610363565b16600052600260205260406000206024356000526020526020604060002054604051908152f35b6001600160e01b031981160361000e57565b503461000e57602036600319011261000e57602060043561043881610406565b63ffffffff60e01b166301ffc9a760e01b811490811561048e575b811561047d575b811561046c575b506040519015158152f35b63152a902d60e11b14905038610461565b6303a24d0760e21b8114915061045a565b636cdb3d1360e11b81149150610453565b90600182811c921680156104cf575b60208310146104b957565b634e487b7160e01b600052602260045260246000fd5b91607f16916104ae565b50634e487b7160e01b600052604160045260246000fd5b61010081019081106001600160401b0382111761050c57604052565b6105146104d9565b604052565b604081019081106001600160401b0382111761050c57604052565b60a081019081106001600160401b0382111761050c57604052565b606081019081106001600160401b0382111761050c57604052565b602081019081106001600160401b0382111761050c57604052565b90601f801991011681019081106001600160401b0382111761050c57604052565b60405190600082600554916105ba8361049f565b80835260019380851690811561063057506001146105e2575b506105e092500383610585565b565b600560009081526000805160206140a083398151915294602093509091905b8183106106185750506105e09350820101386105d3565b85548884018501529485019487945091830191610601565b90506105e094506020925060ff191682840152151560051b820101386105d3565b90604051918260008254926106658461049f565b9081845260019485811690816000146106d2575060011461068f575b50506105e092500383610585565b9093915060005260209081600020936000915b8183106106ba5750506105e093508201013880610681565b855488840185015294850194879450918301916106a2565b9150506105e094506020925060ff191682840152151560051b8201013880610681565b60005b8381106107085750506000910152565b81810151838201526020016106f8565b90602091610731815180928185528580860191016106f5565b601f01601f1916010190565b90602061074e928181520190610718565b90565b503461000e57600080600319360112610810576040518180546107738161049f565b808452906001908181169081156107e857506001146107ad575b6107a98461079d81880382610585565b6040519182918261073d565b0390f35b93508180526020938483205b8284106107d557505050816107a99361079d928201019361078d565b80548585018701529285019281016107b9565b6107a9965061079d9450602092508593915060ff191682840152151560051b8201019361078d565b80fd5b503461000e57602036600319011261000e576107a96108336004356126c2565b604051918291602083526020830190610718565b6020815281516020820152602082015160e061087161010092836040860152610120850190610718565b9360408101516060850152606081015115156080850152608081015160a085015260a081015160c085015260c081015182850152015191015290565b503461000e57602036600319011261000e576107a9604060e081516108d1816104f0565b60009181838093526060602082015282858201528260608201528260808201528260a08201528260c082015201526004358152600f602052206007610914610b0e565b918054835261092560018201610651565b60208401526002810154604084015261094e610945600383015460ff1690565b15156060850152565b60048101546080840152600581015460a0840152600681015460c0840152015460e082015260405191829182610847565b503461000e57602036600319011261000e57610999610363565b600654906001600160a01b0380831691338390036109eb57166001600160a01b03199290921682176006557f8292fce18fa69edf4db7b94ea2e58241df0ae57f97e0a6c9b29067028bf92d76600080a3005b60405162461bcd60e51b815260206004820152600e60248201526d139bdd08185d5d1a1bdc9a5e995960921b6044820152606490fd5b0390fd5b503461000e57602036600319011261000e57600435600954811015610a775760096000527f6e1540171b6c0c960b71a7020d9f60077f6af931a8bbf590da0223dacf75c7af0154604051908152602090f35b60405162461bcd60e51b815260206004820152600d60248201526c092dcecc2d8d2c840d2dcc8caf609b1b6044820152606490fd5b503461000e57604036600319011261000e57604061ffff612710602435610ad4600435613cec565b9390931690818102918183041490151715610b01575b83516001600160a01b039093168352046020820152f35b610b096127b4565b610aea565b604051906105e0826104f0565b6020906001600160401b038111610b34575b60051b0190565b610b3c6104d9565b610b2d565b81601f8201121561000e57803591610b5883610b1b565b92610b666040519485610585565b808452602092838086019260051b82010192831161000e578301905b828210610b90575050505090565b81358152908301908301610b82565b6020906001600160401b038111610bbc575b601f01601f19160190565b610bc46104d9565b610bb1565b929192610bd582610b9f565b91610be36040519384610585565b82948184528183011161000e578281602093846000960137010152565b9080601f8301121561000e5781602061074e93359101610bc9565b503461000e5760a036600319011261000e57610c35610363565b610c3d610379565b6001600160401b039160443583811161000e57610c5e903690600401610b41565b9260643581811161000e57610c77903690600401610b41565b9060843590811161000e57610c90903690600401610c00565b6001600160a01b0383811694919033861480159081610dba575b90610d97575b610cb990612bbe565b610cc68751855114612abd565b8216610cd3811515612bff565b610cdf84888588612c86565b60005b8751811015610d635780610cf9610d5e928a6129d7565b51610d57610d4f610d0a848a6129d7565b51928a610d4582610d2287610d3183610d22876103a3565b90600052602052604060002090565b54610d3e82821015612c3a565b03936103a3565b55610d22896103a3565b9182546127ef565b9055612afb565b610ce2565b50610d959693949195604051600080516020614060833981519152339180610d8c8a8a83612d16565b0390a433613814565b005b50600086815260036020908152604080832033845290915290205460ff16610cb0565b610dc333613c20565b610caa565b8015150361000e57565b503461000e57602036600319011261000e57600435610df081610dc8565b6006546001600160a01b03163303610e405760207f38475885990d8dfe9ca01f0ef160a1b5514426eab9ddbc953a3353410ba7809691151560ff19600b541660ff821617600b55604051908152a1005b60405162461bcd60e51b815260206004820152602b60248201527f4e6f7420617574686f72697a656420746f20736574206f70657261746f72207260448201526a32b9ba3934b1ba34b7b71760a91b6064820152608490fd5b503461000e57600036600319011261000e576020600c54604051908152f35b503461000e57600036600319011261000e5760206040516daaeb6d7670e522a718067333cd4e8152f35b503461000e57602036600319011261000e57610eff600435613cec565b604080516001600160a01b0393909316835261ffff91909116602083015290f35b90815180825260208080930193019160005b828110610f40575050505090565b835185529381019392810192600101610f32565b90602061074e928181520190610f20565b503461000e57604036600319011261000e576004356001600160401b0380821161000e573660238301121561000e578160040135610fa281610b1b565b92610fb06040519485610585565b81845260209160248386019160051b8301019136831161000e57602401905b828210611008578560243586811161000e576107a991610ff6610ffc923690600401610b41565b90612b17565b60405191829182610f54565b8380916110148461038f565b815201910190610fcf565b503461000e5760a036600319011261000e576001600160401b0360043560243582811161000e57611054903690600401610c00565b9060843583811161000e5761106d903690600401610b41565b9061107c60105482111561401c565b600093818552602090600e825260018060408820019286519283116111bb575b6110b0836110aa865461049f565b86612d97565b80601f8411600114611140575091808061112c9593600497956111329a8c94611135575b50501b916000199060031b1c19161790555b60443560026110ff83600052600e602052604060002090565b0155606435600361111a83600052600e602052604060002090565b0155600052600e602052604060002090565b01613f87565b80f35b0151925038806110d4565b9193949596601f19841661115987600052602060002090565b938a905b8282106111a45750509261112c959285926111329a9996600499961061118b575b505050811b0190556110e6565b015160001960f88460031b161c1916905538808061117e565b80888697829497870151815501960194019061115d565b6111c36104d9565b61109c565b503461000e57600036600319011261000e57602060ff600b54166040519015158152f35b503461000e57602036600319011261000e57600435600052600e6020526040600020805461121c60018301610651565b91600360028201549101546112436040519485948552608060208601526080850190610718565b91604084015260608301520390f35b503461000e57604036600319011261000e5761126c610363565b600654602435916001600160a01b0391821633036109eb5761271083116112e557600780546001600160b01b0319169190921690811760a084901b61ffff60a01b1617909155604051918252907f90d7ec04bcb8978719414f82e52e4cb651db41d0e6f8cea6118c2191e6183adb9080602081010390a2005b60405162461bcd60e51b815260206004820152600f60248201526e45786365656473206d61782062707360881b6044820152606490fd5b503461000e57600036600319011261000e576020600954604051908152f35b503461000e57606036600319011261000e57611355610363565b6001600160401b0360243581811161000e57611375903690600401610b41565b9060443590811161000e5761138e903690600401610b41565b906001600160a01b0383163381148015611419575b6113ad91506129f9565b6113ba8151835114612a7f565b60005b815181101561140f5761140a906114056113f26113d9876103a3565b6113e384876129d7565b51600052602052604060002090565b546113fd83876129d7565b511115612a39565b6127cb565b6113bd565b50610d95926131f0565b5060009081526003602090815260408083203384529091529020546113ad9060ff166113a3565b503461000e57600036600319011261000e576020601054604051908152f35b503461000e57600036600319011261000e576020601154604051908152f35b503461000e57602036600319011261000e5760405160208101904282526004356040820152604081526114b08161054f565b51902060105480156114ea576107a99106600181018091116114dd575b6040519081529081906020820190565b6114e56127b4565b6114cd565b634e487b7160e01b600052601260045260246000fd5b503461000e57600036600319011261000e576006546040516001600160a01b039091168152602090f35b503461000e5760208060031936011261000e576001600160401b039060043582811161000e5761155e903690600401610c00565b6006549091906001600160a01b031633036109eb5761157b6105a6565b90825193841161169b575b61159a8461159560055461049f565b612d52565b80601f8511600114611607575092807fc9c7c3fe08b88b4df9d4d47ef47d2c43d55c025a0ba88ca442580ed9e7348a16946000916115fc575b508160011b916000199060031b1c1916176005555b6115f760405192839283613b24565b0390a1005b9050830151386115d3565b600560005290601f1985166000805160206140a0833981519152926000905b8282106116835750509185917fc9c7c3fe08b88b4df9d4d47ef47d2c43d55c025a0ba88ca442580ed9e7348a16966001941061166a575b5050811b016005556115e8565b85015160001960f88460031b161c19169055388061165d565b80600185968294968a01518155019501930190611626565b6116a36104d9565b611586565b503461000e57608036600319011261000e576116c2610363565b6001600160401b0360243581811161000e576116e2903690600401610b41565b60443582811161000e576116fa903690600401610b41565b9160643590811161000e579061171584923690600401610c00565b9161172b60018060a01b03600654163314612735565b6117378451151561293e565b6117448251855114612981565b600c54600094859291805b85518510156117b45760001961176586886129d7565b51036117995761178c6117868261179293611780898b6129d7565b526127cb565b986127cb565b946127cb565b939661174f565b969380611405896117ad611792948a6129d7565b511061277b565b919493506117cf9295610d9597806117dd575b505050600c55565b6117d76127fc565b9261308e565b6117e6926139f4565b886117c7565b503461000e57600080600319360112610810576040518160018054906118118261049f565b808552918181169081156107e85750600114611837576107a98461079d81880382610585565b80945082526020938483205b82841061185f57505050816107a99361079d928201019361078d565b8054858501870152928501928101611843565b503461000e57606036600319011261000e5760043561188f610379565b6006546001600160a01b03929160443591841633036109eb5761271082116112e5577f7365cf4122f072a3365c20d54eff9b38d73c096c28e1892ec8f5b0e403a0f12d9161193891600186604051926118e784610519565b168083526020808401858152600089815260089092526040909120935184546001600160a01b0319166001600160a01b0391909a161698909817835596519101556040519081529081906020820190565b0390a3005b503461000e57604036600319011261000e57611957610363565b60243561196381610dc8565b61196c82613c20565b6001600160a01b038216913383146119f257816119ab6119bc9233600052600360205260406000209060018060a01b0316600052602052604060002090565b9060ff801983541691151516179055565b604051901515815233907f17307eab39ab6107e8899845ad3d59bd9653f200f220920489ca2b5937696c31908060208101611938565b60405162461bcd60e51b815260206004820152600e60248201526d20a8282927ab24a723afa9a2a62360911b6044820152606490fd5b602080820190808352835180925260408301928160408460051b8301019501936000915b848310611a5c5750505050505090565b9091929394958480611a7a600193603f198682030187528a51610718565b9801930193019194939290611a4c565b503461000e57602036600319011261000e576001600160401b0360043581811161000e573660238201121561000e57806004013591821161000e573660248360051b8301011161000e576107a9916024611ae49201613b49565b60405191829182611a28565b503461000e57608036600319011261000e57611b0a610363565b602435604435916001600160401b039283811161000e57611b2f903690600401610c00565b92611b4560018060a01b03600654163314612735565b600c549060001993848114600014611c6b57508193600192838101808211611c5e575b600c55600052602092600484526040600020938751938411611c51575b611b9984611b93875461049f565b87612d97565b80601f8511600114611be257508392918391610d9599600095611bd7575b50501b9260031b1c19161790555b611bcd6127fc565b9160643591612f8c565b015193503880611bb7565b91939290601f19841698611bfb87600052602060002090565b936000905b8b8210611c3a57505084610d959a10611c22575b50505050811b019055611bc5565b01519060f88460031b161c1916905538808080611c14565b808885978294968601518155019601930190611c00565b611c596104d9565b611b85565b611c666127b4565b611b68565b610d95955080939450611c809291501061277b565b90611bc5565b503461000e57600036600319011261000e57600754604080516001600160a01b038316815260a09290921c61ffff16602083015290f35b503461000e57602036600319011261000e57600435600052600d6020526020604060002054604051908152f35b9061074e9160208152815160208201526080611d15602084015160a0604085015260c0840190610718565b926040810151606084015260608101518284015201519060a0601f1982850301910152610f20565b503461000e57602036600319011261000e576107a96040606060808251611d6381610534565b600081528260208201526000848201526000838201520152600435600052600e6020528060002090611dca6004825193611d9c85610534565b80548552611dac60018201610651565b602086015260028101548486015260038101546060860152016138ce565b60808301525191829182611cea565b503461000e57604036600319011261000e57600435611df6610379565b90611e0560105482111561401c565b60405191611e128361056a565b60008084526001600160a01b03821693841593611e2f8515612bff565b611e3881613880565b93611e4161384e565b96845b8651811015611e825780611e5b611e7d928b6129d7565b51610d57610d4f611e6c848c6129d7565b51600052600d602052604060002090565b611e44565b50879587611edb575b50611132949550611e9f83610d22846103a3565b611ea981546127cb565b905560408051848152600160208201528791339160008051602061408083398151915291819081015b0390a43361347d565b9391859391955b8551811015611f175780611ef9611f12928a6129d7565b51610d57611f0a611e6c848b6129d7565b918254612c79565b611ee2565b50919350919450611132938594611e8b565b9491611f4b9060e097949a999895928752610100806020890152870190610718565b98604086015215156060850152608084015260a083015260c08201520152565b503461000e57602036600319011261000e57600435600052600f602052604060002080546107a9611f9e60018401610651565b9260028101549060ff6003820154166004820154600583015491600760068501549401549460405198899889611f29565b503461000e5760e036600319011261000e576004356001600160401b03811161000e57612000903690600401610c00565b60076044359161200f83610dc8565b6011549060405193612020856104f0565b82855260208501918252604085019060243582526060860190151581526120aa6120956080880192606435845260a0890194608435865261208960c08b019760a435895260e08c019960c4358b52600052600f60205260406000209b518c555160018c01612dd1565b5160028a015551151590565b600388019060ff801983541691151516179055565b51600486015551600585015551600684015551910155610d956120ce601154612afb565b601155565b503461000e5760008060031936011261081057604051816005546120f68161049f565b808452906001908181169081156107e8575060011461211f576107a98461079d81880382610585565b60058352602094506000805160206140a08339815191525b82841061215357505050816107a99361079d928201019361078d565b8054858501870152928501928101612137565b503461000e57604036600319011261000e57602060ff6121b8612187610363565b61218f610379565b6001600160a01b0391821660009081526003865260408082209290931681526020919091522090565b54166040519015158152f35b503461000e5760a036600319011261000e576001600160401b0360043581811161000e576121f6903690600401610c00565b9060643581811161000e5761220f903690600401610b41565b60843582811161000e5761222a612230913690600401610c00565b3361280f565b601054926040519261224184610534565b8484526020918285019081526040850191602435835260608601936044358552608087019586526000978852600e815260408820965187556001908188019351805193841161237b575b61229984611b93875461049f565b81601f851160011461230157509280600497959381936122e39b9a98968d946122f6575b50501b916000199060031b1c19161790555b516002850155516003840155519101613f87565b6111326122f1601054612afb565b601055565b0151925038806122bd565b9190601f94939419841661231a87600052602060002090565b938c905b828210612364575050916122e39a99979593918560049a9896941061234b575b505050811b0190556122cf565b015160001960f88460031b161c1916905538808061233e565b80888697829497870151815501960194019061231e565b6123836104d9565b61228b565b503461000e5760a036600319011261000e576123a2610363565b6123aa610379565b6064356044356084356001600160401b03811161000e576123cf903690600401610c00565b6001600160a01b03858116959194919033871480159081612552575b9061252f575b6123fa90612bbe565b82168015966124098815612bff565b61241285613880565b61241b87613880565b9882156124e4575b612499575b50610d9597508561243c86610d22866103a3565b5461244982821015612c3a565b0361245786610d22866103a3565b5561246585610d22866103a3565b6124708782546127ef565b90556040805186815260208101889052339160008051602061408083398151915291a433613688565b959391600097959391975b87518110156124d157806124bb6124cc928c6129d7565b51610d57611f0a611e6c848d6129d7565b6124a4565b5091939550919395610d95975038612428565b97959391600097959391975b8a895182101561251f579089610d57610d4f611e6c846125138161251a986129d7565b51946129d7565b6124f0565b5050919395979690929496612423565b50600087815260036020908152604080832033845290915290205460ff166123f1565b61255b33613c20565b6123eb565b503461000e57606036600319011261000e5761257a610363565b602435906044356001600160a01b038216338114801561269f575b61259e906129f9565b6000908082526002602052604082208583526020526125c38360408420541015612a39565b8015946125d086156131b3565b6125d981613880565b936125e381613880565b96846040516125f18161056a565b52612662575b835b85518110156126155780611ef9612610928a6129d7565b6125f9565b5083945061265c600080516020614080833981519152918761264285610d2284610d3183610d22876103a3565b556040805194855260208501919091523393918291820190565b0390a480f35b94929190825b8551811015612695578061267f612690928a6129d7565b51610d57610d4f611e6c848b6129d7565b612668565b50909192946125f7565b50600081815260036020908152604080832033845290915290205460ff16612595565b806000526020600481526126d96040600020610651565b805161272f575061074e906126f66126f08461391d565b93613eae565b92604051938161270f86935180928680870191016106f5565b8201612723825180938680850191016106f5565b01038084520182610585565b91505090565b1561273c57565b60405162461bcd60e51b81526020600482015260176024820152762737ba1030baba3437b934bd32b2103a379036b4b73a1760491b6044820152606490fd5b1561278257565b60405162461bcd60e51b815260206004820152600a6024820152691a5b9d985b1a59081a5960b21b6044820152606490fd5b50634e487b7160e01b600052601160045260246000fd5b90600182018092116127d957565b6105e06127b4565b60300190816030116127d957565b919082018092116127d957565b604051906128098261056a565b60008252565b91909161282760018060a01b03600654163314612735565b600c546001808201808311612931575b600c5581600052602090600482526040600020918651966001600160401b038811612924575b61286b886110aa865461049f565b81601f89116001146128b5575096809281926105e098996000946128aa575b50501b916000199060031b1c19161790555b6128a46127fc565b91612ead565b01519250388061288a565b909791601f198316986128cd86600052602060002090565b926000905b8b821061290d575050836105e0999a106128f4575b505050811b01905561289c565b015160001960f88460031b161c191690553880806128e7565b8087859682949686015181550195019301906128d2565b61292c6104d9565b61285d565b6129396127b4565b612837565b1561294557565b60405162461bcd60e51b815260206004820152601460248201527326b4b73a34b733903d32b937903a37b5b2b7399760611b6044820152606490fd5b1561298857565b60405162461bcd60e51b815260206004820152601060248201526f2632b733ba341036b4b9b6b0ba31b41760811b6044820152606490fd5b50634e487b7160e01b600052603260045260246000fd5b60209181518110156129ec575b60051b010190565b6129f46129c0565b6129e4565b15612a0057565b60405162461bcd60e51b81526020600482015260116024820152702ab730b8383937bb32b21031b0b63632b960791b6044820152606490fd5b15612a4057565b60405162461bcd60e51b8152602060048201526017602482015276139bdd08195b9bdd59da081d1bdad95b9cc81bdddb9959604a1b6044820152606490fd5b15612a8657565b60405162461bcd60e51b815260206004820152600f60248201526e098cadccee8d040dad2e6dac2e8c6d608b1b6044820152606490fd5b15612ac457565b60405162461bcd60e51b815260206004820152600f60248201526e0988a9c8ea890be9a92a69a82a8869608b1b6044820152606490fd5b6001906000198114612b0b570190565b612b136127b4565b0190565b919091612b278151845114612abd565b805192612b3384610b1b565b91604094612b4386519485610585565b808452612b52601f1991610b1b565b0190602091368386013760005b8151811015612bb557612bb0906001600160a01b03612b7e82856129d7565b51166000526002845287600020612b9582876129d7565b5160005284528760002054612baa82886129d7565b52612afb565b612b5f565b50929450505050565b15612bc557565b60405162461bcd60e51b81526020600482015260126024820152710853d5d3915497d3d497d054141493d5915160721b6044820152606490fd5b15612c0657565b60405162461bcd60e51b815260206004820152600c60248201526b2a27afad22a927afa0a2222960a11b6044820152606490fd5b15612c4157565b60405162461bcd60e51b815260206004820152601060248201526f125394d551919250d251539517d0905360821b6044820152606490fd5b919082039182116127d957565b9293926001600160a01b039190821615612cdc575b1615612ca657509050565b60005b8151811015612cd65780612cc0612cd192866129d7565b51610d57611f0a611e6c84876129d7565b612ca9565b50509050565b929060005b8351811015612d0e5780612cf8612d0992886129d7565b51610d57610d4f611e6c84896129d7565b612ce1565b509092612c9b565b9091612d2d61074e93604084526040840190610f20565b916020818403910152610f20565b818110612d46575050565b60008155600101612d3b565b90601f8211612d5f575050565b6105e09160056000526020600020906020601f840160051c83019310612d8d575b601f0160051c0190612d3b565b9091508190612d80565b9190601f8111612da657505050565b6105e0926000526020600020906020601f840160051c83019310612d8d57601f0160051c0190612d3b565b91909182516001600160401b038111612ea0575b612df981612df3845461049f565b84612d97565b602080601f8311600114612e35575081929394600092612e2a575b50508160011b916000199060031b1c1916179055565b015190503880612e14565b90601f19831695612e4b85600052602060002090565b926000905b888210612e8857505083600195969710612e6f575b505050811b019055565b015160001960f88460031b161c19169055388080612e65565b80600185968294968601518155019501930190612e50565b612ea86104d9565b612de5565b6001600160a01b038116938415939192909190612eca8515612bff565b612ed381613880565b93612edc61384e565b9660005b8651811015612efc5780611e5b612ef7928b6129d7565b612ee0565b5091939594909294612f55575b506105e0949550612f1d83610d22846103a3565b612f2781546127cb565b9055604080518481526001602082015260009133916000805160206140808339815191529181908101611ed2565b93916000959391955b8551811015612f7a5780611ef9612f75928a6129d7565b612f5e565b509193509194506105e0938594612f09565b6001600160a01b0381169485159491939092612fa88615612bff565b612fb181613880565b94612fbb83613880565b9760005b8751811015612fec5780612fd6612fe7928c6129d7565b51610d57610d4f611e6c848d6129d7565b612fbf565b5091939590929496613045575b506105e095965061300d83610d22846103a3565b6130188582546127ef565b9055604080518481526020810186905260009133916000805160206140808339815191529190a4336135b4565b94929095939160005b865181101561307b5780613065613076928b6129d7565b51610d57611f0a611e6c848c6129d7565b61304e565b50919396509193506105e0948695612ff9565b6001600160a01b038116948515949293926130a98615612bff565b6130b68551855114612abd565b60005b855181101561310357806130d06130f192876129d7565b516130de611e6c838a6129d7565b80549182018092116130f6575b55612afb565b6130b9565b6130fe6127b4565b6130eb565b50909194613179575b60005b8451811015613145578061312661314092866129d7565b51610d57610d4f6131368a6103a3565b6113e3858b6129d7565b61310f565b50929094936105e0946000604051600080516020614060833981519152339180613170898983612d16565b0390a4336137dd565b939060005b84518110156131ab57806131956131a692866129d7565b51610d57611f0a611e6c848a6129d7565b61317e565b50909361310c565b156131ba57565b60405162461bcd60e51b815260206004820152600e60248201526d232927a6afad22a927afa0a2222960911b6044820152606490fd5b9192916001600160a01b03811690811561320a81156131b3565b6132178451875114612abd565b61321f6127fc565b506132d9575b60005b8351811015613255578061323f61325092886129d7565b51610d57611f0a611e6c84896129d7565b613228565b5091909260005b82518110156132ac57806132736132a792856129d7565b516130eb613281838a6129d7565b5161328f83610d228a6103a3565b5461329c82821015612c3a565b0391610d22886103a3565b61325c565b509360009392506132d460008051602061406083398151915291604051918291339583612d16565b0390a4565b929060005b835181101561330857806132f561330392886129d7565b516130de611e6c83886129d7565b6132de565b509092613225565b9081602091031261000e575161074e81610406565b61074e939260a092600180851b03168252600060208301526040820152600160608201528160808201520190610718565b909260a09261074e9594600180861b0316835260006020840152604083015260608201528160808201520190610718565b919261074e95949160a094600180871b038092168552166020840152604083015260608201528160808201520190610718565b506040513d6000823e3d90fd5b60609060208152600f60208201526e1513d2d15394d7d491529150d51151608a1b60408201520190565b60009060033d116133fe57565b905060046000803e60005160e01c90565b600060443d1061074e57604051600319913d83016004833e81516001600160401b03918282113d60248401111761346c57818401948551938411613474573d8501016020848701011161346c575061074e92910160200190610585565b949350505050565b50949350505050565b92919091823b61348e575b50505050565b6134b592602092600060405180968195829463f23a6e6160e01b9a8b855260048501613325565b03926001600160a01b03165af160009181613584575b5061355c57505060016134dc6133f1565b6308c379a01461352d575b6134f5575b38808080613488565b60405162461bcd60e51b815260206004820152601060248201526f10a2a92198989a9aa922a1a2a4ab22a960811b6044820152606490fd5b61353561340f565b8061354057506134e7565b60405162461bcd60e51b8152908190610a21906004830161073d565b6001600160e01b031916146134ec5760405162461bcd60e51b815280610a21600482016133c7565b6135a691925060203d81116135ad575b61359e8183610585565b810190613310565b90386134cb565b503d613594565b9390803b6135c4575b5050505050565b6135ec9360006020946040519687958694859363f23a6e6160e01b9b8c865260048601613356565b03926001600160a01b03165af160009181613668575b5061364057505060016136136133f1565b6308c379a01461362d575b6134f5575b38808080806135bd565b61363561340f565b80613540575061361e565b6001600160e01b031916146136235760405162461bcd60e51b815280610a21600482016133c7565b61368191925060203d81116135ad5761359e8183610585565b9038613602565b9493919092813b61369c575b505050505050565b60006020946136c36040519788968795869463f23a6e6160e01b9c8d875260048701613387565b03926001600160a01b03165af160009181613740575b5061371857505060016136ea6133f1565b6308c379a014613705575b6134f5575b388080808080613694565b61370d61340f565b8061354057506136f5565b6001600160e01b031916146136fa5760405162461bcd60e51b815280610a21600482016133c7565b61375991925060203d81116135ad5761359e8183610585565b90386136d9565b9261378f61074e959361379d9360018060a01b031686526000602087015260a0604087015260a0860190610f20565b908482036060860152610f20565b916080818403910152610718565b939061074e959361378f9161379d9460018060a01b03809216885216602087015260a0604087015260a0860190610f20565b9390803b6137ec575050505050565b6135ec9360006020946040519687958694859363bc197c8160e01b9b8c865260048601613760565b9493919092813b61382757505050505050565b60006020946136c36040519788968795869463bc197c8160e01b9c8d8752600487016137ab565b60405161385a81610519565b600181526001602082016020368237825115613874575290565b61387c6129c0565b5290565b6040519061388d82610519565b60018252602082016020368237825115613874575290565b6009548110156138c1575b600960005260206000200190600090565b6138c96129c0565b6138b0565b9060405191828154918282526020928383019160005283600020936000905b828210613903575050506105e092500383610585565b8554845260019586019588955093810193909101906138ed565b9060095490604092835180848252602080920192600093600985528284862091865b868a82106139de57505061395592500383610585565b835b86811061399457875162461bcd60e51b815260206004820152600f60248201526e125b9d985b1a59081d1bdad95b9259608a1b6044820152606490fd5b61399e81846129d7565b5182106139be576001810180911115613957576139b96127b4565b613957565b61074e96506139d49150600a93929795976129d7565b5183525220610651565b845483526001948501948794509201910161393f565b92908301809311613b17575b60095483929083600160401b821015613b0a575b613a4481613a296001948581016009556138a5565b90919082549060031b600019811b9283911b16911916179055565b600052602091600a83526040600020928151916001600160401b038311613afd575b613a7483611b93875461049f565b81601f8411600114613aad5750928293918392600094613aa2575b50501b916000199060031b1c1916179055565b015192503880613a8f565b919083601f198116613ac488600052602060002090565b946000905b88838310613ae35750505010612e6f57505050811b019055565b858701518855909601959485019487935090810190613ac9565b613b056104d9565b613a66565b613b126104d9565b613a14565b613b1f6127b4565b613a00565b9091613b3b61074e93604084526040840190610718565b916020818403910152610718565b90613b5381610b1b565b91613b616040519384610585565b818352601f19613b7083610b1b565b0160005b818110613bfa57505060005b828110613b8d5750505090565b8060051b820135601e198336030181121561000e578201908135916001600160401b03831161000e57602001823603811361000e57613bd4613bda91613bf5943691610bc9565b30613d65565b613be482876129d7565b52613bef81866129d7565b50612afb565b613b80565b806060602080938801015201613b74565b9081602091031261000e575161074e81610dc8565b600b5460ff16613c2d5750565b6daaeb6d7670e522a718067333cd4e803b613c46575050565b604051633185c44d60e21b81523060048201526001600160a01b038316602482015290602090829060449082905afa908115613cdf575b600091613cb1575b5015613c8e5750565b604051633b79c77360e21b81526001600160a01b03919091166004820152602490fd5b613cd2915060203d8111613cd8575b613cca8183610585565b810190613c0b565b38613c85565b503d613cc0565b613ce76133ba565b613c7d565b6000526008602052604060002090602060405192604084018481106001600160401b03821117613d58575b60405280546001600160a01b039081168086526001909201549290940182905280613d4f57505061ffff6007549283169260a01c1690565b925061ffff1690565b613d606104d9565b613d17565b9060405190613d738261054f565b602782527f416464726573733a206c6f772d6c6576656c2064656c65676174652063616c6c6020830152660819985a5b195960ca1b6040830152823b15613dfb5760008161074e9460208394519201905af43d15613df3573d90613dd682610b9f565b91613de46040519384610585565b82523d6000602084013e613e4f565b606090613e4f565b60405162461bcd60e51b815260206004820152602660248201527f416464726573733a2064656c65676174652063616c6c20746f206e6f6e2d636f6044820152651b9d1c9858dd60d21b6064820152608490fd5b90919015613e5b575090565b815115613e6b5750805190602001fd5b60405162461bcd60e51b815260206004820152908190610a21906024830190610718565b906020918051821015613ea157010190565b613ea96129c0565b010190565b8015613f6957806000908282935b613f555750613eca83610b9f565b92613ed86040519485610585565b80845281601f19613ee883610b9f565b013660208701375b613efa5750505090565b6000198101908111613f48575b8091600a91613f3f613f36613f26613f208686066127e1565b60ff1690565b60f81b6001600160f81b03191690565b861a9187613e8f565b53049081613ef0565b613f506127b4565b613f07565b92613f61600a91612afb565b930480613ebc565b50604051613f7681610519565b60018152600360fc1b602082015290565b8151916001600160401b03831161400f575b600160401b8311614002575b8154838355808410613fe4575b50602080910191600052806000209060005b848110613fd2575050505050565b83518382015592810192600101613fc4565b613ffc90836000528460206000209182019101612d3b565b38613fb2565b61400a6104d9565b613fa5565b6140176104d9565b613f99565b1561402357565b60405162461bcd60e51b815260206004820152601460248201527314dada5b1b08191bd95cc81b9bdd08195e1a5cdd60621b6044820152606490fdfe4a39dc06d4c0dbc64b70af90fd698a233a518aa5d07e595d983b8c0526c8f7fbc3d58168c5ae7397731d063d5bbf3d657854427343f4c083240f7aacaa2d0f62036b6384b5eca791c62761152d0c79bb0604c104a5fb6f4eb0703f3154bb3db0a264697066735822122050386d34534330f870b9c96574b8f5856e78d96fcdb17f8e9ebc6c4a65ae70cb64736f6c6343000811003338475885990d8dfe9ca01f0ef160a1b5514426eab9ddbc953a3353410ba78096",
  "linkReferences": {},
  "deployedLinkReferences": {}
}