{
  "_format": "hh-sol-artifact-1",
  "contractName": "Battle",
  "sourceName": "contracts/Battle.sol",
  "abi": [
    {
      "inputs": [
        {
          "internalType": "address",
          "name": "_characterContractAddress",
          "type": "address"
        },
        {
          "internalType": "address",
          "name": "_battleSkillsContractAddress",
          "type": "address"
        }
      ],
      "stateMutability": "nonpayable",
      "type": "constructor"
    },
    {
      "anonymous": false,
      "inputs": [
        {
          "indexed": true,
          "internalType": "uint256",
          "name": "battleId",
          "type": "uint256"
        },
        {
          "indexed": true,
          "internalType": "address",
          "name": "player",
          "type": "address"
        }
      ],
      "name": "BattleCancelled",
      "type": "event"
    },
    {
      "anonymous": false,
      "inputs": [
        {
          "indexed": false,
          "internalType": "uint256",
          "name": "battleId",
          "type": "uint256"
        },
        {
          "indexed": false,
          "internalType": "address",
          "name": "creator",
          "type": "address"
        },
        {
          "indexed": false,
          "internalType": "uint256",
          "name": "characterId",
          "type": "uint256"
        }
      ],
      "name": "BattleCreated",
      "type": "event"
    },
    {
      "anonymous": false,
      "inputs": [
        {
          "indexed": false,
          "internalType": "string",
          "name": "battleName",
          "type": "string"
        },
        {
          "indexed": false,
          "internalType": "uint256",
          "name": "battleId",
          "type": "uint256"
        },
        {
          "indexed": true,
          "internalType": "address",
          "name": "winner",
          "type": "address"
        },
        {
          "indexed": true,
          "internalType": "address",
          "name": "loser",
          "type": "address"
        }
      ],
      "name": "BattleEnded",
      "type": "event"
    },
    {
      "anonymous": false,
      "inputs": [
        {
          "indexed": false,
          "internalType": "uint256",
          "name": "diceNumber",
          "type": "uint256"
        }
      ],
      "name": "DiceRolled",
      "type": "event"
    },
    {
      "anonymous": false,
      "inputs": [
        {
          "indexed": false,
          "internalType": "uint256",
          "name": "battleId",
          "type": "uint256"
        },
        {
          "indexed": false,
          "internalType": "address",
          "name": "player1",
          "type": "address"
        },
        {
          "indexed": false,
          "internalType": "uint256",
          "name": "health1",
          "type": "uint256"
        },
        {
          "indexed": false,
          "internalType": "address",
          "name": "player2",
          "type": "address"
        },
        {
          "indexed": false,
          "internalType": "uint256",
          "name": "health2",
          "type": "uint256"
        }
      ],
      "name": "HealthUpdated",
      "type": "event"
    },
    {
      "anonymous": false,
      "inputs": [
        {
          "indexed": true,
          "internalType": "uint256",
          "name": "battleId",
          "type": "uint256"
        },
        {
          "indexed": true,
          "internalType": "address",
          "name": "player",
          "type": "address"
        },
        {
          "indexed": false,
          "internalType": "enum Battle.Move",
          "name": "move",
          "type": "uint8"
        }
      ],
      "name": "MoveSubmitted",
      "type": "event"
    },
    {
      "anonymous": false,
      "inputs": [
        {
          "indexed": false,
          "internalType": "string",
          "name": "battleName",
          "type": "string"
        },
        {
          "indexed": false,
          "internalType": "uint256",
          "name": "battleId",
          "type": "uint256"
        },
        {
          "indexed": true,
          "internalType": "address",
          "name": "player1",
          "type": "address"
        },
        {
          "indexed": true,
          "internalType": "address",
          "name": "player2",
          "type": "address"
        }
      ],
      "name": "NewBattle",
      "type": "event"
    },
    {
      "anonymous": false,
      "inputs": [
        {
          "indexed": true,
          "internalType": "address",
          "name": "prevOwner",
          "type": "address"
        },
        {
          "indexed": true,
          "internalType": "address",
          "name": "newOwner",
          "type": "address"
        }
      ],
      "name": "OwnerUpdated",
      "type": "event"
    },
    {
      "anonymous": false,
      "inputs": [
        {
          "indexed": false,
          "internalType": "address[2]",
          "name": "damagedPlayers",
          "type": "address[2]"
        }
      ],
      "name": "RoundEnded",
      "type": "event"
    },
    {
      "stateMutability": "payable",
      "type": "fallback"
    },
    {
      "inputs": [
        {
          "internalType": "uint256",
          "name": "",
          "type": "uint256"
        }
      ],
      "name": "activeBattlesId",
      "outputs": [
        {
          "internalType": "uint256",
          "name": "",
          "type": "uint256"
        }
      ],
      "stateMutability": "view",
      "type": "function"
    },
    {
      "inputs": [],
      "name": "battleCounter",
      "outputs": [
        {
          "internalType": "uint256",
          "name": "",
          "type": "uint256"
        }
      ],
      "stateMutability": "view",
      "type": "function"
    },
    {
      "inputs": [],
      "name": "battleFee",
      "outputs": [
        {
          "internalType": "uint256",
          "name": "",
          "type": "uint256"
        }
      ],
      "stateMutability": "view",
      "type": "function"
    },
    {
      "inputs": [
        {
          "internalType": "uint256",
          "name": "",
          "type": "uint256"
        }
      ],
      "name": "battles",
      "outputs": [
        {
          "internalType": "uint256",
          "name": "battleId",
          "type": "uint256"
        },
        {
          "internalType": "string",
          "name": "name",
          "type": "string"
        },
        {
          "internalType": "enum Battle.BattleStatus",
          "name": "battleStatus",
          "type": "uint8"
        },
        {
          "internalType": "address",
          "name": "winner",
          "type": "address"
        }
      ],
      "stateMutability": "view",
      "type": "function"
    },
    {
      "inputs": [
        {
          "internalType": "uint256",
          "name": "attack",
          "type": "uint256"
        }
      ],
      "name": "calculateAttackDamage",
      "outputs": [
        {
          "internalType": "uint256",
          "name": "",
          "type": "uint256"
        }
      ],
      "stateMutability": "nonpayable",
      "type": "function"
    },
    {
      "inputs": [
        {
          "internalType": "uint256",
          "name": "_battleId",
          "type": "uint256"
        }
      ],
      "name": "cancelBattle",
      "outputs": [],
      "stateMutability": "nonpayable",
      "type": "function"
    },
    {
      "inputs": [
        {
          "internalType": "string",
          "name": "_name",
          "type": "string"
        },
        {
          "internalType": "uint256",
          "name": "_characterTokenId",
          "type": "uint256"
        }
      ],
      "name": "createBattle",
      "outputs": [],
      "stateMutability": "nonpayable",
      "type": "function"
    },
    {
      "inputs": [],
      "name": "feeCollected",
      "outputs": [
        {
          "internalType": "uint256",
          "name": "",
          "type": "uint256"
        }
      ],
      "stateMutability": "view",
      "type": "function"
    },
    {
      "inputs": [],
      "name": "getActiveBattlesCount",
      "outputs": [
        {
          "internalType": "uint256",
          "name": "",
          "type": "uint256"
        }
      ],
      "stateMutability": "view",
      "type": "function"
    },
    {
      "inputs": [],
      "name": "getActiveBattlesId",
      "outputs": [
        {
          "internalType": "uint256[]",
          "name": "",
          "type": "uint256[]"
        }
      ],
      "stateMutability": "view",
      "type": "function"
    },
    {
      "inputs": [
        {
          "internalType": "uint256",
          "name": "_battleId",
          "type": "uint256"
        }
      ],
      "name": "getBattle",
      "outputs": [
        {
          "components": [
            {
              "internalType": "uint256",
              "name": "battleId",
              "type": "uint256"
            },
            {
              "internalType": "string",
              "name": "name",
              "type": "string"
            },
            {
              "internalType": "address[2]",
              "name": "players",
              "type": "address[2]"
            },
            {
              "internalType": "uint256[2]",
              "name": "characterIds",
              "type": "uint256[2]"
            },
            {
              "internalType": "uint256[2]",
              "name": "moves",
              "type": "uint256[2]"
            },
            {
              "internalType": "uint256[2]",
              "name": "skillIndices",
              "type": "uint256[2]"
            },
            {
              "internalType": "enum Battle.BattleStatus",
              "name": "battleStatus",
              "type": "uint8"
            },
            {
              "internalType": "address",
              "name": "winner",
              "type": "address"
            },
            {
              "internalType": "uint256[2]",
              "name": "initialHealth",
              "type": "uint256[2]"
            },
            {
              "internalType": "uint256[2]",
              "name": "initialMana",
              "type": "uint256[2]"
            },
            {
              "internalType": "bool[2]",
              "name": "moveSubmitted",
              "type": "bool[2]"
            }
          ],
          "internalType": "struct Battle.BattleData",
          "name": "",
          "type": "tuple"
        }
      ],
      "stateMutability": "view",
      "type": "function"
    },
    {
      "inputs": [
        {
          "internalType": "uint256",
          "name": "battleId",
          "type": "uint256"
        }
      ],
      "name": "getBattleMoves",
      "outputs": [
        {
          "internalType": "uint256[2]",
          "name": "",
          "type": "uint256[2]"
        }
      ],
      "stateMutability": "view",
      "type": "function"
    },
    {
      "inputs": [
        {
          "internalType": "uint256",
          "name": "battleId",
          "type": "uint256"
        }
      ],
      "name": "getBattleParticipants",
      "outputs": [
        {
          "internalType": "address[2]",
          "name": "",
          "type": "address[2]"
        }
      ],
      "stateMutability": "view",
      "type": "function"
    },
    {
      "inputs": [
        {
          "internalType": "uint256",
          "name": "battleId",
          "type": "uint256"
        },
        {
          "internalType": "address",
          "name": "player",
          "type": "address"
        }
      ],
      "name": "getCharacterHealth",
      "outputs": [
        {
          "internalType": "uint256",
          "name": "",
          "type": "uint256"
        }
      ],
      "stateMutability": "view",
      "type": "function"
    },
    {
      "inputs": [
        {
          "internalType": "uint256",
          "name": "battleId",
          "type": "uint256"
        },
        {
          "internalType": "address",
          "name": "player",
          "type": "address"
        }
      ],
      "name": "getCharacterProxy",
      "outputs": [
        {
          "components": [
            {
              "internalType": "uint256",
              "name": "id",
              "type": "uint256"
            },
            {
              "internalType": "address",
              "name": "owner",
              "type": "address"
            },
            {
              "internalType": "uint256",
              "name": "health",
              "type": "uint256"
            },
            {
              "internalType": "uint256",
              "name": "attack",
              "type": "uint256"
            },
            {
              "internalType": "uint256",
              "name": "defense",
              "type": "uint256"
            },
            {
              "internalType": "uint256",
              "name": "mana",
              "type": "uint256"
            },
            {
              "internalType": "uint256",
              "name": "typeId",
              "type": "uint256"
            },
            {
              "internalType": "uint256[]",
              "name": "equippedSkills",
              "type": "uint256[]"
            }
          ],
          "internalType": "struct Battle.CharacterProxyView",
          "name": "",
          "type": "tuple"
        }
      ],
      "stateMutability": "view",
      "type": "function"
    },
    {
      "inputs": [
        {
          "internalType": "uint256",
          "name": "battleId",
          "type": "uint256"
        },
        {
          "internalType": "address",
          "name": "player",
          "type": "address"
        }
      ],
      "name": "getCharacterProxyActiveEffects",
      "outputs": [
        {
          "internalType": "uint256[]",
          "name": "effectIds",
          "type": "uint256[]"
        },
        {
          "internalType": "uint256[]",
          "name": "durations",
          "type": "uint256[]"
        }
      ],
      "stateMutability": "view",
      "type": "function"
    },
    {
      "inputs": [
        {
          "internalType": "uint256",
          "name": "battleId",
          "type": "uint256"
        },
        {
          "internalType": "uint256",
          "name": "characterTokenId",
          "type": "uint256"
        }
      ],
      "name": "joinBattle",
      "outputs": [],
      "stateMutability": "nonpayable",
      "type": "function"
    },
    {
      "inputs": [],
      "name": "leagueRewards",
      "outputs": [
        {
          "internalType": "uint256",
          "name": "",
          "type": "uint256"
        }
      ],
      "stateMutability": "view",
      "type": "function"
    },
    {
      "inputs": [],
      "name": "owner",
      "outputs": [
        {
          "internalType": "address",
          "name": "",
          "type": "address"
        }
      ],
      "stateMutability": "view",
      "type": "function"
    },
    {
      "inputs": [
        {
          "internalType": "address",
          "name": "",
          "type": "address"
        }
      ],
      "name": "playerCredit",
      "outputs": [
        {
          "internalType": "uint256",
          "name": "",
          "type": "uint256"
        }
      ],
      "stateMutability": "view",
      "type": "function"
    },
    {
      "inputs": [
        {
          "internalType": "address",
          "name": "",
          "type": "address"
        }
      ],
      "name": "playerOngoingBattle",
      "outputs": [
        {
          "internalType": "uint256",
          "name": "",
          "type": "uint256"
        }
      ],
      "stateMutability": "view",
      "type": "function"
    },
    {
      "inputs": [
        {
          "internalType": "uint256",
          "name": "_battleId",
          "type": "uint256"
        }
      ],
      "name": "quitBattle",
      "outputs": [],
      "stateMutability": "nonpayable",
      "type": "function"
    },
    {
      "inputs": [
        {
          "internalType": "address",
          "name": "_newOwner",
          "type": "address"
        }
      ],
      "name": "setOwner",
      "outputs": [],
      "stateMutability": "nonpayable",
      "type": "function"
    },
    {
      "inputs": [],
      "name": "staminaCost",
      "outputs": [
        {
          "internalType": "uint256",
          "name": "",
          "type": "uint256"
        }
      ],
      "stateMutability": "view",
      "type": "function"
    },
    {
      "inputs": [
        {
          "internalType": "uint256",
          "name": "_tokenId1",
          "type": "uint256"
        },
        {
          "internalType": "uint256",
          "name": "_tokenId2",
          "type": "uint256"
        }
      ],
      "name": "storeStamina",
      "outputs": [],
      "stateMutability": "nonpayable",
      "type": "function"
    },
    {
      "inputs": [
        {
          "internalType": "uint256",
          "name": "battleId",
          "type": "uint256"
        },
        {
          "internalType": "enum Battle.Move",
          "name": "move",
          "type": "uint8"
        },
        {
          "internalType": "uint256",
          "name": "skillId",
          "type": "uint256"
        }
      ],
      "name": "submitMove",
      "outputs": [],
      "stateMutability": "nonpayable",
      "type": "function"
    },
    {
      "inputs": [
        {
          "internalType": "uint256",
          "name": "newCost",
          "type": "uint256"
        }
      ],
      "name": "updateStaminaCost",
      "outputs": [],
      "stateMutability": "nonpayable",
      "type": "function"
    },
    {
      "stateMutability": "payable",
      "type": "receive"
    }
  ],
  "bytecode": "0x6080346200009b57601f62004fb738819003918201601f19168301916001600160401b03831184841017620000a05780849260409485528339810103126200009b576200005a60206200005283620000b6565b9201620000b6565b6019600455600c80546001600160a01b039384166001600160a01b031991821617909155600d8054929093169116179055604051614eeb9081620000cc8239f35b600080fd5b634e487b7160e01b600052604160045260246000fd5b51906001600160a01b03821682036200009b5756fe60806040526004361015610018575b361561001657005b005b60003560e01c8063068a1e4914610234578063086d35c21461022b5780630ba5a8e61461022257806313af403514610219578063239752ab1461021057806332ccca0e1461020757806333056109146101fe5780634188de5a146101f55780634c4c447e146101ec578063606d2e96146101e35780636bc8e4a9146101da5780636ca7f95c146101d15780636dd0ce7a146101c85780636efe60c1146101bf5780638bdb3b2f146101b65780638da5cb5b146101ad5780638e4c1999146101a457806396033b761461019b578063a10d80de14610192578063a9b9be3f14610189578063aa9a2e8614610180578063ba7b559614610177578063c7f42c641461016e578063d054fe0014610165578063daf241aa1461015c578063dc55da6f146101535763e44dba4f0361000e5761014e611517565b61000e565b5061014e611407565b5061014e61127c565b5061014e611238565b5061014e611163565b5061014e6110eb565b5061014e6110c4565b5061014e6110a5565b5061014e610fdb565b5061014e610f9d565b5061014e610e93565b5061014e610e69565b5061014e610df2565b5061014e610d30565b5061014e610c65565b5061014e610aee565b5061014e6109e7565b5061014e610961565b5061014e6105ca565b5061014e61053d565b5061014e6104ca565b5061014e61044b565b5061014e6103d7565b5061014e6102fe565b5061014e61028b565b5061014e61026c565b5061014e61024d565b600091031261024857565b600080fd5b5034610248576000366003190112610248576020600654604051908152f35b5034610248576000366003190112610248576020600354604051908152f35b5034610248576020366003190112610248576000546001600160a01b031633036102b757600480359055005b60405162461bcd60e51b815260206004820152600e60248201526d139bdd08185d5d1a1bdc9a5e995960921b6044820152606490fd5b6001600160a01b0381160361024857565b503461024857602036600319011261024857600060043561031e816102ed565b81546001600160a01b039182166001600160a01b0319821681178455604051929091167f8292fce18fa69edf4db7b94ea2e58241df0ae57f97e0a6c9b29067028bf92d768484a3f35b50634e487b7160e01b600052603260045260246000fd5b6006548110156103a4575b6006600052600080516020614e968339815191520190600090565b6103ac610367565b610389565b80548210156103ca575b60005260206000200190600090565b6103d2610367565b6103bb565b503461024857602036600319011261024857600435600654811015610248576020906006600052600080516020614e968339815191520154604051908152f35b90815180825260208080930193019160005b828110610437575050505090565b835185529381019392810192600101610429565b503461024857600036600319011261024857604051806006548082528260208093016006600052600080516020614e968339815191529260005b858282106104b45750505061049c92500383610888565b6104b0604051928284938452830190610417565b0390f35b8554845260019586019588955093019201610485565b50346102485760208060031936011261024857604080516104ea81610852565b3690376004356000526005815260026105088160406000200161435c565b6040519290600090845b84831061051e57604086f35b81516001600160a01b0316815260019290920191908301908301610512565b503461024857604036600319011261024857602060026105c0602435610562816102ed565b604051600435858201908152606083901b6001600160601b03191660208201529061059a81603484015b03601f198101835282610888565b5190206000526009845260406000209060018060a01b0316600052602052604060002090565b0154604051908152f35b5034610248576020366003190112610248576000600435610647600a6105fa836000526005602052604060002090565b600281015461061c906001600160a01b03166001600160a01b0316331461232e565b0161063a61062b825460ff1690565b61063481610937565b15612389565b805460ff19166002179055565b33600090815260086020526040902082905561066d816000526007602052604060002090565b546106c9610691610687610682600654611bc2565b61037e565b90549060031b1c90565b6106b98161069e8561037e565b90919082549060031b600019811b9283911b16911916179055565b6000526007602052604060002090565b556106d26123d5565b816106e7826000526007602052604060002090565b556040519033907fb91ae85405a99ffc07c694757cfbb7a52994c3b4daf39d040a6d56b1429ed7c78484a3f35b90600182811c92168015610744575b602083101461072e57565b634e487b7160e01b600052602260045260246000fd5b91607f1691610723565b906000929180549161075f83610714565b9182825260019384811690816000146107c15750600114610781575b50505050565b90919394506000526020928360002092846000945b8386106107ad57505050500101903880808061077b565b805485870183015294019385908201610796565b9294505050602093945060ff191683830152151560051b0101903880808061077b565b50634e487b7160e01b600052604160045260246000fd5b61016081019081106001600160401b0382111761081757604052565b61081f6107e4565b604052565b6001600160401b03811161081757604052565b60a081019081106001600160401b0382111761081757604052565b604081019081106001600160401b0382111761081757604052565b606081019081106001600160401b0382111761081757604052565b90601f801991011681019081106001600160401b0382111761081757604052565b906108c46108bd926040519384809261074e565b0383610888565b565b918091926000905b8282106108e65750116108df575050565b6000910152565b915080602091830151818601520182916108ce565b90602091610914815180928185528580860191016108c6565b601f01601f1916010190565b50634e487b7160e01b600052602160045260246000fd5b6003111561094157565b6108c4610920565b9060038210156109565752565b61095e610920565b52565b503461024857602036600319011261024857600435600052600560205260406000208054600a604051926109a38461099c816001850161074e565b0385610888565b01546109c160405193849384526080602085015260808401906108fb565b906109d26040840160ff8316610949565b60081c6001600160a01b031660608301520390f35b503461024857606036600319011261024857600435602435906004821015610248576000818152600560205260409020600201546100169290610a37906001600160a01b0316614cfa565b614cfa565b610a75610a32610a606002610a56866000526005602052604060002090565b0160010190600090565b905460039190911b1c6001600160a01b031690565b610ad8610a9f6002610a91856000526005602052604060002090565b01546001600160a01b031690565b610abb610a606002610a56876000526005602052604060002090565b336001600160a01b039283161491908215610ae1575b505061251b565b604435916127e6565b9091501633143880610ad1565b5034610248576000366003190112610248576020600254604051908152f35b6000915b60028310610b1e57505050565b81516001600160a01b031681526001929092019160209182019101610b11565b6000915b60028310610b4f57505050565b600190825181526020809101920192019190610b42565b6000915b60028310610b7757505050565b6001908251151581526020809101920192019190610b6a565b610c62906020815282516020820152610220610140610bc0602086015161024060408601526102608501906108fb565b94610bd360408201516060860190610b0d565b610be5606082015160a0860190610b3e565b610bf7608082015160e0860190610b3e565b610c5860a0820151610c0f6101209182880190610b3e565b610c2260c0840151610160880190610949565b60e08301516001600160a01b0316610180870152610c4a6101008401516101a0880190610b3e565b8201516101e0860190610b3e565b0151910190610b66565b90565b503461024857602036600319011261024857604051610c83816107fb565b6000815260606020820152604051610c9a81610852565b60403682376040820152610cac614b36565b6060820152610cb9614b36565b6080820152610cc6614b36565b60a0820152600060c0820152600060e0820152610ce1614b36565b610100820152610cef614b36565b610120820152610140610d00614b36565b9101526104b0610d24610d1f6004356000526005602052604060002090565b6143ef565b60405191829182610b90565b503461024857602036600319011261024857600435610d4e816102ed565b60018060a01b031660005260086020526020604060002054604051908152f35b6040519061010082018281106001600160401b0382111761081757604052565b604051906108c4826107fb565b6040519061016082018281106001600160401b0382111761081757604052565b604051906108c482610852565b6020906001600160401b038111610de5575b601f01601f19160190565b610ded6107e4565b610dda565b5034610248576040366003190112610248576004356001600160401b0381116102485736602382011215610248578060040135610e2e81610dc8565b90610e3c6040519283610888565b80825236602482850101116102485760208160009260246100169601838601378301015260243590611c2f565b5034610248576000366003190112610248576000546040516001600160a01b039091168152602090f35b503461024857604036600319011261024857600c54610ec2906001600160a01b03165b6001600160a01b031690565b803b1561024857604051631a3bcbcf60e11b808252600480359083015260009290919083908290602490829084905af18015610f90575b610f7d575b50600c548290610f16906001600160a01b0316610eb6565b91823b15610f79576040519283918252818381610f3d602435600483019190602083019252565b03925af18015610f6c575b610f53575b50604051f35b80610f60610f6692610824565b8061023d565b38610f4d565b610f74611765565b610f48565b5080fd5b80610f60610f8a92610824565b38610efe565b610f98611765565b610ef9565b503461024857602036600319011261024857600435610fbb816102ed565b60018060a01b0316600052600b6020526020604060002054604051908152f35b50346102485760203660031901126102485760043560018060a01b039061101d826110156002610a91856000526005602052604060002090565b16151561431c565b6040611036610d1f836000526005602052604060002090565b0191611051835182815116331490811561108c575b506144b4565b82515116338103611081575061107b61106e610016935160200190565b516001600160a01b031690565b90614528565b906100169250614528565b6020015133915083166001600160a01b0316143861104b565b5034610248576000366003190112610248576020600a54604051908152f35b50346102485760203660031901126102485760206110e360043561352c565b604051908152f35b503461024857602036600319011261024857604080805161110b81610852565b36903760043560005260056020528060002060078251918383018381106001600160401b03821117611156575b8452600681015483520154602082015261115482518092610b3e565bf35b61115e6107e4565b611138565b50346102485760008060031936011261122057600154604051633fabe5a360e21b81529060a090829060049082906001600160a01b03165afa91821561122b575b80926111cf575b6104b06111bf6111ba85614c3e565b6134cd565b6040519081529081906020820190565b90915060a0823d8211611223575b816111ea60a09383610888565b8101031261122057506111bf6111ba826112066104b094614c27565b50611218608060208301519201614c27565b5092506111ab565b80fd5b3d91506111dd565b611233611765565b6111a4565b5034610248576000366003190112610248576020600454604051908152f35b909161126e610c6293604084526040840190610417565b916020818403910152610417565b5034610248576040366003190112610248576112f560243561129d816102ed565b6040805160043560208201908152606084901b6001600160601b031916928201929092526112ce816054810161058c565b519020600052600960205260406000209060018060a01b0316600052602052604060002090565b6008810190815461130581614bf5565b9161130f82614bf5565b93600960009201915b83811061132e57604051806104b0888883611257565b8061135e61134261068761136f94866103b1565b8061134d848a612765565b528590600052602052604060002090565b546113698289612765565b52611c13565b611318565b906020908183528161014060e061012086019380518488015260018060a01b03848201511660408801526040810151606088015260608101516080880152608081015160a088015260a081015160c088015260c0810151828801520151946101008082015285518094520193019160005b8281106113f3575050505090565b8351855293810193928101926001016113e5565b5034610248576040366003190112610248576104b061149360243561142b816102ed565b611433614b99565b5061147c60405160208101906114698161058c8660043586909160349282526001600160601b03199060601b1660208201520190565b5190206000526009602052604060002090565b9060018060a01b0316600052602052604060002090565b80546001820154909161150691600791906001600160a01b0316600282015460038301546004840154906005850154926114e76006870154956114d4610d6e565b9a8b526001600160a01b031660208b0152565b60408901526060880152608087015260a086015260c085015201614b4a565b60e082015260405191829182611374565b503461024857604036600319011261024857600c546024359060043590611546906001600160a01b0316610eb6565b6040516331a9108f60e11b81526004810184905290602090829060249082905afa908115611743575b600091611715575b506001600160a01b039061158e9082163314611772565b3360009081526008602052604090206115a9905b54156117be565b6115bd826000526005602052604060002090565b92611630600a85016115e26115d3825460ff1690565b6115dc81610937565b15612467565b6002860193611600906115f9600389016000610a60565b16156124b3565b61160f8360058801600061069e565b6001840180546001600160a01b03191633179055805460ff19166001179055565b33600090815260086020526040902083905561164d833383611f7c565b600c54611662906001600160a01b0316610eb6565b90600454823b156102485760405163739420a560e01b8152600481019290925260248201527fa72410bb9591bbefc185513ffe3391dab998fd386517820464188cc105719bcf926116f0926116de92610eb692916000908290604490829084905af18015611708575b6116f5575b50546001600160a01b031690565b926040519182916001339701836124ff565b0390a3005b80610f6061170292610824565b386116d0565b611710611765565b6116cb565b611736915060203d811161173c575b61172e8183610888565b810190611750565b38611577565b503d611724565b61174b611765565b61156f565b908160209103126102485751610c62816102ed565b506040513d6000823e3d90fd5b1561177957565b60405162461bcd60e51b815260206004820152601e60248201527f4e6f7420746865206f776e6572206f66207468652063686172616374657200006044820152606490fd5b156117c557565b60405162461bcd60e51b815260206004820152602e60248201527f506c6179657220616c72656164792070617274696369706174696e6720696e2060448201526d616e6f7468657220626174746c6560901b6064820152608490fd5b60038210156109565752565b90601f811161183b57505050565b600091825260208220906020601f850160051c83019410611877575b601f0160051c01915b82811061186c57505050565b818155600101611860565b9092508290611857565b91909182516001600160401b038111611950575b6118a9816118a38454610714565b8461182d565b602080601f83116001146118e55750819293946000926118da575b50508160011b916000199060031b1c1916179055565b0151905038806118c4565b90601f198316956118fb85600052602060002090565b926000905b8882106119385750508360019596971061191f575b505050811b019055565b015160001960f88460031b161c19169055388080611915565b80600185968294968601518155019501930190611900565b6119586107e4565b611895565b50634e487b7160e01b600052601160045260246000fd5b606490806000190482118115151661198a570290565b61199261195d565b0290565b806000190482118115151661198a570290565b906000905b600282106119bb57505050565b805183546001600160a01b0319166001600160a01b039190911617835560019283019291909101906020016119ae565b906000905b600282106119fd57505050565b60016020828293518655019301910190916119f0565b906003811015611a2c575b60ff80198354169116179055565b611a34610920565b611a1e565b60009081925b60028410611a4d5750505050565b8060209151151583548560031b60ff811b9283911b169119161783550192600180930192601f8411611a84575b5060010192611a3f565b60009350909101906001611a7a565b600f6101406108c49380518455611ab1602082015160018601611881565b611ac26040820151600286016119a9565b611ad36060820151600486016119eb565b611ae46080820151600686016119eb565b611af560a0820151600886016119eb565b611b43600a8501611b1360c0840151611b0d81610937565b82611a13565b60e08301516001600160a01b03168154610100600160a81b03191660089190911b610100600160a81b0316179055565b611b55610100820151600b86016119eb565b611b67610120820151600d86016119eb565b01519101611a39565b600654600160401b811015611bb5575b6001810180600655811015611ba8575b6006600052600080516020614e968339815191520155565b611bb0610367565b611b90565b611bbd6107e4565b611b80565b60018110611bd2575b6000190190565b611bda61195d565b611bcb565b60038110611bef575b6002190190565b611bf761195d565b611be8565b818110611c07570390565b611c0f61195d565b0390565b6001906000198114611c23570190565b611c2b61195d565b0190565b600c54909190611d8b90611c4b906001600160a01b0316610eb6565b6040516331a9108f60e11b815260048101849052602091611c9391908390829060249082905afa908115611eb1575b600091611e94575b506001600160a01b03163314611772565b336000908152600860205260409020611cab906115a2565b600a5493611cb7610dbb565b338152600083820152611cc8610dbb565b858152600084820152611cd9610dbb565b60008152600085820152611ceb610dbb565b9060008252600086830152611cfe610dbb565b9260008452600087850152611d11610dbb565b9460008652600088870152611d24610dbb565b9660008852600089890152611d37610d8e565b988c8a5289015260408801526060870152608086015260a0850152600060c0850152600060e0850152610100840152610120830152610140820152611d86846000526005602052604060002090565b611a93565b611d9482611b70565b611d9f600654611bc2565b611db3836000526007602052604060002090565b55336000908152600860205260409020829055611dd1823383611f7c565b600c54611de6906001600160a01b0316610eb6565b91600454833b156102485760405163739420a560e01b81526004810184905260248101919091527fcd51df591e2f9319b98d783b63c675c8ab2e63d44101da9e5a12af2b1fcab479936000908290604490829084905af18015611e87575b611e74575b5060408051918252336020830152810191909152606090a16108c4611e6f600a54611c13565b600a55565b80610f60611e8192610824565b38611e49565b611e8f611765565b611e44565b611eab9150833d851161173c5761172e8183610888565b38611c82565b611eb9611765565b611c7a565b90816020910312610248575190565b60405190611eda8261086d565b602282526132b960f11b6040837f4368617261637465722070726f7879206372656174656420666f7220706c617960208201520152565b60405190611f1e82610852565b60078252662432b0b63a341d60c91b6020830152565b60405190611f4182610852565b600582526426b0b7309d60d91b6020830152565b60010190600090565b6002821015611f6f575b0190600090565b611f77610367565b611f68565b916040805191611fb88461147c602095868101906114698161058c868986909160349282526001600160601b03199060601b1660208201520190565b8581556001810180546001600160a01b0319166001600160a01b03871617905592600c54611fee906001600160a01b0316610eb6565b938351966316442a7f60e11b885282886004978180612014868c83019190602083019252565b03915afa978815612321575b6000986122f0575b506121c793928261211d9260026121b79501978b89556120768483612057610eb6600c5460018060a01b031690565b84516319ddc96160e21b8152808f019283529384928391829160200190565b03915afa9081156122e3575b6000916122c6575b506003840155600c546120cc90859084906120ad906001600160a01b0316610eb6565b84516323ce9af360e11b8152808f019283529384928391829160200190565b03915afa9081156122b9575b60009161229c575b50838b0155600c54849083906120fe906001600160a01b0316610eb6565b8351633a274a5560e11b8152808e019283529788928391829160200190565b03915afa94851561228f575b600095612268575b50612173918491600585019b878d55612154610eb6600c5460018060a01b031690565b9151631bd2a47760e01b81529081019283529384928391829160200190565b03915afa92831561225b575b600093612227575b50506006015561219e87612199611ecd565b614db4565b6121af886121aa611f11565b614d2d565b6121aa611f34565b6000526005602052604060002090565b60028101549093906121e1906001600160a01b0316610eb6565b6001600160a01b039091160361220257600d92935054600b84015554910155565b506108c49261069e91600d9161221b90600c8601600086565b54920160010190600090565b6006929350908161224c92903d10612254575b6122448183610888565b810190611ebe565b919038612187565b503d61223a565b612263611765565b61217f565b849195509161228661217393833d8511612254576122448183610888565b95915091612131565b612297611765565b612129565b6122b39150853d8711612254576122448183610888565b386120e0565b6122c1611765565b6120d8565b6122dd9150853d8711612254576122448183610888565b3861208a565b6122eb611765565b612082565b61211d919850926121b7926123156121c79695833d8511612254576122448183610888565b99925092509293612028565b612329611765565b612020565b1561233557565b60405162461bcd60e51b815260206004820152602660248201527f4f6e6c79207468652063726561746f722063616e2063616e63656c2074686520604482015265626174746c6560d01b6064820152608490fd5b1561239057565b60405162461bcd60e51b815260206004820152601e60248201527f43616e6e6f742063616e63656c2061207374617274656420626174746c6500006044820152606490fd5b60065480156124275760007ff652222313e28459528d920b65115c16c04f3efc82aaedc97be59f3f377c0d3e81198301928084101561241a575b600683520155600655565b612422610367565b61240f565b634e487b7160e01b600052603160045260246000fd5b8054908115612427576000199182019161245783836103b1565b909182549160031b1b1916905555565b1561246e57565b60405162461bcd60e51b815260206004820152601a60248201527f426174746c652068617320616c726561647920737461727465640000000000006044820152606490fd5b156124ba57565b60405162461bcd60e51b815260206004820152601e60248201527f426174746c6520616c7265616479206861732074776f20706c617965727300006044820152606490fd5b92919061251660209160408652604086019061074e565b930152565b1561252257565b60405162461bcd60e51b815260206004820152602860248201527f4f6e6c79207061727469636970616e74732063616e2063616c6c207468697320604482015267333ab731ba34b7b760c11b6064820152608490fd5b1561257f57565b60405162461bcd60e51b815260206004820152602b60248201527f426174746c6520686173206e6f742073746172746564206f722068617320616c60448201526a1c9958591e48195b99195960aa1b6064820152608490fd5b6004111561094157565b156125e957565b60405162461bcd60e51b815260206004820152603e60248201527f496e76616c6964206d6f76653a206d7573742062652041545441434b2c20444560448201527f46454e442c205553455f534b494c4c2c206f7220444f5f4e4f5448494e4700006064820152608490fd5b601f90929192600284101561266e575b8360051c01921690565b612676610367565b612664565b1561268257565b606460405162461bcd60e51b815260206004820152602060248201527f4d6f766520616c7265616479207375626d697474656420627920706c617965726044820152fd5b6020906001600160401b0381116126df575b60051b0190565b6126e76107e4565b6126d8565b6020908181840312610248578051906001600160401b03821161024857019180601f84011215610248578251612721816126c6565b9361272f6040519586610888565b818552838086019260051b820101928311610248578301905b828210612756575050505090565b81518152908301908301612748565b602091815181101561277a575b60051b010190565b612782610367565b612772565b1561278e57565b60405162461bcd60e51b815260206004820152601f60248201527f5375626d697474656420736b696c6c206973206e6f74206571756970706564006044820152606490fd5b9190602083019260048210156109565752565b90916127fc826000526005602052604060002090565b9261280b600a85015460ff1690565b9161281583610937565b6128226001809414612578565b61282b826125d8565b81158015612ab6575b8015612aa3575b8015612a90575b61284b906125e2565b6002850154612862906001600160a01b0316610eb6565b3303612a885760ff60005b1690600f86019361289d6128986128946128878689612654565b905460ff9160031b1c1690565b1590565b61267b565b6128a6846125d8565b60028414908161298e575b506128bb846125d8565b6128cc8461069e8560068b01611f5e565b6128f36128d98487612654565b60019082549060031b60ff811b9283911b16911916179055565b6128fc846125d8565b612977575b5050827fdf31d6d9480a495c0b6667daa4c8f92d5420a9b58cc52f19657329ba9aa8143a604051806129343395826127d3565b0390a35460ff81169081612969575b5061294c575050565b60088201546108c492612963906009016000610687565b91612e1a565b60ff915060081c1638612943565b61069e6129879260088801611f5e565b3880612901565b969594939291906129df60006129ae610eb6600c5460018060a01b031690565b6129be6106878760048d01611f5e565b90604051808095819463806227f560e01b8352600483019190602083019252565b03915afa908115612a7b575b600091612a5a575b50600090818a5b612a18575b5050612a12919293949596979850612787565b386128b1565b8151811015612a555784612a2c8284612765565b5114612a445790612a3d8b92611c13565b90916129fa565b5097988998509050612a12386129ff565b6129ff565b612a75913d8091833e612a6d8183610888565b8101906126ec565b386129f3565b612a83611765565b6129eb565b60ff8361286d565b50612a9a826125d8565b60038214612842565b50612aad826125d8565b6002821461283b565b50612ac0826125d8565b828214612834565b60405190612ad582610852565b600682526570726f78794160d01b6020830152565b60405190612af782610852565b6006825265383937bc3ca160d11b6020830152565b60405190612b1982610852565b602082527f506c617965722031206973207374756e6e65642c206d6973732061207475726e6020830152565b60405190612b5282610852565b602082527f506c617965722032206973207374756e6e65642c206d6973732061207475726e6020830152565b60405190612b8b8261086d565b60278252666e6f7468696e6760c81b6040837f506c61796572203120646566656e64732c20706c61796572203220646f65732060208201520152565b6003906003198111611c23570190565b6103e881198111611c23570190565b81198111611c23570190565b60405190612bff8261086d565b602782526661747461636b7360c81b6040837f506c61796572203120646f6573206e6f7468696e672c20706c6179657220322060208201520152565b60405190612c488261086d565b60278252666e6f7468696e6760c81b6040837f506c6179657220312061747461636b732c20706c61796572203220646f65732060208201520152565b60405190612c918261086d565b6022825261647360f01b6040837f506c6179657220322061747461636b732c20706c61796572203120646566656e60208201520152565b60405190612cd58261086d565b6022825261647360f01b6040837f506c6179657220312061747461636b732c20706c61796572203220646566656e60208201520152565b60405190612d1982610852565b6013825272109bdd1a081c1b185e595c9cc8191959995b99606a1b6020830152565b60405190612d4882610852565b6013825272426f746820706c61796572732061747461636b60681b6020830152565b60405190612d7782610852565b60118252700283630bcb2b91018902432b0b63a341d1607d1b6020830152565b60405190612da482610852565b60118252700283630bcb2b91019102432b0b63a341d1607d1b6020830152565b60405190612dd182610852565b600f82526e0283630bcb2b910189026b0b7309d1608d1b6020830152565b60405190612dfc82610852565b600f82526e0283630bcb2b910191026b0b7309d1608d1b6020830152565b9091612f0b612e33836000526005602052604060002090565b936002808601938482613033610687612f2f612ef860018060a01b0386541661147c8d612ed8612ee4604051612eaf610a606020830183612e8e8a8984909160349282526001600160601b03199060601b1660208201520190565b0393612ea2601f1995868101835282610888565b5190209d60010190600090565b604080516020810196875260609290921b6001600160601b031916908201529283906054820190565b03908101835282610888565b519020976000526009602052604060002090565b9889956000526009602052604060002090565b612f1960018c016000610a60565b60018060a01b0316600052602052604060002090565b96612f3985613d7d565b612f49612f44612ac8565b614cb1565b612f5288613d7d565b612f5d612f44612aea565b600b85015460ff1661348d575b8b612f79600b8a015460ff1690565b613474575b60060190815480159081809261345f575b15613176575050612fa1612f44612d3b565b612fae600387015461352c565b612fbb60038b015461352c565b90868b019081549060009181811160001461316e57612fda9250611bfc565b905b55868601805490916000918181111561316657612ff99250611bfc565b905b556005860161300a8154611bdf565b90556005890161301a8154611bdf565b90555b888583541460001461315b57611f559187613814565b03613154576130429184613814565b83546001600160a01b0316926130ff6005838301946130f5828754957fe85058f4893f92696bd72945da4fc8a26957c32630cd7492babba8aa5b7446fc61308f610a608d60010190600090565b9885019a8d6130d08d54809c8c60405195869586919095949360809360a0840197845260018060a01b03809316602085015260408401521660608201520152565b0390a16130df876121aa612d6a565b6130eb886121aa612d97565b01546121aa612dc4565b01546121aa612def565b1590811561314b575b5015613139575490546108c49450101561312b57546001600160a01b031661107b565b61107b906001016000610a60565b50505050600f01805461ffff19169055565b90501538613108565b5050613042565b505060010190600090565b505090612ffb565b505090612fdc565b60018114918280613449575b156131ba57505050613195612f44612d0c565b600586016131a38154612bc7565b9055600589016131b38154612bc7565b905561301d565b8080613433575b15613235575050506131d4612f44612cc8565b6131e1600387015461352c565b60048a01548181106131fe575b5050600586016131a38154611bdf565b61320791611bfc565b898601805490916000918181111561322d576132239250611bfc565b905b5538806131ee565b505090613225565b828061341e575b156132c05750505061324f612f44612c84565b61325c60038a015461352c565b6004870154818110613289575b5050600586016132798154612bc7565b9055600589016131b38154611bdf565b61329291611bfc565b86860180549091600091818111156132b8576132ae9250611bfc565b905b553880613269565b5050906132b0565b80613407575b1561331a5750506132d8612f44612c3b565b6132e5600387015461352c565b8986018054909160009181811115613312576133019250611bfc565b905b55600586016131b38154611bdf565b505090613303565b6003149081806133f2575b1561337c575050613337612f44612bf2565b61334460038a015461352c565b8686018054909160009181811115613374576132799250611bfc565b55600589016131b38154611bdf565b61301d565b505090613360565b806133db575b156133a15750613393612f44612b7e565b600586016131b38154612bc7565b806133c5575b1561336f576133b7612f44612b7e565b600589016131b38154612bc7565b5060016133d58382016000610687565b146133a7565b5060036133ec600185016000610687565b14613382565b50613401600185016000610687565b15613325565b506003613418600186016000610687565b146132c6565b5061342d600186016000610687565b1561323c565b5060016134438682016000610687565b146131c1565b5060016134598682016000610687565b14613182565b5061346e600185016000610687565b15612f8f565b6003600790910155613487612f44612b45565b8b612f7e565b600360068d015561349f612f44612b0c565b612f6a565b604051906134b182610852565b600d82526c02234b1b2902937b63632b21d1609d1b6020830152565b80156134e7576e09a130b963a6c115c3c7f4000000000490565b634e487b7160e01b600052601260045260246000fd5b6040519061350a82610852565b6013825272021b0b631bab630ba32b2102230b6b0b3b29d1606d1b6020830152565b6135c96135d1916135c36135be6001601460405160208101904482524260408201523360601b606082015260548152608081018181106001600160401b038211176135ea575b60405251902006811981116135dd575b017f0c720560a539b13f97fb22b6c1ac4393045cedca3bb997fd2ea1f7a3dfb76a586020604051838152a16135b9816121aa6134a4565b611974565b612bd7565b90611996565b6103e8900490565b610c62816121aa6134fd565b6135e561195d565b613582565b6135f26107e4565b613572565b81601f8201121561024857805161360d81610dc8565b9261361b6040519485610888565b8184526020828401011161024857610c6291602080850191016108c6565b906020828203126102485781516001600160401b0392838211610248570160a081830312610248576040519261366e84610837565b8151845260208201519081116102485760809261368c9183016135f7565b602084015260408101516040840152606081015160608401520151608082015290565b5190811515820361024857565b6020818303126102485780516001600160401b039182821161024857019061016082840312610248576136ed610d9b565b92825184526020830151918211610248576137099183016135f7565b602083015261371a604082016136af565b6040830152606081015160608301526080810151608083015260a081015160a083015260c081015160c083015260e081015160e0830152610100808201519083015261012080820151908301526137756101408092016136af565b9082015290565b604051906137898261086d565b602b82526a379037b83837b732b73a1d60a91b6040837f4e656761746976652073746174757320656666656374206170706c696564207460208201520152565b604051906137d68261086d565b60298252683790383630bcb2b91d60b91b6040837f506f7369746976652073746174757320656666656374206170706c696564207460208201520152565b600d5490926139269260059260609261385e91613839906001600160a01b0316610eb6565b926040518094635ec407d760e11b825281806000968795600483019190602083019252565b03915afa9283156139ae575b829361398a575b5061387f604084015161352c565b6002820180549091808211156139815761389891611bfc565b905b55600d546138b0906001600160a01b0316610eb6565b608084018051604051631187bd5160e01b815260048101919091529092918490829060249082905afa938415613974575b809461394f575b505060408301511561392a575061391a9161390b6020925186830151908a6139bb565b01516139156137c9565b614d70565b01519201918254611bfc565b9055565b9161394061394a936020935187840151916139bb565b015161391561377c565b61391a565b61396c9294503d8091833e6139648183610888565b8101906136bc565b9138806138e8565b61397c611765565b6138e1565b5050829061389a565b6139a79193503d8084833e61399f8183610888565b810190613639565b9138613871565b6139b6611765565b61386a565b6009916139e48161069e60088501805490600160401b8210156139f3575b6001820181556103b1565b60005201602052604060002055565b6139fb6107e4565b6139d9565b60405190613a0d82610852565b6013825272020ba3a30b1b5903137b7b9ba32b210313c9d1606d1b6020830152565b60405190613a3c82610852565b60118252700283932bb34b7bab99020ba3a30b1b59d1607d1b6020830152565b60405190613a6982610852565b601082526f021bab93932b73a1020ba3a30b1b59d160851b6020830152565b60405190613a9582610852565b6013825272020ba3a30b1b5903932b23ab1b2b210313c9d1606d1b6020830152565b60405190613ac482610852565b601482527302232b332b739b2903137b7b9ba32b210313c9d160651b6020830152565b60405190613af482610852565b60138252720283932bb34b7bab9902232b332b739b2901d1606d1b6020830152565b60405190613b2382610852565b6012825271021bab93932b73a102232b332b739b2901d160751b6020830152565b60405190613b5182610852565b601482527302232b332b739b2903932b23ab1b2b210313c9d160651b6020830152565b60405190613b8182610852565b60128252710283932bb34b7bab9902232b332b739b29d160751b6020830152565b60405190613baf82610852565b6011825270021bab93932b73a102232b332b739b29d1607d1b6020830152565b60405190613bdc82610852565b601282527102432b0b63a34103432b0b632b210313c9d160751b6020830152565b60405190613c0a82610852565b601082526f021bab93932b73a102432b0b63a341d160851b6020830152565b60405190613c3682610852565b601382527202432b0b63a34103932b23ab1b2b210313c9d1606d1b6020830152565b60405190613c658261086d565b60218252606b60f81b6040837f41747461636b20426f6f737420456e6465642043757272656e7420417474616360208201520152565b60405190613ca88261086d565b6025825264747461636b60d81b6040837f41747461636b20526564756374696f6e20456e6465642043757272656e74204160208201520152565b60405190613cef8261086d565b60238252626e736560e81b6040837f446566656e736520426f6f737420456e6465642043757272656e74204465666560208201520152565b60405190613d348261086d565b6027825266446566656e736560c81b6040837f446566656e736520526564756374696f6e20456e6465642043757272656e742060208201520152565b8015611bd2576000190190565b60009081905b600881019283548110156141ac57613d9e61068782866103b1565b600d54613db3906001600160a01b0316610eb6565b604051631187bd5160e01b81526004808201849052909691600090889060249082905afa96871561419f575b600097614184575b506080870192835180614150575b5060a088019081518061410c575b5060c089018051806140c9575b5060e08a0192835180614086575b506101008b0180519081614059575b50506101408b015161403a575b97613e9c98610120829b9c018051908161400d575b5050613e888460098401613e6d828290600052602052604060002090565b613e778154611bc2565b905590600052602052604060002090565b5415613ea3575b5050505050505050611c13565b9190613d83565b613edd975180613fcf575b50518381613f90575b5050505180613f49575b50505180613f26575b5050805460018111613efe575b5061243d565b80613ef0575b3880808080808881613e8f565b613ef990613d70565b613ee3565b613f16610687613f10613f2093611bc2565b846103b1565b61069e85846103b1565b38613ed7565b613f37613f42928801918254612be6565b8091556121aa613d27565b3880613eca565b613f80613f76613f8993613f61878d01948554611bfc565b8455600a8c0190600052602052604060002090565b805460ff19169055565b546121aa613ce2565b3880613ec1565b613f76613fbe91600a85613fac6003613fc79801968754612be6565b86550190600052602052604060002090565b546121aa613c9b565b883883613eb7565b61400790613fe260038501918254611bfc565b8155613ffe613f7687600a870190600052602052604060002090565b546121aa613c58565b38613eae565b61401a61402392856142fd565b516121aa613c29565b61403360028301546121aa613bfd565b3880613e4f565b600083815260098a01602052604090205415613e3a5760019950613e3a565b61406661406f928c614265565b516121aa613bcf565b61407f60028a01546121aa613bfd565b3880613e2d565b61409190848b6142b0565b61409e84516121aa613b44565b6140c3858a01546140bb6140b3855183612be6565b6121aa613b74565b6121aa613ba2565b38613e1e565b6140d490838a614274565b6140e181516121aa613ab7565b614106848901546140fe6140f6845183611bfc565b6121aa613ae7565b6121aa613b16565b38613e10565b614117908289614202565b61412482516121aa613a88565b61414a600388015461414261413a855183612be6565b6121aa613a2f565b6121aa613a5c565b38613e03565b61415b9082886141c6565b61416884516121aa613a00565b61417e600387015461414261413a875183611bfc565b38613df5565b61419891973d8091833e6139648183610888565b9538613de7565b6141a7611765565b613ddf565b506108c49250600b019060ff801983541691151516179055565b90600052600a810160205260ff60406000205416156141e3575050565b6003613926916040600020600160ff1982541617905501918254612be6565b90600052600a810160205260ff604060002054161561421f575050565b6003906040600020600160ff1982541617905501908154600082821160001461425e5750818110614251575b03905b55565b61425961195d565b61424b565b9150509055565b60026139269101918254612be6565b90600052600a810160205260ff6040600020541615614291575050565b6004613926916040600020600160ff1982541617905501918254612be6565b90600052600a810160205260ff60406000205416156142cd575050565b6004906040600020600160ff1982541617905501908154600082821160001461425e575081811061425157039055565b600201908154600082821160001461425e575081811061425157039055565b1561432357565b60405162461bcd60e51b8152602060048201526011602482015270426174746c65206e6f7420666f756e642160781b6044820152606490fd5b60405191906000835b60028210614379575050506108c482610852565b82546001600160a01b031681526001928301929190910190602001614365565b60405191906000835b600282106143b6575050506108c482610852565b60016020819285548152019301910190916143a2565b9060ff60405192548181161515845260081c16151560208301526108c482610852565b906144ac600f6143fd610d8e565b938054855261440e600182016108a9565b602086015261441f6002820161435c565b604086015261443060048201614399565b606086015261444160068201614399565b608086015261445260088201614399565b60a0860152614482600a82015461446f60ff821660c08901611821565b60081c6001600160a01b031660e0870152565b61448e600b8201614399565b6101008601526144a0600d8201614399565b610120860152016143cc565b610140830152565b156144bb57565b60405162461bcd60e51b815260206004820152601b60248201527f596f7520617265206e6f7420696e207468697320626174746c652100000000006044820152606490fd5b6040519061450d82610852565b600c82526b022bc381033b0b4b732b21d160a51b6020830152565b61453c816000526005602052604060002090565b600a81018054610100600160a81b031916600885901b610100600160a81b03161781556145689061063a565b6145718261486d565b60028101546001600160a01b03169161458e600383016000610a60565b6001600160a01b038481166000818152600860205260408082208290558484168252812081905590968216959091868814919082156148665784925b1561485d5760ff845b16921697881460001461484f57600261467660ff855b16956145f787868b8b614923565b61147c88846146436040519761147c60208a018a61462f848884909160349282526001600160601b03199060601b1660208201520190565b039a611469601f199c8d8101835282610888565b0154956114696040519182612ed887602083019687909160349282526001600160601b03199060601b1660208201520190565b01549015908115614846575b506146c5575b5050507f0baf086d5a49a7d9df72185aa0488cadd724e398bb5e99c615ee24c699deba91916146c060019260405193849301836124ff565b0390a3565b600c546146da906001600160a01b0316610eb6565b9160048601926146ed6106878486611f5e565b90803b1561484257604051633502ac5360e11b8082526004820193909352606460248201529083908290604490829084905af18015614835575b614822575b50600c54614742906001600160a01b0316610eb6565b61474f6106878787611f5e565b91813b1561481e57956146c0956147e36147d661068760019b986147bf897f0baf086d5a49a7d9df72185aa0488cadd724e398bb5e99c615ee24c699deba919f9d99610687996147e89b6147f59d6040518096819582948352600483016020601e91939293604081019481520152565b03925af18015614811575b6147fe575b5084611f5e565b6147de614500565b614e02565b611f5e565b6147f0614500565b614e4b565b92829450614688565b80610f6061480b92610824565b386147cf565b614819611765565b6147ca565b8380fd5b80610f6061482f92610824565b3861472c565b61483d611765565b614727565b8280fd5b90501538614682565b600261467660ff60016145e9565b60ff60016145d3565b81926145ca565b61424e600091808352600760205260408320546148f360065460018110614916575b80861981011015614909575b600686527ff652222313e28459528d920b65115c16c04f3efc82aaedc97be59f3f377c0d3e810154908310156148fc575b600686528083600080516020614e9683398151915201556000526007602052604060002090565b556106b96123d5565b614904610367565b6148cc565b614911610367565b61489b565b61491e61195d565b61488f565b60028201546003830154600d8401805460408051602081018781526001600160601b0319606088901b1692820192909252603481529299989795601f19956001600160a01b03958616958695929493911691614980605482610888565b519020614997906000526009602052604060002090565b6001600160a01b03909116600090815260209190915260409020600501546149be91611bfc565b60019990990154604080516020810193845260609490941b6001600160601b0319169084015260549485018352939091906149f99082610888565b519020614a10906000526009602052604060002090565b6001600160a01b0390911660009081526020919091526040902060050154614a3791611bfc565b600c549092600401916001600160a01b0390911690614a569083611f5e565b905460039190911b1c95813b15610248576040516322ea803f60e11b80825260048201989098526024810191909152600094614ac692610687929087908290604490829084905af18015614b29575b614b16575b50600c54614ac0906001600160a01b0316610eb6565b93611f5e565b813b1561481e57604051958652600486015260248501919091529192918290604490829084905af18015614b09575b614afc5750565b80610f606108c492610824565b614b11611765565b614af5565b80610f60614b2392610824565b38614aaa565b614b31611765565b614aa5565b60405190614b4382610852565b6040368337565b9060405191828154918282526020928383019160005283600020936000905b828210614b7f575050506108c492500383610888565b855484526001958601958895509381019390910190614b69565b6040519061010082018281106001600160401b03821117614be8575b604052606060e083600080825280602083015280604083015280848301528060808301528060a083015260c08201520152565b614bf06107e4565b614bb5565b90614bff826126c6565b614c0c6040519182610888565b8281528092614c1d601f19916126c6565b0190602036910137565b519069ffffffffffffffffffff8216820361024857565b6402540be4009060017b36f9bfb3af7b756fad5cd10396a21346cbefc1bf33a44ab72e36108b8211600083131616614ca4575b60017fffffffffc906404c50848a9052a32efc695decb934103e40cc5bb548d1c9ef75821260008312161661198a570290565b614cac61195d565b614c71565b61058c614cdf6108c49260405192839163104c13eb60e21b60208401526020602484015260448301906108fb565b600080916020815191016a636f6e736f6c652e6c6f675afa50565b60405163161765e160e11b60208201526001600160a01b0390911660248083019190915281526108c490614cdf8161086d565b614cdf614d5c916108c493604051938492632d839cb360e21b60208501526040602485015260648401906108fb565b90604483015203601f198101835282610888565b614cdf614da29161058c6108c494604051948593634b5c427760e01b60208601526040602486015260648501906108fb565b838103602319016044850152906108fb565b614cdf614de3916108c49360405193849263319af33360e01b60208501526040602485015260648401906108fb565b6001600160a01b0391909116604483015203601f198101835282610888565b614cdf614e31916108c49360405193849263ca47c4eb60e01b60208501526060602485015260848401906108fb565b90604483015260648083015203601f198101835282610888565b614cdf614e7a916108c49360405193849263ca47c4eb60e01b60208501526060602485015260848401906108fb565b906044830152601e606483015203601f19810183528261088856fef652222313e28459528d920b65115c16c04f3efc82aaedc97be59f3f377c0d3fa264697066735822122065ad4426f6290faa9179cbb1079789131789d23bd96a7a39eb394084f3e8e97b64736f6c634300080f0033",
  "linkReferences": {},
  "deployedLinkReferences": {}
}