{
  "_format": "hh-sol-artifact-1",
  "contractName": "BattleSkills",
  "sourceName": "contracts/BattleSkills.sol",
  "abi": [
    {
      "inputs": [],
      "stateMutability": "nonpayable",
      "type": "constructor"
    },
    {
      "inputs": [
        {
          "internalType": "address",
          "name": "operator",
          "type": "address"
        }
      ],
      "name": "OperatorNotAllowed",
      "type": "error"
    },
    {
      "anonymous": false,
      "inputs": [
        {
          "indexed": true,
          "internalType": "address",
          "name": "_owner",
          "type": "address"
        },
        {
          "indexed": true,
          "internalType": "address",
          "name": "_operator",
          "type": "address"
        },
        {
          "indexed": false,
          "internalType": "bool",
          "name": "_approved",
          "type": "bool"
        }
      ],
      "name": "ApprovalForAll",
      "type": "event"
    },
    {
      "anonymous": false,
      "inputs": [
        {
          "indexed": false,
          "internalType": "string",
          "name": "prevURI",
          "type": "string"
        },
        {
          "indexed": false,
          "internalType": "string",
          "name": "newURI",
          "type": "string"
        }
      ],
      "name": "ContractURIUpdated",
      "type": "event"
    },
    {
      "anonymous": false,
      "inputs": [
        {
          "indexed": true,
          "internalType": "address",
          "name": "newRoyaltyRecipient",
          "type": "address"
        },
        {
          "indexed": false,
          "internalType": "uint256",
          "name": "newRoyaltyBps",
          "type": "uint256"
        }
      ],
      "name": "DefaultRoyalty",
      "type": "event"
    },
    {
      "anonymous": false,
      "inputs": [
        {
          "indexed": true,
          "internalType": "uint256",
          "name": "skillId",
          "type": "uint256"
        },
        {
          "indexed": false,
          "internalType": "string",
          "name": "name",
          "type": "string"
        },
        {
          "indexed": false,
          "internalType": "uint256",
          "name": "damage",
          "type": "uint256"
        },
        {
          "indexed": false,
          "internalType": "uint256",
          "name": "manaCost",
          "type": "uint256"
        },
        {
          "indexed": false,
          "internalType": "uint256",
          "name": "statusEffectId",
          "type": "uint256"
        }
      ],
      "name": "NewSkill",
      "type": "event"
    },
    {
      "anonymous": false,
      "inputs": [
        {
          "indexed": true,
          "internalType": "uint256",
          "name": "effectId",
          "type": "uint256"
        },
        {
          "indexed": false,
          "internalType": "string",
          "name": "name",
          "type": "string"
        },
        {
          "indexed": false,
          "internalType": "bool",
          "name": "isPositive",
          "type": "bool"
        },
        {
          "indexed": false,
          "internalType": "uint256",
          "name": "duration",
          "type": "uint256"
        },
        {
          "indexed": false,
          "internalType": "uint256",
          "name": "attackBoost",
          "type": "uint256"
        },
        {
          "indexed": false,
          "internalType": "uint256",
          "name": "attackReduction",
          "type": "uint256"
        },
        {
          "indexed": false,
          "internalType": "uint256",
          "name": "defenseBoost",
          "type": "uint256"
        },
        {
          "indexed": false,
          "internalType": "uint256",
          "name": "defenseReduction",
          "type": "uint256"
        },
        {
          "indexed": false,
          "internalType": "uint256",
          "name": "healPerTurn",
          "type": "uint256"
        },
        {
          "indexed": false,
          "internalType": "uint256",
          "name": "damagePerTurn",
          "type": "uint256"
        },
        {
          "indexed": false,
          "internalType": "bool",
          "name": "isStun",
          "type": "bool"
        }
      ],
      "name": "NewStatusEffect",
      "type": "event"
    },
    {
      "anonymous": false,
      "inputs": [
        {
          "indexed": false,
          "internalType": "bool",
          "name": "restriction",
          "type": "bool"
        }
      ],
      "name": "OperatorRestriction",
      "type": "event"
    },
    {
      "anonymous": false,
      "inputs": [
        {
          "indexed": true,
          "internalType": "address",
          "name": "prevOwner",
          "type": "address"
        },
        {
          "indexed": true,
          "internalType": "address",
          "name": "newOwner",
          "type": "address"
        }
      ],
      "name": "OwnerUpdated",
      "type": "event"
    },
    {
      "anonymous": false,
      "inputs": [
        {
          "indexed": true,
          "internalType": "uint256",
          "name": "tokenId",
          "type": "uint256"
        },
        {
          "indexed": true,
          "internalType": "address",
          "name": "royaltyRecipient",
          "type": "address"
        },
        {
          "indexed": false,
          "internalType": "uint256",
          "name": "royaltyBps",
          "type": "uint256"
        }
      ],
      "name": "RoyaltyForToken",
      "type": "event"
    },
    {
      "anonymous": false,
      "inputs": [
        {
          "indexed": true,
          "internalType": "address",
          "name": "_operator",
          "type": "address"
        },
        {
          "indexed": true,
          "internalType": "address",
          "name": "_from",
          "type": "address"
        },
        {
          "indexed": true,
          "internalType": "address",
          "name": "_to",
          "type": "address"
        },
        {
          "indexed": false,
          "internalType": "uint256[]",
          "name": "_ids",
          "type": "uint256[]"
        },
        {
          "indexed": false,
          "internalType": "uint256[]",
          "name": "_values",
          "type": "uint256[]"
        }
      ],
      "name": "TransferBatch",
      "type": "event"
    },
    {
      "anonymous": false,
      "inputs": [
        {
          "indexed": true,
          "internalType": "address",
          "name": "_operator",
          "type": "address"
        },
        {
          "indexed": true,
          "internalType": "address",
          "name": "_from",
          "type": "address"
        },
        {
          "indexed": true,
          "internalType": "address",
          "name": "_to",
          "type": "address"
        },
        {
          "indexed": false,
          "internalType": "uint256",
          "name": "_id",
          "type": "uint256"
        },
        {
          "indexed": false,
          "internalType": "uint256",
          "name": "_value",
          "type": "uint256"
        }
      ],
      "name": "TransferSingle",
      "type": "event"
    },
    {
      "anonymous": false,
      "inputs": [
        {
          "indexed": false,
          "internalType": "string",
          "name": "_value",
          "type": "string"
        },
        {
          "indexed": true,
          "internalType": "uint256",
          "name": "_id",
          "type": "uint256"
        }
      ],
      "name": "URI",
      "type": "event"
    },
    {
      "inputs": [],
      "name": "OPERATOR_FILTER_REGISTRY",
      "outputs": [
        {
          "internalType": "contract IOperatorFilterRegistry",
          "name": "",
          "type": "address"
        }
      ],
      "stateMutability": "view",
      "type": "function"
    },
    {
      "inputs": [
        {
          "internalType": "address",
          "name": "",
          "type": "address"
        },
        {
          "internalType": "uint256",
          "name": "",
          "type": "uint256"
        }
      ],
      "name": "balanceOf",
      "outputs": [
        {
          "internalType": "uint256",
          "name": "",
          "type": "uint256"
        }
      ],
      "stateMutability": "view",
      "type": "function"
    },
    {
      "inputs": [
        {
          "internalType": "address[]",
          "name": "accounts",
          "type": "address[]"
        },
        {
          "internalType": "uint256[]",
          "name": "ids",
          "type": "uint256[]"
        }
      ],
      "name": "balanceOfBatch",
      "outputs": [
        {
          "internalType": "uint256[]",
          "name": "",
          "type": "uint256[]"
        }
      ],
      "stateMutability": "view",
      "type": "function"
    },
    {
      "inputs": [
        {
          "internalType": "address",
          "name": "_to",
          "type": "address"
        },
        {
          "internalType": "uint256[]",
          "name": "_tokenIds",
          "type": "uint256[]"
        },
        {
          "internalType": "uint256[]",
          "name": "_amounts",
          "type": "uint256[]"
        },
        {
          "internalType": "string",
          "name": "_baseURI",
          "type": "string"
        }
      ],
      "name": "batchMintTo",
      "outputs": [],
      "stateMutability": "nonpayable",
      "type": "function"
    },
    {
      "inputs": [
        {
          "internalType": "address",
          "name": "_owner",
          "type": "address"
        },
        {
          "internalType": "uint256",
          "name": "_tokenId",
          "type": "uint256"
        },
        {
          "internalType": "uint256",
          "name": "_amount",
          "type": "uint256"
        }
      ],
      "name": "burn",
      "outputs": [],
      "stateMutability": "nonpayable",
      "type": "function"
    },
    {
      "inputs": [
        {
          "internalType": "address",
          "name": "_owner",
          "type": "address"
        },
        {
          "internalType": "uint256[]",
          "name": "_tokenIds",
          "type": "uint256[]"
        },
        {
          "internalType": "uint256[]",
          "name": "_amounts",
          "type": "uint256[]"
        }
      ],
      "name": "burnBatch",
      "outputs": [],
      "stateMutability": "nonpayable",
      "type": "function"
    },
    {
      "inputs": [],
      "name": "contractURI",
      "outputs": [
        {
          "internalType": "string",
          "name": "",
          "type": "string"
        }
      ],
      "stateMutability": "view",
      "type": "function"
    },
    {
      "inputs": [
        {
          "internalType": "string",
          "name": "_name",
          "type": "string"
        },
        {
          "internalType": "uint256",
          "name": "_damage",
          "type": "uint256"
        },
        {
          "internalType": "uint256",
          "name": "_manaCost",
          "type": "uint256"
        },
        {
          "internalType": "uint256",
          "name": "_statusEffectId",
          "type": "uint256"
        },
        {
          "internalType": "string",
          "name": "_tokenURI",
          "type": "string"
        }
      ],
      "name": "createSkill",
      "outputs": [],
      "stateMutability": "nonpayable",
      "type": "function"
    },
    {
      "inputs": [
        {
          "internalType": "string",
          "name": "_name",
          "type": "string"
        },
        {
          "internalType": "uint256",
          "name": "_duration",
          "type": "uint256"
        },
        {
          "internalType": "bool",
          "name": "_isPositive",
          "type": "bool"
        },
        {
          "internalType": "uint256",
          "name": "_attackBoost",
          "type": "uint256"
        },
        {
          "internalType": "uint256",
          "name": "_attackReduction",
          "type": "uint256"
        },
        {
          "internalType": "uint256",
          "name": "_defenseBoost",
          "type": "uint256"
        },
        {
          "internalType": "uint256",
          "name": "_defenseReduction",
          "type": "uint256"
        },
        {
          "internalType": "uint256",
          "name": "_healPerTurn",
          "type": "uint256"
        },
        {
          "internalType": "uint256",
          "name": "_damagePerTurn",
          "type": "uint256"
        },
        {
          "internalType": "bool",
          "name": "_isStun",
          "type": "bool"
        }
      ],
      "name": "createStatusEffect",
      "outputs": [],
      "stateMutability": "nonpayable",
      "type": "function"
    },
    {
      "inputs": [],
      "name": "getBaseURICount",
      "outputs": [
        {
          "internalType": "uint256",
          "name": "",
          "type": "uint256"
        }
      ],
      "stateMutability": "view",
      "type": "function"
    },
    {
      "inputs": [
        {
          "internalType": "uint256",
          "name": "_index",
          "type": "uint256"
        }
      ],
      "name": "getBatchIdAtIndex",
      "outputs": [
        {
          "internalType": "uint256",
          "name": "",
          "type": "uint256"
        }
      ],
      "stateMutability": "view",
      "type": "function"
    },
    {
      "inputs": [],
      "name": "getDefaultRoyaltyInfo",
      "outputs": [
        {
          "internalType": "address",
          "name": "",
          "type": "address"
        },
        {
          "internalType": "uint16",
          "name": "",
          "type": "uint16"
        }
      ],
      "stateMutability": "view",
      "type": "function"
    },
    {
      "inputs": [
        {
          "internalType": "uint256",
          "name": "_enemyLevel",
          "type": "uint256"
        }
      ],
      "name": "getRandomSkill",
      "outputs": [
        {
          "internalType": "uint256",
          "name": "",
          "type": "uint256"
        }
      ],
      "stateMutability": "view",
      "type": "function"
    },
    {
      "inputs": [
        {
          "internalType": "uint256",
          "name": "_tokenId",
          "type": "uint256"
        }
      ],
      "name": "getRoyaltyInfoForToken",
      "outputs": [
        {
          "internalType": "address",
          "name": "",
          "type": "address"
        },
        {
          "internalType": "uint16",
          "name": "",
          "type": "uint16"
        }
      ],
      "stateMutability": "view",
      "type": "function"
    },
    {
      "inputs": [
        {
          "internalType": "uint256",
          "name": "_skillId",
          "type": "uint256"
        }
      ],
      "name": "getSkill",
      "outputs": [
        {
          "components": [
            {
              "internalType": "uint256",
              "name": "skillId",
              "type": "uint256"
            },
            {
              "internalType": "string",
              "name": "name",
              "type": "string"
            },
            {
              "internalType": "uint256",
              "name": "damage",
              "type": "uint256"
            },
            {
              "internalType": "uint256",
              "name": "manaCost",
              "type": "uint256"
            },
            {
              "internalType": "uint256",
              "name": "statusEffectId",
              "type": "uint256"
            }
          ],
          "internalType": "struct BattleSkills.Skill",
          "name": "",
          "type": "tuple"
        }
      ],
      "stateMutability": "view",
      "type": "function"
    },
    {
      "inputs": [
        {
          "internalType": "uint256",
          "name": "_effectId",
          "type": "uint256"
        }
      ],
      "name": "getStatusEffect",
      "outputs": [
        {
          "components": [
            {
              "internalType": "uint256",
              "name": "effectId",
              "type": "uint256"
            },
            {
              "internalType": "string",
              "name": "name",
              "type": "string"
            },
            {
              "internalType": "bool",
              "name": "isPositive",
              "type": "bool"
            },
            {
              "internalType": "uint256",
              "name": "duration",
              "type": "uint256"
            },
            {
              "internalType": "uint256",
              "name": "attackBoost",
              "type": "uint256"
            },
            {
              "internalType": "uint256",
              "name": "attackReduction",
              "type": "uint256"
            },
            {
              "internalType": "uint256",
              "name": "defenseBoost",
              "type": "uint256"
            },
            {
              "internalType": "uint256",
              "name": "defenseReduction",
              "type": "uint256"
            },
            {
              "internalType": "uint256",
              "name": "healPerTurn",
              "type": "uint256"
            },
            {
              "internalType": "uint256",
              "name": "damagePerTurn",
              "type": "uint256"
            },
            {
              "internalType": "bool",
              "name": "isStun",
              "type": "bool"
            }
          ],
          "internalType": "struct BattleSkills.StatusEffect",
          "name": "",
          "type": "tuple"
        }
      ],
      "stateMutability": "view",
      "type": "function"
    },
    {
      "inputs": [],
      "name": "initializeStatusEffects",
      "outputs": [],
      "stateMutability": "nonpayable",
      "type": "function"
    },
    {
      "inputs": [
        {
          "internalType": "address",
          "name": "",
          "type": "address"
        },
        {
          "internalType": "address",
          "name": "",
          "type": "address"
        }
      ],
      "name": "isApprovedForAll",
      "outputs": [
        {
          "internalType": "bool",
          "name": "",
          "type": "bool"
        }
      ],
      "stateMutability": "view",
      "type": "function"
    },
    {
      "inputs": [
        {
          "internalType": "uint256",
          "name": "_skillId",
          "type": "uint256"
        },
        {
          "internalType": "address",
          "name": "_caller",
          "type": "address"
        }
      ],
      "name": "mintSkill",
      "outputs": [],
      "stateMutability": "nonpayable",
      "type": "function"
    },
    {
      "inputs": [
        {
          "internalType": "address",
          "name": "_to",
          "type": "address"
        },
        {
          "internalType": "uint256",
          "name": "_tokenId",
          "type": "uint256"
        },
        {
          "internalType": "string",
          "name": "_tokenURI",
          "type": "string"
        },
        {
          "internalType": "uint256",
          "name": "_amount",
          "type": "uint256"
        }
      ],
      "name": "mintTo",
      "outputs": [],
      "stateMutability": "nonpayable",
      "type": "function"
    },
    {
      "inputs": [
        {
          "internalType": "bytes[]",
          "name": "data",
          "type": "bytes[]"
        }
      ],
      "name": "multicall",
      "outputs": [
        {
          "internalType": "bytes[]",
          "name": "results",
          "type": "bytes[]"
        }
      ],
      "stateMutability": "nonpayable",
      "type": "function"
    },
    {
      "inputs": [],
      "name": "name",
      "outputs": [
        {
          "internalType": "string",
          "name": "",
          "type": "string"
        }
      ],
      "stateMutability": "view",
      "type": "function"
    },
    {
      "inputs": [],
      "name": "nextTokenIdToMint",
      "outputs": [
        {
          "internalType": "uint256",
          "name": "",
          "type": "uint256"
        }
      ],
      "stateMutability": "view",
      "type": "function"
    },
    {
      "inputs": [],
      "name": "numSkills",
      "outputs": [
        {
          "internalType": "uint256",
          "name": "",
          "type": "uint256"
        }
      ],
      "stateMutability": "view",
      "type": "function"
    },
    {
      "inputs": [],
      "name": "numStatusEffects",
      "outputs": [
        {
          "internalType": "uint256",
          "name": "",
          "type": "uint256"
        }
      ],
      "stateMutability": "view",
      "type": "function"
    },
    {
      "inputs": [],
      "name": "operatorRestriction",
      "outputs": [
        {
          "internalType": "bool",
          "name": "",
          "type": "bool"
        }
      ],
      "stateMutability": "view",
      "type": "function"
    },
    {
      "inputs": [],
      "name": "owner",
      "outputs": [
        {
          "internalType": "address",
          "name": "",
          "type": "address"
        }
      ],
      "stateMutability": "view",
      "type": "function"
    },
    {
      "inputs": [
        {
          "internalType": "uint256",
          "name": "tokenId",
          "type": "uint256"
        },
        {
          "internalType": "uint256",
          "name": "salePrice",
          "type": "uint256"
        }
      ],
      "name": "royaltyInfo",
      "outputs": [
        {
          "internalType": "address",
          "name": "receiver",
          "type": "address"
        },
        {
          "internalType": "uint256",
          "name": "royaltyAmount",
          "type": "uint256"
        }
      ],
      "stateMutability": "view",
      "type": "function"
    },
    {
      "inputs": [
        {
          "internalType": "address",
          "name": "from",
          "type": "address"
        },
        {
          "internalType": "address",
          "name": "to",
          "type": "address"
        },
        {
          "internalType": "uint256[]",
          "name": "ids",
          "type": "uint256[]"
        },
        {
          "internalType": "uint256[]",
          "name": "amounts",
          "type": "uint256[]"
        },
        {
          "internalType": "bytes",
          "name": "data",
          "type": "bytes"
        }
      ],
      "name": "safeBatchTransferFrom",
      "outputs": [],
      "stateMutability": "nonpayable",
      "type": "function"
    },
    {
      "inputs": [
        {
          "internalType": "address",
          "name": "from",
          "type": "address"
        },
        {
          "internalType": "address",
          "name": "to",
          "type": "address"
        },
        {
          "internalType": "uint256",
          "name": "id",
          "type": "uint256"
        },
        {
          "internalType": "uint256",
          "name": "amount",
          "type": "uint256"
        },
        {
          "internalType": "bytes",
          "name": "data",
          "type": "bytes"
        }
      ],
      "name": "safeTransferFrom",
      "outputs": [],
      "stateMutability": "nonpayable",
      "type": "function"
    },
    {
      "inputs": [
        {
          "internalType": "address",
          "name": "operator",
          "type": "address"
        },
        {
          "internalType": "bool",
          "name": "approved",
          "type": "bool"
        }
      ],
      "name": "setApprovalForAll",
      "outputs": [],
      "stateMutability": "nonpayable",
      "type": "function"
    },
    {
      "inputs": [
        {
          "internalType": "string",
          "name": "_uri",
          "type": "string"
        }
      ],
      "name": "setContractURI",
      "outputs": [],
      "stateMutability": "nonpayable",
      "type": "function"
    },
    {
      "inputs": [
        {
          "internalType": "address",
          "name": "_royaltyRecipient",
          "type": "address"
        },
        {
          "internalType": "uint256",
          "name": "_royaltyBps",
          "type": "uint256"
        }
      ],
      "name": "setDefaultRoyaltyInfo",
      "outputs": [],
      "stateMutability": "nonpayable",
      "type": "function"
    },
    {
      "inputs": [
        {
          "internalType": "bool",
          "name": "_restriction",
          "type": "bool"
        }
      ],
      "name": "setOperatorRestriction",
      "outputs": [],
      "stateMutability": "nonpayable",
      "type": "function"
    },
    {
      "inputs": [
        {
          "internalType": "address",
          "name": "_newOwner",
          "type": "address"
        }
      ],
      "name": "setOwner",
      "outputs": [],
      "stateMutability": "nonpayable",
      "type": "function"
    },
    {
      "inputs": [
        {
          "internalType": "uint256",
          "name": "_tokenId",
          "type": "uint256"
        },
        {
          "internalType": "address",
          "name": "_recipient",
          "type": "address"
        },
        {
          "internalType": "uint256",
          "name": "_bps",
          "type": "uint256"
        }
      ],
      "name": "setRoyaltyInfoForToken",
      "outputs": [],
      "stateMutability": "nonpayable",
      "type": "function"
    },
    {
      "inputs": [
        {
          "internalType": "uint256",
          "name": "",
          "type": "uint256"
        }
      ],
      "name": "skills",
      "outputs": [
        {
          "internalType": "uint256",
          "name": "skillId",
          "type": "uint256"
        },
        {
          "internalType": "string",
          "name": "name",
          "type": "string"
        },
        {
          "internalType": "uint256",
          "name": "damage",
          "type": "uint256"
        },
        {
          "internalType": "uint256",
          "name": "manaCost",
          "type": "uint256"
        },
        {
          "internalType": "uint256",
          "name": "statusEffectId",
          "type": "uint256"
        }
      ],
      "stateMutability": "view",
      "type": "function"
    },
    {
      "inputs": [
        {
          "internalType": "uint256",
          "name": "",
          "type": "uint256"
        }
      ],
      "name": "statusEffects",
      "outputs": [
        {
          "internalType": "uint256",
          "name": "effectId",
          "type": "uint256"
        },
        {
          "internalType": "string",
          "name": "name",
          "type": "string"
        },
        {
          "internalType": "bool",
          "name": "isPositive",
          "type": "bool"
        },
        {
          "internalType": "uint256",
          "name": "duration",
          "type": "uint256"
        },
        {
          "internalType": "uint256",
          "name": "attackBoost",
          "type": "uint256"
        },
        {
          "internalType": "uint256",
          "name": "attackReduction",
          "type": "uint256"
        },
        {
          "internalType": "uint256",
          "name": "defenseBoost",
          "type": "uint256"
        },
        {
          "internalType": "uint256",
          "name": "defenseReduction",
          "type": "uint256"
        },
        {
          "internalType": "uint256",
          "name": "healPerTurn",
          "type": "uint256"
        },
        {
          "internalType": "uint256",
          "name": "damagePerTurn",
          "type": "uint256"
        },
        {
          "internalType": "bool",
          "name": "isStun",
          "type": "bool"
        }
      ],
      "stateMutability": "view",
      "type": "function"
    },
    {
      "inputs": [
        {
          "internalType": "bytes4",
          "name": "interfaceId",
          "type": "bytes4"
        }
      ],
      "name": "supportsInterface",
      "outputs": [
        {
          "internalType": "bool",
          "name": "",
          "type": "bool"
        }
      ],
      "stateMutability": "view",
      "type": "function"
    },
    {
      "inputs": [],
      "name": "symbol",
      "outputs": [
        {
          "internalType": "string",
          "name": "",
          "type": "string"
        }
      ],
      "stateMutability": "view",
      "type": "function"
    },
    {
      "inputs": [
        {
          "internalType": "uint256",
          "name": "",
          "type": "uint256"
        }
      ],
      "name": "totalSupply",
      "outputs": [
        {
          "internalType": "uint256",
          "name": "",
          "type": "uint256"
        }
      ],
      "stateMutability": "view",
      "type": "function"
    },
    {
      "inputs": [
        {
          "internalType": "uint256",
          "name": "_skillId",
          "type": "uint256"
        },
        {
          "internalType": "string",
          "name": "_name",
          "type": "string"
        },
        {
          "internalType": "uint256",
          "name": "_damage",
          "type": "uint256"
        },
        {
          "internalType": "uint256",
          "name": "_manaCost",
          "type": "uint256"
        },
        {
          "internalType": "uint256",
          "name": "_statusEffectId",
          "type": "uint256"
        }
      ],
      "name": "updateSkill",
      "outputs": [],
      "stateMutability": "nonpayable",
      "type": "function"
    },
    {
      "inputs": [
        {
          "internalType": "uint256",
          "name": "_tokenId",
          "type": "uint256"
        }
      ],
      "name": "uri",
      "outputs": [
        {
          "internalType": "string",
          "name": "",
          "type": "string"
        }
      ],
      "stateMutability": "view",
      "type": "function"
    }
  ],
  "bytecode": "0x60806040523480156200001157600080fd5b506040518060400160405280600c81526020016b426174746c65536b696c6c7360a01b81525060405180604001604052806002815260200161425360f01b815250600080733cc6cdda760b79bafa08df41ecfa224f810dceb66001858581600090816200007f91906200071a565b5060016200008e82826200071a565b5050506daaeb6d7670e522a718067333cd4e3b15620001d65780156200012457604051633e9f1edf60e11b81523060048201526001600160a01b03831660248201526daaeb6d7670e522a718067333cd4e90637d3e3dbe906044015b600060405180830381600087803b1580156200010557600080fd5b505af11580156200011a573d6000803e3d6000fd5b50505050620001d6565b6001600160a01b03821615620001755760405163a0af290360e01b81523060048201526001600160a01b03831660248201526daaeb6d7670e522a718067333cd4e9063a0af290390604401620000ea565b604051632210724360e11b81523060048201526daaeb6d7670e522a718067333cd4e90634420e48690602401600060405180830381600087803b158015620001bc57600080fd5b505af1158015620001d1573d6000803e3d6000fd5b505050505b50620001e49050336200021f565b620001f9826001600160801b03831662000271565b6200020560016200031c565b50505050620002196200036360201b60201c565b620008bc565b600680546001600160a01b038381166001600160a01b0319831681179093556040519116919082907f8292fce18fa69edf4db7b94ea2e58241df0ae57f97e0a6c9b29067028bf92d7690600090a35050565b612710811115620002ba5760405162461bcd60e51b815260206004820152600f60248201526e45786365656473206d61782062707360881b604482015260640160405180910390fd5b600780546001600160a01b0384166001600160b01b03199091168117600160a01b61ffff851602179091556040518281527f90d7ec04bcb8978719414f82e52e4cb651db41d0e6f8cea6118c2191e6183adb9060200160405180910390a25050565b600b805460ff19168215159081179091556040519081527f38475885990d8dfe9ca01f0ef160a1b5514426eab9ddbc953a3353410ba780969060200160405180910390a150565b60408051808201909152600481526329ba3ab760e11b602082015262000394906001600080808080808087620004ff565b60408051808201909152601081526f44616d616765204f7665722054696d6560801b6020820152620003d290600360008080808080600a81620004ff565b60408051808201909152600d81526c5265647563652041747461636b60981b60208201526200040d906003600080600a8180808080620004ff565b60408051808201909152600e81526d52656475636520446566656e736560901b6020820152620004499060036000808080600a818080620004ff565b60408051808201909152600c81526b426f6f73742041747461636b60a01b6020820152620004849060036001600a60008080808080620004ff565b60408051808201909152600e81526d4865616c204f7665722054696d6560901b6020820152620004c190600360016000808080600a8180620004ff565b60408051808201909152600d81526c111959995b9cd948109bdbdcdd609a1b6020820152620004fd9060036001600080600a81808080620004ff565b565b60405180610160016040528060115481526020018b815260200189151581526020018a8152602001888152602001878152602001868152602001858152602001848152602001838152602001821515815250600f600060115481526020019081526020016000206000820151816000015560208201518160010190816200058791906200071a565b5060408281015160028301805491151560ff19928316179055606084015160038401556080840151600484015560a0840151600584015560c0840151600684015560e084015160078401556101008401516008840155610120840151600984015561014090930151600a9092018054921515929093169190911790915560115490517fa95f17f8a83a39fb4fbe55bbcbbd383a2ede0cdc5fed0a4c07e7f691d7560a0e906200064a908d908c908e908d908d908d908d908d908d908d90620007e6565b60405180910390a260118054906000620006648362000894565b919050555050505050505050505050565b634e487b7160e01b600052604160045260246000fd5b600181811c90821680620006a057607f821691505b602082108103620006c157634e487b7160e01b600052602260045260246000fd5b50919050565b601f8211156200071557600081815260208120601f850160051c81016020861015620006f05750805b601f850160051c820191505b818110156200071157828155600101620006fc565b5050505b505050565b81516001600160401b0381111562000736576200073662000675565b6200074e816200074784546200068b565b84620006c7565b602080601f8311600181146200078657600084156200076d5750858301515b600019600386901b1c1916600185901b17855562000711565b600085815260208120601f198616915b82811015620007b75788860151825594840194600190910190840162000796565b5085821015620007d65787850151600019600388901b60f8161c191681555b5050505050600190811b01905550565b60006101408083528c518082850152600091505b808210156200081e576020828f0101516101608386010152602082019150620007fa565b6101609150600082828601015281601f19601f830116850101925050506200084a602083018c15159052565b8960408301528860608301528760808301528660a08301528560c08301528460e0830152836101008301526200088561012083018415159052565b9b9a5050505050505050505050565b600060018201620008b557634e487b7160e01b600052601160045260246000fd5b5060010190565b61431480620008cc6000396000f3fe608060405234801561001057600080fd5b50600436106102685760003560e01c80637bdaa4ef11610151578063b03f4528116100c3578063bfa0fedb11610087578063bfa0fedb146105db578063c7cd32c6146105ee578063e8a3d48514610618578063e985e9c514610620578063f242432a1461064e578063f5298aca1461066157600080fd5b8063b03f452814610557578063b24f2d391461056a578063bc4b896a14610588578063bd85b0391461059b578063bd880fae146105bb57600080fd5b8063949c09f711610115578063949c09f7146104ee57806395d89b41146105015780639746d1bb146105095780639bcf7a1514610511578063a22cb46514610524578063ac9650d81461053757600080fd5b80637bdaa4ef1461049b5780637cc2a91d146104a45780638da5cb5b146104b7578063910837e9146104c8578063938e3d7b146104db57600080fd5b806332f0cd64116101ea578063504c6e01116101ae578063504c6e011461043357806350d15fbe14610440578063600dd5ea1461046457806363b45e2d146104775780636b20c4541461047f5780636febc04d1461049257600080fd5b806332f0cd64146103965780633b1475a7146103a957806341f43434146103b15780634cc157df146103de5780634e1273f41461041357600080fd5b80631187bd51116102315780631187bd511461030b57806313af40351461032b5780632419f51b1461033e5780632a55205a146103515780632eb2c2d61461038357600080fd5b8062fdd58e1461026d57806301ffc9a7146102ab57806304314325146102ce57806306fdde03146102e35780630e89341c146102f8575b600080fd5b61029861027b3660046131fe565b600260209081526000928352604080842090915290825290205481565b6040519081526020015b60405180910390f35b6102be6102b936600461323e565b610674565b60405190151581526020016102a2565b6102e16102dc366004613310565b6106e1565b005b6102eb6107c1565b6040516102a291906133e0565b6102eb6103063660046133f3565b61084f565b61031e6103193660046133f3565b61093d565b6040516102a2919061340c565b6102e16103393660046134bc565b610ac8565b61029861034c3660046133f3565b610b01565b61036461035f3660046134d7565b610b6f565b604080516001600160a01b0390931683526020830191909152016102a2565b6102e161039136600461358d565b610bac565b6102e16103a436600461362a565b610bdb565b600c54610298565b6103c66daaeb6d7670e522a718067333cd4e81565b6040516001600160a01b0390911681526020016102a2565b6103f16103ec3660046133f3565b610c4c565b604080516001600160a01b03909316835261ffff9091166020830152016102a2565b610426610421366004613647565b610cb7565b6040516102a2919061374c565b600b546102be9060ff1681565b61045361044e3660046133f3565b610dcb565b6040516102a295949392919061375f565b6102e16104723660046131fe565b610e82565b600954610298565b6102e161048d366004613795565b610eb4565b61029860105481565b61029860115481565b6102986104b23660046133f3565b611056565b6006546001600160a01b03166103c6565b6102e16104d6366004613808565b61109e565b6102e16104e93660046138b1565b61120e565b6102e16104fc3660046138e5565b61123b565b6102eb611436565b6102e1611443565b6102e161051f36600461397d565b6115eb565b6102e16105323660046139b2565b61161f565b61054a6105453660046139e9565b611633565b6040516102a29190613a5d565b6102e1610565366004613abf565b611727565b6007546001600160a01b03811690600160a01b900461ffff166103f1565b6102e1610596366004613b1d565b611812565b6102986105a93660046133f3565b600d6020526000908152604090205481565b6105ce6105c93660046133f3565b61189d565b6040516102a29190613b7e565b6102e16105e9366004613bce565b6119ae565b6106016105fc3660046133f3565b611a68565b6040516102a29b9a99989796959493929190613bfa565b6102eb611b4d565b6102be61062e366004613c5e565b600360209081526000928352604080842090915290825290205460ff1681565b6102e161065c366004613c88565b611b5a565b6102e161066f366004613cec565b611b81565b60006301ffc9a760e01b6001600160e01b0319831614806106a55750636cdb3d1360e11b6001600160e01b03198316145b806106c057506303a24d0760e21b6001600160e01b03198316145b806106db57506001600160e01b0319821663152a902d60e11b145b92915050565b6000196106f13382846001611727565b6040805160a08101825260105480825260208083018a81528385018a905260608401899052608084018890526000928352600e90915292902081518155915190919060018201906107429082613d9f565b506040820151816002015560608201518160030155608082015181600401559050506010547f72fabe597213d9bdaf103eb2760f1ae3c64581d0accbef6f53ab3db9ce6912758787878760405161079c9493929190613e5e565b60405180910390a2601080549060006107b483613ea3565b9190505550505050505050565b600080546107ce90613d1f565b80601f01602080910402602001604051908101604052809291908181526020018280546107fa90613d1f565b80156108475780601f1061081c57610100808354040283529160200191610847565b820191906000526020600020905b81548152906001019060200180831161082a57829003601f168201915b505050505081565b60008181526004602052604081208054606092919061086d90613d1f565b80601f016020809104026020016040519081016040528092919081815260200182805461089990613d1f565b80156108e65780601f106108bb576101008083540402835291602001916108e6565b820191906000526020600020905b8154815290600101906020018083116108c957829003601f168201915b505050505090506000815111156108fd5792915050565b600061090884611c76565b90508061091485611e12565b604051602001610925929190613ebc565b60405160208183030381529060405292505050919050565b61099e6040518061016001604052806000815260200160608152602001600015158152602001600081526020016000815260200160008152602001600081526020016000815260200160008152602001600081526020016000151581525090565b600f600083815260200190815260200160002060405180610160016040529081600082015481526020016001820180546109d790613d1f565b80601f0160208091040260200160405190810160405280929190818152602001828054610a0390613d1f565b8015610a505780601f10610a2557610100808354040283529160200191610a50565b820191906000526020600020905b815481529060010190602001808311610a3357829003601f168201915b5050509183525050600282015460ff90811615156020830152600383015460408301526004830154606083015260058301546080830152600683015460a0830152600783015460c0830152600883015460e08301526009830154610100830152600a9092015490911615156101209091015292915050565b610ad0611f1a565b610af55760405162461bcd60e51b8152600401610aec90613eeb565b60405180910390fd5b610afe81611f47565b50565b6000610b0c60095490565b8210610b4a5760405162461bcd60e51b815260206004820152600d60248201526c092dcecc2d8d2c840d2dcc8caf609b1b6044820152606401610aec565b60098281548110610b5d57610b5d613f13565b90600052602060002001549050919050565b600080600080610b7e86610c4c565b90945084925061ffff169050612710610b978287613f29565b610ba19190613f56565b925050509250929050565b846001600160a01b0381163314610bc657610bc633611f99565b610bd3868686868661205d565b505050505050565b610be3611f1a565b610c435760405162461bcd60e51b815260206004820152602b60248201527f4e6f7420617574686f72697a656420746f20736574206f70657261746f72207260448201526a32b9ba3934b1ba34b7b71760a91b6064820152608401610aec565b610afe816120ec565b6000818152600860209081526040808320815180830190925280546001600160a01b031680835260019091015492820192909252829115610c935780516020820151610cad565b6007546001600160a01b03811690600160a01b900461ffff165b9250925050915091565b60608151835114610cda5760405162461bcd60e51b8152600401610aec90613f6a565b600083516001600160401b03811115610cf557610cf561325b565b604051908082528060200260200182016040528015610d1e578160200160208202803683370190505b50905060005b8451811015610dc35760026000868381518110610d4357610d43613f13565b60200260200101516001600160a01b03166001600160a01b031681526020019081526020016000206000858381518110610d7f57610d7f613f13565b6020026020010151815260200190815260200160002054828281518110610da857610da8613f13565b6020908102919091010152610dbc81613ea3565b9050610d24565b509392505050565b600e6020526000908152604090208054600182018054919291610ded90613d1f565b80601f0160208091040260200160405190810160405280929190818152602001828054610e1990613d1f565b8015610e665780601f10610e3b57610100808354040283529160200191610e66565b820191906000526020600020905b815481529060010190602001808311610e4957829003601f168201915b5050505050908060020154908060030154908060040154905085565b610e8a611f1a565b610ea65760405162461bcd60e51b8152600401610aec90613eeb565b610eb08282612133565b5050565b336001600160a01b038416811480610ef157506001600160a01b0380851660009081526003602090815260408083209385168352929052205460ff165b610f315760405162461bcd60e51b81526020600482015260116024820152702ab730b8383937bb32b21031b0b63632b960791b6044820152606401610aec565b8151835114610f745760405162461bcd60e51b815260206004820152600f60248201526e098cadccee8d040dad2e6dac2e8c6d608b1b6044820152606401610aec565b60005b835181101561104457828181518110610f9257610f92613f13565b602002602001015160026000876001600160a01b03166001600160a01b031681526020019081526020016000206000868481518110610fd357610fd3613f13565b602002602001015181526020019081526020016000205410156110325760405162461bcd60e51b8152602060048201526017602482015276139bdd08195b9bdd59da081d1bdad95b9cc81bdddb9959604a1b6044820152606401610aec565b61103d600182613f93565b9050610f77565b506110508484846121d9565b50505050565b60105460408051426020820152908101839052600091906060016040516020818303038152906040528051906020012060001c6110939190613fa6565b6106db906001613f93565b60405180610160016040528060115481526020018b815260200189151581526020018a8152602001888152602001878152602001868152602001858152602001848152602001838152602001821515815250600f600060115481526020019081526020016000206000820151816000015560208201518160010190816111249190613d9f565b5060408281015160028301805491151560ff19928316179055606084015160038401556080840151600484015560a0840151600584015560c0840151600684015560e084015160078401556101008401516008840155610120840151600984015561014090930151600a9092018054921515929093169190911790915560115490517fa95f17f8a83a39fb4fbe55bbcbbd383a2ede0cdc5fed0a4c07e7f691d7560a0e906111e5908d908c908e908d908d908d908d908d908d908d90613fba565b60405180910390a2601180549060006111fd83613ea3565b919050555050505050505050505050565b611216611f1a565b6112325760405162461bcd60e51b8152600401610aec90613eeb565b610afe8161238e565b611243611f1a565b6112895760405162461bcd60e51b81526020600482015260176024820152762737ba1030baba3437b934bd32b2103a379036b4b73a1760491b6044820152606401610aec565b60008251116112d15760405162461bcd60e51b815260206004820152601460248201527326b4b73a34b733903d32b937903a37b5b2b7399760611b6044820152606401610aec565b81518351146113155760405162461bcd60e51b815260206004820152601060248201526f2632b733ba341036b4b9b6b0ba31b41760811b6044820152606401610aec565b6000611320600c5490565b9050806000805b86518110156113f65760001987828151811061134557611345613f13565b60200260200101510361138f578387828151811061136557611365613f13565b602090810291909101015261137b600185613f93565b9350611388600183613f93565b91506113e4565b838782815181106113a2576113a2613f13565b6020026020010151106113e45760405162461bcd60e51b815260206004820152600a6024820152691a5b9d985b1a59081a5960b21b6044820152606401610aec565b6113ef600182613f93565b9050611327565b50801561140b5761140882828661246a565b50505b82600c8190555061142d878787604051806020016040528060008152506124ce565b50505050505050565b600180546107ce90613d1f565b6114776040518060400160405280600481526020016329ba3ab760e11b81525060016000806000806000806000600161109e565b6114b76040518060400160405280601081526020016f44616d616765204f7665722054696d6560801b8152506003600080600080600080600a600061109e565b6114f46040518060400160405280600d81526020016c5265647563652041747461636b60981b8152506003600080600a600080600080600061109e565b6115326040518060400160405280600e81526020016d52656475636520446566656e736560901b8152506003600080600080600a600080600061109e565b61156e6040518060400160405280600c81526020016b426f6f73742041747461636b60a01b81525060036001600a60008060008060008061109e565b6115ac6040518060400160405280600e81526020016d4865616c204f7665722054696d6560901b81525060036001600080600080600a60008061109e565b6115e96040518060400160405280600d81526020016c111959995b9cd948109bdbdcdd609a1b81525060036001600080600a60008060008061109e565b565b6115f3611f1a565b61160f5760405162461bcd60e51b8152600401610aec90613eeb565b61161a838383612629565b505050565b8161162981611f99565b61161a83836126f3565b6060816001600160401b0381111561164d5761164d61325b565b60405190808252806020026020018201604052801561168057816020015b606081526020019060019003908161166b5790505b50905060005b82811015611720576116f0308585848181106116a4576116a4613f13565b90506020028101906116b69190614016565b8080601f0160208091040260200160405190810160405280939291908181526020018383808284376000920191909152506127a292505050565b82828151811061170257611702613f13565b6020026020010181905250808061171890613ea3565b915050611686565b5092915050565b61172f611f1a565b6117755760405162461bcd60e51b81526020600482015260176024820152762737ba1030baba3437b934bd32b2103a379036b4b73a1760491b6044820152606401610aec565b600080611781600c5490565b905060001985036117b7578091506001600c60008282546117a29190613f93565b909155506117b2905081856127ce565b6117f7565b8085106117f35760405162461bcd60e51b815260206004820152600a6024820152691a5b9d985b1a59081a5960b21b6044820152606401610aec565b8491505b610bd3868385604051806020016040528060008152506127e6565b60105485111561185b5760405162461bcd60e51b815260206004820152601460248201527314dada5b1b08191bd95cc81b9bdd08195e1a5cdd60621b6044820152606401610aec565b6000858152600e602052604090206001016118768582613d9f565b506000948552600e6020526040909420600281019290925560038201556004019190915550565b6118cf6040518060a0016040528060008152602001606081526020016000815260200160008152602001600081525090565b600e60008381526020019081526020016000206040518060a00160405290816000820154815260200160018201805461190790613d1f565b80601f016020809104026020016040519081016040528092919081815260200182805461193390613d1f565b80156119805780601f1061195557610100808354040283529160200191611980565b820191906000526020600020905b81548152906001019060200180831161196357829003601f168201915b5050505050815260200160028201548152602001600382015481526020016004820154815250509050919050565b816000036119ff576000601054116119ff5760405162461bcd60e51b815260206004820152601460248201527314dada5b1b08191bd95cc81b9bdd08195e1a5e1d60621b6044820152606401610aec565b6010548210611a475760405162461bcd60e51b815260206004820152601460248201527314dada5b1b08191bd95cc81b9bdd08195e1a5cdd60621b6044820152606401610aec565b600082905061161a82826001604051806020016040528060008152506127e6565b600f6020526000908152604090208054600182018054919291611a8a90613d1f565b80601f0160208091040260200160405190810160405280929190818152602001828054611ab690613d1f565b8015611b035780601f10611ad857610100808354040283529160200191611b03565b820191906000526020600020905b815481529060010190602001808311611ae657829003601f168201915b50505060028401546003850154600486015460058701546006880154600789015460088a015460098b0154600a909b0154999a60ff9788169a96995094975092959194909391168b565b600580546107ce90613d1f565b846001600160a01b0381163314611b7457611b7433611f99565b610bd386868686866128bf565b336001600160a01b038416811480611bbe57506001600160a01b0380851660009081526003602090815260408083209385168352929052205460ff165b611bfe5760405162461bcd60e51b81526020600482015260116024820152702ab730b8383937bb32b21031b0b63632b960791b6044820152606401610aec565b6001600160a01b0384166000908152600260209081526040808320868452909152902054821115611c6b5760405162461bcd60e51b8152602060048201526017602482015276139bdd08195b9bdd59da081d1bdad95b9cc81bdddb9959604a1b6044820152606401610aec565b611050848484612947565b60606000611c8360095490565b905060006009805480602002602001604051908101604052809291908181526020018280548015611cd357602002820191906000526020600020905b815481526020019060010190808311611cbf575b5050505050905060005b82811015611dd757818181518110611cf757611cf7613f13565b6020026020010151851015611dc557600a6000838381518110611d1c57611d1c613f13565b602002602001015181526020019081526020016000208054611d3d90613d1f565b80601f0160208091040260200160405190810160405280929190818152602001828054611d6990613d1f565b8015611db65780601f10611d8b57610100808354040283529160200191611db6565b820191906000526020600020905b815481529060010190602001808311611d9957829003601f168201915b50505050509350505050919050565b611dd0600182613f93565b9050611cdd565b5060405162461bcd60e51b815260206004820152600f60248201526e125b9d985b1a59081d1bdad95b9259608a1b6044820152606401610aec565b606081600003611e395750506040805180820190915260018152600360fc1b602082015290565b8160005b8115611e635780611e4d81613ea3565b9150611e5c9050600a83613f56565b9150611e3d565b6000816001600160401b03811115611e7d57611e7d61325b565b6040519080825280601f01601f191660200182016040528015611ea7576020820181803683370190505b5090505b8415611f1257611ebc600183614063565b9150611ec9600a86613fa6565b611ed4906030613f93565b60f81b818381518110611ee957611ee9613f13565b60200101906001600160f81b031916908160001a905350611f0b600a86613f56565b9450611eab565b949350505050565b6000611f2e6006546001600160a01b031690565b6001600160a01b0316336001600160a01b031614905090565b600680546001600160a01b038381166001600160a01b0319831681179093556040519116919082907f8292fce18fa69edf4db7b94ea2e58241df0ae57f97e0a6c9b29067028bf92d7690600090a35050565b600b5460ff1615610afe576daaeb6d7670e522a718067333cd4e3b15610afe57604051633185c44d60e21b81523060048201526001600160a01b03821660248201526daaeb6d7670e522a718067333cd4e9063c617113490604401602060405180830381865afa158015612011573d6000803e3d6000fd5b505050506040513d601f19601f820116820180604052508101906120359190614076565b610afe57604051633b79c77360e21b81526001600160a01b0382166004820152602401610aec565b6001600160a01b03851633148061209757506001600160a01b038516600090815260036020908152604080832033845290915290205460ff165b6120d85760405162461bcd60e51b81526020600482015260126024820152710853d5d3915497d3d497d054141493d5915160721b6044820152606401610aec565b6120e58585858585612a6c565b5050505050565b600b805460ff19168215159081179091556040519081527f38475885990d8dfe9ca01f0ef160a1b5514426eab9ddbc953a3353410ba780969060200160405180910390a150565b6127108111156121775760405162461bcd60e51b815260206004820152600f60248201526e45786365656473206d61782062707360881b6044820152606401610aec565b600780546001600160a01b0384166001600160b01b03199091168117600160a01b61ffff851602179091556040518281527f90d7ec04bcb8978719414f82e52e4cb651db41d0e6f8cea6118c2191e6183adb9060200160405180910390a25050565b6001600160a01b0383166122205760405162461bcd60e51b815260206004820152600e60248201526d232927a6afad22a927afa0a2222960911b6044820152606401610aec565b80518251146122415760405162461bcd60e51b8152600401610aec90613f6a565b600033905061226481856000868660405180602001604052806000815250612c1f565b60005b835181101561232f57600084828151811061228457612284613f13565b6020026020010151905060008483815181106122a2576122a2613f13565b6020908102919091018101516001600160a01b03891660009081526002835260408082208683529093529190912054909150818110156122f45760405162461bcd60e51b8152600401610aec90614093565b6001600160a01b038816600090815260026020908152604080832095835294905292909220910390558061232781613ea3565b915050612267565b5060006001600160a01b0316846001600160a01b0316826001600160a01b03167f4a39dc06d4c0dbc64b70af90fd698a233a518aa5d07e595d983b8c0526c8f7fb86866040516123809291906140bd565b60405180910390a450505050565b60006005805461239d90613d1f565b80601f01602080910402602001604051908101604052809291908181526020018280546123c990613d1f565b80156124165780601f106123eb57610100808354040283529160200191612416565b820191906000526020600020905b8154815290600101906020018083116123f957829003601f168201915b50505050509050816005908161242c9190613d9f565b507fc9c7c3fe08b88b4df9d4d47ef47d2c43d55c025a0ba88ca442580ed9e7348a16818360405161245e9291906140eb565b60405180910390a15050565b6000806124778486613f93565b60098054600181019091557f6e1540171b6c0c960b71a7020d9f60077f6af931a8bbf590da0223dacf75c7af018190556000818152600a602052604090209092508291506124c58482613d9f565b50935093915050565b6001600160a01b0384166124f45760405162461bcd60e51b8152600401610aec90614110565b81518351146125155760405162461bcd60e51b8152600401610aec90613f6a565b3361252581600087878787612c1f565b60005b84518110156125c15783818151811061254357612543613f13565b602002602001015160026000886001600160a01b03166001600160a01b03168152602001908152602001600020600087848151811061258457612584613f13565b6020026020010151815260200190815260200160002060008282546125a99190613f93565b909155508190506125b981613ea3565b915050612528565b50846001600160a01b031660006001600160a01b0316826001600160a01b03167f4a39dc06d4c0dbc64b70af90fd698a233a518aa5d07e595d983b8c0526c8f7fb87876040516126129291906140bd565b60405180910390a46120e581600087878787612d2b565b61271081111561266d5760405162461bcd60e51b815260206004820152600f60248201526e45786365656473206d61782062707360881b6044820152606401610aec565b6040805180820182526001600160a01b038481168083526020808401868152600089815260088352869020945185546001600160a01b031916941693909317845591516001909301929092559151838152909185917f7365cf4122f072a3365c20d54eff9b38d73c096c28e1892ec8f5b0e403a0f12d91015b60405180910390a3505050565b336001600160a01b038316810361273d5760405162461bcd60e51b815260206004820152600e60248201526d20a8282927ab24a723afa9a2a62360911b6044820152606401610aec565b6001600160a01b03818116600081815260036020908152604080832094881680845294825291829020805460ff191687151590811790915591519182527f17307eab39ab6107e8899845ad3d59bd9653f200f220920489ca2b5937696c3191016126e6565b60606127c783836040518060600160405280602781526020016142b860279139612e7e565b9392505050565b600082815260046020526040902061161a8282613d9f565b6001600160a01b03841661280c5760405162461bcd60e51b8152600401610aec90614110565b3361282c8160008761281d88612f5b565b61282688612f5b565b87612c1f565b6001600160a01b03851660009081526002602090815260408083208784529091528120805485929061285f908490613f93565b909155505060408051858152602081018590526001600160a01b0380881692600092918516917fc3d58168c5ae7397731d063d5bbf3d657854427343f4c083240f7aacaa2d0f62910160405180910390a46120e581600087878787612fa6565b6001600160a01b0385163314806128f957506001600160a01b038516600090815260036020908152604080832033845290915290205460ff165b61293a5760405162461bcd60e51b81526020600482015260126024820152710853d5d3915497d3d497d054141493d5915160721b6044820152606401610aec565b6120e58585858585613083565b6001600160a01b03831661298e5760405162461bcd60e51b815260206004820152600e60248201526d232927a6afad22a927afa0a2222960911b6044820152606401610aec565b336129bd8185600061299f87612f5b565b6129a887612f5b565b60405180602001604052806000815250612c1f565b6001600160a01b038416600090815260026020908152604080832086845290915290205482811015612a015760405162461bcd60e51b8152600401610aec90614093565b6001600160a01b03858116600081815260026020908152604080832089845282528083208887039055805189815291820188905291938616917fc3d58168c5ae7397731d063d5bbf3d657854427343f4c083240f7aacaa2d0f62910160405180910390a45050505050565b8151835114612a8d5760405162461bcd60e51b8152600401610aec90613f6a565b6001600160a01b038416612ab35760405162461bcd60e51b8152600401610aec90614110565b33612ac2818787878787612c1f565b60005b8451811015612bb9576000858281518110612ae257612ae2613f13565b602002602001015190506000858381518110612b0057612b00613f13565b6020908102919091018101516001600160a01b038b166000908152600283526040808220868352909352919091205490915081811015612b525760405162461bcd60e51b8152600401610aec90614093565b6001600160a01b03808b16600090815260026020818152604080842088855282528084208787039055938d16835290815282822086835290529081208054849290612b9e908490613f93565b9250508190555050505080612bb290613ea3565b9050612ac5565b50846001600160a01b0316866001600160a01b0316826001600160a01b03167f4a39dc06d4c0dbc64b70af90fd698a233a518aa5d07e595d983b8c0526c8f7fb8787604051612c099291906140bd565b60405180910390a4610bd3818787878787612d2b565b6001600160a01b038516612ca65760005b8351811015612ca457828181518110612c4b57612c4b613f13565b6020026020010151600d6000868481518110612c6957612c69613f13565b602002602001015181526020019081526020016000206000828254612c8e9190613f93565b90915550612c9d905081613ea3565b9050612c30565b505b6001600160a01b038416610bd35760005b835181101561142d57828181518110612cd257612cd2613f13565b6020026020010151600d6000868481518110612cf057612cf0613f13565b602002602001015181526020019081526020016000206000828254612d159190614063565b90915550612d24905081613ea3565b9050612cb7565b6001600160a01b0384163b15610bd35760405163bc197c8160e01b81526001600160a01b0385169063bc197c8190612d6f9089908990889088908890600401614136565b6020604051808303816000875af1925050508015612daa575060408051601f3d908101601f19168201909252612da791810190614194565b60015b612e2c57612db66141b1565b806308c379a003612def5750612dca6141cd565b80612dd55750612df1565b8060405162461bcd60e51b8152600401610aec91906133e0565b505b60405162461bcd60e51b815260206004820152601060248201526f10a2a92198989a9aa922a1a2a4ab22a960811b6044820152606401610aec565b6001600160e01b0319811663bc197c8160e01b1461142d5760405162461bcd60e51b815260206004820152600f60248201526e1513d2d15394d7d491529150d51151608a1b6044820152606401610aec565b60606001600160a01b0384163b612ee65760405162461bcd60e51b815260206004820152602660248201527f416464726573733a2064656c65676174652063616c6c20746f206e6f6e2d636f6044820152651b9d1c9858dd60d21b6064820152608401610aec565b600080856001600160a01b031685604051612f019190614256565b600060405180830381855af49150503d8060008114612f3c576040519150601f19603f3d011682016040523d82523d6000602084013e612f41565b606091505b5091509150612f518282866131a9565b9695505050505050565b60408051600180825281830190925260609160009190602080830190803683370190505090508281600081518110612f9557612f95613f13565b602090810291909101015292915050565b6001600160a01b0384163b15610bd35760405163f23a6e6160e01b81526001600160a01b0385169063f23a6e6190612fea9089908990889088908890600401614272565b6020604051808303816000875af1925050508015613025575060408051601f3d908101601f1916820190925261302291810190614194565b60015b61303157612db66141b1565b6001600160e01b0319811663f23a6e6160e01b1461142d5760405162461bcd60e51b815260206004820152600f60248201526e1513d2d15394d7d491529150d51151608a1b6044820152606401610aec565b6001600160a01b0384166130a95760405162461bcd60e51b8152600401610aec90614110565b336130b981878761281d88612f5b565b6001600160a01b0386166000908152600260209081526040808320878452909152902054838110156130fd5760405162461bcd60e51b8152600401610aec90614093565b6001600160a01b0380881660009081526002602081815260408084208a855282528084208987039055938a16835290815282822088835290529081208054869290613149908490613f93565b909155505060408051868152602081018690526001600160a01b03808916928a821692918616917fc3d58168c5ae7397731d063d5bbf3d657854427343f4c083240f7aacaa2d0f62910160405180910390a461142d828888888888612fa6565b606083156131b85750816127c7565b8251156131c85782518084602001fd5b8160405162461bcd60e51b8152600401610aec91906133e0565b80356001600160a01b03811681146131f957600080fd5b919050565b6000806040838503121561321157600080fd5b61321a836131e2565b946020939093013593505050565b6001600160e01b031981168114610afe57600080fd5b60006020828403121561325057600080fd5b81356127c781613228565b634e487b7160e01b600052604160045260246000fd5b601f8201601f191681016001600160401b03811182821017156132965761329661325b565b6040525050565b600082601f8301126132ae57600080fd5b81356001600160401b038111156132c7576132c761325b565b6040516132de601f8301601f191660200182613271565b8181528460208386010111156132f357600080fd5b816020850160208301376000918101602001919091529392505050565b600080600080600060a0868803121561332857600080fd5b85356001600160401b038082111561333f57600080fd5b61334b89838a0161329d565b9650602088013595506040880135945060608801359350608088013591508082111561337657600080fd5b506133838882890161329d565b9150509295509295909350565b60005b838110156133ab578181015183820152602001613393565b50506000910152565b600081518084526133cc816020860160208601613390565b601f01601f19169290920160200192915050565b6020815260006127c760208301846133b4565b60006020828403121561340557600080fd5b5035919050565b6020815281516020820152600060208301516101608060408501526134356101808501836133b4565b9150604085015161344a606086018215159052565b5060608501516080850152608085015160a085015260a085015160c085015260c085015160e085015260e08501516101008181870152808701519150506101208181870152808701519150506101408181870152808701519150506134b28286018215159052565b5090949350505050565b6000602082840312156134ce57600080fd5b6127c7826131e2565b600080604083850312156134ea57600080fd5b50508035926020909101359150565b60006001600160401b038211156135125761351261325b565b5060051b60200190565b600082601f83011261352d57600080fd5b8135602061353a826134f9565b6040516135478282613271565b83815260059390931b850182019282810191508684111561356757600080fd5b8286015b84811015613582578035835291830191830161356b565b509695505050505050565b600080600080600060a086880312156135a557600080fd5b6135ae866131e2565b94506135bc602087016131e2565b935060408601356001600160401b03808211156135d857600080fd5b6135e489838a0161351c565b945060608801359150808211156135fa57600080fd5b61360689838a0161351c565b9350608088013591508082111561337657600080fd5b8015158114610afe57600080fd5b60006020828403121561363c57600080fd5b81356127c78161361c565b6000806040838503121561365a57600080fd5b82356001600160401b038082111561367157600080fd5b818501915085601f83011261368557600080fd5b81356020613692826134f9565b60405161369f8282613271565b83815260059390931b85018201928281019150898411156136bf57600080fd5b948201945b838610156136e4576136d5866131e2565b825294820194908201906136c4565b965050860135925050808211156136fa57600080fd5b506137078582860161351c565b9150509250929050565b600081518084526020808501945080840160005b8381101561374157815187529582019590820190600101613725565b509495945050505050565b6020815260006127c76020830184613711565b85815260a06020820152600061377860a08301876133b4565b604083019590955250606081019290925260809091015292915050565b6000806000606084860312156137aa57600080fd5b6137b3846131e2565b925060208401356001600160401b03808211156137cf57600080fd5b6137db8783880161351c565b935060408601359150808211156137f157600080fd5b506137fe8682870161351c565b9150509250925092565b6000806000806000806000806000806101408b8d03121561382857600080fd5b8a356001600160401b0381111561383e57600080fd5b61384a8d828e0161329d565b9a505060208b0135985060408b01356138628161361c565b975060608b0135965060808b0135955060a08b0135945060c08b0135935060e08b013592506101008b013591506101208b013561389e8161361c565b809150509295989b9194979a5092959850565b6000602082840312156138c357600080fd5b81356001600160401b038111156138d957600080fd5b611f128482850161329d565b600080600080608085870312156138fb57600080fd5b613904856131e2565b935060208501356001600160401b038082111561392057600080fd5b61392c8883890161351c565b9450604087013591508082111561394257600080fd5b61394e8883890161351c565b9350606087013591508082111561396457600080fd5b506139718782880161329d565b91505092959194509250565b60008060006060848603121561399257600080fd5b833592506139a2602085016131e2565b9150604084013590509250925092565b600080604083850312156139c557600080fd5b6139ce836131e2565b915060208301356139de8161361c565b809150509250929050565b600080602083850312156139fc57600080fd5b82356001600160401b0380821115613a1357600080fd5b818501915085601f830112613a2757600080fd5b813581811115613a3657600080fd5b8660208260051b8501011115613a4b57600080fd5b60209290920196919550909350505050565b6000602080830181845280855180835260408601915060408160051b870101925083870160005b82811015613ab257603f19888603018452613aa08583516133b4565b94509285019290850190600101613a84565b5092979650505050505050565b60008060008060808587031215613ad557600080fd5b613ade856131e2565b93506020850135925060408501356001600160401b03811115613b0057600080fd5b613b0c8782880161329d565b949793965093946060013593505050565b600080600080600060a08688031215613b3557600080fd5b8535945060208601356001600160401b03811115613b5257600080fd5b613b5e8882890161329d565b959895975050505060408401359360608101359360809091013592509050565b60208152815160208201526000602083015160a06040840152613ba460c08401826133b4565b90506040840151606084015260608401516080840152608084015160a08401528091505092915050565b60008060408385031215613be157600080fd5b82359150613bf1602084016131e2565b90509250929050565b60006101608d8352806020840152613c148184018e6133b4565b9b1515604084015250506060810198909852608088019690965260a087019490945260c086019290925260e085015261010084015261012083015215156101409091015292915050565b60008060408385031215613c7157600080fd5b613c7a836131e2565b9150613bf1602084016131e2565b600080600080600060a08688031215613ca057600080fd5b613ca9866131e2565b9450613cb7602087016131e2565b9350604086013592506060860135915060808601356001600160401b03811115613ce057600080fd5b6133838882890161329d565b600080600060608486031215613d0157600080fd5b613d0a846131e2565b95602085013595506040909401359392505050565b600181811c90821680613d3357607f821691505b602082108103613d5357634e487b7160e01b600052602260045260246000fd5b50919050565b601f82111561161a57600081815260208120601f850160051c81016020861015613d805750805b601f850160051c820191505b81811015610bd357828155600101613d8c565b81516001600160401b03811115613db857613db861325b565b613dcc81613dc68454613d1f565b84613d59565b602080601f831160018114613e015760008415613de95750858301515b600019600386901b1c1916600185901b178555610bd3565b600085815260208120601f198616915b82811015613e3057888601518255948401946001909101908401613e11565b5085821015613e4e5787850151600019600388901b60f8161c191681555b5050505050600190811b01905550565b608081526000613e7160808301876133b4565b6020830195909552506040810192909252606090910152919050565b634e487b7160e01b600052601160045260246000fd5b600060018201613eb557613eb5613e8d565b5060010190565b60008351613ece818460208801613390565b835190830190613ee2818360208801613390565b01949350505050565b6020808252600e908201526d139bdd08185d5d1a1bdc9a5e995960921b604082015260600190565b634e487b7160e01b600052603260045260246000fd5b80820281158282048414176106db576106db613e8d565b634e487b7160e01b600052601260045260246000fd5b600082613f6557613f65613f40565b500490565b6020808252600f908201526e0988a9c8ea890be9a92a69a82a8869608b1b604082015260600190565b808201808211156106db576106db613e8d565b600082613fb557613fb5613f40565b500690565b6000610140808352613fce8184018e6133b4565b9b15156020840152505060408101989098526060880196909652608087019490945260a086019290925260c085015260e0840152610100830152151561012090910152919050565b6000808335601e1984360301811261402d57600080fd5b8301803591506001600160401b0382111561404757600080fd5b60200191503681900382131561405c57600080fd5b9250929050565b818103818111156106db576106db613e8d565b60006020828403121561408857600080fd5b81516127c78161361c565b60208082526010908201526f125394d551919250d251539517d0905360821b604082015260600190565b6040815260006140d06040830185613711565b82810360208401526140e28185613711565b95945050505050565b6040815260006140fe60408301856133b4565b82810360208401526140e281856133b4565b6020808252600c908201526b2a27afad22a927afa0a2222960a11b604082015260600190565b6001600160a01b0386811682528516602082015260a06040820181905260009061416290830186613711565b82810360608401526141748186613711565b9050828103608084015261418881856133b4565b98975050505050505050565b6000602082840312156141a657600080fd5b81516127c781613228565b600060033d11156141ca5760046000803e5060005160e01c5b90565b600060443d10156141db5790565b6040516003193d81016004833e81513d6001600160401b03816024840111818411171561420a57505050505090565b82850191508151818111156142225750505050505090565b843d870101602082850101111561423c5750505050505090565b61424b60208286010187613271565b509095945050505050565b60008251614268818460208701613390565b9190910192915050565b6001600160a01b03868116825285166020820152604081018490526060810183905260a0608082018190526000906142ac908301846133b4565b97965050505050505056fe416464726573733a206c6f772d6c6576656c2064656c65676174652063616c6c206661696c6564a26469706673582212205f1c76d5caec4146756e85ee53fa44b1270b5bec6bd86a9437ad2d155101a58f64736f6c63430008110033",
  "linkReferences": {},
  "deployedLinkReferences": {}
}