{
  "_format": "hh-sol-artifact-1",
  "contractName": "BattleSkills",
  "sourceName": "contracts/BattleSkills.sol",
  "abi": [
    {
      "inputs": [],
      "stateMutability": "nonpayable",
      "type": "constructor"
    },
    {
      "inputs": [
        {
          "internalType": "address",
          "name": "operator",
          "type": "address"
        }
      ],
      "name": "OperatorNotAllowed",
      "type": "error"
    },
    {
      "anonymous": false,
      "inputs": [
        {
          "indexed": true,
          "internalType": "address",
          "name": "_owner",
          "type": "address"
        },
        {
          "indexed": true,
          "internalType": "address",
          "name": "_operator",
          "type": "address"
        },
        {
          "indexed": false,
          "internalType": "bool",
          "name": "_approved",
          "type": "bool"
        }
      ],
      "name": "ApprovalForAll",
      "type": "event"
    },
    {
      "anonymous": false,
      "inputs": [
        {
          "indexed": false,
          "internalType": "string",
          "name": "prevURI",
          "type": "string"
        },
        {
          "indexed": false,
          "internalType": "string",
          "name": "newURI",
          "type": "string"
        }
      ],
      "name": "ContractURIUpdated",
      "type": "event"
    },
    {
      "anonymous": false,
      "inputs": [
        {
          "indexed": true,
          "internalType": "address",
          "name": "newRoyaltyRecipient",
          "type": "address"
        },
        {
          "indexed": false,
          "internalType": "uint256",
          "name": "newRoyaltyBps",
          "type": "uint256"
        }
      ],
      "name": "DefaultRoyalty",
      "type": "event"
    },
    {
      "anonymous": false,
      "inputs": [
        {
          "indexed": false,
          "internalType": "bool",
          "name": "restriction",
          "type": "bool"
        }
      ],
      "name": "OperatorRestriction",
      "type": "event"
    },
    {
      "anonymous": false,
      "inputs": [
        {
          "indexed": true,
          "internalType": "address",
          "name": "prevOwner",
          "type": "address"
        },
        {
          "indexed": true,
          "internalType": "address",
          "name": "newOwner",
          "type": "address"
        }
      ],
      "name": "OwnerUpdated",
      "type": "event"
    },
    {
      "anonymous": false,
      "inputs": [
        {
          "indexed": true,
          "internalType": "uint256",
          "name": "tokenId",
          "type": "uint256"
        },
        {
          "indexed": true,
          "internalType": "address",
          "name": "royaltyRecipient",
          "type": "address"
        },
        {
          "indexed": false,
          "internalType": "uint256",
          "name": "royaltyBps",
          "type": "uint256"
        }
      ],
      "name": "RoyaltyForToken",
      "type": "event"
    },
    {
      "anonymous": false,
      "inputs": [
        {
          "indexed": true,
          "internalType": "address",
          "name": "_operator",
          "type": "address"
        },
        {
          "indexed": true,
          "internalType": "address",
          "name": "_from",
          "type": "address"
        },
        {
          "indexed": true,
          "internalType": "address",
          "name": "_to",
          "type": "address"
        },
        {
          "indexed": false,
          "internalType": "uint256[]",
          "name": "_ids",
          "type": "uint256[]"
        },
        {
          "indexed": false,
          "internalType": "uint256[]",
          "name": "_values",
          "type": "uint256[]"
        }
      ],
      "name": "TransferBatch",
      "type": "event"
    },
    {
      "anonymous": false,
      "inputs": [
        {
          "indexed": true,
          "internalType": "address",
          "name": "_operator",
          "type": "address"
        },
        {
          "indexed": true,
          "internalType": "address",
          "name": "_from",
          "type": "address"
        },
        {
          "indexed": true,
          "internalType": "address",
          "name": "_to",
          "type": "address"
        },
        {
          "indexed": false,
          "internalType": "uint256",
          "name": "_id",
          "type": "uint256"
        },
        {
          "indexed": false,
          "internalType": "uint256",
          "name": "_value",
          "type": "uint256"
        }
      ],
      "name": "TransferSingle",
      "type": "event"
    },
    {
      "anonymous": false,
      "inputs": [
        {
          "indexed": false,
          "internalType": "string",
          "name": "_value",
          "type": "string"
        },
        {
          "indexed": true,
          "internalType": "uint256",
          "name": "_id",
          "type": "uint256"
        }
      ],
      "name": "URI",
      "type": "event"
    },
    {
      "inputs": [],
      "name": "OPERATOR_FILTER_REGISTRY",
      "outputs": [
        {
          "internalType": "contract IOperatorFilterRegistry",
          "name": "",
          "type": "address"
        }
      ],
      "stateMutability": "view",
      "type": "function"
    },
    {
      "inputs": [
        {
          "internalType": "address",
          "name": "",
          "type": "address"
        },
        {
          "internalType": "uint256",
          "name": "",
          "type": "uint256"
        }
      ],
      "name": "balanceOf",
      "outputs": [
        {
          "internalType": "uint256",
          "name": "",
          "type": "uint256"
        }
      ],
      "stateMutability": "view",
      "type": "function"
    },
    {
      "inputs": [
        {
          "internalType": "address[]",
          "name": "accounts",
          "type": "address[]"
        },
        {
          "internalType": "uint256[]",
          "name": "ids",
          "type": "uint256[]"
        }
      ],
      "name": "balanceOfBatch",
      "outputs": [
        {
          "internalType": "uint256[]",
          "name": "",
          "type": "uint256[]"
        }
      ],
      "stateMutability": "view",
      "type": "function"
    },
    {
      "inputs": [
        {
          "internalType": "address",
          "name": "_to",
          "type": "address"
        },
        {
          "internalType": "uint256[]",
          "name": "_tokenIds",
          "type": "uint256[]"
        },
        {
          "internalType": "uint256[]",
          "name": "_amounts",
          "type": "uint256[]"
        },
        {
          "internalType": "string",
          "name": "_baseURI",
          "type": "string"
        }
      ],
      "name": "batchMintTo",
      "outputs": [],
      "stateMutability": "nonpayable",
      "type": "function"
    },
    {
      "inputs": [
        {
          "internalType": "address",
          "name": "_owner",
          "type": "address"
        },
        {
          "internalType": "uint256",
          "name": "_tokenId",
          "type": "uint256"
        },
        {
          "internalType": "uint256",
          "name": "_amount",
          "type": "uint256"
        }
      ],
      "name": "burn",
      "outputs": [],
      "stateMutability": "nonpayable",
      "type": "function"
    },
    {
      "inputs": [
        {
          "internalType": "address",
          "name": "_owner",
          "type": "address"
        },
        {
          "internalType": "uint256[]",
          "name": "_tokenIds",
          "type": "uint256[]"
        },
        {
          "internalType": "uint256[]",
          "name": "_amounts",
          "type": "uint256[]"
        }
      ],
      "name": "burnBatch",
      "outputs": [],
      "stateMutability": "nonpayable",
      "type": "function"
    },
    {
      "inputs": [],
      "name": "contractURI",
      "outputs": [
        {
          "internalType": "string",
          "name": "",
          "type": "string"
        }
      ],
      "stateMutability": "view",
      "type": "function"
    },
    {
      "inputs": [
        {
          "internalType": "string",
          "name": "_name",
          "type": "string"
        },
        {
          "internalType": "uint256",
          "name": "_damage",
          "type": "uint256"
        },
        {
          "internalType": "uint256",
          "name": "_manaCost",
          "type": "uint256"
        },
        {
          "internalType": "uint256",
          "name": "_statusEffectId",
          "type": "uint256"
        },
        {
          "internalType": "string",
          "name": "_tokenURI",
          "type": "string"
        }
      ],
      "name": "createSkill",
      "outputs": [],
      "stateMutability": "nonpayable",
      "type": "function"
    },
    {
      "inputs": [
        {
          "internalType": "string",
          "name": "_name",
          "type": "string"
        },
        {
          "internalType": "uint256",
          "name": "_duration",
          "type": "uint256"
        },
        {
          "internalType": "bool",
          "name": "_isPositive",
          "type": "bool"
        },
        {
          "internalType": "uint256",
          "name": "_attackBoost",
          "type": "uint256"
        },
        {
          "internalType": "uint256",
          "name": "_attackReduction",
          "type": "uint256"
        },
        {
          "internalType": "uint256",
          "name": "_defenseBoost",
          "type": "uint256"
        },
        {
          "internalType": "uint256",
          "name": "_defenseReduction",
          "type": "uint256"
        },
        {
          "internalType": "uint256",
          "name": "_healPerTurn",
          "type": "uint256"
        },
        {
          "internalType": "uint256",
          "name": "_damagePerTurn",
          "type": "uint256"
        },
        {
          "internalType": "bool",
          "name": "_isStun",
          "type": "bool"
        }
      ],
      "name": "createStatusEffect",
      "outputs": [],
      "stateMutability": "nonpayable",
      "type": "function"
    },
    {
      "inputs": [],
      "name": "getBaseURICount",
      "outputs": [
        {
          "internalType": "uint256",
          "name": "",
          "type": "uint256"
        }
      ],
      "stateMutability": "view",
      "type": "function"
    },
    {
      "inputs": [
        {
          "internalType": "uint256",
          "name": "_index",
          "type": "uint256"
        }
      ],
      "name": "getBatchIdAtIndex",
      "outputs": [
        {
          "internalType": "uint256",
          "name": "",
          "type": "uint256"
        }
      ],
      "stateMutability": "view",
      "type": "function"
    },
    {
      "inputs": [],
      "name": "getDefaultRoyaltyInfo",
      "outputs": [
        {
          "internalType": "address",
          "name": "",
          "type": "address"
        },
        {
          "internalType": "uint16",
          "name": "",
          "type": "uint16"
        }
      ],
      "stateMutability": "view",
      "type": "function"
    },
    {
      "inputs": [
        {
          "internalType": "uint256",
          "name": "_enemyLevel",
          "type": "uint256"
        }
      ],
      "name": "getRandomSkill",
      "outputs": [
        {
          "internalType": "uint256",
          "name": "",
          "type": "uint256"
        }
      ],
      "stateMutability": "view",
      "type": "function"
    },
    {
      "inputs": [
        {
          "internalType": "uint256",
          "name": "_tokenId",
          "type": "uint256"
        }
      ],
      "name": "getRoyaltyInfoForToken",
      "outputs": [
        {
          "internalType": "address",
          "name": "",
          "type": "address"
        },
        {
          "internalType": "uint16",
          "name": "",
          "type": "uint16"
        }
      ],
      "stateMutability": "view",
      "type": "function"
    },
    {
      "inputs": [
        {
          "internalType": "uint256",
          "name": "_skillId",
          "type": "uint256"
        }
      ],
      "name": "getSkill",
      "outputs": [
        {
          "components": [
            {
              "internalType": "uint256",
              "name": "skillId",
              "type": "uint256"
            },
            {
              "internalType": "string",
              "name": "name",
              "type": "string"
            },
            {
              "internalType": "uint256",
              "name": "damage",
              "type": "uint256"
            },
            {
              "internalType": "uint256",
              "name": "manaCost",
              "type": "uint256"
            },
            {
              "internalType": "uint256",
              "name": "statusEffectId",
              "type": "uint256"
            }
          ],
          "internalType": "struct BattleSkills.Skill",
          "name": "",
          "type": "tuple"
        }
      ],
      "stateMutability": "view",
      "type": "function"
    },
    {
      "inputs": [
        {
          "internalType": "uint256",
          "name": "_effectId",
          "type": "uint256"
        }
      ],
      "name": "getStatusEffect",
      "outputs": [
        {
          "components": [
            {
              "internalType": "uint256",
              "name": "effectId",
              "type": "uint256"
            },
            {
              "internalType": "string",
              "name": "name",
              "type": "string"
            },
            {
              "internalType": "bool",
              "name": "isPositive",
              "type": "bool"
            },
            {
              "internalType": "uint256",
              "name": "duration",
              "type": "uint256"
            },
            {
              "internalType": "uint256",
              "name": "attackBoost",
              "type": "uint256"
            },
            {
              "internalType": "uint256",
              "name": "attackReduction",
              "type": "uint256"
            },
            {
              "internalType": "uint256",
              "name": "defenseBoost",
              "type": "uint256"
            },
            {
              "internalType": "uint256",
              "name": "defenseReduction",
              "type": "uint256"
            },
            {
              "internalType": "uint256",
              "name": "healPerTurn",
              "type": "uint256"
            },
            {
              "internalType": "uint256",
              "name": "damagePerTurn",
              "type": "uint256"
            },
            {
              "internalType": "bool",
              "name": "isStun",
              "type": "bool"
            }
          ],
          "internalType": "struct BattleSkills.StatusEffect",
          "name": "",
          "type": "tuple"
        }
      ],
      "stateMutability": "view",
      "type": "function"
    },
    {
      "inputs": [],
      "name": "initializeSkills",
      "outputs": [],
      "stateMutability": "nonpayable",
      "type": "function"
    },
    {
      "inputs": [],
      "name": "initializeStatusEffects",
      "outputs": [],
      "stateMutability": "nonpayable",
      "type": "function"
    },
    {
      "inputs": [
        {
          "internalType": "address",
          "name": "",
          "type": "address"
        },
        {
          "internalType": "address",
          "name": "",
          "type": "address"
        }
      ],
      "name": "isApprovedForAll",
      "outputs": [
        {
          "internalType": "bool",
          "name": "",
          "type": "bool"
        }
      ],
      "stateMutability": "view",
      "type": "function"
    },
    {
      "inputs": [
        {
          "internalType": "uint256",
          "name": "_skillId",
          "type": "uint256"
        },
        {
          "internalType": "address",
          "name": "_caller",
          "type": "address"
        }
      ],
      "name": "mintSkill",
      "outputs": [],
      "stateMutability": "nonpayable",
      "type": "function"
    },
    {
      "inputs": [
        {
          "internalType": "address",
          "name": "_to",
          "type": "address"
        },
        {
          "internalType": "uint256",
          "name": "_tokenId",
          "type": "uint256"
        },
        {
          "internalType": "string",
          "name": "_tokenURI",
          "type": "string"
        },
        {
          "internalType": "uint256",
          "name": "_amount",
          "type": "uint256"
        }
      ],
      "name": "mintTo",
      "outputs": [],
      "stateMutability": "nonpayable",
      "type": "function"
    },
    {
      "inputs": [
        {
          "internalType": "bytes[]",
          "name": "data",
          "type": "bytes[]"
        }
      ],
      "name": "multicall",
      "outputs": [
        {
          "internalType": "bytes[]",
          "name": "results",
          "type": "bytes[]"
        }
      ],
      "stateMutability": "nonpayable",
      "type": "function"
    },
    {
      "inputs": [],
      "name": "name",
      "outputs": [
        {
          "internalType": "string",
          "name": "",
          "type": "string"
        }
      ],
      "stateMutability": "view",
      "type": "function"
    },
    {
      "inputs": [],
      "name": "nextTokenIdToMint",
      "outputs": [
        {
          "internalType": "uint256",
          "name": "",
          "type": "uint256"
        }
      ],
      "stateMutability": "view",
      "type": "function"
    },
    {
      "inputs": [],
      "name": "numSkills",
      "outputs": [
        {
          "internalType": "uint256",
          "name": "",
          "type": "uint256"
        }
      ],
      "stateMutability": "view",
      "type": "function"
    },
    {
      "inputs": [],
      "name": "numStatusEffects",
      "outputs": [
        {
          "internalType": "uint256",
          "name": "",
          "type": "uint256"
        }
      ],
      "stateMutability": "view",
      "type": "function"
    },
    {
      "inputs": [],
      "name": "operatorRestriction",
      "outputs": [
        {
          "internalType": "bool",
          "name": "",
          "type": "bool"
        }
      ],
      "stateMutability": "view",
      "type": "function"
    },
    {
      "inputs": [],
      "name": "owner",
      "outputs": [
        {
          "internalType": "address",
          "name": "",
          "type": "address"
        }
      ],
      "stateMutability": "view",
      "type": "function"
    },
    {
      "inputs": [
        {
          "internalType": "uint256",
          "name": "tokenId",
          "type": "uint256"
        },
        {
          "internalType": "uint256",
          "name": "salePrice",
          "type": "uint256"
        }
      ],
      "name": "royaltyInfo",
      "outputs": [
        {
          "internalType": "address",
          "name": "receiver",
          "type": "address"
        },
        {
          "internalType": "uint256",
          "name": "royaltyAmount",
          "type": "uint256"
        }
      ],
      "stateMutability": "view",
      "type": "function"
    },
    {
      "inputs": [
        {
          "internalType": "address",
          "name": "from",
          "type": "address"
        },
        {
          "internalType": "address",
          "name": "to",
          "type": "address"
        },
        {
          "internalType": "uint256[]",
          "name": "ids",
          "type": "uint256[]"
        },
        {
          "internalType": "uint256[]",
          "name": "amounts",
          "type": "uint256[]"
        },
        {
          "internalType": "bytes",
          "name": "data",
          "type": "bytes"
        }
      ],
      "name": "safeBatchTransferFrom",
      "outputs": [],
      "stateMutability": "nonpayable",
      "type": "function"
    },
    {
      "inputs": [
        {
          "internalType": "address",
          "name": "from",
          "type": "address"
        },
        {
          "internalType": "address",
          "name": "to",
          "type": "address"
        },
        {
          "internalType": "uint256",
          "name": "id",
          "type": "uint256"
        },
        {
          "internalType": "uint256",
          "name": "amount",
          "type": "uint256"
        },
        {
          "internalType": "bytes",
          "name": "data",
          "type": "bytes"
        }
      ],
      "name": "safeTransferFrom",
      "outputs": [],
      "stateMutability": "nonpayable",
      "type": "function"
    },
    {
      "inputs": [
        {
          "internalType": "address",
          "name": "operator",
          "type": "address"
        },
        {
          "internalType": "bool",
          "name": "approved",
          "type": "bool"
        }
      ],
      "name": "setApprovalForAll",
      "outputs": [],
      "stateMutability": "nonpayable",
      "type": "function"
    },
    {
      "inputs": [
        {
          "internalType": "string",
          "name": "_uri",
          "type": "string"
        }
      ],
      "name": "setContractURI",
      "outputs": [],
      "stateMutability": "nonpayable",
      "type": "function"
    },
    {
      "inputs": [
        {
          "internalType": "address",
          "name": "_royaltyRecipient",
          "type": "address"
        },
        {
          "internalType": "uint256",
          "name": "_royaltyBps",
          "type": "uint256"
        }
      ],
      "name": "setDefaultRoyaltyInfo",
      "outputs": [],
      "stateMutability": "nonpayable",
      "type": "function"
    },
    {
      "inputs": [
        {
          "internalType": "bool",
          "name": "_restriction",
          "type": "bool"
        }
      ],
      "name": "setOperatorRestriction",
      "outputs": [],
      "stateMutability": "nonpayable",
      "type": "function"
    },
    {
      "inputs": [
        {
          "internalType": "address",
          "name": "_newOwner",
          "type": "address"
        }
      ],
      "name": "setOwner",
      "outputs": [],
      "stateMutability": "nonpayable",
      "type": "function"
    },
    {
      "inputs": [
        {
          "internalType": "uint256",
          "name": "_tokenId",
          "type": "uint256"
        },
        {
          "internalType": "address",
          "name": "_recipient",
          "type": "address"
        },
        {
          "internalType": "uint256",
          "name": "_bps",
          "type": "uint256"
        }
      ],
      "name": "setRoyaltyInfoForToken",
      "outputs": [],
      "stateMutability": "nonpayable",
      "type": "function"
    },
    {
      "inputs": [
        {
          "internalType": "uint256",
          "name": "",
          "type": "uint256"
        }
      ],
      "name": "skills",
      "outputs": [
        {
          "internalType": "uint256",
          "name": "skillId",
          "type": "uint256"
        },
        {
          "internalType": "string",
          "name": "name",
          "type": "string"
        },
        {
          "internalType": "uint256",
          "name": "damage",
          "type": "uint256"
        },
        {
          "internalType": "uint256",
          "name": "manaCost",
          "type": "uint256"
        },
        {
          "internalType": "uint256",
          "name": "statusEffectId",
          "type": "uint256"
        }
      ],
      "stateMutability": "view",
      "type": "function"
    },
    {
      "inputs": [
        {
          "internalType": "uint256",
          "name": "",
          "type": "uint256"
        }
      ],
      "name": "statusEffects",
      "outputs": [
        {
          "internalType": "uint256",
          "name": "effectId",
          "type": "uint256"
        },
        {
          "internalType": "string",
          "name": "name",
          "type": "string"
        },
        {
          "internalType": "bool",
          "name": "isPositive",
          "type": "bool"
        },
        {
          "internalType": "uint256",
          "name": "duration",
          "type": "uint256"
        },
        {
          "internalType": "uint256",
          "name": "attackBoost",
          "type": "uint256"
        },
        {
          "internalType": "uint256",
          "name": "attackReduction",
          "type": "uint256"
        },
        {
          "internalType": "uint256",
          "name": "defenseBoost",
          "type": "uint256"
        },
        {
          "internalType": "uint256",
          "name": "defenseReduction",
          "type": "uint256"
        },
        {
          "internalType": "uint256",
          "name": "healPerTurn",
          "type": "uint256"
        },
        {
          "internalType": "uint256",
          "name": "damagePerTurn",
          "type": "uint256"
        },
        {
          "internalType": "bool",
          "name": "isStun",
          "type": "bool"
        }
      ],
      "stateMutability": "view",
      "type": "function"
    },
    {
      "inputs": [
        {
          "internalType": "bytes4",
          "name": "interfaceId",
          "type": "bytes4"
        }
      ],
      "name": "supportsInterface",
      "outputs": [
        {
          "internalType": "bool",
          "name": "",
          "type": "bool"
        }
      ],
      "stateMutability": "view",
      "type": "function"
    },
    {
      "inputs": [],
      "name": "symbol",
      "outputs": [
        {
          "internalType": "string",
          "name": "",
          "type": "string"
        }
      ],
      "stateMutability": "view",
      "type": "function"
    },
    {
      "inputs": [
        {
          "internalType": "uint256",
          "name": "",
          "type": "uint256"
        }
      ],
      "name": "totalSupply",
      "outputs": [
        {
          "internalType": "uint256",
          "name": "",
          "type": "uint256"
        }
      ],
      "stateMutability": "view",
      "type": "function"
    },
    {
      "inputs": [
        {
          "internalType": "uint256",
          "name": "_skillId",
          "type": "uint256"
        },
        {
          "internalType": "string",
          "name": "_name",
          "type": "string"
        },
        {
          "internalType": "uint256",
          "name": "_damage",
          "type": "uint256"
        },
        {
          "internalType": "uint256",
          "name": "_manaCost",
          "type": "uint256"
        },
        {
          "internalType": "uint256",
          "name": "_statusEffectId",
          "type": "uint256"
        }
      ],
      "name": "updateSkill",
      "outputs": [],
      "stateMutability": "nonpayable",
      "type": "function"
    },
    {
      "inputs": [
        {
          "internalType": "uint256",
          "name": "_tokenId",
          "type": "uint256"
        }
      ],
      "name": "uri",
      "outputs": [
        {
          "internalType": "string",
          "name": "",
          "type": "string"
        }
      ],
      "stateMutability": "view",
      "type": "function"
    }
  ],
  "bytecode": "0x608080604052346300003d42576000630000001b826300003d82565b600c82526b426174746c65536b696c6c7360a01b6020830152604051906300000045826300003d82565b6002825261425360f01b602083015282516001600160401b0381116300003b48578154600181811c911680156300003d36575b60208210146300003c4e57601f81116300003ce7575b506020601f82116001146300003c7b578293948293926300003c6e575b50508160011b916000199060031b1c19161781555b81516001600160401b0381116300003b4857600154600181811c911680156300003c62575b60208210146300003c4e57601f81116300003bf1575b50602092601f82116001146300003b77579282938293926300003b6a575b50508160011b916000199060031b1c1916176001555b806daaeb6d7670e522a718067333cd4e803b6300003ad5575b505060068054336001600160a01b0319821681179092556040517f90d7ec04bcb8978719414f82e52e4cb651db41d0e6f8cea6118c2191e6183adb926020926001600160a01b03167f8292fce18fa69edf4db7b94ea2e58241df0ae57f97e0a6c9b29067028bf92d768684a3600780546001600160b01b0319169055838152a2600160ff19600b541617600b557f38475885990d8dfe9ca01f0ef160a1b5514426eab9ddbc953a3353410ba78096602060405160018152a16040516300000210816300003d82565b600481526329ba3ab760e11b6020820152601154604051916300000235836300003d47565b8183526020830152600060408301526001606083015260006080830152600060a0830152600060c0830152600060e0830152600061010083015260006101208301526001610140830152600052600f602052604060002081518155602082015180519060018060401b0382116300001f50576001830154600181811c911680156300003ac9575b60208210146300001f2e57601f81116300003a78575b50602090601f83116001146300003a0f579382600a93610140936300000394976000926300003542575b50508160011b916000199060031b1c19161760018501555b630000033560408201511515600286019060ff801983541691151516179055565b606081015160038501556080810151600485015560a0810151600585015560c0810151600685015560e08101516007850155610100810151600885015561012081015160098501550151151591019060ff801983541691151516179055565b63000003a36011546300003de1565b8060115560405163000003b7816300003d82565b601081526f44616d616765204f7665722054696d6560801b60208201526040519163000003e5836300003d47565b80835260208301918252600060408401526003606084015260006080840152600060a0840152600060c0840152600060e08401526000610100840152600a6101208401526000610140840152600052600f602052604060002090825182555180519060018060401b0382116300001f50576001830154600181811c911680156300003a03575b60208210146300001f2e57601f811163000039b2575b50602090601f83116001146300003949579382600a936101409363000004e29760009263000035425750508160011b916000199060031b1c1916176001850155630000033560408201511515600286019060ff801983541691151516179055565b63000004f16011546300003de1565b806011556040516300000505816300003d82565b600d81526c5265647563652041747461636b60981b6020820152604051916300000530836300003d47565b80835260208301918252600060408401526003606084015260006080840152600a60a0840152600060c0840152600060e0840152600061010084015260006101208401526000610140840152600052600f602052604060002090825182555180519060018060401b0382116300001f50576001830154600181811c91168015630000393d575b60208210146300001f2e57601f811163000038ec575b50602090601f83116001146300003883579382600a9361014093630000062d9760009263000035425750508160011b916000199060031b1c1916176001850155630000033560408201511515600286019060ff801983541691151516179055565b630000063c6011546300003de1565b806011556040516300000650816300003d82565b600e81526d52656475636520446566656e736560901b602082015260405191630000067c836300003d47565b80835260208301918252600060408401526003606084015260006080840152600060a0840152600060c0840152600a60e0840152600061010084015260006101208401526000610140840152600052600f602052604060002090825182555180519060018060401b0382116300001f50576001830154600181811c911680156300003877575b60208210146300001f2e57601f81116300003826575b50602090601f831160011463000037bd579382600a936101409363000007799760009263000035425750508160011b916000199060031b1c1916176001850155630000033560408201511515600286019060ff801983541691151516179055565b63000007886011546300003de1565b80601155604051630000079c816300003d82565b600c81526b426f6f73742041747461636b60a01b60208201526040519163000007c6836300003d47565b808352602083019182526001604084015260036060840152600a6080840152600060a0840152600060c0840152600060e0840152600061010084015260006101208401526000610140840152600052600f602052604060002090825182555180519060018060401b0382116300001f50576001830154600181811c9116801563000037b1575b60208210146300001f2e57601f81116300003760575b50602090601f831160011463000036f7579382600a936101409363000008c39760009263000035425750508160011b916000199060031b1c1916176001850155630000033560408201511515600286019060ff801983541691151516179055565b63000008d26011546300003de1565b8060115560405163000008e6816300003d82565b600e81526d4865616c204f7665722054696d6560901b6020820152604051916300000912836300003d47565b80835260208301918252600160408401526003606084015260006080840152600060a0840152600060c0840152600060e0840152600a61010084015260006101208401526000610140840152600052600f602052604060002090825182555180519060018060401b0382116300001f50576001830154600181811c9116801563000036eb575b60208210146300001f2e57601f8111630000369a575b50602090601f83116001146300003631579382600a93610140936300000a0f9760009263000035425750508160011b916000199060031b1c1916176001850155630000033560408201511515600286019060ff801983541691151516179055565b6300000a1e6011546300003de1565b80601155604051906300000a33826300003d82565b600d82526c111959995b9cd948109bdbdcdd609a1b6020830152604051916300000a5e836300003d47565b8183526020830152600160408301526003606083015260006080830152600060a0830152600a60c0830152600060e0830152600061010083015260006101208301526000610140830152600052600f602052604060002081518155602082015180519060018060401b0382116300001f50576001830154600181811c911680156300003625575b60208210146300001f2e57601f811163000035d4575b50602090601f8311600114630000354f579382600a93610140936300000b5c9760009263000035425750508160011b916000199060031b1c1916176001850155630000033560408201511515600286019060ff801983541691151516179055565b6300000b6b6011546300003de1565b6011556040516300000b7e816300003d82565b600b81526a5374756e2041747461636b60a81b6020820152604051906300000ba7826300003d82565b601b82527f68747470733a2f2f6578616d706c652e636f6d2f736b696c6c2f30000000000060208301526006546001600160a01b03163303630000221b57600c54600119811163000022055760018101600c55600081815260046020526040902083516001600160401b0381116300001f50578154600181811c911680156300003536575b60208210146300001f2e57601f811163000034e8575b506020601f821160011463000034755781929394956000926300003468575b50508160011b916000199060031b1c19161790555b604051916300000c87836300003d9f565b6000835233156300003434576300000ca0826300003f50565b906300000cad6300003f22565b9360005b83518110156300000d0c57806300000cd06300000d0592886300003e36565b516300000cdf82876300003e36565b51600052600d6020526300000cfc60406000209182546300003e03565b90556300003de1565b6300000cb1565b508333600052600260205260406000208160005260205260406000206300000d3681546300003df2565b9055604051818152600160208201526000339160008051602063000091aa83398151915260403392a4333b63000032da575b5050601054604051906300000d7e826300003d65565b80825260208201928352600a60408301526005606083015260006080830152600052600e602052604060002091815183555180519060018060401b0382116300001f50576001840154600181811c9116801563000032ce575b60208210146300001f2e57601f8111630000327d575b50602090601f831160011463000031fe5791806004949260809460009263000031f1575b50508160011b916000199060031b1c19161760018501555b604081015160028501556060810151600385015501519101556300000e516010546300003de1565b6010556040516300000e64816300003d82565b6008815267119a5c9958985b1b60c21b6020820152604051906300000e8a826300003d82565b601b82527f68747470733a2f2f6578616d706c652e636f6d2f736b696c6c2f31000000000060208301526006546001600160a01b03163303630000221b57600c54600119811163000022055760018101600c55600081815260046020526040902083516001600160401b0381116300001f50578154600181811c9116801563000031e5575b60208210146300001f2e57601f81116300003197575b506020601f821160011463000031245781929394956000926300003117575b50508160011b916000199060031b1c19161790555b604051916300000f6a836300003d9f565b600083526300000f7b826300003f50565b906300000f886300003f22565b9360005b83518110156300000fb257806300000cd06300000fab92886300003e36565b6300000f8c565b508333600052600260205260406000208160005260205260406000206300000fdc81546300003df2565b9055604051818152600160208201526000339160008051602063000091aa83398151915260403392a4333b6300002fbd575b5050601054604051906300001024826300003d65565b8082526020820192835260146040830152600a606083015260016080830152600052600e602052604060002091815183555180519060018060401b0382116300001f50576001840154600181811c911680156300002fb1575b60208210146300001f2e57601f81116300002f60575b50602090601f83116001146300002ee1579180600494926080946000926300002ed4575b50508160011b916000199060031b1c19161760018501555b6040810151600285015560608101516003850155015191015563000010f76010546300003de1565b601055604051630000110a816300003d82565b600d81526c5765616b656e2041747461636b60981b6020820152604051906300001135826300003d82565b601b82527f68747470733a2f2f6578616d706c652e636f6d2f736b696c6c2f32000000000060208301526006546001600160a01b03163303630000221b57600c54600119811163000022055760018101600c55600081815260046020526040902083516001600160401b0381116300001f50578154600181811c911680156300002ec8575b60208210146300001f2e57601f81116300002e7a575b506020601f82116001146300002e075781929394956000926300002dfa575b50508160011b916000199060031b1c19161790555b604051916300001215836300003d9f565b600083526300001226826300003f50565b9063000012336300003f22565b9360005b8351811015630000125d57806300000cd0630000125692886300003e36565b6300001237565b50833360005260026020526040600020816000526020526040600020630000128781546300003df2565b9055604051818152600160208201526000339160008051602063000091aa83398151915260403392a4333b6300002ca0575b50506010546040519063000012cf826300003d65565b80825260208201928352600f60408301526005606083015260026080830152600052600e602052604060002091815183555180519060018060401b0382116300001f50576001840154600181811c911680156300002c94575b60208210146300001f2e57601f81116300002c43575b50602090601f83116001146300002bc4579180600494926080946000926300002bb7575b50508160011b916000199060031b1c19161760018501555b6040810151600285015560608101516003850155015191015563000013a26010546300003de1565b60105560405163000013b5816300003d82565b600e81526d5765616b656e20446566656e736560901b60208201526040519063000013e1826300003d82565b601b82527f68747470733a2f2f6578616d706c652e636f6d2f736b696c6c2f33000000000060208301526006546001600160a01b03163303630000221b57600c54600119811163000022055760018101600c55600081815260046020526040902083516001600160401b0381116300001f50578154600181811c911680156300002bab575b60208210146300001f2e57601f81116300002b5d575b506020601f82116001146300002aea5781929394956000926300002add575b50508160011b916000199060031b1c19161790555b6040519163000014c1836300003d9f565b6000835263000014d2826300003f50565b9063000014df6300003f22565b9360005b8351811015630000150957806300000cd0630000150292886300003e36565b63000014e3565b50833360005260026020526040600020816000526020526040600020630000153381546300003df2565b9055604051818152600160208201526000339160008051602063000091aa83398151915260403392a4333b6300002983575b505060105460405190630000157b826300003d65565b80825260208201928352600f60408301526005606083015260036080830152600052600e602052604060002091815183555180519060018060401b0382116300001f50576001840154600181811c911680156300002977575b60208210146300001f2e57601f81116300002926575b50602090601f831160011463000028a757918060049492608094600092630000289a575b50508160011b916000199060031b1c19161760018501555b60408101516002850155606081015160038501550151910155630000164e6010546300003de1565b6010556040516300001661816300003d82565b600c81526b506f77657220537472696b6560a01b602082015260405190630000168b826300003d82565b601b82527f68747470733a2f2f6578616d706c652e636f6d2f736b696c6c2f34000000000060208301526006546001600160a01b03163303630000221b57600c54600119811163000022055760018101600c55600081815260046020526040902083516001600160401b0381116300001f50578154600181811c91168015630000288e575b60208210146300001f2e57601f81116300002840575b506020601f821160011463000027cd57819293949560009263000027c0575b50508160011b916000199060031b1c19161790555b60405191630000176b836300003d9f565b60008352630000177c826300003f50565b9063000017896300003f22565b9360005b835181101563000017b357806300000cd063000017ac92886300003e36565b630000178d565b5083336000526002602052604060002081600052602052604060002063000017dd81546300003df2565b9055604051818152600160208201526000339160008051602063000091aa83398151915260403392a4333b6300002666575b5050601054604051906300001825826300003d65565b8082526020820192835260196040830152600a606083015260046080830152600052600e602052604060002091815183555180519060018060401b0382116300001f50576001840154600181811c91168015630000265a575b60208210146300001f2e57601f81116300002609575b50602090601f8311600114630000258a57918060049492608094600092630000257d575b50508160011b916000199060031b1c19161760018501555b6040810151600285015560608101516003850155015191015563000018f86010546300003de1565b601055604051630000190b816300003d82565b600d81526c1219585b1a5b99c814dc195b1b609a1b6020820152604051906300001936826300003d82565b601b82527f68747470733a2f2f6578616d706c652e636f6d2f736b696c6c2f35000000000060208301526006546001600160a01b03163303630000221b57600c54600119811163000022055760018101600c55600081815260046020526040902083516001600160401b0381116300001f50578154600181811c911680156300002571575b60208210146300001f2e57601f81116300002523575b506020601f821160011463000024b057819293949560009263000024a3575b50508160011b916000199060031b1c19161790555b604051916300001a16836300003d9f565b600083526300001a27826300003f50565b906300001a346300003f22565b9360005b83518110156300001a5e57806300000cd06300001a5792886300003e36565b6300001a38565b508333600052600260205260406000208160005260205260406000206300001a8881546300003df2565b9055604051818152600160208201526000339160008051602063000091aa83398151915260403392a4333b6300002349575b5050601054604051906300001ad0826300003d65565b8082526020820192835260006040830152600a606083015260056080830152600052600e602052604060002091815183555180519060018060401b0382116300001f50576001840154600181811c91168015630000233d575b60208210146300001f2e57601f811163000022ec575b50602090601f8311600114630000226d579180600494926080946000926300002260575b50508160011b916000199060031b1c19161760018501555b604081015160028501556060810151600385015501519101556300001ba36010546300003de1565b6010556040516300001bb6816300003d82565b601081526f446566656e73697665205374616e636560801b6020820152604051906300001be4826300003d82565b601b82527f68747470733a2f2f6578616d706c652e636f6d2f736b696c6c2f36000000000060208301526006546001600160a01b03163303630000221b57600c54600119811163000022055760018101600c55600081815260046020526040902083516001600160401b0381116300001f50578154600181811c9116801563000021f9575b60208210146300001f2e57601f811163000021ab575b506020601f82116001146300002138578192939495600092630000212b575b50508160011b916000199060031b1c19161790555b604051916300001cc4836300003d9f565b600083526300001cd5826300003f50565b906300001ce26300003f22565b9360005b83518110156300001d0c57806300000cd06300001d0592886300003e36565b6300001ce6565b508333600052600260205260406000208160005260205260406000206300001d3681546300003df2565b9055604051818152600160208201526000339160008051602063000091aa83398151915260403392a4333b6300001f66575b5050601054604051906300001d7e826300003d65565b8082526020820192835260408201600a8152606083019060058252608084019260068452600052600e60205260406000209351845560018401945194855160018060401b0381116300001f50578154600181811c911680156300001f44575b60208210146300001f2e57601f81116300001edc575b506020601f82116001146300001e68578190600497986000926300001e5b575b50508160011b916000199060031b1c19161790555b516002850155516003840155519101556300001e476010546300003de1565b60105560405161523090816300003f7a8239f35b0151905088806300001e13565b601f198216978360005260206000209860005b8181106300001ec257509160049899918460019594106300001ea7575b505050811b0190556300001e28565b015160001960f88460031b161c191690558880806300001e98565b838301518b556001909a0199602093840193016300001e7b565b826000526020600020601f830160051c810191602084106300001f22575b601f0160051c01905b8181106300001f1457506300001df3565b600081556001016300001f03565b90915081906300001efa565b634e487b7160e01b600052602260045260246000fd5b90607f16906300001ddd565b634e487b7160e01b600052604160045260246000fd5b6300001fad91602091604051938492839263f23a6e6160e01b84523360048501526000602485015260448401526001606484015260a0608484015260a48301906300003e4c565b03816000335af1809160009163000020d3575b5090630000208457506001600060033d116300002074575b6308c379a014630000202d575b6300001ff5575b81806300001d68565b60405162461bcd60e51b815260206004820152601060248201526f10a2a92198989a9aa922a1a2a4ab22a960811b6044820152606490fd5b63000020396300003ea5565b80630000204857506300001fe5565b60405162461bcd60e51b81526020600482015290819063000020709060248301906300003e4c565b0390fd5b600481803e5160e01c6300001fd8565b6001600160e01b031916630dc5919f60e01b01156300001fec5760405162461bcd60e51b815260206004820152600f602482015260008051602063000091ea8339815191526044820152606490fd5b6020813d6020116300002121575b8163000020f2602093836300003dbc565b81010312630000211d5751906001600160e01b031982168203630000211a5750836300001fc0565b80fd5b5080fd5b3d915063000020e1565b0151905085806300001c9e565b8260005260206000209060005b601f19841681106300002191575060019394959683601f198116106300002176575b505050811b0190556300001cb3565b015160001960f88460031b161c191690558580806300002167565b9091602060018192858b0151815501930191016300002145565b826000526020600020601f830160051c81016020841063000021f0575b601f830160051c8201811063000021e25750506300001c7f565b6000815560010163000021c8565b508063000021c8565b90607f16906300001c69565b634e487b7160e01b600052601160045260246000fd5b60405162461bcd60e51b815260206004820152601760248201527f4e6f7420617574686f72697a656420746f206d696e742e0000000000000000006044820152606490fd5b0151905086806300001b63565b906001850160005260206000209160005b601f198516811063000022d25750926004949260019260809583601f1981161063000022b7575b505050811b0160018501556300001b7b565b015160001960f88460031b161c1916905586808063000022a5565b91926020600181928685015181550194019201630000227e565b600185016000526020600020601f840160051c8101602085106300002334575b601f830160051c8201811063000023265750506300001b3f565b60008155600101630000230c565b5080630000230c565b90607f16906300001b29565b630000239091602091604051938492839263f23a6e6160e01b84523360048501526000602485015260448401526001606484015260a0608484015260a48301906300003e4c565b03816000335af180916000916300002452575b5090630000240357506001600060033d1163000023f3575b6308c379a01463000023d8575b6300001ff5575b81806300001aba565b63000023e46300003ea5565b806300002048575063000023c8565b600481803e5160e01c63000023bb565b6001600160e01b031916630dc5919f60e01b011563000023cf5760405162461bcd60e51b815260206004820152600f602482015260008051602063000091ea8339815191526044820152606490fd5b6020813d6020116300002499575b816300002471602093836300003dbc565b81010312630000211d5751906001600160e01b031982168203630000211a57508363000023a3565b3d91506300002460565b01519050858063000019f0565b8260005260206000209060005b601f19841681106300002509575060019394959683601f1981161063000024ee575b505050811b0190556300001a05565b015160001960f88460031b161c1916905585808063000024df565b9091602060018192858b01518155019301910163000024bd565b826000526020600020601f830160051c8101602084106300002568575b601f830160051c82018110630000255a57505063000019d1565b600081556001016300002540565b50806300002540565b90607f169063000019bb565b01519050868063000018b8565b906001850160005260206000209160005b601f198516811063000025ef5750926004949260019260809583601f1981161063000025d4575b505050811b01600185015563000018d0565b015160001960f88460031b161c1916905586808063000025c2565b91926020600181928685015181550194019201630000259b565b600185016000526020600020601f840160051c8101602085106300002651575b601f830160051c8201811063000026435750506300001894565b600081556001016300002629565b50806300002629565b90607f1690630000187e565b63000026ad91602091604051938492839263f23a6e6160e01b84523360048501526000602485015260448401526001606484015260a0608484015260a48301906300003e4c565b03816000335af18091600091630000276f575b5090630000272057506001600060033d116300002710575b6308c379a01463000026f5575b6300001ff5575b8180630000180f565b63000027016300003ea5565b806300002048575063000026e5565b600481803e5160e01c63000026d8565b6001600160e01b031916630dc5919f60e01b011563000026ec5760405162461bcd60e51b815260206004820152600f602482015260008051602063000091ea8339815191526044820152606490fd5b6020813d60201163000027b6575b81630000278e602093836300003dbc565b81010312630000211d5751906001600160e01b031982168203630000211a57508363000026c0565b3d9150630000277d565b0151905085806300001745565b8260005260206000209060005b601f19841681106300002826575060019394959683601f19811610630000280b575b505050811b019055630000175a565b015160001960f88460031b161c1916905585808063000027fc565b9091602060018192858b01518155019301910163000027da565b826000526020600020601f830160051c8101602084106300002885575b601f830160051c8201811063000028775750506300001726565b60008155600101630000285d565b5080630000285d565b90607f16906300001710565b015190508680630000160e565b906001850160005260206000209160005b601f1985168110630000290c5750926004949260019260809583601f1981161063000028f1575b505050811b0160018501556300001626565b015160001960f88460031b161c1916905586808063000028df565b9192602060018192868501518155019401920163000028b8565b600185016000526020600020601f840160051c810160208510630000296e575b601f830160051c82018110630000296057505063000015ea565b600081556001016300002946565b50806300002946565b90607f169063000015d4565b63000029ca91602091604051938492839263f23a6e6160e01b84523360048501526000602485015260448401526001606484015260a0608484015260a48301906300003e4c565b03816000335af180916000916300002a8c575b50906300002a3d57506001600060033d116300002a2d575b6308c379a0146300002a12575b6300001ff5575b81806300001565565b6300002a1e6300003ea5565b80630000204857506300002a02565b600481803e5160e01c63000029f5565b6001600160e01b031916630dc5919f60e01b01156300002a095760405162461bcd60e51b815260206004820152600f602482015260008051602063000091ea8339815191526044820152606490fd5b6020813d6020116300002ad3575b816300002aab602093836300003dbc565b81010312630000211d5751906001600160e01b031982168203630000211a57508363000029dd565b3d91506300002a9a565b015190508580630000149b565b8260005260206000209060005b601f19841681106300002b43575060019394959683601f198116106300002b28575b505050811b01905563000014b0565b015160001960f88460031b161c191690558580806300002b19565b9091602060018192858b0151815501930191016300002af7565b826000526020600020601f830160051c8101602084106300002ba2575b601f830160051c820181106300002b94575050630000147c565b600081556001016300002b7a565b50806300002b7a565b90607f16906300001466565b0151905086806300001362565b906001850160005260206000209160005b601f19851681106300002c295750926004949260019260809583601f198116106300002c0e575b505050811b016001850155630000137a565b015160001960f88460031b161c191690558680806300002bfc565b919260206001819286850151815501940192016300002bd5565b600185016000526020600020601f840160051c8101602085106300002c8b575b601f830160051c820181106300002c7d575050630000133e565b600081556001016300002c63565b50806300002c63565b90607f16906300001328565b6300002ce791602091604051938492839263f23a6e6160e01b84523360048501526000602485015260448401526001606484015260a0608484015260a48301906300003e4c565b03816000335af180916000916300002da9575b50906300002d5a57506001600060033d116300002d4a575b6308c379a0146300002d2f575b6300001ff5575b818063000012b9565b6300002d3b6300003ea5565b80630000204857506300002d1f565b600481803e5160e01c6300002d12565b6001600160e01b031916630dc5919f60e01b01156300002d265760405162461bcd60e51b815260206004820152600f602482015260008051602063000091ea8339815191526044820152606490fd5b6020813d6020116300002df0575b816300002dc8602093836300003dbc565b81010312630000211d5751906001600160e01b031982168203630000211a5750836300002cfa565b3d91506300002db7565b01519050858063000011ef565b8260005260206000209060005b601f19841681106300002e60575060019394959683601f198116106300002e45575b505050811b0190556300001204565b015160001960f88460031b161c191690558580806300002e36565b9091602060018192858b0151815501930191016300002e14565b826000526020600020601f830160051c8101602084106300002ebf575b601f830160051c820181106300002eb157505063000011d0565b600081556001016300002e97565b50806300002e97565b90607f169063000011ba565b01519050868063000010b7565b906001850160005260206000209160005b601f19851681106300002f465750926004949260019260809583601f198116106300002f2b575b505050811b01600185015563000010cf565b015160001960f88460031b161c191690558680806300002f19565b919260206001819286850151815501940192016300002ef2565b600185016000526020600020601f840160051c8101602085106300002fa8575b601f830160051c820181106300002f9a5750506300001093565b600081556001016300002f80565b50806300002f80565b90607f1690630000107d565b630000300491602091604051938492839263f23a6e6160e01b84523360048501526000602485015260448401526001606484015260a0608484015260a48301906300003e4c565b03816000335af1809160009163000030c6575b5090630000307757506001600060033d116300003067575b6308c379a014630000304c575b6300001ff5575b8180630000100e565b63000030586300003ea5565b8063000020485750630000303c565b600481803e5160e01c630000302f565b6001600160e01b031916630dc5919f60e01b011563000030435760405162461bcd60e51b815260206004820152600f602482015260008051602063000091ea8339815191526044820152606490fd5b6020813d602011630000310d575b8163000030e5602093836300003dbc565b81010312630000211d5751906001600160e01b031982168203630000211a5750836300003017565b3d915063000030d4565b0151905085806300000f44565b8260005260206000209060005b601f1984168110630000317d575060019394959683601f198116106300003162575b505050811b0190556300000f59565b015160001960f88460031b161c191690558580806300003153565b9091602060018192858b0151815501930191016300003131565b826000526020600020601f830160051c81016020841063000031dc575b601f830160051c8201811063000031ce5750506300000f25565b6000815560010163000031b4565b508063000031b4565b90607f16906300000f0f565b0151905086806300000e11565b906001850160005260206000209160005b601f198516811063000032635750926004949260019260809583601f198116106300003248575b505050811b0160018501556300000e29565b015160001960f88460031b161c191690558680806300003236565b91926020600181928685015181550194019201630000320f565b600185016000526020600020601f840160051c81016020851063000032c5575b601f830160051c8201811063000032b75750506300000ded565b60008155600101630000329d565b5080630000329d565b90607f16906300000dd7565b630000332191602091604051938492839263f23a6e6160e01b84523360048501526000602485015260448401526001606484015260a0608484015260a48301906300003e4c565b03816000335af1809160009163000033e3575b5090630000339457506001600060033d116300003384575b6308c379a0146300003369575b6300001ff5575b81806300000d68565b63000033756300003ea5565b80630000204857506300003359565b600481803e5160e01c630000334c565b6001600160e01b031916630dc5919f60e01b011563000033605760405162461bcd60e51b815260206004820152600f602482015260008051602063000091ea8339815191526044820152606490fd5b6020813d602011630000342a575b816300003402602093836300003dbc565b81010312630000211d5751906001600160e01b031982168203630000211a5750836300003334565b3d915063000033f1565b60405162461bcd60e51b815260206004820152600c60248201526b2a27afad22a927afa0a2222960a11b6044820152606490fd5b0151905038806300000c61565b8260005260206000209060005b601f198416811063000034ce575060019394959683601f1981161063000034b3575b505050811b0190556300000c76565b015160001960f88460031b161c1916905538808063000034a4565b9091602060018192858b0151815501930191016300003482565b826000526020600020601f830160051c810160208410630000352d575b601f830160051c82018110630000351f5750506300000c42565b600081556001016300003505565b50806300003505565b90607f16906300000c2c565b01519050388063000002fc565b906001840160005260206000209160005b601f198516811063000035ba575083610140936300000b5c9793600193600a97601f19811610630000359f575b505050811b0160018501556300000314565b015160001960f88460031b161c19169055388080630000358d565b919260206001819286850151815501940192016300003560565b600184016000526020600020601f840160051c810160208510630000361c575b601f830160051c82018110630000360e5750506300000afb565b6000815560010163000035f4565b508063000035f4565b90607f16906300000ae5565b906001840160005260206000209160005b601f19851681106300003680575083610140936300000a0f9793600193600a97601f19811610630000359f57505050811b0160018501556300000314565b919260206001819286850151815501940192016300003642565b600184016000526020600020601f840160051c81016020851063000036e2575b601f830160051c8201811063000036d457505063000009ae565b6000815560010163000036ba565b508063000036ba565b90607f16906300000998565b906001840160005260206000209160005b601f198516811063000037465750836101409363000008c39793600193600a97601f19811610630000359f57505050811b0160018501556300000314565b919260206001819286850151815501940192016300003708565b600184016000526020600020601f840160051c81016020851063000037a8575b601f830160051c82018110630000379a5750506300000862565b600081556001016300003780565b50806300003780565b90607f1690630000084c565b906001840160005260206000209160005b601f1985168110630000380c5750836101409363000007799793600193600a97601f19811610630000359f57505050811b0160018501556300000314565b9192602060018192868501518155019401920163000037ce565b600184016000526020600020601f840160051c810160208510630000386e575b601f830160051c8201811063000038605750506300000718565b600081556001016300003846565b50806300003846565b90607f16906300000702565b906001840160005260206000209160005b601f198516811063000038d257508361014093630000062d9793600193600a97601f19811610630000359f57505050811b0160018501556300000314565b919260206001819286850151815501940192016300003894565b600184016000526020600020601f840160051c8101602085106300003934575b601f830160051c82018110630000392657505063000005cc565b60008155600101630000390c565b5080630000390c565b90607f169063000005b6565b906001840160005260206000209160005b601f198516811063000039985750836101409363000004e29793600193600a97601f19811610630000359f57505050811b0160018501556300000314565b91926020600181928685015181550194019201630000395a565b600184016000526020600020601f840160051c81016020851063000039fa575b601f830160051c8201811063000039ec5750506300000481565b6000815560010163000039d2565b508063000039d2565b90607f1690630000046b565b906001840160005260206000209160005b601f19851681106300003a5e5750836101409363000003949793600193600a97601f19811610630000359f57505050811b0160018501556300000314565b919260206001819286850151815501940192016300003a20565b600184016000526020600020601f840160051c8101602085106300003ac0575b601f830160051c820181106300003ab257505063000002d2565b600081556001016300003a98565b50806300003a98565b90607f169063000002bc565b803b156300003b67578190604460405180948193633e9f1edf60e11b8352306004840152733cc6cdda760b79bafa08df41ecfa224f810dceb660248401525af180156300003b5c576300003b2d575b81906300000148565b6001600160401b0381116300003b4857604052386300003b24565b634e487b7160e01b82526041600452602482fd5b6040513d84823e3d90fd5b50fd5b0151905038806300000119565b60018352601f1982169360008051602063000091ca83398151915291845b8681106300003bd757508360019596106300003bbc575b505050811b01600155630000012f565b015160001960f88460031b161c191690553880806300003bac565b919260206001819286850151815501940192016300003b95565b6001835260008051602063000091ca833981519152601f830160051c810191602084106300003c42575b601f0160051c01905b8181106300003c35575063000000fb565b8381556001016300003c24565b90915081906300003c1b565b634e487b7160e01b83526022600452602483fd5b90607f169063000000e5565b01519050388063000000ab565b8280526020832090601f198316845b8181106300003ccd575095836001959697106300003cb2575b505050811b01815563000000c0565b015160001960f88460031b161c191690553880806300003ca3565b9192602060018192868b0151815501940192016300003c8a565b82805260208320601f830160051c810191602084106300003d2a575b601f0160051c01905b8181106300003d1d5750630000008e565b8381556001016300003d0c565b90915081906300003d03565b90607f16906300000078565b600080fd5b61016081019081106001600160401b038211176300001f5057604052565b60a081019081106001600160401b038211176300001f5057604052565b604081019081106001600160401b038211176300001f5057604052565b602081019081106001600160401b038211176300001f5057604052565b601f909101601f19168101906001600160401b038211908210176300001f5057604052565b600019811463000022055760010190565b600119811163000022055760010190565b811981116300002205570190565b8051156300003e205760200190565b634e487b7160e01b600052603260045260246000fd5b80518210156300003e205760209160051b010190565b91908251928382526000905b8482106300003e8b5750928060209394116300003e7c575b601f01601f1916010190565b60008382840101526300003e70565b906020908180828501015190828601015201906300003e58565b600060443d106300003f0e57604051600319913d83016004833e81516001600160401b03918282113d6024840111176300003f11578184019485519384116300003f19573d850101602084870101116300003f1157506300003f0e929101602001906300003dbc565b90565b949350505050565b50949350505050565b6040516300003f32816300003d82565b600181526020368183013760016300003f4c826300003e11565b5290565b604051906300003f61826300003d82565b60018252602036818401376300003f4c826300003e1156fe60806040526004361015610013575b600080fd5b60003560e01c8062fdd58e1461038257806301ffc9a714610379578063043143251461037057806306fdde03146103675780630e89341c1461035e5780631187bd511461035557806313af40351461034c5780632419f51b146103435780632a55205a1461033a5780632eb2c2d61461033157806332f0cd64146103285780633b1475a71461031f57806341f43434146103165780634cc157df1461030d5780634e1273f414610304578063504c6e01146102fb57806350d15fbe146102f2578063600dd5ea146102e957806363b45e2d146102e057806364f047f9146102d75780636b20c454146102ce5780636febc04d146102c55780637bdaa4ef146102bc5780637cc2a91d146102b35780638da5cb5b146102aa578063910837e9146102a1578063938e3d7b14610298578063949c09f71461028f57806395d89b41146102865780639746d1bb1461027d5780639bcf7a1514610274578063a22cb4651461026b578063ac9650d814610262578063b03f452814610259578063b24f2d3914610250578063bc4b896a14610247578063bd85b0391461023e578063bd880fae14610235578063bfa0fedb1461022c578063c7cd32c614610223578063e8a3d4851461021a578063e985e9c514610211578063f242432a146102085763f5298aca1461020057600080fd5b61000e6127bd565b5061000e612590565b5061000e612532565b5061000e61249c565b5061000e612424565b5061000e61233a565b5061000e6122a6565b5061000e612236565b5061000e6120be565b5061000e612087565b5061000e611eef565b5061000e611e89565b5061000e611d3c565b5061000e611c6b565b5061000e611b95565b5061000e611aef565b5061000e6119ab565b5061000e61182d565b5061000e611752565b5061000e611728565b5061000e6116ad565b5061000e61168e565b5061000e61166f565b5061000e611557565b5061000e61144c565b5061000e61142d565b5061000e611363565b5061000e6112f1565b5061000e6112cd565b5061000e611213565b5061000e611190565b5061000e611166565b5061000e611147565b5061000e611080565b5061000e610e7d565b5061000e610d97565b5061000e610d10565b5061000e610c5f565b5061000e610b45565b5061000e610a81565b5061000e61099d565b5061000e610608565b5061000e610426565b5061000e6103cb565b600435906001600160a01b038216820361000e57565b602435906001600160a01b038216820361000e57565b35906001600160a01b038216820361000e57565b503461000e57604036600319011261000e576001600160a01b036103ed61038b565b16600052600260205260406000206024356000526020526020604060002054604051908152f35b6001600160e01b031981160361000e57565b503461000e57602036600319011261000e57602060043561044681610414565b63ffffffff60e01b166301ffc9a760e01b811490811561049c575b811561048b575b811561047a575b506040519015158152f35b63152a902d60e11b1490503861046f565b6303a24d0760e21b81149150610468565b636cdb3d1360e11b81149150610461565b50634e487b7160e01b600052604160045260246000fd5b61016081019081106001600160401b038211176104e057604052565b6104e86104ad565b604052565b604081019081106001600160401b038211176104e057604052565b60a081019081106001600160401b038211176104e057604052565b606081019081106001600160401b038211176104e057604052565b602081019081106001600160401b038211176104e057604052565b90601f801991011681019081106001600160401b038211176104e057604052565b60405190610587826104c4565b565b6020906001600160401b0381116105a6575b601f01601f19160190565b6105ae6104ad565b61059b565b9291926105bf82610589565b916105cd6040519384610559565b82948184528183011161000e578281602093846000960137010152565b9080601f8301121561000e57816020610605933591016105b3565b90565b503461000e5760a036600319011261000e576001600160401b0360043581811161000e5761063a9036906004016105ea565b60843582811161000e5761065561065b9136906004016105ea565b33612aac565b601054906040519061066c82610508565b82825260209081830190815260408301602435815260608401916044358352608085019360643585526000968752600e8152604087209551865560019081870192518051998a1161079d575b6106cc8a6106c686546107aa565b8661303d565b81601f8b1160011461072f575098809281928a9b60049a9b94610724575b50501b916000199060031b1c19161790555b5160028501555160038401555191015561071f61071a601054612da0565b601055565b604051f35b0151925038806106ea565b909991601f1983169a61074786600052602060002090565b928b905b8d82106107865750508360049a9b9c1061076d575b505050811b0190556106fc565b015160001960f88460031b161c19169055388080610760565b80878596829496860151815501950193019061074b565b6107a56104ad565b6106b8565b90600182811c921680156107da575b60208310146107c457565b634e487b7160e01b600052602260045260246000fd5b91607f16916107b9565b60405190600082600554916107f8836107aa565b8083529260019081811690811561086c575060011461081f575b5061058792500383610559565b6005600090815291506000805160206151db8339815191525b8483106108515750610587935050810160200138610812565b81935090816020925483858a01015201910190918592610838565b90506020925061058794915060ff191682840152151560051b82010138610812565b90604051918260008254926108a2846107aa565b90818452600194858116908160001461090f57506001146108cc575b505061058792500383610559565b9093915060005260209081600020936000915b8183106108f7575050610587935082010138806108be565b855488840185015294850194879450918301916108df565b91505061058794506020925060ff191682840152151560051b82010138806108be565b918091926000905b82821061095257501161094b575050565b6000910152565b9150806020918301518186015201829161093a565b9060209161098081518092818552858086019101610932565b601f01601f1916010190565b906020610605928181520190610967565b503461000e57600080600319360112610a7e57604051908080546109c0816107aa565b80855291600191808316908115610a5457506001146109fa575b6109f6856109ea81870382610559565b6040519182918261098c565b0390f35b80809450527f290decd9548b62a8d60345a988386fc84ba6bc95484008f6362f93160ef3e5635b828410610a3c5750505081016020016109ea826109f66109da565b80546020858701810191909152909301928101610a21565b8695506109f6969350602092506109ea94915060ff191682840152151560051b82010192936109da565b80fd5b503461000e57602036600319011261000e576109f6610aa1600435612945565b604051918291602083526020830190610967565b6106059060208152825160208201526020830151610ae161016091826040850152610180840190610967565b6040850151151560608401529360608101516080840152608081015160a084015260a081015160c084015260c081015160e084015260e081015161010090818501528101516101209081850152810151906101409182850152015191019015159052565b503461000e57602036600319011261000e576109f6604051610b66816104c4565b610c53600091828152606060208201528260408201528260608201528260808201528260a08201528260c08201528260e0820152610c4b600a610100948086850152604061012091808387015280610140809701526004358152600f6020522090610bcf61057a565b9682548852610be06001840161088e565b6020890152610bff610bf6600285015460ff1690565b151560408a0152565b6003830154606089015260048301546080890152600583015460a0890152600683015460c0890152600783015460e0890152600883015490880152600982015490870152015460ff1690565b151590830152565b60405191829182610ab5565b503461000e57602036600319011261000e57610c7961038b565b6006546001600160a01b03808216919033839003610cd6576000931680916bffffffffffffffffffffffff60a01b1617600655604051917f8292fce18fa69edf4db7b94ea2e58241df0ae57f97e0a6c9b29067028bf92d768484a3f35b60405162461bcd60e51b815260206004820152600e60248201526d139bdd08185d5d1a1bdc9a5e995960921b6044820152606490fd5b0390fd5b503461000e57602036600319011261000e57600435600954811015610d625760209060096000527f6e1540171b6c0c960b71a7020d9f60077f6af931a8bbf590da0223dacf75c7af0154604051908152f35b60405162461bcd60e51b815260206004820152600d60248201526c092dcecc2d8d2c840d2dcc8caf609b1b6044820152606490fd5b503461000e57604036600319011261000e57604061ffff612710602435610dbf600435614004565b90931690801515600019829004831116610dec575b84516001600160a01b03909416845202046020820152f35b610df4612a3d565b610dd4565b6020906001600160401b038111610e12575b60051b0190565b610e1a6104ad565b610e0b565b81601f8201121561000e57803591610e3683610df9565b92610e446040519485610559565b808452602092838086019260051b82010192831161000e578301905b828210610e6e575050505090565b81358152908301908301610e60565b503461000e5760a036600319011261000e57610e9761038b565b610e9f6103a1565b6001600160401b039160443583811161000e57610ec0903690600401610e1f565b9260643581811161000e57610ed9903690600401610e1f565b9060843590811161000e57610ef29036906004016105ea565b6001600160a01b0383811694919033861480159081611068575b90611045575b610f1b90612e57565b610f288751855114612d62565b8216610f35811515612e98565b610f4184888588612f29565b60005b8751811015610fff5780610f5b610ffa928a612c76565b51610ff3610feb610f6c848a612c76565b51928a610fcd82610f9787610fa683610f978760018060a01b03166000526002602052604060002090565b90600052602052604060002090565b54610fb382821015612ed3565b039360018060a01b03166000526002602052604060002090565b556001600160a01b0389166000908152600260205260409020610f97565b918254612a8d565b9055612da0565b610f44565b5061104396939491956040517f4a39dc06d4c0dbc64b70af90fd698a233a518aa5d07e595d983b8c0526c8f7fb33918061103a8a8a83612fb9565b0390a433613b4c565b005b50600086815260036020908152604080832033845290915290205460ff16610f12565b61107133613f38565b610f0c565b8015150361000e57565b503461000e57602036600319011261000e5760043561109e81611076565b6006546001600160a01b031633036110ee5760207f38475885990d8dfe9ca01f0ef160a1b5514426eab9ddbc953a3353410ba7809691151560ff19600b541660ff821617600b55604051908152a1005b60405162461bcd60e51b815260206004820152602b60248201527f4e6f7420617574686f72697a656420746f20736574206f70657261746f72207260448201526a32b9ba3934b1ba34b7b71760a91b6064820152608490fd5b503461000e57600036600319011261000e576020600c54604051908152f35b503461000e57600036600319011261000e5760206040516daaeb6d7670e522a718067333cd4e8152f35b503461000e57602036600319011261000e576111ad600435614004565b604080516001600160a01b0393909316835261ffff91909116602083015290f35b90815180825260208080930193019160005b8281106111ee575050505090565b8351855293810193928101926001016111e0565b9060206106059281815201906111ce565b503461000e57604036600319011261000e576004356001600160401b0380821161000e573660238301121561000e57816004013561125081610df9565b9261125e6040519485610559565b81845260209160248386019160051b8301019136831161000e57602401905b8282106112b6578560243586811161000e576109f6916112a46112aa923690600401610e1f565b90612db0565b60405191829182611202565b8380916112c2846103b7565b81520191019061127d565b503461000e57600036600319011261000e57602060ff600b54166040519015158152f35b503461000e57602036600319011261000e57600435600052600e602052604060002080546113216001830161088e565b91600281015490600460038201549101549061134f604051958695865260a0602087015260a0860190610967565b926040850152606084015260808301520390f35b503461000e57604036600319011261000e5761137d61038b565b600654602435916001600160a01b039182163303610cd65761271083116113f657600780546001600160b01b0319169190921690811760a084901b61ffff60a01b1617909155604051918252907f90d7ec04bcb8978719414f82e52e4cb651db41d0e6f8cea6118c2191e6183adb9080602081010390a2005b60405162461bcd60e51b815260206004820152600f60248201526e45786365656473206d61782062707360881b6044820152606490fd5b503461000e57600036600319011261000e576020600954604051908152f35b503461000e57600036600319011261000e576114c160405161146d816104ed565b600b81526a5374756e2041747461636b60a81b602082015260405190611492826104ed565b601b82527f68747470733a2f2f6578616d706c652e636f6d2f736b696c6c2f300000000000602083015261429e565b6114da6114cc614f2d565b6114d4614f51565b906143ec565b6114f36114e5614f8a565b6114ed614fb3565b90614515565b61150c6114fe614fec565b611506615016565b9061463e565b61152561151761504f565b61151f615077565b90614767565b61153e6115306150b0565b6115386150d9565b90614890565b611043611549615112565b61155161513e565b906149b7565b503461000e57606036600319011261000e5761157161038b565b6001600160401b0360243581811161000e57611591903690600401610e1f565b9060443590811161000e576115aa903690600401610e1f565b906001600160a01b0383163381148015611648575b6115c99150612c98565b6115d68151835114612d24565b60005b815181101561163e57611639906116346116216116088760018060a01b03166000526002602052604060002090565b6116128487612c76565b51600052602052604060002090565b5461162c8387612c76565b511115612cd8565b612a54565b6115d9565b50611043926134f8565b5060009081526003602090815260408083203384529091529020546115c99060ff166115bf565b503461000e57600036600319011261000e576020601054604051908152f35b503461000e57600036600319011261000e576020601154604051908152f35b503461000e57602036600319011261000e5760405160208101904282526004356040820152604081526116df81610523565b519020601054801561171257600191066001198111611705575b60405191018152602090f35b61170d612a3d565b6116f9565b634e487b7160e01b600052601260045260246000fd5b503461000e57600036600319011261000e576006546040516001600160a01b039091168152602090f35b503461000e576101408060031936011261000e57600435906001600160401b03821161000e5761181861178c61181d9336906004016105ea565b916044359061179a82611076565b610124356117a781611076565b60115492604051956117b8876104c4565b8487526020870152151560408601526024356060860152606435608086015260843560a086015260a43560c086015260c43560e086015260e43561010086015261010435610120860152151590840152600052600f602052604060002090565b614ae0565b611828601154612da0565b601155005b503461000e5760208060031936011261000e576001600160401b039060043582811161000e576118619036906004016105ea565b6006549091906001600160a01b03163303610cd65761187e6107e4565b90825193841161199e575b61189d846118986005546107aa565b612fde565b80601f851160011461190a575092807fc9c7c3fe08b88b4df9d4d47ef47d2c43d55c025a0ba88ca442580ed9e7348a16946000916118ff575b508160011b916000199060031b1c1916176005555b6118fa60405192839283613e3c565b0390a1005b9050830151386118d6565b600560005290601f1985166000805160206151db833981519152926000905b8282106119865750509185917fc9c7c3fe08b88b4df9d4d47ef47d2c43d55c025a0ba88ca442580ed9e7348a16966001941061196d575b5050811b016005556118eb565b85015160001960f88460031b161c191690553880611960565b80600185968294968a01518155019501930190611929565b6119a66104ad565b611889565b503461000e57608036600319011261000e576119c561038b565b6001600160401b0360243581811161000e576119e5903690600401610e1f565b60443582811161000e576119fd903690600401610e1f565b9160643590811161000e5790611a18849236906004016105ea565b91611a2e60018060a01b036006541633146129b8565b611a3a84511515612bdd565b611a478251855114612c20565b600c54600094859291805b8551851015611ab757600019611a688688612c76565b5103611a9c57611a8f611a8982611a9593611a83898b612c76565b52612a54565b98612a54565b94612a54565b9396611a52565b96938061163489611ab0611a95948a612c76565b5110612a04565b91949350611ad292956110439780611ae0575b505050600c55565b611ada612a99565b92613384565b611ae992613d13565b88611aca565b503461000e57600080600319360112610a7e5760405190806001805491611b15836107aa565b80865292828116908115610a545750600114611b3b576109f6856109ea81870382610559565b92508083527fb10e2d527612073b26eecdfd717e6a320cf44b4afac2b0732d9fcbe2b7fa0cf65b828410611b7d5750505081016020016109ea826109f66109da565b80546020858701810191909152909301928101611b62565b503461000e57600036600319011261000e57611bcc604051611bb6816104ed565b600481526329ba3ab760e11b6020820152614b88565b611bfd604051611bdb816104ed565b601081526f44616d616765204f7665722054696d6560801b6020820152614c03565b611c2b604051611c0c816104ed565b600d81526c5265647563652041747461636b60981b6020820152614c6e565b611c3b611c36614e88565b614cd9565b611c4b611c46614eb2565b614d44565b611c5b611c56614eda565b614db0565b611043611c66614f04565b614e1c565b503461000e57606036600319011261000e57600435611c886103a1565b6006546001600160a01b0392916044359184163303610cd65761271082116113f6577f7365cf4122f072a3365c20d54eff9b38d73c096c28e1892ec8f5b0e403a0f12d91611d379160018660405192611ce0846104ed565b1696878352611d2360208401918583528860005260086020526040600020945116849060018060a01b03166bffffffffffffffffffffffff60a01b825416179055565b519101556040519081529081906020820190565b0390a3005b503461000e57604036600319011261000e57611d5661038b565b602435611d6281611076565b611d6b82613f38565b6001600160a01b03821691338314611df15781611daa611dbb9233600052600360205260406000209060018060a01b0316600052602052604060002090565b9060ff801983541691151516179055565b604051901515815233907f17307eab39ab6107e8899845ad3d59bd9653f200f220920489ca2b5937696c31908060208101611d37565b60405162461bcd60e51b815260206004820152600e60248201526d20a8282927ab24a723afa9a2a62360911b6044820152606490fd5b602080820190808352835180925260408301928160408460051b8301019501936000915b848310611e5b5750505050505090565b9091929394958480611e79600193603f198682030187528a51610967565b9801930193019194939290611e4b565b503461000e57602036600319011261000e576001600160401b0360043581811161000e573660238201121561000e57806004013591821161000e573660248360051b8301011161000e576109f6916024611ee39201613e61565b60405191829182611e27565b503461000e57608036600319011261000e57611f0961038b565b602435604435916001600160401b039283811161000e57611f2e9036906004016105ea565b92611f4460018060a01b036006541633146129b8565b600c54906000199384811460001461206c57508193600119831161205f575b600192838101600c55600052602092600484526040600020938751938411612052575b611f9a84611f9487546107aa565b8761303d565b80601f8511600114611fe35750839291839161104399600095611fd8575b50501b9260031b1c19161790555b611fce612a99565b916064359161326f565b015193503880611fb8565b91939290601f19841698611ffc87600052602060002090565b936000905b8b821061203b575050846110439a10612023575b50505050811b019055611fc6565b01519060f88460031b161c1916905538808080612015565b808885978294968601518155019601930190612001565b61205a6104ad565b611f86565b612067612a3d565b611f63565b61104395508093945061208192915010612a04565b90611fc6565b503461000e57600036600319011261000e57600754604080516001600160a01b038316815260a09290921c61ffff16602083015290f35b503461000e5760a036600319011261000e576001600160401b0360043560243582811161000e576120f39036906004016105ea565b612101601054831115615177565b600092828452602090600e8252600191826040872001938051928311612229575b61213083611f9487546107aa565b81601f84116001146121bd575092829391839288946121b2575b50501b916000199060031b1c19161790555b604435600261217583600052600e602052604060002090565b0155606435600361219083600052600e602052604060002090565b015560046121ab60843592600052600e602052604060002090565b0155604051f35b01519250388061214a565b919083601f1981166121d488600052602060002090565b948a905b8883831061220f57505050106121f6575b505050811b01905561215c565b015160001960f88460031b161c191690553880806121e9565b8587015188559096019594850194879350908101906121d8565b6122316104ad565b612122565b503461000e57602036600319011261000e57600435600052600d6020526020604060002054604051908152f35b602081528151602082015260a0608061228a602085015183604086015260c0850190610967565b9360408101516060850152606081015182850152015191015290565b503461000e57602036600319011261000e576109f6604080608081516122cb81610508565b600091818380935260606020820152828582015282606082015201526004358152600e6020522090600481519261230184610508565b805484526123116001820161088e565b602085015260028101548385015260038101546060850152015460808301525191829182612263565b503461000e57604036600319011261000e576004356123576103a1565b8115612385575b6110439161236f6010548210615177565b6040519161237c8361053e565b6000835261316d565b60105461235e5760405162461bcd60e51b815260206004820152601460248201527314dada5b1b08191bd95cc81b9bdd08195e1a5e1d60621b6044820152606490fd5b999693906101409996939c9b9895926123f0918c5260208c61016091829101528c0190610967565b9b151560408b015260608a0152608089015260a088015260c087015260e08601526101008501526101208401521515910152565b503461000e57602036600319011261000e57600435600052600f602052604060002080546109f66124576001840161088e565b9260ff6002820154169060038101546004820154600583015460068401549060078501549260088601549460ff600a600989015498015416976040519b8c9b8c6123c8565b503461000e57600080600319360112610a7e5760405190806005546124c0816107aa565b80855291600191808316908115610a5457506001146124e9576109f6856109ea81870382610559565b9250600583526000805160206151db8339815191525b82841061251a5750505081016020016109ea826109f66109da565b805460208587018101919091529093019281016124ff565b503461000e57604036600319011261000e57602060ff61258461255361038b565b61255b6103a1565b6001600160a01b0391821660009081526003865260408082209290931681526020919091522090565b54166040519015158152f35b503461000e5760a036600319011261000e576125aa61038b565b6125b26103a1565b6064356044356084356001600160401b03811161000e576125d79036906004016105ea565b6001600160a01b038581169591949190338714801590816127af575b9061278c575b61260290612e57565b82168015966126118815612e98565b61261a85613bb8565b61262387613bb8565b988215612741575b6126dd575b5061104397508561265786610f978660018060a01b03166000526002602052604060002090565b5461266482821015612ed3565b0361268586610f978660018060a01b03166000526002602052604060002090565b556001600160a01b03841660009081526002602052604090206126a9908690610f97565b6126b4878254612a8d565b9055604080518681526020810188905233916000805160206151bb83398151915291a4336139c0565b959391600097959391975b875181101561272e57806126ff612729928c612c76565b51610ff3612721612710848d612c76565b51600052600d602052604060002090565b918254612f12565b6126e8565b5091939550919395611043975038612630565b97959391600097959391975b8a895182101561277c579089610ff3610feb612710846127708161277798612c76565b5194612c76565b61274d565b505091939597969092949661262b565b50600087815260036020908152604080832033845290915290205460ff166125f9565b6127b833613f38565b6125f3565b503461000e57606036600319011261000e576127d761038b565b602435906044356001600160a01b0382163381148015612922575b6127fb90612c98565b6000908082526002602052604082208583526020526128208360408420541015612cd8565b80159461282d86156134bb565b61283681613bb8565b9361284081613bb8565b968460405161284e8161053e565b526128e5575b835b8551811015612883578061286d61287e928a612c76565b51610ff3612721612710848b612c76565b612856565b508394506128dd6000805160206151bb83398151915291876128c385610f9784610fa683610f978760018060a01b03166000526002602052604060002090565b556040805194855260208501919091523393918291820190565b0390a4604051f35b94929190825b85518110156129185780612902612913928a612c76565b51610ff3610feb612710848b612c76565b6128eb565b5090919294612854565b50600081815260036020908152604080832033845290915290205460ff166127f2565b8060005260206004815261295c604060002061088e565b80516129b257506106059061297961297384613c22565b936141c6565b9260405193816129928693518092868087019101610932565b82016129a682518093868085019101610932565b01038084520182610559565b91505090565b156129bf57565b60405162461bcd60e51b815260206004820152601760248201527f4e6f7420617574686f72697a656420746f206d696e742e0000000000000000006044820152606490fd5b15612a0b57565b60405162461bcd60e51b815260206004820152600a6024820152691a5b9d985b1a59081a5960b21b6044820152606490fd5b50634e487b7160e01b600052601160045260246000fd5b6001906001198111612a64570190565b612a6c612a3d565b0190565b8019603011612a80575b60300190565b612a88612a3d565b612a7a565b81198111612a64570190565b60405190612aa68261053e565b60008252565b919091612ac460018060a01b036006541633146129b8565b600c546001198111612bd0575b6001808201600c5581600052602090600482526040600020918651966001600160401b038811612bc3575b612b0a886106c686546107aa565b81601f8911600114612b54575096809281926105879899600094612b49575b50501b916000199060031b1c19161790555b612b43612a99565b9161316d565b015192503880612b29565b909791601f19831698612b6c86600052602060002090565b926000905b8b8210612bac57505083610587999a10612b93575b505050811b019055612b3b565b015160001960f88460031b161c19169055388080612b86565b808785968294968601518155019501930190612b71565b612bcb6104ad565b612afc565b612bd8612a3d565b612ad1565b15612be457565b60405162461bcd60e51b815260206004820152601460248201527326b4b73a34b733903d32b937903a37b5b2b7399760611b6044820152606490fd5b15612c2757565b60405162461bcd60e51b815260206004820152601060248201526f2632b733ba341036b4b9b6b0ba31b41760811b6044820152606490fd5b50634e487b7160e01b600052603260045260246000fd5b6020918151811015612c8b575b60051b010190565b612c93612c5f565b612c83565b15612c9f57565b60405162461bcd60e51b81526020600482015260116024820152702ab730b8383937bb32b21031b0b63632b960791b6044820152606490fd5b15612cdf57565b60405162461bcd60e51b815260206004820152601760248201527f4e6f7420656e6f75676820746f6b656e73206f776e65640000000000000000006044820152606490fd5b15612d2b57565b60405162461bcd60e51b815260206004820152600f60248201526e098cadccee8d040dad2e6dac2e8c6d608b1b6044820152606490fd5b15612d6957565b60405162461bcd60e51b815260206004820152600f60248201526e0988a9c8ea890be9a92a69a82a8869608b1b6044820152606490fd5b6001906000198114612a64570190565b919091612dc08151845114612d62565b805192612dcc84610df9565b91604094612ddc86519485610559565b808452612deb601f1991610df9565b0190602091368386013760005b8151811015612e4e57612e49906001600160a01b03612e178285612c76565b51166000526002845287600020612e2e8287612c76565b5160005284528760002054612e438288612c76565b52612da0565b612df8565b50929450505050565b15612e5e57565b60405162461bcd60e51b81526020600482015260126024820152710853d5d3915497d3d497d054141493d5915160721b6044820152606490fd5b15612e9f57565b60405162461bcd60e51b815260206004820152600c60248201526b2a27afad22a927afa0a2222960a11b6044820152606490fd5b15612eda57565b60405162461bcd60e51b815260206004820152601060248201526f125394d551919250d251539517d0905360821b6044820152606490fd5b818110612f1d570390565b612f25612a3d565b0390565b9293926001600160a01b039190821615612f7f575b1615612f4957509050565b60005b8151811015612f795780612f63612f749286612c76565b51610ff36127216127108487612c76565b612f4c565b50509050565b929060005b8351811015612fb15780612f9b612fac9288612c76565b51610ff3610feb6127108489612c76565b612f84565b509092612f3e565b9091612fd0610605936040845260408401906111ce565b9160208184039101526111ce565b601f8111612fea575050565b600090600582526000805160206151db833981519152906020601f850160051c83019410613033575b601f0160051c01915b82811061302857505050565b81815560010161301c565b9092508290613013565b90601f811161304b57505050565b600091825260208220906020601f850160051c83019410613087575b601f0160051c01915b82811061307c57505050565b818155600101613070565b9092508290613067565b91909182516001600160401b038111613160575b6130b9816130b384546107aa565b8461303d565b602080601f83116001146130f55750819293946000926130ea575b50508160011b916000199060031b1c1916179055565b0151905038806130d4565b90601f1983169561310b85600052602060002090565b926000905b8882106131485750508360019596971061312f575b505050811b019055565b015160001960f88460031b161c19169055388080613125565b80600185968294968601518155019501930190613110565b6131686104ad565b6130a5565b6001600160a01b03811693841593919290919061318a8515612e98565b61319381613bb8565b9361319c613b86565b9660005b86518110156131cd57806131b76131c8928b612c76565b51610ff3610feb612710848c612c76565b6131a0565b5091939594909294613238575b5061058794955061320183610f978460018060a01b03166000526002602052604060002090565b61320b8154612a54565b9055604080518481526001602082015260009133916000805160206151bb8339815191529190a4336137b5565b93916000959391955b855181101561325d578061286d613258928a612c76565b613241565b509193509194506105879385946131da565b6001600160a01b038116948515949193909261328b8615612e98565b61329481613bb8565b9461329e83613bb8565b9760005b87518110156132cf57806132b96132ca928c612c76565b51610ff3610feb612710848d612c76565b6132a2565b509193959092949661333b575b5061058795965061330383610f978460018060a01b03166000526002602052604060002090565b61330e858254612a8d565b9055604080518481526020810186905260009133916000805160206151bb8339815191529190a4336138ec565b94929095939160005b8651811015613371578061335b61336c928b612c76565b51610ff3612721612710848c612c76565b613344565b50919396509193506105879486956132dc565b6001600160a01b0381169485159492939261339f8615612e98565b6133ac8551855114612d62565b60005b85518110156133cb57806129026133c69287612c76565b6133af565b50909194613464575b60005b845181101561341e57806133ee6134199286612c76565b516001600160a01b0388166000908152600260205260409020610ff390610feb90611612858b612c76565b6133d7565b50929094936105879460006040517f4a39dc06d4c0dbc64b70af90fd698a233a518aa5d07e595d983b8c0526c8f7fb33918061345b898983612fb9565b0390a433613b15565b939060005b84518110156134b357806134806134a19286612c76565b5161348e6127108389612c76565b9081548181106134a6575b039055612da0565b613469565b6134ae612a3d565b613499565b5090936133d4565b156134c257565b60405162461bcd60e51b815260206004820152600e60248201526d232927a6afad22a927afa0a2222960911b6044820152606490fd5b9192916001600160a01b03811690811561351281156134bb565b61351f8451875114612d62565b613527612a99565b5061361f575b60005b835181101561355a57806135476135559288612c76565b5161348e6127108388612c76565b613530565b5091909260005b82518110156135e057806135786135db9285612c76565b516135d5613586838a612c76565b516001600160a01b03881660009081526002602052604090206135aa908490610f97565b546135b782821015612ed3565b0391610f978860018060a01b03166000526002602052604060002090565b55612da0565b613561565b5093600093925061361a7f4a39dc06d4c0dbc64b70af90fd698a233a518aa5d07e595d983b8c0526c8f7fb91604051918291339583612fb9565b0390a4565b929060005b83518110156136405780612f9b61363b9288612c76565b613624565b50909261352d565b9081602091031261000e575161060581610414565b610605939260a092600180851b03168252600060208301526040820152600160608201528160808201520190610967565b909260a0926106059594600180861b0316835260006020840152604083015260608201528160808201520190610967565b919261060595949160a094600180871b038092168552166020840152604083015260608201528160808201520190610967565b506040513d6000823e3d90fd5b60609060208152600f60208201526e1513d2d15394d7d491529150d51151608a1b60408201520190565b60009060033d1161373657565b905060046000803e60005160e01c90565b600060443d1061060557604051600319913d83016004833e81516001600160401b03918282113d6024840111176137a4578184019485519384116137ac573d850101602084870101116137a4575061060592910160200190610559565b949350505050565b50949350505050565b92919091823b6137c6575b50505050565b6137ed92602092600060405180968195829463f23a6e6160e01b9a8b85526004850161365d565b03926001600160a01b03165af1600091816138bc575b506138945750506001613814613729565b6308c379a014613865575b61382d575b388080806137c0565b60405162461bcd60e51b815260206004820152601060248201526f10a2a92198989a9aa922a1a2a4ab22a960811b6044820152606490fd5b61386d613747565b80613878575061381f565b60405162461bcd60e51b8152908190610d0c906004830161098c565b6001600160e01b031916146138245760405162461bcd60e51b815280610d0c600482016136ff565b6138de91925060203d81116138e5575b6138d68183610559565b810190613648565b9038613803565b503d6138cc565b9390803b6138fc575b5050505050565b6139249360006020946040519687958694859363f23a6e6160e01b9b8c86526004860161368e565b03926001600160a01b03165af1600091816139a0575b50613978575050600161394b613729565b6308c379a014613965575b61382d575b38808080806138f5565b61396d613747565b806138785750613956565b6001600160e01b0319161461395b5760405162461bcd60e51b815280610d0c600482016136ff565b6139b991925060203d81116138e5576138d68183610559565b903861393a565b9493919092813b6139d4575b505050505050565b60006020946139fb6040519788968795869463f23a6e6160e01b9c8d8752600487016136bf565b03926001600160a01b03165af160009181613a78575b50613a505750506001613a22613729565b6308c379a014613a3d575b61382d575b3880808080806139cc565b613a45613747565b806138785750613a2d565b6001600160e01b03191614613a325760405162461bcd60e51b815280610d0c600482016136ff565b613a9191925060203d81116138e5576138d68183610559565b9038613a11565b92613ac76106059593613ad59360018060a01b031686526000602087015260a0604087015260a08601906111ce565b9084820360608601526111ce565b916080818403910152610967565b93906106059593613ac791613ad59460018060a01b03809216885216602087015260a0604087015260a08601906111ce565b9390803b613b24575050505050565b6139249360006020946040519687958694859363bc197c8160e01b9b8c865260048601613a98565b9493919092813b613b5f57505050505050565b60006020946139fb6040519788968795869463bc197c8160e01b9c8d875260048701613ae3565b604051613b92816104ed565b600181526001602082016020368237825115613bac575290565b613bb4612c5f565b5290565b60405190613bc5826104ed565b60018252602082016020368237825115613bac575290565b600954811015613c15575b60096000527f6e1540171b6c0c960b71a7020d9f60077f6af931a8bbf590da0223dacf75c7af0190600090565b613c1d612c5f565b613be8565b60095490604051908183815282602080920160096000527f6e1540171b6c0c960b71a7020d9f60077f6af931a8bbf590da0223dacf75c7af9260005b878110613cfc575050613c7392500383610559565b60005b838110613cb45760405162461bcd60e51b815260206004820152600f60248201526e125b9d985b1a59081d1bdad95b9259608a1b6044820152606490fd5b613cbe8184612c76565b518210613cd357613cce90612a54565b613c76565b6106059350613ce69150613cf792612c76565b51600052600a602052604060002090565b61088e565b845483526001948501948794509282019201613c5e565b90613d2091939293612a8d565b90819260095468010000000000000000811015613e2f575b613d6884613d4d600193848101600955613bdd565b90919082549060031b600019811b9283911b16911916179055565b83600052602091600a83526040600020928151916001600160401b038311613e22575b613d9983611f9487546107aa565b81601f8411600114613dd25750928293918392600094613dc7575b50501b916000199060031b1c1916179055565b015192503880613db4565b919083601f198116613de988600052602060002090565b946000905b88838310613e08575050501061312f57505050811b019055565b858701518855909601959485019487935090810190613dee565b613e2a6104ad565b613d8b565b613e376104ad565b613d38565b9091613e5361060593604084526040840190610967565b916020818403910152610967565b90613e6b81610df9565b91613e796040519384610559565b818352601f19613e8883610df9565b0160005b818110613f1257505060005b828110613ea55750505090565b8060051b820135601e198336030181121561000e578201908135916001600160401b03831161000e57602001823603811361000e57613eec613ef291613f0d9436916105b3565b3061407d565b613efc8287612c76565b52613f078186612c76565b50612da0565b613e98565b806060602080938801015201613e8c565b9081602091031261000e575161060581611076565b600b5460ff16613f455750565b6daaeb6d7670e522a718067333cd4e803b613f5e575050565b604051633185c44d60e21b81523060048201526001600160a01b038316602482015290602090829060449082905afa908115613ff7575b600091613fc9575b5015613fa65750565b604051633b79c77360e21b81526001600160a01b03919091166004820152602490fd5b613fea915060203d8111613ff0575b613fe28183610559565b810190613f23565b38613f9d565b503d613fd8565b613fff6136f2565b613f95565b6000526008602052604060002090602060405192604084018481106001600160401b03821117614070575b60405280546001600160a01b03908116808652600190920154929094018290528061406757505061ffff6007549283169260a01c1690565b925061ffff1690565b6140786104ad565b61402f565b906040519061408b82610523565b602782527f416464726573733a206c6f772d6c6576656c2064656c65676174652063616c6c6020830152660819985a5b195960ca1b6040830152823b15614113576000816106059460208394519201905af43d1561410b573d906140ee82610589565b916140fc6040519384610559565b82523d6000602084013e614167565b606090614167565b60405162461bcd60e51b815260206004820152602660248201527f416464726573733a2064656c65676174652063616c6c20746f206e6f6e2d636f6044820152651b9d1c9858dd60d21b6064820152608490fd5b90919015614173575090565b8151156141835750805190602001fd5b60405162461bcd60e51b815260206004820152908190610d0c906024830190610967565b9060209180518210156141b957010190565b6141c1612c5f565b010190565b801561428057806000908282935b61426c57506141e283610589565b926141f06040519485610559565b80845281601f1961420083610589565b013660208701375b6142125750505090565b6001811061425f575b6000190190600a9061424a61423a614234848406612a70565b60ff1690565b60f81b6001600160f81b03191690565b841a61425684876141a7565b53049081614208565b614267612a3d565b61421b565b92614278600a91612da0565b9304806141d4565b5060405161428d816104ed565b60018152600360fc1b602082015290565b91906142aa9033612aac565b601054604051906142ba82610508565b80825260209384830190815260408301600a815260608401916005835260808501936000908186528152600e8852604081209551865560019788870192518051926001600160401b0384116143df575b61431884611f9487546107aa565b82601f85116001146143705750998392839260049a9b9c94614365575b50501b916000199060031b1c19161790555b5160028501555160038401555191015561058761071a601054612da0565b015192503880614335565b9a93929091601f1984169b61438a87600052602060002090565b93905b8d82106143c85750508360049a9b9c106143af575b505050811b019055614347565b015160001960f88460031b161c191690553880806143a2565b80878596829496860151815501950193019061438d565b6143e76104ad565b61430a565b91906143f89033612aac565b6010546040519061440882610508565b80825260209384830190815260408301601481526060840191600a83526080850193600190818652600052600e88526040600020955186558086019151978851986001600160401b038a11614508575b6144668a6106c686546107aa565b81601f8b116001146144b3575098809281926004999a9b6000946143655750501b916000199060031b1c19161790555160028501555160038401555191015561058761071a601054612da0565b909991601f1983169a6144cb86600052602060002090565b926000905b8d82106144f15750508360049a9b9c106143af57505050811b019055614347565b8087859682949686015181550195019301906144d0565b6145106104ad565b614458565b91906145219033612aac565b6010546040519061453182610508565b80825260209384830190815260408301600f8152606084019160058352608085019360028552600052600e875260406000209451855560018086019151978851986001600160401b038a11614631575b61458f8a6106c686546107aa565b81601f8b116001146145dc575098809281926004999a9b6000946143655750501b916000199060031b1c19161790555160028501555160038401555191015561058761071a601054612da0565b909991601f1983169a6145f486600052602060002090565b926000905b8d821061461a5750508360049a9b9c106143af57505050811b019055614347565b8087859682949686015181550195019301906145f9565b6146396104ad565b614581565b919061464a9033612aac565b6010546040519061465a82610508565b80825260209384830190815260408301600f8152606084019160058352608085019360038552600052600e875260406000209451855560018086019151978851986001600160401b038a1161475a575b6146b88a6106c686546107aa565b81601f8b11600114614705575098809281926004999a9b6000946143655750501b916000199060031b1c19161790555160028501555160038401555191015561058761071a601054612da0565b909991601f1983169a61471d86600052602060002090565b926000905b8d82106147435750508360049a9b9c106143af57505050811b019055614347565b808785968294968601518155019501930190614722565b6147626104ad565b6146aa565b91906147739033612aac565b6010546040519061478382610508565b80825260209384830190815260408301601981526060840191600a8352608085019360048552600052600e875260406000209451855560018086019151978851986001600160401b038a11614883575b6147e18a6106c686546107aa565b81601f8b1160011461482e575098809281926004999a9b6000946143655750501b916000199060031b1c19161790555160028501555160038401555191015561058761071a601054612da0565b909991601f1983169a61484686600052602060002090565b926000905b8d821061486c5750508360049a9b9c106143af57505050811b019055614347565b80878596829496860151815501950193019061484b565b61488b6104ad565b6147d3565b919061489c9033612aac565b601054604051906148ac82610508565b808252602093848301908152604083016000918282526060850192600a84526080860194600586528152600e8852604081209551865560019788870192518051926001600160401b0384116149aa575b61490a84611f9487546107aa565b82601f85116001146149555750998392839260049a9b9c946143655750501b916000199060031b1c19161790555160028501555160038401555191015561058761071a601054612da0565b9a93929091601f1984169b61496f87600052602060002090565b93905b8d82106149935750508360049a9b9c106143af57505050811b019055614347565b808785968294968601518155019501930190614972565b6149b26104ad565b6148fc565b91906149c39033612aac565b601054604051906149d382610508565b80825260209384830190815260408301600a8152606084019160058352608085019360068552600052600e875260406000209451855560018086019151978851986001600160401b038a11614ad3575b614a318a6106c686546107aa565b81601f8b11600114614a7e575098809281926004999a9b6000946143655750501b916000199060031b1c19161790555160028501555160038401555191015561058761071a601054612da0565b909991601f1983169a614a9686600052602060002090565b926000905b8d8210614abc5750508360049a9b9c106143af57505050811b019055614347565b808785968294968601518155019501930190614a9b565b614adb6104ad565b614a23565b600a614b756101406105879480518555614b01602082015160018701613091565b614b26614b116040830151151590565b600287019060ff801983541691151516179055565b606081015160038601556080810151600486015560a0810151600586015560c0810151600686015560e08101516007860155610100810151600886015561012081015160098601550151151590565b91019060ff801983541691151516179055565b614bf39061181860115460405192614b9f846104c4565b81845260208401526000806040850152600160608501528060808501528060a08501528060c08501528060e0850152806101008501526101208401526001610140840152600052600f602052604060002090565b614bfe601154612da0565b601155565b614bf39061181860115460405192614c1a846104c4565b81845260208401526000806040850152600360608501528060808501528060a08501528060c08501528060e085015280610100850152600a610120850152610140840152600052600f602052604060002090565b614bf39061181860115460405192614c85846104c4565b8184526020840152600080604085015260036060850152806080850152600a60a08501528060c08501528060e08501528061010085015280610120850152610140840152600052600f602052604060002090565b614bf39061181860115460405192614cf0846104c4565b81845260208401526000806040850152600360608501528060808501528060a08501528060c0850152600a60e08501528061010085015280610120850152610140840152600052600f602052604060002090565b614bf39061181860115460405192614d5b846104c4565b81845260208401526001604084015260036060840152600a608084015260008060a08501528060c08501528060e08501528061010085015280610120850152610140840152600052600f602052604060002090565b614bf39061181860115460405192614dc7846104c4565b8184526020840152600160408401526003606084015260008060808501528060a08501528060c08501528060e0850152600a61010085015280610120850152610140840152600052600f602052604060002090565b614bf39061181860115460405192614e33846104c4565b8184526020840152600160408401526003606084015260008060808501528060a0850152600a60c08501528060e08501528061010085015280610120850152610140840152600052600f602052604060002090565b60405190614e95826104ed565b600e82526d52656475636520446566656e736560901b6020830152565b60405190614ebf826104ed565b600c82526b426f6f73742041747461636b60a01b6020830152565b60405190614ee7826104ed565b600e82526d4865616c204f7665722054696d6560901b6020830152565b60405190614f11826104ed565b600d82526c111959995b9cd948109bdbdcdd609a1b6020830152565b60405190614f3a826104ed565b6008825267119a5c9958985b1b60c21b6020830152565b60405190614f5e826104ed565b601b82527f68747470733a2f2f6578616d706c652e636f6d2f736b696c6c2f3100000000006020830152565b60405190614f97826104ed565b600d82526c5765616b656e2041747461636b60981b6020830152565b60405190614fc0826104ed565b601b82527f68747470733a2f2f6578616d706c652e636f6d2f736b696c6c2f3200000000006020830152565b60405190614ff9826104ed565b600e82526d5765616b656e20446566656e736560901b6020830152565b60405190615023826104ed565b601b82527f68747470733a2f2f6578616d706c652e636f6d2f736b696c6c2f3300000000006020830152565b6040519061505c826104ed565b600c82526b506f77657220537472696b6560a01b6020830152565b60405190615084826104ed565b601b82527f68747470733a2f2f6578616d706c652e636f6d2f736b696c6c2f3400000000006020830152565b604051906150bd826104ed565b600d82526c1219585b1a5b99c814dc195b1b609a1b6020830152565b604051906150e6826104ed565b601b82527f68747470733a2f2f6578616d706c652e636f6d2f736b696c6c2f3500000000006020830152565b6040519061511f826104ed565b601082526f446566656e73697665205374616e636560801b6020830152565b6040519061514b826104ed565b601b82527f68747470733a2f2f6578616d706c652e636f6d2f736b696c6c2f3600000000006020830152565b1561517e57565b60405162461bcd60e51b815260206004820152601460248201527314dada5b1b08191bd95cc81b9bdd08195e1a5cdd60621b6044820152606490fdfec3d58168c5ae7397731d063d5bbf3d657854427343f4c083240f7aacaa2d0f62036b6384b5eca791c62761152d0c79bb0604c104a5fb6f4eb0703f3154bb3db0a2646970667358221220a45691eb229d28307722a75c84c3836bdeeab6ac23ba3299574438296419a12f64736f6c634300080f0033c3d58168c5ae7397731d063d5bbf3d657854427343f4c083240f7aacaa2d0f62b10e2d527612073b26eecdfd717e6a320cf44b4afac2b0732d9fcbe2b7fa0cf6544f4b454e535f52454a45435445440000000000000000000000000000000000",
  "linkReferences": {},
  "deployedLinkReferences": {}
}