{
  "_format": "hh-sol-artifact-1",
  "contractName": "BattleItems",
  "sourceName": "contracts/BattleItems.sol",
  "abi": [
    {
      "inputs": [],
      "stateMutability": "nonpayable",
      "type": "constructor"
    },
    {
      "inputs": [
        {
          "internalType": "address",
          "name": "operator",
          "type": "address"
        }
      ],
      "name": "OperatorNotAllowed",
      "type": "error"
    },
    {
      "anonymous": false,
      "inputs": [
        {
          "indexed": true,
          "internalType": "address",
          "name": "_owner",
          "type": "address"
        },
        {
          "indexed": true,
          "internalType": "address",
          "name": "_operator",
          "type": "address"
        },
        {
          "indexed": false,
          "internalType": "bool",
          "name": "_approved",
          "type": "bool"
        }
      ],
      "name": "ApprovalForAll",
      "type": "event"
    },
    {
      "anonymous": false,
      "inputs": [
        {
          "indexed": false,
          "internalType": "string",
          "name": "prevURI",
          "type": "string"
        },
        {
          "indexed": false,
          "internalType": "string",
          "name": "newURI",
          "type": "string"
        }
      ],
      "name": "ContractURIUpdated",
      "type": "event"
    },
    {
      "anonymous": false,
      "inputs": [
        {
          "indexed": true,
          "internalType": "address",
          "name": "newRoyaltyRecipient",
          "type": "address"
        },
        {
          "indexed": false,
          "internalType": "uint256",
          "name": "newRoyaltyBps",
          "type": "uint256"
        }
      ],
      "name": "DefaultRoyalty",
      "type": "event"
    },
    {
      "anonymous": false,
      "inputs": [
        {
          "indexed": true,
          "internalType": "uint256",
          "name": "itemId",
          "type": "uint256"
        },
        {
          "indexed": false,
          "internalType": "string",
          "name": "name",
          "type": "string"
        },
        {
          "indexed": false,
          "internalType": "uint256",
          "name": "attack",
          "type": "uint256"
        },
        {
          "indexed": false,
          "internalType": "uint256",
          "name": "defense",
          "type": "uint256"
        },
        {
          "indexed": false,
          "internalType": "uint256",
          "name": "health",
          "type": "uint256"
        },
        {
          "indexed": false,
          "internalType": "uint256",
          "name": "mana",
          "type": "uint256"
        },
        {
          "indexed": false,
          "internalType": "uint256",
          "name": "skill",
          "type": "uint256"
        },
        {
          "indexed": false,
          "internalType": "enum BattleItems.ItemType",
          "name": "itemType",
          "type": "uint8"
        }
      ],
      "name": "NewItem",
      "type": "event"
    },
    {
      "anonymous": false,
      "inputs": [
        {
          "indexed": false,
          "internalType": "bool",
          "name": "restriction",
          "type": "bool"
        }
      ],
      "name": "OperatorRestriction",
      "type": "event"
    },
    {
      "anonymous": false,
      "inputs": [
        {
          "indexed": true,
          "internalType": "address",
          "name": "prevOwner",
          "type": "address"
        },
        {
          "indexed": true,
          "internalType": "address",
          "name": "newOwner",
          "type": "address"
        }
      ],
      "name": "OwnerUpdated",
      "type": "event"
    },
    {
      "anonymous": false,
      "inputs": [
        {
          "indexed": true,
          "internalType": "uint256",
          "name": "tokenId",
          "type": "uint256"
        },
        {
          "indexed": true,
          "internalType": "address",
          "name": "royaltyRecipient",
          "type": "address"
        },
        {
          "indexed": false,
          "internalType": "uint256",
          "name": "royaltyBps",
          "type": "uint256"
        }
      ],
      "name": "RoyaltyForToken",
      "type": "event"
    },
    {
      "anonymous": false,
      "inputs": [
        {
          "indexed": true,
          "internalType": "address",
          "name": "_operator",
          "type": "address"
        },
        {
          "indexed": true,
          "internalType": "address",
          "name": "_from",
          "type": "address"
        },
        {
          "indexed": true,
          "internalType": "address",
          "name": "_to",
          "type": "address"
        },
        {
          "indexed": false,
          "internalType": "uint256[]",
          "name": "_ids",
          "type": "uint256[]"
        },
        {
          "indexed": false,
          "internalType": "uint256[]",
          "name": "_values",
          "type": "uint256[]"
        }
      ],
      "name": "TransferBatch",
      "type": "event"
    },
    {
      "anonymous": false,
      "inputs": [
        {
          "indexed": true,
          "internalType": "address",
          "name": "_operator",
          "type": "address"
        },
        {
          "indexed": true,
          "internalType": "address",
          "name": "_from",
          "type": "address"
        },
        {
          "indexed": true,
          "internalType": "address",
          "name": "_to",
          "type": "address"
        },
        {
          "indexed": false,
          "internalType": "uint256",
          "name": "_id",
          "type": "uint256"
        },
        {
          "indexed": false,
          "internalType": "uint256",
          "name": "_value",
          "type": "uint256"
        }
      ],
      "name": "TransferSingle",
      "type": "event"
    },
    {
      "anonymous": false,
      "inputs": [
        {
          "indexed": false,
          "internalType": "string",
          "name": "_value",
          "type": "string"
        },
        {
          "indexed": true,
          "internalType": "uint256",
          "name": "_id",
          "type": "uint256"
        }
      ],
      "name": "URI",
      "type": "event"
    },
    {
      "anonymous": false,
      "inputs": [
        {
          "indexed": true,
          "internalType": "uint256",
          "name": "itemId",
          "type": "uint256"
        },
        {
          "indexed": false,
          "internalType": "string",
          "name": "name",
          "type": "string"
        },
        {
          "indexed": false,
          "internalType": "uint256",
          "name": "attack",
          "type": "uint256"
        },
        {
          "indexed": false,
          "internalType": "uint256",
          "name": "defense",
          "type": "uint256"
        },
        {
          "indexed": false,
          "internalType": "uint256",
          "name": "health",
          "type": "uint256"
        },
        {
          "indexed": false,
          "internalType": "uint256",
          "name": "mana",
          "type": "uint256"
        },
        {
          "indexed": false,
          "internalType": "uint256",
          "name": "skill",
          "type": "uint256"
        }
      ],
      "name": "UpdatedItem",
      "type": "event"
    },
    {
      "inputs": [],
      "name": "OPERATOR_FILTER_REGISTRY",
      "outputs": [
        {
          "internalType": "contract IOperatorFilterRegistry",
          "name": "",
          "type": "address"
        }
      ],
      "stateMutability": "view",
      "type": "function"
    },
    {
      "inputs": [
        {
          "internalType": "address",
          "name": "",
          "type": "address"
        },
        {
          "internalType": "uint256",
          "name": "",
          "type": "uint256"
        }
      ],
      "name": "balanceOf",
      "outputs": [
        {
          "internalType": "uint256",
          "name": "",
          "type": "uint256"
        }
      ],
      "stateMutability": "view",
      "type": "function"
    },
    {
      "inputs": [
        {
          "internalType": "address[]",
          "name": "accounts",
          "type": "address[]"
        },
        {
          "internalType": "uint256[]",
          "name": "ids",
          "type": "uint256[]"
        }
      ],
      "name": "balanceOfBatch",
      "outputs": [
        {
          "internalType": "uint256[]",
          "name": "",
          "type": "uint256[]"
        }
      ],
      "stateMutability": "view",
      "type": "function"
    },
    {
      "inputs": [
        {
          "internalType": "address",
          "name": "_to",
          "type": "address"
        },
        {
          "internalType": "uint256[]",
          "name": "_tokenIds",
          "type": "uint256[]"
        },
        {
          "internalType": "uint256[]",
          "name": "_amounts",
          "type": "uint256[]"
        },
        {
          "internalType": "string",
          "name": "_baseURI",
          "type": "string"
        }
      ],
      "name": "batchMintTo",
      "outputs": [],
      "stateMutability": "nonpayable",
      "type": "function"
    },
    {
      "inputs": [
        {
          "internalType": "address",
          "name": "_owner",
          "type": "address"
        },
        {
          "internalType": "uint256",
          "name": "_tokenId",
          "type": "uint256"
        },
        {
          "internalType": "uint256",
          "name": "_amount",
          "type": "uint256"
        }
      ],
      "name": "burn",
      "outputs": [],
      "stateMutability": "nonpayable",
      "type": "function"
    },
    {
      "inputs": [
        {
          "internalType": "address",
          "name": "_owner",
          "type": "address"
        },
        {
          "internalType": "uint256[]",
          "name": "_tokenIds",
          "type": "uint256[]"
        },
        {
          "internalType": "uint256[]",
          "name": "_amounts",
          "type": "uint256[]"
        }
      ],
      "name": "burnBatch",
      "outputs": [],
      "stateMutability": "nonpayable",
      "type": "function"
    },
    {
      "inputs": [],
      "name": "contractURI",
      "outputs": [
        {
          "internalType": "string",
          "name": "",
          "type": "string"
        }
      ],
      "stateMutability": "view",
      "type": "function"
    },
    {
      "inputs": [
        {
          "internalType": "string",
          "name": "_name",
          "type": "string"
        },
        {
          "internalType": "uint256",
          "name": "_attack",
          "type": "uint256"
        },
        {
          "internalType": "uint256",
          "name": "_defense",
          "type": "uint256"
        },
        {
          "internalType": "uint256",
          "name": "_health",
          "type": "uint256"
        },
        {
          "internalType": "uint256",
          "name": "_mana",
          "type": "uint256"
        },
        {
          "internalType": "uint256",
          "name": "_skill",
          "type": "uint256"
        },
        {
          "internalType": "enum BattleItems.ItemType",
          "name": "_itemType",
          "type": "uint8"
        },
        {
          "internalType": "string",
          "name": "_tokenURI",
          "type": "string"
        }
      ],
      "name": "createItem",
      "outputs": [],
      "stateMutability": "nonpayable",
      "type": "function"
    },
    {
      "inputs": [],
      "name": "getBaseURICount",
      "outputs": [
        {
          "internalType": "uint256",
          "name": "",
          "type": "uint256"
        }
      ],
      "stateMutability": "view",
      "type": "function"
    },
    {
      "inputs": [
        {
          "internalType": "uint256",
          "name": "_index",
          "type": "uint256"
        }
      ],
      "name": "getBatchIdAtIndex",
      "outputs": [
        {
          "internalType": "uint256",
          "name": "",
          "type": "uint256"
        }
      ],
      "stateMutability": "view",
      "type": "function"
    },
    {
      "inputs": [],
      "name": "getDefaultRoyaltyInfo",
      "outputs": [
        {
          "internalType": "address",
          "name": "",
          "type": "address"
        },
        {
          "internalType": "uint16",
          "name": "",
          "type": "uint16"
        }
      ],
      "stateMutability": "view",
      "type": "function"
    },
    {
      "inputs": [
        {
          "internalType": "uint256",
          "name": "_itemId",
          "type": "uint256"
        }
      ],
      "name": "getItem",
      "outputs": [
        {
          "components": [
            {
              "internalType": "string",
              "name": "name",
              "type": "string"
            },
            {
              "internalType": "uint256",
              "name": "attack",
              "type": "uint256"
            },
            {
              "internalType": "uint256",
              "name": "defense",
              "type": "uint256"
            },
            {
              "internalType": "uint256",
              "name": "health",
              "type": "uint256"
            },
            {
              "internalType": "uint256",
              "name": "mana",
              "type": "uint256"
            },
            {
              "internalType": "uint256",
              "name": "skill",
              "type": "uint256"
            },
            {
              "internalType": "enum BattleItems.ItemType",
              "name": "itemType",
              "type": "uint8"
            }
          ],
          "internalType": "struct BattleItems.Item",
          "name": "",
          "type": "tuple"
        }
      ],
      "stateMutability": "view",
      "type": "function"
    },
    {
      "inputs": [
        {
          "internalType": "uint256",
          "name": "tokenId",
          "type": "uint256"
        }
      ],
      "name": "getItemType",
      "outputs": [
        {
          "internalType": "enum BattleItems.ItemType",
          "name": "",
          "type": "uint8"
        }
      ],
      "stateMutability": "view",
      "type": "function"
    },
    {
      "inputs": [],
      "name": "getRandomItem",
      "outputs": [
        {
          "internalType": "uint256",
          "name": "",
          "type": "uint256"
        }
      ],
      "stateMutability": "view",
      "type": "function"
    },
    {
      "inputs": [
        {
          "internalType": "uint256",
          "name": "_tokenId",
          "type": "uint256"
        }
      ],
      "name": "getRoyaltyInfoForToken",
      "outputs": [
        {
          "internalType": "address",
          "name": "",
          "type": "address"
        },
        {
          "internalType": "uint16",
          "name": "",
          "type": "uint16"
        }
      ],
      "stateMutability": "view",
      "type": "function"
    },
    {
      "inputs": [
        {
          "internalType": "address",
          "name": "",
          "type": "address"
        },
        {
          "internalType": "address",
          "name": "",
          "type": "address"
        }
      ],
      "name": "isApprovedForAll",
      "outputs": [
        {
          "internalType": "bool",
          "name": "",
          "type": "bool"
        }
      ],
      "stateMutability": "view",
      "type": "function"
    },
    {
      "inputs": [
        {
          "internalType": "uint256",
          "name": "",
          "type": "uint256"
        }
      ],
      "name": "items",
      "outputs": [
        {
          "internalType": "string",
          "name": "name",
          "type": "string"
        },
        {
          "internalType": "uint256",
          "name": "attack",
          "type": "uint256"
        },
        {
          "internalType": "uint256",
          "name": "defense",
          "type": "uint256"
        },
        {
          "internalType": "uint256",
          "name": "health",
          "type": "uint256"
        },
        {
          "internalType": "uint256",
          "name": "mana",
          "type": "uint256"
        },
        {
          "internalType": "uint256",
          "name": "skill",
          "type": "uint256"
        },
        {
          "internalType": "enum BattleItems.ItemType",
          "name": "itemType",
          "type": "uint8"
        }
      ],
      "stateMutability": "view",
      "type": "function"
    },
    {
      "inputs": [
        {
          "internalType": "uint256",
          "name": "_itemId",
          "type": "uint256"
        }
      ],
      "name": "mintItem",
      "outputs": [],
      "stateMutability": "nonpayable",
      "type": "function"
    },
    {
      "inputs": [
        {
          "internalType": "address",
          "name": "_to",
          "type": "address"
        },
        {
          "internalType": "uint256",
          "name": "_tokenId",
          "type": "uint256"
        },
        {
          "internalType": "string",
          "name": "_tokenURI",
          "type": "string"
        },
        {
          "internalType": "uint256",
          "name": "_amount",
          "type": "uint256"
        }
      ],
      "name": "mintTo",
      "outputs": [],
      "stateMutability": "nonpayable",
      "type": "function"
    },
    {
      "inputs": [
        {
          "internalType": "bytes[]",
          "name": "data",
          "type": "bytes[]"
        }
      ],
      "name": "multicall",
      "outputs": [
        {
          "internalType": "bytes[]",
          "name": "results",
          "type": "bytes[]"
        }
      ],
      "stateMutability": "nonpayable",
      "type": "function"
    },
    {
      "inputs": [],
      "name": "name",
      "outputs": [
        {
          "internalType": "string",
          "name": "",
          "type": "string"
        }
      ],
      "stateMutability": "view",
      "type": "function"
    },
    {
      "inputs": [],
      "name": "nextTokenIdToMint",
      "outputs": [
        {
          "internalType": "uint256",
          "name": "",
          "type": "uint256"
        }
      ],
      "stateMutability": "view",
      "type": "function"
    },
    {
      "inputs": [],
      "name": "numItems",
      "outputs": [
        {
          "internalType": "uint256",
          "name": "",
          "type": "uint256"
        }
      ],
      "stateMutability": "view",
      "type": "function"
    },
    {
      "inputs": [],
      "name": "operatorRestriction",
      "outputs": [
        {
          "internalType": "bool",
          "name": "",
          "type": "bool"
        }
      ],
      "stateMutability": "view",
      "type": "function"
    },
    {
      "inputs": [],
      "name": "owner",
      "outputs": [
        {
          "internalType": "address",
          "name": "",
          "type": "address"
        }
      ],
      "stateMutability": "view",
      "type": "function"
    },
    {
      "inputs": [
        {
          "internalType": "uint256",
          "name": "tokenId",
          "type": "uint256"
        },
        {
          "internalType": "uint256",
          "name": "salePrice",
          "type": "uint256"
        }
      ],
      "name": "royaltyInfo",
      "outputs": [
        {
          "internalType": "address",
          "name": "receiver",
          "type": "address"
        },
        {
          "internalType": "uint256",
          "name": "royaltyAmount",
          "type": "uint256"
        }
      ],
      "stateMutability": "view",
      "type": "function"
    },
    {
      "inputs": [
        {
          "internalType": "address",
          "name": "from",
          "type": "address"
        },
        {
          "internalType": "address",
          "name": "to",
          "type": "address"
        },
        {
          "internalType": "uint256[]",
          "name": "ids",
          "type": "uint256[]"
        },
        {
          "internalType": "uint256[]",
          "name": "amounts",
          "type": "uint256[]"
        },
        {
          "internalType": "bytes",
          "name": "data",
          "type": "bytes"
        }
      ],
      "name": "safeBatchTransferFrom",
      "outputs": [],
      "stateMutability": "nonpayable",
      "type": "function"
    },
    {
      "inputs": [
        {
          "internalType": "address",
          "name": "from",
          "type": "address"
        },
        {
          "internalType": "address",
          "name": "to",
          "type": "address"
        },
        {
          "internalType": "uint256",
          "name": "id",
          "type": "uint256"
        },
        {
          "internalType": "uint256",
          "name": "amount",
          "type": "uint256"
        },
        {
          "internalType": "bytes",
          "name": "data",
          "type": "bytes"
        }
      ],
      "name": "safeTransferFrom",
      "outputs": [],
      "stateMutability": "nonpayable",
      "type": "function"
    },
    {
      "inputs": [
        {
          "internalType": "address",
          "name": "operator",
          "type": "address"
        },
        {
          "internalType": "bool",
          "name": "approved",
          "type": "bool"
        }
      ],
      "name": "setApprovalForAll",
      "outputs": [],
      "stateMutability": "nonpayable",
      "type": "function"
    },
    {
      "inputs": [
        {
          "internalType": "string",
          "name": "_uri",
          "type": "string"
        }
      ],
      "name": "setContractURI",
      "outputs": [],
      "stateMutability": "nonpayable",
      "type": "function"
    },
    {
      "inputs": [
        {
          "internalType": "address",
          "name": "_royaltyRecipient",
          "type": "address"
        },
        {
          "internalType": "uint256",
          "name": "_royaltyBps",
          "type": "uint256"
        }
      ],
      "name": "setDefaultRoyaltyInfo",
      "outputs": [],
      "stateMutability": "nonpayable",
      "type": "function"
    },
    {
      "inputs": [
        {
          "internalType": "bool",
          "name": "_restriction",
          "type": "bool"
        }
      ],
      "name": "setOperatorRestriction",
      "outputs": [],
      "stateMutability": "nonpayable",
      "type": "function"
    },
    {
      "inputs": [
        {
          "internalType": "address",
          "name": "_newOwner",
          "type": "address"
        }
      ],
      "name": "setOwner",
      "outputs": [],
      "stateMutability": "nonpayable",
      "type": "function"
    },
    {
      "inputs": [
        {
          "internalType": "uint256",
          "name": "_tokenId",
          "type": "uint256"
        },
        {
          "internalType": "address",
          "name": "_recipient",
          "type": "address"
        },
        {
          "internalType": "uint256",
          "name": "_bps",
          "type": "uint256"
        }
      ],
      "name": "setRoyaltyInfoForToken",
      "outputs": [],
      "stateMutability": "nonpayable",
      "type": "function"
    },
    {
      "inputs": [
        {
          "internalType": "bytes4",
          "name": "interfaceId",
          "type": "bytes4"
        }
      ],
      "name": "supportsInterface",
      "outputs": [
        {
          "internalType": "bool",
          "name": "",
          "type": "bool"
        }
      ],
      "stateMutability": "view",
      "type": "function"
    },
    {
      "inputs": [],
      "name": "symbol",
      "outputs": [
        {
          "internalType": "string",
          "name": "",
          "type": "string"
        }
      ],
      "stateMutability": "view",
      "type": "function"
    },
    {
      "inputs": [
        {
          "internalType": "uint256",
          "name": "",
          "type": "uint256"
        }
      ],
      "name": "totalSupply",
      "outputs": [
        {
          "internalType": "uint256",
          "name": "",
          "type": "uint256"
        }
      ],
      "stateMutability": "view",
      "type": "function"
    },
    {
      "inputs": [
        {
          "internalType": "uint256",
          "name": "_itemId",
          "type": "uint256"
        },
        {
          "internalType": "string",
          "name": "_name",
          "type": "string"
        },
        {
          "internalType": "uint256",
          "name": "_attack",
          "type": "uint256"
        },
        {
          "internalType": "uint256",
          "name": "_defense",
          "type": "uint256"
        },
        {
          "internalType": "uint256",
          "name": "_health",
          "type": "uint256"
        },
        {
          "internalType": "uint256",
          "name": "_mana",
          "type": "uint256"
        },
        {
          "internalType": "uint256",
          "name": "_skill",
          "type": "uint256"
        }
      ],
      "name": "updateItem",
      "outputs": [],
      "stateMutability": "nonpayable",
      "type": "function"
    },
    {
      "inputs": [
        {
          "internalType": "uint256",
          "name": "_tokenId",
          "type": "uint256"
        }
      ],
      "name": "uri",
      "outputs": [
        {
          "internalType": "string",
          "name": "",
          "type": "string"
        }
      ],
      "stateMutability": "view",
      "type": "function"
    }
  ],
  "bytecode": "0x60806040523480156200001157600080fd5b506040518060400160405280600c81526020016b125d195b50dbdb9d1c9858dd60a21b81525060405180604001604052806002815260200161494360f01b815250600080733cc6cdda760b79bafa08df41ecfa224f810dceb66001858581600090816200007f9190620003f8565b5060016200008e8282620003f8565b5050506daaeb6d7670e522a718067333cd4e3b15620001d65780156200012457604051633e9f1edf60e11b81523060048201526001600160a01b03831660248201526daaeb6d7670e522a718067333cd4e90637d3e3dbe906044015b600060405180830381600087803b1580156200010557600080fd5b505af11580156200011a573d6000803e3d6000fd5b50505050620001d6565b6001600160a01b03821615620001755760405163a0af290360e01b81523060048201526001600160a01b03831660248201526daaeb6d7670e522a718067333cd4e9063a0af290390604401620000ea565b604051632210724360e11b81523060048201526daaeb6d7670e522a718067333cd4e90634420e48690602401600060405180830381600087803b158015620001bc57600080fd5b505af1158015620001d1573d6000803e3d6000fd5b505050505b50620001e49050336200020f565b620001f9826001600160801b03831662000261565b6200020560016200030c565b50505050620004c4565b600680546001600160a01b038381166001600160a01b0319831681179093556040519116919082907f8292fce18fa69edf4db7b94ea2e58241df0ae57f97e0a6c9b29067028bf92d7690600090a35050565b612710811115620002aa5760405162461bcd60e51b815260206004820152600f60248201526e45786365656473206d61782062707360881b604482015260640160405180910390fd5b600780546001600160a01b0384166001600160b01b03199091168117600160a01b61ffff851602179091556040518281527f90d7ec04bcb8978719414f82e52e4cb651db41d0e6f8cea6118c2191e6183adb9060200160405180910390a25050565b600b805460ff19168215159081179091556040519081527f38475885990d8dfe9ca01f0ef160a1b5514426eab9ddbc953a3353410ba780969060200160405180910390a150565b634e487b7160e01b600052604160045260246000fd5b600181811c908216806200037e57607f821691505b6020821081036200039f57634e487b7160e01b600052602260045260246000fd5b50919050565b601f821115620003f357600081815260208120601f850160051c81016020861015620003ce5750805b601f850160051c820191505b81811015620003ef57828155600101620003da565b5050505b505050565b81516001600160401b0381111562000414576200041462000353565b6200042c8162000425845462000369565b84620003a5565b602080601f8311600181146200046457600084156200044b5750858301515b600019600386901b1c1916600185901b178555620003ef565b600085815260208120601f198616915b82811015620004955788860151825594840194600190910190840162000474565b5085821015620004b45787850151600019600388901b60f8161c191681555b5050505050600190811b01905550565b613d1680620004d46000396000f3fe608060405234801561001057600080fd5b506004361061023c5760003560e01c8063667837fc1161013b578063ac9650d8116100b8578063c19a4ef51161007c578063c19a4ef514610575578063e8a3d48514610595578063e985e9c51461059d578063f242432a146105cb578063f5298aca146105de57600080fd5b8063ac9650d8146104de578063b03f4528146104fe578063b24f2d3914610511578063bd85b0391461052f578063bfb231d21461054f57600080fd5b8063938e3d7b116100ff578063938e3d7b1461048a578063949c09f71461049d57806395d89b41146104b05780639bcf7a15146104b8578063a22cb465146104cb57600080fd5b8063667837fc146104385780636b20c454146104405780636b2d3062146104535780638a7dbc8d146104665780638da5cb5b1461047957600080fd5b80633129e773116101c95780634e1273f41161018d5780634e1273f4146103e7578063504c6e01146104075780635bfadae414610414578063600dd5ea1461041d57806363b45e2d1461043057600080fd5b80633129e7731461034a57806332f0cd641461036a5780633b1475a71461037d57806341f43434146103855780634cc157df146103b257600080fd5b806313af40351161021057806313af4035146102ca57806317fb8594146102df5780632419f51b146102f25780632a55205a146103055780632eb2c2d61461033757600080fd5b8062fdd58e1461024157806301ffc9a71461027f57806306fdde03146102a25780630e89341c146102b7575b600080fd5b61026c61024f366004612d75565b600260209081526000928352604080842090915290825290205481565b6040519081526020015b60405180910390f35b61029261028d366004612db5565b6105f1565b6040519015158152602001610276565b6102aa61065e565b6040516102769190612e22565b6102aa6102c5366004612e35565b6106ec565b6102dd6102d8366004612e4e565b6107da565b005b6102dd6102ed366004612e35565b610813565b61026c610300366004612e35565b6108cf565b610318610313366004612e69565b61093d565b604080516001600160a01b039093168352602083019190915201610276565b6102dd610345366004612fd4565b61097a565b61035d610358366004612e35565b6109a9565b60405161027691906130b5565b6102dd610378366004613126565b610ac5565b600c5461026c565b61039a6daaeb6d7670e522a718067333cd4e81565b6040516001600160a01b039091168152602001610276565b6103c56103c0366004612e35565b610b36565b604080516001600160a01b03909316835261ffff909116602083015201610276565b6103fa6103f5366004613143565b610ba1565b6040516102769190613248565b600b546102929060ff1681565b61026c600f5481565b6102dd61042b366004612d75565b610cb5565b60095461026c565b61026c610ce3565b6102dd61044e36600461325b565b610d2e565b6102dd6104613660046132ce565b610ed0565b6102dd610474366004613340565b610fae565b6006546001600160a01b031661039a565b6102dd6104983660046133ec565b6110eb565b6102dd6104ab366004613420565b611118565b6102aa611313565b6102dd6104c63660046134b8565b611320565b6102dd6104d93660046134ed565b611354565b6104f16104ec366004613524565b611368565b6040516102769190613598565b6102dd61050c3660046135fa565b61145c565b6007546001600160a01b03811690600160a01b900461ffff166103c5565b61026c61053d366004612e35565b600d6020526000908152604090205481565b61056261055d366004612e35565b611547565b6040516102769796959493929190613658565b610588610583366004612e35565b61160f565b60405161027691906136a4565b6102aa61167b565b6102926105ab3660046136b2565b600360209081526000928352604080842090915290825290205460ff1681565b6102dd6105d93660046136e5565b611688565b6102dd6105ec366004613749565b6116af565b60006301ffc9a760e01b6001600160e01b0319831614806106225750636cdb3d1360e11b6001600160e01b03198316145b8061063d57506303a24d0760e21b6001600160e01b03198316145b8061065857506001600160e01b0319821663152a902d60e11b145b92915050565b6000805461066b9061377c565b80601f01602080910402602001604051908101604052809291908181526020018280546106979061377c565b80156106e45780601f106106b9576101008083540402835291602001916106e4565b820191906000526020600020905b8154815290600101906020018083116106c757829003601f168201915b505050505081565b60008181526004602052604081208054606092919061070a9061377c565b80601f01602080910402602001604051908101604052809291908181526020018280546107369061377c565b80156107835780601f1061075857610100808354040283529160200191610783565b820191906000526020600020905b81548152906001019060200180831161076657829003601f168201915b5050505050905060008151111561079a5792915050565b60006107a5846117a4565b9050806107b185611940565b6040516020016107c29291906137b6565b60405160208183030381529060405292505050919050565b6107e2611a48565b6108075760405162461bcd60e51b81526004016107fe906137e5565b60405180910390fd5b61081081611a75565b50565b80600003610863576000600f54116108635760405162461bcd60e51b8152602060048201526013602482015272125d195b48191bd95cc81b9bdd08195e1a5e1d606a1b60448201526064016107fe565b600f5481106108aa5760405162461bcd60e51b8152602060048201526013602482015272125d195b48191bd95cc81b9bdd08195e1a5cdd606a1b60448201526064016107fe565b60008190506108cb3382600160405180602001604052806000815250611ac7565b5050565b60006108da60095490565b82106109185760405162461bcd60e51b815260206004820152600d60248201526c092dcecc2d8d2c840d2dcc8caf609b1b60448201526064016107fe565b6009828154811061092b5761092b61380d565b90600052602060002001549050919050565b60008060008061094c86610b36565b90945084925061ffff1690506127106109658287613839565b61096f9190613866565b925050509250929050565b846001600160a01b03811633146109945761099433611ba7565b6109a18686868686611c6b565b505050505050565b6109b1612d0c565b6000828152600e602052604090819020815160e081019092528054829082906109d99061377c565b80601f0160208091040260200160405190810160405280929190818152602001828054610a059061377c565b8015610a525780601f10610a2757610100808354040283529160200191610a52565b820191906000526020600020905b815481529060010190602001808311610a3557829003601f168201915b50505091835250506001820154602082015260028201546040820152600382015460608201526004808301546080830152600583015460a0830152600683015460c09092019160ff1690811115610aab57610aab61307d565b6004811115610abc57610abc61307d565b90525092915050565b610acd611a48565b610b2d5760405162461bcd60e51b815260206004820152602b60248201527f4e6f7420617574686f72697a656420746f20736574206f70657261746f72207260448201526a32b9ba3934b1ba34b7b71760a91b60648201526084016107fe565b61081081611cf3565b6000818152600860209081526040808320815180830190925280546001600160a01b031680835260019091015492820192909252829115610b7d5780516020820151610b97565b6007546001600160a01b03811690600160a01b900461ffff165b9250925050915091565b60608151835114610bc45760405162461bcd60e51b81526004016107fe9061387a565b600083516001600160401b03811115610bdf57610bdf612e8b565b604051908082528060200260200182016040528015610c08578160200160208202803683370190505b50905060005b8451811015610cad5760026000868381518110610c2d57610c2d61380d565b60200260200101516001600160a01b03166001600160a01b031681526020019081526020016000206000858381518110610c6957610c6961380d565b6020026020010151815260200190815260200160002054828281518110610c9257610c9261380d565b6020908102919091010152610ca6816138a3565b9050610c0e565b509392505050565b610cbd611a48565b610cd95760405162461bcd60e51b81526004016107fe906137e5565b6108cb8282611d3a565b6000600f5442604051602001610cfb91815260200190565b6040516020818303038152906040528051906020012060001c610d1e91906138bc565b610d299060016138d0565b905090565b336001600160a01b038416811480610d6b57506001600160a01b0380851660009081526003602090815260408083209385168352929052205460ff165b610dab5760405162461bcd60e51b81526020600482015260116024820152702ab730b8383937bb32b21031b0b63632b960791b60448201526064016107fe565b8151835114610dee5760405162461bcd60e51b815260206004820152600f60248201526e098cadccee8d040dad2e6dac2e8c6d608b1b60448201526064016107fe565b60005b8351811015610ebe57828181518110610e0c57610e0c61380d565b602002602001015160026000876001600160a01b03166001600160a01b031681526020019081526020016000206000868481518110610e4d57610e4d61380d565b60200260200101518152602001908152602001600020541015610eac5760405162461bcd60e51b8152602060048201526017602482015276139bdd08195b9bdd59da081d1bdad95b9cc81bdddb9959604a1b60448201526064016107fe565b610eb76001826138d0565b9050610df1565b50610eca848484611de0565b50505050565b600f54871115610f185760405162461bcd60e51b8152602060048201526013602482015272125d195b48191bd95cc81b9bdd08195e1a5cdd606a1b60448201526064016107fe565b6000878152600e60205260409020610f308782613929565b506000878152600e602052604090819020600181018790556002810186905560038101859055600481018490556005018290555187907f7ae44c88e70b5158fe6944ca3b8ae201309dade36a66769a632ad93928f692c290610f9d908990899089908990899089906139e8565b60405180910390a250505050505050565b600019610fbe338284600161145c565b6040518060e001604052808a8152602001898152602001888152602001878152602001868152602001858152602001846004811115610fff57610fff61307d565b9052600f546000908152600e60205260409020815181906110209082613929565b506020820151816001015560408201518160020155606082015181600301556080820151816004015560a0820151816005015560c08201518160060160006101000a81548160ff0219169083600481111561107d5761107d61307d565b0217905550905050600f547f89d89af8fd809f3c43f18fc9d812dd96d57c211655602c834dd842251e5cbcee8a8a8a8a8a8a8a6040516110c39796959493929190613658565b60405180910390a2600f80549060006110db836138a3565b9190505550505050505050505050565b6110f3611a48565b61110f5760405162461bcd60e51b81526004016107fe906137e5565b61081081611f95565b611120611a48565b6111665760405162461bcd60e51b81526020600482015260176024820152762737ba1030baba3437b934bd32b2103a379036b4b73a1760491b60448201526064016107fe565b60008251116111ae5760405162461bcd60e51b815260206004820152601460248201527326b4b73a34b733903d32b937903a37b5b2b7399760611b60448201526064016107fe565b81518351146111f25760405162461bcd60e51b815260206004820152601060248201526f2632b733ba341036b4b9b6b0ba31b41760811b60448201526064016107fe565b60006111fd600c5490565b9050806000805b86518110156112d3576000198782815181106112225761122261380d565b60200260200101510361126c57838782815181106112425761124261380d565b60209081029190910101526112586001856138d0565b93506112656001836138d0565b91506112c1565b8387828151811061127f5761127f61380d565b6020026020010151106112c15760405162461bcd60e51b815260206004820152600a6024820152691a5b9d985b1a59081a5960b21b60448201526064016107fe565b6112cc6001826138d0565b9050611204565b5080156112e8576112e5828286612071565b50505b82600c8190555061130a878787604051806020016040528060008152506120d5565b50505050505050565b6001805461066b9061377c565b611328611a48565b6113445760405162461bcd60e51b81526004016107fe906137e5565b61134f838383612230565b505050565b8161135e81611ba7565b61134f83836122fa565b6060816001600160401b0381111561138257611382612e8b565b6040519080825280602002602001820160405280156113b557816020015b60608152602001906001900390816113a05790505b50905060005b8281101561145557611425308585848181106113d9576113d961380d565b90506020028101906113eb9190613a24565b8080601f0160208091040260200160405190810160405280939291908181526020018383808284376000920191909152506123a992505050565b8282815181106114375761143761380d565b6020026020010181905250808061144d906138a3565b9150506113bb565b5092915050565b611464611a48565b6114aa5760405162461bcd60e51b81526020600482015260176024820152762737ba1030baba3437b934bd32b2103a379036b4b73a1760491b60448201526064016107fe565b6000806114b6600c5490565b905060001985036114ec578091506001600c60008282546114d791906138d0565b909155506114e7905081856123d5565b61152c565b8085106115285760405162461bcd60e51b815260206004820152600a6024820152691a5b9d985b1a59081a5960b21b60448201526064016107fe565b8491505b6109a186838560405180602001604052806000815250611ac7565b600e602052600090815260409020805481906115629061377c565b80601f016020809104026020016040519081016040528092919081815260200182805461158e9061377c565b80156115db5780601f106115b0576101008083540402835291602001916115db565b820191906000526020600020905b8154815290600101906020018083116115be57829003601f168201915b5050506001840154600285015460038601546004870154600588015460069098015496979396929550909350919060ff1687565b6000818152600d60205260408120546116625760405162461bcd60e51b8152602060048201526015602482015274125b9d985b1a59081a5d195b481d1bdad95b881251605a1b60448201526064016107fe565b506000908152600e602052604090206006015460ff1690565b6005805461066b9061377c565b846001600160a01b03811633146116a2576116a233611ba7565b6109a186868686866123ed565b336001600160a01b0384168114806116ec57506001600160a01b0380851660009081526003602090815260408083209385168352929052205460ff165b61172c5760405162461bcd60e51b81526020600482015260116024820152702ab730b8383937bb32b21031b0b63632b960791b60448201526064016107fe565b6001600160a01b03841660009081526002602090815260408083208684529091529020548211156117995760405162461bcd60e51b8152602060048201526017602482015276139bdd08195b9bdd59da081d1bdad95b9cc81bdddb9959604a1b60448201526064016107fe565b610eca848484612475565b606060006117b160095490565b90506000600980548060200260200160405190810160405280929190818152602001828054801561180157602002820191906000526020600020905b8154815260200190600101908083116117ed575b5050505050905060005b82811015611905578181815181106118255761182561380d565b60200260200101518510156118f357600a600083838151811061184a5761184a61380d565b60200260200101518152602001908152602001600020805461186b9061377c565b80601f01602080910402602001604051908101604052809291908181526020018280546118979061377c565b80156118e45780601f106118b9576101008083540402835291602001916118e4565b820191906000526020600020905b8154815290600101906020018083116118c757829003601f168201915b50505050509350505050919050565b6118fe6001826138d0565b905061180b565b5060405162461bcd60e51b815260206004820152600f60248201526e125b9d985b1a59081d1bdad95b9259608a1b60448201526064016107fe565b6060816000036119675750506040805180820190915260018152600360fc1b602082015290565b8160005b8115611991578061197b816138a3565b915061198a9050600a83613866565b915061196b565b6000816001600160401b038111156119ab576119ab612e8b565b6040519080825280601f01601f1916602001820160405280156119d5576020820181803683370190505b5090505b8415611a40576119ea600183613a71565b91506119f7600a866138bc565b611a029060306138d0565b60f81b818381518110611a1757611a1761380d565b60200101906001600160f81b031916908160001a905350611a39600a86613866565b94506119d9565b949350505050565b6000611a5c6006546001600160a01b031690565b6001600160a01b0316336001600160a01b031614905090565b600680546001600160a01b038381166001600160a01b0319831681179093556040519116919082907f8292fce18fa69edf4db7b94ea2e58241df0ae57f97e0a6c9b29067028bf92d7690600090a35050565b6001600160a01b038416611aed5760405162461bcd60e51b81526004016107fe90613a84565b33611b0d81600087611afe8861259a565b611b078861259a565b876125e5565b6001600160a01b038516600090815260026020908152604080832087845290915281208054859290611b409084906138d0565b909155505060408051858152602081018590526001600160a01b0380881692600092918516917fc3d58168c5ae7397731d063d5bbf3d657854427343f4c083240f7aacaa2d0f62910160405180910390a4611ba0816000878787876126f1565b5050505050565b600b5460ff1615610810576daaeb6d7670e522a718067333cd4e3b1561081057604051633185c44d60e21b81523060048201526001600160a01b03821660248201526daaeb6d7670e522a718067333cd4e9063c617113490604401602060405180830381865afa158015611c1f573d6000803e3d6000fd5b505050506040513d601f19601f82011682018060405250810190611c439190613aaa565b61081057604051633b79c77360e21b81526001600160a01b03821660048201526024016107fe565b6001600160a01b038516331480611ca557506001600160a01b038516600090815260036020908152604080832033845290915290205460ff165b611ce65760405162461bcd60e51b81526020600482015260126024820152710853d5d3915497d3d497d054141493d5915160721b60448201526064016107fe565b611ba08585858585612844565b600b805460ff19168215159081179091556040519081527f38475885990d8dfe9ca01f0ef160a1b5514426eab9ddbc953a3353410ba780969060200160405180910390a150565b612710811115611d7e5760405162461bcd60e51b815260206004820152600f60248201526e45786365656473206d61782062707360881b60448201526064016107fe565b600780546001600160a01b0384166001600160b01b03199091168117600160a01b61ffff851602179091556040518281527f90d7ec04bcb8978719414f82e52e4cb651db41d0e6f8cea6118c2191e6183adb9060200160405180910390a25050565b6001600160a01b038316611e275760405162461bcd60e51b815260206004820152600e60248201526d232927a6afad22a927afa0a2222960911b60448201526064016107fe565b8051825114611e485760405162461bcd60e51b81526004016107fe9061387a565b6000339050611e6b818560008686604051806020016040528060008152506125e5565b60005b8351811015611f36576000848281518110611e8b57611e8b61380d565b602002602001015190506000848381518110611ea957611ea961380d565b6020908102919091018101516001600160a01b0389166000908152600283526040808220868352909352919091205490915081811015611efb5760405162461bcd60e51b81526004016107fe90613ac7565b6001600160a01b0388166000908152600260209081526040808320958352949052929092209103905580611f2e816138a3565b915050611e6e565b5060006001600160a01b0316846001600160a01b0316826001600160a01b03167f4a39dc06d4c0dbc64b70af90fd698a233a518aa5d07e595d983b8c0526c8f7fb8686604051611f87929190613af1565b60405180910390a450505050565b600060058054611fa49061377c565b80601f0160208091040260200160405190810160405280929190818152602001828054611fd09061377c565b801561201d5780601f10611ff25761010080835404028352916020019161201d565b820191906000526020600020905b81548152906001019060200180831161200057829003601f168201915b5050505050905081600590816120339190613929565b507fc9c7c3fe08b88b4df9d4d47ef47d2c43d55c025a0ba88ca442580ed9e7348a168183604051612065929190613b1f565b60405180910390a15050565b60008061207e84866138d0565b60098054600181019091557f6e1540171b6c0c960b71a7020d9f60077f6af931a8bbf590da0223dacf75c7af018190556000818152600a602052604090209092508291506120cc8482613929565b50935093915050565b6001600160a01b0384166120fb5760405162461bcd60e51b81526004016107fe90613a84565b815183511461211c5760405162461bcd60e51b81526004016107fe9061387a565b3361212c816000878787876125e5565b60005b84518110156121c85783818151811061214a5761214a61380d565b602002602001015160026000886001600160a01b03166001600160a01b03168152602001908152602001600020600087848151811061218b5761218b61380d565b6020026020010151815260200190815260200160002060008282546121b091906138d0565b909155508190506121c0816138a3565b91505061212f565b50846001600160a01b031660006001600160a01b0316826001600160a01b03167f4a39dc06d4c0dbc64b70af90fd698a233a518aa5d07e595d983b8c0526c8f7fb8787604051612219929190613af1565b60405180910390a4611ba0816000878787876129f3565b6127108111156122745760405162461bcd60e51b815260206004820152600f60248201526e45786365656473206d61782062707360881b60448201526064016107fe565b6040805180820182526001600160a01b038481168083526020808401868152600089815260088352869020945185546001600160a01b031916941693909317845591516001909301929092559151838152909185917f7365cf4122f072a3365c20d54eff9b38d73c096c28e1892ec8f5b0e403a0f12d91015b60405180910390a3505050565b336001600160a01b03831681036123445760405162461bcd60e51b815260206004820152600e60248201526d20a8282927ab24a723afa9a2a62360911b60448201526064016107fe565b6001600160a01b03818116600081815260036020908152604080832094881680845294825291829020805460ff191687151590811790915591519182527f17307eab39ab6107e8899845ad3d59bd9653f200f220920489ca2b5937696c3191016122ed565b60606123ce8383604051806060016040528060278152602001613cba60279139612ad0565b9392505050565b600082815260046020526040902061134f8282613929565b6001600160a01b03851633148061242757506001600160a01b038516600090815260036020908152604080832033845290915290205460ff165b6124685760405162461bcd60e51b81526020600482015260126024820152710853d5d3915497d3d497d054141493d5915160721b60448201526064016107fe565b611ba08585858585612bad565b6001600160a01b0383166124bc5760405162461bcd60e51b815260206004820152600e60248201526d232927a6afad22a927afa0a2222960911b60448201526064016107fe565b336124eb818560006124cd8761259a565b6124d68761259a565b604051806020016040528060008152506125e5565b6001600160a01b03841660009081526002602090815260408083208684529091529020548281101561252f5760405162461bcd60e51b81526004016107fe90613ac7565b6001600160a01b03858116600081815260026020908152604080832089845282528083208887039055805189815291820188905291938616917fc3d58168c5ae7397731d063d5bbf3d657854427343f4c083240f7aacaa2d0f62910160405180910390a45050505050565b604080516001808252818301909252606091600091906020808301908036833701905050905082816000815181106125d4576125d461380d565b602090810291909101015292915050565b6001600160a01b03851661266c5760005b835181101561266a578281815181106126115761261161380d565b6020026020010151600d600086848151811061262f5761262f61380d565b60200260200101518152602001908152602001600020600082825461265491906138d0565b909155506126639050816138a3565b90506125f6565b505b6001600160a01b0384166109a15760005b835181101561130a578281815181106126985761269861380d565b6020026020010151600d60008684815181106126b6576126b661380d565b6020026020010151815260200190815260200160002060008282546126db9190613a71565b909155506126ea9050816138a3565b905061267d565b6001600160a01b0384163b156109a15760405163f23a6e6160e01b81526001600160a01b0385169063f23a6e61906127359089908990889088908890600401613b44565b6020604051808303816000875af1925050508015612770575060408051601f3d908101601f1916820190925261276d91810190613b89565b60015b6127f25761277c613ba6565b806308c379a0036127b55750612790613bc2565b8061279b57506127b7565b8060405162461bcd60e51b81526004016107fe9190612e22565b505b60405162461bcd60e51b815260206004820152601060248201526f10a2a92198989a9aa922a1a2a4ab22a960811b60448201526064016107fe565b6001600160e01b0319811663f23a6e6160e01b1461130a5760405162461bcd60e51b815260206004820152600f60248201526e1513d2d15394d7d491529150d51151608a1b60448201526064016107fe565b81518351146128655760405162461bcd60e51b81526004016107fe9061387a565b6001600160a01b03841661288b5760405162461bcd60e51b81526004016107fe90613a84565b3361289a8187878787876125e5565b60005b84518110156129915760008582815181106128ba576128ba61380d565b6020026020010151905060008583815181106128d8576128d861380d565b6020908102919091018101516001600160a01b038b16600090815260028352604080822086835290935291909120549091508181101561292a5760405162461bcd60e51b81526004016107fe90613ac7565b6001600160a01b03808b16600090815260026020818152604080842088855282528084208787039055938d168352908152828220868352905290812080548492906129769084906138d0565b925050819055505050508061298a906138a3565b905061289d565b50846001600160a01b0316866001600160a01b0316826001600160a01b03167f4a39dc06d4c0dbc64b70af90fd698a233a518aa5d07e595d983b8c0526c8f7fb87876040516129e1929190613af1565b60405180910390a46109a18187878787875b6001600160a01b0384163b156109a15760405163bc197c8160e01b81526001600160a01b0385169063bc197c8190612a379089908990889088908890600401613c4b565b6020604051808303816000875af1925050508015612a72575060408051601f3d908101601f19168201909252612a6f91810190613b89565b60015b612a7e5761277c613ba6565b6001600160e01b0319811663bc197c8160e01b1461130a5760405162461bcd60e51b815260206004820152600f60248201526e1513d2d15394d7d491529150d51151608a1b60448201526064016107fe565b60606001600160a01b0384163b612b385760405162461bcd60e51b815260206004820152602660248201527f416464726573733a2064656c65676174652063616c6c20746f206e6f6e2d636f6044820152651b9d1c9858dd60d21b60648201526084016107fe565b600080856001600160a01b031685604051612b539190613c9d565b600060405180830381855af49150503d8060008114612b8e576040519150601f19603f3d011682016040523d82523d6000602084013e612b93565b606091505b5091509150612ba3828286612cd3565b9695505050505050565b6001600160a01b038416612bd35760405162461bcd60e51b81526004016107fe90613a84565b33612be3818787611afe8861259a565b6001600160a01b038616600090815260026020908152604080832087845290915290205483811015612c275760405162461bcd60e51b81526004016107fe90613ac7565b6001600160a01b0380881660009081526002602081815260408084208a855282528084208987039055938a16835290815282822088835290529081208054869290612c739084906138d0565b909155505060408051868152602081018690526001600160a01b03808916928a821692918616917fc3d58168c5ae7397731d063d5bbf3d657854427343f4c083240f7aacaa2d0f62910160405180910390a461130a8288888888886126f1565b60608315612ce25750816123ce565b825115612cf25782518084602001fd5b8160405162461bcd60e51b81526004016107fe9190612e22565b6040518060e0016040528060608152602001600081526020016000815260200160008152602001600081526020016000815260200160006004811115612d5457612d5461307d565b905290565b80356001600160a01b0381168114612d7057600080fd5b919050565b60008060408385031215612d8857600080fd5b612d9183612d59565b946020939093013593505050565b6001600160e01b03198116811461081057600080fd5b600060208284031215612dc757600080fd5b81356123ce81612d9f565b60005b83811015612ded578181015183820152602001612dd5565b50506000910152565b60008151808452612e0e816020860160208601612dd2565b601f01601f19169290920160200192915050565b6020815260006123ce6020830184612df6565b600060208284031215612e4757600080fd5b5035919050565b600060208284031215612e6057600080fd5b6123ce82612d59565b60008060408385031215612e7c57600080fd5b50508035926020909101359150565b634e487b7160e01b600052604160045260246000fd5b601f8201601f191681016001600160401b0381118282101715612ec657612ec6612e8b565b6040525050565b60006001600160401b03821115612ee657612ee6612e8b565b5060051b60200190565b600082601f830112612f0157600080fd5b81356020612f0e82612ecd565b604051612f1b8282612ea1565b83815260059390931b8501820192828101915086841115612f3b57600080fd5b8286015b84811015612f565780358352918301918301612f3f565b509695505050505050565b600082601f830112612f7257600080fd5b81356001600160401b03811115612f8b57612f8b612e8b565b604051612fa2601f8301601f191660200182612ea1565b818152846020838601011115612fb757600080fd5b816020850160208301376000918101602001919091529392505050565b600080600080600060a08688031215612fec57600080fd5b612ff586612d59565b945061300360208701612d59565b935060408601356001600160401b038082111561301f57600080fd5b61302b89838a01612ef0565b9450606088013591508082111561304157600080fd5b61304d89838a01612ef0565b9350608088013591508082111561306357600080fd5b5061307088828901612f61565b9150509295509295909350565b634e487b7160e01b600052602160045260246000fd5b600581106130b157634e487b7160e01b600052602160045260246000fd5b9052565b602081526000825160e060208401526130d2610100840182612df6565b9050602084015160408401526040840151606084015260608401516080840152608084015160a084015260a084015160c084015260c0840151610cad60e0850182613093565b801515811461081057600080fd5b60006020828403121561313857600080fd5b81356123ce81613118565b6000806040838503121561315657600080fd5b82356001600160401b038082111561316d57600080fd5b818501915085601f83011261318157600080fd5b8135602061318e82612ecd565b60405161319b8282612ea1565b83815260059390931b85018201928281019150898411156131bb57600080fd5b948201945b838610156131e0576131d186612d59565b825294820194908201906131c0565b965050860135925050808211156131f657600080fd5b5061320385828601612ef0565b9150509250929050565b600081518084526020808501945080840160005b8381101561323d57815187529582019590820190600101613221565b509495945050505050565b6020815260006123ce602083018461320d565b60008060006060848603121561327057600080fd5b61327984612d59565b925060208401356001600160401b038082111561329557600080fd5b6132a187838801612ef0565b935060408601359150808211156132b757600080fd5b506132c486828701612ef0565b9150509250925092565b600080600080600080600060e0888a0312156132e957600080fd5b8735965060208801356001600160401b0381111561330657600080fd5b6133128a828b01612f61565b979a9799505050506040860135956060810135956080820135955060a0820135945060c09091013592509050565b600080600080600080600080610100898b03121561335d57600080fd5b88356001600160401b038082111561337457600080fd5b6133808c838d01612f61565b995060208b0135985060408b0135975060608b0135965060808b0135955060a08b0135945060c08b01359150600582106133b957600080fd5b90925060e08a013590808211156133cf57600080fd5b506133dc8b828c01612f61565b9150509295985092959890939650565b6000602082840312156133fe57600080fd5b81356001600160401b0381111561341457600080fd5b611a4084828501612f61565b6000806000806080858703121561343657600080fd5b61343f85612d59565b935060208501356001600160401b038082111561345b57600080fd5b61346788838901612ef0565b9450604087013591508082111561347d57600080fd5b61348988838901612ef0565b9350606087013591508082111561349f57600080fd5b506134ac87828801612f61565b91505092959194509250565b6000806000606084860312156134cd57600080fd5b833592506134dd60208501612d59565b9150604084013590509250925092565b6000806040838503121561350057600080fd5b61350983612d59565b9150602083013561351981613118565b809150509250929050565b6000806020838503121561353757600080fd5b82356001600160401b038082111561354e57600080fd5b818501915085601f83011261356257600080fd5b81358181111561357157600080fd5b8660208260051b850101111561358657600080fd5b60209290920196919550909350505050565b6000602080830181845280855180835260408601915060408160051b870101925083870160005b828110156135ed57603f198886030184526135db858351612df6565b945092850192908501906001016135bf565b5092979650505050505050565b6000806000806080858703121561361057600080fd5b61361985612d59565b93506020850135925060408501356001600160401b0381111561363b57600080fd5b61364787828801612f61565b949793965093946060013593505050565b60e08152600061366b60e083018a612df6565b90508760208301528660408301528560608301528460808301528360a083015261369860c0830184613093565b98975050505050505050565b602081016106588284613093565b600080604083850312156136c557600080fd5b6136ce83612d59565b91506136dc60208401612d59565b90509250929050565b600080600080600060a086880312156136fd57600080fd5b61370686612d59565b945061371460208701612d59565b9350604086013592506060860135915060808601356001600160401b0381111561373d57600080fd5b61307088828901612f61565b60008060006060848603121561375e57600080fd5b61376784612d59565b95602085013595506040909401359392505050565b600181811c9082168061379057607f821691505b6020821081036137b057634e487b7160e01b600052602260045260246000fd5b50919050565b600083516137c8818460208801612dd2565b8351908301906137dc818360208801612dd2565b01949350505050565b6020808252600e908201526d139bdd08185d5d1a1bdc9a5e995960921b604082015260600190565b634e487b7160e01b600052603260045260246000fd5b634e487b7160e01b600052601160045260246000fd5b808202811582820484141761065857610658613823565b634e487b7160e01b600052601260045260246000fd5b60008261387557613875613850565b500490565b6020808252600f908201526e0988a9c8ea890be9a92a69a82a8869608b1b604082015260600190565b6000600182016138b5576138b5613823565b5060010190565b6000826138cb576138cb613850565b500690565b8082018082111561065857610658613823565b601f82111561134f57600081815260208120601f850160051c8101602086101561390a5750805b601f850160051c820191505b818110156109a157828155600101613916565b81516001600160401b0381111561394257613942612e8b565b61395681613950845461377c565b846138e3565b602080601f83116001811461398b57600084156139735750858301515b600019600386901b1c1916600185901b1785556109a1565b600085815260208120601f198616915b828110156139ba5788860151825594840194600190910190840161399b565b50858210156139d85787850151600019600388901b60f8161c191681555b5050505050600190811b01905550565b60c0815260006139fb60c0830189612df6565b60208301979097525060408101949094526060840192909252608083015260a090910152919050565b6000808335601e19843603018112613a3b57600080fd5b8301803591506001600160401b03821115613a5557600080fd5b602001915036819003821315613a6a57600080fd5b9250929050565b8181038181111561065857610658613823565b6020808252600c908201526b2a27afad22a927afa0a2222960a11b604082015260600190565b600060208284031215613abc57600080fd5b81516123ce81613118565b60208082526010908201526f125394d551919250d251539517d0905360821b604082015260600190565b604081526000613b04604083018561320d565b8281036020840152613b16818561320d565b95945050505050565b604081526000613b326040830185612df6565b8281036020840152613b168185612df6565b6001600160a01b03868116825285166020820152604081018490526060810183905260a060808201819052600090613b7e90830184612df6565b979650505050505050565b600060208284031215613b9b57600080fd5b81516123ce81612d9f565b600060033d1115613bbf5760046000803e5060005160e01c5b90565b600060443d1015613bd05790565b6040516003193d81016004833e81513d6001600160401b038160248401118184111715613bff57505050505090565b8285019150815181811115613c175750505050505090565b843d8701016020828501011115613c315750505050505090565b613c4060208286010187612ea1565b509095945050505050565b6001600160a01b0386811682528516602082015260a060408201819052600090613c779083018661320d565b8281036060840152613c89818661320d565b905082810360808401526136988185612df6565b60008251613caf818460208701612dd2565b919091019291505056fe416464726573733a206c6f772d6c6576656c2064656c65676174652063616c6c206661696c6564a264697066735822122062268bf563bd3c6198277644e56745aa7892f30a6f15cd5a6ad7d1d743c0108564736f6c63430008110033",
  "linkReferences": {},
  "deployedLinkReferences": {}
}