{
  "_format": "hh-sol-artifact-1",
  "contractName": "BattleItems",
  "sourceName": "contracts/BattleItems.sol",
  "abi": [
    {
      "inputs": [],
      "stateMutability": "nonpayable",
      "type": "constructor"
    },
    {
      "inputs": [
        {
          "internalType": "address",
          "name": "operator",
          "type": "address"
        }
      ],
      "name": "OperatorNotAllowed",
      "type": "error"
    },
    {
      "anonymous": false,
      "inputs": [
        {
          "indexed": true,
          "internalType": "address",
          "name": "_owner",
          "type": "address"
        },
        {
          "indexed": true,
          "internalType": "address",
          "name": "_operator",
          "type": "address"
        },
        {
          "indexed": false,
          "internalType": "bool",
          "name": "_approved",
          "type": "bool"
        }
      ],
      "name": "ApprovalForAll",
      "type": "event"
    },
    {
      "anonymous": false,
      "inputs": [
        {
          "indexed": false,
          "internalType": "string",
          "name": "prevURI",
          "type": "string"
        },
        {
          "indexed": false,
          "internalType": "string",
          "name": "newURI",
          "type": "string"
        }
      ],
      "name": "ContractURIUpdated",
      "type": "event"
    },
    {
      "anonymous": false,
      "inputs": [
        {
          "indexed": true,
          "internalType": "address",
          "name": "newRoyaltyRecipient",
          "type": "address"
        },
        {
          "indexed": false,
          "internalType": "uint256",
          "name": "newRoyaltyBps",
          "type": "uint256"
        }
      ],
      "name": "DefaultRoyalty",
      "type": "event"
    },
    {
      "anonymous": false,
      "inputs": [
        {
          "indexed": false,
          "internalType": "bool",
          "name": "restriction",
          "type": "bool"
        }
      ],
      "name": "OperatorRestriction",
      "type": "event"
    },
    {
      "anonymous": false,
      "inputs": [
        {
          "indexed": true,
          "internalType": "address",
          "name": "prevOwner",
          "type": "address"
        },
        {
          "indexed": true,
          "internalType": "address",
          "name": "newOwner",
          "type": "address"
        }
      ],
      "name": "OwnerUpdated",
      "type": "event"
    },
    {
      "anonymous": false,
      "inputs": [
        {
          "indexed": true,
          "internalType": "uint256",
          "name": "tokenId",
          "type": "uint256"
        },
        {
          "indexed": true,
          "internalType": "address",
          "name": "royaltyRecipient",
          "type": "address"
        },
        {
          "indexed": false,
          "internalType": "uint256",
          "name": "royaltyBps",
          "type": "uint256"
        }
      ],
      "name": "RoyaltyForToken",
      "type": "event"
    },
    {
      "anonymous": false,
      "inputs": [
        {
          "indexed": true,
          "internalType": "address",
          "name": "_operator",
          "type": "address"
        },
        {
          "indexed": true,
          "internalType": "address",
          "name": "_from",
          "type": "address"
        },
        {
          "indexed": true,
          "internalType": "address",
          "name": "_to",
          "type": "address"
        },
        {
          "indexed": false,
          "internalType": "uint256[]",
          "name": "_ids",
          "type": "uint256[]"
        },
        {
          "indexed": false,
          "internalType": "uint256[]",
          "name": "_values",
          "type": "uint256[]"
        }
      ],
      "name": "TransferBatch",
      "type": "event"
    },
    {
      "anonymous": false,
      "inputs": [
        {
          "indexed": true,
          "internalType": "address",
          "name": "_operator",
          "type": "address"
        },
        {
          "indexed": true,
          "internalType": "address",
          "name": "_from",
          "type": "address"
        },
        {
          "indexed": true,
          "internalType": "address",
          "name": "_to",
          "type": "address"
        },
        {
          "indexed": false,
          "internalType": "uint256",
          "name": "_id",
          "type": "uint256"
        },
        {
          "indexed": false,
          "internalType": "uint256",
          "name": "_value",
          "type": "uint256"
        }
      ],
      "name": "TransferSingle",
      "type": "event"
    },
    {
      "anonymous": false,
      "inputs": [
        {
          "indexed": false,
          "internalType": "string",
          "name": "_value",
          "type": "string"
        },
        {
          "indexed": true,
          "internalType": "uint256",
          "name": "_id",
          "type": "uint256"
        }
      ],
      "name": "URI",
      "type": "event"
    },
    {
      "inputs": [],
      "name": "OPERATOR_FILTER_REGISTRY",
      "outputs": [
        {
          "internalType": "contract IOperatorFilterRegistry",
          "name": "",
          "type": "address"
        }
      ],
      "stateMutability": "view",
      "type": "function"
    },
    {
      "inputs": [
        {
          "internalType": "address",
          "name": "",
          "type": "address"
        },
        {
          "internalType": "uint256",
          "name": "",
          "type": "uint256"
        }
      ],
      "name": "balanceOf",
      "outputs": [
        {
          "internalType": "uint256",
          "name": "",
          "type": "uint256"
        }
      ],
      "stateMutability": "view",
      "type": "function"
    },
    {
      "inputs": [
        {
          "internalType": "address[]",
          "name": "accounts",
          "type": "address[]"
        },
        {
          "internalType": "uint256[]",
          "name": "ids",
          "type": "uint256[]"
        }
      ],
      "name": "balanceOfBatch",
      "outputs": [
        {
          "internalType": "uint256[]",
          "name": "",
          "type": "uint256[]"
        }
      ],
      "stateMutability": "view",
      "type": "function"
    },
    {
      "inputs": [
        {
          "internalType": "address",
          "name": "_to",
          "type": "address"
        },
        {
          "internalType": "uint256[]",
          "name": "_tokenIds",
          "type": "uint256[]"
        },
        {
          "internalType": "uint256[]",
          "name": "_amounts",
          "type": "uint256[]"
        },
        {
          "internalType": "string",
          "name": "_baseURI",
          "type": "string"
        }
      ],
      "name": "batchMintTo",
      "outputs": [],
      "stateMutability": "nonpayable",
      "type": "function"
    },
    {
      "inputs": [
        {
          "internalType": "address",
          "name": "_owner",
          "type": "address"
        },
        {
          "internalType": "uint256",
          "name": "_tokenId",
          "type": "uint256"
        },
        {
          "internalType": "uint256",
          "name": "_amount",
          "type": "uint256"
        }
      ],
      "name": "burn",
      "outputs": [],
      "stateMutability": "nonpayable",
      "type": "function"
    },
    {
      "inputs": [
        {
          "internalType": "address",
          "name": "_owner",
          "type": "address"
        },
        {
          "internalType": "uint256[]",
          "name": "_tokenIds",
          "type": "uint256[]"
        },
        {
          "internalType": "uint256[]",
          "name": "_amounts",
          "type": "uint256[]"
        }
      ],
      "name": "burnBatch",
      "outputs": [],
      "stateMutability": "nonpayable",
      "type": "function"
    },
    {
      "inputs": [],
      "name": "contractURI",
      "outputs": [
        {
          "internalType": "string",
          "name": "",
          "type": "string"
        }
      ],
      "stateMutability": "view",
      "type": "function"
    },
    {
      "inputs": [
        {
          "internalType": "string",
          "name": "_name",
          "type": "string"
        },
        {
          "internalType": "uint256",
          "name": "_attack",
          "type": "uint256"
        },
        {
          "internalType": "uint256",
          "name": "_defense",
          "type": "uint256"
        },
        {
          "internalType": "uint256",
          "name": "_health",
          "type": "uint256"
        },
        {
          "internalType": "uint256",
          "name": "_mana",
          "type": "uint256"
        },
        {
          "internalType": "uint256",
          "name": "_skill",
          "type": "uint256"
        },
        {
          "internalType": "enum BattleItems.ItemType",
          "name": "_itemType",
          "type": "uint8"
        },
        {
          "internalType": "string",
          "name": "_tokenURI",
          "type": "string"
        }
      ],
      "name": "createItem",
      "outputs": [],
      "stateMutability": "nonpayable",
      "type": "function"
    },
    {
      "inputs": [],
      "name": "getBaseURICount",
      "outputs": [
        {
          "internalType": "uint256",
          "name": "",
          "type": "uint256"
        }
      ],
      "stateMutability": "view",
      "type": "function"
    },
    {
      "inputs": [
        {
          "internalType": "uint256",
          "name": "_index",
          "type": "uint256"
        }
      ],
      "name": "getBatchIdAtIndex",
      "outputs": [
        {
          "internalType": "uint256",
          "name": "",
          "type": "uint256"
        }
      ],
      "stateMutability": "view",
      "type": "function"
    },
    {
      "inputs": [],
      "name": "getDefaultRoyaltyInfo",
      "outputs": [
        {
          "internalType": "address",
          "name": "",
          "type": "address"
        },
        {
          "internalType": "uint16",
          "name": "",
          "type": "uint16"
        }
      ],
      "stateMutability": "view",
      "type": "function"
    },
    {
      "inputs": [
        {
          "internalType": "uint256",
          "name": "_itemId",
          "type": "uint256"
        }
      ],
      "name": "getItem",
      "outputs": [
        {
          "components": [
            {
              "internalType": "string",
              "name": "name",
              "type": "string"
            },
            {
              "internalType": "uint256",
              "name": "attack",
              "type": "uint256"
            },
            {
              "internalType": "uint256",
              "name": "defense",
              "type": "uint256"
            },
            {
              "internalType": "uint256",
              "name": "health",
              "type": "uint256"
            },
            {
              "internalType": "uint256",
              "name": "mana",
              "type": "uint256"
            },
            {
              "internalType": "uint256",
              "name": "skill",
              "type": "uint256"
            },
            {
              "internalType": "enum BattleItems.ItemType",
              "name": "itemType",
              "type": "uint8"
            }
          ],
          "internalType": "struct BattleItems.Item",
          "name": "",
          "type": "tuple"
        }
      ],
      "stateMutability": "view",
      "type": "function"
    },
    {
      "inputs": [
        {
          "internalType": "uint256",
          "name": "tokenId",
          "type": "uint256"
        }
      ],
      "name": "getItemType",
      "outputs": [
        {
          "internalType": "enum BattleItems.ItemType",
          "name": "",
          "type": "uint8"
        }
      ],
      "stateMutability": "view",
      "type": "function"
    },
    {
      "inputs": [],
      "name": "getRandomItem",
      "outputs": [
        {
          "internalType": "uint256",
          "name": "",
          "type": "uint256"
        }
      ],
      "stateMutability": "view",
      "type": "function"
    },
    {
      "inputs": [
        {
          "internalType": "uint256",
          "name": "_tokenId",
          "type": "uint256"
        }
      ],
      "name": "getRoyaltyInfoForToken",
      "outputs": [
        {
          "internalType": "address",
          "name": "",
          "type": "address"
        },
        {
          "internalType": "uint16",
          "name": "",
          "type": "uint16"
        }
      ],
      "stateMutability": "view",
      "type": "function"
    },
    {
      "inputs": [
        {
          "internalType": "address",
          "name": "",
          "type": "address"
        },
        {
          "internalType": "address",
          "name": "",
          "type": "address"
        }
      ],
      "name": "isApprovedForAll",
      "outputs": [
        {
          "internalType": "bool",
          "name": "",
          "type": "bool"
        }
      ],
      "stateMutability": "view",
      "type": "function"
    },
    {
      "inputs": [
        {
          "internalType": "uint256",
          "name": "",
          "type": "uint256"
        }
      ],
      "name": "items",
      "outputs": [
        {
          "internalType": "string",
          "name": "name",
          "type": "string"
        },
        {
          "internalType": "uint256",
          "name": "attack",
          "type": "uint256"
        },
        {
          "internalType": "uint256",
          "name": "defense",
          "type": "uint256"
        },
        {
          "internalType": "uint256",
          "name": "health",
          "type": "uint256"
        },
        {
          "internalType": "uint256",
          "name": "mana",
          "type": "uint256"
        },
        {
          "internalType": "uint256",
          "name": "skill",
          "type": "uint256"
        },
        {
          "internalType": "enum BattleItems.ItemType",
          "name": "itemType",
          "type": "uint8"
        }
      ],
      "stateMutability": "view",
      "type": "function"
    },
    {
      "inputs": [
        {
          "internalType": "uint256",
          "name": "_itemId",
          "type": "uint256"
        }
      ],
      "name": "mintItem",
      "outputs": [],
      "stateMutability": "nonpayable",
      "type": "function"
    },
    {
      "inputs": [
        {
          "internalType": "address",
          "name": "_to",
          "type": "address"
        },
        {
          "internalType": "uint256",
          "name": "_tokenId",
          "type": "uint256"
        },
        {
          "internalType": "string",
          "name": "_tokenURI",
          "type": "string"
        },
        {
          "internalType": "uint256",
          "name": "_amount",
          "type": "uint256"
        }
      ],
      "name": "mintTo",
      "outputs": [],
      "stateMutability": "nonpayable",
      "type": "function"
    },
    {
      "inputs": [
        {
          "internalType": "bytes[]",
          "name": "data",
          "type": "bytes[]"
        }
      ],
      "name": "multicall",
      "outputs": [
        {
          "internalType": "bytes[]",
          "name": "results",
          "type": "bytes[]"
        }
      ],
      "stateMutability": "nonpayable",
      "type": "function"
    },
    {
      "inputs": [],
      "name": "name",
      "outputs": [
        {
          "internalType": "string",
          "name": "",
          "type": "string"
        }
      ],
      "stateMutability": "view",
      "type": "function"
    },
    {
      "inputs": [],
      "name": "nextTokenIdToMint",
      "outputs": [
        {
          "internalType": "uint256",
          "name": "",
          "type": "uint256"
        }
      ],
      "stateMutability": "view",
      "type": "function"
    },
    {
      "inputs": [],
      "name": "numItems",
      "outputs": [
        {
          "internalType": "uint256",
          "name": "",
          "type": "uint256"
        }
      ],
      "stateMutability": "view",
      "type": "function"
    },
    {
      "inputs": [],
      "name": "operatorRestriction",
      "outputs": [
        {
          "internalType": "bool",
          "name": "",
          "type": "bool"
        }
      ],
      "stateMutability": "view",
      "type": "function"
    },
    {
      "inputs": [],
      "name": "owner",
      "outputs": [
        {
          "internalType": "address",
          "name": "",
          "type": "address"
        }
      ],
      "stateMutability": "view",
      "type": "function"
    },
    {
      "inputs": [
        {
          "internalType": "uint256",
          "name": "tokenId",
          "type": "uint256"
        },
        {
          "internalType": "uint256",
          "name": "salePrice",
          "type": "uint256"
        }
      ],
      "name": "royaltyInfo",
      "outputs": [
        {
          "internalType": "address",
          "name": "receiver",
          "type": "address"
        },
        {
          "internalType": "uint256",
          "name": "royaltyAmount",
          "type": "uint256"
        }
      ],
      "stateMutability": "view",
      "type": "function"
    },
    {
      "inputs": [
        {
          "internalType": "address",
          "name": "from",
          "type": "address"
        },
        {
          "internalType": "address",
          "name": "to",
          "type": "address"
        },
        {
          "internalType": "uint256[]",
          "name": "ids",
          "type": "uint256[]"
        },
        {
          "internalType": "uint256[]",
          "name": "amounts",
          "type": "uint256[]"
        },
        {
          "internalType": "bytes",
          "name": "data",
          "type": "bytes"
        }
      ],
      "name": "safeBatchTransferFrom",
      "outputs": [],
      "stateMutability": "nonpayable",
      "type": "function"
    },
    {
      "inputs": [
        {
          "internalType": "address",
          "name": "from",
          "type": "address"
        },
        {
          "internalType": "address",
          "name": "to",
          "type": "address"
        },
        {
          "internalType": "uint256",
          "name": "id",
          "type": "uint256"
        },
        {
          "internalType": "uint256",
          "name": "amount",
          "type": "uint256"
        },
        {
          "internalType": "bytes",
          "name": "data",
          "type": "bytes"
        }
      ],
      "name": "safeTransferFrom",
      "outputs": [],
      "stateMutability": "nonpayable",
      "type": "function"
    },
    {
      "inputs": [
        {
          "internalType": "address",
          "name": "operator",
          "type": "address"
        },
        {
          "internalType": "bool",
          "name": "approved",
          "type": "bool"
        }
      ],
      "name": "setApprovalForAll",
      "outputs": [],
      "stateMutability": "nonpayable",
      "type": "function"
    },
    {
      "inputs": [
        {
          "internalType": "string",
          "name": "_uri",
          "type": "string"
        }
      ],
      "name": "setContractURI",
      "outputs": [],
      "stateMutability": "nonpayable",
      "type": "function"
    },
    {
      "inputs": [
        {
          "internalType": "address",
          "name": "_royaltyRecipient",
          "type": "address"
        },
        {
          "internalType": "uint256",
          "name": "_royaltyBps",
          "type": "uint256"
        }
      ],
      "name": "setDefaultRoyaltyInfo",
      "outputs": [],
      "stateMutability": "nonpayable",
      "type": "function"
    },
    {
      "inputs": [
        {
          "internalType": "bool",
          "name": "_restriction",
          "type": "bool"
        }
      ],
      "name": "setOperatorRestriction",
      "outputs": [],
      "stateMutability": "nonpayable",
      "type": "function"
    },
    {
      "inputs": [
        {
          "internalType": "address",
          "name": "_newOwner",
          "type": "address"
        }
      ],
      "name": "setOwner",
      "outputs": [],
      "stateMutability": "nonpayable",
      "type": "function"
    },
    {
      "inputs": [
        {
          "internalType": "uint256",
          "name": "_tokenId",
          "type": "uint256"
        },
        {
          "internalType": "address",
          "name": "_recipient",
          "type": "address"
        },
        {
          "internalType": "uint256",
          "name": "_bps",
          "type": "uint256"
        }
      ],
      "name": "setRoyaltyInfoForToken",
      "outputs": [],
      "stateMutability": "nonpayable",
      "type": "function"
    },
    {
      "inputs": [
        {
          "internalType": "bytes4",
          "name": "interfaceId",
          "type": "bytes4"
        }
      ],
      "name": "supportsInterface",
      "outputs": [
        {
          "internalType": "bool",
          "name": "",
          "type": "bool"
        }
      ],
      "stateMutability": "view",
      "type": "function"
    },
    {
      "inputs": [],
      "name": "symbol",
      "outputs": [
        {
          "internalType": "string",
          "name": "",
          "type": "string"
        }
      ],
      "stateMutability": "view",
      "type": "function"
    },
    {
      "inputs": [
        {
          "internalType": "uint256",
          "name": "",
          "type": "uint256"
        }
      ],
      "name": "totalSupply",
      "outputs": [
        {
          "internalType": "uint256",
          "name": "",
          "type": "uint256"
        }
      ],
      "stateMutability": "view",
      "type": "function"
    },
    {
      "inputs": [
        {
          "internalType": "uint256",
          "name": "_itemId",
          "type": "uint256"
        },
        {
          "internalType": "string",
          "name": "_name",
          "type": "string"
        },
        {
          "internalType": "uint256",
          "name": "_attack",
          "type": "uint256"
        },
        {
          "internalType": "uint256",
          "name": "_defense",
          "type": "uint256"
        },
        {
          "internalType": "uint256",
          "name": "_health",
          "type": "uint256"
        },
        {
          "internalType": "uint256",
          "name": "_mana",
          "type": "uint256"
        },
        {
          "internalType": "uint256",
          "name": "_skill",
          "type": "uint256"
        }
      ],
      "name": "updateItem",
      "outputs": [],
      "stateMutability": "nonpayable",
      "type": "function"
    },
    {
      "inputs": [
        {
          "internalType": "uint256",
          "name": "_tokenId",
          "type": "uint256"
        }
      ],
      "name": "uri",
      "outputs": [
        {
          "internalType": "string",
          "name": "",
          "type": "string"
        }
      ],
      "stateMutability": "view",
      "type": "function"
    }
  ],
  "bytecode": "0x60806040818152346200044f576000916200001a8162000454565b600c81526020906b125d195b50dbdb9d1c9858dd60a21b82820152825193620000438562000454565b6002855261494360f01b8386015281516001600160401b0395908681116200043b578254906001948583811c9316801562000430575b878410146200033a578190601f93848111620003dd575b508790848311600114620003795786926200036d575b5050600019600383901b1c191690851b1783555b815191878311620003595784548581811c911680156200034e575b878210146200033a5790818385949311620002e5575b50869183116001146200028157849262000275575b5050600019600383901b1c191690831b1782555b6daaeb6d7670e522a718067333cd4e94853b620001dd575b5060068054336001600160a01b031982168117909255855195965060008051602062004334833981519152957f90d7ec04bcb8978719414f82e52e4cb651db41d0e6f8cea6118c2191e6183adb9286926001600160a01b03167f8292fce18fa69edf4db7b94ea2e58241df0ae57f97e0a6c9b29067028bf92d768684a3600780546001600160b01b0319169055838152a28060ff19600b541617600b558351908152a151613ead9081620004878239f35b8582963b15620002715782906044875180958193633e9f1edf60e11b8352306004840152733cc6cdda760b79bafa08df41ecfa224f810dceb660248401525af18015620002675762000233575b8591506200012c565b81116200025357835260008051602062004334833981519152386200022a565b634e487b7160e01b85526041600452602485fd5b85513d88823e3d90fd5b8280fd5b01519050388062000100565b8585528685208694509190601f198416865b89828210620002ce5750508411620002b4575b505050811b01825562000114565b015160001960f88460031b161c19169055388080620002a6565b838501518655899790950194938401930162000293565b909192508585528685208380860160051c82019289871062000330575b91869589929594930160051c01915b82811062000321575050620000eb565b87815586955088910162000311565b9250819262000302565b634e487b7160e01b85526022600452602485fd5b90607f1690620000d5565b634e487b7160e01b84526041600452602484fd5b015190503880620000a6565b8680528887208894509190601f198416885b8b828210620003c65750508411620003ac575b505050811b018355620000ba565b015160001960f88460031b161c191690553880806200039e565b8385015186558b979095019493840193016200038b565b9091508580528786208480850160051c8201928a861062000426575b918991869594930160051c01915b8281106200041757505062000090565b88815585945089910162000407565b92508192620003f9565b92607f169262000079565b634e487b7160e01b83526041600452602483fd5b600080fd5b604081019081106001600160401b038211176200047057604052565b634e487b7160e01b600052604160045260246000fdfe60806040526004361015610013575b600080fd5b60003560e01c8062fdd58e1461031e57806301ffc9a71461031557806306fdde031461030c5780630e89341c1461030357806313af4035146102fa57806317fb8594146102f15780632419f51b146102e85780632a55205a146102df5780632eb2c2d6146102d65780633129e773146102cd57806332f0cd64146102c45780633b1475a7146102bb57806341f43434146102b25780634cc157df146102a95780634e1273f4146102a0578063504c6e01146102975780635bfadae41461028e578063600dd5ea1461028557806363b45e2d1461027c578063667837fc146102735780636b20c4541461026a5780636b2d3062146102615780638a7dbc8d146102585780638da5cb5b1461024f578063938e3d7b14610246578063949c09f71461023d57806395d89b41146102345780639bcf7a151461022b578063a22cb46514610222578063ac9650d814610219578063b03f452814610210578063b24f2d3914610207578063bd85b039146101fe578063bfb231d2146101f5578063c19a4ef5146101ec578063e8a3d485146101e3578063e985e9c5146101da578063f242432a146101d15763f5298aca146101c957600080fd5b61000e612198565b5061000e611f6b565b5061000e611f0d565b5061000e611e77565b5061000e611dee565b5061000e611d4f565b5061000e611d22565b5061000e611ceb565b5061000e611b53565b5061000e611aed565b5061000e6119a0565b5061000e6118cf565b5061000e611829565b5061000e6116e5565b5061000e611567565b5061000e61153d565b5061000e6114c9565b5061000e6113ab565b5061000e611293565b5061000e611221565b5061000e611202565b5061000e611138565b5061000e611119565b5061000e6110f5565b5061000e61103b565b5061000e610fb8565b5061000e610f8e565b5061000e610f6f565b5061000e610ea8565b5061000e610de0565b5061000e610b5e565b5061000e6109fc565b5061000e610975565b5061000e6108bb565b5061000e61080a565b5061000e6107d6565b5061000e6106f2565b5061000e6103c2565b5061000e610367565b600435906001600160a01b038216820361000e57565b602435906001600160a01b038216820361000e57565b35906001600160a01b038216820361000e57565b503461000e57604036600319011261000e576001600160a01b03610389610327565b16600052600260205260406000206024356000526020526020604060002054604051908152f35b6001600160e01b031981160361000e57565b503461000e57602036600319011261000e5760206004356103e2816103b0565b63ffffffff60e01b166301ffc9a760e01b8114908115610438575b8115610427575b8115610416575b506040519015158152f35b63152a902d60e11b1490503861040b565b6303a24d0760e21b81149150610404565b636cdb3d1360e11b811491506103fd565b90600182811c92168015610479575b602083101461046357565b634e487b7160e01b600052602260045260246000fd5b91607f1691610458565b50634e487b7160e01b600052604160045260246000fd5b60e081019081106001600160401b038211176104b557604052565b6104bd610483565b604052565b604081019081106001600160401b038211176104b557604052565b602081019081106001600160401b038211176104b557604052565b606081019081106001600160401b038211176104b557604052565b90601f801991011681019081106001600160401b038211176104b557604052565b604051906000826005549161054883610449565b808352926001908181169081156105be5750600114610571575b5061056f92500383610513565b565b600560009081529150600080516020613e588339815191525b8483106105a3575061056f935050810160200138610562565b81935090816020925483858a0101520191019091859261058a565b90506020925061056f94915060ff191682840152151560051b82010138610562565b90604051918260008254926105f484610449565b908184526001948581169081600014610661575060011461061e575b505061056f92500383610513565b9093915060005260209081600020936000915b81831061064957505061056f93508201013880610610565b85548884018501529485019487945091830191610631565b91505061056f94506020925060ff191682840152151560051b8201013880610610565b918091926000905b8282106106a457501161069d575050565b6000910152565b9150806020918301518186015201829161068c565b906020916106d281518092818552858086019101610684565b601f01601f1916010190565b9060206106ef9281815201906106b9565b90565b503461000e576000806003193601126107d3576040519080805461071581610449565b808552916001918083169081156107a9575060011461074f575b61074b8561073f81870382610513565b604051918291826106de565b0390f35b80809450527f290decd9548b62a8d60345a988386fc84ba6bc95484008f6362f93160ef3e5635b82841061079157505050810160200161073f8261074b61072f565b80546020858701810191909152909301928101610776565b86955061074b9693506020925061073f94915060ff191682840152151560051b820101929361072f565b80fd5b503461000e57602036600319011261000e5761074b6107f6600435612320565b6040519182916020835260208301906106b9565b503461000e57602036600319011261000e57610824610327565b6006546001600160a01b03808216919033839003610881576000931680916bffffffffffffffffffffffff60a01b1617600655604051917f8292fce18fa69edf4db7b94ea2e58241df0ae57f97e0a6c9b29067028bf92d768484a3f35b60405162461bcd60e51b815260206004820152600e60248201526d139bdd08185d5d1a1bdc9a5e995960921b6044820152606490fd5b0390fd5b503461000e57602036600319011261000e576004358015610932575b600f548110156108f6576108f4906108ed612474565b9033612b4e565b005b60405162461bcd60e51b815260206004820152601460248201527314dada5b1b08191bd95cc81b9bdd08195e1a5cdd60621b6044820152606490fd5b600f546108d75760405162461bcd60e51b815260206004820152601460248201527314dada5b1b08191bd95cc81b9bdd08195e1a5e1d60621b6044820152606490fd5b503461000e57602036600319011261000e576004356009548110156109c75760209060096000527f6e1540171b6c0c960b71a7020d9f60077f6af931a8bbf590da0223dacf75c7af0154604051908152f35b60405162461bcd60e51b815260206004820152600d60248201526c092dcecc2d8d2c840d2dcc8caf609b1b6044820152606490fd5b503461000e57604036600319011261000e57604061ffff612710602435610a246004356139e5565b90931690801515600019829004831116610a51575b84516001600160a01b03909416845202046020820152f35b610a59612418565b610a39565b6020906001600160401b038111610a77575b60051b0190565b610a7f610483565b610a70565b81601f8201121561000e57803591610a9b83610a5e565b92610aa96040519485610513565b808452602092838086019260051b82010192831161000e578301905b828210610ad3575050505090565b81358152908301908301610ac5565b6020906001600160401b038111610aff575b601f01601f19160190565b610b07610483565b610af4565b929192610b1882610ae2565b91610b266040519384610513565b82948184528183011161000e578281602093846000960137010152565b9080601f8301121561000e578160206106ef93359101610b0c565b503461000e5760a036600319011261000e57610b78610327565b610b8061033d565b6001600160401b039160443583811161000e57610ba1903690600401610a84565b9260643581811161000e57610bba903690600401610a84565b9060843590811161000e57610bd3903690600401610b43565b6001600160a01b0383811694919033861480159081610d47575b90610d24575b610bfc90612838565b610c098751855114612743565b8216610c16811515612879565b610c228488858861290a565b60005b8751811015610ce05780610c3c610cdb928a612657565b51610cd4610ccc610c4d848a612657565b51928a610cae82610c7887610c8783610c788760018060a01b03166000526002602052604060002090565b90600052602052604060002090565b54610c94828210156128b4565b039360018060a01b03166000526002602052604060002090565b556001600160a01b0389166000908152600260205260409020610c78565b918254612468565b9055612781565b610c25565b506108f496939491956040517f4a39dc06d4c0dbc64b70af90fd698a233a518aa5d07e595d983b8c0526c8f7fb339180610d1b8a8a8361299a565b0390a43361352d565b50600086815260036020908152604080832033845290915290205460ff16610bf3565b610d5033613919565b610bed565b60051115610d5f57565b634e487b7160e01b600052602160045260246000fd5b906005821015610d5f5752565b6106ef906020815260e060c0610da485518360208601526101008501906106b9565b94602081015160408501526040810151606085015260608101516080850152608081015160a085015260a0810151828501520151910190610d75565b503461000e57602036600319011261000e5761074b60408060c08151610e058161049a565b60608152600091818360208194015282858201528260608201528260808201528260a082015201526004358152600e6020522090610e9460ff6006835194610e4c8661049a565b610e55816105e0565b8652600181015460208701526002810154858701526003810154606087015260048101546080870152600581015460a087015201541660c08401613c7f565b5191829182610d82565b8015150361000e57565b503461000e57602036600319011261000e57600435610ec681610e9e565b6006546001600160a01b03163303610f165760207f38475885990d8dfe9ca01f0ef160a1b5514426eab9ddbc953a3353410ba7809691151560ff19600b541660ff821617600b55604051908152a1005b60405162461bcd60e51b815260206004820152602b60248201527f4e6f7420617574686f72697a656420746f20736574206f70657261746f72207260448201526a32b9ba3934b1ba34b7b71760a91b6064820152608490fd5b503461000e57600036600319011261000e576020600c54604051908152f35b503461000e57600036600319011261000e5760206040516daaeb6d7670e522a718067333cd4e8152f35b503461000e57602036600319011261000e57610fd56004356139e5565b604080516001600160a01b0393909316835261ffff91909116602083015290f35b90815180825260208080930193019160005b828110611016575050505090565b835185529381019392810192600101611008565b9060206106ef928181520190610ff6565b503461000e57604036600319011261000e576004356001600160401b0380821161000e573660238301121561000e57816004013561107881610a5e565b926110866040519485610513565b81845260209160248386019160051b8301019136831161000e57602401905b8282106110de578560243586811161000e5761074b916110cc6110d2923690600401610a84565b90612791565b6040519182918261102a565b8380916110ea84610353565b8152019101906110a5565b503461000e57600036600319011261000e57602060ff600b54166040519015158152f35b503461000e57600036600319011261000e576020600f54604051908152f35b503461000e57604036600319011261000e57611152610327565b600654602435916001600160a01b0391821633036108815761271083116111cb57600780546001600160b01b0319169190921690811760a084901b61ffff60a01b1617909155604051918252907f90d7ec04bcb8978719414f82e52e4cb651db41d0e6f8cea6118c2191e6183adb9080602081010390a2005b60405162461bcd60e51b815260206004820152600f60248201526e45786365656473206d61782062707360881b6044820152606490fd5b503461000e57600036600319011261000e576020600954604051908152f35b503461000e57600036600319011261000e5760405160208101904282526020815261124b816104c2565b519020600f54801561127d57602091066001198111611270575b600160405191018152f35b611278612418565b611265565b634e487b7160e01b600052601260045260246000fd5b503461000e57606036600319011261000e576112ad610327565b6001600160401b0360243581811161000e576112cd903690600401610a84565b9060443590811161000e576112e6903690600401610a84565b906001600160a01b0383163381148015611384575b6113059150612679565b6113128151835114612705565b60005b815181101561137a576113759061137061135d6113448760018060a01b03166000526002602052604060002090565b61134e8487612657565b51600052602052604060002090565b546113688387612657565b5111156126b9565b61242f565b611315565b506108f492612ed9565b5060009081526003602090815260408083203384529091529020546113059060ff166112fb565b503461000e5760e036600319011261000e576004356024356001600160401b03811161000e576113df903690600401610b43565b600f54821161148e576114059061140083600052600e602052604060002090565b612a72565b604435600161141e83600052600e602052604060002090565b0155606435600261143983600052600e602052604060002090565b0155608435600361145483600052600e602052604060002090565b015560a435600461146f83600052600e602052604060002090565b0155600561148a60c43592600052600e602052604060002090565b0155005b60405162461bcd60e51b8152602060048201526013602482015272125d195b48191bd95cc81b9bdd08195e1a5cdd606a1b6044820152606490fd5b503461000e5761010036600319011261000e576001600160401b0360043581811161000e576114fc903690600401610b43565b60c435600581101561000e5760e43592831161000e576115236108f4933690600401610b43565b9160a4359060843590606435906044359060243590613ca3565b503461000e57600036600319011261000e576006546040516001600160a01b039091168152602090f35b503461000e5760208060031936011261000e576001600160401b039060043582811161000e5761159b903690600401610b43565b6006549091906001600160a01b03163303610881576115b8610534565b9082519384116116d8575b6115d7846115d2600554610449565b6129bf565b80601f8511600114611644575092807fc9c7c3fe08b88b4df9d4d47ef47d2c43d55c025a0ba88ca442580ed9e7348a1694600091611639575b508160011b916000199060031b1c1916176005555b6116346040519283928361381d565b0390a1005b905083015138611610565b600560005290601f198516600080516020613e58833981519152926000905b8282106116c05750509185917fc9c7c3fe08b88b4df9d4d47ef47d2c43d55c025a0ba88ca442580ed9e7348a1696600194106116a7575b5050811b01600555611625565b85015160001960f88460031b161c19169055388061169a565b80600185968294968a01518155019501930190611663565b6116e0610483565b6115c3565b503461000e57608036600319011261000e576116ff610327565b6001600160401b0360243581811161000e5761171f903690600401610a84565b60443582811161000e57611737903690600401610a84565b9160643590811161000e579061175284923690600401610b43565b9161176860018060a01b03600654163314612393565b611774845115156125be565b6117818251855114612601565b600c54600094859291805b85518510156117f1576000196117a28688612657565b51036117d6576117c96117c3826117cf936117bd898b612657565b5261242f565b9861242f565b9461242f565b939661178c565b969380611370896117ea6117cf948a612657565b51106123df565b9194935061180c92956108f4978061181a575b505050600c55565b611814612474565b92612d65565b611823926136f4565b88611804565b503461000e576000806003193601126107d3576040519080600180549161184f83610449565b808652928281169081156107a957506001146118755761074b8561073f81870382610513565b92508083527fb10e2d527612073b26eecdfd717e6a320cf44b4afac2b0732d9fcbe2b7fa0cf65b8284106118b757505050810160200161073f8261074b61072f565b8054602085870181019190915290930192810161189c565b503461000e57606036600319011261000e576004356118ec61033d565b6006546001600160a01b03929160443591841633036108815761271082116111cb577f7365cf4122f072a3365c20d54eff9b38d73c096c28e1892ec8f5b0e403a0f12d9161199b9160018660405192611944846104c2565b169687835261198760208401918583528860005260086020526040600020945116849060018060a01b03166bffffffffffffffffffffffff60a01b825416179055565b519101556040519081529081906020820190565b0390a3005b503461000e57604036600319011261000e576119ba610327565b6024356119c681610e9e565b6119cf82613919565b6001600160a01b03821691338314611a555781611a0e611a1f9233600052600360205260406000209060018060a01b0316600052602052604060002090565b9060ff801983541691151516179055565b604051901515815233907f17307eab39ab6107e8899845ad3d59bd9653f200f220920489ca2b5937696c3190806020810161199b565b60405162461bcd60e51b815260206004820152600e60248201526d20a8282927ab24a723afa9a2a62360911b6044820152606490fd5b602080820190808352835180925260408301928160408460051b8301019501936000915b848310611abf5750505050505090565b9091929394958480611add600193603f198682030187528a516106b9565b9801930193019194939290611aaf565b503461000e57602036600319011261000e576001600160401b0360043581811161000e573660238201121561000e57806004013591821161000e573660248360051b8301011161000e5761074b916024611b479201613842565b60405191829182611a8b565b503461000e57608036600319011261000e57611b6d610327565b602435604435916001600160401b039283811161000e57611b92903690600401610b43565b92611ba860018060a01b03600654163314612393565b600c549060001993848114600014611cd0575081936001198311611cc3575b600192838101600c55600052602092600484526040600020938751938411611cb6575b611bfe84611bf88754610449565b87612a1e565b80601f8511600114611c47575083929183916108f499600095611c3c575b50501b9260031b1c19161790555b611c32612474565b9160643591612c50565b015193503880611c1c565b91939290601f19841698611c6087600052602060002090565b936000905b8b8210611c9f575050846108f49a10611c87575b50505050811b019055611c2a565b01519060f88460031b161c1916905538808080611c79565b808885978294968601518155019601930190611c65565b611cbe610483565b611bea565b611ccb612418565b611bc7565b6108f4955080939450611ce5929150106123df565b90611c2a565b503461000e57600036600319011261000e57600754604080516001600160a01b038316815260a09290921c61ffff16602083015290f35b503461000e57602036600319011261000e57600435600052600d6020526020604060002054604051908152f35b503461000e57602036600319011261000e57600435600052600e602052611dba6040600020611d7d816105e0565b9061074b600182015491600281015490600381015460048201549060ff60066005850154940154169360405198899860e08a5260e08a01906106b9565b96602089015260408801526060870152608086015260a085015260c0840190610d75565b60208101929161056f9190610d75565b503461000e57602036600319011261000e5760043580600052600d60205260406000205415611e3a57600052600e60205261074b60ff6006604060002001541660405191829182611dde565b60405162461bcd60e51b8152602060048201526015602482015274125b9d985b1a59081a5d195b481d1bdad95b881251605a1b6044820152606490fd5b503461000e576000806003193601126107d3576040519080600554611e9b81610449565b808552916001918083169081156107a95750600114611ec45761074b8561073f81870382610513565b925060058352600080516020613e588339815191525b828410611ef557505050810160200161073f8261074b61072f565b80546020858701810191909152909301928101611eda565b503461000e57604036600319011261000e57602060ff611f5f611f2e610327565b611f3661033d565b6001600160a01b0391821660009081526003865260408082209290931681526020919091522090565b54166040519015158152f35b503461000e5760a036600319011261000e57611f85610327565b611f8d61033d565b6064356044356084356001600160401b03811161000e57611fb2903690600401610b43565b6001600160a01b0385811695919491903387148015908161218a575b90612167575b611fdd90612838565b8216801596611fec8815612879565b611ff585613599565b611ffe87613599565b98821561211c575b6120b8575b506108f497508561203286610c788660018060a01b03166000526002602052604060002090565b5461203f828210156128b4565b0361206086610c788660018060a01b03166000526002602052604060002090565b556001600160a01b0384166000908152600260205260409020612084908690610c78565b61208f878254612468565b905560408051868152602081018890523391600080516020613e3883398151915291a4336133a1565b959391600097959391975b875181101561210957806120da612104928c612657565b51610cd46120fc6120eb848d612657565b51600052600d602052604060002090565b9182546128f3565b6120c3565b50919395509193956108f497503861200b565b97959391600097959391975b8a8951821015612157579089610cd4610ccc6120eb8461214b8161215298612657565b5194612657565b612128565b5050919395979690929496612006565b50600087815260036020908152604080832033845290915290205460ff16611fd4565b61219333613919565b611fce565b503461000e57606036600319011261000e576121b2610327565b602435906044356001600160a01b03821633811480156122fd575b6121d690612679565b6000908082526002602052604082208583526020526121fb83604084205410156126b9565b8015946122088615612e9c565b61221181613599565b9361221b81613599565b9684604051612229816104dd565b526122c0575b835b855181101561225e5780612248612259928a612657565b51610cd46120fc6120eb848b612657565b612231565b508394506122b8600080516020613e38833981519152918761229e85610c7884610c8783610c788760018060a01b03166000526002602052604060002090565b556040805194855260208501919091523393918291820190565b0390a4604051f35b94929190825b85518110156122f357806122dd6122ee928a612657565b51610cd4610ccc6120eb848b612657565b6122c6565b509091929461222f565b50600081815260036020908152604080832033845290915290205460ff166121cd565b8060005260206004815261233760406000206105e0565b805161238d57506106ef9061235461234e84613603565b93613ba7565b92604051938161236d8693518092868087019101610684565b820161238182518093868085019101610684565b01038084520182610513565b91505090565b1561239a57565b60405162461bcd60e51b815260206004820152601760248201527f4e6f7420617574686f72697a656420746f206d696e742e0000000000000000006044820152606490fd5b156123e657565b60405162461bcd60e51b815260206004820152600a6024820152691a5b9d985b1a59081a5960b21b6044820152606490fd5b50634e487b7160e01b600052601160045260246000fd5b600190600119811161243f570190565b612447612418565b0190565b801960301161245b575b60300190565b612463612418565b612455565b8119811161243f570190565b60405190612481826104dd565b60008252565b91909161249f60018060a01b03600654163314612393565b600c5460011981116125b1575b6001808201600c5581600052602090600482526040600020918651966001600160401b0388116125a4575b6124eb886124e58654610449565b86612a1e565b81601f89116001146125355750968092819261056f989960009461252a575b50501b916000199060031b1c19161790555b612524612474565b91612b4e565b01519250388061250a565b909791601f1983169861254d86600052602060002090565b926000905b8b821061258d5750508361056f999a10612574575b505050811b01905561251c565b015160001960f88460031b161c19169055388080612567565b808785968294968601518155019501930190612552565b6125ac610483565b6124d7565b6125b9612418565b6124ac565b156125c557565b60405162461bcd60e51b815260206004820152601460248201527326b4b73a34b733903d32b937903a37b5b2b7399760611b6044820152606490fd5b1561260857565b60405162461bcd60e51b815260206004820152601060248201526f2632b733ba341036b4b9b6b0ba31b41760811b6044820152606490fd5b50634e487b7160e01b600052603260045260246000fd5b602091815181101561266c575b60051b010190565b612674612640565b612664565b1561268057565b60405162461bcd60e51b81526020600482015260116024820152702ab730b8383937bb32b21031b0b63632b960791b6044820152606490fd5b156126c057565b60405162461bcd60e51b815260206004820152601760248201527f4e6f7420656e6f75676820746f6b656e73206f776e65640000000000000000006044820152606490fd5b1561270c57565b60405162461bcd60e51b815260206004820152600f60248201526e098cadccee8d040dad2e6dac2e8c6d608b1b6044820152606490fd5b1561274a57565b60405162461bcd60e51b815260206004820152600f60248201526e0988a9c8ea890be9a92a69a82a8869608b1b6044820152606490fd5b600190600019811461243f570190565b9190916127a18151845114612743565b8051926127ad84610a5e565b916040946127bd86519485610513565b8084526127cc601f1991610a5e565b0190602091368386013760005b815181101561282f5761282a906001600160a01b036127f88285612657565b5116600052600284528760002061280f8287612657565b51600052845287600020546128248288612657565b52612781565b6127d9565b50929450505050565b1561283f57565b60405162461bcd60e51b81526020600482015260126024820152710853d5d3915497d3d497d054141493d5915160721b6044820152606490fd5b1561288057565b60405162461bcd60e51b815260206004820152600c60248201526b2a27afad22a927afa0a2222960a11b6044820152606490fd5b156128bb57565b60405162461bcd60e51b815260206004820152601060248201526f125394d551919250d251539517d0905360821b6044820152606490fd5b8181106128fe570390565b612906612418565b0390565b9293926001600160a01b039190821615612960575b161561292a57509050565b60005b815181101561295a57806129446129559286612657565b51610cd46120fc6120eb8487612657565b61292d565b50509050565b929060005b8351811015612992578061297c61298d9288612657565b51610cd4610ccc6120eb8489612657565b612965565b50909261291f565b90916129b16106ef93604084526040840190610ff6565b916020818403910152610ff6565b601f81116129cb575050565b60009060058252600080516020613e58833981519152906020601f850160051c83019410612a14575b601f0160051c01915b828110612a0957505050565b8181556001016129fd565b90925082906129f4565b90601f8111612a2c57505050565b600091825260208220906020601f850160051c83019410612a68575b601f0160051c01915b828110612a5d57505050565b818155600101612a51565b9092508290612a48565b91909182516001600160401b038111612b41575b612a9a81612a948454610449565b84612a1e565b602080601f8311600114612ad6575081929394600092612acb575b50508160011b916000199060031b1c1916179055565b015190503880612ab5565b90601f19831695612aec85600052602060002090565b926000905b888210612b2957505083600195969710612b10575b505050811b019055565b015160001960f88460031b161c19169055388080612b06565b80600185968294968601518155019501930190612af1565b612b49610483565b612a86565b6001600160a01b038116938415939192909190612b6b8515612879565b612b7481613599565b93612b7d613567565b9660005b8651811015612bae5780612b98612ba9928b612657565b51610cd4610ccc6120eb848c612657565b612b81565b5091939594909294612c19575b5061056f949550612be283610c788460018060a01b03166000526002602052604060002090565b612bec815461242f565b905560408051848152600160208201526000913391600080516020613e388339815191529190a433613196565b93916000959391955b8551811015612c3e5780612248612c39928a612657565b612c22565b5091935091945061056f938594612bbb565b6001600160a01b0381169485159491939092612c6c8615612879565b612c7581613599565b94612c7f83613599565b9760005b8751811015612cb05780612c9a612cab928c612657565b51610cd4610ccc6120eb848d612657565b612c83565b5091939590929496612d1c575b5061056f959650612ce483610c788460018060a01b03166000526002602052604060002090565b612cef858254612468565b905560408051848152602081018690526000913391600080516020613e388339815191529190a4336132cd565b94929095939160005b8651811015612d525780612d3c612d4d928b612657565b51610cd46120fc6120eb848c612657565b612d25565b509193965091935061056f948695612cbd565b6001600160a01b03811694851594929392612d808615612879565b612d8d8551855114612743565b60005b8551811015612dac57806122dd612da79287612657565b612d90565b50909194612e45575b60005b8451811015612dff5780612dcf612dfa9286612657565b516001600160a01b0388166000908152600260205260409020610cd490610ccc9061134e858b612657565b612db8565b509290949361056f9460006040517f4a39dc06d4c0dbc64b70af90fd698a233a518aa5d07e595d983b8c0526c8f7fb339180612e3c89898361299a565b0390a4336134f6565b939060005b8451811015612e945780612e61612e829286612657565b51612e6f6120eb8389612657565b908154818110612e87575b039055612781565b612e4a565b612e8f612418565b612e7a565b509093612db5565b15612ea357565b60405162461bcd60e51b815260206004820152600e60248201526d232927a6afad22a927afa0a2222960911b6044820152606490fd5b9192916001600160a01b038116908115612ef38115612e9c565b612f008451875114612743565b612f08612474565b50613000575b60005b8351811015612f3b5780612f28612f369288612657565b51612e6f6120eb8388612657565b612f11565b5091909260005b8251811015612fc15780612f59612fbc9285612657565b51612fb6612f67838a612657565b516001600160a01b0388166000908152600260205260409020612f8b908490610c78565b54612f98828210156128b4565b0391610c788860018060a01b03166000526002602052604060002090565b55612781565b612f42565b50936000939250612ffb7f4a39dc06d4c0dbc64b70af90fd698a233a518aa5d07e595d983b8c0526c8f7fb9160405191829133958361299a565b0390a4565b929060005b8351811015613021578061297c61301c9288612657565b613005565b509092612f0e565b9081602091031261000e57516106ef816103b0565b6106ef939260a092600180851b031682526000602083015260408201526001606082015281608082015201906106b9565b909260a0926106ef9594600180861b03168352600060208401526040830152606082015281608082015201906106b9565b91926106ef95949160a094600180871b0380921685521660208401526040830152606082015281608082015201906106b9565b506040513d6000823e3d90fd5b60609060208152600f60208201526e1513d2d15394d7d491529150d51151608a1b60408201520190565b60009060033d1161311757565b905060046000803e60005160e01c90565b600060443d106106ef57604051600319913d83016004833e81516001600160401b03918282113d6024840111176131855781840194855193841161318d573d8501016020848701011161318557506106ef92910160200190610513565b949350505050565b50949350505050565b92919091823b6131a7575b50505050565b6131ce92602092600060405180968195829463f23a6e6160e01b9a8b85526004850161303e565b03926001600160a01b03165af16000918161329d575b5061327557505060016131f561310a565b6308c379a014613246575b61320e575b388080806131a1565b60405162461bcd60e51b815260206004820152601060248201526f10a2a92198989a9aa922a1a2a4ab22a960811b6044820152606490fd5b61324e613128565b806132595750613200565b60405162461bcd60e51b81529081906108b790600483016106de565b6001600160e01b031916146132055760405162461bcd60e51b8152806108b7600482016130e0565b6132bf91925060203d81116132c6575b6132b78183610513565b810190613029565b90386131e4565b503d6132ad565b9390803b6132dd575b5050505050565b6133059360006020946040519687958694859363f23a6e6160e01b9b8c86526004860161306f565b03926001600160a01b03165af160009181613381575b50613359575050600161332c61310a565b6308c379a014613346575b61320e575b38808080806132d6565b61334e613128565b806132595750613337565b6001600160e01b0319161461333c5760405162461bcd60e51b8152806108b7600482016130e0565b61339a91925060203d81116132c6576132b78183610513565b903861331b565b9493919092813b6133b5575b505050505050565b60006020946133dc6040519788968795869463f23a6e6160e01b9c8d8752600487016130a0565b03926001600160a01b03165af160009181613459575b50613431575050600161340361310a565b6308c379a01461341e575b61320e575b3880808080806133ad565b613426613128565b80613259575061340e565b6001600160e01b031916146134135760405162461bcd60e51b8152806108b7600482016130e0565b61347291925060203d81116132c6576132b78183610513565b90386133f2565b926134a86106ef95936134b69360018060a01b031686526000602087015260a0604087015260a0860190610ff6565b908482036060860152610ff6565b9160808184039101526106b9565b93906106ef95936134a8916134b69460018060a01b03809216885216602087015260a0604087015260a0860190610ff6565b9390803b613505575050505050565b6133059360006020946040519687958694859363bc197c8160e01b9b8c865260048601613479565b9493919092813b61354057505050505050565b60006020946133dc6040519788968795869463bc197c8160e01b9c8d8752600487016134c4565b604051613573816104c2565b60018152600160208201602036823782511561358d575290565b613595612640565b5290565b604051906135a6826104c2565b6001825260208201602036823782511561358d575290565b6009548110156135f6575b60096000527f6e1540171b6c0c960b71a7020d9f60077f6af931a8bbf590da0223dacf75c7af0190600090565b6135fe612640565b6135c9565b60095490604051908183815282602080920160096000527f6e1540171b6c0c960b71a7020d9f60077f6af931a8bbf590da0223dacf75c7af9260005b8781106136dd57505061365492500383610513565b60005b8381106136955760405162461bcd60e51b815260206004820152600f60248201526e125b9d985b1a59081d1bdad95b9259608a1b6044820152606490fd5b61369f8184612657565b5182106136b4576136af9061242f565b613657565b6106ef93506136c791506136d892612657565b51600052600a602052604060002090565b6105e0565b84548352600194850194879450928201920161363f565b9061370191939293612468565b90819260095468010000000000000000811015613810575b6137498461372e6001938481016009556135be565b90919082549060031b600019811b9283911b16911916179055565b83600052602091600a83526040600020928151916001600160401b038311613803575b61377a83611bf88754610449565b81601f84116001146137b357509282939183926000946137a8575b50501b916000199060031b1c1916179055565b015192503880613795565b919083601f1981166137ca88600052602060002090565b946000905b888383106137e95750505010612b1057505050811b019055565b8587015188559096019594850194879350908101906137cf565b61380b610483565b61376c565b613818610483565b613719565b90916138346106ef936040845260408401906106b9565b9160208184039101526106b9565b9061384c81610a5e565b9161385a6040519384610513565b818352601f1961386983610a5e565b0160005b8181106138f357505060005b8281106138865750505090565b8060051b820135601e198336030181121561000e578201908135916001600160401b03831161000e57602001823603811361000e576138cd6138d3916138ee943691610b0c565b30613a5e565b6138dd8287612657565b526138e88186612657565b50612781565b613879565b80606060208093880101520161386d565b9081602091031261000e57516106ef81610e9e565b600b5460ff166139265750565b6daaeb6d7670e522a718067333cd4e803b61393f575050565b604051633185c44d60e21b81523060048201526001600160a01b038316602482015290602090829060449082905afa9081156139d8575b6000916139aa575b50156139875750565b604051633b79c77360e21b81526001600160a01b03919091166004820152602490fd5b6139cb915060203d81116139d1575b6139c38183610513565b810190613904565b3861397e565b503d6139b9565b6139e06130d3565b613976565b6000526008602052604060002090602060405192604084018481106001600160401b03821117613a51575b60405280546001600160a01b039081168086526001909201549290940182905280613a4857505061ffff6007549283169260a01c1690565b925061ffff1690565b613a59610483565b613a10565b9060405190613a6c826104f8565b602782527f416464726573733a206c6f772d6c6576656c2064656c65676174652063616c6c6020830152660819985a5b195960ca1b6040830152823b15613af4576000816106ef9460208394519201905af43d15613aec573d90613acf82610ae2565b91613add6040519384610513565b82523d6000602084013e613b48565b606090613b48565b60405162461bcd60e51b815260206004820152602660248201527f416464726573733a2064656c65676174652063616c6c20746f206e6f6e2d636f6044820152651b9d1c9858dd60d21b6064820152608490fd5b90919015613b54575090565b815115613b645750805190602001fd5b60405162461bcd60e51b8152602060048201529081906108b79060248301906106b9565b906020918051821015613b9a57010190565b613ba2612640565b010190565b8015613c6157806000908282935b613c4d5750613bc383610ae2565b92613bd16040519485610513565b80845281601f19613be183610ae2565b013660208701375b613bf35750505090565b60018110613c40575b6000190190600a90613c2b613c1b613c1584840661244b565b60ff1690565b60f81b6001600160f81b03191690565b841a613c378487613b88565b53049081613be9565b613c48612418565b613bfc565b92613c59600a91612781565b930480613bb5565b50604051613c6e816104c2565b60018152600360fc1b602082015290565b6005821015610d5f5752565b906005811015610d5f5760ff80198354169116179055565b96613cae9033612487565b60405196613cbb8861049a565b8752602080880191825260408801928352606088019384526080880194855260a08801958652613cef60c089019788613c7f565b600f54600052600e815260406000209751908151916001600160401b038311613e2a575b613d2783613d218c54610449565b8c612a1e565b81601f8411600114613dae57509180600698969492613d909b9a989694600092613da3575b50508160011b916000199060031b1c19161788555b5160018801555160028701555160038601555160048501555160058401555191613d8a83610d55565b01613c8b565b61056f613d9e600f54612781565b600f55565b015190503880613d4c565b9190601f198416613dc48c600052602060002090565b936000905b828210613e12575050926001928592613d909d9c9a989660069c9a989610613df9575b505050811b018855613d61565b015160001960f88460031b161c19169055388080613dec565b80600186978294978701518155019601940190613dc9565b613e32610483565b613d1356fec3d58168c5ae7397731d063d5bbf3d657854427343f4c083240f7aacaa2d0f62036b6384b5eca791c62761152d0c79bb0604c104a5fb6f4eb0703f3154bb3db0a264697066735822122096f79fbca07af6e1c2aecc40db8754a57cdd4d2f17a8906db918618f2cb838a464736f6c634300080f003338475885990d8dfe9ca01f0ef160a1b5514426eab9ddbc953a3353410ba78096",
  "linkReferences": {},
  "deployedLinkReferences": {}
}