{
  "_format": "hh-sol-artifact-1",
  "contractName": "Battle",
  "sourceName": "contracts/Battle.sol",
  "abi": [
    {
      "inputs": [
        {
          "internalType": "address",
          "name": "_characterContractAddress",
          "type": "address"
        }
      ],
      "stateMutability": "nonpayable",
      "type": "constructor"
    },
    {
      "anonymous": false,
      "inputs": [
        {
          "indexed": true,
          "internalType": "uint256",
          "name": "battleId",
          "type": "uint256"
        },
        {
          "indexed": true,
          "internalType": "address",
          "name": "player",
          "type": "address"
        }
      ],
      "name": "BattleCancelled",
      "type": "event"
    },
    {
      "anonymous": false,
      "inputs": [
        {
          "indexed": true,
          "internalType": "uint256",
          "name": "battleId",
          "type": "uint256"
        },
        {
          "indexed": true,
          "internalType": "address",
          "name": "creator",
          "type": "address"
        },
        {
          "indexed": false,
          "internalType": "uint256",
          "name": "characterId",
          "type": "uint256"
        }
      ],
      "name": "BattleCreated",
      "type": "event"
    },
    {
      "anonymous": false,
      "inputs": [
        {
          "indexed": false,
          "internalType": "string",
          "name": "battleName",
          "type": "string"
        },
        {
          "indexed": true,
          "internalType": "uint256",
          "name": "battleId",
          "type": "uint256"
        },
        {
          "indexed": true,
          "internalType": "address",
          "name": "winner",
          "type": "address"
        },
        {
          "indexed": true,
          "internalType": "address",
          "name": "loser",
          "type": "address"
        }
      ],
      "name": "BattleEnded",
      "type": "event"
    },
    {
      "anonymous": false,
      "inputs": [
        {
          "indexed": true,
          "internalType": "uint256",
          "name": "battleId",
          "type": "uint256"
        },
        {
          "indexed": false,
          "internalType": "uint256",
          "name": "round",
          "type": "uint256"
        },
        {
          "indexed": true,
          "internalType": "address",
          "name": "quitter",
          "type": "address"
        }
      ],
      "name": "BattleQuit",
      "type": "event"
    },
    {
      "anonymous": false,
      "inputs": [
        {
          "indexed": true,
          "internalType": "uint256",
          "name": "battleId",
          "type": "uint256"
        },
        {
          "indexed": true,
          "internalType": "address",
          "name": "player",
          "type": "address"
        },
        {
          "indexed": false,
          "internalType": "enum StructsLibrary.Move",
          "name": "move",
          "type": "uint8"
        },
        {
          "indexed": false,
          "internalType": "uint256",
          "name": "round",
          "type": "uint256"
        }
      ],
      "name": "MoveSubmitted",
      "type": "event"
    },
    {
      "anonymous": false,
      "inputs": [
        {
          "indexed": false,
          "internalType": "string",
          "name": "battleName",
          "type": "string"
        },
        {
          "indexed": true,
          "internalType": "uint256",
          "name": "battleId",
          "type": "uint256"
        },
        {
          "indexed": true,
          "internalType": "address",
          "name": "player1",
          "type": "address"
        },
        {
          "indexed": true,
          "internalType": "address",
          "name": "player2",
          "type": "address"
        },
        {
          "indexed": false,
          "internalType": "uint256",
          "name": "characterId",
          "type": "uint256"
        }
      ],
      "name": "NewBattle",
      "type": "event"
    },
    {
      "anonymous": false,
      "inputs": [
        {
          "indexed": true,
          "internalType": "address",
          "name": "prevOwner",
          "type": "address"
        },
        {
          "indexed": true,
          "internalType": "address",
          "name": "newOwner",
          "type": "address"
        }
      ],
      "name": "OwnerUpdated",
      "type": "event"
    },
    {
      "stateMutability": "payable",
      "type": "fallback"
    },
    {
      "inputs": [
        {
          "internalType": "uint256",
          "name": "",
          "type": "uint256"
        }
      ],
      "name": "activeBattlesId",
      "outputs": [
        {
          "internalType": "uint256",
          "name": "",
          "type": "uint256"
        }
      ],
      "stateMutability": "view",
      "type": "function"
    },
    {
      "inputs": [],
      "name": "battleCounter",
      "outputs": [
        {
          "internalType": "uint256",
          "name": "",
          "type": "uint256"
        }
      ],
      "stateMutability": "view",
      "type": "function"
    },
    {
      "inputs": [],
      "name": "battleFee",
      "outputs": [
        {
          "internalType": "uint256",
          "name": "",
          "type": "uint256"
        }
      ],
      "stateMutability": "view",
      "type": "function"
    },
    {
      "inputs": [
        {
          "internalType": "uint256",
          "name": "",
          "type": "uint256"
        }
      ],
      "name": "battles",
      "outputs": [
        {
          "internalType": "uint256",
          "name": "battleId",
          "type": "uint256"
        },
        {
          "internalType": "string",
          "name": "name",
          "type": "string"
        },
        {
          "internalType": "enum StructsLibrary.BattleStatus",
          "name": "battleStatus",
          "type": "uint8"
        },
        {
          "internalType": "address",
          "name": "winner",
          "type": "address"
        },
        {
          "internalType": "uint256",
          "name": "round",
          "type": "uint256"
        },
        {
          "components": [
            {
              "internalType": "uint256[2]",
              "name": "initialHealth",
              "type": "uint256[2]"
            },
            {
              "internalType": "uint256[2]",
              "name": "initialMana",
              "type": "uint256[2]"
            },
            {
              "internalType": "uint256[2]",
              "name": "totalDamageDealt",
              "type": "uint256[2]"
            },
            {
              "internalType": "uint256[2]",
              "name": "totalDamageTaken",
              "type": "uint256[2]"
            },
            {
              "internalType": "uint256[2]",
              "name": "damageReduced",
              "type": "uint256[2]"
            },
            {
              "internalType": "uint256[2]",
              "name": "healthRegenerated",
              "type": "uint256[2]"
            },
            {
              "internalType": "uint256[2]",
              "name": "manaRegenerated",
              "type": "uint256[2]"
            },
            {
              "internalType": "uint256[2]",
              "name": "expReceived",
              "type": "uint256[2]"
            },
            {
              "internalType": "uint256[2]",
              "name": "leagueBattlePointsEarned",
              "type": "uint256[2]"
            }
          ],
          "internalType": "struct StructsLibrary.BattleStats",
          "name": "battleStats",
          "type": "tuple"
        },
        {
          "internalType": "uint256",
          "name": "roundStartTime",
          "type": "uint256"
        }
      ],
      "stateMutability": "view",
      "type": "function"
    },
    {
      "inputs": [
        {
          "internalType": "uint256",
          "name": "_battleId",
          "type": "uint256"
        }
      ],
      "name": "cancelBattle",
      "outputs": [],
      "stateMutability": "nonpayable",
      "type": "function"
    },
    {
      "inputs": [
        {
          "internalType": "bytes",
          "name": "",
          "type": "bytes"
        }
      ],
      "name": "checkUpkeep",
      "outputs": [
        {
          "internalType": "bool",
          "name": "upkeepNeeded",
          "type": "bool"
        },
        {
          "internalType": "bytes",
          "name": "performData",
          "type": "bytes"
        }
      ],
      "stateMutability": "view",
      "type": "function"
    },
    {
      "inputs": [
        {
          "internalType": "string",
          "name": "_name",
          "type": "string"
        },
        {
          "internalType": "uint256",
          "name": "_characterTokenId",
          "type": "uint256"
        }
      ],
      "name": "createBattle",
      "outputs": [],
      "stateMutability": "nonpayable",
      "type": "function"
    },
    {
      "inputs": [
        {
          "internalType": "uint256",
          "name": "_battleId",
          "type": "uint256"
        },
        {
          "internalType": "address",
          "name": "_winner",
          "type": "address"
        }
      ],
      "name": "endBattle",
      "outputs": [],
      "stateMutability": "nonpayable",
      "type": "function"
    },
    {
      "inputs": [],
      "name": "feeCollected",
      "outputs": [
        {
          "internalType": "uint256",
          "name": "",
          "type": "uint256"
        }
      ],
      "stateMutability": "view",
      "type": "function"
    },
    {
      "inputs": [],
      "name": "getActiveBattlesCount",
      "outputs": [
        {
          "internalType": "uint256",
          "name": "",
          "type": "uint256"
        }
      ],
      "stateMutability": "view",
      "type": "function"
    },
    {
      "inputs": [],
      "name": "getActiveBattlesId",
      "outputs": [
        {
          "internalType": "uint256[]",
          "name": "",
          "type": "uint256[]"
        }
      ],
      "stateMutability": "view",
      "type": "function"
    },
    {
      "inputs": [
        {
          "internalType": "uint256",
          "name": "_battleId",
          "type": "uint256"
        }
      ],
      "name": "getBattle",
      "outputs": [
        {
          "components": [
            {
              "internalType": "uint256",
              "name": "battleId",
              "type": "uint256"
            },
            {
              "internalType": "string",
              "name": "name",
              "type": "string"
            },
            {
              "internalType": "address[2]",
              "name": "players",
              "type": "address[2]"
            },
            {
              "internalType": "uint256[2]",
              "name": "characterIds",
              "type": "uint256[2]"
            },
            {
              "internalType": "uint256[2]",
              "name": "moves",
              "type": "uint256[2]"
            },
            {
              "internalType": "uint256[2]",
              "name": "skillIndices",
              "type": "uint256[2]"
            },
            {
              "internalType": "enum StructsLibrary.BattleStatus",
              "name": "battleStatus",
              "type": "uint8"
            },
            {
              "internalType": "address",
              "name": "winner",
              "type": "address"
            },
            {
              "internalType": "bool[2]",
              "name": "moveSubmitted",
              "type": "bool[2]"
            },
            {
              "internalType": "uint256",
              "name": "round",
              "type": "uint256"
            },
            {
              "components": [
                {
                  "internalType": "uint256[2]",
                  "name": "initialHealth",
                  "type": "uint256[2]"
                },
                {
                  "internalType": "uint256[2]",
                  "name": "initialMana",
                  "type": "uint256[2]"
                },
                {
                  "internalType": "uint256[2]",
                  "name": "totalDamageDealt",
                  "type": "uint256[2]"
                },
                {
                  "internalType": "uint256[2]",
                  "name": "totalDamageTaken",
                  "type": "uint256[2]"
                },
                {
                  "internalType": "uint256[2]",
                  "name": "damageReduced",
                  "type": "uint256[2]"
                },
                {
                  "internalType": "uint256[2]",
                  "name": "healthRegenerated",
                  "type": "uint256[2]"
                },
                {
                  "internalType": "uint256[2]",
                  "name": "manaRegenerated",
                  "type": "uint256[2]"
                },
                {
                  "internalType": "uint256[2]",
                  "name": "expReceived",
                  "type": "uint256[2]"
                },
                {
                  "internalType": "uint256[2]",
                  "name": "leagueBattlePointsEarned",
                  "type": "uint256[2]"
                }
              ],
              "internalType": "struct StructsLibrary.BattleStats",
              "name": "battleStats",
              "type": "tuple"
            },
            {
              "internalType": "uint256",
              "name": "roundStartTime",
              "type": "uint256"
            }
          ],
          "internalType": "struct StructsLibrary.BattleData",
          "name": "",
          "type": "tuple"
        }
      ],
      "stateMutability": "view",
      "type": "function"
    },
    {
      "inputs": [
        {
          "internalType": "uint256",
          "name": "battleId",
          "type": "uint256"
        }
      ],
      "name": "getBattleMoves",
      "outputs": [
        {
          "internalType": "uint256[2]",
          "name": "",
          "type": "uint256[2]"
        }
      ],
      "stateMutability": "view",
      "type": "function"
    },
    {
      "inputs": [
        {
          "internalType": "uint256",
          "name": "battleId",
          "type": "uint256"
        }
      ],
      "name": "getBattleParticipants",
      "outputs": [
        {
          "internalType": "address[2]",
          "name": "",
          "type": "address[2]"
        }
      ],
      "stateMutability": "view",
      "type": "function"
    },
    {
      "inputs": [
        {
          "internalType": "uint256",
          "name": "battleId",
          "type": "uint256"
        },
        {
          "internalType": "uint256",
          "name": "characterTokenId",
          "type": "uint256"
        }
      ],
      "name": "joinBattle",
      "outputs": [],
      "stateMutability": "nonpayable",
      "type": "function"
    },
    {
      "inputs": [],
      "name": "leagueRewards",
      "outputs": [
        {
          "internalType": "uint256",
          "name": "",
          "type": "uint256"
        }
      ],
      "stateMutability": "view",
      "type": "function"
    },
    {
      "inputs": [],
      "name": "owner",
      "outputs": [
        {
          "internalType": "address",
          "name": "",
          "type": "address"
        }
      ],
      "stateMutability": "view",
      "type": "function"
    },
    {
      "inputs": [
        {
          "internalType": "bytes",
          "name": "performData",
          "type": "bytes"
        }
      ],
      "name": "performUpkeep",
      "outputs": [],
      "stateMutability": "nonpayable",
      "type": "function"
    },
    {
      "inputs": [
        {
          "internalType": "address",
          "name": "",
          "type": "address"
        }
      ],
      "name": "playerCredit",
      "outputs": [
        {
          "internalType": "uint256",
          "name": "",
          "type": "uint256"
        }
      ],
      "stateMutability": "view",
      "type": "function"
    },
    {
      "inputs": [
        {
          "internalType": "address",
          "name": "",
          "type": "address"
        }
      ],
      "name": "playerOngoingBattle",
      "outputs": [
        {
          "internalType": "uint256",
          "name": "",
          "type": "uint256"
        }
      ],
      "stateMutability": "view",
      "type": "function"
    },
    {
      "inputs": [
        {
          "internalType": "uint256",
          "name": "_battleId",
          "type": "uint256"
        }
      ],
      "name": "quitBattle",
      "outputs": [],
      "stateMutability": "nonpayable",
      "type": "function"
    },
    {
      "inputs": [
        {
          "internalType": "uint256",
          "name": "battleId",
          "type": "uint256"
        },
        {
          "components": [
            {
              "internalType": "uint256",
              "name": "battleId",
              "type": "uint256"
            },
            {
              "internalType": "string",
              "name": "name",
              "type": "string"
            },
            {
              "internalType": "address[2]",
              "name": "players",
              "type": "address[2]"
            },
            {
              "internalType": "uint256[2]",
              "name": "characterIds",
              "type": "uint256[2]"
            },
            {
              "internalType": "uint256[2]",
              "name": "moves",
              "type": "uint256[2]"
            },
            {
              "internalType": "uint256[2]",
              "name": "skillIndices",
              "type": "uint256[2]"
            },
            {
              "internalType": "enum StructsLibrary.BattleStatus",
              "name": "battleStatus",
              "type": "uint8"
            },
            {
              "internalType": "address",
              "name": "winner",
              "type": "address"
            },
            {
              "internalType": "bool[2]",
              "name": "moveSubmitted",
              "type": "bool[2]"
            },
            {
              "internalType": "uint256",
              "name": "round",
              "type": "uint256"
            },
            {
              "components": [
                {
                  "internalType": "uint256[2]",
                  "name": "initialHealth",
                  "type": "uint256[2]"
                },
                {
                  "internalType": "uint256[2]",
                  "name": "initialMana",
                  "type": "uint256[2]"
                },
                {
                  "internalType": "uint256[2]",
                  "name": "totalDamageDealt",
                  "type": "uint256[2]"
                },
                {
                  "internalType": "uint256[2]",
                  "name": "totalDamageTaken",
                  "type": "uint256[2]"
                },
                {
                  "internalType": "uint256[2]",
                  "name": "damageReduced",
                  "type": "uint256[2]"
                },
                {
                  "internalType": "uint256[2]",
                  "name": "healthRegenerated",
                  "type": "uint256[2]"
                },
                {
                  "internalType": "uint256[2]",
                  "name": "manaRegenerated",
                  "type": "uint256[2]"
                },
                {
                  "internalType": "uint256[2]",
                  "name": "expReceived",
                  "type": "uint256[2]"
                },
                {
                  "internalType": "uint256[2]",
                  "name": "leagueBattlePointsEarned",
                  "type": "uint256[2]"
                }
              ],
              "internalType": "struct StructsLibrary.BattleStats",
              "name": "battleStats",
              "type": "tuple"
            },
            {
              "internalType": "uint256",
              "name": "roundStartTime",
              "type": "uint256"
            }
          ],
          "internalType": "struct StructsLibrary.BattleData",
          "name": "data",
          "type": "tuple"
        }
      ],
      "name": "setBattleData",
      "outputs": [],
      "stateMutability": "nonpayable",
      "type": "function"
    },
    {
      "inputs": [
        {
          "internalType": "address",
          "name": "_battleHelperContractAddress",
          "type": "address"
        }
      ],
      "name": "setBattleHelperContractAddress",
      "outputs": [],
      "stateMutability": "nonpayable",
      "type": "function"
    },
    {
      "inputs": [
        {
          "internalType": "uint256",
          "name": "battleId",
          "type": "uint256"
        },
        {
          "internalType": "uint256",
          "name": "playerIndex",
          "type": "uint256"
        },
        {
          "internalType": "bool",
          "name": "value",
          "type": "bool"
        }
      ],
      "name": "setMoveSubmitted",
      "outputs": [],
      "stateMutability": "nonpayable",
      "type": "function"
    },
    {
      "inputs": [
        {
          "internalType": "address",
          "name": "_newOwner",
          "type": "address"
        }
      ],
      "name": "setOwner",
      "outputs": [],
      "stateMutability": "nonpayable",
      "type": "function"
    },
    {
      "inputs": [],
      "name": "staminaCost",
      "outputs": [
        {
          "internalType": "uint256",
          "name": "",
          "type": "uint256"
        }
      ],
      "stateMutability": "view",
      "type": "function"
    },
    {
      "inputs": [
        {
          "internalType": "uint256",
          "name": "_tokenId1",
          "type": "uint256"
        },
        {
          "internalType": "uint256",
          "name": "_tokenId2",
          "type": "uint256"
        }
      ],
      "name": "storeStamina",
      "outputs": [],
      "stateMutability": "nonpayable",
      "type": "function"
    },
    {
      "inputs": [
        {
          "internalType": "uint256",
          "name": "battleId",
          "type": "uint256"
        },
        {
          "internalType": "enum StructsLibrary.Move",
          "name": "move",
          "type": "uint8"
        },
        {
          "internalType": "uint256",
          "name": "skillId",
          "type": "uint256"
        }
      ],
      "name": "submitMove",
      "outputs": [],
      "stateMutability": "nonpayable",
      "type": "function"
    },
    {
      "inputs": [
        {
          "internalType": "uint256",
          "name": "newCost",
          "type": "uint256"
        }
      ],
      "name": "updateStaminaCost",
      "outputs": [],
      "stateMutability": "nonpayable",
      "type": "function"
    },
    {
      "stateMutability": "payable",
      "type": "receive"
    }
  ],
  "bytecode": "0x6080604052600a6004553480156200001657600080fd5b50604051620043ba380380620043ba8339810160408190526200003991620000ba565b62000044336200006a565b600b80546001600160a01b0319166001600160a01b0392909216919091179055620000ec565b600080546001600160a01b038381166001600160a01b0319831681178455604051919092169283917f8292fce18fa69edf4db7b94ea2e58241df0ae57f97e0a6c9b29067028bf92d769190a35050565b600060208284031215620000cd57600080fd5b81516001600160a01b0381168114620000e557600080fd5b9392505050565b6142be80620000fc6000396000f3fe6080604052600436106101ae5760003560e01c80636efe60c1116100eb578063a10d80de1161008f578063ba7b559611610061578063ba7b55961461051c578063c7f42c6414610549578063d054fe001461055e578063e44dba4f1461057457005b8063a10d80de146104a6578063a9b9be3f146104c6578063b7785041146104dc578063b984a9a3146104fc57005b80638da5cb5b116100c85780638da5cb5b146104115780638e4c19991461043957806396033b761461045957806396b274051461048657005b80636efe60c1146103a4578063701beee4146103d15780638bdb3b2f146103f157005b80634585e33b116101525780636bc8e4a91161012f5780636bc8e4a9146103135780636ca7f95c146103335780636dd0ce7a146103495780636e04ff0d1461037657005b80634585e33b146102a05780634c4c447e146102c0578063606d2e96146102e057005b806313af40351161018b57806313af403514610211578063239752ab1461023157806332ccca0e14610251578063330561091461027357005b8063068a1e49146101b7578063086d35c2146101db5780630ba5a8e6146101f157005b366101b557005b005b3480156101c357600080fd5b506006545b6040519081526020015b60405180910390f35b3480156101e757600080fd5b506101c860035481565b3480156101fd57600080fd5b506101b561020c3660046132a0565b610594565b34801561021d57600080fd5b506101b561022c3660046132ce565b6105e9565b34801561023d57600080fd5b506101c861024c3660046132a0565b6105f5565b34801561025d57600080fd5b50610266610616565b6040516101d291906132f2565b34801561027f57600080fd5b5061029361028e3660046132a0565b61066e565b6040516101d29190613336565b3480156102ac57600080fd5b506101b56102bb366004613370565b6106c3565b3480156102cc57600080fd5b506101b56102db3660046132a0565b6107f0565b3480156102ec57600080fd5b506103006102fb3660046132a0565b6109d5565b6040516101d29796959493929190613523565b34801561031f57600080fd5b506101b561032e366004613583565b610c9f565b34801561033f57600080fd5b506101c860025481565b34801561035557600080fd5b506103696103643660046132a0565b611223565b6040516101d29190613610565b34801561038257600080fd5b50610396610391366004613370565b61168a565b6040516101d29291906136f9565b3480156103b057600080fd5b506101c86103bf3660046132ce565b60086020526000908152604090205481565b3480156103dd57600080fd5b506101b56103ec36600461371c565b611890565b3480156103fd57600080fd5b506101b561040c3660046137bb565b6118c8565b34801561041d57600080fd5b506000546040516001600160a01b0390911681526020016101d2565b34801561044557600080fd5b506101b5610454366004613854565b611ef9565b34801561046557600080fd5b506101c86104743660046132ce565b600a6020526000908152604090205481565b34801561049257600080fd5b506101b56104a13660046132ce565b611fb9565b3480156104b257600080fd5b506101b56104c13660046132a0565b612026565b3480156104d257600080fd5b506101c860095481565b3480156104e857600080fd5b506101b56104f7366004613884565b6125e0565b34801561050857600080fd5b506101b56105173660046138bd565b612652565b34801561052857600080fd5b5061053c6105373660046132a0565b612696565b6040516101d29190613900565b34801561055557600080fd5b506101c86126cb565b34801561056a57600080fd5b506101c860045481565b34801561058057600080fd5b506101b561058f366004613854565b61278d565b6000546001600160a01b031633146105e45760405162461bcd60e51b815260206004820152600e60248201526d139bdd08185d5d1a1bdc9a5e995960921b60448201526064015b60405180910390fd5b600455565b6105f281612b26565b50565b6006818154811061060557600080fd5b600091825260209091200154905081565b6060600680548060200260200160405190810160405280929190818152602001828054801561066457602002820191906000526020600020905b815481526020019060010190808311610650575b5050505050905090565b610676613054565b60008281526005602052604090819020815180830192839052916002918201919082845b81546001600160a01b0316815260019091019060200180831161069a5750505050509050919050565b60006106d18284018461394b565b905060005b81518110156107ea5760008282815181106106f3576106f36139e0565b6020908102919091018101516000818152600590925260409091209091506001600a82015460ff16600281111561072c5761072c613427565b14801561076b5750600b81015460ff1680156107515750600b810154610100900460ff165b8061076b5750601f81015461076790603c613a0c565b4210155b156107d557600c5460405163650b872560e01b8152600481018490526001600160a01b039091169063650b872590602401600060405180830381600087803b1580156107b657600080fd5b505af11580156107ca573d6000803e3d6000fd5b505042601f84015550505b505080806107e290613a25565b9150506106d6565b50505050565b600081815260056020526040902060028101546001600160a01b031633146108695760405162461bcd60e51b815260206004820152602660248201527f4f6e6c79207468652063726561746f722063616e2063616e63656c2074686520604482015265626174746c6560d01b60648201526084016105db565b6000600a82015460ff16600281111561088457610884613427565b146108d15760405162461bcd60e51b815260206004820152601e60248201527f43616e6e6f742063616e63656c2061207374617274656420626174746c65000060448201526064016105db565b600a8101805460ff19166002179055336000908152600860209081526040808320839055848352600790915281205460065490919061091290600190613a3e565b9050600060068281548110610929576109296139e0565b90600052602060002001549050806006848154811061094a5761094a6139e0565b6000918252602080832090910192909255828152600790915260409020839055600680548061097b5761097b613a51565b60008281526020808220830160001990810183905590920190925586825260079052604080822082905551339187917fb91ae85405a99ffc07c694757cfbb7a52994c3b4daf39d040a6d56b1429ed7c79190a35050505050565b600560205260009081526040902080546001820180549192916109f790613a67565b80601f0160208091040260200160405190810160405280929190818152602001828054610a2390613a67565b8015610a705780601f10610a4557610100808354040283529160200191610a70565b820191906000526020600020905b815481529060010190602001808311610a5357829003601f168201915b50505050600a830154600c84015460408051610160810191829052949560ff8416956101009094046001600160a01b03169450919290600d8301908290610120820190839060029082845b815481526020019060010190808311610abb57505050918352505060408051808201918290526020909201919060028481019182845b815481526020019060010190808311610af1575050509183525050604080518082019182905260209092019190600484019060029082845b815481526020019060010190808311610b29575050509183525050604080518082019182905260209092019190600684019060029082845b815481526020019060010190808311610b61575050509183525050604080518082019182905260209092019190600884019060029082845b815481526020019060010190808311610b99575050509183525050604080518082019182905260209092019190600a84019060029082845b815481526020019060010190808311610bd1575050509183525050604080518082019182905260209092019190600c84019060029082845b815481526020019060010190808311610c09575050509183525050604080518082019182905260209092019190600e84019060029082845b815481526020019060010190808311610c41575050509183525050604080518082019182905260209092019190601084019060029082845b815481526020019060010190808311610c795750505091909252505050601f9091015487565b6000838152600560205260409020600281015460039091015484916001600160a01b03908116911633821480610cdd5750336001600160a01b038216145b610d1d5760405162461bcd60e51b81526020600482015260116024820152704f6e6c79207061727469636970616e747360781b60448201526064016105db565b60008681526005602052604090206001600a82015460ff166002811115610d4657610d46613427565b14610da75760405162461bcd60e51b815260206004820152602b60248201527f426174746c6520686173206e6f742073746172746564206f722068617320616c60448201526a1c9958591e48195b99195960aa1b60648201526084016105db565b6000866003811115610dbb57610dbb613427565b1480610dd857506001866003811115610dd657610dd6613427565b145b80610df457506002866003811115610df257610df2613427565b145b80610e1057506003866003811115610e0e57610e0e613427565b145b610e825760405162461bcd60e51b815260206004820152603e60248201527f496e76616c6964206d6f76653a206d7573742062652041545441434b2c20444560448201527f46454e442c205553455f534b494c4c2c206f7220444f5f4e4f5448494e47000060648201526084016105db565b6000600282018101546001600160a01b03163314610ea1576001610ea4565b60005b60ff16905081600b018160028110610ebe57610ebe6139e0565b602081049091015460ff601f9092166101000a90041615610f215760405162461bcd60e51b815260206004820181905260248201527f4d6f766520616c7265616479207375626d697474656420627920706c6179657260448201526064016105db565b600c5460405163dc55da6f60e01b8152600481018a90523360248201526000916001600160a01b03169063dc55da6f90604401600060405180830381865afa158015610f71573d6000803e3d6000fd5b505050506040513d6000823e601f3d908101601f19168201604052610f999190810190613b17565b9050336001600160a01b0316897f8aeb59a0d4a813dbcc0850f4aaf78c3bbdb6a8e181a23013ab163cc9a4cf64708a86600c0154604051610fdb929190613bd1565b60405180910390a36001886003811115610ff757610ff7613427565b141580156110175750600388600381111561101457611014613427565b14155b1561108e57600c805490840154604051630f5550f560e11b8152600481018c905233602482015260448101919091526001600160a01b0390911690631eaaa1ea90606401600060405180830381600087803b15801561107557600080fd5b505af1158015611089573d6000803e3d6000fd5b505050505b60028860038111156110a2576110a2613427565b03611147576000805b8260e00151518110156110f757888360e0015182815181106110cf576110cf6139e0565b6020026020010151036110e557600191506110f7565b806110ef81613a25565b9150506110ab565b50806111455760405162461bcd60e51b815260206004820152601f60248201527f5375626d697474656420736b696c6c206973206e6f742065717569707065640060448201526064016105db565b505b87600381111561115957611159613427565b83600601836002811061116e5761116e6139e0565b01556001600b84018360028110611187576111876139e0565b602091828204019190066101000a81548160ff021916908315150217905550600260038111156111b9576111b9613427565b8860038111156111cb576111cb613427565b036111e957868360080183600281106111e6576111e66139e0565b01555b6112186040518060400160405280600e81526020016d1b5bdd99481cdd589b5a5d1d195960921b815250612b76565b505050505050505050565b61122b613072565b60056000838152602001908152602001600020604051806101800160405290816000820154815260200160018201805461126490613a67565b80601f016020809104026020016040519081016040528092919081815260200182805461129090613a67565b80156112dd5780601f106112b2576101008083540402835291602001916112dd565b820191906000526020600020905b8154815290600101906020018083116112c057829003601f168201915b505050918352505060408051808201918290526020909201919060028481019182845b81546001600160a01b03168152600190910190602001808311611300575050509183525050604080518082019182905260209092019190600484019060029082845b815481526020019060010190808311611342575050509183525050604080518082019182905260209092019190600684019060029082845b81548152602001906001019080831161137a575050509183525050604080518082019182905260209092019190600884019060029082845b8154815260200190600101908083116113b2575050509183525050600a82015460209091019060ff1660028111156113ec576113ec613427565b60028111156113fd576113fd613427565b8152600a82015461010090046001600160a01b0316602082015260408051808201808352919092019190600b840190600290826000855b825461010083900a900460ff1615158152602060019283018181049485019490930390920291018084116114345790505050509183525050600c82015460208201526040805161016081018252910190600d83018161012081018260028282826020028201915b81548152602001906001019080831161149b57505050918352505060408051808201918290526020909201919060028481019182845b8154815260200190600101908083116114d1575050509183525050604080518082019182905260209092019190600484019060029082845b815481526020019060010190808311611509575050509183525050604080518082019182905260209092019190600684019060029082845b815481526020019060010190808311611541575050509183525050604080518082019182905260209092019190600884019060029082845b815481526020019060010190808311611579575050509183525050604080518082019182905260209092019190600a84019060029082845b8154815260200190600101908083116115b1575050509183525050604080518082019182905260209092019190600c84019060029082845b8154815260200190600101908083116115e9575050509183525050604080518082019182905260209092019190600e84019060029082845b815481526020019060010190808311611621575050509183525050604080518082019182905260209092019190601084019060029082845b815481526020019060010190808311611659575050505050815250508152602001601f820154815250509050919050565b600060606000611698610616565b9050600081516001600160401b038111156116b5576116b561374c565b6040519080825280602002602001820160405280156116de578160200160208202803683370190505b5090506000805b83518110156117c0576000848281518110611702576117026139e0565b6020908102919091018101516000818152600590925260409091209091506001600a82015460ff16600281111561173b5761173b613427565b14801561177a5750600b81015460ff1680156117605750600b810154610100900460ff165b8061177a5750601f81015461177690603c613a0c565b4210155b156117ab5781858581518110611792576117926139e0565b6020908102919091010152836117a781613a25565b9450505b505080806117b890613a25565b9150506116e5565b506000816001600160401b038111156117db576117db61374c565b604051908082528060200260200182016040528015611804578160200160208202803683370190505b50905060005b8281101561185b57838181518110611824576118246139e0565b602002602001015182828151811061183e5761183e6139e0565b60209081029190910101528061185381613a25565b91505061180a565b506000821195508060405160200161187391906132f2565b6040516020818303038152906040529450505050505b9250929050565b600c546001600160a01b031633146118ba5760405162461bcd60e51b81526004016105db90613bef565b6118c48282612bb9565b5050565b600b546040516331a9108f60e11b81526004810183905233916001600160a01b031690636352211e90602401602060405180830381865afa158015611911573d6000803e3d6000fd5b505050506040513d601f19601f820116820180604052508101906119359190613c37565b6001600160a01b03161461198b5760405162461bcd60e51b815260206004820152601e60248201527f4e6f7420746865206f776e6572206f662074686520636861726163746572000060448201526064016105db565b33600090815260086020526040902054156119e85760405162461bcd60e51b815260206004820152601860248201527f506c6179657220696e20616e6f7468657220626174746c65000000000000000060448201526064016105db565b6009546040805161018081018252828152602080820186905282518084018452338152600081830181905283850191909152835180850185528681528083018290526060840152835180850185528181528083018290526080840152835180850190945280845290830181905260a082019290925260c08101828152600060208083018290526040805180820182528381528083018490528185015260016060808601829052825161016081018452610120810186815261014082018790528152835180850185528681528086018790528186015283518085018552868152808601879052818501528351808501855286815280860187905291810191909152825180840184528581528085018690526080828101919091528351808501855286815280860187905260a0808401919091528451808601865287815280870188905260c08401528451808601865287815280870188905260e084015284518086018652878152808701889052610100840152908701919091524295019490945286835260058252909120835181559083015192935083929091820190611b8e9082613c9a565b506040820151611ba490600280840191906130f7565b506060820151611bba906004830190600261314f565b506080820151611bd0906006830190600261314f565b5060a0820151611be6906008830190600261314f565b5060c0820151600a8201805460ff19166001836002811115611c0a57611c0a613427565b021790555060e0820151600a82018054610100600160a81b0319166101006001600160a01b039093168302179055820151611c4b90600b830190600261317d565b50610120820151600c8201556101408201518051600d830190611c71908290600261314f565b506020820151611c87906002808401919061314f565b506040820151611c9d906004830190600261314f565b506060820151611cb3906006830190600261314f565b506080820151611cc9906008830190600261314f565b5060a0820151611cdf90600a830190600261314f565b5060c0820151611cf590600c830190600261314f565b5060e0820151611d0b90600e830190600261314f565b50610100820151611d22906010830190600261314f565b5050506101609190910151601f90910155600680546001818101835560008390527ff652222313e28459528d920b65115c16c04f3efc82aaedc97be59f3f377c0d3f9091018490559054611d769190613a3e565b600083815260076020908152604080832093909355338083526008909152828220859055600c5492516368b4dcaf60e01b815260048101879052602481019190915260448101859052909182916001600160a01b03909116906368b4dcaf9060640160408051808303816000875af1158015611df6573d6000803e3d6000fd5b505050506040513d601f19601f82011682018060405250810190611e1a9190613d59565b60008681526005602052604090819020600d8101849055600f01829055600b5460048054925163739420a560e01b81529081018a905260248101929092529294509092506001600160a01b039091169063739420a590604401600060405180830381600087803b158015611e8d57600080fd5b505af1158015611ea1573d6000803e3d6000fd5b50506040518781523392508691507fcd51df591e2f9319b98d783b63c675c8ab2e63d44101da9e5a12af2b1fcab4799060200160405180910390a360098054906000611eec83613a25565b9190505550505050505050565b600b54604051631a3bcbcf60e11b8152600481018490526001600160a01b0390911690633477979e90602401600060405180830381600087803b158015611f3f57600080fd5b505af1158015611f53573d6000803e3d6000fd5b5050600b54604051631a3bcbcf60e11b8152600481018590526001600160a01b039091169250633477979e9150602401600060405180830381600087803b158015611f9d57600080fd5b505af1158015611fb1573d6000803e3d6000fd5b505050505050565b6000546001600160a01b031633146120045760405162461bcd60e51b815260206004820152600e60248201526d139bdd08185d5d1a1bdc9a5e995960921b60448201526064016105db565b600c80546001600160a01b0319166001600160a01b0392909216919091179055565b6000818152600560205260409020600201546001600160a01b03166120815760405162461bcd60e51b8152602060048201526011602482015270426174746c65206e6f7420666f756e642160781b60448201526064016105db565b60006005600083815260200190815260200160002060405180610180016040529081600082015481526020016001820180546120bc90613a67565b80601f01602080910402602001604051908101604052809291908181526020018280546120e890613a67565b80156121355780601f1061210a57610100808354040283529160200191612135565b820191906000526020600020905b81548152906001019060200180831161211857829003601f168201915b505050918352505060408051808201918290526020909201919060028481019182845b81546001600160a01b03168152600190910190602001808311612158575050509183525050604080518082019182905260209092019190600484019060029082845b81548152602001906001019080831161219a575050509183525050604080518082019182905260209092019190600684019060029082845b8154815260200190600101908083116121d2575050509183525050604080518082019182905260209092019190600884019060029082845b81548152602001906001019080831161220a575050509183525050600a82015460209091019060ff16600281111561224457612244613427565b600281111561225557612255613427565b8152600a82015461010090046001600160a01b0316602082015260408051808201808352919092019190600b840190600290826000855b825461010083900a900460ff16151581526020600192830181810494850194909303909202910180841161228c5790505050509183525050600c82015460208201526040805161016081018252910190600d83018161012081018260028282826020028201915b8154815260200190600101908083116122f357505050918352505060408051808201918290526020909201919060028481019182845b815481526020019060010190808311612329575050509183525050604080518082019182905260209092019190600484019060029082845b815481526020019060010190808311612361575050509183525050604080518082019182905260209092019190600684019060029082845b815481526020019060010190808311612399575050509183525050604080518082019182905260209092019190600884019060029082845b8154815260200190600101908083116123d1575050509183525050604080518082019182905260209092019190600a84019060029082845b815481526020019060010190808311612409575050509183525050604080518082019182905260209092019190600c84019060029082845b815481526020019060010190808311612441575050509183525050604080518082019182905260209092019190600e84019060029082845b815481526020019060010190808311612479575050509183525050604080518082019182905260209092019190601084019060029082845b8154815260200190600101908083116124b157505050919092525050508152601f91909101546020909101526040810151519091506001600160a01b031633148061250c57506040810151602001516001600160a01b031633145b6125585760405162461bcd60e51b815260206004820152601b60248201527f596f7520617265206e6f7420696e207468697320626174746c6521000000000060448201526064016105db565b336001600160a01b0316827f3ff46d129afe6d0143c3e8ba124cdf4f4a5552918a50cd50b784ca9bdce4e35783610120015160405161259991815260200190565b60405180910390a36040810151516001600160a01b031633146125ce5760408101516118c490839060005b6020020151612bb9565b60408101516118c490839060016125c4565b600c546001600160a01b0316331461260a5760405162461bcd60e51b81526004016105db90613bef565b60008381526005602052604090208190600b01836002811061262e5761262e6139e0565b602091828204019190066101000a81548160ff021916908315150217905550505050565b600c546001600160a01b0316331461267c5760405162461bcd60e51b81526004016105db90613bef565b600082815260056020526040902081906107ea8282614018565b61269e613054565b50600090815260056020908152604091829020825180840190935260068101548352600701549082015290565b600080600160009054906101000a90046001600160a01b03166001600160a01b031663feaf968c6040518163ffffffff1660e01b815260040160a060405180830381865afa158015612721573d6000803e3d6000fd5b505050506040513d601f19601f820116820180604052508101906127459190614121565b5050509150506000816402540be40061275e9190614171565b905066b1a2bc2ec500008161277b82670de0b6b3a7640000613e83565b61278591906141a1565b935050505090565b600b546040516331a9108f60e11b81526004810183905233916001600160a01b031690636352211e90602401602060405180830381865afa1580156127d6573d6000803e3d6000fd5b505050506040513d601f19601f820116820180604052508101906127fa9190613c37565b6001600160a01b0316146128505760405162461bcd60e51b815260206004820152601e60248201527f4e6f7420746865206f776e6572206f662074686520636861726163746572000060448201526064016105db565b33600090815260086020526040902054156128c45760405162461bcd60e51b815260206004820152602e60248201527f506c6179657220616c72656164792070617274696369706174696e6720696e2060448201526d616e6f7468657220626174746c6560901b60648201526084016105db565b600082815260056020526040812090600a82015460ff1660028111156128ec576128ec613427565b146129395760405162461bcd60e51b815260206004820152601a60248201527f426174746c652068617320616c7265616479207374617274656400000000000060448201526064016105db565b60038101546001600160a01b0316156129945760405162461bcd60e51b815260206004820152601e60248201527f426174746c6520616c7265616479206861732074776f20706c6179657273000060448201526064016105db565b600581018290556003810180546001600160a01b03191633908117909155600a8201805460ff1916600117905542601f830155600081815260086020526040808220869055600c5490516368b4dcaf60e01b815260048101869052602481019390935260448301869052909182916001600160a01b0316906368b4dcaf9060640160408051808303816000875af1158015612a33573d6000803e3d6000fd5b505050506040513d601f19601f82011682018060405250810190612a579190613d59565b600e850182905560108501819055600b546004805460405163739420a560e01b815291820189905260248201529294509092506001600160a01b03169063739420a590604401600060405180830381600087803b158015612ab757600080fd5b505af1158015612acb573d6000803e3d6000fd5b50505050600283015460405133916001600160a01b03169087907f062c68eb2a964de2eed3fb17d55e0f1609ab0b928d7b24a44821401688ceafab90612b179060018901908a90614240565b60405180910390a45050505050565b600080546001600160a01b038381166001600160a01b0319831681178455604051919092169283917f8292fce18fa69edf4db7b94ea2e58241df0ae57f97e0a6c9b29067028bf92d769190a35050565b6105f281604051602401612b8a9190614262565b60408051601f198184030181529190526020810180516001600160e01b031663104c13eb60e21b179052612f6d565b60008281526005602052604090206002600a82015460ff166002811115612be257612be2613427565b14612c1257600a8101805460ff196001600160a01b03851661010002166001600160a81b03199091161760021790555b612c1b83612f76565b600281015460038201546001600160a01b03918216600081815260086020526040808220829055928416808252928120819055909285168314612c5e5782612c60565b815b90506000836001600160a01b0316866001600160a01b031614612c84576001612c87565b60005b60ff1690506000846001600160a01b0316836001600160a01b031614612cae576001612cb1565b60005b600c5460405163dc55da6f60e01b8152600481018b90526001600160a01b03888116602483015260ff9390931693506000929091169063dc55da6f90604401600060405180830381865afa158015612d0d573d6000803e3d6000fd5b505050506040513d6000823e601f3d908101601f19168201604052612d359190810190613b17565b600c5460405163dc55da6f60e01b8152600481018c90526001600160a01b0388811660248301529293506000929091169063dc55da6f90604401600060405180830381865afa158015612d8c573d6000803e3d6000fd5b505050506040513d6000823e601f3d908101601f19168201604052612db49190810190613b17565b60408084015190820151919250906000821580612dcf575081155b90508015612f0f57600b546001600160a01b0316636a0558a660048d018960028110612dfd57612dfd6139e0565b01546040516001600160e01b031960e084901b168152600481019190915260646024820152604401600060405180830381600087803b158015612e3f57600080fd5b505af1158015612e53573d6000803e3d6000fd5b5050600b546001600160a01b03169150636a0558a6905060048d018860028110612e7f57612e7f6139e0565b01546040516001600160e01b031960e084901b1681526004810191909152601e6024820152604401600060405180830381600087803b158015612ec157600080fd5b505af1158015612ed5573d6000803e3d6000fd5b5050505060648b600d01600e018860028110612ef357612ef36139e0565b0155601e601b8c018760028110612f0c57612f0c6139e0565b01555b876001600160a01b03168c6001600160a01b03168e7f0baf086d5a49a7d9df72185aa0488cadd724e398bb5e99c615ee24c699deba918e600101604051612f569190614275565b60405180910390a450505050505050505050505050565b6105f281613033565b600081815260076020526040812054600654909190612f9790600190613a3e565b9050600060068281548110612fae57612fae6139e0565b906000526020600020015490508060068481548110612fcf57612fcf6139e0565b6000918252602080832090910192909255828152600790915260409020839055600680548061300057613000613a51565b60019003818190600052602060002001600090559055600760008581526020019081526020016000206000905550505050565b60006a636f6e736f6c652e6c6f679050600080835160208501845afa505050565b60405180604001604052806002906020820280368337509192915050565b6040518061018001604052806000815260200160608152602001613094613054565b81526020016130a1613054565b81526020016130ae613054565b81526020016130bb613054565b815260200160008152600060208201526040016130d6613054565b8152602001600081526020016130ea61320a565b8152602001600081525090565b826002810192821561313f579160200282015b8281111561313f57825182546001600160a01b0319166001600160a01b0390911617825560209092019160019091019061310a565b5061314b92915061328b565b5090565b826002810192821561313f579160200282015b8281111561313f578251825591602001919060010190613162565b60018301918390821561313f5791602002820160005b838211156131d057835183826101000a81548160ff0219169083151502179055509260200192600101602081600001049283019260010302613193565b80156131fd5782816101000a81549060ff02191690556001016020816000010492830192600103026131d0565b505061314b92915061328b565b60405180610120016040528061321e613054565b815260200161322b613054565b8152602001613238613054565b8152602001613245613054565b8152602001613252613054565b815260200161325f613054565b815260200161326c613054565b8152602001613279613054565b8152602001613286613054565b905290565b5b8082111561314b576000815560010161328c565b6000602082840312156132b257600080fd5b5035919050565b6001600160a01b03811681146105f257600080fd5b6000602082840312156132e057600080fd5b81356132eb816132b9565b9392505050565b6020808252825182820181905260009190848201906040850190845b8181101561332a5783518352928401929184019160010161330e565b50909695505050505050565b60408101818360005b60028110156133675781516001600160a01b031683526020928301929091019060010161333f565b50505092915050565b6000806020838503121561338357600080fd5b82356001600160401b038082111561339a57600080fd5b818501915085601f8301126133ae57600080fd5b8135818111156133bd57600080fd5b8660208285010111156133cf57600080fd5b60209290920196919550909350505050565b6000815180845260005b81811015613407576020818501810151868301820152016133eb565b506000602082860101526020601f19601f83011685010191505092915050565b634e487b7160e01b600052602160045260246000fd5b6003811061344d5761344d613427565b9052565b8060005b60028110156107ea578151845260209384019390910190600101613455565b61347f828251613451565b60208101516134916040840182613451565b5060408101516134a46080840182613451565b5060608101516134b760c0840182613451565b5060808101516101006134cc81850183613451565b60a083015191506134e1610140850183613451565b60c083015191506134f6610180850183613451565b60e0830151915061350b6101c0850183613451565b820151905061351e610200840182613451565b505050565b600061030089835280602084015261353d8184018a6133e1565b91505061354d604083018861343d565b6001600160a01b03861660608301526080820185905261357060a0830185613474565b826102e083015298975050505050505050565b60008060006060848603121561359857600080fd5b833592506020840135600481106135ae57600080fd5b929592945050506040919091013590565b8060005b60028110156107ea5781516001600160a01b03168452602093840193909101906001016135c3565b8060005b60028110156107ea57815115158452602093840193909101906001016135ef565b6020815281516020820152600060208301516104408060408501526136396104608501836133e1565b9150604085015161364d60608601826135bf565b50606085015161366060a0860182613451565b50608085015161367360e0860182613451565b5060a085015161012061368881870183613451565b60c0870151915061016061369e8188018461343d565b60e08801516001600160a01b031661018088015261010088015192506136c86101a08801846135eb565b818801516101e088015261014088015192506136e8610200880184613474565b969096015191909401529392505050565b821515815260406020820152600061371460408301846133e1565b949350505050565b6000806040838503121561372f57600080fd5b823591506020830135613741816132b9565b809150509250929050565b634e487b7160e01b600052604160045260246000fd5b60405161010081016001600160401b03811182821017156137855761378561374c565b60405290565b604051601f8201601f191681016001600160401b03811182821017156137b3576137b361374c565b604052919050565b600080604083850312156137ce57600080fd5b82356001600160401b03808211156137e557600080fd5b818501915085601f8301126137f957600080fd5b813560208282111561380d5761380d61374c565b61381f601f8301601f1916820161378b565b9250818352878183860101111561383557600080fd5b8181850182850137600091830181019190915290969401359450505050565b6000806040838503121561386757600080fd5b50508035926020909101359150565b80151581146105f257600080fd5b60008060006060848603121561389957600080fd5b833592506020840135915060408401356138b281613876565b809150509250925092565b600080604083850312156138d057600080fd5b8235915060208301356001600160401b038111156138ed57600080fd5b8301610440818603121561374157600080fd5b60408101818360005b6002811015613367578151835260209283019290910190600101613909565b60006001600160401b038211156139415761394161374c565b5060051b60200190565b6000602080838503121561395e57600080fd5b82356001600160401b0381111561397457600080fd5b8301601f8101851361398557600080fd5b803561399861399382613928565b61378b565b81815260059190911b820183019083810190878311156139b757600080fd5b928401925b828410156139d5578335825292840192908401906139bc565b979650505050505050565b634e487b7160e01b600052603260045260246000fd5b634e487b7160e01b600052601160045260246000fd5b80820180821115613a1f57613a1f6139f6565b92915050565b600060018201613a3757613a376139f6565b5060010190565b81810381811115613a1f57613a1f6139f6565b634e487b7160e01b600052603160045260246000fd5b600181811c90821680613a7b57607f821691505b602082108103613a9b57634e487b7160e01b600052602260045260246000fd5b50919050565b8051613aac816132b9565b919050565b600082601f830112613ac257600080fd5b81516020613ad261399383613928565b82815260059290921b84018101918181019086841115613af157600080fd5b8286015b84811015613b0c5780518352918301918301613af5565b509695505050505050565b600060208284031215613b2957600080fd5b81516001600160401b0380821115613b4057600080fd5b908301906101008286031215613b5557600080fd5b613b5d613762565b82518152613b6d60208401613aa1565b602082015260408301516040820152606083015160608201526080830151608082015260a083015160a082015260c083015160c082015260e083015182811115613bb657600080fd5b613bc287828601613ab1565b60e08301525095945050505050565b6040810160048410613be557613be5613427565b9281526020015290565b60208082526028908201527f4f6e6c7920426174746c6548656c7065722063616e2063616c6c207468697320604082015267333ab731ba34b7b760c11b606082015260800190565b600060208284031215613c4957600080fd5b81516132eb816132b9565b601f82111561351e57600081815260208120601f850160051c81016020861015613c7b5750805b601f850160051c820191505b81811015611fb157828155600101613c87565b81516001600160401b03811115613cb357613cb361374c565b613cc781613cc18454613a67565b84613c54565b602080601f831160018114613cfc5760008415613ce45750858301515b600019600386901b1c1916600185901b178555611fb1565b600085815260208120601f198616915b82811015613d2b57888601518255948401946001909101908401613d0c565b5085821015613d495787850151600019600388901b60f8161c191681555b5050505050600190811b01905550565b60008060408385031215613d6c57600080fd5b505080516020909101519092909150565b6000808335601e19843603018112613d9457600080fd5b8301803591506001600160401b03821115613dae57600080fd5b60200191503681900382131561188957600080fd5b6001600160401b03831115613dda57613dda61374c565b613dee83613de88354613a67565b83613c54565b6000601f841160018114613e225760008515613e0a5750838201355b600019600387901b1c1916600186901b178355613e7c565b600083815260209020601f19861690835b82811015613e535786850135825560209485019460019092019101613e33565b5086821015613e705760001960f88860031b161c19848701351681555b505060018560011b0183555b5050505050565b8082028115828204841417613a1f57613a1f6139f6565b60008135613a1f816132b9565b8160005b60028110156107ea578135613ebf816132b9565b8382015560209190910190600101613eab565b8160005b60028110156107ea57813583820155602090910190600101613ed6565b6000813560038110613a1f57600080fd5b60038210613f1457613f14613427565b60ff1981541660ff831681178255505050565b816000805b6002811015613f68578235613f4081613876565b8160031b60ff808316821b81831b198616179450505050602083019250600181019050613f2c565b509091555050565b8160005b6002811015613f9157813583820155602090910190600101613f74565b5050613fa36040830160028301613ed2565b613fb36080830160048301613ed2565b613fc360c0830160068301613ed2565b613fd4610100830160088301613ed2565b613fe56101408301600a8301613ed2565b613ff66101808301600c8301613ed2565b6140076101c08301600e8301613ed2565b6118c4610200830160108301613ed2565b813581556140296020830183613d7d565b614037818360018601613dc3565b50506140496040830160028301613ea7565b6140596080830160048301613ed2565b61406960c0830160068301613ed2565b61407a610100830160088301613ed2565b600a810161409461408e6101408501613ef3565b82613f04565b6140ca6140a46101608501613e9a565b828054610100600160a81b03191660089290921b610100600160a81b0316919091179055565b506140dc6101808301600b8301613f27565b6101c0820135600c8201556140f86101e08301600d8301613f70565b610420820135601f8201555050565b805169ffffffffffffffffffff81168114613aac57600080fd5b600080600080600060a0868803121561413957600080fd5b61414286614107565b945060208601519350604086015192506060860151915061416560808701614107565b90509295509295909350565b80820260008212600160ff1b8414161561418d5761418d6139f6565b8181058314821517613a1f57613a1f6139f6565b6000826141be57634e487b7160e01b600052601260045260246000fd5b500490565b600081546141d081613a67565b8085526020600183811680156141ed576001811461420757614235565b60ff1985168884015283151560051b880183019550614235565b866000528260002060005b8581101561422d5781548a8201860152908301908401614212565b890184019650505b505050505092915050565b60408152600061425360408301856141c3565b90508260208301529392505050565b6020815260006132eb60208301846133e1565b6020815260006132eb60208301846141c356fea2646970667358221220cf7ad8981685450e7ead52492fbb1ed25bbc71937d498ed616d950313c35374664736f6c63430008130033",
  "linkReferences": {},
  "deployedLinkReferences": {}
}