{
  "_format": "hh-sol-artifact-1",
  "contractName": "Battle",
  "sourceName": "contracts/Battle.sol",
  "abi": [
    {
      "inputs": [
        {
          "internalType": "address",
          "name": "_characterContractAddress",
          "type": "address"
        },
        {
          "internalType": "address",
          "name": "_battleSkillsContractAddress",
          "type": "address"
        }
      ],
      "stateMutability": "nonpayable",
      "type": "constructor"
    },
    {
      "anonymous": false,
      "inputs": [
        {
          "indexed": true,
          "internalType": "uint256",
          "name": "battleId",
          "type": "uint256"
        },
        {
          "indexed": true,
          "internalType": "address",
          "name": "player",
          "type": "address"
        }
      ],
      "name": "BattleCancelled",
      "type": "event"
    },
    {
      "anonymous": false,
      "inputs": [
        {
          "indexed": false,
          "internalType": "uint256",
          "name": "battleId",
          "type": "uint256"
        },
        {
          "indexed": false,
          "internalType": "address",
          "name": "creator",
          "type": "address"
        },
        {
          "indexed": false,
          "internalType": "uint256",
          "name": "characterId",
          "type": "uint256"
        }
      ],
      "name": "BattleCreated",
      "type": "event"
    },
    {
      "anonymous": false,
      "inputs": [
        {
          "indexed": false,
          "internalType": "string",
          "name": "battleName",
          "type": "string"
        },
        {
          "indexed": false,
          "internalType": "uint256",
          "name": "battleId",
          "type": "uint256"
        },
        {
          "indexed": true,
          "internalType": "address",
          "name": "winner",
          "type": "address"
        },
        {
          "indexed": true,
          "internalType": "address",
          "name": "loser",
          "type": "address"
        }
      ],
      "name": "BattleEnded",
      "type": "event"
    },
    {
      "anonymous": false,
      "inputs": [
        {
          "indexed": false,
          "internalType": "uint256",
          "name": "diceNumber",
          "type": "uint256"
        }
      ],
      "name": "DiceRolled",
      "type": "event"
    },
    {
      "anonymous": false,
      "inputs": [
        {
          "indexed": false,
          "internalType": "uint256",
          "name": "battleId",
          "type": "uint256"
        },
        {
          "indexed": false,
          "internalType": "address",
          "name": "player1",
          "type": "address"
        },
        {
          "indexed": false,
          "internalType": "uint256",
          "name": "health1",
          "type": "uint256"
        },
        {
          "indexed": false,
          "internalType": "address",
          "name": "player2",
          "type": "address"
        },
        {
          "indexed": false,
          "internalType": "uint256",
          "name": "health2",
          "type": "uint256"
        }
      ],
      "name": "HealthUpdated",
      "type": "event"
    },
    {
      "anonymous": false,
      "inputs": [
        {
          "indexed": true,
          "internalType": "uint256",
          "name": "battleId",
          "type": "uint256"
        },
        {
          "indexed": true,
          "internalType": "address",
          "name": "player",
          "type": "address"
        },
        {
          "indexed": false,
          "internalType": "enum Battle.Move",
          "name": "move",
          "type": "uint8"
        }
      ],
      "name": "MoveSubmitted",
      "type": "event"
    },
    {
      "anonymous": false,
      "inputs": [
        {
          "indexed": false,
          "internalType": "string",
          "name": "battleName",
          "type": "string"
        },
        {
          "indexed": false,
          "internalType": "uint256",
          "name": "battleId",
          "type": "uint256"
        },
        {
          "indexed": true,
          "internalType": "address",
          "name": "player1",
          "type": "address"
        },
        {
          "indexed": true,
          "internalType": "address",
          "name": "player2",
          "type": "address"
        }
      ],
      "name": "NewBattle",
      "type": "event"
    },
    {
      "anonymous": false,
      "inputs": [
        {
          "indexed": true,
          "internalType": "address",
          "name": "prevOwner",
          "type": "address"
        },
        {
          "indexed": true,
          "internalType": "address",
          "name": "newOwner",
          "type": "address"
        }
      ],
      "name": "OwnerUpdated",
      "type": "event"
    },
    {
      "anonymous": false,
      "inputs": [
        {
          "indexed": false,
          "internalType": "address[2]",
          "name": "damagedPlayers",
          "type": "address[2]"
        }
      ],
      "name": "RoundEnded",
      "type": "event"
    },
    {
      "anonymous": false,
      "inputs": [
        {
          "indexed": true,
          "internalType": "address",
          "name": "character",
          "type": "address"
        },
        {
          "indexed": false,
          "internalType": "uint256",
          "name": "health",
          "type": "uint256"
        },
        {
          "indexed": false,
          "internalType": "uint256",
          "name": "attack",
          "type": "uint256"
        },
        {
          "indexed": false,
          "internalType": "uint256",
          "name": "defense",
          "type": "uint256"
        },
        {
          "indexed": false,
          "internalType": "bool",
          "name": "isStunned",
          "type": "bool"
        },
        {
          "indexed": false,
          "internalType": "bool",
          "name": "tookDamage",
          "type": "bool"
        }
      ],
      "name": "StatusEffectsResolved",
      "type": "event"
    },
    {
      "stateMutability": "payable",
      "type": "fallback"
    },
    {
      "inputs": [
        {
          "internalType": "uint256",
          "name": "",
          "type": "uint256"
        }
      ],
      "name": "activeBattlesId",
      "outputs": [
        {
          "internalType": "uint256",
          "name": "",
          "type": "uint256"
        }
      ],
      "stateMutability": "view",
      "type": "function"
    },
    {
      "inputs": [],
      "name": "battleCounter",
      "outputs": [
        {
          "internalType": "uint256",
          "name": "",
          "type": "uint256"
        }
      ],
      "stateMutability": "view",
      "type": "function"
    },
    {
      "inputs": [],
      "name": "battleFee",
      "outputs": [
        {
          "internalType": "uint256",
          "name": "",
          "type": "uint256"
        }
      ],
      "stateMutability": "view",
      "type": "function"
    },
    {
      "inputs": [
        {
          "internalType": "uint256",
          "name": "",
          "type": "uint256"
        }
      ],
      "name": "battles",
      "outputs": [
        {
          "internalType": "uint256",
          "name": "battleId",
          "type": "uint256"
        },
        {
          "internalType": "string",
          "name": "name",
          "type": "string"
        },
        {
          "internalType": "enum Battle.BattleStatus",
          "name": "battleStatus",
          "type": "uint8"
        },
        {
          "internalType": "address",
          "name": "winner",
          "type": "address"
        }
      ],
      "stateMutability": "view",
      "type": "function"
    },
    {
      "inputs": [
        {
          "internalType": "uint256",
          "name": "attack",
          "type": "uint256"
        }
      ],
      "name": "calculateAttackDamage",
      "outputs": [
        {
          "internalType": "uint256",
          "name": "",
          "type": "uint256"
        }
      ],
      "stateMutability": "nonpayable",
      "type": "function"
    },
    {
      "inputs": [
        {
          "internalType": "uint256",
          "name": "_battleId",
          "type": "uint256"
        }
      ],
      "name": "cancelBattle",
      "outputs": [],
      "stateMutability": "nonpayable",
      "type": "function"
    },
    {
      "inputs": [
        {
          "internalType": "string",
          "name": "_name",
          "type": "string"
        },
        {
          "internalType": "uint256",
          "name": "_characterTokenId",
          "type": "uint256"
        }
      ],
      "name": "createBattle",
      "outputs": [],
      "stateMutability": "nonpayable",
      "type": "function"
    },
    {
      "inputs": [],
      "name": "feeCollected",
      "outputs": [
        {
          "internalType": "uint256",
          "name": "",
          "type": "uint256"
        }
      ],
      "stateMutability": "view",
      "type": "function"
    },
    {
      "inputs": [],
      "name": "getActiveBattlesCount",
      "outputs": [
        {
          "internalType": "uint256",
          "name": "",
          "type": "uint256"
        }
      ],
      "stateMutability": "view",
      "type": "function"
    },
    {
      "inputs": [],
      "name": "getActiveBattlesId",
      "outputs": [
        {
          "internalType": "uint256[]",
          "name": "",
          "type": "uint256[]"
        }
      ],
      "stateMutability": "view",
      "type": "function"
    },
    {
      "inputs": [
        {
          "internalType": "uint256",
          "name": "_battleId",
          "type": "uint256"
        }
      ],
      "name": "getBattle",
      "outputs": [
        {
          "components": [
            {
              "internalType": "uint256",
              "name": "battleId",
              "type": "uint256"
            },
            {
              "internalType": "string",
              "name": "name",
              "type": "string"
            },
            {
              "internalType": "address[2]",
              "name": "players",
              "type": "address[2]"
            },
            {
              "internalType": "uint256[2]",
              "name": "characterIds",
              "type": "uint256[2]"
            },
            {
              "internalType": "uint256[2]",
              "name": "moves",
              "type": "uint256[2]"
            },
            {
              "internalType": "uint256[2]",
              "name": "skillIndices",
              "type": "uint256[2]"
            },
            {
              "internalType": "enum Battle.BattleStatus",
              "name": "battleStatus",
              "type": "uint8"
            },
            {
              "internalType": "address",
              "name": "winner",
              "type": "address"
            },
            {
              "internalType": "uint256[2]",
              "name": "initialHealth",
              "type": "uint256[2]"
            },
            {
              "internalType": "uint256[2]",
              "name": "initialMana",
              "type": "uint256[2]"
            },
            {
              "internalType": "bool[2]",
              "name": "moveSubmitted",
              "type": "bool[2]"
            }
          ],
          "internalType": "struct Battle.BattleData",
          "name": "",
          "type": "tuple"
        }
      ],
      "stateMutability": "view",
      "type": "function"
    },
    {
      "inputs": [
        {
          "internalType": "uint256",
          "name": "battleId",
          "type": "uint256"
        }
      ],
      "name": "getBattleMoves",
      "outputs": [
        {
          "internalType": "uint256[2]",
          "name": "",
          "type": "uint256[2]"
        }
      ],
      "stateMutability": "view",
      "type": "function"
    },
    {
      "inputs": [
        {
          "internalType": "uint256",
          "name": "battleId",
          "type": "uint256"
        }
      ],
      "name": "getBattleParticipants",
      "outputs": [
        {
          "internalType": "address[2]",
          "name": "",
          "type": "address[2]"
        }
      ],
      "stateMutability": "view",
      "type": "function"
    },
    {
      "inputs": [
        {
          "internalType": "uint256",
          "name": "battleId",
          "type": "uint256"
        },
        {
          "internalType": "address",
          "name": "player",
          "type": "address"
        }
      ],
      "name": "getCharacterHealth",
      "outputs": [
        {
          "internalType": "uint256",
          "name": "",
          "type": "uint256"
        }
      ],
      "stateMutability": "view",
      "type": "function"
    },
    {
      "inputs": [
        {
          "internalType": "uint256",
          "name": "battleId",
          "type": "uint256"
        },
        {
          "internalType": "address",
          "name": "player",
          "type": "address"
        }
      ],
      "name": "getCharacterProxy",
      "outputs": [
        {
          "components": [
            {
              "internalType": "uint256",
              "name": "id",
              "type": "uint256"
            },
            {
              "internalType": "address",
              "name": "owner",
              "type": "address"
            },
            {
              "internalType": "uint256",
              "name": "health",
              "type": "uint256"
            },
            {
              "internalType": "uint256",
              "name": "attack",
              "type": "uint256"
            },
            {
              "internalType": "uint256",
              "name": "defense",
              "type": "uint256"
            },
            {
              "internalType": "uint256",
              "name": "mana",
              "type": "uint256"
            },
            {
              "internalType": "uint256",
              "name": "typeId",
              "type": "uint256"
            },
            {
              "internalType": "uint256[]",
              "name": "equippedSkills",
              "type": "uint256[]"
            }
          ],
          "internalType": "struct Battle.CharacterProxyView",
          "name": "",
          "type": "tuple"
        }
      ],
      "stateMutability": "view",
      "type": "function"
    },
    {
      "inputs": [
        {
          "internalType": "uint256",
          "name": "battleId",
          "type": "uint256"
        },
        {
          "internalType": "address",
          "name": "player",
          "type": "address"
        }
      ],
      "name": "getCharacterProxyActiveEffects",
      "outputs": [
        {
          "internalType": "uint256[]",
          "name": "effectIds",
          "type": "uint256[]"
        },
        {
          "internalType": "uint256[]",
          "name": "durations",
          "type": "uint256[]"
        }
      ],
      "stateMutability": "view",
      "type": "function"
    },
    {
      "inputs": [
        {
          "internalType": "uint256",
          "name": "battleId",
          "type": "uint256"
        },
        {
          "internalType": "uint256",
          "name": "characterTokenId",
          "type": "uint256"
        }
      ],
      "name": "joinBattle",
      "outputs": [],
      "stateMutability": "nonpayable",
      "type": "function"
    },
    {
      "inputs": [],
      "name": "leagueRewards",
      "outputs": [
        {
          "internalType": "uint256",
          "name": "",
          "type": "uint256"
        }
      ],
      "stateMutability": "view",
      "type": "function"
    },
    {
      "inputs": [],
      "name": "owner",
      "outputs": [
        {
          "internalType": "address",
          "name": "",
          "type": "address"
        }
      ],
      "stateMutability": "view",
      "type": "function"
    },
    {
      "inputs": [
        {
          "internalType": "address",
          "name": "",
          "type": "address"
        }
      ],
      "name": "playerCredit",
      "outputs": [
        {
          "internalType": "uint256",
          "name": "",
          "type": "uint256"
        }
      ],
      "stateMutability": "view",
      "type": "function"
    },
    {
      "inputs": [
        {
          "internalType": "address",
          "name": "",
          "type": "address"
        }
      ],
      "name": "playerOngoingBattle",
      "outputs": [
        {
          "internalType": "uint256",
          "name": "",
          "type": "uint256"
        }
      ],
      "stateMutability": "view",
      "type": "function"
    },
    {
      "inputs": [
        {
          "internalType": "uint256",
          "name": "_battleId",
          "type": "uint256"
        }
      ],
      "name": "quitBattle",
      "outputs": [],
      "stateMutability": "nonpayable",
      "type": "function"
    },
    {
      "inputs": [
        {
          "internalType": "address",
          "name": "_newOwner",
          "type": "address"
        }
      ],
      "name": "setOwner",
      "outputs": [],
      "stateMutability": "nonpayable",
      "type": "function"
    },
    {
      "inputs": [],
      "name": "staminaCost",
      "outputs": [
        {
          "internalType": "uint256",
          "name": "",
          "type": "uint256"
        }
      ],
      "stateMutability": "view",
      "type": "function"
    },
    {
      "inputs": [
        {
          "internalType": "uint256",
          "name": "_tokenId1",
          "type": "uint256"
        },
        {
          "internalType": "uint256",
          "name": "_tokenId2",
          "type": "uint256"
        }
      ],
      "name": "storeStamina",
      "outputs": [],
      "stateMutability": "nonpayable",
      "type": "function"
    },
    {
      "inputs": [
        {
          "internalType": "uint256",
          "name": "battleId",
          "type": "uint256"
        },
        {
          "internalType": "enum Battle.Move",
          "name": "move",
          "type": "uint8"
        },
        {
          "internalType": "uint256",
          "name": "skillId",
          "type": "uint256"
        }
      ],
      "name": "submitMove",
      "outputs": [],
      "stateMutability": "nonpayable",
      "type": "function"
    },
    {
      "inputs": [
        {
          "internalType": "uint256",
          "name": "newCost",
          "type": "uint256"
        }
      ],
      "name": "updateStaminaCost",
      "outputs": [],
      "stateMutability": "nonpayable",
      "type": "function"
    },
    {
      "stateMutability": "payable",
      "type": "receive"
    }
  ],
  "bytecode": "0x6080346200009b57601f62004df738819003918201601f19168301916001600160401b03831184841017620000a05780849260409485528339810103126200009b576200005a60206200005283620000b6565b9201620000b6565b6019600455600c80546001600160a01b039384166001600160a01b031991821617909155600d8054929093169116179055604051614d2b9081620000cc8239f35b600080fd5b634e487b7160e01b600052604160045260246000fd5b51906001600160a01b03821682036200009b5756fe60806040526004361015610018575b361561001657005b005b60003560e01c8063068a1e4914610234578063086d35c21461022b5780630ba5a8e61461022257806313af403514610219578063239752ab1461021057806332ccca0e1461020757806333056109146101fe5780634188de5a146101f55780634c4c447e146101ec578063606d2e96146101e35780636bc8e4a9146101da5780636ca7f95c146101d15780636dd0ce7a146101c85780636efe60c1146101bf5780638bdb3b2f146101b65780638da5cb5b146101ad5780638e4c1999146101a457806396033b761461019b578063a10d80de14610192578063a9b9be3f14610189578063aa9a2e8614610180578063ba7b559614610177578063c7f42c641461016e578063d054fe0014610165578063daf241aa1461015c578063dc55da6f146101535763e44dba4f0361000e5761014e611527565b61000e565b5061014e611417565b5061014e61128c565b5061014e611248565b5061014e611173565b5061014e6110fb565b5061014e6110d4565b5061014e6110b5565b5061014e610feb565b5061014e610fad565b5061014e610ea3565b5061014e610e79565b5061014e610e02565b5061014e610d40565b5061014e610c75565b5061014e610afe565b5061014e6109f7565b5061014e610971565b5061014e6105da565b5061014e61054d565b5061014e610501565b5061014e61044b565b5061014e6103d7565b5061014e6102fe565b5061014e61028b565b5061014e61026c565b5061014e61024d565b600091031261024857565b600080fd5b5034610248576000366003190112610248576020600654604051908152f35b5034610248576000366003190112610248576020600354604051908152f35b5034610248576020366003190112610248576000546001600160a01b031633036102b757600480359055005b60405162461bcd60e51b815260206004820152600e60248201526d139bdd08185d5d1a1bdc9a5e995960921b6044820152606490fd5b6001600160a01b0381160361024857565b503461024857602036600319011261024857600060043561031e816102ed565b81546001600160a01b039182166001600160a01b0319821681178455604051929091167f8292fce18fa69edf4db7b94ea2e58241df0ae57f97e0a6c9b29067028bf92d768484a3f35b50634e487b7160e01b600052603260045260246000fd5b6006548110156103a4575b6006600052600080516020614cd68339815191520190600090565b6103ac610367565b610389565b80548210156103ca575b60005260206000200190600090565b6103d2610367565b6103bb565b503461024857602036600319011261024857600435600654811015610248576020906006600052600080516020614cd68339815191520154604051908152f35b90815180825260208080930193019160005b828110610437575050505090565b835185529381019392810192600101610429565b503461024857600036600319011261024857604051806006548082528260208093016006600052600080516020614cd68339815191529260005b858282106104b45750505061049c92500383610898565b6104b0604051928284938452830190610417565b0390f35b8554845260019586019588955093019201610485565b6040810192916000915b600283106104e157505050565b81516001600160a01b0316815260019290920191602091820191016104d4565b5034610248576020366003190112610248576040805161052081610862565b36903760043560005260056020526104b06105416002604060002001612e20565b604051918291826104ca565b503461024857604036600319011261024857602060026105d0602435610572816102ed565b604051600435858201908152606083901b6001600160601b0319166020820152906105aa81603484015b03601f198101835282610898565b5190206000526009845260406000209060018060a01b0316600052602052604060002090565b0154604051908152f35b5034610248576020366003190112610248576000600435610657600a61060a836000526005602052604060002090565b600281015461062c906001600160a01b03166001600160a01b031633146124d5565b0161064a61063b825460ff1690565b61064481610947565b15612530565b805460ff19166002179055565b33600090815260086020526040902082905561067d816000526007602052604060002090565b546106d96106a1610697610692600654611bda565b61037e565b90549060031b1c90565b6106c9816106ae8561037e565b90919082549060031b600019811b9283911b16911916179055565b6000526007602052604060002090565b556106e261257c565b816106f7826000526007602052604060002090565b556040519033907fb91ae85405a99ffc07c694757cfbb7a52994c3b4daf39d040a6d56b1429ed7c78484a3f35b90600182811c92168015610754575b602083101461073e57565b634e487b7160e01b600052602260045260246000fd5b91607f1691610733565b906000929180549161076f83610724565b9182825260019384811690816000146107d15750600114610791575b50505050565b90919394506000526020928360002092846000945b8386106107bd57505050500101903880808061078b565b8054858701830152940193859082016107a6565b9294505050602093945060ff191683830152151560051b0101903880808061078b565b50634e487b7160e01b600052604160045260246000fd5b61016081019081106001600160401b0382111761082757604052565b61082f6107f4565b604052565b6001600160401b03811161082757604052565b60a081019081106001600160401b0382111761082757604052565b604081019081106001600160401b0382111761082757604052565b606081019081106001600160401b0382111761082757604052565b90601f801991011681019081106001600160401b0382111761082757604052565b906108d46108cd926040519384809261075e565b0383610898565b565b918091926000905b8282106108f65750116108ef575050565b6000910152565b915080602091830151818601520182916108de565b90602091610924815180928185528580860191016108d6565b601f01601f1916010190565b50634e487b7160e01b600052602160045260246000fd5b6003111561095157565b6108d4610930565b9060038210156109665752565b61096e610930565b52565b503461024857602036600319011261024857600435600052600560205260406000208054600a604051926109b3846109ac816001850161075e565b0385610898565b01546109d1604051938493845260806020850152608084019061090b565b906109e26040840160ff8316610959565b60081c6001600160a01b031660608301520390f35b503461024857606036600319011261024857600435602435906004821015610248576000818152600560205260409020600201546100169290610a47906001600160a01b0316614b3a565b614b3a565b610a85610a42610a706002610a66866000526005602052604060002090565b0160010190600090565b905460039190911b1c6001600160a01b031690565b610ae8610aaf6002610aa1856000526005602052604060002090565b01546001600160a01b031690565b610acb610a706002610a66876000526005602052604060002090565b336001600160a01b039283161491908215610af1575b50506126c2565b604435916128cc565b9091501633143880610ae1565b5034610248576000366003190112610248576020600254604051908152f35b6000915b60028310610b2e57505050565b81516001600160a01b031681526001929092019160209182019101610b21565b6000915b60028310610b5f57505050565b600190825181526020809101920192019190610b52565b6000915b60028310610b8757505050565b6001908251151581526020809101920192019190610b7a565b610c72906020815282516020820152610220610140610bd06020860151610240604086015261026085019061090b565b94610be360408201516060860190610b1d565b610bf5606082015160a0860190610b4e565b610c07608082015160e0860190610b4e565b610c6860a0820151610c1f6101209182880190610b4e565b610c3260c0840151610160880190610959565b60e08301516001600160a01b0316610180870152610c5a6101008401516101a0880190610b4e565b8201516101e0860190610b4e565b0151910190610b76565b90565b503461024857602036600319011261024857604051610c938161080b565b6000815260606020820152604051610caa81610862565b60403682376040820152610cbc614954565b6060820152610cc9614954565b6080820152610cd6614954565b60a0820152600060c0820152600060e0820152610cf1614954565b610100820152610cff614954565b610120820152610140610d10614954565b9101526104b0610d34610d2f6004356000526005602052604060002090565b61420d565b60405191829182610ba0565b503461024857602036600319011261024857600435610d5e816102ed565b60018060a01b031660005260086020526020604060002054604051908152f35b6040519061010082018281106001600160401b0382111761082757604052565b604051906108d48261080b565b6040519061016082018281106001600160401b0382111761082757604052565b604051906108d482610862565b6020906001600160401b038111610df5575b601f01601f19160190565b610dfd6107f4565b610dea565b5034610248576040366003190112610248576004356001600160401b0381116102485736602382011215610248578060040135610e3e81610dd8565b90610e4c6040519283610898565b80825236602482850101116102485760208160009260246100169601838601378301015260243590611c47565b5034610248576000366003190112610248576000546040516001600160a01b039091168152602090f35b503461024857604036600319011261024857600c54610ed2906001600160a01b03165b6001600160a01b031690565b803b1561024857604051631a3bcbcf60e11b808252600480359083015260009290919083908290602490829084905af18015610fa0575b610f8d575b50600c548290610f26906001600160a01b0316610ec6565b91823b15610f89576040519283918252818381610f4d602435600483019190602083019252565b03925af18015610f7c575b610f63575b50604051f35b80610f70610f7692610834565b8061023d565b38610f5d565b610f84611775565b610f58565b5080fd5b80610f70610f9a92610834565b38610f0e565b610fa8611775565b610f09565b503461024857602036600319011261024857600435610fcb816102ed565b60018060a01b0316600052600b6020526020604060002054604051908152f35b50346102485760203660031901126102485760043560018060a01b039061102d826110256002610aa1856000526005602052604060002090565b161515614177565b6040611046610d2f836000526005602052604060002090565b0191611061835182815116331490811561109c575b506142d2565b82515116338103611091575061108b61107e610016935160200190565b516001600160a01b031690565b90614346565b906100169250614346565b6020015133915083166001600160a01b0316143861105b565b5034610248576000366003190112610248576020600a54604051908152f35b50346102485760203660031901126102485760206110f360043561371f565b604051908152f35b503461024857602036600319011261024857604080805161111b81610862565b36903760043560005260056020528060002060078251918383018381106001600160401b03821117611166575b8452600681015483520154602082015261116482518092610b4e565bf35b61116e6107f4565b611148565b50346102485760008060031936011261123057600154604051633fabe5a360e21b81529060a090829060049082906001600160a01b03165afa91821561123b575b80926111df575b6104b06111cf6111ca85614a7e565b6136c0565b6040519081529081906020820190565b90915060a0823d8211611233575b816111fa60a09383610898565b8101031261123057506111cf6111ca826112166104b094614a67565b50611228608060208301519201614a67565b5092506111bb565b80fd5b3d91506111ed565b611243611775565b6111b4565b5034610248576000366003190112610248576020600454604051908152f35b909161127e610c7293604084526040840190610417565b916020818403910152610417565b5034610248576040366003190112610248576113056024356112ad816102ed565b6040805160043560208201908152606084901b6001600160601b031916928201929092526112de816054810161059c565b519020600052600960205260406000209060018060a01b0316600052602052604060002090565b6008810190815461131581614a13565b9161131f82614a13565b93600960009201915b83811061133e57604051806104b0888883611267565b8061136e61135261069761137f94866103b1565b8061135d848a614a45565b528590600052602052604060002090565b546113798289614a45565b52611c2b565b611328565b906020908183528161014060e061012086019380518488015260018060a01b03848201511660408801526040810151606088015260608101516080880152608081015160a088015260a081015160c088015260c0810151828801520151946101008082015285518094520193019160005b828110611403575050505090565b8351855293810193928101926001016113f5565b5034610248576040366003190112610248576104b06114a360243561143b816102ed565b6114436149b7565b5061148c60405160208101906114798161059c8660043586909160349282526001600160601b03199060601b1660208201520190565b5190206000526009602052604060002090565b9060018060a01b0316600052602052604060002090565b80546001820154909161151691600791906001600160a01b0316600282015460038301546004840154906005850154926114f76006870154956114e4610d7e565b9a8b526001600160a01b031660208b0152565b60408901526060880152608087015260a086015260c085015201614968565b60e082015260405191829182611384565b503461024857604036600319011261024857600c546024359060043590611556906001600160a01b0316610ec6565b6040516331a9108f60e11b81526004810184905290602090829060249082905afa908115611753575b600091611725575b506001600160a01b039061159e9082163314611782565b3360009081526008602052604090206115b9905b54156117ce565b6115cd826000526005602052604060002090565b92611640600a85016115f26115e3825460ff1690565b6115ec81610947565b1561260e565b600286019361161090611609600389016000610a70565b161561265a565b61161f836005880160006106ae565b6001840180546001600160a01b03191633179055805460ff19166001179055565b33600090815260086020526040902083905561165d8333836120a6565b600c54611672906001600160a01b0316610ec6565b90600454823b156102485760405163739420a560e01b8152600481019290925260248201527fa72410bb9591bbefc185513ffe3391dab998fd386517820464188cc105719bcf92611700926116ee92610ec692916000908290604490829084905af18015611718575b611705575b50546001600160a01b031690565b926040519182916001339701836126a6565b0390a3005b80610f7061171292610834565b386116e0565b611720611775565b6116db565b611746915060203d811161174c575b61173e8183610898565b810190611760565b38611587565b503d611734565b61175b611775565b61157f565b908160209103126102485751610c72816102ed565b506040513d6000823e3d90fd5b1561178957565b60405162461bcd60e51b815260206004820152601e60248201527f4e6f7420746865206f776e6572206f66207468652063686172616374657200006044820152606490fd5b156117d557565b60405162461bcd60e51b815260206004820152602e60248201527f506c6179657220616c72656164792070617274696369706174696e6720696e2060448201526d616e6f7468657220626174746c6560901b6064820152608490fd5b60038210156109665752565b818110611848575050565b6000815560010161183d565b9190601f811161186357505050565b6108d4926000526020600020906020601f840160051c8301931061188f575b601f0160051c019061183d565b9091508190611882565b91909182516001600160401b038111611968575b6118c1816118bb8454610724565b84611854565b602080601f83116001146118fd5750819293946000926118f2575b50508160011b916000199060031b1c1916179055565b0151905038806118dc565b90601f1983169561191385600052602060002090565b926000905b88821061195057505083600195969710611937575b505050811b019055565b015160001960f88460031b161c1916905538808061192d565b80600185968294968601518155019501930190611918565b6119706107f4565b6118ad565b50634e487b7160e01b600052601160045260246000fd5b60649080600019048211811515166119a2570290565b6119aa611975565b0290565b80600019048211811515166119a2570290565b906000905b600282106119d357505050565b805183546001600160a01b0319166001600160a01b039190911617835560019283019291909101906020016119c6565b906000905b60028210611a1557505050565b6001602082829351865501930191019091611a08565b906003811015611a44575b60ff80198354169116179055565b611a4c610930565b611a36565b60009081925b60028410611a655750505050565b8060209151151583548560031b60ff811b9283911b169119161783550192600180930192601f8411611a9c575b5060010192611a57565b60009350909101906001611a92565b600f6101406108d49380518455611ac9602082015160018601611899565b611ada6040820151600286016119c1565b611aeb606082015160048601611a03565b611afc608082015160068601611a03565b611b0d60a082015160088601611a03565b611b5b600a8501611b2b60c0840151611b2581610947565b82611a2b565b60e08301516001600160a01b03168154610100600160a81b03191660089190911b610100600160a81b0316179055565b611b6d610100820151600b8601611a03565b611b7f610120820151600d8601611a03565b01519101611a51565b600654600160401b811015611bcd575b6001810180600655811015611bc0575b6006600052600080516020614cd68339815191520155565b611bc8610367565b611ba8565b611bd56107f4565b611b98565b60018110611bea575b6000190190565b611bf2611975565b611be3565b60038110611c07575b6002190190565b611c0f611975565b611c00565b818110611c1f570390565b611c27611975565b0390565b6001906000198114611c3b570190565b611c43611975565b0190565b600c54909190611da390611c63906001600160a01b0316610ec6565b6040516331a9108f60e11b815260048101849052602091611cab91908390829060249082905afa908115611ec9575b600091611eac575b506001600160a01b03163314611782565b336000908152600860205260409020611cc3906115b2565b600a5493611ccf610dcb565b338152600083820152611ce0610dcb565b858152600084820152611cf1610dcb565b60008152600085820152611d03610dcb565b9060008252600086830152611d16610dcb565b9260008452600087850152611d29610dcb565b9460008652600088870152611d3c610dcb565b9660008852600089890152611d4f610d9e565b988c8a5289015260408801526060870152608086015260a0850152600060c0850152600060e0850152610100840152610120830152610140820152611d9e846000526005602052604060002090565b611aab565b611dac82611b88565b611db7600654611bda565b611dcb836000526007602052604060002090565b55336000908152600860205260409020829055611de98233836120a6565b600c54611dfe906001600160a01b0316610ec6565b91600454833b156102485760405163739420a560e01b81526004810184905260248101919091527fcd51df591e2f9319b98d783b63c675c8ab2e63d44101da9e5a12af2b1fcab479936000908290604490829084905af18015611e9f575b611e8c575b5060408051918252336020830152810191909152606090a16108d4611e87600a54611c2b565b600a55565b80610f70611e9992610834565b38611e61565b611ea7611775565b611e5c565b611ec39150833d851161174c5761173e8183610898565b38611c9a565b611ed1611775565b611c92565b90816020910312610248575190565b6020906001600160401b038111611efe575b60051b0190565b611f066107f4565b611ef7565b6020908181840312610248578051906001600160401b03821161024857019180601f84011215610248578251611f4081611ee5565b93611f4e6040519586610898565b818552838086019260051b820101928311610248578301905b828210611f75575050505090565b81518152908301908301611f67565b815191600160401b8311611ff3575b8154838355808410611fd5575b50602080910191600052806000206000925b848410611fc0575050505050565b60018382829351855501920193019290611fb2565b611fed9083600052846020600020918201910161183d565b38611fa0565b611ffb6107f4565b611f93565b6040519061200d8261087d565b602282526132b960f11b6040837f4368617261637465722070726f7879206372656174656420666f7220706c617960208201520152565b6040519061205182610862565b60078252662432b0b63a341d60c91b6020830152565b6040519061207482610862565b600582526426b0b7309d60d91b6020830152565b6002821015612099575b0190600090565b6120a1610367565b612092565b604080516020808201868152606086901b6001600160601b031916838501529093916120e091869161148c9190611479816054810161059c565b8181556001810180546001600160a01b0319166001600160a01b03871617905590600c805490939061211a906001600160a01b0316610ec6565b8151946316442a7f60e11b86528686600493818061213f898883019190602083019252565b03915afa9586156124c8575b6000966124a9575b5060028501958655805461216f906001600160a01b0316610ec6565b87845180926319ddc96160e21b825281806121918a8983019190602083019252565b03915afa90811561249c575b60009161247f575b50600386015580546121bf906001600160a01b0316610ec6565b87845180926323ce9af360e11b825281806121e18a8983019190602083019252565b03915afa908115612472575b600091612455575b5085830155805461220e906001600160a01b0316610ec6565b968084518099633a274a5560e11b825281806122318a8983019190602083019252565b03915afa978815612448575b60009861240b575b50926000926122bd610ec66122dc9794899760056122f99b019c8d55612274610ec6835460018060a01b031690565b8187518092631bd2a47760e01b825281806122968d8c83019190602083019252565b03915afa9182156123fe575b89926123d1575b50506006890155546001600160a01b031690565b915163806227f560e01b81529081019283529485928391829160200190565b03915afa9182156123c4575b60009261239e575b50600701611f84565b61230a83612305612000565b614bf4565b61233e8154946123218661231c612044565b614b6d565b61232e845461231c612067565b6000526005602052604060002090565b6002810154909390612358906001600160a01b0316610ec6565b6001600160a01b039091160361237957600d92935054600b84015554910155565b506108d4926106ae91600d9161239290600c8601600086565b54920160010190600090565b6123bd90600792933d8091833e6123b58183610898565b810190611f0b565b91906122f0565b6123cc611775565b6122e8565b6123f09250803d106123f7575b6123e88183610898565b810190611ed6565b38806122a9565b503d6123de565b612406611775565b6122a2565b819850926122bd610ec66122dc9794612438600097866122f99c9a97903d106123f7576123e88183610898565b9b94979950949750505092612245565b612450611775565b61223d565b61246c9150883d8a116123f7576123e88183610898565b386121f5565b61247a611775565b6121ed565b6124969150883d8a116123f7576123e88183610898565b386121a5565b6124a4611775565b61219d565b6124c1919650873d89116123f7576123e88183610898565b9438612153565b6124d0611775565b61214b565b156124dc57565b60405162461bcd60e51b815260206004820152602660248201527f4f6e6c79207468652063726561746f722063616e2063616e63656c2074686520604482015265626174746c6560d01b6064820152608490fd5b1561253757565b60405162461bcd60e51b815260206004820152601e60248201527f43616e6e6f742063616e63656c2061207374617274656420626174746c6500006044820152606490fd5b60065480156125ce5760007ff652222313e28459528d920b65115c16c04f3efc82aaedc97be59f3f377c0d3e8119830192808410156125c1575b600683520155600655565b6125c9610367565b6125b6565b634e487b7160e01b600052603160045260246000fd5b80549081156125ce57600019918201916125fe83836103b1565b909182549160031b1b1916905555565b1561261557565b60405162461bcd60e51b815260206004820152601a60248201527f426174746c652068617320616c726561647920737461727465640000000000006044820152606490fd5b1561266157565b60405162461bcd60e51b815260206004820152601e60248201527f426174746c6520616c7265616479206861732074776f20706c617965727300006044820152606490fd5b9291906126bd60209160408652604086019061075e565b930152565b156126c957565b60405162461bcd60e51b815260206004820152602860248201527f4f6e6c79207061727469636970616e74732063616e2063616c6c207468697320604482015267333ab731ba34b7b760c11b6064820152608490fd5b1561272657565b60405162461bcd60e51b815260206004820152602b60248201527f426174746c6520686173206e6f742073746172746564206f722068617320616c60448201526a1c9958591e48195b99195960aa1b6064820152608490fd5b6004111561095157565b1561279057565b60405162461bcd60e51b815260206004820152603e60248201527f496e76616c6964206d6f76653a206d7573742062652041545441434b2c20444560448201527f46454e442c205553455f534b494c4c2c206f7220444f5f4e4f5448494e4700006064820152608490fd5b601f909291926002841015612815575b8360051c01921690565b61281d610367565b61280b565b1561282957565b606460405162461bcd60e51b815260206004820152602060248201527f4d6f766520616c7265616479207375626d697474656420627920706c617965726044820152fd5b1561287457565b60405162461bcd60e51b815260206004820152601f60248201527f5375626d697474656420736b696c6c206973206e6f74206571756970706564006044820152606490fd5b9190602083019260048210156109665752565b9190916128e3816000526005602052604060002090565b916128f2600a84015460ff1690565b936128fc85610947565b612909600180961461271f565b6129128161277f565b80158015612b6c575b8015612b59575b8015612b46575b61293290612789565b6002840154612949906001600160a01b0316610ec6565b3303612b3e5760ff60005b16600f85019261298361297e61297a61296d85886127fb565b905460ff9160031b1c1690565b1590565b612822565b6129db60405161148c602082016129c6836129b8338c85909160349282526001600160601b03199060601b1660208201520190565b03601f198101855284610898565b33925190206000526009602052604060002090565b966129e58461277f565b600284149081612ad5575b509091929394959650612a028461277f565b612a13846106ae8560068b01612088565b612a3a612a2084876127fb565b60019082549060031b60ff811b9283911b16911916179055565b612a438461277f565b612abe575b5050827fdf31d6d9480a495c0b6667daa4c8f92d5420a9b58cc52f19657329ba9aa8143a60405180612a7b3395826128b9565b0390a35460ff81169081612ab0575b50612a93575050565b60088201546108d492612aaa906009016000610697565b91612f0d565b60ff915060081c1638612a8a565b6106ae612ace9260088801612088565b3880612a48565b6000906007829a0180549a5b8b8110612b0a575b505050612afd91929394959697985061286d565b90869594939291386129f0565b85612b1861069783856103b1565b14612b2b57612b2690611c2b565b612ae1565b509899508998509050612afd3880612ae9565b60ff85612954565b50612b508161277f565b60038114612929565b50612b638161277f565b60028114612922565b50612b768161277f565b84811461291b565b60405190612b8b82610862565b600682526570726f78794160d01b6020830152565b60405190612bad82610862565b6006825265383937bc3ca160d11b6020830152565b60405190612bcf82610862565b602082527f506c617965722031206973207374756e6e65642c206d6973732061207475726e6020830152565b60405190612c0882610862565b602082527f506c617965722032206973207374756e6e65642c206d6973732061207475726e6020830152565b60405190612c418261087d565b60278252666e6f7468696e6760c81b6040837f506c61796572203120646566656e64732c20706c61796572203220646f65732060208201520152565b6003906003198111611c3b570190565b6103e881198111611c3b570190565b81198111611c3b570190565b60405190612cb58261087d565b602782526661747461636b7360c81b6040837f506c61796572203120646f6573206e6f7468696e672c20706c6179657220322060208201520152565b60405190612cfe8261087d565b60278252666e6f7468696e6760c81b6040837f506c6179657220312061747461636b732c20706c61796572203220646f65732060208201520152565b60405190612d478261087d565b6022825261647360f01b6040837f506c6179657220322061747461636b732c20706c61796572203120646566656e60208201520152565b60405190612d8b8261087d565b6022825261647360f01b6040837f506c6179657220312061747461636b732c20706c61796572203220646566656e60208201520152565b60405190612dcf82610862565b6013825272109bdd1a081c1b185e595c9cc8191959995b99606a1b6020830152565b60405190612dfe82610862565b6013825272426f746820706c61796572732061747461636b60681b6020830152565b60405191906000835b60028210612e3d575050506108d482610862565b82546001600160a01b031681526001928301929190910190602001612e29565b60405190612e6a82610862565b60118252700283630bcb2b91018902432b0b63a341d1607d1b6020830152565b60405190612e9782610862565b60118252700283630bcb2b91019102432b0b63a341d1607d1b6020830152565b60405190612ec482610862565b600f82526e0283630bcb2b910189026b0b7309d1608d1b6020830152565b60405190612eef82610862565b600f82526e0283630bcb2b910191026b0b7309d1608d1b6020830152565b90612f22826000526005602052604060002090565b926002918285019260018060a01b03908461301b612ff7612fe68584541661148c8b612fc6612fd2604051612f9d610a706020830183612f7c8a8984909160349282526001600160601b03199060601b1660208201520190565b0393612f90601f1995868101835282610898565b5190209b60010190600090565b604080516020810196875260609290921b6001600160601b031916908201529283906054820190565b03908101835282610898565b519020956000526009602052604060002090565b926000526009602052604060002090565b613005600189016000610a70565b60018060a01b0316600052602052604060002090565b92613024610dcb565b956000968781528760208201528061303b85613c33565b5061304c613047612b7e565b614af1565b61305587613c33565b50613061613047612ba0565b600b85015460ff16613680575b8b61307d600b89015460ff1690565b613667575b60060191898b8454801590818092613652575b15613333575050505050508461315a61069786936130b4613047612df1565b6130c1600386015461371f565b6130ce60038c015461371f565b8b8601805491929091908082111561332a576130e991611c14565b905b5585850180549091808211156133215761310491611c14565b905b55600585016131158154611bf7565b905560058a016131258154611bf7565b90556131308d612e20565b9a5b8a85835414600014613316576131489187613a07565b878116613305575b5060010190600090565b036132fd576131699186613a07565b9081166132e9575b505b85546001600160a01b03169382820193845492836131948a60010190600090565b90549684018054604080518f81526001600160a01b039c8d1660208201529081019490945260039290921b9790971c9098166060820152608081018890529496947fe85058f4893f92696bd72945da4fc8a26957c32630cd7492babba8aa5b7446fc9060a090a183613204612e5d565b9061320e91614b6d565b84613217612e8a565b9061322191614b6d565b6005015461322d612eb7565b9061323791614b6d565b60050154613243612ee2565b9061324d91614b6d565b60405161325b8192826104ca565b037fc6bf860cbc15f7020f73993a671f01bbb1831a8a7a12c126ca735eb632e7577591a1159081156132e0575b50156132bb575490546108d49550101590506132ad57546001600160a01b031661108b565b61108b906001016000610a70565b5050505050600f6108d491016132d58160ff198154169055565b805461ff0019169055565b90501538613288565b6001600160a01b0316602085015238613171565b505050613173565b6001600160a01b03168b5238613150565b505060010190600090565b50508c90613106565b50508d906130eb565b61315a948c610697958d989f94958d809b978660018d98149182809361363c575b156133925750505050505050505061336d613047612dc2565b6005860161337b8154612c7d565b905560058b0161338b8154612c7d565b9055613132565b8080613626575b1561343857505050506133ad613047612d7e565b6133ba60038c015461371f565b926004810154928484106133de575b505050505050506005860161337b8154611bf7565b613424966133f2610a709561341797611c14565b92019182548181116000146134305761340b9250611c14565b905b5560010190600090565b6001600160a01b03169052565b84388f8f818f826133c9565b50509061340d565b9397949594938280613611575b156134e7575050505050600361346791613460613047612d3a565b015461371f565b9260048a015491848310613499575b5050505050600586016134898154612c7d565b905560058b0161338b8154611bf7565b6134a9613417936134d496611c14565b908a8c019182548181116000146134df576134c49250611c14565b905b55546001600160a01b031690565b38808f8f8190613476565b5050906134c6565b93979593806135fa575b15613524575050916134179391613516966133f26003610a7096613460613047612cf1565b6005860161338b8154611bf7565b949650919360031491905081806135e5575b1561356957505092613417916134a9600361355696613460613047612ca8565b60058b0161338b8154611bf7565b613132565b935093505050806135ce575b156135945750613586613047612c34565b6005860161338b8154612c7d565b806135b8575b15613564576135aa613047612c34565b60058b0161338b8154612c7d565b5060016135c88382016000610697565b1461359a565b5060036135df600185016000610697565b14613575565b506135f4600189016000610697565b15613536565b50600361360b60018c016000610697565b146134f1565b5061362060018c016000610697565b15613445565b5060016136368c82016000610697565b14613399565b50600161364c8c82016000610697565b14613354565b50613661600188016000610697565b15613095565b600360079091015561367a613047612bfb565b8b613082565b600360068d0155613692613047612bc2565b61306e565b604051906136a482610862565b600d82526c02234b1b2902937b63632b21d1609d1b6020830152565b80156136da576e09a130b963a6c115c3c7f4000000000490565b634e487b7160e01b600052601260045260246000fd5b604051906136fd82610862565b6013825272021b0b631bab630ba32b2102230b6b0b3b29d1606d1b6020830152565b6137bc6137c4916137b66137b16001601460405160208101904482524260408201523360601b606082015260548152608081018181106001600160401b038211176137dd575b60405251902006811981116137d0575b017f0c720560a539b13f97fb22b6c1ac4393045cedca3bb997fd2ea1f7a3dfb76a586020604051838152a16137ac8161231c613697565b61198c565b612c8d565b906119ae565b6103e8900490565b610c728161231c6136f0565b6137d8611975565b613775565b6137e56107f4565b613765565b81601f8201121561024857805161380081610dd8565b9261380e6040519485610898565b8184526020828401011161024857610c7291602080850191016108d6565b906020828203126102485781516001600160401b0392838211610248570160a081830312610248576040519261386184610847565b8151845260208201519081116102485760809261387f9183016137ea565b602084015260408101516040840152606081015160608401520151608082015290565b5190811515820361024857565b6020818303126102485780516001600160401b039182821161024857019061016082840312610248576138e0610dab565b92825184526020830151918211610248576138fc9183016137ea565b602083015261390d604082016138a2565b6040830152606081015160608301526080810151608083015260a081015160a083015260c081015160c083015260e081015160e0830152610100808201519083015261012080820151908301526139686101408092016138a2565b9082015290565b6040519061397c8261087d565b602b82526a379037b83837b732b73a1d60a91b6040837f4e656761746976652073746174757320656666656374206170706c696564207460208201520152565b604051906139c98261087d565b60298252683790383630bcb2b91d60b91b6040837f506f7369746976652073746174757320656666656374206170706c696564207460208201520152565b600d54909190613a4890613a23906001600160a01b0316610ec6565b916040518093635ec407d760e11b825281806000958695600483019190602083019252565b03915afa918215613bd4575b8192613bb0575b50613a69604083015161371f565b93819480613b63575b50613b0792600592606092613a91610ec6600d5460018060a01b031690565b608084018051604051631187bd5160e01b815260048101919091529092918490829060249082905afa938415613b56575b8094613b31575b5050604083015115613b0c5750613afb91613aec6020925186830151908a613be1565b0151613af66139bc565b614bb0565b01519201918254611c14565b905590565b91613b22613b2c93602093518784015191613be1565b0151613af661396f565b613afb565b613b4e9294503d8091833e613b468183610898565b8101906138af565b913880613ac9565b613b5e611775565b613ac2565b81955092600592613b079460026060940190815490808211600014613ba757613b8b91611c14565b905b5560018701546001600160a01b0316969250925092613a72565b50508190613b8d565b613bcd9192503d8084833e613bc58183610898565b81019061382c565b9038613a5b565b613bdc611775565b613a54565b600991613c0a816106ae60088501805490600160401b821015613c19575b6001820181556103b1565b60005201602052604060002055565b613c216107f4565b613bff565b8015611bea576000190190565b6000908190825b60088201938454811015613f7357613c5561069782876103b1565b600d54909590613c6d906001600160a01b0316610ec6565b9060405196631187bd5160e01b88526000886004948180613c95868983019190602083019252565b03915afa978815613f66575b600098613f4b575b506080880192835180613f3a575b5060a0890198895180613f29575b5060c08101805180613f18575b5060e0820191825180613f07575b5061010081015180613ef7575b50610140810151613ed8575b610120015180613eb2575b5088999a613d43856009613d569b9c01613d28828290600052602052604060002090565b613d328154611bda565b905590600052602052604060002090565b5415613d5e575b50505050505050611c2b565b929190613c3a565b613d9a96518b8682613e7f575b5050505180613e4e575b505180613e1e575b50519182613de2575b505050805460018111613dba575b506125e4565b80613dac575b38808080808080613d4a565b613db590613c26565b613da0565b613dd2610697613dcc613ddc93611bda565b846103b1565b6106ae85846103b1565b38613d94565b613e1692613df7613e0c938b01918254612c9c565b9055600a890190600052602052604060002090565b805460ff19169055565b388080613d86565b613e2c838b01918254611c14565b9055613e48613e0c84600a8c0190600052602052604060002090565b38613d7d565b613e5d60038c01918254612c9c565b9055613e79613e0c85600a8d0190600052602052604060002090565b38613d75565b600a82613eaa94613e986003613e0c9601918254611c14565b90550190600052602052604060002090565b388b86613d6b565b60028a01613ec28154928c614158565b5410613ecf575b38613d04565b60019950613ec9565b600085815260098b01602052604090205415613cf95760019850613cf9565b613f01908b6140c0565b38613ced565b613f1290868c61410b565b38613ce0565b613f2390858b6140cf565b38613cd2565b613f3490848a61405d565b38613cc5565b613f4590838961401d565b38613cb7565b613f5f91983d8091833e613b468183610898565b9638613ca9565b613f6e611775565b613ca1565b509192507f91bd27fb1fc1a6609fba2db65225a295a4d4d4d5d4530cbf31a3ef7827f7984c90613fb3600b820193849060ff801983541691151516179055565b60018101546001600160a01b031661401785600284015495613fe060046003870154960154915460ff1690565b60408051988952602089019690965294870152921515606086015291151560808501526001600160a01b03169290819060a0820190565b0390a290565b90600052600a810160205260ff604060002054161561403a575050565b6003614059916040600020600160ff1982541617905501918254612c9c565b9055565b90600052600a810160205260ff604060002054161561407a575050565b6003906040600020600160ff198254161790550190815460008282116000146140b957508181106140ac575b03905b55565b6140b4611975565b6140a6565b9150509055565b60026140599101918254612c9c565b90600052600a810160205260ff60406000205416156140ec575050565b6004614059916040600020600160ff1982541617905501918254612c9c565b90600052600a810160205260ff6040600020541615614128575050565b6004906040600020600160ff198254161790550190815460008282116000146140b957508181106140ac57039055565b60020190815460008282116000146140b957508181106140ac57039055565b1561417e57565b60405162461bcd60e51b8152602060048201526011602482015270426174746c65206e6f7420666f756e642160781b6044820152606490fd5b60405191906000835b600282106141d4575050506108d482610862565b60016020819285548152019301910190916141c0565b9060ff60405192548181161515845260081c16151560208301526108d482610862565b906142ca600f61421b610d9e565b938054855261422c600182016108b9565b602086015261423d60028201612e20565b604086015261424e600482016141b7565b606086015261425f600682016141b7565b6080860152614270600882016141b7565b60a08601526142a0600a82015461428d60ff821660c08901611831565b60081c6001600160a01b031660e0870152565b6142ac600b82016141b7565b6101008601526142be600d82016141b7565b610120860152016141ea565b610140830152565b156142d957565b60405162461bcd60e51b815260206004820152601b60248201527f596f7520617265206e6f7420696e207468697320626174746c652100000000006044820152606490fd5b6040519061432b82610862565b600c82526b022bc381033b0b4b732b21d160a51b6020830152565b61435a816000526005602052604060002090565b600a81018054610100600160a81b031916600885901b610100600160a81b03161781556143869061064a565b61438f8261468b565b60028101546001600160a01b0316916143ac600383016000610a70565b6001600160a01b038481166000818152600860205260408082208290558484168252812081905590968216959091868814919082156146845784925b1561467b5760ff845b16921697881460001461466d57600261449460ff855b169561441587868b8b614741565b61148c88846144616040519761148c60208a018a61444d848884909160349282526001600160601b03199060601b1660208201520190565b039a611479601f199c8d8101835282610898565b0154956114796040519182612fc687602083019687909160349282526001600160601b03199060601b1660208201520190565b01549015908115614664575b506144e3575b5050507f0baf086d5a49a7d9df72185aa0488cadd724e398bb5e99c615ee24c699deba91916144de60019260405193849301836126a6565b0390a3565b600c546144f8906001600160a01b0316610ec6565b91600486019261450b6106978486612088565b90803b1561466057604051633502ac5360e11b8082526004820193909352606460248201529083908290604490829084905af18015614653575b614640575b50600c54614560906001600160a01b0316610ec6565b61456d6106978787612088565b91813b1561463c57956144de956146016145f461069760019b986145dd897f0baf086d5a49a7d9df72185aa0488cadd724e398bb5e99c615ee24c699deba919f9d99610697996146069b6146139d6040518096819582948352600483016020601e91939293604081019481520152565b03925af1801561462f575b61461c575b5084612088565b6145fc61431e565b614c42565b612088565b61460e61431e565b614c8b565b928294506144a6565b80610f7061462992610834565b386145ed565b614637611775565b6145e8565b8380fd5b80610f7061464d92610834565b3861454a565b61465b611775565b614545565b8280fd5b905015386144a0565b600261449460ff6001614407565b60ff60016143f1565b81926143e8565b6140a96000918083526007602052604083205461471160065460018110614734575b80861981011015614727575b600686527ff652222313e28459528d920b65115c16c04f3efc82aaedc97be59f3f377c0d3e8101549083101561471a575b600686528083600080516020614cd683398151915201556000526007602052604060002090565b556106c961257c565b614722610367565b6146ea565b61472f610367565b6146b9565b61473c611975565b6146ad565b60028201546003830154600d8401805460408051602081018781526001600160601b0319606088901b1692820192909252603481529299989795601f19956001600160a01b0395861695869592949391169161479e605482610898565b5190206147b5906000526009602052604060002090565b6001600160a01b03909116600090815260209190915260409020600501546147dc91611c14565b60019990990154604080516020810193845260609490941b6001600160601b0319169084015260549485018352939091906148179082610898565b51902061482e906000526009602052604060002090565b6001600160a01b039091166000908152602091909152604090206005015461485591611c14565b600c549092600401916001600160a01b03909116906148749083612088565b905460039190911b1c95813b15610248576040516322ea803f60e11b808252600482019890985260248101919091526000946148e492610697929087908290604490829084905af18015614947575b614934575b50600c546148de906001600160a01b0316610ec6565b93612088565b813b1561463c57604051958652600486015260248501919091529192918290604490829084905af18015614927575b61491a5750565b80610f706108d492610834565b61492f611775565b614913565b80610f7061494192610834565b386148c8565b61494f611775565b6148c3565b6040519061496182610862565b6040368337565b9060405191828154918282526020928383019160005283600020936000905b82821061499d575050506108d492500383610898565b855484526001958601958895509381019390910190614987565b6040519061010082018281106001600160401b03821117614a06575b604052606060e083600080825280602083015280604083015280848301528060808301528060a083015260c08201520152565b614a0e6107f4565b6149d3565b90614a1d82611ee5565b614a2a6040519182610898565b8281528092614a3b601f1991611ee5565b0190602036910137565b6020918151811015614a5a575b60051b010190565b614a62610367565b614a52565b519069ffffffffffffffffffff8216820361024857565b6402540be4009060017b36f9bfb3af7b756fad5cd10396a21346cbefc1bf33a44ab72e36108b8211600083131616614ae4575b60017fffffffffc906404c50848a9052a32efc695decb934103e40cc5bb548d1c9ef7582126000831216166119a2570290565b614aec611975565b614ab1565b61059c614b1f6108d49260405192839163104c13eb60e21b602084015260206024840152604483019061090b565b600080916020815191016a636f6e736f6c652e6c6f675afa50565b60405163161765e160e11b60208201526001600160a01b0390911660248083019190915281526108d490614b1f8161087d565b614b1f614b9c916108d493604051938492632d839cb360e21b602085015260406024850152606484019061090b565b90604483015203601f198101835282610898565b614b1f614be29161059c6108d494604051948593634b5c427760e01b602086015260406024860152606485019061090b565b8381036023190160448501529061090b565b614b1f614c23916108d49360405193849263319af33360e01b602085015260406024850152606484019061090b565b6001600160a01b0391909116604483015203601f198101835282610898565b614b1f614c71916108d49360405193849263ca47c4eb60e01b602085015260606024850152608484019061090b565b90604483015260648083015203601f198101835282610898565b614b1f614cba916108d49360405193849263ca47c4eb60e01b602085015260606024850152608484019061090b565b906044830152601e606483015203601f19810183528261089856fef652222313e28459528d920b65115c16c04f3efc82aaedc97be59f3f377c0d3fa264697066735822122039cbe96c91adfbbeac30f503830252aee34336c9a95bb362e8a6c5dbc38b917164736f6c634300080f0033",
  "linkReferences": {},
  "deployedLinkReferences": {}
}