{
  "_format": "hh-sol-artifact-1",
  "contractName": "BattleSkills",
  "sourceName": "contracts/BattleSkills.sol",
  "abi": [
    {
      "inputs": [],
      "stateMutability": "nonpayable",
      "type": "constructor"
    },
    {
      "inputs": [
        {
          "internalType": "address",
          "name": "operator",
          "type": "address"
        }
      ],
      "name": "OperatorNotAllowed",
      "type": "error"
    },
    {
      "anonymous": false,
      "inputs": [
        {
          "indexed": true,
          "internalType": "address",
          "name": "_owner",
          "type": "address"
        },
        {
          "indexed": true,
          "internalType": "address",
          "name": "_operator",
          "type": "address"
        },
        {
          "indexed": false,
          "internalType": "bool",
          "name": "_approved",
          "type": "bool"
        }
      ],
      "name": "ApprovalForAll",
      "type": "event"
    },
    {
      "anonymous": false,
      "inputs": [
        {
          "indexed": false,
          "internalType": "string",
          "name": "prevURI",
          "type": "string"
        },
        {
          "indexed": false,
          "internalType": "string",
          "name": "newURI",
          "type": "string"
        }
      ],
      "name": "ContractURIUpdated",
      "type": "event"
    },
    {
      "anonymous": false,
      "inputs": [
        {
          "indexed": true,
          "internalType": "address",
          "name": "newRoyaltyRecipient",
          "type": "address"
        },
        {
          "indexed": false,
          "internalType": "uint256",
          "name": "newRoyaltyBps",
          "type": "uint256"
        }
      ],
      "name": "DefaultRoyalty",
      "type": "event"
    },
    {
      "anonymous": false,
      "inputs": [
        {
          "indexed": false,
          "internalType": "bool",
          "name": "restriction",
          "type": "bool"
        }
      ],
      "name": "OperatorRestriction",
      "type": "event"
    },
    {
      "anonymous": false,
      "inputs": [
        {
          "indexed": true,
          "internalType": "address",
          "name": "prevOwner",
          "type": "address"
        },
        {
          "indexed": true,
          "internalType": "address",
          "name": "newOwner",
          "type": "address"
        }
      ],
      "name": "OwnerUpdated",
      "type": "event"
    },
    {
      "anonymous": false,
      "inputs": [
        {
          "indexed": true,
          "internalType": "uint256",
          "name": "tokenId",
          "type": "uint256"
        },
        {
          "indexed": true,
          "internalType": "address",
          "name": "royaltyRecipient",
          "type": "address"
        },
        {
          "indexed": false,
          "internalType": "uint256",
          "name": "royaltyBps",
          "type": "uint256"
        }
      ],
      "name": "RoyaltyForToken",
      "type": "event"
    },
    {
      "anonymous": false,
      "inputs": [
        {
          "indexed": true,
          "internalType": "address",
          "name": "_operator",
          "type": "address"
        },
        {
          "indexed": true,
          "internalType": "address",
          "name": "_from",
          "type": "address"
        },
        {
          "indexed": true,
          "internalType": "address",
          "name": "_to",
          "type": "address"
        },
        {
          "indexed": false,
          "internalType": "uint256[]",
          "name": "_ids",
          "type": "uint256[]"
        },
        {
          "indexed": false,
          "internalType": "uint256[]",
          "name": "_values",
          "type": "uint256[]"
        }
      ],
      "name": "TransferBatch",
      "type": "event"
    },
    {
      "anonymous": false,
      "inputs": [
        {
          "indexed": true,
          "internalType": "address",
          "name": "_operator",
          "type": "address"
        },
        {
          "indexed": true,
          "internalType": "address",
          "name": "_from",
          "type": "address"
        },
        {
          "indexed": true,
          "internalType": "address",
          "name": "_to",
          "type": "address"
        },
        {
          "indexed": false,
          "internalType": "uint256",
          "name": "_id",
          "type": "uint256"
        },
        {
          "indexed": false,
          "internalType": "uint256",
          "name": "_value",
          "type": "uint256"
        }
      ],
      "name": "TransferSingle",
      "type": "event"
    },
    {
      "anonymous": false,
      "inputs": [
        {
          "indexed": false,
          "internalType": "string",
          "name": "_value",
          "type": "string"
        },
        {
          "indexed": true,
          "internalType": "uint256",
          "name": "_id",
          "type": "uint256"
        }
      ],
      "name": "URI",
      "type": "event"
    },
    {
      "inputs": [],
      "name": "OPERATOR_FILTER_REGISTRY",
      "outputs": [
        {
          "internalType": "contract IOperatorFilterRegistry",
          "name": "",
          "type": "address"
        }
      ],
      "stateMutability": "view",
      "type": "function"
    },
    {
      "inputs": [
        {
          "internalType": "address",
          "name": "",
          "type": "address"
        },
        {
          "internalType": "uint256",
          "name": "",
          "type": "uint256"
        }
      ],
      "name": "balanceOf",
      "outputs": [
        {
          "internalType": "uint256",
          "name": "",
          "type": "uint256"
        }
      ],
      "stateMutability": "view",
      "type": "function"
    },
    {
      "inputs": [
        {
          "internalType": "address[]",
          "name": "accounts",
          "type": "address[]"
        },
        {
          "internalType": "uint256[]",
          "name": "ids",
          "type": "uint256[]"
        }
      ],
      "name": "balanceOfBatch",
      "outputs": [
        {
          "internalType": "uint256[]",
          "name": "",
          "type": "uint256[]"
        }
      ],
      "stateMutability": "view",
      "type": "function"
    },
    {
      "inputs": [
        {
          "internalType": "address",
          "name": "_to",
          "type": "address"
        },
        {
          "internalType": "uint256[]",
          "name": "_tokenIds",
          "type": "uint256[]"
        },
        {
          "internalType": "uint256[]",
          "name": "_amounts",
          "type": "uint256[]"
        },
        {
          "internalType": "string",
          "name": "_baseURI",
          "type": "string"
        }
      ],
      "name": "batchMintTo",
      "outputs": [],
      "stateMutability": "nonpayable",
      "type": "function"
    },
    {
      "inputs": [
        {
          "internalType": "address",
          "name": "_owner",
          "type": "address"
        },
        {
          "internalType": "uint256",
          "name": "_tokenId",
          "type": "uint256"
        },
        {
          "internalType": "uint256",
          "name": "_amount",
          "type": "uint256"
        }
      ],
      "name": "burn",
      "outputs": [],
      "stateMutability": "nonpayable",
      "type": "function"
    },
    {
      "inputs": [
        {
          "internalType": "address",
          "name": "_owner",
          "type": "address"
        },
        {
          "internalType": "uint256[]",
          "name": "_tokenIds",
          "type": "uint256[]"
        },
        {
          "internalType": "uint256[]",
          "name": "_amounts",
          "type": "uint256[]"
        }
      ],
      "name": "burnBatch",
      "outputs": [],
      "stateMutability": "nonpayable",
      "type": "function"
    },
    {
      "inputs": [],
      "name": "contractURI",
      "outputs": [
        {
          "internalType": "string",
          "name": "",
          "type": "string"
        }
      ],
      "stateMutability": "view",
      "type": "function"
    },
    {
      "inputs": [
        {
          "internalType": "string",
          "name": "_name",
          "type": "string"
        },
        {
          "internalType": "uint256",
          "name": "_damage",
          "type": "uint256"
        },
        {
          "internalType": "uint256",
          "name": "_manaCost",
          "type": "uint256"
        },
        {
          "internalType": "uint256[]",
          "name": "_statusEffects",
          "type": "uint256[]"
        },
        {
          "internalType": "string",
          "name": "_tokenURI",
          "type": "string"
        }
      ],
      "name": "createSkill",
      "outputs": [],
      "stateMutability": "nonpayable",
      "type": "function"
    },
    {
      "inputs": [
        {
          "internalType": "string",
          "name": "_name",
          "type": "string"
        },
        {
          "internalType": "uint256",
          "name": "_duration",
          "type": "uint256"
        },
        {
          "internalType": "bool",
          "name": "_isPositive",
          "type": "bool"
        },
        {
          "internalType": "uint256",
          "name": "_damageOverTime",
          "type": "uint256"
        },
        {
          "internalType": "uint256",
          "name": "_stunDuration",
          "type": "uint256"
        },
        {
          "internalType": "uint256",
          "name": "_defenseBoost",
          "type": "uint256"
        },
        {
          "internalType": "uint256",
          "name": "_healAmount",
          "type": "uint256"
        }
      ],
      "name": "createStatusEffect",
      "outputs": [],
      "stateMutability": "nonpayable",
      "type": "function"
    },
    {
      "inputs": [],
      "name": "getBaseURICount",
      "outputs": [
        {
          "internalType": "uint256",
          "name": "",
          "type": "uint256"
        }
      ],
      "stateMutability": "view",
      "type": "function"
    },
    {
      "inputs": [
        {
          "internalType": "uint256",
          "name": "_index",
          "type": "uint256"
        }
      ],
      "name": "getBatchIdAtIndex",
      "outputs": [
        {
          "internalType": "uint256",
          "name": "",
          "type": "uint256"
        }
      ],
      "stateMutability": "view",
      "type": "function"
    },
    {
      "inputs": [],
      "name": "getDefaultRoyaltyInfo",
      "outputs": [
        {
          "internalType": "address",
          "name": "",
          "type": "address"
        },
        {
          "internalType": "uint16",
          "name": "",
          "type": "uint16"
        }
      ],
      "stateMutability": "view",
      "type": "function"
    },
    {
      "inputs": [
        {
          "internalType": "uint256",
          "name": "_enemyLevel",
          "type": "uint256"
        }
      ],
      "name": "getRandomSkill",
      "outputs": [
        {
          "internalType": "uint256",
          "name": "",
          "type": "uint256"
        }
      ],
      "stateMutability": "view",
      "type": "function"
    },
    {
      "inputs": [
        {
          "internalType": "uint256",
          "name": "_tokenId",
          "type": "uint256"
        }
      ],
      "name": "getRoyaltyInfoForToken",
      "outputs": [
        {
          "internalType": "address",
          "name": "",
          "type": "address"
        },
        {
          "internalType": "uint16",
          "name": "",
          "type": "uint16"
        }
      ],
      "stateMutability": "view",
      "type": "function"
    },
    {
      "inputs": [
        {
          "internalType": "uint256",
          "name": "_skillId",
          "type": "uint256"
        }
      ],
      "name": "getSkill",
      "outputs": [
        {
          "components": [
            {
              "internalType": "uint256",
              "name": "skillId",
              "type": "uint256"
            },
            {
              "internalType": "string",
              "name": "name",
              "type": "string"
            },
            {
              "internalType": "uint256",
              "name": "damage",
              "type": "uint256"
            },
            {
              "internalType": "uint256",
              "name": "manaCost",
              "type": "uint256"
            },
            {
              "internalType": "uint256[]",
              "name": "statusEffects",
              "type": "uint256[]"
            }
          ],
          "internalType": "struct BattleSkills.Skill",
          "name": "",
          "type": "tuple"
        }
      ],
      "stateMutability": "view",
      "type": "function"
    },
    {
      "inputs": [
        {
          "internalType": "uint256",
          "name": "_effectId",
          "type": "uint256"
        }
      ],
      "name": "getStatusEffect",
      "outputs": [
        {
          "components": [
            {
              "internalType": "uint256",
              "name": "effectId",
              "type": "uint256"
            },
            {
              "internalType": "string",
              "name": "name",
              "type": "string"
            },
            {
              "internalType": "uint256",
              "name": "duration",
              "type": "uint256"
            },
            {
              "internalType": "bool",
              "name": "isPositive",
              "type": "bool"
            },
            {
              "internalType": "uint256",
              "name": "damageOverTime",
              "type": "uint256"
            },
            {
              "internalType": "uint256",
              "name": "stunDuration",
              "type": "uint256"
            },
            {
              "internalType": "uint256",
              "name": "defenseBoost",
              "type": "uint256"
            },
            {
              "internalType": "uint256",
              "name": "healAmount",
              "type": "uint256"
            }
          ],
          "internalType": "struct BattleSkills.StatusEffect",
          "name": "",
          "type": "tuple"
        }
      ],
      "stateMutability": "view",
      "type": "function"
    },
    {
      "inputs": [
        {
          "internalType": "address",
          "name": "",
          "type": "address"
        },
        {
          "internalType": "address",
          "name": "",
          "type": "address"
        }
      ],
      "name": "isApprovedForAll",
      "outputs": [
        {
          "internalType": "bool",
          "name": "",
          "type": "bool"
        }
      ],
      "stateMutability": "view",
      "type": "function"
    },
    {
      "inputs": [
        {
          "internalType": "uint256",
          "name": "_skillId",
          "type": "uint256"
        },
        {
          "internalType": "address",
          "name": "_caller",
          "type": "address"
        }
      ],
      "name": "mintSkill",
      "outputs": [],
      "stateMutability": "nonpayable",
      "type": "function"
    },
    {
      "inputs": [
        {
          "internalType": "address",
          "name": "_to",
          "type": "address"
        },
        {
          "internalType": "uint256",
          "name": "_tokenId",
          "type": "uint256"
        },
        {
          "internalType": "string",
          "name": "_tokenURI",
          "type": "string"
        },
        {
          "internalType": "uint256",
          "name": "_amount",
          "type": "uint256"
        }
      ],
      "name": "mintTo",
      "outputs": [],
      "stateMutability": "nonpayable",
      "type": "function"
    },
    {
      "inputs": [
        {
          "internalType": "bytes[]",
          "name": "data",
          "type": "bytes[]"
        }
      ],
      "name": "multicall",
      "outputs": [
        {
          "internalType": "bytes[]",
          "name": "results",
          "type": "bytes[]"
        }
      ],
      "stateMutability": "nonpayable",
      "type": "function"
    },
    {
      "inputs": [],
      "name": "name",
      "outputs": [
        {
          "internalType": "string",
          "name": "",
          "type": "string"
        }
      ],
      "stateMutability": "view",
      "type": "function"
    },
    {
      "inputs": [],
      "name": "nextTokenIdToMint",
      "outputs": [
        {
          "internalType": "uint256",
          "name": "",
          "type": "uint256"
        }
      ],
      "stateMutability": "view",
      "type": "function"
    },
    {
      "inputs": [],
      "name": "numSkills",
      "outputs": [
        {
          "internalType": "uint256",
          "name": "",
          "type": "uint256"
        }
      ],
      "stateMutability": "view",
      "type": "function"
    },
    {
      "inputs": [],
      "name": "numStatusEffects",
      "outputs": [
        {
          "internalType": "uint256",
          "name": "",
          "type": "uint256"
        }
      ],
      "stateMutability": "view",
      "type": "function"
    },
    {
      "inputs": [],
      "name": "operatorRestriction",
      "outputs": [
        {
          "internalType": "bool",
          "name": "",
          "type": "bool"
        }
      ],
      "stateMutability": "view",
      "type": "function"
    },
    {
      "inputs": [],
      "name": "owner",
      "outputs": [
        {
          "internalType": "address",
          "name": "",
          "type": "address"
        }
      ],
      "stateMutability": "view",
      "type": "function"
    },
    {
      "inputs": [
        {
          "internalType": "uint256",
          "name": "tokenId",
          "type": "uint256"
        },
        {
          "internalType": "uint256",
          "name": "salePrice",
          "type": "uint256"
        }
      ],
      "name": "royaltyInfo",
      "outputs": [
        {
          "internalType": "address",
          "name": "receiver",
          "type": "address"
        },
        {
          "internalType": "uint256",
          "name": "royaltyAmount",
          "type": "uint256"
        }
      ],
      "stateMutability": "view",
      "type": "function"
    },
    {
      "inputs": [
        {
          "internalType": "address",
          "name": "from",
          "type": "address"
        },
        {
          "internalType": "address",
          "name": "to",
          "type": "address"
        },
        {
          "internalType": "uint256[]",
          "name": "ids",
          "type": "uint256[]"
        },
        {
          "internalType": "uint256[]",
          "name": "amounts",
          "type": "uint256[]"
        },
        {
          "internalType": "bytes",
          "name": "data",
          "type": "bytes"
        }
      ],
      "name": "safeBatchTransferFrom",
      "outputs": [],
      "stateMutability": "nonpayable",
      "type": "function"
    },
    {
      "inputs": [
        {
          "internalType": "address",
          "name": "from",
          "type": "address"
        },
        {
          "internalType": "address",
          "name": "to",
          "type": "address"
        },
        {
          "internalType": "uint256",
          "name": "id",
          "type": "uint256"
        },
        {
          "internalType": "uint256",
          "name": "amount",
          "type": "uint256"
        },
        {
          "internalType": "bytes",
          "name": "data",
          "type": "bytes"
        }
      ],
      "name": "safeTransferFrom",
      "outputs": [],
      "stateMutability": "nonpayable",
      "type": "function"
    },
    {
      "inputs": [
        {
          "internalType": "address",
          "name": "operator",
          "type": "address"
        },
        {
          "internalType": "bool",
          "name": "approved",
          "type": "bool"
        }
      ],
      "name": "setApprovalForAll",
      "outputs": [],
      "stateMutability": "nonpayable",
      "type": "function"
    },
    {
      "inputs": [
        {
          "internalType": "string",
          "name": "_uri",
          "type": "string"
        }
      ],
      "name": "setContractURI",
      "outputs": [],
      "stateMutability": "nonpayable",
      "type": "function"
    },
    {
      "inputs": [
        {
          "internalType": "address",
          "name": "_royaltyRecipient",
          "type": "address"
        },
        {
          "internalType": "uint256",
          "name": "_royaltyBps",
          "type": "uint256"
        }
      ],
      "name": "setDefaultRoyaltyInfo",
      "outputs": [],
      "stateMutability": "nonpayable",
      "type": "function"
    },
    {
      "inputs": [
        {
          "internalType": "bool",
          "name": "_restriction",
          "type": "bool"
        }
      ],
      "name": "setOperatorRestriction",
      "outputs": [],
      "stateMutability": "nonpayable",
      "type": "function"
    },
    {
      "inputs": [
        {
          "internalType": "address",
          "name": "_newOwner",
          "type": "address"
        }
      ],
      "name": "setOwner",
      "outputs": [],
      "stateMutability": "nonpayable",
      "type": "function"
    },
    {
      "inputs": [
        {
          "internalType": "uint256",
          "name": "_tokenId",
          "type": "uint256"
        },
        {
          "internalType": "address",
          "name": "_recipient",
          "type": "address"
        },
        {
          "internalType": "uint256",
          "name": "_bps",
          "type": "uint256"
        }
      ],
      "name": "setRoyaltyInfoForToken",
      "outputs": [],
      "stateMutability": "nonpayable",
      "type": "function"
    },
    {
      "inputs": [
        {
          "internalType": "uint256",
          "name": "",
          "type": "uint256"
        }
      ],
      "name": "skills",
      "outputs": [
        {
          "internalType": "uint256",
          "name": "skillId",
          "type": "uint256"
        },
        {
          "internalType": "string",
          "name": "name",
          "type": "string"
        },
        {
          "internalType": "uint256",
          "name": "damage",
          "type": "uint256"
        },
        {
          "internalType": "uint256",
          "name": "manaCost",
          "type": "uint256"
        }
      ],
      "stateMutability": "view",
      "type": "function"
    },
    {
      "inputs": [
        {
          "internalType": "uint256",
          "name": "",
          "type": "uint256"
        }
      ],
      "name": "statusEffects",
      "outputs": [
        {
          "internalType": "uint256",
          "name": "effectId",
          "type": "uint256"
        },
        {
          "internalType": "string",
          "name": "name",
          "type": "string"
        },
        {
          "internalType": "uint256",
          "name": "duration",
          "type": "uint256"
        },
        {
          "internalType": "bool",
          "name": "isPositive",
          "type": "bool"
        },
        {
          "internalType": "uint256",
          "name": "damageOverTime",
          "type": "uint256"
        },
        {
          "internalType": "uint256",
          "name": "stunDuration",
          "type": "uint256"
        },
        {
          "internalType": "uint256",
          "name": "defenseBoost",
          "type": "uint256"
        },
        {
          "internalType": "uint256",
          "name": "healAmount",
          "type": "uint256"
        }
      ],
      "stateMutability": "view",
      "type": "function"
    },
    {
      "inputs": [
        {
          "internalType": "bytes4",
          "name": "interfaceId",
          "type": "bytes4"
        }
      ],
      "name": "supportsInterface",
      "outputs": [
        {
          "internalType": "bool",
          "name": "",
          "type": "bool"
        }
      ],
      "stateMutability": "view",
      "type": "function"
    },
    {
      "inputs": [],
      "name": "symbol",
      "outputs": [
        {
          "internalType": "string",
          "name": "",
          "type": "string"
        }
      ],
      "stateMutability": "view",
      "type": "function"
    },
    {
      "inputs": [
        {
          "internalType": "uint256",
          "name": "",
          "type": "uint256"
        }
      ],
      "name": "totalSupply",
      "outputs": [
        {
          "internalType": "uint256",
          "name": "",
          "type": "uint256"
        }
      ],
      "stateMutability": "view",
      "type": "function"
    },
    {
      "inputs": [
        {
          "internalType": "uint256",
          "name": "_skillId",
          "type": "uint256"
        },
        {
          "internalType": "string",
          "name": "_name",
          "type": "string"
        },
        {
          "internalType": "uint256",
          "name": "_damage",
          "type": "uint256"
        },
        {
          "internalType": "uint256",
          "name": "_manaCost",
          "type": "uint256"
        },
        {
          "internalType": "uint256[]",
          "name": "_statusEffects",
          "type": "uint256[]"
        }
      ],
      "name": "updateSkill",
      "outputs": [],
      "stateMutability": "nonpayable",
      "type": "function"
    },
    {
      "inputs": [
        {
          "internalType": "uint256",
          "name": "_tokenId",
          "type": "uint256"
        }
      ],
      "name": "uri",
      "outputs": [
        {
          "internalType": "string",
          "name": "",
          "type": "string"
        }
      ],
      "stateMutability": "view",
      "type": "function"
    }
  ],
  "bytecode": "0x60806040818152346200044f576000916200001a8162000454565b600c81526020906b426174746c65536b696c6c7360a01b82820152825193620000438562000454565b6002855261425360f01b8386015281516001600160401b0395908681116200043b578254906001948583811c9316801562000430575b878410146200033a578190601f93848111620003dd575b508790848311600114620003795786926200036d575b5050600019600383901b1c191690851b1783555b815191878311620003595784548581811c911680156200034e575b878210146200033a5790818385949311620002e5575b50869183116001146200028157849262000275575b5050600019600383901b1c191690831b1782555b6daaeb6d7670e522a718067333cd4e94853b620001dd575b5060068054336001600160a01b031982168117909255855195965060008051602062004700833981519152957f90d7ec04bcb8978719414f82e52e4cb651db41d0e6f8cea6118c2191e6183adb9286926001600160a01b03167f8292fce18fa69edf4db7b94ea2e58241df0ae57f97e0a6c9b29067028bf92d768684a3600780546001600160b01b0319169055838152a28060ff19600b541617600b558351908152a1516142799081620004878239f35b8582963b15620002715782906044875180958193633e9f1edf60e11b8352306004840152733cc6cdda760b79bafa08df41ecfa224f810dceb660248401525af18015620002675762000233575b8591506200012c565b81116200025357835260008051602062004700833981519152386200022a565b634e487b7160e01b85526041600452602485fd5b85513d88823e3d90fd5b8280fd5b01519050388062000100565b8585528685208694509190601f198416865b89828210620002ce5750508411620002b4575b505050811b01825562000114565b015160001960f88460031b161c19169055388080620002a6565b838501518655899790950194938401930162000293565b909192508585528685208380860160051c82019289871062000330575b91869589929594930160051c01915b82811062000321575050620000eb565b87815586955088910162000311565b9250819262000302565b634e487b7160e01b85526022600452602485fd5b90607f1690620000d5565b634e487b7160e01b84526041600452602484fd5b015190503880620000a6565b8680528887208894509190601f198416885b8b828210620003c65750508411620003ac575b505050811b018355620000ba565b015160001960f88460031b161c191690553880806200039e565b8385015186558b979095019493840193016200038b565b9091508580528786208480850160051c8201928a861062000426575b918991869594930160051c01915b8281106200041757505062000090565b88815585945089910162000407565b92508192620003f9565b92607f169262000079565b634e487b7160e01b83526041600452602483fd5b600080fd5b604081019081106001600160401b038211176200047057604052565b634e487b7160e01b600052604160045260246000fdfe60806040526004361015610013575b600080fd5b60003560e01c8062fdd58e1461035a57806301ffc9a71461035157806306fdde03146103485780630e89341c1461033f5780631187bd511461033657806313af40351461032d5780632419f51b146103245780632a55205a1461031b5780632eb2c2d61461031257806332f0cd64146103095780633b1475a71461030057806341f43434146102f75780634cc157df146102ee5780634e1273f4146102e55780634e41cd81146102dc578063504c6e01146102d357806350d15fbe146102ca578063600dd5ea146102c157806363b45e2d146102b85780636b20c454146102af5780636febc04d146102a65780637bdaa4ef1461029d5780637cc2a91d146102945780638da5cb5b1461028b578063938e3d7b14610282578063949c09f71461027957806395d89b41146102705780639bcf7a1514610267578063a22cb4651461025e578063ac9650d814610255578063b03f45281461024c578063b24f2d3914610243578063bd85b0391461023a578063bd880fae14610231578063bfa0fedb14610228578063c7cd32c61461021f578063d8d2558314610216578063e8a3d4851461020d578063e985e9c514610204578063ec7ae9c0146101fb578063f242432a146101f25763f5298aca146101ea57600080fd5b61000e612656565b5061000e612442565b5061000e61227e565b5061000e612220565b5061000e61218a565b5061000e612086565b5061000e612022565b5061000e611e81565b5061000e611de5565b5061000e611d65565b5061000e611d2e565b5061000e611b96565b5061000e611b30565b5061000e6119e3565b5061000e611912565b5061000e61186c565b5061000e611728565b5061000e6115aa565b5061000e611580565b5061000e611505565b5061000e6114e6565b5061000e6114c7565b5061000e6113af565b5061000e611390565b5061000e6112c6565b5061000e611260565b5061000e61123c565b5061000e611091565b5061000e610fd7565b5061000e610f54565b5061000e610f2a565b5061000e610f0b565b5061000e610e44565b5061000e610c41565b5061000e610ad2565b5061000e610a4b565b5061000e61099a565b5061000e6108c8565b5061000e61082e565b5061000e61074a565b5061000e6103fe565b5061000e6103a3565b600435906001600160a01b038216820361000e57565b602435906001600160a01b038216820361000e57565b35906001600160a01b038216820361000e57565b503461000e57604036600319011261000e576001600160a01b036103c5610363565b16600052600260205260406000206024356000526020526020604060002054604051908152f35b6001600160e01b031981160361000e57565b503461000e57602036600319011261000e57602060043561041e816103ec565b63ffffffff60e01b166301ffc9a760e01b8114908115610474575b8115610463575b8115610452575b506040519015158152f35b63152a902d60e11b14905038610447565b6303a24d0760e21b81149150610440565b636cdb3d1360e11b81149150610439565b90600182811c921680156104b5575b602083101461049f57565b634e487b7160e01b600052602260045260246000fd5b91607f1691610494565b50634e487b7160e01b600052604160045260246000fd5b61010081019081106001600160401b038211176104f257604052565b6104fa6104bf565b604052565b604081019081106001600160401b038211176104f257604052565b60a081019081106001600160401b038211176104f257604052565b606081019081106001600160401b038211176104f257604052565b602081019081106001600160401b038211176104f257604052565b90601f801991011681019081106001600160401b038211176104f257604052565b60405190600082600554916105a083610485565b8083529260019081811690811561061657506001146105c9575b506105c79250038361056b565b565b6005600090815291506000805160206142248339815191525b8483106105fb57506105c79350508101602001386105ba565b81935090816020925483858a010152019101909185926105e2565b9050602092506105c794915060ff191682840152151560051b820101386105ba565b906040519182600082549261064c84610485565b9081845260019485811690816000146106b95750600114610676575b50506105c79250038361056b565b9093915060005260209081600020936000915b8183106106a15750506105c793508201013880610668565b85548884018501529485019487945091830191610689565b9150506105c794506020925060ff191682840152151560051b8201013880610668565b918091926000905b8282106106fc5750116106f5575050565b6000910152565b915080602091830151818601520182916106e4565b9060209161072a815180928185528580860191016106dc565b601f01601f1916010190565b906020610747928181520190610711565b90565b503461000e5760008060031936011261082b576040519080805461076d81610485565b8085529160019180831690811561080157506001146107a7575b6107a3856107978187038261056b565b60405191829182610736565b0390f35b80809450527f290decd9548b62a8d60345a988386fc84ba6bc95484008f6362f93160ef3e5635b8284106107e9575050508101602001610797826107a3610787565b805460208587018101919091529093019281016107ce565b8695506107a39693506020925061079794915060ff191682840152151560051b8201019293610787565b80fd5b503461000e57602036600319011261000e576107a361084e6004356127cd565b604051918291602083526020830190610711565b6020815281516020820152602082015160e061088c61010092836040860152610120850190610711565b9360408101516060850152606081015115156080850152608081015160a085015260a081015160c085015260c081015182850152015191015290565b503461000e57602036600319011261000e576107a3604060e081516108ec816104d6565b60009181838093526060602082015282858201528260608201528260808201528260a08201528260c082015201526004358152600f60205220600761092f610b34565b918054835261094060018201610638565b602084015260028101546040840152610969610960600383015460ff1690565b15156060850152565b60048101546080840152600581015460a0840152600681015460c0840152015460e082015260405191829182610862565b503461000e57602036600319011261000e576109b4610363565b6006546001600160a01b03808216919033839003610a11576000931680916bffffffffffffffffffffffff60a01b1617600655604051917f8292fce18fa69edf4db7b94ea2e58241df0ae57f97e0a6c9b29067028bf92d768484a3f35b60405162461bcd60e51b815260206004820152600e60248201526d139bdd08185d5d1a1bdc9a5e995960921b6044820152606490fd5b0390fd5b503461000e57602036600319011261000e57600435600954811015610a9d5760209060096000527f6e1540171b6c0c960b71a7020d9f60077f6af931a8bbf590da0223dacf75c7af0154604051908152f35b60405162461bcd60e51b815260206004820152600d60248201526c092dcecc2d8d2c840d2dcc8caf609b1b6044820152606490fd5b503461000e57604036600319011261000e57604061ffff612710602435610afa600435613ea9565b90931690801515600019829004831116610b27575b84516001600160a01b03909416845202046020820152f35b610b2f6128c5565b610b0f565b604051906105c7826104d6565b6020906001600160401b038111610b5a575b60051b0190565b610b626104bf565b610b53565b81601f8201121561000e57803591610b7e83610b41565b92610b8c604051948561056b565b808452602092838086019260051b82010192831161000e578301905b828210610bb6575050505090565b81358152908301908301610ba8565b6020906001600160401b038111610be2575b601f01601f19160190565b610bea6104bf565b610bd7565b929192610bfb82610bc5565b91610c09604051938461056b565b82948184528183011161000e578281602093846000960137010152565b9080601f8301121561000e5781602061074793359101610bef565b503461000e5760a036600319011261000e57610c5b610363565b610c63610379565b6001600160401b039160443583811161000e57610c84903690600401610b67565b9260643581811161000e57610c9d903690600401610b67565b9060843590811161000e57610cb6903690600401610c26565b6001600160a01b0383811694919033861480159081610e2c575b90610e09575b610cdf90612cdf565b610cec8751855114612bea565b8216610cf9811515612d20565b610d0584888588612db1565b60005b8751811015610dc35780610d1f610dbe928a612afe565b51610db7610daf610d30848a612afe565b51928a610d9182610d5b87610d6a83610d5b8760018060a01b03166000526002602052604060002090565b90600052602052604060002090565b54610d7782821015612d5b565b039360018060a01b03166000526002602052604060002090565b556001600160a01b0389166000908152600260205260409020610d5b565b918254612915565b9055612c28565b610d08565b50610e0796939491956040517f4a39dc06d4c0dbc64b70af90fd698a233a518aa5d07e595d983b8c0526c8f7fb339180610dfe8a8a83612e41565b0390a43361398a565b005b50600086815260036020908152604080832033845290915290205460ff16610cd6565b610e3533613ddd565b610cd0565b8015150361000e57565b503461000e57602036600319011261000e57600435610e6281610e3a565b6006546001600160a01b03163303610eb25760207f38475885990d8dfe9ca01f0ef160a1b5514426eab9ddbc953a3353410ba7809691151560ff19600b541660ff821617600b55604051908152a1005b60405162461bcd60e51b815260206004820152602b60248201527f4e6f7420617574686f72697a656420746f20736574206f70657261746f72207260448201526a32b9ba3934b1ba34b7b71760a91b6064820152608490fd5b503461000e57600036600319011261000e576020600c54604051908152f35b503461000e57600036600319011261000e5760206040516daaeb6d7670e522a718067333cd4e8152f35b503461000e57602036600319011261000e57610f71600435613ea9565b604080516001600160a01b0393909316835261ffff91909116602083015290f35b90815180825260208080930193019160005b828110610fb2575050505090565b835185529381019392810192600101610fa4565b906020610747928181520190610f92565b503461000e57604036600319011261000e576004356001600160401b0380821161000e573660238301121561000e57816004013561101481610b41565b92611022604051948561056b565b81845260209160248386019160051b8301019136831161000e57602401905b82821061107a578560243586811161000e576107a39161106861106e923690600401610b67565b90612c38565b60405191829182610fc6565b8380916110868461038f565b815201910190611041565b503461000e5760a036600319011261000e576001600160401b0360043560243582811161000e576110c6903690600401610c26565b9060843583811161000e576110df903690600401610b67565b906110ee6010548211156141c0565b600093818552602090600e8252600180604088200192865192831161122f575b6111228361111c8654610485565b86612ecc565b80601f84116001146111b4575091808061119e9593600497956111a49a8c946111a9575b50501b916000199060031b1c19161790555b604435600261117183600052600e602052604060002090565b0155606435600361118c83600052600e602052604060002090565b0155600052600e602052604060002090565b01614144565b604051f35b015192503880611146565b9193949596601f1984166111cd87600052602060002090565b938a905b8282106112185750509261119e959285926111a49a999660049996106111ff575b505050811b019055611158565b015160001960f88460031b161c191690553880806111f2565b8088869782949787015181550196019401906111d1565b6112376104bf565b61110e565b503461000e57600036600319011261000e57602060ff600b54166040519015158152f35b503461000e57602036600319011261000e57600435600052600e6020526040600020805461129060018301610638565b91600360028201549101546112b76040519485948552608060208601526080850190610711565b91604084015260608301520390f35b503461000e57604036600319011261000e576112e0610363565b600654602435916001600160a01b039182163303610a1157612710831161135957600780546001600160b01b0319169190921690811760a084901b61ffff60a01b1617909155604051918252907f90d7ec04bcb8978719414f82e52e4cb651db41d0e6f8cea6118c2191e6183adb9080602081010390a2005b60405162461bcd60e51b815260206004820152600f60248201526e45786365656473206d61782062707360881b6044820152606490fd5b503461000e57600036600319011261000e576020600954604051908152f35b503461000e57606036600319011261000e576113c9610363565b6001600160401b0360243581811161000e576113e9903690600401610b67565b9060443590811161000e57611402903690600401610b67565b906001600160a01b03831633811480156114a0575b6114219150612b20565b61142e8151835114612bac565b60005b8151811015611496576114919061148c6114796114608760018060a01b03166000526002602052604060002090565b61146a8487612afe565b51600052602052604060002090565b546114848387612afe565b511115612b60565b6128dc565b611431565b50610e0792613336565b5060009081526003602090815260408083203384529091529020546114219060ff16611417565b503461000e57600036600319011261000e576020601054604051908152f35b503461000e57600036600319011261000e576020601154604051908152f35b503461000e57602036600319011261000e57604051602081019042825260043560408201526040815261153781610535565b519020601054801561156a5760019106600119811161155d575b60405191018152602090f35b6115656128c5565b611551565b634e487b7160e01b600052601260045260246000fd5b503461000e57600036600319011261000e576006546040516001600160a01b039091168152602090f35b503461000e5760208060031936011261000e576001600160401b039060043582811161000e576115de903690600401610c26565b6006549091906001600160a01b03163303610a11576115fb61058c565b90825193841161171b575b61161a84611615600554610485565b612e7d565b80601f8511600114611687575092807fc9c7c3fe08b88b4df9d4d47ef47d2c43d55c025a0ba88ca442580ed9e7348a169460009161167c575b508160011b916000199060031b1c1916176005555b61167760405192839283613ce1565b0390a1005b905083015138611653565b600560005290601f198516600080516020614224833981519152926000905b8282106117035750509185917fc9c7c3fe08b88b4df9d4d47ef47d2c43d55c025a0ba88ca442580ed9e7348a1696600194106116ea575b5050811b01600555611668565b85015160001960f88460031b161c1916905538806116dd565b80600185968294968a015181550195019301906116a6565b6117236104bf565b611606565b503461000e57608036600319011261000e57611742610363565b6001600160401b0360243581811161000e57611762903690600401610b67565b60443582811161000e5761177a903690600401610b67565b9160643590811161000e579061179584923690600401610c26565b916117ab60018060a01b03600654163314612840565b6117b784511515612a65565b6117c48251855114612aa8565b600c54600094859291805b8551851015611834576000196117e58688612afe565b51036118195761180c6118068261181293611800898b612afe565b526128dc565b986128dc565b946128dc565b93966117cf565b96938061148c8961182d611812948a612afe565b511061288c565b9194935061184f9295610e07978061185d575b505050600c55565b611857612921565b926131c2565b61186692613bbd565b88611847565b503461000e5760008060031936011261082b576040519080600180549161189283610485565b8086529282811690811561080157506001146118b8576107a3856107978187038261056b565b92508083527fb10e2d527612073b26eecdfd717e6a320cf44b4afac2b0732d9fcbe2b7fa0cf65b8284106118fa575050508101602001610797826107a3610787565b805460208587018101919091529093019281016118df565b503461000e57606036600319011261000e5760043561192f610379565b6006546001600160a01b0392916044359184163303610a11576127108211611359577f7365cf4122f072a3365c20d54eff9b38d73c096c28e1892ec8f5b0e403a0f12d916119de9160018660405192611987846104ff565b16968783526119ca60208401918583528860005260086020526040600020945116849060018060a01b03166bffffffffffffffffffffffff60a01b825416179055565b519101556040519081529081906020820190565b0390a3005b503461000e57604036600319011261000e576119fd610363565b602435611a0981610e3a565b611a1282613ddd565b6001600160a01b03821691338314611a985781611a51611a629233600052600360205260406000209060018060a01b0316600052602052604060002090565b9060ff801983541691151516179055565b604051901515815233907f17307eab39ab6107e8899845ad3d59bd9653f200f220920489ca2b5937696c319080602081016119de565b60405162461bcd60e51b815260206004820152600e60248201526d20a8282927ab24a723afa9a2a62360911b6044820152606490fd5b602080820190808352835180925260408301928160408460051b8301019501936000915b848310611b025750505050505090565b9091929394958480611b20600193603f198682030187528a51610711565b9801930193019194939290611af2565b503461000e57602036600319011261000e576001600160401b0360043581811161000e573660238201121561000e57806004013591821161000e573660248360051b8301011161000e576107a3916024611b8a9201613d06565b60405191829182611ace565b503461000e57608036600319011261000e57611bb0610363565b602435604435916001600160401b039283811161000e57611bd5903690600401610c26565b92611beb60018060a01b03600654163314612840565b600c549060001993848114600014611d13575081936001198311611d06575b600192838101600c55600052602092600484526040600020938751938411611cf9575b611c4184611c3b8754610485565b87612ecc565b80601f8511600114611c8a57508392918391610e0799600095611c7f575b50501b9260031b1c19161790555b611c75612921565b91606435916130ad565b015193503880611c5f565b91939290601f19841698611ca387600052602060002090565b936000905b8b8210611ce257505084610e079a10611cca575b50505050811b019055611c6d565b01519060f88460031b161c1916905538808080611cbc565b808885978294968601518155019601930190611ca8565b611d016104bf565b611c2d565b611d0e6128c5565b611c0a565b610e07955080939450611d289291501061288c565b90611c6d565b503461000e57600036600319011261000e57600754604080516001600160a01b038316815260a09290921c61ffff16602083015290f35b503461000e57602036600319011261000e57600435600052600d6020526020604060002054604051908152f35b906107479160208152815160208201526080611dbd602084015160a0604085015260c0840190610711565b926040810151606084015260608101518284015201519060a0601f1982850301910152610f92565b503461000e57602036600319011261000e576107a36040606060808251611e0b8161051a565b600081528260208201526000848201526000838201520152600435600052600e6020528060002090611e726004825193611e448561051a565b80548552611e5460018201610638565b60208601526002810154848601526003810154606086015201613acd565b60808301525191829182611d92565b503461000e57604036600319011261000e57600435611e9e610379565b90611ead6010548211156141c0565b60405191611eba83610550565b600083526001600160a01b03811692831592611ed68415612d20565b611edf816139f6565b92611ee86139c4565b9560005b8551811015611f2a5780611f03611f25928a612afe565b51610db7610daf611f14848b612afe565b51600052600d602052604060002090565b611eec565b50869486611f93575b506001600160a01b0382166000908152600260205260409020610e079550611f5c908490610d5b565b611f6681546128dc565b9055604080518481526001602082015260009133916000805160206142048339815191529190a4336135f3565b9290939160005b8451811015611fcf5780611fb1611fca9289612afe565b51610db7611fc2611f14848a612afe565b918254612d9a565b611f9a565b509193909250610e07945085611f33565b94916120029060e097949a999895928752610100806020890152870190610711565b98604086015215156060850152608084015260a083015260c08201520152565b503461000e57602036600319011261000e57600435600052600f602052604060002080546107a361205560018401610638565b9260028101549060ff6003820154166004820154600583015491600760068501549401549460405198899889611fe0565b503461000e5760e036600319011261000e576004356001600160401b03811161000e576120b7903690600401610c26565b6007604435916120c683610e3a565b60115490604051936120d7856104d6565b828552602085019182526040850190602435825260608601901515815261216161214c6080880192606435845260a0890194608435865261214060c08b019760a435895260e08c019960c4358b52600052600f60205260406000209b518c555160018c01612f06565b5160028a015551151590565b600388019060ff801983541691151516179055565b51600486015551600585015551600684015551910155610e07612185601154612c28565b601155565b503461000e5760008060031936011261082b5760405190806005546121ae81610485565b8085529160019180831690811561080157506001146121d7576107a3856107978187038261056b565b9250600583526000805160206142248339815191525b828410612208575050508101602001610797826107a3610787565b805460208587018101919091529093019281016121ed565b503461000e57604036600319011261000e57602060ff612272612241610363565b612249610379565b6001600160a01b0391821660009081526003865260408082209290931681526020919091522090565b54166040519015158152f35b503461000e5760a036600319011261000e576001600160401b0360043581811161000e576122b0903690600401610c26565b9060643581811161000e576122c9903690600401610b67565b60843582811161000e576122e46122ea913690600401610c26565b33612934565b60105492604051926122fb8461051a565b8484526020918285019081526040850191602435835260608601936044358552608087019586526000978852600e8152604088209651875560019081880193518051938411612435575b61235384611c3b8754610485565b81601f85116001146123bb575092806004979593819361239d9b9a98968d946123b0575b50501b916000199060031b1c19161790555b516002850155516003840155519101614144565b6111a46123ab601054612c28565b601055565b015192503880612377565b9190601f9493941984166123d487600052602060002090565b938c905b82821061241e5750509161239d9a99979593918560049a98969410612405575b505050811b019055612389565b015160001960f88460031b161c191690553880806123f8565b8088869782949787015181550196019401906123d8565b61243d6104bf565b612345565b503461000e5760a036600319011261000e5761245c610363565b612464610379565b6064356044356084356001600160401b03811161000e57612489903690600401610c26565b6001600160a01b03858116959194919033871480159081612648575b90612625575b6124b490612cdf565b82168015966124c38815612d20565b6124cc856139f6565b6124d5876139f6565b9882156125da575b61258f575b50610e0797508561250986610d5b8660018060a01b03166000526002602052604060002090565b5461251682821015612d5b565b0361253786610d5b8660018060a01b03166000526002602052604060002090565b556001600160a01b038416600090815260026020526040902061255b908690610d5b565b612566878254612915565b90556040805186815260208101889052339160008051602061420483398151915291a4336137fe565b959391600097959391975b87518110156125c757806125b16125c2928c612afe565b51610db7611fc2611f14848d612afe565b61259a565b5091939550919395610e079750386124e2565b97959391600097959391975b8a8951821015612615579089610db7610daf611f14846126098161261098612afe565b5194612afe565b6125e6565b50509193959796909294966124dd565b50600087815260036020908152604080832033845290915290205460ff166124ab565b61265133613ddd565b6124a5565b503461000e57606036600319011261000e57612670610363565b602435906044356001600160a01b03821633811480156127aa575b61269490612b20565b6000908082526002602052604082208583526020526126b98360408420541015612b60565b8015946126c686156132f9565b6126cf816139f6565b936126d9816139f6565b96846040516126e781610550565b5261277e575b835b855181101561271c5780612706612717928a612afe565b51610db7611fc2611f14848b612afe565b6126ef565b50839450612776600080516020614204833981519152918761275c85610d5b84610d6a83610d5b8760018060a01b03166000526002602052604060002090565b556040805194855260208501919091523393918291820190565b0390a4604051f35b94929190825b85518110156127a05780611f0361279b928a612afe565b612784565b50909192946126ed565b50600081815260036020908152604080832033845290915290205460ff1661268b565b806000526020600481526127e46040600020610638565b805161283a5750610747906128016127fb84613b1c565b9361406b565b92604051938161281a86935180928680870191016106dc565b820161282e825180938680850191016106dc565b0103808452018261056b565b91505090565b1561284757565b60405162461bcd60e51b815260206004820152601760248201527f4e6f7420617574686f72697a656420746f206d696e742e0000000000000000006044820152606490fd5b1561289357565b60405162461bcd60e51b815260206004820152600a6024820152691a5b9d985b1a59081a5960b21b6044820152606490fd5b50634e487b7160e01b600052601160045260246000fd5b60019060011981116128ec570190565b6128f46128c5565b0190565b8019603011612908575b60300190565b6129106128c5565b612902565b811981116128ec570190565b6040519061292e82610550565b60008252565b91909161294c60018060a01b03600654163314612840565b600c546001198111612a58575b6001808201600c5581600052602090600482526040600020918651966001600160401b038811612a4b575b6129928861111c8654610485565b81601f89116001146129dc575096809281926105c798996000946129d1575b50501b916000199060031b1c19161790555b6129cb612921565b91612fe2565b0151925038806129b1565b909791601f198316986129f486600052602060002090565b926000905b8b8210612a34575050836105c7999a10612a1b575b505050811b0190556129c3565b015160001960f88460031b161c19169055388080612a0e565b8087859682949686015181550195019301906129f9565b612a536104bf565b612984565b612a606128c5565b612959565b15612a6c57565b60405162461bcd60e51b815260206004820152601460248201527326b4b73a34b733903d32b937903a37b5b2b7399760611b6044820152606490fd5b15612aaf57565b60405162461bcd60e51b815260206004820152601060248201526f2632b733ba341036b4b9b6b0ba31b41760811b6044820152606490fd5b50634e487b7160e01b600052603260045260246000fd5b6020918151811015612b13575b60051b010190565b612b1b612ae7565b612b0b565b15612b2757565b60405162461bcd60e51b81526020600482015260116024820152702ab730b8383937bb32b21031b0b63632b960791b6044820152606490fd5b15612b6757565b60405162461bcd60e51b815260206004820152601760248201527f4e6f7420656e6f75676820746f6b656e73206f776e65640000000000000000006044820152606490fd5b15612bb357565b60405162461bcd60e51b815260206004820152600f60248201526e098cadccee8d040dad2e6dac2e8c6d608b1b6044820152606490fd5b15612bf157565b60405162461bcd60e51b815260206004820152600f60248201526e0988a9c8ea890be9a92a69a82a8869608b1b6044820152606490fd5b60019060001981146128ec570190565b919091612c488151845114612bea565b805192612c5484610b41565b91604094612c648651948561056b565b808452612c73601f1991610b41565b0190602091368386013760005b8151811015612cd657612cd1906001600160a01b03612c9f8285612afe565b51166000526002845287600020612cb68287612afe565b5160005284528760002054612ccb8288612afe565b52612c28565b612c80565b50929450505050565b15612ce657565b60405162461bcd60e51b81526020600482015260126024820152710853d5d3915497d3d497d054141493d5915160721b6044820152606490fd5b15612d2757565b60405162461bcd60e51b815260206004820152600c60248201526b2a27afad22a927afa0a2222960a11b6044820152606490fd5b15612d6257565b60405162461bcd60e51b815260206004820152601060248201526f125394d551919250d251539517d0905360821b6044820152606490fd5b818110612da5570390565b612dad6128c5565b0390565b9293926001600160a01b039190821615612e07575b1615612dd157509050565b60005b8151811015612e015780612deb612dfc9286612afe565b51610db7611fc2611f148487612afe565b612dd4565b50509050565b929060005b8351811015612e395780612e23612e349288612afe565b51610db7610daf611f148489612afe565b612e0c565b509092612dc6565b9091612e5861074793604084526040840190610f92565b916020818403910152610f92565b818110612e71575050565b60008155600101612e66565b90601f8211612e8a575050565b6105c7916005600052600080516020614224833981519152906020601f840160051c83019310612ec2575b601f0160051c0190612e66565b9091508190612eb5565b9190601f8111612edb57505050565b6105c7926000526020600020906020601f840160051c83019310612ec257601f0160051c0190612e66565b91909182516001600160401b038111612fd5575b612f2e81612f288454610485565b84612ecc565b602080601f8311600114612f6a575081929394600092612f5f575b50508160011b916000199060031b1c1916179055565b015190503880612f49565b90601f19831695612f8085600052602060002090565b926000905b888210612fbd57505083600195969710612fa4575b505050811b019055565b015160001960f88460031b161c19169055388080612f9a565b80600185968294968601518155019501930190612f85565b612fdd6104bf565b612f1a565b6001600160a01b038116938415939192909190612fff8515612d20565b613008816139f6565b936130116139c4565b9660005b8651811015613042578061302c61303d928b612afe565b51610db7610daf611f14848c612afe565b613015565b5091939594909294613076575b506105c7949550611f5c83610d5b8460018060a01b03166000526002602052604060002090565b93916000959391955b855181101561309b5780612706613096928a612afe565b61307f565b509193509194506105c793859461304f565b6001600160a01b03811694851594919390926130c98615612d20565b6130d2816139f6565b946130dc836139f6565b9760005b875181101561310d57806130f7613108928c612afe565b51610db7610daf611f14848d612afe565b6130e0565b5091939590929496613179575b506105c795965061314183610d5b8460018060a01b03166000526002602052604060002090565b61314c858254612915565b9055604080518481526020810186905260009133916000805160206142048339815191529190a43361372a565b94929095939160005b86518110156131af57806131996131aa928b612afe565b51610db7611fc2611f14848c612afe565b613182565b50919396509193506105c794869561311a565b6001600160a01b038116948515949293926131dd8615612d20565b6131ea8551855114612bea565b60005b85518110156132095780611f036132049287612afe565b6131ed565b509091946132a2575b60005b845181101561325c578061322c6132579286612afe565b516001600160a01b0388166000908152600260205260409020610db790610daf9061146a858b612afe565b613215565b50929094936105c79460006040517f4a39dc06d4c0dbc64b70af90fd698a233a518aa5d07e595d983b8c0526c8f7fb339180613299898983612e41565b0390a433613953565b939060005b84518110156132f157806132be6132df9286612afe565b516132cc611f148389612afe565b9081548181106132e4575b039055612c28565b6132a7565b6132ec6128c5565b6132d7565b509093613212565b1561330057565b60405162461bcd60e51b815260206004820152600e60248201526d232927a6afad22a927afa0a2222960911b6044820152606490fd5b9192916001600160a01b03811690811561335081156132f9565b61335d8451875114612bea565b613365612921565b5061345d575b60005b835181101561339857806133856133939288612afe565b516132cc611f148388612afe565b61336e565b5091909260005b825181101561341e57806133b66134199285612afe565b516134136133c4838a612afe565b516001600160a01b03881660009081526002602052604090206133e8908490610d5b565b546133f582821015612d5b565b0391610d5b8860018060a01b03166000526002602052604060002090565b55612c28565b61339f565b509360009392506134587f4a39dc06d4c0dbc64b70af90fd698a233a518aa5d07e595d983b8c0526c8f7fb91604051918291339583612e41565b0390a4565b929060005b835181101561347e5780612e236134799288612afe565b613462565b50909261336b565b9081602091031261000e5751610747816103ec565b610747939260a092600180851b03168252600060208301526040820152600160608201528160808201520190610711565b909260a0926107479594600180861b0316835260006020840152604083015260608201528160808201520190610711565b919261074795949160a094600180871b038092168552166020840152604083015260608201528160808201520190610711565b506040513d6000823e3d90fd5b60609060208152600f60208201526e1513d2d15394d7d491529150d51151608a1b60408201520190565b60009060033d1161357457565b905060046000803e60005160e01c90565b600060443d1061074757604051600319913d83016004833e81516001600160401b03918282113d6024840111176135e2578184019485519384116135ea573d850101602084870101116135e257506107479291016020019061056b565b949350505050565b50949350505050565b92919091823b613604575b50505050565b61362b92602092600060405180968195829463f23a6e6160e01b9a8b85526004850161349b565b03926001600160a01b03165af1600091816136fa575b506136d25750506001613652613567565b6308c379a0146136a3575b61366b575b388080806135fe565b60405162461bcd60e51b815260206004820152601060248201526f10a2a92198989a9aa922a1a2a4ab22a960811b6044820152606490fd5b6136ab613585565b806136b6575061365d565b60405162461bcd60e51b8152908190610a479060048301610736565b6001600160e01b031916146136625760405162461bcd60e51b815280610a476004820161353d565b61371c91925060203d8111613723575b613714818361056b565b810190613486565b9038613641565b503d61370a565b9390803b61373a575b5050505050565b6137629360006020946040519687958694859363f23a6e6160e01b9b8c8652600486016134cc565b03926001600160a01b03165af1600091816137de575b506137b65750506001613789613567565b6308c379a0146137a3575b61366b575b3880808080613733565b6137ab613585565b806136b65750613794565b6001600160e01b031916146137995760405162461bcd60e51b815280610a476004820161353d565b6137f791925060203d811161372357613714818361056b565b9038613778565b9493919092813b613812575b505050505050565b60006020946138396040519788968795869463f23a6e6160e01b9c8d8752600487016134fd565b03926001600160a01b03165af1600091816138b6575b5061388e5750506001613860613567565b6308c379a01461387b575b61366b575b38808080808061380a565b613883613585565b806136b6575061386b565b6001600160e01b031916146138705760405162461bcd60e51b815280610a476004820161353d565b6138cf91925060203d811161372357613714818361056b565b903861384f565b9261390561074795936139139360018060a01b031686526000602087015260a0604087015260a0860190610f92565b908482036060860152610f92565b916080818403910152610711565b93906107479593613905916139139460018060a01b03809216885216602087015260a0604087015260a0860190610f92565b9390803b613962575050505050565b6137629360006020946040519687958694859363bc197c8160e01b9b8c8652600486016138d6565b9493919092813b61399d57505050505050565b60006020946138396040519788968795869463bc197c8160e01b9c8d875260048701613921565b6040516139d0816104ff565b6001815260016020820160203682378251156139ea575290565b6139f2612ae7565b5290565b60405190613a03826104ff565b600182526020820160203682378251156139ea575290565b600954811015613a53575b60096000527f6e1540171b6c0c960b71a7020d9f60077f6af931a8bbf590da0223dacf75c7af0190600090565b613a5b612ae7565b613a26565b60405190600954808352826020918282019060096000527f6e1540171b6c0c960b71a7020d9f60077f6af931a8bbf590da0223dacf75c7af936000905b828210613ab3575050506105c79250038361056b565b855484526001958601958895509381019390910190613a9d565b9060405191828154918282526020928383019160005283600020936000905b828210613b02575050506105c79250038361056b565b855484526001958601958895509381019390910190613aec565b60095490613b28613a60565b600091825b848110613b6b5760405162461bcd60e51b815260206004820152600f60248201526e125b9d985b1a59081d1bdad95b9259608a1b6044820152606490fd5b613b758184612afe565b518210613b9c576001906001198111613b8f575b01613b2d565b613b976128c5565b613b89565b6107479450613baf915060409392612afe565b518152600a60205220610638565b90613bca91939293612915565b908192600954600160401b811015613cd4575b613c0d84613bf2600193848101600955613a1b565b90919082549060031b600019811b9283911b16911916179055565b83600052602091600a83526040600020928151916001600160401b038311613cc7575b613c3e83611c3b8754610485565b81601f8411600114613c775750928293918392600094613c6c575b50501b916000199060031b1c1916179055565b015192503880613c59565b919083601f198116613c8e88600052602060002090565b946000905b88838310613cad5750505010612fa457505050811b019055565b858701518855909601959485019487935090810190613c93565b613ccf6104bf565b613c30565b613cdc6104bf565b613bdd565b9091613cf861074793604084526040840190610711565b916020818403910152610711565b90613d1081610b41565b91613d1e604051938461056b565b818352601f19613d2d83610b41565b0160005b818110613db757505060005b828110613d4a5750505090565b8060051b820135601e198336030181121561000e578201908135916001600160401b03831161000e57602001823603811361000e57613d91613d9791613db2943691610bef565b30613f22565b613da18287612afe565b52613dac8186612afe565b50612c28565b613d3d565b806060602080938801015201613d31565b9081602091031261000e575161074781610e3a565b600b5460ff16613dea5750565b6daaeb6d7670e522a718067333cd4e803b613e03575050565b604051633185c44d60e21b81523060048201526001600160a01b038316602482015290602090829060449082905afa908115613e9c575b600091613e6e575b5015613e4b5750565b604051633b79c77360e21b81526001600160a01b03919091166004820152602490fd5b613e8f915060203d8111613e95575b613e87818361056b565b810190613dc8565b38613e42565b503d613e7d565b613ea4613530565b613e3a565b6000526008602052604060002090602060405192604084018481106001600160401b03821117613f15575b60405280546001600160a01b039081168086526001909201549290940182905280613f0c57505061ffff6007549283169260a01c1690565b925061ffff1690565b613f1d6104bf565b613ed4565b9060405190613f3082610535565b602782527f416464726573733a206c6f772d6c6576656c2064656c65676174652063616c6c6020830152660819985a5b195960ca1b6040830152823b15613fb8576000816107479460208394519201905af43d15613fb0573d90613f9382610bc5565b91613fa1604051938461056b565b82523d6000602084013e61400c565b60609061400c565b60405162461bcd60e51b815260206004820152602660248201527f416464726573733a2064656c65676174652063616c6c20746f206e6f6e2d636f6044820152651b9d1c9858dd60d21b6064820152608490fd5b90919015614018575090565b8151156140285750805190602001fd5b60405162461bcd60e51b815260206004820152908190610a47906024830190610711565b90602091805182101561405e57010190565b614066612ae7565b010190565b801561412657806000908282935b614112575061408783610bc5565b92614095604051948561056b565b80845281601f196140a583610bc5565b013660208701375b6140b75750505090565b60018110614105575b6000190190600a90826140fc6140f36140e36140dd8686066128f8565b60ff1690565b60f81b6001600160f81b03191690565b861a918761404c565b530490816140ad565b61410d6128c5565b6140c0565b9261411e600a91612c28565b930480614079565b50604051614133816104ff565b60018152600360fc1b602082015290565b815191600160401b83116141b3575b8154838355808410614195575b50602080910191600052806000206000925b848410614180575050505050565b60018382829351855501920193019290614172565b6141ad90836000528460206000209182019101612e66565b38614160565b6141bb6104bf565b614153565b156141c757565b60405162461bcd60e51b815260206004820152601460248201527314dada5b1b08191bd95cc81b9bdd08195e1a5cdd60621b6044820152606490fdfec3d58168c5ae7397731d063d5bbf3d657854427343f4c083240f7aacaa2d0f62036b6384b5eca791c62761152d0c79bb0604c104a5fb6f4eb0703f3154bb3db0a2646970667358221220924209ffe45ef467ecf93309df567d381eb155aae7f4cd5f5adc24cd2964700664736f6c634300080f003338475885990d8dfe9ca01f0ef160a1b5514426eab9ddbc953a3353410ba78096",
  "linkReferences": {},
  "deployedLinkReferences": {}
}