{
  "_format": "hh-sol-artifact-1",
  "contractName": "BattleSkills",
  "sourceName": "contracts/BattleSkills.sol",
  "abi": [
    {
      "inputs": [],
      "stateMutability": "nonpayable",
      "type": "constructor"
    },
    {
      "inputs": [
        {
          "internalType": "address",
          "name": "operator",
          "type": "address"
        }
      ],
      "name": "OperatorNotAllowed",
      "type": "error"
    },
    {
      "anonymous": false,
      "inputs": [
        {
          "indexed": true,
          "internalType": "address",
          "name": "_owner",
          "type": "address"
        },
        {
          "indexed": true,
          "internalType": "address",
          "name": "_operator",
          "type": "address"
        },
        {
          "indexed": false,
          "internalType": "bool",
          "name": "_approved",
          "type": "bool"
        }
      ],
      "name": "ApprovalForAll",
      "type": "event"
    },
    {
      "anonymous": false,
      "inputs": [
        {
          "indexed": false,
          "internalType": "string",
          "name": "prevURI",
          "type": "string"
        },
        {
          "indexed": false,
          "internalType": "string",
          "name": "newURI",
          "type": "string"
        }
      ],
      "name": "ContractURIUpdated",
      "type": "event"
    },
    {
      "anonymous": false,
      "inputs": [
        {
          "indexed": true,
          "internalType": "address",
          "name": "newRoyaltyRecipient",
          "type": "address"
        },
        {
          "indexed": false,
          "internalType": "uint256",
          "name": "newRoyaltyBps",
          "type": "uint256"
        }
      ],
      "name": "DefaultRoyalty",
      "type": "event"
    },
    {
      "anonymous": false,
      "inputs": [
        {
          "indexed": false,
          "internalType": "bool",
          "name": "restriction",
          "type": "bool"
        }
      ],
      "name": "OperatorRestriction",
      "type": "event"
    },
    {
      "anonymous": false,
      "inputs": [
        {
          "indexed": true,
          "internalType": "address",
          "name": "prevOwner",
          "type": "address"
        },
        {
          "indexed": true,
          "internalType": "address",
          "name": "newOwner",
          "type": "address"
        }
      ],
      "name": "OwnerUpdated",
      "type": "event"
    },
    {
      "anonymous": false,
      "inputs": [
        {
          "indexed": true,
          "internalType": "uint256",
          "name": "tokenId",
          "type": "uint256"
        },
        {
          "indexed": true,
          "internalType": "address",
          "name": "royaltyRecipient",
          "type": "address"
        },
        {
          "indexed": false,
          "internalType": "uint256",
          "name": "royaltyBps",
          "type": "uint256"
        }
      ],
      "name": "RoyaltyForToken",
      "type": "event"
    },
    {
      "anonymous": false,
      "inputs": [
        {
          "indexed": true,
          "internalType": "address",
          "name": "_operator",
          "type": "address"
        },
        {
          "indexed": true,
          "internalType": "address",
          "name": "_from",
          "type": "address"
        },
        {
          "indexed": true,
          "internalType": "address",
          "name": "_to",
          "type": "address"
        },
        {
          "indexed": false,
          "internalType": "uint256[]",
          "name": "_ids",
          "type": "uint256[]"
        },
        {
          "indexed": false,
          "internalType": "uint256[]",
          "name": "_values",
          "type": "uint256[]"
        }
      ],
      "name": "TransferBatch",
      "type": "event"
    },
    {
      "anonymous": false,
      "inputs": [
        {
          "indexed": true,
          "internalType": "address",
          "name": "_operator",
          "type": "address"
        },
        {
          "indexed": true,
          "internalType": "address",
          "name": "_from",
          "type": "address"
        },
        {
          "indexed": true,
          "internalType": "address",
          "name": "_to",
          "type": "address"
        },
        {
          "indexed": false,
          "internalType": "uint256",
          "name": "_id",
          "type": "uint256"
        },
        {
          "indexed": false,
          "internalType": "uint256",
          "name": "_value",
          "type": "uint256"
        }
      ],
      "name": "TransferSingle",
      "type": "event"
    },
    {
      "anonymous": false,
      "inputs": [
        {
          "indexed": false,
          "internalType": "string",
          "name": "_value",
          "type": "string"
        },
        {
          "indexed": true,
          "internalType": "uint256",
          "name": "_id",
          "type": "uint256"
        }
      ],
      "name": "URI",
      "type": "event"
    },
    {
      "inputs": [],
      "name": "OPERATOR_FILTER_REGISTRY",
      "outputs": [
        {
          "internalType": "contract IOperatorFilterRegistry",
          "name": "",
          "type": "address"
        }
      ],
      "stateMutability": "view",
      "type": "function"
    },
    {
      "inputs": [
        {
          "internalType": "address",
          "name": "",
          "type": "address"
        },
        {
          "internalType": "uint256",
          "name": "",
          "type": "uint256"
        }
      ],
      "name": "balanceOf",
      "outputs": [
        {
          "internalType": "uint256",
          "name": "",
          "type": "uint256"
        }
      ],
      "stateMutability": "view",
      "type": "function"
    },
    {
      "inputs": [
        {
          "internalType": "address[]",
          "name": "accounts",
          "type": "address[]"
        },
        {
          "internalType": "uint256[]",
          "name": "ids",
          "type": "uint256[]"
        }
      ],
      "name": "balanceOfBatch",
      "outputs": [
        {
          "internalType": "uint256[]",
          "name": "",
          "type": "uint256[]"
        }
      ],
      "stateMutability": "view",
      "type": "function"
    },
    {
      "inputs": [
        {
          "internalType": "address",
          "name": "_to",
          "type": "address"
        },
        {
          "internalType": "uint256[]",
          "name": "_tokenIds",
          "type": "uint256[]"
        },
        {
          "internalType": "uint256[]",
          "name": "_amounts",
          "type": "uint256[]"
        },
        {
          "internalType": "string",
          "name": "_baseURI",
          "type": "string"
        }
      ],
      "name": "batchMintTo",
      "outputs": [],
      "stateMutability": "nonpayable",
      "type": "function"
    },
    {
      "inputs": [
        {
          "internalType": "address",
          "name": "_owner",
          "type": "address"
        },
        {
          "internalType": "uint256",
          "name": "_tokenId",
          "type": "uint256"
        },
        {
          "internalType": "uint256",
          "name": "_amount",
          "type": "uint256"
        }
      ],
      "name": "burn",
      "outputs": [],
      "stateMutability": "nonpayable",
      "type": "function"
    },
    {
      "inputs": [
        {
          "internalType": "address",
          "name": "_owner",
          "type": "address"
        },
        {
          "internalType": "uint256[]",
          "name": "_tokenIds",
          "type": "uint256[]"
        },
        {
          "internalType": "uint256[]",
          "name": "_amounts",
          "type": "uint256[]"
        }
      ],
      "name": "burnBatch",
      "outputs": [],
      "stateMutability": "nonpayable",
      "type": "function"
    },
    {
      "inputs": [],
      "name": "contractURI",
      "outputs": [
        {
          "internalType": "string",
          "name": "",
          "type": "string"
        }
      ],
      "stateMutability": "view",
      "type": "function"
    },
    {
      "inputs": [
        {
          "internalType": "string",
          "name": "_name",
          "type": "string"
        },
        {
          "internalType": "uint256",
          "name": "_damage",
          "type": "uint256"
        },
        {
          "internalType": "uint256",
          "name": "_manaCost",
          "type": "uint256"
        },
        {
          "internalType": "uint256",
          "name": "_statusEffectId",
          "type": "uint256"
        },
        {
          "internalType": "string",
          "name": "_tokenURI",
          "type": "string"
        }
      ],
      "name": "createSkill",
      "outputs": [],
      "stateMutability": "nonpayable",
      "type": "function"
    },
    {
      "inputs": [
        {
          "internalType": "string",
          "name": "_name",
          "type": "string"
        },
        {
          "internalType": "uint256",
          "name": "_duration",
          "type": "uint256"
        },
        {
          "internalType": "bool",
          "name": "_isPositive",
          "type": "bool"
        },
        {
          "internalType": "uint256",
          "name": "_attackBoost",
          "type": "uint256"
        },
        {
          "internalType": "uint256",
          "name": "_attackReduction",
          "type": "uint256"
        },
        {
          "internalType": "uint256",
          "name": "_defenseBoost",
          "type": "uint256"
        },
        {
          "internalType": "uint256",
          "name": "_defenseReduction",
          "type": "uint256"
        },
        {
          "internalType": "uint256",
          "name": "_healPerTurn",
          "type": "uint256"
        },
        {
          "internalType": "uint256",
          "name": "_damagePerTurn",
          "type": "uint256"
        },
        {
          "internalType": "bool",
          "name": "_isStun",
          "type": "bool"
        }
      ],
      "name": "createStatusEffect",
      "outputs": [],
      "stateMutability": "nonpayable",
      "type": "function"
    },
    {
      "inputs": [],
      "name": "getBaseURICount",
      "outputs": [
        {
          "internalType": "uint256",
          "name": "",
          "type": "uint256"
        }
      ],
      "stateMutability": "view",
      "type": "function"
    },
    {
      "inputs": [
        {
          "internalType": "uint256",
          "name": "_index",
          "type": "uint256"
        }
      ],
      "name": "getBatchIdAtIndex",
      "outputs": [
        {
          "internalType": "uint256",
          "name": "",
          "type": "uint256"
        }
      ],
      "stateMutability": "view",
      "type": "function"
    },
    {
      "inputs": [],
      "name": "getDefaultRoyaltyInfo",
      "outputs": [
        {
          "internalType": "address",
          "name": "",
          "type": "address"
        },
        {
          "internalType": "uint16",
          "name": "",
          "type": "uint16"
        }
      ],
      "stateMutability": "view",
      "type": "function"
    },
    {
      "inputs": [
        {
          "internalType": "uint256",
          "name": "_enemyLevel",
          "type": "uint256"
        }
      ],
      "name": "getRandomSkill",
      "outputs": [
        {
          "internalType": "uint256",
          "name": "",
          "type": "uint256"
        }
      ],
      "stateMutability": "view",
      "type": "function"
    },
    {
      "inputs": [
        {
          "internalType": "uint256",
          "name": "_tokenId",
          "type": "uint256"
        }
      ],
      "name": "getRoyaltyInfoForToken",
      "outputs": [
        {
          "internalType": "address",
          "name": "",
          "type": "address"
        },
        {
          "internalType": "uint16",
          "name": "",
          "type": "uint16"
        }
      ],
      "stateMutability": "view",
      "type": "function"
    },
    {
      "inputs": [
        {
          "internalType": "uint256",
          "name": "_skillId",
          "type": "uint256"
        }
      ],
      "name": "getSkill",
      "outputs": [
        {
          "components": [
            {
              "internalType": "uint256",
              "name": "skillId",
              "type": "uint256"
            },
            {
              "internalType": "string",
              "name": "name",
              "type": "string"
            },
            {
              "internalType": "uint256",
              "name": "damage",
              "type": "uint256"
            },
            {
              "internalType": "uint256",
              "name": "manaCost",
              "type": "uint256"
            },
            {
              "internalType": "uint256",
              "name": "statusEffectId",
              "type": "uint256"
            }
          ],
          "internalType": "struct BattleSkills.Skill",
          "name": "",
          "type": "tuple"
        }
      ],
      "stateMutability": "view",
      "type": "function"
    },
    {
      "inputs": [
        {
          "internalType": "uint256",
          "name": "_effectId",
          "type": "uint256"
        }
      ],
      "name": "getStatusEffect",
      "outputs": [
        {
          "components": [
            {
              "internalType": "uint256",
              "name": "effectId",
              "type": "uint256"
            },
            {
              "internalType": "string",
              "name": "name",
              "type": "string"
            },
            {
              "internalType": "bool",
              "name": "isPositive",
              "type": "bool"
            },
            {
              "internalType": "uint256",
              "name": "duration",
              "type": "uint256"
            },
            {
              "internalType": "uint256",
              "name": "attackBoost",
              "type": "uint256"
            },
            {
              "internalType": "uint256",
              "name": "attackReduction",
              "type": "uint256"
            },
            {
              "internalType": "uint256",
              "name": "defenseBoost",
              "type": "uint256"
            },
            {
              "internalType": "uint256",
              "name": "defenseReduction",
              "type": "uint256"
            },
            {
              "internalType": "uint256",
              "name": "healPerTurn",
              "type": "uint256"
            },
            {
              "internalType": "uint256",
              "name": "damagePerTurn",
              "type": "uint256"
            },
            {
              "internalType": "bool",
              "name": "isStun",
              "type": "bool"
            }
          ],
          "internalType": "struct BattleSkills.StatusEffect",
          "name": "",
          "type": "tuple"
        }
      ],
      "stateMutability": "view",
      "type": "function"
    },
    {
      "inputs": [],
      "name": "initializeStatusEffects",
      "outputs": [],
      "stateMutability": "nonpayable",
      "type": "function"
    },
    {
      "inputs": [
        {
          "internalType": "address",
          "name": "",
          "type": "address"
        },
        {
          "internalType": "address",
          "name": "",
          "type": "address"
        }
      ],
      "name": "isApprovedForAll",
      "outputs": [
        {
          "internalType": "bool",
          "name": "",
          "type": "bool"
        }
      ],
      "stateMutability": "view",
      "type": "function"
    },
    {
      "inputs": [
        {
          "internalType": "uint256",
          "name": "_skillId",
          "type": "uint256"
        },
        {
          "internalType": "address",
          "name": "_caller",
          "type": "address"
        }
      ],
      "name": "mintSkill",
      "outputs": [],
      "stateMutability": "nonpayable",
      "type": "function"
    },
    {
      "inputs": [
        {
          "internalType": "address",
          "name": "_to",
          "type": "address"
        },
        {
          "internalType": "uint256",
          "name": "_tokenId",
          "type": "uint256"
        },
        {
          "internalType": "string",
          "name": "_tokenURI",
          "type": "string"
        },
        {
          "internalType": "uint256",
          "name": "_amount",
          "type": "uint256"
        }
      ],
      "name": "mintTo",
      "outputs": [],
      "stateMutability": "nonpayable",
      "type": "function"
    },
    {
      "inputs": [
        {
          "internalType": "bytes[]",
          "name": "data",
          "type": "bytes[]"
        }
      ],
      "name": "multicall",
      "outputs": [
        {
          "internalType": "bytes[]",
          "name": "results",
          "type": "bytes[]"
        }
      ],
      "stateMutability": "nonpayable",
      "type": "function"
    },
    {
      "inputs": [],
      "name": "name",
      "outputs": [
        {
          "internalType": "string",
          "name": "",
          "type": "string"
        }
      ],
      "stateMutability": "view",
      "type": "function"
    },
    {
      "inputs": [],
      "name": "nextTokenIdToMint",
      "outputs": [
        {
          "internalType": "uint256",
          "name": "",
          "type": "uint256"
        }
      ],
      "stateMutability": "view",
      "type": "function"
    },
    {
      "inputs": [],
      "name": "numSkills",
      "outputs": [
        {
          "internalType": "uint256",
          "name": "",
          "type": "uint256"
        }
      ],
      "stateMutability": "view",
      "type": "function"
    },
    {
      "inputs": [],
      "name": "numStatusEffects",
      "outputs": [
        {
          "internalType": "uint256",
          "name": "",
          "type": "uint256"
        }
      ],
      "stateMutability": "view",
      "type": "function"
    },
    {
      "inputs": [],
      "name": "operatorRestriction",
      "outputs": [
        {
          "internalType": "bool",
          "name": "",
          "type": "bool"
        }
      ],
      "stateMutability": "view",
      "type": "function"
    },
    {
      "inputs": [],
      "name": "owner",
      "outputs": [
        {
          "internalType": "address",
          "name": "",
          "type": "address"
        }
      ],
      "stateMutability": "view",
      "type": "function"
    },
    {
      "inputs": [
        {
          "internalType": "uint256",
          "name": "tokenId",
          "type": "uint256"
        },
        {
          "internalType": "uint256",
          "name": "salePrice",
          "type": "uint256"
        }
      ],
      "name": "royaltyInfo",
      "outputs": [
        {
          "internalType": "address",
          "name": "receiver",
          "type": "address"
        },
        {
          "internalType": "uint256",
          "name": "royaltyAmount",
          "type": "uint256"
        }
      ],
      "stateMutability": "view",
      "type": "function"
    },
    {
      "inputs": [
        {
          "internalType": "address",
          "name": "from",
          "type": "address"
        },
        {
          "internalType": "address",
          "name": "to",
          "type": "address"
        },
        {
          "internalType": "uint256[]",
          "name": "ids",
          "type": "uint256[]"
        },
        {
          "internalType": "uint256[]",
          "name": "amounts",
          "type": "uint256[]"
        },
        {
          "internalType": "bytes",
          "name": "data",
          "type": "bytes"
        }
      ],
      "name": "safeBatchTransferFrom",
      "outputs": [],
      "stateMutability": "nonpayable",
      "type": "function"
    },
    {
      "inputs": [
        {
          "internalType": "address",
          "name": "from",
          "type": "address"
        },
        {
          "internalType": "address",
          "name": "to",
          "type": "address"
        },
        {
          "internalType": "uint256",
          "name": "id",
          "type": "uint256"
        },
        {
          "internalType": "uint256",
          "name": "amount",
          "type": "uint256"
        },
        {
          "internalType": "bytes",
          "name": "data",
          "type": "bytes"
        }
      ],
      "name": "safeTransferFrom",
      "outputs": [],
      "stateMutability": "nonpayable",
      "type": "function"
    },
    {
      "inputs": [
        {
          "internalType": "address",
          "name": "operator",
          "type": "address"
        },
        {
          "internalType": "bool",
          "name": "approved",
          "type": "bool"
        }
      ],
      "name": "setApprovalForAll",
      "outputs": [],
      "stateMutability": "nonpayable",
      "type": "function"
    },
    {
      "inputs": [
        {
          "internalType": "string",
          "name": "_uri",
          "type": "string"
        }
      ],
      "name": "setContractURI",
      "outputs": [],
      "stateMutability": "nonpayable",
      "type": "function"
    },
    {
      "inputs": [
        {
          "internalType": "address",
          "name": "_royaltyRecipient",
          "type": "address"
        },
        {
          "internalType": "uint256",
          "name": "_royaltyBps",
          "type": "uint256"
        }
      ],
      "name": "setDefaultRoyaltyInfo",
      "outputs": [],
      "stateMutability": "nonpayable",
      "type": "function"
    },
    {
      "inputs": [
        {
          "internalType": "bool",
          "name": "_restriction",
          "type": "bool"
        }
      ],
      "name": "setOperatorRestriction",
      "outputs": [],
      "stateMutability": "nonpayable",
      "type": "function"
    },
    {
      "inputs": [
        {
          "internalType": "address",
          "name": "_newOwner",
          "type": "address"
        }
      ],
      "name": "setOwner",
      "outputs": [],
      "stateMutability": "nonpayable",
      "type": "function"
    },
    {
      "inputs": [
        {
          "internalType": "uint256",
          "name": "_tokenId",
          "type": "uint256"
        },
        {
          "internalType": "address",
          "name": "_recipient",
          "type": "address"
        },
        {
          "internalType": "uint256",
          "name": "_bps",
          "type": "uint256"
        }
      ],
      "name": "setRoyaltyInfoForToken",
      "outputs": [],
      "stateMutability": "nonpayable",
      "type": "function"
    },
    {
      "inputs": [
        {
          "internalType": "uint256",
          "name": "",
          "type": "uint256"
        }
      ],
      "name": "skills",
      "outputs": [
        {
          "internalType": "uint256",
          "name": "skillId",
          "type": "uint256"
        },
        {
          "internalType": "string",
          "name": "name",
          "type": "string"
        },
        {
          "internalType": "uint256",
          "name": "damage",
          "type": "uint256"
        },
        {
          "internalType": "uint256",
          "name": "manaCost",
          "type": "uint256"
        },
        {
          "internalType": "uint256",
          "name": "statusEffectId",
          "type": "uint256"
        }
      ],
      "stateMutability": "view",
      "type": "function"
    },
    {
      "inputs": [
        {
          "internalType": "uint256",
          "name": "",
          "type": "uint256"
        }
      ],
      "name": "statusEffects",
      "outputs": [
        {
          "internalType": "uint256",
          "name": "effectId",
          "type": "uint256"
        },
        {
          "internalType": "string",
          "name": "name",
          "type": "string"
        },
        {
          "internalType": "bool",
          "name": "isPositive",
          "type": "bool"
        },
        {
          "internalType": "uint256",
          "name": "duration",
          "type": "uint256"
        },
        {
          "internalType": "uint256",
          "name": "attackBoost",
          "type": "uint256"
        },
        {
          "internalType": "uint256",
          "name": "attackReduction",
          "type": "uint256"
        },
        {
          "internalType": "uint256",
          "name": "defenseBoost",
          "type": "uint256"
        },
        {
          "internalType": "uint256",
          "name": "defenseReduction",
          "type": "uint256"
        },
        {
          "internalType": "uint256",
          "name": "healPerTurn",
          "type": "uint256"
        },
        {
          "internalType": "uint256",
          "name": "damagePerTurn",
          "type": "uint256"
        },
        {
          "internalType": "bool",
          "name": "isStun",
          "type": "bool"
        }
      ],
      "stateMutability": "view",
      "type": "function"
    },
    {
      "inputs": [
        {
          "internalType": "bytes4",
          "name": "interfaceId",
          "type": "bytes4"
        }
      ],
      "name": "supportsInterface",
      "outputs": [
        {
          "internalType": "bool",
          "name": "",
          "type": "bool"
        }
      ],
      "stateMutability": "view",
      "type": "function"
    },
    {
      "inputs": [],
      "name": "symbol",
      "outputs": [
        {
          "internalType": "string",
          "name": "",
          "type": "string"
        }
      ],
      "stateMutability": "view",
      "type": "function"
    },
    {
      "inputs": [
        {
          "internalType": "uint256",
          "name": "",
          "type": "uint256"
        }
      ],
      "name": "totalSupply",
      "outputs": [
        {
          "internalType": "uint256",
          "name": "",
          "type": "uint256"
        }
      ],
      "stateMutability": "view",
      "type": "function"
    },
    {
      "inputs": [
        {
          "internalType": "uint256",
          "name": "_skillId",
          "type": "uint256"
        },
        {
          "internalType": "string",
          "name": "_name",
          "type": "string"
        },
        {
          "internalType": "uint256",
          "name": "_damage",
          "type": "uint256"
        },
        {
          "internalType": "uint256",
          "name": "_manaCost",
          "type": "uint256"
        },
        {
          "internalType": "uint256",
          "name": "_statusEffectId",
          "type": "uint256"
        }
      ],
      "name": "updateSkill",
      "outputs": [],
      "stateMutability": "nonpayable",
      "type": "function"
    },
    {
      "inputs": [
        {
          "internalType": "uint256",
          "name": "_tokenId",
          "type": "uint256"
        }
      ],
      "name": "uri",
      "outputs": [
        {
          "internalType": "string",
          "name": "",
          "type": "string"
        }
      ],
      "stateMutability": "view",
      "type": "function"
    }
  ],
  "bytecode": "0x60806040523480156200001157600080fd5b506040518060400160405280600c81526020016b426174746c65536b696c6c7360a01b81525060405180604001604052806002815260200161425360f01b815250600080733cc6cdda760b79bafa08df41ecfa224f810dceb66001858581600090816200007f9190620006c7565b5060016200008e8282620006c7565b5050506daaeb6d7670e522a718067333cd4e3b15620001d65780156200012457604051633e9f1edf60e11b81523060048201526001600160a01b03831660248201526daaeb6d7670e522a718067333cd4e90637d3e3dbe906044015b600060405180830381600087803b1580156200010557600080fd5b505af11580156200011a573d6000803e3d6000fd5b50505050620001d6565b6001600160a01b03821615620001755760405163a0af290360e01b81523060048201526001600160a01b03831660248201526daaeb6d7670e522a718067333cd4e9063a0af290390604401620000ea565b604051632210724360e11b81523060048201526daaeb6d7670e522a718067333cd4e90634420e48690602401600060405180830381600087803b158015620001bc57600080fd5b505af1158015620001d1573d6000803e3d6000fd5b505050505b50620001e49050336200021f565b620001f9826001600160801b03831662000271565b6200020560016200031c565b50505050620002196200036360201b60201c565b620007bb565b600680546001600160a01b038381166001600160a01b0319831681179093556040519116919082907f8292fce18fa69edf4db7b94ea2e58241df0ae57f97e0a6c9b29067028bf92d7690600090a35050565b612710811115620002ba5760405162461bcd60e51b815260206004820152600f60248201526e45786365656473206d61782062707360881b604482015260640160405180910390fd5b600780546001600160a01b0384166001600160b01b03199091168117600160a01b61ffff851602179091556040518281527f90d7ec04bcb8978719414f82e52e4cb651db41d0e6f8cea6118c2191e6183adb9060200160405180910390a25050565b600b805460ff19168215159081179091556040519081527f38475885990d8dfe9ca01f0ef160a1b5514426eab9ddbc953a3353410ba780969060200160405180910390a150565b60408051808201909152600481526329ba3ab760e11b602082015262000394906001600080808080808087620004ff565b60408051808201909152601081526f44616d616765204f7665722054696d6560801b6020820152620003d290600360008080808080600a81620004ff565b60408051808201909152600d81526c5265647563652041747461636b60981b60208201526200040d906003600080600a8180808080620004ff565b60408051808201909152600e81526d52656475636520446566656e736560901b6020820152620004499060036000808080600a818080620004ff565b60408051808201909152600c81526b426f6f73742041747461636b60a01b6020820152620004849060036001600a60008080808080620004ff565b60408051808201909152600e81526d4865616c204f7665722054696d6560901b6020820152620004c190600360016000808080600a8180620004ff565b60408051808201909152600d81526c111959995b9cd948109bdbdcdd609a1b6020820152620004fd9060036001600080600a81808080620004ff565b565b60405180610160016040528060115481526020018b815260200189151581526020018a8152602001888152602001878152602001868152602001858152602001848152602001838152602001821515815250600f60006011548152602001908152602001600020600082015181600001556020820151816001019081620005879190620006c7565b50604082015160028201805491151560ff19928316179055606083015160038301556080830151600483015560a0830151600583015560c0830151600683015560e083015160078301556101008301516008830155610120830151600983015561014090920151600a90910180549115159190921617905560118054906000620006118362000793565b919050555050505050505050505050565b634e487b7160e01b600052604160045260246000fd5b600181811c908216806200064d57607f821691505b6020821081036200066e57634e487b7160e01b600052602260045260246000fd5b50919050565b601f821115620006c257600081815260208120601f850160051c810160208610156200069d5750805b601f850160051c820191505b81811015620006be57828155600101620006a9565b5050505b505050565b81516001600160401b03811115620006e357620006e362000622565b620006fb81620006f4845462000638565b8462000674565b602080601f8311600181146200073357600084156200071a5750858301515b600019600386901b1c1916600185901b178555620006be565b600085815260208120601f198616915b82811015620007645788860151825594840194600190910190840162000743565b5085821015620007835787850151600019600388901b60f8161c191681555b5050505050600190811b01905550565b600060018201620007b457634e487b7160e01b600052601160045260246000fd5b5060010190565b61421080620007cb6000396000f3fe608060405234801561001057600080fd5b50600436106102685760003560e01c80637bdaa4ef11610151578063b03f4528116100c3578063bfa0fedb11610087578063bfa0fedb146105db578063c7cd32c6146105ee578063e8a3d48514610618578063e985e9c514610620578063f242432a1461064e578063f5298aca1461066157600080fd5b8063b03f452814610557578063b24f2d391461056a578063bc4b896a14610588578063bd85b0391461059b578063bd880fae146105bb57600080fd5b8063949c09f711610115578063949c09f7146104ee57806395d89b41146105015780639746d1bb146105095780639bcf7a1514610511578063a22cb46514610524578063ac9650d81461053757600080fd5b80637bdaa4ef1461049b5780637cc2a91d146104a45780638da5cb5b146104b7578063910837e9146104c8578063938e3d7b146104db57600080fd5b806332f0cd64116101ea578063504c6e01116101ae578063504c6e011461043357806350d15fbe14610440578063600dd5ea1461046457806363b45e2d146104775780636b20c4541461047f5780636febc04d1461049257600080fd5b806332f0cd64146103965780633b1475a7146103a957806341f43434146103b15780634cc157df146103de5780634e1273f41461041357600080fd5b80631187bd51116102315780631187bd511461030b57806313af40351461032b5780632419f51b1461033e5780632a55205a146103515780632eb2c2d61461038357600080fd5b8062fdd58e1461026d57806301ffc9a7146102ab57806304314325146102ce57806306fdde03146102e35780630e89341c146102f8575b600080fd5b61029861027b36600461316c565b600260209081526000928352604080842090915290825290205481565b6040519081526020015b60405180910390f35b6102be6102b93660046131ac565b610674565b60405190151581526020016102a2565b6102e16102dc36600461327e565b6106e1565b005b6102eb610780565b6040516102a29190613356565b6102eb610306366004613369565b61080e565b61031e610319366004613369565b6108fc565b6040516102a29190613382565b6102e1610339366004613432565b610a87565b61029861034c366004613369565b610ac0565b61036461035f36600461344d565b610b2e565b604080516001600160a01b0390931683526020830191909152016102a2565b6102e1610391366004613503565b610b6b565b6102e16103a43660046135a0565b610b9a565b600c54610298565b6103c66daaeb6d7670e522a718067333cd4e81565b6040516001600160a01b0390911681526020016102a2565b6103f16103ec366004613369565b610c0b565b604080516001600160a01b03909316835261ffff9091166020830152016102a2565b6104266104213660046135bd565b610c76565b6040516102a291906136c2565b600b546102be9060ff1681565b61045361044e366004613369565b610d8a565b6040516102a29594939291906136d5565b6102e161047236600461316c565b610e41565b600954610298565b6102e161048d36600461370b565b610e73565b61029860105481565b61029860115481565b6102986104b2366004613369565b611015565b6006546001600160a01b03166103c6565b6102e16104d636600461377e565b61105d565b6102e16104e9366004613827565b61117c565b6102e16104fc36600461385b565b6111a9565b6102eb6113a4565b6102e16113b1565b6102e161051f3660046138f3565b611559565b6102e1610532366004613928565b61158d565b61054a61054536600461395f565b6115a1565b6040516102a291906139d3565b6102e1610565366004613a35565b611695565b6007546001600160a01b03811690600160a01b900461ffff166103f1565b6102e1610596366004613a93565b611780565b6102986105a9366004613369565b600d6020526000908152604090205481565b6105ce6105c9366004613369565b61180b565b6040516102a29190613af4565b6102e16105e9366004613b44565b61191c565b6106016105fc366004613369565b6119d6565b6040516102a29b9a99989796959493929190613b70565b6102eb611abb565b6102be61062e366004613bd4565b600360209081526000928352604080842090915290825290205460ff1681565b6102e161065c366004613bfe565b611ac8565b6102e161066f366004613c62565b611aef565b60006301ffc9a760e01b6001600160e01b0319831614806106a55750636cdb3d1360e11b6001600160e01b03198316145b806106c057506303a24d0760e21b6001600160e01b03198316145b806106db57506001600160e01b0319821663152a902d60e11b145b92915050565b6000196106f13382846001611695565b6040805160a08101825260105480825260208083018a81528385018a905260608401899052608084018890526000928352600e90915292902081518155915190919060018201906107429082613d15565b5060408201516002820155606082015160038201556080909101516004909101556010805490600061077383613dea565b9190505550505050505050565b6000805461078d90613c95565b80601f01602080910402602001604051908101604052809291908181526020018280546107b990613c95565b80156108065780601f106107db57610100808354040283529160200191610806565b820191906000526020600020905b8154815290600101906020018083116107e957829003601f168201915b505050505081565b60008181526004602052604081208054606092919061082c90613c95565b80601f016020809104026020016040519081016040528092919081815260200182805461085890613c95565b80156108a55780601f1061087a576101008083540402835291602001916108a5565b820191906000526020600020905b81548152906001019060200180831161088857829003601f168201915b505050505090506000815111156108bc5792915050565b60006108c784611be4565b9050806108d385611d80565b6040516020016108e4929190613e03565b60405160208183030381529060405292505050919050565b61095d6040518061016001604052806000815260200160608152602001600015158152602001600081526020016000815260200160008152602001600081526020016000815260200160008152602001600081526020016000151581525090565b600f6000838152602001908152602001600020604051806101600160405290816000820154815260200160018201805461099690613c95565b80601f01602080910402602001604051908101604052809291908181526020018280546109c290613c95565b8015610a0f5780601f106109e457610100808354040283529160200191610a0f565b820191906000526020600020905b8154815290600101906020018083116109f257829003601f168201915b5050509183525050600282015460ff90811615156020830152600383015460408301526004830154606083015260058301546080830152600683015460a0830152600783015460c0830152600883015460e08301526009830154610100830152600a9092015490911615156101209091015292915050565b610a8f611e88565b610ab45760405162461bcd60e51b8152600401610aab90613e32565b60405180910390fd5b610abd81611eb5565b50565b6000610acb60095490565b8210610b095760405162461bcd60e51b815260206004820152600d60248201526c092dcecc2d8d2c840d2dcc8caf609b1b6044820152606401610aab565b60098281548110610b1c57610b1c613e5a565b90600052602060002001549050919050565b600080600080610b3d86610c0b565b90945084925061ffff169050612710610b568287613e70565b610b609190613ea5565b925050509250929050565b846001600160a01b0381163314610b8557610b8533611f07565b610b928686868686611fcb565b505050505050565b610ba2611e88565b610c025760405162461bcd60e51b815260206004820152602b60248201527f4e6f7420617574686f72697a656420746f20736574206f70657261746f72207260448201526a32b9ba3934b1ba34b7b71760a91b6064820152608401610aab565b610abd8161205a565b6000818152600860209081526040808320815180830190925280546001600160a01b031680835260019091015492820192909252829115610c525780516020820151610c6c565b6007546001600160a01b03811690600160a01b900461ffff165b9250925050915091565b60608151835114610c995760405162461bcd60e51b8152600401610aab90613eb9565b600083516001600160401b03811115610cb457610cb46131c9565b604051908082528060200260200182016040528015610cdd578160200160208202803683370190505b50905060005b8451811015610d825760026000868381518110610d0257610d02613e5a565b60200260200101516001600160a01b03166001600160a01b031681526020019081526020016000206000858381518110610d3e57610d3e613e5a565b6020026020010151815260200190815260200160002054828281518110610d6757610d67613e5a565b6020908102919091010152610d7b81613dea565b9050610ce3565b509392505050565b600e6020526000908152604090208054600182018054919291610dac90613c95565b80601f0160208091040260200160405190810160405280929190818152602001828054610dd890613c95565b8015610e255780601f10610dfa57610100808354040283529160200191610e25565b820191906000526020600020905b815481529060010190602001808311610e0857829003601f168201915b5050505050908060020154908060030154908060040154905085565b610e49611e88565b610e655760405162461bcd60e51b8152600401610aab90613e32565b610e6f82826120a1565b5050565b336001600160a01b038416811480610eb057506001600160a01b0380851660009081526003602090815260408083209385168352929052205460ff165b610ef05760405162461bcd60e51b81526020600482015260116024820152702ab730b8383937bb32b21031b0b63632b960791b6044820152606401610aab565b8151835114610f335760405162461bcd60e51b815260206004820152600f60248201526e098cadccee8d040dad2e6dac2e8c6d608b1b6044820152606401610aab565b60005b835181101561100357828181518110610f5157610f51613e5a565b602002602001015160026000876001600160a01b03166001600160a01b031681526020019081526020016000206000868481518110610f9257610f92613e5a565b60200260200101518152602001908152602001600020541015610ff15760405162461bcd60e51b8152602060048201526017602482015276139bdd08195b9bdd59da081d1bdad95b9cc81bdddb9959604a1b6044820152606401610aab565b610ffc600182613ee2565b9050610f36565b5061100f848484612147565b50505050565b60105460408051426020820152908101839052600091906060016040516020818303038152906040528051906020012060001c6110529190613efa565b6106db906001613ee2565b60405180610160016040528060115481526020018b815260200189151581526020018a8152602001888152602001878152602001868152602001858152602001848152602001838152602001821515815250600f600060115481526020019081526020016000206000820151816000015560208201518160010190816110e39190613d15565b50604082015160028201805491151560ff19928316179055606083015160038301556080830151600483015560a0830151600583015560c0830151600683015560e083015160078301556101008301516008830155610120830151600983015561014090920151600a9091018054911515919092161790556011805490600061116b83613dea565b919050555050505050505050505050565b611184611e88565b6111a05760405162461bcd60e51b8152600401610aab90613e32565b610abd816122fc565b6111b1611e88565b6111f75760405162461bcd60e51b81526020600482015260176024820152762737ba1030baba3437b934bd32b2103a379036b4b73a1760491b6044820152606401610aab565b600082511161123f5760405162461bcd60e51b815260206004820152601460248201527326b4b73a34b733903d32b937903a37b5b2b7399760611b6044820152606401610aab565b81518351146112835760405162461bcd60e51b815260206004820152601060248201526f2632b733ba341036b4b9b6b0ba31b41760811b6044820152606401610aab565b600061128e600c5490565b9050806000805b8651811015611364576000198782815181106112b3576112b3613e5a565b6020026020010151036112fd57838782815181106112d3576112d3613e5a565b60209081029190910101526112e9600185613ee2565b93506112f6600183613ee2565b9150611352565b8387828151811061131057611310613e5a565b6020026020010151106113525760405162461bcd60e51b815260206004820152600a6024820152691a5b9d985b1a59081a5960b21b6044820152606401610aab565b61135d600182613ee2565b9050611295565b508015611379576113768282866123d8565b50505b82600c8190555061139b8787876040518060200160405280600081525061243c565b50505050505050565b6001805461078d90613c95565b6113e56040518060400160405280600481526020016329ba3ab760e11b81525060016000806000806000806000600161105d565b6114256040518060400160405280601081526020016f44616d616765204f7665722054696d6560801b8152506003600080600080600080600a600061105d565b6114626040518060400160405280600d81526020016c5265647563652041747461636b60981b8152506003600080600a600080600080600061105d565b6114a06040518060400160405280600e81526020016d52656475636520446566656e736560901b8152506003600080600080600a600080600061105d565b6114dc6040518060400160405280600c81526020016b426f6f73742041747461636b60a01b81525060036001600a60008060008060008061105d565b61151a6040518060400160405280600e81526020016d4865616c204f7665722054696d6560901b81525060036001600080600080600a60008061105d565b6115576040518060400160405280600d81526020016c111959995b9cd948109bdbdcdd609a1b81525060036001600080600a60008060008061105d565b565b611561611e88565b61157d5760405162461bcd60e51b8152600401610aab90613e32565b611588838383612597565b505050565b8161159781611f07565b6115888383612661565b6060816001600160401b038111156115bb576115bb6131c9565b6040519080825280602002602001820160405280156115ee57816020015b60608152602001906001900390816115d95790505b50905060005b8281101561168e5761165e3085858481811061161257611612613e5a565b90506020028101906116249190613f0e565b8080601f01602080910402602001604051908101604052809392919081815260200183838082843760009201919091525061271092505050565b82828151811061167057611670613e5a565b6020026020010181905250808061168690613dea565b9150506115f4565b5092915050565b61169d611e88565b6116e35760405162461bcd60e51b81526020600482015260176024820152762737ba1030baba3437b934bd32b2103a379036b4b73a1760491b6044820152606401610aab565b6000806116ef600c5490565b90506000198503611725578091506001600c60008282546117109190613ee2565b909155506117209050818561273c565b611765565b8085106117615760405162461bcd60e51b815260206004820152600a6024820152691a5b9d985b1a59081a5960b21b6044820152606401610aab565b8491505b610b9286838560405180602001604052806000815250612754565b6010548511156117c95760405162461bcd60e51b815260206004820152601460248201527314dada5b1b08191bd95cc81b9bdd08195e1a5cdd60621b6044820152606401610aab565b6000858152600e602052604090206001016117e48582613d15565b506000948552600e6020526040909420600281019290925560038201556004019190915550565b61183d6040518060a0016040528060008152602001606081526020016000815260200160008152602001600081525090565b600e60008381526020019081526020016000206040518060a00160405290816000820154815260200160018201805461187590613c95565b80601f01602080910402602001604051908101604052809291908181526020018280546118a190613c95565b80156118ee5780601f106118c3576101008083540402835291602001916118ee565b820191906000526020600020905b8154815290600101906020018083116118d157829003601f168201915b5050505050815260200160028201548152602001600382015481526020016004820154815250509050919050565b8160000361196d5760006010541161196d5760405162461bcd60e51b815260206004820152601460248201527314dada5b1b08191bd95cc81b9bdd08195e1a5e1d60621b6044820152606401610aab565b60105482106119b55760405162461bcd60e51b815260206004820152601460248201527314dada5b1b08191bd95cc81b9bdd08195e1a5cdd60621b6044820152606401610aab565b60008290506115888282600160405180602001604052806000815250612754565b600f60205260009081526040902080546001820180549192916119f890613c95565b80601f0160208091040260200160405190810160405280929190818152602001828054611a2490613c95565b8015611a715780601f10611a4657610100808354040283529160200191611a71565b820191906000526020600020905b815481529060010190602001808311611a5457829003601f168201915b50505060028401546003850154600486015460058701546006880154600789015460088a015460098b0154600a909b0154999a60ff9788169a96995094975092959194909391168b565b6005805461078d90613c95565b846001600160a01b0381163314611ae257611ae233611f07565b610b92868686868661282d565b336001600160a01b038416811480611b2c57506001600160a01b0380851660009081526003602090815260408083209385168352929052205460ff165b611b6c5760405162461bcd60e51b81526020600482015260116024820152702ab730b8383937bb32b21031b0b63632b960791b6044820152606401610aab565b6001600160a01b0384166000908152600260209081526040808320868452909152902054821115611bd95760405162461bcd60e51b8152602060048201526017602482015276139bdd08195b9bdd59da081d1bdad95b9cc81bdddb9959604a1b6044820152606401610aab565b61100f8484846128b5565b60606000611bf160095490565b905060006009805480602002602001604051908101604052809291908181526020018280548015611c4157602002820191906000526020600020905b815481526020019060010190808311611c2d575b5050505050905060005b82811015611d4557818181518110611c6557611c65613e5a565b6020026020010151851015611d3357600a6000838381518110611c8a57611c8a613e5a565b602002602001015181526020019081526020016000208054611cab90613c95565b80601f0160208091040260200160405190810160405280929190818152602001828054611cd790613c95565b8015611d245780601f10611cf957610100808354040283529160200191611d24565b820191906000526020600020905b815481529060010190602001808311611d0757829003601f168201915b50505050509350505050919050565b611d3e600182613ee2565b9050611c4b565b5060405162461bcd60e51b815260206004820152600f60248201526e125b9d985b1a59081d1bdad95b9259608a1b6044820152606401610aab565b606081600003611da75750506040805180820190915260018152600360fc1b602082015290565b8160005b8115611dd15780611dbb81613dea565b9150611dca9050600a83613ea5565b9150611dab565b6000816001600160401b03811115611deb57611deb6131c9565b6040519080825280601f01601f191660200182016040528015611e15576020820181803683370190505b5090505b8415611e8057611e2a600183613f5b565b9150611e37600a86613efa565b611e42906030613ee2565b60f81b818381518110611e5757611e57613e5a565b60200101906001600160f81b031916908160001a905350611e79600a86613ea5565b9450611e19565b949350505050565b6000611e9c6006546001600160a01b031690565b6001600160a01b0316336001600160a01b031614905090565b600680546001600160a01b038381166001600160a01b0319831681179093556040519116919082907f8292fce18fa69edf4db7b94ea2e58241df0ae57f97e0a6c9b29067028bf92d7690600090a35050565b600b5460ff1615610abd576daaeb6d7670e522a718067333cd4e3b15610abd57604051633185c44d60e21b81523060048201526001600160a01b03821660248201526daaeb6d7670e522a718067333cd4e9063c617113490604401602060405180830381865afa158015611f7f573d6000803e3d6000fd5b505050506040513d601f19601f82011682018060405250810190611fa39190613f72565b610abd57604051633b79c77360e21b81526001600160a01b0382166004820152602401610aab565b6001600160a01b03851633148061200557506001600160a01b038516600090815260036020908152604080832033845290915290205460ff165b6120465760405162461bcd60e51b81526020600482015260126024820152710853d5d3915497d3d497d054141493d5915160721b6044820152606401610aab565b61205385858585856129da565b5050505050565b600b805460ff19168215159081179091556040519081527f38475885990d8dfe9ca01f0ef160a1b5514426eab9ddbc953a3353410ba780969060200160405180910390a150565b6127108111156120e55760405162461bcd60e51b815260206004820152600f60248201526e45786365656473206d61782062707360881b6044820152606401610aab565b600780546001600160a01b0384166001600160b01b03199091168117600160a01b61ffff851602179091556040518281527f90d7ec04bcb8978719414f82e52e4cb651db41d0e6f8cea6118c2191e6183adb9060200160405180910390a25050565b6001600160a01b03831661218e5760405162461bcd60e51b815260206004820152600e60248201526d232927a6afad22a927afa0a2222960911b6044820152606401610aab565b80518251146121af5760405162461bcd60e51b8152600401610aab90613eb9565b60003390506121d281856000868660405180602001604052806000815250612b8d565b60005b835181101561229d5760008482815181106121f2576121f2613e5a565b60200260200101519050600084838151811061221057612210613e5a565b6020908102919091018101516001600160a01b03891660009081526002835260408082208683529093529190912054909150818110156122625760405162461bcd60e51b8152600401610aab90613f8f565b6001600160a01b038816600090815260026020908152604080832095835294905292909220910390558061229581613dea565b9150506121d5565b5060006001600160a01b0316846001600160a01b0316826001600160a01b03167f4a39dc06d4c0dbc64b70af90fd698a233a518aa5d07e595d983b8c0526c8f7fb86866040516122ee929190613fb9565b60405180910390a450505050565b60006005805461230b90613c95565b80601f016020809104026020016040519081016040528092919081815260200182805461233790613c95565b80156123845780601f1061235957610100808354040283529160200191612384565b820191906000526020600020905b81548152906001019060200180831161236757829003601f168201915b50505050509050816005908161239a9190613d15565b507fc9c7c3fe08b88b4df9d4d47ef47d2c43d55c025a0ba88ca442580ed9e7348a1681836040516123cc929190613fe7565b60405180910390a15050565b6000806123e58486613ee2565b60098054600181019091557f6e1540171b6c0c960b71a7020d9f60077f6af931a8bbf590da0223dacf75c7af018190556000818152600a602052604090209092508291506124338482613d15565b50935093915050565b6001600160a01b0384166124625760405162461bcd60e51b8152600401610aab9061400c565b81518351146124835760405162461bcd60e51b8152600401610aab90613eb9565b3361249381600087878787612b8d565b60005b845181101561252f578381815181106124b1576124b1613e5a565b602002602001015160026000886001600160a01b03166001600160a01b0316815260200190815260200160002060008784815181106124f2576124f2613e5a565b6020026020010151815260200190815260200160002060008282546125179190613ee2565b9091555081905061252781613dea565b915050612496565b50846001600160a01b031660006001600160a01b0316826001600160a01b03167f4a39dc06d4c0dbc64b70af90fd698a233a518aa5d07e595d983b8c0526c8f7fb8787604051612580929190613fb9565b60405180910390a461205381600087878787612c99565b6127108111156125db5760405162461bcd60e51b815260206004820152600f60248201526e45786365656473206d61782062707360881b6044820152606401610aab565b6040805180820182526001600160a01b038481168083526020808401868152600089815260088352869020945185546001600160a01b031916941693909317845591516001909301929092559151838152909185917f7365cf4122f072a3365c20d54eff9b38d73c096c28e1892ec8f5b0e403a0f12d91015b60405180910390a3505050565b336001600160a01b03831681036126ab5760405162461bcd60e51b815260206004820152600e60248201526d20a8282927ab24a723afa9a2a62360911b6044820152606401610aab565b6001600160a01b03818116600081815260036020908152604080832094881680845294825291829020805460ff191687151590811790915591519182527f17307eab39ab6107e8899845ad3d59bd9653f200f220920489ca2b5937696c319101612654565b606061273583836040518060600160405280602781526020016141b460279139612dec565b9392505050565b60008281526004602052604090206115888282613d15565b6001600160a01b03841661277a5760405162461bcd60e51b8152600401610aab9061400c565b3361279a8160008761278b88612ec9565b61279488612ec9565b87612b8d565b6001600160a01b0385166000908152600260209081526040808320878452909152812080548592906127cd908490613ee2565b909155505060408051858152602081018590526001600160a01b0380881692600092918516917fc3d58168c5ae7397731d063d5bbf3d657854427343f4c083240f7aacaa2d0f62910160405180910390a461205381600087878787612f14565b6001600160a01b03851633148061286757506001600160a01b038516600090815260036020908152604080832033845290915290205460ff165b6128a85760405162461bcd60e51b81526020600482015260126024820152710853d5d3915497d3d497d054141493d5915160721b6044820152606401610aab565b6120538585858585612ff1565b6001600160a01b0383166128fc5760405162461bcd60e51b815260206004820152600e60248201526d232927a6afad22a927afa0a2222960911b6044820152606401610aab565b3361292b8185600061290d87612ec9565b61291687612ec9565b60405180602001604052806000815250612b8d565b6001600160a01b03841660009081526002602090815260408083208684529091529020548281101561296f5760405162461bcd60e51b8152600401610aab90613f8f565b6001600160a01b03858116600081815260026020908152604080832089845282528083208887039055805189815291820188905291938616917fc3d58168c5ae7397731d063d5bbf3d657854427343f4c083240f7aacaa2d0f62910160405180910390a45050505050565b81518351146129fb5760405162461bcd60e51b8152600401610aab90613eb9565b6001600160a01b038416612a215760405162461bcd60e51b8152600401610aab9061400c565b33612a30818787878787612b8d565b60005b8451811015612b27576000858281518110612a5057612a50613e5a565b602002602001015190506000858381518110612a6e57612a6e613e5a565b6020908102919091018101516001600160a01b038b166000908152600283526040808220868352909352919091205490915081811015612ac05760405162461bcd60e51b8152600401610aab90613f8f565b6001600160a01b03808b16600090815260026020818152604080842088855282528084208787039055938d16835290815282822086835290529081208054849290612b0c908490613ee2565b9250508190555050505080612b2090613dea565b9050612a33565b50846001600160a01b0316866001600160a01b0316826001600160a01b03167f4a39dc06d4c0dbc64b70af90fd698a233a518aa5d07e595d983b8c0526c8f7fb8787604051612b77929190613fb9565b60405180910390a4610b92818787878787612c99565b6001600160a01b038516612c145760005b8351811015612c1257828181518110612bb957612bb9613e5a565b6020026020010151600d6000868481518110612bd757612bd7613e5a565b602002602001015181526020019081526020016000206000828254612bfc9190613ee2565b90915550612c0b905081613dea565b9050612b9e565b505b6001600160a01b038416610b925760005b835181101561139b57828181518110612c4057612c40613e5a565b6020026020010151600d6000868481518110612c5e57612c5e613e5a565b602002602001015181526020019081526020016000206000828254612c839190613f5b565b90915550612c92905081613dea565b9050612c25565b6001600160a01b0384163b15610b925760405163bc197c8160e01b81526001600160a01b0385169063bc197c8190612cdd9089908990889088908890600401614032565b6020604051808303816000875af1925050508015612d18575060408051601f3d908101601f19168201909252612d1591810190614090565b60015b612d9a57612d246140ad565b806308c379a003612d5d5750612d386140c9565b80612d435750612d5f565b8060405162461bcd60e51b8152600401610aab9190613356565b505b60405162461bcd60e51b815260206004820152601060248201526f10a2a92198989a9aa922a1a2a4ab22a960811b6044820152606401610aab565b6001600160e01b0319811663bc197c8160e01b1461139b5760405162461bcd60e51b815260206004820152600f60248201526e1513d2d15394d7d491529150d51151608a1b6044820152606401610aab565b60606001600160a01b0384163b612e545760405162461bcd60e51b815260206004820152602660248201527f416464726573733a2064656c65676174652063616c6c20746f206e6f6e2d636f6044820152651b9d1c9858dd60d21b6064820152608401610aab565b600080856001600160a01b031685604051612e6f9190614152565b600060405180830381855af49150503d8060008114612eaa576040519150601f19603f3d011682016040523d82523d6000602084013e612eaf565b606091505b5091509150612ebf828286613117565b9695505050505050565b60408051600180825281830190925260609160009190602080830190803683370190505090508281600081518110612f0357612f03613e5a565b602090810291909101015292915050565b6001600160a01b0384163b15610b925760405163f23a6e6160e01b81526001600160a01b0385169063f23a6e6190612f58908990899088908890889060040161416e565b6020604051808303816000875af1925050508015612f93575060408051601f3d908101601f19168201909252612f9091810190614090565b60015b612f9f57612d246140ad565b6001600160e01b0319811663f23a6e6160e01b1461139b5760405162461bcd60e51b815260206004820152600f60248201526e1513d2d15394d7d491529150d51151608a1b6044820152606401610aab565b6001600160a01b0384166130175760405162461bcd60e51b8152600401610aab9061400c565b3361302781878761278b88612ec9565b6001600160a01b03861660009081526002602090815260408083208784529091529020548381101561306b5760405162461bcd60e51b8152600401610aab90613f8f565b6001600160a01b0380881660009081526002602081815260408084208a855282528084208987039055938a168352908152828220888352905290812080548692906130b7908490613ee2565b909155505060408051868152602081018690526001600160a01b03808916928a821692918616917fc3d58168c5ae7397731d063d5bbf3d657854427343f4c083240f7aacaa2d0f62910160405180910390a461139b828888888888612f14565b60608315613126575081612735565b8251156131365782518084602001fd5b8160405162461bcd60e51b8152600401610aab9190613356565b80356001600160a01b038116811461316757600080fd5b919050565b6000806040838503121561317f57600080fd5b61318883613150565b946020939093013593505050565b6001600160e01b031981168114610abd57600080fd5b6000602082840312156131be57600080fd5b813561273581613196565b634e487b7160e01b600052604160045260246000fd5b601f8201601f191681016001600160401b0381118282101715613204576132046131c9565b6040525050565b600082601f83011261321c57600080fd5b81356001600160401b03811115613235576132356131c9565b60405161324c601f8301601f1916602001826131df565b81815284602083860101111561326157600080fd5b816020850160208301376000918101602001919091529392505050565b600080600080600060a0868803121561329657600080fd5b85356001600160401b03808211156132ad57600080fd5b6132b989838a0161320b565b965060208801359550604088013594506060880135935060808801359150808211156132e457600080fd5b506132f18882890161320b565b9150509295509295909350565b60005b83811015613319578181015183820152602001613301565b8381111561100f5750506000910152565b600081518084526133428160208601602086016132fe565b601f01601f19169290920160200192915050565b602081526000612735602083018461332a565b60006020828403121561337b57600080fd5b5035919050565b6020815281516020820152600060208301516101608060408501526133ab61018085018361332a565b915060408501516133c0606086018215159052565b5060608501516080850152608085015160a085015260a085015160c085015260c085015160e085015260e08501516101008181870152808701519150506101208181870152808701519150506101408181870152808701519150506134288286018215159052565b5090949350505050565b60006020828403121561344457600080fd5b61273582613150565b6000806040838503121561346057600080fd5b50508035926020909101359150565b60006001600160401b03821115613488576134886131c9565b5060051b60200190565b600082601f8301126134a357600080fd5b813560206134b08261346f565b6040516134bd82826131df565b83815260059390931b85018201928281019150868411156134dd57600080fd5b8286015b848110156134f857803583529183019183016134e1565b509695505050505050565b600080600080600060a0868803121561351b57600080fd5b61352486613150565b945061353260208701613150565b935060408601356001600160401b038082111561354e57600080fd5b61355a89838a01613492565b9450606088013591508082111561357057600080fd5b61357c89838a01613492565b935060808801359150808211156132e457600080fd5b8015158114610abd57600080fd5b6000602082840312156135b257600080fd5b813561273581613592565b600080604083850312156135d057600080fd5b82356001600160401b03808211156135e757600080fd5b818501915085601f8301126135fb57600080fd5b813560206136088261346f565b60405161361582826131df565b83815260059390931b850182019282810191508984111561363557600080fd5b948201945b8386101561365a5761364b86613150565b8252948201949082019061363a565b9650508601359250508082111561367057600080fd5b5061367d85828601613492565b9150509250929050565b600081518084526020808501945080840160005b838110156136b75781518752958201959082019060010161369b565b509495945050505050565b6020815260006127356020830184613687565b85815260a0602082015260006136ee60a083018761332a565b604083019590955250606081019290925260809091015292915050565b60008060006060848603121561372057600080fd5b61372984613150565b925060208401356001600160401b038082111561374557600080fd5b61375187838801613492565b9350604086013591508082111561376757600080fd5b5061377486828701613492565b9150509250925092565b6000806000806000806000806000806101408b8d03121561379e57600080fd5b8a356001600160401b038111156137b457600080fd5b6137c08d828e0161320b565b9a505060208b0135985060408b01356137d881613592565b975060608b0135965060808b0135955060a08b0135945060c08b0135935060e08b013592506101008b013591506101208b013561381481613592565b809150509295989b9194979a5092959850565b60006020828403121561383957600080fd5b81356001600160401b0381111561384f57600080fd5b611e808482850161320b565b6000806000806080858703121561387157600080fd5b61387a85613150565b935060208501356001600160401b038082111561389657600080fd5b6138a288838901613492565b945060408701359150808211156138b857600080fd5b6138c488838901613492565b935060608701359150808211156138da57600080fd5b506138e78782880161320b565b91505092959194509250565b60008060006060848603121561390857600080fd5b8335925061391860208501613150565b9150604084013590509250925092565b6000806040838503121561393b57600080fd5b61394483613150565b9150602083013561395481613592565b809150509250929050565b6000806020838503121561397257600080fd5b82356001600160401b038082111561398957600080fd5b818501915085601f83011261399d57600080fd5b8135818111156139ac57600080fd5b8660208260051b85010111156139c157600080fd5b60209290920196919550909350505050565b6000602080830181845280855180835260408601915060408160051b870101925083870160005b82811015613a2857603f19888603018452613a1685835161332a565b945092850192908501906001016139fa565b5092979650505050505050565b60008060008060808587031215613a4b57600080fd5b613a5485613150565b93506020850135925060408501356001600160401b03811115613a7657600080fd5b613a828782880161320b565b949793965093946060013593505050565b600080600080600060a08688031215613aab57600080fd5b8535945060208601356001600160401b03811115613ac857600080fd5b613ad48882890161320b565b959895975050505060408401359360608101359360809091013592509050565b60208152815160208201526000602083015160a06040840152613b1a60c084018261332a565b90506040840151606084015260608401516080840152608084015160a08401528091505092915050565b60008060408385031215613b5757600080fd5b82359150613b6760208401613150565b90509250929050565b60006101608d8352806020840152613b8a8184018e61332a565b9b1515604084015250506060810198909852608088019690965260a087019490945260c086019290925260e085015261010084015261012083015215156101409091015292915050565b60008060408385031215613be757600080fd5b613bf083613150565b9150613b6760208401613150565b600080600080600060a08688031215613c1657600080fd5b613c1f86613150565b9450613c2d60208701613150565b9350604086013592506060860135915060808601356001600160401b03811115613c5657600080fd5b6132f18882890161320b565b600080600060608486031215613c7757600080fd5b613c8084613150565b95602085013595506040909401359392505050565b600181811c90821680613ca957607f821691505b602082108103613cc957634e487b7160e01b600052602260045260246000fd5b50919050565b601f82111561158857600081815260208120601f850160051c81016020861015613cf65750805b601f850160051c820191505b81811015610b9257828155600101613d02565b81516001600160401b03811115613d2e57613d2e6131c9565b613d4281613d3c8454613c95565b84613ccf565b602080601f831160018114613d775760008415613d5f5750858301515b600019600386901b1c1916600185901b178555610b92565b600085815260208120601f198616915b82811015613da657888601518255948401946001909101908401613d87565b5085821015613dc45787850151600019600388901b60f8161c191681555b5050505050600190811b01905550565b634e487b7160e01b600052601160045260246000fd5b600060018201613dfc57613dfc613dd4565b5060010190565b60008351613e158184602088016132fe565b835190830190613e298183602088016132fe565b01949350505050565b6020808252600e908201526d139bdd08185d5d1a1bdc9a5e995960921b604082015260600190565b634e487b7160e01b600052603260045260246000fd5b6000816000190483118215151615613e8a57613e8a613dd4565b500290565b634e487b7160e01b600052601260045260246000fd5b600082613eb457613eb4613e8f565b500490565b6020808252600f908201526e0988a9c8ea890be9a92a69a82a8869608b1b604082015260600190565b60008219821115613ef557613ef5613dd4565b500190565b600082613f0957613f09613e8f565b500690565b6000808335601e19843603018112613f2557600080fd5b8301803591506001600160401b03821115613f3f57600080fd5b602001915036819003821315613f5457600080fd5b9250929050565b600082821015613f6d57613f6d613dd4565b500390565b600060208284031215613f8457600080fd5b815161273581613592565b60208082526010908201526f125394d551919250d251539517d0905360821b604082015260600190565b604081526000613fcc6040830185613687565b8281036020840152613fde8185613687565b95945050505050565b604081526000613ffa604083018561332a565b8281036020840152613fde818561332a565b6020808252600c908201526b2a27afad22a927afa0a2222960a11b604082015260600190565b6001600160a01b0386811682528516602082015260a06040820181905260009061405e90830186613687565b82810360608401526140708186613687565b90508281036080840152614084818561332a565b98975050505050505050565b6000602082840312156140a257600080fd5b815161273581613196565b600060033d11156140c65760046000803e5060005160e01c5b90565b600060443d10156140d75790565b6040516003193d81016004833e81513d6001600160401b03816024840111818411171561410657505050505090565b828501915081518181111561411e5750505050505090565b843d87010160208285010111156141385750505050505090565b614147602082860101876131df565b509095945050505050565b600082516141648184602087016132fe565b9190910192915050565b6001600160a01b03868116825285166020820152604081018490526060810183905260a0608082018190526000906141a89083018461332a565b97965050505050505056fe416464726573733a206c6f772d6c6576656c2064656c65676174652063616c6c206661696c6564a2646970667358221220880bc62738eab849af1df9ad3d73af710a5694540044bf4fc9e259714ef6fbb264736f6c634300080f0033",
  "linkReferences": {},
  "deployedLinkReferences": {}
}