{
  "_format": "hh-sol-artifact-1",
  "contractName": "BattleHelper",
  "sourceName": "contracts/BattleHelper.sol",
  "abi": [
    {
      "inputs": [
        {
          "internalType": "address",
          "name": "_characterContractAddress",
          "type": "address"
        },
        {
          "internalType": "address",
          "name": "_battleSkillsContractAddress",
          "type": "address"
        },
        {
          "internalType": "address",
          "name": "_battleEffectsContractAddress",
          "type": "address"
        },
        {
          "internalType": "address",
          "name": "_compositeTokensContractAddress",
          "type": "address"
        }
      ],
      "stateMutability": "nonpayable",
      "type": "constructor"
    },
    {
      "anonymous": false,
      "inputs": [
        {
          "indexed": false,
          "internalType": "uint256",
          "name": "battleId",
          "type": "uint256"
        },
        {
          "indexed": false,
          "internalType": "address",
          "name": "player",
          "type": "address"
        },
        {
          "indexed": false,
          "internalType": "uint256",
          "name": "id",
          "type": "uint256"
        },
        {
          "indexed": false,
          "internalType": "address",
          "name": "owner",
          "type": "address"
        },
        {
          "indexed": false,
          "internalType": "uint256",
          "name": "health",
          "type": "uint256"
        },
        {
          "indexed": false,
          "internalType": "uint256",
          "name": "attack",
          "type": "uint256"
        },
        {
          "indexed": false,
          "internalType": "uint256",
          "name": "defense",
          "type": "uint256"
        },
        {
          "indexed": false,
          "internalType": "uint256",
          "name": "mana",
          "type": "uint256"
        },
        {
          "indexed": false,
          "internalType": "uint256",
          "name": "typeId",
          "type": "uint256"
        },
        {
          "indexed": false,
          "internalType": "uint256[]",
          "name": "equippedSkills",
          "type": "uint256[]"
        }
      ],
      "name": "CharacterProxyData",
      "type": "event"
    },
    {
      "anonymous": false,
      "inputs": [
        {
          "indexed": true,
          "internalType": "uint256",
          "name": "battleId",
          "type": "uint256"
        },
        {
          "indexed": true,
          "internalType": "address",
          "name": "player",
          "type": "address"
        },
        {
          "indexed": false,
          "internalType": "uint256",
          "name": "round",
          "type": "uint256"
        },
        {
          "indexed": false,
          "internalType": "uint256",
          "name": "diceNumber",
          "type": "uint256"
        }
      ],
      "name": "DiceRolled",
      "type": "event"
    },
    {
      "anonymous": false,
      "inputs": [
        {
          "indexed": true,
          "internalType": "address",
          "name": "prevOwner",
          "type": "address"
        },
        {
          "indexed": true,
          "internalType": "address",
          "name": "newOwner",
          "type": "address"
        }
      ],
      "name": "OwnerUpdated",
      "type": "event"
    },
    {
      "anonymous": false,
      "inputs": [
        {
          "indexed": true,
          "internalType": "uint256",
          "name": "battleId",
          "type": "uint256"
        },
        {
          "indexed": false,
          "internalType": "address[2]",
          "name": "damagedPlayers",
          "type": "address[2]"
        },
        {
          "indexed": false,
          "internalType": "uint256[2]",
          "name": "damageDealt",
          "type": "uint256[2]"
        },
        {
          "indexed": false,
          "internalType": "uint256[2]",
          "name": "damageTaken",
          "type": "uint256[2]"
        },
        {
          "indexed": true,
          "internalType": "uint256",
          "name": "round",
          "type": "uint256"
        }
      ],
      "name": "RoundEnded",
      "type": "event"
    },
    {
      "anonymous": false,
      "inputs": [
        {
          "indexed": true,
          "internalType": "uint256",
          "name": "battleId",
          "type": "uint256"
        },
        {
          "indexed": false,
          "internalType": "uint256",
          "name": "round",
          "type": "uint256"
        },
        {
          "indexed": true,
          "internalType": "address",
          "name": "player",
          "type": "address"
        },
        {
          "indexed": false,
          "internalType": "uint256",
          "name": "skillId",
          "type": "uint256"
        },
        {
          "indexed": false,
          "internalType": "string",
          "name": "skillName",
          "type": "string"
        },
        {
          "indexed": false,
          "internalType": "uint256",
          "name": "totalDamage",
          "type": "uint256"
        }
      ],
      "name": "SkillExecuted",
      "type": "event"
    },
    {
      "anonymous": false,
      "inputs": [
        {
          "indexed": true,
          "internalType": "uint256",
          "name": "battleId",
          "type": "uint256"
        },
        {
          "indexed": false,
          "internalType": "uint256",
          "name": "round",
          "type": "uint256"
        },
        {
          "indexed": true,
          "internalType": "address",
          "name": "character",
          "type": "address"
        },
        {
          "indexed": false,
          "internalType": "string",
          "name": "statusEffectName",
          "type": "string"
        },
        {
          "indexed": false,
          "internalType": "uint256",
          "name": "duration",
          "type": "uint256"
        }
      ],
      "name": "StatusEffectApplied",
      "type": "event"
    },
    {
      "anonymous": false,
      "inputs": [
        {
          "indexed": true,
          "internalType": "uint256",
          "name": "battleId",
          "type": "uint256"
        },
        {
          "indexed": true,
          "internalType": "address",
          "name": "player",
          "type": "address"
        },
        {
          "indexed": false,
          "internalType": "uint256",
          "name": "effectId",
          "type": "uint256"
        },
        {
          "indexed": false,
          "internalType": "string",
          "name": "effectName",
          "type": "string"
        },
        {
          "indexed": false,
          "internalType": "string",
          "name": "effectType",
          "type": "string"
        },
        {
          "indexed": false,
          "internalType": "uint256",
          "name": "effectValue",
          "type": "uint256"
        },
        {
          "indexed": false,
          "internalType": "uint256",
          "name": "round",
          "type": "uint256"
        },
        {
          "indexed": false,
          "internalType": "uint256",
          "name": "duration",
          "type": "uint256"
        }
      ],
      "name": "StatusEffectResolved",
      "type": "event"
    },
    {
      "inputs": [],
      "name": "battleContractAddress",
      "outputs": [
        {
          "internalType": "address",
          "name": "",
          "type": "address"
        }
      ],
      "stateMutability": "view",
      "type": "function"
    },
    {
      "inputs": [
        {
          "internalType": "uint256",
          "name": "tokenId",
          "type": "uint256"
        },
        {
          "internalType": "address",
          "name": "player",
          "type": "address"
        },
        {
          "internalType": "uint256",
          "name": "battleId",
          "type": "uint256"
        }
      ],
      "name": "createCharacterProxies",
      "outputs": [
        {
          "internalType": "uint256",
          "name": "",
          "type": "uint256"
        },
        {
          "internalType": "uint256",
          "name": "",
          "type": "uint256"
        }
      ],
      "stateMutability": "nonpayable",
      "type": "function"
    },
    {
      "inputs": [
        {
          "internalType": "uint256",
          "name": "battleId",
          "type": "uint256"
        },
        {
          "internalType": "address",
          "name": "player",
          "type": "address"
        },
        {
          "internalType": "uint256",
          "name": "battleRound",
          "type": "uint256"
        }
      ],
      "name": "generateAndSetAttackMultiplier",
      "outputs": [],
      "stateMutability": "nonpayable",
      "type": "function"
    },
    {
      "inputs": [
        {
          "internalType": "uint256",
          "name": "battleId",
          "type": "uint256"
        },
        {
          "internalType": "address",
          "name": "player",
          "type": "address"
        }
      ],
      "name": "getCharacterProxy",
      "outputs": [
        {
          "components": [
            {
              "internalType": "uint256",
              "name": "id",
              "type": "uint256"
            },
            {
              "internalType": "address",
              "name": "owner",
              "type": "address"
            },
            {
              "internalType": "uint256",
              "name": "health",
              "type": "uint256"
            },
            {
              "internalType": "uint256",
              "name": "attack",
              "type": "uint256"
            },
            {
              "internalType": "uint256",
              "name": "defense",
              "type": "uint256"
            },
            {
              "internalType": "uint256",
              "name": "mana",
              "type": "uint256"
            },
            {
              "internalType": "uint256",
              "name": "typeId",
              "type": "uint256"
            },
            {
              "internalType": "uint256[]",
              "name": "equippedSkills",
              "type": "uint256[]"
            }
          ],
          "internalType": "struct StructsLibrary.CharacterProxyView",
          "name": "",
          "type": "tuple"
        }
      ],
      "stateMutability": "view",
      "type": "function"
    },
    {
      "inputs": [
        {
          "internalType": "uint256",
          "name": "battleId",
          "type": "uint256"
        },
        {
          "internalType": "address",
          "name": "player",
          "type": "address"
        }
      ],
      "name": "getCharacterProxyActiveEffects",
      "outputs": [
        {
          "internalType": "uint256[]",
          "name": "effectIds",
          "type": "uint256[]"
        },
        {
          "internalType": "uint256[]",
          "name": "durations",
          "type": "uint256[]"
        }
      ],
      "stateMutability": "view",
      "type": "function"
    },
    {
      "inputs": [],
      "name": "owner",
      "outputs": [
        {
          "internalType": "address",
          "name": "",
          "type": "address"
        }
      ],
      "stateMutability": "view",
      "type": "function"
    },
    {
      "inputs": [
        {
          "internalType": "uint256",
          "name": "battleId",
          "type": "uint256"
        }
      ],
      "name": "resolveRound",
      "outputs": [],
      "stateMutability": "nonpayable",
      "type": "function"
    },
    {
      "inputs": [
        {
          "internalType": "address payable",
          "name": "_battleContractAddress",
          "type": "address"
        }
      ],
      "name": "setBattleContractAddress",
      "outputs": [],
      "stateMutability": "nonpayable",
      "type": "function"
    },
    {
      "inputs": [
        {
          "internalType": "address",
          "name": "_newOwner",
          "type": "address"
        }
      ],
      "name": "setOwner",
      "outputs": [],
      "stateMutability": "nonpayable",
      "type": "function"
    }
  ],
  "bytecode": "0x60806040523480156200001157600080fd5b5060405162003a4438038062003a44833981016040819052620000349162000100565b6200003f3362000093565b600180546001600160a01b039586166001600160a01b03199182161790915560028054948616948216949094179093556003805492851692841692909217909155600480549190931691161790556200015d565b600080546001600160a01b038381166001600160a01b0319831681178455604051919092169283917f8292fce18fa69edf4db7b94ea2e58241df0ae57f97e0a6c9b29067028bf92d769190a35050565b80516001600160a01b0381168114620000fb57600080fd5b919050565b600080600080608085870312156200011757600080fd5b6200012285620000e3565b93506200013260208601620000e3565b92506200014260408601620000e3565b91506200015260608601620000e3565b905092959194509250565b6138d7806200016d6000396000f3fe608060405234801561001057600080fd5b50600436106100935760003560e01c806367e543671161006657806367e54367146100e657806368b4dcaf146101165780638da5cb5b1461013e578063daf241aa1461014f578063dc55da6f1461017057600080fd5b806313af4035146100985780631eaaa1ea146100ad57806346864cd8146100c0578063650b8725146100d3575b600080fd5b6100ab6100a6366004612944565b610190565b005b6100ab6100bb366004612968565b6101aa565b6100ab6100ce366004612944565b610283565b6100ab6100e13660046129a0565b6102fa565b6006546100f9906001600160a01b031681565b6040516001600160a01b0390911681526020015b60405180910390f35b610129610124366004612968565b6107e8565b6040805192835260208301919091520161010d565b6000546001600160a01b03166100f9565b61016261015d3660046129b9565b610a04565b60405161010d929190612a24565b61018361017e3660046129b9565b610b81565b60405161010d9190612a52565b61019e565b60405180910390fd5b6101a781610ccf565b50565b6006546001600160a01b031633146101d45760405162461bcd60e51b815260040161019590612af7565b600083836040516020016101e9929190612b38565b60408051601f1981840301815291815281516020928301206000818152600784528281206001600160a01b03881682529093529082209092509061022b610d1f565b600f830181905560408051868152602081018390529192506001600160a01b0387169188917f44c60cf2e549d3f07067958fb2907081416087b158fe86d2ddad6ec761790c58910160405180910390a3505050505050565b6000546001600160a01b031633146102ce5760405162461bcd60e51b815260206004820152600e60248201526d139bdd08185d5d1a1bdc9a5e995960921b6044820152606401610195565b600680546001600160a01b039092166001600160a01b0319928316811790915560058054909216179055565b6006546001600160a01b031633146103245760405162461bcd60e51b815260040161019590612af7565b6005546040516336e8673d60e11b8152600481018390526000916001600160a01b031690636dd0ce7a90602401600060405180830381865afa15801561036e573d6000803e3d6000fd5b505050506040513d6000823e601f3d908101601f191682016040526103969190810190612ebe565b905060006103bf8383604001516000600281106103b5576103b5612fe6565b6020020151610da9565b905060006103de8484604001516001600281106103b5576103b5612fe6565b90506103e86127ab565b6103f06127ab565b6103f86127ab565b6104088787610120015187610dfd565b815261012086015161041c90889086610dfd565b602082015261010086015151610436576080860151600390525b610100860151602001516104535760036080870151600160200201525b600e85015460ff161561046a576080860151600390525b600e84015460ff16156104865760036080870151600160200201525b610491868686610fda565b60808101515190965060021480156104b157506080860151602001516002145b6104c5576104c0868686611084565b935091505b6080860151516001190161051d5761050f86876101200151878960a001516000600281106104f5576104f5612fe6565b602002015160808b01518990600160200201516001611210565b83526001600160a01b031683525b6080860151602001516001190161057e5761056486876101200151868960a0015160016002811061055057610550612fe6565b602002015160808b0151518a906000611210565b6020848101919091526001600160a01b0391909116908401525b61058b8186868587611573565b6001600f86810182905585015581516101408701516040015180516105b1908390613012565b9052506020808301516101408801516040015190910180516105d4908390613012565b90525060208201516101408701516060015180516105f3908390613012565b9052508151610140870151606001516020018051610612908390613012565b9052506101208601516040805180820182526020858101518252855190820152905189917f1c18d51d882ce69ed20679aff51d0bc25f77878b0bbc4051e6d9ab2342f5e47f9161066691889188919061307a565b60405180910390a36003850154158061068157506003840154155b156107235760038085015490860154600091106106aa57604087015160015b60200201516106b1565b6040870151515b600554604051631c06fbb960e21b8152600481018b90526001600160a01b03808416602483015292935091169063701beee490604401600060405180830381600087803b15801561070157600080fd5b505af1158015610715573d6000803e3d6000fd5b505050505050505050505050565b600c8661012001511061074f576003808501549086015460009111156106aa57604087015160016106a0565b610100860180516000908190529051602001526101208601805160019190610778908390613012565b90525060055460405163b984a9a360e01b81526001600160a01b039091169063b984a9a3906107ad908a908a906004016131bf565b600060405180830381600087803b1580156107c757600080fd5b505af11580156107db573d6000803e3d6000fd5b5050505050505050505050565b60065460009081906001600160a01b031633146108175760405162461bcd60e51b815260040161019590612af7565b6000838560405160200161082c929190612b38565b60408051808303601f1901815290829052805160209091012060015462d8301960e41b8352600483018990529092506000916001600160a01b0390911690630d83019090602401600060405180830381865afa158015610890573d6000803e3d6000fd5b505050506040513d6000823e601f3d908101601f191682016040526108b89190810190613334565b60008381526007602081815260408084206001600160a01b038c16808652908352938190208c81556001810180546001600160a01b031916909517909455845160028501558185015192840192909255908301516008830155606083015160038301556080830151600483015560a0830151600583015560c0830151600683015560e083015160098301556101008301518051939450919261096092600a85019201906127c9565b507f3f6e56e1bcf6454c5e7f32cffe9f99778fd7cf50a886af17d91dcebb8e35250f868883600001548460010160009054906101000a90046001600160a01b0316856002016001015486600201600201548760020160030154886002016004015489600201600701548a600a016040516109e39a999897969594939291906133f5565b60405180910390a16003810154600690910154909890975095505050505050565b60608060008484604051602001610a1c929190612b38565b60408051601f1981840301815291815281516020928301206000818152600784528281206001600160a01b03891682529093529120600b81015491925090806001600160401b03811115610a7257610a72612b58565b604051908082528060200260200182016040528015610a9b578160200160208202803683370190505b509450806001600160401b03811115610ab657610ab6612b58565b604051908082528060200260200182016040528015610adf578160200160208202803683370190505b50935060005b81811015610b7657600083600b018281548110610b0457610b04612fe6565b9060005260206000200154905080878381518110610b2457610b24612fe6565b60200260200101818152505083600c01600082815260200190815260200160002054868381518110610b5857610b58612fe6565b60209081029190910101525080610b6e81613492565b915050610ae5565b505050509250929050565b610bd26040518061010001604052806000815260200160006001600160a01b031681526020016000815260200160008152602001600081526020016000815260200160008152602001606081525090565b60008383604051602001610be7929190612b38565b60408051601f1981840301815282825280516020918201206000818152600783528381206001600160a01b03808a16835290845284822061010087018652805487526001810154909116868501526003810154868601526004810154606087015260058101546080870152600681015460a0870152600981015460c0870152600a8101805486518187028101870190975280875293975090959194919360e085019390830182828015610cb957602002820191906000526020600020905b815481526020019060010190808311610ca5575b5050509190925250909450505050505b92915050565b600080546001600160a01b038381166001600160a01b0319831681178455604051919092169283917f8292fce18fa69edf4db7b94ea2e58241df0ae57f97e0a6c9b29067028bf92d769190a35050565b6000806014444233604051602001610d5c93929190928352602083019190915260601b6bffffffffffffffffffffffff1916604082015260540190565b6040516020818303038152906040528051906020012060001c610d7f91906134c1565b610d8a906001613012565b9050610d978160646134d5565b610da3906103e8613012565b91505090565b6000808383604051602001610dbf929190612b38565b60408051601f1981840301815291815281516020928301206000908152600783528181206001600160a01b0387168252909252902091505092915050565b6000806000806000806000806000610e35600360009054906101000a90046001600160a01b03168c8c6115dd9092919063ffffffff16565b9750975097509750975097509750975060005b8651811015610fc957878015610ec457506040516339ba3ab760e11b602082015260240160405160208183030381529060405280519060200120858281518110610e9457610e94612fe6565b6020026020010151604051602001610eac91906134ec565b60405160208183030381529060405280519060200120145b15610fb75760018b015487516001600160a01b03909116908e907f42cc68fd968d66bad9f556a6420453409337a500953cec681ce375d56c143d8e908a9085908110610f1257610f12612fe6565b6020026020010151898581518110610f2c57610f2c612fe6565b6020026020010151898681518110610f4657610f46612fe6565b6020026020010151898781518110610f6057610f60612fe6565b6020026020010151898881518110610f7a57610f7a612fe6565b6020026020010151898981518110610f9457610f94612fe6565b6020026020010151604051610fae96959493929190613508565b60405180910390a35b80610fc181613492565b915050610e48565b50969b9a5050505050505050505050565b610fe2612814565b6080840151516000190161102c5760038360020160040160008282546110089190613012565b909155505061014084015160c00151805160039190611028908390613012565b9052505b6080840151602001516000190161107c5760038260020160040160008282546110559190613012565b909155505061014084015160c00151602001805160039190611078908390613012565b9052505b509192915050565b61108c6127ab565b6110946127ab565b61109c6127ab565b6110a46127ab565b60006110b08787611ebf565b60646110ba611f51565b6110c491906134c1565b10905060006110d38789611ebf565b60646110dd611f51565b6110e791906134c1565b1090506000896080015160006002811061110357611103612fe6565b6020908102919091015160808c01519091015190915081158015611125575080155b15611140576111378b8b8b8787611f8d565b965094506111ff565b8115801561114e5750600181145b1561115f576111378b8b8b876120d0565b60018214801561116d575080155b1561117e576111378b8b8b8661219c565b8115801561118c5750600381145b1561119d576111378b8b8b8761225e565b6003821480156111ab575080155b156111bc576111378b8b8b866122f8565b811580156111ca5750600281145b156111db576111378b8b8b8761225e565b6002821480156111e9575080155b156111ff576111fa8b8b8b866122f8565b965094505b509299939850929650505050505050565b6000806000806127108811156112a7576004805460405163681377c960e01b81529182018a90526000916001600160a01b039091169063681377c99060240161014060405180830381865afa15801561126d573d6000803e3d6000fd5b505050506040513d601f19601f820116820180604052508101906112919190613561565b90508060c0015192508060e001519150506112ae565b5086905060005b600254604051635ec407d760e11b8152600481018490526000916001600160a01b03169063bd880fae90602401600060405180830381865afa1580156112f8573d6000803e3d6000fd5b505050506040513d6000823e601f3d908101601f1916820160405261132091908101906135f6565b905060006103e882604001518c600f015461133b91906134d5565b6113459190613699565b90506113548b600f0154612398565b6113618260400151612398565b61136a81612398565b600188036113df5760058901548111611384576000611393565b600589015461139390826136ad565b9050808960020160010154116113ad5760058901546113af565b805b8d61014001516080015188600281106113ca576113ca612fe6565b602002018181516113db9190613012565b9052505b8015611428576003890154811015611420578089600201600101600082825461140891906136ad565b9091555050600389015461141b90612398565b611428565b600060038a01555b8a60010160009054906101000a90046001600160a01b03166001600160a01b03168d600001517f1ecb56d20fc766331c458aed06ae76e03aa301e223d100edbc01a21eaf7ffa228e8786602001518660405161148794939291906136c0565b60405180910390a3606082015160068c0180546000906114a89084906136ad565b90915550508215611543578c51600354604051631187bd5160e01b81526004810186905261154392918f916001600160a01b0390911690631187bd5190602401600060405180830381865afa158015611505573d6000803e3d6000fd5b505050506040513d6000823e601f3d908101601f1916820160405261152d91908101906136f0565b6040015161153b578b61153d565b8d5b866123dd565b60008111611552576000611561565b60018901546001600160a01b03165b9d909c509a5050505050505050505050565b84511561158b5760018401546001600160a01b031681525b6020850151156115a95760018301546001600160a01b031660208201525b8451825183906115ba908390613012565b90525060208086015190830180516115d3908390613012565b9052505050505050565b600b8301546000908190606090819081908190819081906001600160401b0381111561160b5761160b612b58565b604051908082528060200260200182016040528015611634578160200160208202803683370190505b50600b8c01549096506001600160401b0381111561165457611654612b58565b60405190808252806020026020018201604052801561168757816020015b60608152602001906001900390816116725790505b50600b8c01549095506001600160401b038111156116a7576116a7612b58565b6040519080825280602002602001820160405280156116da57816020015b60608152602001906001900390816116c55790505b50600b8c01549094506001600160401b038111156116fa576116fa612b58565b604051908082528060200260200182016040528015611723578160200160208202803683370190505b50600b8c01549093506001600160401b0381111561174357611743612b58565b60405190808252806020026020018201604052801561176c578160200160208202803683370190505b50600b8c01549092506001600160401b0381111561178c5761178c612b58565b6040519080825280602002602001820160405280156117b5578160200160208202803683370190505b50905060005b600b8c0154811015611e9f5760008c600b0182815481106117de576117de612fe6565b6000918252602082200154604051631187bd5160e01b8152600481018290529092506001600160a01b038e1690631187bd5190602401600060405180830381865afa158015611831573d6000803e3d6000fd5b505050506040513d6000823e601f3d908101601f1916820160405261185991908101906136f0565b9050806101400151801561187c57506000828152600c8f01602052604090205415155b156118e057600199506040518060400160405280600481526020016339ba3ab760e11b8152508784815181106118b4576118b4612fe6565b602002602001018190525060018684815181106118d3576118d3612fe6565b6020026020010181815250505b6000828152600c8f01602052604081208054600192906119019084906136ad565b90915550506080810151156119845761191f8e8383608001516124c3565b6040518060400160405280600b81526020016a185d1d1858dad09bdbdcdd60aa1b81525087848151811061195557611955612fe6565b6020026020010181905250806080015186848151811061197757611977612fe6565b6020026020010181815250505b60a081015115611a065761199d8e838360a00151612515565b6040518060400160405280600f81526020016e30ba3a30b1b5a932b23ab1ba34b7b760891b8152508784815181106119d7576119d7612fe6565b60200260200101819052508060a001518684815181106119f9576119f9612fe6565b6020026020010181815250505b60c081015115611a8557611a1f8e838360c00151612574565b6040518060400160405280600c81526020016b191959995b9cd9509bdbdcdd60a21b815250878481518110611a5657611a56612fe6565b60200260200101819052508060c00151868481518110611a7857611a78612fe6565b6020026020010181815250505b60e081015115611b0857611a9e8e838360e001516125bb565b6040518060400160405280601081526020016f3232b332b739b2a932b23ab1ba34b7b760811b815250878481518110611ad957611ad9612fe6565b60200260200101819052508060e00151868481518110611afb57611afb612fe6565b6020026020010181815250505b61010081015115611b8857611b228e82610100015161261a565b6040518060400160405280600b81526020016a3432b0b62832b92a3ab93760a91b815250878481518110611b5857611b58612fe6565b6020026020010181905250806101000151868481518110611b7b57611b7b612fe6565b6020026020010181815250505b61012081015115611c3f5760008e600201600101549050611bae8f83610120015161263a565b60038f0154811115611bd65760038f0154611bc990826136ad565b611bd3908d613012565b9b505b6040518060400160405280600d81526020016c3230b6b0b3b2a832b92a3ab93760991b815250888581518110611c0e57611c0e612fe6565b6020026020010181905250816101200151878581518110611c3157611c31612fe6565b602002602001018181525050505b6000828152600c8f0160205260408120549003611df657608081015115611c9757608081015160048f018054600090611c799084906136ad565b90915550506000828152600d8f0160205260409020805460ff191690555b60a081015115611cd85760a081015160048f018054600090611cba908490613012565b90915550506000828152600d8f0160205260409020805460ff191690555b60c081015115611d195760c081015160058f018054600090611cfb9084906136ad565b90915550506000828152600d8f0160205260409020805460ff191690555b60e081015115611d5a5760e081015160058f018054600090611d3c908490613012565b90915550506000828152600d8f0160205260409020805460ff191690555b600b8e015460011015611db657600b8e018054611d79906001906136ad565b81548110611d8957611d89612fe6565b90600052602060002001548e600b018481548110611da957611da9612fe6565b6000918252602090912001555b8d600b01805480611dc957611dc96137da565b600190038181906000526020600020016000905590556000831115611df65782611df2816137f0565b9350505b81898481518110611e0957611e09612fe6565b6020026020010181815250508060200151888481518110611e2c57611e2c612fe6565b60200260200101819052508b858481518110611e4a57611e4a612fe6565b6020026020010181815250508d600c01600083815260200190815260200160002054848481518110611e7e57611e7e612fe6565b60200260200101818152505050508080611e9790613492565b9150506117bb565b50600e8b01805488151560ff199091161790559397509397509397509397565b600280820154908301546000918291611ed89190613807565b600280850154919250600091611eed916134d5565b611ef7908361382e565b60078501546008870154919250600091611f11908461382e565b611f1b9190613807565b90506064811315611f325760649350505050610cc9565b6000811215611f475760009350505050610cc9565b9250610cc9915050565b60004442604051602001611f6f929190918252602082015260400190565b6040516020818303038152906040528051906020012060001c905090565b611f956127ab565b611f9d6127ab565b600084611fab576000611fcc565b600f87015460048801546103e891611fc2916134d5565b611fcc9190613699565b9050600084611fdc576000611ffd565b600f87015460048801546103e891611ff3916134d5565b611ffd9190613699565b905081876002016001015411612014576000612024565b60038701546120249083906136ad565b600380890191909155880154811061203d57600061204d565b600388015461204d9082906136ad565b6003808a019190915560068901805460009061206a9084906136ad565b9091555050600687018054600391906000906120879084906136ad565b90915550506040805180820182529981018051516001600160a01b039081168c529051602090810151909116818c01528151808301909252928152918201529795505050505050565b6120d86127ab565b6120e06127ab565b6000836120ee57600061210f565b600f86015460048701546103e891612105916134d5565b61210f9190613699565b9050808560020160030154101561217557600585015460009061213290836136ad565b905080866002016001015411612149576000612159565b60038601546121599082906136ad565b60038701556040880151602001516001600160a01b0316835283525b600386600201600401600082825461218d91906136ad565b90915550505094509492505050565b6121a46127ab565b6121ac6127ab565b6000836121ba5760006121db565b600f85015460048601546103e8916121d1916134d5565b6121db9190613699565b905080866002016003015410156122465760058601546000906121fe90836136ad565b905080876002016001015411612215576000612225565b60038701546122259082906136ad565b60038801556040880151516001600160a01b03166020848101919091528401525b600385600201600401600082825461218d91906136ad565b6122666127ab565b61226e6127ab565b60008361227c57600061229d565b600f86015460048701546103e891612293916134d5565b61229d9190613699565b9050808560020160010154116122b45760006122c4565b60038501546122c49082906136ad565b6003868101919091556040880151602001516001600160a01b0316835281845260068701805460009061218d9084906136ad565b6123006127ab565b6123086127ab565b600083612316576000612337565b600f85015460048601546103e89161232d916134d5565b6123379190613699565b90508086600201600101541161234e57600061235e565b600386015461235e9082906136ad565b6003878101919091556040880151516001600160a01b0316602084810191909152840182905260068601805460009061218d9084906136ad565b6101a7816040516024016123ae91815260200190565b60408051601f198184030181529190526020810180516001600160e01b031663f82c50f160e01b1790526126b0565b600354604051631187bd5160e01b8152600481018390526000916001600160a01b031690631187bd5190602401600060405180830381865afa158015612427573d6000803e3d6000fd5b505050506040513d6000823e601f3d908101601f1916820160405261244f91908101906136f0565b80516060820151919250612465918591906126b9565b6001830154602082015160608301516040516001600160a01b039093169288927ff8c9f3444c314390f17c07435638f20d537b994d7767fd8e9a2bd203791d3ef7926124b4928a929190613856565b60405180910390a35050505050565b6000828152600d8401602052604090205460ff16612510576000828152600d840160205260408120805460ff1916600117905560048401805483929061250a908490613012565b90915550505b505050565b6000828152600d8401602052604090205460ff16612510576000828152600d840160205260409020805460ff191660011790556004830154811061255a57600061256a565b600483015461256a9082906136ad565b6004840155505050565b6000828152600d8401602052604090205460ff16612510576000828152600d840160205260408120805460ff1916600117905560058401805483929061250a908490613012565b6000828152600d8401602052604090205460ff16612510576000828152600d840160205260409020805460ff1916600117905560058301548110612600576000612610565b60058301546126109082906136ad565b6005840155505050565b808260020160010160008282546126319190613012565b90915550505050565b600382015461264890612398565b61267a6040518060400160405280601081526020016f64616d616765206f7665722074696d6560801b81525082612745565b6003820154811061268c57600061269c565b600382015461269c9082906136ad565b600383018190556126ac90612398565b5050565b6101a78161278a565b60005b600b840154811015612715578284600b0182815481106126de576126de612fe6565b90600052602060002001540361270357506000918252600c9092016020526040902055565b8061270d81613492565b9150506126bc565b50600b8301805460018101825560009182526020808320909101849055928152600c909301909152604090912055565b6126ac828260405160240161275b92919061387f565b60408051601f198184030181529190526020810180516001600160e01b0316632d839cb360e21b1790526126b0565b60006a636f6e736f6c652e6c6f679050600080835160208501845afa505050565b60405180604001604052806002906020820280368337509192915050565b828054828255906000526020600020908101928215612804579160200282015b828111156128045782518255916020019190600101906127e9565b50612810929150612899565b5090565b60405180610180016040528060008152602001606081526020016128366127ab565b81526020016128436127ab565b81526020016128506127ab565b815260200161285d6127ab565b815260200160008152600060208201526040016128786127ab565b81526020016000815260200161288c6128ae565b8152602001600081525090565b5b80821115612810576000815560010161289a565b6040518061012001604052806128c26127ab565b81526020016128cf6127ab565b81526020016128dc6127ab565b81526020016128e96127ab565b81526020016128f66127ab565b81526020016129036127ab565b81526020016129106127ab565b815260200161291d6127ab565b815260200161292a6127ab565b905290565b6001600160a01b03811681146101a757600080fd5b60006020828403121561295657600080fd5b81356129618161292f565b9392505050565b60008060006060848603121561297d57600080fd5b83359250602084013561298f8161292f565b929592945050506040919091013590565b6000602082840312156129b257600080fd5b5035919050565b600080604083850312156129cc57600080fd5b8235915060208301356129de8161292f565b809150509250929050565b600081518084526020808501945080840160005b83811015612a19578151875295820195908201906001016129fd565b509495945050505050565b604081526000612a3760408301856129e9565b8281036020840152612a4981856129e9565b95945050505050565b60006020808352610120830184518285015260018060a01b03828601511660408501526040850151606085015260608501516080850152608085015160a085015260a085015160c085015260c085015160e085015260e0850151610100808187015250818151808452610140870191508483019350600092505b80831015612aec5783518252928401926001929092019190840190612acc565b509695505050505050565b60208082526021908201527f43616c6c6572206973206e6f742074686520426174746c6520636f6e747261636040820152601d60fa1b606082015260800190565b91825260601b6bffffffffffffffffffffffff1916602082015260340190565b634e487b7160e01b600052604160045260246000fd5b60405161012081016001600160401b0381118282101715612b9157612b91612b58565b60405290565b60405161018081016001600160401b0381118282101715612b9157612b91612b58565b60405161014081016001600160401b0381118282101715612b9157612b91612b58565b60405161016081016001600160401b0381118282101715612b9157612b91612b58565b604080519081016001600160401b0381118282101715612b9157612b91612b58565b604051601f8201601f191681016001600160401b0381118282101715612c4a57612c4a612b58565b604052919050565b60005b83811015612c6d578181015183820152602001612c55565b50506000910152565b600082601f830112612c8757600080fd5b81516001600160401b03811115612ca057612ca0612b58565b612cb3601f8201601f1916602001612c22565b818152846020838601011115612cc857600080fd5b612cd9826020830160208701612c52565b949350505050565b8051612cec8161292f565b919050565b600082601f830112612d0257600080fd5b612d0a612c00565b806040840185811115612d1c57600080fd5b845b81811015612d3f578051612d318161292f565b845260209384019301612d1e565b509095945050505050565b600082601f830112612d5b57600080fd5b612d63612c00565b806040840185811115612d7557600080fd5b845b81811015612d3f578051845260209384019301612d77565b805160038110612cec57600080fd5b80518015158114612cec57600080fd5b600082601f830112612dbf57600080fd5b612dc7612c00565b806040840185811115612dd957600080fd5b845b81811015612d3f57612dec81612d9e565b845260209384019301612ddb565b60006102408284031215612e0d57600080fd5b612e15612b6e565b9050612e218383612d4a565b8152612e308360408401612d4a565b6020820152612e428360808401612d4a565b6040820152612e548360c08401612d4a565b6060820152610100612e6884828501612d4a565b6080830152612e7b846101408501612d4a565b60a0830152612e8e846101808501612d4a565b60c0830152612ea1846101c08501612d4a565b60e0830152612eb4846102008501612d4a565b9082015292915050565b600060208284031215612ed057600080fd5b81516001600160401b0380821115612ee757600080fd5b908301906104408286031215612efc57600080fd5b612f04612b97565b82518152602083015182811115612f1a57600080fd5b612f2687828601612c76565b602083015250612f398660408501612cf1565b6040820152612f4b8660808501612d4a565b6060820152612f5d8660c08501612d4a565b60808201526101009150612f7386838501612d4a565b60a0820152610140612f86818501612d8f565b60c0830152610160612f99818601612ce1565b60e0840152612fac886101808701612dae565b848401526101c0850151610120840152612fca886101e08701612dfa565b8284015261042085015181840152505080935050505092915050565b634e487b7160e01b600052603260045260246000fd5b634e487b7160e01b600052601160045260246000fd5b80820180821115610cc957610cc9612ffc565b8060005b60028110156130515781516001600160a01b0316845260209384019390910190600101613029565b50505050565b8060005b600281101561305157815184526020938401939091019060010161305b565b60c081016130888286613025565b6130956040830185613057565b612cd96080830184613057565b600081518084526130ba816020860160208601612c52565b601f01601f19169290920160200192915050565b600381106130ec57634e487b7160e01b600052602160045260246000fd5b9052565b8060005b600281101561305157815115158452602093840193909101906001016130f4565b613120828251613057565b60208101516131326040840182613057565b5060408101516131456080840182613057565b50606081015161315860c0840182613057565b50608081015161010061316d81850183613057565b60a08301519150613182610140850183613057565b60c08301519150613197610180850183613057565b60e083015191506131ac6101c0850183613057565b8201519050612510610200840182613057565b82815260406020820152815160408201526000602083015161044060608401526131ed6104808401826130a2565b905060408401516132016080850182613025565b50606084015161321460c0850182613057565b50608084015161010061322981860183613057565b60a0860151915061014061323f81870184613057565b60c087015192506132546101808701846130ce565b60e08701516001600160a01b03166101a087015281870151925061327c6101c08701846130f0565b610120870151610200870152860151915061329d9050610220850182613115565b50610160840151610460840152809150509392505050565b600082601f8301126132c657600080fd5b815160206001600160401b038211156132e1576132e1612b58565b8160051b6132f0828201612c22565b928352848101820192828101908785111561330a57600080fd5b83870192505b8483101561332957825182529183019190830190613310565b979650505050505050565b60006020828403121561334657600080fd5b81516001600160401b038082111561335d57600080fd5b90830190610120828603121561337257600080fd5b61337a612b6e565b825181526020830151602082015260408301516040820152606083015160608201526080830151608082015260a083015160a082015260c083015160c082015260e083015160e082015261010080840151838111156133d857600080fd5b6133e4888287016132b5565b918301919091525095945050505050565b60006101408083018d8452602060018060a01b03808f16828701528d6040870152808d166060870152508a60808601528960a08601528860c08601528760e086015286610100860152826101208601528192508554808352610160860193508660005281600020925060005b8181101561347d57835485529382019360019384019301613461565b50929f9e505050505050505050505050505050565b6000600182016134a4576134a4612ffc565b5060010190565b634e487b7160e01b600052601260045260246000fd5b6000826134d0576134d06134ab565b500690565b8082028115828204841417610cc957610cc9612ffc565b600082516134fe818460208701612c52565b9190910192915050565b86815260c06020820152600061352160c08301886130a2565b828103604084015261353381886130a2565b60608401969096525050608081019290925260a0909101529392505050565b805160058110612cec57600080fd5b6000610140828403121561357457600080fd5b61357c612bba565b825181526020830151602082015261359660408401613552565b60408201526135a760608401613552565b60608201526080830151608082015260a083015160a082015260c083015160c082015260e083015160e08201526101008084015181830152506101208084015181830152508091505092915050565b60006020828403121561360857600080fd5b81516001600160401b038082111561361f57600080fd5b908301906080828603121561363357600080fd5b60405160808101818110838211171561364e5761364e612b58565b6040528251815260208301518281111561366757600080fd5b61367387828601612c76565b602083015250604083015160408201526060830151606082015280935050505092915050565b6000826136a8576136a86134ab565b500490565b81810381811115610cc957610cc9612ffc565b8481528360208201526080604082015260006136df60808301856130a2565b905082606083015295945050505050565b60006020828403121561370257600080fd5b81516001600160401b038082111561371957600080fd5b90830190610160828603121561372e57600080fd5b613736612bdd565b8251815260208301518281111561374c57600080fd5b61375887828601612c76565b60208301525061376a60408401612d9e565b6040820152606083015160608201526080830151608082015260a083015160a082015260c083015160c082015260e083015160e0820152610100915081830151828201526101209150818301518282015261014091506137cb828401612d9e565b91810191909152949350505050565b634e487b7160e01b600052603160045260246000fd5b6000816137ff576137ff612ffc565b506000190190565b818103600083128015838313168383128216171561382757613827612ffc565b5092915050565b808201828112600083128015821682158216171561384e5761384e612ffc565b505092915050565b83815260606020820152600061386f60608301856130a2565b9050826040830152949350505050565b60408152600061389260408301856130a2565b9050826020830152939250505056fea2646970667358221220d938dccbfe9c0e796d8018bc3cdd4f0f4c4ffbc49ad0f7f4ab912d9bb4d2098164736f6c63430008130033",
  "linkReferences": {},
  "deployedLinkReferences": {}
}