{
  "_format": "hh-sol-artifact-1",
  "contractName": "Character",
  "sourceName": "contracts/Character.sol",
  "abi": [
    {
      "inputs": [],
      "stateMutability": "nonpayable",
      "type": "constructor"
    },
    {
      "inputs": [],
      "name": "ApprovalCallerNotOwnerNorApproved",
      "type": "error"
    },
    {
      "inputs": [],
      "name": "ApprovalQueryForNonexistentToken",
      "type": "error"
    },
    {
      "inputs": [],
      "name": "ApprovalToCurrentOwner",
      "type": "error"
    },
    {
      "inputs": [],
      "name": "ApproveToCaller",
      "type": "error"
    },
    {
      "inputs": [],
      "name": "BalanceQueryForZeroAddress",
      "type": "error"
    },
    {
      "inputs": [],
      "name": "MintToZeroAddress",
      "type": "error"
    },
    {
      "inputs": [],
      "name": "MintZeroQuantity",
      "type": "error"
    },
    {
      "inputs": [
        {
          "internalType": "address",
          "name": "operator",
          "type": "address"
        }
      ],
      "name": "OperatorNotAllowed",
      "type": "error"
    },
    {
      "inputs": [],
      "name": "OwnerQueryForNonexistentToken",
      "type": "error"
    },
    {
      "inputs": [],
      "name": "TransferCallerNotOwnerNorApproved",
      "type": "error"
    },
    {
      "inputs": [],
      "name": "TransferFromIncorrectOwner",
      "type": "error"
    },
    {
      "inputs": [],
      "name": "TransferToNonERC721ReceiverImplementer",
      "type": "error"
    },
    {
      "inputs": [],
      "name": "TransferToZeroAddress",
      "type": "error"
    },
    {
      "inputs": [],
      "name": "URIQueryForNonexistentToken",
      "type": "error"
    },
    {
      "anonymous": false,
      "inputs": [
        {
          "indexed": true,
          "internalType": "address",
          "name": "owner",
          "type": "address"
        },
        {
          "indexed": true,
          "internalType": "address",
          "name": "approved",
          "type": "address"
        },
        {
          "indexed": true,
          "internalType": "uint256",
          "name": "tokenId",
          "type": "uint256"
        }
      ],
      "name": "Approval",
      "type": "event"
    },
    {
      "anonymous": false,
      "inputs": [
        {
          "indexed": true,
          "internalType": "address",
          "name": "owner",
          "type": "address"
        },
        {
          "indexed": true,
          "internalType": "address",
          "name": "operator",
          "type": "address"
        },
        {
          "indexed": false,
          "internalType": "bool",
          "name": "approved",
          "type": "bool"
        }
      ],
      "name": "ApprovalForAll",
      "type": "event"
    },
    {
      "anonymous": false,
      "inputs": [
        {
          "indexed": false,
          "internalType": "string",
          "name": "prevURI",
          "type": "string"
        },
        {
          "indexed": false,
          "internalType": "string",
          "name": "newURI",
          "type": "string"
        }
      ],
      "name": "ContractURIUpdated",
      "type": "event"
    },
    {
      "anonymous": false,
      "inputs": [
        {
          "indexed": true,
          "internalType": "address",
          "name": "newRoyaltyRecipient",
          "type": "address"
        },
        {
          "indexed": false,
          "internalType": "uint256",
          "name": "newRoyaltyBps",
          "type": "uint256"
        }
      ],
      "name": "DefaultRoyalty",
      "type": "event"
    },
    {
      "anonymous": false,
      "inputs": [
        {
          "indexed": true,
          "internalType": "uint256",
          "name": "tokenId",
          "type": "uint256"
        },
        {
          "indexed": true,
          "internalType": "uint256",
          "name": "typeId",
          "type": "uint256"
        }
      ],
      "name": "NewCharacter",
      "type": "event"
    },
    {
      "anonymous": false,
      "inputs": [
        {
          "indexed": false,
          "internalType": "bool",
          "name": "restriction",
          "type": "bool"
        }
      ],
      "name": "OperatorRestriction",
      "type": "event"
    },
    {
      "anonymous": false,
      "inputs": [
        {
          "indexed": true,
          "internalType": "address",
          "name": "prevOwner",
          "type": "address"
        },
        {
          "indexed": true,
          "internalType": "address",
          "name": "newOwner",
          "type": "address"
        }
      ],
      "name": "OwnerUpdated",
      "type": "event"
    },
    {
      "anonymous": false,
      "inputs": [
        {
          "indexed": true,
          "internalType": "uint256",
          "name": "tokenId",
          "type": "uint256"
        },
        {
          "indexed": true,
          "internalType": "address",
          "name": "royaltyRecipient",
          "type": "address"
        },
        {
          "indexed": false,
          "internalType": "uint256",
          "name": "royaltyBps",
          "type": "uint256"
        }
      ],
      "name": "RoyaltyForToken",
      "type": "event"
    },
    {
      "anonymous": false,
      "inputs": [
        {
          "indexed": true,
          "internalType": "address",
          "name": "from",
          "type": "address"
        },
        {
          "indexed": true,
          "internalType": "address",
          "name": "to",
          "type": "address"
        },
        {
          "indexed": true,
          "internalType": "uint256",
          "name": "tokenId",
          "type": "uint256"
        }
      ],
      "name": "Transfer",
      "type": "event"
    },
    {
      "inputs": [],
      "name": "OPERATOR_FILTER_REGISTRY",
      "outputs": [
        {
          "internalType": "contract IOperatorFilterRegistry",
          "name": "",
          "type": "address"
        }
      ],
      "stateMutability": "view",
      "type": "function"
    },
    {
      "inputs": [
        {
          "internalType": "uint256",
          "name": "characterTokenId",
          "type": "uint256"
        },
        {
          "internalType": "uint256",
          "name": "strength",
          "type": "uint256"
        },
        {
          "internalType": "uint256",
          "name": "dexterity",
          "type": "uint256"
        },
        {
          "internalType": "uint256",
          "name": "intelligence",
          "type": "uint256"
        },
        {
          "internalType": "uint256",
          "name": "vitality",
          "type": "uint256"
        }
      ],
      "name": "addStats",
      "outputs": [],
      "stateMutability": "nonpayable",
      "type": "function"
    },
    {
      "inputs": [
        {
          "internalType": "address",
          "name": "operator",
          "type": "address"
        },
        {
          "internalType": "uint256",
          "name": "tokenId",
          "type": "uint256"
        }
      ],
      "name": "approve",
      "outputs": [],
      "stateMutability": "nonpayable",
      "type": "function"
    },
    {
      "inputs": [
        {
          "internalType": "address",
          "name": "owner",
          "type": "address"
        }
      ],
      "name": "balanceOf",
      "outputs": [
        {
          "internalType": "uint256",
          "name": "",
          "type": "uint256"
        }
      ],
      "stateMutability": "view",
      "type": "function"
    },
    {
      "inputs": [
        {
          "internalType": "address",
          "name": "_to",
          "type": "address"
        },
        {
          "internalType": "uint256",
          "name": "_quantity",
          "type": "uint256"
        },
        {
          "internalType": "string",
          "name": "_baseURI",
          "type": "string"
        },
        {
          "internalType": "bytes",
          "name": "_data",
          "type": "bytes"
        }
      ],
      "name": "batchMintTo",
      "outputs": [],
      "stateMutability": "nonpayable",
      "type": "function"
    },
    {
      "inputs": [],
      "name": "battleItems",
      "outputs": [
        {
          "internalType": "contract BattleItems",
          "name": "",
          "type": "address"
        }
      ],
      "stateMutability": "view",
      "type": "function"
    },
    {
      "inputs": [],
      "name": "battleSkills",
      "outputs": [
        {
          "internalType": "contract BattleSkills",
          "name": "",
          "type": "address"
        }
      ],
      "stateMutability": "view",
      "type": "function"
    },
    {
      "inputs": [
        {
          "internalType": "uint256",
          "name": "_tokenId",
          "type": "uint256"
        }
      ],
      "name": "burn",
      "outputs": [],
      "stateMutability": "nonpayable",
      "type": "function"
    },
    {
      "inputs": [
        {
          "internalType": "uint256",
          "name": "",
          "type": "uint256"
        }
      ],
      "name": "charStats",
      "outputs": [
        {
          "internalType": "uint256",
          "name": "tokenId",
          "type": "uint256"
        },
        {
          "internalType": "uint256",
          "name": "level",
          "type": "uint256"
        },
        {
          "internalType": "uint256",
          "name": "experience",
          "type": "uint256"
        },
        {
          "internalType": "uint256",
          "name": "health",
          "type": "uint256"
        },
        {
          "internalType": "uint256",
          "name": "mana",
          "type": "uint256"
        },
        {
          "internalType": "uint256",
          "name": "attack",
          "type": "uint256"
        },
        {
          "internalType": "uint256",
          "name": "defense",
          "type": "uint256"
        },
        {
          "internalType": "uint256",
          "name": "strength",
          "type": "uint256"
        },
        {
          "internalType": "uint256",
          "name": "dexterity",
          "type": "uint256"
        },
        {
          "internalType": "uint256",
          "name": "intelligence",
          "type": "uint256"
        },
        {
          "internalType": "uint256",
          "name": "vitality",
          "type": "uint256"
        },
        {
          "internalType": "uint256",
          "name": "accuracy",
          "type": "uint256"
        },
        {
          "internalType": "uint256",
          "name": "statPoints",
          "type": "uint256"
        },
        {
          "internalType": "uint256",
          "name": "typeId",
          "type": "uint256"
        }
      ],
      "stateMutability": "view",
      "type": "function"
    },
    {
      "inputs": [
        {
          "internalType": "uint256",
          "name": "",
          "type": "uint256"
        }
      ],
      "name": "charTypes",
      "outputs": [
        {
          "internalType": "uint256",
          "name": "typeId",
          "type": "uint256"
        },
        {
          "internalType": "string",
          "name": "characterType",
          "type": "string"
        },
        {
          "internalType": "string",
          "name": "uri",
          "type": "string"
        }
      ],
      "stateMutability": "view",
      "type": "function"
    },
    {
      "inputs": [],
      "name": "characterClasses",
      "outputs": [
        {
          "internalType": "contract CharacterClass",
          "name": "",
          "type": "address"
        }
      ],
      "stateMutability": "view",
      "type": "function"
    },
    {
      "inputs": [],
      "name": "contractURI",
      "outputs": [
        {
          "internalType": "string",
          "name": "",
          "type": "string"
        }
      ],
      "stateMutability": "view",
      "type": "function"
    },
    {
      "inputs": [
        {
          "internalType": "uint256",
          "name": "characterTokenId",
          "type": "uint256"
        },
        {
          "internalType": "uint256",
          "name": "classId",
          "type": "uint256"
        }
      ],
      "name": "equipClass",
      "outputs": [],
      "stateMutability": "nonpayable",
      "type": "function"
    },
    {
      "inputs": [
        {
          "internalType": "uint256",
          "name": "characterTokenId",
          "type": "uint256"
        },
        {
          "internalType": "uint256",
          "name": "tokenId",
          "type": "uint256"
        }
      ],
      "name": "equipItem",
      "outputs": [],
      "stateMutability": "nonpayable",
      "type": "function"
    },
    {
      "inputs": [
        {
          "internalType": "uint256",
          "name": "characterTokenId",
          "type": "uint256"
        },
        {
          "internalType": "uint256",
          "name": "skillId",
          "type": "uint256"
        }
      ],
      "name": "equipSkill",
      "outputs": [],
      "stateMutability": "nonpayable",
      "type": "function"
    },
    {
      "inputs": [
        {
          "internalType": "uint256",
          "name": "tokenId",
          "type": "uint256"
        }
      ],
      "name": "getApproved",
      "outputs": [
        {
          "internalType": "address",
          "name": "",
          "type": "address"
        }
      ],
      "stateMutability": "view",
      "type": "function"
    },
    {
      "inputs": [],
      "name": "getBaseURICount",
      "outputs": [
        {
          "internalType": "uint256",
          "name": "",
          "type": "uint256"
        }
      ],
      "stateMutability": "view",
      "type": "function"
    },
    {
      "inputs": [
        {
          "internalType": "uint256",
          "name": "_index",
          "type": "uint256"
        }
      ],
      "name": "getBatchIdAtIndex",
      "outputs": [
        {
          "internalType": "uint256",
          "name": "",
          "type": "uint256"
        }
      ],
      "stateMutability": "view",
      "type": "function"
    },
    {
      "inputs": [
        {
          "internalType": "uint256",
          "name": "_tokenId",
          "type": "uint256"
        }
      ],
      "name": "getCharacter",
      "outputs": [
        {
          "components": [
            {
              "internalType": "uint256",
              "name": "tokenId",
              "type": "uint256"
            },
            {
              "internalType": "uint256",
              "name": "level",
              "type": "uint256"
            },
            {
              "internalType": "uint256",
              "name": "experience",
              "type": "uint256"
            },
            {
              "internalType": "uint256",
              "name": "health",
              "type": "uint256"
            },
            {
              "internalType": "uint256",
              "name": "mana",
              "type": "uint256"
            },
            {
              "internalType": "uint256",
              "name": "attack",
              "type": "uint256"
            },
            {
              "internalType": "uint256",
              "name": "defense",
              "type": "uint256"
            },
            {
              "internalType": "uint256",
              "name": "strength",
              "type": "uint256"
            },
            {
              "internalType": "uint256",
              "name": "dexterity",
              "type": "uint256"
            },
            {
              "internalType": "uint256",
              "name": "intelligence",
              "type": "uint256"
            },
            {
              "internalType": "uint256",
              "name": "vitality",
              "type": "uint256"
            },
            {
              "internalType": "uint256",
              "name": "accuracy",
              "type": "uint256"
            },
            {
              "internalType": "uint256",
              "name": "statPoints",
              "type": "uint256"
            },
            {
              "internalType": "uint256",
              "name": "typeId",
              "type": "uint256"
            }
          ],
          "internalType": "struct Character.CharacterStats",
          "name": "",
          "type": "tuple"
        }
      ],
      "stateMutability": "view",
      "type": "function"
    },
    {
      "inputs": [
        {
          "internalType": "uint256",
          "name": "tokenId",
          "type": "uint256"
        }
      ],
      "name": "getCharacterAttack",
      "outputs": [
        {
          "internalType": "uint256",
          "name": "",
          "type": "uint256"
        }
      ],
      "stateMutability": "view",
      "type": "function"
    },
    {
      "inputs": [
        {
          "internalType": "uint256",
          "name": "tokenId",
          "type": "uint256"
        }
      ],
      "name": "getCharacterDefense",
      "outputs": [
        {
          "internalType": "uint256",
          "name": "",
          "type": "uint256"
        }
      ],
      "stateMutability": "view",
      "type": "function"
    },
    {
      "inputs": [
        {
          "internalType": "uint256",
          "name": "tokenId",
          "type": "uint256"
        }
      ],
      "name": "getCharacterHealth",
      "outputs": [
        {
          "internalType": "uint256",
          "name": "",
          "type": "uint256"
        }
      ],
      "stateMutability": "view",
      "type": "function"
    },
    {
      "inputs": [
        {
          "internalType": "uint256",
          "name": "tokenId",
          "type": "uint256"
        }
      ],
      "name": "getCharacterLevel",
      "outputs": [
        {
          "internalType": "uint256",
          "name": "",
          "type": "uint256"
        }
      ],
      "stateMutability": "view",
      "type": "function"
    },
    {
      "inputs": [
        {
          "internalType": "uint256",
          "name": "tokenId",
          "type": "uint256"
        }
      ],
      "name": "getCharacterMana",
      "outputs": [
        {
          "internalType": "uint256",
          "name": "",
          "type": "uint256"
        }
      ],
      "stateMutability": "view",
      "type": "function"
    },
    {
      "inputs": [],
      "name": "getDefaultRoyaltyInfo",
      "outputs": [
        {
          "internalType": "address",
          "name": "",
          "type": "address"
        },
        {
          "internalType": "uint16",
          "name": "",
          "type": "uint16"
        }
      ],
      "stateMutability": "view",
      "type": "function"
    },
    {
      "inputs": [
        {
          "internalType": "uint256",
          "name": "characterTokenId",
          "type": "uint256"
        }
      ],
      "name": "getEquippedClass",
      "outputs": [
        {
          "internalType": "uint256",
          "name": "",
          "type": "uint256"
        }
      ],
      "stateMutability": "view",
      "type": "function"
    },
    {
      "inputs": [
        {
          "internalType": "uint256",
          "name": "characterTokenId",
          "type": "uint256"
        }
      ],
      "name": "getEquippedItem",
      "outputs": [
        {
          "internalType": "uint256",
          "name": "",
          "type": "uint256"
        }
      ],
      "stateMutability": "view",
      "type": "function"
    },
    {
      "inputs": [
        {
          "internalType": "uint256",
          "name": "characterTokenId",
          "type": "uint256"
        }
      ],
      "name": "getEquippedSkill",
      "outputs": [
        {
          "internalType": "uint256",
          "name": "",
          "type": "uint256"
        }
      ],
      "stateMutability": "view",
      "type": "function"
    },
    {
      "inputs": [
        {
          "internalType": "uint256",
          "name": "_tokenId",
          "type": "uint256"
        }
      ],
      "name": "getRoyaltyInfoForToken",
      "outputs": [
        {
          "internalType": "address",
          "name": "",
          "type": "address"
        },
        {
          "internalType": "uint16",
          "name": "",
          "type": "uint16"
        }
      ],
      "stateMutability": "view",
      "type": "function"
    },
    {
      "inputs": [
        {
          "internalType": "address",
          "name": "owner",
          "type": "address"
        },
        {
          "internalType": "address",
          "name": "operator",
          "type": "address"
        }
      ],
      "name": "isApprovedForAll",
      "outputs": [
        {
          "internalType": "bool",
          "name": "",
          "type": "bool"
        }
      ],
      "stateMutability": "view",
      "type": "function"
    },
    {
      "inputs": [
        {
          "internalType": "address",
          "name": "_operator",
          "type": "address"
        },
        {
          "internalType": "uint256",
          "name": "_tokenId",
          "type": "uint256"
        }
      ],
      "name": "isApprovedOrOwner",
      "outputs": [
        {
          "internalType": "bool",
          "name": "isApprovedOrOwnerOf",
          "type": "bool"
        }
      ],
      "stateMutability": "view",
      "type": "function"
    },
    {
      "inputs": [
        {
          "internalType": "uint256",
          "name": "characterTokenId",
          "type": "uint256"
        }
      ],
      "name": "levelUp",
      "outputs": [],
      "stateMutability": "nonpayable",
      "type": "function"
    },
    {
      "inputs": [
        {
          "internalType": "uint256",
          "name": "_typeId",
          "type": "uint256"
        },
        {
          "internalType": "uint256",
          "name": "_skillTokenId",
          "type": "uint256"
        }
      ],
      "name": "mintNewCharacterWithItemAndEquip",
      "outputs": [],
      "stateMutability": "nonpayable",
      "type": "function"
    },
    {
      "inputs": [
        {
          "internalType": "address",
          "name": "_to",
          "type": "address"
        },
        {
          "internalType": "string",
          "name": "_tokenURI",
          "type": "string"
        }
      ],
      "name": "mintTo",
      "outputs": [],
      "stateMutability": "nonpayable",
      "type": "function"
    },
    {
      "inputs": [
        {
          "internalType": "bytes[]",
          "name": "data",
          "type": "bytes[]"
        }
      ],
      "name": "multicall",
      "outputs": [
        {
          "internalType": "bytes[]",
          "name": "results",
          "type": "bytes[]"
        }
      ],
      "stateMutability": "nonpayable",
      "type": "function"
    },
    {
      "inputs": [],
      "name": "name",
      "outputs": [
        {
          "internalType": "string",
          "name": "",
          "type": "string"
        }
      ],
      "stateMutability": "view",
      "type": "function"
    },
    {
      "inputs": [
        {
          "internalType": "uint256",
          "name": "_typeId",
          "type": "uint256"
        }
      ],
      "name": "newCharacter",
      "outputs": [],
      "stateMutability": "nonpayable",
      "type": "function"
    },
    {
      "inputs": [],
      "name": "nextTokenIdToMint",
      "outputs": [
        {
          "internalType": "uint256",
          "name": "",
          "type": "uint256"
        }
      ],
      "stateMutability": "view",
      "type": "function"
    },
    {
      "inputs": [],
      "name": "numCharacters",
      "outputs": [
        {
          "internalType": "uint256",
          "name": "",
          "type": "uint256"
        }
      ],
      "stateMutability": "view",
      "type": "function"
    },
    {
      "inputs": [
        {
          "internalType": "address",
          "name": "",
          "type": "address"
        },
        {
          "internalType": "address",
          "name": "",
          "type": "address"
        },
        {
          "internalType": "uint256[]",
          "name": "",
          "type": "uint256[]"
        },
        {
          "internalType": "uint256[]",
          "name": "",
          "type": "uint256[]"
        },
        {
          "internalType": "bytes",
          "name": "",
          "type": "bytes"
        }
      ],
      "name": "onERC1155BatchReceived",
      "outputs": [
        {
          "internalType": "bytes4",
          "name": "",
          "type": "bytes4"
        }
      ],
      "stateMutability": "nonpayable",
      "type": "function"
    },
    {
      "inputs": [
        {
          "internalType": "address",
          "name": "",
          "type": "address"
        },
        {
          "internalType": "address",
          "name": "",
          "type": "address"
        },
        {
          "internalType": "uint256",
          "name": "",
          "type": "uint256"
        },
        {
          "internalType": "uint256",
          "name": "",
          "type": "uint256"
        },
        {
          "internalType": "bytes",
          "name": "",
          "type": "bytes"
        }
      ],
      "name": "onERC1155Received",
      "outputs": [
        {
          "internalType": "bytes4",
          "name": "",
          "type": "bytes4"
        }
      ],
      "stateMutability": "nonpayable",
      "type": "function"
    },
    {
      "inputs": [],
      "name": "operatorRestriction",
      "outputs": [
        {
          "internalType": "bool",
          "name": "",
          "type": "bool"
        }
      ],
      "stateMutability": "view",
      "type": "function"
    },
    {
      "inputs": [],
      "name": "owner",
      "outputs": [
        {
          "internalType": "address",
          "name": "",
          "type": "address"
        }
      ],
      "stateMutability": "view",
      "type": "function"
    },
    {
      "inputs": [
        {
          "internalType": "uint256",
          "name": "tokenId",
          "type": "uint256"
        }
      ],
      "name": "ownerOf",
      "outputs": [
        {
          "internalType": "address",
          "name": "",
          "type": "address"
        }
      ],
      "stateMutability": "view",
      "type": "function"
    },
    {
      "inputs": [
        {
          "internalType": "uint256",
          "name": "tokenId",
          "type": "uint256"
        },
        {
          "internalType": "uint256",
          "name": "salePrice",
          "type": "uint256"
        }
      ],
      "name": "royaltyInfo",
      "outputs": [
        {
          "internalType": "address",
          "name": "receiver",
          "type": "address"
        },
        {
          "internalType": "uint256",
          "name": "royaltyAmount",
          "type": "uint256"
        }
      ],
      "stateMutability": "view",
      "type": "function"
    },
    {
      "inputs": [
        {
          "internalType": "address",
          "name": "from",
          "type": "address"
        },
        {
          "internalType": "address",
          "name": "to",
          "type": "address"
        },
        {
          "internalType": "uint256",
          "name": "tokenId",
          "type": "uint256"
        }
      ],
      "name": "safeTransferFrom",
      "outputs": [],
      "stateMutability": "nonpayable",
      "type": "function"
    },
    {
      "inputs": [
        {
          "internalType": "address",
          "name": "from",
          "type": "address"
        },
        {
          "internalType": "address",
          "name": "to",
          "type": "address"
        },
        {
          "internalType": "uint256",
          "name": "tokenId",
          "type": "uint256"
        },
        {
          "internalType": "bytes",
          "name": "data",
          "type": "bytes"
        }
      ],
      "name": "safeTransferFrom",
      "outputs": [],
      "stateMutability": "nonpayable",
      "type": "function"
    },
    {
      "inputs": [
        {
          "internalType": "address",
          "name": "operator",
          "type": "address"
        },
        {
          "internalType": "bool",
          "name": "approved",
          "type": "bool"
        }
      ],
      "name": "setApprovalForAll",
      "outputs": [],
      "stateMutability": "nonpayable",
      "type": "function"
    },
    {
      "inputs": [
        {
          "internalType": "address",
          "name": "_address",
          "type": "address"
        }
      ],
      "name": "setBattleItems",
      "outputs": [],
      "stateMutability": "nonpayable",
      "type": "function"
    },
    {
      "inputs": [
        {
          "internalType": "address",
          "name": "_address",
          "type": "address"
        }
      ],
      "name": "setBattleSkills",
      "outputs": [],
      "stateMutability": "nonpayable",
      "type": "function"
    },
    {
      "inputs": [
        {
          "internalType": "address",
          "name": "_address",
          "type": "address"
        }
      ],
      "name": "setClassContract",
      "outputs": [],
      "stateMutability": "nonpayable",
      "type": "function"
    },
    {
      "inputs": [
        {
          "internalType": "string",
          "name": "_uri",
          "type": "string"
        }
      ],
      "name": "setContractURI",
      "outputs": [],
      "stateMutability": "nonpayable",
      "type": "function"
    },
    {
      "inputs": [
        {
          "internalType": "address",
          "name": "_royaltyRecipient",
          "type": "address"
        },
        {
          "internalType": "uint256",
          "name": "_royaltyBps",
          "type": "uint256"
        }
      ],
      "name": "setDefaultRoyaltyInfo",
      "outputs": [],
      "stateMutability": "nonpayable",
      "type": "function"
    },
    {
      "inputs": [
        {
          "internalType": "bool",
          "name": "_restriction",
          "type": "bool"
        }
      ],
      "name": "setOperatorRestriction",
      "outputs": [],
      "stateMutability": "nonpayable",
      "type": "function"
    },
    {
      "inputs": [
        {
          "internalType": "address",
          "name": "_newOwner",
          "type": "address"
        }
      ],
      "name": "setOwner",
      "outputs": [],
      "stateMutability": "nonpayable",
      "type": "function"
    },
    {
      "inputs": [
        {
          "internalType": "uint256",
          "name": "_tokenId",
          "type": "uint256"
        },
        {
          "internalType": "address",
          "name": "_recipient",
          "type": "address"
        },
        {
          "internalType": "uint256",
          "name": "_bps",
          "type": "uint256"
        }
      ],
      "name": "setRoyaltyInfoForToken",
      "outputs": [],
      "stateMutability": "nonpayable",
      "type": "function"
    },
    {
      "inputs": [
        {
          "internalType": "bytes4",
          "name": "interfaceId",
          "type": "bytes4"
        }
      ],
      "name": "supportsInterface",
      "outputs": [
        {
          "internalType": "bool",
          "name": "",
          "type": "bool"
        }
      ],
      "stateMutability": "view",
      "type": "function"
    },
    {
      "inputs": [],
      "name": "symbol",
      "outputs": [
        {
          "internalType": "string",
          "name": "",
          "type": "string"
        }
      ],
      "stateMutability": "view",
      "type": "function"
    },
    {
      "inputs": [
        {
          "internalType": "uint256",
          "name": "_tokenId",
          "type": "uint256"
        }
      ],
      "name": "tokenURI",
      "outputs": [
        {
          "internalType": "string",
          "name": "",
          "type": "string"
        }
      ],
      "stateMutability": "view",
      "type": "function"
    },
    {
      "inputs": [],
      "name": "totalSupply",
      "outputs": [
        {
          "internalType": "uint256",
          "name": "",
          "type": "uint256"
        }
      ],
      "stateMutability": "view",
      "type": "function"
    },
    {
      "inputs": [
        {
          "internalType": "address",
          "name": "from",
          "type": "address"
        },
        {
          "internalType": "address",
          "name": "to",
          "type": "address"
        },
        {
          "internalType": "uint256",
          "name": "tokenId",
          "type": "uint256"
        }
      ],
      "name": "transferFrom",
      "outputs": [],
      "stateMutability": "nonpayable",
      "type": "function"
    },
    {
      "inputs": [
        {
          "internalType": "uint256",
          "name": "characterTokenId",
          "type": "uint256"
        }
      ],
      "name": "unequipClass",
      "outputs": [],
      "stateMutability": "nonpayable",
      "type": "function"
    },
    {
      "inputs": [
        {
          "internalType": "uint256",
          "name": "characterTokenId",
          "type": "uint256"
        }
      ],
      "name": "unequipItem",
      "outputs": [],
      "stateMutability": "nonpayable",
      "type": "function"
    },
    {
      "inputs": [
        {
          "internalType": "uint256",
          "name": "characterTokenId",
          "type": "uint256"
        }
      ],
      "name": "unequipSkill",
      "outputs": [],
      "stateMutability": "nonpayable",
      "type": "function"
    }
  ],
  "bytecode": "0x6080806040523462000a12576000620000188262000a50565b600982526821b430b930b1ba32b960b91b6020830152604051906200003d8262000a50565b600482526310d3919560e21b602083015282516001600160401b038111620007f557600254600181811c9116801562000a07575b60208210146200091057601f8111620009b0575b506020601f82116001146200093b578293948293926200092f575b50508160011b916000199060031b1c1916176002555b81516001600160401b038111620007f557600354600181811c9116801562000924575b60208210146200091057601f8111620008a8575b50602092601f8211600114620008235792829382939262000817575b50508160011b916000199060031b1c1916176003555b808055806daaeb6d7670e522a718067333cd4e803b62000788575b505060098054336001600160a01b0319821681179092556001600160a01b03167f8292fce18fa69edf4db7b94ea2e58241df0ae57f97e0a6c9b29067028bf92d768380a3600a80546001600160b01b0319163361ffff60a01b198116919091179091556040518281527f90d7ec04bcb8978719414f82e52e4cb651db41d0e6f8cea6118c2191e6183adb90602090a2600160ff19600e541617600e557f38475885990d8dfe9ca01f0ef160a1b5514426eab9ddbc953a3353410ba78096602060405160018152a1806016556200027f604051620002178162000a17565b828152600160208201528260408201526064606082015260646080820152602860a0820152606460c0820152606460e082015260646101008201526064610120820152606461014082015260646101608201526005610180820152826101a082015262000a6c565b620002f9604051620002918162000a17565b828152600160208201528260408201526064606082015260646080820152605060a0820152606460c0820152606460e082015260646101008201526064610120820152606461014082015260646101608201526005610180820152826101a082015262000a6c565b620003736040516200030b8162000a17565b828152600160208201528260408201526064606082015260646080820152606460a0820152606460c0820152606460e082015260646101008201526064610120820152606461014082015260646101608201526005610180820152826101a082015262000a6c565b60405190620003828262000a34565b815260405190620003938262000a50565b60078252662bb0b93934b7b960c91b602083015260208101918252620003b862000b2f565b604082015260185491680100000000000000008310156200066b576001830180601855831015620007725760186000526020600020908251600385028301555192835160018060401b0381116200066b5760016003830284010154600181811c9116801562000767575b60208210146200064a57601f811162000712575b506020601f82116001146200068d579181600392600295946040979860009262000681575b50508160011b9160001990851b1c1916176001838302850101555b02010191015190815160018060401b0381116200066b578154600181811c9116801562000660575b60208210146200064a57601f8111620005fd575b50602092601f821160011462000594579281929360009262000588575b50508160011b916000199060031b1c19161790555b62000533604051620004f68162000a34565b60018152604051620005088162000a50565b60048152634d61676560e01b602082015260208201526200052862000b2f565b604082015262000b90565b62000578604051620005458162000a34565b60028152604051620005578162000a50565b6005815264526f67756560d81b602082015260208201526200052862000b2f565b6040516145e5908162000e838239f35b015190503880620004cf565b601f198216938360005260206000209160005b868110620005e45750836001959610620005ca575b505050811b019055620004e4565b015160001960f88460031b161c19169055388080620005bc565b91926020600181928685015181550194019201620005a7565b826000526020600020601f830160051c810191602084106200063f575b601f0160051c01905b818110620006325750620004b2565b6000815560010162000623565b90915081906200061a565b634e487b7160e01b600052602260045260246000fd5b90607f16906200049e565b634e487b7160e01b600052604160045260246000fd5b0151905038806200045b565b60016003840285010160005260206000209560005b601f1984168110620006f9575082604096976002969593600193600396601f19811610620006e0575b505050811b0160018383028501015562000476565b015160001983871b60f8161c19169055388080620006cb565b82820151885560019097019660209283019201620006a2565b6001600384028501016000526020600020601f830160051c810191602084106200075c575b601f0160051c01905b8181106200074f575062000436565b6000815560010162000740565b909150819062000737565b90607f169062000422565b634e487b7160e01b600052603260045260246000fd5b803b1562000814578190604460405180948193633e9f1edf60e11b8352306004840152733cc6cdda760b79bafa08df41ecfa224f810dceb660248401525af180156200080957620007dc575b81906200013a565b6001600160401b038111620007f55760405238620007d4565b634e487b7160e01b82526041600452602482fd5b6040513d84823e3d90fd5b50fd5b01519050388062000109565b60038352601f198216937fc2575a0e9e593c00f959f8c92f12db2869c3395a3b0502d05e2516446f71f85b91845b8681106200088f575083600195961062000875575b505050811b016003556200011f565b015160001960f88460031b161c1916905538808062000866565b9192602060018192868501518155019401920162000851565b600383527fc2575a0e9e593c00f959f8c92f12db2869c3395a3b0502d05e2516446f71f85b601f830160051c8101916020841062000905575b601f0160051c01905b818110620008f95750620000ed565b838155600101620008ea565b9091508190620008e1565b634e487b7160e01b83526022600452602483fd5b90607f1690620000d9565b015190503880620000a0565b600283526000805160206200546883398151915290601f198316845b81811062000997575095836001959697106200097d575b505050811b01600255620000b6565b015160001960f88460031b161c191690553880806200096e565b9192602060018192868b01518155019401920162000957565b6002835260008051602062005468833981519152601f830160051c81019160208410620009fc575b601f0160051c01905b818110620009f0575062000085565b838155600101620009e1565b9091508190620009d8565b90607f169062000071565b600080fd5b6101c081019081106001600160401b038211176200066b57604052565b606081019081106001600160401b038211176200066b57604052565b604081019081106001600160401b038211176200066b57604052565b601754680100000000000000008110156200066b57600181018060175581101562000772576101a0600d916017600052600e602060002091020192805184556020810151600185015560408101516002850155606081015160038501556080810151600485015560a0810151600585015560c0810151600685015560e0810151600785015561010081015160088501556101208101516009850155610140810151600a850155610160810151600b850155610180810151600c8501550151910155565b6040519062000b3e8262000a34565b603582527f6e505a6b6f583647533777385a697a706e4658377600000000000000000000006040837f697066733a2f2f516d5579576d7072793853726939426d734853514d4442507460208201520152565b601854680100000000000000008110156200066b5760018082018060185582101562000772576000906018825260209260038484209102018451815581810192848601519182519460018060401b039586811162000e6e578154948686811c9616801562000e63575b8987101462000e4f57601f9586811162000e07575b50889086831160011462000d975791806002949260409694889262000d8b575b5050600019600383901b1c191690881b1790555b0196015190815194851162000d775786548481811c9116801562000d6c575b8782101462000d585783811162000d10575b508592851160011462000cad57939450849291908362000ca1575b50501b916000199060031b1c1916179055565b01519250388062000c8e565b86815285812093958591601f198316915b8883831062000cf5575050501062000cdb575b505050811b019055565b015160001960f88460031b161c1916905538808062000cd1565b85870151885590960195948501948793509081019062000cbe565b8782528682208480880160051c82019289891062000d4e575b0160051c019085905b82811062000d4257505062000c73565b83815501859062000d32565b9250819262000d29565b634e487b7160e01b82526022600452602482fd5b90607f169062000c61565b634e487b7160e01b81526041600452602490fd5b01519050388062000c2e565b8386528986208893929091601f198416885b8d82821062000df0575050916040979593918560029896941062000dd6575b505050811b01905562000c42565b015160001960f88460031b161c1916905538808062000dc8565b8385015186558c9790950194938401930162000da9565b8386528986208780850160051c8201928c861062000e45575b0160051c019088905b82811062000e3957505062000c0e565b87815501889062000e29565b9250819262000e20565b634e487b7160e01b85526022600452602485fd5b95607f169562000bf9565b634e487b7160e01b84526041600452602484fdfe6080604052600436101561001257600080fd5b60003560e01c806275a3171461041657806301ffc9a71461041157806306fdde031461040c578063081812fc1461040757806308ec6c3c14610402578063095ea7b3146103fd5780630ce90ec2146103f85780630db0de52146103f357806313af4035146103ee57806315d57827146103e957806318160ddd146103e457806323b872dd146103df5780632401c739146103da5780632419f51b146103d5578063262a8c3b146103d05780632a55205a146103cb5780632c8854fe146103c657806332f0cd64146103c15780633b1475a7146103bc57806341f43434146103b757806342842e0e146103b257806342966c68146103ad578063430c2081146103a857806343a511d5146103a3578063479d35e61461039e5780634cc157df14610399578063504c6e011461039457806355483d451461038f5780635ada84561461038a5780635cec154914610385578063600dd5ea146103805780636352211e1461037b57806363b45e2d1461037657806367772584146103715780636ffd17d41461036c57806370a082311461036757806373726d5014610362578063754a81d91461035d57806375dd8ace14610358578063835576ed146103535780638da5cb5b1461034e5780639048e5ca14610349578063938e3d7b14610344578063954643ca1461033f57806395d89b411461033a5780639bcf7a15146103355780639c7e334c14610330578063a22cb4651461032b578063a6d13ee214610326578063ac9650d814610321578063b24f2d391461031c578063b88d4fde14610317578063bc197c8114610312578063bcb7ea081461030d578063c87b56dd14610308578063d2e4c18914610303578063d5937dae146102fe578063dabb0531146102f9578063e5f69e41146102f4578063e8a3d485146102ef578063e985e9c5146102ea578063ef3877c5146102e5578063f1be42f1146102e05763f23a6e61146102db57600080fd5b612b1d565b612aff565b612ad3565b612a76565b612a5a565b6128a2565b61276f565b61272b565b6126c1565b61268e565b61266f565b6125e7565b612513565b6124dd565b612478565b6123e7565b612333565b6121e3565b61212f565b61208b565b612062565b611ee1565b611eb2565b611e89565b611e6d565b611e3e565b611cad565b611c05565b611baa565b611b81565b611b52565b611b34565b611b04565b611a3b565b6119c7565b6117a2565b611779565b611756565b611719565b6116ea565b61164f565b6115b0565b611391565b611308565b6112df565b6112c1565b6111fb565b6111c2565b611166565b610f09565b610e83565b610e54565b610e24565b610dcc565b610cf0565b610c4b565b610c07565b610b17565b610a6f565b6109f1565b6109c1565b6108e1565b6107ce565b610587565b600435906001600160a01b038216820361043157565b600080fd5b602435906001600160a01b038216820361043157565b634e487b7160e01b600052604160045260246000fd5b6001600160401b03811161047557604052565b61044c565b604081019081106001600160401b0382111761047557604052565b6101c081019081106001600160401b0382111761047557604052565b606081019081106001600160401b0382111761047557604052565b602081019081106001600160401b0382111761047557604052565b90601f801991011681019081106001600160401b0382111761047557604052565b6040519061051582610495565b565b6001600160401b03811161047557601f01601f191660200190565b92919261053e82610517565b9161054c60405193846104e7565b829481845281830111610431578281602093846000960137010152565b9080601f830112156104315781602061058493359101610532565b90565b3461043157604080600319360112610431576105a161041b565b6001600160401b0390602435828111610431576105c360049136908301610569565b9360018060a01b03926105db84600954163314612be5565b6105e86000968754612cd3565b8151906105f4826104cc565b86825286549481169586156107ad576106d79061065061061384612df7565b61063661062782546001600160401b031690565b6001016001600160401b031690565b6001600160401b03166001600160401b0319825416179055565b61069f61065c84612df7565b80546106739060401c6001600160401b0316610627565b90805467ffffffffffffffff60401b191660409290921b67ffffffffffffffff60401b16919091179055565b6106bc836106b7896000526004602052604060002090565b612f6c565b42166106d2876000526004602052604060002090565b612f8b565b8495600190818701833b15156000146107625782805b61070a575b505050505050505082540361070657815580f35b5080fd5b15610755575b8989838c6000805160206145908339815191528180a461073b61073787868d019c88613409565b1590565b61074557836106ed565b86516368d2bf6b60e11b81528890fd5b80891061071057806106f2565b945095509350505081805b61077b575b50505050815580f35b156107a0575b84828086019585886000805160206145908339815191528180a461076d565b8084106107815780610772565b50505051622e076360e81b8152fd5b6001600160e01b031981160361043157565b346104315760203660031901126104315760206004356107ed816107bc565b6001600160e01b0319166301ffc9a760e01b8114801561086d575b801561085d575b801561084d575b8091811561082b575b50506040519015158152f35b630271189760e51b1491508115610845575b50388061081f565b90503861083d565b5063152a902d60e11b8114610816565b50635b5e139f60e01b811461080f565b506380ac58cd60e01b8114610808565b600091031261043157565b60005b83811061089b5750506000910152565b818101518382015260200161088b565b906020916108c481518092818552858086019101610888565b601f01601f1916010190565b9060206105849281815201906108ab565b34610431576000806003193601126109be57604051816002546109038161182e565b80845290600190818116908115610996575060011461093d575b6109398461092d818803826104e7565b604051918291826108d0565b0390f35b60028352602094507f405787fa12a823e0f2b7631cc41b3ba8828b3321ca811111fa75cd3aa3bb5ace5b82841061098357505050816109399361092d928201019361091d565b8054858501870152928501928101610967565b610939965061092d9450602092508593915060ff191682840152151560051b8201019361091d565b80fd5b346104315760203660031901126104315760206109df600435612f13565b6040516001600160a01b039091168152f35b3461043157602036600319011261043157610a0a61041b565b6009546001600160a01b03919082163303610a35571660018060a01b03196015541617601555600080f35b60405162461bcd60e51b815260206004820152600e60248201526d139bdd08185d5d1a1bdc9a5e995960921b6044820152606490fd5b0390fd5b3461043157604036600319011261043157610a8861041b565b602435610a9482613728565b6001600160a01b039081610aa782612e6d565b51168092841614610b0557813303610ac5575b610ac39261330e565b005b60008281526007602090815260408083203384529091529020610aee90610737905b5460ff1690565b15610aba576040516367d9dca160e11b8152600490fd5b60405163250fdee360e21b8152600490fd5b3461043157602036600319011261043157600435806000526010602052604060002090600c820180549182610bab57610ba792600292610b7c610b6c610b5f610b9d95612e6d565b516001600160a01b031690565b6001600160a01b03163314613f87565b610b966001870192610b8e845461350c565b80945561351a565b90556137e6565b9201918254613528565b9055005b60405162461bcd60e51b815260206004820152602e60248201527f4d7573742075736520757020616c6c207374617420706f696e7473206265666f60448201526d07265206c6576656c696e672075760941b6064820152608490fd5b3461043157602036600319011261043157610c2061041b565b6009546001600160a01b03919082163303610a35571660018060a01b03196014541617601455600080f35b3461043157602036600319011261043157610c6461041b565b600954906001600160a01b038083169133839003610a3557166001600160a01b03199290921682176009557f8292fce18fa69edf4db7b94ea2e58241df0ae57f97e0a6c9b29067028bf92d76600080a3005b634e487b7160e01b600052603260045260246000fd5b601754811015610ceb576017600052600e602060002091020190600090565b610cb6565b346104315760203660031901126104315760043560175481101561043157610d1790610ccc565b50805461093960018301549260028101549060038101546004820154600583015460068401546007850154600886015491600987015493600a88015495600b89015497600d600c8b01549a01549a6040519e8f9e8f9b99979593919e9d9c9a98969492909e6101c08d019f8d5260208d015260408c015260608b015260808a015260a089015260c088015260e08701526101008601526101208501526101408401526101608301526101808201526101a00152565b346104315760003660031901126104315760206000546001549003604051908152f35b6060906003190112610431576001600160a01b0390600435828116810361043157916024359081168103610431579060443590565b3461043157610ac3610e3536610def565b916001600160a01b038116331461313f57610e4f33613728565b61313f565b346104315760203660031901126104315760043560005260116020526020600260406000200154604051908152f35b3461043157602036600319011261043157600435600c54811015610ed457600c6000527fdf6966c971051c3d54ec59162606531493a51404a002842f56009d7e5cf4a8c70154604051908152602090f35b60405162461bcd60e51b815260206004820152600d60248201526c092dcecc2d8d2c840d2dcc8caf609b1b6044820152606490fd5b34610431576040366003190112610431576014546024359060043590610f3f906001600160a01b03165b6001600160a01b031690565b60405163bd85b03960e01b81526004810184905260209291908381602481855afa801561108b57610f7a91600091611149575b501515613fd8565b604051627eeac760e11b815233600482015260248101859052928084604481855afa801561108b578594610fb99260009261111c575b5050151561401c565b610fdc836001610fd3856000526011602052604060002090565b01541415614064565b6001610ff2836000526011602052604060002090565b01549081158015908161110f575b81156110f5575b50611090575b50506110256001916000526011602052604060002090565b015560145461103c906001600160a01b0316610f33565b803b1561043157604051637921219560e11b8152906000908290818381611068883033600485016140a8565b03925af1801561108b5761107857005b80611085610ac392610462565b8061087d565b6133cd565b80919293503b1561043157604051637921219560e11b81529160009183918290849082906110c3903330600485016140a8565b03925af1801561108b578392600192611025926110e2575b509161100d565b806110856110ef92610462565b386110db565b905080611103575b38611007565b5061270f8414156110fd565b61270f8414159150611000565b61113b9250803d10611142575b61113381836104e7565b810190613fc9565b3880610fb0565b503d611129565b6111609150853d87116111425761113381836104e7565b38610f72565b346104315760403660031901126104315761ffff602435611188600435613812565b92909216908181029181830414901517156111bd57604080516001600160a01b03939093168352612710909104602083015290f35b6134f6565b346104315760203660031901126104315760043560005260106020526020600360406000200154604051908152f35b8015150361043157565b3461043157602036600319011261043157600435611218816111f1565b6009546001600160a01b031633036112685760207f38475885990d8dfe9ca01f0ef160a1b5514426eab9ddbc953a3353410ba7809691151560ff19600e541660ff821617600e55604051908152a1005b60405162461bcd60e51b815260206004820152602b60248201527f4e6f7420617574686f72697a656420746f20736574206f70657261746f72207260448201526a32b9ba3934b1ba34b7b71760a91b6064820152608490fd5b34610431576000366003190112610431576020600054604051908152f35b346104315760003660031901126104315760206040516daaeb6d7670e522a718067333cd4e8152f35b346104315761131636610def565b6001600160a01b0383163314159182611383575b60405192611337846104cc565b60008452611375575b61134b82828661313f565b803b61135357005b61135c936134b2565b1561136357005b6040516368d2bf6b60e11b8152600490fd5b61137e33613728565b611340565b61138c33613728565b61132a565b34610431576020366003190112610431576004356113ae81612e6d565b80516001600160a01b039081169081903382148015611570575b801561155c575b1561154a576000936113e183876132c1565b6114706113ed84612df7565b61143161141461140483546001600160401b031690565b600019016001600160401b031690565b825467ffffffffffffffff19166001600160401b03909116178255565b80546114489060801c6001600160401b0316610627565b815467ffffffffffffffff60801b191660809190911b67ffffffffffffffff60801b16179055565b6114b7611487876000526004602052604060002090565b6114918582612f6c565b6114a46001600160401b03421682612f8b565b805460ff60e01b1916600160e01b179055565b600186016114cf816000526004602052604060002090565b80549093166001600160a01b03161561150d575b505050506000805160206145908339815191528280a4610ac361150860015460010190565b600155565b85540361151b575b806114e3565b602061153c9161152e6115429585612f6c565b01516001600160401b031690565b90612f8b565b388080611515565b604051632ce44b5f60e11b8152600490fd5b503361156a610f3387612f13565b146113cf565b506115ab610ae7336115948560018060a01b03166000526007602052604060002090565b9060018060a01b0316600052602052604060002090565b6113c8565b346104315760403660031901126104315760206115cb61041b565b602435906001600160a01b03806115e184612e6d565b5116928183169284841494851561161f575b50508315611609575b5050506040519015158152f35b61161591929350612f13565b16143880806115fc565b60009081526007875260408082206001600160a01b03939093168252602092909252205460ff16935038806115f3565b34610431576020366003190112610431576004356116a960016116a181611680856000526011602052604060002090565b01549361169161270f8614156140e0565b6000526011602052604060002090565b0161270f9055565b6014546116be906001600160a01b0316610f33565b803b1561043157604051637921219560e11b8152906000908290818381611068883330600485016140a8565b346104315760203660031901126104315760043560005260106020526020600660406000200154604051908152f35b3461043157602036600319011261043157611735600435613812565b604080516001600160a01b0393909316835261ffff91909116602083015290f35b3461043157600036600319011261043157602060ff600e54166040519015158152f35b34610431576000366003190112610431576014546040516001600160a01b039091168152602090f35b34610431576040366003190112610431576024356117c1600435613b29565b6013546001600160a01b031690813b15610431576000809260446040518095819363bfa0fedb60e01b83528660048401523360248401525af191821561108b57610ac39261181b575b5061181660165461396f565b6141ef565b8061108561182892610462565b3861180a565b90600182811c9216801561185e575b602083101461184857565b634e487b7160e01b600052602260045260246000fd5b91607f169161183d565b604051906000826008549161187c8361182e565b80835260019380851690811561190257506001146118a2575b50610515925003836104e7565b600860009081527ff3f7a9fe364faab93b216da50a3214154f22a0a2b415b23a84c8169e8b636ee394602093509091905b8183106118ea575050610515935082010138611895565b855488840185015294850194879450918301916118d3565b905061051594506020925060ff191682840152151560051b82010138611895565b90604051918260008254926119378461182e565b9081845260019485811690816000146119a45750600114611961575b5050610515925003836104e7565b9093915060005260209081600020936000915b81831061198c57505061051593508201013880611953565b85548884018501529485019487945091830191611974565b91505061051594506020925060ff191682840152151560051b8201013880611953565b3461043157602036600319011261043157600435601854811015610431576018600052600360206000209102018054610939611a116002611a0a60018601611923565b9401611923565b611a2d60405194859485526060602086015260608501906108ab565b9083820360408501526108ab565b3461043157604036600319011261043157611a5461041b565b600954602435916001600160a01b039182163303610a35576127108311611acd57600a80546001600160b01b0319169190921690811760a084901b61ffff60a01b1617909155604051918252907f90d7ec04bcb8978719414f82e52e4cb651db41d0e6f8cea6118c2191e6183adb9080602081010390a2005b60405162461bcd60e51b815260206004820152600f60248201526e45786365656473206d61782062707360881b6044820152606490fd5b346104315760203660031901126104315760206001600160a01b03611b2a600435612e6d565b5116604051908152f35b34610431576000366003190112610431576020600c54604051908152f35b346104315760203660031901126104315760043560005260106020526020600560406000200154604051908152f35b34610431576000366003190112610431576013546040516001600160a01b039091168152602090f35b34610431576020366003190112610431576001600160a01b03611bcb61041b565b168015611bf357600052600560205260206001600160401b0360406000205416604051908152f35b6040516323d3ad8160e21b8152600490fd5b3461043157602036600319011261043157600435600081819282526011602052611c46611c3f60408420549261169161270f85141561443f565b61270f9055565b601354611c5b906001600160a01b0316610f33565b90813b15611ca9578291611c8791604051948580948193637921219560e11b83523330600485016140a8565b03925af1801561108b57611c99575080f35b80611085611ca692610462565b80f35b5050fd5b3461043157608036600319011261043157611cc661041b565b602435604435916001600160401b039283811161043157611ceb903690600401610569565b9160643584811161043157611d04903690600401610569565b91611d1a60018060a01b03600954163314612be5565b60009384548381018091116111bd57600c5490600160401b82101561047557611d6781611d4e600194858101600c556134db565b90919082549060031b91821b91600019901b1916179055565b86526020600d81526040872092805198891161047557611d9189611d8b865461182e565b86612c7f565b81601f8a11600114611dd057509780928192899a611ca69a94611dc5575b50501b916000199060031b1c1916179055612fb6565b015192503880611daf565b909891601f19831699611de886600052602060002090565b928a905b8c8210611e2757505083611ca69a9b10611e0e575b505050811b019055612fb6565b015160001960f88460031b161c19169055388080611e01565b808785968294968601518155019501930190611dec565b346104315760203660031901126104315760043560005260106020526020600460406000200154604051908152f35b3461043157602036600319011261043157610ac3600435613b29565b34610431576000366003190112610431576009546040516001600160a01b039091168152602090f35b346104315760203660031901126104315760043560005260116020526020600160406000200154604051908152f35b3461043157602080600319360112610431576001600160401b039060043582811161043157611f14903690600401610569565b6009549091906001600160a01b03163303610a3557611f31611868565b90825193841161047557611f4f84611f4a60085461182e565b612c2b565b80601f8511600114611fbc575092807fc9c7c3fe08b88b4df9d4d47ef47d2c43d55c025a0ba88ca442580ed9e7348a1694600091611fb1575b508160011b916000199060031b1c1916176008555b611fac6040519283928361361d565b0390a1005b905083015138611f88565b600860005290601f1985167ff3f7a9fe364faab93b216da50a3214154f22a0a2b415b23a84c8169e8b636ee3926000905b82821061204a5750509185917fc9c7c3fe08b88b4df9d4d47ef47d2c43d55c025a0ba88ca442580ed9e7348a169660019410612031575b5050811b01600855611f9d565b85015160001960f88460031b161c191690553880612024565b80600185968294968a01518155019501930190611fed565b34610431576000366003190112610431576015546040516001600160a01b039091168152602090f35b34610431576000806003193601126109be57604051816003546120ad8161182e565b8084529060019081811690811561099657506001146120d6576109398461092d818803826104e7565b60038352602094507fc2575a0e9e593c00f959f8c92f12db2869c3395a3b0502d05e2516446f71f85b5b82841061211c57505050816109399361092d928201019361091d565b8054858501870152928501928101612100565b346104315760603660031901126104315760043561214b610436565b6009546001600160a01b0392916044359184163303610a35576127108211611acd577f7365cf4122f072a3365c20d54eff9b38d73c096c28e1892ec8f5b0e403a0f12d916121de91600186604051926121a38461047a565b16968783526121ca602084019185835288600052600b602052604060002094511684612f6c565b519101556040519081529081906020820190565b0390a3005b346104315760a03660031901126104315760843560243560443560643560043561220c81612e6d565b516001600160a01b031661222a906001600160a01b03163314613ee4565b84826122368587613528565b9061224091613528565b9061224a91613528565b60051461225690613f41565b61226a906000526010602052604060002090565b93600785018481549061227c91613528565b9055600885018381549061228f91613528565b905560098501828154906122a291613528565b9055600a8501818154906122b591613528565b90556122c0906137fc565b60038501908154906122d191613528565b90556122dc906137fc565b60048401908154906122ed91613528565b90556122f8906137fc565b600b83019081549061230991613528565b9055612314906137fc565b600582019081549061232591613528565b9055600c0160009055600080f35b346104315760403660031901126104315761234c61041b565b602435612358816111f1565b61236182613728565b6001600160a01b038216913383146123d5573360009081526007602090815260408083206001600160a01b039094168352929052209015159060ff1981541660ff83161790556040519081527f17307eab39ab6107e8899845ad3d59bd9653f200f220920489ca2b5937696c3160203392a3005b60405163b06307db60e01b8152600490fd5b346104315760203660031901126104315760043560005260106020526020600160406000200154604051908152f35b602080820190808352835180925260408301928160408460051b8301019501936000915b84831061244a5750505050505090565b9091929394958480612468600193603f198682030187528a516108ab565b980193019301919493929061243a565b34610431576020366003190112610431576001600160401b036004358181116104315736602382011215610431578060040135918211610431573660248360051b83010111610431576109399160246124d19201613651565b60405191829182612416565b3461043157600036600319011261043157600a54604080516001600160a01b038316815260a09290921c61ffff16602083015290f35b346104315760803660031901126104315761252c61041b565b612534610436565b6044356064356001600160401b03811161043157612556903690600401610569565b91336001600160a01b038516036113755761134b82828661313f565b6001600160401b0381116104755760051b60200190565b81601f82011215610431578035916125a083612572565b926125ae60405194856104e7565b808452602092838086019260051b820101928311610431578301905b8282106125d8575050505090565b813581529083019083016125ca565b346104315760a03660031901126104315761260061041b565b50612609610436565b506001600160401b036044358181116104315761262a903690600401612589565b5060643581811161043157612643903690600401612589565b506084359081116104315761265c903690600401610569565b5060405163bc197c8160e01b8152602090f35b3461043157604036600319011261043157610ac36024356004356141ef565b34610431576020366003190112610431576109396126ad600435612b72565b6040519182916020835260208301906108ab565b34610431576020366003190112610431576002612714600435826126ef826000526011602052604060002090565b0154906126fd82151561454f565b600093849384926000526011602052604060002090565b0155601554611c5b906001600160a01b0316610f33565b346104315760203660031901126104315761274461041b565b6009546001600160a01b03919082163303610a35571660018060a01b03196013541617601355600080f35b346104315760203660031901126104315760405161278c81610495565b6101a06000918281528260208201528260408201528260608201528260808201528260a08201528260c08201528260e0820152826101008201528261012082015282610140820152826101608201528261018082015201526109396128056128006004356000526010602052604060002090565b613a4a565b604051918291829190916101c0810192805182526020810151602083015260408101516040830152606081015160608301526080810151608083015260a081015160a083015260c081015160c083015260e081015160e0830152610100808201519083015261012080820151908301526101408082015190830152610160808201519083015261018080820151908301526101a080910151910152565b346104315760403660031901126104315760155460243590600435906128d0906001600160a01b0316610f33565b60405163bd85b03960e01b81526004810184905260209291908381602481855afa801561108b5761290b91600091612a3d575b50151561447f565b604051627eeac760e11b815233600482015260248101859052928084604481855afa801561108b57859461294a92600092612a20575b505015156144be565b61296d836002612964856000526011602052604060002090565b0154141561450a565b6002612983836000526011602052604060002090565b015490816129bb575b50506129a46002916000526011602052604060002090565b015560155461103c906001600160a01b0316610f33565b80919293503b1561043157604051637921219560e11b81529160009183918290849082906129ee903330600485016140a8565b03925af1801561108b5783926002926129a492612a0d575b509161298c565b80611085612a1a92610462565b38612a06565b612a369250803d106111425761113381836104e7565b3880612941565b612a549150853d87116111425761113381836104e7565b38612903565b34610431576000366003190112610431576109396126ad611868565b3461043157604036600319011261043157602060ff612ac7612a9661041b565b612a9e610436565b6001600160a01b0391821660009081526007865260408082209290931681526020919091522090565b54166040519015158152f35b346104315760203660031901126104315760043560005260116020526020604060002054604051908152f35b34610431576000366003190112610431576020601654604051908152f35b346104315760a036600319011261043157612b3661041b565b50612b3f610436565b506084356001600160401b03811161043157612b5f903690600401610569565b5060405163f23a6e6160e01b8152602090f35b806000526020600f8152612b896040600020611923565b8051612bdf575061058490612ba6612ba084613549565b9361398f565b926040519381612bbf8693518092868087019101610888565b8201612bd382518093868085019101610888565b010380845201826104e7565b91505090565b15612bec57565b60405162461bcd60e51b81526020600482015260176024820152762737ba1030baba3437b934bd32b2103a379036b4b73a1760491b6044820152606490fd5b601f8111612c37575050565b6000906008825260208220906020601f850160051c83019410612c75575b601f0160051c01915b828110612c6a57505050565b818155600101612c5e565b9092508290612c55565b90601f8111612c8d57505050565b600091825260208220906020601f850160051c83019410612cc9575b601f0160051c01915b828110612cbe57505050565b818155600101612cb2565b9092508290612ca9565b9190600090838252602093600f8552612cef604084205461182e565b612dc0578252600f845260408220918151916001600160401b03831161047557612d1d83611d8b865461182e565b8591601f8411600114612d5657839495965092612d4b575b50508160011b916000199060031b1c1916179055565b015190503880612d35565b9190601f19841696612d6d86600052602060002090565b93905b888210612da857505083600195969710612d8f575b505050811b019055565b015160001960f88460031b161c19169055388080612d85565b80600185968294968601518155019501930190612d70565b60405162461bcd60e51b815260048101869052600f60248201526e15549248185b1c9958591e481cd95d608a1b6044820152606490fd5b6001600160a01b0316600090815260056020526040902090565b60405190612e1e826104b1565b60006040838281528260208201520152565b90604051612e3d816104b1565b91546001600160a01b038116835260a081901c6001600160401b0316602084015260e01c60ff1615156040830152565b612e75612e11565b50806000548110612e93575b604051636f96cda160e11b8152600490fd5b612eaa612eaf916000526004602052604060002090565b612e30565b612ebf6107376040830151151590565b15612e815780516001600160a01b0316612f0e57505b60001901612ef0612eaa826000526004602052604060002090565b8051612f04906001600160a01b0316610f33565b612f0e5750612ed5565b905090565b600054811080612f50575b15612f3e576000908152600660205260409020546001600160a01b031690565b6040516333d1c03960e21b8152600490fd5b5080600052600460205260ff60406000205460e01c1615612f1e565b80546001600160a01b0319166001600160a01b03909216919091179055565b805467ffffffffffffffff60a01b191660a09290921b67ffffffffffffffff60a01b16919091179055565b6000805492939092916001600160a01b038116801561312e57851561311c576130646001600160401b03613036818916613014612ff287612df7565b6106368361300783546001600160401b031690565b016001600160401b031690565b61067361302087612df7565b9161300783546001600160401b039060401c1690565b61304e846106b7886000526004602052604060002090565b42166106d2866000526004602052604060002090565b8395840190823b15156000146130d35760019182805b61308f575b5050505050508154036109be5755565b156130c6575b868883896000805160206145908339815191528180a46130bc61073787868c019b88613409565b611363578361307a565b808810613095578061307f565b935091505060019081805b6130ea575b5050505055565b1561310f575b83828087019685876000805160206145908339815191528180a46130de565b8085106130f057806130e3565b60405163b562e8dd60e01b8152600490fd5b604051622e076360e81b8152600490fd5b61314883612e6d565b80516001600160a01b0380841693929181168490036132b0578333148015613287575b8015613273575b1561154a578416938415613261576131e89061318e84886132c1565b6131ae61319a85612df7565b61063661140482546001600160401b031690565b6131ba61061382612df7565b6131d86131d1886000526004602052604060002090565b9182612f6c565b6001600160401b03421690612f8b565b6001850190613201826000526004602052604060002090565b8054909290613218906001600160a01b0316610f33565b15613237575b50505050600080516020614590833981519152600080a4565b60005403613246575b8061321e565b602061153c9161152e6132599585612f6c565b388080613240565b604051633a954ecd60e21b8152600490fd5b5033613281610f3388612f13565b14613172565b506132ab610ae7336115948660018060a01b03166000526007602052604060002090565b61316b565b60405162a1148160e81b8152600490fd5b600081815260066020526040812080546001600160a01b031916905590916001600160a01b03167f8c5be1e5ebec7d5bd14f71427d1e84f3dd0314c0f7b2291e5b200ac8c7c3b9258280a4565b919091826000526006602052613328816040600020612f6c565b6001600160a01b0390811691167f8c5be1e5ebec7d5bd14f71427d1e84f3dd0314c0f7b2291e5b200ac8c7c3b925600080a4565b908160209103126104315751610584816107bc565b610584939260809260018060a01b0316825260006020830152604082015281606082015201906108ab565b6001600160a01b039182168152911660208201526040810191909152608060608201819052610584929101906108ab565b6040513d6000823e3d90fd5b3d15613404573d906133ea82610517565b916133f860405193846104e7565b82523d6000602084013e565b606090565b61343260209160009394604051948580948193630a85bd0160e11b998a84523360048501613371565b03926001600160a01b03165af160009181613482575b50613474576134556133d9565b8051908161346f576040516368d2bf6b60e11b8152600490fd5b602001fd5b6001600160e01b0319161490565b6134a491925060203d81116134ab575b61349c81836104e7565b81019061335c565b9038613448565b503d613492565b92602091613432936000604051809681958294630a85bd0160e11b9a8b8552336004860161339c565b600c54811015610ceb57600c60005260206000200190600090565b634e487b7160e01b600052601160045260246000fd5b90600182018092116111bd57565b90600582018092116111bd57565b919082018092116111bd57565b8051821015610ceb5760209160051b010190565b600c54906040519081838152826020809201600c600052826000209260005b87811061360657505061357d925003836104e7565b60005b8381106135be5760405162461bcd60e51b815260206004820152600f60248201526e125b9d985b1a59081d1bdad95b9259608a1b6044820152606490fd5b6135c88184613535565b5182106135dd576135d89061350c565b613580565b61058493506135f0915061360192613535565b51600052600d602052604060002090565b611923565b845483526001948501948794509282019201613568565b9091613634610584936040845260408401906108ab565b9160208184039101526108ab565b60001981146111bd5760010190565b9061365b81612572565b9161366960405193846104e7565b818352601f1961367883612572565b0160005b81811061370257505060005b8281106136955750505090565b8060051b820135601e1983360301811215610431578201908135916001600160401b038311610431576020018236038113610431576136dc6136e2916136fd943691610532565b3061386d565b6136ec8287613535565b526136f78186613535565b50613642565b613688565b80606060208093880101520161367c565b908160209103126104315751610584816111f1565b600e5460ff166137355750565b6daaeb6d7670e522a718067333cd4e803b61374e575050565b604051633185c44d60e21b81523060048201526001600160a01b038316602482015290602090829060449082905afa90811561108b576000916137b8575b50156137955750565b604051633b79c77360e21b81526001600160a01b03919091166004820152602490fd5b6137d9915060203d81116137df575b6137d181836104e7565b810190613713565b3861378c565b503d6137c7565b906064820291808304606414901517156111bd57565b906005820291808304600514901517156111bd57565b600052600b60205260406000209060206040519261382f8461047a565b80546001600160a01b03908116808652600190920154929094018290528061386457505061ffff600a549283169260a01c1690565b925061ffff1690565b906040519061387b826104b1565b602782527f416464726573733a206c6f772d6c6576656c2064656c65676174652063616c6c6020830152660819985a5b195960ca1b6040830152823b156138db576000816105849460208394519201905af46138d56133d9565b9061392f565b60405162461bcd60e51b815260206004820152602660248201527f416464726573733a2064656c65676174652063616c6c20746f206e6f6e2d636f6044820152651b9d1c9858dd60d21b6064820152608490fd5b9091901561393b575090565b81511561394b5750805190602001fd5b60405162461bcd60e51b815260206004820152908190610a6b9060248301906108ab565b6000198101919082116111bd57565b908151811015610ceb570160200190565b8015613a2c57806000908282935b613a1857506139ab83610517565b926139b960405194856104e7565b80845281601f196139c983610517565b013660208701375b6139db5750505090565b6139e49061396f565b90600a90603082820681018091116111bd5760f81b6001600160f81b031916841a613a0f848761397e565b530490816139d1565b92613a24600a91613642565b93048061399d565b50604051613a398161047a565b60018152600360fc1b602082015290565b90600d613a55610508565b928054845260018101546020850152600281015460408501526003810154606085015260048101546080850152600581015460a0850152600681015460c0850152600781015460e085015260088101546101008501526009810154610120850152600a810154610140850152600b810154610160850152600c81015461018085015201546101a0830152565b15613ae857565b60405162461bcd60e51b8152602060048201526019602482015278125b9d985b1a590818da185c9858dd195c881d1e5c19481251603a1b6044820152606490fd5b6018548110613b3790613ae1565b613b4033613d93565b60168054613b58836000526012602052604060002090565b600201613b6490611923565b613b6d91612cd3565b8054613b7883610ccc565b506001015490613b8784610ccc565b506002015484613b9681610ccc565b5060030154613ba482610ccc565b5060040154613bb283610ccc565b5060050154613bc084610ccc565b5060060154613bce85610ccc565b506007015490613bdd86610ccc565b506008015492613bec87610ccc565b506009015494613bfb88610ccc565b50600a015496613c0a89610ccc565b50600b015498613c1990610ccc565b50600c015499613c27610508565b9c8d8d81526020015260408d015260608c015260808b015260a08a015260c089015260e0880152610100870152610120860152610140850152610160840152610180830152836101a0830152613c87906000526010602052604060002090565b815181556020820151600182015560408201516002820155606082015160038201556080820151600482015560a0820151600582015560c0820151600682015560e0820151600782015561010082015160088201556101208201516009820155610140820151600a820155610160820151600b820155610180820151600c8201556101a090910151600d909101558054613d2b906000526011602052604060002090565b61270f90558054613d46906000526011602052604060002090565b600101613d549061270f9055565b8054613d5f90613642565b60165554613d6c9061396f565b7f1d70055ce2e34b710424c8ce5a6e724570ab0ff0cdffb52107ba6f70821d21b9600080a3565b60408051613da0816104cc565b60009182825282549160018060a01b038516948515613ed457613dc561061382612df7565b613dd161065c82612df7565b613de9816106b7866000526004602052604060002090565b613e0a6001600160401b0342166106d2866000526004602052604060002090565b8395600190818601833b1515600014613e8b5782805b613e36575b505050505050508154036109be5755565b15613e7e575b8789838a6000805160206145908339815191528180a4613e6361073787868d019c88613409565b613e6d5783613e20565b86516368d2bf6b60e11b8152600490fd5b808910613e3c5780613e25565b93509450809350809150905b613ea2575050505055565b15613ec7575b83828087019685876000805160206145908339815191528180a4613e97565b808510613ea857806130e3565b8251622e076360e81b8152600490fd5b15613eeb57565b60405162461bcd60e51b815260206004820152602860248201527f43616c6c6572206973206e6f7420746865206f776e6572206f662074686520636044820152673430b930b1ba32b960c11b6064820152608490fd5b15613f4857565b60405162461bcd60e51b815260206004820152601760248201527655736520616c6c20746865207374617420706f696e747360481b6044820152606490fd5b15613f8e57565b60405162461bcd60e51b815260206004820152601360248201527221b0b63632b91034b9903737ba1037bbb732b960691b6044820152606490fd5b90816020910312610431575190565b15613fdf57565b60405162461bcd60e51b8152602060048201526015602482015274125b9d985b1a59081a5d195b481d1bdad95b881251605a1b6044820152606490fd5b1561402357565b60405162461bcd60e51b81526020600482015260196024820152784e6f7420746865206f776e6572206f6620746865206974656d60381b6044820152606490fd5b1561406b57565b60405162461bcd60e51b8152602060048201526015602482015274125d195b48185b1c9958591e48195c5d5a5c1c1959605a1b6044820152606490fd5b6001600160a01b0391821681529116602082015260408101919091526001606082015260a06080820181905260009082015260c00190565b156140e757565b60405162461bcd60e51b815260206004820152601060248201526f139bc81a5d195b48195c5d5a5c1c195960821b6044820152606490fd5b1561412657565b60405162461bcd60e51b815260206004820152601060248201526f125b9d985b1a59081cdada5b1b08125160821b6044820152606490fd5b1561416557565b60405162461bcd60e51b815260206004820152601a60248201527f4e6f7420746865206f776e6572206f662074686520736b696c6c0000000000006044820152606490fd5b156141b157565b60405162461bcd60e51b815260206004820152601660248201527514dada5b1b08185b1c9958591e48195c5d5a5c1c195960521b6044820152606490fd5b601354614204906001600160a01b0316610f33565b60405163bd85b03960e01b81526004810184905260209291908381602481855afa801561108b5761423f91600091614422575b50151561411f565b604051627eeac760e11b815233600482015260248101859052928084604481855afa801561108b57859461427e92600092614405575b5050151561415e565b82614293836000526011602052604060002090565b54148015906143d7575b6142a6906141aa565b6142ba826000526011602052604060002090565b54908115801590816143ca575b81156143b0575b5061434d575b50506142ea906000526011602052604060002090565b55601354614300906001600160a01b0316610f33565b803b1561043157604051637921219560e11b815291600091839182908490829061432f903033600485016140a8565b03925af1801561108b576143405750565b8061108561051592610462565b809193503b1561043157604051637921219560e11b815292600091849182908490829061437f903330600485016140a8565b03925af190811561108b5783926142ea9261439d575b8192506142d4565b806110856143aa92610462565b38614395565b9050806143be575b386142ce565b5061270f8414156143b8565b61270f84141591506142c7565b508215801561429d57506142a661270f6143fb846000526011602052604060002090565b541415905061429d565b61441b9250803d106111425761113381836104e7565b3880614275565b6144399150853d87116111425761113381836104e7565b38614237565b1561444657565b60405162461bcd60e51b8152602060048201526011602482015270139bc81cdada5b1b08195c5d5a5c1c1959607a1b6044820152606490fd5b1561448657565b60405162461bcd60e51b815260206004820152601060248201526f125b9d985b1a590818db185cdcc8125160821b6044820152606490fd5b156144c557565b60405162461bcd60e51b815260206004820152601a60248201527f4e6f7420746865206f776e6572206f662074686520636c6173730000000000006044820152606490fd5b1561451157565b60405162461bcd60e51b815260206004820152601660248201527510db185cdcc8185b1c9958591e48195c5d5a5c1c195960521b6044820152606490fd5b1561455657565b60405162461bcd60e51b8152602060048201526011602482015270139bc818db185cdcc8195c5d5a5c1c1959607a1b6044820152606490fdfeddf252ad1be2c89b69c2b068fc378daa952ba7f163c4a11628f55a4df523b3efa2646970667358221220512ae0939ffc1e64409bc0ff988523b49f652598d86d4c033f1b61b860d300fb64736f6c63430008120033405787fa12a823e0f2b7631cc41b3ba8828b3321ca811111fa75cd3aa3bb5ace",
  "linkReferences": {},
  "deployedLinkReferences": {}
}