{
  "_format": "hh-sol-artifact-1",
  "contractName": "Character",
  "sourceName": "contracts/Character.sol",
  "abi": [
    {
      "inputs": [],
      "stateMutability": "nonpayable",
      "type": "constructor"
    },
    {
      "inputs": [],
      "name": "ApprovalCallerNotOwnerNorApproved",
      "type": "error"
    },
    {
      "inputs": [],
      "name": "ApprovalQueryForNonexistentToken",
      "type": "error"
    },
    {
      "inputs": [],
      "name": "ApprovalToCurrentOwner",
      "type": "error"
    },
    {
      "inputs": [],
      "name": "ApproveToCaller",
      "type": "error"
    },
    {
      "inputs": [],
      "name": "BalanceQueryForZeroAddress",
      "type": "error"
    },
    {
      "inputs": [],
      "name": "MintToZeroAddress",
      "type": "error"
    },
    {
      "inputs": [],
      "name": "MintZeroQuantity",
      "type": "error"
    },
    {
      "inputs": [
        {
          "internalType": "address",
          "name": "operator",
          "type": "address"
        }
      ],
      "name": "OperatorNotAllowed",
      "type": "error"
    },
    {
      "inputs": [],
      "name": "OwnerQueryForNonexistentToken",
      "type": "error"
    },
    {
      "inputs": [],
      "name": "TransferCallerNotOwnerNorApproved",
      "type": "error"
    },
    {
      "inputs": [],
      "name": "TransferFromIncorrectOwner",
      "type": "error"
    },
    {
      "inputs": [],
      "name": "TransferToNonERC721ReceiverImplementer",
      "type": "error"
    },
    {
      "inputs": [],
      "name": "TransferToZeroAddress",
      "type": "error"
    },
    {
      "inputs": [],
      "name": "URIQueryForNonexistentToken",
      "type": "error"
    },
    {
      "anonymous": false,
      "inputs": [
        {
          "indexed": true,
          "internalType": "address",
          "name": "owner",
          "type": "address"
        },
        {
          "indexed": true,
          "internalType": "address",
          "name": "approved",
          "type": "address"
        },
        {
          "indexed": true,
          "internalType": "uint256",
          "name": "tokenId",
          "type": "uint256"
        }
      ],
      "name": "Approval",
      "type": "event"
    },
    {
      "anonymous": false,
      "inputs": [
        {
          "indexed": true,
          "internalType": "address",
          "name": "owner",
          "type": "address"
        },
        {
          "indexed": true,
          "internalType": "address",
          "name": "operator",
          "type": "address"
        },
        {
          "indexed": false,
          "internalType": "bool",
          "name": "approved",
          "type": "bool"
        }
      ],
      "name": "ApprovalForAll",
      "type": "event"
    },
    {
      "anonymous": false,
      "inputs": [
        {
          "indexed": true,
          "internalType": "uint256",
          "name": "tokenId",
          "type": "uint256"
        },
        {
          "indexed": false,
          "internalType": "uint256",
          "name": "stamina",
          "type": "uint256"
        },
        {
          "indexed": false,
          "internalType": "uint256",
          "name": "maxMana",
          "type": "uint256"
        },
        {
          "indexed": false,
          "internalType": "uint256",
          "name": "lastStaminaUpdateTime",
          "type": "uint256"
        },
        {
          "indexed": false,
          "internalType": "uint256",
          "name": "lastManaUpdateTime",
          "type": "uint256"
        }
      ],
      "name": "CharacterRecoveryStats",
      "type": "event"
    },
    {
      "anonymous": false,
      "inputs": [
        {
          "indexed": true,
          "internalType": "uint256",
          "name": "tokenId",
          "type": "uint256"
        },
        {
          "indexed": false,
          "internalType": "uint256",
          "name": "level",
          "type": "uint256"
        },
        {
          "indexed": false,
          "internalType": "uint256",
          "name": "experience",
          "type": "uint256"
        },
        {
          "indexed": false,
          "internalType": "uint256",
          "name": "health",
          "type": "uint256"
        },
        {
          "indexed": false,
          "internalType": "uint256",
          "name": "mana",
          "type": "uint256"
        },
        {
          "indexed": false,
          "internalType": "uint256",
          "name": "attack",
          "type": "uint256"
        },
        {
          "indexed": false,
          "internalType": "uint256",
          "name": "defense",
          "type": "uint256"
        },
        {
          "indexed": false,
          "internalType": "uint256",
          "name": "strength",
          "type": "uint256"
        },
        {
          "indexed": false,
          "internalType": "uint256",
          "name": "dexterity",
          "type": "uint256"
        },
        {
          "indexed": false,
          "internalType": "uint256",
          "name": "intelligence",
          "type": "uint256"
        },
        {
          "indexed": false,
          "internalType": "uint256",
          "name": "vitality",
          "type": "uint256"
        },
        {
          "indexed": false,
          "internalType": "uint256",
          "name": "accuracy",
          "type": "uint256"
        },
        {
          "indexed": false,
          "internalType": "uint256",
          "name": "statPoints",
          "type": "uint256"
        }
      ],
      "name": "CharacterStatsEvent",
      "type": "event"
    },
    {
      "anonymous": false,
      "inputs": [
        {
          "indexed": true,
          "internalType": "uint256",
          "name": "tokenId",
          "type": "uint256"
        },
        {
          "indexed": false,
          "internalType": "uint256",
          "name": "strength",
          "type": "uint256"
        },
        {
          "indexed": false,
          "internalType": "uint256",
          "name": "dexterity",
          "type": "uint256"
        },
        {
          "indexed": false,
          "internalType": "uint256",
          "name": "intelligence",
          "type": "uint256"
        },
        {
          "indexed": false,
          "internalType": "uint256",
          "name": "vitality",
          "type": "uint256"
        }
      ],
      "name": "CharacterStatsUpdated",
      "type": "event"
    },
    {
      "anonymous": false,
      "inputs": [
        {
          "indexed": true,
          "internalType": "uint256",
          "name": "tokenId",
          "type": "uint256"
        },
        {
          "indexed": false,
          "internalType": "uint256",
          "name": "xp",
          "type": "uint256"
        }
      ],
      "name": "CharacterXPUpdated",
      "type": "event"
    },
    {
      "anonymous": false,
      "inputs": [
        {
          "indexed": true,
          "internalType": "uint256",
          "name": "characterTokenId",
          "type": "uint256"
        },
        {
          "indexed": true,
          "internalType": "uint256",
          "name": "classId",
          "type": "uint256"
        }
      ],
      "name": "ClassEquipped",
      "type": "event"
    },
    {
      "anonymous": false,
      "inputs": [
        {
          "indexed": true,
          "internalType": "uint256",
          "name": "characterTokenId",
          "type": "uint256"
        },
        {
          "indexed": true,
          "internalType": "uint256",
          "name": "classId",
          "type": "uint256"
        }
      ],
      "name": "ClassUnequipped",
      "type": "event"
    },
    {
      "anonymous": false,
      "inputs": [
        {
          "indexed": false,
          "internalType": "string",
          "name": "prevURI",
          "type": "string"
        },
        {
          "indexed": false,
          "internalType": "string",
          "name": "newURI",
          "type": "string"
        }
      ],
      "name": "ContractURIUpdated",
      "type": "event"
    },
    {
      "anonymous": false,
      "inputs": [
        {
          "indexed": true,
          "internalType": "address",
          "name": "newRoyaltyRecipient",
          "type": "address"
        },
        {
          "indexed": false,
          "internalType": "uint256",
          "name": "newRoyaltyBps",
          "type": "uint256"
        }
      ],
      "name": "DefaultRoyalty",
      "type": "event"
    },
    {
      "anonymous": false,
      "inputs": [
        {
          "indexed": true,
          "internalType": "uint256",
          "name": "tokenId",
          "type": "uint256"
        },
        {
          "indexed": false,
          "internalType": "uint256",
          "name": "mana",
          "type": "uint256"
        }
      ],
      "name": "ManaUpdated",
      "type": "event"
    },
    {
      "anonymous": false,
      "inputs": [
        {
          "indexed": true,
          "internalType": "address",
          "name": "player",
          "type": "address"
        },
        {
          "indexed": true,
          "internalType": "uint256",
          "name": "tokenId",
          "type": "uint256"
        },
        {
          "indexed": false,
          "internalType": "uint256",
          "name": "typeId",
          "type": "uint256"
        }
      ],
      "name": "NewCharacter",
      "type": "event"
    },
    {
      "anonymous": false,
      "inputs": [
        {
          "indexed": false,
          "internalType": "bool",
          "name": "restriction",
          "type": "bool"
        }
      ],
      "name": "OperatorRestriction",
      "type": "event"
    },
    {
      "anonymous": false,
      "inputs": [
        {
          "indexed": true,
          "internalType": "address",
          "name": "prevOwner",
          "type": "address"
        },
        {
          "indexed": true,
          "internalType": "address",
          "name": "newOwner",
          "type": "address"
        }
      ],
      "name": "OwnerUpdated",
      "type": "event"
    },
    {
      "anonymous": false,
      "inputs": [
        {
          "indexed": true,
          "internalType": "uint256",
          "name": "tokenId",
          "type": "uint256"
        },
        {
          "indexed": true,
          "internalType": "address",
          "name": "royaltyRecipient",
          "type": "address"
        },
        {
          "indexed": false,
          "internalType": "uint256",
          "name": "royaltyBps",
          "type": "uint256"
        }
      ],
      "name": "RoyaltyForToken",
      "type": "event"
    },
    {
      "anonymous": false,
      "inputs": [
        {
          "indexed": true,
          "internalType": "uint256",
          "name": "tokenId",
          "type": "uint256"
        },
        {
          "indexed": false,
          "internalType": "uint256",
          "name": "stamina",
          "type": "uint256"
        }
      ],
      "name": "StaminaUpdated",
      "type": "event"
    },
    {
      "anonymous": false,
      "inputs": [
        {
          "indexed": true,
          "internalType": "address",
          "name": "from",
          "type": "address"
        },
        {
          "indexed": true,
          "internalType": "address",
          "name": "to",
          "type": "address"
        },
        {
          "indexed": true,
          "internalType": "uint256",
          "name": "tokenId",
          "type": "uint256"
        }
      ],
      "name": "Transfer",
      "type": "event"
    },
    {
      "inputs": [],
      "name": "OPERATOR_FILTER_REGISTRY",
      "outputs": [
        {
          "internalType": "contract IOperatorFilterRegistry",
          "name": "",
          "type": "address"
        }
      ],
      "stateMutability": "view",
      "type": "function"
    },
    {
      "inputs": [
        {
          "internalType": "uint256",
          "name": "tokenId",
          "type": "uint256"
        },
        {
          "internalType": "uint256",
          "name": "amount",
          "type": "uint256"
        }
      ],
      "name": "addMana",
      "outputs": [],
      "stateMutability": "nonpayable",
      "type": "function"
    },
    {
      "inputs": [
        {
          "internalType": "uint256",
          "name": "tokenId",
          "type": "uint256"
        },
        {
          "internalType": "uint256",
          "name": "amount",
          "type": "uint256"
        }
      ],
      "name": "addStamina",
      "outputs": [],
      "stateMutability": "nonpayable",
      "type": "function"
    },
    {
      "inputs": [
        {
          "internalType": "uint256",
          "name": "characterTokenId",
          "type": "uint256"
        },
        {
          "internalType": "uint256",
          "name": "strength",
          "type": "uint256"
        },
        {
          "internalType": "uint256",
          "name": "dexterity",
          "type": "uint256"
        },
        {
          "internalType": "uint256",
          "name": "intelligence",
          "type": "uint256"
        },
        {
          "internalType": "uint256",
          "name": "vitality",
          "type": "uint256"
        }
      ],
      "name": "addStats",
      "outputs": [],
      "stateMutability": "nonpayable",
      "type": "function"
    },
    {
      "inputs": [
        {
          "internalType": "address",
          "name": "operator",
          "type": "address"
        },
        {
          "internalType": "uint256",
          "name": "tokenId",
          "type": "uint256"
        }
      ],
      "name": "approve",
      "outputs": [],
      "stateMutability": "nonpayable",
      "type": "function"
    },
    {
      "inputs": [
        {
          "internalType": "address",
          "name": "owner",
          "type": "address"
        }
      ],
      "name": "balanceOf",
      "outputs": [
        {
          "internalType": "uint256",
          "name": "",
          "type": "uint256"
        }
      ],
      "stateMutability": "view",
      "type": "function"
    },
    {
      "inputs": [
        {
          "internalType": "address",
          "name": "_to",
          "type": "address"
        },
        {
          "internalType": "uint256",
          "name": "_quantity",
          "type": "uint256"
        },
        {
          "internalType": "string",
          "name": "_baseURI",
          "type": "string"
        },
        {
          "internalType": "bytes",
          "name": "_data",
          "type": "bytes"
        }
      ],
      "name": "batchMintTo",
      "outputs": [],
      "stateMutability": "nonpayable",
      "type": "function"
    },
    {
      "inputs": [],
      "name": "battleItems",
      "outputs": [
        {
          "internalType": "contract IBattleItems",
          "name": "",
          "type": "address"
        }
      ],
      "stateMutability": "view",
      "type": "function"
    },
    {
      "inputs": [],
      "name": "battleSkills",
      "outputs": [
        {
          "internalType": "contract IBattleSkills",
          "name": "",
          "type": "address"
        }
      ],
      "stateMutability": "view",
      "type": "function"
    },
    {
      "inputs": [
        {
          "internalType": "uint256",
          "name": "_tokenId",
          "type": "uint256"
        }
      ],
      "name": "burn",
      "outputs": [],
      "stateMutability": "nonpayable",
      "type": "function"
    },
    {
      "inputs": [
        {
          "internalType": "uint256",
          "name": "",
          "type": "uint256"
        }
      ],
      "name": "charStats",
      "outputs": [
        {
          "internalType": "uint256",
          "name": "tokenId",
          "type": "uint256"
        },
        {
          "internalType": "uint256",
          "name": "level",
          "type": "uint256"
        },
        {
          "internalType": "uint256",
          "name": "experience",
          "type": "uint256"
        },
        {
          "internalType": "uint256",
          "name": "health",
          "type": "uint256"
        },
        {
          "internalType": "uint256",
          "name": "mana",
          "type": "uint256"
        },
        {
          "internalType": "uint256",
          "name": "attack",
          "type": "uint256"
        },
        {
          "internalType": "uint256",
          "name": "defense",
          "type": "uint256"
        },
        {
          "internalType": "uint256",
          "name": "strength",
          "type": "uint256"
        },
        {
          "internalType": "uint256",
          "name": "dexterity",
          "type": "uint256"
        },
        {
          "internalType": "uint256",
          "name": "intelligence",
          "type": "uint256"
        },
        {
          "internalType": "uint256",
          "name": "vitality",
          "type": "uint256"
        },
        {
          "internalType": "uint256",
          "name": "accuracy",
          "type": "uint256"
        },
        {
          "internalType": "uint256",
          "name": "statPoints",
          "type": "uint256"
        },
        {
          "internalType": "uint256",
          "name": "typeId",
          "type": "uint256"
        }
      ],
      "stateMutability": "view",
      "type": "function"
    },
    {
      "inputs": [
        {
          "internalType": "uint256",
          "name": "",
          "type": "uint256"
        }
      ],
      "name": "charTypes",
      "outputs": [
        {
          "internalType": "uint256",
          "name": "typeId",
          "type": "uint256"
        },
        {
          "internalType": "string",
          "name": "characterType",
          "type": "string"
        },
        {
          "internalType": "string",
          "name": "uri",
          "type": "string"
        }
      ],
      "stateMutability": "view",
      "type": "function"
    },
    {
      "inputs": [],
      "name": "characterClasses",
      "outputs": [
        {
          "internalType": "contract CharacterClass",
          "name": "",
          "type": "address"
        }
      ],
      "stateMutability": "view",
      "type": "function"
    },
    {
      "inputs": [
        {
          "internalType": "uint256",
          "name": "",
          "type": "uint256"
        }
      ],
      "name": "characterEquips",
      "outputs": [
        {
          "internalType": "uint256",
          "name": "equippedClass",
          "type": "uint256"
        }
      ],
      "stateMutability": "view",
      "type": "function"
    },
    {
      "inputs": [
        {
          "internalType": "uint256",
          "name": "",
          "type": "uint256"
        }
      ],
      "name": "characterRecoveryStats",
      "outputs": [
        {
          "internalType": "uint256",
          "name": "stamina",
          "type": "uint256"
        },
        {
          "internalType": "uint256",
          "name": "maxMana",
          "type": "uint256"
        },
        {
          "internalType": "uint256",
          "name": "lastStaminaUpdateTime",
          "type": "uint256"
        },
        {
          "internalType": "uint256",
          "name": "lastManaUpdateTime",
          "type": "uint256"
        }
      ],
      "stateMutability": "view",
      "type": "function"
    },
    {
      "inputs": [
        {
          "internalType": "uint256",
          "name": "",
          "type": "uint256"
        }
      ],
      "name": "characterStats",
      "outputs": [
        {
          "internalType": "uint256",
          "name": "tokenId",
          "type": "uint256"
        },
        {
          "internalType": "uint256",
          "name": "level",
          "type": "uint256"
        },
        {
          "internalType": "uint256",
          "name": "experience",
          "type": "uint256"
        },
        {
          "internalType": "uint256",
          "name": "health",
          "type": "uint256"
        },
        {
          "internalType": "uint256",
          "name": "mana",
          "type": "uint256"
        },
        {
          "internalType": "uint256",
          "name": "attack",
          "type": "uint256"
        },
        {
          "internalType": "uint256",
          "name": "defense",
          "type": "uint256"
        },
        {
          "internalType": "uint256",
          "name": "strength",
          "type": "uint256"
        },
        {
          "internalType": "uint256",
          "name": "dexterity",
          "type": "uint256"
        },
        {
          "internalType": "uint256",
          "name": "intelligence",
          "type": "uint256"
        },
        {
          "internalType": "uint256",
          "name": "vitality",
          "type": "uint256"
        },
        {
          "internalType": "uint256",
          "name": "accuracy",
          "type": "uint256"
        },
        {
          "internalType": "uint256",
          "name": "statPoints",
          "type": "uint256"
        },
        {
          "internalType": "uint256",
          "name": "typeId",
          "type": "uint256"
        }
      ],
      "stateMutability": "view",
      "type": "function"
    },
    {
      "inputs": [],
      "name": "compositeTokens",
      "outputs": [
        {
          "internalType": "contract ICompositeTokens",
          "name": "",
          "type": "address"
        }
      ],
      "stateMutability": "view",
      "type": "function"
    },
    {
      "inputs": [
        {
          "internalType": "uint256",
          "name": "tokenId",
          "type": "uint256"
        },
        {
          "internalType": "uint256",
          "name": "amount",
          "type": "uint256"
        }
      ],
      "name": "consumeMana",
      "outputs": [],
      "stateMutability": "nonpayable",
      "type": "function"
    },
    {
      "inputs": [
        {
          "internalType": "uint256",
          "name": "tokenId",
          "type": "uint256"
        },
        {
          "internalType": "uint256",
          "name": "amount",
          "type": "uint256"
        }
      ],
      "name": "consumeStamina",
      "outputs": [],
      "stateMutability": "nonpayable",
      "type": "function"
    },
    {
      "inputs": [],
      "name": "contractURI",
      "outputs": [
        {
          "internalType": "string",
          "name": "",
          "type": "string"
        }
      ],
      "stateMutability": "view",
      "type": "function"
    },
    {
      "inputs": [
        {
          "internalType": "uint256",
          "name": "characterTokenId",
          "type": "uint256"
        },
        {
          "internalType": "uint256",
          "name": "classId",
          "type": "uint256"
        }
      ],
      "name": "equipClass",
      "outputs": [],
      "stateMutability": "nonpayable",
      "type": "function"
    },
    {
      "inputs": [
        {
          "internalType": "uint256",
          "name": "characterTokenId",
          "type": "uint256"
        },
        {
          "internalType": "uint256",
          "name": "itemId",
          "type": "uint256"
        },
        {
          "internalType": "enum CharData.ItemType",
          "name": "itemType",
          "type": "uint8"
        }
      ],
      "name": "equipItem",
      "outputs": [],
      "stateMutability": "nonpayable",
      "type": "function"
    },
    {
      "inputs": [],
      "name": "equipManagement",
      "outputs": [
        {
          "internalType": "contract IEquipManagement",
          "name": "",
          "type": "address"
        }
      ],
      "stateMutability": "view",
      "type": "function"
    },
    {
      "inputs": [
        {
          "internalType": "uint256",
          "name": "characterTokenId",
          "type": "uint256"
        },
        {
          "internalType": "uint256",
          "name": "skillId",
          "type": "uint256"
        }
      ],
      "name": "equipSkill",
      "outputs": [],
      "stateMutability": "nonpayable",
      "type": "function"
    },
    {
      "inputs": [
        {
          "internalType": "uint256",
          "name": "characterTokenId",
          "type": "uint256"
        },
        {
          "internalType": "uint256",
          "name": "xp",
          "type": "uint256"
        }
      ],
      "name": "gainXP",
      "outputs": [],
      "stateMutability": "nonpayable",
      "type": "function"
    },
    {
      "inputs": [
        {
          "internalType": "uint256",
          "name": "tokenId",
          "type": "uint256"
        }
      ],
      "name": "getApproved",
      "outputs": [
        {
          "internalType": "address",
          "name": "",
          "type": "address"
        }
      ],
      "stateMutability": "view",
      "type": "function"
    },
    {
      "inputs": [],
      "name": "getBaseURICount",
      "outputs": [
        {
          "internalType": "uint256",
          "name": "",
          "type": "uint256"
        }
      ],
      "stateMutability": "view",
      "type": "function"
    },
    {
      "inputs": [
        {
          "internalType": "uint256",
          "name": "_index",
          "type": "uint256"
        }
      ],
      "name": "getBatchIdAtIndex",
      "outputs": [
        {
          "internalType": "uint256",
          "name": "",
          "type": "uint256"
        }
      ],
      "stateMutability": "view",
      "type": "function"
    },
    {
      "inputs": [
        {
          "internalType": "uint256",
          "name": "_tokenId",
          "type": "uint256"
        }
      ],
      "name": "getCharacter",
      "outputs": [
        {
          "components": [
            {
              "internalType": "uint256",
              "name": "tokenId",
              "type": "uint256"
            },
            {
              "internalType": "uint256",
              "name": "level",
              "type": "uint256"
            },
            {
              "internalType": "uint256",
              "name": "experience",
              "type": "uint256"
            },
            {
              "internalType": "uint256",
              "name": "health",
              "type": "uint256"
            },
            {
              "internalType": "uint256",
              "name": "mana",
              "type": "uint256"
            },
            {
              "internalType": "uint256",
              "name": "attack",
              "type": "uint256"
            },
            {
              "internalType": "uint256",
              "name": "defense",
              "type": "uint256"
            },
            {
              "internalType": "uint256",
              "name": "strength",
              "type": "uint256"
            },
            {
              "internalType": "uint256",
              "name": "dexterity",
              "type": "uint256"
            },
            {
              "internalType": "uint256",
              "name": "intelligence",
              "type": "uint256"
            },
            {
              "internalType": "uint256",
              "name": "vitality",
              "type": "uint256"
            },
            {
              "internalType": "uint256",
              "name": "accuracy",
              "type": "uint256"
            },
            {
              "internalType": "uint256",
              "name": "statPoints",
              "type": "uint256"
            },
            {
              "internalType": "uint256",
              "name": "typeId",
              "type": "uint256"
            }
          ],
          "internalType": "struct CharData.CharacterStats",
          "name": "",
          "type": "tuple"
        }
      ],
      "stateMutability": "view",
      "type": "function"
    },
    {
      "inputs": [
        {
          "internalType": "uint256",
          "name": "characterTokenId",
          "type": "uint256"
        },
        {
          "internalType": "enum CharData.ItemType",
          "name": "itemType",
          "type": "uint8"
        }
      ],
      "name": "getCharacterEquippedItem",
      "outputs": [
        {
          "internalType": "uint256",
          "name": "",
          "type": "uint256"
        }
      ],
      "stateMutability": "view",
      "type": "function"
    },
    {
      "inputs": [
        {
          "internalType": "uint256",
          "name": "characterTokenId",
          "type": "uint256"
        }
      ],
      "name": "getCharacterEquippedSkills",
      "outputs": [
        {
          "internalType": "uint256[]",
          "name": "",
          "type": "uint256[]"
        }
      ],
      "stateMutability": "view",
      "type": "function"
    },
    {
      "inputs": [
        {
          "internalType": "uint256",
          "name": "tokenId",
          "type": "uint256"
        }
      ],
      "name": "getCharacterInfo",
      "outputs": [
        {
          "components": [
            {
              "internalType": "uint256",
              "name": "level",
              "type": "uint256"
            },
            {
              "internalType": "uint256",
              "name": "dexterity",
              "type": "uint256"
            },
            {
              "internalType": "uint256",
              "name": "accuracy",
              "type": "uint256"
            },
            {
              "internalType": "uint256",
              "name": "health",
              "type": "uint256"
            },
            {
              "internalType": "uint256",
              "name": "attack",
              "type": "uint256"
            },
            {
              "internalType": "uint256",
              "name": "defense",
              "type": "uint256"
            },
            {
              "internalType": "uint256",
              "name": "mana",
              "type": "uint256"
            },
            {
              "internalType": "uint256",
              "name": "typeId",
              "type": "uint256"
            },
            {
              "internalType": "uint256[]",
              "name": "equippedSkills",
              "type": "uint256[]"
            }
          ],
          "internalType": "struct CharData.CharBattleData",
          "name": "battleData",
          "type": "tuple"
        }
      ],
      "stateMutability": "view",
      "type": "function"
    },
    {
      "inputs": [],
      "name": "getDefaultRoyaltyInfo",
      "outputs": [
        {
          "internalType": "address",
          "name": "",
          "type": "address"
        },
        {
          "internalType": "uint16",
          "name": "",
          "type": "uint16"
        }
      ],
      "stateMutability": "view",
      "type": "function"
    },
    {
      "inputs": [
        {
          "internalType": "uint256",
          "name": "characterTokenId",
          "type": "uint256"
        }
      ],
      "name": "getEquippedClass",
      "outputs": [
        {
          "internalType": "uint256",
          "name": "",
          "type": "uint256"
        }
      ],
      "stateMutability": "view",
      "type": "function"
    },
    {
      "inputs": [
        {
          "internalType": "uint256",
          "name": "tokenId",
          "type": "uint256"
        }
      ],
      "name": "getMana",
      "outputs": [
        {
          "internalType": "uint256",
          "name": "",
          "type": "uint256"
        }
      ],
      "stateMutability": "view",
      "type": "function"
    },
    {
      "inputs": [
        {
          "internalType": "uint256",
          "name": "tokenId",
          "type": "uint256"
        }
      ],
      "name": "getRecoveryStats",
      "outputs": [
        {
          "components": [
            {
              "internalType": "uint256",
              "name": "stamina",
              "type": "uint256"
            },
            {
              "internalType": "uint256",
              "name": "maxMana",
              "type": "uint256"
            },
            {
              "internalType": "uint256",
              "name": "lastStaminaUpdateTime",
              "type": "uint256"
            },
            {
              "internalType": "uint256",
              "name": "lastManaUpdateTime",
              "type": "uint256"
            }
          ],
          "internalType": "struct CharData.RecoveryStats",
          "name": "",
          "type": "tuple"
        }
      ],
      "stateMutability": "view",
      "type": "function"
    },
    {
      "inputs": [
        {
          "internalType": "uint256",
          "name": "_tokenId",
          "type": "uint256"
        }
      ],
      "name": "getRoyaltyInfoForToken",
      "outputs": [
        {
          "internalType": "address",
          "name": "",
          "type": "address"
        },
        {
          "internalType": "uint16",
          "name": "",
          "type": "uint16"
        }
      ],
      "stateMutability": "view",
      "type": "function"
    },
    {
      "inputs": [
        {
          "internalType": "uint256",
          "name": "tokenId",
          "type": "uint256"
        }
      ],
      "name": "getStamina",
      "outputs": [
        {
          "internalType": "uint256",
          "name": "",
          "type": "uint256"
        }
      ],
      "stateMutability": "view",
      "type": "function"
    },
    {
      "inputs": [
        {
          "internalType": "address",
          "name": "owner",
          "type": "address"
        },
        {
          "internalType": "address",
          "name": "operator",
          "type": "address"
        }
      ],
      "name": "isApprovedForAll",
      "outputs": [
        {
          "internalType": "bool",
          "name": "",
          "type": "bool"
        }
      ],
      "stateMutability": "view",
      "type": "function"
    },
    {
      "inputs": [
        {
          "internalType": "address",
          "name": "_operator",
          "type": "address"
        },
        {
          "internalType": "uint256",
          "name": "_tokenId",
          "type": "uint256"
        }
      ],
      "name": "isApprovedOrOwner",
      "outputs": [
        {
          "internalType": "bool",
          "name": "isApprovedOrOwnerOf",
          "type": "bool"
        }
      ],
      "stateMutability": "view",
      "type": "function"
    },
    {
      "inputs": [
        {
          "internalType": "uint256",
          "name": "_typeId",
          "type": "uint256"
        },
        {
          "internalType": "uint256",
          "name": "_skillTokenId",
          "type": "uint256"
        }
      ],
      "name": "mintNewCharacterWithItemAndEquip",
      "outputs": [],
      "stateMutability": "nonpayable",
      "type": "function"
    },
    {
      "inputs": [
        {
          "internalType": "address",
          "name": "_to",
          "type": "address"
        },
        {
          "internalType": "string",
          "name": "_tokenURI",
          "type": "string"
        }
      ],
      "name": "mintTo",
      "outputs": [],
      "stateMutability": "nonpayable",
      "type": "function"
    },
    {
      "inputs": [
        {
          "internalType": "bytes[]",
          "name": "data",
          "type": "bytes[]"
        }
      ],
      "name": "multicall",
      "outputs": [
        {
          "internalType": "bytes[]",
          "name": "results",
          "type": "bytes[]"
        }
      ],
      "stateMutability": "nonpayable",
      "type": "function"
    },
    {
      "inputs": [],
      "name": "name",
      "outputs": [
        {
          "internalType": "string",
          "name": "",
          "type": "string"
        }
      ],
      "stateMutability": "view",
      "type": "function"
    },
    {
      "inputs": [
        {
          "internalType": "uint256",
          "name": "_typeId",
          "type": "uint256"
        }
      ],
      "name": "newCharacter",
      "outputs": [],
      "stateMutability": "nonpayable",
      "type": "function"
    },
    {
      "inputs": [],
      "name": "nextTokenIdToMint",
      "outputs": [
        {
          "internalType": "uint256",
          "name": "",
          "type": "uint256"
        }
      ],
      "stateMutability": "view",
      "type": "function"
    },
    {
      "inputs": [],
      "name": "numCharacters",
      "outputs": [
        {
          "internalType": "uint256",
          "name": "",
          "type": "uint256"
        }
      ],
      "stateMutability": "view",
      "type": "function"
    },
    {
      "inputs": [
        {
          "internalType": "address",
          "name": "",
          "type": "address"
        },
        {
          "internalType": "address",
          "name": "",
          "type": "address"
        },
        {
          "internalType": "uint256[]",
          "name": "",
          "type": "uint256[]"
        },
        {
          "internalType": "uint256[]",
          "name": "",
          "type": "uint256[]"
        },
        {
          "internalType": "bytes",
          "name": "",
          "type": "bytes"
        }
      ],
      "name": "onERC1155BatchReceived",
      "outputs": [
        {
          "internalType": "bytes4",
          "name": "",
          "type": "bytes4"
        }
      ],
      "stateMutability": "nonpayable",
      "type": "function"
    },
    {
      "inputs": [
        {
          "internalType": "address",
          "name": "",
          "type": "address"
        },
        {
          "internalType": "address",
          "name": "",
          "type": "address"
        },
        {
          "internalType": "uint256",
          "name": "",
          "type": "uint256"
        },
        {
          "internalType": "uint256",
          "name": "",
          "type": "uint256"
        },
        {
          "internalType": "bytes",
          "name": "",
          "type": "bytes"
        }
      ],
      "name": "onERC1155Received",
      "outputs": [
        {
          "internalType": "bytes4",
          "name": "",
          "type": "bytes4"
        }
      ],
      "stateMutability": "nonpayable",
      "type": "function"
    },
    {
      "inputs": [],
      "name": "operatorRestriction",
      "outputs": [
        {
          "internalType": "bool",
          "name": "",
          "type": "bool"
        }
      ],
      "stateMutability": "view",
      "type": "function"
    },
    {
      "inputs": [],
      "name": "owner",
      "outputs": [
        {
          "internalType": "address",
          "name": "",
          "type": "address"
        }
      ],
      "stateMutability": "view",
      "type": "function"
    },
    {
      "inputs": [
        {
          "internalType": "uint256",
          "name": "tokenId",
          "type": "uint256"
        }
      ],
      "name": "ownerOf",
      "outputs": [
        {
          "internalType": "address",
          "name": "",
          "type": "address"
        }
      ],
      "stateMutability": "view",
      "type": "function"
    },
    {
      "inputs": [
        {
          "internalType": "uint256",
          "name": "tokenId",
          "type": "uint256"
        }
      ],
      "name": "restoreManaToFull",
      "outputs": [],
      "stateMutability": "nonpayable",
      "type": "function"
    },
    {
      "inputs": [
        {
          "internalType": "uint256",
          "name": "tokenId",
          "type": "uint256"
        }
      ],
      "name": "restoreStaminaToFull",
      "outputs": [],
      "stateMutability": "nonpayable",
      "type": "function"
    },
    {
      "inputs": [
        {
          "internalType": "uint256",
          "name": "tokenId",
          "type": "uint256"
        },
        {
          "internalType": "uint256",
          "name": "salePrice",
          "type": "uint256"
        }
      ],
      "name": "royaltyInfo",
      "outputs": [
        {
          "internalType": "address",
          "name": "receiver",
          "type": "address"
        },
        {
          "internalType": "uint256",
          "name": "royaltyAmount",
          "type": "uint256"
        }
      ],
      "stateMutability": "view",
      "type": "function"
    },
    {
      "inputs": [
        {
          "internalType": "address",
          "name": "from",
          "type": "address"
        },
        {
          "internalType": "address",
          "name": "to",
          "type": "address"
        },
        {
          "internalType": "uint256",
          "name": "tokenId",
          "type": "uint256"
        }
      ],
      "name": "safeTransferFrom",
      "outputs": [],
      "stateMutability": "nonpayable",
      "type": "function"
    },
    {
      "inputs": [
        {
          "internalType": "address",
          "name": "from",
          "type": "address"
        },
        {
          "internalType": "address",
          "name": "to",
          "type": "address"
        },
        {
          "internalType": "uint256",
          "name": "tokenId",
          "type": "uint256"
        },
        {
          "internalType": "bytes",
          "name": "data",
          "type": "bytes"
        }
      ],
      "name": "safeTransferFrom",
      "outputs": [],
      "stateMutability": "nonpayable",
      "type": "function"
    },
    {
      "inputs": [
        {
          "internalType": "address",
          "name": "operator",
          "type": "address"
        },
        {
          "internalType": "bool",
          "name": "approved",
          "type": "bool"
        }
      ],
      "name": "setApprovalForAll",
      "outputs": [],
      "stateMutability": "nonpayable",
      "type": "function"
    },
    {
      "inputs": [
        {
          "internalType": "address",
          "name": "_address",
          "type": "address"
        }
      ],
      "name": "setBattleContract",
      "outputs": [],
      "stateMutability": "nonpayable",
      "type": "function"
    },
    {
      "inputs": [
        {
          "internalType": "address",
          "name": "_address",
          "type": "address"
        }
      ],
      "name": "setBattleItems",
      "outputs": [],
      "stateMutability": "nonpayable",
      "type": "function"
    },
    {
      "inputs": [
        {
          "internalType": "address",
          "name": "_address",
          "type": "address"
        }
      ],
      "name": "setBattleSkills",
      "outputs": [],
      "stateMutability": "nonpayable",
      "type": "function"
    },
    {
      "inputs": [
        {
          "internalType": "address",
          "name": "_address",
          "type": "address"
        }
      ],
      "name": "setClassContract",
      "outputs": [],
      "stateMutability": "nonpayable",
      "type": "function"
    },
    {
      "inputs": [
        {
          "internalType": "address",
          "name": "_address",
          "type": "address"
        }
      ],
      "name": "setCompositeTokens",
      "outputs": [],
      "stateMutability": "nonpayable",
      "type": "function"
    },
    {
      "inputs": [
        {
          "internalType": "string",
          "name": "_uri",
          "type": "string"
        }
      ],
      "name": "setContractURI",
      "outputs": [],
      "stateMutability": "nonpayable",
      "type": "function"
    },
    {
      "inputs": [
        {
          "internalType": "address",
          "name": "_royaltyRecipient",
          "type": "address"
        },
        {
          "internalType": "uint256",
          "name": "_royaltyBps",
          "type": "uint256"
        }
      ],
      "name": "setDefaultRoyaltyInfo",
      "outputs": [],
      "stateMutability": "nonpayable",
      "type": "function"
    },
    {
      "inputs": [
        {
          "internalType": "address",
          "name": "_equipManagementAddress",
          "type": "address"
        }
      ],
      "name": "setEquipManagementContract",
      "outputs": [],
      "stateMutability": "nonpayable",
      "type": "function"
    },
    {
      "inputs": [
        {
          "internalType": "bool",
          "name": "_restriction",
          "type": "bool"
        }
      ],
      "name": "setOperatorRestriction",
      "outputs": [],
      "stateMutability": "nonpayable",
      "type": "function"
    },
    {
      "inputs": [
        {
          "internalType": "address",
          "name": "_newOwner",
          "type": "address"
        }
      ],
      "name": "setOwner",
      "outputs": [],
      "stateMutability": "nonpayable",
      "type": "function"
    },
    {
      "inputs": [
        {
          "internalType": "uint256",
          "name": "_tokenId",
          "type": "uint256"
        },
        {
          "internalType": "address",
          "name": "_recipient",
          "type": "address"
        },
        {
          "internalType": "uint256",
          "name": "_bps",
          "type": "uint256"
        }
      ],
      "name": "setRoyaltyInfoForToken",
      "outputs": [],
      "stateMutability": "nonpayable",
      "type": "function"
    },
    {
      "inputs": [
        {
          "internalType": "address",
          "name": "_subscription",
          "type": "address"
        }
      ],
      "name": "subscribeToRegistry",
      "outputs": [],
      "stateMutability": "nonpayable",
      "type": "function"
    },
    {
      "inputs": [
        {
          "internalType": "bytes4",
          "name": "interfaceId",
          "type": "bytes4"
        }
      ],
      "name": "supportsInterface",
      "outputs": [
        {
          "internalType": "bool",
          "name": "",
          "type": "bool"
        }
      ],
      "stateMutability": "view",
      "type": "function"
    },
    {
      "inputs": [],
      "name": "symbol",
      "outputs": [
        {
          "internalType": "string",
          "name": "",
          "type": "string"
        }
      ],
      "stateMutability": "view",
      "type": "function"
    },
    {
      "inputs": [
        {
          "internalType": "uint256",
          "name": "_tokenId",
          "type": "uint256"
        }
      ],
      "name": "tokenURI",
      "outputs": [
        {
          "internalType": "string",
          "name": "",
          "type": "string"
        }
      ],
      "stateMutability": "view",
      "type": "function"
    },
    {
      "inputs": [],
      "name": "totalSupply",
      "outputs": [
        {
          "internalType": "uint256",
          "name": "",
          "type": "uint256"
        }
      ],
      "stateMutability": "view",
      "type": "function"
    },
    {
      "inputs": [
        {
          "internalType": "address",
          "name": "from",
          "type": "address"
        },
        {
          "internalType": "address",
          "name": "to",
          "type": "address"
        },
        {
          "internalType": "uint256",
          "name": "tokenId",
          "type": "uint256"
        }
      ],
      "name": "transferFrom",
      "outputs": [],
      "stateMutability": "nonpayable",
      "type": "function"
    },
    {
      "inputs": [
        {
          "internalType": "uint256",
          "name": "characterTokenId",
          "type": "uint256"
        }
      ],
      "name": "unequipClass",
      "outputs": [],
      "stateMutability": "nonpayable",
      "type": "function"
    },
    {
      "inputs": [
        {
          "internalType": "uint256",
          "name": "characterTokenId",
          "type": "uint256"
        },
        {
          "internalType": "enum CharData.ItemType",
          "name": "itemType",
          "type": "uint8"
        }
      ],
      "name": "unequipItem",
      "outputs": [],
      "stateMutability": "nonpayable",
      "type": "function"
    },
    {
      "inputs": [
        {
          "internalType": "uint256",
          "name": "characterTokenId",
          "type": "uint256"
        },
        {
          "internalType": "uint256",
          "name": "skillId",
          "type": "uint256"
        }
      ],
      "name": "unequipSkill",
      "outputs": [],
      "stateMutability": "nonpayable",
      "type": "function"
    },
    {
      "inputs": [
        {
          "internalType": "uint256",
          "name": "_tokenId",
          "type": "uint256"
        },
        {
          "internalType": "string",
          "name": "_tokenURI",
          "type": "string"
        }
      ],
      "name": "updateURI",
      "outputs": [],
      "stateMutability": "nonpayable",
      "type": "function"
    }
  ],
  "bytecode": "0x6080604052600060145560646017553480156200001b57600080fd5b5033336040518060400160405280600981526020016821b430b930b1ba32b960b91b8152506040518060400160405280600481526020016310d3919560e21b815250336000733cc6cdda760b79bafa08df41ecfa224f810dceb66001858581600290816200008a919062000998565b50600362000099828262000998565b50506000805550620000ac828262000118565b50620000ba90508562000246565b620000cf826001600160801b03831662000298565b620000db600162000343565b5050601080546001600160a01b0319166001600160a01b038616179055506200010791506200038a9050565b620001116200070d565b5062000a64565b6daaeb6d7670e522a718067333cd4e3b1562000242576001600160a01b0382163b15620001fb578015620001ba57604051633e9f1edf60e11b81523060048201526001600160a01b03831660248201526daaeb6d7670e522a718067333cd4e90637d3e3dbe906044015b600060405180830381600087803b1580156200019d57600080fd5b505af1158015620001b2573d6000803e3d6000fd5b505050505050565b60405163a0af290360e01b81523060048201526001600160a01b03831660248201526daaeb6d7670e522a718067333cd4e9063a0af29039060440162000182565b604051632210724360e11b81523060048201526daaeb6d7670e522a718067333cd4e90634420e48690602401600060405180830381600087803b1580156200019d57600080fd5b5050565b600980546001600160a01b038381166001600160a01b0319831681179093556040519116919082907f8292fce18fa69edf4db7b94ea2e58241df0ae57f97e0a6c9b29067028bf92d7690600090a35050565b612710811115620002e15760405162461bcd60e51b815260206004820152600f60248201526e45786365656473206d61782062707360881b604482015260640160405180910390fd5b600a80546001600160a01b0384166001600160b01b03199091168117600160a01b61ffff851602179091556040518281527f90d7ec04bcb8978719414f82e52e4cb651db41d0e6f8cea6118c2191e6183adb9060200160405180910390a25050565b600e805460ff19168215159081179091556040519081527f38475885990d8dfe9ca01f0ef160a1b5514426eab9ddbc953a3353410ba780969060200160405180910390a150565b6015604051806101c001604052806000815260200160018152602001600081526020016064815260200160648152602001600a8152602001600a815260200160648152602001601e815260200160648152602001606481526020016064815260200160058152602001600081525090806001815401808255809150506001900390600052602060002090600e0201600090919091909150600082015181600001556020820151816001015560408201518160020155606082015181600301556080820151816004015560a0820151816005015560c0820151816006015560e082015181600701556101008201518160080155610120820151816009015561014082015181600a015561016082015181600b015561018082015181600c01556101a082015181600d015550506015604051806101c001604052806000815260200160018152602001600081526020016064815260200160648152602001600a8152602001600a815260200160648152602001601e815260200160648152602001606481526020016064815260200160058152602001600181525090806001815401808255809150506001900390600052602060002090600e0201600090919091909150600082015181600001556020820151816001015560408201518160020155606082015181600301556080820151816004015560a0820151816005015560c0820151816006015560e082015181600701556101008201518160080155610120820151816009015561014082015181600a015561016082015181600b015561018082015181600c01556101a082015181600d015550506015604051806101c001604052806000815260200160018152602001600081526020016064815260200160648152602001600a8152602001600a815260200160648152602001601e815260200160648152602001606481526020016064815260200160058152602001600281525090806001815401808255809150506001900390600052602060002090600e0201600090919091909150600082015181600001556020820151816001015560408201518160020155606082015181600301556080820151816004015560a0820151816005015560c0820151816006015560e082015181600701556101008201518160080155610120820151816009015561014082015181600a015561016082015181600b015561018082015181600c01556101a082015181600d01555050565b6016604051806060016040528060008152602001604051806040016040528060078152602001662bb0b93934b7b960c91b8152508152602001604051806060016040528060358152602001620066326035913990528154600181810184556000938452602093849020835160039093020191825592820151919290919082019062000799908262000998565b5060408201516002820190620007b0908262000998565b5050506016604051806060016040528060018152602001604051806040016040528060048152602001634d61676560e01b81525081526020016040518060600160405280603581526020016200669c603591399052815460018181018455600093845260209384902083516003909302019182559282015191929091908201906200083c908262000998565b506040820151600282019062000853908262000998565b505050601660405180606001604052806002815260200160405180604001604052806005815260200164526f67756560d81b81525081526020016040518060600160405280603581526020016200666760359139905281546001818101845560009384526020938490208351600390930201918255928201519192909190820190620008e0908262000998565b5060408201516002820190620008f7908262000998565b505050565b634e487b7160e01b600052604160045260246000fd5b600181811c908216806200092757607f821691505b6020821081036200094857634e487b7160e01b600052602260045260246000fd5b50919050565b601f821115620008f757600081815260208120601f850160051c81016020861015620009775750805b601f850160051c820191505b81811015620001b25782815560010162000983565b81516001600160401b03811115620009b457620009b4620008fc565b620009cc81620009c5845462000912565b846200094e565b602080601f83116001811462000a045760008415620009eb5750858301515b600019600386901b1c1916600185901b178555620001b2565b600085815260208120601f198616915b8281101562000a355788860151825594840194600190910190840162000a14565b508582101562000a545787850151600019600388901b60f8161c191681555b5050505050600190811b01905550565b615bbe8062000a746000396000f3fe608060405234801561001057600080fd5b50600436106104745760003560e01c806363b45e2d11610257578063ac9650d811610146578063e2abdd52116100c3578063e8a3d48511610087578063e8a3d48514610cad578063e985e9c514610cb5578063f1be42f114610cf1578063f23a6e6114610cfa578063fe80c55d14610d1957600080fd5b8063e2abdd5214610c4e578063e2cb9a8414610c61578063e4c301eb14610c74578063e5f69e4114610c87578063e622563014610c9a57600080fd5b8063bcb7ea081161010a578063bcb7ea0814610b51578063c87b56dd14610b64578063d2e4c18914610b77578063d5937dae14610b8a578063dabb053114610b9d57600080fd5b8063ac9650d814610a82578063b24f2d3914610aa2578063b88d4fde14610ac0578063bc197c8114610ad3578063bc51181614610b0b57600080fd5b80638da5cb5b116101d45780639bcf7a15116101985780639bcf7a1514610a165780639c7e334c14610a295780639d9ea9f314610a3c578063a22cb46514610a5c578063a4b9943214610a6f57600080fd5b80638da5cb5b146109c4578063938e3d7b146109d5578063954643ca146109e857806395d89b41146109fb57806399898a7a14610a0357600080fd5b8063739420a51161021b578063739420a514610965578063744e94aa14610978578063754a81d91461098b57806381648e701461099e578063835576ed146109b157600080fd5b806363b45e2d146109115780636a0558a6146109195780636b87a4851461092c5780636ffd17d41461093f57806370a082311461095257600080fd5b806332f0cd641161037357806345d5007e116102f05780635a5ffb2e116102b45780635a5ffb2e146108a35780635ada8456146108b65780635cec1549146108c9578063600dd5ea146108eb5780636352211e146108fe57600080fd5b806345d5007e146108285780634cc157df1461083b578063504c6e011461087057806355483d451461087d57806357fd84551461089057600080fd5b806341463be11161033757806341463be1146107b757806341f43434146107da57806342842e0e146107ef57806342966c6814610802578063430c20811461081557600080fd5b806332f0cd64146106fc5780633468f9cd1461070f5780633477979e14610722578063366e6fdb146107355780633b1475a7146107af57600080fd5b80630db6dff7116104015780632401c739116103c55780632401c7391461066e5780632419f51b146106915780632a55205a146106a45780632c120156146106d657806331d41c69146106e957600080fd5b80630db6dff7146105a457806313af4035146105b757806315d57827146105ca57806318160ddd1461064557806323b872dd1461065b57600080fd5b80630846ad48116104485780630846ad48146104f657806308ec6c3c1461054b578063095ea7b31461055e5780630d830190146105715780630db0de521461059157600080fd5b806275a3171461047957806301ffc9a71461048e57806306fdde03146104b6578063081812fc146104cb575b600080fd5b61048c610487366004614dac565b610d2c565b005b6104a161049c366004614e0f565b610db0565b60405190151581526020015b60405180910390f35b6104be610dd0565b6040516104ad9190614e7c565b6104de6104d9366004614e8f565b610e62565b6040516001600160a01b0390911681526020016104ad565b61052b610504366004614e8f565b60126020526000908152604090208054600182015460028301546003909301549192909184565b6040805194855260208501939093529183015260608201526080016104ad565b61048c610559366004614ea8565b610ea6565b61048c61056c366004614ec3565b610ef2565b61058461057f366004614e8f565b610f0b565b6040516104ad9190614f28565b61048c61059f366004614ea8565b611029565b61048c6105b2366004614ea8565b611075565b61048c6105c5366004614ea8565b6110c1565b6105dd6105d8366004614e8f565b6110f1565b604080519e8f5260208f019d909d529b8d019a909a5260608c019890985260808b019690965260a08a019490945260c089019290925260e08801526101008701526101208601526101408501526101608401526101808301526101a08201526101c0016104ad565b600154600054035b6040519081526020016104ad565b61048c610669366004614f9c565b61116d565b61064d61067c366004614e8f565b60009081526013602052604090206002015490565b61064d61069f366004614e8f565b611198565b6106b76106b2366004614fd8565b611206565b604080516001600160a01b0390931683526020830191909152016104ad565b61048c6106e4366004614fd8565b611243565b61048c6106f7366004614ffa565b6112b0565b61048c61070a366004615038565b6112e4565b61048c61071d366004614e8f565b611355565b61048c610730366004614e8f565b61139e565b6105dd610743366004614e8f565b601160205280600052604060002060009150905080600001549080600101549080600201549080600301549080600401549080600501549080600601549080600701549080600801549080600901549080600a01549080600b01549080600c01549080600d015490508e565b60005461064d565b61064d6107c5366004614e8f565b60136020526000908152604090206002015481565b6104de6daaeb6d7670e522a718067333cd4e81565b61048c6107fd366004614f9c565b6113e3565b61048c610810366004614e8f565b611408565b6104a1610823366004614ec3565b611413565b61048c610836366004614fd8565b611492565b61084e610849366004614e8f565b61158d565b604080516001600160a01b03909316835261ffff9091166020830152016104ad565b600e546104a19060ff1681565b601b546104de906001600160a01b031681565b61048c61089e366004614ea8565b6115f8565b61048c6108b1366004614fd8565b611668565b61048c6108c4366004614fd8565b6116fe565b6108dc6108d7366004614e8f565b6117e8565b6040516104ad93929190615055565b61048c6108f9366004614ec3565b61192e565b6104de61090c366004614e8f565b61195c565b600c5461064d565b61048c610927366004614fd8565b61196e565b61048c61093a366004614ea8565b611a5a565b601c546104de906001600160a01b031681565b61064d610960366004614ea8565b611c41565b61048c610973366004614fd8565b611c8f565b61064d610986366004614e8f565b611d66565b61048c610999366004615080565b611de3565b61048c6109ac366004614ea8565b611e51565b61048c6109bf366004614e8f565b611e9d565b6009546001600160a01b03166104de565b61048c6109e33660046150fd565b6120d3565b601a546104de906001600160a01b031681565b6104be612100565b601e546104de906001600160a01b031681565b61048c610a24366004615131565b61210f565b61048c610a37366004615156565b61213e565b610a4f610a4a366004614e8f565b612248565b6040516104ad9190615191565b61048c610a6a3660046151d5565b6122aa565b61064d610a7d366004615219565b6122be565b610a95610a9036600461523e565b61230a565b6040516104ad91906152b2565b600a546001600160a01b03811690600160a01b900461ffff1661084e565b61048c610ace366004615314565b6123fe565b610af2610ae13660046153ee565b63bc197c8160e01b95945050505050565b6040516001600160e01b031990911681526020016104ad565b610b1e610b19366004614e8f565b612424565b6040516104ad91908151815260208083015190820152604080830151908201526060918201519181019190915260800190565b61048c610b5f366004614fd8565b6124e9565b6104be610b72366004614e8f565b612536565b61048c610b85366004614e8f565b612624565b61048c610b98366004614ea8565b612753565b610bb0610bab366004614e8f565b61279f565b6040516104ad9190815181526020808301519082015260408083015190820152606080830151908201526080808301519082015260a0808301519082015260c0808301519082015260e08083015190820152610100808301519082015261012080830151908201526101408083015190820152610160808301519082015261018080830151908201526101a091820151918101919091526101c00190565b61048c610c5c366004615497565b6128c1565b601d546104de906001600160a01b031681565b61048c610c82366004614fd8565b612b38565b61048c610c95366004614fd8565b612c7d565b61064d610ca8366004614e8f565b613027565b6104be61308f565b6104a1610cc33660046154d0565b6001600160a01b03918216600090815260076020908152604080832093909416825291909152205460ff1690565b61064d60145481565b610af2610d08366004615503565b63f23a6e6160e01b95945050505050565b61048c610d27366004615219565b61311d565b610d346133a4565b610d7f5760405162461bcd60e51b81526020600482015260176024820152762737ba1030baba3437b934bd32b2103a379036b4b73a1760491b60448201526064015b60405180910390fd5b610d91610d8b60005490565b826133d1565b610dac826001604051806020016040528060008152506133e9565b5050565b6000610dbb8261358c565b80610dca5750610dca826135f8565b92915050565b606060028054610ddf90615567565b80601f0160208091040260200160405190810160405280929190818152602001828054610e0b90615567565b8015610e585780601f10610e2d57610100808354040283529160200191610e58565b820191906000526020600020905b815481529060010190602001808311610e3b57829003601f168201915b5050505050905090565b6000610e6d8261361d565b610e8a576040516333d1c03960e21b815260040160405180910390fd5b506000908152600660205260409020546001600160a01b031690565b6009546001600160a01b03163314610ed05760405162461bcd60e51b8152600401610d76906155a1565b601a80546001600160a01b0319166001600160a01b0392909216919091179055565b81610efc81613648565b610f06838361370c565b505050565b610f5a6040518061012001604052806000815260200160008152602001600081526020016000815260200160008152602001600081526020016000815260200160008152602001606081525090565b60008281526011602090815260409182902060018101548452600881015491840191909152600b810154918301919091526003810154606083015260058101546080830152600681015460a0830152610fb283611d66565b60c0830152600d81015460e08301526000838152601360209081526040918290208054835181840281018401909452808452909183018282801561101557602002820191906000526020600020905b815481526020019060010190808311611001575b505050505082610100018190525050919050565b6009546001600160a01b031633146110535760405162461bcd60e51b8152600401610d76906155a1565b601b80546001600160a01b0319166001600160a01b0392909216919091179055565b6009546001600160a01b0316331461109f5760405162461bcd60e51b8152600401610d76906155a1565b601880546001600160a01b0319166001600160a01b0392909216919091179055565b6110c96133a4565b6110e55760405162461bcd60e51b8152600401610d76906155a1565b6110ee8161378d565b50565b6015818154811061110157600080fd5b90600052602060002090600e020160009150905080600001549080600101549080600201549080600301549080600401549080600501549080600601549080600701549080600801549080600901549080600a01549080600b01549080600c01549080600d015490508e565b826001600160a01b03811633146111875761118733613648565b6111928484846137df565b50505050565b60006111a3600c5490565b82106111e15760405162461bcd60e51b815260206004820152600d60248201526c092dcecc2d8d2c840d2dcc8caf609b1b6044820152606401610d76565b600c82815481106111f4576111f46155c9565b90600052602060002001549050919050565b6000806000806112158661158d565b90945084925061ffff16905061271061122e82876155f5565b6112389190615622565b925050509250929050565b6010546001600160a01b0316331461126d5760405162461bcd60e51b8152600401610d76906155a1565b60008281526012602052604081209061128584613027565b905060006112938483615636565b905060648111156112a2575060645b825550426002909101555050565b6009546001600160a01b031633146112da5760405162461bcd60e51b8152600401610d76906155a1565b610dac82826133d1565b6112ec6133a4565b61134c5760405162461bcd60e51b815260206004820152602b60248201527f4e6f7420617574686f72697a656420746f20736574206f70657261746f72207260448201526a32b9ba3934b1ba34b7b71760a91b6064820152608401610d76565b6110ee816137ea565b6010546001600160a01b0316331461137f5760405162461bcd60e51b8152600401610d76906155a1565b6000908152601260209081526040909120601190915242600390910155565b6010546001600160a01b031633146113c85760405162461bcd60e51b8152600401610d76906155a1565b60009081526012602052604090206064815542600290910155565b826001600160a01b03811633146113fd576113fd33613648565b611192848484613831565b6110ee81600161384c565b60008061141f8361195c565b9050806001600160a01b0316846001600160a01b0316148061146657506001600160a01b0380821660009081526007602090815260408083209388168352929052205460ff165b8061148a5750836001600160a01b031661147f84610e62565b6001600160a01b0316145b949350505050565b6018546001600160a01b031633146114bc5760405162461bcd60e51b8152600401610d7690615649565b600082815260126020908152604080832060119092529182902091516330c6919360e01b815260048101829052602481018390526044810184905290919073__$500a10fa9d461fc90c8a058ae925f037b6$__906330c691939060640160006040518083038186803b15801561153157600080fd5b505af4158015611545573d6000803e3d6000fd5b50505050837f745e4898b29226a973c2265f8722cf0a83c357f03c529c0e14c4e91d61cffbb5826004015460405161157f91815260200190565b60405180910390a250505050565b6000818152600b60209081526040808320815180830190925280546001600160a01b0316808352600190910154928201929092528291156115d457805160208201516115ee565b600a546001600160a01b03811690600160a01b900461ffff165b9250925050915091565b6116006133a4565b61165d5760405162461bcd60e51b815260206004820152602860248201527f4e6f7420617574686f72697a656420746f2073756273637269626520746f207260448201526732b3b4b9ba393c9760c11b6064820152608401610d76565b6110ee8160016139ff565b6010546001600160a01b031633146116925760405162461bcd60e51b8152600401610d76906155a1565b600082815260126020908152604080832060119092529091206116b6818385613adb565b837f745e4898b29226a973c2265f8722cf0a83c357f03c529c0e14c4e91d61cffbb5601160008781526020019081526020016000206004015460405161157f91815260200190565b61170782611e9d565b601c5460405163bfa0fedb60e01b8152600481018390523360248201526001600160a01b039091169063bfa0fedb90604401600060405180830381600087803b15801561175357600080fd5b505af1158015611767573d6000803e3d6000fd5b5050601e546014546001600160a01b039091169250636a950a83915061178f9060019061568a565b836001336040518563ffffffff1660e01b81526004016117b294939291906156b3565b600060405180830381600087803b1580156117cc57600080fd5b505af11580156117e0573d6000803e3d6000fd5b505050505050565b601681815481106117f857600080fd5b6000918252602090912060039091020180546001820180549193509061181d90615567565b80601f016020809104026020016040519081016040528092919081815260200182805461184990615567565b80156118965780601f1061186b57610100808354040283529160200191611896565b820191906000526020600020905b81548152906001019060200180831161187957829003601f168201915b5050505050908060020180546118ab90615567565b80601f01602080910402602001604051908101604052809291908181526020018280546118d790615567565b80156119245780601f106118f957610100808354040283529160200191611924565b820191906000526020600020905b81548152906001019060200180831161190757829003601f168201915b5050505050905083565b6119366133a4565b6119525760405162461bcd60e51b8152600401610d76906155a1565b610dac8282613b1c565b600061196782613bc3565b5192915050565b6018546001600160a01b031633146119985760405162461bcd60e51b8152600401610d7690615649565b60008281526011602052604090819020601754915162336f0b60e01b8152600481018290526024810184905260448101929092529073__$500a10fa9d461fc90c8a058ae925f037b6$__9062336f0b9060640160006040518083038186803b158015611a0357600080fd5b505af4158015611a17573d6000803e3d6000fd5b50505050827f9a64fe26f5c4acf69f9833056562e90ac966327ef9edc96700beab568bbdac1683604051611a4d91815260200190565b60405180910390a2505050565b6009546001600160a01b03163314611a845760405162461bcd60e51b8152600401610d76906155a1565b601e546001600160a01b031615611af55760405162461bcd60e51b815260206004820152602f60248201527f45717569704d616e6167656d656e7420636f6e7472616374206164647265737360448201526e081a5cc8185b1c9958591e481cd95d608a1b6064820152608401610d76565b601e80546001600160a01b0319166001600160a01b03838116918217909255601c5460405163a22cb46560e01b81526004810192909252600160248301529091169063a22cb46590604401600060405180830381600087803b158015611b5a57600080fd5b505af1158015611b6e573d6000803e3d6000fd5b5050601b5460405163a22cb46560e01b81526001600160a01b03858116600483015260016024830152909116925063a22cb4659150604401600060405180830381600087803b158015611bc057600080fd5b505af1158015611bd4573d6000803e3d6000fd5b5050601d5460405163a22cb46560e01b81526001600160a01b03858116600483015260016024830152909116925063a22cb4659150604401600060405180830381600087803b158015611c2657600080fd5b505af1158015611c3a573d6000803e3d6000fd5b5050505050565b60006001600160a01b038216611c6a576040516323d3ad8160e21b815260040160405180910390fd5b506001600160a01b03166000908152600560205260409020546001600160401b031690565b6018546001600160a01b03163314611cb95760405162461bcd60e51b8152600401610d7690615649565b600082815260126020526040908190209051636f39b13760e11b8152600481018290526024810183905273__$500a10fa9d461fc90c8a058ae925f037b6$__9063de73626e9060440160006040518083038186803b158015611d1a57600080fd5b505af4158015611d2e573d6000803e3d6000fd5b505082546040519081528592507f54d8968607528ba0a500c8ca37b787bcc514c33b28b43efa81e195ffb88fee519150602001611a4d565b60008181526012602090815260408083206011909252822060038201548390611d8f904261568a565b90506000610708846001015483611da691906155f5565b611db09190615622565b90506000818460040154611dc49190615636565b90508460010154811115611dd9575060018401545b9695505050505050565b611deb6133a4565b611e315760405162461bcd60e51b81526020600482015260176024820152762737ba1030baba3437b934bd32b2103a379036b4b73a1760491b6044820152606401610d76565b611e44611e3d60005490565b8484613cdd565b50506111928484836133e9565b6009546001600160a01b03163314611e7b5760405162461bcd60e51b8152600401610d76906155a1565b601d80546001600160a01b0319166001600160a01b0392909216919091179055565b6016548110611eee5760405162461bcd60e51b815260206004820152601960248201527f496e76616c6964206368617261637465722074797065204944000000000000006044820152606401610d76565b611ef9336001613d41565b611fae60168281548110611f0f57611f0f6155c9565b90600052602060002090600302016002018054611f2b90615567565b80601f0160208091040260200160405190810160405280929190818152602001828054611f5790615567565b8015611fa45780601f10611f7957610100808354040283529160200191611fa4565b820191906000526020600020905b815481529060010190602001808311611f8757829003601f168201915b5050505050613d5b565b611fb9601454613d9e565b61207160145460168381548110611fd257611fd26155c9565b90600052602060002090600302016002018054611fee90615567565b80601f016020809104026020016040519081016040528092919081815260200182805461201a90615567565b80156120675780601f1061203c57610100808354040283529160200191612067565b820191906000526020600020905b81548152906001019060200180831161204a57829003601f168201915b50505050506133d1565b60145460405182815233907fd4a95b11484f5e9358b888b250a18a34707faa5c6e49c20dc64315abd077035b9060200160405180910390a36120b281613de3565b6120bb8161416e565b601480549060006120cb836156ff565b919050555050565b6120db6133a4565b6120f75760405162461bcd60e51b8152600401610d76906155a1565b6110ee8161423b565b606060038054610ddf90615567565b6121176133a4565b6121335760405162461bcd60e51b8152600401610d76906155a1565b610f06838383614317565b6010546001600160a01b031633146121685760405162461bcd60e51b8152600401610d76906155a1565b600085815260116020526040908190209051635de6438960e01b8152600481018290526024810186905260448101859052606481018490526084810183905273__$500a10fa9d461fc90c8a058ae925f037b6$__90635de643899060a40160006040518083038186803b1580156121de57600080fd5b505af41580156121f2573d6000803e3d6000fd5b50506040805188815260208101889052908101869052606081018590528892507f91880eb2655ae83ee3b14d19938b63c2f3077ecf91ef7b3118006e333490ab1f915060800160405180910390a2505050505050565b60008181526013602090815260409182902080548351818402810184019094528084526060939283018282801561229e57602002820191906000526020600020905b81548152602001906001019080831161228a575b50505050509050919050565b816122b481613648565b610f0683836143e0565b6000828152601360205260408120600101818360048111156122e2576122e261569d565b60048111156122f3576122f361569d565b815260200190815260200160002054905092915050565b6060816001600160401b0381111561232457612324614c9e565b60405190808252806020026020018201604052801561235757816020015b60608152602001906001900390816123425790505b50905060005b828110156123f7576123c73085858481811061237b5761237b6155c9565b905060200281019061238d9190615718565b8080601f01602080910402602001604051908101604052809392919081815260200183838082843760009201919091525061447592505050565b8282815181106123d9576123d96155c9565b602002602001018190525080806123ef906156ff565b91505061235d565b5092915050565b836001600160a01b03811633146124185761241833613648565b611c3a858585856144a1565b61244f6040518060800160405280600081526020016000815260200160008152602001600081525090565b60008281526012602052604081206002015490036124a45760405162461bcd60e51b8152602060048201526012602482015271151bdad95b881251081b9bdd08199bdd5b9960721b6044820152606401610d76565b50600090815260126020908152604091829020825160808101845281548152600182015492810192909252600281015492820192909252600390910154606082015290565b601e546001600160a01b031633146125135760405162461bcd60e51b8152600401610d76906155a1565b600091825260136020908152604083208054600181018255908452922090910155565b60008181526019602052604081208054606092919061255490615567565b80601f016020809104026020016040519081016040528092919081815260200182805461258090615567565b80156125cd5780601f106125a2576101008083540402835291602001916125cd565b820191906000526020600020905b8154815290600101906020018083116125b057829003601f168201915b505050505090506000815111156125e45792915050565b60006125ef846144e5565b9050806125fb85614681565b60405160200161260c929190615765565b60405160208183030381529060405292505050919050565b3361262e8261195c565b6001600160a01b0316146126845760405162461bcd60e51b815260206004820152601e60248201527f4e6f7420746865206f776e6572206f66207468652063686172616374657200006044820152606401610d76565b600081815260136020526040812060020154908190036126da5760405162461bcd60e51b8152602060048201526011602482015270139bc818db185cdcc8195c5d5a5c1c1959607a1b6044820152606401610d76565b604051819083907f7e61635513fe31aafbbe8d9f28e1480aaac99ddecc10839a6fad06f460a8fb1d90600090a360008281526013602052604080822060020191909155601a549051637921219560e11b81526001600160a01b039091169063f242432a906117b290309033908690600190600401615794565b6009546001600160a01b0316331461277d5760405162461bcd60e51b8152600401610d76906155a1565b601c80546001600160a01b0319166001600160a01b0392909216919091179055565b612811604051806101c0016040528060008152602001600081526020016000815260200160008152602001600081526020016000815260200160008152602001600081526020016000815260200160008152602001600081526020016000815260200160008152602001600081525090565b5060009081526011602090815260409182902082516101c081018452815481526001820154928101929092526002810154928201929092526003820154606082015260048201546080820152600582015460a0820152600682015460c0820152600782015460e082015260088201546101008201526009820154610120820152600a820154610140820152600b820154610160820152600c820154610180820152600d909101546101a082015290565b601e546001600160a01b031633146128eb5760405162461bcd60e51b8152600401610d76906155a1565b6000838152601360209081526040808320601190925290912061290c614c3c565b612710851115612a0957601d5460405163681377c960e01b8152600481018790526000916001600160a01b03169063681377c99060240161014060405180830381865afa158015612961573d6000803e3d6000fd5b505050506040513d601f19601f8201168201806040525081019061298591906157d7565b6080810151601b54604051633129e77360e01b81526004810183905292935090916001600160a01b0390911690633129e77390602401600060405180830381865afa1580156129d8573d6000803e3d6000fd5b505050506040513d6000823e601f3d908101601f19168201604052612a00919081019061586c565b92505050612a7d565b601b54604051633129e77360e01b8152600481018790526001600160a01b0390911690633129e77390602401600060405180830381865afa158015612a52573d6000803e3d6000fd5b505050506040513d6000823e601f3d908101601f19168201604052612a7a919081019061586c565b90505b8060200151826005016000828254612a959190615636565b90915550506040810151600683018054600090612ab3908490615636565b90915550506060810151600383018054600090612ad1908490615636565b90915550506080810151600483018054600090612aef908490615636565b90915550859050600184016000866004811115612b0e57612b0e61569d565b6004811115612b1f57612b1f61569d565b8152602081019190915260400160002055505050505050565b601e546001600160a01b03163314612b625760405162461bcd60e51b8152600401610d76906155a1565b6000828152601360205260408120805490915b8254811015612bbe5783836000018281548110612b9457612b946155c9565b906000526020600020015403612bac57809150612bbe565b80612bb6816156ff565b915050612b75565b5081548110612c045760405162461bcd60e51b815260206004820152601260248201527114dada5b1b081b9bdd08195c5d5a5c1c195960721b6044820152606401610d76565b81548290612c149060019061568a565b81548110612c2457612c246155c9565b9060005260206000200154826000018281548110612c4457612c446155c9565b6000918252602090912001558154829080612c6157612c6161594b565b6001900381819060005260206000200160009055905550505050565b6014548210612cce5760405162461bcd60e51b815260206004820152601a60248201527f496e76616c69642063686172616374657220746f6b656e2049440000000000006044820152606401610d76565b33612cd88361195c565b6001600160a01b031614612d2e5760405162461bcd60e51b815260206004820152601e60248201527f4e6f7420746865206f776e6572206f66207468652063686172616374657200006044820152606401610d76565b601a5460405163bd85b03960e01b8152600481018390526000916001600160a01b03169063bd85b03990602401602060405180830381865afa158015612d78573d6000803e3d6000fd5b505050506040513d601f19601f82011682018060405250810190612d9c9190615961565b11612ddc5760405162461bcd60e51b815260206004820152601060248201526f125b9d985b1a590818db185cdcc8125160821b6044820152606401610d76565b601a54604051627eeac760e11b8152336004820152602481018390526000916001600160a01b03169062fdd58e90604401602060405180830381865afa158015612e2a573d6000803e3d6000fd5b505050506040513d601f19601f82011682018060405250810190612e4e9190615961565b11612e9b5760405162461bcd60e51b815260206004820152601a60248201527f4e6f7420746865206f776e6572206f662074686520636c6173730000000000006044820152606401610d76565b600082815260136020526040902060020154819003612ef55760405162461bcd60e51b815260206004820152601660248201527510db185cdcc8185b1c9958591e48195c5d5a5c1c195960521b6044820152606401610d76565b6000828152601360205260409020600201548015612f7757601a54604051637921219560e11b81526001600160a01b039091169063f242432a90612f4490309033908690600190600401615794565b600060405180830381600087803b158015612f5e57600080fd5b505af1158015612f72573d6000803e3d6000fd5b505050505b60008381526013602052604090819020600201839055601a549051637921219560e11b81526001600160a01b039091169063f242432a90612fc390339030908790600190600401615794565b600060405180830381600087803b158015612fdd57600080fd5b505af1158015612ff1573d6000803e3d6000fd5b50506040518492508591507f9ec2a1abbc94cda98705c1bcace42186fb5bb291c4f4e5a55afb5dbc174e9ce390600090a3505050565b600081815260126020526040812060028101548290613046904261568a565b90506000620151806130598360646155f5565b6130639190615622565b905060008184600001546130779190615636565b90506064811115613086575060645b95945050505050565b6008805461309c90615567565b80601f01602080910402602001604051908101604052809291908181526020018280546130c890615567565b80156131155780601f106130ea57610100808354040283529160200191613115565b820191906000526020600020905b8154815290600101906020018083116130f857829003601f168201915b505050505081565b601e546001600160a01b031633146131475760405162461bcd60e51b8152600401610d76906155a1565b600082815260136020908152604080832060119092528220909160018301818560048111156131785761317861569d565b60048111156131895761318961569d565b81526020019081526020016000205490506131a2614c3c565b61271082111561329f57601d5460405163681377c960e01b8152600481018490526000916001600160a01b03169063681377c99060240161014060405180830381865afa1580156131f7573d6000803e3d6000fd5b505050506040513d601f19601f8201168201806040525081019061321b91906157d7565b6080810151601b54604051633129e77360e01b81526004810183905292935090916001600160a01b0390911690633129e77390602401600060405180830381865afa15801561326e573d6000803e3d6000fd5b505050506040513d6000823e601f3d908101601f19168201604052613296919081019061586c565b92505050613313565b601b54604051633129e77360e01b8152600481018490526001600160a01b0390911690633129e77390602401600060405180830381865afa1580156132e8573d6000803e3d6000fd5b505050506040513d6000823e601f3d908101601f19168201604052613310919081019061586c565b90505b806020015183600501600082825461332b919061568a565b9091555050604081015160068401805460009061334990849061568a565b9091555050606081015160038401805460009061336790849061568a565b9091555050608081015160048401805460009061338590849061568a565b90915550600090506001850181876004811115612b0e57612b0e61569d565b60006133b86009546001600160a01b031690565b6001600160a01b0316336001600160a01b031614905090565b6000828152601960205260409020610f0682826159c0565b6000546001600160a01b03841661341257604051622e076360e81b815260040160405180910390fd5b826000036134335760405163b562e8dd60e01b815260040160405180910390fd5b6001600160a01b038416600081815260056020908152604080832080546fffffffffffffffffffffffffffffffff1981166001600160401b038083168b0181169182176801000000000000000067ffffffffffffffff1990941690921783900481168b01811690920217909155858452600490925290912080546001600160e01b0319168317600160a01b42909316929092029190911790558190818501903b15613549575b60405182906001600160a01b03881690600090600080516020615b69833981519152908290a46135126000878480600101955087614781565b61352f576040516368d2bf6b60e11b815260040160405180910390fd5b8082106134d957826000541461354457600080fd5b61357c565b5b6040516001830192906001600160a01b03881690600090600080516020615b69833981519152908290a480821061354a575b5060009081556111929085838684565b60006301ffc9a760e01b6001600160e01b0319831614806135bd57506380ac58cd60e01b6001600160e01b03198316145b806135d85750635b5e139f60e01b6001600160e01b03198316145b80610dca57506001600160e01b0319821663152a902d60e11b1492915050565b60006001600160e01b03198216630271189760e51b1480610dca5750610dca8261358c565b6000805482108015610dca575050600090815260046020526040902054600160e01b900460ff161590565b600e5460ff16156110ee576daaeb6d7670e522a718067333cd4e3b156110ee57604051633185c44d60e21b81523060048201526001600160a01b03821660248201526daaeb6d7670e522a718067333cd4e9063c617113490604401602060405180830381865afa1580156136c0573d6000803e3d6000fd5b505050506040513d601f19601f820116820180604052508101906136e49190615a7f565b6110ee57604051633b79c77360e21b81526001600160a01b0382166004820152602401610d76565b60006137178261195c565b9050806001600160a01b0316836001600160a01b03160361374b5760405163250fdee360e21b815260040160405180910390fd5b336001600160a01b03821614613782576137658133610cc3565b613782576040516367d9dca160e11b815260040160405180910390fd5b610f0683838361486c565b600980546001600160a01b038381166001600160a01b0319831681179093556040519116919082907f8292fce18fa69edf4db7b94ea2e58241df0ae57f97e0a6c9b29067028bf92d7690600090a35050565b610f068383836148c8565b600e805460ff19168215159081179091556040519081527f38475885990d8dfe9ca01f0ef160a1b5514426eab9ddbc953a3353410ba780969060200160405180910390a150565b610f06838383604051806020016040528060008152506123fe565b600061385783613bc3565b805190915082156138bd576000336001600160a01b038316148061388057506138808233610cc3565b8061389b57503361389086610e62565b6001600160a01b0316145b9050806138bb57604051632ce44b5f60e11b815260040160405180910390fd5b505b6138c96000858361486c565b6001600160a01b0380821660008181526005602090815260408083208054600160801b6000196001600160401b0380841691909101811667ffffffffffffffff198416811783900482166001908101831690930277ffffffffffffffff0000000000000000ffffffffffffffff19909416179290921783558b86526004909452828520805460ff60e01b1942909316600160a01b026001600160e01b03199091169097179690961716600160e01b1785559189018084529220805491949091166139c75760005482146139c757805460208701516001600160401b0316600160a01b026001600160e01b03199091166001600160a01b038716171781555b5050604051869250600091506001600160a01b03841690600080516020615b69833981519152908390a4505060018054810190555050565b6daaeb6d7670e522a718067333cd4e3b15610dac576001600160a01b0382163b15613aaa578015613a6a57604051633e9f1edf60e11b81523060048201526001600160a01b03831660248201526daaeb6d7670e522a718067333cd4e90637d3e3dbe906044016117b2565b60405163a0af290360e01b81523060048201526001600160a01b03831660248201526daaeb6d7670e522a718067333cd4e9063a0af2903906044016117b2565b604051632210724360e11b81523060048201526daaeb6d7670e522a718067333cd4e90634420e486906024016117b2565b60048301546000613aec8486614aa1565b90506000613afa8483615636565b905082811115613b075750815b60049095019490945550504260039091015550565b612710811115613b605760405162461bcd60e51b815260206004820152600f60248201526e45786365656473206d61782062707360881b6044820152606401610d76565b600a80546001600160a01b0384166001600160b01b03199091168117600160a01b61ffff851602179091556040518281527f90d7ec04bcb8978719414f82e52e4cb651db41d0e6f8cea6118c2191e6183adb906020015b60405180910390a25050565b604080516060810182526000808252602082018190529181019190915281600054811015613cc457600081815260046020908152604091829020825160608101845290546001600160a01b0381168252600160a01b81046001600160401b031692820192909252600160e01b90910460ff16151591810182905290613cc25780516001600160a01b031615613c59579392505050565b5060001901600081815260046020908152604091829020825160608101845290546001600160a01b038116808352600160a01b82046001600160401b031693830193909352600160e01b900460ff1615159281019290925215613cbd579392505050565b613c59565b505b604051636f96cda160e11b815260040160405180910390fd5b600080613cea8486615636565b600c8054600181019091557fdf6966c971051c3d54ec59162606531493a51404a002842f56009d7e5cf4a8c7018190556000818152600d60205260409020909250829150613d3884826159c0565b50935093915050565b610dac8282604051806020016040528060008152506133e9565b6110ee81604051602401613d6f9190614e7c565b60408051601f198184030181529190526020810180516001600160e01b031663104c13eb60e21b179052614b06565b6110ee81604051602401613db491815260200190565b60408051601f198184030181529190526020810180516001600160e01b031663f82c50f160e01b179052614b06565b6000604051806101c00160405280601454815260200160158481548110613e0c57613e0c6155c9565b90600052602060002090600e020160010154815260200160158481548110613e3657613e366155c9565b90600052602060002090600e020160020154815260200160158481548110613e6057613e606155c9565b90600052602060002090600e020160030154815260200160158481548110613e8a57613e8a6155c9565b90600052602060002090600e020160040154815260200160158481548110613eb457613eb46155c9565b90600052602060002090600e020160050154815260200160158481548110613ede57613ede6155c9565b90600052602060002090600e020160060154815260200160158481548110613f0857613f086155c9565b90600052602060002090600e020160070154815260200160158481548110613f3257613f326155c9565b90600052602060002090600e020160080154815260200160158481548110613f5c57613f5c6155c9565b90600052602060002090600e020160090154815260200160158481548110613f8657613f866155c9565b90600052602060002090600e0201600a0154815260200160158481548110613fb057613fb06155c9565b90600052602060002090600e0201600b0154815260200160158481548110613fda57613fda6155c9565b90600052602060002090600e0201600c0154815260200183815250905080601160006014548152602001908152602001600020600082015181600001556020820151816001015560408201518160020155606082015181600301556080820151816004015560a0820151816005015560c0820151816006015560e082015181600701556101008201518160080155610120820151816009015561014082015181600a015561016082015181600b015561018082015181600c01556101a082015181600d01559050506014547f672e8a5a5ea4546e9da80d8c45321ef467df52d7498dae7ec971387bc464bc6682602001518360400151846060015185608001518660a001518760c001518860e001518961010001518a61012001518b61014001518c61016001518d6101800151604051613bb79c9b9a999897969594939291909b8c5260208c019a909a5260408b019890985260608a0196909652608089019490945260a088019290925260c087015260e08601526101008501526101208401526101408301526101608201526101800190565b600060405180608001604052806064815260200160158481548110614195576141956155c9565b60009182526020808320600e929092029091016004015483524283820181905260409384015260148054835260128252918390208451808255858301516001830181905586860151600284018190556060808901516003909501859055955487519384529483019190915294810194909452918301919091529192507f19da20281546911260f62aa6f6b5e92d810a46f937d6030f91dca6442df4dfb490608001613bb7565b60006008805461424a90615567565b80601f016020809104026020016040519081016040528092919081815260200182805461427690615567565b80156142c35780601f10614298576101008083540402835291602001916142c3565b820191906000526020600020905b8154815290600101906020018083116142a657829003601f168201915b5050505050905081600890816142d991906159c0565b507fc9c7c3fe08b88b4df9d4d47ef47d2c43d55c025a0ba88ca442580ed9e7348a16818360405161430b929190615a9c565b60405180910390a15050565b61271081111561435b5760405162461bcd60e51b815260206004820152600f60248201526e45786365656473206d61782062707360881b6044820152606401610d76565b6040805180820182526001600160a01b0384811680835260208084018681526000898152600b8352869020945185546001600160a01b031916941693909317845591516001909301929092559151838152909185917f7365cf4122f072a3365c20d54eff9b38d73c096c28e1892ec8f5b0e403a0f12d910160405180910390a3505050565b336001600160a01b038316036144095760405163b06307db60e01b815260040160405180910390fd5b3360008181526007602090815260408083206001600160a01b03871680855290835292819020805460ff191686151590811790915590519081529192917f17307eab39ab6107e8899845ad3d59bd9653f200f220920489ca2b5937696c31910160405180910390a35050565b606061449a8383604051806060016040528060278152602001615b4260279139614b0f565b9392505050565b6144ac8484846148c8565b6001600160a01b0383163b15611192576144c884848484614781565b611192576040516368d2bf6b60e11b815260040160405180910390fd5b606060006144f2600c5490565b90506000600c80548060200260200160405190810160405280929190818152602001828054801561454257602002820191906000526020600020905b81548152602001906001019080831161452e575b5050505050905060005b8281101561464657818181518110614566576145666155c9565b602002602001015185101561463457600d600083838151811061458b5761458b6155c9565b6020026020010151815260200190815260200160002080546145ac90615567565b80601f01602080910402602001604051908101604052809291908181526020018280546145d890615567565b80156146255780601f106145fa57610100808354040283529160200191614625565b820191906000526020600020905b81548152906001019060200180831161460857829003601f168201915b50505050509350505050919050565b61463f600182615636565b905061454c565b5060405162461bcd60e51b815260206004820152600f60248201526e125b9d985b1a59081d1bdad95b9259608a1b6044820152606401610d76565b6060816000036146a85750506040805180820190915260018152600360fc1b602082015290565b8160005b81156146d257806146bc816156ff565b91506146cb9050600a83615622565b91506146ac565b6000816001600160401b038111156146ec576146ec614c9e565b6040519080825280601f01601f191660200182016040528015614716576020820181803683370190505b5090505b841561148a5761472b60018361568a565b9150614738600a86615ac1565b614743906030615636565b60f81b818381518110614758576147586155c9565b60200101906001600160f81b031916908160001a90535061477a600a86615622565b945061471a565b604051630a85bd0160e11b81526000906001600160a01b0385169063150b7a02906147b6903390899088908890600401615ad5565b6020604051808303816000875af19250505080156147f1575060408051601f3d908101601f191682019092526147ee91810190615b08565b60015b61484f573d80801561481f576040519150601f19603f3d011682016040523d82523d6000602084013e614824565b606091505b508051600003614847576040516368d2bf6b60e11b815260040160405180910390fd5b805181602001fd5b6001600160e01b031916630a85bd0160e11b149050949350505050565b60008281526006602052604080822080546001600160a01b0319166001600160a01b0387811691821790925591518593918516917f8c5be1e5ebec7d5bd14f71427d1e84f3dd0314c0f7b2291e5b200ac8c7c3b92591a4505050565b60006148d382613bc3565b9050836001600160a01b031681600001516001600160a01b03161461490a5760405162a1148160e81b815260040160405180910390fd5b6000336001600160a01b038616148061492857506149288533610cc3565b8061494357503361493884610e62565b6001600160a01b0316145b90508061496357604051632ce44b5f60e11b815260040160405180910390fd5b6001600160a01b03841661498a57604051633a954ecd60e21b815260040160405180910390fd5b6149966000848761486c565b6001600160a01b038581166000908152600560209081526040808320805467ffffffffffffffff198082166001600160401b0392831660001901831617909255898616808652838620805493841693831660019081018416949094179055898652600490945282852080546001600160e01b031916909417600160a01b42909216919091021783558701808452922080549193909116614a6a576000548214614a6a57805460208601516001600160401b0316600160a01b026001600160e01b03199091166001600160a01b038a16171781555b50505082846001600160a01b0316866001600160a01b0316600080516020615b6983398151915260405160405180910390a4611c3a565b600080836003015442614ab4919061568a565b90506000610708856001015483614acb91906155f5565b614ad59190615622565b90506000818560040154614ae99190615636565b905085600101548111156130865750600185015495945050505050565b6110ee81614be2565b60606001600160a01b0384163b614b775760405162461bcd60e51b815260206004820152602660248201527f416464726573733a2064656c65676174652063616c6c20746f206e6f6e2d636f6044820152651b9d1c9858dd60d21b6064820152608401610d76565b600080856001600160a01b031685604051614b929190615b25565b600060405180830381855af49150503d8060008114614bcd576040519150601f19603f3d011682016040523d82523d6000602084013e614bd2565b606091505b5091509150611dd9828286614c03565b60006a636f6e736f6c652e6c6f679050600080835160208501845afa505050565b60608315614c1257508161449a565b825115614c225782518084602001fd5b8160405162461bcd60e51b8152600401610d769190614e7c565b6040518060c00160405280606081526020016000815260200160008152602001600081526020016000815260200160006004811115614c7d57614c7d61569d565b905290565b80356001600160a01b0381168114614c9957600080fd5b919050565b634e487b7160e01b600052604160045260246000fd5b60405161014081016001600160401b0381118282101715614cd757614cd7614c9e565b60405290565b60405160c081016001600160401b0381118282101715614cd757614cd7614c9e565b604051601f8201601f191681016001600160401b0381118282101715614d2757614d27614c9e565b604052919050565b60006001600160401b03821115614d4857614d48614c9e565b50601f01601f191660200190565b600082601f830112614d6757600080fd5b8135614d7a614d7582614d2f565b614cff565b818152846020838601011115614d8f57600080fd5b816020850160208301376000918101602001919091529392505050565b60008060408385031215614dbf57600080fd5b614dc883614c82565b915060208301356001600160401b03811115614de357600080fd5b614def85828601614d56565b9150509250929050565b6001600160e01b0319811681146110ee57600080fd5b600060208284031215614e2157600080fd5b813561449a81614df9565b60005b83811015614e47578181015183820152602001614e2f565b50506000910152565b60008151808452614e68816020860160208601614e2c565b601f01601f19169290920160200192915050565b60208152600061449a6020830184614e50565b600060208284031215614ea157600080fd5b5035919050565b600060208284031215614eba57600080fd5b61449a82614c82565b60008060408385031215614ed657600080fd5b614edf83614c82565b946020939093013593505050565b600081518084526020808501945080840160005b83811015614f1d57815187529582019590820190600101614f01565b509495945050505050565b6020815281516020820152602082015160408201526040820151606082015260608201516080820152608082015160a082015260a082015160c082015260c082015160e0820152600060e083015161010081818501528085015191505061012080818501525061148a610140840182614eed565b600080600060608486031215614fb157600080fd5b614fba84614c82565b9250614fc860208501614c82565b9150604084013590509250925092565b60008060408385031215614feb57600080fd5b50508035926020909101359150565b6000806040838503121561500d57600080fd5b8235915060208301356001600160401b03811115614de357600080fd5b80151581146110ee57600080fd5b60006020828403121561504a57600080fd5b813561449a8161502a565b83815260606020820152600061506e6060830185614e50565b8281036040840152611dd98185614e50565b6000806000806080858703121561509657600080fd5b61509f85614c82565b93506020850135925060408501356001600160401b03808211156150c257600080fd5b6150ce88838901614d56565b935060608701359150808211156150e457600080fd5b506150f187828801614d56565b91505092959194509250565b60006020828403121561510f57600080fd5b81356001600160401b0381111561512557600080fd5b61148a84828501614d56565b60008060006060848603121561514657600080fd5b83359250614fc860208501614c82565b600080600080600060a0868803121561516e57600080fd5b505083359560208501359550604085013594606081013594506080013592509050565b6020808252825182820181905260009190848201906040850190845b818110156151c9578351835292840192918401916001016151ad565b50909695505050505050565b600080604083850312156151e857600080fd5b6151f183614c82565b915060208301356152018161502a565b809150509250929050565b600581106110ee57600080fd5b6000806040838503121561522c57600080fd5b8235915060208301356152018161520c565b6000806020838503121561525157600080fd5b82356001600160401b038082111561526857600080fd5b818501915085601f83011261527c57600080fd5b81358181111561528b57600080fd5b8660208260051b85010111156152a057600080fd5b60209290920196919550909350505050565b6000602080830181845280855180835260408601915060408160051b870101925083870160005b8281101561530757603f198886030184526152f5858351614e50565b945092850192908501906001016152d9565b5092979650505050505050565b6000806000806080858703121561532a57600080fd5b61533385614c82565b935061534160208601614c82565b92506040850135915060608501356001600160401b0381111561536357600080fd5b6150f187828801614d56565b600082601f83011261538057600080fd5b813560206001600160401b0382111561539b5761539b614c9e565b8160051b6153aa828201614cff565b92835284810182019282810190878511156153c457600080fd5b83870192505b848310156153e3578235825291830191908301906153ca565b979650505050505050565b600080600080600060a0868803121561540657600080fd5b61540f86614c82565b945061541d60208701614c82565b935060408601356001600160401b038082111561543957600080fd5b61544589838a0161536f565b9450606088013591508082111561545b57600080fd5b61546789838a0161536f565b9350608088013591508082111561547d57600080fd5b5061548a88828901614d56565b9150509295509295909350565b6000806000606084860312156154ac57600080fd5b833592506020840135915060408401356154c58161520c565b809150509250925092565b600080604083850312156154e357600080fd5b6154ec83614c82565b91506154fa60208401614c82565b90509250929050565b600080600080600060a0868803121561551b57600080fd5b61552486614c82565b945061553260208701614c82565b9350604086013592506060860135915060808601356001600160401b0381111561555b57600080fd5b61548a88828901614d56565b600181811c9082168061557b57607f821691505b60208210810361559b57634e487b7160e01b600052602260045260246000fd5b50919050565b6020808252600e908201526d139bdd08185d5d1a1bdc9a5e995960921b604082015260600190565b634e487b7160e01b600052603260045260246000fd5b634e487b7160e01b600052601160045260246000fd5b8082028115828204841417610dca57610dca6155df565b634e487b7160e01b600052601260045260246000fd5b6000826156315761563161560c565b500490565b80820180821115610dca57610dca6155df565b60208082526021908201527f43616c6c6572206973206e6f742074686520426174746c6520636f6e747261636040820152601d60fa1b606082015260800190565b81810381811115610dca57610dca6155df565b634e487b7160e01b600052602160045260246000fd5b8481526020810184905260808101600584106156df57634e487b7160e01b600052602160045260246000fd5b60408201939093526001600160a01b039190911660609091015292915050565b600060018201615711576157116155df565b5060010190565b6000808335601e1984360301811261572f57600080fd5b8301803591506001600160401b0382111561574957600080fd5b60200191503681900382131561575e57600080fd5b9250929050565b60008351615777818460208801614e2c565b83519083019061578b818360208801614e2c565b01949350505050565b6001600160a01b0394851681529290931660208301526040820152606081019190915260a06080820181905260009082015260c00190565b8051614c998161520c565b600061014082840312156157ea57600080fd5b6157f2614cb4565b825181526020830151602082015261580c604084016157cc565b604082015261581d606084016157cc565b60608201526080830151608082015260a083015160a082015260c083015160c082015260e083015160e08201526101008084015181830152506101208084015181830152508091505092915050565b6000602080838503121561587f57600080fd5b82516001600160401b038082111561589657600080fd5b9084019060c082870312156158aa57600080fd5b6158b2614cdd565b8251828111156158c157600080fd5b83019150601f820187136158d457600080fd5b81516158e2614d7582614d2f565b81815288868386010111156158f657600080fd5b61590582878301888701614e2c565b8083525050838301518482015260408301516040820152606083015160608201526080830151608082015261593c60a084016157cc565b60a08201529695505050505050565b634e487b7160e01b600052603160045260246000fd5b60006020828403121561597357600080fd5b5051919050565b601f821115610f0657600081815260208120601f850160051c810160208610156159a15750805b601f850160051c820191505b818110156117e0578281556001016159ad565b81516001600160401b038111156159d9576159d9614c9e565b6159ed816159e78454615567565b8461597a565b602080601f831160018114615a225760008415615a0a5750858301515b600019600386901b1c1916600185901b1785556117e0565b600085815260208120601f198616915b82811015615a5157888601518255948401946001909101908401615a32565b5085821015615a6f5787850151600019600388901b60f8161c191681555b5050505050600190811b01905550565b600060208284031215615a9157600080fd5b815161449a8161502a565b604081526000615aaf6040830185614e50565b82810360208401526130868185614e50565b600082615ad057615ad061560c565b500690565b6001600160a01b0385811682528416602082015260408101839052608060608201819052600090611dd990830184614e50565b600060208284031215615b1a57600080fd5b815161449a81614df9565b60008251615b37818460208701614e2c565b919091019291505056fe416464726573733a206c6f772d6c6576656c2064656c65676174652063616c6c206661696c6564ddf252ad1be2c89b69c2b068fc378daa952ba7f163c4a11628f55a4df523b3efa2646970667358221220a39fa9897aac396728be94f17cbd0147a028e043d9084e188483a0be19eeb58664736f6c63430008130033697066733a2f2f516d5a7a426d6a726a6e3734324478387750486865713858627a6b6f775753367871764c4855525453764c51436f697066733a2f2f516d5579576d7072793853726939426d734853514d444250746e505a6b6f583647533777385a697a706e46583776697066733a2f2f516d545945695869547a4268597577755137626a533561714368726566454a5a33376173384244724b59786b316a",
  "linkReferences": {
    "contracts/CMLib.sol": {
      "CMLib": [
        {
          "length": 20,
          "start": 8048
        },
        {
          "length": 20,
          "start": 9283
        },
        {
          "length": 20,
          "start": 10073
        },
        {
          "length": 20,
          "start": 11293
        }
      ]
    }
  },
  "deployedLinkReferences": {
    "contracts/CMLib.sol": {
      "CMLib": [
        {
          "length": 20,
          "start": 5372
        },
        {
          "length": 20,
          "start": 6607
        },
        {
          "length": 20,
          "start": 7397
        },
        {
          "length": 20,
          "start": 8617
        }
      ]
    }
  }
}