{
  "_format": "hh-sol-artifact-1",
  "contractName": "Character",
  "sourceName": "contracts/Character.sol",
  "abi": [
    {
      "inputs": [],
      "stateMutability": "nonpayable",
      "type": "constructor"
    },
    {
      "inputs": [],
      "name": "ApprovalCallerNotOwnerNorApproved",
      "type": "error"
    },
    {
      "inputs": [],
      "name": "ApprovalQueryForNonexistentToken",
      "type": "error"
    },
    {
      "inputs": [],
      "name": "ApprovalToCurrentOwner",
      "type": "error"
    },
    {
      "inputs": [],
      "name": "ApproveToCaller",
      "type": "error"
    },
    {
      "inputs": [],
      "name": "BalanceQueryForZeroAddress",
      "type": "error"
    },
    {
      "inputs": [],
      "name": "MintToZeroAddress",
      "type": "error"
    },
    {
      "inputs": [],
      "name": "MintZeroQuantity",
      "type": "error"
    },
    {
      "inputs": [
        {
          "internalType": "address",
          "name": "operator",
          "type": "address"
        }
      ],
      "name": "OperatorNotAllowed",
      "type": "error"
    },
    {
      "inputs": [],
      "name": "OwnerQueryForNonexistentToken",
      "type": "error"
    },
    {
      "inputs": [],
      "name": "TransferCallerNotOwnerNorApproved",
      "type": "error"
    },
    {
      "inputs": [],
      "name": "TransferFromIncorrectOwner",
      "type": "error"
    },
    {
      "inputs": [],
      "name": "TransferToNonERC721ReceiverImplementer",
      "type": "error"
    },
    {
      "inputs": [],
      "name": "TransferToZeroAddress",
      "type": "error"
    },
    {
      "inputs": [],
      "name": "URIQueryForNonexistentToken",
      "type": "error"
    },
    {
      "anonymous": false,
      "inputs": [
        {
          "indexed": true,
          "internalType": "address",
          "name": "owner",
          "type": "address"
        },
        {
          "indexed": true,
          "internalType": "address",
          "name": "approved",
          "type": "address"
        },
        {
          "indexed": true,
          "internalType": "uint256",
          "name": "tokenId",
          "type": "uint256"
        }
      ],
      "name": "Approval",
      "type": "event"
    },
    {
      "anonymous": false,
      "inputs": [
        {
          "indexed": true,
          "internalType": "address",
          "name": "owner",
          "type": "address"
        },
        {
          "indexed": true,
          "internalType": "address",
          "name": "operator",
          "type": "address"
        },
        {
          "indexed": false,
          "internalType": "bool",
          "name": "approved",
          "type": "bool"
        }
      ],
      "name": "ApprovalForAll",
      "type": "event"
    },
    {
      "anonymous": false,
      "inputs": [
        {
          "indexed": true,
          "internalType": "uint256",
          "name": "tokenId",
          "type": "uint256"
        },
        {
          "indexed": false,
          "internalType": "uint256",
          "name": "stamina",
          "type": "uint256"
        },
        {
          "indexed": false,
          "internalType": "uint256",
          "name": "maxMana",
          "type": "uint256"
        },
        {
          "indexed": false,
          "internalType": "uint256",
          "name": "lastStaminaUpdateTime",
          "type": "uint256"
        },
        {
          "indexed": false,
          "internalType": "uint256",
          "name": "lastManaUpdateTime",
          "type": "uint256"
        }
      ],
      "name": "CharacterRecoveryStats",
      "type": "event"
    },
    {
      "anonymous": false,
      "inputs": [
        {
          "indexed": true,
          "internalType": "uint256",
          "name": "tokenId",
          "type": "uint256"
        },
        {
          "indexed": false,
          "internalType": "uint256",
          "name": "level",
          "type": "uint256"
        },
        {
          "indexed": false,
          "internalType": "uint256",
          "name": "experience",
          "type": "uint256"
        },
        {
          "indexed": false,
          "internalType": "uint256",
          "name": "health",
          "type": "uint256"
        },
        {
          "indexed": false,
          "internalType": "uint256",
          "name": "mana",
          "type": "uint256"
        },
        {
          "indexed": false,
          "internalType": "uint256",
          "name": "attack",
          "type": "uint256"
        },
        {
          "indexed": false,
          "internalType": "uint256",
          "name": "defense",
          "type": "uint256"
        },
        {
          "indexed": false,
          "internalType": "uint256",
          "name": "strength",
          "type": "uint256"
        },
        {
          "indexed": false,
          "internalType": "uint256",
          "name": "dexterity",
          "type": "uint256"
        },
        {
          "indexed": false,
          "internalType": "uint256",
          "name": "intelligence",
          "type": "uint256"
        },
        {
          "indexed": false,
          "internalType": "uint256",
          "name": "vitality",
          "type": "uint256"
        },
        {
          "indexed": false,
          "internalType": "uint256",
          "name": "accuracy",
          "type": "uint256"
        },
        {
          "indexed": false,
          "internalType": "uint256",
          "name": "statPoints",
          "type": "uint256"
        }
      ],
      "name": "CharacterStatsEvent",
      "type": "event"
    },
    {
      "anonymous": false,
      "inputs": [
        {
          "indexed": true,
          "internalType": "uint256",
          "name": "tokenId",
          "type": "uint256"
        },
        {
          "indexed": false,
          "internalType": "uint256",
          "name": "strength",
          "type": "uint256"
        },
        {
          "indexed": false,
          "internalType": "uint256",
          "name": "dexterity",
          "type": "uint256"
        },
        {
          "indexed": false,
          "internalType": "uint256",
          "name": "intelligence",
          "type": "uint256"
        },
        {
          "indexed": false,
          "internalType": "uint256",
          "name": "vitality",
          "type": "uint256"
        }
      ],
      "name": "CharacterStatsUpdated",
      "type": "event"
    },
    {
      "anonymous": false,
      "inputs": [
        {
          "indexed": true,
          "internalType": "uint256",
          "name": "tokenId",
          "type": "uint256"
        },
        {
          "indexed": false,
          "internalType": "uint256",
          "name": "xp",
          "type": "uint256"
        }
      ],
      "name": "CharacterXPUpdated",
      "type": "event"
    },
    {
      "anonymous": false,
      "inputs": [
        {
          "indexed": true,
          "internalType": "uint256",
          "name": "characterTokenId",
          "type": "uint256"
        },
        {
          "indexed": true,
          "internalType": "uint256",
          "name": "classId",
          "type": "uint256"
        }
      ],
      "name": "ClassEquipped",
      "type": "event"
    },
    {
      "anonymous": false,
      "inputs": [
        {
          "indexed": true,
          "internalType": "uint256",
          "name": "characterTokenId",
          "type": "uint256"
        },
        {
          "indexed": true,
          "internalType": "uint256",
          "name": "classId",
          "type": "uint256"
        }
      ],
      "name": "ClassUnequipped",
      "type": "event"
    },
    {
      "anonymous": false,
      "inputs": [
        {
          "indexed": false,
          "internalType": "string",
          "name": "prevURI",
          "type": "string"
        },
        {
          "indexed": false,
          "internalType": "string",
          "name": "newURI",
          "type": "string"
        }
      ],
      "name": "ContractURIUpdated",
      "type": "event"
    },
    {
      "anonymous": false,
      "inputs": [
        {
          "indexed": true,
          "internalType": "address",
          "name": "newRoyaltyRecipient",
          "type": "address"
        },
        {
          "indexed": false,
          "internalType": "uint256",
          "name": "newRoyaltyBps",
          "type": "uint256"
        }
      ],
      "name": "DefaultRoyalty",
      "type": "event"
    },
    {
      "anonymous": false,
      "inputs": [
        {
          "indexed": true,
          "internalType": "uint256",
          "name": "tokenId",
          "type": "uint256"
        },
        {
          "indexed": false,
          "internalType": "uint256",
          "name": "mana",
          "type": "uint256"
        }
      ],
      "name": "ManaUpdated",
      "type": "event"
    },
    {
      "anonymous": false,
      "inputs": [
        {
          "indexed": true,
          "internalType": "address",
          "name": "player",
          "type": "address"
        },
        {
          "indexed": true,
          "internalType": "uint256",
          "name": "tokenId",
          "type": "uint256"
        },
        {
          "indexed": false,
          "internalType": "uint256",
          "name": "typeId",
          "type": "uint256"
        }
      ],
      "name": "NewCharacter",
      "type": "event"
    },
    {
      "anonymous": false,
      "inputs": [
        {
          "indexed": false,
          "internalType": "bool",
          "name": "restriction",
          "type": "bool"
        }
      ],
      "name": "OperatorRestriction",
      "type": "event"
    },
    {
      "anonymous": false,
      "inputs": [
        {
          "indexed": true,
          "internalType": "address",
          "name": "prevOwner",
          "type": "address"
        },
        {
          "indexed": true,
          "internalType": "address",
          "name": "newOwner",
          "type": "address"
        }
      ],
      "name": "OwnerUpdated",
      "type": "event"
    },
    {
      "anonymous": false,
      "inputs": [
        {
          "indexed": true,
          "internalType": "uint256",
          "name": "tokenId",
          "type": "uint256"
        },
        {
          "indexed": true,
          "internalType": "address",
          "name": "royaltyRecipient",
          "type": "address"
        },
        {
          "indexed": false,
          "internalType": "uint256",
          "name": "royaltyBps",
          "type": "uint256"
        }
      ],
      "name": "RoyaltyForToken",
      "type": "event"
    },
    {
      "anonymous": false,
      "inputs": [
        {
          "indexed": true,
          "internalType": "uint256",
          "name": "tokenId",
          "type": "uint256"
        },
        {
          "indexed": false,
          "internalType": "uint256",
          "name": "stamina",
          "type": "uint256"
        }
      ],
      "name": "StaminaUpdated",
      "type": "event"
    },
    {
      "anonymous": false,
      "inputs": [
        {
          "indexed": true,
          "internalType": "address",
          "name": "from",
          "type": "address"
        },
        {
          "indexed": true,
          "internalType": "address",
          "name": "to",
          "type": "address"
        },
        {
          "indexed": true,
          "internalType": "uint256",
          "name": "tokenId",
          "type": "uint256"
        }
      ],
      "name": "Transfer",
      "type": "event"
    },
    {
      "inputs": [],
      "name": "OPERATOR_FILTER_REGISTRY",
      "outputs": [
        {
          "internalType": "contract IOperatorFilterRegistry",
          "name": "",
          "type": "address"
        }
      ],
      "stateMutability": "view",
      "type": "function"
    },
    {
      "inputs": [
        {
          "internalType": "uint256",
          "name": "tokenId",
          "type": "uint256"
        },
        {
          "internalType": "uint256",
          "name": "amount",
          "type": "uint256"
        }
      ],
      "name": "addMana",
      "outputs": [],
      "stateMutability": "nonpayable",
      "type": "function"
    },
    {
      "inputs": [
        {
          "internalType": "uint256",
          "name": "tokenId",
          "type": "uint256"
        },
        {
          "internalType": "uint256",
          "name": "amount",
          "type": "uint256"
        }
      ],
      "name": "addStamina",
      "outputs": [],
      "stateMutability": "nonpayable",
      "type": "function"
    },
    {
      "inputs": [
        {
          "internalType": "uint256",
          "name": "characterTokenId",
          "type": "uint256"
        },
        {
          "internalType": "uint256",
          "name": "strength",
          "type": "uint256"
        },
        {
          "internalType": "uint256",
          "name": "dexterity",
          "type": "uint256"
        },
        {
          "internalType": "uint256",
          "name": "intelligence",
          "type": "uint256"
        },
        {
          "internalType": "uint256",
          "name": "vitality",
          "type": "uint256"
        }
      ],
      "name": "addStats",
      "outputs": [],
      "stateMutability": "nonpayable",
      "type": "function"
    },
    {
      "inputs": [
        {
          "internalType": "address",
          "name": "operator",
          "type": "address"
        },
        {
          "internalType": "uint256",
          "name": "tokenId",
          "type": "uint256"
        }
      ],
      "name": "approve",
      "outputs": [],
      "stateMutability": "nonpayable",
      "type": "function"
    },
    {
      "inputs": [
        {
          "internalType": "address",
          "name": "owner",
          "type": "address"
        }
      ],
      "name": "balanceOf",
      "outputs": [
        {
          "internalType": "uint256",
          "name": "",
          "type": "uint256"
        }
      ],
      "stateMutability": "view",
      "type": "function"
    },
    {
      "inputs": [
        {
          "internalType": "address",
          "name": "_to",
          "type": "address"
        },
        {
          "internalType": "uint256",
          "name": "_quantity",
          "type": "uint256"
        },
        {
          "internalType": "string",
          "name": "_baseURI",
          "type": "string"
        },
        {
          "internalType": "bytes",
          "name": "_data",
          "type": "bytes"
        }
      ],
      "name": "batchMintTo",
      "outputs": [],
      "stateMutability": "nonpayable",
      "type": "function"
    },
    {
      "inputs": [],
      "name": "battleItems",
      "outputs": [
        {
          "internalType": "contract IBattleItems",
          "name": "",
          "type": "address"
        }
      ],
      "stateMutability": "view",
      "type": "function"
    },
    {
      "inputs": [],
      "name": "battleSkills",
      "outputs": [
        {
          "internalType": "contract IBattleSkills",
          "name": "",
          "type": "address"
        }
      ],
      "stateMutability": "view",
      "type": "function"
    },
    {
      "inputs": [
        {
          "internalType": "uint256",
          "name": "_tokenId",
          "type": "uint256"
        }
      ],
      "name": "burn",
      "outputs": [],
      "stateMutability": "nonpayable",
      "type": "function"
    },
    {
      "inputs": [
        {
          "internalType": "uint256",
          "name": "",
          "type": "uint256"
        }
      ],
      "name": "charStats",
      "outputs": [
        {
          "internalType": "uint256",
          "name": "tokenId",
          "type": "uint256"
        },
        {
          "internalType": "uint256",
          "name": "level",
          "type": "uint256"
        },
        {
          "internalType": "uint256",
          "name": "experience",
          "type": "uint256"
        },
        {
          "internalType": "uint256",
          "name": "health",
          "type": "uint256"
        },
        {
          "internalType": "uint256",
          "name": "mana",
          "type": "uint256"
        },
        {
          "internalType": "uint256",
          "name": "attack",
          "type": "uint256"
        },
        {
          "internalType": "uint256",
          "name": "defense",
          "type": "uint256"
        },
        {
          "internalType": "uint256",
          "name": "strength",
          "type": "uint256"
        },
        {
          "internalType": "uint256",
          "name": "dexterity",
          "type": "uint256"
        },
        {
          "internalType": "uint256",
          "name": "intelligence",
          "type": "uint256"
        },
        {
          "internalType": "uint256",
          "name": "vitality",
          "type": "uint256"
        },
        {
          "internalType": "uint256",
          "name": "accuracy",
          "type": "uint256"
        },
        {
          "internalType": "uint256",
          "name": "statPoints",
          "type": "uint256"
        },
        {
          "internalType": "uint256",
          "name": "typeId",
          "type": "uint256"
        }
      ],
      "stateMutability": "view",
      "type": "function"
    },
    {
      "inputs": [
        {
          "internalType": "uint256",
          "name": "",
          "type": "uint256"
        }
      ],
      "name": "charTypes",
      "outputs": [
        {
          "internalType": "uint256",
          "name": "typeId",
          "type": "uint256"
        },
        {
          "internalType": "string",
          "name": "characterType",
          "type": "string"
        },
        {
          "internalType": "string",
          "name": "uri",
          "type": "string"
        }
      ],
      "stateMutability": "view",
      "type": "function"
    },
    {
      "inputs": [],
      "name": "characterClasses",
      "outputs": [
        {
          "internalType": "contract CharacterClass",
          "name": "",
          "type": "address"
        }
      ],
      "stateMutability": "view",
      "type": "function"
    },
    {
      "inputs": [
        {
          "internalType": "uint256",
          "name": "",
          "type": "uint256"
        }
      ],
      "name": "characterEquips",
      "outputs": [
        {
          "internalType": "uint256",
          "name": "equippedClass",
          "type": "uint256"
        }
      ],
      "stateMutability": "view",
      "type": "function"
    },
    {
      "inputs": [
        {
          "internalType": "uint256",
          "name": "",
          "type": "uint256"
        }
      ],
      "name": "characterRecoveryStats",
      "outputs": [
        {
          "internalType": "uint256",
          "name": "stamina",
          "type": "uint256"
        },
        {
          "internalType": "uint256",
          "name": "maxMana",
          "type": "uint256"
        },
        {
          "internalType": "uint256",
          "name": "lastStaminaUpdateTime",
          "type": "uint256"
        },
        {
          "internalType": "uint256",
          "name": "lastManaUpdateTime",
          "type": "uint256"
        }
      ],
      "stateMutability": "view",
      "type": "function"
    },
    {
      "inputs": [
        {
          "internalType": "uint256",
          "name": "",
          "type": "uint256"
        }
      ],
      "name": "characterStats",
      "outputs": [
        {
          "internalType": "uint256",
          "name": "tokenId",
          "type": "uint256"
        },
        {
          "internalType": "uint256",
          "name": "level",
          "type": "uint256"
        },
        {
          "internalType": "uint256",
          "name": "experience",
          "type": "uint256"
        },
        {
          "internalType": "uint256",
          "name": "health",
          "type": "uint256"
        },
        {
          "internalType": "uint256",
          "name": "mana",
          "type": "uint256"
        },
        {
          "internalType": "uint256",
          "name": "attack",
          "type": "uint256"
        },
        {
          "internalType": "uint256",
          "name": "defense",
          "type": "uint256"
        },
        {
          "internalType": "uint256",
          "name": "strength",
          "type": "uint256"
        },
        {
          "internalType": "uint256",
          "name": "dexterity",
          "type": "uint256"
        },
        {
          "internalType": "uint256",
          "name": "intelligence",
          "type": "uint256"
        },
        {
          "internalType": "uint256",
          "name": "vitality",
          "type": "uint256"
        },
        {
          "internalType": "uint256",
          "name": "accuracy",
          "type": "uint256"
        },
        {
          "internalType": "uint256",
          "name": "statPoints",
          "type": "uint256"
        },
        {
          "internalType": "uint256",
          "name": "typeId",
          "type": "uint256"
        }
      ],
      "stateMutability": "view",
      "type": "function"
    },
    {
      "inputs": [],
      "name": "compositeTokens",
      "outputs": [
        {
          "internalType": "contract ICompositeTokens",
          "name": "",
          "type": "address"
        }
      ],
      "stateMutability": "view",
      "type": "function"
    },
    {
      "inputs": [
        {
          "internalType": "uint256",
          "name": "tokenId",
          "type": "uint256"
        },
        {
          "internalType": "uint256",
          "name": "amount",
          "type": "uint256"
        }
      ],
      "name": "consumeMana",
      "outputs": [],
      "stateMutability": "nonpayable",
      "type": "function"
    },
    {
      "inputs": [
        {
          "internalType": "uint256",
          "name": "tokenId",
          "type": "uint256"
        },
        {
          "internalType": "uint256",
          "name": "amount",
          "type": "uint256"
        }
      ],
      "name": "consumeStamina",
      "outputs": [],
      "stateMutability": "nonpayable",
      "type": "function"
    },
    {
      "inputs": [],
      "name": "contractURI",
      "outputs": [
        {
          "internalType": "string",
          "name": "",
          "type": "string"
        }
      ],
      "stateMutability": "view",
      "type": "function"
    },
    {
      "inputs": [
        {
          "internalType": "uint256",
          "name": "characterTokenId",
          "type": "uint256"
        },
        {
          "internalType": "uint256",
          "name": "classId",
          "type": "uint256"
        }
      ],
      "name": "equipClass",
      "outputs": [],
      "stateMutability": "nonpayable",
      "type": "function"
    },
    {
      "inputs": [
        {
          "internalType": "uint256",
          "name": "characterTokenId",
          "type": "uint256"
        },
        {
          "internalType": "uint256",
          "name": "itemId",
          "type": "uint256"
        },
        {
          "internalType": "enum CharData.ItemType",
          "name": "itemType",
          "type": "uint8"
        }
      ],
      "name": "equipItem",
      "outputs": [],
      "stateMutability": "nonpayable",
      "type": "function"
    },
    {
      "inputs": [],
      "name": "equipManagement",
      "outputs": [
        {
          "internalType": "contract IEquipManagement",
          "name": "",
          "type": "address"
        }
      ],
      "stateMutability": "view",
      "type": "function"
    },
    {
      "inputs": [
        {
          "internalType": "uint256",
          "name": "characterTokenId",
          "type": "uint256"
        },
        {
          "internalType": "uint256",
          "name": "skillId",
          "type": "uint256"
        }
      ],
      "name": "equipSkill",
      "outputs": [],
      "stateMutability": "nonpayable",
      "type": "function"
    },
    {
      "inputs": [
        {
          "internalType": "uint256",
          "name": "characterTokenId",
          "type": "uint256"
        },
        {
          "internalType": "uint256",
          "name": "xp",
          "type": "uint256"
        }
      ],
      "name": "gainXP",
      "outputs": [],
      "stateMutability": "nonpayable",
      "type": "function"
    },
    {
      "inputs": [
        {
          "internalType": "uint256",
          "name": "tokenId",
          "type": "uint256"
        }
      ],
      "name": "getApproved",
      "outputs": [
        {
          "internalType": "address",
          "name": "",
          "type": "address"
        }
      ],
      "stateMutability": "view",
      "type": "function"
    },
    {
      "inputs": [],
      "name": "getBaseURICount",
      "outputs": [
        {
          "internalType": "uint256",
          "name": "",
          "type": "uint256"
        }
      ],
      "stateMutability": "view",
      "type": "function"
    },
    {
      "inputs": [
        {
          "internalType": "uint256",
          "name": "_index",
          "type": "uint256"
        }
      ],
      "name": "getBatchIdAtIndex",
      "outputs": [
        {
          "internalType": "uint256",
          "name": "",
          "type": "uint256"
        }
      ],
      "stateMutability": "view",
      "type": "function"
    },
    {
      "inputs": [
        {
          "internalType": "uint256",
          "name": "_tokenId",
          "type": "uint256"
        }
      ],
      "name": "getCharacter",
      "outputs": [
        {
          "components": [
            {
              "internalType": "uint256",
              "name": "tokenId",
              "type": "uint256"
            },
            {
              "internalType": "uint256",
              "name": "level",
              "type": "uint256"
            },
            {
              "internalType": "uint256",
              "name": "experience",
              "type": "uint256"
            },
            {
              "internalType": "uint256",
              "name": "health",
              "type": "uint256"
            },
            {
              "internalType": "uint256",
              "name": "mana",
              "type": "uint256"
            },
            {
              "internalType": "uint256",
              "name": "attack",
              "type": "uint256"
            },
            {
              "internalType": "uint256",
              "name": "defense",
              "type": "uint256"
            },
            {
              "internalType": "uint256",
              "name": "strength",
              "type": "uint256"
            },
            {
              "internalType": "uint256",
              "name": "dexterity",
              "type": "uint256"
            },
            {
              "internalType": "uint256",
              "name": "intelligence",
              "type": "uint256"
            },
            {
              "internalType": "uint256",
              "name": "vitality",
              "type": "uint256"
            },
            {
              "internalType": "uint256",
              "name": "accuracy",
              "type": "uint256"
            },
            {
              "internalType": "uint256",
              "name": "statPoints",
              "type": "uint256"
            },
            {
              "internalType": "uint256",
              "name": "typeId",
              "type": "uint256"
            }
          ],
          "internalType": "struct CharData.CharacterStats",
          "name": "",
          "type": "tuple"
        }
      ],
      "stateMutability": "view",
      "type": "function"
    },
    {
      "inputs": [
        {
          "internalType": "uint256",
          "name": "characterTokenId",
          "type": "uint256"
        },
        {
          "internalType": "enum CharData.ItemType",
          "name": "itemType",
          "type": "uint8"
        }
      ],
      "name": "getCharacterEquippedItem",
      "outputs": [
        {
          "internalType": "uint256",
          "name": "",
          "type": "uint256"
        }
      ],
      "stateMutability": "view",
      "type": "function"
    },
    {
      "inputs": [
        {
          "internalType": "uint256",
          "name": "characterTokenId",
          "type": "uint256"
        }
      ],
      "name": "getCharacterEquippedSkills",
      "outputs": [
        {
          "internalType": "uint256[]",
          "name": "",
          "type": "uint256[]"
        }
      ],
      "stateMutability": "view",
      "type": "function"
    },
    {
      "inputs": [
        {
          "internalType": "uint256",
          "name": "tokenId",
          "type": "uint256"
        }
      ],
      "name": "getCharacterInfo",
      "outputs": [
        {
          "components": [
            {
              "internalType": "uint256",
              "name": "health",
              "type": "uint256"
            },
            {
              "internalType": "uint256",
              "name": "attack",
              "type": "uint256"
            },
            {
              "internalType": "uint256",
              "name": "defense",
              "type": "uint256"
            },
            {
              "internalType": "uint256",
              "name": "mana",
              "type": "uint256"
            },
            {
              "internalType": "uint256",
              "name": "typeId",
              "type": "uint256"
            },
            {
              "internalType": "uint256[]",
              "name": "equippedSkills",
              "type": "uint256[]"
            }
          ],
          "internalType": "struct CharData.CharBattleData",
          "name": "battleData",
          "type": "tuple"
        }
      ],
      "stateMutability": "view",
      "type": "function"
    },
    {
      "inputs": [],
      "name": "getDefaultRoyaltyInfo",
      "outputs": [
        {
          "internalType": "address",
          "name": "",
          "type": "address"
        },
        {
          "internalType": "uint16",
          "name": "",
          "type": "uint16"
        }
      ],
      "stateMutability": "view",
      "type": "function"
    },
    {
      "inputs": [
        {
          "internalType": "uint256",
          "name": "characterTokenId",
          "type": "uint256"
        }
      ],
      "name": "getEquippedClass",
      "outputs": [
        {
          "internalType": "uint256",
          "name": "",
          "type": "uint256"
        }
      ],
      "stateMutability": "view",
      "type": "function"
    },
    {
      "inputs": [
        {
          "internalType": "uint256",
          "name": "tokenId",
          "type": "uint256"
        }
      ],
      "name": "getMana",
      "outputs": [
        {
          "internalType": "uint256",
          "name": "",
          "type": "uint256"
        }
      ],
      "stateMutability": "view",
      "type": "function"
    },
    {
      "inputs": [
        {
          "internalType": "uint256",
          "name": "tokenId",
          "type": "uint256"
        }
      ],
      "name": "getRecoveryStats",
      "outputs": [
        {
          "components": [
            {
              "internalType": "uint256",
              "name": "stamina",
              "type": "uint256"
            },
            {
              "internalType": "uint256",
              "name": "maxMana",
              "type": "uint256"
            },
            {
              "internalType": "uint256",
              "name": "lastStaminaUpdateTime",
              "type": "uint256"
            },
            {
              "internalType": "uint256",
              "name": "lastManaUpdateTime",
              "type": "uint256"
            }
          ],
          "internalType": "struct CharData.RecoveryStats",
          "name": "",
          "type": "tuple"
        }
      ],
      "stateMutability": "view",
      "type": "function"
    },
    {
      "inputs": [
        {
          "internalType": "uint256",
          "name": "_tokenId",
          "type": "uint256"
        }
      ],
      "name": "getRoyaltyInfoForToken",
      "outputs": [
        {
          "internalType": "address",
          "name": "",
          "type": "address"
        },
        {
          "internalType": "uint16",
          "name": "",
          "type": "uint16"
        }
      ],
      "stateMutability": "view",
      "type": "function"
    },
    {
      "inputs": [
        {
          "internalType": "uint256",
          "name": "tokenId",
          "type": "uint256"
        }
      ],
      "name": "getStamina",
      "outputs": [
        {
          "internalType": "uint256",
          "name": "",
          "type": "uint256"
        }
      ],
      "stateMutability": "view",
      "type": "function"
    },
    {
      "inputs": [
        {
          "internalType": "address",
          "name": "owner",
          "type": "address"
        },
        {
          "internalType": "address",
          "name": "operator",
          "type": "address"
        }
      ],
      "name": "isApprovedForAll",
      "outputs": [
        {
          "internalType": "bool",
          "name": "",
          "type": "bool"
        }
      ],
      "stateMutability": "view",
      "type": "function"
    },
    {
      "inputs": [
        {
          "internalType": "address",
          "name": "_operator",
          "type": "address"
        },
        {
          "internalType": "uint256",
          "name": "_tokenId",
          "type": "uint256"
        }
      ],
      "name": "isApprovedOrOwner",
      "outputs": [
        {
          "internalType": "bool",
          "name": "isApprovedOrOwnerOf",
          "type": "bool"
        }
      ],
      "stateMutability": "view",
      "type": "function"
    },
    {
      "inputs": [
        {
          "internalType": "uint256",
          "name": "_typeId",
          "type": "uint256"
        },
        {
          "internalType": "uint256",
          "name": "_skillTokenId",
          "type": "uint256"
        }
      ],
      "name": "mintNewCharacterWithItemAndEquip",
      "outputs": [],
      "stateMutability": "nonpayable",
      "type": "function"
    },
    {
      "inputs": [
        {
          "internalType": "address",
          "name": "_to",
          "type": "address"
        },
        {
          "internalType": "string",
          "name": "_tokenURI",
          "type": "string"
        }
      ],
      "name": "mintTo",
      "outputs": [],
      "stateMutability": "nonpayable",
      "type": "function"
    },
    {
      "inputs": [
        {
          "internalType": "bytes[]",
          "name": "data",
          "type": "bytes[]"
        }
      ],
      "name": "multicall",
      "outputs": [
        {
          "internalType": "bytes[]",
          "name": "results",
          "type": "bytes[]"
        }
      ],
      "stateMutability": "nonpayable",
      "type": "function"
    },
    {
      "inputs": [],
      "name": "name",
      "outputs": [
        {
          "internalType": "string",
          "name": "",
          "type": "string"
        }
      ],
      "stateMutability": "view",
      "type": "function"
    },
    {
      "inputs": [
        {
          "internalType": "uint256",
          "name": "_typeId",
          "type": "uint256"
        }
      ],
      "name": "newCharacter",
      "outputs": [],
      "stateMutability": "nonpayable",
      "type": "function"
    },
    {
      "inputs": [],
      "name": "nextTokenIdToMint",
      "outputs": [
        {
          "internalType": "uint256",
          "name": "",
          "type": "uint256"
        }
      ],
      "stateMutability": "view",
      "type": "function"
    },
    {
      "inputs": [],
      "name": "numCharacters",
      "outputs": [
        {
          "internalType": "uint256",
          "name": "",
          "type": "uint256"
        }
      ],
      "stateMutability": "view",
      "type": "function"
    },
    {
      "inputs": [
        {
          "internalType": "address",
          "name": "",
          "type": "address"
        },
        {
          "internalType": "address",
          "name": "",
          "type": "address"
        },
        {
          "internalType": "uint256[]",
          "name": "",
          "type": "uint256[]"
        },
        {
          "internalType": "uint256[]",
          "name": "",
          "type": "uint256[]"
        },
        {
          "internalType": "bytes",
          "name": "",
          "type": "bytes"
        }
      ],
      "name": "onERC1155BatchReceived",
      "outputs": [
        {
          "internalType": "bytes4",
          "name": "",
          "type": "bytes4"
        }
      ],
      "stateMutability": "nonpayable",
      "type": "function"
    },
    {
      "inputs": [
        {
          "internalType": "address",
          "name": "",
          "type": "address"
        },
        {
          "internalType": "address",
          "name": "",
          "type": "address"
        },
        {
          "internalType": "uint256",
          "name": "",
          "type": "uint256"
        },
        {
          "internalType": "uint256",
          "name": "",
          "type": "uint256"
        },
        {
          "internalType": "bytes",
          "name": "",
          "type": "bytes"
        }
      ],
      "name": "onERC1155Received",
      "outputs": [
        {
          "internalType": "bytes4",
          "name": "",
          "type": "bytes4"
        }
      ],
      "stateMutability": "nonpayable",
      "type": "function"
    },
    {
      "inputs": [],
      "name": "operatorRestriction",
      "outputs": [
        {
          "internalType": "bool",
          "name": "",
          "type": "bool"
        }
      ],
      "stateMutability": "view",
      "type": "function"
    },
    {
      "inputs": [],
      "name": "owner",
      "outputs": [
        {
          "internalType": "address",
          "name": "",
          "type": "address"
        }
      ],
      "stateMutability": "view",
      "type": "function"
    },
    {
      "inputs": [
        {
          "internalType": "uint256",
          "name": "tokenId",
          "type": "uint256"
        }
      ],
      "name": "ownerOf",
      "outputs": [
        {
          "internalType": "address",
          "name": "",
          "type": "address"
        }
      ],
      "stateMutability": "view",
      "type": "function"
    },
    {
      "inputs": [
        {
          "internalType": "uint256",
          "name": "tokenId",
          "type": "uint256"
        }
      ],
      "name": "restoreManaToFull",
      "outputs": [],
      "stateMutability": "nonpayable",
      "type": "function"
    },
    {
      "inputs": [
        {
          "internalType": "uint256",
          "name": "tokenId",
          "type": "uint256"
        }
      ],
      "name": "restoreStaminaToFull",
      "outputs": [],
      "stateMutability": "nonpayable",
      "type": "function"
    },
    {
      "inputs": [
        {
          "internalType": "uint256",
          "name": "tokenId",
          "type": "uint256"
        },
        {
          "internalType": "uint256",
          "name": "salePrice",
          "type": "uint256"
        }
      ],
      "name": "royaltyInfo",
      "outputs": [
        {
          "internalType": "address",
          "name": "receiver",
          "type": "address"
        },
        {
          "internalType": "uint256",
          "name": "royaltyAmount",
          "type": "uint256"
        }
      ],
      "stateMutability": "view",
      "type": "function"
    },
    {
      "inputs": [
        {
          "internalType": "address",
          "name": "from",
          "type": "address"
        },
        {
          "internalType": "address",
          "name": "to",
          "type": "address"
        },
        {
          "internalType": "uint256",
          "name": "tokenId",
          "type": "uint256"
        }
      ],
      "name": "safeTransferFrom",
      "outputs": [],
      "stateMutability": "nonpayable",
      "type": "function"
    },
    {
      "inputs": [
        {
          "internalType": "address",
          "name": "from",
          "type": "address"
        },
        {
          "internalType": "address",
          "name": "to",
          "type": "address"
        },
        {
          "internalType": "uint256",
          "name": "tokenId",
          "type": "uint256"
        },
        {
          "internalType": "bytes",
          "name": "data",
          "type": "bytes"
        }
      ],
      "name": "safeTransferFrom",
      "outputs": [],
      "stateMutability": "nonpayable",
      "type": "function"
    },
    {
      "inputs": [
        {
          "internalType": "address",
          "name": "operator",
          "type": "address"
        },
        {
          "internalType": "bool",
          "name": "approved",
          "type": "bool"
        }
      ],
      "name": "setApprovalForAll",
      "outputs": [],
      "stateMutability": "nonpayable",
      "type": "function"
    },
    {
      "inputs": [
        {
          "internalType": "address",
          "name": "_address",
          "type": "address"
        }
      ],
      "name": "setBattleContract",
      "outputs": [],
      "stateMutability": "nonpayable",
      "type": "function"
    },
    {
      "inputs": [
        {
          "internalType": "address",
          "name": "_address",
          "type": "address"
        }
      ],
      "name": "setBattleItems",
      "outputs": [],
      "stateMutability": "nonpayable",
      "type": "function"
    },
    {
      "inputs": [
        {
          "internalType": "address",
          "name": "_address",
          "type": "address"
        }
      ],
      "name": "setBattleSkills",
      "outputs": [],
      "stateMutability": "nonpayable",
      "type": "function"
    },
    {
      "inputs": [
        {
          "internalType": "address",
          "name": "_address",
          "type": "address"
        }
      ],
      "name": "setClassContract",
      "outputs": [],
      "stateMutability": "nonpayable",
      "type": "function"
    },
    {
      "inputs": [
        {
          "internalType": "address",
          "name": "_address",
          "type": "address"
        }
      ],
      "name": "setCompositeTokens",
      "outputs": [],
      "stateMutability": "nonpayable",
      "type": "function"
    },
    {
      "inputs": [
        {
          "internalType": "string",
          "name": "_uri",
          "type": "string"
        }
      ],
      "name": "setContractURI",
      "outputs": [],
      "stateMutability": "nonpayable",
      "type": "function"
    },
    {
      "inputs": [
        {
          "internalType": "address",
          "name": "_royaltyRecipient",
          "type": "address"
        },
        {
          "internalType": "uint256",
          "name": "_royaltyBps",
          "type": "uint256"
        }
      ],
      "name": "setDefaultRoyaltyInfo",
      "outputs": [],
      "stateMutability": "nonpayable",
      "type": "function"
    },
    {
      "inputs": [
        {
          "internalType": "address",
          "name": "_equipManagementAddress",
          "type": "address"
        }
      ],
      "name": "setEquipManagementContract",
      "outputs": [],
      "stateMutability": "nonpayable",
      "type": "function"
    },
    {
      "inputs": [
        {
          "internalType": "bool",
          "name": "_restriction",
          "type": "bool"
        }
      ],
      "name": "setOperatorRestriction",
      "outputs": [],
      "stateMutability": "nonpayable",
      "type": "function"
    },
    {
      "inputs": [
        {
          "internalType": "address",
          "name": "_newOwner",
          "type": "address"
        }
      ],
      "name": "setOwner",
      "outputs": [],
      "stateMutability": "nonpayable",
      "type": "function"
    },
    {
      "inputs": [
        {
          "internalType": "uint256",
          "name": "_tokenId",
          "type": "uint256"
        },
        {
          "internalType": "address",
          "name": "_recipient",
          "type": "address"
        },
        {
          "internalType": "uint256",
          "name": "_bps",
          "type": "uint256"
        }
      ],
      "name": "setRoyaltyInfoForToken",
      "outputs": [],
      "stateMutability": "nonpayable",
      "type": "function"
    },
    {
      "inputs": [
        {
          "internalType": "bytes4",
          "name": "interfaceId",
          "type": "bytes4"
        }
      ],
      "name": "supportsInterface",
      "outputs": [
        {
          "internalType": "bool",
          "name": "",
          "type": "bool"
        }
      ],
      "stateMutability": "view",
      "type": "function"
    },
    {
      "inputs": [],
      "name": "symbol",
      "outputs": [
        {
          "internalType": "string",
          "name": "",
          "type": "string"
        }
      ],
      "stateMutability": "view",
      "type": "function"
    },
    {
      "inputs": [
        {
          "internalType": "uint256",
          "name": "_tokenId",
          "type": "uint256"
        }
      ],
      "name": "tokenURI",
      "outputs": [
        {
          "internalType": "string",
          "name": "",
          "type": "string"
        }
      ],
      "stateMutability": "view",
      "type": "function"
    },
    {
      "inputs": [],
      "name": "totalSupply",
      "outputs": [
        {
          "internalType": "uint256",
          "name": "",
          "type": "uint256"
        }
      ],
      "stateMutability": "view",
      "type": "function"
    },
    {
      "inputs": [
        {
          "internalType": "address",
          "name": "from",
          "type": "address"
        },
        {
          "internalType": "address",
          "name": "to",
          "type": "address"
        },
        {
          "internalType": "uint256",
          "name": "tokenId",
          "type": "uint256"
        }
      ],
      "name": "transferFrom",
      "outputs": [],
      "stateMutability": "nonpayable",
      "type": "function"
    },
    {
      "inputs": [
        {
          "internalType": "uint256",
          "name": "characterTokenId",
          "type": "uint256"
        }
      ],
      "name": "unequipClass",
      "outputs": [],
      "stateMutability": "nonpayable",
      "type": "function"
    },
    {
      "inputs": [
        {
          "internalType": "uint256",
          "name": "characterTokenId",
          "type": "uint256"
        },
        {
          "internalType": "enum CharData.ItemType",
          "name": "itemType",
          "type": "uint8"
        }
      ],
      "name": "unequipItem",
      "outputs": [],
      "stateMutability": "nonpayable",
      "type": "function"
    },
    {
      "inputs": [
        {
          "internalType": "uint256",
          "name": "characterTokenId",
          "type": "uint256"
        },
        {
          "internalType": "uint256",
          "name": "skillId",
          "type": "uint256"
        }
      ],
      "name": "unequipSkill",
      "outputs": [],
      "stateMutability": "nonpayable",
      "type": "function"
    },
    {
      "inputs": [
        {
          "internalType": "uint256",
          "name": "_tokenId",
          "type": "uint256"
        },
        {
          "internalType": "string",
          "name": "_tokenURI",
          "type": "string"
        }
      ],
      "name": "updateURI",
      "outputs": [],
      "stateMutability": "nonpayable",
      "type": "function"
    }
  ],
  "bytecode": "0x6080604052600060145560646017553480156200001b57600080fd5b50336040518060400160405280600981526020016821b430b930b1ba32b960b91b8152506040518060400160405280600481526020016310d3919560e21b815250336000733cc6cdda760b79bafa08df41ecfa224f810dceb6600185858160029081620000899190620009a2565b506003620000988282620009a2565b506000805550506daaeb6d7670e522a718067333cd4e3b15620001e45780156200013257604051633e9f1edf60e11b81523060048201526001600160a01b03831660248201526daaeb6d7670e522a718067333cd4e90637d3e3dbe906044015b600060405180830381600087803b1580156200011357600080fd5b505af115801562000128573d6000803e3d6000fd5b50505050620001e4565b6001600160a01b03821615620001835760405163a0af290360e01b81523060048201526001600160a01b03831660248201526daaeb6d7670e522a718067333cd4e9063a0af290390604401620000f8565b604051632210724360e11b81523060048201526daaeb6d7670e522a718067333cd4e90634420e48690602401600060405180830381600087803b158015620001ca57600080fd5b505af1158015620001df573d6000803e3d6000fd5b505050505b50620001f2905033620005cb565b62000207826001600160801b0383166200061d565b620002136001620006c8565b5050601080546001600160a01b0319166001600160a01b03851617905550620005ba90506015604051806101c001604052806000815260200160018152602001600081526020016064815260200160648152602001600a815260200160648152602001606481526020016064815260200160648152602001606481526020016064815260200160058152602001600081525090806001815401808255809150506001900390600052602060002090600e0201600090919091909150600082015181600001556020820151816001015560408201518160020155606082015181600301556080820151816004015560a0820151816005015560c0820151816006015560e082015181600701556101008201518160080155610120820151816009015561014082015181600a015561016082015181600b015561018082015181600c01556101a082015181600d015550506015604051806101c001604052806000815260200160018152602001600081526020016064815260200160648152602001600a815260200160648152602001606481526020016064815260200160648152602001606481526020016064815260200160058152602001600181525090806001815401808255809150506001900390600052602060002090600e0201600090919091909150600082015181600001556020820151816001015560408201518160020155606082015181600301556080820151816004015560a0820151816005015560c0820151816006015560e082015181600701556101008201518160080155610120820151816009015561014082015181600a015561016082015181600b015561018082015181600c01556101a082015181600d015550506015604051806101c0016040528060008152602001600181526020016000815260200160648152602001606481526020016064815260200160648152602001606481526020016064815260200160648152602001606481526020016064815260200160058152602001600281525090806001815401808255809150506001900390600052602060002090600e0201600090919091909150600082015181600001556020820151816001015560408201518160020155606082015181600301556080820151816004015560a0820151816005015560c0820151816006015560e082015181600701556101008201518160080155610120820151816009015561014082015181600a015561016082015181600b015561018082015181600c01556101a082015181600d01555050565b620005c46200070f565b5062000a6e565b600980546001600160a01b038381166001600160a01b0319831681179093556040519116919082907f8292fce18fa69edf4db7b94ea2e58241df0ae57f97e0a6c9b29067028bf92d7690600090a35050565b612710811115620006665760405162461bcd60e51b815260206004820152600f60248201526e45786365656473206d61782062707360881b604482015260640160405180910390fd5b600a80546001600160a01b0384166001600160b01b03199091168117600160a01b61ffff851602179091556040518281527f90d7ec04bcb8978719414f82e52e4cb651db41d0e6f8cea6118c2191e6183adb9060200160405180910390a25050565b600e805460ff19168215159081179091556040519081527f38475885990d8dfe9ca01f0ef160a1b5514426eab9ddbc953a3353410ba780969060200160405180910390a150565b6016604051806060016040528060008152602001604051806040016040528060078152602001662bb0b93934b7b960c91b815250815260200160405180606001604052806035815260200162006150603591399052815460018181018455600093845260209384902083516003909302019182559282015191929091908201906200079b9082620009a2565b5060408201516002820190620007b29082620009a2565b5050506016604051806060016040528060018152602001604051806040016040528060048152602001634d61676560e01b8152508152602001604051806060016040528060358152602001620061ba603591399052815460018181018455600093845260209384902083516003909302019182559282015191929091908201906200083e9082620009a2565b5060408201516002820190620008559082620009a2565b505050601660405180606001604052806002815260200160405180604001604052806005815260200164526f67756560d81b81525081526020016040518060600160405280603581526020016200618560359139905281546001818101845560009384526020938490208351600390930201918255928201519192909190820190620008e29082620009a2565b5060408201516002820190620008f99082620009a2565b505050565b634e487b7160e01b600052604160045260246000fd5b600181811c908216806200092957607f821691505b6020821081036200094a57634e487b7160e01b600052602260045260246000fd5b50919050565b601f821115620008f957600081815260208120601f850160051c81016020861015620009795750805b601f850160051c820191505b818110156200099a5782815560010162000985565b505050505050565b81516001600160401b03811115620009be57620009be620008fe565b620009d681620009cf845462000914565b8462000950565b602080601f83116001811462000a0e5760008415620009f55750858301515b600019600386901b1c1916600185901b1785556200099a565b600085815260208120601f198616915b8281101562000a3f5788860151825594840194600190910190840162000a1e565b508582101562000a5e5787850151600019600388901b60f8161c191681555b5050505050600190811b01905550565b6156d28062000a7e6000396000f3fe608060405234801561001057600080fd5b50600436106104695760003560e01c80636a0558a61161024c578063ac9650d811610146578063e2abdd52116100c3578063e8a3d48511610087578063e8a3d48514610c8f578063e985e9c514610c97578063f1be42f114610cd3578063f23a6e6114610cdc578063fe80c55d14610cfb57600080fd5b8063e2abdd5214610c30578063e2cb9a8414610c43578063e4c301eb14610c56578063e5f69e4114610c69578063e622563014610c7c57600080fd5b8063bcb7ea081161010a578063bcb7ea0814610b33578063c87b56dd14610b46578063d2e4c18914610b59578063d5937dae14610b6c578063dabb053114610b7f57600080fd5b8063ac9650d814610a64578063b24f2d3914610a84578063b88d4fde14610aa2578063bc197c8114610ab5578063bc51181614610aed57600080fd5b80638da5cb5b116101d45780639bcf7a15116101985780639bcf7a15146109f85780639c7e334c14610a0b5780639d9ea9f314610a1e578063a22cb46514610a3e578063a4b9943214610a5157600080fd5b80638da5cb5b146109a6578063938e3d7b146109b7578063954643ca146109ca57806395d89b41146109dd57806399898a7a146109e557600080fd5b8063739420a51161021b578063739420a514610947578063744e94aa1461095a578063754a81d91461096d57806381648e7014610980578063835576ed1461099357600080fd5b80636a0558a6146108fb5780636b87a4851461090e5780636ffd17d41461092157806370a082311461093457600080fd5b806332f0cd641161036857806345d5007e116102e55780635ada8456116102a95780635ada8456146108985780635cec1549146108ab578063600dd5ea146108cd5780636352211e146108e057806363b45e2d146108f357600080fd5b806345d5007e1461081d5780634cc157df14610830578063504c6e011461086557806355483d45146108725780635a5ffb2e1461088557600080fd5b806341463be11161032c57806341463be1146107ac57806341f43434146107cf57806342842e0e146107e457806342966c68146107f7578063430c20811461080a57600080fd5b806332f0cd64146106f15780633468f9cd146107045780633477979e14610717578063366e6fdb1461072a5780633b1475a7146107a457600080fd5b80630db6dff7116103f65780632401c739116103ba5780632401c739146106635780632419f51b146106865780632a55205a146106995780632c120156146106cb57806331d41c69146106de57600080fd5b80630db6dff71461059957806313af4035146105ac57806315d57827146105bf57806318160ddd1461063a57806323b872dd1461065057600080fd5b80630846ad481161043d5780630846ad48146104eb57806308ec6c3c14610540578063095ea7b3146105535780630d830190146105665780630db0de521461058657600080fd5b806275a3171461046e57806301ffc9a71461048357806306fdde03146104ab578063081812fc146104c0575b600080fd5b61048161047c366004614991565b610d0e565b005b6104966104913660046149f4565b610d92565b60405190151581526020015b60405180910390f35b6104b3610db2565b6040516104a29190614a61565b6104d36104ce366004614a74565b610e44565b6040516001600160a01b0390911681526020016104a2565b6105206104f9366004614a74565b60126020526000908152604090208054600182015460028301546003909301549192909184565b6040805194855260208501939093529183015260608201526080016104a2565b61048161054e366004614a8d565b610e88565b610481610561366004614aa8565b610ed4565b610579610574366004614a74565b610eed565b6040516104a29190614ad2565b610481610594366004614a8d565b610fd6565b6104816105a7366004614a8d565b611022565b6104816105ba366004614a8d565b61106e565b6105d26105cd366004614a74565b61109e565b604080519e8f5260208f019d909d529b8d019a909a5260608c019890985260808b019690965260a08a019490945260c089019290925260e08801526101008701526101208601526101408501526101608401526101808301526101a08201526101c0016104a2565b600154600054035b6040519081526020016104a2565b61048161065e366004614b57565b61111a565b610642610671366004614a74565b60009081526013602052604090206002015490565b610642610694366004614a74565b611145565b6106ac6106a7366004614b93565b6111b3565b604080516001600160a01b0390931683526020830191909152016104a2565b6104816106d9366004614b93565b6111f0565b6104816106ec366004614bb5565b61125d565b6104816106ff366004614bf3565b611291565b610481610712366004614a74565b611302565b610481610725366004614a74565b61134b565b6105d2610738366004614a74565b601160205280600052604060002060009150905080600001549080600101549080600201549080600301549080600401549080600501549080600601549080600701549080600801549080600901549080600a01549080600b01549080600c01549080600d015490508e565b600054610642565b6106426107ba366004614a74565b60136020526000908152604090206002015481565b6104d36daaeb6d7670e522a718067333cd4e81565b6104816107f2366004614b57565b611390565b610481610805366004614a74565b6113b5565b610496610818366004614aa8565b6113c0565b61048161082b366004614b93565b61143f565b61084361083e366004614a74565b61153a565b604080516001600160a01b03909316835261ffff9091166020830152016104a2565b600e546104969060ff1681565b601b546104d3906001600160a01b031681565b610481610893366004614b93565b6115a5565b6104816108a6366004614b93565b61163b565b6108be6108b9366004614a74565b611723565b6040516104a293929190614c10565b6104816108db366004614aa8565b611869565b6104d36108ee366004614a74565b611897565b600c54610642565b610481610909366004614b93565b6118a9565b61048161091c366004614a8d565b611995565b601c546104d3906001600160a01b031681565b610642610942366004614a8d565b611b7c565b610481610955366004614b93565b611bca565b610642610968366004614a74565b611ca1565b61048161097b366004614c3b565b611d1e565b61048161098e366004614a8d565b611d8c565b6104816109a1366004614a74565b611dd8565b6009546001600160a01b03166104d3565b6104816109c5366004614cb8565b61200e565b601a546104d3906001600160a01b031681565b6104b361203b565b601e546104d3906001600160a01b031681565b610481610a06366004614cec565b61204a565b610481610a19366004614d11565b612079565b610a31610a2c366004614a74565b612183565b6040516104a29190614d4c565b610481610a4c366004614d90565b6121e5565b610642610a5f366004614dd4565b6121f9565b610a77610a72366004614df9565b612245565b6040516104a29190614e6d565b600a546001600160a01b03811690600160a01b900461ffff16610843565b610481610ab0366004614ecf565b612339565b610ad4610ac3366004614fa9565b63bc197c8160e01b95945050505050565b6040516001600160e01b031990911681526020016104a2565b610b00610afb366004614a74565b61235f565b6040516104a291908151815260208083015190820152604080830151908201526060918201519181019190915260800190565b610481610b41366004614b93565b612424565b6104b3610b54366004614a74565b612471565b610481610b67366004614a74565b61255f565b610481610b7a366004614a8d565b61268e565b610b92610b8d366004614a74565b6126da565b6040516104a29190815181526020808301519082015260408083015190820152606080830151908201526080808301519082015260a0808301519082015260c0808301519082015260e08083015190820152610100808301519082015261012080830151908201526101408083015190820152610160808301519082015261018080830151908201526101a091820151918101919091526101c00190565b610481610c3e366004615052565b6127fc565b601d546104d3906001600160a01b031681565b610481610c64366004614b93565b612970565b610481610c77366004614b93565b612ab5565b610642610c8a366004614a74565b612e5f565b6104b3612ec7565b610496610ca536600461508b565b6001600160a01b03918216600090815260076020908152604080832093909416825291909152205460ff1690565b61064260145481565b610ad4610cea3660046150be565b63f23a6e6160e01b95945050505050565b610481610d09366004614dd4565b612f55565b610d166130dc565b610d615760405162461bcd60e51b81526020600482015260176024820152762737ba1030baba3437b934bd32b2103a379036b4b73a1760491b60448201526064015b60405180910390fd5b610d73610d6d60005490565b82613109565b610d8e82600160405180602001604052806000815250613121565b5050565b6000610d9d826132c4565b80610dac5750610dac82613330565b92915050565b606060028054610dc190615122565b80601f0160208091040260200160405190810160405280929190818152602001828054610ded90615122565b8015610e3a5780601f10610e0f57610100808354040283529160200191610e3a565b820191906000526020600020905b815481529060010190602001808311610e1d57829003601f168201915b5050505050905090565b6000610e4f82613355565b610e6c576040516333d1c03960e21b815260040160405180910390fd5b506000908152600660205260409020546001600160a01b031690565b6009546001600160a01b03163314610eb25760405162461bcd60e51b8152600401610d589061515c565b601a80546001600160a01b0319166001600160a01b0392909216919091179055565b81610ede81613380565b610ee88383613444565b505050565b610f266040518060c001604052806000815260200160008152602001600081526020016000815260200160008152602001606081525090565b60008281526011602090815260409182902060038101548452600581015491840191909152600681015491830191909152610f6083611ca1565b6060830152600d810154608083015260008381526013602090815260409182902080548351818402810184019094528084529091830182828015610fc357602002820191906000526020600020905b815481526020019060010190808311610faf575b50505050508260a0018190525050919050565b6009546001600160a01b031633146110005760405162461bcd60e51b8152600401610d589061515c565b601b80546001600160a01b0319166001600160a01b0392909216919091179055565b6009546001600160a01b0316331461104c5760405162461bcd60e51b8152600401610d589061515c565b601880546001600160a01b0319166001600160a01b0392909216919091179055565b6110766130dc565b6110925760405162461bcd60e51b8152600401610d589061515c565b61109b816134c5565b50565b601581815481106110ae57600080fd5b90600052602060002090600e020160009150905080600001549080600101549080600201549080600301549080600401549080600501549080600601549080600701549080600801549080600901549080600a01549080600b01549080600c01549080600d015490508e565b826001600160a01b03811633146111345761113433613380565b61113f848484613517565b50505050565b6000611150600c5490565b821061118e5760405162461bcd60e51b815260206004820152600d60248201526c092dcecc2d8d2c840d2dcc8caf609b1b6044820152606401610d58565b600c82815481106111a1576111a1615184565b90600052602060002001549050919050565b6000806000806111c28661153a565b90945084925061ffff1690506127106111db82876151b0565b6111e591906151dd565b925050509250929050565b6010546001600160a01b0316331461121a5760405162461bcd60e51b8152600401610d589061515c565b60008281526012602052604081209061123284612e5f565b9050600061124084836151f1565b9050606481111561124f575060645b825550426002909101555050565b6009546001600160a01b031633146112875760405162461bcd60e51b8152600401610d589061515c565b610d8e8282613109565b6112996130dc565b6112f95760405162461bcd60e51b815260206004820152602b60248201527f4e6f7420617574686f72697a656420746f20736574206f70657261746f72207260448201526a32b9ba3934b1ba34b7b71760a91b6064820152608401610d58565b61109b81613522565b6010546001600160a01b0316331461132c5760405162461bcd60e51b8152600401610d589061515c565b6000908152601260209081526040909120601190915242600390910155565b6010546001600160a01b031633146113755760405162461bcd60e51b8152600401610d589061515c565b60009081526012602052604090206064815542600290910155565b826001600160a01b03811633146113aa576113aa33613380565b61113f848484613569565b61109b816001613584565b6000806113cc83611897565b9050806001600160a01b0316846001600160a01b0316148061141357506001600160a01b0380821660009081526007602090815260408083209388168352929052205460ff165b806114375750836001600160a01b031661142c84610e44565b6001600160a01b0316145b949350505050565b6018546001600160a01b031633146114695760405162461bcd60e51b8152600401610d5890615204565b600082815260126020908152604080832060119092529182902091516330c6919360e01b815260048101829052602481018390526044810184905290919073__$500a10fa9d461fc90c8a058ae925f037b6$__906330c691939060640160006040518083038186803b1580156114de57600080fd5b505af41580156114f2573d6000803e3d6000fd5b50505050837f745e4898b29226a973c2265f8722cf0a83c357f03c529c0e14c4e91d61cffbb5826004015460405161152c91815260200190565b60405180910390a250505050565b6000818152600b60209081526040808320815180830190925280546001600160a01b031680835260019091015492820192909252829115611581578051602082015161159b565b600a546001600160a01b03811690600160a01b900461ffff165b9250925050915091565b6010546001600160a01b031633146115cf5760405162461bcd60e51b8152600401610d589061515c565b600082815260126020908152604080832060119092529091206115f3818385613737565b837f745e4898b29226a973c2265f8722cf0a83c357f03c529c0e14c4e91d61cffbb5601160008781526020019081526020016000206004015460405161152c91815260200190565b61164482611dd8565b601c5460405163bfa0fedb60e01b8152600481018390523360248201526001600160a01b039091169063bfa0fedb90604401600060405180830381600087803b15801561169057600080fd5b505af11580156116a4573d6000803e3d6000fd5b5050601e546014546001600160a01b03909116925063426a099591506116cc90600190615245565b8360016040518463ffffffff1660e01b81526004016116ed9392919061526e565b600060405180830381600087803b15801561170757600080fd5b505af115801561171b573d6000803e3d6000fd5b505050505050565b6016818154811061173357600080fd5b6000918252602090912060039091020180546001820180549193509061175890615122565b80601f016020809104026020016040519081016040528092919081815260200182805461178490615122565b80156117d15780601f106117a6576101008083540402835291602001916117d1565b820191906000526020600020905b8154815290600101906020018083116117b457829003601f168201915b5050505050908060020180546117e690615122565b80601f016020809104026020016040519081016040528092919081815260200182805461181290615122565b801561185f5780601f106118345761010080835404028352916020019161185f565b820191906000526020600020905b81548152906001019060200180831161184257829003601f168201915b5050505050905083565b6118716130dc565b61188d5760405162461bcd60e51b8152600401610d589061515c565b610d8e8282613778565b60006118a28261381f565b5192915050565b6018546001600160a01b031633146118d35760405162461bcd60e51b8152600401610d5890615204565b60008281526011602052604090819020601754915162336f0b60e01b8152600481018290526024810184905260448101929092529073__$500a10fa9d461fc90c8a058ae925f037b6$__9062336f0b9060640160006040518083038186803b15801561193e57600080fd5b505af4158015611952573d6000803e3d6000fd5b50505050827f9a64fe26f5c4acf69f9833056562e90ac966327ef9edc96700beab568bbdac168360405161198891815260200190565b60405180910390a2505050565b6009546001600160a01b031633146119bf5760405162461bcd60e51b8152600401610d589061515c565b601e546001600160a01b031615611a305760405162461bcd60e51b815260206004820152602f60248201527f45717569704d616e6167656d656e7420636f6e7472616374206164647265737360448201526e081a5cc8185b1c9958591e481cd95d608a1b6064820152608401610d58565b601e80546001600160a01b0319166001600160a01b03838116918217909255601c5460405163a22cb46560e01b81526004810192909252600160248301529091169063a22cb46590604401600060405180830381600087803b158015611a9557600080fd5b505af1158015611aa9573d6000803e3d6000fd5b5050601b5460405163a22cb46560e01b81526001600160a01b03858116600483015260016024830152909116925063a22cb4659150604401600060405180830381600087803b158015611afb57600080fd5b505af1158015611b0f573d6000803e3d6000fd5b5050601d5460405163a22cb46560e01b81526001600160a01b03858116600483015260016024830152909116925063a22cb4659150604401600060405180830381600087803b158015611b6157600080fd5b505af1158015611b75573d6000803e3d6000fd5b5050505050565b60006001600160a01b038216611ba5576040516323d3ad8160e21b815260040160405180910390fd5b506001600160a01b03166000908152600560205260409020546001600160401b031690565b6018546001600160a01b03163314611bf45760405162461bcd60e51b8152600401610d5890615204565b600082815260126020526040908190209051636f39b13760e11b8152600481018290526024810183905273__$500a10fa9d461fc90c8a058ae925f037b6$__9063de73626e9060440160006040518083038186803b158015611c5557600080fd5b505af4158015611c69573d6000803e3d6000fd5b505082546040519081528592507f54d8968607528ba0a500c8ca37b787bcc514c33b28b43efa81e195ffb88fee519150602001611988565b60008181526012602090815260408083206011909252822060038201548390611cca9042615245565b90506000610708846001015483611ce191906151b0565b611ceb91906151dd565b90506000818460040154611cff91906151f1565b90508460010154811115611d14575060018401545b9695505050505050565b611d266130dc565b611d6c5760405162461bcd60e51b81526020600482015260176024820152762737ba1030baba3437b934bd32b2103a379036b4b73a1760491b6044820152606401610d58565b611d7f611d7860005490565b8484613939565b505061113f848483613121565b6009546001600160a01b03163314611db65760405162461bcd60e51b8152600401610d589061515c565b601d80546001600160a01b0319166001600160a01b0392909216919091179055565b6016548110611e295760405162461bcd60e51b815260206004820152601960248201527f496e76616c6964206368617261637465722074797065204944000000000000006044820152606401610d58565b611e3433600161399d565b611ee960168281548110611e4a57611e4a615184565b90600052602060002090600302016002018054611e6690615122565b80601f0160208091040260200160405190810160405280929190818152602001828054611e9290615122565b8015611edf5780601f10611eb457610100808354040283529160200191611edf565b820191906000526020600020905b815481529060010190602001808311611ec257829003601f168201915b50505050506139b7565b611ef46014546139fa565b611fac60145460168381548110611f0d57611f0d615184565b90600052602060002090600302016002018054611f2990615122565b80601f0160208091040260200160405190810160405280929190818152602001828054611f5590615122565b8015611fa25780601f10611f7757610100808354040283529160200191611fa2565b820191906000526020600020905b815481529060010190602001808311611f8557829003601f168201915b5050505050613109565b60145460405182815233907fd4a95b11484f5e9358b888b250a18a34707faa5c6e49c20dc64315abd077035b9060200160405180910390a3611fed81613a3f565b611ff681613dca565b60148054906000612006836152a8565b919050555050565b6120166130dc565b6120325760405162461bcd60e51b8152600401610d589061515c565b61109b81613e97565b606060038054610dc190615122565b6120526130dc565b61206e5760405162461bcd60e51b8152600401610d589061515c565b610ee8838383613f73565b6010546001600160a01b031633146120a35760405162461bcd60e51b8152600401610d589061515c565b600085815260116020526040908190209051635de6438960e01b8152600481018290526024810186905260448101859052606481018490526084810183905273__$500a10fa9d461fc90c8a058ae925f037b6$__90635de643899060a40160006040518083038186803b15801561211957600080fd5b505af415801561212d573d6000803e3d6000fd5b50506040805188815260208101889052908101869052606081018590528892507f91880eb2655ae83ee3b14d19938b63c2f3077ecf91ef7b3118006e333490ab1f915060800160405180910390a2505050505050565b6000818152601360209081526040918290208054835181840281018401909452808452606093928301828280156121d957602002820191906000526020600020905b8154815260200190600101908083116121c5575b50505050509050919050565b816121ef81613380565b610ee8838361403c565b60008281526013602052604081206001018183600481111561221d5761221d615258565b600481111561222e5761222e615258565b815260200190815260200160002054905092915050565b6060816001600160401b0381111561225f5761225f6148a6565b60405190808252806020026020018201604052801561229257816020015b606081526020019060019003908161227d5790505b50905060005b8281101561233257612302308585848181106122b6576122b6615184565b90506020028101906122c891906152c1565b8080601f0160208091040260200160405190810160405280939291908181526020018383808284376000920191909152506140d192505050565b82828151811061231457612314615184565b6020026020010181905250808061232a906152a8565b915050612298565b5092915050565b836001600160a01b03811633146123535761235333613380565b611b75858585856140fd565b61238a6040518060800160405280600081526020016000815260200160008152602001600081525090565b60008281526012602052604081206002015490036123df5760405162461bcd60e51b8152602060048201526012602482015271151bdad95b881251081b9bdd08199bdd5b9960721b6044820152606401610d58565b50600090815260126020908152604091829020825160808101845281548152600182015492810192909252600281015492820192909252600390910154606082015290565b601e546001600160a01b0316331461244e5760405162461bcd60e51b8152600401610d589061515c565b600091825260136020908152604083208054600181018255908452922090910155565b60008181526019602052604081208054606092919061248f90615122565b80601f01602080910402602001604051908101604052809291908181526020018280546124bb90615122565b80156125085780601f106124dd57610100808354040283529160200191612508565b820191906000526020600020905b8154815290600101906020018083116124eb57829003601f168201915b5050505050905060008151111561251f5792915050565b600061252a84614141565b905080612536856142dd565b60405160200161254792919061530e565b60405160208183030381529060405292505050919050565b3361256982611897565b6001600160a01b0316146125bf5760405162461bcd60e51b815260206004820152601e60248201527f4e6f7420746865206f776e6572206f66207468652063686172616374657200006044820152606401610d58565b600081815260136020526040812060020154908190036126155760405162461bcd60e51b8152602060048201526011602482015270139bc818db185cdcc8195c5d5a5c1c1959607a1b6044820152606401610d58565b604051819083907f7e61635513fe31aafbbe8d9f28e1480aaac99ddecc10839a6fad06f460a8fb1d90600090a360008281526013602052604080822060020191909155601a549051637921219560e11b81526001600160a01b039091169063f242432a906116ed9030903390869060019060040161533d565b6009546001600160a01b031633146126b85760405162461bcd60e51b8152600401610d589061515c565b601c80546001600160a01b0319166001600160a01b0392909216919091179055565b61274c604051806101c0016040528060008152602001600081526020016000815260200160008152602001600081526020016000815260200160008152602001600081526020016000815260200160008152602001600081526020016000815260200160008152602001600081525090565b5060009081526011602090815260409182902082516101c081018452815481526001820154928101929092526002810154928201929092526003820154606082015260048201546080820152600582015460a0820152600682015460c0820152600782015460e082015260088201546101008201526009820154610120820152600a820154610140820152600b820154610160820152600c820154610180820152600d909101546101a082015290565b601e546001600160a01b031633146128265760405162461bcd60e51b8152600401610d589061515c565b60008381526013602090815260408083206011909252808320601b549151633129e77360e01b8152600481018790529293909290916001600160a01b031690633129e77390602401600060405180830381865afa15801561288b573d6000803e3d6000fd5b505050506040513d6000823e601f3d908101601f191682016040526128b39190810190615380565b905080602001518260050160008282546128cd91906151f1565b909155505060408101516006830180546000906128eb9084906151f1565b909155505060608101516003830180546000906129099084906151f1565b909155505060808101516004830180546000906129279084906151f1565b9091555085905060018401600086600481111561294657612946615258565b600481111561295757612957615258565b8152602081019190915260400160002055505050505050565b601e546001600160a01b0316331461299a5760405162461bcd60e51b8152600401610d589061515c565b6000828152601360205260408120805490915b82548110156129f657838360000182815481106129cc576129cc615184565b9060005260206000200154036129e4578091506129f6565b806129ee816152a8565b9150506129ad565b5081548110612a3c5760405162461bcd60e51b815260206004820152601260248201527114dada5b1b081b9bdd08195c5d5a5c1c195960721b6044820152606401610d58565b81548290612a4c90600190615245565b81548110612a5c57612a5c615184565b9060005260206000200154826000018281548110612a7c57612a7c615184565b6000918252602090912001558154829080612a9957612a9961545f565b6001900381819060005260206000200160009055905550505050565b6014548210612b065760405162461bcd60e51b815260206004820152601a60248201527f496e76616c69642063686172616374657220746f6b656e2049440000000000006044820152606401610d58565b33612b1083611897565b6001600160a01b031614612b665760405162461bcd60e51b815260206004820152601e60248201527f4e6f7420746865206f776e6572206f66207468652063686172616374657200006044820152606401610d58565b601a5460405163bd85b03960e01b8152600481018390526000916001600160a01b03169063bd85b03990602401602060405180830381865afa158015612bb0573d6000803e3d6000fd5b505050506040513d601f19601f82011682018060405250810190612bd49190615475565b11612c145760405162461bcd60e51b815260206004820152601060248201526f125b9d985b1a590818db185cdcc8125160821b6044820152606401610d58565b601a54604051627eeac760e11b8152336004820152602481018390526000916001600160a01b03169062fdd58e90604401602060405180830381865afa158015612c62573d6000803e3d6000fd5b505050506040513d601f19601f82011682018060405250810190612c869190615475565b11612cd35760405162461bcd60e51b815260206004820152601a60248201527f4e6f7420746865206f776e6572206f662074686520636c6173730000000000006044820152606401610d58565b600082815260136020526040902060020154819003612d2d5760405162461bcd60e51b815260206004820152601660248201527510db185cdcc8185b1c9958591e48195c5d5a5c1c195960521b6044820152606401610d58565b6000828152601360205260409020600201548015612daf57601a54604051637921219560e11b81526001600160a01b039091169063f242432a90612d7c9030903390869060019060040161533d565b600060405180830381600087803b158015612d9657600080fd5b505af1158015612daa573d6000803e3d6000fd5b505050505b60008381526013602052604090819020600201839055601a549051637921219560e11b81526001600160a01b039091169063f242432a90612dfb9033903090879060019060040161533d565b600060405180830381600087803b158015612e1557600080fd5b505af1158015612e29573d6000803e3d6000fd5b50506040518492508591507f9ec2a1abbc94cda98705c1bcace42186fb5bb291c4f4e5a55afb5dbc174e9ce390600090a3505050565b600081815260126020526040812060028101548290612e7e9042615245565b9050600062015180612e918360646151b0565b612e9b91906151dd565b90506000818460000154612eaf91906151f1565b90506064811115612ebe575060645b95945050505050565b60088054612ed490615122565b80601f0160208091040260200160405190810160405280929190818152602001828054612f0090615122565b8015612f4d5780601f10612f2257610100808354040283529160200191612f4d565b820191906000526020600020905b815481529060010190602001808311612f3057829003601f168201915b505050505081565b601e546001600160a01b03163314612f7f5760405162461bcd60e51b8152600401610d589061515c565b60008281526013602090815260408083206011909252822090916001830181856004811115612fb057612fb0615258565b6004811115612fc157612fc1615258565b815260208101919091526040908101600090812054601b549251633129e77360e01b81526004810182905290935090916001600160a01b031690633129e77390602401600060405180830381865afa158015613021573d6000803e3d6000fd5b505050506040513d6000823e601f3d908101601f191682016040526130499190810190615380565b905080602001518360050160008282546130639190615245565b90915550506040810151600684018054600090613081908490615245565b9091555050606081015160038401805460009061309f908490615245565b909155505060808101516004840180546000906130bd908490615245565b9091555060009050600185018187600481111561294657612946615258565b60006130f06009546001600160a01b031690565b6001600160a01b0316336001600160a01b031614905090565b6000828152601960205260409020610ee882826154d4565b6000546001600160a01b03841661314a57604051622e076360e81b815260040160405180910390fd5b8260000361316b5760405163b562e8dd60e01b815260040160405180910390fd5b6001600160a01b038416600081815260056020908152604080832080546fffffffffffffffffffffffffffffffff1981166001600160401b038083168b0181169182176801000000000000000067ffffffffffffffff1990941690921783900481168b01811690920217909155858452600490925290912080546001600160e01b0319168317600160a01b42909316929092029190911790558190818501903b15613281575b60405182906001600160a01b0388169060009060008051602061567d833981519152908290a461324a60008784806001019550876143dd565b613267576040516368d2bf6b60e11b815260040160405180910390fd5b80821061321157826000541461327c57600080fd5b6132b4565b5b6040516001830192906001600160a01b0388169060009060008051602061567d833981519152908290a4808210613282575b50600090815561113f9085838684565b60006301ffc9a760e01b6001600160e01b0319831614806132f557506380ac58cd60e01b6001600160e01b03198316145b806133105750635b5e139f60e01b6001600160e01b03198316145b80610dac57506001600160e01b0319821663152a902d60e11b1492915050565b60006001600160e01b03198216630271189760e51b1480610dac5750610dac826132c4565b6000805482108015610dac575050600090815260046020526040902054600160e01b900460ff161590565b600e5460ff161561109b576daaeb6d7670e522a718067333cd4e3b1561109b57604051633185c44d60e21b81523060048201526001600160a01b03821660248201526daaeb6d7670e522a718067333cd4e9063c617113490604401602060405180830381865afa1580156133f8573d6000803e3d6000fd5b505050506040513d601f19601f8201168201806040525081019061341c9190615593565b61109b57604051633b79c77360e21b81526001600160a01b0382166004820152602401610d58565b600061344f82611897565b9050806001600160a01b0316836001600160a01b0316036134835760405163250fdee360e21b815260040160405180910390fd5b336001600160a01b038216146134ba5761349d8133610ca5565b6134ba576040516367d9dca160e11b815260040160405180910390fd5b610ee88383836144c8565b600980546001600160a01b038381166001600160a01b0319831681179093556040519116919082907f8292fce18fa69edf4db7b94ea2e58241df0ae57f97e0a6c9b29067028bf92d7690600090a35050565b610ee8838383614524565b600e805460ff19168215159081179091556040519081527f38475885990d8dfe9ca01f0ef160a1b5514426eab9ddbc953a3353410ba780969060200160405180910390a150565b610ee883838360405180602001604052806000815250612339565b600061358f8361381f565b805190915082156135f5576000336001600160a01b03831614806135b857506135b88233610ca5565b806135d35750336135c886610e44565b6001600160a01b0316145b9050806135f357604051632ce44b5f60e11b815260040160405180910390fd5b505b613601600085836144c8565b6001600160a01b0380821660008181526005602090815260408083208054600160801b6000196001600160401b0380841691909101811667ffffffffffffffff198416811783900482166001908101831690930277ffffffffffffffff0000000000000000ffffffffffffffff19909416179290921783558b86526004909452828520805460ff60e01b1942909316600160a01b026001600160e01b03199091169097179690961716600160e01b1785559189018084529220805491949091166136ff5760005482146136ff57805460208701516001600160401b0316600160a01b026001600160e01b03199091166001600160a01b038716171781555b5050604051869250600091506001600160a01b0384169060008051602061567d833981519152908390a4505060018054810190555050565b6004830154600061374884866146fd565b9050600061375684836151f1565b9050828111156137635750815b60049095019490945550504260039091015550565b6127108111156137bc5760405162461bcd60e51b815260206004820152600f60248201526e45786365656473206d61782062707360881b6044820152606401610d58565b600a80546001600160a01b0384166001600160b01b03199091168117600160a01b61ffff851602179091556040518281527f90d7ec04bcb8978719414f82e52e4cb651db41d0e6f8cea6118c2191e6183adb906020015b60405180910390a25050565b60408051606081018252600080825260208201819052918101919091528160005481101561392057600081815260046020908152604091829020825160608101845290546001600160a01b0381168252600160a01b81046001600160401b031692820192909252600160e01b90910460ff1615159181018290529061391e5780516001600160a01b0316156138b5579392505050565b5060001901600081815260046020908152604091829020825160608101845290546001600160a01b038116808352600160a01b82046001600160401b031693830193909352600160e01b900460ff1615159281019290925215613919579392505050565b6138b5565b505b604051636f96cda160e11b815260040160405180910390fd5b60008061394684866151f1565b600c8054600181019091557fdf6966c971051c3d54ec59162606531493a51404a002842f56009d7e5cf4a8c7018190556000818152600d6020526040902090925082915061399484826154d4565b50935093915050565b610d8e828260405180602001604052806000815250613121565b61109b816040516024016139cb9190614a61565b60408051601f198184030181529190526020810180516001600160e01b031663104c13eb60e21b179052614762565b61109b81604051602401613a1091815260200190565b60408051601f198184030181529190526020810180516001600160e01b031663f82c50f160e01b179052614762565b6000604051806101c00160405280601454815260200160158481548110613a6857613a68615184565b90600052602060002090600e020160010154815260200160158481548110613a9257613a92615184565b90600052602060002090600e020160020154815260200160158481548110613abc57613abc615184565b90600052602060002090600e020160030154815260200160158481548110613ae657613ae6615184565b90600052602060002090600e020160040154815260200160158481548110613b1057613b10615184565b90600052602060002090600e020160050154815260200160158481548110613b3a57613b3a615184565b90600052602060002090600e020160060154815260200160158481548110613b6457613b64615184565b90600052602060002090600e020160070154815260200160158481548110613b8e57613b8e615184565b90600052602060002090600e020160080154815260200160158481548110613bb857613bb8615184565b90600052602060002090600e020160090154815260200160158481548110613be257613be2615184565b90600052602060002090600e0201600a0154815260200160158481548110613c0c57613c0c615184565b90600052602060002090600e0201600b0154815260200160158481548110613c3657613c36615184565b90600052602060002090600e0201600c0154815260200183815250905080601160006014548152602001908152602001600020600082015181600001556020820151816001015560408201518160020155606082015181600301556080820151816004015560a0820151816005015560c0820151816006015560e082015181600701556101008201518160080155610120820151816009015561014082015181600a015561016082015181600b015561018082015181600c01556101a082015181600d01559050506014547f672e8a5a5ea4546e9da80d8c45321ef467df52d7498dae7ec971387bc464bc6682602001518360400151846060015185608001518660a001518760c001518860e001518961010001518a61012001518b61014001518c61016001518d61018001516040516138139c9b9a999897969594939291909b8c5260208c019a909a5260408b019890985260608a0196909652608089019490945260a088019290925260c087015260e08601526101008501526101208401526101408301526101608201526101800190565b600060405180608001604052806064815260200160158481548110613df157613df1615184565b60009182526020808320600e929092029091016004015483524283820181905260409384015260148054835260128252918390208451808255858301516001830181905586860151600284018190556060808901516003909501859055955487519384529483019190915294810194909452918301919091529192507f19da20281546911260f62aa6f6b5e92d810a46f937d6030f91dca6442df4dfb490608001613813565b600060088054613ea690615122565b80601f0160208091040260200160405190810160405280929190818152602001828054613ed290615122565b8015613f1f5780601f10613ef457610100808354040283529160200191613f1f565b820191906000526020600020905b815481529060010190602001808311613f0257829003601f168201915b505050505090508160089081613f3591906154d4565b507fc9c7c3fe08b88b4df9d4d47ef47d2c43d55c025a0ba88ca442580ed9e7348a168183604051613f679291906155b0565b60405180910390a15050565b612710811115613fb75760405162461bcd60e51b815260206004820152600f60248201526e45786365656473206d61782062707360881b6044820152606401610d58565b6040805180820182526001600160a01b0384811680835260208084018681526000898152600b8352869020945185546001600160a01b031916941693909317845591516001909301929092559151838152909185917f7365cf4122f072a3365c20d54eff9b38d73c096c28e1892ec8f5b0e403a0f12d910160405180910390a3505050565b336001600160a01b038316036140655760405163b06307db60e01b815260040160405180910390fd5b3360008181526007602090815260408083206001600160a01b03871680855290835292819020805460ff191686151590811790915590519081529192917f17307eab39ab6107e8899845ad3d59bd9653f200f220920489ca2b5937696c31910160405180910390a35050565b60606140f6838360405180606001604052806027815260200161565660279139614783565b9392505050565b614108848484614524565b6001600160a01b0383163b1561113f57614124848484846143dd565b61113f576040516368d2bf6b60e11b815260040160405180910390fd5b6060600061414e600c5490565b90506000600c80548060200260200160405190810160405280929190818152602001828054801561419e57602002820191906000526020600020905b81548152602001906001019080831161418a575b5050505050905060005b828110156142a2578181815181106141c2576141c2615184565b602002602001015185101561429057600d60008383815181106141e7576141e7615184565b60200260200101518152602001908152602001600020805461420890615122565b80601f016020809104026020016040519081016040528092919081815260200182805461423490615122565b80156142815780601f1061425657610100808354040283529160200191614281565b820191906000526020600020905b81548152906001019060200180831161426457829003601f168201915b50505050509350505050919050565b61429b6001826151f1565b90506141a8565b5060405162461bcd60e51b815260206004820152600f60248201526e125b9d985b1a59081d1bdad95b9259608a1b6044820152606401610d58565b6060816000036143045750506040805180820190915260018152600360fc1b602082015290565b8160005b811561432e5780614318816152a8565b91506143279050600a836151dd565b9150614308565b6000816001600160401b03811115614348576143486148a6565b6040519080825280601f01601f191660200182016040528015614372576020820181803683370190505b5090505b841561143757614387600183615245565b9150614394600a866155d5565b61439f9060306151f1565b60f81b8183815181106143b4576143b4615184565b60200101906001600160f81b031916908160001a9053506143d6600a866151dd565b9450614376565b604051630a85bd0160e11b81526000906001600160a01b0385169063150b7a02906144129033908990889088906004016155e9565b6020604051808303816000875af192505050801561444d575060408051601f3d908101601f1916820190925261444a9181019061561c565b60015b6144ab573d80801561447b576040519150601f19603f3d011682016040523d82523d6000602084013e614480565b606091505b5080516000036144a3576040516368d2bf6b60e11b815260040160405180910390fd5b805181602001fd5b6001600160e01b031916630a85bd0160e11b149050949350505050565b60008281526006602052604080822080546001600160a01b0319166001600160a01b0387811691821790925591518593918516917f8c5be1e5ebec7d5bd14f71427d1e84f3dd0314c0f7b2291e5b200ac8c7c3b92591a4505050565b600061452f8261381f565b9050836001600160a01b031681600001516001600160a01b0316146145665760405162a1148160e81b815260040160405180910390fd5b6000336001600160a01b038616148061458457506145848533610ca5565b8061459f57503361459484610e44565b6001600160a01b0316145b9050806145bf57604051632ce44b5f60e11b815260040160405180910390fd5b6001600160a01b0384166145e657604051633a954ecd60e21b815260040160405180910390fd5b6145f2600084876144c8565b6001600160a01b038581166000908152600560209081526040808320805467ffffffffffffffff198082166001600160401b0392831660001901831617909255898616808652838620805493841693831660019081018416949094179055898652600490945282852080546001600160e01b031916909417600160a01b429092169190910217835587018084529220805491939091166146c65760005482146146c657805460208601516001600160401b0316600160a01b026001600160e01b03199091166001600160a01b038a16171781555b50505082846001600160a01b0316866001600160a01b031660008051602061567d83398151915260405160405180910390a4611b75565b6000808360030154426147109190615245565b9050600061070885600101548361472791906151b0565b61473191906151dd565b9050600081856004015461474591906151f1565b90508560010154811115612ebe5750600185015495945050505050565b80516a636f6e736f6c652e6c6f67602083016000808483855afa5050505050565b60606001600160a01b0384163b6147eb5760405162461bcd60e51b815260206004820152602660248201527f416464726573733a2064656c65676174652063616c6c20746f206e6f6e2d636f6044820152651b9d1c9858dd60d21b6064820152608401610d58565b600080856001600160a01b0316856040516148069190615639565b600060405180830381855af49150503d8060008114614841576040519150601f19603f3d011682016040523d82523d6000602084013e614846565b606091505b5091509150611d14828286606083156148605750816140f6565b8251156148705782518084602001fd5b8160405162461bcd60e51b8152600401610d589190614a61565b80356001600160a01b03811681146148a157600080fd5b919050565b634e487b7160e01b600052604160045260246000fd5b60405160c081016001600160401b03811182821017156148de576148de6148a6565b60405290565b604051601f8201601f191681016001600160401b038111828210171561490c5761490c6148a6565b604052919050565b60006001600160401b0382111561492d5761492d6148a6565b50601f01601f191660200190565b600082601f83011261494c57600080fd5b813561495f61495a82614914565b6148e4565b81815284602083860101111561497457600080fd5b816020850160208301376000918101602001919091529392505050565b600080604083850312156149a457600080fd5b6149ad8361488a565b915060208301356001600160401b038111156149c857600080fd5b6149d48582860161493b565b9150509250929050565b6001600160e01b03198116811461109b57600080fd5b600060208284031215614a0657600080fd5b81356140f6816149de565b60005b83811015614a2c578181015183820152602001614a14565b50506000910152565b60008151808452614a4d816020860160208601614a11565b601f01601f19169290920160200192915050565b6020815260006140f66020830184614a35565b600060208284031215614a8657600080fd5b5035919050565b600060208284031215614a9f57600080fd5b6140f68261488a565b60008060408385031215614abb57600080fd5b614ac48361488a565b946020939093013593505050565b6000602080835260e083018451828501528185015160408501526040850151606085015260608501516080850152608085015160a085015260a085015160c080860152818151808452610100870191508483019350600092505b80831015614b4c5783518252928401926001929092019190840190614b2c565b509695505050505050565b600080600060608486031215614b6c57600080fd5b614b758461488a565b9250614b836020850161488a565b9150604084013590509250925092565b60008060408385031215614ba657600080fd5b50508035926020909101359150565b60008060408385031215614bc857600080fd5b8235915060208301356001600160401b038111156149c857600080fd5b801515811461109b57600080fd5b600060208284031215614c0557600080fd5b81356140f681614be5565b838152606060208201526000614c296060830185614a35565b8281036040840152611d148185614a35565b60008060008060808587031215614c5157600080fd5b614c5a8561488a565b93506020850135925060408501356001600160401b0380821115614c7d57600080fd5b614c898883890161493b565b93506060870135915080821115614c9f57600080fd5b50614cac8782880161493b565b91505092959194509250565b600060208284031215614cca57600080fd5b81356001600160401b03811115614ce057600080fd5b6114378482850161493b565b600080600060608486031215614d0157600080fd5b83359250614b836020850161488a565b600080600080600060a08688031215614d2957600080fd5b505083359560208501359550604085013594606081013594506080013592509050565b6020808252825182820181905260009190848201906040850190845b81811015614d8457835183529284019291840191600101614d68565b50909695505050505050565b60008060408385031215614da357600080fd5b614dac8361488a565b91506020830135614dbc81614be5565b809150509250929050565b6005811061109b57600080fd5b60008060408385031215614de757600080fd5b823591506020830135614dbc81614dc7565b60008060208385031215614e0c57600080fd5b82356001600160401b0380821115614e2357600080fd5b818501915085601f830112614e3757600080fd5b813581811115614e4657600080fd5b8660208260051b8501011115614e5b57600080fd5b60209290920196919550909350505050565b6000602080830181845280855180835260408601915060408160051b870101925083870160005b82811015614ec257603f19888603018452614eb0858351614a35565b94509285019290850190600101614e94565b5092979650505050505050565b60008060008060808587031215614ee557600080fd5b614eee8561488a565b9350614efc6020860161488a565b92506040850135915060608501356001600160401b03811115614f1e57600080fd5b614cac8782880161493b565b600082601f830112614f3b57600080fd5b813560206001600160401b03821115614f5657614f566148a6565b8160051b614f658282016148e4565b9283528481018201928281019087851115614f7f57600080fd5b83870192505b84831015614f9e57823582529183019190830190614f85565b979650505050505050565b600080600080600060a08688031215614fc157600080fd5b614fca8661488a565b9450614fd86020870161488a565b935060408601356001600160401b0380821115614ff457600080fd5b61500089838a01614f2a565b9450606088013591508082111561501657600080fd5b61502289838a01614f2a565b9350608088013591508082111561503857600080fd5b506150458882890161493b565b9150509295509295909350565b60008060006060848603121561506757600080fd5b8335925060208401359150604084013561508081614dc7565b809150509250925092565b6000806040838503121561509e57600080fd5b6150a78361488a565b91506150b56020840161488a565b90509250929050565b600080600080600060a086880312156150d657600080fd5b6150df8661488a565b94506150ed6020870161488a565b9350604086013592506060860135915060808601356001600160401b0381111561511657600080fd5b6150458882890161493b565b600181811c9082168061513657607f821691505b60208210810361515657634e487b7160e01b600052602260045260246000fd5b50919050565b6020808252600e908201526d139bdd08185d5d1a1bdc9a5e995960921b604082015260600190565b634e487b7160e01b600052603260045260246000fd5b634e487b7160e01b600052601160045260246000fd5b8082028115828204841417610dac57610dac61519a565b634e487b7160e01b600052601260045260246000fd5b6000826151ec576151ec6151c7565b500490565b80820180821115610dac57610dac61519a565b60208082526021908201527f43616c6c6572206973206e6f742074686520426174746c6520636f6e747261636040820152601d60fa1b606082015260800190565b81810381811115610dac57610dac61519a565b634e487b7160e01b600052602160045260246000fd5b83815260208101839052606081016005831061529a57634e487b7160e01b600052602160045260246000fd5b826040830152949350505050565b6000600182016152ba576152ba61519a565b5060010190565b6000808335601e198436030181126152d857600080fd5b8301803591506001600160401b038211156152f257600080fd5b60200191503681900382131561530757600080fd5b9250929050565b60008351615320818460208801614a11565b835190830190615334818360208801614a11565b01949350505050565b6001600160a01b0394851681529290931660208301526040820152606081019190915260a06080820181905260009082015260c00190565b80516148a181614dc7565b6000602080838503121561539357600080fd5b82516001600160401b03808211156153aa57600080fd5b9084019060c082870312156153be57600080fd5b6153c66148bc565b8251828111156153d557600080fd5b83019150601f820187136153e857600080fd5b81516153f661495a82614914565b818152888683860101111561540a57600080fd5b61541982878301888701614a11565b8083525050838301518482015260408301516040820152606083015160608201526080830151608082015261545060a08401615375565b60a08201529695505050505050565b634e487b7160e01b600052603160045260246000fd5b60006020828403121561548757600080fd5b5051919050565b601f821115610ee857600081815260208120601f850160051c810160208610156154b55750805b601f850160051c820191505b8181101561171b578281556001016154c1565b81516001600160401b038111156154ed576154ed6148a6565b615501816154fb8454615122565b8461548e565b602080601f831160018114615536576000841561551e5750858301515b600019600386901b1c1916600185901b17855561171b565b600085815260208120601f198616915b8281101561556557888601518255948401946001909101908401615546565b50858210156155835787850151600019600388901b60f8161c191681555b5050505050600190811b01905550565b6000602082840312156155a557600080fd5b81516140f681614be5565b6040815260006155c36040830185614a35565b8281036020840152612ebe8185614a35565b6000826155e4576155e46151c7565b500690565b6001600160a01b0385811682528416602082015260408101839052608060608201819052600090611d1490830184614a35565b60006020828403121561562e57600080fd5b81516140f6816149de565b6000825161564b818460208701614a11565b919091019291505056fe416464726573733a206c6f772d6c6576656c2064656c65676174652063616c6c206661696c6564ddf252ad1be2c89b69c2b068fc378daa952ba7f163c4a11628f55a4df523b3efa26469706673582212200fcdc266749ef1557e3ac0a687fb0aa85cea13c7294c241611852f54d64b9e3f64736f6c63430008110033697066733a2f2f516d5a7a426d6a726a6e3734324478387750486865713858627a6b6f775753367871764c4855525453764c51436f697066733a2f2f516d5579576d7072793853726939426d734853514d444250746e505a6b6f583647533777385a697a706e46583776697066733a2f2f516d545945695869547a4268597577755137626a533561714368726566454a5a33376173384244724b59786b316a",
  "linkReferences": {
    "contracts/CMLib.sol": {
      "CMLib": [
        {
          "length": 20,
          "start": 7975
        },
        {
          "length": 20,
          "start": 9096
        },
        {
          "length": 20,
          "start": 9886
        },
        {
          "length": 20,
          "start": 11106
        }
      ]
    }
  },
  "deployedLinkReferences": {
    "contracts/CMLib.sol": {
      "CMLib": [
        {
          "length": 20,
          "start": 5289
        },
        {
          "length": 20,
          "start": 6410
        },
        {
          "length": 20,
          "start": 7200
        },
        {
          "length": 20,
          "start": 8420
        }
      ]
    }
  }
}