{
  "_format": "hh-sol-artifact-1",
  "contractName": "Character",
  "sourceName": "contracts/Character.sol",
  "abi": [
    {
      "inputs": [],
      "stateMutability": "nonpayable",
      "type": "constructor"
    },
    {
      "inputs": [],
      "name": "ApprovalCallerNotOwnerNorApproved",
      "type": "error"
    },
    {
      "inputs": [],
      "name": "ApprovalQueryForNonexistentToken",
      "type": "error"
    },
    {
      "inputs": [],
      "name": "ApprovalToCurrentOwner",
      "type": "error"
    },
    {
      "inputs": [],
      "name": "ApproveToCaller",
      "type": "error"
    },
    {
      "inputs": [],
      "name": "BalanceQueryForZeroAddress",
      "type": "error"
    },
    {
      "inputs": [],
      "name": "MintToZeroAddress",
      "type": "error"
    },
    {
      "inputs": [],
      "name": "MintZeroQuantity",
      "type": "error"
    },
    {
      "inputs": [
        {
          "internalType": "address",
          "name": "operator",
          "type": "address"
        }
      ],
      "name": "OperatorNotAllowed",
      "type": "error"
    },
    {
      "inputs": [],
      "name": "OwnerQueryForNonexistentToken",
      "type": "error"
    },
    {
      "inputs": [],
      "name": "TransferCallerNotOwnerNorApproved",
      "type": "error"
    },
    {
      "inputs": [],
      "name": "TransferFromIncorrectOwner",
      "type": "error"
    },
    {
      "inputs": [],
      "name": "TransferToNonERC721ReceiverImplementer",
      "type": "error"
    },
    {
      "inputs": [],
      "name": "TransferToZeroAddress",
      "type": "error"
    },
    {
      "inputs": [],
      "name": "URIQueryForNonexistentToken",
      "type": "error"
    },
    {
      "anonymous": false,
      "inputs": [
        {
          "indexed": true,
          "internalType": "address",
          "name": "owner",
          "type": "address"
        },
        {
          "indexed": true,
          "internalType": "address",
          "name": "approved",
          "type": "address"
        },
        {
          "indexed": true,
          "internalType": "uint256",
          "name": "tokenId",
          "type": "uint256"
        }
      ],
      "name": "Approval",
      "type": "event"
    },
    {
      "anonymous": false,
      "inputs": [
        {
          "indexed": true,
          "internalType": "address",
          "name": "owner",
          "type": "address"
        },
        {
          "indexed": true,
          "internalType": "address",
          "name": "operator",
          "type": "address"
        },
        {
          "indexed": false,
          "internalType": "bool",
          "name": "approved",
          "type": "bool"
        }
      ],
      "name": "ApprovalForAll",
      "type": "event"
    },
    {
      "anonymous": false,
      "inputs": [
        {
          "indexed": true,
          "internalType": "uint256",
          "name": "tokenId",
          "type": "uint256"
        },
        {
          "indexed": false,
          "internalType": "uint256",
          "name": "stamina",
          "type": "uint256"
        },
        {
          "indexed": false,
          "internalType": "uint256",
          "name": "maxMana",
          "type": "uint256"
        },
        {
          "indexed": false,
          "internalType": "uint256",
          "name": "lastStaminaUpdateTime",
          "type": "uint256"
        },
        {
          "indexed": false,
          "internalType": "uint256",
          "name": "lastManaUpdateTime",
          "type": "uint256"
        }
      ],
      "name": "CharacterRecoveryStats",
      "type": "event"
    },
    {
      "anonymous": false,
      "inputs": [
        {
          "indexed": true,
          "internalType": "uint256",
          "name": "tokenId",
          "type": "uint256"
        },
        {
          "indexed": false,
          "internalType": "uint256",
          "name": "level",
          "type": "uint256"
        },
        {
          "indexed": false,
          "internalType": "uint256",
          "name": "experience",
          "type": "uint256"
        },
        {
          "indexed": false,
          "internalType": "uint256",
          "name": "health",
          "type": "uint256"
        },
        {
          "indexed": false,
          "internalType": "uint256",
          "name": "mana",
          "type": "uint256"
        },
        {
          "indexed": false,
          "internalType": "uint256",
          "name": "attack",
          "type": "uint256"
        },
        {
          "indexed": false,
          "internalType": "uint256",
          "name": "defense",
          "type": "uint256"
        },
        {
          "indexed": false,
          "internalType": "uint256",
          "name": "strength",
          "type": "uint256"
        },
        {
          "indexed": false,
          "internalType": "uint256",
          "name": "dexterity",
          "type": "uint256"
        },
        {
          "indexed": false,
          "internalType": "uint256",
          "name": "intelligence",
          "type": "uint256"
        },
        {
          "indexed": false,
          "internalType": "uint256",
          "name": "vitality",
          "type": "uint256"
        },
        {
          "indexed": false,
          "internalType": "uint256",
          "name": "accuracy",
          "type": "uint256"
        },
        {
          "indexed": false,
          "internalType": "uint256",
          "name": "statPoints",
          "type": "uint256"
        }
      ],
      "name": "CharacterStatsEvent",
      "type": "event"
    },
    {
      "anonymous": false,
      "inputs": [
        {
          "indexed": true,
          "internalType": "uint256",
          "name": "tokenId",
          "type": "uint256"
        },
        {
          "indexed": false,
          "internalType": "uint256",
          "name": "strength",
          "type": "uint256"
        },
        {
          "indexed": false,
          "internalType": "uint256",
          "name": "dexterity",
          "type": "uint256"
        },
        {
          "indexed": false,
          "internalType": "uint256",
          "name": "intelligence",
          "type": "uint256"
        },
        {
          "indexed": false,
          "internalType": "uint256",
          "name": "vitality",
          "type": "uint256"
        }
      ],
      "name": "CharacterStatsUpdated",
      "type": "event"
    },
    {
      "anonymous": false,
      "inputs": [
        {
          "indexed": true,
          "internalType": "uint256",
          "name": "tokenId",
          "type": "uint256"
        },
        {
          "indexed": false,
          "internalType": "uint256",
          "name": "xp",
          "type": "uint256"
        }
      ],
      "name": "CharacterXPUpdated",
      "type": "event"
    },
    {
      "anonymous": false,
      "inputs": [
        {
          "indexed": true,
          "internalType": "uint256",
          "name": "characterTokenId",
          "type": "uint256"
        },
        {
          "indexed": true,
          "internalType": "uint256",
          "name": "classId",
          "type": "uint256"
        }
      ],
      "name": "ClassEquipped",
      "type": "event"
    },
    {
      "anonymous": false,
      "inputs": [
        {
          "indexed": true,
          "internalType": "uint256",
          "name": "characterTokenId",
          "type": "uint256"
        },
        {
          "indexed": true,
          "internalType": "uint256",
          "name": "classId",
          "type": "uint256"
        }
      ],
      "name": "ClassUnequipped",
      "type": "event"
    },
    {
      "anonymous": false,
      "inputs": [
        {
          "indexed": false,
          "internalType": "string",
          "name": "prevURI",
          "type": "string"
        },
        {
          "indexed": false,
          "internalType": "string",
          "name": "newURI",
          "type": "string"
        }
      ],
      "name": "ContractURIUpdated",
      "type": "event"
    },
    {
      "anonymous": false,
      "inputs": [
        {
          "indexed": true,
          "internalType": "address",
          "name": "newRoyaltyRecipient",
          "type": "address"
        },
        {
          "indexed": false,
          "internalType": "uint256",
          "name": "newRoyaltyBps",
          "type": "uint256"
        }
      ],
      "name": "DefaultRoyalty",
      "type": "event"
    },
    {
      "anonymous": false,
      "inputs": [
        {
          "indexed": true,
          "internalType": "uint256",
          "name": "tokenId",
          "type": "uint256"
        },
        {
          "indexed": false,
          "internalType": "uint256",
          "name": "mana",
          "type": "uint256"
        }
      ],
      "name": "ManaUpdated",
      "type": "event"
    },
    {
      "anonymous": false,
      "inputs": [
        {
          "indexed": true,
          "internalType": "address",
          "name": "player",
          "type": "address"
        },
        {
          "indexed": true,
          "internalType": "uint256",
          "name": "tokenId",
          "type": "uint256"
        },
        {
          "indexed": false,
          "internalType": "uint256",
          "name": "typeId",
          "type": "uint256"
        }
      ],
      "name": "NewCharacter",
      "type": "event"
    },
    {
      "anonymous": false,
      "inputs": [
        {
          "indexed": false,
          "internalType": "bool",
          "name": "restriction",
          "type": "bool"
        }
      ],
      "name": "OperatorRestriction",
      "type": "event"
    },
    {
      "anonymous": false,
      "inputs": [
        {
          "indexed": true,
          "internalType": "address",
          "name": "prevOwner",
          "type": "address"
        },
        {
          "indexed": true,
          "internalType": "address",
          "name": "newOwner",
          "type": "address"
        }
      ],
      "name": "OwnerUpdated",
      "type": "event"
    },
    {
      "anonymous": false,
      "inputs": [
        {
          "indexed": true,
          "internalType": "uint256",
          "name": "tokenId",
          "type": "uint256"
        },
        {
          "indexed": true,
          "internalType": "address",
          "name": "royaltyRecipient",
          "type": "address"
        },
        {
          "indexed": false,
          "internalType": "uint256",
          "name": "royaltyBps",
          "type": "uint256"
        }
      ],
      "name": "RoyaltyForToken",
      "type": "event"
    },
    {
      "anonymous": false,
      "inputs": [
        {
          "indexed": true,
          "internalType": "uint256",
          "name": "tokenId",
          "type": "uint256"
        },
        {
          "indexed": false,
          "internalType": "uint256",
          "name": "stamina",
          "type": "uint256"
        }
      ],
      "name": "StaminaUpdated",
      "type": "event"
    },
    {
      "anonymous": false,
      "inputs": [
        {
          "indexed": true,
          "internalType": "address",
          "name": "from",
          "type": "address"
        },
        {
          "indexed": true,
          "internalType": "address",
          "name": "to",
          "type": "address"
        },
        {
          "indexed": true,
          "internalType": "uint256",
          "name": "tokenId",
          "type": "uint256"
        }
      ],
      "name": "Transfer",
      "type": "event"
    },
    {
      "inputs": [],
      "name": "OPERATOR_FILTER_REGISTRY",
      "outputs": [
        {
          "internalType": "contract IOperatorFilterRegistry",
          "name": "",
          "type": "address"
        }
      ],
      "stateMutability": "view",
      "type": "function"
    },
    {
      "inputs": [
        {
          "internalType": "uint256",
          "name": "tokenId",
          "type": "uint256"
        },
        {
          "internalType": "uint256",
          "name": "amount",
          "type": "uint256"
        }
      ],
      "name": "addMana",
      "outputs": [],
      "stateMutability": "nonpayable",
      "type": "function"
    },
    {
      "inputs": [
        {
          "internalType": "uint256",
          "name": "tokenId",
          "type": "uint256"
        },
        {
          "internalType": "uint256",
          "name": "amount",
          "type": "uint256"
        }
      ],
      "name": "addStamina",
      "outputs": [],
      "stateMutability": "nonpayable",
      "type": "function"
    },
    {
      "inputs": [
        {
          "internalType": "uint256",
          "name": "characterTokenId",
          "type": "uint256"
        },
        {
          "internalType": "uint256",
          "name": "strength",
          "type": "uint256"
        },
        {
          "internalType": "uint256",
          "name": "dexterity",
          "type": "uint256"
        },
        {
          "internalType": "uint256",
          "name": "intelligence",
          "type": "uint256"
        },
        {
          "internalType": "uint256",
          "name": "vitality",
          "type": "uint256"
        }
      ],
      "name": "addStats",
      "outputs": [],
      "stateMutability": "nonpayable",
      "type": "function"
    },
    {
      "inputs": [
        {
          "internalType": "address",
          "name": "operator",
          "type": "address"
        },
        {
          "internalType": "uint256",
          "name": "tokenId",
          "type": "uint256"
        }
      ],
      "name": "approve",
      "outputs": [],
      "stateMutability": "nonpayable",
      "type": "function"
    },
    {
      "inputs": [
        {
          "internalType": "address",
          "name": "owner",
          "type": "address"
        }
      ],
      "name": "balanceOf",
      "outputs": [
        {
          "internalType": "uint256",
          "name": "",
          "type": "uint256"
        }
      ],
      "stateMutability": "view",
      "type": "function"
    },
    {
      "inputs": [
        {
          "internalType": "address",
          "name": "_to",
          "type": "address"
        },
        {
          "internalType": "uint256",
          "name": "_quantity",
          "type": "uint256"
        },
        {
          "internalType": "string",
          "name": "_baseURI",
          "type": "string"
        },
        {
          "internalType": "bytes",
          "name": "_data",
          "type": "bytes"
        }
      ],
      "name": "batchMintTo",
      "outputs": [],
      "stateMutability": "nonpayable",
      "type": "function"
    },
    {
      "inputs": [],
      "name": "battleItems",
      "outputs": [
        {
          "internalType": "contract IBattleItems",
          "name": "",
          "type": "address"
        }
      ],
      "stateMutability": "view",
      "type": "function"
    },
    {
      "inputs": [],
      "name": "battleSkills",
      "outputs": [
        {
          "internalType": "contract IBattleSkills",
          "name": "",
          "type": "address"
        }
      ],
      "stateMutability": "view",
      "type": "function"
    },
    {
      "inputs": [
        {
          "internalType": "uint256",
          "name": "_tokenId",
          "type": "uint256"
        }
      ],
      "name": "burn",
      "outputs": [],
      "stateMutability": "nonpayable",
      "type": "function"
    },
    {
      "inputs": [
        {
          "internalType": "uint256",
          "name": "",
          "type": "uint256"
        }
      ],
      "name": "charStats",
      "outputs": [
        {
          "internalType": "uint256",
          "name": "tokenId",
          "type": "uint256"
        },
        {
          "internalType": "uint256",
          "name": "level",
          "type": "uint256"
        },
        {
          "internalType": "uint256",
          "name": "experience",
          "type": "uint256"
        },
        {
          "internalType": "uint256",
          "name": "health",
          "type": "uint256"
        },
        {
          "internalType": "uint256",
          "name": "mana",
          "type": "uint256"
        },
        {
          "internalType": "uint256",
          "name": "attack",
          "type": "uint256"
        },
        {
          "internalType": "uint256",
          "name": "defense",
          "type": "uint256"
        },
        {
          "internalType": "uint256",
          "name": "strength",
          "type": "uint256"
        },
        {
          "internalType": "uint256",
          "name": "dexterity",
          "type": "uint256"
        },
        {
          "internalType": "uint256",
          "name": "intelligence",
          "type": "uint256"
        },
        {
          "internalType": "uint256",
          "name": "vitality",
          "type": "uint256"
        },
        {
          "internalType": "uint256",
          "name": "accuracy",
          "type": "uint256"
        },
        {
          "internalType": "uint256",
          "name": "statPoints",
          "type": "uint256"
        },
        {
          "internalType": "uint256",
          "name": "typeId",
          "type": "uint256"
        }
      ],
      "stateMutability": "view",
      "type": "function"
    },
    {
      "inputs": [
        {
          "internalType": "uint256",
          "name": "",
          "type": "uint256"
        }
      ],
      "name": "charTypes",
      "outputs": [
        {
          "internalType": "uint256",
          "name": "typeId",
          "type": "uint256"
        },
        {
          "internalType": "string",
          "name": "characterType",
          "type": "string"
        },
        {
          "internalType": "string",
          "name": "uri",
          "type": "string"
        }
      ],
      "stateMutability": "view",
      "type": "function"
    },
    {
      "inputs": [],
      "name": "characterClasses",
      "outputs": [
        {
          "internalType": "contract CharacterClass",
          "name": "",
          "type": "address"
        }
      ],
      "stateMutability": "view",
      "type": "function"
    },
    {
      "inputs": [
        {
          "internalType": "uint256",
          "name": "",
          "type": "uint256"
        }
      ],
      "name": "characterEquips",
      "outputs": [
        {
          "internalType": "uint256",
          "name": "equippedClass",
          "type": "uint256"
        }
      ],
      "stateMutability": "view",
      "type": "function"
    },
    {
      "inputs": [
        {
          "internalType": "uint256",
          "name": "",
          "type": "uint256"
        }
      ],
      "name": "characterRecoveryStats",
      "outputs": [
        {
          "internalType": "uint256",
          "name": "stamina",
          "type": "uint256"
        },
        {
          "internalType": "uint256",
          "name": "maxMana",
          "type": "uint256"
        },
        {
          "internalType": "uint256",
          "name": "lastStaminaUpdateTime",
          "type": "uint256"
        },
        {
          "internalType": "uint256",
          "name": "lastManaUpdateTime",
          "type": "uint256"
        }
      ],
      "stateMutability": "view",
      "type": "function"
    },
    {
      "inputs": [
        {
          "internalType": "uint256",
          "name": "",
          "type": "uint256"
        }
      ],
      "name": "characterStats",
      "outputs": [
        {
          "internalType": "uint256",
          "name": "tokenId",
          "type": "uint256"
        },
        {
          "internalType": "uint256",
          "name": "level",
          "type": "uint256"
        },
        {
          "internalType": "uint256",
          "name": "experience",
          "type": "uint256"
        },
        {
          "internalType": "uint256",
          "name": "health",
          "type": "uint256"
        },
        {
          "internalType": "uint256",
          "name": "mana",
          "type": "uint256"
        },
        {
          "internalType": "uint256",
          "name": "attack",
          "type": "uint256"
        },
        {
          "internalType": "uint256",
          "name": "defense",
          "type": "uint256"
        },
        {
          "internalType": "uint256",
          "name": "strength",
          "type": "uint256"
        },
        {
          "internalType": "uint256",
          "name": "dexterity",
          "type": "uint256"
        },
        {
          "internalType": "uint256",
          "name": "intelligence",
          "type": "uint256"
        },
        {
          "internalType": "uint256",
          "name": "vitality",
          "type": "uint256"
        },
        {
          "internalType": "uint256",
          "name": "accuracy",
          "type": "uint256"
        },
        {
          "internalType": "uint256",
          "name": "statPoints",
          "type": "uint256"
        },
        {
          "internalType": "uint256",
          "name": "typeId",
          "type": "uint256"
        }
      ],
      "stateMutability": "view",
      "type": "function"
    },
    {
      "inputs": [],
      "name": "compositeTokens",
      "outputs": [
        {
          "internalType": "contract ICompositeTokens",
          "name": "",
          "type": "address"
        }
      ],
      "stateMutability": "view",
      "type": "function"
    },
    {
      "inputs": [
        {
          "internalType": "uint256",
          "name": "tokenId",
          "type": "uint256"
        },
        {
          "internalType": "uint256",
          "name": "amount",
          "type": "uint256"
        }
      ],
      "name": "consumeMana",
      "outputs": [],
      "stateMutability": "nonpayable",
      "type": "function"
    },
    {
      "inputs": [
        {
          "internalType": "uint256",
          "name": "tokenId",
          "type": "uint256"
        },
        {
          "internalType": "uint256",
          "name": "amount",
          "type": "uint256"
        }
      ],
      "name": "consumeStamina",
      "outputs": [],
      "stateMutability": "nonpayable",
      "type": "function"
    },
    {
      "inputs": [],
      "name": "contractURI",
      "outputs": [
        {
          "internalType": "string",
          "name": "",
          "type": "string"
        }
      ],
      "stateMutability": "view",
      "type": "function"
    },
    {
      "inputs": [
        {
          "internalType": "uint256",
          "name": "characterTokenId",
          "type": "uint256"
        },
        {
          "internalType": "uint256",
          "name": "classId",
          "type": "uint256"
        }
      ],
      "name": "equipClass",
      "outputs": [],
      "stateMutability": "nonpayable",
      "type": "function"
    },
    {
      "inputs": [
        {
          "internalType": "uint256",
          "name": "characterTokenId",
          "type": "uint256"
        },
        {
          "internalType": "uint256",
          "name": "itemId",
          "type": "uint256"
        },
        {
          "internalType": "enum CharData.ItemType",
          "name": "itemType",
          "type": "uint8"
        }
      ],
      "name": "equipItem",
      "outputs": [],
      "stateMutability": "nonpayable",
      "type": "function"
    },
    {
      "inputs": [],
      "name": "equipManagement",
      "outputs": [
        {
          "internalType": "contract IEquipManagement",
          "name": "",
          "type": "address"
        }
      ],
      "stateMutability": "view",
      "type": "function"
    },
    {
      "inputs": [
        {
          "internalType": "uint256",
          "name": "characterTokenId",
          "type": "uint256"
        },
        {
          "internalType": "uint256",
          "name": "skillId",
          "type": "uint256"
        }
      ],
      "name": "equipSkill",
      "outputs": [],
      "stateMutability": "nonpayable",
      "type": "function"
    },
    {
      "inputs": [
        {
          "internalType": "uint256",
          "name": "characterTokenId",
          "type": "uint256"
        },
        {
          "internalType": "uint256",
          "name": "xp",
          "type": "uint256"
        }
      ],
      "name": "gainXP",
      "outputs": [],
      "stateMutability": "nonpayable",
      "type": "function"
    },
    {
      "inputs": [
        {
          "internalType": "uint256",
          "name": "tokenId",
          "type": "uint256"
        }
      ],
      "name": "getApproved",
      "outputs": [
        {
          "internalType": "address",
          "name": "",
          "type": "address"
        }
      ],
      "stateMutability": "view",
      "type": "function"
    },
    {
      "inputs": [],
      "name": "getBaseURICount",
      "outputs": [
        {
          "internalType": "uint256",
          "name": "",
          "type": "uint256"
        }
      ],
      "stateMutability": "view",
      "type": "function"
    },
    {
      "inputs": [
        {
          "internalType": "uint256",
          "name": "_index",
          "type": "uint256"
        }
      ],
      "name": "getBatchIdAtIndex",
      "outputs": [
        {
          "internalType": "uint256",
          "name": "",
          "type": "uint256"
        }
      ],
      "stateMutability": "view",
      "type": "function"
    },
    {
      "inputs": [
        {
          "internalType": "uint256",
          "name": "_tokenId",
          "type": "uint256"
        }
      ],
      "name": "getCharacter",
      "outputs": [
        {
          "components": [
            {
              "internalType": "uint256",
              "name": "tokenId",
              "type": "uint256"
            },
            {
              "internalType": "uint256",
              "name": "level",
              "type": "uint256"
            },
            {
              "internalType": "uint256",
              "name": "experience",
              "type": "uint256"
            },
            {
              "internalType": "uint256",
              "name": "health",
              "type": "uint256"
            },
            {
              "internalType": "uint256",
              "name": "mana",
              "type": "uint256"
            },
            {
              "internalType": "uint256",
              "name": "attack",
              "type": "uint256"
            },
            {
              "internalType": "uint256",
              "name": "defense",
              "type": "uint256"
            },
            {
              "internalType": "uint256",
              "name": "strength",
              "type": "uint256"
            },
            {
              "internalType": "uint256",
              "name": "dexterity",
              "type": "uint256"
            },
            {
              "internalType": "uint256",
              "name": "intelligence",
              "type": "uint256"
            },
            {
              "internalType": "uint256",
              "name": "vitality",
              "type": "uint256"
            },
            {
              "internalType": "uint256",
              "name": "accuracy",
              "type": "uint256"
            },
            {
              "internalType": "uint256",
              "name": "statPoints",
              "type": "uint256"
            },
            {
              "internalType": "uint256",
              "name": "typeId",
              "type": "uint256"
            }
          ],
          "internalType": "struct CharData.CharacterStats",
          "name": "",
          "type": "tuple"
        }
      ],
      "stateMutability": "view",
      "type": "function"
    },
    {
      "inputs": [
        {
          "internalType": "uint256",
          "name": "characterTokenId",
          "type": "uint256"
        },
        {
          "internalType": "enum CharData.ItemType",
          "name": "itemType",
          "type": "uint8"
        }
      ],
      "name": "getCharacterEquippedItem",
      "outputs": [
        {
          "internalType": "uint256",
          "name": "",
          "type": "uint256"
        }
      ],
      "stateMutability": "view",
      "type": "function"
    },
    {
      "inputs": [
        {
          "internalType": "uint256",
          "name": "characterTokenId",
          "type": "uint256"
        }
      ],
      "name": "getCharacterEquippedSkills",
      "outputs": [
        {
          "internalType": "uint256[]",
          "name": "",
          "type": "uint256[]"
        }
      ],
      "stateMutability": "view",
      "type": "function"
    },
    {
      "inputs": [
        {
          "internalType": "uint256",
          "name": "tokenId",
          "type": "uint256"
        }
      ],
      "name": "getCharacterInfo",
      "outputs": [
        {
          "components": [
            {
              "internalType": "uint256",
              "name": "health",
              "type": "uint256"
            },
            {
              "internalType": "uint256",
              "name": "attack",
              "type": "uint256"
            },
            {
              "internalType": "uint256",
              "name": "defense",
              "type": "uint256"
            },
            {
              "internalType": "uint256",
              "name": "mana",
              "type": "uint256"
            },
            {
              "internalType": "uint256",
              "name": "typeId",
              "type": "uint256"
            },
            {
              "internalType": "uint256[]",
              "name": "equippedSkills",
              "type": "uint256[]"
            }
          ],
          "internalType": "struct CharData.CharBattleData",
          "name": "battleData",
          "type": "tuple"
        }
      ],
      "stateMutability": "view",
      "type": "function"
    },
    {
      "inputs": [],
      "name": "getDefaultRoyaltyInfo",
      "outputs": [
        {
          "internalType": "address",
          "name": "",
          "type": "address"
        },
        {
          "internalType": "uint16",
          "name": "",
          "type": "uint16"
        }
      ],
      "stateMutability": "view",
      "type": "function"
    },
    {
      "inputs": [
        {
          "internalType": "uint256",
          "name": "characterTokenId",
          "type": "uint256"
        }
      ],
      "name": "getEquippedClass",
      "outputs": [
        {
          "internalType": "uint256",
          "name": "",
          "type": "uint256"
        }
      ],
      "stateMutability": "view",
      "type": "function"
    },
    {
      "inputs": [
        {
          "internalType": "uint256",
          "name": "tokenId",
          "type": "uint256"
        }
      ],
      "name": "getMana",
      "outputs": [
        {
          "internalType": "uint256",
          "name": "",
          "type": "uint256"
        }
      ],
      "stateMutability": "view",
      "type": "function"
    },
    {
      "inputs": [
        {
          "internalType": "uint256",
          "name": "tokenId",
          "type": "uint256"
        }
      ],
      "name": "getRecoveryStats",
      "outputs": [
        {
          "components": [
            {
              "internalType": "uint256",
              "name": "stamina",
              "type": "uint256"
            },
            {
              "internalType": "uint256",
              "name": "maxMana",
              "type": "uint256"
            },
            {
              "internalType": "uint256",
              "name": "lastStaminaUpdateTime",
              "type": "uint256"
            },
            {
              "internalType": "uint256",
              "name": "lastManaUpdateTime",
              "type": "uint256"
            }
          ],
          "internalType": "struct CharData.RecoveryStats",
          "name": "",
          "type": "tuple"
        }
      ],
      "stateMutability": "view",
      "type": "function"
    },
    {
      "inputs": [
        {
          "internalType": "uint256",
          "name": "_tokenId",
          "type": "uint256"
        }
      ],
      "name": "getRoyaltyInfoForToken",
      "outputs": [
        {
          "internalType": "address",
          "name": "",
          "type": "address"
        },
        {
          "internalType": "uint16",
          "name": "",
          "type": "uint16"
        }
      ],
      "stateMutability": "view",
      "type": "function"
    },
    {
      "inputs": [
        {
          "internalType": "uint256",
          "name": "tokenId",
          "type": "uint256"
        }
      ],
      "name": "getStamina",
      "outputs": [
        {
          "internalType": "uint256",
          "name": "",
          "type": "uint256"
        }
      ],
      "stateMutability": "view",
      "type": "function"
    },
    {
      "inputs": [
        {
          "internalType": "address",
          "name": "owner",
          "type": "address"
        },
        {
          "internalType": "address",
          "name": "operator",
          "type": "address"
        }
      ],
      "name": "isApprovedForAll",
      "outputs": [
        {
          "internalType": "bool",
          "name": "",
          "type": "bool"
        }
      ],
      "stateMutability": "view",
      "type": "function"
    },
    {
      "inputs": [
        {
          "internalType": "address",
          "name": "_operator",
          "type": "address"
        },
        {
          "internalType": "uint256",
          "name": "_tokenId",
          "type": "uint256"
        }
      ],
      "name": "isApprovedOrOwner",
      "outputs": [
        {
          "internalType": "bool",
          "name": "isApprovedOrOwnerOf",
          "type": "bool"
        }
      ],
      "stateMutability": "view",
      "type": "function"
    },
    {
      "inputs": [
        {
          "internalType": "uint256",
          "name": "_typeId",
          "type": "uint256"
        },
        {
          "internalType": "uint256",
          "name": "_skillTokenId",
          "type": "uint256"
        }
      ],
      "name": "mintNewCharacterWithItemAndEquip",
      "outputs": [],
      "stateMutability": "nonpayable",
      "type": "function"
    },
    {
      "inputs": [
        {
          "internalType": "address",
          "name": "_to",
          "type": "address"
        },
        {
          "internalType": "string",
          "name": "_tokenURI",
          "type": "string"
        }
      ],
      "name": "mintTo",
      "outputs": [],
      "stateMutability": "nonpayable",
      "type": "function"
    },
    {
      "inputs": [
        {
          "internalType": "bytes[]",
          "name": "data",
          "type": "bytes[]"
        }
      ],
      "name": "multicall",
      "outputs": [
        {
          "internalType": "bytes[]",
          "name": "results",
          "type": "bytes[]"
        }
      ],
      "stateMutability": "nonpayable",
      "type": "function"
    },
    {
      "inputs": [],
      "name": "name",
      "outputs": [
        {
          "internalType": "string",
          "name": "",
          "type": "string"
        }
      ],
      "stateMutability": "view",
      "type": "function"
    },
    {
      "inputs": [
        {
          "internalType": "uint256",
          "name": "_typeId",
          "type": "uint256"
        }
      ],
      "name": "newCharacter",
      "outputs": [],
      "stateMutability": "nonpayable",
      "type": "function"
    },
    {
      "inputs": [],
      "name": "nextTokenIdToMint",
      "outputs": [
        {
          "internalType": "uint256",
          "name": "",
          "type": "uint256"
        }
      ],
      "stateMutability": "view",
      "type": "function"
    },
    {
      "inputs": [],
      "name": "numCharacters",
      "outputs": [
        {
          "internalType": "uint256",
          "name": "",
          "type": "uint256"
        }
      ],
      "stateMutability": "view",
      "type": "function"
    },
    {
      "inputs": [
        {
          "internalType": "address",
          "name": "",
          "type": "address"
        },
        {
          "internalType": "address",
          "name": "",
          "type": "address"
        },
        {
          "internalType": "uint256[]",
          "name": "",
          "type": "uint256[]"
        },
        {
          "internalType": "uint256[]",
          "name": "",
          "type": "uint256[]"
        },
        {
          "internalType": "bytes",
          "name": "",
          "type": "bytes"
        }
      ],
      "name": "onERC1155BatchReceived",
      "outputs": [
        {
          "internalType": "bytes4",
          "name": "",
          "type": "bytes4"
        }
      ],
      "stateMutability": "nonpayable",
      "type": "function"
    },
    {
      "inputs": [
        {
          "internalType": "address",
          "name": "",
          "type": "address"
        },
        {
          "internalType": "address",
          "name": "",
          "type": "address"
        },
        {
          "internalType": "uint256",
          "name": "",
          "type": "uint256"
        },
        {
          "internalType": "uint256",
          "name": "",
          "type": "uint256"
        },
        {
          "internalType": "bytes",
          "name": "",
          "type": "bytes"
        }
      ],
      "name": "onERC1155Received",
      "outputs": [
        {
          "internalType": "bytes4",
          "name": "",
          "type": "bytes4"
        }
      ],
      "stateMutability": "nonpayable",
      "type": "function"
    },
    {
      "inputs": [],
      "name": "operatorRestriction",
      "outputs": [
        {
          "internalType": "bool",
          "name": "",
          "type": "bool"
        }
      ],
      "stateMutability": "view",
      "type": "function"
    },
    {
      "inputs": [],
      "name": "owner",
      "outputs": [
        {
          "internalType": "address",
          "name": "",
          "type": "address"
        }
      ],
      "stateMutability": "view",
      "type": "function"
    },
    {
      "inputs": [
        {
          "internalType": "uint256",
          "name": "tokenId",
          "type": "uint256"
        }
      ],
      "name": "ownerOf",
      "outputs": [
        {
          "internalType": "address",
          "name": "",
          "type": "address"
        }
      ],
      "stateMutability": "view",
      "type": "function"
    },
    {
      "inputs": [
        {
          "internalType": "uint256",
          "name": "tokenId",
          "type": "uint256"
        }
      ],
      "name": "restoreManaToFull",
      "outputs": [],
      "stateMutability": "nonpayable",
      "type": "function"
    },
    {
      "inputs": [
        {
          "internalType": "uint256",
          "name": "tokenId",
          "type": "uint256"
        }
      ],
      "name": "restoreStaminaToFull",
      "outputs": [],
      "stateMutability": "nonpayable",
      "type": "function"
    },
    {
      "inputs": [
        {
          "internalType": "uint256",
          "name": "tokenId",
          "type": "uint256"
        },
        {
          "internalType": "uint256",
          "name": "salePrice",
          "type": "uint256"
        }
      ],
      "name": "royaltyInfo",
      "outputs": [
        {
          "internalType": "address",
          "name": "receiver",
          "type": "address"
        },
        {
          "internalType": "uint256",
          "name": "royaltyAmount",
          "type": "uint256"
        }
      ],
      "stateMutability": "view",
      "type": "function"
    },
    {
      "inputs": [
        {
          "internalType": "address",
          "name": "from",
          "type": "address"
        },
        {
          "internalType": "address",
          "name": "to",
          "type": "address"
        },
        {
          "internalType": "uint256",
          "name": "tokenId",
          "type": "uint256"
        }
      ],
      "name": "safeTransferFrom",
      "outputs": [],
      "stateMutability": "nonpayable",
      "type": "function"
    },
    {
      "inputs": [
        {
          "internalType": "address",
          "name": "from",
          "type": "address"
        },
        {
          "internalType": "address",
          "name": "to",
          "type": "address"
        },
        {
          "internalType": "uint256",
          "name": "tokenId",
          "type": "uint256"
        },
        {
          "internalType": "bytes",
          "name": "data",
          "type": "bytes"
        }
      ],
      "name": "safeTransferFrom",
      "outputs": [],
      "stateMutability": "nonpayable",
      "type": "function"
    },
    {
      "inputs": [
        {
          "internalType": "address",
          "name": "operator",
          "type": "address"
        },
        {
          "internalType": "bool",
          "name": "approved",
          "type": "bool"
        }
      ],
      "name": "setApprovalForAll",
      "outputs": [],
      "stateMutability": "nonpayable",
      "type": "function"
    },
    {
      "inputs": [
        {
          "internalType": "address",
          "name": "_address",
          "type": "address"
        }
      ],
      "name": "setBattleContract",
      "outputs": [],
      "stateMutability": "nonpayable",
      "type": "function"
    },
    {
      "inputs": [
        {
          "internalType": "address",
          "name": "_address",
          "type": "address"
        }
      ],
      "name": "setBattleItems",
      "outputs": [],
      "stateMutability": "nonpayable",
      "type": "function"
    },
    {
      "inputs": [
        {
          "internalType": "address",
          "name": "_address",
          "type": "address"
        }
      ],
      "name": "setBattleSkills",
      "outputs": [],
      "stateMutability": "nonpayable",
      "type": "function"
    },
    {
      "inputs": [
        {
          "internalType": "address",
          "name": "_address",
          "type": "address"
        }
      ],
      "name": "setClassContract",
      "outputs": [],
      "stateMutability": "nonpayable",
      "type": "function"
    },
    {
      "inputs": [
        {
          "internalType": "address",
          "name": "_address",
          "type": "address"
        }
      ],
      "name": "setCompositeTokens",
      "outputs": [],
      "stateMutability": "nonpayable",
      "type": "function"
    },
    {
      "inputs": [
        {
          "internalType": "string",
          "name": "_uri",
          "type": "string"
        }
      ],
      "name": "setContractURI",
      "outputs": [],
      "stateMutability": "nonpayable",
      "type": "function"
    },
    {
      "inputs": [
        {
          "internalType": "address",
          "name": "_royaltyRecipient",
          "type": "address"
        },
        {
          "internalType": "uint256",
          "name": "_royaltyBps",
          "type": "uint256"
        }
      ],
      "name": "setDefaultRoyaltyInfo",
      "outputs": [],
      "stateMutability": "nonpayable",
      "type": "function"
    },
    {
      "inputs": [
        {
          "internalType": "address",
          "name": "_equipManagementAddress",
          "type": "address"
        }
      ],
      "name": "setEquipManagementContract",
      "outputs": [],
      "stateMutability": "nonpayable",
      "type": "function"
    },
    {
      "inputs": [
        {
          "internalType": "bool",
          "name": "_restriction",
          "type": "bool"
        }
      ],
      "name": "setOperatorRestriction",
      "outputs": [],
      "stateMutability": "nonpayable",
      "type": "function"
    },
    {
      "inputs": [
        {
          "internalType": "address",
          "name": "_newOwner",
          "type": "address"
        }
      ],
      "name": "setOwner",
      "outputs": [],
      "stateMutability": "nonpayable",
      "type": "function"
    },
    {
      "inputs": [
        {
          "internalType": "uint256",
          "name": "_tokenId",
          "type": "uint256"
        },
        {
          "internalType": "address",
          "name": "_recipient",
          "type": "address"
        },
        {
          "internalType": "uint256",
          "name": "_bps",
          "type": "uint256"
        }
      ],
      "name": "setRoyaltyInfoForToken",
      "outputs": [],
      "stateMutability": "nonpayable",
      "type": "function"
    },
    {
      "inputs": [
        {
          "internalType": "bytes4",
          "name": "interfaceId",
          "type": "bytes4"
        }
      ],
      "name": "supportsInterface",
      "outputs": [
        {
          "internalType": "bool",
          "name": "",
          "type": "bool"
        }
      ],
      "stateMutability": "view",
      "type": "function"
    },
    {
      "inputs": [],
      "name": "symbol",
      "outputs": [
        {
          "internalType": "string",
          "name": "",
          "type": "string"
        }
      ],
      "stateMutability": "view",
      "type": "function"
    },
    {
      "inputs": [
        {
          "internalType": "uint256",
          "name": "_tokenId",
          "type": "uint256"
        }
      ],
      "name": "tokenURI",
      "outputs": [
        {
          "internalType": "string",
          "name": "",
          "type": "string"
        }
      ],
      "stateMutability": "view",
      "type": "function"
    },
    {
      "inputs": [],
      "name": "totalSupply",
      "outputs": [
        {
          "internalType": "uint256",
          "name": "",
          "type": "uint256"
        }
      ],
      "stateMutability": "view",
      "type": "function"
    },
    {
      "inputs": [
        {
          "internalType": "address",
          "name": "from",
          "type": "address"
        },
        {
          "internalType": "address",
          "name": "to",
          "type": "address"
        },
        {
          "internalType": "uint256",
          "name": "tokenId",
          "type": "uint256"
        }
      ],
      "name": "transferFrom",
      "outputs": [],
      "stateMutability": "nonpayable",
      "type": "function"
    },
    {
      "inputs": [
        {
          "internalType": "uint256",
          "name": "characterTokenId",
          "type": "uint256"
        }
      ],
      "name": "unequipClass",
      "outputs": [],
      "stateMutability": "nonpayable",
      "type": "function"
    },
    {
      "inputs": [
        {
          "internalType": "uint256",
          "name": "characterTokenId",
          "type": "uint256"
        },
        {
          "internalType": "enum CharData.ItemType",
          "name": "itemType",
          "type": "uint8"
        }
      ],
      "name": "unequipItem",
      "outputs": [],
      "stateMutability": "nonpayable",
      "type": "function"
    },
    {
      "inputs": [
        {
          "internalType": "uint256",
          "name": "characterTokenId",
          "type": "uint256"
        },
        {
          "internalType": "uint256",
          "name": "skillId",
          "type": "uint256"
        }
      ],
      "name": "unequipSkill",
      "outputs": [],
      "stateMutability": "nonpayable",
      "type": "function"
    },
    {
      "inputs": [
        {
          "internalType": "uint256",
          "name": "_tokenId",
          "type": "uint256"
        },
        {
          "internalType": "string",
          "name": "_tokenURI",
          "type": "string"
        }
      ],
      "name": "updateURI",
      "outputs": [],
      "stateMutability": "nonpayable",
      "type": "function"
    }
  ],
  "bytecode": "0x6080604052600060145560646017553480156200001b57600080fd5b50336040518060400160405280600981526020016821b430b930b1ba32b960b91b8152506040518060400160405280600481526020016310d3919560e21b815250336000733cc6cdda760b79bafa08df41ecfa224f810dceb6600185858160029081620000899190620009a2565b506003620000988282620009a2565b506000805550506daaeb6d7670e522a718067333cd4e3b15620001e45780156200013257604051633e9f1edf60e11b81523060048201526001600160a01b03831660248201526daaeb6d7670e522a718067333cd4e90637d3e3dbe906044015b600060405180830381600087803b1580156200011357600080fd5b505af115801562000128573d6000803e3d6000fd5b50505050620001e4565b6001600160a01b03821615620001835760405163a0af290360e01b81523060048201526001600160a01b03831660248201526daaeb6d7670e522a718067333cd4e9063a0af290390604401620000f8565b604051632210724360e11b81523060048201526daaeb6d7670e522a718067333cd4e90634420e48690602401600060405180830381600087803b158015620001ca57600080fd5b505af1158015620001df573d6000803e3d6000fd5b505050505b50620001f2905033620005cb565b62000207826001600160801b0383166200061d565b620002136001620006c8565b5050601080546001600160a01b0319166001600160a01b03851617905550620005ba90506015604051806101c001604052806000815260200160018152602001600081526020016064815260200160648152602001600a815260200160648152602001606481526020016064815260200160648152602001606481526020016064815260200160058152602001600081525090806001815401808255809150506001900390600052602060002090600e0201600090919091909150600082015181600001556020820151816001015560408201518160020155606082015181600301556080820151816004015560a0820151816005015560c0820151816006015560e082015181600701556101008201518160080155610120820151816009015561014082015181600a015561016082015181600b015561018082015181600c01556101a082015181600d015550506015604051806101c001604052806000815260200160018152602001600081526020016064815260200160648152602001600a815260200160648152602001606481526020016064815260200160648152602001606481526020016064815260200160058152602001600181525090806001815401808255809150506001900390600052602060002090600e0201600090919091909150600082015181600001556020820151816001015560408201518160020155606082015181600301556080820151816004015560a0820151816005015560c0820151816006015560e082015181600701556101008201518160080155610120820151816009015561014082015181600a015561016082015181600b015561018082015181600c01556101a082015181600d015550506015604051806101c0016040528060008152602001600181526020016000815260200160648152602001606481526020016064815260200160648152602001606481526020016064815260200160648152602001606481526020016064815260200160058152602001600281525090806001815401808255809150506001900390600052602060002090600e0201600090919091909150600082015181600001556020820151816001015560408201518160020155606082015181600301556080820151816004015560a0820151816005015560c0820151816006015560e082015181600701556101008201518160080155610120820151816009015561014082015181600a015561016082015181600b015561018082015181600c01556101a082015181600d01555050565b620005c46200070f565b5062000a6e565b600980546001600160a01b038381166001600160a01b0319831681179093556040519116919082907f8292fce18fa69edf4db7b94ea2e58241df0ae57f97e0a6c9b29067028bf92d7690600090a35050565b612710811115620006665760405162461bcd60e51b815260206004820152600f60248201526e45786365656473206d61782062707360881b604482015260640160405180910390fd5b600a80546001600160a01b0384166001600160b01b03199091168117600160a01b61ffff851602179091556040518281527f90d7ec04bcb8978719414f82e52e4cb651db41d0e6f8cea6118c2191e6183adb9060200160405180910390a25050565b600e805460ff19168215159081179091556040519081527f38475885990d8dfe9ca01f0ef160a1b5514426eab9ddbc953a3353410ba780969060200160405180910390a150565b6016604051806060016040528060008152602001604051806040016040528060078152602001662bb0b93934b7b960c91b815250815260200160405180606001604052806035815260200162006465603591399052815460018181018455600093845260209384902083516003909302019182559282015191929091908201906200079b9082620009a2565b5060408201516002820190620007b29082620009a2565b5050506016604051806060016040528060018152602001604051806040016040528060048152602001634d61676560e01b8152508152602001604051806060016040528060358152602001620064cf603591399052815460018181018455600093845260209384902083516003909302019182559282015191929091908201906200083e9082620009a2565b5060408201516002820190620008559082620009a2565b505050601660405180606001604052806002815260200160405180604001604052806005815260200164526f67756560d81b81525081526020016040518060600160405280603581526020016200649a60359139905281546001818101845560009384526020938490208351600390930201918255928201519192909190820190620008e29082620009a2565b5060408201516002820190620008f99082620009a2565b505050565b634e487b7160e01b600052604160045260246000fd5b600181811c908216806200092957607f821691505b6020821081036200094a57634e487b7160e01b600052602260045260246000fd5b50919050565b601f821115620008f957600081815260208120601f850160051c81016020861015620009795750805b601f850160051c820191505b818110156200099a5782815560010162000985565b505050505050565b81516001600160401b03811115620009be57620009be620008fe565b620009d681620009cf845462000914565b8462000950565b602080601f83116001811462000a0e5760008415620009f55750858301515b600019600386901b1c1916600185901b1785556200099a565b600085815260208120601f198616915b8281101562000a3f5788860151825594840194600190910190840162000a1e565b508582101562000a5e5787850151600019600388901b60f8161c191681555b5050505050600190811b01905550565b6159e78062000a7e6000396000f3fe608060405234801561001057600080fd5b50600436106104695760003560e01c80636a0558a61161024c578063ac9650d811610146578063e2abdd52116100c3578063e8a3d48511610087578063e8a3d48514610c8f578063e985e9c514610c97578063f1be42f114610cd3578063f23a6e6114610cdc578063fe80c55d14610cfb57600080fd5b8063e2abdd5214610c30578063e2cb9a8414610c43578063e4c301eb14610c56578063e5f69e4114610c69578063e622563014610c7c57600080fd5b8063bcb7ea081161010a578063bcb7ea0814610b33578063c87b56dd14610b46578063d2e4c18914610b59578063d5937dae14610b6c578063dabb053114610b7f57600080fd5b8063ac9650d814610a64578063b24f2d3914610a84578063b88d4fde14610aa2578063bc197c8114610ab5578063bc51181614610aed57600080fd5b80638da5cb5b116101d45780639bcf7a15116101985780639bcf7a15146109f85780639c7e334c14610a0b5780639d9ea9f314610a1e578063a22cb46514610a3e578063a4b9943214610a5157600080fd5b80638da5cb5b146109a6578063938e3d7b146109b7578063954643ca146109ca57806395d89b41146109dd57806399898a7a146109e557600080fd5b8063739420a51161021b578063739420a514610947578063744e94aa1461095a578063754a81d91461096d57806381648e7014610980578063835576ed1461099357600080fd5b80636a0558a6146108fb5780636b87a4851461090e5780636ffd17d41461092157806370a082311461093457600080fd5b806332f0cd641161036857806345d5007e116102e55780635ada8456116102a95780635ada8456146108985780635cec1549146108ab578063600dd5ea146108cd5780636352211e146108e057806363b45e2d146108f357600080fd5b806345d5007e1461081d5780634cc157df14610830578063504c6e011461086557806355483d45146108725780635a5ffb2e1461088557600080fd5b806341463be11161032c57806341463be1146107ac57806341f43434146107cf57806342842e0e146107e457806342966c68146107f7578063430c20811461080a57600080fd5b806332f0cd64146106f15780633468f9cd146107045780633477979e14610717578063366e6fdb1461072a5780633b1475a7146107a457600080fd5b80630db6dff7116103f65780632401c739116103ba5780632401c739146106635780632419f51b146106865780632a55205a146106995780632c120156146106cb57806331d41c69146106de57600080fd5b80630db6dff71461059957806313af4035146105ac57806315d57827146105bf57806318160ddd1461063a57806323b872dd1461065057600080fd5b80630846ad481161043d5780630846ad48146104eb57806308ec6c3c14610540578063095ea7b3146105535780630d830190146105665780630db0de521461058657600080fd5b806275a3171461046e57806301ffc9a71461048357806306fdde03146104ab578063081812fc146104c0575b600080fd5b61048161047c366004614bff565b610d0e565b005b610496610491366004614c62565b610d92565b60405190151581526020015b60405180910390f35b6104b3610db2565b6040516104a29190614ccf565b6104d36104ce366004614ce2565b610e44565b6040516001600160a01b0390911681526020016104a2565b6105206104f9366004614ce2565b60126020526000908152604090208054600182015460028301546003909301549192909184565b6040805194855260208501939093529183015260608201526080016104a2565b61048161054e366004614cfb565b610e88565b610481610561366004614d16565b610ed4565b610579610574366004614ce2565b610eed565b6040516104a29190614d40565b610481610594366004614cfb565b610fd6565b6104816105a7366004614cfb565b611022565b6104816105ba366004614cfb565b61106e565b6105d26105cd366004614ce2565b61109e565b604080519e8f5260208f019d909d529b8d019a909a5260608c019890985260808b019690965260a08a019490945260c089019290925260e08801526101008701526101208601526101408501526101608401526101808301526101a08201526101c0016104a2565b600154600054035b6040519081526020016104a2565b61048161065e366004614dc5565b61111a565b610642610671366004614ce2565b60009081526013602052604090206002015490565b610642610694366004614ce2565b611145565b6106ac6106a7366004614e01565b6111b3565b604080516001600160a01b0390931683526020830191909152016104a2565b6104816106d9366004614e01565b6111f0565b6104816106ec366004614e23565b61125d565b6104816106ff366004614e61565b611291565b610481610712366004614ce2565b611302565b610481610725366004614ce2565b61134b565b6105d2610738366004614ce2565b601160205280600052604060002060009150905080600001549080600101549080600201549080600301549080600401549080600501549080600601549080600701549080600801549080600901549080600a01549080600b01549080600c01549080600d015490508e565b600054610642565b6106426107ba366004614ce2565b60136020526000908152604090206002015481565b6104d36daaeb6d7670e522a718067333cd4e81565b6104816107f2366004614dc5565b611390565b610481610805366004614ce2565b6113b5565b610496610818366004614d16565b6113c0565b61048161082b366004614e01565b61143f565b61084361083e366004614ce2565b61153a565b604080516001600160a01b03909316835261ffff9091166020830152016104a2565b600e546104969060ff1681565b601b546104d3906001600160a01b031681565b610481610893366004614e01565b6115a5565b6104816108a6366004614e01565b61163b565b6108be6108b9366004614ce2565b611725565b6040516104a293929190614e7e565b6104816108db366004614d16565b61186b565b6104d36108ee366004614ce2565b611899565b600c54610642565b610481610909366004614e01565b6118ab565b61048161091c366004614cfb565b611997565b601c546104d3906001600160a01b031681565b610642610942366004614cfb565b611b7e565b610481610955366004614e01565b611bcc565b610642610968366004614ce2565b611ca3565b61048161097b366004614ea9565b611d20565b61048161098e366004614cfb565b611d8e565b6104816109a1366004614ce2565b611dda565b6009546001600160a01b03166104d3565b6104816109c5366004614f26565b612010565b601a546104d3906001600160a01b031681565b6104b361203d565b601e546104d3906001600160a01b031681565b610481610a06366004614f5a565b61204c565b610481610a19366004614f7f565b61207b565b610a31610a2c366004614ce2565b612185565b6040516104a29190614fba565b610481610a4c366004614ffe565b6121e7565b610642610a5f366004615042565b6121fb565b610a77610a72366004615067565b612247565b6040516104a291906150db565b600a546001600160a01b03811690600160a01b900461ffff16610843565b610481610ab036600461513d565b61233b565b610ad4610ac3366004615217565b63bc197c8160e01b95945050505050565b6040516001600160e01b031990911681526020016104a2565b610b00610afb366004614ce2565b612361565b6040516104a291908151815260208083015190820152604080830151908201526060918201519181019190915260800190565b610481610b41366004614e01565b612426565b6104b3610b54366004614ce2565b612473565b610481610b67366004614ce2565b612561565b610481610b7a366004614cfb565b612690565b610b92610b8d366004614ce2565b6126dc565b6040516104a29190815181526020808301519082015260408083015190820152606080830151908201526080808301519082015260a0808301519082015260c0808301519082015260e08083015190820152610100808301519082015261012080830151908201526101408083015190820152610160808301519082015261018080830151908201526101a091820151918101919091526101c00190565b610481610c3e3660046152c0565b6127fe565b601d546104d3906001600160a01b031681565b610481610c64366004614e01565b612a75565b610481610c77366004614e01565b612bba565b610642610c8a366004614ce2565b612f64565b6104b3612fcc565b610496610ca53660046152f9565b6001600160a01b03918216600090815260076020908152604080832093909416825291909152205460ff1690565b61064260145481565b610ad4610cea36600461532c565b63f23a6e6160e01b95945050505050565b610481610d09366004615042565b61305a565b610d166132e1565b610d615760405162461bcd60e51b81526020600482015260176024820152762737ba1030baba3437b934bd32b2103a379036b4b73a1760491b60448201526064015b60405180910390fd5b610d73610d6d60005490565b8261330e565b610d8e82600160405180602001604052806000815250613326565b5050565b6000610d9d826134c9565b80610dac5750610dac82613535565b92915050565b606060028054610dc190615390565b80601f0160208091040260200160405190810160405280929190818152602001828054610ded90615390565b8015610e3a5780601f10610e0f57610100808354040283529160200191610e3a565b820191906000526020600020905b815481529060010190602001808311610e1d57829003601f168201915b5050505050905090565b6000610e4f8261355a565b610e6c576040516333d1c03960e21b815260040160405180910390fd5b506000908152600660205260409020546001600160a01b031690565b6009546001600160a01b03163314610eb25760405162461bcd60e51b8152600401610d58906153ca565b601a80546001600160a01b0319166001600160a01b0392909216919091179055565b81610ede81613585565b610ee88383613649565b505050565b610f266040518060c001604052806000815260200160008152602001600081526020016000815260200160008152602001606081525090565b60008281526011602090815260409182902060038101548452600581015491840191909152600681015491830191909152610f6083611ca3565b6060830152600d810154608083015260008381526013602090815260409182902080548351818402810184019094528084529091830182828015610fc357602002820191906000526020600020905b815481526020019060010190808311610faf575b50505050508260a0018190525050919050565b6009546001600160a01b031633146110005760405162461bcd60e51b8152600401610d58906153ca565b601b80546001600160a01b0319166001600160a01b0392909216919091179055565b6009546001600160a01b0316331461104c5760405162461bcd60e51b8152600401610d58906153ca565b601880546001600160a01b0319166001600160a01b0392909216919091179055565b6110766132e1565b6110925760405162461bcd60e51b8152600401610d58906153ca565b61109b816136ca565b50565b601581815481106110ae57600080fd5b90600052602060002090600e020160009150905080600001549080600101549080600201549080600301549080600401549080600501549080600601549080600701549080600801549080600901549080600a01549080600b01549080600c01549080600d015490508e565b826001600160a01b03811633146111345761113433613585565b61113f84848461371c565b50505050565b6000611150600c5490565b821061118e5760405162461bcd60e51b815260206004820152600d60248201526c092dcecc2d8d2c840d2dcc8caf609b1b6044820152606401610d58565b600c82815481106111a1576111a16153f2565b90600052602060002001549050919050565b6000806000806111c28661153a565b90945084925061ffff1690506127106111db828761541e565b6111e5919061544b565b925050509250929050565b6010546001600160a01b0316331461121a5760405162461bcd60e51b8152600401610d58906153ca565b60008281526012602052604081209061123284612f64565b90506000611240848361545f565b9050606481111561124f575060645b825550426002909101555050565b6009546001600160a01b031633146112875760405162461bcd60e51b8152600401610d58906153ca565b610d8e828261330e565b6112996132e1565b6112f95760405162461bcd60e51b815260206004820152602b60248201527f4e6f7420617574686f72697a656420746f20736574206f70657261746f72207260448201526a32b9ba3934b1ba34b7b71760a91b6064820152608401610d58565b61109b81613727565b6010546001600160a01b0316331461132c5760405162461bcd60e51b8152600401610d58906153ca565b6000908152601260209081526040909120601190915242600390910155565b6010546001600160a01b031633146113755760405162461bcd60e51b8152600401610d58906153ca565b60009081526012602052604090206064815542600290910155565b826001600160a01b03811633146113aa576113aa33613585565b61113f84848461376e565b61109b816001613789565b6000806113cc83611899565b9050806001600160a01b0316846001600160a01b0316148061141357506001600160a01b0380821660009081526007602090815260408083209388168352929052205460ff165b806114375750836001600160a01b031661142c84610e44565b6001600160a01b0316145b949350505050565b6018546001600160a01b031633146114695760405162461bcd60e51b8152600401610d5890615472565b600082815260126020908152604080832060119092529182902091516330c6919360e01b815260048101829052602481018390526044810184905290919073__$500a10fa9d461fc90c8a058ae925f037b6$__906330c691939060640160006040518083038186803b1580156114de57600080fd5b505af41580156114f2573d6000803e3d6000fd5b50505050837f745e4898b29226a973c2265f8722cf0a83c357f03c529c0e14c4e91d61cffbb5826004015460405161152c91815260200190565b60405180910390a250505050565b6000818152600b60209081526040808320815180830190925280546001600160a01b031680835260019091015492820192909252829115611581578051602082015161159b565b600a546001600160a01b03811690600160a01b900461ffff165b9250925050915091565b6010546001600160a01b031633146115cf5760405162461bcd60e51b8152600401610d58906153ca565b600082815260126020908152604080832060119092529091206115f381838561393c565b837f745e4898b29226a973c2265f8722cf0a83c357f03c529c0e14c4e91d61cffbb5601160008781526020019081526020016000206004015460405161152c91815260200190565b61164482611dda565b601c5460405163bfa0fedb60e01b8152600481018390523360248201526001600160a01b039091169063bfa0fedb90604401600060405180830381600087803b15801561169057600080fd5b505af11580156116a4573d6000803e3d6000fd5b5050601e546014546001600160a01b039091169250636a950a8391506116cc906001906154b3565b836001336040518563ffffffff1660e01b81526004016116ef94939291906154dc565b600060405180830381600087803b15801561170957600080fd5b505af115801561171d573d6000803e3d6000fd5b505050505050565b6016818154811061173557600080fd5b6000918252602090912060039091020180546001820180549193509061175a90615390565b80601f016020809104026020016040519081016040528092919081815260200182805461178690615390565b80156117d35780601f106117a8576101008083540402835291602001916117d3565b820191906000526020600020905b8154815290600101906020018083116117b657829003601f168201915b5050505050908060020180546117e890615390565b80601f016020809104026020016040519081016040528092919081815260200182805461181490615390565b80156118615780601f1061183657610100808354040283529160200191611861565b820191906000526020600020905b81548152906001019060200180831161184457829003601f168201915b5050505050905083565b6118736132e1565b61188f5760405162461bcd60e51b8152600401610d58906153ca565b610d8e828261397d565b60006118a482613a24565b5192915050565b6018546001600160a01b031633146118d55760405162461bcd60e51b8152600401610d5890615472565b60008281526011602052604090819020601754915162336f0b60e01b8152600481018290526024810184905260448101929092529073__$500a10fa9d461fc90c8a058ae925f037b6$__9062336f0b9060640160006040518083038186803b15801561194057600080fd5b505af4158015611954573d6000803e3d6000fd5b50505050827f9a64fe26f5c4acf69f9833056562e90ac966327ef9edc96700beab568bbdac168360405161198a91815260200190565b60405180910390a2505050565b6009546001600160a01b031633146119c15760405162461bcd60e51b8152600401610d58906153ca565b601e546001600160a01b031615611a325760405162461bcd60e51b815260206004820152602f60248201527f45717569704d616e6167656d656e7420636f6e7472616374206164647265737360448201526e081a5cc8185b1c9958591e481cd95d608a1b6064820152608401610d58565b601e80546001600160a01b0319166001600160a01b03838116918217909255601c5460405163a22cb46560e01b81526004810192909252600160248301529091169063a22cb46590604401600060405180830381600087803b158015611a9757600080fd5b505af1158015611aab573d6000803e3d6000fd5b5050601b5460405163a22cb46560e01b81526001600160a01b03858116600483015260016024830152909116925063a22cb4659150604401600060405180830381600087803b158015611afd57600080fd5b505af1158015611b11573d6000803e3d6000fd5b5050601d5460405163a22cb46560e01b81526001600160a01b03858116600483015260016024830152909116925063a22cb4659150604401600060405180830381600087803b158015611b6357600080fd5b505af1158015611b77573d6000803e3d6000fd5b5050505050565b60006001600160a01b038216611ba7576040516323d3ad8160e21b815260040160405180910390fd5b506001600160a01b03166000908152600560205260409020546001600160401b031690565b6018546001600160a01b03163314611bf65760405162461bcd60e51b8152600401610d5890615472565b600082815260126020526040908190209051636f39b13760e11b8152600481018290526024810183905273__$500a10fa9d461fc90c8a058ae925f037b6$__9063de73626e9060440160006040518083038186803b158015611c5757600080fd5b505af4158015611c6b573d6000803e3d6000fd5b505082546040519081528592507f54d8968607528ba0a500c8ca37b787bcc514c33b28b43efa81e195ffb88fee51915060200161198a565b60008181526012602090815260408083206011909252822060038201548390611ccc90426154b3565b90506000610708846001015483611ce3919061541e565b611ced919061544b565b90506000818460040154611d01919061545f565b90508460010154811115611d16575060018401545b9695505050505050565b611d286132e1565b611d6e5760405162461bcd60e51b81526020600482015260176024820152762737ba1030baba3437b934bd32b2103a379036b4b73a1760491b6044820152606401610d58565b611d81611d7a60005490565b8484613b3e565b505061113f848483613326565b6009546001600160a01b03163314611db85760405162461bcd60e51b8152600401610d58906153ca565b601d80546001600160a01b0319166001600160a01b0392909216919091179055565b6016548110611e2b5760405162461bcd60e51b815260206004820152601960248201527f496e76616c6964206368617261637465722074797065204944000000000000006044820152606401610d58565b611e36336001613ba2565b611eeb60168281548110611e4c57611e4c6153f2565b90600052602060002090600302016002018054611e6890615390565b80601f0160208091040260200160405190810160405280929190818152602001828054611e9490615390565b8015611ee15780601f10611eb657610100808354040283529160200191611ee1565b820191906000526020600020905b815481529060010190602001808311611ec457829003601f168201915b5050505050613bbc565b611ef6601454613bff565b611fae60145460168381548110611f0f57611f0f6153f2565b90600052602060002090600302016002018054611f2b90615390565b80601f0160208091040260200160405190810160405280929190818152602001828054611f5790615390565b8015611fa45780601f10611f7957610100808354040283529160200191611fa4565b820191906000526020600020905b815481529060010190602001808311611f8757829003601f168201915b505050505061330e565b60145460405182815233907fd4a95b11484f5e9358b888b250a18a34707faa5c6e49c20dc64315abd077035b9060200160405180910390a3611fef81613c44565b611ff881613fcf565b6014805490600061200883615528565b919050555050565b6120186132e1565b6120345760405162461bcd60e51b8152600401610d58906153ca565b61109b8161409c565b606060038054610dc190615390565b6120546132e1565b6120705760405162461bcd60e51b8152600401610d58906153ca565b610ee8838383614178565b6010546001600160a01b031633146120a55760405162461bcd60e51b8152600401610d58906153ca565b600085815260116020526040908190209051635de6438960e01b8152600481018290526024810186905260448101859052606481018490526084810183905273__$500a10fa9d461fc90c8a058ae925f037b6$__90635de643899060a40160006040518083038186803b15801561211b57600080fd5b505af415801561212f573d6000803e3d6000fd5b50506040805188815260208101889052908101869052606081018590528892507f91880eb2655ae83ee3b14d19938b63c2f3077ecf91ef7b3118006e333490ab1f915060800160405180910390a2505050505050565b6000818152601360209081526040918290208054835181840281018401909452808452606093928301828280156121db57602002820191906000526020600020905b8154815260200190600101908083116121c7575b50505050509050919050565b816121f181613585565b610ee88383614241565b60008281526013602052604081206001018183600481111561221f5761221f6154c6565b6004811115612230576122306154c6565b815260200190815260200160002054905092915050565b6060816001600160401b0381111561226157612261614af1565b60405190808252806020026020018201604052801561229457816020015b606081526020019060019003908161227f5790505b50905060005b8281101561233457612304308585848181106122b8576122b86153f2565b90506020028101906122ca9190615541565b8080601f0160208091040260200160405190810160405280939291908181526020018383808284376000920191909152506142d692505050565b828281518110612316576123166153f2565b6020026020010181905250808061232c90615528565b91505061229a565b5092915050565b836001600160a01b03811633146123555761235533613585565b611b7785858585614302565b61238c6040518060800160405280600081526020016000815260200160008152602001600081525090565b60008281526012602052604081206002015490036123e15760405162461bcd60e51b8152602060048201526012602482015271151bdad95b881251081b9bdd08199bdd5b9960721b6044820152606401610d58565b50600090815260126020908152604091829020825160808101845281548152600182015492810192909252600281015492820192909252600390910154606082015290565b601e546001600160a01b031633146124505760405162461bcd60e51b8152600401610d58906153ca565b600091825260136020908152604083208054600181018255908452922090910155565b60008181526019602052604081208054606092919061249190615390565b80601f01602080910402602001604051908101604052809291908181526020018280546124bd90615390565b801561250a5780601f106124df5761010080835404028352916020019161250a565b820191906000526020600020905b8154815290600101906020018083116124ed57829003601f168201915b505050505090506000815111156125215792915050565b600061252c84614346565b905080612538856144e2565b60405160200161254992919061558e565b60405160208183030381529060405292505050919050565b3361256b82611899565b6001600160a01b0316146125c15760405162461bcd60e51b815260206004820152601e60248201527f4e6f7420746865206f776e6572206f66207468652063686172616374657200006044820152606401610d58565b600081815260136020526040812060020154908190036126175760405162461bcd60e51b8152602060048201526011602482015270139bc818db185cdcc8195c5d5a5c1c1959607a1b6044820152606401610d58565b604051819083907f7e61635513fe31aafbbe8d9f28e1480aaac99ddecc10839a6fad06f460a8fb1d90600090a360008281526013602052604080822060020191909155601a549051637921219560e11b81526001600160a01b039091169063f242432a906116ef903090339086906001906004016155bd565b6009546001600160a01b031633146126ba5760405162461bcd60e51b8152600401610d58906153ca565b601c80546001600160a01b0319166001600160a01b0392909216919091179055565b61274e604051806101c0016040528060008152602001600081526020016000815260200160008152602001600081526020016000815260200160008152602001600081526020016000815260200160008152602001600081526020016000815260200160008152602001600081525090565b5060009081526011602090815260409182902082516101c081018452815481526001820154928101929092526002810154928201929092526003820154606082015260048201546080820152600582015460a0820152600682015460c0820152600782015460e082015260088201546101008201526009820154610120820152600a820154610140820152600b820154610160820152600c820154610180820152600d909101546101a082015290565b601e546001600160a01b031633146128285760405162461bcd60e51b8152600401610d58906153ca565b60008381526013602090815260408083206011909252909120612849614a8f565b61271085111561294657601d5460405163681377c960e01b8152600481018790526000916001600160a01b03169063681377c99060240161014060405180830381865afa15801561289e573d6000803e3d6000fd5b505050506040513d601f19601f820116820180604052508101906128c29190615600565b6080810151601b54604051633129e77360e01b81526004810183905292935090916001600160a01b0390911690633129e77390602401600060405180830381865afa158015612915573d6000803e3d6000fd5b505050506040513d6000823e601f3d908101601f1916820160405261293d9190810190615695565b925050506129ba565b601b54604051633129e77360e01b8152600481018790526001600160a01b0390911690633129e77390602401600060405180830381865afa15801561298f573d6000803e3d6000fd5b505050506040513d6000823e601f3d908101601f191682016040526129b79190810190615695565b90505b80602001518260050160008282546129d2919061545f565b909155505060408101516006830180546000906129f090849061545f565b90915550506060810151600383018054600090612a0e90849061545f565b90915550506080810151600483018054600090612a2c90849061545f565b90915550859050600184016000866004811115612a4b57612a4b6154c6565b6004811115612a5c57612a5c6154c6565b8152602081019190915260400160002055505050505050565b601e546001600160a01b03163314612a9f5760405162461bcd60e51b8152600401610d58906153ca565b6000828152601360205260408120805490915b8254811015612afb5783836000018281548110612ad157612ad16153f2565b906000526020600020015403612ae957809150612afb565b80612af381615528565b915050612ab2565b5081548110612b415760405162461bcd60e51b815260206004820152601260248201527114dada5b1b081b9bdd08195c5d5a5c1c195960721b6044820152606401610d58565b81548290612b51906001906154b3565b81548110612b6157612b616153f2565b9060005260206000200154826000018281548110612b8157612b816153f2565b6000918252602090912001558154829080612b9e57612b9e615774565b6001900381819060005260206000200160009055905550505050565b6014548210612c0b5760405162461bcd60e51b815260206004820152601a60248201527f496e76616c69642063686172616374657220746f6b656e2049440000000000006044820152606401610d58565b33612c1583611899565b6001600160a01b031614612c6b5760405162461bcd60e51b815260206004820152601e60248201527f4e6f7420746865206f776e6572206f66207468652063686172616374657200006044820152606401610d58565b601a5460405163bd85b03960e01b8152600481018390526000916001600160a01b03169063bd85b03990602401602060405180830381865afa158015612cb5573d6000803e3d6000fd5b505050506040513d601f19601f82011682018060405250810190612cd9919061578a565b11612d195760405162461bcd60e51b815260206004820152601060248201526f125b9d985b1a590818db185cdcc8125160821b6044820152606401610d58565b601a54604051627eeac760e11b8152336004820152602481018390526000916001600160a01b03169062fdd58e90604401602060405180830381865afa158015612d67573d6000803e3d6000fd5b505050506040513d601f19601f82011682018060405250810190612d8b919061578a565b11612dd85760405162461bcd60e51b815260206004820152601a60248201527f4e6f7420746865206f776e6572206f662074686520636c6173730000000000006044820152606401610d58565b600082815260136020526040902060020154819003612e325760405162461bcd60e51b815260206004820152601660248201527510db185cdcc8185b1c9958591e48195c5d5a5c1c195960521b6044820152606401610d58565b6000828152601360205260409020600201548015612eb457601a54604051637921219560e11b81526001600160a01b039091169063f242432a90612e81903090339086906001906004016155bd565b600060405180830381600087803b158015612e9b57600080fd5b505af1158015612eaf573d6000803e3d6000fd5b505050505b60008381526013602052604090819020600201839055601a549051637921219560e11b81526001600160a01b039091169063f242432a90612f00903390309087906001906004016155bd565b600060405180830381600087803b158015612f1a57600080fd5b505af1158015612f2e573d6000803e3d6000fd5b50506040518492508591507f9ec2a1abbc94cda98705c1bcace42186fb5bb291c4f4e5a55afb5dbc174e9ce390600090a3505050565b600081815260126020526040812060028101548290612f8390426154b3565b9050600062015180612f9683606461541e565b612fa0919061544b565b90506000818460000154612fb4919061545f565b90506064811115612fc3575060645b95945050505050565b60088054612fd990615390565b80601f016020809104026020016040519081016040528092919081815260200182805461300590615390565b80156130525780601f1061302757610100808354040283529160200191613052565b820191906000526020600020905b81548152906001019060200180831161303557829003601f168201915b505050505081565b601e546001600160a01b031633146130845760405162461bcd60e51b8152600401610d58906153ca565b600082815260136020908152604080832060119092528220909160018301818560048111156130b5576130b56154c6565b60048111156130c6576130c66154c6565b81526020019081526020016000205490506130df614a8f565b6127108211156131dc57601d5460405163681377c960e01b8152600481018490526000916001600160a01b03169063681377c99060240161014060405180830381865afa158015613134573d6000803e3d6000fd5b505050506040513d601f19601f820116820180604052508101906131589190615600565b6080810151601b54604051633129e77360e01b81526004810183905292935090916001600160a01b0390911690633129e77390602401600060405180830381865afa1580156131ab573d6000803e3d6000fd5b505050506040513d6000823e601f3d908101601f191682016040526131d39190810190615695565b92505050613250565b601b54604051633129e77360e01b8152600481018490526001600160a01b0390911690633129e77390602401600060405180830381865afa158015613225573d6000803e3d6000fd5b505050506040513d6000823e601f3d908101601f1916820160405261324d9190810190615695565b90505b806020015183600501600082825461326891906154b3565b909155505060408101516006840180546000906132869084906154b3565b909155505060608101516003840180546000906132a49084906154b3565b909155505060808101516004840180546000906132c29084906154b3565b90915550600090506001850181876004811115612a4b57612a4b6154c6565b60006132f56009546001600160a01b031690565b6001600160a01b0316336001600160a01b031614905090565b6000828152601960205260409020610ee882826157e9565b6000546001600160a01b03841661334f57604051622e076360e81b815260040160405180910390fd5b826000036133705760405163b562e8dd60e01b815260040160405180910390fd5b6001600160a01b038416600081815260056020908152604080832080546fffffffffffffffffffffffffffffffff1981166001600160401b038083168b0181169182176801000000000000000067ffffffffffffffff1990941690921783900481168b01811690920217909155858452600490925290912080546001600160e01b0319168317600160a01b42909316929092029190911790558190818501903b15613486575b60405182906001600160a01b03881690600090600080516020615992833981519152908290a461344f60008784806001019550876145e2565b61346c576040516368d2bf6b60e11b815260040160405180910390fd5b80821061341657826000541461348157600080fd5b6134b9565b5b6040516001830192906001600160a01b03881690600090600080516020615992833981519152908290a4808210613487575b50600090815561113f9085838684565b60006301ffc9a760e01b6001600160e01b0319831614806134fa57506380ac58cd60e01b6001600160e01b03198316145b806135155750635b5e139f60e01b6001600160e01b03198316145b80610dac57506001600160e01b0319821663152a902d60e11b1492915050565b60006001600160e01b03198216630271189760e51b1480610dac5750610dac826134c9565b6000805482108015610dac575050600090815260046020526040902054600160e01b900460ff161590565b600e5460ff161561109b576daaeb6d7670e522a718067333cd4e3b1561109b57604051633185c44d60e21b81523060048201526001600160a01b03821660248201526daaeb6d7670e522a718067333cd4e9063c617113490604401602060405180830381865afa1580156135fd573d6000803e3d6000fd5b505050506040513d601f19601f8201168201806040525081019061362191906158a8565b61109b57604051633b79c77360e21b81526001600160a01b0382166004820152602401610d58565b600061365482611899565b9050806001600160a01b0316836001600160a01b0316036136885760405163250fdee360e21b815260040160405180910390fd5b336001600160a01b038216146136bf576136a28133610ca5565b6136bf576040516367d9dca160e11b815260040160405180910390fd5b610ee88383836146cd565b600980546001600160a01b038381166001600160a01b0319831681179093556040519116919082907f8292fce18fa69edf4db7b94ea2e58241df0ae57f97e0a6c9b29067028bf92d7690600090a35050565b610ee8838383614729565b600e805460ff19168215159081179091556040519081527f38475885990d8dfe9ca01f0ef160a1b5514426eab9ddbc953a3353410ba780969060200160405180910390a150565b610ee88383836040518060200160405280600081525061233b565b600061379483613a24565b805190915082156137fa576000336001600160a01b03831614806137bd57506137bd8233610ca5565b806137d85750336137cd86610e44565b6001600160a01b0316145b9050806137f857604051632ce44b5f60e11b815260040160405180910390fd5b505b613806600085836146cd565b6001600160a01b0380821660008181526005602090815260408083208054600160801b6000196001600160401b0380841691909101811667ffffffffffffffff198416811783900482166001908101831690930277ffffffffffffffff0000000000000000ffffffffffffffff19909416179290921783558b86526004909452828520805460ff60e01b1942909316600160a01b026001600160e01b03199091169097179690961716600160e01b17855591890180845292208054919490911661390457600054821461390457805460208701516001600160401b0316600160a01b026001600160e01b03199091166001600160a01b038716171781555b5050604051869250600091506001600160a01b03841690600080516020615992833981519152908390a4505060018054810190555050565b6004830154600061394d8486614902565b9050600061395b848361545f565b9050828111156139685750815b60049095019490945550504260039091015550565b6127108111156139c15760405162461bcd60e51b815260206004820152600f60248201526e45786365656473206d61782062707360881b6044820152606401610d58565b600a80546001600160a01b0384166001600160b01b03199091168117600160a01b61ffff851602179091556040518281527f90d7ec04bcb8978719414f82e52e4cb651db41d0e6f8cea6118c2191e6183adb906020015b60405180910390a25050565b604080516060810182526000808252602082018190529181019190915281600054811015613b2557600081815260046020908152604091829020825160608101845290546001600160a01b0381168252600160a01b81046001600160401b031692820192909252600160e01b90910460ff16151591810182905290613b235780516001600160a01b031615613aba579392505050565b5060001901600081815260046020908152604091829020825160608101845290546001600160a01b038116808352600160a01b82046001600160401b031693830193909352600160e01b900460ff1615159281019290925215613b1e579392505050565b613aba565b505b604051636f96cda160e11b815260040160405180910390fd5b600080613b4b848661545f565b600c8054600181019091557fdf6966c971051c3d54ec59162606531493a51404a002842f56009d7e5cf4a8c7018190556000818152600d60205260409020909250829150613b9984826157e9565b50935093915050565b610d8e828260405180602001604052806000815250613326565b61109b81604051602401613bd09190614ccf565b60408051601f198184030181529190526020810180516001600160e01b031663104c13eb60e21b179052614967565b61109b81604051602401613c1591815260200190565b60408051601f198184030181529190526020810180516001600160e01b031663f82c50f160e01b179052614967565b6000604051806101c00160405280601454815260200160158481548110613c6d57613c6d6153f2565b90600052602060002090600e020160010154815260200160158481548110613c9757613c976153f2565b90600052602060002090600e020160020154815260200160158481548110613cc157613cc16153f2565b90600052602060002090600e020160030154815260200160158481548110613ceb57613ceb6153f2565b90600052602060002090600e020160040154815260200160158481548110613d1557613d156153f2565b90600052602060002090600e020160050154815260200160158481548110613d3f57613d3f6153f2565b90600052602060002090600e020160060154815260200160158481548110613d6957613d696153f2565b90600052602060002090600e020160070154815260200160158481548110613d9357613d936153f2565b90600052602060002090600e020160080154815260200160158481548110613dbd57613dbd6153f2565b90600052602060002090600e020160090154815260200160158481548110613de757613de76153f2565b90600052602060002090600e0201600a0154815260200160158481548110613e1157613e116153f2565b90600052602060002090600e0201600b0154815260200160158481548110613e3b57613e3b6153f2565b90600052602060002090600e0201600c0154815260200183815250905080601160006014548152602001908152602001600020600082015181600001556020820151816001015560408201518160020155606082015181600301556080820151816004015560a0820151816005015560c0820151816006015560e082015181600701556101008201518160080155610120820151816009015561014082015181600a015561016082015181600b015561018082015181600c01556101a082015181600d01559050506014547f672e8a5a5ea4546e9da80d8c45321ef467df52d7498dae7ec971387bc464bc6682602001518360400151846060015185608001518660a001518760c001518860e001518961010001518a61012001518b61014001518c61016001518d6101800151604051613a189c9b9a999897969594939291909b8c5260208c019a909a5260408b019890985260608a0196909652608089019490945260a088019290925260c087015260e08601526101008501526101208401526101408301526101608201526101800190565b600060405180608001604052806064815260200160158481548110613ff657613ff66153f2565b60009182526020808320600e929092029091016004015483524283820181905260409384015260148054835260128252918390208451808255858301516001830181905586860151600284018190556060808901516003909501859055955487519384529483019190915294810194909452918301919091529192507f19da20281546911260f62aa6f6b5e92d810a46f937d6030f91dca6442df4dfb490608001613a18565b6000600880546140ab90615390565b80601f01602080910402602001604051908101604052809291908181526020018280546140d790615390565b80156141245780601f106140f957610100808354040283529160200191614124565b820191906000526020600020905b81548152906001019060200180831161410757829003601f168201915b50505050509050816008908161413a91906157e9565b507fc9c7c3fe08b88b4df9d4d47ef47d2c43d55c025a0ba88ca442580ed9e7348a16818360405161416c9291906158c5565b60405180910390a15050565b6127108111156141bc5760405162461bcd60e51b815260206004820152600f60248201526e45786365656473206d61782062707360881b6044820152606401610d58565b6040805180820182526001600160a01b0384811680835260208084018681526000898152600b8352869020945185546001600160a01b031916941693909317845591516001909301929092559151838152909185917f7365cf4122f072a3365c20d54eff9b38d73c096c28e1892ec8f5b0e403a0f12d910160405180910390a3505050565b336001600160a01b0383160361426a5760405163b06307db60e01b815260040160405180910390fd5b3360008181526007602090815260408083206001600160a01b03871680855290835292819020805460ff191686151590811790915590519081529192917f17307eab39ab6107e8899845ad3d59bd9653f200f220920489ca2b5937696c31910160405180910390a35050565b60606142fb838360405180606001604052806027815260200161596b60279139614988565b9392505050565b61430d848484614729565b6001600160a01b0383163b1561113f57614329848484846145e2565b61113f576040516368d2bf6b60e11b815260040160405180910390fd5b60606000614353600c5490565b90506000600c8054806020026020016040519081016040528092919081815260200182805480156143a357602002820191906000526020600020905b81548152602001906001019080831161438f575b5050505050905060005b828110156144a7578181815181106143c7576143c76153f2565b602002602001015185101561449557600d60008383815181106143ec576143ec6153f2565b60200260200101518152602001908152602001600020805461440d90615390565b80601f016020809104026020016040519081016040528092919081815260200182805461443990615390565b80156144865780601f1061445b57610100808354040283529160200191614486565b820191906000526020600020905b81548152906001019060200180831161446957829003601f168201915b50505050509350505050919050565b6144a060018261545f565b90506143ad565b5060405162461bcd60e51b815260206004820152600f60248201526e125b9d985b1a59081d1bdad95b9259608a1b6044820152606401610d58565b6060816000036145095750506040805180820190915260018152600360fc1b602082015290565b8160005b8115614533578061451d81615528565b915061452c9050600a8361544b565b915061450d565b6000816001600160401b0381111561454d5761454d614af1565b6040519080825280601f01601f191660200182016040528015614577576020820181803683370190505b5090505b84156114375761458c6001836154b3565b9150614599600a866158ea565b6145a490603061545f565b60f81b8183815181106145b9576145b96153f2565b60200101906001600160f81b031916908160001a9053506145db600a8661544b565b945061457b565b604051630a85bd0160e11b81526000906001600160a01b0385169063150b7a02906146179033908990889088906004016158fe565b6020604051808303816000875af1925050508015614652575060408051601f3d908101601f1916820190925261464f91810190615931565b60015b6146b0573d808015614680576040519150601f19603f3d011682016040523d82523d6000602084013e614685565b606091505b5080516000036146a8576040516368d2bf6b60e11b815260040160405180910390fd5b805181602001fd5b6001600160e01b031916630a85bd0160e11b149050949350505050565b60008281526006602052604080822080546001600160a01b0319166001600160a01b0387811691821790925591518593918516917f8c5be1e5ebec7d5bd14f71427d1e84f3dd0314c0f7b2291e5b200ac8c7c3b92591a4505050565b600061473482613a24565b9050836001600160a01b031681600001516001600160a01b03161461476b5760405162a1148160e81b815260040160405180910390fd5b6000336001600160a01b038616148061478957506147898533610ca5565b806147a457503361479984610e44565b6001600160a01b0316145b9050806147c457604051632ce44b5f60e11b815260040160405180910390fd5b6001600160a01b0384166147eb57604051633a954ecd60e21b815260040160405180910390fd5b6147f7600084876146cd565b6001600160a01b038581166000908152600560209081526040808320805467ffffffffffffffff198082166001600160401b0392831660001901831617909255898616808652838620805493841693831660019081018416949094179055898652600490945282852080546001600160e01b031916909417600160a01b429092169190910217835587018084529220805491939091166148cb5760005482146148cb57805460208601516001600160401b0316600160a01b026001600160e01b03199091166001600160a01b038a16171781555b50505082846001600160a01b0316866001600160a01b031660008051602061599283398151915260405160405180910390a4611b77565b60008083600301544261491591906154b3565b9050600061070885600101548361492c919061541e565b614936919061544b565b9050600081856004015461494a919061545f565b90508560010154811115612fc35750600185015495945050505050565b80516a636f6e736f6c652e6c6f67602083016000808483855afa5050505050565b60606001600160a01b0384163b6149f05760405162461bcd60e51b815260206004820152602660248201527f416464726573733a2064656c65676174652063616c6c20746f206e6f6e2d636f6044820152651b9d1c9858dd60d21b6064820152608401610d58565b600080856001600160a01b031685604051614a0b919061594e565b600060405180830381855af49150503d8060008114614a46576040519150601f19603f3d011682016040523d82523d6000602084013e614a4b565b606091505b5091509150611d1682828660608315614a655750816142fb565b825115614a755782518084602001fd5b8160405162461bcd60e51b8152600401610d589190614ccf565b6040518060c00160405280606081526020016000815260200160008152602001600081526020016000815260200160006004811115614ad057614ad06154c6565b905290565b80356001600160a01b0381168114614aec57600080fd5b919050565b634e487b7160e01b600052604160045260246000fd5b60405161014081016001600160401b0381118282101715614b2a57614b2a614af1565b60405290565b60405160c081016001600160401b0381118282101715614b2a57614b2a614af1565b604051601f8201601f191681016001600160401b0381118282101715614b7a57614b7a614af1565b604052919050565b60006001600160401b03821115614b9b57614b9b614af1565b50601f01601f191660200190565b600082601f830112614bba57600080fd5b8135614bcd614bc882614b82565b614b52565b818152846020838601011115614be257600080fd5b816020850160208301376000918101602001919091529392505050565b60008060408385031215614c1257600080fd5b614c1b83614ad5565b915060208301356001600160401b03811115614c3657600080fd5b614c4285828601614ba9565b9150509250929050565b6001600160e01b03198116811461109b57600080fd5b600060208284031215614c7457600080fd5b81356142fb81614c4c565b60005b83811015614c9a578181015183820152602001614c82565b50506000910152565b60008151808452614cbb816020860160208601614c7f565b601f01601f19169290920160200192915050565b6020815260006142fb6020830184614ca3565b600060208284031215614cf457600080fd5b5035919050565b600060208284031215614d0d57600080fd5b6142fb82614ad5565b60008060408385031215614d2957600080fd5b614d3283614ad5565b946020939093013593505050565b6000602080835260e083018451828501528185015160408501526040850151606085015260608501516080850152608085015160a085015260a085015160c080860152818151808452610100870191508483019350600092505b80831015614dba5783518252928401926001929092019190840190614d9a565b509695505050505050565b600080600060608486031215614dda57600080fd5b614de384614ad5565b9250614df160208501614ad5565b9150604084013590509250925092565b60008060408385031215614e1457600080fd5b50508035926020909101359150565b60008060408385031215614e3657600080fd5b8235915060208301356001600160401b03811115614c3657600080fd5b801515811461109b57600080fd5b600060208284031215614e7357600080fd5b81356142fb81614e53565b838152606060208201526000614e976060830185614ca3565b8281036040840152611d168185614ca3565b60008060008060808587031215614ebf57600080fd5b614ec885614ad5565b93506020850135925060408501356001600160401b0380821115614eeb57600080fd5b614ef788838901614ba9565b93506060870135915080821115614f0d57600080fd5b50614f1a87828801614ba9565b91505092959194509250565b600060208284031215614f3857600080fd5b81356001600160401b03811115614f4e57600080fd5b61143784828501614ba9565b600080600060608486031215614f6f57600080fd5b83359250614df160208501614ad5565b600080600080600060a08688031215614f9757600080fd5b505083359560208501359550604085013594606081013594506080013592509050565b6020808252825182820181905260009190848201906040850190845b81811015614ff257835183529284019291840191600101614fd6565b50909695505050505050565b6000806040838503121561501157600080fd5b61501a83614ad5565b9150602083013561502a81614e53565b809150509250929050565b6005811061109b57600080fd5b6000806040838503121561505557600080fd5b82359150602083013561502a81615035565b6000806020838503121561507a57600080fd5b82356001600160401b038082111561509157600080fd5b818501915085601f8301126150a557600080fd5b8135818111156150b457600080fd5b8660208260051b85010111156150c957600080fd5b60209290920196919550909350505050565b6000602080830181845280855180835260408601915060408160051b870101925083870160005b8281101561513057603f1988860301845261511e858351614ca3565b94509285019290850190600101615102565b5092979650505050505050565b6000806000806080858703121561515357600080fd5b61515c85614ad5565b935061516a60208601614ad5565b92506040850135915060608501356001600160401b0381111561518c57600080fd5b614f1a87828801614ba9565b600082601f8301126151a957600080fd5b813560206001600160401b038211156151c4576151c4614af1565b8160051b6151d3828201614b52565b92835284810182019282810190878511156151ed57600080fd5b83870192505b8483101561520c578235825291830191908301906151f3565b979650505050505050565b600080600080600060a0868803121561522f57600080fd5b61523886614ad5565b945061524660208701614ad5565b935060408601356001600160401b038082111561526257600080fd5b61526e89838a01615198565b9450606088013591508082111561528457600080fd5b61529089838a01615198565b935060808801359150808211156152a657600080fd5b506152b388828901614ba9565b9150509295509295909350565b6000806000606084860312156152d557600080fd5b833592506020840135915060408401356152ee81615035565b809150509250925092565b6000806040838503121561530c57600080fd5b61531583614ad5565b915061532360208401614ad5565b90509250929050565b600080600080600060a0868803121561534457600080fd5b61534d86614ad5565b945061535b60208701614ad5565b9350604086013592506060860135915060808601356001600160401b0381111561538457600080fd5b6152b388828901614ba9565b600181811c908216806153a457607f821691505b6020821081036153c457634e487b7160e01b600052602260045260246000fd5b50919050565b6020808252600e908201526d139bdd08185d5d1a1bdc9a5e995960921b604082015260600190565b634e487b7160e01b600052603260045260246000fd5b634e487b7160e01b600052601160045260246000fd5b8082028115828204841417610dac57610dac615408565b634e487b7160e01b600052601260045260246000fd5b60008261545a5761545a615435565b500490565b80820180821115610dac57610dac615408565b60208082526021908201527f43616c6c6572206973206e6f742074686520426174746c6520636f6e747261636040820152601d60fa1b606082015260800190565b81810381811115610dac57610dac615408565b634e487b7160e01b600052602160045260246000fd5b84815260208101849052608081016005841061550857634e487b7160e01b600052602160045260246000fd5b60408201939093526001600160a01b039190911660609091015292915050565b60006001820161553a5761553a615408565b5060010190565b6000808335601e1984360301811261555857600080fd5b8301803591506001600160401b0382111561557257600080fd5b60200191503681900382131561558757600080fd5b9250929050565b600083516155a0818460208801614c7f565b8351908301906155b4818360208801614c7f565b01949350505050565b6001600160a01b0394851681529290931660208301526040820152606081019190915260a06080820181905260009082015260c00190565b8051614aec81615035565b6000610140828403121561561357600080fd5b61561b614b07565b8251815260208301516020820152615635604084016155f5565b6040820152615646606084016155f5565b60608201526080830151608082015260a083015160a082015260c083015160c082015260e083015160e08201526101008084015181830152506101208084015181830152508091505092915050565b600060208083850312156156a857600080fd5b82516001600160401b03808211156156bf57600080fd5b9084019060c082870312156156d357600080fd5b6156db614b30565b8251828111156156ea57600080fd5b83019150601f820187136156fd57600080fd5b815161570b614bc882614b82565b818152888683860101111561571f57600080fd5b61572e82878301888701614c7f565b8083525050838301518482015260408301516040820152606083015160608201526080830151608082015261576560a084016155f5565b60a08201529695505050505050565b634e487b7160e01b600052603160045260246000fd5b60006020828403121561579c57600080fd5b5051919050565b601f821115610ee857600081815260208120601f850160051c810160208610156157ca5750805b601f850160051c820191505b8181101561171d578281556001016157d6565b81516001600160401b0381111561580257615802614af1565b615816816158108454615390565b846157a3565b602080601f83116001811461584b57600084156158335750858301515b600019600386901b1c1916600185901b17855561171d565b600085815260208120601f198616915b8281101561587a5788860151825594840194600190910190840161585b565b50858210156158985787850151600019600388901b60f8161c191681555b5050505050600190811b01905550565b6000602082840312156158ba57600080fd5b81516142fb81614e53565b6040815260006158d86040830185614ca3565b8281036020840152612fc38185614ca3565b6000826158f9576158f9615435565b500690565b6001600160a01b0385811682528416602082015260408101839052608060608201819052600090611d1690830184614ca3565b60006020828403121561594357600080fd5b81516142fb81614c4c565b60008251615960818460208701614c7f565b919091019291505056fe416464726573733a206c6f772d6c6576656c2064656c65676174652063616c6c206661696c6564ddf252ad1be2c89b69c2b068fc378daa952ba7f163c4a11628f55a4df523b3efa264697066735822122020dced4a367cc95c96abe37a220573217cab73353893141736506c8507b1010e64736f6c63430008110033697066733a2f2f516d5a7a426d6a726a6e3734324478387750486865713858627a6b6f775753367871764c4855525453764c51436f697066733a2f2f516d5579576d7072793853726939426d734853514d444250746e505a6b6f583647533777385a697a706e46583776697066733a2f2f516d545945695869547a4268597577755137626a533561714368726566454a5a33376173384244724b59786b316a",
  "linkReferences": {
    "contracts/CMLib.sol": {
      "CMLib": [
        {
          "length": 20,
          "start": 7975
        },
        {
          "length": 20,
          "start": 9098
        },
        {
          "length": 20,
          "start": 9888
        },
        {
          "length": 20,
          "start": 11108
        }
      ]
    }
  },
  "deployedLinkReferences": {
    "contracts/CMLib.sol": {
      "CMLib": [
        {
          "length": 20,
          "start": 5289
        },
        {
          "length": 20,
          "start": 6412
        },
        {
          "length": 20,
          "start": 7202
        },
        {
          "length": 20,
          "start": 8422
        }
      ]
    }
  }
}