{
  "_format": "hh-sol-artifact-1",
  "contractName": "Character",
  "sourceName": "contracts/Character.sol",
  "abi": [
    {
      "inputs": [],
      "stateMutability": "nonpayable",
      "type": "constructor"
    },
    {
      "inputs": [],
      "name": "ApprovalCallerNotOwnerNorApproved",
      "type": "error"
    },
    {
      "inputs": [],
      "name": "ApprovalQueryForNonexistentToken",
      "type": "error"
    },
    {
      "inputs": [],
      "name": "ApprovalToCurrentOwner",
      "type": "error"
    },
    {
      "inputs": [],
      "name": "ApproveToCaller",
      "type": "error"
    },
    {
      "inputs": [],
      "name": "BalanceQueryForZeroAddress",
      "type": "error"
    },
    {
      "inputs": [],
      "name": "MintToZeroAddress",
      "type": "error"
    },
    {
      "inputs": [],
      "name": "MintZeroQuantity",
      "type": "error"
    },
    {
      "inputs": [
        {
          "internalType": "address",
          "name": "operator",
          "type": "address"
        }
      ],
      "name": "OperatorNotAllowed",
      "type": "error"
    },
    {
      "inputs": [],
      "name": "OwnerQueryForNonexistentToken",
      "type": "error"
    },
    {
      "inputs": [],
      "name": "TransferCallerNotOwnerNorApproved",
      "type": "error"
    },
    {
      "inputs": [],
      "name": "TransferFromIncorrectOwner",
      "type": "error"
    },
    {
      "inputs": [],
      "name": "TransferToNonERC721ReceiverImplementer",
      "type": "error"
    },
    {
      "inputs": [],
      "name": "TransferToZeroAddress",
      "type": "error"
    },
    {
      "inputs": [],
      "name": "URIQueryForNonexistentToken",
      "type": "error"
    },
    {
      "anonymous": false,
      "inputs": [
        {
          "indexed": true,
          "internalType": "address",
          "name": "owner",
          "type": "address"
        },
        {
          "indexed": true,
          "internalType": "address",
          "name": "approved",
          "type": "address"
        },
        {
          "indexed": true,
          "internalType": "uint256",
          "name": "tokenId",
          "type": "uint256"
        }
      ],
      "name": "Approval",
      "type": "event"
    },
    {
      "anonymous": false,
      "inputs": [
        {
          "indexed": true,
          "internalType": "address",
          "name": "owner",
          "type": "address"
        },
        {
          "indexed": true,
          "internalType": "address",
          "name": "operator",
          "type": "address"
        },
        {
          "indexed": false,
          "internalType": "bool",
          "name": "approved",
          "type": "bool"
        }
      ],
      "name": "ApprovalForAll",
      "type": "event"
    },
    {
      "anonymous": false,
      "inputs": [
        {
          "indexed": false,
          "internalType": "string",
          "name": "prevURI",
          "type": "string"
        },
        {
          "indexed": false,
          "internalType": "string",
          "name": "newURI",
          "type": "string"
        }
      ],
      "name": "ContractURIUpdated",
      "type": "event"
    },
    {
      "anonymous": false,
      "inputs": [
        {
          "indexed": true,
          "internalType": "address",
          "name": "newRoyaltyRecipient",
          "type": "address"
        },
        {
          "indexed": false,
          "internalType": "uint256",
          "name": "newRoyaltyBps",
          "type": "uint256"
        }
      ],
      "name": "DefaultRoyalty",
      "type": "event"
    },
    {
      "anonymous": false,
      "inputs": [
        {
          "indexed": true,
          "internalType": "uint256",
          "name": "tokenId",
          "type": "uint256"
        },
        {
          "indexed": true,
          "internalType": "uint256",
          "name": "typeId",
          "type": "uint256"
        }
      ],
      "name": "NewCharacter",
      "type": "event"
    },
    {
      "anonymous": false,
      "inputs": [
        {
          "indexed": false,
          "internalType": "bool",
          "name": "restriction",
          "type": "bool"
        }
      ],
      "name": "OperatorRestriction",
      "type": "event"
    },
    {
      "anonymous": false,
      "inputs": [
        {
          "indexed": true,
          "internalType": "address",
          "name": "prevOwner",
          "type": "address"
        },
        {
          "indexed": true,
          "internalType": "address",
          "name": "newOwner",
          "type": "address"
        }
      ],
      "name": "OwnerUpdated",
      "type": "event"
    },
    {
      "anonymous": false,
      "inputs": [
        {
          "indexed": true,
          "internalType": "uint256",
          "name": "tokenId",
          "type": "uint256"
        },
        {
          "indexed": true,
          "internalType": "address",
          "name": "royaltyRecipient",
          "type": "address"
        },
        {
          "indexed": false,
          "internalType": "uint256",
          "name": "royaltyBps",
          "type": "uint256"
        }
      ],
      "name": "RoyaltyForToken",
      "type": "event"
    },
    {
      "anonymous": false,
      "inputs": [
        {
          "indexed": true,
          "internalType": "address",
          "name": "from",
          "type": "address"
        },
        {
          "indexed": true,
          "internalType": "address",
          "name": "to",
          "type": "address"
        },
        {
          "indexed": true,
          "internalType": "uint256",
          "name": "tokenId",
          "type": "uint256"
        }
      ],
      "name": "Transfer",
      "type": "event"
    },
    {
      "inputs": [],
      "name": "OPERATOR_FILTER_REGISTRY",
      "outputs": [
        {
          "internalType": "contract IOperatorFilterRegistry",
          "name": "",
          "type": "address"
        }
      ],
      "stateMutability": "view",
      "type": "function"
    },
    {
      "inputs": [
        {
          "internalType": "uint256",
          "name": "tokenId",
          "type": "uint256"
        },
        {
          "internalType": "uint256",
          "name": "amount",
          "type": "uint256"
        }
      ],
      "name": "addMana",
      "outputs": [],
      "stateMutability": "nonpayable",
      "type": "function"
    },
    {
      "inputs": [
        {
          "internalType": "uint256",
          "name": "tokenId",
          "type": "uint256"
        },
        {
          "internalType": "uint256",
          "name": "amount",
          "type": "uint256"
        }
      ],
      "name": "addStamina",
      "outputs": [],
      "stateMutability": "nonpayable",
      "type": "function"
    },
    {
      "inputs": [
        {
          "internalType": "uint256",
          "name": "characterTokenId",
          "type": "uint256"
        },
        {
          "internalType": "uint256",
          "name": "strength",
          "type": "uint256"
        },
        {
          "internalType": "uint256",
          "name": "dexterity",
          "type": "uint256"
        },
        {
          "internalType": "uint256",
          "name": "intelligence",
          "type": "uint256"
        },
        {
          "internalType": "uint256",
          "name": "vitality",
          "type": "uint256"
        }
      ],
      "name": "addStats",
      "outputs": [],
      "stateMutability": "nonpayable",
      "type": "function"
    },
    {
      "inputs": [
        {
          "internalType": "address",
          "name": "operator",
          "type": "address"
        },
        {
          "internalType": "uint256",
          "name": "tokenId",
          "type": "uint256"
        }
      ],
      "name": "approve",
      "outputs": [],
      "stateMutability": "nonpayable",
      "type": "function"
    },
    {
      "inputs": [
        {
          "internalType": "address",
          "name": "owner",
          "type": "address"
        }
      ],
      "name": "balanceOf",
      "outputs": [
        {
          "internalType": "uint256",
          "name": "",
          "type": "uint256"
        }
      ],
      "stateMutability": "view",
      "type": "function"
    },
    {
      "inputs": [
        {
          "internalType": "address",
          "name": "_to",
          "type": "address"
        },
        {
          "internalType": "uint256",
          "name": "_quantity",
          "type": "uint256"
        },
        {
          "internalType": "string",
          "name": "_baseURI",
          "type": "string"
        },
        {
          "internalType": "bytes",
          "name": "_data",
          "type": "bytes"
        }
      ],
      "name": "batchMintTo",
      "outputs": [],
      "stateMutability": "nonpayable",
      "type": "function"
    },
    {
      "inputs": [],
      "name": "battleContractAddress",
      "outputs": [
        {
          "internalType": "address",
          "name": "",
          "type": "address"
        }
      ],
      "stateMutability": "view",
      "type": "function"
    },
    {
      "inputs": [],
      "name": "battleItems",
      "outputs": [
        {
          "internalType": "contract BattleItems",
          "name": "",
          "type": "address"
        }
      ],
      "stateMutability": "view",
      "type": "function"
    },
    {
      "inputs": [],
      "name": "battleSkills",
      "outputs": [
        {
          "internalType": "contract BattleSkills",
          "name": "",
          "type": "address"
        }
      ],
      "stateMutability": "view",
      "type": "function"
    },
    {
      "inputs": [
        {
          "internalType": "uint256",
          "name": "_tokenId",
          "type": "uint256"
        }
      ],
      "name": "burn",
      "outputs": [],
      "stateMutability": "nonpayable",
      "type": "function"
    },
    {
      "inputs": [
        {
          "internalType": "uint256",
          "name": "level",
          "type": "uint256"
        }
      ],
      "name": "calculateExperienceRequired",
      "outputs": [
        {
          "internalType": "uint256",
          "name": "",
          "type": "uint256"
        }
      ],
      "stateMutability": "view",
      "type": "function"
    },
    {
      "inputs": [
        {
          "internalType": "uint256",
          "name": "",
          "type": "uint256"
        }
      ],
      "name": "charStats",
      "outputs": [
        {
          "internalType": "uint256",
          "name": "tokenId",
          "type": "uint256"
        },
        {
          "internalType": "uint256",
          "name": "level",
          "type": "uint256"
        },
        {
          "internalType": "uint256",
          "name": "experience",
          "type": "uint256"
        },
        {
          "internalType": "uint256",
          "name": "health",
          "type": "uint256"
        },
        {
          "internalType": "uint256",
          "name": "mana",
          "type": "uint256"
        },
        {
          "internalType": "uint256",
          "name": "attack",
          "type": "uint256"
        },
        {
          "internalType": "uint256",
          "name": "defense",
          "type": "uint256"
        },
        {
          "internalType": "uint256",
          "name": "strength",
          "type": "uint256"
        },
        {
          "internalType": "uint256",
          "name": "dexterity",
          "type": "uint256"
        },
        {
          "internalType": "uint256",
          "name": "intelligence",
          "type": "uint256"
        },
        {
          "internalType": "uint256",
          "name": "vitality",
          "type": "uint256"
        },
        {
          "internalType": "uint256",
          "name": "accuracy",
          "type": "uint256"
        },
        {
          "internalType": "uint256",
          "name": "statPoints",
          "type": "uint256"
        },
        {
          "internalType": "uint256",
          "name": "typeId",
          "type": "uint256"
        }
      ],
      "stateMutability": "view",
      "type": "function"
    },
    {
      "inputs": [
        {
          "internalType": "uint256",
          "name": "",
          "type": "uint256"
        }
      ],
      "name": "charTypes",
      "outputs": [
        {
          "internalType": "uint256",
          "name": "typeId",
          "type": "uint256"
        },
        {
          "internalType": "string",
          "name": "characterType",
          "type": "string"
        },
        {
          "internalType": "string",
          "name": "uri",
          "type": "string"
        }
      ],
      "stateMutability": "view",
      "type": "function"
    },
    {
      "inputs": [],
      "name": "characterClasses",
      "outputs": [
        {
          "internalType": "contract CharacterClass",
          "name": "",
          "type": "address"
        }
      ],
      "stateMutability": "view",
      "type": "function"
    },
    {
      "inputs": [
        {
          "internalType": "uint256",
          "name": "",
          "type": "uint256"
        }
      ],
      "name": "characterEquips",
      "outputs": [
        {
          "internalType": "uint256",
          "name": "equippedClass",
          "type": "uint256"
        }
      ],
      "stateMutability": "view",
      "type": "function"
    },
    {
      "inputs": [
        {
          "internalType": "uint256",
          "name": "",
          "type": "uint256"
        }
      ],
      "name": "characterStats",
      "outputs": [
        {
          "internalType": "uint256",
          "name": "tokenId",
          "type": "uint256"
        },
        {
          "internalType": "uint256",
          "name": "level",
          "type": "uint256"
        },
        {
          "internalType": "uint256",
          "name": "experience",
          "type": "uint256"
        },
        {
          "internalType": "uint256",
          "name": "health",
          "type": "uint256"
        },
        {
          "internalType": "uint256",
          "name": "mana",
          "type": "uint256"
        },
        {
          "internalType": "uint256",
          "name": "attack",
          "type": "uint256"
        },
        {
          "internalType": "uint256",
          "name": "defense",
          "type": "uint256"
        },
        {
          "internalType": "uint256",
          "name": "strength",
          "type": "uint256"
        },
        {
          "internalType": "uint256",
          "name": "dexterity",
          "type": "uint256"
        },
        {
          "internalType": "uint256",
          "name": "intelligence",
          "type": "uint256"
        },
        {
          "internalType": "uint256",
          "name": "vitality",
          "type": "uint256"
        },
        {
          "internalType": "uint256",
          "name": "accuracy",
          "type": "uint256"
        },
        {
          "internalType": "uint256",
          "name": "statPoints",
          "type": "uint256"
        },
        {
          "internalType": "uint256",
          "name": "typeId",
          "type": "uint256"
        }
      ],
      "stateMutability": "view",
      "type": "function"
    },
    {
      "inputs": [
        {
          "internalType": "uint256",
          "name": "tokenId",
          "type": "uint256"
        },
        {
          "internalType": "uint256",
          "name": "amount",
          "type": "uint256"
        }
      ],
      "name": "consumeMana",
      "outputs": [],
      "stateMutability": "nonpayable",
      "type": "function"
    },
    {
      "inputs": [
        {
          "internalType": "uint256",
          "name": "tokenId",
          "type": "uint256"
        },
        {
          "internalType": "uint256",
          "name": "amount",
          "type": "uint256"
        }
      ],
      "name": "consumeStamina",
      "outputs": [],
      "stateMutability": "nonpayable",
      "type": "function"
    },
    {
      "inputs": [],
      "name": "contractURI",
      "outputs": [
        {
          "internalType": "string",
          "name": "",
          "type": "string"
        }
      ],
      "stateMutability": "view",
      "type": "function"
    },
    {
      "inputs": [
        {
          "internalType": "uint256",
          "name": "characterTokenId",
          "type": "uint256"
        },
        {
          "internalType": "uint256",
          "name": "classId",
          "type": "uint256"
        }
      ],
      "name": "equipClass",
      "outputs": [],
      "stateMutability": "nonpayable",
      "type": "function"
    },
    {
      "inputs": [
        {
          "internalType": "uint256",
          "name": "characterTokenId",
          "type": "uint256"
        },
        {
          "internalType": "uint256",
          "name": "tokenId",
          "type": "uint256"
        }
      ],
      "name": "equipItem",
      "outputs": [],
      "stateMutability": "nonpayable",
      "type": "function"
    },
    {
      "inputs": [
        {
          "internalType": "uint256",
          "name": "characterTokenId",
          "type": "uint256"
        },
        {
          "internalType": "uint256",
          "name": "skillId",
          "type": "uint256"
        }
      ],
      "name": "equipSkill",
      "outputs": [],
      "stateMutability": "nonpayable",
      "type": "function"
    },
    {
      "inputs": [
        {
          "internalType": "uint256",
          "name": "characterTokenId",
          "type": "uint256"
        },
        {
          "internalType": "uint256",
          "name": "xp",
          "type": "uint256"
        }
      ],
      "name": "gainXP",
      "outputs": [],
      "stateMutability": "nonpayable",
      "type": "function"
    },
    {
      "inputs": [
        {
          "internalType": "uint256",
          "name": "tokenId",
          "type": "uint256"
        }
      ],
      "name": "getApproved",
      "outputs": [
        {
          "internalType": "address",
          "name": "",
          "type": "address"
        }
      ],
      "stateMutability": "view",
      "type": "function"
    },
    {
      "inputs": [],
      "name": "getBaseURICount",
      "outputs": [
        {
          "internalType": "uint256",
          "name": "",
          "type": "uint256"
        }
      ],
      "stateMutability": "view",
      "type": "function"
    },
    {
      "inputs": [
        {
          "internalType": "uint256",
          "name": "_index",
          "type": "uint256"
        }
      ],
      "name": "getBatchIdAtIndex",
      "outputs": [
        {
          "internalType": "uint256",
          "name": "",
          "type": "uint256"
        }
      ],
      "stateMutability": "view",
      "type": "function"
    },
    {
      "inputs": [
        {
          "internalType": "uint256",
          "name": "_tokenId",
          "type": "uint256"
        }
      ],
      "name": "getCharacter",
      "outputs": [
        {
          "components": [
            {
              "internalType": "uint256",
              "name": "tokenId",
              "type": "uint256"
            },
            {
              "internalType": "uint256",
              "name": "level",
              "type": "uint256"
            },
            {
              "internalType": "uint256",
              "name": "experience",
              "type": "uint256"
            },
            {
              "internalType": "uint256",
              "name": "health",
              "type": "uint256"
            },
            {
              "internalType": "uint256",
              "name": "mana",
              "type": "uint256"
            },
            {
              "internalType": "uint256",
              "name": "attack",
              "type": "uint256"
            },
            {
              "internalType": "uint256",
              "name": "defense",
              "type": "uint256"
            },
            {
              "internalType": "uint256",
              "name": "strength",
              "type": "uint256"
            },
            {
              "internalType": "uint256",
              "name": "dexterity",
              "type": "uint256"
            },
            {
              "internalType": "uint256",
              "name": "intelligence",
              "type": "uint256"
            },
            {
              "internalType": "uint256",
              "name": "vitality",
              "type": "uint256"
            },
            {
              "internalType": "uint256",
              "name": "accuracy",
              "type": "uint256"
            },
            {
              "internalType": "uint256",
              "name": "statPoints",
              "type": "uint256"
            },
            {
              "internalType": "uint256",
              "name": "typeId",
              "type": "uint256"
            }
          ],
          "internalType": "struct Character.CharacterStats",
          "name": "",
          "type": "tuple"
        }
      ],
      "stateMutability": "view",
      "type": "function"
    },
    {
      "inputs": [
        {
          "internalType": "uint256",
          "name": "tokenId",
          "type": "uint256"
        }
      ],
      "name": "getCharacterAttack",
      "outputs": [
        {
          "internalType": "uint256",
          "name": "",
          "type": "uint256"
        }
      ],
      "stateMutability": "view",
      "type": "function"
    },
    {
      "inputs": [
        {
          "internalType": "uint256",
          "name": "tokenId",
          "type": "uint256"
        }
      ],
      "name": "getCharacterDefense",
      "outputs": [
        {
          "internalType": "uint256",
          "name": "",
          "type": "uint256"
        }
      ],
      "stateMutability": "view",
      "type": "function"
    },
    {
      "inputs": [
        {
          "internalType": "uint256",
          "name": "tokenId",
          "type": "uint256"
        }
      ],
      "name": "getCharacterHealth",
      "outputs": [
        {
          "internalType": "uint256",
          "name": "",
          "type": "uint256"
        }
      ],
      "stateMutability": "view",
      "type": "function"
    },
    {
      "inputs": [
        {
          "internalType": "uint256",
          "name": "tokenId",
          "type": "uint256"
        }
      ],
      "name": "getCharacterLevel",
      "outputs": [
        {
          "internalType": "uint256",
          "name": "",
          "type": "uint256"
        }
      ],
      "stateMutability": "view",
      "type": "function"
    },
    {
      "inputs": [
        {
          "internalType": "uint256",
          "name": "tokenId",
          "type": "uint256"
        }
      ],
      "name": "getCharacterType",
      "outputs": [
        {
          "internalType": "uint256",
          "name": "",
          "type": "uint256"
        }
      ],
      "stateMutability": "view",
      "type": "function"
    },
    {
      "inputs": [],
      "name": "getDefaultRoyaltyInfo",
      "outputs": [
        {
          "internalType": "address",
          "name": "",
          "type": "address"
        },
        {
          "internalType": "uint16",
          "name": "",
          "type": "uint16"
        }
      ],
      "stateMutability": "view",
      "type": "function"
    },
    {
      "inputs": [
        {
          "internalType": "uint256",
          "name": "characterTokenId",
          "type": "uint256"
        }
      ],
      "name": "getEquippedClass",
      "outputs": [
        {
          "internalType": "uint256",
          "name": "",
          "type": "uint256"
        }
      ],
      "stateMutability": "view",
      "type": "function"
    },
    {
      "inputs": [
        {
          "internalType": "uint256",
          "name": "characterTokenId",
          "type": "uint256"
        },
        {
          "internalType": "enum BattleItems.ItemType",
          "name": "itemType",
          "type": "uint8"
        }
      ],
      "name": "getEquippedItem",
      "outputs": [
        {
          "internalType": "uint256",
          "name": "",
          "type": "uint256"
        }
      ],
      "stateMutability": "view",
      "type": "function"
    },
    {
      "inputs": [
        {
          "internalType": "uint256",
          "name": "characterTokenId",
          "type": "uint256"
        }
      ],
      "name": "getEquippedSkills",
      "outputs": [
        {
          "internalType": "uint256[]",
          "name": "",
          "type": "uint256[]"
        }
      ],
      "stateMutability": "view",
      "type": "function"
    },
    {
      "inputs": [
        {
          "internalType": "uint256",
          "name": "tokenId",
          "type": "uint256"
        }
      ],
      "name": "getMana",
      "outputs": [
        {
          "internalType": "uint256",
          "name": "",
          "type": "uint256"
        }
      ],
      "stateMutability": "view",
      "type": "function"
    },
    {
      "inputs": [
        {
          "internalType": "uint256",
          "name": "tokenId",
          "type": "uint256"
        }
      ],
      "name": "getRecoveryStats",
      "outputs": [
        {
          "components": [
            {
              "internalType": "uint256",
              "name": "stamina",
              "type": "uint256"
            },
            {
              "internalType": "uint256",
              "name": "maxMana",
              "type": "uint256"
            },
            {
              "internalType": "uint256",
              "name": "lastStaminaUpdateTime",
              "type": "uint256"
            },
            {
              "internalType": "uint256",
              "name": "lastManaUpdateTime",
              "type": "uint256"
            }
          ],
          "internalType": "struct Character.RecoveryStats",
          "name": "",
          "type": "tuple"
        }
      ],
      "stateMutability": "view",
      "type": "function"
    },
    {
      "inputs": [
        {
          "internalType": "uint256",
          "name": "_tokenId",
          "type": "uint256"
        }
      ],
      "name": "getRoyaltyInfoForToken",
      "outputs": [
        {
          "internalType": "address",
          "name": "",
          "type": "address"
        },
        {
          "internalType": "uint16",
          "name": "",
          "type": "uint16"
        }
      ],
      "stateMutability": "view",
      "type": "function"
    },
    {
      "inputs": [
        {
          "internalType": "uint256",
          "name": "tokenId",
          "type": "uint256"
        }
      ],
      "name": "getStamina",
      "outputs": [
        {
          "internalType": "uint256",
          "name": "",
          "type": "uint256"
        }
      ],
      "stateMutability": "view",
      "type": "function"
    },
    {
      "inputs": [
        {
          "internalType": "address",
          "name": "owner",
          "type": "address"
        },
        {
          "internalType": "address",
          "name": "operator",
          "type": "address"
        }
      ],
      "name": "isApprovedForAll",
      "outputs": [
        {
          "internalType": "bool",
          "name": "",
          "type": "bool"
        }
      ],
      "stateMutability": "view",
      "type": "function"
    },
    {
      "inputs": [
        {
          "internalType": "address",
          "name": "_operator",
          "type": "address"
        },
        {
          "internalType": "uint256",
          "name": "_tokenId",
          "type": "uint256"
        }
      ],
      "name": "isApprovedOrOwner",
      "outputs": [
        {
          "internalType": "bool",
          "name": "isApprovedOrOwnerOf",
          "type": "bool"
        }
      ],
      "stateMutability": "view",
      "type": "function"
    },
    {
      "inputs": [
        {
          "internalType": "uint256",
          "name": "_typeId",
          "type": "uint256"
        },
        {
          "internalType": "uint256",
          "name": "_skillTokenId",
          "type": "uint256"
        }
      ],
      "name": "mintNewCharacterWithItemAndEquip",
      "outputs": [],
      "stateMutability": "nonpayable",
      "type": "function"
    },
    {
      "inputs": [
        {
          "internalType": "address",
          "name": "_to",
          "type": "address"
        },
        {
          "internalType": "string",
          "name": "_tokenURI",
          "type": "string"
        }
      ],
      "name": "mintTo",
      "outputs": [],
      "stateMutability": "nonpayable",
      "type": "function"
    },
    {
      "inputs": [
        {
          "internalType": "bytes[]",
          "name": "data",
          "type": "bytes[]"
        }
      ],
      "name": "multicall",
      "outputs": [
        {
          "internalType": "bytes[]",
          "name": "results",
          "type": "bytes[]"
        }
      ],
      "stateMutability": "nonpayable",
      "type": "function"
    },
    {
      "inputs": [],
      "name": "name",
      "outputs": [
        {
          "internalType": "string",
          "name": "",
          "type": "string"
        }
      ],
      "stateMutability": "view",
      "type": "function"
    },
    {
      "inputs": [
        {
          "internalType": "uint256",
          "name": "_typeId",
          "type": "uint256"
        }
      ],
      "name": "newCharacter",
      "outputs": [],
      "stateMutability": "nonpayable",
      "type": "function"
    },
    {
      "inputs": [],
      "name": "nextTokenIdToMint",
      "outputs": [
        {
          "internalType": "uint256",
          "name": "",
          "type": "uint256"
        }
      ],
      "stateMutability": "view",
      "type": "function"
    },
    {
      "inputs": [],
      "name": "numCharacters",
      "outputs": [
        {
          "internalType": "uint256",
          "name": "",
          "type": "uint256"
        }
      ],
      "stateMutability": "view",
      "type": "function"
    },
    {
      "inputs": [
        {
          "internalType": "address",
          "name": "",
          "type": "address"
        },
        {
          "internalType": "address",
          "name": "",
          "type": "address"
        },
        {
          "internalType": "uint256[]",
          "name": "",
          "type": "uint256[]"
        },
        {
          "internalType": "uint256[]",
          "name": "",
          "type": "uint256[]"
        },
        {
          "internalType": "bytes",
          "name": "",
          "type": "bytes"
        }
      ],
      "name": "onERC1155BatchReceived",
      "outputs": [
        {
          "internalType": "bytes4",
          "name": "",
          "type": "bytes4"
        }
      ],
      "stateMutability": "nonpayable",
      "type": "function"
    },
    {
      "inputs": [
        {
          "internalType": "address",
          "name": "",
          "type": "address"
        },
        {
          "internalType": "address",
          "name": "",
          "type": "address"
        },
        {
          "internalType": "uint256",
          "name": "",
          "type": "uint256"
        },
        {
          "internalType": "uint256",
          "name": "",
          "type": "uint256"
        },
        {
          "internalType": "bytes",
          "name": "",
          "type": "bytes"
        }
      ],
      "name": "onERC1155Received",
      "outputs": [
        {
          "internalType": "bytes4",
          "name": "",
          "type": "bytes4"
        }
      ],
      "stateMutability": "nonpayable",
      "type": "function"
    },
    {
      "inputs": [],
      "name": "operatorRestriction",
      "outputs": [
        {
          "internalType": "bool",
          "name": "",
          "type": "bool"
        }
      ],
      "stateMutability": "view",
      "type": "function"
    },
    {
      "inputs": [],
      "name": "owner",
      "outputs": [
        {
          "internalType": "address",
          "name": "",
          "type": "address"
        }
      ],
      "stateMutability": "view",
      "type": "function"
    },
    {
      "inputs": [
        {
          "internalType": "uint256",
          "name": "tokenId",
          "type": "uint256"
        }
      ],
      "name": "ownerOf",
      "outputs": [
        {
          "internalType": "address",
          "name": "",
          "type": "address"
        }
      ],
      "stateMutability": "view",
      "type": "function"
    },
    {
      "inputs": [
        {
          "internalType": "uint256",
          "name": "tokenId",
          "type": "uint256"
        }
      ],
      "name": "restoreManaToFull",
      "outputs": [],
      "stateMutability": "nonpayable",
      "type": "function"
    },
    {
      "inputs": [
        {
          "internalType": "uint256",
          "name": "tokenId",
          "type": "uint256"
        }
      ],
      "name": "restoreStaminaToFull",
      "outputs": [],
      "stateMutability": "nonpayable",
      "type": "function"
    },
    {
      "inputs": [
        {
          "internalType": "uint256",
          "name": "tokenId",
          "type": "uint256"
        },
        {
          "internalType": "uint256",
          "name": "salePrice",
          "type": "uint256"
        }
      ],
      "name": "royaltyInfo",
      "outputs": [
        {
          "internalType": "address",
          "name": "receiver",
          "type": "address"
        },
        {
          "internalType": "uint256",
          "name": "royaltyAmount",
          "type": "uint256"
        }
      ],
      "stateMutability": "view",
      "type": "function"
    },
    {
      "inputs": [
        {
          "internalType": "address",
          "name": "from",
          "type": "address"
        },
        {
          "internalType": "address",
          "name": "to",
          "type": "address"
        },
        {
          "internalType": "uint256",
          "name": "tokenId",
          "type": "uint256"
        }
      ],
      "name": "safeTransferFrom",
      "outputs": [],
      "stateMutability": "nonpayable",
      "type": "function"
    },
    {
      "inputs": [
        {
          "internalType": "address",
          "name": "from",
          "type": "address"
        },
        {
          "internalType": "address",
          "name": "to",
          "type": "address"
        },
        {
          "internalType": "uint256",
          "name": "tokenId",
          "type": "uint256"
        },
        {
          "internalType": "bytes",
          "name": "data",
          "type": "bytes"
        }
      ],
      "name": "safeTransferFrom",
      "outputs": [],
      "stateMutability": "nonpayable",
      "type": "function"
    },
    {
      "inputs": [
        {
          "internalType": "address",
          "name": "operator",
          "type": "address"
        },
        {
          "internalType": "bool",
          "name": "approved",
          "type": "bool"
        }
      ],
      "name": "setApprovalForAll",
      "outputs": [],
      "stateMutability": "nonpayable",
      "type": "function"
    },
    {
      "inputs": [
        {
          "internalType": "address",
          "name": "_address",
          "type": "address"
        }
      ],
      "name": "setBattleContract",
      "outputs": [],
      "stateMutability": "nonpayable",
      "type": "function"
    },
    {
      "inputs": [
        {
          "internalType": "address",
          "name": "_address",
          "type": "address"
        }
      ],
      "name": "setBattleItems",
      "outputs": [],
      "stateMutability": "nonpayable",
      "type": "function"
    },
    {
      "inputs": [
        {
          "internalType": "address",
          "name": "_address",
          "type": "address"
        }
      ],
      "name": "setBattleSkills",
      "outputs": [],
      "stateMutability": "nonpayable",
      "type": "function"
    },
    {
      "inputs": [
        {
          "internalType": "address",
          "name": "_address",
          "type": "address"
        }
      ],
      "name": "setClassContract",
      "outputs": [],
      "stateMutability": "nonpayable",
      "type": "function"
    },
    {
      "inputs": [
        {
          "internalType": "string",
          "name": "_uri",
          "type": "string"
        }
      ],
      "name": "setContractURI",
      "outputs": [],
      "stateMutability": "nonpayable",
      "type": "function"
    },
    {
      "inputs": [
        {
          "internalType": "address",
          "name": "_royaltyRecipient",
          "type": "address"
        },
        {
          "internalType": "uint256",
          "name": "_royaltyBps",
          "type": "uint256"
        }
      ],
      "name": "setDefaultRoyaltyInfo",
      "outputs": [],
      "stateMutability": "nonpayable",
      "type": "function"
    },
    {
      "inputs": [
        {
          "internalType": "bool",
          "name": "_restriction",
          "type": "bool"
        }
      ],
      "name": "setOperatorRestriction",
      "outputs": [],
      "stateMutability": "nonpayable",
      "type": "function"
    },
    {
      "inputs": [
        {
          "internalType": "address",
          "name": "_newOwner",
          "type": "address"
        }
      ],
      "name": "setOwner",
      "outputs": [],
      "stateMutability": "nonpayable",
      "type": "function"
    },
    {
      "inputs": [
        {
          "internalType": "uint256",
          "name": "_tokenId",
          "type": "uint256"
        },
        {
          "internalType": "address",
          "name": "_recipient",
          "type": "address"
        },
        {
          "internalType": "uint256",
          "name": "_bps",
          "type": "uint256"
        }
      ],
      "name": "setRoyaltyInfoForToken",
      "outputs": [],
      "stateMutability": "nonpayable",
      "type": "function"
    },
    {
      "inputs": [
        {
          "internalType": "bytes4",
          "name": "interfaceId",
          "type": "bytes4"
        }
      ],
      "name": "supportsInterface",
      "outputs": [
        {
          "internalType": "bool",
          "name": "",
          "type": "bool"
        }
      ],
      "stateMutability": "view",
      "type": "function"
    },
    {
      "inputs": [],
      "name": "symbol",
      "outputs": [
        {
          "internalType": "string",
          "name": "",
          "type": "string"
        }
      ],
      "stateMutability": "view",
      "type": "function"
    },
    {
      "inputs": [
        {
          "internalType": "uint256",
          "name": "_tokenId",
          "type": "uint256"
        }
      ],
      "name": "tokenURI",
      "outputs": [
        {
          "internalType": "string",
          "name": "",
          "type": "string"
        }
      ],
      "stateMutability": "view",
      "type": "function"
    },
    {
      "inputs": [],
      "name": "totalSupply",
      "outputs": [
        {
          "internalType": "uint256",
          "name": "",
          "type": "uint256"
        }
      ],
      "stateMutability": "view",
      "type": "function"
    },
    {
      "inputs": [
        {
          "internalType": "address",
          "name": "from",
          "type": "address"
        },
        {
          "internalType": "address",
          "name": "to",
          "type": "address"
        },
        {
          "internalType": "uint256",
          "name": "tokenId",
          "type": "uint256"
        }
      ],
      "name": "transferFrom",
      "outputs": [],
      "stateMutability": "nonpayable",
      "type": "function"
    },
    {
      "inputs": [
        {
          "internalType": "uint256",
          "name": "characterTokenId",
          "type": "uint256"
        }
      ],
      "name": "unequipClass",
      "outputs": [],
      "stateMutability": "nonpayable",
      "type": "function"
    },
    {
      "inputs": [
        {
          "internalType": "uint256",
          "name": "characterTokenId",
          "type": "uint256"
        },
        {
          "internalType": "uint256",
          "name": "itemTokenId",
          "type": "uint256"
        }
      ],
      "name": "unequipItem",
      "outputs": [],
      "stateMutability": "nonpayable",
      "type": "function"
    },
    {
      "inputs": [
        {
          "internalType": "uint256",
          "name": "characterTokenId",
          "type": "uint256"
        },
        {
          "internalType": "uint256",
          "name": "skillId",
          "type": "uint256"
        }
      ],
      "name": "unequipSkill",
      "outputs": [],
      "stateMutability": "nonpayable",
      "type": "function"
    }
  ],
  "bytecode": "0x60808060405234620007ec576000620000188262000840565b600982526821b430b930b1ba32b960b91b6020830152604051906200003d8262000840565b60048083526310d3919560e21b60208401528351909390926001600160401b0391828511620007d957600294855491600183811c93168015620007ce575b6020841014620007bb578190601f9384811162000768575b50602090848311600114620006ff578792620006f3575b50508160011b916000199060031b1c19161785555b815190838211620006e0576003928354600181811c91168015620006d5575b6020821014620006c257908183859493116200066c575b50602091831160011462000604578692620005f8575b50508160011b9160001990841b1c19161790555b8180556daaeb6d7670e522a718067333cd4e803b62000574575b6200056484620004c58762000426876009543360018060a01b031982161760095560405190339060018060a01b03167f8292fce18fa69edf4db7b94ea2e58241df0ae57f97e0a6c9b29067028bf92d768484a3600a80546001600160b01b0319163361ffff60a01b19811691909117909155828252907f90d7ec04bcb8978719414f82e52e4cb651db41d0e6f8cea6118c2191e6183adb90602090a2600160ff19600e541617600e557f38475885990d8dfe9ca01f0ef160a1b5514426eab9ddbc953a3353410ba78096602060405160018152a1606460105580601955620002906040516200022881620007f1565b828152600160208201528260408201526064606082015260646080820152600a60a0820152606460c0820152606460e082015260646101008201526064610120820152606461014082015260646101608201526005610180820152826101a08201526200085c565b6200030b604051620002a281620007f1565b828152600160208201528260408201526064606082015260646080820152600a60a0820152606460c0820152606460e08201526064610100820152606461012082015260646101408201526064610160820152600561018082015260016101a08201526200085c565b620003856040516200031d81620007f1565b828152600160208201528260408201526064606082015260646080820152606460a0820152606460c0820152606460e082015260646101008201526064610120820152606461014082015260646101608201526005610180820152866101a08201526200085c565b60405190620003948262000824565b8152604051620003a48162000840565b60078152662bb0b93934b7b960c91b60208201526020820152604051620003cb8162000824565b603581527f697066733a2f2f516d5a7a426d6a726a6e37343244783877504868657138586260208201527f7a6b6f775753367871764c4855525453764c51436f00000000000000000000006040820152604082015262000935565b60405190620004358262000824565b6001825260405190620004488262000840565b8152634d61676560e01b602082015260208201526040516200046a8162000824565b603581527f697066733a2f2f516d545945695869547a4268597577755137626a533561714360208201527f68726566454a5a33376173384244724b59786b316a00000000000000000000006040820152604082015262000935565b60405190620004d48262000824565b8152604051620004e48162000840565b6005815264526f67756560d81b60208201526020820152604051620005098162000824565b603581527f697066733a2f2f516d5579576d7072793853726939426d734853514d4442507460208201527f6e505a6b6f583647533777385a697a706e4658377600000000000000000000006040820152604082015262000935565b604051615d58908162000c288239f35b803b15620005f45790828092604460405180958193633e9f1edf60e11b8352308b840152733cc6cdda760b79bafa08df41ecfa224f810dceb660248401525af18015620005e9571562000139578111620005d657604052826200042662000139565b634e487b7160e01b825260418452602482fd5b6040513d85823e3d90fd5b8280fd5b0151905038806200010b565b848752602087209250601f198416875b8181106200065357509084600195949392106200063a575b505050811b0190556200011f565b015160001983861b60f8161c191690553880806200062c565b9293602060018192878601518155019501930162000614565b90919250848752602087208380860160051c82019260208710620006b8575b94869594939291940160051c01905b818110620006a95750620000f5565b8881558594506001016200069a565b925081926200068b565b634e487b7160e01b875260228952602487fd5b90607f1690620000de565b634e487b7160e01b855260418752602485fd5b015190503880620000aa565b888852602088209250601f198416885b8181106200074f575090846001959493921062000735575b505050811b018555620000bf565b015160001960f88460031b161c1916905538808062000727565b929360206001819287860151815501950193016200070f565b909150878752602087208480850160051c82019260208610620007b1575b9085949392910160051c01905b818110620007a2575062000093565b88815584935060010162000793565b9250819262000786565b634e487b7160e01b865260228852602486fd5b92607f16926200007b565b634e487b7160e01b845260418652602484fd5b600080fd5b6101c081019081106001600160401b038211176200080e57604052565b634e487b7160e01b600052604160045260246000fd5b606081019081106001600160401b038211176200080e57604052565b604081019081106001600160401b038211176200080e57604052565b601a54680100000000000000008110156200080e576001810180601a558110156200091f576101a0600d91601a600052600e602060002091020192805184556020810151600185015560408101516002850155606081015160038501556080810151600485015560a0810151600585015560c0810151600685015560e0810151600785015561010081015160088501556101208101516009850155610140810151600a850155610160810151600b850155610180810151600c8501550151910155565b634e487b7160e01b600052603260045260246000fd5b601b54680100000000000000008110156200080e57600180820180601b558210156200091f57600090601b825260209260038484209102018451815581810192848601519182519460018060401b039586811162000c13578154948686811c9616801562000c08575b8987101462000bf457601f9586811162000bac575b50889086831160011462000b3c5791806002949260409694889262000b30575b5050600019600383901b1c191690881b1790555b0196015190815194851162000b1c5786548481811c9116801562000b11575b8782101462000afd5783811162000ab5575b508592851160011462000a5257939450849291908362000a46575b50501b916000199060031b1c1916179055565b01519250388062000a33565b86815285812093958591601f198316915b8883831062000a9a575050501062000a80575b505050811b019055565b015160001960f88460031b161c1916905538808062000a76565b85870151885590960195948501948793509081019062000a63565b8782528682208480880160051c82019289891062000af3575b0160051c019085905b82811062000ae757505062000a18565b83815501859062000ad7565b9250819262000ace565b634e487b7160e01b82526022600452602482fd5b90607f169062000a06565b634e487b7160e01b81526041600452602490fd5b015190503880620009d3565b8386528986208893929091601f198416885b8d82821062000b95575050916040979593918560029896941062000b7b575b505050811b019055620009e7565b015160001960f88460031b161c1916905538808062000b6d565b8385015186558c9790950194938401930162000b4e565b8386528986208780850160051c8201928c861062000bea575b0160051c019088905b82811062000bde575050620009b3565b87815501889062000bce565b9250819262000bc5565b634e487b7160e01b85526022600452602485fd5b95607f16956200099e565b634e487b7160e01b84526041600452602484fdfe60806040526004361015610013575b600080fd5b60003560e01c806275a3171461062157806301ffc9a71461061857806306fdde031461060f578063081812fc1461060657806308ec6c3c146105fd578063095ea7b3146105f45780630db0de52146105eb5780630db6dff7146105e257806313af4035146105d957806315d57827146105d057806318160ddd146105c75780631bd2a477146105be57806323b872dd146105b55780632401c739146105495780632419f51b146105ac578063262a8c3b146105a35780632a55205a1461059a5780632c120156146105915780632c8854fe1461058857806332f0cd641461057f5780633468f9cd146105765780633477979e1461056d578063366e6fdb146105645780633a3454461461055b5780633b1475a71461055257806341463be11461054957806341f434341461054057806342842e0e1461053757806342966c681461052e578063430c20811461052557806345d5007e1461051c578063479d35e6146105135780634cc157df1461050a578063504c6e011461050157806355483d45146104f85780635a5ffb2e146104ef5780635ada8456146104e65780635cec1549146104dd578063600dd5ea146104d45780636352211e146104cb57806363b45e2d146104c257806367772584146104b957806367e54367146104b05780636a0558a6146104a75780636ffd17d41461049e57806370a0823114610495578063739420a51461048c5780637443b32c14610483578063744e94aa1461047a578063754a81d914610471578063806227f514610468578063835576ed1461045f5780638da5cb5b14610456578063938e3d7b1461044d578063954643ca1461044457806395d89b411461043b5780639bcf7a15146104325780639c7e334c14610429578063a22cb46514610420578063a6d13ee214610417578063ac9650d81461040e578063b24f2d3914610405578063b88d4fde146103fc578063bc197c81146103f3578063bc511816146103ea578063bcb7ea08146103e1578063c87b56dd146103d8578063d2e4c189146103cf578063d5937dae146103c6578063dabb0531146103bd578063e2cdf0ad146103b4578063e4c301eb146103ab578063e5f69e41146103a2578063e622563014610399578063e8a3d48514610390578063e985e9c514610387578063f1be42f11461037e5763f23a6e611461037657600080fd5b61000e61370c565b5061000e6136ed565b5061000e61368f565b5061000e6135f9565b5061000e6135da565b5061000e613385565b5061000e613242565b5061000e6131ff565b5061000e6130c1565b5061000e613077565b5061000e612f97565b5061000e612f63565b5061000e612f43565b5061000e612e6e565b5061000e612de5565b5061000e612d01565b5061000e612cca565b5061000e612c64565b5061000e612bd2565b5061000e612b1d565b5061000e6129b0565b5061000e6128e4565b5061000e61283c565b5061000e612812565b5061000e612694565b5061000e61266a565b5061000e61264d565b5061000e6125aa565b5061000e612440565b5061000e612421565b5061000e6123f7565b5061000e61235a565b5061000e6122fe565b5061000e6122d4565b5061000e6121ce565b5061000e6121a4565b5061000e612174565b5061000e612155565b5061000e612124565b5061000e61205a565b5061000e611f8b565b5061000e611d21565b5061000e611c6f565b5061000e611c45565b5061000e611c21565b5061000e611be3565b5061000e611bb3565b5061000e611ae0565b5061000e611a40565b5061000e6117d7565b5061000e61174d565b5061000e611723565b5061000e610fc9565b5061000e611704565b5061000e6116e4565b5061000e611669565b5061000e611636565b5061000e611602565b5061000e61153b565b5061000e611501565b5061000e61149a565b5061000e61144c565b5061000e611080565b5061000e610ff9565b5061000e610f98565b5061000e610f33565b5061000e610f0f565b5061000e610e8d565b5061000e610d5b565b5061000e610d11565b5061000e610cc7565b5061000e610c1a565b5061000e610bd0565b5061000e610b9f565b5061000e610ab9565b5061000e610993565b5061000e6107f0565b600435906001600160a01b038216820361000e57565b602435906001600160a01b038216820361000e57565b50634e487b7160e01b600052604160045260246000fd5b6001600160401b03811161068057604052565b610688610656565b604052565b604081019081106001600160401b0382111761068057604052565b608081019081106001600160401b0382111761068057604052565b6101c081019081106001600160401b0382111761068057604052565b606081019081106001600160401b0382111761068057604052565b602081019081106001600160401b0382111761068057604052565b90601f801991011681019081106001600160401b0382111761068057604052565b60405190610743826106c3565b565b60405190610743826106a8565b6040519060e082018281106001600160401b0382111761068057604052565b6020906001600160401b03811161078e575b601f01601f19160190565b610796610656565b610783565b9291926107a782610771565b916107b56040519384610715565b82948184528183011161000e578281602093846000960137010152565b9080601f8301121561000e578160206107ed9335910161079b565b90565b503461000e57604036600319011261000e5761080a61062a565b6001600160401b0360243581811161000e5761082a9036906004016107d2565b9160018060a01b0360095416331491610842836137d5565b60009283549015610947578352602090601482526040842091855191821161093a575b610879826108738554611e03565b856143fa565b80601f83116001146108c75750819085966108b796926108bc575b50508160011b916000199060031b1c19161790555b6108b1613821565b906139d8565b604051f35b015190503880610894565b90601f198316966108dd85600052602060002090565b9287905b898210610922575050908392916001946108b7989910610909575b505050811b0190556108a9565b015160001960f88460031b161c191690553880806108fc565b806001859682949686015181550195019301906108e1565b610942610656565b610865565b60405162461bcd60e51b815260206004820152600e60248201526d139bdd08185d5d1a1bdc9a5e995960921b6044820152606490fd5b0390fd5b6001600160e01b031981160361000e57565b503461000e57602036600319011261000e5760206004356109b381610981565b6001600160e01b0319166301ffc9a760e01b81148015610a33575b8015610a23575b8015610a13575b809181156109f1575b50506040519015158152f35b630271189760e51b1491508115610a0b575b5038806109e5565b905038610a03565b5063152a902d60e11b81146109dc565b50635b5e139f60e01b81146109d5565b506380ac58cd60e01b81146109ce565b600091031261000e57565b918091926000905b828210610a6e575011610a67575050565b6000910152565b91508060209183015181860152018291610a56565b90602091610a9c81518092818552858086019101610a4e565b601f01601f1916010190565b9060206107ed928181520190610a83565b503461000e57600080600319360112610b9c576040519080600254610add81611e03565b80855291600191808316908115610b725750600114610b17575b610b1385610b0781870382610715565b60405191829182610aa8565b0390f35b9250600283527f405787fa12a823e0f2b7631cc41b3ba8828b3321ca811111fa75cd3aa3bb5ace5b828410610b5a575050508101602001610b0782610b13610af7565b80546020858701810191909152909301928101610b3f565b869550610b1396935060209250610b0794915060ff191682840152151560051b8201019293610af7565b80fd5b503461000e57602036600319011261000e576020610bbe600435613954565b6040516001600160a01b039091168152f35b503461000e57602036600319011261000e57610bea61062a565b6009546001600160a01b0391908216330361094757166001600160601b0360a01b60175416176017556000604051f35b503461000e57604036600319011261000e57610c3461062a565b602435610c408261455a565b6001600160a01b039081610c53826138ae565b51168092841614610cb557813303610c71575b610c6f92613fa3565b005b60008281526007602090815260408083203384529091529020610c9e90610c9a905b5460ff1690565b1590565b15610c66576040516367d9dca160e11b8152600490fd5b60405163250fdee360e21b8152600490fd5b503461000e57602036600319011261000e57610ce161062a565b6009546001600160a01b0391908216330361094757166001600160601b0360a01b60165416176016556000604051f35b503461000e57602036600319011261000e57610d2b61062a565b6009546001600160a01b0391908216330361094757166001600160601b0360a01b60185416176018556000604051f35b503461000e57602036600319011261000e57610d7561062a565b6009546001600160a01b03808216919033839003610947576000931680916001600160601b0360a01b1617600955604051917f8292fce18fa69edf4db7b94ea2e58241df0ae57f97e0a6c9b29067028bf92d768484a3f35b50634e487b7160e01b600052603260045260246000fd5b600e90601a54811015610e20575b601a600052027f057c384a7d1c54f3a1b2e5e67b2617b8224fdfd1ea7234eea573a6ff665ff63e0190600090565b610e28610dcd565b610df2565b9b99979593919e9d9c9a98969492909e6101c08d019f8d5260208d015260408c015260608b015260808a015260a089015260c088015260e08701526101008601526101208501526101408401526101608301526101808201526101a00152565b503461000e57602036600319011261000e57600435601a5481101561000e57610eb590610de4565b508054610b1360018301549260028101549060038101546004820154600583015460068401546007850154600886015491600987015493600a88015495600b89015497600d600c8b01549a01549a6040519e8f9e8f610e2d565b503461000e57600036600319011261000e5760206000546001549003604051908152f35b503461000e57602036600319011261000e5760043560005260116020526020600d60406000200154604051908152f35b606090600319011261000e576001600160a01b0390600435828116810361000e5791602435908116810361000e579060443590565b503461000e57610c6f610faa36610f63565b916001600160a01b0381163314613d7857610fc43361455a565b613d78565b503461000e57602036600319011261000e5760043560005260126020526020600260406000200154604051908152f35b503461000e57602036600319011261000e57600435600c5481101561104b57602090600c6000527fdf6966c971051c3d54ec59162606531493a51404a002842f56009d7e5cf4a8c70154604051908152f35b60405162461bcd60e51b815260206004820152600d60248201526c092dcecc2d8d2c840d2dcc8caf609b1b6044820152606490fd5b503461000e5760408060031936011261000e5760049081356024356110a8601954831061532e565b6110d46110c46110b7846138ae565b516001600160a01b031690565b6001600160a01b0316331461537a565b6016546110f1906001600160a01b03165b6001600160a01b031690565b938161121e85519663bd85b03960e01b885261113a60209889818061111d888a83019190602083019252565b0381865afa90811561143f575b600091611422575b5015156153d5565b8651627eeac760e11b8152338582019081526020810185905261117e91908a90829081906040010381865afa908115611415575b6000916113e8575b501515615419565b878751809263c19a4ef560e01b825281806111a0888a83019190602083019252565b03915afa9081156113db575b6000916113ae575b506111e1836111d98360016111d38b6000526012602052604060002090565b01614b29565b541415615485565b6111fb8160016111d3896000526012602052604060002090565b54620f423f810361139e575b5060016111d3876000526012602052604060002090565b55601654611234906001600160a01b03166110e5565b94853b1561000e5760a06112b66112e6926000866112718261134399819d8a838f51809681958294637921219560e11b84523090339085016154c9565b03925af18015611391575b611378575b50601654611297906001600160a01b03166110e5565b8a51633129e77360e01b81528881019283529485928391829160200190565b03915afa91821561136b575b8992611348575b508101516112ef60056112e6896000526011602052604060002090565b0191825461422c565b90558681015161130e60066112e6896000526011602052604060002090565b9055606081015161132e60036112e6896000526011602052604060002090565b90550151936000526011602052604060002090565b905551f35b61136491923d8091833e61135c8183610715565b810190615543565b90386112c9565b611373614073565b6112c2565b8061138561138b9261066d565b80610a43565b38611281565b611399614073565b61127c565b6113a89087615610565b38611207565b6113ce9150883d8a116113d4575b6113c68183610715565b810190615470565b386111b4565b503d6113bc565b6113e3614073565b6111ac565b61140891508a3d8c1161140e575b6114008183610715565b8101906153c6565b38611176565b503d6113f6565b61141d614073565b61116e565b61143991508a3d8c1161140e576114008183610715565b38611132565b611447614073565b61112a565b503461000e57604036600319011261000e5761ffff61271061147d611472600435614699565b909316602435614686565b604080516001600160a01b03949094168452919004602083015290f35b503461000e57604036600319011261000e57600954600435906001600160a01b03163303610947578060005260136020526114e56040600020916114e060243591615207565b61422c565b606481116114f9575b815542600290910155005b5060646114ee565b503461000e57602036600319011261000e5760043560005260116020526020600360406000200154604051908152f35b8015150361000e57565b503461000e57602036600319011261000e5760043561155981611531565b6009546001600160a01b031633036115a95760207f38475885990d8dfe9ca01f0ef160a1b5514426eab9ddbc953a3353410ba7809691151560ff19600e541660ff821617600e55604051908152a1005b60405162461bcd60e51b815260206004820152602b60248201527f4e6f7420617574686f72697a656420746f20736574206f70657261746f72207260448201526a32b9ba3934b1ba34b7b71760a91b6064820152608490fd5b503461000e57602036600319011261000e576004356000908152601360209081526040909120601190915242600390910155005b503461000e57602036600319011261000e5760043560005260136020526040600020606481556002429101556000604051f35b503461000e57602036600319011261000e57600435600052601160205260406000208054610b1360018301549260028101549060038101546004820154600583015460068401546007850154600886015491600987015493600a88015495600b89015497600d600c8b01549a01549a6040519e8f9e8f610e2d565b503461000e57604036600319011261000e57610c6f602435600435615610565b503461000e57600036600319011261000e576020600054604051908152f35b503461000e57600036600319011261000e5760206040516daaeb6d7670e522a718067333cd4e8152f35b503461000e5761175c36610f63565b6001600160a01b03831633141591826117c9575b6040519261177d846106fa565b600084526117bb575b611791828286613d78565b803b61179957005b6117a293614159565b156117a957005b6040516368d2bf6b60e11b8152600490fd5b6117c43361455a565b611786565b6117d23361455a565b611770565b503461000e57602036600319011261000e576004356117f5816138ae565b805190916001600160a01b039182169182903382148015611a00575b80156119ec575b156119da5760009461182a8385613f53565b6001600160a01b03831660009081526005602052604090206118d49061188a61186d61185d83546001600160401b031690565b600019016001600160401b031690565b825467ffffffffffffffff19166001600160401b03909116178255565b80546118ac9060801c6001600160401b03165b6001016001600160401b031690565b815467ffffffffffffffff60801b191660809190911b67ffffffffffffffff60801b16179055565b61192a6118eb856000526004602052604060002090565b80546001600160a01b0319166001600160a01b0386161781556119176001600160401b034216826139ad565b805460ff60e01b1916600160e01b179055565b60018401611942816000526004602052604060002090565b80549093166001600160a01b031615611987575b505050508260405192600080516020615d038339815191528285a461198561198060015460010190565b600155565bf35b865403611995575b80611956565b81546001600160a01b0319166001600160a01b039093169290921781556119d2916119cc906020905b01516001600160401b031690565b906139ad565b38808061198f565b604051632ce44b5f60e11b8152600490fd5b50336119fa6110e585613954565b14611818565b50611a3b610c9333611a248560018060a01b03166000526007602052604060002090565b9060018060a01b0316600052602052604060002090565b611811565b503461000e57604036600319011261000e576020611a5c61062a565b602435906001600160a01b0380611a72846138ae565b51169281831692848414948515611ab0575b50508315611a9a575b5050506040519015158152f35b611aa691929350613954565b1614388080611a8d565b60009081526007875260408082206001600160a01b03939093168252602092909252205460ff1693503880611a84565b503461000e57604036600319011261000e57600435602435611b0d60018060a01b0360185416331461513b565b611b16826152a0565b90808210611b7c5782600492611b40611b6d93610c6f966000526013602052604060002092614831565b84611b55846000526011602052604060002090565b01556003429101556000526011602052604060002090565b0154611b77615304565b615c9f565b60405162461bcd60e51b815260206004820152600f60248201526e4e6f7420656e6f756768206d616e6160881b6044820152606490fd5b503461000e57602036600319011261000e5760043560005260116020526020600660406000200154604051908152f35b503461000e57602036600319011261000e57611c00600435614699565b604080516001600160a01b0393909316835261ffff91909116602083015290f35b503461000e57600036600319011261000e57602060ff600e54166040519015158152f35b503461000e57600036600319011261000e576016546040516001600160a01b039091168152602090f35b503461000e5760408060031936011261000e5760095460043591906001600160a01b03163303611ced5760009180835260136020528183209060116020526004838520015490611cc46024356114e0836152a0565b91808311611ce5575b50845260116020526004838520015560034291015551f35b915038611ccd565b5162461bcd60e51b815260206004820152600e60248201526d139bdd08185d5d1a1bdc9a5e995960921b6044820152606490fd5b503461000e57604036600319011261000e57602435611d41600435614b41565b6015546001600160a01b031690813b1561000e57600080610c6f9360446040518094819363bfa0fedb60e01b83528760048401523360248401525af18015611dad575b611d9a575b50611d95601954614814565b6158bb565b80611385611da79261066d565b38611d89565b611db5614073565b611d84565b600390601b54811015611df6575b601b600052027f3ad8aa4f87544323a9d1e5dd902f40c356527a7955687113db5f9a85ad579dc10190600090565b611dfe610dcd565b611dc8565b90600182811c92168015611e33575b6020831014611e1d57565b634e487b7160e01b600052602260045260246000fd5b91607f1691611e12565b6040519060008260085491611e5183611e03565b80835292600190818116908115611ec55750600114611e78575b5061074392500383610715565b600860009081529150600080516020615ce38339815191525b848310611eaa5750610743935050810160200138611e6b565b81935090816020925483858a01015201910190918592611e91565b90506020925061074394915060ff191682840152151560051b82010138611e6b565b9060405191826000825492611efb84611e03565b908184526001948581169081600014611f685750600114611f25575b505061074392500383610715565b9093915060005260209081600020936000915b818310611f5057505061074393508201013880611f17565b85548884018501529485019487945091830191611f38565b91505061074394506020925060ff191682840152151560051b8201013880611f17565b503461000e57602036600319011261000e57600435601b5481101561000e57600390601b60005202807f3ad8aa4f87544323a9d1e5dd902f40c356527a7955687113db5f9a85ad579dc10154610b136120307f3ad8aa4f87544323a9d1e5dd902f40c356527a7955687113db5f9a85ad579dc36120297f3ad8aa4f87544323a9d1e5dd902f40c356527a7955687113db5f9a85ad579dc28601611ee7565b9401611ee7565b61204c6040519485948552606060208601526060850190610a83565b908382036040850152610a83565b503461000e57604036600319011261000e5761207461062a565b600954602435916001600160a01b0391821633036109475761271083116120ed57600a80546001600160b01b0319169190921690811760a084901b61ffff60a01b1617909155604051918252907f90d7ec04bcb8978719414f82e52e4cb651db41d0e6f8cea6118c2191e6183adb9080602081010390a2005b60405162461bcd60e51b815260206004820152600f60248201526e45786365656473206d61782062707360881b6044820152606490fd5b503461000e57602036600319011261000e5760206001600160a01b0361214b6004356138ae565b5116604051908152f35b503461000e57600036600319011261000e576020600c54604051908152f35b503461000e57602036600319011261000e5760043560005260116020526020600560406000200154604051908152f35b503461000e57600036600319011261000e576018546040516001600160a01b039091168152602090f35b503461000e57604036600319011261000e576004356121f860018060a01b0360185416331461513b565b806000526011602052604060002060016122246002830161221c602435825461422c565b809155615191565b9101541061222e57005b6000526011602052604060002060018101805461224e6002840154615191565b8181111561227e5761226b600c92826122709361227a9655614831565b614626565b920191825461422c565b9055005b60405162461bcd60e51b815260206004820152602860248201527f4e6f7420656e6f75676820657870657269656e636520706f696e747320746f2060448201526706c6576656c2075760c41b6064820152608490fd5b503461000e57600036600319011261000e576015546040516001600160a01b039091168152602090f35b503461000e57602036600319011261000e576001600160a01b0361232061062a565b16801561234857600052600560205260206001600160401b0360406000205416604051908152f35b6040516323d3ad8160e21b8152600490fd5b503461000e57604036600319011261000e5760043560243561238760018060a01b0360185416331461513b565b61239082615207565b908082106123bd57610c6f9260005260136020526040600020910390818155600242910155611b77615273565b60405162461bcd60e51b81526020600482015260126024820152714e6f7420656e6f756768207374616d696e6160701b6044820152606490fd5b503461000e57602036600319011261000e576020612419600435601054614686565b604051908152f35b503461000e57602036600319011261000e5760206124196004356152a0565b503461000e57608036600319011261000e5761245a61062a565b602435906001600160401b039060443582811161000e5761247f9036906004016107d2565b9260643583811161000e576124989036906004016107d2565b916124ae60018060a01b036009541633146137d5565b6000936124bc83865461422c565b6124c581614307565b8552602090600d82526040862091875191821161259d575b6124eb826108738554611e03565b80601f831160011461252a5750819087986108b7989261251f575b50508160011b916000199060031b1c1916179055613bd6565b015190503880612506565b9197601f19891661254085600052602060002090565b9389905b82821061258557505091600193918a6108b79a9b941061256c575b505050811b019055613bd6565b015160001960f88460031b161c1916905538808061255f565b80600186978294978701518155019601940190612544565b6125a5610656565b6124dd565b503461000e5760208060031936011261000e576000906004358252601281526040822060405192838383549182815201908193835284832090835b81811061263957505050846125fb910385610715565b60405193838594850191818652518092526040850193925b82811061262257505050500390f35b835185528695509381019392810192600101612613565b8254845292860192600192830192016125e5565b503461000e57602036600319011261000e57610c6f600435614b41565b503461000e57600036600319011261000e576009546040516001600160a01b039091168152602090f35b503461000e5760208060031936011261000e576001600160401b039060043582811161000e576126c89036906004016107d2565b6009549091906001600160a01b03163303610947576126e5611e3d565b908251938411612805575b612704846126ff600854611e03565b61439b565b80601f8511600114612771575092807fc9c7c3fe08b88b4df9d4d47ef47d2c43d55c025a0ba88ca442580ed9e7348a1694600091612766575b508160011b916000199060031b1c1916176008555b6127616040519283928361444e565b0390a1005b90508301513861273d565b600860005290601f198516600080516020615ce3833981519152926000905b8282106127ed5750509185917fc9c7c3fe08b88b4df9d4d47ef47d2c43d55c025a0ba88ca442580ed9e7348a1696600194106127d4575b5050811b01600855612752565b85015160001960f88460031b161c1916905538806127c7565b80600185968294968a01518155019501930190612790565b61280d610656565b6126f0565b503461000e57600036600319011261000e576017546040516001600160a01b039091168152602090f35b503461000e57600080600319360112610b9c57604051908060035461286081611e03565b80855291600191808316908115610b72575060011461288957610b1385610b0781870382610715565b9250600383527fc2575a0e9e593c00f959f8c92f12db2869c3395a3b0502d05e2516446f71f85b5b8284106128cc575050508101602001610b0782610b13610af7565b805460208587018101919091529093019281016128b1565b503461000e57606036600319011261000e57600435612901610640565b6009546001600160a01b03929160443591841633036109475761271082116120ed577f7365cf4122f072a3365c20d54eff9b38d73c096c28e1892ec8f5b0e403a0f12d916129ab91600186604051926129598461068d565b1696878352612997602084019185835288600052600b6020526040600020945116849060018060a01b03166001600160601b0360a01b825416179055565b519101556040519081529081906020820190565b0390a3005b503461000e5760a036600319011261000e576084356064356004356024356044356129da836138ae565b516001600160a01b03166129f8906001600160a01b0316331461506c565b612a0c836000526011602052604060002090565b928585612a19848661422c565b90612a239161422c565b90612a2d9161422c565b94600c8501968754871115612a41906150c9565b6007860185815490612a529161422c565b90556008860184815490612a659161422c565b90556009860182815490612a789161422c565b9055600a860181815490612a8b9161422c565b9055612a9690614664565b6003860190815490612aa79161422c565b9055612ab290614664565b90612ac7906000526013602052604060002090565b60010190815490612ad79161422c565b9055612ae290614664565b600b830190815490612af39161422c565b9055612afe90614664565b9060050190815490612b0f9161422c565b905581549061227a91614831565b503461000e57604036600319011261000e57612b3761062a565b602435612b4381611531565b612b4c8261455a565b6001600160a01b03821691338314612bc0573360009081526007602090815260408083206001600160a01b039094168352929052209015159060ff1981541660ff83161790556040519081527f17307eab39ab6107e8899845ad3d59bd9653f200f220920489ca2b5937696c3160203392a3005b60405163b06307db60e01b8152600490fd5b503461000e57602036600319011261000e5760043560005260116020526020600160406000200154604051908152f35b602080820190808352835180925260408301928160408460051b8301019501936000915b848310612c365750505050505090565b9091929394958480612c54600193603f198682030187528a51610a83565b9801930193019194939290612c26565b503461000e57602036600319011261000e576001600160401b0360043581811161000e573660238201121561000e57806004013591821161000e573660248360051b8301011161000e57610b13916024612cbe9201614483565b60405191829182612c02565b503461000e57600036600319011261000e57600a54604080516001600160a01b038316815260a09290921c61ffff16602083015290f35b503461000e57608036600319011261000e57612d1b61062a565b612d23610640565b6044356064356001600160401b03811161000e57612d459036906004016107d2565b91336001600160a01b038516036117bb57611791828286613d78565b6020906001600160401b038111612d7a575b60051b0190565b612d82610656565b612d73565b81601f8201121561000e57803591612d9e83612d61565b92612dac6040519485610715565b808452602092838086019260051b82010192831161000e578301905b828210612dd6575050505090565b81358152908301908301612dc8565b503461000e5760a036600319011261000e57612dff61062a565b50612e08610640565b506001600160401b0360443581811161000e57612e29903690600401612d87565b5060643581811161000e57612e42903690600401612d87565b5060843590811161000e57612e5b9036906004016107d2565b5060405163bc197c8160e01b8152602090f35b503461000e57602036600319011261000e576004356002604060608151612e94816106a8565b600091818380935282602082015282858201520152838152601360205220015415612f0957612ed8612ed3610b13926000526013602052604060002090565b615bef565b6040519182918291909160608060808301948051845260208101516020850152604081015160408501520151910152565b60405162461bcd60e51b8152602060048201526012602482015271151bdad95b881251081b9bdd08199bdd5b9960721b6044820152606490fd5b503461000e57604036600319011261000e57610c6f6024356004356158bb565b503461000e57602036600319011261000e57610b13612f83600435613762565b604051918291602083526020830190610a83565b503461000e57602036600319011261000e576002612ffa600435612fc06110c46110b7836138ae565b82612fd5826000526012602052604060002090565b015490612fe3821515615baf565b600093849384926000526012602052604060002090565b0155601754613011906001600160a01b03166110e5565b90813b1561307357829161303d91604051948580948193637921219560e11b83523330600485016154c9565b03925af18015613066575b613053575b50604051f35b806113856130609261066d565b3861304d565b61306e614073565b613048565b5050fd5b503461000e57602036600319011261000e5761309161062a565b6009546001600160a01b0391908216330361094757166001600160601b0360a01b60155416176015556000604051f35b503461000e57602036600319011261000e576040516130df816106c3565b6101a06000918281528260208201528260408201528260608201528260808201528260a08201528260c08201528260e082015282610100820152826101208201528261014082015282610160820152826101808201520152610b136131586131536004356000526011602052604060002090565b614930565b604051918291829190916101c0810192805182526020810151602083015260408101516040830152606081015160608301526080810151608083015260a081015160a083015260c081015160c083015260e081015160e0830152610100808201519083015261012080820151908301526101408082015190830152610160808201519083015261018080820151908301526101a080910151910152565b6005111561000e57565b503461000e57604036600319011261000e576020613239602435613222816131f5565b600435600052601283526001604060002001614b29565b54604051908152f35b503461000e57604036600319011261000e5760243561327c60043561326c6110c46110b7836138ae565b6000526012602052604060002090565b80548060005b81811061335a575b50613296908210615a61565b6015546132ab906001600160a01b03166110e5565b90813b1561000e576000806132df61333594610c6f97604051948580948193637921219560e11b83523330600485016154c9565b03925af1801561334d575b61333a575b5061331a6133136133096133038654614814565b86614182565b90549060031b1c90565b9184614182565b90919082549060031b600019811b9283911b16911916179055565b615a9f565b806113856133479261066d565b386132ef565b613355614073565b6132ea565b846133686133098387614182565b1461337b5761337690614473565b613282565b915061329661328a565b503461000e5760408060031936011261000e576004359060243580926133ae601954821061532e565b6133bd6110c46110b7836138ae565b6017546133d2906001600160a01b03166110e5565b835163bd85b03960e01b81526004810184905261344990602090613410908281602481885afa9081156135cd575b6000916135b0575b501515615adf565b8551627eeac760e11b8152336004820152602481018690528181604481875afa9182156135a3575b600092613586575b50501515615b1e565b61346c836002613463856000526012602052604060002090565b01541415615b6a565b6002613482836000526012602052604060002090565b01549081613518575b50506134a36002916000526012602052604060002090565b01556017546134ba906001600160a01b03166110e5565b91823b1561000e5760006134e8819482938551948580948193637921219560e11b83523033600485016154c9565b03925af1801561350b575b6134fb575051f35b806113856135089261066d565b51f35b613513614073565b6134f3565b80919293503b1561000e57849260008061354f6134a3946002968951948580948193637921219560e11b83523330600485016154c9565b03925af18015613579575b613566575b509161348b565b806113856135739261066d565b3861355f565b613581614073565b61355a565b61359c9250803d1061140e576114008183610715565b3880613440565b6135ab614073565b613438565b6135c79150833d851161140e576114008183610715565b38613408565b6135d5614073565b613400565b503461000e57602036600319011261000e576020612419600435615207565b503461000e57600080600319360112610b9c57604051908060085461361d81611e03565b80855291600191808316908115610b72575060011461364657610b1385610b0781870382610715565b925060088352600080516020615ce38339815191525b828410613677575050508101602001610b0782610b13610af7565b8054602085870181019190915290930192810161365c565b503461000e57604036600319011261000e57602060ff6136e16136b061062a565b6136b8610640565b6001600160a01b0391821660009081526007865260408082209290931681526020919091522090565b54166040519015158152f35b503461000e57600036600319011261000e576020601954604051908152f35b503461000e5760a036600319011261000e5761372661062a565b5061372f610640565b506084356001600160401b03811161000e5761374f9036906004016107d2565b5060405163f23a6e6160e01b8152602090f35b806000526020600f81526137796040600020611ee7565b80516137cf57506107ed9061379661379084614266565b93614867565b9260405193816137af8693518092868087019101610a4e565b82016137c382518093868085019101610a4e565b01038084520182610715565b91505090565b156137dc57565b60405162461bcd60e51b815260206004820152601760248201527f4e6f7420617574686f72697a656420746f206d696e742e0000000000000000006044820152606490fd5b60405190602082018281106001600160401b03821117613845575b60405260008252565b61384d610656565b61383c565b6040519061385f826106df565b60006040838281528260208201520152565b9060405161387e816106df565b91546001600160a01b038116835260a081901c6001600160401b0316602084015260e01c60ff1615156040830152565b6138b6613852565b508060005481106138d4575b604051636f96cda160e11b8152600490fd5b6138eb6138f0916000526004602052604060002090565b613871565b613900610c9a6040830151151590565b156138c25780516001600160a01b031661394f57505b600019016139316138eb826000526004602052604060002090565b8051613945906001600160a01b03166110e5565b61394f5750613916565b905090565b600054811080613991575b1561397f576000908152600660205260409020546001600160a01b031690565b6040516333d1c03960e21b8152600490fd5b5080600052600460205260ff60406000205460e01c161561395f565b805467ffffffffffffffff60a01b191660a09290921b67ffffffffffffffff60a01b16919091179055565b600080546001600160a01b0383169391929091908415613bc5576001600160a01b0381166000908152600560205260409020613a3d905b613a2361189d82546001600160401b031690565b6001600160401b03166001600160401b0319825416179055565b6001600160a01b0381166000908152600560205260409020613a98905b8054613a719060401c6001600160401b031661189d565b67ffffffffffffffff60401b82549160401b169067ffffffffffffffff60401b1916179055565b613acf81613ab0856000526004602052604060002090565b80546001600160a01b0319166001600160a01b03909216919091179055565b613af56001600160401b034216613af0856000526004602052604060002090565b6139ad565b8294600190818501833b1515600014613b785782805b613b20575b505050505050815403610b9c5755565b15613b6b575b86604089848a600080516020615d03833981519152818551a4613b50610c9a88878d019c896140b0565b613b5b575083613b0b565b516368d2bf6b60e11b8152600490fd5b808810613b265780613b10565b919350935082809250604051935b613b93575b505050505055565b15613bb8575b8482808801978688600080516020615d038339815191528189a4613b86565b808610613b995780613b8b565b604051622e076360e81b8152600490fd5b6000805492939092916001600160a01b0381168015613bc5578515613d6657613ca76001600160401b03613c79818916613c47613c258760018060a01b03166000526005602052604060002090565b613a2383613c3a83546001600160401b031690565b016001600160401b031690565b6001600160a01b0386166000908152600560205260409020613a719091613c3a83546001600160401b039060401c1690565b613c9184613ab0886000526004602052604060002090565b4216613af0866000526004602052604060002090565b8395840190823b1515600014613d195760019182805b613cd157505050505050815403610b9c5755565b15613d0c575b86604089848a600080516020615d03833981519152818551a4613d01610c9a88878d019c896140b0565b613b5b575083613cbd565b808810613cd75780613b10565b93509150506001809181604051935b613d3457505050505055565b15613d59575b8482808801978688600080516020615d038339815191528189a4613d28565b808610613d3a5780613b8b565b60405163b562e8dd60e01b8152600490fd5b613d81836138ae565b80516001600160a01b038084169392918116849003613f42578333148015613f19575b8015613f05575b156119da578416938415613ef357613e5e90613dc78488613f53565b6001600160a01b0384166000908152600560205260409020613df790613a2361185d82546001600160401b031690565b6001600160a01b0381166000908152600560205260409020613e1890613a0f565b613e4e613e2f886000526004602052604060002090565b80546001600160a01b0319166001600160a01b03909316929092178255565b6001600160401b034216906139ad565b6001850190613e77826000526004602052604060002090565b8054909290613e8e906001600160a01b03166110e5565b15613eaf575b50505050600080516020615d038339815191526000604051a4565b60005403613ebe575b80613e94565b81546001600160a01b0319166001600160a01b03909316929092178155613eeb916119cc906020906119be565b388080613eb8565b604051633a954ecd60e21b8152600490fd5b5033613f136110e588613954565b14613dab565b50613f3d610c9333611a248660018060a01b03166000526007602052604060002090565b613da4565b60405162a1148160e81b8152600490fd5b906000908282526006602052604082206001600160601b0360a01b815416905560018060a01b03167f8c5be1e5ebec7d5bd14f71427d1e84f3dd0314c0f7b2291e5b200ac8c7c3b92582604051a4565b600082815260066020526040902080546001600160a01b0319166001600160a01b03831617905590919060018060a01b0380911691167f8c5be1e5ebec7d5bd14f71427d1e84f3dd0314c0f7b2291e5b200ac8c7c3b9256000604051a4565b9081602091031261000e57516107ed81610981565b6107ed939260809260018060a01b031682526000602083015260408201528160608201520190610a83565b6001600160a01b0391821681529116602082015260408101919091526080606082018190526107ed92910190610a83565b506040513d6000823e3d90fd5b3d156140ab573d9061409182610771565b9161409f6040519384610715565b82523d6000602084013e565b606090565b6140d960209160009394604051948580948193630a85bd0160e11b998a84523360048501614017565b03926001600160a01b03165af160009181614129575b5061411b576140fc614080565b80519081614116576040516368d2bf6b60e11b8152600490fd5b602001fd5b6001600160e01b0319161490565b61414b91925060203d8111614152575b6141438183610715565b810190614002565b90386140ef565b503d614139565b926020916140d9936000604051809681958294630a85bd0160e11b9a8b85523360048601614042565b805482101561419b575b60005260206000200190600090565b6141a3610dcd565b61418c565b60405190600c548083528260209182820190600c6000527fdf6966c971051c3d54ec59162606531493a51404a002842f56009d7e5cf4a8c7936000905b8282106141fb5750505061074392500383610715565b8554845260019586019588955093810193909101906141e5565b50634e487b7160e01b600052601160045260246000fd5b81198111614238570190565b614240614215565b0190565b6020918151811015614259575b60051b010190565b614261610dcd565b614251565b600c54906142726141a8565b600091825b8481106142b55760405162461bcd60e51b815260206004820152600f60248201526e125b9d985b1a59081d1bdad95b9259608a1b6044820152606490fd5b6142bf8184614244565b5182106142e65760019060011981116142d9575b01614277565b6142e1614215565b6142d3565b6107ed94506142f9915060409392614244565b518152600d60205220611ee7565b600c54600160401b81101561435e575b6001810180600c55811015614351575b600c6000527fdf6966c971051c3d54ec59162606531493a51404a002842f56009d7e5cf4a8c70155565b614359610dcd565b614327565b614366610656565b614317565b9061331a61074392805490600160401b82101561438e575b600182018155614182565b614396610656565b614383565b601f81116143a7575050565b60009060088252600080516020615ce3833981519152906020601f850160051c830194106143f0575b601f0160051c01915b8281106143e557505050565b8181556001016143d9565b90925082906143d0565b90601f811161440857505050565b600091825260208220906020601f850160051c83019410614444575b601f0160051c01915b82811061443957505050565b81815560010161442d565b9092508290614424565b90916144656107ed93604084526040840190610a83565b916020818403910152610a83565b6001906000198114614238570190565b9061448d81612d61565b9161449b6040519384610715565b818352601f196144aa83612d61565b0160005b81811061453457505060005b8281106144c75750505090565b8060051b820135601e198336030181121561000e578201908135916001600160401b03831161000e57602001823603811361000e5761450e6145149161452f94369161079b565b30614712565b61451e8287614244565b526145298186614244565b50614473565b6144ba565b8060606020809388010152016144ae565b9081602091031261000e57516107ed81611531565b600e5460ff166145675750565b6daaeb6d7670e522a718067333cd4e803b614580575050565b604051633185c44d60e21b81523060048201526001600160a01b038316602482015290602090829060449082905afa908115614619575b6000916145eb575b50156145c85750565b604051633b79c77360e21b81526001600160a01b03919091166004820152602490fd5b61460c915060203d8111614612575b6146048183610715565b810190614545565b386145bf565b503d6145fa565b614621614073565b6145b7565b7f33333333333333333333333333333333333333333333333333333333333333338111600116614657575b60050290565b61465f614215565b614651565b600590806000190482118115151661467a570290565b614682614215565b0290565b806000190482118115151661467a570290565b600052600b602052604060002090602060405192604084018481106001600160401b03821117614705575b60405280546001600160a01b0390811680865260019092015492909401829052806146fc57505061ffff600a549283169260a01c1690565b925061ffff1690565b61470d610656565b6146c4565b9060405190614720826106df565b602782527f416464726573733a206c6f772d6c6576656c2064656c65676174652063616c6c6020830152660819985a5b195960ca1b6040830152823b15614780576000816107ed9460208394519201905af461477a614080565b906147d4565b60405162461bcd60e51b815260206004820152602660248201527f416464726573733a2064656c65676174652063616c6c20746f206e6f6e2d636f6044820152651b9d1c9858dd60d21b6064820152608490fd5b909190156147e0575090565b8151156147f05750805190602001fd5b60405162461bcd60e51b81526020600482015290819061097d906024830190610a83565b60018110614824575b6000190190565b61482c614215565b61481d565b81811061483c570390565b614844614215565b0390565b90602091805182101561485a57010190565b614862610dcd565b010190565b801561491257806000908282935b6148fe575061488383610771565b926148916040519485610715565b80845281601f196148a183610771565b013660208701375b6148b35750505090565b6148bc90614814565b90600a906030828206801982116148f1575b0160f81b6001600160f81b031916841a6148e88487614848565b530490816148a9565b6148f9614215565b6148ce565b9261490a600a91614473565b930480614875565b5060405161491f8161068d565b60018152600360fc1b602082015290565b90600d61493b610736565b928054845260018101546020850152600281015460408501526003810154606085015260048101546080850152600581015460a0850152600681015460c0850152600781015460e085015260088101546101008501526009810154610120850152600a810154610140850152600b810154610160850152600c81015461018085015201546101a0830152565b6009549192916001600160a01b03163303610947576000526020601481526040600020908351906001600160401b038211614ab0575b614a0b826108738554611e03565b80601f8311600114614a45575081929394600092614a3a575b50508160011b916000199060031b1c1916179055565b015190503880614a24565b90601f19831695614a5b85600052602060002090565b926000905b888210614a9857505083600195969710614a7f575b505050811b019055565b015160001960f88460031b161c19169055388080614a75565b80600185968294968601518155019501930190614a60565b614ab8610656565b6149fd565b15614ac457565b60405162461bcd60e51b815260206004820152601960248201527f496e76616c6964206368617261637465722074797065204944000000000000006044820152606490fd5b60051115614b1357565b634e487b7160e01b600052602160045260246000fd5b906005811015614b1357600052602052604060002090565b601b548110614b4f90614abd565b614b5833614eee565b614b6181611dba565b50600201614b6e90611ee7565b614b7790615c63565b60198054614b8481615c21565b614b8d83611dba565b50600201614b9a90611ee7565b614ba3916149c7565b8054614bae83610de4565b509060018092015490614bc085610de4565b506002015485614bcf81610de4565b5060030154614bdd82610de4565b5060040154614beb83610de4565b5060050154614bf984610de4565b5060060154614c0785610de4565b506007015490614c1686610de4565b506008015492614c2587610de4565b506009015494614c3488610de4565b50600a015496614c4389610de4565b50600b015498614c5290610de4565b50600c015499614c60610736565b9c8d8d81526020015260408d015260608c015260808b015260a08a015260c089015260e0880152610100870152610120860152610140850152610160840152610180830152846101a0830152614cc0906000526011602052604060002090565b815181556020820151600182015560408201516002820155606082015160038201556080820151600482015560a0820151600582015560c0820151600682015560e0820151600782015561010082015160088201556101208201516009820155610140820151600a820155610160820151600b820155610180820151600c8201556101a090910151600d90910155808254614d65906000526012602052604060002090565b01614d7a906001600052602052604060002090565b620f423f9055808254614d97906000526012602052604060002090565b01614dab9060008052602052604060002090565b620f423f9055808254614dc8906000526012602052604060002090565b01614ddd906002600052602052604060002090565b620f423f9055808254614dfa906000526012602052604060002090565b01614e0f906003600052602052604060002090565b620f423f90558154614e2b906000526012602052604060002090565b01614e40906004600052602052604060002090565b620f423f9055614e4f82610de4565b5060040154614e5c610745565b906064825260208201524260408201524260608201528154614e88906000526013602052604060002090565b8151815560208201516001820155604082015160028201556060909101516003909101558054614eb790614473565b60195554614ec490614814565b60405160007f1d70055ce2e34b710424c8ce5a6e724570ab0ff0cdffb52107ba6f70821d21b991a3565b60408051614efb816106fa565b60009182825282549160018060a01b03851694851561505c576001600160a01b0381166000908152600560205260409020614f3590613a0f565b6001600160a01b0381166000908152600560205260409020614f5690613a5a565b614f6e81613ab0866000526004602052604060002090565b614f8f6001600160401b034216613af0866000526004602052604060002090565b8395600190818601833b15156000146150115782805b614fbb575b50505050505050815403610b9c5755565b15615004575b8789838a600080516020615d03833981519152818b51a4614fe9610c9a87868d019c886140b0565b614ff35783614fa5565b86516368d2bf6b60e11b8152600490fd5b808910614fc15780614faa565b9250945092838093509051935b61502a57505050505055565b1561504f575b8482808801978688600080516020615d038339815191528189a461501e565b8086106150305780613b8b565b8251622e076360e81b8152600490fd5b1561507357565b60405162461bcd60e51b815260206004820152602860248201527f43616c6c6572206973206e6f7420746865206f776e6572206f662074686520636044820152673430b930b1ba32b960c11b6064820152608490fd5b156150d057565b60405162461bcd60e51b815260206004820152603c60248201527f5374617420706f696e747320746f207370656e642073686f756c64206e6f742060448201527f65786365656420617661696c61626c65207374617420706f696e7473000000006064820152608490fd5b1561514257565b60405162461bcd60e51b815260206004820152602160248201527f43616c6c6572206973206e6f742074686520426174746c6520636f6e747261636044820152601d60fa1b6064820152608490fd5b6001908180601054905b6151a6575b50505090565b6151b4848295939495614686565b84106151ff578280946151c78484614686565b908181106151f2575b039260011981116151e5575b0193919261519b565b6151ed614215565b6151dc565b6151fa614215565b6151d0565b8193506151a0565b600052601360205261524860406000206201518060646002830154804210615266575b42818103911415600019829004831116615259575b0204905461422c565b606481116152535790565b50606490565b615261614215565b61523f565b61526e614215565b61522a565b604051906152808261068d565b6011825270039ba30b6b4b7309031b7b739bab6b2b21607d1b6020830152565b8060005260136020526152eb6040600020916107086152d360016003860154958642106152f7575b015480954203614686565b0490600052601160205260046040600020015461422c565b9080821161394f575090565b6152ff614215565b6152c8565b604051906153118261068d565b600e82526d036b0b7309031b7b739bab6b2b2160951b6020830152565b1561533557565b60405162461bcd60e51b815260206004820152601a60248201527f496e76616c69642063686172616374657220746f6b656e2049440000000000006044820152606490fd5b1561538157565b60405162461bcd60e51b815260206004820152601e60248201527f4e6f7420746865206f776e6572206f66207468652063686172616374657200006044820152606490fd5b9081602091031261000e575190565b156153dc57565b60405162461bcd60e51b8152602060048201526015602482015274125b9d985b1a59081a5d195b481d1bdad95b881251605a1b6044820152606490fd5b1561542057565b60405162461bcd60e51b815260206004820152601960248201527f4e6f7420746865206f776e6572206f6620746865206974656d000000000000006044820152606490fd5b5190610743826131f5565b9081602091031261000e57516107ed816131f5565b1561548c57565b60405162461bcd60e51b8152602060048201526015602482015274125d195b48185b1c9958591e48195c5d5a5c1c1959605a1b6044820152606490fd5b6001600160a01b0391821681529116602082015260408101919091526001606082015260a06080820181905260009082015260c00190565b81601f8201121561000e57805161551781610771565b926155256040519485610715565b8184526020828401011161000e576107ed9160208085019101610a4e565b60208183031261000e5780516001600160401b039182821161000e57019160e08382031261000e57615573610752565b92805192831161000e5761558e60c0926155c8948301615501565b84526020810151602085015260408101516040850152606081015160608501526080810151608085015260a081015160a085015201615465565b60c082015290565b156155d757565b60405162461bcd60e51b8152602060048201526011602482015270125d195b481b9bdd08195c5d5a5c1c1959607a1b6044820152606490fd5b906156206110c46110b7846138ae565b60165461574a906157429061563d906001600160a01b03166110e5565b604051633129e77360e01b81526004810185905260009590918690839060249082905afa9182156157de575b86926157bb575b506111d360019160a060c08501519461568886614b09565b6156ac896156a588886111d3886000526012602052604060002090565b54146155d0565b60208101516156d360056156ca866000526011602052604060002090565b01918254614831565b905560408101516156f360066156ca866000526011602052604060002090565b9055606081015161571360036156ca866000526011602052604060002090565b9055015161573060046156ca846000526011602052604060002090565b90556000526012602052604060002090565b620f423f9055565b60165461575f906001600160a01b03166110e5565b90813b156157b757829161578b91604051948580948193637921219560e11b83523330600485016154c9565b03925af180156157aa575b61579d5750565b806113856107439261066d565b6157b2614073565b615796565b8280fd5b60019192506157d66111d3913d808a833e61135c8183610715565b929150615670565b6157e6614073565b615669565b156157f257565b60405162461bcd60e51b815260206004820152601060248201526f125b9d985b1a59081cdada5b1b08125160821b6044820152606490fd5b1561583157565b60405162461bcd60e51b815260206004820152601a60248201527f4e6f7420746865206f776e6572206f662074686520736b696c6c0000000000006044820152606490fd5b1561587d57565b60405162461bcd60e51b815260206004820152601660248201527514dada5b1b08185b1c9958591e48195c5d5a5c1c195960521b6044820152606490fd5b906158c9601954831061532e565b6158d86110c46110b7846138ae565b601554615974906158f1906001600160a01b03166110e5565b9261326c60405163bd85b03960e01b815261593a60209182818061591d8a600483019190602083019252565b03818b5afa908115615a54575b600091615a37575b5015156157eb565b604051627eeac760e11b81523360048201526024810186905281816044818a5afa918215615a2a575b600092615a0d575b5050151561582a565b805460005b8181106159e7575050823b1561000e57604051637921219560e11b81526107439360009082908183816159b1893033600485016154c9565b03925af180156159da575b6159c7575b5061436b565b806113856159d49261066d565b386159c1565b6159e2614073565b6159bc565b80615a03856159fc613309615a089588614182565b1415615876565b614473565b615979565b615a239250803d1061140e576114008183610715565b388061596b565b615a32614073565b615963565b615a4e9150833d851161140e576114008183610715565b38615932565b615a5c614073565b61592a565b15615a6857565b60405162461bcd60e51b815260206004820152600f60248201526e14dada5b1b081b9bdd08199bdd5b99608a1b6044820152606490fd5b8054908115615ac95760001991820191615ab98383614182565b909182549160031b1b1916905555565b634e487b7160e01b600052603160045260246000fd5b15615ae657565b60405162461bcd60e51b815260206004820152601060248201526f125b9d985b1a590818db185cdcc8125160821b6044820152606490fd5b15615b2557565b60405162461bcd60e51b815260206004820152601a60248201527f4e6f7420746865206f776e6572206f662074686520636c6173730000000000006044820152606490fd5b15615b7157565b60405162461bcd60e51b815260206004820152601660248201527510db185cdcc8185b1c9958591e48195c5d5a5c1c195960521b6044820152606490fd5b15615bb657565b60405162461bcd60e51b8152602060048201526011602482015270139bc818db185cdcc8195c5d5a5c1c1959607a1b6044820152606490fd5b90604051615bfc816106a8565b6060600382948054845260018101546020850152600281015460408501520154910152565b610743906040519063f82c50f160e01b6020830152602482015260248152615c48816106df565b600080916020815191016a636f6e736f6c652e6c6f675afa50565b615c91615c486107439260405192839163104c13eb60e21b6020840152602060248401526044830190610a83565b03601f198101835282610715565b615c48615cce9161074393604051938492632d839cb360e21b6020850152604060248501526064840190610a83565b90604483015203601f19810183528261071556fef3f7a9fe364faab93b216da50a3214154f22a0a2b415b23a84c8169e8b636ee3ddf252ad1be2c89b69c2b068fc378daa952ba7f163c4a11628f55a4df523b3efa264697066735822122014e0732fa728e7cfb3d4c4aed071463aa5d8b35cf679968b5391589c4d6c496f64736f6c634300080f0033",
  "linkReferences": {},
  "deployedLinkReferences": {}
}