{
  "_format": "hh-sol-artifact-1",
  "contractName": "Character",
  "sourceName": "contracts/Character.sol",
  "abi": [
    {
      "inputs": [],
      "stateMutability": "nonpayable",
      "type": "constructor"
    },
    {
      "inputs": [],
      "name": "ApprovalCallerNotOwnerNorApproved",
      "type": "error"
    },
    {
      "inputs": [],
      "name": "ApprovalQueryForNonexistentToken",
      "type": "error"
    },
    {
      "inputs": [],
      "name": "ApprovalToCurrentOwner",
      "type": "error"
    },
    {
      "inputs": [],
      "name": "ApproveToCaller",
      "type": "error"
    },
    {
      "inputs": [],
      "name": "BalanceQueryForZeroAddress",
      "type": "error"
    },
    {
      "inputs": [],
      "name": "MintToZeroAddress",
      "type": "error"
    },
    {
      "inputs": [],
      "name": "MintZeroQuantity",
      "type": "error"
    },
    {
      "inputs": [
        {
          "internalType": "address",
          "name": "operator",
          "type": "address"
        }
      ],
      "name": "OperatorNotAllowed",
      "type": "error"
    },
    {
      "inputs": [],
      "name": "OwnerQueryForNonexistentToken",
      "type": "error"
    },
    {
      "inputs": [],
      "name": "TransferCallerNotOwnerNorApproved",
      "type": "error"
    },
    {
      "inputs": [],
      "name": "TransferFromIncorrectOwner",
      "type": "error"
    },
    {
      "inputs": [],
      "name": "TransferToNonERC721ReceiverImplementer",
      "type": "error"
    },
    {
      "inputs": [],
      "name": "TransferToZeroAddress",
      "type": "error"
    },
    {
      "inputs": [],
      "name": "URIQueryForNonexistentToken",
      "type": "error"
    },
    {
      "anonymous": false,
      "inputs": [
        {
          "indexed": true,
          "internalType": "address",
          "name": "owner",
          "type": "address"
        },
        {
          "indexed": true,
          "internalType": "address",
          "name": "approved",
          "type": "address"
        },
        {
          "indexed": true,
          "internalType": "uint256",
          "name": "tokenId",
          "type": "uint256"
        }
      ],
      "name": "Approval",
      "type": "event"
    },
    {
      "anonymous": false,
      "inputs": [
        {
          "indexed": true,
          "internalType": "address",
          "name": "owner",
          "type": "address"
        },
        {
          "indexed": true,
          "internalType": "address",
          "name": "operator",
          "type": "address"
        },
        {
          "indexed": false,
          "internalType": "bool",
          "name": "approved",
          "type": "bool"
        }
      ],
      "name": "ApprovalForAll",
      "type": "event"
    },
    {
      "anonymous": false,
      "inputs": [
        {
          "indexed": false,
          "internalType": "string",
          "name": "prevURI",
          "type": "string"
        },
        {
          "indexed": false,
          "internalType": "string",
          "name": "newURI",
          "type": "string"
        }
      ],
      "name": "ContractURIUpdated",
      "type": "event"
    },
    {
      "anonymous": false,
      "inputs": [
        {
          "indexed": true,
          "internalType": "address",
          "name": "newRoyaltyRecipient",
          "type": "address"
        },
        {
          "indexed": false,
          "internalType": "uint256",
          "name": "newRoyaltyBps",
          "type": "uint256"
        }
      ],
      "name": "DefaultRoyalty",
      "type": "event"
    },
    {
      "anonymous": false,
      "inputs": [
        {
          "indexed": false,
          "internalType": "bool",
          "name": "restriction",
          "type": "bool"
        }
      ],
      "name": "OperatorRestriction",
      "type": "event"
    },
    {
      "anonymous": false,
      "inputs": [
        {
          "indexed": true,
          "internalType": "address",
          "name": "prevOwner",
          "type": "address"
        },
        {
          "indexed": true,
          "internalType": "address",
          "name": "newOwner",
          "type": "address"
        }
      ],
      "name": "OwnerUpdated",
      "type": "event"
    },
    {
      "anonymous": false,
      "inputs": [
        {
          "indexed": true,
          "internalType": "uint256",
          "name": "tokenId",
          "type": "uint256"
        },
        {
          "indexed": true,
          "internalType": "address",
          "name": "royaltyRecipient",
          "type": "address"
        },
        {
          "indexed": false,
          "internalType": "uint256",
          "name": "royaltyBps",
          "type": "uint256"
        }
      ],
      "name": "RoyaltyForToken",
      "type": "event"
    },
    {
      "anonymous": false,
      "inputs": [
        {
          "indexed": true,
          "internalType": "address",
          "name": "from",
          "type": "address"
        },
        {
          "indexed": true,
          "internalType": "address",
          "name": "to",
          "type": "address"
        },
        {
          "indexed": true,
          "internalType": "uint256",
          "name": "tokenId",
          "type": "uint256"
        }
      ],
      "name": "Transfer",
      "type": "event"
    },
    {
      "inputs": [],
      "name": "OPERATOR_FILTER_REGISTRY",
      "outputs": [
        {
          "internalType": "contract IOperatorFilterRegistry",
          "name": "",
          "type": "address"
        }
      ],
      "stateMutability": "view",
      "type": "function"
    },
    {
      "inputs": [
        {
          "internalType": "uint256",
          "name": "characterTokenId",
          "type": "uint256"
        },
        {
          "internalType": "uint256",
          "name": "strength",
          "type": "uint256"
        },
        {
          "internalType": "uint256",
          "name": "dexterity",
          "type": "uint256"
        },
        {
          "internalType": "uint256",
          "name": "intelligence",
          "type": "uint256"
        },
        {
          "internalType": "uint256",
          "name": "vitality",
          "type": "uint256"
        }
      ],
      "name": "addStats",
      "outputs": [],
      "stateMutability": "nonpayable",
      "type": "function"
    },
    {
      "inputs": [
        {
          "internalType": "address",
          "name": "operator",
          "type": "address"
        },
        {
          "internalType": "uint256",
          "name": "tokenId",
          "type": "uint256"
        }
      ],
      "name": "approve",
      "outputs": [],
      "stateMutability": "nonpayable",
      "type": "function"
    },
    {
      "inputs": [
        {
          "internalType": "address",
          "name": "owner",
          "type": "address"
        }
      ],
      "name": "balanceOf",
      "outputs": [
        {
          "internalType": "uint256",
          "name": "",
          "type": "uint256"
        }
      ],
      "stateMutability": "view",
      "type": "function"
    },
    {
      "inputs": [
        {
          "internalType": "address",
          "name": "_to",
          "type": "address"
        },
        {
          "internalType": "uint256",
          "name": "_quantity",
          "type": "uint256"
        },
        {
          "internalType": "string",
          "name": "_baseURI",
          "type": "string"
        },
        {
          "internalType": "bytes",
          "name": "_data",
          "type": "bytes"
        }
      ],
      "name": "batchMintTo",
      "outputs": [],
      "stateMutability": "nonpayable",
      "type": "function"
    },
    {
      "inputs": [],
      "name": "battleItems",
      "outputs": [
        {
          "internalType": "contract BattleItems",
          "name": "",
          "type": "address"
        }
      ],
      "stateMutability": "view",
      "type": "function"
    },
    {
      "inputs": [],
      "name": "battleSkills",
      "outputs": [
        {
          "internalType": "contract BattleSkills",
          "name": "",
          "type": "address"
        }
      ],
      "stateMutability": "view",
      "type": "function"
    },
    {
      "inputs": [
        {
          "internalType": "uint256",
          "name": "_tokenId",
          "type": "uint256"
        }
      ],
      "name": "burn",
      "outputs": [],
      "stateMutability": "nonpayable",
      "type": "function"
    },
    {
      "inputs": [
        {
          "internalType": "uint256",
          "name": "",
          "type": "uint256"
        }
      ],
      "name": "charStats",
      "outputs": [
        {
          "internalType": "uint256",
          "name": "tokenId",
          "type": "uint256"
        },
        {
          "internalType": "uint256",
          "name": "level",
          "type": "uint256"
        },
        {
          "internalType": "uint256",
          "name": "experience",
          "type": "uint256"
        },
        {
          "internalType": "uint256",
          "name": "health",
          "type": "uint256"
        },
        {
          "internalType": "uint256",
          "name": "mana",
          "type": "uint256"
        },
        {
          "internalType": "uint256",
          "name": "attack",
          "type": "uint256"
        },
        {
          "internalType": "uint256",
          "name": "defense",
          "type": "uint256"
        },
        {
          "internalType": "uint256",
          "name": "strength",
          "type": "uint256"
        },
        {
          "internalType": "uint256",
          "name": "dexterity",
          "type": "uint256"
        },
        {
          "internalType": "uint256",
          "name": "intelligence",
          "type": "uint256"
        },
        {
          "internalType": "uint256",
          "name": "vitality",
          "type": "uint256"
        },
        {
          "internalType": "uint256",
          "name": "accuracy",
          "type": "uint256"
        },
        {
          "internalType": "uint256",
          "name": "statPoints",
          "type": "uint256"
        },
        {
          "internalType": "uint256",
          "name": "typeId",
          "type": "uint256"
        }
      ],
      "stateMutability": "view",
      "type": "function"
    },
    {
      "inputs": [
        {
          "internalType": "uint256",
          "name": "",
          "type": "uint256"
        }
      ],
      "name": "charTypes",
      "outputs": [
        {
          "internalType": "uint256",
          "name": "typeId",
          "type": "uint256"
        },
        {
          "internalType": "string",
          "name": "characterType",
          "type": "string"
        },
        {
          "internalType": "string",
          "name": "uri",
          "type": "string"
        }
      ],
      "stateMutability": "view",
      "type": "function"
    },
    {
      "inputs": [],
      "name": "characterClasses",
      "outputs": [
        {
          "internalType": "contract CharacterClass",
          "name": "",
          "type": "address"
        }
      ],
      "stateMutability": "view",
      "type": "function"
    },
    {
      "inputs": [],
      "name": "contractURI",
      "outputs": [
        {
          "internalType": "string",
          "name": "",
          "type": "string"
        }
      ],
      "stateMutability": "view",
      "type": "function"
    },
    {
      "inputs": [
        {
          "internalType": "uint256",
          "name": "characterTokenId",
          "type": "uint256"
        },
        {
          "internalType": "uint256",
          "name": "classId",
          "type": "uint256"
        }
      ],
      "name": "equipClass",
      "outputs": [],
      "stateMutability": "nonpayable",
      "type": "function"
    },
    {
      "inputs": [
        {
          "internalType": "uint256",
          "name": "characterTokenId",
          "type": "uint256"
        },
        {
          "internalType": "uint256",
          "name": "tokenId",
          "type": "uint256"
        }
      ],
      "name": "equipItem",
      "outputs": [],
      "stateMutability": "nonpayable",
      "type": "function"
    },
    {
      "inputs": [
        {
          "internalType": "uint256",
          "name": "characterTokenId",
          "type": "uint256"
        },
        {
          "internalType": "uint256",
          "name": "skillId",
          "type": "uint256"
        }
      ],
      "name": "equipSkill",
      "outputs": [],
      "stateMutability": "nonpayable",
      "type": "function"
    },
    {
      "inputs": [
        {
          "internalType": "uint256",
          "name": "tokenId",
          "type": "uint256"
        }
      ],
      "name": "getApproved",
      "outputs": [
        {
          "internalType": "address",
          "name": "",
          "type": "address"
        }
      ],
      "stateMutability": "view",
      "type": "function"
    },
    {
      "inputs": [],
      "name": "getBaseURICount",
      "outputs": [
        {
          "internalType": "uint256",
          "name": "",
          "type": "uint256"
        }
      ],
      "stateMutability": "view",
      "type": "function"
    },
    {
      "inputs": [
        {
          "internalType": "uint256",
          "name": "_index",
          "type": "uint256"
        }
      ],
      "name": "getBatchIdAtIndex",
      "outputs": [
        {
          "internalType": "uint256",
          "name": "",
          "type": "uint256"
        }
      ],
      "stateMutability": "view",
      "type": "function"
    },
    {
      "inputs": [
        {
          "internalType": "uint256",
          "name": "_tokenId",
          "type": "uint256"
        }
      ],
      "name": "getCharacter",
      "outputs": [
        {
          "components": [
            {
              "internalType": "uint256",
              "name": "tokenId",
              "type": "uint256"
            },
            {
              "internalType": "uint256",
              "name": "level",
              "type": "uint256"
            },
            {
              "internalType": "uint256",
              "name": "experience",
              "type": "uint256"
            },
            {
              "internalType": "uint256",
              "name": "health",
              "type": "uint256"
            },
            {
              "internalType": "uint256",
              "name": "mana",
              "type": "uint256"
            },
            {
              "internalType": "uint256",
              "name": "attack",
              "type": "uint256"
            },
            {
              "internalType": "uint256",
              "name": "defense",
              "type": "uint256"
            },
            {
              "internalType": "uint256",
              "name": "strength",
              "type": "uint256"
            },
            {
              "internalType": "uint256",
              "name": "dexterity",
              "type": "uint256"
            },
            {
              "internalType": "uint256",
              "name": "intelligence",
              "type": "uint256"
            },
            {
              "internalType": "uint256",
              "name": "vitality",
              "type": "uint256"
            },
            {
              "internalType": "uint256",
              "name": "accuracy",
              "type": "uint256"
            },
            {
              "internalType": "uint256",
              "name": "statPoints",
              "type": "uint256"
            },
            {
              "internalType": "uint256",
              "name": "typeId",
              "type": "uint256"
            }
          ],
          "internalType": "struct Character.CharacterStats",
          "name": "",
          "type": "tuple"
        }
      ],
      "stateMutability": "view",
      "type": "function"
    },
    {
      "inputs": [
        {
          "internalType": "uint256",
          "name": "tokenId",
          "type": "uint256"
        }
      ],
      "name": "getCharacterAttack",
      "outputs": [
        {
          "internalType": "uint256",
          "name": "",
          "type": "uint256"
        }
      ],
      "stateMutability": "view",
      "type": "function"
    },
    {
      "inputs": [
        {
          "internalType": "uint256",
          "name": "tokenId",
          "type": "uint256"
        }
      ],
      "name": "getCharacterDefense",
      "outputs": [
        {
          "internalType": "uint256",
          "name": "",
          "type": "uint256"
        }
      ],
      "stateMutability": "view",
      "type": "function"
    },
    {
      "inputs": [
        {
          "internalType": "uint256",
          "name": "tokenId",
          "type": "uint256"
        }
      ],
      "name": "getCharacterHealth",
      "outputs": [
        {
          "internalType": "uint256",
          "name": "",
          "type": "uint256"
        }
      ],
      "stateMutability": "view",
      "type": "function"
    },
    {
      "inputs": [
        {
          "internalType": "uint256",
          "name": "tokenId",
          "type": "uint256"
        }
      ],
      "name": "getCharacterLevel",
      "outputs": [
        {
          "internalType": "uint256",
          "name": "",
          "type": "uint256"
        }
      ],
      "stateMutability": "view",
      "type": "function"
    },
    {
      "inputs": [
        {
          "internalType": "uint256",
          "name": "tokenId",
          "type": "uint256"
        }
      ],
      "name": "getCharacterMana",
      "outputs": [
        {
          "internalType": "uint256",
          "name": "",
          "type": "uint256"
        }
      ],
      "stateMutability": "view",
      "type": "function"
    },
    {
      "inputs": [],
      "name": "getDefaultRoyaltyInfo",
      "outputs": [
        {
          "internalType": "address",
          "name": "",
          "type": "address"
        },
        {
          "internalType": "uint16",
          "name": "",
          "type": "uint16"
        }
      ],
      "stateMutability": "view",
      "type": "function"
    },
    {
      "inputs": [
        {
          "internalType": "uint256",
          "name": "characterTokenId",
          "type": "uint256"
        }
      ],
      "name": "getEquippedClass",
      "outputs": [
        {
          "internalType": "uint256",
          "name": "",
          "type": "uint256"
        }
      ],
      "stateMutability": "view",
      "type": "function"
    },
    {
      "inputs": [
        {
          "internalType": "uint256",
          "name": "characterTokenId",
          "type": "uint256"
        }
      ],
      "name": "getEquippedItem",
      "outputs": [
        {
          "internalType": "uint256",
          "name": "",
          "type": "uint256"
        }
      ],
      "stateMutability": "view",
      "type": "function"
    },
    {
      "inputs": [
        {
          "internalType": "uint256",
          "name": "characterTokenId",
          "type": "uint256"
        }
      ],
      "name": "getEquippedSkill",
      "outputs": [
        {
          "internalType": "uint256",
          "name": "",
          "type": "uint256"
        }
      ],
      "stateMutability": "view",
      "type": "function"
    },
    {
      "inputs": [
        {
          "internalType": "uint256",
          "name": "_tokenId",
          "type": "uint256"
        }
      ],
      "name": "getRoyaltyInfoForToken",
      "outputs": [
        {
          "internalType": "address",
          "name": "",
          "type": "address"
        },
        {
          "internalType": "uint16",
          "name": "",
          "type": "uint16"
        }
      ],
      "stateMutability": "view",
      "type": "function"
    },
    {
      "inputs": [
        {
          "internalType": "address",
          "name": "owner",
          "type": "address"
        },
        {
          "internalType": "address",
          "name": "operator",
          "type": "address"
        }
      ],
      "name": "isApprovedForAll",
      "outputs": [
        {
          "internalType": "bool",
          "name": "",
          "type": "bool"
        }
      ],
      "stateMutability": "view",
      "type": "function"
    },
    {
      "inputs": [
        {
          "internalType": "address",
          "name": "_operator",
          "type": "address"
        },
        {
          "internalType": "uint256",
          "name": "_tokenId",
          "type": "uint256"
        }
      ],
      "name": "isApprovedOrOwner",
      "outputs": [
        {
          "internalType": "bool",
          "name": "isApprovedOrOwnerOf",
          "type": "bool"
        }
      ],
      "stateMutability": "view",
      "type": "function"
    },
    {
      "inputs": [
        {
          "internalType": "uint256",
          "name": "characterTokenId",
          "type": "uint256"
        }
      ],
      "name": "levelUp",
      "outputs": [],
      "stateMutability": "nonpayable",
      "type": "function"
    },
    {
      "inputs": [
        {
          "internalType": "uint256",
          "name": "_typeId",
          "type": "uint256"
        },
        {
          "internalType": "uint256",
          "name": "_skillTokenId",
          "type": "uint256"
        }
      ],
      "name": "mintNewCharacterWithItemAndEquip",
      "outputs": [],
      "stateMutability": "nonpayable",
      "type": "function"
    },
    {
      "inputs": [
        {
          "internalType": "address",
          "name": "_to",
          "type": "address"
        },
        {
          "internalType": "string",
          "name": "_tokenURI",
          "type": "string"
        }
      ],
      "name": "mintTo",
      "outputs": [],
      "stateMutability": "nonpayable",
      "type": "function"
    },
    {
      "inputs": [
        {
          "internalType": "bytes[]",
          "name": "data",
          "type": "bytes[]"
        }
      ],
      "name": "multicall",
      "outputs": [
        {
          "internalType": "bytes[]",
          "name": "results",
          "type": "bytes[]"
        }
      ],
      "stateMutability": "nonpayable",
      "type": "function"
    },
    {
      "inputs": [],
      "name": "name",
      "outputs": [
        {
          "internalType": "string",
          "name": "",
          "type": "string"
        }
      ],
      "stateMutability": "view",
      "type": "function"
    },
    {
      "inputs": [
        {
          "internalType": "uint256",
          "name": "_typeId",
          "type": "uint256"
        }
      ],
      "name": "newCharacter",
      "outputs": [],
      "stateMutability": "nonpayable",
      "type": "function"
    },
    {
      "inputs": [],
      "name": "nextTokenIdToMint",
      "outputs": [
        {
          "internalType": "uint256",
          "name": "",
          "type": "uint256"
        }
      ],
      "stateMutability": "view",
      "type": "function"
    },
    {
      "inputs": [],
      "name": "numCharacters",
      "outputs": [
        {
          "internalType": "uint256",
          "name": "",
          "type": "uint256"
        }
      ],
      "stateMutability": "view",
      "type": "function"
    },
    {
      "inputs": [
        {
          "internalType": "address",
          "name": "",
          "type": "address"
        },
        {
          "internalType": "address",
          "name": "",
          "type": "address"
        },
        {
          "internalType": "uint256[]",
          "name": "",
          "type": "uint256[]"
        },
        {
          "internalType": "uint256[]",
          "name": "",
          "type": "uint256[]"
        },
        {
          "internalType": "bytes",
          "name": "",
          "type": "bytes"
        }
      ],
      "name": "onERC1155BatchReceived",
      "outputs": [
        {
          "internalType": "bytes4",
          "name": "",
          "type": "bytes4"
        }
      ],
      "stateMutability": "nonpayable",
      "type": "function"
    },
    {
      "inputs": [
        {
          "internalType": "address",
          "name": "",
          "type": "address"
        },
        {
          "internalType": "address",
          "name": "",
          "type": "address"
        },
        {
          "internalType": "uint256",
          "name": "",
          "type": "uint256"
        },
        {
          "internalType": "uint256",
          "name": "",
          "type": "uint256"
        },
        {
          "internalType": "bytes",
          "name": "",
          "type": "bytes"
        }
      ],
      "name": "onERC1155Received",
      "outputs": [
        {
          "internalType": "bytes4",
          "name": "",
          "type": "bytes4"
        }
      ],
      "stateMutability": "nonpayable",
      "type": "function"
    },
    {
      "inputs": [],
      "name": "operatorRestriction",
      "outputs": [
        {
          "internalType": "bool",
          "name": "",
          "type": "bool"
        }
      ],
      "stateMutability": "view",
      "type": "function"
    },
    {
      "inputs": [],
      "name": "owner",
      "outputs": [
        {
          "internalType": "address",
          "name": "",
          "type": "address"
        }
      ],
      "stateMutability": "view",
      "type": "function"
    },
    {
      "inputs": [
        {
          "internalType": "uint256",
          "name": "tokenId",
          "type": "uint256"
        }
      ],
      "name": "ownerOf",
      "outputs": [
        {
          "internalType": "address",
          "name": "",
          "type": "address"
        }
      ],
      "stateMutability": "view",
      "type": "function"
    },
    {
      "inputs": [
        {
          "internalType": "uint256",
          "name": "tokenId",
          "type": "uint256"
        },
        {
          "internalType": "uint256",
          "name": "salePrice",
          "type": "uint256"
        }
      ],
      "name": "royaltyInfo",
      "outputs": [
        {
          "internalType": "address",
          "name": "receiver",
          "type": "address"
        },
        {
          "internalType": "uint256",
          "name": "royaltyAmount",
          "type": "uint256"
        }
      ],
      "stateMutability": "view",
      "type": "function"
    },
    {
      "inputs": [
        {
          "internalType": "address",
          "name": "from",
          "type": "address"
        },
        {
          "internalType": "address",
          "name": "to",
          "type": "address"
        },
        {
          "internalType": "uint256",
          "name": "tokenId",
          "type": "uint256"
        }
      ],
      "name": "safeTransferFrom",
      "outputs": [],
      "stateMutability": "nonpayable",
      "type": "function"
    },
    {
      "inputs": [
        {
          "internalType": "address",
          "name": "from",
          "type": "address"
        },
        {
          "internalType": "address",
          "name": "to",
          "type": "address"
        },
        {
          "internalType": "uint256",
          "name": "tokenId",
          "type": "uint256"
        },
        {
          "internalType": "bytes",
          "name": "data",
          "type": "bytes"
        }
      ],
      "name": "safeTransferFrom",
      "outputs": [],
      "stateMutability": "nonpayable",
      "type": "function"
    },
    {
      "inputs": [
        {
          "internalType": "address",
          "name": "operator",
          "type": "address"
        },
        {
          "internalType": "bool",
          "name": "approved",
          "type": "bool"
        }
      ],
      "name": "setApprovalForAll",
      "outputs": [],
      "stateMutability": "nonpayable",
      "type": "function"
    },
    {
      "inputs": [
        {
          "internalType": "address",
          "name": "_address",
          "type": "address"
        }
      ],
      "name": "setBattleSkills",
      "outputs": [],
      "stateMutability": "nonpayable",
      "type": "function"
    },
    {
      "inputs": [
        {
          "internalType": "address",
          "name": "_address",
          "type": "address"
        }
      ],
      "name": "setClassContract",
      "outputs": [],
      "stateMutability": "nonpayable",
      "type": "function"
    },
    {
      "inputs": [
        {
          "internalType": "string",
          "name": "_uri",
          "type": "string"
        }
      ],
      "name": "setContractURI",
      "outputs": [],
      "stateMutability": "nonpayable",
      "type": "function"
    },
    {
      "inputs": [
        {
          "internalType": "address",
          "name": "_royaltyRecipient",
          "type": "address"
        },
        {
          "internalType": "uint256",
          "name": "_royaltyBps",
          "type": "uint256"
        }
      ],
      "name": "setDefaultRoyaltyInfo",
      "outputs": [],
      "stateMutability": "nonpayable",
      "type": "function"
    },
    {
      "inputs": [
        {
          "internalType": "address",
          "name": "_address",
          "type": "address"
        }
      ],
      "name": "setItemContract",
      "outputs": [],
      "stateMutability": "nonpayable",
      "type": "function"
    },
    {
      "inputs": [
        {
          "internalType": "bool",
          "name": "_restriction",
          "type": "bool"
        }
      ],
      "name": "setOperatorRestriction",
      "outputs": [],
      "stateMutability": "nonpayable",
      "type": "function"
    },
    {
      "inputs": [
        {
          "internalType": "address",
          "name": "_newOwner",
          "type": "address"
        }
      ],
      "name": "setOwner",
      "outputs": [],
      "stateMutability": "nonpayable",
      "type": "function"
    },
    {
      "inputs": [
        {
          "internalType": "uint256",
          "name": "_tokenId",
          "type": "uint256"
        },
        {
          "internalType": "address",
          "name": "_recipient",
          "type": "address"
        },
        {
          "internalType": "uint256",
          "name": "_bps",
          "type": "uint256"
        }
      ],
      "name": "setRoyaltyInfoForToken",
      "outputs": [],
      "stateMutability": "nonpayable",
      "type": "function"
    },
    {
      "inputs": [
        {
          "internalType": "bytes4",
          "name": "interfaceId",
          "type": "bytes4"
        }
      ],
      "name": "supportsInterface",
      "outputs": [
        {
          "internalType": "bool",
          "name": "",
          "type": "bool"
        }
      ],
      "stateMutability": "view",
      "type": "function"
    },
    {
      "inputs": [],
      "name": "symbol",
      "outputs": [
        {
          "internalType": "string",
          "name": "",
          "type": "string"
        }
      ],
      "stateMutability": "view",
      "type": "function"
    },
    {
      "inputs": [
        {
          "internalType": "uint256",
          "name": "_tokenId",
          "type": "uint256"
        }
      ],
      "name": "tokenURI",
      "outputs": [
        {
          "internalType": "string",
          "name": "",
          "type": "string"
        }
      ],
      "stateMutability": "view",
      "type": "function"
    },
    {
      "inputs": [],
      "name": "totalSupply",
      "outputs": [
        {
          "internalType": "uint256",
          "name": "",
          "type": "uint256"
        }
      ],
      "stateMutability": "view",
      "type": "function"
    },
    {
      "inputs": [
        {
          "internalType": "address",
          "name": "from",
          "type": "address"
        },
        {
          "internalType": "address",
          "name": "to",
          "type": "address"
        },
        {
          "internalType": "uint256",
          "name": "tokenId",
          "type": "uint256"
        }
      ],
      "name": "transferFrom",
      "outputs": [],
      "stateMutability": "nonpayable",
      "type": "function"
    },
    {
      "inputs": [
        {
          "internalType": "uint256",
          "name": "characterTokenId",
          "type": "uint256"
        }
      ],
      "name": "unequipClass",
      "outputs": [],
      "stateMutability": "nonpayable",
      "type": "function"
    },
    {
      "inputs": [
        {
          "internalType": "uint256",
          "name": "characterTokenId",
          "type": "uint256"
        }
      ],
      "name": "unequipItem",
      "outputs": [],
      "stateMutability": "nonpayable",
      "type": "function"
    },
    {
      "inputs": [
        {
          "internalType": "uint256",
          "name": "characterTokenId",
          "type": "uint256"
        }
      ],
      "name": "unequipSkill",
      "outputs": [],
      "stateMutability": "nonpayable",
      "type": "function"
    }
  ],
  "bytecode": "0x6080806040523462000a15576000620000188262000a53565b600982526821b430b930b1ba32b960b91b6020830152604051906200003d8262000a53565b600482526310d3919560e21b602083015282516001600160401b038111620007f857600254600181811c9116801562000a0a575b60208210146200091357601f8111620009b3575b506020601f82116001146200093e5782939482939262000932575b50508160011b916000199060031b1c1916176002555b81516001600160401b038111620007f857600354600181811c9116801562000927575b60208210146200091357601f8111620008ab575b50602092601f821160011462000826579282938293926200081a575b50508160011b916000199060031b1c1916176003555b808055806daaeb6d7670e522a718067333cd4e803b6200078b575b505060098054336001600160a01b03198216811790925560405191906001600160a01b03167f8292fce18fa69edf4db7b94ea2e58241df0ae57f97e0a6c9b29067028bf92d768484a3600a80546001600160b01b0319163361ffff60a01b19811691909117909155828252907f90d7ec04bcb8978719414f82e52e4cb651db41d0e6f8cea6118c2191e6183adb90602090a2600160ff19600e541617600e557f38475885990d8dfe9ca01f0ef160a1b5514426eab9ddbc953a3353410ba78096602060405160018152a180601655620002826040516200021a8162000a1a565b828152600160208201528260408201526064606082015260646080820152602860a0820152606460c0820152606460e082015260646101008201526064610120820152606461014082015260646101608201526005610180820152826101a082015262000a6f565b620002fc604051620002948162000a1a565b828152600160208201528260408201526064606082015260646080820152605060a0820152606460c0820152606460e082015260646101008201526064610120820152606461014082015260646101608201526005610180820152826101a082015262000a6f565b620003766040516200030e8162000a1a565b828152600160208201528260408201526064606082015260646080820152606460a0820152606460c0820152606460e082015260646101008201526064610120820152606461014082015260646101608201526005610180820152826101a082015262000a6f565b60405190620003858262000a37565b815260405190620003968262000a53565b60078252662bb0b93934b7b960c91b602083015260208101918252620003bb62000b32565b604082015260185491680100000000000000008310156200066e576001830180601855831015620007755760186000526020600020908251600385028301555192835160018060401b0381116200066e5760016003830284010154600181811c911680156200076a575b60208210146200064d57601f811162000715575b506020601f821160011462000690579181600392600295946040979860009262000684575b50508160011b9160001990851b1c1916176001838302850101555b02010191015190815160018060401b0381116200066e578154600181811c9116801562000663575b60208210146200064d57601f811162000600575b50602092601f82116001146200059757928192936000926200058b575b50508160011b916000199060031b1c19161790555b62000536604051620004f98162000a37565b600181526040516200050b8162000a53565b60048152634d61676560e01b602082015260208201526200052b62000b32565b604082015262000b93565b6200057b604051620005488162000a37565b600281526040516200055a8162000a53565b6005815264526f67756560d81b602082015260208201526200052b62000b32565b60405161498b908162000e868239f35b015190503880620004d2565b601f198216938360005260206000209160005b868110620005e75750836001959610620005cd575b505050811b019055620004e7565b015160001960f88460031b161c19169055388080620005bf565b91926020600181928685015181550194019201620005aa565b826000526020600020601f830160051c8101916020841062000642575b601f0160051c01905b818110620006355750620004b5565b6000815560010162000626565b90915081906200061d565b634e487b7160e01b600052602260045260246000fd5b90607f1690620004a1565b634e487b7160e01b600052604160045260246000fd5b0151905038806200045e565b60016003840285010160005260206000209560005b601f1984168110620006fc575082604096976002969593600193600396601f19811610620006e3575b505050811b0160018383028501015562000479565b015160001983871b60f8161c19169055388080620006ce565b82820151885560019097019660209283019201620006a5565b6001600384028501016000526020600020601f830160051c810191602084106200075f575b601f0160051c01905b81811062000752575062000439565b6000815560010162000743565b90915081906200073a565b90607f169062000425565b634e487b7160e01b600052603260045260246000fd5b803b1562000817578190604460405180948193633e9f1edf60e11b8352306004840152733cc6cdda760b79bafa08df41ecfa224f810dceb660248401525af180156200080c57620007df575b81906200013a565b6001600160401b038111620007f85760405238620007d7565b634e487b7160e01b82526041600452602482fd5b6040513d84823e3d90fd5b50fd5b01519050388062000109565b60038352601f198216937fc2575a0e9e593c00f959f8c92f12db2869c3395a3b0502d05e2516446f71f85b91845b86811062000892575083600195961062000878575b505050811b016003556200011f565b015160001960f88460031b161c1916905538808062000869565b9192602060018192868501518155019401920162000854565b600383527fc2575a0e9e593c00f959f8c92f12db2869c3395a3b0502d05e2516446f71f85b601f830160051c8101916020841062000908575b601f0160051c01905b818110620008fc5750620000ed565b838155600101620008ed565b9091508190620008e4565b634e487b7160e01b83526022600452602483fd5b90607f1690620000d9565b015190503880620000a0565b600283526000805160206200581183398151915290601f198316845b8181106200099a5750958360019596971062000980575b505050811b01600255620000b6565b015160001960f88460031b161c1916905538808062000971565b9192602060018192868b0151815501940192016200095a565b6002835260008051602062005811833981519152601f830160051c81019160208410620009ff575b601f0160051c01905b818110620009f3575062000085565b838155600101620009e4565b9091508190620009db565b90607f169062000071565b600080fd5b6101c081019081106001600160401b038211176200066e57604052565b606081019081106001600160401b038211176200066e57604052565b604081019081106001600160401b038211176200066e57604052565b601754680100000000000000008110156200066e57600181018060175581101562000775576101a0600d916017600052600e602060002091020192805184556020810151600185015560408101516002850155606081015160038501556080810151600485015560a0810151600585015560c0810151600685015560e0810151600785015561010081015160088501556101208101516009850155610140810151600a850155610160810151600b850155610180810151600c8501550151910155565b6040519062000b418262000a37565b603582527f6e505a6b6f583647533777385a697a706e4658377600000000000000000000006040837f697066733a2f2f516d5579576d7072793853726939426d734853514d4442507460208201520152565b601854680100000000000000008110156200066e5760018082018060185582101562000775576000906018825260209260038484209102018451815581810192848601519182519460018060401b039586811162000e71578154948686811c9616801562000e66575b8987101462000e5257601f9586811162000e0a575b50889086831160011462000d9a5791806002949260409694889262000d8e575b5050600019600383901b1c191690881b1790555b0196015190815194851162000d7a5786548481811c9116801562000d6f575b8782101462000d5b5783811162000d13575b508592851160011462000cb057939450849291908362000ca4575b50501b916000199060031b1c1916179055565b01519250388062000c91565b86815285812093958591601f198316915b8883831062000cf8575050501062000cde575b505050811b019055565b015160001960f88460031b161c1916905538808062000cd4565b85870151885590960195948501948793509081019062000cc1565b8782528682208480880160051c82019289891062000d51575b0160051c019085905b82811062000d4557505062000c76565b83815501859062000d35565b9250819262000d2c565b634e487b7160e01b82526022600452602482fd5b90607f169062000c64565b634e487b7160e01b81526041600452602490fd5b01519050388062000c31565b8386528986208893929091601f198416885b8d82821062000df3575050916040979593918560029896941062000dd9575b505050811b01905562000c45565b015160001960f88460031b161c1916905538808062000dcb565b8385015186558c9790950194938401930162000dac565b8386528986208780850160051c8201928c861062000e48575b0160051c019088905b82811062000e3c57505062000c11565b87815501889062000e2c565b9250819262000e23565b634e487b7160e01b85526022600452602485fd5b95607f169562000bfc565b634e487b7160e01b84526041600452602484fdfe60806040526004361015610013575b600080fd5b60003560e01c806275a3171461051257806301ffc9a71461050957806306fdde0314610500578063081812fc146104f757806308ec6c3c146104ee578063095ea7b3146104e55780630ce90ec2146104dc57806313af4035146104d357806315d57827146104ca57806318160ddd146104c157806323b872dd146104b85780632401c739146104af5780632419f51b146104a6578063262a8c3b1461049d5780632a55205a146104945780632c8854fe1461048b57806332f0cd64146104825780633b1475a71461047957806341f434341461047057806342842e0e1461046757806342966c681461045e578063430c20811461045557806343a511d51461044c578063479d35e6146104435780634cc157df1461043a578063504c6e011461043157806355483d45146104285780635ada84561461041f5780635cec154914610416578063600dd5ea1461040d5780636352211e1461040457806363b45e2d146103fb57806367772584146103f25780636ffd17d4146103e957806370a08231146103e057806373726d50146103d7578063754a81d9146103ce57806375dd8ace146103c5578063835576ed146103bc5780638da5cb5b146103b35780639048e5ca146103aa578063938e3d7b146103a1578063954643ca1461039857806395d89b411461038f5780639bcf7a15146103865780639c7e334c1461037d578063a22cb46514610374578063a6d13ee21461036b578063a712043314610362578063ac9650d814610359578063b24f2d3914610350578063b88d4fde14610347578063bc197c811461033e578063bcb7ea0814610335578063c87b56dd1461032c578063d2e4c18914610323578063d5937dae1461031a578063dabb053114610311578063e5f69e4114610308578063e8a3d485146102ff578063e985e9c5146102f6578063ef3877c5146102ed578063f1be42f1146102e45763f23a6e61146102dc57600080fd5b61000e612dee565b5061000e612dcf565b5061000e612da2565b5061000e612d44565b5061000e612cb1565b5061000e612ad4565b5061000e6129a0565b5061000e612958565b5061000e6128ed565b5061000e6128b9565b5061000e612899565b5061000e612810565b5061000e61272c565b5061000e6126f5565b5061000e61268f565b5061000e6125e5565b5061000e6125b5565b5061000e612500565b5061000e6123b0565b5061000e6122fb565b5061000e612256565b5061000e61222c565b5061000e6120ae565b5061000e61207e565b5061000e612054565b5061000e612037565b5061000e612007565b5061000e611e44565b5061000e611d87565b5061000e611d2b565b5061000e611d01565b5061000e611cd1565b5061000e611cb2565b5061000e611c81565b5061000e611bb7565b5061000e611b42565b5061000e611922565b5061000e6118f8565b5061000e6118d4565b5061000e611896565b5061000e611866565b5061000e61179f565b5061000e6116ff565b5061000e6114d6565b5061000e61144c565b5061000e611422565b5061000e611403565b5061000e61133c565b5061000e611302565b5061000e611293565b5061000e611001565b5061000e610f7a565b5061000e610f4a565b5061000e610f19565b5061000e610ec0565b5061000e610de3565b5061000e610d2b565b5061000e610c3a565b5061000e610b91565b5061000e610b0f565b5061000e610ade565b5061000e6109fd565b5061000e6108e9565b5061000e61069a565b600435906001600160a01b038216820361000e57565b602435906001600160a01b038216820361000e57565b50634e487b7160e01b600052604160045260246000fd5b6001600160401b03811161057157604052565b610579610547565b604052565b604081019081106001600160401b0382111761057157604052565b6101c081019081106001600160401b0382111761057157604052565b606081019081106001600160401b0382111761057157604052565b602081019081106001600160401b0382111761057157604052565b90601f801991011681019081106001600160401b0382111761057157604052565b6040519061061982610599565b565b6020906001600160401b038111610638575b601f01601f19160190565b610640610547565b61062d565b9291926106518261061b565b9161065f60405193846105eb565b82948184528183011161000e578281602093846000960137010152565b9080601f8301121561000e5781602061069793359101610645565b90565b503461000e5760408060031936011261000e576106b561051b565b90602435916001600160401b039081841161000e576106d96004943690860161067c565b9360018060a01b03916106f183600954163314612eb7565b6106fe6000968754612fa5565b84519061070a826105d0565b86825286549381169485156108c8576107ed90610766610729846130d7565b61074c61073d82546001600160401b031690565b6001016001600160401b031690565b6001600160401b03166001600160401b0319825416179055565b6107b5610772846130d7565b80546107899060401c6001600160401b031661073d565b90805467ffffffffffffffff60401b191660409290921b67ffffffffffffffff60401b16919091179055565b6107d2836107cd886000526004602052604060002090565b61324c565b42166107e8866000526004602052604060002090565b61326b565b8394600190818601833b15156000146108795782805b61081f575b5050505050505083540361081b57825551f35b8280fd5b1561086c575b8888838c60008051602061493683398151915281809551a461085261084e87868c019b886136f8565b1590565b61085c5783610803565b89516368d2bf6b60e11b81528790fd5b8088106108255780610808565b925094508093508092508651935b610896575b5050505050825551f35b156108bb575b868280870196868a6000805160206149368339815191528189a4610887565b80851061089c578061088c565b8651622e076360e81b81528490fd5b6001600160e01b031981160361000e57565b503461000e57602036600319011261000e576020600435610909816108d7565b6001600160e01b0319166301ffc9a760e01b81148015610989575b8015610979575b8015610969575b80918115610947575b50506040519015158152f35b630271189760e51b1491508115610961575b50388061093b565b905038610959565b5063152a902d60e11b8114610932565b50635b5e139f60e01b811461092b565b506380ac58cd60e01b8114610924565b600091031261000e57565b60005b8381106109b75750506000910152565b81810151838201526020016109a7565b906020916109e0815180928185528580860191016109a4565b601f01601f1916010190565b9060206106979281815201906109c7565b503461000e57600080600319360112610adb5760405181600254610a20816119bb565b80845290600190818116908115610ab35750600114610a5a575b610a5684610a4a818803826105eb565b604051918291826109ec565b0390f35b60028352602094507f405787fa12a823e0f2b7631cc41b3ba8828b3321ca811111fa75cd3aa3bb5ace5b828410610aa05750505081610a5693610a4a9282010193610a3a565b8054858501870152928501928101610a84565b610a569650610a4a9450602092508593915060ff191682840152151560051b82010193610a3a565b80fd5b503461000e57602036600319011261000e576020610afd6004356131f3565b6040516001600160a01b039091168152f35b503461000e57602036600319011261000e57610b2961051b565b6009546001600160a01b03919082163303610b575760158054919092166001600160a01b0319909116179055005b60405162461bcd60e51b815260206004820152600e60248201526d139bdd08185d5d1a1bdc9a5e995960921b6044820152606490fd5b0390fd5b503461000e57604036600319011261000e57610bab61051b565b602435610bb782613a49565b6001600160a01b039081610bca8261314d565b51168092841614610c2857813303610be8575b610be6926135fb565b005b60008281526007602090815260408083203384529091529020610c119061084e905b5460ff1690565b15610bdd576040516367d9dca160e11b8152600490fd5b60405163250fdee360e21b8152600490fd5b503461000e57602036600319011261000e57600435806000526010602052604060002090600c820180549182610ccf57610ccb92600292610ca0610c90610c83610cc19561314d565b516001600160a01b031690565b6001600160a01b031633146142d1565b610cba6001870192610cb2845461380a565b809455613820565b9055613b15565b920191825461382e565b9055005b60405162461bcd60e51b815260206004820152602e60248201527f4d7573742075736520757020616c6c207374617420706f696e7473206265666f60448201526d07265206c6576656c696e672075760941b6064820152608490fd5b503461000e57602036600319011261000e57610d4561051b565b6009546001600160a01b03808216919033839003610b57576001600160a01b0319909116921691821760095560405160009290917f8292fce18fa69edf4db7b94ea2e58241df0ae57f97e0a6c9b29067028bf92d768484a3f35b50634e487b7160e01b600052603260045260246000fd5b601754811015610dd6575b6017600052600e602060002091020190600090565b610dde610d9f565b610dc1565b503461000e57602036600319011261000e5760043560175481101561000e57610e0b90610db6565b508054610a5660018301549260028101549060038101546004820154600583015460068401546007850154600886015491600987015493600a88015495600b89015497600d600c8b01549a01549a6040519e8f9e8f9b99979593919e9d9c9a98969492909e6101c08d019f8d5260208d015260408c015260608b015260808a015260a089015260c088015260e08701526101008601526101208501526101408401526101608301526101808201526101a00152565b503461000e57600036600319011261000e5760206000546001549003604051908152f35b606090600319011261000e576001600160a01b0390600435828116810361000e5791602435908116810361000e579060443590565b503461000e57610be6610f2b36610ee4565b916001600160a01b038116331461342257610f4533613a49565b613422565b503461000e57602036600319011261000e5760043560005260116020526020600260406000200154604051908152f35b503461000e57602036600319011261000e57600435600c54811015610fcc57600c6000527fdf6966c971051c3d54ec59162606531493a51404a002842f56009d7e5cf4a8c70154604051908152602090f35b60405162461bcd60e51b815260206004820152600d60248201526c092dcecc2d8d2c840d2dcc8caf609b1b6044820152606490fd5b503461000e5760408060031936011261000e57601454602435919082906004359061103c906001600160a01b03165b6001600160a01b031690565b835163bd85b03960e01b8152600481018490526110b39060209061107a908281602481885afa908115611286575b600091611269575b501515614322565b8551627eeac760e11b8152336004820152602481018690528181604481875afa91821561125c575b60009261122f575b50501515614366565b6110d68360016110cd856000526011602052604060002090565b015414156143ae565b60016110ec836000526011602052604060002090565b015490811580159081611222575b8115611208575b5061119a575b505061111f6001916000526011602052604060002090565b0155601454611136906001600160a01b0316611030565b91823b1561000e576000611164819482938551948580948193637921219560e11b83523033600485016143f2565b03925af1801561118d575b611177575051f35b8061118461118a9261055e565b80610999565b51f35b6111956136bb565b61116f565b80919293503b1561000e5784926000806111d161111f946001968951948580948193637921219560e11b83523330600485016143f2565b03925af180156111fb575b6111e8575b5091611107565b806111846111f59261055e565b386111e1565b6112036136bb565b6111dc565b905080611216575b38611101565b5061270f841415611210565b61270f84141591506110fa565b61124e9250803d10611255575b61124681836105eb565b810190614313565b38806110aa565b503d61123c565b6112646136bb565b6110a2565b6112809150833d85116112555761124681836105eb565b38611072565b61128e6136bb565b61106a565b503461000e57604036600319011261000e5761ffff602435610a566112b9600435613b4d565b939093169282600019048411831515166112f5575b6127106040519485940204908360209093929193604081019460018060a01b031681520152565b6112fd6137f3565b6112ce565b503461000e57602036600319011261000e5760043560005260106020526020600360406000200154604051908152f35b8015150361000e57565b503461000e57602036600319011261000e5760043561135a81611332565b6009546001600160a01b031633036113aa5760207f38475885990d8dfe9ca01f0ef160a1b5514426eab9ddbc953a3353410ba7809691151560ff19600e541660ff821617600e55604051908152a1005b60405162461bcd60e51b815260206004820152602b60248201527f4e6f7420617574686f72697a656420746f20736574206f70657261746f72207260448201526a32b9ba3934b1ba34b7b71760a91b6064820152608490fd5b503461000e57600036600319011261000e576020600054604051908152f35b503461000e57600036600319011261000e5760206040516daaeb6d7670e522a718067333cd4e8152f35b503461000e5761145b36610ee4565b6001600160a01b03831633141591826114c8575b6040519261147c846105d0565b600084526114ba575b611490828286613422565b803b61149857005b6114a1936137a1565b156114a857005b6040516368d2bf6b60e11b8152600490fd5b6114c333613a49565b611485565b6114d133613a49565b61146f565b503461000e57602036600319011261000e576004356114f48161314d565b805190916001600160a01b0391821691829033821480156116bf575b80156116ab575b156116995760009461152983856135a6565b6115b8611535846130d7565b61157961155c61154c83546001600160401b031690565b600019016001600160401b031690565b825467ffffffffffffffff19166001600160401b03909116178255565b80546115909060801c6001600160401b031661073d565b815467ffffffffffffffff60801b191660809190911b67ffffffffffffffff60801b16179055565b6115ff6115cf856000526004602052604060002090565b6115d9858261324c565b6115ec6001600160401b0342168261326b565b805460ff60e01b1916600160e01b179055565b60018401611617816000526004602052604060002090565b80549093166001600160a01b03161561165c575b5050505082604051926000805160206149368339815191528285a461165a61165560015460010190565b600155565bf35b86540361166a575b8061162b565b602061168b9161167d611691958561324c565b01516001600160401b031690565b9061326b565b388080611664565b604051632ce44b5f60e11b8152600490fd5b50336116b9611030856131f3565b14611517565b506116fa610c0a336116e38560018060a01b03166000526007602052604060002090565b9060018060a01b0316600052602052604060002090565b611510565b503461000e57604036600319011261000e57602061171b61051b565b602435906001600160a01b03806117318461314d565b5116928183169284841494851561176f575b50508315611759575b5050506040519015158152f35b611765919293506131f3565b161438808061174c565b60009081526007875260408082206001600160a01b03939093168252602092909252205460ff1693503880611743565b503461000e57602036600319011261000e576004356117fa60016117f2816117d1856000526011602052604060002090565b0154936117e261270f86141561442a565b6000526011602052604060002090565b0161270f9055565b60145461180f906001600160a01b0316611030565b803b1561000e57604051637921219560e11b815290600090829081838161183b883330600485016143f2565b03925af18015611859575b61184c57005b80611184610be69261055e565b6118616136bb565b611846565b503461000e57602036600319011261000e5760043560005260106020526020600660406000200154604051908152f35b503461000e57602036600319011261000e576118b3600435613b4d565b604080516001600160a01b0393909316835261ffff91909116602083015290f35b503461000e57600036600319011261000e57602060ff600e54166040519015158152f35b503461000e57600036600319011261000e576014546040516001600160a01b039091168152602090f35b503461000e57604036600319011261000e57602435611942600435613e9e565b6013546001600160a01b031690813b1561000e57600080610be69360446040518094819363bfa0fedb60e01b83528760048401523360248401525af180156119ae575b61199b575b50611996601654613cc8565b614539565b806111846119a89261055e565b3861198a565b6119b66136bb565b611985565b90600182811c921680156119eb575b60208310146119d557565b634e487b7160e01b600052602260045260246000fd5b91607f16916119ca565b6040519060008260085491611a09836119bb565b808352600193808516908115611a7d5750600114611a2f575b50610619925003836105eb565b6008600090815260008051602061491683398151915294602093509091905b818310611a65575050610619935082010138611a22565b85548884018501529485019487945091830191611a4e565b905061061994506020925060ff191682840152151560051b82010138611a22565b9060405191826000825492611ab2846119bb565b908184526001948581169081600014611b1f5750600114611adc575b5050610619925003836105eb565b9093915060005260209081600020936000915b818310611b0757505061061993508201013880611ace565b85548884018501529485019487945091830191611aef565b91505061061994506020925060ff191682840152151560051b8201013880611ace565b503461000e57602036600319011261000e5760043560185481101561000e576018600052600360206000209102018054610a56611b8d6002611b8660018601611a9e565b9401611a9e565b611ba960405194859485526060602086015260608501906109c7565b9083820360408501526109c7565b503461000e57604036600319011261000e57611bd161051b565b600954602435916001600160a01b039182163303610b57576127108311611c4a57600a80546001600160b01b0319169190921690811760a084901b61ffff60a01b1617909155604051918252907f90d7ec04bcb8978719414f82e52e4cb651db41d0e6f8cea6118c2191e6183adb9080602081010390a2005b60405162461bcd60e51b815260206004820152600f60248201526e45786365656473206d61782062707360881b6044820152606490fd5b503461000e57602036600319011261000e5760206001600160a01b03611ca860043561314d565b5116604051908152f35b503461000e57600036600319011261000e576020600c54604051908152f35b503461000e57602036600319011261000e5760043560005260106020526020600560406000200154604051908152f35b503461000e57600036600319011261000e576013546040516001600160a01b039091168152602090f35b503461000e57602036600319011261000e576001600160a01b03611d4d61051b565b168015611d7557600052600560205260206001600160401b0360406000205416604051908152f35b6040516323d3ad8160e21b8152600490fd5b503461000e57602036600319011261000e57600435600081819282526011602052611dc9611dc26040842054926117e261270f8514156147c5565b61270f9055565b601354611dde906001600160a01b0316611030565b90813b15611e40578291611e0a91604051948580948193637921219560e11b83523330600485016143f2565b03925af18015611e33575b611e20575b50604051f35b80611184611e2d9261055e565b38611e1a565b611e3b6136bb565b611e15565b5050fd5b503461000e57608036600319011261000e57611e5e61051b565b602435604435916001600160401b039283811161000e57611e8390369060040161067c565b9160643584811161000e57611e9c90369060040161067c565b91611eb260018060a01b03600954163314612eb7565b6000938454838101809111611ffa575b600c5490600160401b821015611fed575b611f0381611ee8600194858101600c556137ca565b90919082549060031b600019811b9283911b16911916179055565b86526020600d815260408720928051988911611fe0575b611f2e89611f2886546119bb565b86612f51565b81601f8a11600114611f7257509780928192899a611f629a94611f67575b50501b916000199060031b1c1916179055613296565b604051f35b015192503880611f4c565b909891601f19831699611f8a86600052602060002090565b928a905b8c8210611fc957505083611f629a9b10611fb0575b505050811b019055613296565b015160001960f88460031b161c19169055388080611fa3565b808785968294968601518155019501930190611f8e565b611fe8610547565b611f1a565b611ff5610547565b611ed3565b6120026137f3565b611ec2565b503461000e57602036600319011261000e5760043560005260106020526020600460406000200154604051908152f35b503461000e57602036600319011261000e57610be6600435613e9e565b503461000e57600036600319011261000e576009546040516001600160a01b039091168152602090f35b503461000e57602036600319011261000e5760043560005260116020526020600160406000200154604051908152f35b503461000e5760208060031936011261000e576001600160401b039060043582811161000e576120e290369060040161067c565b6009549091906001600160a01b03163303610b57576120ff6119f5565b90825193841161221f575b61211e846121196008546119bb565b612efd565b80601f851160011461218b575092807fc9c7c3fe08b88b4df9d4d47ef47d2c43d55c025a0ba88ca442580ed9e7348a1694600091612180575b508160011b916000199060031b1c1916176008555b61217b60405192839283613931565b0390a1005b905083015138612157565b600860005290601f198516600080516020614916833981519152926000905b8282106122075750509185917fc9c7c3fe08b88b4df9d4d47ef47d2c43d55c025a0ba88ca442580ed9e7348a1696600194106121ee575b5050811b0160085561216c565b85015160001960f88460031b161c1916905538806121e1565b80600185968294968a015181550195019301906121aa565b612227610547565b61210a565b503461000e57600036600319011261000e576015546040516001600160a01b039091168152602090f35b503461000e57600080600319360112610adb5760405181600354612279816119bb565b80845290600190818116908115610ab357506001146122a257610a5684610a4a818803826105eb565b60038352602094507fc2575a0e9e593c00f959f8c92f12db2869c3395a3b0502d05e2516446f71f85b5b8284106122e85750505081610a5693610a4a9282010193610a3a565b80548585018701529285019281016122cc565b503461000e57606036600319011261000e57600435612318610531565b6009546001600160a01b0392916044359184163303610b57576127108211611c4a577f7365cf4122f072a3365c20d54eff9b38d73c096c28e1892ec8f5b0e403a0f12d916123ab91600186604051926123708461057e565b1696878352612397602084019185835288600052600b60205260406000209451168461324c565b519101556040519081529081906020820190565b0390a3005b503461000e5760a036600319011261000e576084356024356044356064356004356123da8161314d565b516001600160a01b03166123f8906001600160a01b0316331461422e565b8482612404858761382e565b9061240e9161382e565b906124189161382e565b6005146124249061428b565b612438906000526010602052604060002090565b93600785018481549061244a9161382e565b9055600885018381549061245d9161382e565b905560098501828154906124709161382e565b9055600a8501818154906124839161382e565b905561248e90613b37565b600385019081549061249f9161382e565b90556124aa90613b37565b60048401908154906124bb9161382e565b90556124c690613b37565b600b8301908154906124d79161382e565b90556124e290613b37565b60058201908154906124f39161382e565b90556000600c9190910155005b503461000e57604036600319011261000e5761251a61051b565b60243561252681611332565b61252f82613a49565b6001600160a01b038216913383146125a3573360009081526007602090815260408083206001600160a01b039094168352929052209015159060ff1981541660ff83161790556040519081527f17307eab39ab6107e8899845ad3d59bd9653f200f220920489ca2b5937696c3160203392a3005b60405163b06307db60e01b8152600490fd5b503461000e57602036600319011261000e5760043560005260106020526020600160406000200154604051908152f35b503461000e57602036600319011261000e576125ff61051b565b6009546001600160a01b03919082163303610b575760148054919092166001600160a01b0319909116179055005b602080820190808352835180925260408301928160408460051b8301019501936000915b8483106126615750505050505090565b909192939495848061267f600193603f198682030187528a516109c7565b9801930193019194939290612651565b503461000e57602036600319011261000e576001600160401b0360043581811161000e573660238201121561000e57806004013591821161000e573660248360051b8301011161000e57610a569160246126e99201613972565b6040519182918261262d565b503461000e57600036600319011261000e57600a54604080516001600160a01b038316815260a09290921c61ffff16602083015290f35b503461000e57608036600319011261000e5761274661051b565b61274e610531565b6044356064356001600160401b03811161000e5761277090369060040161067c565b91336001600160a01b038516036114ba57611490828286613422565b6020906001600160401b0381116127a5575b60051b0190565b6127ad610547565b61279e565b81601f8201121561000e578035916127c98361278c565b926127d760405194856105eb565b808452602092838086019260051b82010192831161000e578301905b828210612801575050505090565b813581529083019083016127f3565b503461000e5760a036600319011261000e5761282a61051b565b50612833610531565b506001600160401b0360443581811161000e576128549036906004016127b2565b5060643581811161000e5761286d9036906004016127b2565b5060843590811161000e5761288690369060040161067c565b5060405163bc197c8160e01b8152602090f35b503461000e57604036600319011261000e57610be6602435600435614539565b503461000e57602036600319011261000e57610a566128d9600435612e44565b6040519182916020835260208301906109c7565b503461000e57602036600319011261000e5760026129416004358261291c826000526011602052604060002090565b01549061292a8215156148d5565b600093849384926000526011602052604060002090565b0155601554611dde906001600160a01b0316611030565b503461000e57602036600319011261000e5761297261051b565b6009546001600160a01b03919082163303610b575760138054919092166001600160a01b0319909116179055005b503461000e57602036600319011261000e576040516129be81610599565b6101a06000918281528260208201528260408201528260608201528260808201528260a08201528260c08201528260e082015282610100820152826101208201528261014082015282610160820152826101808201520152610a56612a37612a326004356000526010602052604060002090565b613dbf565b604051918291829190916101c0810192805182526020810151602083015260408101516040830152606081015160608301526080810151608083015260a081015160a083015260c081015160c083015260e081015160e0830152610100808201519083015261012080820151908301526101408082015190830152610160808201519083015261018080820151908301526101a080910151910152565b503461000e5760408060031936011261000e576015546024359190829060043590612b07906001600160a01b0316611030565b835163bd85b03960e01b815260048101849052612b7e90602090612b45908281602481885afa908115612ca4575b600091612c87575b501515614805565b8551627eeac760e11b8152336004820152602481018690528181604481875afa918215612c7a575b600092612c5d575b50501515614844565b612ba1836002612b98856000526011602052604060002090565b01541415614890565b6002612bb7836000526011602052604060002090565b01549081612bef575b5050612bd86002916000526011602052604060002090565b0155601554611136906001600160a01b0316611030565b80919293503b1561000e578492600080612c26612bd8946002968951948580948193637921219560e11b83523330600485016143f2565b03925af18015612c50575b612c3d575b5091612bc0565b80611184612c4a9261055e565b38612c36565b612c586136bb565b612c31565b612c739250803d106112555761124681836105eb565b3880612b75565b612c826136bb565b612b6d565b612c9e9150833d85116112555761124681836105eb565b38612b3d565b612cac6136bb565b612b35565b503461000e57600080600319360112610adb5760405181600854612cd4816119bb565b80845290600190818116908115610ab35750600114612cfd57610a5684610a4a818803826105eb565b60088352602094506000805160206149168339815191525b828410612d315750505081610a5693610a4a9282010193610a3a565b8054858501870152928501928101612d15565b503461000e57604036600319011261000e57602060ff612d96612d6561051b565b612d6d610531565b6001600160a01b0391821660009081526007865260408082209290931681526020919091522090565b54166040519015158152f35b503461000e57602036600319011261000e5760043560005260116020526020604060002054604051908152f35b503461000e57600036600319011261000e576020601654604051908152f35b503461000e5760a036600319011261000e57612e0861051b565b50612e11610531565b506084356001600160401b03811161000e57612e3190369060040161067c565b5060405163f23a6e6160e01b8152602090f35b806000526020600f8152612e5b6040600020611a9e565b8051612eb1575061069790612e78612e728461385d565b93613cf6565b926040519381612e9186935180928680870191016109a4565b8201612ea5825180938680850191016109a4565b010380845201826105eb565b91505090565b15612ebe57565b60405162461bcd60e51b81526020600482015260176024820152762737ba1030baba3437b934bd32b2103a379036b4b73a1760491b6044820152606490fd5b601f8111612f09575050565b6000906008825260208220906020601f850160051c83019410612f47575b601f0160051c01915b828110612f3c57505050565b818155600101612f30565b9092508290612f27565b90601f8111612f5f57505050565b600091825260208220906020601f850160051c83019410612f9b575b601f0160051c01915b828110612f9057505050565b818155600101612f84565b9092508290612f7b565b9190600090838252602093600f8552612fc160408420546119bb565b6130a0578252600f845260408220918151916001600160401b038311613093575b612ff083611f2886546119bb565b8591601f84116001146130295783949596509261301e575b50508160011b916000199060031b1c1916179055565b015190503880613008565b9190601f1984169661304086600052602060002090565b93905b88821061307b57505083600195969710613062575b505050811b019055565b015160001960f88460031b161c19169055388080613058565b80600185968294968601518155019501930190613043565b61309b610547565b612fe2565b60405162461bcd60e51b815260048101869052600f60248201526e15549248185b1c9958591e481cd95d608a1b6044820152606490fd5b6001600160a01b0316600090815260056020526040902090565b604051906130fe826105b5565b60006040838281528260208201520152565b9060405161311d816105b5565b91546001600160a01b038116835260a081901c6001600160401b0316602084015260e01c60ff1615156040830152565b6131556130f1565b50806000548110613173575b604051636f96cda160e11b8152600490fd5b61318a61318f916000526004602052604060002090565b613110565b61319f61084e6040830151151590565b156131615780516001600160a01b03166131ee57505b600019016131d061318a826000526004602052604060002090565b80516131e4906001600160a01b0316611030565b6131ee57506131b5565b905090565b600054811080613230575b1561321e576000908152600660205260409020546001600160a01b031690565b6040516333d1c03960e21b8152600490fd5b5080600052600460205260ff60406000205460e01c16156131fe565b80546001600160a01b0319166001600160a01b03909216919091179055565b805467ffffffffffffffff60a01b191660a09290921b67ffffffffffffffff60a01b16919091179055565b6000805492939092916001600160a01b03811680156134115785156133ff5761332e6001600160401b036133168189166132f46132d2876130d7565b61074c836132e783546001600160401b031690565b016001600160401b031690565b610789613300876130d7565b916132e783546001600160401b039060401c1690565b6107d2846107cd886000526004602052604060002090565b8395840190823b15156000146133b15760019182805b613359575b505050505050815403610adb5755565b156133a4575b86604089848a600080516020614936833981519152818551a461338961084e88878d019c896136f8565b613394575083613344565b516368d2bf6b60e11b8152600490fd5b80881061335f5780613349565b93509150506001809181604051935b6133cd575b505050505055565b156133f2575b84828088019786886000805160206149368339815191528189a46133c0565b8086106133d357806133c5565b60405163b562e8dd60e01b8152600490fd5b604051622e076360e81b8152600490fd5b61342b8361314d565b80516001600160a01b03808416939291811684900361359557833314801561356c575b8015613558575b15611699578416938415613546576134cb9061347184886135a6565b61349161347d856130d7565b61074c61154c82546001600160401b031690565b61349d610729826130d7565b6134bb6134b4886000526004602052604060002090565b918261324c565b6001600160401b0342169061326b565b60018501906134e4826000526004602052604060002090565b80549092906134fb906001600160a01b0316611030565b1561351c575b505050506000805160206149368339815191526000604051a4565b6000540361352b575b80613501565b602061168b9161167d61353e958561324c565b388080613525565b604051633a954ecd60e21b8152600490fd5b5033613566611030886131f3565b14613455565b50613590610c0a336116e38660018060a01b03166000526007602052604060002090565b61344e565b60405162a1148160e81b8152600490fd5b60008181526006602052604080822080546001600160a01b031916905551919290916001600160a01b03909116907f8c5be1e5ebec7d5bd14f71427d1e84f3dd0314c0f7b2291e5b200ac8c7c3b925908390a4565b91909182600052600660205261361581604060002061324c565b60018060a01b0380911691167f8c5be1e5ebec7d5bd14f71427d1e84f3dd0314c0f7b2291e5b200ac8c7c3b9256000604051a4565b9081602091031261000e5751610697816108d7565b610697939260809260018060a01b0316825260006020830152604082015281606082015201906109c7565b6001600160a01b039182168152911660208201526040810191909152608060608201819052610697929101906109c7565b506040513d6000823e3d90fd5b3d156136f3573d906136d98261061b565b916136e760405193846105eb565b82523d6000602084013e565b606090565b61372160209160009394604051948580948193630a85bd0160e11b998a8452336004850161365f565b03926001600160a01b03165af160009181613771575b50613763576137446136c8565b8051908161375e576040516368d2bf6b60e11b8152600490fd5b602001fd5b6001600160e01b0319161490565b61379391925060203d811161379a575b61378b81836105eb565b81019061364a565b9038613737565b503d613781565b92602091613721936000604051809681958294630a85bd0160e11b9a8b8552336004860161368a565b600c548110156137e6575b600c60005260206000200190600090565b6137ee610d9f565b6137d5565b50634e487b7160e01b600052601160045260246000fd5b906001820180921161381857565b6106196137f3565b906005820180921161381857565b9190820180921161381857565b6020918151811015613850575b60051b010190565b613858610d9f565b613848565b600c54906040519081838152826020809201600c600052826000209260005b87811061391a575050613891925003836105eb565b60005b8381106138d25760405162461bcd60e51b815260206004820152600f60248201526e125b9d985b1a59081d1bdad95b9259608a1b6044820152606490fd5b6138dc818461383b565b5182106138f1576138ec9061380a565b613894565b610697935061390491506139159261383b565b51600052600d602052604060002090565b611a9e565b84548352600194850194879450928201920161387c565b9091613948610697936040845260408401906109c7565b9160208184039101526109c7565b6001906000198114613966570190565b61396e6137f3565b0190565b9061397c8161278c565b9161398a60405193846105eb565b818352601f196139998361278c565b0160005b818110613a2357505060005b8281106139b65750505090565b8060051b820135601e198336030181121561000e578201908135916001600160401b03831161000e57602001823603811361000e576139fd613a0391613a1e943691610645565b30613bc6565b613a0d828761383b565b52613a18818661383b565b50613956565b6139a9565b80606060208093880101520161399d565b9081602091031261000e575161069781611332565b600e5460ff16613a565750565b6daaeb6d7670e522a718067333cd4e803b613a6f575050565b604051633185c44d60e21b81523060048201526001600160a01b038316602482015290602090829060449082905afa908115613b08575b600091613ada575b5015613ab75750565b604051633b79c77360e21b81526001600160a01b03919091166004820152602490fd5b613afb915060203d8111613b01575b613af381836105eb565b810190613a34565b38613aae565b503d613ae9565b613b106136bb565b613aa6565b6064908060001904821181151516613b2b570290565b613b336137f3565b0290565b6005908060001904821181151516613b2b570290565b600052600b602052604060002090602060405192604084018481106001600160401b03821117613bb9575b60405280546001600160a01b039081168086526001909201549290940182905280613bb057505061ffff600a549283169260a01c1690565b925061ffff1690565b613bc1610547565b613b78565b9060405190613bd4826105b5565b602782527f416464726573733a206c6f772d6c6576656c2064656c65676174652063616c6c6020830152660819985a5b195960ca1b6040830152823b15613c34576000816106979460208394519201905af4613c2e6136c8565b90613c88565b60405162461bcd60e51b815260206004820152602660248201527f416464726573733a2064656c65676174652063616c6c20746f206e6f6e2d636f6044820152651b9d1c9858dd60d21b6064820152608490fd5b90919015613c94575090565b815115613ca45750805190602001fd5b60405162461bcd60e51b815260206004820152908190610b8d9060248301906109c7565b60001981019190821161381857565b906020918051821015613ce957010190565b613cf1610d9f565b010190565b8015613da157806000908282935b613d8d5750613d128361061b565b92613d2060405194856105eb565b80845281601f19613d308361061b565b013660208701375b613d425750505090565b613d4b90613cc8565b90600a9060308282068101809111613d80575b60f81b6001600160f81b031916841a613d778487613cd7565b53049081613d38565b613d886137f3565b613d5e565b92613d99600a91613956565b930480613d04565b50604051613dae8161057e565b60018152600360fc1b602082015290565b90600d613dca61060c565b928054845260018101546020850152600281015460408501526003810154606085015260048101546080850152600581015460a0850152600681015460c0850152600781015460e085015260088101546101008501526009810154610120850152600a810154610140850152600b810154610160850152600c81015461018085015201546101a0830152565b15613e5d57565b60405162461bcd60e51b8152602060048201526019602482015278125b9d985b1a590818da185c9858dd195c881d1e5c19481251603a1b6044820152606490fd5b6018548110613eac90613e56565b613eb5336140da565b601654613ecc826000526012602052604060002090565b600201613ed890611a9e565b613ee191612fa5565b601654613eed82610db6565b506001015491613efc81610db6565b5060020154613f0a82610db6565b5060030154613f1883610db6565b5060040154613f2684610db6565b5060050154613f3485610db6565b5060060154613f4286610db6565b5060070154613f5087610db6565b506008015491613f5f88610db6565b506009015493613f6e89610db6565b50600a015495613f7d8a610db6565b50600b015497613f8c8b610db6565b50600c0154998c613f9b61060c565b9e8f91825260208201526040015260608d015260808c015260a08b015260c08a015260e08901526101008801526101208701526101408601526101608501526101808401526101a0830152613ffa906000526010602052604060002090565b815181556020820151600182015560408201516002820155606082015160038201556080820151600482015560a0820151600582015560c0820151600682015560e0820151600782015561010082015160088201556101208201516009820155610140820151600a820155610160820151600b820155610180820151600c8201556101a090910151600d9091015560165461409f906000526011602052604060002090565b61270f90556016546140bb906000526011602052604060002090565b6001016140c99061270f9055565b6016546140d590613956565b601655565b604080516140e7816105d0565b60009182825282549160018060a01b03851694851561421e5761410c610729826130d7565b614118610772826130d7565b614130816107cd866000526004602052604060002090565b6141516001600160401b0342166107e8866000526004602052604060002090565b8395600190818601833b15156000146141d35782805b61417d575b50505050505050815403610adb5755565b156141c6575b8789838a600080516020614936833981519152818b51a46141ab61084e87868d019c886136f8565b6141b55783614167565b86516368d2bf6b60e11b8152600490fd5b808910614183578061416c565b9250945092838093509051935b6141ec57505050505055565b15614211575b84828088019786886000805160206149368339815191528189a46141e0565b8086106141f257806133c5565b8251622e076360e81b8152600490fd5b1561423557565b60405162461bcd60e51b815260206004820152602860248201527f43616c6c6572206973206e6f7420746865206f776e6572206f662074686520636044820152673430b930b1ba32b960c11b6064820152608490fd5b1561429257565b60405162461bcd60e51b815260206004820152601760248201527655736520616c6c20746865207374617420706f696e747360481b6044820152606490fd5b156142d857565b60405162461bcd60e51b815260206004820152601360248201527221b0b63632b91034b9903737ba1037bbb732b960691b6044820152606490fd5b9081602091031261000e575190565b1561432957565b60405162461bcd60e51b8152602060048201526015602482015274125b9d985b1a59081a5d195b481d1bdad95b881251605a1b6044820152606490fd5b1561436d57565b60405162461bcd60e51b81526020600482015260196024820152784e6f7420746865206f776e6572206f6620746865206974656d60381b6044820152606490fd5b156143b557565b60405162461bcd60e51b8152602060048201526015602482015274125d195b48185b1c9958591e48195c5d5a5c1c1959605a1b6044820152606490fd5b6001600160a01b0391821681529116602082015260408101919091526001606082015260a06080820181905260009082015260c00190565b1561443157565b60405162461bcd60e51b815260206004820152601060248201526f139bc81a5d195b48195c5d5a5c1c195960821b6044820152606490fd5b1561447057565b60405162461bcd60e51b815260206004820152601060248201526f125b9d985b1a59081cdada5b1b08125160821b6044820152606490fd5b156144af57565b60405162461bcd60e51b815260206004820152601a60248201527f4e6f7420746865206f776e6572206f662074686520736b696c6c0000000000006044820152606490fd5b156144fb57565b60405162461bcd60e51b815260206004820152601660248201527514dada5b1b08185b1c9958591e48195c5d5a5c1c195960521b6044820152606490fd5b6013548290614550906001600160a01b0316611030565b916145d360405163bd85b03960e01b815261459960209182818061457c89600483019190602083019252565b03818a5afa9081156147b8575b60009161479b575b501515614469565b604051627eeac760e11b8152336004820152602481018590528181604481895afa91821561478e575b600092614771575b505015156144a8565b816145e8826000526011602052604060002090565b5414801590614743575b6145fb906144f4565b61460f816000526011602052604060002090565b5492831580159081614736575b811561471c575b506146b1575b506146409192506000526011602052604060002090565b55601354614656906001600160a01b0316611030565b803b1561000e57604051637921219560e11b8152916000918391829084908290614685903033600485016143f2565b03925af180156146a4575b6146975750565b806111846106199261055e565b6146ac6136bb565b614690565b8092503b1561000e576000806146e4614640948796604051948580948193637921219560e11b83523330600485016143f2565b03925af1801561470f575b6146fc575b839250614629565b806111846147099261055e565b386146f4565b6147176136bb565b6146ef565b90508061472a575b38614623565b5061270f831415614724565b61270f861415915061461c565b50811580156145f257506145fb61270f614767836000526011602052604060002090565b54141590506145f2565b6147879250803d106112555761124681836105eb565b38806145ca565b6147966136bb565b6145c2565b6147b29150833d85116112555761124681836105eb565b38614591565b6147c06136bb565b614589565b156147cc57565b60405162461bcd60e51b8152602060048201526011602482015270139bc81cdada5b1b08195c5d5a5c1c1959607a1b6044820152606490fd5b1561480c57565b60405162461bcd60e51b815260206004820152601060248201526f125b9d985b1a590818db185cdcc8125160821b6044820152606490fd5b1561484b57565b60405162461bcd60e51b815260206004820152601a60248201527f4e6f7420746865206f776e6572206f662074686520636c6173730000000000006044820152606490fd5b1561489757565b60405162461bcd60e51b815260206004820152601660248201527510db185cdcc8185b1c9958591e48195c5d5a5c1c195960521b6044820152606490fd5b156148dc57565b60405162461bcd60e51b8152602060048201526011602482015270139bc818db185cdcc8195c5d5a5c1c1959607a1b6044820152606490fdfef3f7a9fe364faab93b216da50a3214154f22a0a2b415b23a84c8169e8b636ee3ddf252ad1be2c89b69c2b068fc378daa952ba7f163c4a11628f55a4df523b3efa2646970667358221220f153171d82eb959b77693134d097f147335590300fe30e45364d783274247eef64736f6c63430008100033405787fa12a823e0f2b7631cc41b3ba8828b3321ca811111fa75cd3aa3bb5ace",
  "linkReferences": {},
  "deployedLinkReferences": {}
}