{
  "_format": "hh-sol-artifact-1",
  "contractName": "Character",
  "sourceName": "contracts/Character.sol",
  "abi": [
    {
      "inputs": [],
      "stateMutability": "nonpayable",
      "type": "constructor"
    },
    {
      "inputs": [],
      "name": "ApprovalCallerNotOwnerNorApproved",
      "type": "error"
    },
    {
      "inputs": [],
      "name": "ApprovalQueryForNonexistentToken",
      "type": "error"
    },
    {
      "inputs": [],
      "name": "ApprovalToCurrentOwner",
      "type": "error"
    },
    {
      "inputs": [],
      "name": "ApproveToCaller",
      "type": "error"
    },
    {
      "inputs": [],
      "name": "BalanceQueryForZeroAddress",
      "type": "error"
    },
    {
      "inputs": [],
      "name": "MintToZeroAddress",
      "type": "error"
    },
    {
      "inputs": [],
      "name": "MintZeroQuantity",
      "type": "error"
    },
    {
      "inputs": [
        {
          "internalType": "address",
          "name": "operator",
          "type": "address"
        }
      ],
      "name": "OperatorNotAllowed",
      "type": "error"
    },
    {
      "inputs": [],
      "name": "OwnerQueryForNonexistentToken",
      "type": "error"
    },
    {
      "inputs": [],
      "name": "TransferCallerNotOwnerNorApproved",
      "type": "error"
    },
    {
      "inputs": [],
      "name": "TransferFromIncorrectOwner",
      "type": "error"
    },
    {
      "inputs": [],
      "name": "TransferToNonERC721ReceiverImplementer",
      "type": "error"
    },
    {
      "inputs": [],
      "name": "TransferToZeroAddress",
      "type": "error"
    },
    {
      "inputs": [],
      "name": "URIQueryForNonexistentToken",
      "type": "error"
    },
    {
      "anonymous": false,
      "inputs": [
        {
          "indexed": true,
          "internalType": "address",
          "name": "owner",
          "type": "address"
        },
        {
          "indexed": true,
          "internalType": "address",
          "name": "approved",
          "type": "address"
        },
        {
          "indexed": true,
          "internalType": "uint256",
          "name": "tokenId",
          "type": "uint256"
        }
      ],
      "name": "Approval",
      "type": "event"
    },
    {
      "anonymous": false,
      "inputs": [
        {
          "indexed": true,
          "internalType": "address",
          "name": "owner",
          "type": "address"
        },
        {
          "indexed": true,
          "internalType": "address",
          "name": "operator",
          "type": "address"
        },
        {
          "indexed": false,
          "internalType": "bool",
          "name": "approved",
          "type": "bool"
        }
      ],
      "name": "ApprovalForAll",
      "type": "event"
    },
    {
      "anonymous": false,
      "inputs": [
        {
          "indexed": true,
          "internalType": "uint256",
          "name": "tokenId",
          "type": "uint256"
        },
        {
          "indexed": false,
          "internalType": "uint256",
          "name": "stamina",
          "type": "uint256"
        },
        {
          "indexed": false,
          "internalType": "uint256",
          "name": "maxMana",
          "type": "uint256"
        },
        {
          "indexed": false,
          "internalType": "uint256",
          "name": "lastStaminaUpdateTime",
          "type": "uint256"
        },
        {
          "indexed": false,
          "internalType": "uint256",
          "name": "lastManaUpdateTime",
          "type": "uint256"
        }
      ],
      "name": "CharacterRecoveryStats",
      "type": "event"
    },
    {
      "anonymous": false,
      "inputs": [
        {
          "indexed": true,
          "internalType": "uint256",
          "name": "tokenId",
          "type": "uint256"
        },
        {
          "indexed": false,
          "internalType": "uint256",
          "name": "level",
          "type": "uint256"
        },
        {
          "indexed": false,
          "internalType": "uint256",
          "name": "experience",
          "type": "uint256"
        },
        {
          "indexed": false,
          "internalType": "uint256",
          "name": "health",
          "type": "uint256"
        },
        {
          "indexed": false,
          "internalType": "uint256",
          "name": "mana",
          "type": "uint256"
        },
        {
          "indexed": false,
          "internalType": "uint256",
          "name": "attack",
          "type": "uint256"
        },
        {
          "indexed": false,
          "internalType": "uint256",
          "name": "defense",
          "type": "uint256"
        },
        {
          "indexed": false,
          "internalType": "uint256",
          "name": "strength",
          "type": "uint256"
        },
        {
          "indexed": false,
          "internalType": "uint256",
          "name": "dexterity",
          "type": "uint256"
        },
        {
          "indexed": false,
          "internalType": "uint256",
          "name": "intelligence",
          "type": "uint256"
        },
        {
          "indexed": false,
          "internalType": "uint256",
          "name": "vitality",
          "type": "uint256"
        },
        {
          "indexed": false,
          "internalType": "uint256",
          "name": "accuracy",
          "type": "uint256"
        },
        {
          "indexed": false,
          "internalType": "uint256",
          "name": "statPoints",
          "type": "uint256"
        }
      ],
      "name": "CharacterStatsEvent",
      "type": "event"
    },
    {
      "anonymous": false,
      "inputs": [
        {
          "indexed": true,
          "internalType": "uint256",
          "name": "tokenId",
          "type": "uint256"
        },
        {
          "indexed": false,
          "internalType": "uint256",
          "name": "strength",
          "type": "uint256"
        },
        {
          "indexed": false,
          "internalType": "uint256",
          "name": "dexterity",
          "type": "uint256"
        },
        {
          "indexed": false,
          "internalType": "uint256",
          "name": "intelligence",
          "type": "uint256"
        },
        {
          "indexed": false,
          "internalType": "uint256",
          "name": "vitality",
          "type": "uint256"
        }
      ],
      "name": "CharacterStatsUpdated",
      "type": "event"
    },
    {
      "anonymous": false,
      "inputs": [
        {
          "indexed": true,
          "internalType": "uint256",
          "name": "tokenId",
          "type": "uint256"
        },
        {
          "indexed": false,
          "internalType": "uint256",
          "name": "xp",
          "type": "uint256"
        }
      ],
      "name": "CharacterXPUpdated",
      "type": "event"
    },
    {
      "anonymous": false,
      "inputs": [
        {
          "indexed": true,
          "internalType": "uint256",
          "name": "characterTokenId",
          "type": "uint256"
        },
        {
          "indexed": true,
          "internalType": "uint256",
          "name": "classId",
          "type": "uint256"
        }
      ],
      "name": "ClassEquipped",
      "type": "event"
    },
    {
      "anonymous": false,
      "inputs": [
        {
          "indexed": true,
          "internalType": "uint256",
          "name": "characterTokenId",
          "type": "uint256"
        },
        {
          "indexed": true,
          "internalType": "uint256",
          "name": "classId",
          "type": "uint256"
        }
      ],
      "name": "ClassUnequipped",
      "type": "event"
    },
    {
      "anonymous": false,
      "inputs": [
        {
          "indexed": false,
          "internalType": "string",
          "name": "prevURI",
          "type": "string"
        },
        {
          "indexed": false,
          "internalType": "string",
          "name": "newURI",
          "type": "string"
        }
      ],
      "name": "ContractURIUpdated",
      "type": "event"
    },
    {
      "anonymous": false,
      "inputs": [
        {
          "indexed": true,
          "internalType": "address",
          "name": "newRoyaltyRecipient",
          "type": "address"
        },
        {
          "indexed": false,
          "internalType": "uint256",
          "name": "newRoyaltyBps",
          "type": "uint256"
        }
      ],
      "name": "DefaultRoyalty",
      "type": "event"
    },
    {
      "anonymous": false,
      "inputs": [
        {
          "indexed": true,
          "internalType": "uint256",
          "name": "tokenId",
          "type": "uint256"
        },
        {
          "indexed": false,
          "internalType": "uint256",
          "name": "mana",
          "type": "uint256"
        }
      ],
      "name": "ManaUpdated",
      "type": "event"
    },
    {
      "anonymous": false,
      "inputs": [
        {
          "indexed": true,
          "internalType": "address",
          "name": "player",
          "type": "address"
        },
        {
          "indexed": true,
          "internalType": "uint256",
          "name": "tokenId",
          "type": "uint256"
        },
        {
          "indexed": false,
          "internalType": "uint256",
          "name": "typeId",
          "type": "uint256"
        }
      ],
      "name": "NewCharacter",
      "type": "event"
    },
    {
      "anonymous": false,
      "inputs": [
        {
          "indexed": false,
          "internalType": "bool",
          "name": "restriction",
          "type": "bool"
        }
      ],
      "name": "OperatorRestriction",
      "type": "event"
    },
    {
      "anonymous": false,
      "inputs": [
        {
          "indexed": true,
          "internalType": "address",
          "name": "prevOwner",
          "type": "address"
        },
        {
          "indexed": true,
          "internalType": "address",
          "name": "newOwner",
          "type": "address"
        }
      ],
      "name": "OwnerUpdated",
      "type": "event"
    },
    {
      "anonymous": false,
      "inputs": [
        {
          "indexed": true,
          "internalType": "uint256",
          "name": "tokenId",
          "type": "uint256"
        },
        {
          "indexed": true,
          "internalType": "address",
          "name": "royaltyRecipient",
          "type": "address"
        },
        {
          "indexed": false,
          "internalType": "uint256",
          "name": "royaltyBps",
          "type": "uint256"
        }
      ],
      "name": "RoyaltyForToken",
      "type": "event"
    },
    {
      "anonymous": false,
      "inputs": [
        {
          "indexed": true,
          "internalType": "uint256",
          "name": "tokenId",
          "type": "uint256"
        },
        {
          "indexed": false,
          "internalType": "uint256",
          "name": "stamina",
          "type": "uint256"
        }
      ],
      "name": "StaminaUpdated",
      "type": "event"
    },
    {
      "anonymous": false,
      "inputs": [
        {
          "indexed": true,
          "internalType": "address",
          "name": "from",
          "type": "address"
        },
        {
          "indexed": true,
          "internalType": "address",
          "name": "to",
          "type": "address"
        },
        {
          "indexed": true,
          "internalType": "uint256",
          "name": "tokenId",
          "type": "uint256"
        }
      ],
      "name": "Transfer",
      "type": "event"
    },
    {
      "inputs": [],
      "name": "OPERATOR_FILTER_REGISTRY",
      "outputs": [
        {
          "internalType": "contract IOperatorFilterRegistry",
          "name": "",
          "type": "address"
        }
      ],
      "stateMutability": "view",
      "type": "function"
    },
    {
      "inputs": [
        {
          "internalType": "uint256",
          "name": "tokenId",
          "type": "uint256"
        },
        {
          "internalType": "uint256",
          "name": "amount",
          "type": "uint256"
        }
      ],
      "name": "addMana",
      "outputs": [],
      "stateMutability": "nonpayable",
      "type": "function"
    },
    {
      "inputs": [
        {
          "internalType": "uint256",
          "name": "tokenId",
          "type": "uint256"
        },
        {
          "internalType": "uint256",
          "name": "amount",
          "type": "uint256"
        }
      ],
      "name": "addStamina",
      "outputs": [],
      "stateMutability": "nonpayable",
      "type": "function"
    },
    {
      "inputs": [
        {
          "internalType": "uint256",
          "name": "characterTokenId",
          "type": "uint256"
        },
        {
          "internalType": "uint256",
          "name": "strength",
          "type": "uint256"
        },
        {
          "internalType": "uint256",
          "name": "dexterity",
          "type": "uint256"
        },
        {
          "internalType": "uint256",
          "name": "intelligence",
          "type": "uint256"
        },
        {
          "internalType": "uint256",
          "name": "vitality",
          "type": "uint256"
        }
      ],
      "name": "addStats",
      "outputs": [],
      "stateMutability": "nonpayable",
      "type": "function"
    },
    {
      "inputs": [
        {
          "internalType": "address",
          "name": "operator",
          "type": "address"
        },
        {
          "internalType": "uint256",
          "name": "tokenId",
          "type": "uint256"
        }
      ],
      "name": "approve",
      "outputs": [],
      "stateMutability": "nonpayable",
      "type": "function"
    },
    {
      "inputs": [
        {
          "internalType": "address",
          "name": "owner",
          "type": "address"
        }
      ],
      "name": "balanceOf",
      "outputs": [
        {
          "internalType": "uint256",
          "name": "",
          "type": "uint256"
        }
      ],
      "stateMutability": "view",
      "type": "function"
    },
    {
      "inputs": [
        {
          "internalType": "address",
          "name": "_to",
          "type": "address"
        },
        {
          "internalType": "uint256",
          "name": "_quantity",
          "type": "uint256"
        },
        {
          "internalType": "string",
          "name": "_baseURI",
          "type": "string"
        },
        {
          "internalType": "bytes",
          "name": "_data",
          "type": "bytes"
        }
      ],
      "name": "batchMintTo",
      "outputs": [],
      "stateMutability": "nonpayable",
      "type": "function"
    },
    {
      "inputs": [],
      "name": "battleItems",
      "outputs": [
        {
          "internalType": "contract IBattleItems",
          "name": "",
          "type": "address"
        }
      ],
      "stateMutability": "view",
      "type": "function"
    },
    {
      "inputs": [],
      "name": "battleSkills",
      "outputs": [
        {
          "internalType": "contract IBattleSkills",
          "name": "",
          "type": "address"
        }
      ],
      "stateMutability": "view",
      "type": "function"
    },
    {
      "inputs": [
        {
          "internalType": "uint256",
          "name": "_tokenId",
          "type": "uint256"
        }
      ],
      "name": "burn",
      "outputs": [],
      "stateMutability": "nonpayable",
      "type": "function"
    },
    {
      "inputs": [
        {
          "internalType": "uint256",
          "name": "",
          "type": "uint256"
        }
      ],
      "name": "charStats",
      "outputs": [
        {
          "internalType": "uint256",
          "name": "tokenId",
          "type": "uint256"
        },
        {
          "internalType": "uint256",
          "name": "level",
          "type": "uint256"
        },
        {
          "internalType": "uint256",
          "name": "experience",
          "type": "uint256"
        },
        {
          "internalType": "uint256",
          "name": "health",
          "type": "uint256"
        },
        {
          "internalType": "uint256",
          "name": "mana",
          "type": "uint256"
        },
        {
          "internalType": "uint256",
          "name": "attack",
          "type": "uint256"
        },
        {
          "internalType": "uint256",
          "name": "defense",
          "type": "uint256"
        },
        {
          "internalType": "uint256",
          "name": "strength",
          "type": "uint256"
        },
        {
          "internalType": "uint256",
          "name": "dexterity",
          "type": "uint256"
        },
        {
          "internalType": "uint256",
          "name": "intelligence",
          "type": "uint256"
        },
        {
          "internalType": "uint256",
          "name": "vitality",
          "type": "uint256"
        },
        {
          "internalType": "uint256",
          "name": "accuracy",
          "type": "uint256"
        },
        {
          "internalType": "uint256",
          "name": "statPoints",
          "type": "uint256"
        },
        {
          "internalType": "uint256",
          "name": "typeId",
          "type": "uint256"
        }
      ],
      "stateMutability": "view",
      "type": "function"
    },
    {
      "inputs": [
        {
          "internalType": "uint256",
          "name": "",
          "type": "uint256"
        }
      ],
      "name": "charTypes",
      "outputs": [
        {
          "internalType": "uint256",
          "name": "typeId",
          "type": "uint256"
        },
        {
          "internalType": "string",
          "name": "characterType",
          "type": "string"
        },
        {
          "internalType": "string",
          "name": "uri",
          "type": "string"
        }
      ],
      "stateMutability": "view",
      "type": "function"
    },
    {
      "inputs": [],
      "name": "characterClasses",
      "outputs": [
        {
          "internalType": "contract CharacterClass",
          "name": "",
          "type": "address"
        }
      ],
      "stateMutability": "view",
      "type": "function"
    },
    {
      "inputs": [
        {
          "internalType": "uint256",
          "name": "",
          "type": "uint256"
        }
      ],
      "name": "characterEquips",
      "outputs": [
        {
          "internalType": "uint256",
          "name": "equippedClass",
          "type": "uint256"
        }
      ],
      "stateMutability": "view",
      "type": "function"
    },
    {
      "inputs": [
        {
          "internalType": "uint256",
          "name": "",
          "type": "uint256"
        }
      ],
      "name": "characterRecoveryStats",
      "outputs": [
        {
          "internalType": "uint256",
          "name": "stamina",
          "type": "uint256"
        },
        {
          "internalType": "uint256",
          "name": "maxMana",
          "type": "uint256"
        },
        {
          "internalType": "uint256",
          "name": "lastStaminaUpdateTime",
          "type": "uint256"
        },
        {
          "internalType": "uint256",
          "name": "lastManaUpdateTime",
          "type": "uint256"
        }
      ],
      "stateMutability": "view",
      "type": "function"
    },
    {
      "inputs": [
        {
          "internalType": "uint256",
          "name": "",
          "type": "uint256"
        }
      ],
      "name": "characterStats",
      "outputs": [
        {
          "internalType": "uint256",
          "name": "tokenId",
          "type": "uint256"
        },
        {
          "internalType": "uint256",
          "name": "level",
          "type": "uint256"
        },
        {
          "internalType": "uint256",
          "name": "experience",
          "type": "uint256"
        },
        {
          "internalType": "uint256",
          "name": "health",
          "type": "uint256"
        },
        {
          "internalType": "uint256",
          "name": "mana",
          "type": "uint256"
        },
        {
          "internalType": "uint256",
          "name": "attack",
          "type": "uint256"
        },
        {
          "internalType": "uint256",
          "name": "defense",
          "type": "uint256"
        },
        {
          "internalType": "uint256",
          "name": "strength",
          "type": "uint256"
        },
        {
          "internalType": "uint256",
          "name": "dexterity",
          "type": "uint256"
        },
        {
          "internalType": "uint256",
          "name": "intelligence",
          "type": "uint256"
        },
        {
          "internalType": "uint256",
          "name": "vitality",
          "type": "uint256"
        },
        {
          "internalType": "uint256",
          "name": "accuracy",
          "type": "uint256"
        },
        {
          "internalType": "uint256",
          "name": "statPoints",
          "type": "uint256"
        },
        {
          "internalType": "uint256",
          "name": "typeId",
          "type": "uint256"
        }
      ],
      "stateMutability": "view",
      "type": "function"
    },
    {
      "inputs": [],
      "name": "compositeTokens",
      "outputs": [
        {
          "internalType": "contract ICompositeTokens",
          "name": "",
          "type": "address"
        }
      ],
      "stateMutability": "view",
      "type": "function"
    },
    {
      "inputs": [
        {
          "internalType": "uint256",
          "name": "tokenId",
          "type": "uint256"
        },
        {
          "internalType": "uint256",
          "name": "amount",
          "type": "uint256"
        }
      ],
      "name": "consumeMana",
      "outputs": [],
      "stateMutability": "nonpayable",
      "type": "function"
    },
    {
      "inputs": [
        {
          "internalType": "uint256",
          "name": "tokenId",
          "type": "uint256"
        },
        {
          "internalType": "uint256",
          "name": "amount",
          "type": "uint256"
        }
      ],
      "name": "consumeStamina",
      "outputs": [],
      "stateMutability": "nonpayable",
      "type": "function"
    },
    {
      "inputs": [],
      "name": "contractURI",
      "outputs": [
        {
          "internalType": "string",
          "name": "",
          "type": "string"
        }
      ],
      "stateMutability": "view",
      "type": "function"
    },
    {
      "inputs": [
        {
          "internalType": "uint256",
          "name": "characterTokenId",
          "type": "uint256"
        },
        {
          "internalType": "uint256",
          "name": "classId",
          "type": "uint256"
        }
      ],
      "name": "equipClass",
      "outputs": [],
      "stateMutability": "nonpayable",
      "type": "function"
    },
    {
      "inputs": [
        {
          "internalType": "uint256",
          "name": "characterTokenId",
          "type": "uint256"
        },
        {
          "internalType": "uint256",
          "name": "itemId",
          "type": "uint256"
        },
        {
          "internalType": "enum CharData.ItemType",
          "name": "itemType",
          "type": "uint8"
        }
      ],
      "name": "equipItem",
      "outputs": [],
      "stateMutability": "nonpayable",
      "type": "function"
    },
    {
      "inputs": [],
      "name": "equipManagement",
      "outputs": [
        {
          "internalType": "contract IEquipManagement",
          "name": "",
          "type": "address"
        }
      ],
      "stateMutability": "view",
      "type": "function"
    },
    {
      "inputs": [
        {
          "internalType": "uint256",
          "name": "characterTokenId",
          "type": "uint256"
        },
        {
          "internalType": "uint256",
          "name": "skillId",
          "type": "uint256"
        }
      ],
      "name": "equipSkill",
      "outputs": [],
      "stateMutability": "nonpayable",
      "type": "function"
    },
    {
      "inputs": [
        {
          "internalType": "uint256",
          "name": "characterTokenId",
          "type": "uint256"
        },
        {
          "internalType": "uint256",
          "name": "xp",
          "type": "uint256"
        }
      ],
      "name": "gainXP",
      "outputs": [],
      "stateMutability": "nonpayable",
      "type": "function"
    },
    {
      "inputs": [
        {
          "internalType": "uint256",
          "name": "tokenId",
          "type": "uint256"
        }
      ],
      "name": "getApproved",
      "outputs": [
        {
          "internalType": "address",
          "name": "",
          "type": "address"
        }
      ],
      "stateMutability": "view",
      "type": "function"
    },
    {
      "inputs": [],
      "name": "getBaseURICount",
      "outputs": [
        {
          "internalType": "uint256",
          "name": "",
          "type": "uint256"
        }
      ],
      "stateMutability": "view",
      "type": "function"
    },
    {
      "inputs": [
        {
          "internalType": "uint256",
          "name": "_index",
          "type": "uint256"
        }
      ],
      "name": "getBatchIdAtIndex",
      "outputs": [
        {
          "internalType": "uint256",
          "name": "",
          "type": "uint256"
        }
      ],
      "stateMutability": "view",
      "type": "function"
    },
    {
      "inputs": [
        {
          "internalType": "uint256",
          "name": "_tokenId",
          "type": "uint256"
        }
      ],
      "name": "getCharacter",
      "outputs": [
        {
          "components": [
            {
              "internalType": "uint256",
              "name": "tokenId",
              "type": "uint256"
            },
            {
              "internalType": "uint256",
              "name": "level",
              "type": "uint256"
            },
            {
              "internalType": "uint256",
              "name": "experience",
              "type": "uint256"
            },
            {
              "internalType": "uint256",
              "name": "health",
              "type": "uint256"
            },
            {
              "internalType": "uint256",
              "name": "mana",
              "type": "uint256"
            },
            {
              "internalType": "uint256",
              "name": "attack",
              "type": "uint256"
            },
            {
              "internalType": "uint256",
              "name": "defense",
              "type": "uint256"
            },
            {
              "internalType": "uint256",
              "name": "strength",
              "type": "uint256"
            },
            {
              "internalType": "uint256",
              "name": "dexterity",
              "type": "uint256"
            },
            {
              "internalType": "uint256",
              "name": "intelligence",
              "type": "uint256"
            },
            {
              "internalType": "uint256",
              "name": "vitality",
              "type": "uint256"
            },
            {
              "internalType": "uint256",
              "name": "accuracy",
              "type": "uint256"
            },
            {
              "internalType": "uint256",
              "name": "statPoints",
              "type": "uint256"
            },
            {
              "internalType": "uint256",
              "name": "typeId",
              "type": "uint256"
            }
          ],
          "internalType": "struct CharData.CharacterStats",
          "name": "",
          "type": "tuple"
        }
      ],
      "stateMutability": "view",
      "type": "function"
    },
    {
      "inputs": [
        {
          "internalType": "uint256",
          "name": "characterTokenId",
          "type": "uint256"
        },
        {
          "internalType": "enum CharData.ItemType",
          "name": "itemType",
          "type": "uint8"
        }
      ],
      "name": "getCharacterEquippedItem",
      "outputs": [
        {
          "internalType": "uint256",
          "name": "",
          "type": "uint256"
        }
      ],
      "stateMutability": "view",
      "type": "function"
    },
    {
      "inputs": [
        {
          "internalType": "uint256",
          "name": "characterTokenId",
          "type": "uint256"
        }
      ],
      "name": "getCharacterEquippedSkills",
      "outputs": [
        {
          "internalType": "uint256[]",
          "name": "",
          "type": "uint256[]"
        }
      ],
      "stateMutability": "view",
      "type": "function"
    },
    {
      "inputs": [
        {
          "internalType": "uint256",
          "name": "tokenId",
          "type": "uint256"
        }
      ],
      "name": "getCharacterInfo",
      "outputs": [
        {
          "components": [
            {
              "internalType": "uint256",
              "name": "level",
              "type": "uint256"
            },
            {
              "internalType": "uint256",
              "name": "dexterity",
              "type": "uint256"
            },
            {
              "internalType": "uint256",
              "name": "accuracy",
              "type": "uint256"
            },
            {
              "internalType": "uint256",
              "name": "health",
              "type": "uint256"
            },
            {
              "internalType": "uint256",
              "name": "attack",
              "type": "uint256"
            },
            {
              "internalType": "uint256",
              "name": "defense",
              "type": "uint256"
            },
            {
              "internalType": "uint256",
              "name": "mana",
              "type": "uint256"
            },
            {
              "internalType": "uint256",
              "name": "typeId",
              "type": "uint256"
            },
            {
              "internalType": "uint256[]",
              "name": "equippedSkills",
              "type": "uint256[]"
            }
          ],
          "internalType": "struct CharData.CharBattleData",
          "name": "battleData",
          "type": "tuple"
        }
      ],
      "stateMutability": "view",
      "type": "function"
    },
    {
      "inputs": [],
      "name": "getDefaultRoyaltyInfo",
      "outputs": [
        {
          "internalType": "address",
          "name": "",
          "type": "address"
        },
        {
          "internalType": "uint16",
          "name": "",
          "type": "uint16"
        }
      ],
      "stateMutability": "view",
      "type": "function"
    },
    {
      "inputs": [
        {
          "internalType": "uint256",
          "name": "characterTokenId",
          "type": "uint256"
        }
      ],
      "name": "getEquippedClass",
      "outputs": [
        {
          "internalType": "uint256",
          "name": "",
          "type": "uint256"
        }
      ],
      "stateMutability": "view",
      "type": "function"
    },
    {
      "inputs": [
        {
          "internalType": "uint256",
          "name": "tokenId",
          "type": "uint256"
        }
      ],
      "name": "getMana",
      "outputs": [
        {
          "internalType": "uint256",
          "name": "",
          "type": "uint256"
        }
      ],
      "stateMutability": "view",
      "type": "function"
    },
    {
      "inputs": [
        {
          "internalType": "uint256",
          "name": "tokenId",
          "type": "uint256"
        }
      ],
      "name": "getRecoveryStats",
      "outputs": [
        {
          "components": [
            {
              "internalType": "uint256",
              "name": "stamina",
              "type": "uint256"
            },
            {
              "internalType": "uint256",
              "name": "maxMana",
              "type": "uint256"
            },
            {
              "internalType": "uint256",
              "name": "lastStaminaUpdateTime",
              "type": "uint256"
            },
            {
              "internalType": "uint256",
              "name": "lastManaUpdateTime",
              "type": "uint256"
            }
          ],
          "internalType": "struct CharData.RecoveryStats",
          "name": "",
          "type": "tuple"
        }
      ],
      "stateMutability": "view",
      "type": "function"
    },
    {
      "inputs": [
        {
          "internalType": "uint256",
          "name": "_tokenId",
          "type": "uint256"
        }
      ],
      "name": "getRoyaltyInfoForToken",
      "outputs": [
        {
          "internalType": "address",
          "name": "",
          "type": "address"
        },
        {
          "internalType": "uint16",
          "name": "",
          "type": "uint16"
        }
      ],
      "stateMutability": "view",
      "type": "function"
    },
    {
      "inputs": [
        {
          "internalType": "uint256",
          "name": "tokenId",
          "type": "uint256"
        }
      ],
      "name": "getStamina",
      "outputs": [
        {
          "internalType": "uint256",
          "name": "",
          "type": "uint256"
        }
      ],
      "stateMutability": "view",
      "type": "function"
    },
    {
      "inputs": [
        {
          "internalType": "address",
          "name": "owner",
          "type": "address"
        },
        {
          "internalType": "address",
          "name": "operator",
          "type": "address"
        }
      ],
      "name": "isApprovedForAll",
      "outputs": [
        {
          "internalType": "bool",
          "name": "",
          "type": "bool"
        }
      ],
      "stateMutability": "view",
      "type": "function"
    },
    {
      "inputs": [
        {
          "internalType": "address",
          "name": "_operator",
          "type": "address"
        },
        {
          "internalType": "uint256",
          "name": "_tokenId",
          "type": "uint256"
        }
      ],
      "name": "isApprovedOrOwner",
      "outputs": [
        {
          "internalType": "bool",
          "name": "isApprovedOrOwnerOf",
          "type": "bool"
        }
      ],
      "stateMutability": "view",
      "type": "function"
    },
    {
      "inputs": [
        {
          "internalType": "uint256",
          "name": "_typeId",
          "type": "uint256"
        },
        {
          "internalType": "uint256",
          "name": "_skillTokenId",
          "type": "uint256"
        }
      ],
      "name": "mintNewCharacterWithItemAndEquip",
      "outputs": [],
      "stateMutability": "nonpayable",
      "type": "function"
    },
    {
      "inputs": [
        {
          "internalType": "address",
          "name": "_to",
          "type": "address"
        },
        {
          "internalType": "string",
          "name": "_tokenURI",
          "type": "string"
        }
      ],
      "name": "mintTo",
      "outputs": [],
      "stateMutability": "nonpayable",
      "type": "function"
    },
    {
      "inputs": [
        {
          "internalType": "bytes[]",
          "name": "data",
          "type": "bytes[]"
        }
      ],
      "name": "multicall",
      "outputs": [
        {
          "internalType": "bytes[]",
          "name": "results",
          "type": "bytes[]"
        }
      ],
      "stateMutability": "nonpayable",
      "type": "function"
    },
    {
      "inputs": [],
      "name": "name",
      "outputs": [
        {
          "internalType": "string",
          "name": "",
          "type": "string"
        }
      ],
      "stateMutability": "view",
      "type": "function"
    },
    {
      "inputs": [
        {
          "internalType": "uint256",
          "name": "_typeId",
          "type": "uint256"
        }
      ],
      "name": "newCharacter",
      "outputs": [],
      "stateMutability": "nonpayable",
      "type": "function"
    },
    {
      "inputs": [],
      "name": "nextTokenIdToMint",
      "outputs": [
        {
          "internalType": "uint256",
          "name": "",
          "type": "uint256"
        }
      ],
      "stateMutability": "view",
      "type": "function"
    },
    {
      "inputs": [],
      "name": "numCharacters",
      "outputs": [
        {
          "internalType": "uint256",
          "name": "",
          "type": "uint256"
        }
      ],
      "stateMutability": "view",
      "type": "function"
    },
    {
      "inputs": [
        {
          "internalType": "address",
          "name": "",
          "type": "address"
        },
        {
          "internalType": "address",
          "name": "",
          "type": "address"
        },
        {
          "internalType": "uint256[]",
          "name": "",
          "type": "uint256[]"
        },
        {
          "internalType": "uint256[]",
          "name": "",
          "type": "uint256[]"
        },
        {
          "internalType": "bytes",
          "name": "",
          "type": "bytes"
        }
      ],
      "name": "onERC1155BatchReceived",
      "outputs": [
        {
          "internalType": "bytes4",
          "name": "",
          "type": "bytes4"
        }
      ],
      "stateMutability": "nonpayable",
      "type": "function"
    },
    {
      "inputs": [
        {
          "internalType": "address",
          "name": "",
          "type": "address"
        },
        {
          "internalType": "address",
          "name": "",
          "type": "address"
        },
        {
          "internalType": "uint256",
          "name": "",
          "type": "uint256"
        },
        {
          "internalType": "uint256",
          "name": "",
          "type": "uint256"
        },
        {
          "internalType": "bytes",
          "name": "",
          "type": "bytes"
        }
      ],
      "name": "onERC1155Received",
      "outputs": [
        {
          "internalType": "bytes4",
          "name": "",
          "type": "bytes4"
        }
      ],
      "stateMutability": "nonpayable",
      "type": "function"
    },
    {
      "inputs": [],
      "name": "operatorRestriction",
      "outputs": [
        {
          "internalType": "bool",
          "name": "",
          "type": "bool"
        }
      ],
      "stateMutability": "view",
      "type": "function"
    },
    {
      "inputs": [],
      "name": "owner",
      "outputs": [
        {
          "internalType": "address",
          "name": "",
          "type": "address"
        }
      ],
      "stateMutability": "view",
      "type": "function"
    },
    {
      "inputs": [
        {
          "internalType": "uint256",
          "name": "tokenId",
          "type": "uint256"
        }
      ],
      "name": "ownerOf",
      "outputs": [
        {
          "internalType": "address",
          "name": "",
          "type": "address"
        }
      ],
      "stateMutability": "view",
      "type": "function"
    },
    {
      "inputs": [
        {
          "internalType": "uint256",
          "name": "tokenId",
          "type": "uint256"
        }
      ],
      "name": "restoreManaToFull",
      "outputs": [],
      "stateMutability": "nonpayable",
      "type": "function"
    },
    {
      "inputs": [
        {
          "internalType": "uint256",
          "name": "tokenId",
          "type": "uint256"
        }
      ],
      "name": "restoreStaminaToFull",
      "outputs": [],
      "stateMutability": "nonpayable",
      "type": "function"
    },
    {
      "inputs": [
        {
          "internalType": "uint256",
          "name": "tokenId",
          "type": "uint256"
        },
        {
          "internalType": "uint256",
          "name": "salePrice",
          "type": "uint256"
        }
      ],
      "name": "royaltyInfo",
      "outputs": [
        {
          "internalType": "address",
          "name": "receiver",
          "type": "address"
        },
        {
          "internalType": "uint256",
          "name": "royaltyAmount",
          "type": "uint256"
        }
      ],
      "stateMutability": "view",
      "type": "function"
    },
    {
      "inputs": [
        {
          "internalType": "address",
          "name": "from",
          "type": "address"
        },
        {
          "internalType": "address",
          "name": "to",
          "type": "address"
        },
        {
          "internalType": "uint256",
          "name": "tokenId",
          "type": "uint256"
        }
      ],
      "name": "safeTransferFrom",
      "outputs": [],
      "stateMutability": "nonpayable",
      "type": "function"
    },
    {
      "inputs": [
        {
          "internalType": "address",
          "name": "from",
          "type": "address"
        },
        {
          "internalType": "address",
          "name": "to",
          "type": "address"
        },
        {
          "internalType": "uint256",
          "name": "tokenId",
          "type": "uint256"
        },
        {
          "internalType": "bytes",
          "name": "data",
          "type": "bytes"
        }
      ],
      "name": "safeTransferFrom",
      "outputs": [],
      "stateMutability": "nonpayable",
      "type": "function"
    },
    {
      "inputs": [
        {
          "internalType": "address",
          "name": "operator",
          "type": "address"
        },
        {
          "internalType": "bool",
          "name": "approved",
          "type": "bool"
        }
      ],
      "name": "setApprovalForAll",
      "outputs": [],
      "stateMutability": "nonpayable",
      "type": "function"
    },
    {
      "inputs": [
        {
          "internalType": "address",
          "name": "_address",
          "type": "address"
        }
      ],
      "name": "setBattleContract",
      "outputs": [],
      "stateMutability": "nonpayable",
      "type": "function"
    },
    {
      "inputs": [
        {
          "internalType": "address",
          "name": "_address",
          "type": "address"
        }
      ],
      "name": "setBattleItems",
      "outputs": [],
      "stateMutability": "nonpayable",
      "type": "function"
    },
    {
      "inputs": [
        {
          "internalType": "address",
          "name": "_address",
          "type": "address"
        }
      ],
      "name": "setBattleSkills",
      "outputs": [],
      "stateMutability": "nonpayable",
      "type": "function"
    },
    {
      "inputs": [
        {
          "internalType": "address",
          "name": "_address",
          "type": "address"
        }
      ],
      "name": "setClassContract",
      "outputs": [],
      "stateMutability": "nonpayable",
      "type": "function"
    },
    {
      "inputs": [
        {
          "internalType": "address",
          "name": "_address",
          "type": "address"
        }
      ],
      "name": "setCompositeTokens",
      "outputs": [],
      "stateMutability": "nonpayable",
      "type": "function"
    },
    {
      "inputs": [
        {
          "internalType": "string",
          "name": "_uri",
          "type": "string"
        }
      ],
      "name": "setContractURI",
      "outputs": [],
      "stateMutability": "nonpayable",
      "type": "function"
    },
    {
      "inputs": [
        {
          "internalType": "address",
          "name": "_royaltyRecipient",
          "type": "address"
        },
        {
          "internalType": "uint256",
          "name": "_royaltyBps",
          "type": "uint256"
        }
      ],
      "name": "setDefaultRoyaltyInfo",
      "outputs": [],
      "stateMutability": "nonpayable",
      "type": "function"
    },
    {
      "inputs": [
        {
          "internalType": "address",
          "name": "_equipManagementAddress",
          "type": "address"
        }
      ],
      "name": "setEquipManagementContract",
      "outputs": [],
      "stateMutability": "nonpayable",
      "type": "function"
    },
    {
      "inputs": [
        {
          "internalType": "bool",
          "name": "_restriction",
          "type": "bool"
        }
      ],
      "name": "setOperatorRestriction",
      "outputs": [],
      "stateMutability": "nonpayable",
      "type": "function"
    },
    {
      "inputs": [
        {
          "internalType": "address",
          "name": "_newOwner",
          "type": "address"
        }
      ],
      "name": "setOwner",
      "outputs": [],
      "stateMutability": "nonpayable",
      "type": "function"
    },
    {
      "inputs": [
        {
          "internalType": "uint256",
          "name": "_tokenId",
          "type": "uint256"
        },
        {
          "internalType": "address",
          "name": "_recipient",
          "type": "address"
        },
        {
          "internalType": "uint256",
          "name": "_bps",
          "type": "uint256"
        }
      ],
      "name": "setRoyaltyInfoForToken",
      "outputs": [],
      "stateMutability": "nonpayable",
      "type": "function"
    },
    {
      "inputs": [
        {
          "internalType": "address",
          "name": "_subscription",
          "type": "address"
        }
      ],
      "name": "subscribeToRegistry",
      "outputs": [],
      "stateMutability": "nonpayable",
      "type": "function"
    },
    {
      "inputs": [
        {
          "internalType": "bytes4",
          "name": "interfaceId",
          "type": "bytes4"
        }
      ],
      "name": "supportsInterface",
      "outputs": [
        {
          "internalType": "bool",
          "name": "",
          "type": "bool"
        }
      ],
      "stateMutability": "view",
      "type": "function"
    },
    {
      "inputs": [],
      "name": "symbol",
      "outputs": [
        {
          "internalType": "string",
          "name": "",
          "type": "string"
        }
      ],
      "stateMutability": "view",
      "type": "function"
    },
    {
      "inputs": [
        {
          "internalType": "uint256",
          "name": "_tokenId",
          "type": "uint256"
        }
      ],
      "name": "tokenURI",
      "outputs": [
        {
          "internalType": "string",
          "name": "",
          "type": "string"
        }
      ],
      "stateMutability": "view",
      "type": "function"
    },
    {
      "inputs": [],
      "name": "totalSupply",
      "outputs": [
        {
          "internalType": "uint256",
          "name": "",
          "type": "uint256"
        }
      ],
      "stateMutability": "view",
      "type": "function"
    },
    {
      "inputs": [
        {
          "internalType": "address",
          "name": "from",
          "type": "address"
        },
        {
          "internalType": "address",
          "name": "to",
          "type": "address"
        },
        {
          "internalType": "uint256",
          "name": "tokenId",
          "type": "uint256"
        }
      ],
      "name": "transferFrom",
      "outputs": [],
      "stateMutability": "nonpayable",
      "type": "function"
    },
    {
      "inputs": [
        {
          "internalType": "uint256",
          "name": "characterTokenId",
          "type": "uint256"
        }
      ],
      "name": "unequipClass",
      "outputs": [],
      "stateMutability": "nonpayable",
      "type": "function"
    },
    {
      "inputs": [
        {
          "internalType": "uint256",
          "name": "characterTokenId",
          "type": "uint256"
        },
        {
          "internalType": "enum CharData.ItemType",
          "name": "itemType",
          "type": "uint8"
        }
      ],
      "name": "unequipItem",
      "outputs": [],
      "stateMutability": "nonpayable",
      "type": "function"
    },
    {
      "inputs": [
        {
          "internalType": "uint256",
          "name": "characterTokenId",
          "type": "uint256"
        },
        {
          "internalType": "uint256",
          "name": "skillId",
          "type": "uint256"
        }
      ],
      "name": "unequipSkill",
      "outputs": [],
      "stateMutability": "nonpayable",
      "type": "function"
    },
    {
      "inputs": [
        {
          "internalType": "uint256",
          "name": "_tokenId",
          "type": "uint256"
        },
        {
          "internalType": "string",
          "name": "_tokenURI",
          "type": "string"
        }
      ],
      "name": "updateURI",
      "outputs": [],
      "stateMutability": "nonpayable",
      "type": "function"
    }
  ],
  "bytecode": "0x6080604052600060145560646017553480156200001b57600080fd5b5033336040518060400160405280600981526020016821b430b930b1ba32b960b91b8152506040518060400160405280600481526020016310d3919560e21b815250336000733cc6cdda760b79bafa08df41ecfa224f810dceb66001858581600290816200008a919062000998565b50600362000099828262000998565b50506000805550620000ac828262000118565b50620000ba90508562000246565b620000cf826001600160801b03831662000298565b620000db600162000343565b5050601080546001600160a01b0319166001600160a01b038616179055506200010791506200038a9050565b620001116200070d565b5062000a64565b6daaeb6d7670e522a718067333cd4e3b1562000242576001600160a01b0382163b15620001fb578015620001ba57604051633e9f1edf60e11b81523060048201526001600160a01b03831660248201526daaeb6d7670e522a718067333cd4e90637d3e3dbe906044015b600060405180830381600087803b1580156200019d57600080fd5b505af1158015620001b2573d6000803e3d6000fd5b505050505050565b60405163a0af290360e01b81523060048201526001600160a01b03831660248201526daaeb6d7670e522a718067333cd4e9063a0af29039060440162000182565b604051632210724360e11b81523060048201526daaeb6d7670e522a718067333cd4e90634420e48690602401600060405180830381600087803b1580156200019d57600080fd5b5050565b600980546001600160a01b038381166001600160a01b0319831681179093556040519116919082907f8292fce18fa69edf4db7b94ea2e58241df0ae57f97e0a6c9b29067028bf92d7690600090a35050565b612710811115620002e15760405162461bcd60e51b815260206004820152600f60248201526e45786365656473206d61782062707360881b604482015260640160405180910390fd5b600a80546001600160a01b0384166001600160b01b03199091168117600160a01b61ffff851602179091556040518281527f90d7ec04bcb8978719414f82e52e4cb651db41d0e6f8cea6118c2191e6183adb9060200160405180910390a25050565b600e805460ff19168215159081179091556040519081527f38475885990d8dfe9ca01f0ef160a1b5514426eab9ddbc953a3353410ba780969060200160405180910390a150565b6015604051806101c001604052806000815260200160018152602001600081526020016064815260200160648152602001600a815260200160648152602001606481526020016064815260200160648152602001606481526020016064815260200160058152602001600081525090806001815401808255809150506001900390600052602060002090600e0201600090919091909150600082015181600001556020820151816001015560408201518160020155606082015181600301556080820151816004015560a0820151816005015560c0820151816006015560e082015181600701556101008201518160080155610120820151816009015561014082015181600a015561016082015181600b015561018082015181600c01556101a082015181600d015550506015604051806101c001604052806000815260200160018152602001600081526020016064815260200160648152602001600a815260200160648152602001606481526020016064815260200160648152602001606481526020016064815260200160058152602001600181525090806001815401808255809150506001900390600052602060002090600e0201600090919091909150600082015181600001556020820151816001015560408201518160020155606082015181600301556080820151816004015560a0820151816005015560c0820151816006015560e082015181600701556101008201518160080155610120820151816009015561014082015181600a015561016082015181600b015561018082015181600c01556101a082015181600d015550506015604051806101c0016040528060008152602001600181526020016000815260200160648152602001606481526020016064815260200160648152602001606481526020016064815260200160648152602001606481526020016064815260200160058152602001600281525090806001815401808255809150506001900390600052602060002090600e0201600090919091909150600082015181600001556020820151816001015560408201518160020155606082015181600301556080820151816004015560a0820151816005015560c0820151816006015560e082015181600701556101008201518160080155610120820151816009015561014082015181600a015561016082015181600b015561018082015181600c01556101a082015181600d01555050565b6016604051806060016040528060008152602001604051806040016040528060078152602001662bb0b93934b7b960c91b8152508152602001604051806060016040528060358152602001620066016035913990528154600181810184556000938452602093849020835160039093020191825592820151919290919082019062000799908262000998565b5060408201516002820190620007b0908262000998565b5050506016604051806060016040528060018152602001604051806040016040528060048152602001634d61676560e01b81525081526020016040518060600160405280603581526020016200666b603591399052815460018181018455600093845260209384902083516003909302019182559282015191929091908201906200083c908262000998565b506040820151600282019062000853908262000998565b505050601660405180606001604052806002815260200160405180604001604052806005815260200164526f67756560d81b81525081526020016040518060600160405280603581526020016200663660359139905281546001818101845560009384526020938490208351600390930201918255928201519192909190820190620008e0908262000998565b5060408201516002820190620008f7908262000998565b505050565b634e487b7160e01b600052604160045260246000fd5b600181811c908216806200092757607f821691505b6020821081036200094857634e487b7160e01b600052602260045260246000fd5b50919050565b601f821115620008f757600081815260208120601f850160051c81016020861015620009775750805b601f850160051c820191505b81811015620001b25782815560010162000983565b81516001600160401b03811115620009b457620009b4620008fc565b620009cc81620009c5845462000912565b846200094e565b602080601f83116001811462000a045760008415620009eb5750858301515b600019600386901b1c1916600185901b178555620001b2565b600085815260208120601f198616915b8281101562000a355788860151825594840194600190910190840162000a14565b508582101562000a545787850151600019600388901b60f8161c191681555b5050505050600190811b01905550565b615b8d8062000a746000396000f3fe608060405234801561001057600080fd5b50600436106104745760003560e01c806363b45e2d11610257578063ac9650d811610146578063e2abdd52116100c3578063e8a3d48511610087578063e8a3d48514610cad578063e985e9c514610cb5578063f1be42f114610cf1578063f23a6e6114610cfa578063fe80c55d14610d1957600080fd5b8063e2abdd5214610c4e578063e2cb9a8414610c61578063e4c301eb14610c74578063e5f69e4114610c87578063e622563014610c9a57600080fd5b8063bcb7ea081161010a578063bcb7ea0814610b51578063c87b56dd14610b64578063d2e4c18914610b77578063d5937dae14610b8a578063dabb053114610b9d57600080fd5b8063ac9650d814610a82578063b24f2d3914610aa2578063b88d4fde14610ac0578063bc197c8114610ad3578063bc51181614610b0b57600080fd5b80638da5cb5b116101d45780639bcf7a15116101985780639bcf7a1514610a165780639c7e334c14610a295780639d9ea9f314610a3c578063a22cb46514610a5c578063a4b9943214610a6f57600080fd5b80638da5cb5b146109c4578063938e3d7b146109d5578063954643ca146109e857806395d89b41146109fb57806399898a7a14610a0357600080fd5b8063739420a51161021b578063739420a514610965578063744e94aa14610978578063754a81d91461098b57806381648e701461099e578063835576ed146109b157600080fd5b806363b45e2d146109115780636a0558a6146109195780636b87a4851461092c5780636ffd17d41461093f57806370a082311461095257600080fd5b806332f0cd641161037357806345d5007e116102f05780635a5ffb2e116102b45780635a5ffb2e146108a35780635ada8456146108b65780635cec1549146108c9578063600dd5ea146108eb5780636352211e146108fe57600080fd5b806345d5007e146108285780634cc157df1461083b578063504c6e011461087057806355483d451461087d57806357fd84551461089057600080fd5b806341463be11161033757806341463be1146107b757806341f43434146107da57806342842e0e146107ef57806342966c6814610802578063430c20811461081557600080fd5b806332f0cd64146106fc5780633468f9cd1461070f5780633477979e14610722578063366e6fdb146107355780633b1475a7146107af57600080fd5b80630db6dff7116104015780632401c739116103c55780632401c7391461066e5780632419f51b146106915780632a55205a146106a45780632c120156146106d657806331d41c69146106e957600080fd5b80630db6dff7146105a457806313af4035146105b757806315d57827146105ca57806318160ddd1461064557806323b872dd1461065b57600080fd5b80630846ad48116104485780630846ad48146104f657806308ec6c3c1461054b578063095ea7b31461055e5780630d830190146105715780630db0de521461059157600080fd5b806275a3171461047957806301ffc9a71461048e57806306fdde03146104b6578063081812fc146104cb575b600080fd5b61048c610487366004614d7b565b610d2c565b005b6104a161049c366004614dde565b610db0565b60405190151581526020015b60405180910390f35b6104be610dd0565b6040516104ad9190614e4b565b6104de6104d9366004614e5e565b610e62565b6040516001600160a01b0390911681526020016104ad565b61052b610504366004614e5e565b60126020526000908152604090208054600182015460028301546003909301549192909184565b6040805194855260208501939093529183015260608201526080016104ad565b61048c610559366004614e77565b610ea6565b61048c61056c366004614e92565b610ef2565b61058461057f366004614e5e565b610f0b565b6040516104ad9190614ef7565b61048c61059f366004614e77565b611006565b61048c6105b2366004614e77565b611052565b61048c6105c5366004614e77565b61109e565b6105dd6105d8366004614e5e565b6110ce565b604080519e8f5260208f019d909d529b8d019a909a5260608c019890985260808b019690965260a08a019490945260c089019290925260e08801526101008701526101208601526101408501526101608401526101808301526101a08201526101c0016104ad565b600154600054035b6040519081526020016104ad565b61048c610669366004614f6b565b61114a565b61064d61067c366004614e5e565b60009081526013602052604090206002015490565b61064d61069f366004614e5e565b611175565b6106b76106b2366004614fa7565b6111e3565b604080516001600160a01b0390931683526020830191909152016104ad565b61048c6106e4366004614fa7565b611220565b61048c6106f7366004614fc9565b61128d565b61048c61070a366004615007565b6112c1565b61048c61071d366004614e5e565b611332565b61048c610730366004614e5e565b61137b565b6105dd610743366004614e5e565b601160205280600052604060002060009150905080600001549080600101549080600201549080600301549080600401549080600501549080600601549080600701549080600801549080600901549080600a01549080600b01549080600c01549080600d015490508e565b60005461064d565b61064d6107c5366004614e5e565b60136020526000908152604090206002015481565b6104de6daaeb6d7670e522a718067333cd4e81565b61048c6107fd366004614f6b565b6113c0565b61048c610810366004614e5e565b6113e5565b6104a1610823366004614e92565b6113f0565b61048c610836366004614fa7565b61146f565b61084e610849366004614e5e565b61156a565b604080516001600160a01b03909316835261ffff9091166020830152016104ad565b600e546104a19060ff1681565b601b546104de906001600160a01b031681565b61048c61089e366004614e77565b6115d5565b61048c6108b1366004614fa7565b611645565b61048c6108c4366004614fa7565b6116db565b6108dc6108d7366004614e5e565b6117c5565b6040516104ad93929190615024565b61048c6108f9366004614e92565b61190b565b6104de61090c366004614e5e565b611939565b600c5461064d565b61048c610927366004614fa7565b61194b565b61048c61093a366004614e77565b611a37565b601c546104de906001600160a01b031681565b61064d610960366004614e77565b611c1e565b61048c610973366004614fa7565b611c6c565b61064d610986366004614e5e565b611d43565b61048c61099936600461504f565b611dc0565b61048c6109ac366004614e77565b611e2e565b61048c6109bf366004614e5e565b611e7a565b6009546001600160a01b03166104de565b61048c6109e33660046150cc565b6120b0565b601a546104de906001600160a01b031681565b6104be6120dd565b601e546104de906001600160a01b031681565b61048c610a24366004615100565b6120ec565b61048c610a37366004615125565b61211b565b610a4f610a4a366004614e5e565b612225565b6040516104ad9190615160565b61048c610a6a3660046151a4565b612287565b61064d610a7d3660046151e8565b61229b565b610a95610a9036600461520d565b6122e7565b6040516104ad9190615281565b600a546001600160a01b03811690600160a01b900461ffff1661084e565b61048c610ace3660046152e3565b6123db565b610af2610ae13660046153bd565b63bc197c8160e01b95945050505050565b6040516001600160e01b031990911681526020016104ad565b610b1e610b19366004614e5e565b612401565b6040516104ad91908151815260208083015190820152604080830151908201526060918201519181019190915260800190565b61048c610b5f366004614fa7565b6124c6565b6104be610b72366004614e5e565b612513565b61048c610b85366004614e5e565b612601565b61048c610b98366004614e77565b612730565b610bb0610bab366004614e5e565b61277c565b6040516104ad9190815181526020808301519082015260408083015190820152606080830151908201526080808301519082015260a0808301519082015260c0808301519082015260e08083015190820152610100808301519082015261012080830151908201526101408083015190820152610160808301519082015261018080830151908201526101a091820151918101919091526101c00190565b61048c610c5c366004615466565b61289e565b601d546104de906001600160a01b031681565b61048c610c82366004614fa7565b612b15565b61048c610c95366004614fa7565b612c5a565b61064d610ca8366004614e5e565b613004565b6104be61306c565b6104a1610cc336600461549f565b6001600160a01b03918216600090815260076020908152604080832093909416825291909152205460ff1690565b61064d60145481565b610af2610d083660046154d2565b63f23a6e6160e01b95945050505050565b61048c610d273660046151e8565b6130fa565b610d34613381565b610d7f5760405162461bcd60e51b81526020600482015260176024820152762737ba1030baba3437b934bd32b2103a379036b4b73a1760491b60448201526064015b60405180910390fd5b610d91610d8b60005490565b826133ae565b610dac826001604051806020016040528060008152506133c6565b5050565b6000610dbb82613569565b80610dca5750610dca826135d5565b92915050565b606060028054610ddf90615536565b80601f0160208091040260200160405190810160405280929190818152602001828054610e0b90615536565b8015610e585780601f10610e2d57610100808354040283529160200191610e58565b820191906000526020600020905b815481529060010190602001808311610e3b57829003601f168201915b5050505050905090565b6000610e6d826135fa565b610e8a576040516333d1c03960e21b815260040160405180910390fd5b506000908152600660205260409020546001600160a01b031690565b6009546001600160a01b03163314610ed05760405162461bcd60e51b8152600401610d7690615570565b601a80546001600160a01b0319166001600160a01b0392909216919091179055565b81610efc81613625565b610f0683836136e9565b505050565b610f5a6040518061012001604052806000815260200160008152602001600081526020016000815260200160008152602001600081526020016000815260200160008152602001606081525090565b60008281526011602052604090206003810154606083015260058101546080830152600681015460a0830152610f8f83611d43565b60c0830152600d81015460e083015260008381526013602090815260409182902080548351818402810184019094528084529091830182828015610ff257602002820191906000526020600020905b815481526020019060010190808311610fde575b505050505082610100018190525050919050565b6009546001600160a01b031633146110305760405162461bcd60e51b8152600401610d7690615570565b601b80546001600160a01b0319166001600160a01b0392909216919091179055565b6009546001600160a01b0316331461107c5760405162461bcd60e51b8152600401610d7690615570565b601880546001600160a01b0319166001600160a01b0392909216919091179055565b6110a6613381565b6110c25760405162461bcd60e51b8152600401610d7690615570565b6110cb8161376a565b50565b601581815481106110de57600080fd5b90600052602060002090600e020160009150905080600001549080600101549080600201549080600301549080600401549080600501549080600601549080600701549080600801549080600901549080600a01549080600b01549080600c01549080600d015490508e565b826001600160a01b03811633146111645761116433613625565b61116f8484846137bc565b50505050565b6000611180600c5490565b82106111be5760405162461bcd60e51b815260206004820152600d60248201526c092dcecc2d8d2c840d2dcc8caf609b1b6044820152606401610d76565b600c82815481106111d1576111d1615598565b90600052602060002001549050919050565b6000806000806111f28661156a565b90945084925061ffff16905061271061120b82876155c4565b61121591906155f1565b925050509250929050565b6010546001600160a01b0316331461124a5760405162461bcd60e51b8152600401610d7690615570565b60008281526012602052604081209061126284613004565b905060006112708483615605565b9050606481111561127f575060645b825550426002909101555050565b6009546001600160a01b031633146112b75760405162461bcd60e51b8152600401610d7690615570565b610dac82826133ae565b6112c9613381565b6113295760405162461bcd60e51b815260206004820152602b60248201527f4e6f7420617574686f72697a656420746f20736574206f70657261746f72207260448201526a32b9ba3934b1ba34b7b71760a91b6064820152608401610d76565b6110cb816137c7565b6010546001600160a01b0316331461135c5760405162461bcd60e51b8152600401610d7690615570565b6000908152601260209081526040909120601190915242600390910155565b6010546001600160a01b031633146113a55760405162461bcd60e51b8152600401610d7690615570565b60009081526012602052604090206064815542600290910155565b826001600160a01b03811633146113da576113da33613625565b61116f84848461380e565b6110cb816001613829565b6000806113fc83611939565b9050806001600160a01b0316846001600160a01b0316148061144357506001600160a01b0380821660009081526007602090815260408083209388168352929052205460ff165b806114675750836001600160a01b031661145c84610e62565b6001600160a01b0316145b949350505050565b6018546001600160a01b031633146114995760405162461bcd60e51b8152600401610d7690615618565b600082815260126020908152604080832060119092529182902091516330c6919360e01b815260048101829052602481018390526044810184905290919073__$500a10fa9d461fc90c8a058ae925f037b6$__906330c691939060640160006040518083038186803b15801561150e57600080fd5b505af4158015611522573d6000803e3d6000fd5b50505050837f745e4898b29226a973c2265f8722cf0a83c357f03c529c0e14c4e91d61cffbb5826004015460405161155c91815260200190565b60405180910390a250505050565b6000818152600b60209081526040808320815180830190925280546001600160a01b0316808352600190910154928201929092528291156115b157805160208201516115cb565b600a546001600160a01b03811690600160a01b900461ffff165b9250925050915091565b6115dd613381565b61163a5760405162461bcd60e51b815260206004820152602860248201527f4e6f7420617574686f72697a656420746f2073756273637269626520746f207260448201526732b3b4b9ba393c9760c11b6064820152608401610d76565b6110cb8160016139dc565b6010546001600160a01b0316331461166f5760405162461bcd60e51b8152600401610d7690615570565b60008281526012602090815260408083206011909252909120611693818385613ab8565b837f745e4898b29226a973c2265f8722cf0a83c357f03c529c0e14c4e91d61cffbb5601160008781526020019081526020016000206004015460405161155c91815260200190565b6116e482611e7a565b601c5460405163bfa0fedb60e01b8152600481018390523360248201526001600160a01b039091169063bfa0fedb90604401600060405180830381600087803b15801561173057600080fd5b505af1158015611744573d6000803e3d6000fd5b5050601e546014546001600160a01b039091169250636a950a83915061176c90600190615659565b836001336040518563ffffffff1660e01b815260040161178f9493929190615682565b600060405180830381600087803b1580156117a957600080fd5b505af11580156117bd573d6000803e3d6000fd5b505050505050565b601681815481106117d557600080fd5b600091825260209091206003909102018054600182018054919350906117fa90615536565b80601f016020809104026020016040519081016040528092919081815260200182805461182690615536565b80156118735780601f1061184857610100808354040283529160200191611873565b820191906000526020600020905b81548152906001019060200180831161185657829003601f168201915b50505050509080600201805461188890615536565b80601f01602080910402602001604051908101604052809291908181526020018280546118b490615536565b80156119015780601f106118d657610100808354040283529160200191611901565b820191906000526020600020905b8154815290600101906020018083116118e457829003601f168201915b5050505050905083565b611913613381565b61192f5760405162461bcd60e51b8152600401610d7690615570565b610dac8282613af9565b600061194482613ba0565b5192915050565b6018546001600160a01b031633146119755760405162461bcd60e51b8152600401610d7690615618565b60008281526011602052604090819020601754915162336f0b60e01b8152600481018290526024810184905260448101929092529073__$500a10fa9d461fc90c8a058ae925f037b6$__9062336f0b9060640160006040518083038186803b1580156119e057600080fd5b505af41580156119f4573d6000803e3d6000fd5b50505050827f9a64fe26f5c4acf69f9833056562e90ac966327ef9edc96700beab568bbdac1683604051611a2a91815260200190565b60405180910390a2505050565b6009546001600160a01b03163314611a615760405162461bcd60e51b8152600401610d7690615570565b601e546001600160a01b031615611ad25760405162461bcd60e51b815260206004820152602f60248201527f45717569704d616e6167656d656e7420636f6e7472616374206164647265737360448201526e081a5cc8185b1c9958591e481cd95d608a1b6064820152608401610d76565b601e80546001600160a01b0319166001600160a01b03838116918217909255601c5460405163a22cb46560e01b81526004810192909252600160248301529091169063a22cb46590604401600060405180830381600087803b158015611b3757600080fd5b505af1158015611b4b573d6000803e3d6000fd5b5050601b5460405163a22cb46560e01b81526001600160a01b03858116600483015260016024830152909116925063a22cb4659150604401600060405180830381600087803b158015611b9d57600080fd5b505af1158015611bb1573d6000803e3d6000fd5b5050601d5460405163a22cb46560e01b81526001600160a01b03858116600483015260016024830152909116925063a22cb4659150604401600060405180830381600087803b158015611c0357600080fd5b505af1158015611c17573d6000803e3d6000fd5b5050505050565b60006001600160a01b038216611c47576040516323d3ad8160e21b815260040160405180910390fd5b506001600160a01b03166000908152600560205260409020546001600160401b031690565b6018546001600160a01b03163314611c965760405162461bcd60e51b8152600401610d7690615618565b600082815260126020526040908190209051636f39b13760e11b8152600481018290526024810183905273__$500a10fa9d461fc90c8a058ae925f037b6$__9063de73626e9060440160006040518083038186803b158015611cf757600080fd5b505af4158015611d0b573d6000803e3d6000fd5b505082546040519081528592507f54d8968607528ba0a500c8ca37b787bcc514c33b28b43efa81e195ffb88fee519150602001611a2a565b60008181526012602090815260408083206011909252822060038201548390611d6c9042615659565b90506000610708846001015483611d8391906155c4565b611d8d91906155f1565b90506000818460040154611da19190615605565b90508460010154811115611db6575060018401545b9695505050505050565b611dc8613381565b611e0e5760405162461bcd60e51b81526020600482015260176024820152762737ba1030baba3437b934bd32b2103a379036b4b73a1760491b6044820152606401610d76565b611e21611e1a60005490565b8484613cba565b505061116f8484836133c6565b6009546001600160a01b03163314611e585760405162461bcd60e51b8152600401610d7690615570565b601d80546001600160a01b0319166001600160a01b0392909216919091179055565b6016548110611ecb5760405162461bcd60e51b815260206004820152601960248201527f496e76616c6964206368617261637465722074797065204944000000000000006044820152606401610d76565b611ed6336001613d1e565b611f8b60168281548110611eec57611eec615598565b90600052602060002090600302016002018054611f0890615536565b80601f0160208091040260200160405190810160405280929190818152602001828054611f3490615536565b8015611f815780601f10611f5657610100808354040283529160200191611f81565b820191906000526020600020905b815481529060010190602001808311611f6457829003601f168201915b5050505050613d38565b611f96601454613d7b565b61204e60145460168381548110611faf57611faf615598565b90600052602060002090600302016002018054611fcb90615536565b80601f0160208091040260200160405190810160405280929190818152602001828054611ff790615536565b80156120445780601f1061201957610100808354040283529160200191612044565b820191906000526020600020905b81548152906001019060200180831161202757829003601f168201915b50505050506133ae565b60145460405182815233907fd4a95b11484f5e9358b888b250a18a34707faa5c6e49c20dc64315abd077035b9060200160405180910390a361208f81613dc0565b6120988161414b565b601480549060006120a8836156ce565b919050555050565b6120b8613381565b6120d45760405162461bcd60e51b8152600401610d7690615570565b6110cb81614218565b606060038054610ddf90615536565b6120f4613381565b6121105760405162461bcd60e51b8152600401610d7690615570565b610f068383836142f4565b6010546001600160a01b031633146121455760405162461bcd60e51b8152600401610d7690615570565b600085815260116020526040908190209051635de6438960e01b8152600481018290526024810186905260448101859052606481018490526084810183905273__$500a10fa9d461fc90c8a058ae925f037b6$__90635de643899060a40160006040518083038186803b1580156121bb57600080fd5b505af41580156121cf573d6000803e3d6000fd5b50506040805188815260208101889052908101869052606081018590528892507f91880eb2655ae83ee3b14d19938b63c2f3077ecf91ef7b3118006e333490ab1f915060800160405180910390a2505050505050565b60008181526013602090815260409182902080548351818402810184019094528084526060939283018282801561227b57602002820191906000526020600020905b815481526020019060010190808311612267575b50505050509050919050565b8161229181613625565b610f0683836143bd565b6000828152601360205260408120600101818360048111156122bf576122bf61566c565b60048111156122d0576122d061566c565b815260200190815260200160002054905092915050565b6060816001600160401b0381111561230157612301614c6d565b60405190808252806020026020018201604052801561233457816020015b606081526020019060019003908161231f5790505b50905060005b828110156123d4576123a43085858481811061235857612358615598565b905060200281019061236a91906156e7565b8080601f01602080910402602001604051908101604052809392919081815260200183838082843760009201919091525061445292505050565b8282815181106123b6576123b6615598565b602002602001018190525080806123cc906156ce565b91505061233a565b5092915050565b836001600160a01b03811633146123f5576123f533613625565b611c178585858561447e565b61242c6040518060800160405280600081526020016000815260200160008152602001600081525090565b60008281526012602052604081206002015490036124815760405162461bcd60e51b8152602060048201526012602482015271151bdad95b881251081b9bdd08199bdd5b9960721b6044820152606401610d76565b50600090815260126020908152604091829020825160808101845281548152600182015492810192909252600281015492820192909252600390910154606082015290565b601e546001600160a01b031633146124f05760405162461bcd60e51b8152600401610d7690615570565b600091825260136020908152604083208054600181018255908452922090910155565b60008181526019602052604081208054606092919061253190615536565b80601f016020809104026020016040519081016040528092919081815260200182805461255d90615536565b80156125aa5780601f1061257f576101008083540402835291602001916125aa565b820191906000526020600020905b81548152906001019060200180831161258d57829003601f168201915b505050505090506000815111156125c15792915050565b60006125cc846144c2565b9050806125d88561465e565b6040516020016125e9929190615734565b60405160208183030381529060405292505050919050565b3361260b82611939565b6001600160a01b0316146126615760405162461bcd60e51b815260206004820152601e60248201527f4e6f7420746865206f776e6572206f66207468652063686172616374657200006044820152606401610d76565b600081815260136020526040812060020154908190036126b75760405162461bcd60e51b8152602060048201526011602482015270139bc818db185cdcc8195c5d5a5c1c1959607a1b6044820152606401610d76565b604051819083907f7e61635513fe31aafbbe8d9f28e1480aaac99ddecc10839a6fad06f460a8fb1d90600090a360008281526013602052604080822060020191909155601a549051637921219560e11b81526001600160a01b039091169063f242432a9061178f90309033908690600190600401615763565b6009546001600160a01b0316331461275a5760405162461bcd60e51b8152600401610d7690615570565b601c80546001600160a01b0319166001600160a01b0392909216919091179055565b6127ee604051806101c0016040528060008152602001600081526020016000815260200160008152602001600081526020016000815260200160008152602001600081526020016000815260200160008152602001600081526020016000815260200160008152602001600081525090565b5060009081526011602090815260409182902082516101c081018452815481526001820154928101929092526002810154928201929092526003820154606082015260048201546080820152600582015460a0820152600682015460c0820152600782015460e082015260088201546101008201526009820154610120820152600a820154610140820152600b820154610160820152600c820154610180820152600d909101546101a082015290565b601e546001600160a01b031633146128c85760405162461bcd60e51b8152600401610d7690615570565b600083815260136020908152604080832060119092529091206128e9614c0b565b6127108511156129e657601d5460405163681377c960e01b8152600481018790526000916001600160a01b03169063681377c99060240161014060405180830381865afa15801561293e573d6000803e3d6000fd5b505050506040513d601f19601f8201168201806040525081019061296291906157a6565b6080810151601b54604051633129e77360e01b81526004810183905292935090916001600160a01b0390911690633129e77390602401600060405180830381865afa1580156129b5573d6000803e3d6000fd5b505050506040513d6000823e601f3d908101601f191682016040526129dd919081019061583b565b92505050612a5a565b601b54604051633129e77360e01b8152600481018790526001600160a01b0390911690633129e77390602401600060405180830381865afa158015612a2f573d6000803e3d6000fd5b505050506040513d6000823e601f3d908101601f19168201604052612a57919081019061583b565b90505b8060200151826005016000828254612a729190615605565b90915550506040810151600683018054600090612a90908490615605565b90915550506060810151600383018054600090612aae908490615605565b90915550506080810151600483018054600090612acc908490615605565b90915550859050600184016000866004811115612aeb57612aeb61566c565b6004811115612afc57612afc61566c565b8152602081019190915260400160002055505050505050565b601e546001600160a01b03163314612b3f5760405162461bcd60e51b8152600401610d7690615570565b6000828152601360205260408120805490915b8254811015612b9b5783836000018281548110612b7157612b71615598565b906000526020600020015403612b8957809150612b9b565b80612b93816156ce565b915050612b52565b5081548110612be15760405162461bcd60e51b815260206004820152601260248201527114dada5b1b081b9bdd08195c5d5a5c1c195960721b6044820152606401610d76565b81548290612bf190600190615659565b81548110612c0157612c01615598565b9060005260206000200154826000018281548110612c2157612c21615598565b6000918252602090912001558154829080612c3e57612c3e61591a565b6001900381819060005260206000200160009055905550505050565b6014548210612cab5760405162461bcd60e51b815260206004820152601a60248201527f496e76616c69642063686172616374657220746f6b656e2049440000000000006044820152606401610d76565b33612cb583611939565b6001600160a01b031614612d0b5760405162461bcd60e51b815260206004820152601e60248201527f4e6f7420746865206f776e6572206f66207468652063686172616374657200006044820152606401610d76565b601a5460405163bd85b03960e01b8152600481018390526000916001600160a01b03169063bd85b03990602401602060405180830381865afa158015612d55573d6000803e3d6000fd5b505050506040513d601f19601f82011682018060405250810190612d799190615930565b11612db95760405162461bcd60e51b815260206004820152601060248201526f125b9d985b1a590818db185cdcc8125160821b6044820152606401610d76565b601a54604051627eeac760e11b8152336004820152602481018390526000916001600160a01b03169062fdd58e90604401602060405180830381865afa158015612e07573d6000803e3d6000fd5b505050506040513d601f19601f82011682018060405250810190612e2b9190615930565b11612e785760405162461bcd60e51b815260206004820152601a60248201527f4e6f7420746865206f776e6572206f662074686520636c6173730000000000006044820152606401610d76565b600082815260136020526040902060020154819003612ed25760405162461bcd60e51b815260206004820152601660248201527510db185cdcc8185b1c9958591e48195c5d5a5c1c195960521b6044820152606401610d76565b6000828152601360205260409020600201548015612f5457601a54604051637921219560e11b81526001600160a01b039091169063f242432a90612f2190309033908690600190600401615763565b600060405180830381600087803b158015612f3b57600080fd5b505af1158015612f4f573d6000803e3d6000fd5b505050505b60008381526013602052604090819020600201839055601a549051637921219560e11b81526001600160a01b039091169063f242432a90612fa090339030908790600190600401615763565b600060405180830381600087803b158015612fba57600080fd5b505af1158015612fce573d6000803e3d6000fd5b50506040518492508591507f9ec2a1abbc94cda98705c1bcace42186fb5bb291c4f4e5a55afb5dbc174e9ce390600090a3505050565b6000818152601260205260408120600281015482906130239042615659565b90506000620151806130368360646155c4565b61304091906155f1565b905060008184600001546130549190615605565b90506064811115613063575060645b95945050505050565b6008805461307990615536565b80601f01602080910402602001604051908101604052809291908181526020018280546130a590615536565b80156130f25780601f106130c7576101008083540402835291602001916130f2565b820191906000526020600020905b8154815290600101906020018083116130d557829003601f168201915b505050505081565b601e546001600160a01b031633146131245760405162461bcd60e51b8152600401610d7690615570565b600082815260136020908152604080832060119092528220909160018301818560048111156131555761315561566c565b60048111156131665761316661566c565b815260200190815260200160002054905061317f614c0b565b61271082111561327c57601d5460405163681377c960e01b8152600481018490526000916001600160a01b03169063681377c99060240161014060405180830381865afa1580156131d4573d6000803e3d6000fd5b505050506040513d601f19601f820116820180604052508101906131f891906157a6565b6080810151601b54604051633129e77360e01b81526004810183905292935090916001600160a01b0390911690633129e77390602401600060405180830381865afa15801561324b573d6000803e3d6000fd5b505050506040513d6000823e601f3d908101601f19168201604052613273919081019061583b565b925050506132f0565b601b54604051633129e77360e01b8152600481018490526001600160a01b0390911690633129e77390602401600060405180830381865afa1580156132c5573d6000803e3d6000fd5b505050506040513d6000823e601f3d908101601f191682016040526132ed919081019061583b565b90505b80602001518360050160008282546133089190615659565b90915550506040810151600684018054600090613326908490615659565b90915550506060810151600384018054600090613344908490615659565b90915550506080810151600484018054600090613362908490615659565b90915550600090506001850181876004811115612aeb57612aeb61566c565b60006133956009546001600160a01b031690565b6001600160a01b0316336001600160a01b031614905090565b6000828152601960205260409020610f06828261598f565b6000546001600160a01b0384166133ef57604051622e076360e81b815260040160405180910390fd5b826000036134105760405163b562e8dd60e01b815260040160405180910390fd5b6001600160a01b038416600081815260056020908152604080832080546fffffffffffffffffffffffffffffffff1981166001600160401b038083168b0181169182176801000000000000000067ffffffffffffffff1990941690921783900481168b01811690920217909155858452600490925290912080546001600160e01b0319168317600160a01b42909316929092029190911790558190818501903b15613526575b60405182906001600160a01b03881690600090600080516020615b38833981519152908290a46134ef600087848060010195508761475e565b61350c576040516368d2bf6b60e11b815260040160405180910390fd5b8082106134b657826000541461352157600080fd5b613559565b5b6040516001830192906001600160a01b03881690600090600080516020615b38833981519152908290a4808210613527575b50600090815561116f9085838684565b60006301ffc9a760e01b6001600160e01b03198316148061359a57506380ac58cd60e01b6001600160e01b03198316145b806135b55750635b5e139f60e01b6001600160e01b03198316145b80610dca57506001600160e01b0319821663152a902d60e11b1492915050565b60006001600160e01b03198216630271189760e51b1480610dca5750610dca82613569565b6000805482108015610dca575050600090815260046020526040902054600160e01b900460ff161590565b600e5460ff16156110cb576daaeb6d7670e522a718067333cd4e3b156110cb57604051633185c44d60e21b81523060048201526001600160a01b03821660248201526daaeb6d7670e522a718067333cd4e9063c617113490604401602060405180830381865afa15801561369d573d6000803e3d6000fd5b505050506040513d601f19601f820116820180604052508101906136c19190615a4e565b6110cb57604051633b79c77360e21b81526001600160a01b0382166004820152602401610d76565b60006136f482611939565b9050806001600160a01b0316836001600160a01b0316036137285760405163250fdee360e21b815260040160405180910390fd5b336001600160a01b0382161461375f576137428133610cc3565b61375f576040516367d9dca160e11b815260040160405180910390fd5b610f06838383614849565b600980546001600160a01b038381166001600160a01b0319831681179093556040519116919082907f8292fce18fa69edf4db7b94ea2e58241df0ae57f97e0a6c9b29067028bf92d7690600090a35050565b610f068383836148a5565b600e805460ff19168215159081179091556040519081527f38475885990d8dfe9ca01f0ef160a1b5514426eab9ddbc953a3353410ba780969060200160405180910390a150565b610f06838383604051806020016040528060008152506123db565b600061383483613ba0565b8051909150821561389a576000336001600160a01b038316148061385d575061385d8233610cc3565b8061387857503361386d86610e62565b6001600160a01b0316145b90508061389857604051632ce44b5f60e11b815260040160405180910390fd5b505b6138a660008583614849565b6001600160a01b0380821660008181526005602090815260408083208054600160801b6000196001600160401b0380841691909101811667ffffffffffffffff198416811783900482166001908101831690930277ffffffffffffffff0000000000000000ffffffffffffffff19909416179290921783558b86526004909452828520805460ff60e01b1942909316600160a01b026001600160e01b03199091169097179690961716600160e01b1785559189018084529220805491949091166139a45760005482146139a457805460208701516001600160401b0316600160a01b026001600160e01b03199091166001600160a01b038716171781555b5050604051869250600091506001600160a01b03841690600080516020615b38833981519152908390a4505060018054810190555050565b6daaeb6d7670e522a718067333cd4e3b15610dac576001600160a01b0382163b15613a87578015613a4757604051633e9f1edf60e11b81523060048201526001600160a01b03831660248201526daaeb6d7670e522a718067333cd4e90637d3e3dbe9060440161178f565b60405163a0af290360e01b81523060048201526001600160a01b03831660248201526daaeb6d7670e522a718067333cd4e9063a0af29039060440161178f565b604051632210724360e11b81523060048201526daaeb6d7670e522a718067333cd4e90634420e4869060240161178f565b60048301546000613ac98486614a7e565b90506000613ad78483615605565b905082811115613ae45750815b60049095019490945550504260039091015550565b612710811115613b3d5760405162461bcd60e51b815260206004820152600f60248201526e45786365656473206d61782062707360881b6044820152606401610d76565b600a80546001600160a01b0384166001600160b01b03199091168117600160a01b61ffff851602179091556040518281527f90d7ec04bcb8978719414f82e52e4cb651db41d0e6f8cea6118c2191e6183adb906020015b60405180910390a25050565b604080516060810182526000808252602082018190529181019190915281600054811015613ca157600081815260046020908152604091829020825160608101845290546001600160a01b0381168252600160a01b81046001600160401b031692820192909252600160e01b90910460ff16151591810182905290613c9f5780516001600160a01b031615613c36579392505050565b5060001901600081815260046020908152604091829020825160608101845290546001600160a01b038116808352600160a01b82046001600160401b031693830193909352600160e01b900460ff1615159281019290925215613c9a579392505050565b613c36565b505b604051636f96cda160e11b815260040160405180910390fd5b600080613cc78486615605565b600c8054600181019091557fdf6966c971051c3d54ec59162606531493a51404a002842f56009d7e5cf4a8c7018190556000818152600d60205260409020909250829150613d15848261598f565b50935093915050565b610dac8282604051806020016040528060008152506133c6565b6110cb81604051602401613d4c9190614e4b565b60408051601f198184030181529190526020810180516001600160e01b031663104c13eb60e21b179052614ae3565b6110cb81604051602401613d9191815260200190565b60408051601f198184030181529190526020810180516001600160e01b031663f82c50f160e01b179052614ae3565b6000604051806101c00160405280601454815260200160158481548110613de957613de9615598565b90600052602060002090600e020160010154815260200160158481548110613e1357613e13615598565b90600052602060002090600e020160020154815260200160158481548110613e3d57613e3d615598565b90600052602060002090600e020160030154815260200160158481548110613e6757613e67615598565b90600052602060002090600e020160040154815260200160158481548110613e9157613e91615598565b90600052602060002090600e020160050154815260200160158481548110613ebb57613ebb615598565b90600052602060002090600e020160060154815260200160158481548110613ee557613ee5615598565b90600052602060002090600e020160070154815260200160158481548110613f0f57613f0f615598565b90600052602060002090600e020160080154815260200160158481548110613f3957613f39615598565b90600052602060002090600e020160090154815260200160158481548110613f6357613f63615598565b90600052602060002090600e0201600a0154815260200160158481548110613f8d57613f8d615598565b90600052602060002090600e0201600b0154815260200160158481548110613fb757613fb7615598565b90600052602060002090600e0201600c0154815260200183815250905080601160006014548152602001908152602001600020600082015181600001556020820151816001015560408201518160020155606082015181600301556080820151816004015560a0820151816005015560c0820151816006015560e082015181600701556101008201518160080155610120820151816009015561014082015181600a015561016082015181600b015561018082015181600c01556101a082015181600d01559050506014547f672e8a5a5ea4546e9da80d8c45321ef467df52d7498dae7ec971387bc464bc6682602001518360400151846060015185608001518660a001518760c001518860e001518961010001518a61012001518b61014001518c61016001518d6101800151604051613b949c9b9a999897969594939291909b8c5260208c019a909a5260408b019890985260608a0196909652608089019490945260a088019290925260c087015260e08601526101008501526101208401526101408301526101608201526101800190565b60006040518060800160405280606481526020016015848154811061417257614172615598565b60009182526020808320600e929092029091016004015483524283820181905260409384015260148054835260128252918390208451808255858301516001830181905586860151600284018190556060808901516003909501859055955487519384529483019190915294810194909452918301919091529192507f19da20281546911260f62aa6f6b5e92d810a46f937d6030f91dca6442df4dfb490608001613b94565b60006008805461422790615536565b80601f016020809104026020016040519081016040528092919081815260200182805461425390615536565b80156142a05780601f10614275576101008083540402835291602001916142a0565b820191906000526020600020905b81548152906001019060200180831161428357829003601f168201915b5050505050905081600890816142b6919061598f565b507fc9c7c3fe08b88b4df9d4d47ef47d2c43d55c025a0ba88ca442580ed9e7348a1681836040516142e8929190615a6b565b60405180910390a15050565b6127108111156143385760405162461bcd60e51b815260206004820152600f60248201526e45786365656473206d61782062707360881b6044820152606401610d76565b6040805180820182526001600160a01b0384811680835260208084018681526000898152600b8352869020945185546001600160a01b031916941693909317845591516001909301929092559151838152909185917f7365cf4122f072a3365c20d54eff9b38d73c096c28e1892ec8f5b0e403a0f12d910160405180910390a3505050565b336001600160a01b038316036143e65760405163b06307db60e01b815260040160405180910390fd5b3360008181526007602090815260408083206001600160a01b03871680855290835292819020805460ff191686151590811790915590519081529192917f17307eab39ab6107e8899845ad3d59bd9653f200f220920489ca2b5937696c31910160405180910390a35050565b60606144778383604051806060016040528060278152602001615b1160279139614b04565b9392505050565b6144898484846148a5565b6001600160a01b0383163b1561116f576144a58484848461475e565b61116f576040516368d2bf6b60e11b815260040160405180910390fd5b606060006144cf600c5490565b90506000600c80548060200260200160405190810160405280929190818152602001828054801561451f57602002820191906000526020600020905b81548152602001906001019080831161450b575b5050505050905060005b828110156146235781818151811061454357614543615598565b602002602001015185101561461157600d600083838151811061456857614568615598565b60200260200101518152602001908152602001600020805461458990615536565b80601f01602080910402602001604051908101604052809291908181526020018280546145b590615536565b80156146025780601f106145d757610100808354040283529160200191614602565b820191906000526020600020905b8154815290600101906020018083116145e557829003601f168201915b50505050509350505050919050565b61461c600182615605565b9050614529565b5060405162461bcd60e51b815260206004820152600f60248201526e125b9d985b1a59081d1bdad95b9259608a1b6044820152606401610d76565b6060816000036146855750506040805180820190915260018152600360fc1b602082015290565b8160005b81156146af5780614699816156ce565b91506146a89050600a836155f1565b9150614689565b6000816001600160401b038111156146c9576146c9614c6d565b6040519080825280601f01601f1916602001820160405280156146f3576020820181803683370190505b5090505b841561146757614708600183615659565b9150614715600a86615a90565b614720906030615605565b60f81b81838151811061473557614735615598565b60200101906001600160f81b031916908160001a905350614757600a866155f1565b94506146f7565b604051630a85bd0160e11b81526000906001600160a01b0385169063150b7a0290614793903390899088908890600401615aa4565b6020604051808303816000875af19250505080156147ce575060408051601f3d908101601f191682019092526147cb91810190615ad7565b60015b61482c573d8080156147fc576040519150601f19603f3d011682016040523d82523d6000602084013e614801565b606091505b508051600003614824576040516368d2bf6b60e11b815260040160405180910390fd5b805181602001fd5b6001600160e01b031916630a85bd0160e11b149050949350505050565b60008281526006602052604080822080546001600160a01b0319166001600160a01b0387811691821790925591518593918516917f8c5be1e5ebec7d5bd14f71427d1e84f3dd0314c0f7b2291e5b200ac8c7c3b92591a4505050565b60006148b082613ba0565b9050836001600160a01b031681600001516001600160a01b0316146148e75760405162a1148160e81b815260040160405180910390fd5b6000336001600160a01b038616148061490557506149058533610cc3565b8061492057503361491584610e62565b6001600160a01b0316145b90508061494057604051632ce44b5f60e11b815260040160405180910390fd5b6001600160a01b03841661496757604051633a954ecd60e21b815260040160405180910390fd5b61497360008487614849565b6001600160a01b038581166000908152600560209081526040808320805467ffffffffffffffff198082166001600160401b0392831660001901831617909255898616808652838620805493841693831660019081018416949094179055898652600490945282852080546001600160e01b031916909417600160a01b42909216919091021783558701808452922080549193909116614a47576000548214614a4757805460208601516001600160401b0316600160a01b026001600160e01b03199091166001600160a01b038a16171781555b50505082846001600160a01b0316866001600160a01b0316600080516020615b3883398151915260405160405180910390a4611c17565b600080836003015442614a919190615659565b90506000610708856001015483614aa891906155c4565b614ab291906155f1565b90506000818560040154614ac69190615605565b905085600101548111156130635750600185015495945050505050565b80516a636f6e736f6c652e6c6f67602083016000808483855afa5050505050565b60606001600160a01b0384163b614b6c5760405162461bcd60e51b815260206004820152602660248201527f416464726573733a2064656c65676174652063616c6c20746f206e6f6e2d636f6044820152651b9d1c9858dd60d21b6064820152608401610d76565b600080856001600160a01b031685604051614b879190615af4565b600060405180830381855af49150503d8060008114614bc2576040519150601f19603f3d011682016040523d82523d6000602084013e614bc7565b606091505b5091509150611db682828660608315614be1575081614477565b825115614bf15782518084602001fd5b8160405162461bcd60e51b8152600401610d769190614e4b565b6040518060c00160405280606081526020016000815260200160008152602001600081526020016000815260200160006004811115614c4c57614c4c61566c565b905290565b80356001600160a01b0381168114614c6857600080fd5b919050565b634e487b7160e01b600052604160045260246000fd5b60405161014081016001600160401b0381118282101715614ca657614ca6614c6d565b60405290565b60405160c081016001600160401b0381118282101715614ca657614ca6614c6d565b604051601f8201601f191681016001600160401b0381118282101715614cf657614cf6614c6d565b604052919050565b60006001600160401b03821115614d1757614d17614c6d565b50601f01601f191660200190565b600082601f830112614d3657600080fd5b8135614d49614d4482614cfe565b614cce565b818152846020838601011115614d5e57600080fd5b816020850160208301376000918101602001919091529392505050565b60008060408385031215614d8e57600080fd5b614d9783614c51565b915060208301356001600160401b03811115614db257600080fd5b614dbe85828601614d25565b9150509250929050565b6001600160e01b0319811681146110cb57600080fd5b600060208284031215614df057600080fd5b813561447781614dc8565b60005b83811015614e16578181015183820152602001614dfe565b50506000910152565b60008151808452614e37816020860160208601614dfb565b601f01601f19169290920160200192915050565b6020815260006144776020830184614e1f565b600060208284031215614e7057600080fd5b5035919050565b600060208284031215614e8957600080fd5b61447782614c51565b60008060408385031215614ea557600080fd5b614eae83614c51565b946020939093013593505050565b600081518084526020808501945080840160005b83811015614eec57815187529582019590820190600101614ed0565b509495945050505050565b6020815281516020820152602082015160408201526040820151606082015260608201516080820152608082015160a082015260a082015160c082015260c082015160e0820152600060e0830151610100818185015280850151915050610120808185015250611467610140840182614ebc565b600080600060608486031215614f8057600080fd5b614f8984614c51565b9250614f9760208501614c51565b9150604084013590509250925092565b60008060408385031215614fba57600080fd5b50508035926020909101359150565b60008060408385031215614fdc57600080fd5b8235915060208301356001600160401b03811115614db257600080fd5b80151581146110cb57600080fd5b60006020828403121561501957600080fd5b813561447781614ff9565b83815260606020820152600061503d6060830185614e1f565b8281036040840152611db68185614e1f565b6000806000806080858703121561506557600080fd5b61506e85614c51565b93506020850135925060408501356001600160401b038082111561509157600080fd5b61509d88838901614d25565b935060608701359150808211156150b357600080fd5b506150c087828801614d25565b91505092959194509250565b6000602082840312156150de57600080fd5b81356001600160401b038111156150f457600080fd5b61146784828501614d25565b60008060006060848603121561511557600080fd5b83359250614f9760208501614c51565b600080600080600060a0868803121561513d57600080fd5b505083359560208501359550604085013594606081013594506080013592509050565b6020808252825182820181905260009190848201906040850190845b818110156151985783518352928401929184019160010161517c565b50909695505050505050565b600080604083850312156151b757600080fd5b6151c083614c51565b915060208301356151d081614ff9565b809150509250929050565b600581106110cb57600080fd5b600080604083850312156151fb57600080fd5b8235915060208301356151d0816151db565b6000806020838503121561522057600080fd5b82356001600160401b038082111561523757600080fd5b818501915085601f83011261524b57600080fd5b81358181111561525a57600080fd5b8660208260051b850101111561526f57600080fd5b60209290920196919550909350505050565b6000602080830181845280855180835260408601915060408160051b870101925083870160005b828110156152d657603f198886030184526152c4858351614e1f565b945092850192908501906001016152a8565b5092979650505050505050565b600080600080608085870312156152f957600080fd5b61530285614c51565b935061531060208601614c51565b92506040850135915060608501356001600160401b0381111561533257600080fd5b6150c087828801614d25565b600082601f83011261534f57600080fd5b813560206001600160401b0382111561536a5761536a614c6d565b8160051b615379828201614cce565b928352848101820192828101908785111561539357600080fd5b83870192505b848310156153b257823582529183019190830190615399565b979650505050505050565b600080600080600060a086880312156153d557600080fd5b6153de86614c51565b94506153ec60208701614c51565b935060408601356001600160401b038082111561540857600080fd5b61541489838a0161533e565b9450606088013591508082111561542a57600080fd5b61543689838a0161533e565b9350608088013591508082111561544c57600080fd5b5061545988828901614d25565b9150509295509295909350565b60008060006060848603121561547b57600080fd5b83359250602084013591506040840135615494816151db565b809150509250925092565b600080604083850312156154b257600080fd5b6154bb83614c51565b91506154c960208401614c51565b90509250929050565b600080600080600060a086880312156154ea57600080fd5b6154f386614c51565b945061550160208701614c51565b9350604086013592506060860135915060808601356001600160401b0381111561552a57600080fd5b61545988828901614d25565b600181811c9082168061554a57607f821691505b60208210810361556a57634e487b7160e01b600052602260045260246000fd5b50919050565b6020808252600e908201526d139bdd08185d5d1a1bdc9a5e995960921b604082015260600190565b634e487b7160e01b600052603260045260246000fd5b634e487b7160e01b600052601160045260246000fd5b8082028115828204841417610dca57610dca6155ae565b634e487b7160e01b600052601260045260246000fd5b600082615600576156006155db565b500490565b80820180821115610dca57610dca6155ae565b60208082526021908201527f43616c6c6572206973206e6f742074686520426174746c6520636f6e747261636040820152601d60fa1b606082015260800190565b81810381811115610dca57610dca6155ae565b634e487b7160e01b600052602160045260246000fd5b8481526020810184905260808101600584106156ae57634e487b7160e01b600052602160045260246000fd5b60408201939093526001600160a01b039190911660609091015292915050565b6000600182016156e0576156e06155ae565b5060010190565b6000808335601e198436030181126156fe57600080fd5b8301803591506001600160401b0382111561571857600080fd5b60200191503681900382131561572d57600080fd5b9250929050565b60008351615746818460208801614dfb565b83519083019061575a818360208801614dfb565b01949350505050565b6001600160a01b0394851681529290931660208301526040820152606081019190915260a06080820181905260009082015260c00190565b8051614c68816151db565b600061014082840312156157b957600080fd5b6157c1614c83565b82518152602083015160208201526157db6040840161579b565b60408201526157ec6060840161579b565b60608201526080830151608082015260a083015160a082015260c083015160c082015260e083015160e08201526101008084015181830152506101208084015181830152508091505092915050565b6000602080838503121561584e57600080fd5b82516001600160401b038082111561586557600080fd5b9084019060c0828703121561587957600080fd5b615881614cac565b82518281111561589057600080fd5b83019150601f820187136158a357600080fd5b81516158b1614d4482614cfe565b81815288868386010111156158c557600080fd5b6158d482878301888701614dfb565b8083525050838301518482015260408301516040820152606083015160608201526080830151608082015261590b60a0840161579b565b60a08201529695505050505050565b634e487b7160e01b600052603160045260246000fd5b60006020828403121561594257600080fd5b5051919050565b601f821115610f0657600081815260208120601f850160051c810160208610156159705750805b601f850160051c820191505b818110156117bd5782815560010161597c565b81516001600160401b038111156159a8576159a8614c6d565b6159bc816159b68454615536565b84615949565b602080601f8311600181146159f157600084156159d95750858301515b600019600386901b1c1916600185901b1785556117bd565b600085815260208120601f198616915b82811015615a2057888601518255948401946001909101908401615a01565b5085821015615a3e5787850151600019600388901b60f8161c191681555b5050505050600190811b01905550565b600060208284031215615a6057600080fd5b815161447781614ff9565b604081526000615a7e6040830185614e1f565b82810360208401526130638185614e1f565b600082615a9f57615a9f6155db565b500690565b6001600160a01b0385811682528416602082015260408101839052608060608201819052600090611db690830184614e1f565b600060208284031215615ae957600080fd5b815161447781614dc8565b60008251615b06818460208701614dfb565b919091019291505056fe416464726573733a206c6f772d6c6576656c2064656c65676174652063616c6c206661696c6564ddf252ad1be2c89b69c2b068fc378daa952ba7f163c4a11628f55a4df523b3efa26469706673582212206d15dc43b6f07a8d5b599d252647d58baf3d2dfbe717847ecf3c73189606b28664736f6c63430008110033697066733a2f2f516d5a7a426d6a726a6e3734324478387750486865713858627a6b6f775753367871764c4855525453764c51436f697066733a2f2f516d5579576d7072793853726939426d734853514d444250746e505a6b6f583647533777385a697a706e46583776697066733a2f2f516d545945695869547a4268597577755137626a533561714368726566454a5a33376173384244724b59786b316a",
  "linkReferences": {
    "contracts/CMLib.sol": {
      "CMLib": [
        {
          "length": 20,
          "start": 8013
        },
        {
          "length": 20,
          "start": 9248
        },
        {
          "length": 20,
          "start": 10038
        },
        {
          "length": 20,
          "start": 11258
        }
      ]
    }
  },
  "deployedLinkReferences": {
    "contracts/CMLib.sol": {
      "CMLib": [
        {
          "length": 20,
          "start": 5337
        },
        {
          "length": 20,
          "start": 6572
        },
        {
          "length": 20,
          "start": 7362
        },
        {
          "length": 20,
          "start": 8582
        }
      ]
    }
  }
}