{
  "_format": "hh-sol-artifact-1",
  "contractName": "Character",
  "sourceName": "contracts/Character.sol",
  "abi": [
    {
      "inputs": [],
      "stateMutability": "nonpayable",
      "type": "constructor"
    },
    {
      "inputs": [],
      "name": "ApprovalCallerNotOwnerNorApproved",
      "type": "error"
    },
    {
      "inputs": [],
      "name": "ApprovalQueryForNonexistentToken",
      "type": "error"
    },
    {
      "inputs": [],
      "name": "ApprovalToCurrentOwner",
      "type": "error"
    },
    {
      "inputs": [],
      "name": "ApproveToCaller",
      "type": "error"
    },
    {
      "inputs": [],
      "name": "BalanceQueryForZeroAddress",
      "type": "error"
    },
    {
      "inputs": [],
      "name": "MintToZeroAddress",
      "type": "error"
    },
    {
      "inputs": [],
      "name": "MintZeroQuantity",
      "type": "error"
    },
    {
      "inputs": [
        {
          "internalType": "address",
          "name": "operator",
          "type": "address"
        }
      ],
      "name": "OperatorNotAllowed",
      "type": "error"
    },
    {
      "inputs": [],
      "name": "OwnerQueryForNonexistentToken",
      "type": "error"
    },
    {
      "inputs": [],
      "name": "TransferCallerNotOwnerNorApproved",
      "type": "error"
    },
    {
      "inputs": [],
      "name": "TransferFromIncorrectOwner",
      "type": "error"
    },
    {
      "inputs": [],
      "name": "TransferToNonERC721ReceiverImplementer",
      "type": "error"
    },
    {
      "inputs": [],
      "name": "TransferToZeroAddress",
      "type": "error"
    },
    {
      "inputs": [],
      "name": "URIQueryForNonexistentToken",
      "type": "error"
    },
    {
      "anonymous": false,
      "inputs": [
        {
          "indexed": true,
          "internalType": "address",
          "name": "owner",
          "type": "address"
        },
        {
          "indexed": true,
          "internalType": "address",
          "name": "approved",
          "type": "address"
        },
        {
          "indexed": true,
          "internalType": "uint256",
          "name": "tokenId",
          "type": "uint256"
        }
      ],
      "name": "Approval",
      "type": "event"
    },
    {
      "anonymous": false,
      "inputs": [
        {
          "indexed": true,
          "internalType": "address",
          "name": "owner",
          "type": "address"
        },
        {
          "indexed": true,
          "internalType": "address",
          "name": "operator",
          "type": "address"
        },
        {
          "indexed": false,
          "internalType": "bool",
          "name": "approved",
          "type": "bool"
        }
      ],
      "name": "ApprovalForAll",
      "type": "event"
    },
    {
      "anonymous": false,
      "inputs": [
        {
          "indexed": false,
          "internalType": "string",
          "name": "prevURI",
          "type": "string"
        },
        {
          "indexed": false,
          "internalType": "string",
          "name": "newURI",
          "type": "string"
        }
      ],
      "name": "ContractURIUpdated",
      "type": "event"
    },
    {
      "anonymous": false,
      "inputs": [
        {
          "indexed": true,
          "internalType": "address",
          "name": "newRoyaltyRecipient",
          "type": "address"
        },
        {
          "indexed": false,
          "internalType": "uint256",
          "name": "newRoyaltyBps",
          "type": "uint256"
        }
      ],
      "name": "DefaultRoyalty",
      "type": "event"
    },
    {
      "anonymous": false,
      "inputs": [
        {
          "indexed": true,
          "internalType": "uint256",
          "name": "tokenId",
          "type": "uint256"
        },
        {
          "indexed": true,
          "internalType": "uint256",
          "name": "typeId",
          "type": "uint256"
        }
      ],
      "name": "NewCharacter",
      "type": "event"
    },
    {
      "anonymous": false,
      "inputs": [
        {
          "indexed": false,
          "internalType": "bool",
          "name": "restriction",
          "type": "bool"
        }
      ],
      "name": "OperatorRestriction",
      "type": "event"
    },
    {
      "anonymous": false,
      "inputs": [
        {
          "indexed": true,
          "internalType": "address",
          "name": "prevOwner",
          "type": "address"
        },
        {
          "indexed": true,
          "internalType": "address",
          "name": "newOwner",
          "type": "address"
        }
      ],
      "name": "OwnerUpdated",
      "type": "event"
    },
    {
      "anonymous": false,
      "inputs": [
        {
          "indexed": true,
          "internalType": "uint256",
          "name": "tokenId",
          "type": "uint256"
        },
        {
          "indexed": true,
          "internalType": "address",
          "name": "royaltyRecipient",
          "type": "address"
        },
        {
          "indexed": false,
          "internalType": "uint256",
          "name": "royaltyBps",
          "type": "uint256"
        }
      ],
      "name": "RoyaltyForToken",
      "type": "event"
    },
    {
      "anonymous": false,
      "inputs": [
        {
          "indexed": true,
          "internalType": "address",
          "name": "from",
          "type": "address"
        },
        {
          "indexed": true,
          "internalType": "address",
          "name": "to",
          "type": "address"
        },
        {
          "indexed": true,
          "internalType": "uint256",
          "name": "tokenId",
          "type": "uint256"
        }
      ],
      "name": "Transfer",
      "type": "event"
    },
    {
      "inputs": [],
      "name": "OPERATOR_FILTER_REGISTRY",
      "outputs": [
        {
          "internalType": "contract IOperatorFilterRegistry",
          "name": "",
          "type": "address"
        }
      ],
      "stateMutability": "view",
      "type": "function"
    },
    {
      "inputs": [
        {
          "internalType": "uint256",
          "name": "tokenId",
          "type": "uint256"
        },
        {
          "internalType": "uint256",
          "name": "amount",
          "type": "uint256"
        }
      ],
      "name": "addMana",
      "outputs": [],
      "stateMutability": "nonpayable",
      "type": "function"
    },
    {
      "inputs": [
        {
          "internalType": "uint256",
          "name": "tokenId",
          "type": "uint256"
        },
        {
          "internalType": "uint256",
          "name": "amount",
          "type": "uint256"
        }
      ],
      "name": "addStamina",
      "outputs": [],
      "stateMutability": "nonpayable",
      "type": "function"
    },
    {
      "inputs": [
        {
          "internalType": "uint256",
          "name": "characterTokenId",
          "type": "uint256"
        },
        {
          "internalType": "uint256",
          "name": "strength",
          "type": "uint256"
        },
        {
          "internalType": "uint256",
          "name": "dexterity",
          "type": "uint256"
        },
        {
          "internalType": "uint256",
          "name": "intelligence",
          "type": "uint256"
        },
        {
          "internalType": "uint256",
          "name": "vitality",
          "type": "uint256"
        }
      ],
      "name": "addStats",
      "outputs": [],
      "stateMutability": "nonpayable",
      "type": "function"
    },
    {
      "inputs": [
        {
          "internalType": "address",
          "name": "operator",
          "type": "address"
        },
        {
          "internalType": "uint256",
          "name": "tokenId",
          "type": "uint256"
        }
      ],
      "name": "approve",
      "outputs": [],
      "stateMutability": "nonpayable",
      "type": "function"
    },
    {
      "inputs": [
        {
          "internalType": "address",
          "name": "owner",
          "type": "address"
        }
      ],
      "name": "balanceOf",
      "outputs": [
        {
          "internalType": "uint256",
          "name": "",
          "type": "uint256"
        }
      ],
      "stateMutability": "view",
      "type": "function"
    },
    {
      "inputs": [
        {
          "internalType": "address",
          "name": "_to",
          "type": "address"
        },
        {
          "internalType": "uint256",
          "name": "_quantity",
          "type": "uint256"
        },
        {
          "internalType": "string",
          "name": "_baseURI",
          "type": "string"
        },
        {
          "internalType": "bytes",
          "name": "_data",
          "type": "bytes"
        }
      ],
      "name": "batchMintTo",
      "outputs": [],
      "stateMutability": "nonpayable",
      "type": "function"
    },
    {
      "inputs": [],
      "name": "battleContractAddress",
      "outputs": [
        {
          "internalType": "address",
          "name": "",
          "type": "address"
        }
      ],
      "stateMutability": "view",
      "type": "function"
    },
    {
      "inputs": [],
      "name": "battleItems",
      "outputs": [
        {
          "internalType": "contract BattleItems",
          "name": "",
          "type": "address"
        }
      ],
      "stateMutability": "view",
      "type": "function"
    },
    {
      "inputs": [],
      "name": "battleSkills",
      "outputs": [
        {
          "internalType": "contract BattleSkills",
          "name": "",
          "type": "address"
        }
      ],
      "stateMutability": "view",
      "type": "function"
    },
    {
      "inputs": [
        {
          "internalType": "uint256",
          "name": "_tokenId",
          "type": "uint256"
        }
      ],
      "name": "burn",
      "outputs": [],
      "stateMutability": "nonpayable",
      "type": "function"
    },
    {
      "inputs": [
        {
          "internalType": "uint256",
          "name": "level",
          "type": "uint256"
        }
      ],
      "name": "calculateExperienceRequired",
      "outputs": [
        {
          "internalType": "uint256",
          "name": "",
          "type": "uint256"
        }
      ],
      "stateMutability": "view",
      "type": "function"
    },
    {
      "inputs": [
        {
          "internalType": "uint256",
          "name": "",
          "type": "uint256"
        }
      ],
      "name": "charStats",
      "outputs": [
        {
          "internalType": "uint256",
          "name": "tokenId",
          "type": "uint256"
        },
        {
          "internalType": "uint256",
          "name": "level",
          "type": "uint256"
        },
        {
          "internalType": "uint256",
          "name": "experience",
          "type": "uint256"
        },
        {
          "internalType": "uint256",
          "name": "health",
          "type": "uint256"
        },
        {
          "internalType": "uint256",
          "name": "mana",
          "type": "uint256"
        },
        {
          "internalType": "uint256",
          "name": "attack",
          "type": "uint256"
        },
        {
          "internalType": "uint256",
          "name": "defense",
          "type": "uint256"
        },
        {
          "internalType": "uint256",
          "name": "strength",
          "type": "uint256"
        },
        {
          "internalType": "uint256",
          "name": "dexterity",
          "type": "uint256"
        },
        {
          "internalType": "uint256",
          "name": "intelligence",
          "type": "uint256"
        },
        {
          "internalType": "uint256",
          "name": "vitality",
          "type": "uint256"
        },
        {
          "internalType": "uint256",
          "name": "accuracy",
          "type": "uint256"
        },
        {
          "internalType": "uint256",
          "name": "statPoints",
          "type": "uint256"
        },
        {
          "internalType": "uint256",
          "name": "typeId",
          "type": "uint256"
        }
      ],
      "stateMutability": "view",
      "type": "function"
    },
    {
      "inputs": [
        {
          "internalType": "uint256",
          "name": "",
          "type": "uint256"
        }
      ],
      "name": "charTypes",
      "outputs": [
        {
          "internalType": "uint256",
          "name": "typeId",
          "type": "uint256"
        },
        {
          "internalType": "string",
          "name": "characterType",
          "type": "string"
        },
        {
          "internalType": "string",
          "name": "uri",
          "type": "string"
        }
      ],
      "stateMutability": "view",
      "type": "function"
    },
    {
      "inputs": [],
      "name": "characterClasses",
      "outputs": [
        {
          "internalType": "contract CharacterClass",
          "name": "",
          "type": "address"
        }
      ],
      "stateMutability": "view",
      "type": "function"
    },
    {
      "inputs": [
        {
          "internalType": "uint256",
          "name": "",
          "type": "uint256"
        }
      ],
      "name": "characterEquips",
      "outputs": [
        {
          "internalType": "uint256",
          "name": "equippedClass",
          "type": "uint256"
        }
      ],
      "stateMutability": "view",
      "type": "function"
    },
    {
      "inputs": [
        {
          "internalType": "uint256",
          "name": "",
          "type": "uint256"
        }
      ],
      "name": "characterStats",
      "outputs": [
        {
          "internalType": "uint256",
          "name": "tokenId",
          "type": "uint256"
        },
        {
          "internalType": "uint256",
          "name": "level",
          "type": "uint256"
        },
        {
          "internalType": "uint256",
          "name": "experience",
          "type": "uint256"
        },
        {
          "internalType": "uint256",
          "name": "health",
          "type": "uint256"
        },
        {
          "internalType": "uint256",
          "name": "mana",
          "type": "uint256"
        },
        {
          "internalType": "uint256",
          "name": "attack",
          "type": "uint256"
        },
        {
          "internalType": "uint256",
          "name": "defense",
          "type": "uint256"
        },
        {
          "internalType": "uint256",
          "name": "strength",
          "type": "uint256"
        },
        {
          "internalType": "uint256",
          "name": "dexterity",
          "type": "uint256"
        },
        {
          "internalType": "uint256",
          "name": "intelligence",
          "type": "uint256"
        },
        {
          "internalType": "uint256",
          "name": "vitality",
          "type": "uint256"
        },
        {
          "internalType": "uint256",
          "name": "accuracy",
          "type": "uint256"
        },
        {
          "internalType": "uint256",
          "name": "statPoints",
          "type": "uint256"
        },
        {
          "internalType": "uint256",
          "name": "typeId",
          "type": "uint256"
        }
      ],
      "stateMutability": "view",
      "type": "function"
    },
    {
      "inputs": [
        {
          "internalType": "uint256",
          "name": "tokenId",
          "type": "uint256"
        },
        {
          "internalType": "uint256",
          "name": "amount",
          "type": "uint256"
        }
      ],
      "name": "consumeMana",
      "outputs": [],
      "stateMutability": "nonpayable",
      "type": "function"
    },
    {
      "inputs": [
        {
          "internalType": "uint256",
          "name": "tokenId",
          "type": "uint256"
        },
        {
          "internalType": "uint256",
          "name": "amount",
          "type": "uint256"
        }
      ],
      "name": "consumeStamina",
      "outputs": [],
      "stateMutability": "nonpayable",
      "type": "function"
    },
    {
      "inputs": [],
      "name": "contractURI",
      "outputs": [
        {
          "internalType": "string",
          "name": "",
          "type": "string"
        }
      ],
      "stateMutability": "view",
      "type": "function"
    },
    {
      "inputs": [
        {
          "internalType": "uint256",
          "name": "characterTokenId",
          "type": "uint256"
        },
        {
          "internalType": "uint256",
          "name": "classId",
          "type": "uint256"
        }
      ],
      "name": "equipClass",
      "outputs": [],
      "stateMutability": "nonpayable",
      "type": "function"
    },
    {
      "inputs": [
        {
          "internalType": "uint256",
          "name": "characterTokenId",
          "type": "uint256"
        },
        {
          "internalType": "uint256",
          "name": "tokenId",
          "type": "uint256"
        }
      ],
      "name": "equipItem",
      "outputs": [],
      "stateMutability": "nonpayable",
      "type": "function"
    },
    {
      "inputs": [
        {
          "internalType": "uint256",
          "name": "characterTokenId",
          "type": "uint256"
        },
        {
          "internalType": "uint256",
          "name": "skillId",
          "type": "uint256"
        }
      ],
      "name": "equipSkill",
      "outputs": [],
      "stateMutability": "nonpayable",
      "type": "function"
    },
    {
      "inputs": [
        {
          "internalType": "uint256",
          "name": "characterTokenId",
          "type": "uint256"
        },
        {
          "internalType": "uint256",
          "name": "xp",
          "type": "uint256"
        }
      ],
      "name": "gainXP",
      "outputs": [],
      "stateMutability": "nonpayable",
      "type": "function"
    },
    {
      "inputs": [
        {
          "internalType": "uint256",
          "name": "tokenId",
          "type": "uint256"
        }
      ],
      "name": "getApproved",
      "outputs": [
        {
          "internalType": "address",
          "name": "",
          "type": "address"
        }
      ],
      "stateMutability": "view",
      "type": "function"
    },
    {
      "inputs": [],
      "name": "getBaseURICount",
      "outputs": [
        {
          "internalType": "uint256",
          "name": "",
          "type": "uint256"
        }
      ],
      "stateMutability": "view",
      "type": "function"
    },
    {
      "inputs": [
        {
          "internalType": "uint256",
          "name": "_index",
          "type": "uint256"
        }
      ],
      "name": "getBatchIdAtIndex",
      "outputs": [
        {
          "internalType": "uint256",
          "name": "",
          "type": "uint256"
        }
      ],
      "stateMutability": "view",
      "type": "function"
    },
    {
      "inputs": [
        {
          "internalType": "uint256",
          "name": "_tokenId",
          "type": "uint256"
        }
      ],
      "name": "getCharacter",
      "outputs": [
        {
          "components": [
            {
              "internalType": "uint256",
              "name": "tokenId",
              "type": "uint256"
            },
            {
              "internalType": "uint256",
              "name": "level",
              "type": "uint256"
            },
            {
              "internalType": "uint256",
              "name": "experience",
              "type": "uint256"
            },
            {
              "internalType": "uint256",
              "name": "health",
              "type": "uint256"
            },
            {
              "internalType": "uint256",
              "name": "mana",
              "type": "uint256"
            },
            {
              "internalType": "uint256",
              "name": "attack",
              "type": "uint256"
            },
            {
              "internalType": "uint256",
              "name": "defense",
              "type": "uint256"
            },
            {
              "internalType": "uint256",
              "name": "strength",
              "type": "uint256"
            },
            {
              "internalType": "uint256",
              "name": "dexterity",
              "type": "uint256"
            },
            {
              "internalType": "uint256",
              "name": "intelligence",
              "type": "uint256"
            },
            {
              "internalType": "uint256",
              "name": "vitality",
              "type": "uint256"
            },
            {
              "internalType": "uint256",
              "name": "accuracy",
              "type": "uint256"
            },
            {
              "internalType": "uint256",
              "name": "statPoints",
              "type": "uint256"
            },
            {
              "internalType": "uint256",
              "name": "typeId",
              "type": "uint256"
            }
          ],
          "internalType": "struct Character.CharacterStats",
          "name": "",
          "type": "tuple"
        }
      ],
      "stateMutability": "view",
      "type": "function"
    },
    {
      "inputs": [
        {
          "internalType": "uint256",
          "name": "tokenId",
          "type": "uint256"
        }
      ],
      "name": "getCharacterAttack",
      "outputs": [
        {
          "internalType": "uint256",
          "name": "",
          "type": "uint256"
        }
      ],
      "stateMutability": "view",
      "type": "function"
    },
    {
      "inputs": [
        {
          "internalType": "uint256",
          "name": "tokenId",
          "type": "uint256"
        }
      ],
      "name": "getCharacterDefense",
      "outputs": [
        {
          "internalType": "uint256",
          "name": "",
          "type": "uint256"
        }
      ],
      "stateMutability": "view",
      "type": "function"
    },
    {
      "inputs": [
        {
          "internalType": "uint256",
          "name": "tokenId",
          "type": "uint256"
        }
      ],
      "name": "getCharacterHealth",
      "outputs": [
        {
          "internalType": "uint256",
          "name": "",
          "type": "uint256"
        }
      ],
      "stateMutability": "view",
      "type": "function"
    },
    {
      "inputs": [
        {
          "internalType": "uint256",
          "name": "tokenId",
          "type": "uint256"
        }
      ],
      "name": "getCharacterLevel",
      "outputs": [
        {
          "internalType": "uint256",
          "name": "",
          "type": "uint256"
        }
      ],
      "stateMutability": "view",
      "type": "function"
    },
    {
      "inputs": [
        {
          "internalType": "uint256",
          "name": "tokenId",
          "type": "uint256"
        }
      ],
      "name": "getCharacterType",
      "outputs": [
        {
          "internalType": "uint256",
          "name": "",
          "type": "uint256"
        }
      ],
      "stateMutability": "view",
      "type": "function"
    },
    {
      "inputs": [],
      "name": "getDefaultRoyaltyInfo",
      "outputs": [
        {
          "internalType": "address",
          "name": "",
          "type": "address"
        },
        {
          "internalType": "uint16",
          "name": "",
          "type": "uint16"
        }
      ],
      "stateMutability": "view",
      "type": "function"
    },
    {
      "inputs": [
        {
          "internalType": "uint256",
          "name": "characterTokenId",
          "type": "uint256"
        }
      ],
      "name": "getEquippedClass",
      "outputs": [
        {
          "internalType": "uint256",
          "name": "",
          "type": "uint256"
        }
      ],
      "stateMutability": "view",
      "type": "function"
    },
    {
      "inputs": [
        {
          "internalType": "uint256",
          "name": "characterTokenId",
          "type": "uint256"
        },
        {
          "internalType": "enum BattleItems.ItemType",
          "name": "itemType",
          "type": "uint8"
        }
      ],
      "name": "getEquippedItem",
      "outputs": [
        {
          "internalType": "uint256",
          "name": "",
          "type": "uint256"
        }
      ],
      "stateMutability": "view",
      "type": "function"
    },
    {
      "inputs": [
        {
          "internalType": "uint256",
          "name": "characterTokenId",
          "type": "uint256"
        }
      ],
      "name": "getEquippedSkills",
      "outputs": [
        {
          "internalType": "uint256[]",
          "name": "",
          "type": "uint256[]"
        }
      ],
      "stateMutability": "view",
      "type": "function"
    },
    {
      "inputs": [
        {
          "internalType": "uint256",
          "name": "tokenId",
          "type": "uint256"
        }
      ],
      "name": "getMana",
      "outputs": [
        {
          "internalType": "uint256",
          "name": "",
          "type": "uint256"
        }
      ],
      "stateMutability": "view",
      "type": "function"
    },
    {
      "inputs": [
        {
          "internalType": "uint256",
          "name": "tokenId",
          "type": "uint256"
        }
      ],
      "name": "getRecoveryStats",
      "outputs": [
        {
          "components": [
            {
              "internalType": "uint256",
              "name": "stamina",
              "type": "uint256"
            },
            {
              "internalType": "uint256",
              "name": "maxMana",
              "type": "uint256"
            },
            {
              "internalType": "uint256",
              "name": "lastStaminaUpdateTime",
              "type": "uint256"
            },
            {
              "internalType": "uint256",
              "name": "lastManaUpdateTime",
              "type": "uint256"
            }
          ],
          "internalType": "struct Character.RecoveryStats",
          "name": "",
          "type": "tuple"
        }
      ],
      "stateMutability": "view",
      "type": "function"
    },
    {
      "inputs": [
        {
          "internalType": "uint256",
          "name": "_tokenId",
          "type": "uint256"
        }
      ],
      "name": "getRoyaltyInfoForToken",
      "outputs": [
        {
          "internalType": "address",
          "name": "",
          "type": "address"
        },
        {
          "internalType": "uint16",
          "name": "",
          "type": "uint16"
        }
      ],
      "stateMutability": "view",
      "type": "function"
    },
    {
      "inputs": [
        {
          "internalType": "uint256",
          "name": "tokenId",
          "type": "uint256"
        }
      ],
      "name": "getStamina",
      "outputs": [
        {
          "internalType": "uint256",
          "name": "",
          "type": "uint256"
        }
      ],
      "stateMutability": "view",
      "type": "function"
    },
    {
      "inputs": [
        {
          "internalType": "address",
          "name": "owner",
          "type": "address"
        },
        {
          "internalType": "address",
          "name": "operator",
          "type": "address"
        }
      ],
      "name": "isApprovedForAll",
      "outputs": [
        {
          "internalType": "bool",
          "name": "",
          "type": "bool"
        }
      ],
      "stateMutability": "view",
      "type": "function"
    },
    {
      "inputs": [
        {
          "internalType": "address",
          "name": "_operator",
          "type": "address"
        },
        {
          "internalType": "uint256",
          "name": "_tokenId",
          "type": "uint256"
        }
      ],
      "name": "isApprovedOrOwner",
      "outputs": [
        {
          "internalType": "bool",
          "name": "isApprovedOrOwnerOf",
          "type": "bool"
        }
      ],
      "stateMutability": "view",
      "type": "function"
    },
    {
      "inputs": [
        {
          "internalType": "uint256",
          "name": "_typeId",
          "type": "uint256"
        },
        {
          "internalType": "uint256",
          "name": "_skillTokenId",
          "type": "uint256"
        }
      ],
      "name": "mintNewCharacterWithItemAndEquip",
      "outputs": [],
      "stateMutability": "nonpayable",
      "type": "function"
    },
    {
      "inputs": [
        {
          "internalType": "address",
          "name": "_to",
          "type": "address"
        },
        {
          "internalType": "string",
          "name": "_tokenURI",
          "type": "string"
        }
      ],
      "name": "mintTo",
      "outputs": [],
      "stateMutability": "nonpayable",
      "type": "function"
    },
    {
      "inputs": [
        {
          "internalType": "bytes[]",
          "name": "data",
          "type": "bytes[]"
        }
      ],
      "name": "multicall",
      "outputs": [
        {
          "internalType": "bytes[]",
          "name": "results",
          "type": "bytes[]"
        }
      ],
      "stateMutability": "nonpayable",
      "type": "function"
    },
    {
      "inputs": [],
      "name": "name",
      "outputs": [
        {
          "internalType": "string",
          "name": "",
          "type": "string"
        }
      ],
      "stateMutability": "view",
      "type": "function"
    },
    {
      "inputs": [
        {
          "internalType": "uint256",
          "name": "_typeId",
          "type": "uint256"
        }
      ],
      "name": "newCharacter",
      "outputs": [],
      "stateMutability": "nonpayable",
      "type": "function"
    },
    {
      "inputs": [],
      "name": "nextTokenIdToMint",
      "outputs": [
        {
          "internalType": "uint256",
          "name": "",
          "type": "uint256"
        }
      ],
      "stateMutability": "view",
      "type": "function"
    },
    {
      "inputs": [],
      "name": "numCharacters",
      "outputs": [
        {
          "internalType": "uint256",
          "name": "",
          "type": "uint256"
        }
      ],
      "stateMutability": "view",
      "type": "function"
    },
    {
      "inputs": [
        {
          "internalType": "address",
          "name": "",
          "type": "address"
        },
        {
          "internalType": "address",
          "name": "",
          "type": "address"
        },
        {
          "internalType": "uint256[]",
          "name": "",
          "type": "uint256[]"
        },
        {
          "internalType": "uint256[]",
          "name": "",
          "type": "uint256[]"
        },
        {
          "internalType": "bytes",
          "name": "",
          "type": "bytes"
        }
      ],
      "name": "onERC1155BatchReceived",
      "outputs": [
        {
          "internalType": "bytes4",
          "name": "",
          "type": "bytes4"
        }
      ],
      "stateMutability": "nonpayable",
      "type": "function"
    },
    {
      "inputs": [
        {
          "internalType": "address",
          "name": "",
          "type": "address"
        },
        {
          "internalType": "address",
          "name": "",
          "type": "address"
        },
        {
          "internalType": "uint256",
          "name": "",
          "type": "uint256"
        },
        {
          "internalType": "uint256",
          "name": "",
          "type": "uint256"
        },
        {
          "internalType": "bytes",
          "name": "",
          "type": "bytes"
        }
      ],
      "name": "onERC1155Received",
      "outputs": [
        {
          "internalType": "bytes4",
          "name": "",
          "type": "bytes4"
        }
      ],
      "stateMutability": "nonpayable",
      "type": "function"
    },
    {
      "inputs": [],
      "name": "operatorRestriction",
      "outputs": [
        {
          "internalType": "bool",
          "name": "",
          "type": "bool"
        }
      ],
      "stateMutability": "view",
      "type": "function"
    },
    {
      "inputs": [],
      "name": "owner",
      "outputs": [
        {
          "internalType": "address",
          "name": "",
          "type": "address"
        }
      ],
      "stateMutability": "view",
      "type": "function"
    },
    {
      "inputs": [
        {
          "internalType": "uint256",
          "name": "tokenId",
          "type": "uint256"
        }
      ],
      "name": "ownerOf",
      "outputs": [
        {
          "internalType": "address",
          "name": "",
          "type": "address"
        }
      ],
      "stateMutability": "view",
      "type": "function"
    },
    {
      "inputs": [
        {
          "internalType": "uint256",
          "name": "tokenId",
          "type": "uint256"
        }
      ],
      "name": "restoreManaToFull",
      "outputs": [],
      "stateMutability": "nonpayable",
      "type": "function"
    },
    {
      "inputs": [
        {
          "internalType": "uint256",
          "name": "tokenId",
          "type": "uint256"
        }
      ],
      "name": "restoreStaminaToFull",
      "outputs": [],
      "stateMutability": "nonpayable",
      "type": "function"
    },
    {
      "inputs": [
        {
          "internalType": "uint256",
          "name": "tokenId",
          "type": "uint256"
        },
        {
          "internalType": "uint256",
          "name": "salePrice",
          "type": "uint256"
        }
      ],
      "name": "royaltyInfo",
      "outputs": [
        {
          "internalType": "address",
          "name": "receiver",
          "type": "address"
        },
        {
          "internalType": "uint256",
          "name": "royaltyAmount",
          "type": "uint256"
        }
      ],
      "stateMutability": "view",
      "type": "function"
    },
    {
      "inputs": [
        {
          "internalType": "address",
          "name": "from",
          "type": "address"
        },
        {
          "internalType": "address",
          "name": "to",
          "type": "address"
        },
        {
          "internalType": "uint256",
          "name": "tokenId",
          "type": "uint256"
        }
      ],
      "name": "safeTransferFrom",
      "outputs": [],
      "stateMutability": "nonpayable",
      "type": "function"
    },
    {
      "inputs": [
        {
          "internalType": "address",
          "name": "from",
          "type": "address"
        },
        {
          "internalType": "address",
          "name": "to",
          "type": "address"
        },
        {
          "internalType": "uint256",
          "name": "tokenId",
          "type": "uint256"
        },
        {
          "internalType": "bytes",
          "name": "data",
          "type": "bytes"
        }
      ],
      "name": "safeTransferFrom",
      "outputs": [],
      "stateMutability": "nonpayable",
      "type": "function"
    },
    {
      "inputs": [
        {
          "internalType": "address",
          "name": "operator",
          "type": "address"
        },
        {
          "internalType": "bool",
          "name": "approved",
          "type": "bool"
        }
      ],
      "name": "setApprovalForAll",
      "outputs": [],
      "stateMutability": "nonpayable",
      "type": "function"
    },
    {
      "inputs": [
        {
          "internalType": "address",
          "name": "_address",
          "type": "address"
        }
      ],
      "name": "setBattleContract",
      "outputs": [],
      "stateMutability": "nonpayable",
      "type": "function"
    },
    {
      "inputs": [
        {
          "internalType": "address",
          "name": "_address",
          "type": "address"
        }
      ],
      "name": "setBattleItems",
      "outputs": [],
      "stateMutability": "nonpayable",
      "type": "function"
    },
    {
      "inputs": [
        {
          "internalType": "address",
          "name": "_address",
          "type": "address"
        }
      ],
      "name": "setBattleSkills",
      "outputs": [],
      "stateMutability": "nonpayable",
      "type": "function"
    },
    {
      "inputs": [
        {
          "internalType": "address",
          "name": "_address",
          "type": "address"
        }
      ],
      "name": "setClassContract",
      "outputs": [],
      "stateMutability": "nonpayable",
      "type": "function"
    },
    {
      "inputs": [
        {
          "internalType": "string",
          "name": "_uri",
          "type": "string"
        }
      ],
      "name": "setContractURI",
      "outputs": [],
      "stateMutability": "nonpayable",
      "type": "function"
    },
    {
      "inputs": [
        {
          "internalType": "address",
          "name": "_royaltyRecipient",
          "type": "address"
        },
        {
          "internalType": "uint256",
          "name": "_royaltyBps",
          "type": "uint256"
        }
      ],
      "name": "setDefaultRoyaltyInfo",
      "outputs": [],
      "stateMutability": "nonpayable",
      "type": "function"
    },
    {
      "inputs": [
        {
          "internalType": "bool",
          "name": "_restriction",
          "type": "bool"
        }
      ],
      "name": "setOperatorRestriction",
      "outputs": [],
      "stateMutability": "nonpayable",
      "type": "function"
    },
    {
      "inputs": [
        {
          "internalType": "address",
          "name": "_newOwner",
          "type": "address"
        }
      ],
      "name": "setOwner",
      "outputs": [],
      "stateMutability": "nonpayable",
      "type": "function"
    },
    {
      "inputs": [
        {
          "internalType": "uint256",
          "name": "_tokenId",
          "type": "uint256"
        },
        {
          "internalType": "address",
          "name": "_recipient",
          "type": "address"
        },
        {
          "internalType": "uint256",
          "name": "_bps",
          "type": "uint256"
        }
      ],
      "name": "setRoyaltyInfoForToken",
      "outputs": [],
      "stateMutability": "nonpayable",
      "type": "function"
    },
    {
      "inputs": [
        {
          "internalType": "bytes4",
          "name": "interfaceId",
          "type": "bytes4"
        }
      ],
      "name": "supportsInterface",
      "outputs": [
        {
          "internalType": "bool",
          "name": "",
          "type": "bool"
        }
      ],
      "stateMutability": "view",
      "type": "function"
    },
    {
      "inputs": [],
      "name": "symbol",
      "outputs": [
        {
          "internalType": "string",
          "name": "",
          "type": "string"
        }
      ],
      "stateMutability": "view",
      "type": "function"
    },
    {
      "inputs": [
        {
          "internalType": "uint256",
          "name": "_tokenId",
          "type": "uint256"
        }
      ],
      "name": "tokenURI",
      "outputs": [
        {
          "internalType": "string",
          "name": "",
          "type": "string"
        }
      ],
      "stateMutability": "view",
      "type": "function"
    },
    {
      "inputs": [],
      "name": "totalSupply",
      "outputs": [
        {
          "internalType": "uint256",
          "name": "",
          "type": "uint256"
        }
      ],
      "stateMutability": "view",
      "type": "function"
    },
    {
      "inputs": [
        {
          "internalType": "address",
          "name": "from",
          "type": "address"
        },
        {
          "internalType": "address",
          "name": "to",
          "type": "address"
        },
        {
          "internalType": "uint256",
          "name": "tokenId",
          "type": "uint256"
        }
      ],
      "name": "transferFrom",
      "outputs": [],
      "stateMutability": "nonpayable",
      "type": "function"
    },
    {
      "inputs": [
        {
          "internalType": "uint256",
          "name": "characterTokenId",
          "type": "uint256"
        }
      ],
      "name": "unequipClass",
      "outputs": [],
      "stateMutability": "nonpayable",
      "type": "function"
    },
    {
      "inputs": [
        {
          "internalType": "uint256",
          "name": "characterTokenId",
          "type": "uint256"
        },
        {
          "internalType": "uint256",
          "name": "itemTokenId",
          "type": "uint256"
        }
      ],
      "name": "unequipItem",
      "outputs": [],
      "stateMutability": "nonpayable",
      "type": "function"
    },
    {
      "inputs": [
        {
          "internalType": "uint256",
          "name": "characterTokenId",
          "type": "uint256"
        },
        {
          "internalType": "uint256",
          "name": "skillId",
          "type": "uint256"
        }
      ],
      "name": "unequipSkill",
      "outputs": [],
      "stateMutability": "nonpayable",
      "type": "function"
    },
    {
      "inputs": [
        {
          "internalType": "uint256",
          "name": "_tokenId",
          "type": "uint256"
        },
        {
          "internalType": "string",
          "name": "_tokenURI",
          "type": "string"
        }
      ],
      "name": "updateURI",
      "outputs": [],
      "stateMutability": "nonpayable",
      "type": "function"
    }
  ],
  "bytecode": "0x6080604052606460105560006019553480156200001b57600080fd5b506040518060400160405280600981526020016821b430b930b1ba32b960b91b8152506040518060400160405280600481526020016310d3919560e21b815250336000733cc6cdda760b79bafa08df41ecfa224f810dceb660018585816002908162000088919062000990565b50600362000097828262000990565b506000805550506daaeb6d7670e522a718067333cd4e3b15620001e35780156200013157604051633e9f1edf60e11b81523060048201526001600160a01b03831660248201526daaeb6d7670e522a718067333cd4e90637d3e3dbe906044015b600060405180830381600087803b1580156200011257600080fd5b505af115801562000127573d6000803e3d6000fd5b50505050620001e3565b6001600160a01b03821615620001825760405163a0af290360e01b81523060048201526001600160a01b03831660248201526daaeb6d7670e522a718067333cd4e9063a0af290390604401620000f7565b604051632210724360e11b81523060048201526daaeb6d7670e522a718067333cd4e90634420e48690602401600060405180830381600087803b158015620001c957600080fd5b505af1158015620001de573d6000803e3d6000fd5b505050505b50620001f190503362000236565b62000206826001600160801b03831662000288565b62000212600162000333565b50505050620002266200037a60201b60201c565b62000230620006fd565b62000a5c565b600980546001600160a01b038381166001600160a01b0319831681179093556040519116919082907f8292fce18fa69edf4db7b94ea2e58241df0ae57f97e0a6c9b29067028bf92d7690600090a35050565b612710811115620002d15760405162461bcd60e51b815260206004820152600f60248201526e45786365656473206d61782062707360881b604482015260640160405180910390fd5b600a80546001600160a01b0384166001600160b01b03199091168117600160a01b61ffff851602179091556040518281527f90d7ec04bcb8978719414f82e52e4cb651db41d0e6f8cea6118c2191e6183adb9060200160405180910390a25050565b600e805460ff19168215159081179091556040519081527f38475885990d8dfe9ca01f0ef160a1b5514426eab9ddbc953a3353410ba780969060200160405180910390a150565b601a604051806101c001604052806000815260200160018152602001600081526020016064815260200160648152602001600a815260200160648152602001606481526020016064815260200160648152602001606481526020016064815260200160058152602001600081525090806001815401808255809150506001900390600052602060002090600e0201600090919091909150600082015181600001556020820151816001015560408201518160020155606082015181600301556080820151816004015560a0820151816005015560c0820151816006015560e082015181600701556101008201518160080155610120820151816009015561014082015181600a015561016082015181600b015561018082015181600c01556101a082015181600d01555050601a604051806101c001604052806000815260200160018152602001600081526020016064815260200160648152602001600a815260200160648152602001606481526020016064815260200160648152602001606481526020016064815260200160058152602001600181525090806001815401808255809150506001900390600052602060002090600e0201600090919091909150600082015181600001556020820151816001015560408201518160020155606082015181600301556080820151816004015560a0820151816005015560c0820151816006015560e082015181600701556101008201518160080155610120820151816009015561014082015181600a015561016082015181600b015561018082015181600c01556101a082015181600d01555050601a604051806101c0016040528060008152602001600181526020016000815260200160648152602001606481526020016064815260200160648152602001606481526020016064815260200160648152602001606481526020016064815260200160058152602001600281525090806001815401808255809150506001900390600052602060002090600e0201600090919091909150600082015181600001556020820151816001015560408201518160020155606082015181600301556080820151816004015560a0820151816005015560c0820151816006015560e082015181600701556101008201518160080155610120820151816009015561014082015181600a015561016082015181600b015561018082015181600c01556101a082015181600d01555050565b601b604051806060016040528060008152602001604051806040016040528060078152602001662bb0b93934b7b960c91b8152508152602001604051806060016040528060358152602001620064f96035913990528154600181810184556000938452602093849020835160039093020191825592820151919290919082019062000789908262000990565b5060408201516002820190620007a0908262000990565b505050601b604051806060016040528060018152602001604051806040016040528060048152602001634d61676560e01b815250815260200160405180606001604052806035815260200162006563603591399052815460018181018455600093845260209384902083516003909302019182559282015191929091908201906200082c908262000990565b506040820151600282019062000843908262000990565b505050601b60405180606001604052806002815260200160405180604001604052806005815260200164526f67756560d81b81525081526020016040518060600160405280603581526020016200652e60359139905281546001818101845560009384526020938490208351600390930201918255928201519192909190820190620008d0908262000990565b5060408201516002820190620008e7908262000990565b505050565b634e487b7160e01b600052604160045260246000fd5b600181811c908216806200091757607f821691505b6020821081036200093857634e487b7160e01b600052602260045260246000fd5b50919050565b601f821115620008e757600081815260208120601f850160051c81016020861015620009675750805b601f850160051c820191505b81811015620009885782815560010162000973565b505050505050565b81516001600160401b03811115620009ac57620009ac620008ec565b620009c481620009bd845462000902565b846200093e565b602080601f831160018114620009fc5760008415620009e35750858301515b600019600386901b1c1916600185901b17855562000988565b600085815260208120601f198616915b8281101562000a2d5788860151825594840194600190910190840162000a0c565b508582101562000a4c5787850151600019600388901b60f8161c191681555b5050505050600190811b01905550565b615a8d8062000a6c6000396000f3fe608060405234801561001057600080fd5b50600436106104745760003560e01c8063600dd5ea11610257578063a22cb46511610146578063d5937dae116100c3578063e622563011610087578063e622563014610cde578063e8a3d48514610cf1578063e985e9c514610cf9578063f1be42f114610d35578063f23a6e6114610d3e57600080fd5b8063d5937dae14610be1578063dabb053114610bf4578063e2cdf0ad14610ca5578063e4c301eb14610cb8578063e5f69e4114610ccb57600080fd5b8063bc197c811161010a578063bc197c8114610b2a578063bc51181614610b62578063bcb7ea0814610ba8578063c87b56dd14610bbb578063d2e4c18914610bce57600080fd5b8063a22cb46514610aa3578063a6d13ee214610ab6578063ac9650d814610ad9578063b24f2d3914610af9578063b88d4fde14610b1757600080fd5b8063744e94aa116101d4578063938e3d7b11610198578063938e3d7b14610a4f578063954643ca14610a6257806395d89b4114610a755780639bcf7a1514610a7d5780639c7e334c14610a9057600080fd5b8063744e94aa146109e5578063754a81d9146109f8578063806227f514610a0b578063835576ed14610a2b5780638da5cb5b14610a3e57600080fd5b80636a0558a61161021b5780636a0558a6146109865780636ffd17d41461099957806370a08231146109ac578063739420a5146109bf5780637443b32c146109d257600080fd5b8063600dd5ea146109225780636352211e1461093557806363b45e2d14610948578063677725841461095057806367e543671461097357600080fd5b806331d41c691161037357806342966c68116102f0578063504c6e01116102b4578063504c6e01146108ba57806355483d45146108c75780635a5ffb2e146108da5780635ada8456146108ed5780635cec15491461090057600080fd5b806342966c6814610829578063430c20811461083c57806345d5007e1461084f578063479d35e6146108625780634cc157df1461088557600080fd5b80633a345446116103375780633a345446146107c35780633b1475a7146107d657806341463be1146107de57806341f434341461080157806342842e0e1461081657600080fd5b806331d41c69146106cd57806332f0cd64146106e05780633468f9cd146106f35780633477979e14610720578063366e6fdb1461074957600080fd5b806315d57827116104015780632419f51b116103c55780632419f51b1461063f578063262a8c3b146106525780632a55205a146106655780632c120156146106975780632c8854fe146106aa57600080fd5b806315d578271461055557806318160ddd146105d05780631bd2a477146105e657806323b872dd146106095780632401c7391461061c57600080fd5b806308ec6c3c1161044857806308ec6c3c146104f6578063095ea7b3146105095780630db0de521461051c5780630db6dff71461052f57806313af40351461054257600080fd5b806275a3171461047957806301ffc9a71461048e57806306fdde03146104b6578063081812fc146104cb575b600080fd5b61048c610487366004614d69565b610d5d565b005b6104a161049c366004614dcc565b610de1565b60405190151581526020015b60405180910390f35b6104be610e01565b6040516104ad9190614e41565b6104de6104d9366004614e54565b610e93565b6040516001600160a01b0390911681526020016104ad565b61048c610504366004614e6d565b610ed7565b61048c610517366004614e88565b610f23565b61048c61052a366004614e6d565b610f3c565b61048c61053d366004614e6d565b610f88565b61048c610550366004614e6d565b610fd4565b610568610563366004614e54565b611004565b604080519e8f5260208f019d909d529b8d019a909a5260608c019890985260808b019690965260a08a019490945260c089019290925260e08801526101008701526101208601526101408501526101608401526101808301526101a08201526101c0016104ad565b600154600054035b6040519081526020016104ad565b6105d86105f4366004614e54565b6000908152601160205260409020600d015490565b61048c610617366004614eb2565b611080565b6105d861062a366004614e54565b60009081526012602052604090206002015490565b6105d861064d366004614e54565b6110ab565b61048c610660366004614eee565b611119565b610678610673366004614eee565b611617565b604080516001600160a01b0390931683526020830191909152016104ad565b61048c6106a5366004614eee565b611654565b6105d86106b8366004614e54565b60009081526011602052604090206003015490565b61048c6106db366004614f10565b6116c1565b61048c6106ee366004614f4e565b6116f5565b61048c610701366004614e54565b6000908152601360209081526040909120601190915242600390910155565b61048c61072e366004614e54565b60009081526013602052604090206064815542600290910155565b610568610757366004614e54565b601160205280600052604060002060009150905080600001549080600101549080600201549080600301549080600401549080600501549080600601549080600701549080600801549080600901549080600a01549080600b01549080600c01549080600d015490508e565b61048c6107d1366004614eee565b611766565b6000546105d8565b6105d86107ec366004614e54565b60126020526000908152604090206002015481565b6104de6daaeb6d7670e522a718067333cd4e81565b61048c610824366004614eb2565b611a0c565b61048c610837366004614e54565b611a31565b6104a161084a366004614e88565b611a3c565b61048c61085d366004614eee565b611abb565b6105d8610870366004614e54565b60009081526011602052604090206006015490565b610898610893366004614e54565b611b9c565b604080516001600160a01b03909316835261ffff9091166020830152016104ad565b600e546104a19060ff1681565b6016546104de906001600160a01b031681565b61048c6108e8366004614eee565b611c07565b61048c6108fb366004614eee565b611c95565b61091361090e366004614e54565b611d1a565b6040516104ad93929190614f6b565b61048c610930366004614e88565b611e60565b6104de610943366004614e54565b611e8e565b600c546105d8565b6105d861095e366004614e54565b60009081526011602052604090206005015490565b6018546104de906001600160a01b031681565b61048c610994366004614eee565b611ea0565b6015546104de906001600160a01b031681565b6105d86109ba366004614e6d565b611f1a565b61048c6109cd366004614eee565b611f68565b6105d86109e0366004614e54565b612036565b6105d86109f3366004614e54565b612046565b61048c610a06366004614f96565b6120c5565b610a1e610a19366004614e54565b612133565b6040516104ad9190615013565b61048c610a39366004614e54565b612195565b6009546001600160a01b03166104de565b61048c610a5d366004615057565b61277f565b6017546104de906001600160a01b031681565b6104be6127ac565b61048c610a8b36600461508b565b6127bb565b61048c610a9e3660046150b0565b6127ea565b61048c610ab13660046150eb565b612a32565b6105d8610ac4366004614e54565b60009081526011602052604090206001015490565b610aec610ae7366004615122565b612a46565b6040516104ad9190615196565b600a546001600160a01b03811690600160a01b900461ffff16610898565b61048c610b253660046151f8565b612b3a565b610b49610b383660046152d2565b63bc197c8160e01b95945050505050565b6040516001600160e01b031990911681526020016104ad565b610b75610b70366004614e54565b612b67565b6040516104ad91908151815260208083015190820152604080830151908201526060918201519181019190915260800190565b61048c610bb6366004614eee565b612c2c565b6104be610bc9366004614e54565b612eff565b61048c610bdc366004614e54565b612fed565b61048c610bef366004614e6d565b6130f5565b610c07610c02366004614e54565b613141565b6040516104ad9190815181526020808301519082015260408083015190820152606080830151908201526080808301519082015260a0808301519082015260c0808301519082015260e08083015190820152610100808301519082015261012080830151908201526101408083015190820152610160808301519082015261018080830151908201526101a091820151918101919091526101c00190565b6105d8610cb3366004615388565b613263565b61048c610cc6366004614eee565b6132af565b61048c610cd9366004614eee565b61345b565b6105d8610cec366004614e54565b613778565b6104be6137df565b6104a1610d073660046153ad565b6001600160a01b03918216600090815260076020908152604080832093909416825291909152205460ff1690565b6105d860195481565b610b49610d4c3660046153e0565b63f23a6e6160e01b95945050505050565b610d6561386d565b610db05760405162461bcd60e51b81526020600482015260176024820152762737ba1030baba3437b934bd32b2103a379036b4b73a1760491b60448201526064015b60405180910390fd5b610dc2610dbc60005490565b8261389a565b610ddd826001604051806020016040528060008152506138b2565b5050565b6000610dec82613a55565b80610dfb5750610dfb82613ac1565b92915050565b606060028054610e1090615444565b80601f0160208091040260200160405190810160405280929190818152602001828054610e3c90615444565b8015610e895780601f10610e5e57610100808354040283529160200191610e89565b820191906000526020600020905b815481529060010190602001808311610e6c57829003601f168201915b5050505050905090565b6000610e9e82613ae6565b610ebb576040516333d1c03960e21b815260040160405180910390fd5b506000908152600660205260409020546001600160a01b031690565b6009546001600160a01b03163314610f015760405162461bcd60e51b8152600401610da79061547e565b601780546001600160a01b0319166001600160a01b0392909216919091179055565b81610f2d81613b11565b610f378383613bd5565b505050565b6009546001600160a01b03163314610f665760405162461bcd60e51b8152600401610da79061547e565b601680546001600160a01b0319166001600160a01b0392909216919091179055565b6009546001600160a01b03163314610fb25760405162461bcd60e51b8152600401610da79061547e565b601880546001600160a01b0319166001600160a01b0392909216919091179055565b610fdc61386d565b610ff85760405162461bcd60e51b8152600401610da79061547e565b61100181613c56565b50565b601a818154811061101457600080fd5b90600052602060002090600e020160009150905080600001549080600101549080600201549080600301549080600401549080600501549080600601549080600701549080600801549080600901549080600a01549080600b01549080600c01549080600d015490508e565b826001600160a01b038116331461109a5761109a33613b11565b6110a5848484613ca8565b50505050565b60006110b6600c5490565b82106110f45760405162461bcd60e51b815260206004820152600d60248201526c092dcecc2d8d2c840d2dcc8caf609b1b6044820152606401610da7565b600c8281548110611107576111076154a6565b90600052602060002001549050919050565b601954821061113a5760405162461bcd60e51b8152600401610da7906154bc565b3361114483611e8e565b6001600160a01b03161461116a5760405162461bcd60e51b8152600401610da7906154f3565b60165460405163bd85b03960e01b8152600481018390526000916001600160a01b03169063bd85b03990602401602060405180830381865afa1580156111b4573d6000803e3d6000fd5b505050506040513d601f19601f820116820180604052508101906111d8919061552a565b1161121d5760405162461bcd60e51b8152602060048201526015602482015274125b9d985b1a59081a5d195b481d1bdad95b881251605a1b6044820152606401610da7565b601654604051627eeac760e11b8152336004820152602481018390526000916001600160a01b03169062fdd58e90604401602060405180830381865afa15801561126b573d6000803e3d6000fd5b505050506040513d601f19601f8201168201806040525081019061128f919061552a565b116112dc5760405162461bcd60e51b815260206004820152601960248201527f4e6f7420746865206f776e6572206f6620746865206974656d000000000000006044820152606401610da7565b60165460405163c19a4ef560e01b8152600481018390526000916001600160a01b03169063c19a4ef590602401602060405180830381865afa158015611326573d6000803e3d6000fd5b505050506040513d601f19601f8201168201806040525081019061134a919061554e565b60008481526012602052604081209192508391600101908360048111156113735761137361556b565b60048111156113845761138461556b565b815260200190815260200160002054036113d85760405162461bcd60e51b8152602060048201526015602482015274125d195b48185b1c9958591e48195c5d5a5c1c1959605a1b6044820152606401610da7565b6000838152601260205260408120600101818360048111156113fc576113fc61556b565b600481111561140d5761140d61556b565b815260200190815260200160002054905080620f423f14611432576114328482611766565b6000848152601260205260408120849160019091019084600481111561145a5761145a61556b565b600481111561146b5761146b61556b565b815260208101919091526040908101600020919091556016549051637921219560e11b81526001600160a01b039091169063f242432a906114b790339030908890600190600401615581565b600060405180830381600087803b1580156114d157600080fd5b505af11580156114e5573d6000803e3d6000fd5b5050601654604051633129e77360e01b815260048101879052600093506001600160a01b039091169150633129e77390602401600060405180830381865afa158015611535573d6000803e3d6000fd5b505050506040513d6000823e601f3d908101601f1916820160405261155d91908101906155fe565b9050806020015160116000878152602001908152602001600020600501600082825461158991906156c3565b9091555050604080820151600087815260116020529182206006018054919290916115b59084906156c3565b90915550506060810151600086815260116020526040812060030180549091906115e09084906156c3565b909155505060a08101516000868152601160205260408120600401805490919061160b9084906156c3565b90915550505050505050565b60008060008061162686611b9c565b90945084925061ffff16905061271061163f82876156db565b6116499190615710565b925050509250929050565b6009546001600160a01b0316331461167e5760405162461bcd60e51b8152600401610da79061547e565b60008281526013602052604081209061169684613778565b905060006116a484836156c3565b905060648111156116b3575060645b825550426002909101555050565b6009546001600160a01b031633146116eb5760405162461bcd60e51b8152600401610da79061547e565b610ddd828261389a565b6116fd61386d565b61175d5760405162461bcd60e51b815260206004820152602b60248201527f4e6f7420617574686f72697a656420746f20736574206f70657261746f72207260448201526a32b9ba3934b1ba34b7b71760a91b6064820152608401610da7565b61100181613cb3565b3361177083611e8e565b6001600160a01b0316146117965760405162461bcd60e51b8152600401610da7906154f3565b601654604051633129e77360e01b8152600481018390526000916001600160a01b031690633129e77390602401600060405180830381865afa1580156117e0573d6000803e3d6000fd5b505050506040513d6000823e601f3d908101601f1916820160405261180891908101906155fe565b60c081015160008581526012602052604081209293509091849160019091019083600481111561183a5761183a61556b565b600481111561184b5761184b61556b565b8152602001908152602001600020541461189b5760405162461bcd60e51b8152602060048201526011602482015270125d195b481b9bdd08195c5d5a5c1c1959607a1b6044820152606401610da7565b81602001516011600086815260200190815260200160002060050160008282546118c59190615724565b9091555050604080830151600086815260116020529182206006018054919290916118f1908490615724565b909155505060608201516000858152601160205260408120600301805490919061191c908490615724565b909155505060a082015160008581526011602052604081206004018054909190611947908490615724565b90915550506000848152601260205260408120620f423f916001909101908360048111156119775761197761556b565b60048111156119885761198861556b565b815260208101919091526040908101600020919091556016549051637921219560e11b81526001600160a01b039091169063f242432a906119d490309033908890600190600401615581565b600060405180830381600087803b1580156119ee57600080fd5b505af1158015611a02573d6000803e3d6000fd5b5050505050505050565b826001600160a01b0381163314611a2657611a2633613b11565b6110a5848484613cfa565b611001816001613d15565b600080611a4883611e8e565b9050806001600160a01b0316846001600160a01b03161480611a8f57506001600160a01b0380821660009081526007602090815260408083209388168352929052205460ff165b80611ab35750836001600160a01b0316611aa884610e93565b6001600160a01b0316145b949350505050565b6018546001600160a01b03163314611ae55760405162461bcd60e51b8152600401610da79061573b565b6000611af083612046565b905081811015611b345760405162461bcd60e51b815260206004820152600f60248201526e4e6f7420656e6f756768206d616e6160881b6044820152606401610da7565b6000838152601360205260409020611b4c8383615724565b60008581526011602081815260408084206004019485554260038701558051808201909152600e81526d036b0b7309031b7b739bab6b2b2160951b81830152928890525290546110a59190613ec8565b6000818152600b60209081526040808320815180830190925280546001600160a01b031680835260019091015492820192909252829115611be35780516020820151611bfd565b600a546001600160a01b03811690600160a01b900461ffff165b9250925050915091565b6009546001600160a01b03163314611c315760405162461bcd60e51b8152600401610da79061547e565b600082815260136020908152604080832060119092528220600401549091611c5885612046565b90506000611c6685836156c3565b905082811115611c735750815b6000958652601160205260409095206004019490945550426003909101555050565b611c9e82612195565b60155460405163bfa0fedb60e01b8152600481018390523360248201526001600160a01b039091169063bfa0fedb90604401600060405180830381600087803b158015611cea57600080fd5b505af1158015611cfe573d6000803e3d6000fd5b50505050610ddd6001601954611d149190615724565b82612c2c565b601b8181548110611d2a57600080fd5b60009182526020909120600390910201805460018201805491935090611d4f90615444565b80601f0160208091040260200160405190810160405280929190818152602001828054611d7b90615444565b8015611dc85780601f10611d9d57610100808354040283529160200191611dc8565b820191906000526020600020905b815481529060010190602001808311611dab57829003601f168201915b505050505090806002018054611ddd90615444565b80601f0160208091040260200160405190810160405280929190818152602001828054611e0990615444565b8015611e565780601f10611e2b57610100808354040283529160200191611e56565b820191906000526020600020905b815481529060010190602001808311611e3957829003601f168201915b5050505050905083565b611e6861386d565b611e845760405162461bcd60e51b8152600401610da79061547e565b610ddd8282613f0d565b6000611e9982613fb3565b5192915050565b6018546001600160a01b03163314611eca5760405162461bcd60e51b8152600401610da79061573b565b600082815260116020526040812060028101805491928492611eed9084906156c3565b925050819055506000611f0382600201546140cd565b905081600101548111156110a5576110a584614108565b60006001600160a01b038216611f43576040516323d3ad8160e21b815260040160405180910390fd5b506001600160a01b03166000908152600560205260409020546001600160401b031690565b6018546001600160a01b03163314611f925760405162461bcd60e51b8152600401610da79061573b565b6000611f9d83613778565b905081811015611fe45760405162461bcd60e51b81526020600482015260126024820152714e6f7420656e6f756768207374616d696e6160701b6044820152606401610da7565b6000838152601360205260409020611ffc8383615724565b808255426002830155604080518082019091526011815270039ba30b6b4b7309031b7b739bab6b2b21607d1b60208201526110a591613ec8565b600081601054610dfb91906156db565b6000818152601360205260408120600381015482906120659042615724565b9050600061070883600101548361207c91906156db565b6120869190615710565b600086815260116020526040812060040154919250906120a79083906156c3565b905083600101548111156120bc575060018301545b95945050505050565b6120cd61386d565b6121135760405162461bcd60e51b81526020600482015260176024820152762737ba1030baba3437b934bd32b2103a379036b4b73a1760491b6044820152606401610da7565b61212661211f60005490565b84846141bf565b50506110a58484836138b2565b60008181526012602090815260409182902080548351818402810184019094528084526060939283018282801561218957602002820191906000526020600020905b815481526020019060010190808311612175575b50505050509050919050565b601b5481106121e65760405162461bcd60e51b815260206004820152601960248201527f496e76616c6964206368617261637465722074797065204944000000000000006044820152606401610da7565b6121f1336001614223565b6122a6601b8281548110612207576122076154a6565b9060005260206000209060030201600201805461222390615444565b80601f016020809104026020016040519081016040528092919081815260200182805461224f90615444565b801561229c5780601f106122715761010080835404028352916020019161229c565b820191906000526020600020905b81548152906001019060200180831161227f57829003601f168201915b505050505061423d565b6122b1601954614280565b612369601954601b83815481106122ca576122ca6154a6565b906000526020600020906003020160020180546122e690615444565b80601f016020809104026020016040519081016040528092919081815260200182805461231290615444565b801561235f5780601f106123345761010080835404028352916020019161235f565b820191906000526020600020905b81548152906001019060200180831161234257829003601f168201915b505050505061389a565b6000604051806101c001604052806019548152602001601a8481548110612392576123926154a6565b90600052602060002090600e0201600101548152602001601a84815481106123bc576123bc6154a6565b90600052602060002090600e0201600201548152602001601a84815481106123e6576123e66154a6565b90600052602060002090600e0201600301548152602001601a8481548110612410576124106154a6565b90600052602060002090600e0201600401548152602001601a848154811061243a5761243a6154a6565b90600052602060002090600e0201600501548152602001601a8481548110612464576124646154a6565b90600052602060002090600e0201600601548152602001601a848154811061248e5761248e6154a6565b90600052602060002090600e0201600701548152602001601a84815481106124b8576124b86154a6565b90600052602060002090600e0201600801548152602001601a84815481106124e2576124e26154a6565b90600052602060002090600e0201600901548152602001601a848154811061250c5761250c6154a6565b90600052602060002090600e0201600a01548152602001601a8481548110612536576125366154a6565b90600052602060002090600e0201600b01548152602001601a8481548110612560576125606154a6565b60009182526020808320600c600e93909302018201548452928301869052601980548352601184526040808420865181558686015160018083019190915587830151600280840191909155606089015160038085019190915560808a015160048086019190915560a08b0151600586015560c08b0151600686015560e08b015160078601556101008b015160088601556101208b015160098601556101408b0151600a8601556101608b0151600b8601556101808b0151978501979097556101a08a0151600d9094019390935584548752601280895284882083895283018952848820620f423f9081905586548952818a5285892089805284018a5285892081905586548952818a52858920928952918301895284882082905585548852808952848820938852928201885283872081905593548652955283209495509390920191815260200190815260200160002081905550604051806080016040528060648152602001601a84815481106126d9576126d96154a6565b600091825260208083206004600e909302019190910154835242838201819052604093840152601980548352601382528383208551815591850151600183015592840151600282015560609093015160039093019290925580549161273d8361577c565b91905055508160016019546127529190615724565b6040517f1d70055ce2e34b710424c8ce5a6e724570ab0ff0cdffb52107ba6f70821d21b990600090a35050565b61278761386d565b6127a35760405162461bcd60e51b8152600401610da79061547e565b611001816142c5565b606060038054610e1090615444565b6127c361386d565b6127df5760405162461bcd60e51b8152600401610da79061547e565b610f378383836143a1565b336127f486611e8e565b6001600160a01b03161461285b5760405162461bcd60e51b815260206004820152602860248201527f43616c6c6572206973206e6f7420746865206f776e6572206f662074686520636044820152673430b930b1ba32b960c11b6064820152608401610da7565b600085815260116020526040812090828461287687896156c3565b61288091906156c3565b61288a91906156c3565b905081600c01548111156129065760405162461bcd60e51b815260206004820152603c60248201527f5374617420706f696e747320746f207370656e642073686f756c64206e6f742060448201527f65786365656420617661696c61626c65207374617420706f696e7473000000006064820152608401610da7565b8582600701600082825461291a91906156c3565b925050819055508482600801600082825461293591906156c3565b925050819055508382600901600082825461295091906156c3565b925050819055508282600a01600082825461296b91906156c3565b9091555061297c90508360056156db565b82600301600082825461298f91906156c3565b909155506129a090508460056156db565b600088815260136020526040812060010180549091906129c19084906156c3565b909155506129d290508560056156db565b82600b0160008282546129e591906156c3565b909155506129f690508660056156db565b826005016000828254612a0991906156c3565b925050819055508082600c016000828254612a249190615724565b909155505050505050505050565b81612a3c81613b11565b610f37838361446a565b6060816001600160401b03811115612a6057612a60614c7e565b604051908082528060200260200182016040528015612a9357816020015b6060815260200190600190039081612a7e5790505b50905060005b82811015612b3357612b0330858584818110612ab757612ab76154a6565b9050602002810190612ac99190615795565b8080601f0160208091040260200160405190810160405280939291908181526020018383808284376000920191909152506144ff92505050565b828281518110612b1557612b156154a6565b60200260200101819052508080612b2b9061577c565b915050612a99565b5092915050565b836001600160a01b0381163314612b5457612b5433613b11565b612b608585858561452b565b5050505050565b612b926040518060800160405280600081526020016000815260200160008152602001600081525090565b6000828152601360205260408120600201549003612be75760405162461bcd60e51b8152602060048201526012602482015271151bdad95b881251081b9bdd08199bdd5b9960721b6044820152606401610da7565b50600090815260136020908152604091829020825160808101845281548152600182015492810192909252600281015492820192909252600390910154606082015290565b6019548210612c4d5760405162461bcd60e51b8152600401610da7906154bc565b33612c5783611e8e565b6001600160a01b031614612c7d5760405162461bcd60e51b8152600401610da7906154f3565b60155460405163bd85b03960e01b8152600481018390526000916001600160a01b03169063bd85b03990602401602060405180830381865afa158015612cc7573d6000803e3d6000fd5b505050506040513d601f19601f82011682018060405250810190612ceb919061552a565b11612d2b5760405162461bcd60e51b815260206004820152601060248201526f125b9d985b1a59081cdada5b1b08125160821b6044820152606401610da7565b601554604051627eeac760e11b8152336004820152602481018390526000916001600160a01b03169062fdd58e90604401602060405180830381865afa158015612d79573d6000803e3d6000fd5b505050506040513d601f19601f82011682018060405250810190612d9d919061552a565b11612dea5760405162461bcd60e51b815260206004820152601a60248201527f4e6f7420746865206f776e6572206f662074686520736b696c6c0000000000006044820152606401610da7565b6000828152601260205260408120905b8154811015612e795782828281548110612e1657612e166154a6565b906000526020600020015403612e675760405162461bcd60e51b815260206004820152601660248201527514dada5b1b08185b1c9958591e48195c5d5a5c1c195960521b6044820152606401610da7565b80612e718161577c565b915050612dfa565b50601554604051637921219560e11b81526001600160a01b039091169063f242432a90612eb190339030908790600190600401615581565b600060405180830381600087803b158015612ecb57600080fd5b505af1158015612edf573d6000803e3d6000fd5b505082546001810184556000938452602090932090920192909255505050565b600081815260146020526040812080546060929190612f1d90615444565b80601f0160208091040260200160405190810160405280929190818152602001828054612f4990615444565b8015612f965780601f10612f6b57610100808354040283529160200191612f96565b820191906000526020600020905b815481529060010190602001808311612f7957829003601f168201915b50505050509050600081511115612fad5792915050565b6000612fb88461456f565b905080612fc48561470b565b604051602001612fd59291906157e2565b60405160208183030381529060405292505050919050565b33612ff782611e8e565b6001600160a01b03161461301d5760405162461bcd60e51b8152600401610da7906154f3565b600081815260126020526040812060020154908190036130735760405162461bcd60e51b8152602060048201526011602482015270139bc818db185cdcc8195c5d5a5c1c1959607a1b6044820152606401610da7565b600082815260126020526040808220600201919091556017549051637921219560e11b81526001600160a01b039091169063f242432a906130bf90309033908690600190600401615581565b600060405180830381600087803b1580156130d957600080fd5b505af11580156130ed573d6000803e3d6000fd5b505050505050565b6009546001600160a01b0316331461311f5760405162461bcd60e51b8152600401610da79061547e565b601580546001600160a01b0319166001600160a01b0392909216919091179055565b6131b3604051806101c0016040528060008152602001600081526020016000815260200160008152602001600081526020016000815260200160008152602001600081526020016000815260200160008152602001600081526020016000815260200160008152602001600081525090565b5060009081526011602090815260409182902082516101c081018452815481526001820154928101929092526002810154928201929092526003820154606082015260048201546080820152600582015460a0820152600682015460c0820152600782015460e082015260088201546101008201526009820154610120820152600a820154610140820152600b820154610160820152600c820154610180820152600d909101546101a082015290565b6000828152601260205260408120600101818360048111156132875761328761556b565b60048111156132985761329861556b565b815260200190815260200160002054905092915050565b336132b983611e8e565b6001600160a01b0316146132df5760405162461bcd60e51b8152600401610da7906154f3565b6000828152601260205260408120805490915b8254811015613338578383828154811061330e5761330e6154a6565b90600052602060002001540361332657809150613338565b806133308161577c565b9150506132f2565b508154811061337b5760405162461bcd60e51b815260206004820152600f60248201526e14dada5b1b081b9bdd08199bdd5b99608a1b6044820152606401610da7565b601554604051637921219560e11b81526001600160a01b039091169063f242432a906133b290309033908890600190600401615581565b600060405180830381600087803b1580156133cc57600080fd5b505af11580156133e0573d6000803e3d6000fd5b505083548492506133f49150600190615724565b81548110613404576134046154a6565b9060005260206000200154828281548110613421576134216154a6565b90600052602060002001819055508180548061343f5761343f615811565b6001900381819060005260206000200160009055905550505050565b601954821061347c5760405162461bcd60e51b8152600401610da7906154bc565b3361348683611e8e565b6001600160a01b0316146134ac5760405162461bcd60e51b8152600401610da7906154f3565b60175460405163bd85b03960e01b8152600481018390526000916001600160a01b03169063bd85b03990602401602060405180830381865afa1580156134f6573d6000803e3d6000fd5b505050506040513d601f19601f8201168201806040525081019061351a919061552a565b1161355a5760405162461bcd60e51b815260206004820152601060248201526f125b9d985b1a590818db185cdcc8125160821b6044820152606401610da7565b601754604051627eeac760e11b8152336004820152602481018390526000916001600160a01b03169062fdd58e90604401602060405180830381865afa1580156135a8573d6000803e3d6000fd5b505050506040513d601f19601f820116820180604052508101906135cc919061552a565b116136195760405162461bcd60e51b815260206004820152601a60248201527f4e6f7420746865206f776e6572206f662074686520636c6173730000000000006044820152606401610da7565b6000828152601260205260409020600201548190036136735760405162461bcd60e51b815260206004820152601660248201527510db185cdcc8185b1c9958591e48195c5d5a5c1c195960521b6044820152606401610da7565b60008281526012602052604090206002015480156136f557601754604051637921219560e11b81526001600160a01b039091169063f242432a906136c290309033908690600190600401615581565b600060405180830381600087803b1580156136dc57600080fd5b505af11580156136f0573d6000803e3d6000fd5b505050505b600083815260126020526040908190206002018390556017549051637921219560e11b81526001600160a01b039091169063f242432a9061374190339030908790600190600401615581565b600060405180830381600087803b15801561375b57600080fd5b505af115801561376f573d6000803e3d6000fd5b50505050505050565b6000818152601360205260408120600281015482906137979042615724565b90506000620151806137aa8360646156db565b6137b49190615710565b905060008184600001546137c891906156c3565b905060648111156120bc5750606495945050505050565b600880546137ec90615444565b80601f016020809104026020016040519081016040528092919081815260200182805461381890615444565b80156138655780601f1061383a57610100808354040283529160200191613865565b820191906000526020600020905b81548152906001019060200180831161384857829003601f168201915b505050505081565b60006138816009546001600160a01b031690565b6001600160a01b0316336001600160a01b031614905090565b6000828152601460205260409020610f37828261586d565b6000546001600160a01b0384166138db57604051622e076360e81b815260040160405180910390fd5b826000036138fc5760405163b562e8dd60e01b815260040160405180910390fd5b6001600160a01b038416600081815260056020908152604080832080546fffffffffffffffffffffffffffffffff1981166001600160401b038083168b0181169182176801000000000000000067ffffffffffffffff1990941690921783900481168b01811690920217909155858452600490925290912080546001600160e01b0319168317600160a01b42909316929092029190911790558190818501903b15613a12575b60405182906001600160a01b03881690600090600080516020615a38833981519152908290a46139db600087848060010195508761480b565b6139f8576040516368d2bf6b60e11b815260040160405180910390fd5b8082106139a2578260005414613a0d57600080fd5b613a45565b5b6040516001830192906001600160a01b03881690600090600080516020615a38833981519152908290a4808210613a13575b5060009081556110a59085838684565b60006301ffc9a760e01b6001600160e01b031983161480613a8657506380ac58cd60e01b6001600160e01b03198316145b80613aa15750635b5e139f60e01b6001600160e01b03198316145b80610dfb57506001600160e01b0319821663152a902d60e11b1492915050565b60006001600160e01b03198216630271189760e51b1480610dfb5750610dfb82613a55565b6000805482108015610dfb575050600090815260046020526040902054600160e01b900460ff161590565b600e5460ff1615611001576daaeb6d7670e522a718067333cd4e3b1561100157604051633185c44d60e21b81523060048201526001600160a01b03821660248201526daaeb6d7670e522a718067333cd4e9063c617113490604401602060405180830381865afa158015613b89573d6000803e3d6000fd5b505050506040513d601f19601f82011682018060405250810190613bad919061592c565b61100157604051633b79c77360e21b81526001600160a01b0382166004820152602401610da7565b6000613be082611e8e565b9050806001600160a01b0316836001600160a01b031603613c145760405163250fdee360e21b815260040160405180910390fd5b336001600160a01b03821614613c4b57613c2e8133610d07565b613c4b576040516367d9dca160e11b815260040160405180910390fd5b610f378383836148f6565b600980546001600160a01b038381166001600160a01b0319831681179093556040519116919082907f8292fce18fa69edf4db7b94ea2e58241df0ae57f97e0a6c9b29067028bf92d7690600090a35050565b610f37838383614952565b600e805460ff19168215159081179091556040519081527f38475885990d8dfe9ca01f0ef160a1b5514426eab9ddbc953a3353410ba780969060200160405180910390a150565b610f3783838360405180602001604052806000815250612b3a565b6000613d2083613fb3565b80519091508215613d86576000336001600160a01b0383161480613d495750613d498233610d07565b80613d64575033613d5986610e93565b6001600160a01b0316145b905080613d8457604051632ce44b5f60e11b815260040160405180910390fd5b505b613d92600085836148f6565b6001600160a01b0380821660008181526005602090815260408083208054600160801b6000196001600160401b0380841691909101811667ffffffffffffffff198416811783900482166001908101831690930277ffffffffffffffff0000000000000000ffffffffffffffff19909416179290921783558b86526004909452828520805460ff60e01b1942909316600160a01b026001600160e01b03199091169097179690961716600160e01b178555918901808452922080549194909116613e90576000548214613e9057805460208701516001600160401b0316600160a01b026001600160e01b03199091166001600160a01b038716171781555b5050604051869250600091506001600160a01b03841690600080516020615a38833981519152908390a4505060018054810190555050565b610ddd8282604051602401613ede929190615949565b60408051601f198184030181529190526020810180516001600160e01b0316632d839cb360e21b179052614b2b565b612710811115613f515760405162461bcd60e51b815260206004820152600f60248201526e45786365656473206d61782062707360881b6044820152606401610da7565b600a80546001600160a01b0384166001600160b01b03199091168117600160a01b61ffff851602179091556040518281527f90d7ec04bcb8978719414f82e52e4cb651db41d0e6f8cea6118c2191e6183adb9060200160405180910390a25050565b6040805160608101825260008082526020820181905291810191909152816000548110156140b457600081815260046020908152604091829020825160608101845290546001600160a01b0381168252600160a01b81046001600160401b031692820192909252600160e01b90910460ff161515918101829052906140b25780516001600160a01b031615614049579392505050565b5060001901600081815260046020908152604091829020825160608101845290546001600160a01b038116808352600160a01b82046001600160401b031693830193909352600160e01b900460ff16151592810192909252156140ad579392505050565b614049565b505b604051636f96cda160e11b815260040160405180910390fd5b600060015b6140db81612036565b8310610dfb576140ea81612036565b6140f49084615724565b92506141016001826156c3565b90506140d2565b600081815260116020526040812060018101546002820154919290919061412e826140cd565b90508281116141905760405162461bcd60e51b815260206004820152602860248201527f4e6f7420656e6f75676820657870657269656e636520706f696e747320746f2060448201526706c6576656c2075760c41b6064820152608401610da7565b600184018190556141a18382615724565b6141ac9060056156db565b84600c01600082825461160b91906156c3565b6000806141cc84866156c3565b600c8054600181019091557fdf6966c971051c3d54ec59162606531493a51404a002842f56009d7e5cf4a8c7018190556000818152600d6020526040902090925082915061421a848261586d565b50935093915050565b610ddd8282604051806020016040528060008152506138b2565b611001816040516024016142519190614e41565b60408051601f198184030181529190526020810180516001600160e01b031663104c13eb60e21b179052614b2b565b6110018160405160240161429691815260200190565b60408051601f198184030181529190526020810180516001600160e01b031663f82c50f160e01b179052614b2b565b6000600880546142d490615444565b80601f016020809104026020016040519081016040528092919081815260200182805461430090615444565b801561434d5780601f106143225761010080835404028352916020019161434d565b820191906000526020600020905b81548152906001019060200180831161433057829003601f168201915b505050505090508160089081614363919061586d565b507fc9c7c3fe08b88b4df9d4d47ef47d2c43d55c025a0ba88ca442580ed9e7348a16818360405161439592919061596b565b60405180910390a15050565b6127108111156143e55760405162461bcd60e51b815260206004820152600f60248201526e45786365656473206d61782062707360881b6044820152606401610da7565b6040805180820182526001600160a01b0384811680835260208084018681526000898152600b8352869020945185546001600160a01b031916941693909317845591516001909301929092559151838152909185917f7365cf4122f072a3365c20d54eff9b38d73c096c28e1892ec8f5b0e403a0f12d910160405180910390a3505050565b336001600160a01b038316036144935760405163b06307db60e01b815260040160405180910390fd5b3360008181526007602090815260408083206001600160a01b03871680855290835292819020805460ff191686151590811790915590519081529192917f17307eab39ab6107e8899845ad3d59bd9653f200f220920489ca2b5937696c31910160405180910390a35050565b60606145248383604051806060016040528060278152602001615a1160279139614b4c565b9392505050565b614536848484614952565b6001600160a01b0383163b156110a5576145528484848461480b565b6110a5576040516368d2bf6b60e11b815260040160405180910390fd5b6060600061457c600c5490565b90506000600c8054806020026020016040519081016040528092919081815260200182805480156145cc57602002820191906000526020600020905b8154815260200190600101908083116145b8575b5050505050905060005b828110156146d0578181815181106145f0576145f06154a6565b60200260200101518510156146be57600d6000838381518110614615576146156154a6565b60200260200101518152602001908152602001600020805461463690615444565b80601f016020809104026020016040519081016040528092919081815260200182805461466290615444565b80156146af5780601f10614684576101008083540402835291602001916146af565b820191906000526020600020905b81548152906001019060200180831161469257829003601f168201915b50505050509350505050919050565b6146c96001826156c3565b90506145d6565b5060405162461bcd60e51b815260206004820152600f60248201526e125b9d985b1a59081d1bdad95b9259608a1b6044820152606401610da7565b6060816000036147325750506040805180820190915260018152600360fc1b602082015290565b8160005b811561475c57806147468161577c565b91506147559050600a83615710565b9150614736565b6000816001600160401b0381111561477657614776614c7e565b6040519080825280601f01601f1916602001820160405280156147a0576020820181803683370190505b5090505b8415611ab3576147b5600183615724565b91506147c2600a86615990565b6147cd9060306156c3565b60f81b8183815181106147e2576147e26154a6565b60200101906001600160f81b031916908160001a905350614804600a86615710565b94506147a4565b604051630a85bd0160e11b81526000906001600160a01b0385169063150b7a02906148409033908990889088906004016159a4565b6020604051808303816000875af192505050801561487b575060408051601f3d908101601f19168201909252614878918101906159d7565b60015b6148d9573d8080156148a9576040519150601f19603f3d011682016040523d82523d6000602084013e6148ae565b606091505b5080516000036148d1576040516368d2bf6b60e11b815260040160405180910390fd5b805181602001fd5b6001600160e01b031916630a85bd0160e11b149050949350505050565b60008281526006602052604080822080546001600160a01b0319166001600160a01b0387811691821790925591518593918516917f8c5be1e5ebec7d5bd14f71427d1e84f3dd0314c0f7b2291e5b200ac8c7c3b92591a4505050565b600061495d82613fb3565b9050836001600160a01b031681600001516001600160a01b0316146149945760405162a1148160e81b815260040160405180910390fd5b6000336001600160a01b03861614806149b257506149b28533610d07565b806149cd5750336149c284610e93565b6001600160a01b0316145b9050806149ed57604051632ce44b5f60e11b815260040160405180910390fd5b6001600160a01b038416614a1457604051633a954ecd60e21b815260040160405180910390fd5b614a20600084876148f6565b6001600160a01b038581166000908152600560209081526040808320805467ffffffffffffffff198082166001600160401b0392831660001901831617909255898616808652838620805493841693831660019081018416949094179055898652600490945282852080546001600160e01b031916909417600160a01b42909216919091021783558701808452922080549193909116614af4576000548214614af457805460208601516001600160401b0316600160a01b026001600160e01b03199091166001600160a01b038a16171781555b50505082846001600160a01b0316866001600160a01b0316600080516020615a3883398151915260405160405180910390a4612b60565b80516a636f6e736f6c652e6c6f67602083016000808483855afa5050505050565b60606001600160a01b0384163b614bb45760405162461bcd60e51b815260206004820152602660248201527f416464726573733a2064656c65676174652063616c6c20746f206e6f6e2d636f6044820152651b9d1c9858dd60d21b6064820152608401610da7565b600080856001600160a01b031685604051614bcf91906159f4565b600060405180830381855af49150503d8060008114614c0a576040519150601f19603f3d011682016040523d82523d6000602084013e614c0f565b606091505b5091509150614c1f828286614c29565b9695505050505050565b60608315614c38575081614524565b825115614c485782518084602001fd5b8160405162461bcd60e51b8152600401610da79190614e41565b80356001600160a01b0381168114614c7957600080fd5b919050565b634e487b7160e01b600052604160045260246000fd5b60405160e081016001600160401b0381118282101715614cb657614cb6614c7e565b60405290565b604051601f8201601f191681016001600160401b0381118282101715614ce457614ce4614c7e565b604052919050565b60006001600160401b03821115614d0557614d05614c7e565b50601f01601f191660200190565b600082601f830112614d2457600080fd5b8135614d37614d3282614cec565b614cbc565b818152846020838601011115614d4c57600080fd5b816020850160208301376000918101602001919091529392505050565b60008060408385031215614d7c57600080fd5b614d8583614c62565b915060208301356001600160401b03811115614da057600080fd5b614dac85828601614d13565b9150509250929050565b6001600160e01b03198116811461100157600080fd5b600060208284031215614dde57600080fd5b813561452481614db6565b60005b83811015614e04578181015183820152602001614dec565b838111156110a55750506000910152565b60008151808452614e2d816020860160208601614de9565b601f01601f19169290920160200192915050565b6020815260006145246020830184614e15565b600060208284031215614e6657600080fd5b5035919050565b600060208284031215614e7f57600080fd5b61452482614c62565b60008060408385031215614e9b57600080fd5b614ea483614c62565b946020939093013593505050565b600080600060608486031215614ec757600080fd5b614ed084614c62565b9250614ede60208501614c62565b9150604084013590509250925092565b60008060408385031215614f0157600080fd5b50508035926020909101359150565b60008060408385031215614f2357600080fd5b8235915060208301356001600160401b03811115614da057600080fd5b801515811461100157600080fd5b600060208284031215614f6057600080fd5b813561452481614f40565b838152606060208201526000614f846060830185614e15565b8281036040840152614c1f8185614e15565b60008060008060808587031215614fac57600080fd5b614fb585614c62565b93506020850135925060408501356001600160401b0380821115614fd857600080fd5b614fe488838901614d13565b93506060870135915080821115614ffa57600080fd5b5061500787828801614d13565b91505092959194509250565b6020808252825182820181905260009190848201906040850190845b8181101561504b5783518352928401929184019160010161502f565b50909695505050505050565b60006020828403121561506957600080fd5b81356001600160401b0381111561507f57600080fd5b611ab384828501614d13565b6000806000606084860312156150a057600080fd5b83359250614ede60208501614c62565b600080600080600060a086880312156150c857600080fd5b505083359560208501359550604085013594606081013594506080013592509050565b600080604083850312156150fe57600080fd5b61510783614c62565b9150602083013561511781614f40565b809150509250929050565b6000806020838503121561513557600080fd5b82356001600160401b038082111561514c57600080fd5b818501915085601f83011261516057600080fd5b81358181111561516f57600080fd5b8660208260051b850101111561518457600080fd5b60209290920196919550909350505050565b6000602080830181845280855180835260408601915060408160051b870101925083870160005b828110156151eb57603f198886030184526151d9858351614e15565b945092850192908501906001016151bd565b5092979650505050505050565b6000806000806080858703121561520e57600080fd5b61521785614c62565b935061522560208601614c62565b92506040850135915060608501356001600160401b0381111561524757600080fd5b61500787828801614d13565b600082601f83011261526457600080fd5b813560206001600160401b0382111561527f5761527f614c7e565b8160051b61528e828201614cbc565b92835284810182019282810190878511156152a857600080fd5b83870192505b848310156152c7578235825291830191908301906152ae565b979650505050505050565b600080600080600060a086880312156152ea57600080fd5b6152f386614c62565b945061530160208701614c62565b935060408601356001600160401b038082111561531d57600080fd5b61532989838a01615253565b9450606088013591508082111561533f57600080fd5b61534b89838a01615253565b9350608088013591508082111561536157600080fd5b5061536e88828901614d13565b9150509295509295909350565b6005811061100157600080fd5b6000806040838503121561539b57600080fd5b8235915060208301356151178161537b565b600080604083850312156153c057600080fd5b6153c983614c62565b91506153d760208401614c62565b90509250929050565b600080600080600060a086880312156153f857600080fd5b61540186614c62565b945061540f60208701614c62565b9350604086013592506060860135915060808601356001600160401b0381111561543857600080fd5b61536e88828901614d13565b600181811c9082168061545857607f821691505b60208210810361547857634e487b7160e01b600052602260045260246000fd5b50919050565b6020808252600e908201526d139bdd08185d5d1a1bdc9a5e995960921b604082015260600190565b634e487b7160e01b600052603260045260246000fd5b6020808252601a908201527f496e76616c69642063686172616374657220746f6b656e204944000000000000604082015260600190565b6020808252601e908201527f4e6f7420746865206f776e6572206f6620746865206368617261637465720000604082015260600190565b60006020828403121561553c57600080fd5b5051919050565b8051614c798161537b565b60006020828403121561556057600080fd5b81516145248161537b565b634e487b7160e01b600052602160045260246000fd5b6001600160a01b0394851681529290931660208301526040820152606081019190915260a06080820181905260009082015260c00190565b600082601f8301126155ca57600080fd5b81516155d8614d3282614cec565b8181528460208386010111156155ed57600080fd5b611ab3826020830160208701614de9565b60006020828403121561561057600080fd5b81516001600160401b038082111561562757600080fd5b9083019060e0828603121561563b57600080fd5b615643614c94565b82518281111561565257600080fd5b61565e878286016155b9565b8252506020830151602082015260408301516040820152606083015160608201526080830151608082015260a083015160a082015261569f60c08401615543565b60c082015295945050505050565b634e487b7160e01b600052601160045260246000fd5b600082198211156156d6576156d66156ad565b500190565b60008160001904831182151516156156f5576156f56156ad565b500290565b634e487b7160e01b600052601260045260246000fd5b60008261571f5761571f6156fa565b500490565b600082821015615736576157366156ad565b500390565b60208082526021908201527f43616c6c6572206973206e6f742074686520426174746c6520636f6e747261636040820152601d60fa1b606082015260800190565b60006001820161578e5761578e6156ad565b5060010190565b6000808335601e198436030181126157ac57600080fd5b8301803591506001600160401b038211156157c657600080fd5b6020019150368190038213156157db57600080fd5b9250929050565b600083516157f4818460208801614de9565b835190830190615808818360208801614de9565b01949350505050565b634e487b7160e01b600052603160045260246000fd5b601f821115610f3757600081815260208120601f850160051c8101602086101561584e5750805b601f850160051c820191505b818110156130ed5782815560010161585a565b81516001600160401b0381111561588657615886614c7e565b61589a816158948454615444565b84615827565b602080601f8311600181146158cf57600084156158b75750858301515b600019600386901b1c1916600185901b1785556130ed565b600085815260208120601f198616915b828110156158fe578886015182559484019460019091019084016158df565b508582101561591c5787850151600019600388901b60f8161c191681555b5050505050600190811b01905550565b60006020828403121561593e57600080fd5b815161452481614f40565b60408152600061595c6040830185614e15565b90508260208301529392505050565b60408152600061597e6040830185614e15565b82810360208401526120bc8185614e15565b60008261599f5761599f6156fa565b500690565b6001600160a01b0385811682528416602082015260408101839052608060608201819052600090614c1f90830184614e15565b6000602082840312156159e957600080fd5b815161452481614db6565b60008251615a06818460208701614de9565b919091019291505056fe416464726573733a206c6f772d6c6576656c2064656c65676174652063616c6c206661696c6564ddf252ad1be2c89b69c2b068fc378daa952ba7f163c4a11628f55a4df523b3efa26469706673582212205b312f6469fcde6d87327185b86b6358116103b3784893bcbdab58a13ce6b1e264736f6c634300080f0033697066733a2f2f516d5a7a426d6a726a6e3734324478387750486865713858627a6b6f775753367871764c4855525453764c51436f697066733a2f2f516d5579576d7072793853726939426d734853514d444250746e505a6b6f583647533777385a697a706e46583776697066733a2f2f516d545945695869547a4268597577755137626a533561714368726566454a5a33376173384244724b59786b316a",
  "linkReferences": {},
  "deployedLinkReferences": {}
}