{
  "_format": "hh-sol-artifact-1",
  "contractName": "Character",
  "sourceName": "contracts/Character.sol",
  "abi": [
    {
      "inputs": [],
      "stateMutability": "nonpayable",
      "type": "constructor"
    },
    {
      "inputs": [],
      "name": "ApprovalCallerNotOwnerNorApproved",
      "type": "error"
    },
    {
      "inputs": [],
      "name": "ApprovalQueryForNonexistentToken",
      "type": "error"
    },
    {
      "inputs": [],
      "name": "ApprovalToCurrentOwner",
      "type": "error"
    },
    {
      "inputs": [],
      "name": "ApproveToCaller",
      "type": "error"
    },
    {
      "inputs": [],
      "name": "BalanceQueryForZeroAddress",
      "type": "error"
    },
    {
      "inputs": [],
      "name": "MintToZeroAddress",
      "type": "error"
    },
    {
      "inputs": [],
      "name": "MintZeroQuantity",
      "type": "error"
    },
    {
      "inputs": [
        {
          "internalType": "address",
          "name": "operator",
          "type": "address"
        }
      ],
      "name": "OperatorNotAllowed",
      "type": "error"
    },
    {
      "inputs": [],
      "name": "OwnerQueryForNonexistentToken",
      "type": "error"
    },
    {
      "inputs": [],
      "name": "TransferCallerNotOwnerNorApproved",
      "type": "error"
    },
    {
      "inputs": [],
      "name": "TransferFromIncorrectOwner",
      "type": "error"
    },
    {
      "inputs": [],
      "name": "TransferToNonERC721ReceiverImplementer",
      "type": "error"
    },
    {
      "inputs": [],
      "name": "TransferToZeroAddress",
      "type": "error"
    },
    {
      "inputs": [],
      "name": "URIQueryForNonexistentToken",
      "type": "error"
    },
    {
      "anonymous": false,
      "inputs": [
        {
          "indexed": true,
          "internalType": "address",
          "name": "owner",
          "type": "address"
        },
        {
          "indexed": true,
          "internalType": "address",
          "name": "approved",
          "type": "address"
        },
        {
          "indexed": true,
          "internalType": "uint256",
          "name": "tokenId",
          "type": "uint256"
        }
      ],
      "name": "Approval",
      "type": "event"
    },
    {
      "anonymous": false,
      "inputs": [
        {
          "indexed": true,
          "internalType": "address",
          "name": "owner",
          "type": "address"
        },
        {
          "indexed": true,
          "internalType": "address",
          "name": "operator",
          "type": "address"
        },
        {
          "indexed": false,
          "internalType": "bool",
          "name": "approved",
          "type": "bool"
        }
      ],
      "name": "ApprovalForAll",
      "type": "event"
    },
    {
      "anonymous": false,
      "inputs": [
        {
          "indexed": false,
          "internalType": "string",
          "name": "prevURI",
          "type": "string"
        },
        {
          "indexed": false,
          "internalType": "string",
          "name": "newURI",
          "type": "string"
        }
      ],
      "name": "ContractURIUpdated",
      "type": "event"
    },
    {
      "anonymous": false,
      "inputs": [
        {
          "indexed": true,
          "internalType": "address",
          "name": "newRoyaltyRecipient",
          "type": "address"
        },
        {
          "indexed": false,
          "internalType": "uint256",
          "name": "newRoyaltyBps",
          "type": "uint256"
        }
      ],
      "name": "DefaultRoyalty",
      "type": "event"
    },
    {
      "anonymous": false,
      "inputs": [
        {
          "indexed": true,
          "internalType": "uint256",
          "name": "tokenId",
          "type": "uint256"
        },
        {
          "indexed": true,
          "internalType": "uint256",
          "name": "typeId",
          "type": "uint256"
        }
      ],
      "name": "NewCharacter",
      "type": "event"
    },
    {
      "anonymous": false,
      "inputs": [
        {
          "indexed": false,
          "internalType": "bool",
          "name": "restriction",
          "type": "bool"
        }
      ],
      "name": "OperatorRestriction",
      "type": "event"
    },
    {
      "anonymous": false,
      "inputs": [
        {
          "indexed": true,
          "internalType": "address",
          "name": "prevOwner",
          "type": "address"
        },
        {
          "indexed": true,
          "internalType": "address",
          "name": "newOwner",
          "type": "address"
        }
      ],
      "name": "OwnerUpdated",
      "type": "event"
    },
    {
      "anonymous": false,
      "inputs": [
        {
          "indexed": true,
          "internalType": "uint256",
          "name": "tokenId",
          "type": "uint256"
        },
        {
          "indexed": true,
          "internalType": "address",
          "name": "royaltyRecipient",
          "type": "address"
        },
        {
          "indexed": false,
          "internalType": "uint256",
          "name": "royaltyBps",
          "type": "uint256"
        }
      ],
      "name": "RoyaltyForToken",
      "type": "event"
    },
    {
      "anonymous": false,
      "inputs": [
        {
          "indexed": true,
          "internalType": "address",
          "name": "from",
          "type": "address"
        },
        {
          "indexed": true,
          "internalType": "address",
          "name": "to",
          "type": "address"
        },
        {
          "indexed": true,
          "internalType": "uint256",
          "name": "tokenId",
          "type": "uint256"
        }
      ],
      "name": "Transfer",
      "type": "event"
    },
    {
      "inputs": [],
      "name": "OPERATOR_FILTER_REGISTRY",
      "outputs": [
        {
          "internalType": "contract IOperatorFilterRegistry",
          "name": "",
          "type": "address"
        }
      ],
      "stateMutability": "view",
      "type": "function"
    },
    {
      "inputs": [
        {
          "internalType": "uint256",
          "name": "characterTokenId",
          "type": "uint256"
        },
        {
          "internalType": "uint256",
          "name": "strength",
          "type": "uint256"
        },
        {
          "internalType": "uint256",
          "name": "dexterity",
          "type": "uint256"
        },
        {
          "internalType": "uint256",
          "name": "intelligence",
          "type": "uint256"
        },
        {
          "internalType": "uint256",
          "name": "vitality",
          "type": "uint256"
        }
      ],
      "name": "addStats",
      "outputs": [],
      "stateMutability": "nonpayable",
      "type": "function"
    },
    {
      "inputs": [
        {
          "internalType": "address",
          "name": "operator",
          "type": "address"
        },
        {
          "internalType": "uint256",
          "name": "tokenId",
          "type": "uint256"
        }
      ],
      "name": "approve",
      "outputs": [],
      "stateMutability": "nonpayable",
      "type": "function"
    },
    {
      "inputs": [
        {
          "internalType": "address",
          "name": "owner",
          "type": "address"
        }
      ],
      "name": "balanceOf",
      "outputs": [
        {
          "internalType": "uint256",
          "name": "",
          "type": "uint256"
        }
      ],
      "stateMutability": "view",
      "type": "function"
    },
    {
      "inputs": [
        {
          "internalType": "address",
          "name": "_to",
          "type": "address"
        },
        {
          "internalType": "uint256",
          "name": "_quantity",
          "type": "uint256"
        },
        {
          "internalType": "string",
          "name": "_baseURI",
          "type": "string"
        },
        {
          "internalType": "bytes",
          "name": "_data",
          "type": "bytes"
        }
      ],
      "name": "batchMintTo",
      "outputs": [],
      "stateMutability": "nonpayable",
      "type": "function"
    },
    {
      "inputs": [],
      "name": "battleItems",
      "outputs": [
        {
          "internalType": "contract BattleItems",
          "name": "",
          "type": "address"
        }
      ],
      "stateMutability": "view",
      "type": "function"
    },
    {
      "inputs": [],
      "name": "battleSkills",
      "outputs": [
        {
          "internalType": "contract BattleSkills",
          "name": "",
          "type": "address"
        }
      ],
      "stateMutability": "view",
      "type": "function"
    },
    {
      "inputs": [
        {
          "internalType": "uint256",
          "name": "_tokenId",
          "type": "uint256"
        }
      ],
      "name": "burn",
      "outputs": [],
      "stateMutability": "nonpayable",
      "type": "function"
    },
    {
      "inputs": [
        {
          "internalType": "uint256",
          "name": "",
          "type": "uint256"
        }
      ],
      "name": "charStats",
      "outputs": [
        {
          "internalType": "uint256",
          "name": "tokenId",
          "type": "uint256"
        },
        {
          "internalType": "uint256",
          "name": "level",
          "type": "uint256"
        },
        {
          "internalType": "uint256",
          "name": "experience",
          "type": "uint256"
        },
        {
          "internalType": "uint256",
          "name": "health",
          "type": "uint256"
        },
        {
          "internalType": "uint256",
          "name": "mana",
          "type": "uint256"
        },
        {
          "internalType": "uint256",
          "name": "attack",
          "type": "uint256"
        },
        {
          "internalType": "uint256",
          "name": "defense",
          "type": "uint256"
        },
        {
          "internalType": "uint256",
          "name": "strength",
          "type": "uint256"
        },
        {
          "internalType": "uint256",
          "name": "dexterity",
          "type": "uint256"
        },
        {
          "internalType": "uint256",
          "name": "intelligence",
          "type": "uint256"
        },
        {
          "internalType": "uint256",
          "name": "vitality",
          "type": "uint256"
        },
        {
          "internalType": "uint256",
          "name": "accuracy",
          "type": "uint256"
        },
        {
          "internalType": "uint256",
          "name": "statPoints",
          "type": "uint256"
        },
        {
          "internalType": "uint256",
          "name": "typeId",
          "type": "uint256"
        }
      ],
      "stateMutability": "view",
      "type": "function"
    },
    {
      "inputs": [
        {
          "internalType": "uint256",
          "name": "",
          "type": "uint256"
        }
      ],
      "name": "charTypes",
      "outputs": [
        {
          "internalType": "uint256",
          "name": "typeId",
          "type": "uint256"
        },
        {
          "internalType": "string",
          "name": "characterType",
          "type": "string"
        },
        {
          "internalType": "string",
          "name": "uri",
          "type": "string"
        }
      ],
      "stateMutability": "view",
      "type": "function"
    },
    {
      "inputs": [],
      "name": "characterClasses",
      "outputs": [
        {
          "internalType": "contract CharacterClass",
          "name": "",
          "type": "address"
        }
      ],
      "stateMutability": "view",
      "type": "function"
    },
    {
      "inputs": [],
      "name": "contractURI",
      "outputs": [
        {
          "internalType": "string",
          "name": "",
          "type": "string"
        }
      ],
      "stateMutability": "view",
      "type": "function"
    },
    {
      "inputs": [
        {
          "internalType": "uint256",
          "name": "characterTokenId",
          "type": "uint256"
        },
        {
          "internalType": "uint256",
          "name": "classId",
          "type": "uint256"
        }
      ],
      "name": "equipClass",
      "outputs": [],
      "stateMutability": "nonpayable",
      "type": "function"
    },
    {
      "inputs": [
        {
          "internalType": "uint256",
          "name": "characterTokenId",
          "type": "uint256"
        },
        {
          "internalType": "uint256",
          "name": "tokenId",
          "type": "uint256"
        }
      ],
      "name": "equipItem",
      "outputs": [],
      "stateMutability": "nonpayable",
      "type": "function"
    },
    {
      "inputs": [
        {
          "internalType": "uint256",
          "name": "characterTokenId",
          "type": "uint256"
        },
        {
          "internalType": "uint256",
          "name": "skillId",
          "type": "uint256"
        }
      ],
      "name": "equipSkill",
      "outputs": [],
      "stateMutability": "nonpayable",
      "type": "function"
    },
    {
      "inputs": [
        {
          "internalType": "uint256",
          "name": "tokenId",
          "type": "uint256"
        }
      ],
      "name": "getApproved",
      "outputs": [
        {
          "internalType": "address",
          "name": "",
          "type": "address"
        }
      ],
      "stateMutability": "view",
      "type": "function"
    },
    {
      "inputs": [],
      "name": "getBaseURICount",
      "outputs": [
        {
          "internalType": "uint256",
          "name": "",
          "type": "uint256"
        }
      ],
      "stateMutability": "view",
      "type": "function"
    },
    {
      "inputs": [
        {
          "internalType": "uint256",
          "name": "_index",
          "type": "uint256"
        }
      ],
      "name": "getBatchIdAtIndex",
      "outputs": [
        {
          "internalType": "uint256",
          "name": "",
          "type": "uint256"
        }
      ],
      "stateMutability": "view",
      "type": "function"
    },
    {
      "inputs": [
        {
          "internalType": "uint256",
          "name": "_tokenId",
          "type": "uint256"
        }
      ],
      "name": "getCharacter",
      "outputs": [
        {
          "components": [
            {
              "internalType": "uint256",
              "name": "tokenId",
              "type": "uint256"
            },
            {
              "internalType": "uint256",
              "name": "level",
              "type": "uint256"
            },
            {
              "internalType": "uint256",
              "name": "experience",
              "type": "uint256"
            },
            {
              "internalType": "uint256",
              "name": "health",
              "type": "uint256"
            },
            {
              "internalType": "uint256",
              "name": "mana",
              "type": "uint256"
            },
            {
              "internalType": "uint256",
              "name": "attack",
              "type": "uint256"
            },
            {
              "internalType": "uint256",
              "name": "defense",
              "type": "uint256"
            },
            {
              "internalType": "uint256",
              "name": "strength",
              "type": "uint256"
            },
            {
              "internalType": "uint256",
              "name": "dexterity",
              "type": "uint256"
            },
            {
              "internalType": "uint256",
              "name": "intelligence",
              "type": "uint256"
            },
            {
              "internalType": "uint256",
              "name": "vitality",
              "type": "uint256"
            },
            {
              "internalType": "uint256",
              "name": "accuracy",
              "type": "uint256"
            },
            {
              "internalType": "uint256",
              "name": "statPoints",
              "type": "uint256"
            },
            {
              "internalType": "uint256",
              "name": "typeId",
              "type": "uint256"
            }
          ],
          "internalType": "struct Character.CharacterStats",
          "name": "",
          "type": "tuple"
        }
      ],
      "stateMutability": "view",
      "type": "function"
    },
    {
      "inputs": [
        {
          "internalType": "uint256",
          "name": "tokenId",
          "type": "uint256"
        }
      ],
      "name": "getCharacterAttack",
      "outputs": [
        {
          "internalType": "uint256",
          "name": "",
          "type": "uint256"
        }
      ],
      "stateMutability": "view",
      "type": "function"
    },
    {
      "inputs": [
        {
          "internalType": "uint256",
          "name": "tokenId",
          "type": "uint256"
        }
      ],
      "name": "getCharacterDefense",
      "outputs": [
        {
          "internalType": "uint256",
          "name": "",
          "type": "uint256"
        }
      ],
      "stateMutability": "view",
      "type": "function"
    },
    {
      "inputs": [
        {
          "internalType": "uint256",
          "name": "tokenId",
          "type": "uint256"
        }
      ],
      "name": "getCharacterHealth",
      "outputs": [
        {
          "internalType": "uint256",
          "name": "",
          "type": "uint256"
        }
      ],
      "stateMutability": "view",
      "type": "function"
    },
    {
      "inputs": [
        {
          "internalType": "uint256",
          "name": "tokenId",
          "type": "uint256"
        }
      ],
      "name": "getCharacterLevel",
      "outputs": [
        {
          "internalType": "uint256",
          "name": "",
          "type": "uint256"
        }
      ],
      "stateMutability": "view",
      "type": "function"
    },
    {
      "inputs": [
        {
          "internalType": "uint256",
          "name": "tokenId",
          "type": "uint256"
        }
      ],
      "name": "getCharacterMana",
      "outputs": [
        {
          "internalType": "uint256",
          "name": "",
          "type": "uint256"
        }
      ],
      "stateMutability": "view",
      "type": "function"
    },
    {
      "inputs": [
        {
          "internalType": "uint256",
          "name": "tokenId",
          "type": "uint256"
        }
      ],
      "name": "getCharacterType",
      "outputs": [
        {
          "internalType": "uint256",
          "name": "",
          "type": "uint256"
        }
      ],
      "stateMutability": "view",
      "type": "function"
    },
    {
      "inputs": [],
      "name": "getDefaultRoyaltyInfo",
      "outputs": [
        {
          "internalType": "address",
          "name": "",
          "type": "address"
        },
        {
          "internalType": "uint16",
          "name": "",
          "type": "uint16"
        }
      ],
      "stateMutability": "view",
      "type": "function"
    },
    {
      "inputs": [
        {
          "internalType": "uint256",
          "name": "characterTokenId",
          "type": "uint256"
        }
      ],
      "name": "getEquippedClass",
      "outputs": [
        {
          "internalType": "uint256",
          "name": "",
          "type": "uint256"
        }
      ],
      "stateMutability": "view",
      "type": "function"
    },
    {
      "inputs": [
        {
          "internalType": "uint256",
          "name": "characterTokenId",
          "type": "uint256"
        }
      ],
      "name": "getEquippedItem",
      "outputs": [
        {
          "internalType": "uint256",
          "name": "",
          "type": "uint256"
        }
      ],
      "stateMutability": "view",
      "type": "function"
    },
    {
      "inputs": [
        {
          "internalType": "uint256",
          "name": "characterTokenId",
          "type": "uint256"
        }
      ],
      "name": "getEquippedSkill",
      "outputs": [
        {
          "internalType": "uint256",
          "name": "",
          "type": "uint256"
        }
      ],
      "stateMutability": "view",
      "type": "function"
    },
    {
      "inputs": [
        {
          "internalType": "uint256",
          "name": "_tokenId",
          "type": "uint256"
        }
      ],
      "name": "getRoyaltyInfoForToken",
      "outputs": [
        {
          "internalType": "address",
          "name": "",
          "type": "address"
        },
        {
          "internalType": "uint16",
          "name": "",
          "type": "uint16"
        }
      ],
      "stateMutability": "view",
      "type": "function"
    },
    {
      "inputs": [
        {
          "internalType": "address",
          "name": "owner",
          "type": "address"
        },
        {
          "internalType": "address",
          "name": "operator",
          "type": "address"
        }
      ],
      "name": "isApprovedForAll",
      "outputs": [
        {
          "internalType": "bool",
          "name": "",
          "type": "bool"
        }
      ],
      "stateMutability": "view",
      "type": "function"
    },
    {
      "inputs": [
        {
          "internalType": "address",
          "name": "_operator",
          "type": "address"
        },
        {
          "internalType": "uint256",
          "name": "_tokenId",
          "type": "uint256"
        }
      ],
      "name": "isApprovedOrOwner",
      "outputs": [
        {
          "internalType": "bool",
          "name": "isApprovedOrOwnerOf",
          "type": "bool"
        }
      ],
      "stateMutability": "view",
      "type": "function"
    },
    {
      "inputs": [
        {
          "internalType": "uint256",
          "name": "characterTokenId",
          "type": "uint256"
        }
      ],
      "name": "levelUp",
      "outputs": [],
      "stateMutability": "nonpayable",
      "type": "function"
    },
    {
      "inputs": [
        {
          "internalType": "uint256",
          "name": "_typeId",
          "type": "uint256"
        },
        {
          "internalType": "uint256",
          "name": "_skillTokenId",
          "type": "uint256"
        }
      ],
      "name": "mintNewCharacterWithItemAndEquip",
      "outputs": [],
      "stateMutability": "nonpayable",
      "type": "function"
    },
    {
      "inputs": [
        {
          "internalType": "address",
          "name": "_to",
          "type": "address"
        },
        {
          "internalType": "string",
          "name": "_tokenURI",
          "type": "string"
        }
      ],
      "name": "mintTo",
      "outputs": [],
      "stateMutability": "nonpayable",
      "type": "function"
    },
    {
      "inputs": [
        {
          "internalType": "bytes[]",
          "name": "data",
          "type": "bytes[]"
        }
      ],
      "name": "multicall",
      "outputs": [
        {
          "internalType": "bytes[]",
          "name": "results",
          "type": "bytes[]"
        }
      ],
      "stateMutability": "nonpayable",
      "type": "function"
    },
    {
      "inputs": [],
      "name": "name",
      "outputs": [
        {
          "internalType": "string",
          "name": "",
          "type": "string"
        }
      ],
      "stateMutability": "view",
      "type": "function"
    },
    {
      "inputs": [
        {
          "internalType": "uint256",
          "name": "_typeId",
          "type": "uint256"
        }
      ],
      "name": "newCharacter",
      "outputs": [],
      "stateMutability": "nonpayable",
      "type": "function"
    },
    {
      "inputs": [],
      "name": "nextTokenIdToMint",
      "outputs": [
        {
          "internalType": "uint256",
          "name": "",
          "type": "uint256"
        }
      ],
      "stateMutability": "view",
      "type": "function"
    },
    {
      "inputs": [],
      "name": "numCharacters",
      "outputs": [
        {
          "internalType": "uint256",
          "name": "",
          "type": "uint256"
        }
      ],
      "stateMutability": "view",
      "type": "function"
    },
    {
      "inputs": [
        {
          "internalType": "address",
          "name": "",
          "type": "address"
        },
        {
          "internalType": "address",
          "name": "",
          "type": "address"
        },
        {
          "internalType": "uint256[]",
          "name": "",
          "type": "uint256[]"
        },
        {
          "internalType": "uint256[]",
          "name": "",
          "type": "uint256[]"
        },
        {
          "internalType": "bytes",
          "name": "",
          "type": "bytes"
        }
      ],
      "name": "onERC1155BatchReceived",
      "outputs": [
        {
          "internalType": "bytes4",
          "name": "",
          "type": "bytes4"
        }
      ],
      "stateMutability": "nonpayable",
      "type": "function"
    },
    {
      "inputs": [
        {
          "internalType": "address",
          "name": "",
          "type": "address"
        },
        {
          "internalType": "address",
          "name": "",
          "type": "address"
        },
        {
          "internalType": "uint256",
          "name": "",
          "type": "uint256"
        },
        {
          "internalType": "uint256",
          "name": "",
          "type": "uint256"
        },
        {
          "internalType": "bytes",
          "name": "",
          "type": "bytes"
        }
      ],
      "name": "onERC1155Received",
      "outputs": [
        {
          "internalType": "bytes4",
          "name": "",
          "type": "bytes4"
        }
      ],
      "stateMutability": "nonpayable",
      "type": "function"
    },
    {
      "inputs": [],
      "name": "operatorRestriction",
      "outputs": [
        {
          "internalType": "bool",
          "name": "",
          "type": "bool"
        }
      ],
      "stateMutability": "view",
      "type": "function"
    },
    {
      "inputs": [],
      "name": "owner",
      "outputs": [
        {
          "internalType": "address",
          "name": "",
          "type": "address"
        }
      ],
      "stateMutability": "view",
      "type": "function"
    },
    {
      "inputs": [
        {
          "internalType": "uint256",
          "name": "tokenId",
          "type": "uint256"
        }
      ],
      "name": "ownerOf",
      "outputs": [
        {
          "internalType": "address",
          "name": "",
          "type": "address"
        }
      ],
      "stateMutability": "view",
      "type": "function"
    },
    {
      "inputs": [
        {
          "internalType": "uint256",
          "name": "tokenId",
          "type": "uint256"
        },
        {
          "internalType": "uint256",
          "name": "salePrice",
          "type": "uint256"
        }
      ],
      "name": "royaltyInfo",
      "outputs": [
        {
          "internalType": "address",
          "name": "receiver",
          "type": "address"
        },
        {
          "internalType": "uint256",
          "name": "royaltyAmount",
          "type": "uint256"
        }
      ],
      "stateMutability": "view",
      "type": "function"
    },
    {
      "inputs": [
        {
          "internalType": "address",
          "name": "from",
          "type": "address"
        },
        {
          "internalType": "address",
          "name": "to",
          "type": "address"
        },
        {
          "internalType": "uint256",
          "name": "tokenId",
          "type": "uint256"
        }
      ],
      "name": "safeTransferFrom",
      "outputs": [],
      "stateMutability": "nonpayable",
      "type": "function"
    },
    {
      "inputs": [
        {
          "internalType": "address",
          "name": "from",
          "type": "address"
        },
        {
          "internalType": "address",
          "name": "to",
          "type": "address"
        },
        {
          "internalType": "uint256",
          "name": "tokenId",
          "type": "uint256"
        },
        {
          "internalType": "bytes",
          "name": "data",
          "type": "bytes"
        }
      ],
      "name": "safeTransferFrom",
      "outputs": [],
      "stateMutability": "nonpayable",
      "type": "function"
    },
    {
      "inputs": [
        {
          "internalType": "address",
          "name": "operator",
          "type": "address"
        },
        {
          "internalType": "bool",
          "name": "approved",
          "type": "bool"
        }
      ],
      "name": "setApprovalForAll",
      "outputs": [],
      "stateMutability": "nonpayable",
      "type": "function"
    },
    {
      "inputs": [
        {
          "internalType": "address",
          "name": "_address",
          "type": "address"
        }
      ],
      "name": "setBattleItems",
      "outputs": [],
      "stateMutability": "nonpayable",
      "type": "function"
    },
    {
      "inputs": [
        {
          "internalType": "address",
          "name": "_address",
          "type": "address"
        }
      ],
      "name": "setBattleSkills",
      "outputs": [],
      "stateMutability": "nonpayable",
      "type": "function"
    },
    {
      "inputs": [
        {
          "internalType": "address",
          "name": "_address",
          "type": "address"
        }
      ],
      "name": "setClassContract",
      "outputs": [],
      "stateMutability": "nonpayable",
      "type": "function"
    },
    {
      "inputs": [
        {
          "internalType": "string",
          "name": "_uri",
          "type": "string"
        }
      ],
      "name": "setContractURI",
      "outputs": [],
      "stateMutability": "nonpayable",
      "type": "function"
    },
    {
      "inputs": [
        {
          "internalType": "address",
          "name": "_royaltyRecipient",
          "type": "address"
        },
        {
          "internalType": "uint256",
          "name": "_royaltyBps",
          "type": "uint256"
        }
      ],
      "name": "setDefaultRoyaltyInfo",
      "outputs": [],
      "stateMutability": "nonpayable",
      "type": "function"
    },
    {
      "inputs": [
        {
          "internalType": "bool",
          "name": "_restriction",
          "type": "bool"
        }
      ],
      "name": "setOperatorRestriction",
      "outputs": [],
      "stateMutability": "nonpayable",
      "type": "function"
    },
    {
      "inputs": [
        {
          "internalType": "address",
          "name": "_newOwner",
          "type": "address"
        }
      ],
      "name": "setOwner",
      "outputs": [],
      "stateMutability": "nonpayable",
      "type": "function"
    },
    {
      "inputs": [
        {
          "internalType": "uint256",
          "name": "_tokenId",
          "type": "uint256"
        },
        {
          "internalType": "address",
          "name": "_recipient",
          "type": "address"
        },
        {
          "internalType": "uint256",
          "name": "_bps",
          "type": "uint256"
        }
      ],
      "name": "setRoyaltyInfoForToken",
      "outputs": [],
      "stateMutability": "nonpayable",
      "type": "function"
    },
    {
      "inputs": [
        {
          "internalType": "bytes4",
          "name": "interfaceId",
          "type": "bytes4"
        }
      ],
      "name": "supportsInterface",
      "outputs": [
        {
          "internalType": "bool",
          "name": "",
          "type": "bool"
        }
      ],
      "stateMutability": "view",
      "type": "function"
    },
    {
      "inputs": [],
      "name": "symbol",
      "outputs": [
        {
          "internalType": "string",
          "name": "",
          "type": "string"
        }
      ],
      "stateMutability": "view",
      "type": "function"
    },
    {
      "inputs": [
        {
          "internalType": "uint256",
          "name": "_tokenId",
          "type": "uint256"
        }
      ],
      "name": "tokenURI",
      "outputs": [
        {
          "internalType": "string",
          "name": "",
          "type": "string"
        }
      ],
      "stateMutability": "view",
      "type": "function"
    },
    {
      "inputs": [],
      "name": "totalSupply",
      "outputs": [
        {
          "internalType": "uint256",
          "name": "",
          "type": "uint256"
        }
      ],
      "stateMutability": "view",
      "type": "function"
    },
    {
      "inputs": [
        {
          "internalType": "address",
          "name": "from",
          "type": "address"
        },
        {
          "internalType": "address",
          "name": "to",
          "type": "address"
        },
        {
          "internalType": "uint256",
          "name": "tokenId",
          "type": "uint256"
        }
      ],
      "name": "transferFrom",
      "outputs": [],
      "stateMutability": "nonpayable",
      "type": "function"
    },
    {
      "inputs": [
        {
          "internalType": "uint256",
          "name": "characterTokenId",
          "type": "uint256"
        }
      ],
      "name": "unequipClass",
      "outputs": [],
      "stateMutability": "nonpayable",
      "type": "function"
    },
    {
      "inputs": [
        {
          "internalType": "uint256",
          "name": "characterTokenId",
          "type": "uint256"
        }
      ],
      "name": "unequipItem",
      "outputs": [],
      "stateMutability": "nonpayable",
      "type": "function"
    },
    {
      "inputs": [
        {
          "internalType": "uint256",
          "name": "characterTokenId",
          "type": "uint256"
        }
      ],
      "name": "unequipSkill",
      "outputs": [],
      "stateMutability": "nonpayable",
      "type": "function"
    }
  ],
  "bytecode": "0x60808060405234620007ed576000620000188262000841565b600982526821b430b930b1ba32b960b91b6020830152604051906200003d8262000841565b60048083526310d3919560e21b60208401528351909390926001600160401b0391828511620007da57600294855491600183811c93168015620007cf575b6020841014620007bc578190601f9384811162000769575b5060209084831160011462000700578792620006f4575b50508160011b916000199060031b1c19161785555b815190838211620006e1576003928354600181811c91168015620006d6575b6020821014620006c357908183859493116200066d575b50602091831160011462000605578692620005f9575b50508160011b9160001990841b1c19161790555b8180556daaeb6d7670e522a718067333cd4e803b62000575575b60098054336001600160a01b03198216811790925562000565918691620004c6918991620004279189916001600160a01b03167f8292fce18fa69edf4db7b94ea2e58241df0ae57f97e0a6c9b29067028bf92d768380a3600a80546001600160b01b0319163361ffff60a01b198116919091179091556040518281527f90d7ec04bcb8978719414f82e52e4cb651db41d0e6f8cea6118c2191e6183adb90602090a2600160ff19600e541617600e557f38475885990d8dfe9ca01f0ef160a1b5514426eab9ddbc953a3353410ba78096602060405160018152a180601555620002916040516200022981620007f2565b828152600160208201528260408201526064606082015260646080820152602860a0820152606460c0820152606460e082015260646101008201526064610120820152606461014082015260646101608201526005610180820152826101a08201526200085d565b6200030c604051620002a381620007f2565b828152600160208201528260408201526064606082015260646080820152605060a0820152606460c0820152606460e08201526064610100820152606461012082015260646101408201526064610160820152600561018082015260016101a08201526200085d565b620003866040516200031e81620007f2565b828152600160208201528260408201526064606082015260646080820152606460a0820152606460c0820152606460e082015260646101008201526064610120820152606461014082015260646101608201526005610180820152866101a08201526200085d565b60405190620003958262000825565b8152604051620003a58162000841565b60078152662bb0b93934b7b960c91b60208201526020820152604051620003cc8162000825565b603581527f697066733a2f2f516d5a7a426d6a726a6e37343244783877504868657138586260208201527f7a6b6f775753367871764c4855525453764c51436f00000000000000000000006040820152604082015262000936565b60405190620004368262000825565b6001825260405190620004498262000841565b8152634d61676560e01b602082015260208201526040516200046b8162000825565b603581527f697066733a2f2f516d545945695869547a4268597577755137626a533561714360208201527f68726566454a5a33376173384244724b59786b316a00000000000000000000006040820152604082015262000936565b60405190620004d58262000825565b8152604051620004e58162000841565b6005815264526f67756560d81b602082015260208201526040516200050a8162000825565b603581527f697066733a2f2f516d5579576d7072793853726939426d734853514d4442507460208201527f6e505a6b6f583647533777385a697a706e4658377600000000000000000000006040820152604082015262000936565b6040516149a9908162000c298239f35b803b15620005f55790828092604460405180958193633e9f1edf60e11b8352308b840152733cc6cdda760b79bafa08df41ecfa224f810dceb660248401525af18015620005ea571562000139578111620005d757604052826200042762000139565b634e487b7160e01b825260418452602482fd5b6040513d85823e3d90fd5b8280fd5b0151905038806200010b565b848752602087209250601f198416875b8181106200065457509084600195949392106200063b575b505050811b0190556200011f565b015160001983861b60f8161c191690553880806200062d565b9293602060018192878601518155019501930162000615565b90919250848752602087208380860160051c82019260208710620006b9575b94869594939291940160051c01905b818110620006aa5750620000f5565b8881558594506001016200069b565b925081926200068c565b634e487b7160e01b875260228952602487fd5b90607f1690620000de565b634e487b7160e01b855260418752602485fd5b015190503880620000aa565b888852602088209250601f198416885b81811062000750575090846001959493921062000736575b505050811b018555620000bf565b015160001960f88460031b161c1916905538808062000728565b9293602060018192878601518155019501930162000710565b909150878752602087208480850160051c82019260208610620007b2575b9085949392910160051c01905b818110620007a3575062000093565b88815584935060010162000794565b9250819262000787565b634e487b7160e01b865260228852602486fd5b92607f16926200007b565b634e487b7160e01b845260418652602484fd5b600080fd5b6101c081019081106001600160401b038211176200080f57604052565b634e487b7160e01b600052604160045260246000fd5b606081019081106001600160401b038211176200080f57604052565b604081019081106001600160401b038211176200080f57604052565b601654680100000000000000008110156200080f57600181018060165581101562000920576101a0600d916016600052600e602060002091020192805184556020810151600185015560408101516002850155606081015160038501556080810151600485015560a0810151600585015560c0810151600685015560e0810151600785015561010081015160088501556101208101516009850155610140810151600a850155610160810151600b850155610180810151600c8501550151910155565b634e487b7160e01b600052603260045260246000fd5b601754680100000000000000008110156200080f5760018082018060175582101562000920576000906017825260209260038484209102018451815581810192848601519182519460018060401b039586811162000c14578154948686811c9616801562000c09575b8987101462000bf557601f9586811162000bad575b50889086831160011462000b3d5791806002949260409694889262000b31575b5050600019600383901b1c191690881b1790555b0196015190815194851162000b1d5786548481811c9116801562000b12575b8782101462000afe5783811162000ab6575b508592851160011462000a5357939450849291908362000a47575b50501b916000199060031b1c1916179055565b01519250388062000a34565b86815285812093958591601f198316915b8883831062000a9b575050501062000a81575b505050811b019055565b015160001960f88460031b161c1916905538808062000a77565b85870151885590960195948501948793509081019062000a64565b8782528682208480880160051c82019289891062000af4575b0160051c019085905b82811062000ae857505062000a19565b83815501859062000ad8565b9250819262000acf565b634e487b7160e01b82526022600452602482fd5b90607f169062000a07565b634e487b7160e01b81526041600452602490fd5b015190503880620009d4565b8386528986208893929091601f198416885b8d82821062000b96575050916040979593918560029896941062000b7c575b505050811b019055620009e8565b015160001960f88460031b161c1916905538808062000b6e565b8385015186558c9790950194938401930162000b4f565b8386528986208780850160051c8201928c861062000beb575b0160051c019088905b82811062000bdf575050620009b4565b87815501889062000bcf565b9250819262000bc6565b634e487b7160e01b85526022600452602485fd5b95607f16956200099f565b634e487b7160e01b84526041600452602484fdfe60806040526004361015610013575b600080fd5b60003560e01c806275a3171461052657806301ffc9a71461051d57806306fdde0314610514578063081812fc1461050b57806308ec6c3c14610502578063095ea7b3146104f95780630ce90ec2146104f05780630db0de52146104e757806313af4035146104de57806315d57827146104d557806318160ddd146104cc5780631bd2a477146104c357806323b872dd146104ba5780632401c739146104b15780632419f51b146104a8578063262a8c3b1461049f5780632a55205a146104965780632c8854fe1461048d57806332f0cd64146104845780633b1475a71461047b57806341f434341461047257806342842e0e1461046957806342966c6814610460578063430c20811461045757806343a511d51461044e578063479d35e6146104455780634cc157df1461043c578063504c6e011461043357806355483d451461042a5780635ada8456146104215780635cec154914610418578063600dd5ea1461040f5780636352211e1461040657806363b45e2d146103fd57806367772584146103f45780636ffd17d4146103eb57806370a08231146103e257806373726d50146103d9578063754a81d9146103d057806375dd8ace146103c7578063835576ed146103be5780638da5cb5b146103b55780639048e5ca146103ac578063938e3d7b146103a3578063954643ca1461039a57806395d89b41146103915780639bcf7a15146103885780639c7e334c1461037f578063a22cb46514610376578063a6d13ee21461036d578063ac9650d814610364578063b24f2d391461035b578063b88d4fde14610352578063bc197c8114610349578063bcb7ea0814610340578063c87b56dd14610337578063d2e4c1891461032e578063d5937dae14610325578063dabb05311461031c578063e5f69e4114610313578063e8a3d4851461030a578063e985e9c514610301578063ef3877c5146102f8578063f1be42f1146102ef5763f23a6e61146102e757600080fd5b61000e612e05565b5061000e612de6565b5061000e612db9565b5061000e612d5b565b5061000e612cc8565b5061000e612aea565b5061000e6129b6565b5061000e612971565b5061000e612906565b5061000e6128d2565b5061000e6128b2565b5061000e612829565b5061000e612745565b5061000e61270e565b5061000e6126a8565b5061000e612616565b5061000e612561565b5061000e612410565b5061000e61235b565b5061000e6122b6565b5061000e61228c565b5061000e61210e565b5061000e6120de565b5061000e6120b4565b5061000e612097565b5061000e612067565b5061000e611ea9565b5061000e611df2565b5061000e611d96565b5061000e611d6c565b5061000e611d3c565b5061000e611d1d565b5061000e611cec565b5061000e611c22565b5061000e611bad565b5061000e611960565b5061000e611936565b5061000e611912565b5061000e6118d4565b5061000e6118a4565b5061000e611808565b5061000e611768565b5061000e611548565b5061000e6114be565b5061000e611494565b5061000e611475565b5061000e6113ae565b5061000e611374565b5061000e611304565b5061000e611078565b5061000e610ff1565b5061000e610fc1565b5061000e610f90565b5061000e610f2b565b5061000e610f07565b5061000e610e2a565b5061000e610d7a565b5061000e610d35565b5061000e610c44565b5061000e610b9b565b5061000e610b1c565b5061000e610aeb565b5061000e610a0a565b5061000e6108f6565b5061000e6106ae565b600435906001600160a01b038216820361000e57565b602435906001600160a01b038216820361000e57565b50634e487b7160e01b600052604160045260246000fd5b6001600160401b03811161058557604052565b61058d61055b565b604052565b604081019081106001600160401b0382111761058557604052565b6101c081019081106001600160401b0382111761058557604052565b606081019081106001600160401b0382111761058557604052565b602081019081106001600160401b0382111761058557604052565b90601f801991011681019081106001600160401b0382111761058557604052565b6040519061062d826105ad565b565b6020906001600160401b03811161064c575b601f01601f19160190565b61065461055b565b610641565b9291926106658261062f565b9161067360405193846105ff565b82948184528183011161000e578281602093846000960137010152565b9080601f8301121561000e578160206106ab93359101610659565b90565b503461000e5760408060031936011261000e576106c961052f565b6001600160401b039060243582811161000e576106eb60049136908301610690565b9360018060a01b039261070384600954163314612ece565b6107106000968754612fbc565b81519061071c826105e4565b86825286549481169586156108d5576107ff9061077861073b846130ee565b61075e61074f82546001600160401b031690565b6001016001600160401b031690565b6001600160401b03166001600160401b0319825416179055565b6107c7610784846130ee565b805461079b9060401c6001600160401b031661074f565b90805467ffffffffffffffff60401b191660409290921b67ffffffffffffffff60401b16919091179055565b6107e4836107df896000526004602052604060002090565b613263565b42166107fa876000526004602052604060002090565b613282565b8495600190818701833b151560001461088a5782805b610832575b505050505050505082540361082e57815580f35b5080fd5b1561087d575b8989838c6000805160206149548339815191528180a461086361085f87868d019c88613701565b1590565b61086d5783610815565b86516368d2bf6b60e11b81528890fd5b808910610838578061081a565b945095509350505081805b6108a3575b50505050815580f35b156108c8575b84828086019585886000805160206149548339815191528180a4610895565b8084106108a9578061089a565b50505051622e076360e81b8152fd5b6001600160e01b031981160361000e57565b503461000e57602036600319011261000e576020600435610916816108e4565b6001600160e01b0319166301ffc9a760e01b81148015610996575b8015610986575b8015610976575b80918115610954575b50506040519015158152f35b630271189760e51b149150811561096e575b503880610948565b905038610966565b5063152a902d60e11b811461093f565b50635b5e139f60e01b8114610938565b506380ac58cd60e01b8114610931565b600091031261000e57565b60005b8381106109c45750506000910152565b81810151838201526020016109b4565b906020916109ed815180928185528580860191016109b1565b601f01601f1916010190565b9060206106ab9281815201906109d4565b503461000e57600080600319360112610ae85760405181600254610a2d81611a26565b80845290600190818116908115610ac05750600114610a67575b610a6384610a57818803826105ff565b604051918291826109f9565b0390f35b60028352602094507f405787fa12a823e0f2b7631cc41b3ba8828b3321ca811111fa75cd3aa3bb5ace5b828410610aad5750505081610a6393610a579282010193610a47565b8054858501870152928501928101610a91565b610a639650610a579450602092508593915060ff191682840152151560051b82010193610a47565b80fd5b503461000e57602036600319011261000e576020610b0a60043561320a565b6040516001600160a01b039091168152f35b503461000e57602036600319011261000e57610b3661052f565b6009546001600160a01b03919082163303610b61571660018060a01b03196014541617601455600080f35b60405162461bcd60e51b815260206004820152600e60248201526d139bdd08185d5d1a1bdc9a5e995960921b6044820152606490fd5b0390fd5b503461000e57604036600319011261000e57610bb561052f565b602435610bc182613a52565b6001600160a01b039081610bd482613164565b51168092841614610c3257813303610bf2575b610bf092613605565b005b60008281526007602090815260408083203384529091529020610c1b9061085f905b5460ff1690565b15610be7576040516367d9dca160e11b8152600490fd5b60405163250fdee360e21b8152600490fd5b503461000e57602036600319011261000e57600435806000526010602052604060002090600c820180549182610cd957610cd592600292610caa610c9a610c8d610ccb95613164565b516001600160a01b031690565b6001600160a01b031633146142ef565b610cc46001870192610cbc8454613813565b809455613829565b9055613b1e565b9201918254613837565b9055005b60405162461bcd60e51b815260206004820152602e60248201527f4d7573742075736520757020616c6c207374617420706f696e7473206265666f60448201526d07265206c6576656c696e672075760941b6064820152608490fd5b503461000e57602036600319011261000e57610d4f61052f565b6009546001600160a01b03919082163303610b61571660018060a01b03196013541617601355600080f35b503461000e57602036600319011261000e57610d9461052f565b600954906001600160a01b038083169133839003610b6157166001600160a01b03199290921682176009557f8292fce18fa69edf4db7b94ea2e58241df0ae57f97e0a6c9b29067028bf92d76600080a3005b50634e487b7160e01b600052603260045260246000fd5b601654811015610e1d575b6016600052600e602060002091020190600090565b610e25610de6565b610e08565b503461000e57602036600319011261000e5760043560165481101561000e57610e5290610dfd565b508054610a6360018301549260028101549060038101546004820154600583015460068401546007850154600886015491600987015493600a88015495600b89015497600d600c8b01549a01549a6040519e8f9e8f9b99979593919e9d9c9a98969492909e6101c08d019f8d5260208d015260408c015260608b015260808a015260a089015260c088015260e08701526101008601526101208501526101408401526101608301526101808201526101a00152565b503461000e57600036600319011261000e5760206000546001549003604051908152f35b503461000e57602036600319011261000e5760043560005260106020526020600d60406000200154604051908152f35b606090600319011261000e576001600160a01b0390600435828116810361000e5791602435908116810361000e579060443590565b503461000e57610bf0610fa236610f5b565b916001600160a01b038116331461343657610fbc33613a52565b613436565b503461000e57602036600319011261000e5760043560005260116020526020600260406000200154604051908152f35b503461000e57602036600319011261000e57600435600c5481101561104357600c6000527fdf6966c971051c3d54ec59162606531493a51404a002842f56009d7e5cf4a8c70154604051908152602090f35b60405162461bcd60e51b815260206004820152600d60248201526c092dcecc2d8d2c840d2dcc8caf609b1b6044820152606490fd5b503461000e57604036600319011261000e57601354602435908190600435906110b1906001600160a01b03165b6001600160a01b031690565b60405163bd85b03960e01b81526004810184905261112a906020906110f0908281602481885afa9081156112f7575b6000916112da575b501515614340565b604051627eeac760e11b8152336004820152602481018690528181604481875afa9182156112cd575b6000926112a0575b50501515614384565b61114d836001611144856000526011602052604060002090565b015414156143cc565b6001611163836000526011602052604060002090565b015490811580159081611293575b8115611279575b5061120a575b50506111966001916000526011602052604060002090565b01556013546111ad906001600160a01b03166110a5565b803b1561000e57604051637921219560e11b81529060009082908183816111d988303360048501614410565b03925af180156111fd575b6111ea57005b806111f7610bf092610572565b806109a6565b6112056136c4565b6111e4565b80919293503b1561000e57839260008061124261119694600196604051948580948193637921219560e11b8352333060048501614410565b03925af1801561126c575b611259575b509161117e565b806111f761126692610572565b38611252565b6112746136c4565b61124d565b905080611287575b38611178565b5061270f841415611281565b61270f8414159150611171565b6112bf9250803d106112c6575b6112b781836105ff565b810190614331565b3880611121565b503d6112ad565b6112d56136c4565b611119565b6112f19150833d85116112c6576112b781836105ff565b386110e8565b6112ff6136c4565b6110e0565b503461000e57604036600319011261000e57612710602435610a6361ffff61132d600435613b4a565b9190911692838102938185041490151715611367575b604080516001600160a01b0390921682529390920460208301529091829190820190565b61136f6137fc565b611343565b503461000e57602036600319011261000e5760043560005260106020526020600360406000200154604051908152f35b8015150361000e57565b503461000e57602036600319011261000e576004356113cc816113a4565b6009546001600160a01b0316330361141c5760207f38475885990d8dfe9ca01f0ef160a1b5514426eab9ddbc953a3353410ba7809691151560ff19600e541660ff821617600e55604051908152a1005b60405162461bcd60e51b815260206004820152602b60248201527f4e6f7420617574686f72697a656420746f20736574206f70657261746f72207260448201526a32b9ba3934b1ba34b7b71760a91b6064820152608490fd5b503461000e57600036600319011261000e576020600054604051908152f35b503461000e57600036600319011261000e5760206040516daaeb6d7670e522a718067333cd4e8152f35b503461000e576114cd36610f5b565b6001600160a01b038316331415918261153a575b604051926114ee846105e4565b6000845261152c575b611502828286613436565b803b61150a57005b611513936137aa565b1561151a57005b6040516368d2bf6b60e11b8152600490fd5b61153533613a52565b6114f7565b61154333613a52565b6114e1565b503461000e57602036600319011261000e5760043561156681613164565b80516001600160a01b039081169081903382148015611728575b8015611714575b156117025760009361159983876135b8565b6116286115a5846130ee565b6115e96115cc6115bc83546001600160401b031690565b600019016001600160401b031690565b825467ffffffffffffffff19166001600160401b03909116178255565b80546116009060801c6001600160401b031661074f565b815467ffffffffffffffff60801b191660809190911b67ffffffffffffffff60801b16179055565b61166f61163f876000526004602052604060002090565b6116498582613263565b61165c6001600160401b03421682613282565b805460ff60e01b1916600160e01b179055565b60018601611687816000526004602052604060002090565b80549093166001600160a01b0316156116c5575b505050506000805160206149548339815191528280a4610bf06116c060015460010190565b600155565b8554036116d3575b8061169b565b60206116f4916116e66116fa9585613263565b01516001600160401b031690565b90613282565b3880806116cd565b604051632ce44b5f60e11b8152600490fd5b50336117226110a58761320a565b14611587565b50611763610c143361174c8560018060a01b03166000526007602052604060002090565b9060018060a01b0316600052602052604060002090565b611580565b503461000e57604036600319011261000e57602061178461052f565b602435906001600160a01b038061179a84613164565b511692818316928484149485156117d8575b505083156117c2575b5050506040519015158152f35b6117ce9192935061320a565b16143880806117b5565b60009081526007875260408082206001600160a01b03939093168252602092909252205460ff16935038806117ac565b503461000e57602036600319011261000e57600435611863600161185b8161183a856000526011602052604060002090565b01549361184b61270f861415614448565b6000526011602052604060002090565b0161270f9055565b601354611878906001600160a01b03166110a5565b803b1561000e57604051637921219560e11b81529060009082908183816111d988333060048501614410565b503461000e57602036600319011261000e5760043560005260106020526020600660406000200154604051908152f35b503461000e57602036600319011261000e576118f1600435613b4a565b604080516001600160a01b0393909316835261ffff91909116602083015290f35b503461000e57600036600319011261000e57602060ff600e54166040519015158152f35b503461000e57600036600319011261000e576013546040516001600160a01b039091168152602090f35b503461000e57604036600319011261000e57602435611980600435613e9b565b6012546001600160a01b031690813b1561000e57600080610bf09360446040518094819363bfa0fedb60e01b83528760048401523360248401525af180156119ec575b6119d9575b506119d4601554613cc5565b614557565b806111f76119e692610572565b386119c8565b6119f46136c4565b6119c3565b601754811015611a19575b60176000526003602060002091020190600090565b611a21610de6565b611a04565b90600182811c92168015611a56575b6020831014611a4057565b634e487b7160e01b600052602260045260246000fd5b91607f1691611a35565b6040519060008260085491611a7483611a26565b808352600193808516908115611ae85750600114611a9a575b5061062d925003836105ff565b6008600090815260008051602061493483398151915294602093509091905b818310611ad057505061062d935082010138611a8d565b85548884018501529485019487945091830191611ab9565b905061062d94506020925060ff191682840152151560051b82010138611a8d565b9060405191826000825492611b1d84611a26565b908184526001948581169081600014611b8a5750600114611b47575b505061062d925003836105ff565b9093915060005260209081600020936000915b818310611b7257505061062d93508201013880611b39565b85548884018501529485019487945091830191611b5a565b91505061062d94506020925060ff191682840152151560051b8201013880611b39565b503461000e57602036600319011261000e5760043560175481101561000e576017600052600360206000209102018054610a63611bf86002611bf160018601611b09565b9401611b09565b611c1460405194859485526060602086015260608501906109d4565b9083820360408501526109d4565b503461000e57604036600319011261000e57611c3c61052f565b600954602435916001600160a01b039182163303610b61576127108311611cb557600a80546001600160b01b0319169190921690811760a084901b61ffff60a01b1617909155604051918252907f90d7ec04bcb8978719414f82e52e4cb651db41d0e6f8cea6118c2191e6183adb9080602081010390a2005b60405162461bcd60e51b815260206004820152600f60248201526e45786365656473206d61782062707360881b6044820152606490fd5b503461000e57602036600319011261000e5760206001600160a01b03611d13600435613164565b5116604051908152f35b503461000e57600036600319011261000e576020600c54604051908152f35b503461000e57602036600319011261000e5760043560005260106020526020600560406000200154604051908152f35b503461000e57600036600319011261000e576012546040516001600160a01b039091168152602090f35b503461000e57602036600319011261000e576001600160a01b03611db861052f565b168015611de057600052600560205260206001600160401b0360406000205416604051908152f35b6040516323d3ad8160e21b8152600490fd5b503461000e57602036600319011261000e57600435600081819282526011602052611e34611e2d60408420549261184b61270f8514156147e3565b61270f9055565b601254611e49906001600160a01b03166110a5565b90813b15611ea5578291611e7591604051948580948193637921219560e11b8352333060048501614410565b03925af18015611e98575b611e88575080f35b806111f7611e9592610572565b80f35b611ea06136c4565b611e80565b5050fd5b503461000e57608036600319011261000e57611ec361052f565b602435604435916001600160401b039283811161000e57611ee8903690600401610690565b9160643584811161000e57611f01903690600401610690565b91611f1760018060a01b03600954163314612ece565b600093845483810180911161205a575b600c5490600160401b82101561204d575b611f6881611f4d600194858101600c556137d3565b90919082549060031b600019811b9283911b16911916179055565b86526020600d815260408720928051988911612040575b611f9389611f8d8654611a26565b86612f68565b81601f8a11600114611fd257509780928192899a611e959a94611fc7575b50501b916000199060031b1c19161790556132ad565b015192503880611fb1565b909891601f19831699611fea86600052602060002090565b928a905b8c821061202957505083611e959a9b10612010575b505050811b0190556132ad565b015160001960f88460031b161c19169055388080612003565b808785968294968601518155019501930190611fee565b61204861055b565b611f7f565b61205561055b565b611f38565b6120626137fc565b611f27565b503461000e57602036600319011261000e5760043560005260106020526020600460406000200154604051908152f35b503461000e57602036600319011261000e57610bf0600435613e9b565b503461000e57600036600319011261000e576009546040516001600160a01b039091168152602090f35b503461000e57602036600319011261000e5760043560005260116020526020600160406000200154604051908152f35b503461000e5760208060031936011261000e576001600160401b039060043582811161000e57612142903690600401610690565b6009549091906001600160a01b03163303610b615761215f611a60565b90825193841161227f575b61217e84612179600854611a26565b612f14565b80601f85116001146121eb575092807fc9c7c3fe08b88b4df9d4d47ef47d2c43d55c025a0ba88ca442580ed9e7348a16946000916121e0575b508160011b916000199060031b1c1916176008555b6121db6040519283928361393a565b0390a1005b9050830151386121b7565b600860005290601f198516600080516020614934833981519152926000905b8282106122675750509185917fc9c7c3fe08b88b4df9d4d47ef47d2c43d55c025a0ba88ca442580ed9e7348a16966001941061224e575b5050811b016008556121cc565b85015160001960f88460031b161c191690553880612241565b80600185968294968a0151815501950193019061220a565b61228761055b565b61216a565b503461000e57600036600319011261000e576014546040516001600160a01b039091168152602090f35b503461000e57600080600319360112610ae857604051816003546122d981611a26565b80845290600190818116908115610ac0575060011461230257610a6384610a57818803826105ff565b60038352602094507fc2575a0e9e593c00f959f8c92f12db2869c3395a3b0502d05e2516446f71f85b5b8284106123485750505081610a6393610a579282010193610a47565b805485850187015292850192810161232c565b503461000e57606036600319011261000e57600435612378610545565b6009546001600160a01b0392916044359184163303610b61576127108211611cb5577f7365cf4122f072a3365c20d54eff9b38d73c096c28e1892ec8f5b0e403a0f12d9161240b91600186604051926123d084610592565b16968783526123f7602084019185835288600052600b602052604060002094511684613263565b519101556040519081529081906020820190565b0390a3005b503461000e5760a036600319011261000e5760843560243560443560643560043561243a81613164565b516001600160a01b0316612458906001600160a01b0316331461424c565b84826124648587613837565b9061246e91613837565b9061247891613837565b600514612484906142a9565b612498906000526010602052604060002090565b9360078501848154906124aa91613837565b905560088501838154906124bd91613837565b905560098501828154906124d091613837565b9055600a8501818154906124e391613837565b90556124ee90613b34565b60038501908154906124ff91613837565b905561250a90613b34565b600484019081549061251b91613837565b905561252690613b34565b600b83019081549061253791613837565b905561254290613b34565b600582019081549061255391613837565b9055600c0160009055600080f35b503461000e57604036600319011261000e5761257b61052f565b602435612587816113a4565b61259082613a52565b6001600160a01b03821691338314612604573360009081526007602090815260408083206001600160a01b039094168352929052209015159060ff1981541660ff83161790556040519081527f17307eab39ab6107e8899845ad3d59bd9653f200f220920489ca2b5937696c3160203392a3005b60405163b06307db60e01b8152600490fd5b503461000e57602036600319011261000e5760043560005260106020526020600160406000200154604051908152f35b602080820190808352835180925260408301928160408460051b8301019501936000915b84831061267a5750505050505090565b9091929394958480612698600193603f198682030187528a516109d4565b980193019301919493929061266a565b503461000e57602036600319011261000e576001600160401b0360043581811161000e573660238201121561000e57806004013591821161000e573660248360051b8301011161000e57610a63916024612702920161397b565b60405191829182612646565b503461000e57600036600319011261000e57600a54604080516001600160a01b038316815260a09290921c61ffff16602083015290f35b503461000e57608036600319011261000e5761275f61052f565b612767610545565b6044356064356001600160401b03811161000e57612789903690600401610690565b91336001600160a01b0385160361152c57611502828286613436565b6020906001600160401b0381116127be575b60051b0190565b6127c661055b565b6127b7565b81601f8201121561000e578035916127e2836127a5565b926127f060405194856105ff565b808452602092838086019260051b82010192831161000e578301905b82821061281a575050505090565b8135815290830190830161280c565b503461000e5760a036600319011261000e5761284361052f565b5061284c610545565b506001600160401b0360443581811161000e5761286d9036906004016127cb565b5060643581811161000e576128869036906004016127cb565b5060843590811161000e5761289f903690600401610690565b5060405163bc197c8160e01b8152602090f35b503461000e57604036600319011261000e57610bf0602435600435614557565b503461000e57602036600319011261000e57610a636128f2600435612e5b565b6040519182916020835260208301906109d4565b503461000e57602036600319011261000e57600261295a60043582612935826000526011602052604060002090565b0154906129438215156148f3565b600093849384926000526011602052604060002090565b0155601454611e49906001600160a01b03166110a5565b503461000e57602036600319011261000e5761298b61052f565b6009546001600160a01b03919082163303610b61571660018060a01b03196012541617601255600080f35b503461000e57602036600319011261000e576040516129d4816105ad565b6101a06000918281528260208201528260408201528260608201528260808201528260a08201528260c08201528260e082015282610100820152826101208201528261014082015282610160820152826101808201520152610a63612a4d612a486004356000526010602052604060002090565b613dbc565b604051918291829190916101c0810192805182526020810151602083015260408101516040830152606081015160608301526080810151608083015260a081015160a083015260c081015160c083015260e081015160e0830152610100808201519083015261012080820151908301526101408082015190830152610160808201519083015261018080820151908301526101a080910151910152565b503461000e57604036600319011261000e5760145460243590819060043590612b1b906001600160a01b03166110a5565b60405163bd85b03960e01b815260048101849052612b9490602090612b5a908281602481885afa908115612cbb575b600091612c9e575b501515614823565b604051627eeac760e11b8152336004820152602481018690528181604481875afa918215612c91575b600092612c74575b50501515614862565b612bb7836002612bae856000526011602052604060002090565b015414156148ae565b6002612bcd836000526011602052604060002090565b01549081612c05575b5050612bee6002916000526011602052604060002090565b01556014546111ad906001600160a01b03166110a5565b80919293503b1561000e578392600080612c3d612bee94600296604051948580948193637921219560e11b8352333060048501614410565b03925af18015612c67575b612c54575b5091612bd6565b806111f7612c6192610572565b38612c4d565b612c6f6136c4565b612c48565b612c8a9250803d106112c6576112b781836105ff565b3880612b8b565b612c996136c4565b612b83565b612cb59150833d85116112c6576112b781836105ff565b38612b52565b612cc36136c4565b612b4a565b503461000e57600080600319360112610ae85760405181600854612ceb81611a26565b80845290600190818116908115610ac05750600114612d1457610a6384610a57818803826105ff565b60088352602094506000805160206149348339815191525b828410612d485750505081610a6393610a579282010193610a47565b8054858501870152928501928101612d2c565b503461000e57604036600319011261000e57602060ff612dad612d7c61052f565b612d84610545565b6001600160a01b0391821660009081526007865260408082209290931681526020919091522090565b54166040519015158152f35b503461000e57602036600319011261000e5760043560005260116020526020604060002054604051908152f35b503461000e57600036600319011261000e576020601554604051908152f35b503461000e5760a036600319011261000e57612e1f61052f565b50612e28610545565b506084356001600160401b03811161000e57612e48903690600401610690565b5060405163f23a6e6160e01b8152602090f35b806000526020600f8152612e726040600020611b09565b8051612ec857506106ab90612e8f612e8984613866565b93613cf3565b926040519381612ea886935180928680870191016109b1565b8201612ebc825180938680850191016109b1565b010380845201826105ff565b91505090565b15612ed557565b60405162461bcd60e51b81526020600482015260176024820152762737ba1030baba3437b934bd32b2103a379036b4b73a1760491b6044820152606490fd5b601f8111612f20575050565b6000906008825260208220906020601f850160051c83019410612f5e575b601f0160051c01915b828110612f5357505050565b818155600101612f47565b9092508290612f3e565b90601f8111612f7657505050565b600091825260208220906020601f850160051c83019410612fb2575b601f0160051c01915b828110612fa757505050565b818155600101612f9b565b9092508290612f92565b9190600090838252602093600f8552612fd86040842054611a26565b6130b7578252600f845260408220918151916001600160401b0383116130aa575b61300783611f8d8654611a26565b8591601f841160011461304057839495965092613035575b50508160011b916000199060031b1c1916179055565b01519050388061301f565b9190601f1984169661305786600052602060002090565b93905b88821061309257505083600195969710613079575b505050811b019055565b015160001960f88460031b161c1916905538808061306f565b8060018596829496860151815501950193019061305a565b6130b261055b565b612ff9565b60405162461bcd60e51b815260048101869052600f60248201526e15549248185b1c9958591e481cd95d608a1b6044820152606490fd5b6001600160a01b0316600090815260056020526040902090565b60405190613115826105c9565b60006040838281528260208201520152565b90604051613134816105c9565b91546001600160a01b038116835260a081901c6001600160401b0316602084015260e01c60ff1615156040830152565b61316c613108565b5080600054811061318a575b604051636f96cda160e11b8152600490fd5b6131a16131a6916000526004602052604060002090565b613127565b6131b661085f6040830151151590565b156131785780516001600160a01b031661320557505b600019016131e76131a1826000526004602052604060002090565b80516131fb906001600160a01b03166110a5565b61320557506131cc565b905090565b600054811080613247575b15613235576000908152600660205260409020546001600160a01b031690565b6040516333d1c03960e21b8152600490fd5b5080600052600460205260ff60406000205460e01c1615613215565b80546001600160a01b0319166001600160a01b03909216919091179055565b805467ffffffffffffffff60a01b191660a09290921b67ffffffffffffffff60a01b16919091179055565b6000805492939092916001600160a01b03811680156134255785156134135761335b6001600160401b0361332d81891661330b6132e9876130ee565b61075e836132fe83546001600160401b031690565b016001600160401b031690565b61079b613317876130ee565b916132fe83546001600160401b039060401c1690565b613345846107df886000526004602052604060002090565b42166107fa866000526004602052604060002090565b8395840190823b15156000146133ca5760019182805b613386575b505050505050815403610ae85755565b156133bd575b868883896000805160206149548339815191528180a46133b361085f87868c019b88613701565b61151a5783613371565b80881061338c5780613376565b935091505060019081805b6133e1575b5050505055565b15613406575b83828087019685876000805160206149548339815191528180a46133d5565b8085106133e757806133da565b60405163b562e8dd60e01b8152600490fd5b604051622e076360e81b8152600490fd5b61343f83613164565b80516001600160a01b0380841693929181168490036135a757833314801561357e575b801561356a575b15611702578416938415613558576134df9061348584886135b8565b6134a5613491856130ee565b61075e6115bc82546001600160401b031690565b6134b161073b826130ee565b6134cf6134c8886000526004602052604060002090565b9182613263565b6001600160401b03421690613282565b60018501906134f8826000526004602052604060002090565b805490929061350f906001600160a01b03166110a5565b1561352e575b50505050600080516020614954833981519152600080a4565b6000540361353d575b80613515565b60206116f4916116e66135509585613263565b388080613537565b604051633a954ecd60e21b8152600490fd5b50336135786110a58861320a565b14613469565b506135a2610c143361174c8660018060a01b03166000526007602052604060002090565b613462565b60405162a1148160e81b8152600490fd5b600081815260066020526040812080546001600160a01b031916905590916001600160a01b03167f8c5be1e5ebec7d5bd14f71427d1e84f3dd0314c0f7b2291e5b200ac8c7c3b9258280a4565b91909182600052600660205261361f816040600020613263565b6001600160a01b0390811691167f8c5be1e5ebec7d5bd14f71427d1e84f3dd0314c0f7b2291e5b200ac8c7c3b925600080a4565b9081602091031261000e57516106ab816108e4565b6106ab939260809260018060a01b0316825260006020830152604082015281606082015201906109d4565b6001600160a01b0391821681529116602082015260408101919091526080606082018190526106ab929101906109d4565b506040513d6000823e3d90fd5b3d156136fc573d906136e28261062f565b916136f060405193846105ff565b82523d6000602084013e565b606090565b61372a60209160009394604051948580948193630a85bd0160e11b998a84523360048501613668565b03926001600160a01b03165af16000918161377a575b5061376c5761374d6136d1565b80519081613767576040516368d2bf6b60e11b8152600490fd5b602001fd5b6001600160e01b0319161490565b61379c91925060203d81116137a3575b61379481836105ff565b810190613653565b9038613740565b503d61378a565b9260209161372a936000604051809681958294630a85bd0160e11b9a8b85523360048601613693565b600c548110156137ef575b600c60005260206000200190600090565b6137f7610de6565b6137de565b50634e487b7160e01b600052601160045260246000fd5b906001820180921161382157565b61062d6137fc565b906005820180921161382157565b9190820180921161382157565b6020918151811015613859575b60051b010190565b613861610de6565b613851565b600c54906040519081838152826020809201600c600052826000209260005b87811061392357505061389a925003836105ff565b60005b8381106138db5760405162461bcd60e51b815260206004820152600f60248201526e125b9d985b1a59081d1bdad95b9259608a1b6044820152606490fd5b6138e58184613844565b5182106138fa576138f590613813565b61389d565b6106ab935061390d915061391e92613844565b51600052600d602052604060002090565b611b09565b845483526001948501948794509282019201613885565b90916139516106ab936040845260408401906109d4565b9160208184039101526109d4565b600190600019811461396f570190565b6139776137fc565b0190565b90613985816127a5565b9161399360405193846105ff565b818352601f196139a2836127a5565b0160005b818110613a2c57505060005b8281106139bf5750505090565b8060051b820135601e198336030181121561000e578201908135916001600160401b03831161000e57602001823603811361000e57613a06613a0c91613a27943691610659565b30613bc3565b613a168287613844565b52613a218186613844565b5061395f565b6139b2565b8060606020809388010152016139a6565b9081602091031261000e57516106ab816113a4565b600e5460ff16613a5f5750565b6daaeb6d7670e522a718067333cd4e803b613a78575050565b604051633185c44d60e21b81523060048201526001600160a01b038316602482015290602090829060449082905afa908115613b11575b600091613ae3575b5015613ac05750565b604051633b79c77360e21b81526001600160a01b03919091166004820152602490fd5b613b04915060203d8111613b0a575b613afc81836105ff565b810190613a3d565b38613ab7565b503d613af2565b613b196136c4565b613aaf565b9060648202918083046064149015171561382157565b9060058202918083046005149015171561382157565b600052600b602052604060002090602060405192604084018481106001600160401b03821117613bb6575b60405280546001600160a01b039081168086526001909201549290940182905280613bad57505061ffff600a549283169260a01c1690565b925061ffff1690565b613bbe61055b565b613b75565b9060405190613bd1826105c9565b602782527f416464726573733a206c6f772d6c6576656c2064656c65676174652063616c6c6020830152660819985a5b195960ca1b6040830152823b15613c31576000816106ab9460208394519201905af4613c2b6136d1565b90613c85565b60405162461bcd60e51b815260206004820152602660248201527f416464726573733a2064656c65676174652063616c6c20746f206e6f6e2d636f6044820152651b9d1c9858dd60d21b6064820152608490fd5b90919015613c91575090565b815115613ca15750805190602001fd5b60405162461bcd60e51b815260206004820152908190610b979060248301906109d4565b60001981019190821161382157565b906020918051821015613ce657010190565b613cee610de6565b010190565b8015613d9e57806000908282935b613d8a5750613d0f8361062f565b92613d1d60405194856105ff565b80845281601f19613d2d8361062f565b013660208701375b613d3f5750505090565b613d4890613cc5565b90600a9060308282068101809111613d7d575b60f81b6001600160f81b031916841a613d748487613cd4565b53049081613d35565b613d856137fc565b613d5b565b92613d96600a9161395f565b930480613d01565b50604051613dab81610592565b60018152600360fc1b602082015290565b90600d613dc7610620565b928054845260018101546020850152600281015460408501526003810154606085015260048101546080850152600581015460a0850152600681015460c0850152600781015460e085015260088101546101008501526009810154610120850152600a810154610140850152600b810154610160850152600c81015461018085015201546101a0830152565b15613e5a57565b60405162461bcd60e51b8152602060048201526019602482015278125b9d985b1a590818da185c9858dd195c881d1e5c19481251603a1b6044820152606490fd5b6017548110613ea990613e53565b613eb2336140fb565b60158054613ebf836119f9565b50600201613ecc90611b09565b613ed591612fbc565b8054613ee083610dfd565b506001015490613eef84610dfd565b506002015484613efe81610dfd565b5060030154613f0c82610dfd565b5060040154613f1a83610dfd565b5060050154613f2884610dfd565b5060060154613f3685610dfd565b506007015490613f4586610dfd565b506008015492613f5487610dfd565b506009015494613f6388610dfd565b50600a015496613f7289610dfd565b50600b015498613f8190610dfd565b50600c015499613f8f610620565b9c8d8d81526020015260408d015260608c015260808b015260a08a015260c089015260e0880152610100870152610120860152610140850152610160840152610180830152836101a0830152613fef906000526010602052604060002090565b815181556020820151600182015560408201516002820155606082015160038201556080820151600482015560a0820151600582015560c0820151600682015560e0820151600782015561010082015160088201556101208201516009820155610140820151600a820155610160820151600b820155610180820151600c8201556101a090910151600d909101558054614093906000526011602052604060002090565b61270f905580546140ae906000526011602052604060002090565b6001016140bc9061270f9055565b80546140c79061395f565b601555546140d490613cc5565b7f1d70055ce2e34b710424c8ce5a6e724570ab0ff0cdffb52107ba6f70821d21b9600080a3565b60408051614108816105e4565b60009182825282549160018060a01b03851694851561423c5761412d61073b826130ee565b614139610784826130ee565b614151816107df866000526004602052604060002090565b6141726001600160401b0342166107fa866000526004602052604060002090565b8395600190818601833b15156000146141f35782805b61419e575b50505050505050815403610ae85755565b156141e6575b8789838a6000805160206149548339815191528180a46141cb61085f87868d019c88613701565b6141d55783614188565b86516368d2bf6b60e11b8152600490fd5b8089106141a4578061418d565b93509450809350809150905b61420a575050505055565b1561422f575b83828087019685876000805160206149548339815191528180a46141ff565b80851061421057806133da565b8251622e076360e81b8152600490fd5b1561425357565b60405162461bcd60e51b815260206004820152602860248201527f43616c6c6572206973206e6f7420746865206f776e6572206f662074686520636044820152673430b930b1ba32b960c11b6064820152608490fd5b156142b057565b60405162461bcd60e51b815260206004820152601760248201527655736520616c6c20746865207374617420706f696e747360481b6044820152606490fd5b156142f657565b60405162461bcd60e51b815260206004820152601360248201527221b0b63632b91034b9903737ba1037bbb732b960691b6044820152606490fd5b9081602091031261000e575190565b1561434757565b60405162461bcd60e51b8152602060048201526015602482015274125b9d985b1a59081a5d195b481d1bdad95b881251605a1b6044820152606490fd5b1561438b57565b60405162461bcd60e51b81526020600482015260196024820152784e6f7420746865206f776e6572206f6620746865206974656d60381b6044820152606490fd5b156143d357565b60405162461bcd60e51b8152602060048201526015602482015274125d195b48185b1c9958591e48195c5d5a5c1c1959605a1b6044820152606490fd5b6001600160a01b0391821681529116602082015260408101919091526001606082015260a06080820181905260009082015260c00190565b1561444f57565b60405162461bcd60e51b815260206004820152601060248201526f139bc81a5d195b48195c5d5a5c1c195960821b6044820152606490fd5b1561448e57565b60405162461bcd60e51b815260206004820152601060248201526f125b9d985b1a59081cdada5b1b08125160821b6044820152606490fd5b156144cd57565b60405162461bcd60e51b815260206004820152601a60248201527f4e6f7420746865206f776e6572206f662074686520736b696c6c0000000000006044820152606490fd5b1561451957565b60405162461bcd60e51b815260206004820152601660248201527514dada5b1b08185b1c9958591e48195c5d5a5c1c195960521b6044820152606490fd5b601254829061456e906001600160a01b03166110a5565b916145f160405163bd85b03960e01b81526145b760209182818061459a89600483019190602083019252565b03818a5afa9081156147d6575b6000916147b9575b501515614487565b604051627eeac760e11b8152336004820152602481018590528181604481895afa9182156147ac575b60009261478f575b505015156144c6565b81614606826000526011602052604060002090565b5414801590614761575b61461990614512565b61462d816000526011602052604060002090565b5492831580159081614754575b811561473a575b506146cf575b5061465e9192506000526011602052604060002090565b55601254614674906001600160a01b03166110a5565b803b1561000e57604051637921219560e11b81529160009183918290849082906146a390303360048501614410565b03925af180156146c2575b6146b55750565b806111f761062d92610572565b6146ca6136c4565b6146ae565b8092503b1561000e5760008061470261465e948796604051948580948193637921219560e11b8352333060048501614410565b03925af1801561472d575b61471a575b839250614647565b806111f761472792610572565b38614712565b6147356136c4565b61470d565b905080614748575b38614641565b5061270f831415614742565b61270f861415915061463a565b5081158015614610575061461961270f614785836000526011602052604060002090565b5414159050614610565b6147a59250803d106112c6576112b781836105ff565b38806145e8565b6147b46136c4565b6145e0565b6147d09150833d85116112c6576112b781836105ff565b386145af565b6147de6136c4565b6145a7565b156147ea57565b60405162461bcd60e51b8152602060048201526011602482015270139bc81cdada5b1b08195c5d5a5c1c1959607a1b6044820152606490fd5b1561482a57565b60405162461bcd60e51b815260206004820152601060248201526f125b9d985b1a590818db185cdcc8125160821b6044820152606490fd5b1561486957565b60405162461bcd60e51b815260206004820152601a60248201527f4e6f7420746865206f776e6572206f662074686520636c6173730000000000006044820152606490fd5b156148b557565b60405162461bcd60e51b815260206004820152601660248201527510db185cdcc8185b1c9958591e48195c5d5a5c1c195960521b6044820152606490fd5b156148fa57565b60405162461bcd60e51b8152602060048201526011602482015270139bc818db185cdcc8195c5d5a5c1c1959607a1b6044820152606490fdfef3f7a9fe364faab93b216da50a3214154f22a0a2b415b23a84c8169e8b636ee3ddf252ad1be2c89b69c2b068fc378daa952ba7f163c4a11628f55a4df523b3efa2646970667358221220c0da64c99b47144c11ddc780a844c87e1de763814ea5c1fc086a68a3e288b6f964736f6c63430008110033",
  "linkReferences": {},
  "deployedLinkReferences": {}
}