{
  "_format": "hh-sol-artifact-1",
  "contractName": "Character",
  "sourceName": "contracts/Character.sol",
  "abi": [
    {
      "inputs": [],
      "stateMutability": "nonpayable",
      "type": "constructor"
    },
    {
      "inputs": [],
      "name": "ApprovalCallerNotOwnerNorApproved",
      "type": "error"
    },
    {
      "inputs": [],
      "name": "ApprovalQueryForNonexistentToken",
      "type": "error"
    },
    {
      "inputs": [],
      "name": "ApprovalToCurrentOwner",
      "type": "error"
    },
    {
      "inputs": [],
      "name": "ApproveToCaller",
      "type": "error"
    },
    {
      "inputs": [],
      "name": "BalanceQueryForZeroAddress",
      "type": "error"
    },
    {
      "inputs": [],
      "name": "MintToZeroAddress",
      "type": "error"
    },
    {
      "inputs": [],
      "name": "MintZeroQuantity",
      "type": "error"
    },
    {
      "inputs": [
        {
          "internalType": "address",
          "name": "operator",
          "type": "address"
        }
      ],
      "name": "OperatorNotAllowed",
      "type": "error"
    },
    {
      "inputs": [],
      "name": "OwnerQueryForNonexistentToken",
      "type": "error"
    },
    {
      "inputs": [],
      "name": "TransferCallerNotOwnerNorApproved",
      "type": "error"
    },
    {
      "inputs": [],
      "name": "TransferFromIncorrectOwner",
      "type": "error"
    },
    {
      "inputs": [],
      "name": "TransferToNonERC721ReceiverImplementer",
      "type": "error"
    },
    {
      "inputs": [],
      "name": "TransferToZeroAddress",
      "type": "error"
    },
    {
      "inputs": [],
      "name": "URIQueryForNonexistentToken",
      "type": "error"
    },
    {
      "anonymous": false,
      "inputs": [
        {
          "indexed": true,
          "internalType": "address",
          "name": "owner",
          "type": "address"
        },
        {
          "indexed": true,
          "internalType": "address",
          "name": "approved",
          "type": "address"
        },
        {
          "indexed": true,
          "internalType": "uint256",
          "name": "tokenId",
          "type": "uint256"
        }
      ],
      "name": "Approval",
      "type": "event"
    },
    {
      "anonymous": false,
      "inputs": [
        {
          "indexed": true,
          "internalType": "address",
          "name": "owner",
          "type": "address"
        },
        {
          "indexed": true,
          "internalType": "address",
          "name": "operator",
          "type": "address"
        },
        {
          "indexed": false,
          "internalType": "bool",
          "name": "approved",
          "type": "bool"
        }
      ],
      "name": "ApprovalForAll",
      "type": "event"
    },
    {
      "anonymous": false,
      "inputs": [
        {
          "indexed": false,
          "internalType": "string",
          "name": "prevURI",
          "type": "string"
        },
        {
          "indexed": false,
          "internalType": "string",
          "name": "newURI",
          "type": "string"
        }
      ],
      "name": "ContractURIUpdated",
      "type": "event"
    },
    {
      "anonymous": false,
      "inputs": [
        {
          "indexed": true,
          "internalType": "address",
          "name": "newRoyaltyRecipient",
          "type": "address"
        },
        {
          "indexed": false,
          "internalType": "uint256",
          "name": "newRoyaltyBps",
          "type": "uint256"
        }
      ],
      "name": "DefaultRoyalty",
      "type": "event"
    },
    {
      "anonymous": false,
      "inputs": [
        {
          "indexed": true,
          "internalType": "uint256",
          "name": "tokenId",
          "type": "uint256"
        },
        {
          "indexed": true,
          "internalType": "uint256",
          "name": "typeId",
          "type": "uint256"
        }
      ],
      "name": "NewCharacter",
      "type": "event"
    },
    {
      "anonymous": false,
      "inputs": [
        {
          "indexed": false,
          "internalType": "bool",
          "name": "restriction",
          "type": "bool"
        }
      ],
      "name": "OperatorRestriction",
      "type": "event"
    },
    {
      "anonymous": false,
      "inputs": [
        {
          "indexed": true,
          "internalType": "address",
          "name": "prevOwner",
          "type": "address"
        },
        {
          "indexed": true,
          "internalType": "address",
          "name": "newOwner",
          "type": "address"
        }
      ],
      "name": "OwnerUpdated",
      "type": "event"
    },
    {
      "anonymous": false,
      "inputs": [
        {
          "indexed": true,
          "internalType": "uint256",
          "name": "tokenId",
          "type": "uint256"
        },
        {
          "indexed": true,
          "internalType": "address",
          "name": "royaltyRecipient",
          "type": "address"
        },
        {
          "indexed": false,
          "internalType": "uint256",
          "name": "royaltyBps",
          "type": "uint256"
        }
      ],
      "name": "RoyaltyForToken",
      "type": "event"
    },
    {
      "anonymous": false,
      "inputs": [
        {
          "indexed": true,
          "internalType": "address",
          "name": "from",
          "type": "address"
        },
        {
          "indexed": true,
          "internalType": "address",
          "name": "to",
          "type": "address"
        },
        {
          "indexed": true,
          "internalType": "uint256",
          "name": "tokenId",
          "type": "uint256"
        }
      ],
      "name": "Transfer",
      "type": "event"
    },
    {
      "inputs": [],
      "name": "OPERATOR_FILTER_REGISTRY",
      "outputs": [
        {
          "internalType": "contract IOperatorFilterRegistry",
          "name": "",
          "type": "address"
        }
      ],
      "stateMutability": "view",
      "type": "function"
    },
    {
      "inputs": [
        {
          "internalType": "uint256",
          "name": "characterTokenId",
          "type": "uint256"
        },
        {
          "internalType": "uint256",
          "name": "strength",
          "type": "uint256"
        },
        {
          "internalType": "uint256",
          "name": "dexterity",
          "type": "uint256"
        },
        {
          "internalType": "uint256",
          "name": "intelligence",
          "type": "uint256"
        },
        {
          "internalType": "uint256",
          "name": "vitality",
          "type": "uint256"
        }
      ],
      "name": "addStats",
      "outputs": [],
      "stateMutability": "nonpayable",
      "type": "function"
    },
    {
      "inputs": [
        {
          "internalType": "address",
          "name": "operator",
          "type": "address"
        },
        {
          "internalType": "uint256",
          "name": "tokenId",
          "type": "uint256"
        }
      ],
      "name": "approve",
      "outputs": [],
      "stateMutability": "nonpayable",
      "type": "function"
    },
    {
      "inputs": [
        {
          "internalType": "address",
          "name": "owner",
          "type": "address"
        }
      ],
      "name": "balanceOf",
      "outputs": [
        {
          "internalType": "uint256",
          "name": "",
          "type": "uint256"
        }
      ],
      "stateMutability": "view",
      "type": "function"
    },
    {
      "inputs": [
        {
          "internalType": "address",
          "name": "_to",
          "type": "address"
        },
        {
          "internalType": "uint256",
          "name": "_quantity",
          "type": "uint256"
        },
        {
          "internalType": "string",
          "name": "_baseURI",
          "type": "string"
        },
        {
          "internalType": "bytes",
          "name": "_data",
          "type": "bytes"
        }
      ],
      "name": "batchMintTo",
      "outputs": [],
      "stateMutability": "nonpayable",
      "type": "function"
    },
    {
      "inputs": [],
      "name": "battleItems",
      "outputs": [
        {
          "internalType": "contract BattleItems",
          "name": "",
          "type": "address"
        }
      ],
      "stateMutability": "view",
      "type": "function"
    },
    {
      "inputs": [],
      "name": "battleSkills",
      "outputs": [
        {
          "internalType": "contract BattleSkills",
          "name": "",
          "type": "address"
        }
      ],
      "stateMutability": "view",
      "type": "function"
    },
    {
      "inputs": [
        {
          "internalType": "uint256",
          "name": "_tokenId",
          "type": "uint256"
        }
      ],
      "name": "burn",
      "outputs": [],
      "stateMutability": "nonpayable",
      "type": "function"
    },
    {
      "inputs": [
        {
          "internalType": "uint256",
          "name": "",
          "type": "uint256"
        }
      ],
      "name": "charStats",
      "outputs": [
        {
          "internalType": "uint256",
          "name": "tokenId",
          "type": "uint256"
        },
        {
          "internalType": "uint256",
          "name": "level",
          "type": "uint256"
        },
        {
          "internalType": "uint256",
          "name": "experience",
          "type": "uint256"
        },
        {
          "internalType": "uint256",
          "name": "health",
          "type": "uint256"
        },
        {
          "internalType": "uint256",
          "name": "mana",
          "type": "uint256"
        },
        {
          "internalType": "uint256",
          "name": "attack",
          "type": "uint256"
        },
        {
          "internalType": "uint256",
          "name": "defense",
          "type": "uint256"
        },
        {
          "internalType": "uint256",
          "name": "strength",
          "type": "uint256"
        },
        {
          "internalType": "uint256",
          "name": "dexterity",
          "type": "uint256"
        },
        {
          "internalType": "uint256",
          "name": "intelligence",
          "type": "uint256"
        },
        {
          "internalType": "uint256",
          "name": "vitality",
          "type": "uint256"
        },
        {
          "internalType": "uint256",
          "name": "accuracy",
          "type": "uint256"
        },
        {
          "internalType": "uint256",
          "name": "statPoints",
          "type": "uint256"
        },
        {
          "internalType": "uint256",
          "name": "typeId",
          "type": "uint256"
        }
      ],
      "stateMutability": "view",
      "type": "function"
    },
    {
      "inputs": [
        {
          "internalType": "uint256",
          "name": "",
          "type": "uint256"
        }
      ],
      "name": "charTypes",
      "outputs": [
        {
          "internalType": "uint256",
          "name": "typeId",
          "type": "uint256"
        },
        {
          "internalType": "string",
          "name": "characterType",
          "type": "string"
        },
        {
          "internalType": "string",
          "name": "uri",
          "type": "string"
        }
      ],
      "stateMutability": "view",
      "type": "function"
    },
    {
      "inputs": [],
      "name": "characterClasses",
      "outputs": [
        {
          "internalType": "contract CharacterClass",
          "name": "",
          "type": "address"
        }
      ],
      "stateMutability": "view",
      "type": "function"
    },
    {
      "inputs": [],
      "name": "contractURI",
      "outputs": [
        {
          "internalType": "string",
          "name": "",
          "type": "string"
        }
      ],
      "stateMutability": "view",
      "type": "function"
    },
    {
      "inputs": [
        {
          "internalType": "uint256",
          "name": "characterTokenId",
          "type": "uint256"
        },
        {
          "internalType": "uint256",
          "name": "classId",
          "type": "uint256"
        }
      ],
      "name": "equipClass",
      "outputs": [],
      "stateMutability": "nonpayable",
      "type": "function"
    },
    {
      "inputs": [
        {
          "internalType": "uint256",
          "name": "characterTokenId",
          "type": "uint256"
        },
        {
          "internalType": "uint256",
          "name": "tokenId",
          "type": "uint256"
        }
      ],
      "name": "equipItem",
      "outputs": [],
      "stateMutability": "nonpayable",
      "type": "function"
    },
    {
      "inputs": [
        {
          "internalType": "uint256",
          "name": "characterTokenId",
          "type": "uint256"
        },
        {
          "internalType": "uint256",
          "name": "skillId",
          "type": "uint256"
        }
      ],
      "name": "equipSkill",
      "outputs": [],
      "stateMutability": "nonpayable",
      "type": "function"
    },
    {
      "inputs": [
        {
          "internalType": "uint256",
          "name": "tokenId",
          "type": "uint256"
        }
      ],
      "name": "getApproved",
      "outputs": [
        {
          "internalType": "address",
          "name": "",
          "type": "address"
        }
      ],
      "stateMutability": "view",
      "type": "function"
    },
    {
      "inputs": [],
      "name": "getBaseURICount",
      "outputs": [
        {
          "internalType": "uint256",
          "name": "",
          "type": "uint256"
        }
      ],
      "stateMutability": "view",
      "type": "function"
    },
    {
      "inputs": [
        {
          "internalType": "uint256",
          "name": "_index",
          "type": "uint256"
        }
      ],
      "name": "getBatchIdAtIndex",
      "outputs": [
        {
          "internalType": "uint256",
          "name": "",
          "type": "uint256"
        }
      ],
      "stateMutability": "view",
      "type": "function"
    },
    {
      "inputs": [
        {
          "internalType": "uint256",
          "name": "_tokenId",
          "type": "uint256"
        }
      ],
      "name": "getCharacter",
      "outputs": [
        {
          "components": [
            {
              "internalType": "uint256",
              "name": "tokenId",
              "type": "uint256"
            },
            {
              "internalType": "uint256",
              "name": "level",
              "type": "uint256"
            },
            {
              "internalType": "uint256",
              "name": "experience",
              "type": "uint256"
            },
            {
              "internalType": "uint256",
              "name": "health",
              "type": "uint256"
            },
            {
              "internalType": "uint256",
              "name": "mana",
              "type": "uint256"
            },
            {
              "internalType": "uint256",
              "name": "attack",
              "type": "uint256"
            },
            {
              "internalType": "uint256",
              "name": "defense",
              "type": "uint256"
            },
            {
              "internalType": "uint256",
              "name": "strength",
              "type": "uint256"
            },
            {
              "internalType": "uint256",
              "name": "dexterity",
              "type": "uint256"
            },
            {
              "internalType": "uint256",
              "name": "intelligence",
              "type": "uint256"
            },
            {
              "internalType": "uint256",
              "name": "vitality",
              "type": "uint256"
            },
            {
              "internalType": "uint256",
              "name": "accuracy",
              "type": "uint256"
            },
            {
              "internalType": "uint256",
              "name": "statPoints",
              "type": "uint256"
            },
            {
              "internalType": "uint256",
              "name": "typeId",
              "type": "uint256"
            }
          ],
          "internalType": "struct Character.CharacterStats",
          "name": "",
          "type": "tuple"
        }
      ],
      "stateMutability": "view",
      "type": "function"
    },
    {
      "inputs": [
        {
          "internalType": "uint256",
          "name": "tokenId",
          "type": "uint256"
        }
      ],
      "name": "getCharacterAttack",
      "outputs": [
        {
          "internalType": "uint256",
          "name": "",
          "type": "uint256"
        }
      ],
      "stateMutability": "view",
      "type": "function"
    },
    {
      "inputs": [
        {
          "internalType": "uint256",
          "name": "tokenId",
          "type": "uint256"
        }
      ],
      "name": "getCharacterDefense",
      "outputs": [
        {
          "internalType": "uint256",
          "name": "",
          "type": "uint256"
        }
      ],
      "stateMutability": "view",
      "type": "function"
    },
    {
      "inputs": [
        {
          "internalType": "uint256",
          "name": "tokenId",
          "type": "uint256"
        }
      ],
      "name": "getCharacterHealth",
      "outputs": [
        {
          "internalType": "uint256",
          "name": "",
          "type": "uint256"
        }
      ],
      "stateMutability": "view",
      "type": "function"
    },
    {
      "inputs": [
        {
          "internalType": "uint256",
          "name": "tokenId",
          "type": "uint256"
        }
      ],
      "name": "getCharacterLevel",
      "outputs": [
        {
          "internalType": "uint256",
          "name": "",
          "type": "uint256"
        }
      ],
      "stateMutability": "view",
      "type": "function"
    },
    {
      "inputs": [
        {
          "internalType": "uint256",
          "name": "tokenId",
          "type": "uint256"
        }
      ],
      "name": "getCharacterMana",
      "outputs": [
        {
          "internalType": "uint256",
          "name": "",
          "type": "uint256"
        }
      ],
      "stateMutability": "view",
      "type": "function"
    },
    {
      "inputs": [
        {
          "internalType": "uint256",
          "name": "tokenId",
          "type": "uint256"
        }
      ],
      "name": "getCharacterType",
      "outputs": [
        {
          "internalType": "uint256",
          "name": "",
          "type": "uint256"
        }
      ],
      "stateMutability": "view",
      "type": "function"
    },
    {
      "inputs": [],
      "name": "getDefaultRoyaltyInfo",
      "outputs": [
        {
          "internalType": "address",
          "name": "",
          "type": "address"
        },
        {
          "internalType": "uint16",
          "name": "",
          "type": "uint16"
        }
      ],
      "stateMutability": "view",
      "type": "function"
    },
    {
      "inputs": [
        {
          "internalType": "uint256",
          "name": "characterTokenId",
          "type": "uint256"
        }
      ],
      "name": "getEquippedClass",
      "outputs": [
        {
          "internalType": "uint256",
          "name": "",
          "type": "uint256"
        }
      ],
      "stateMutability": "view",
      "type": "function"
    },
    {
      "inputs": [
        {
          "internalType": "uint256",
          "name": "characterTokenId",
          "type": "uint256"
        }
      ],
      "name": "getEquippedItem",
      "outputs": [
        {
          "internalType": "uint256",
          "name": "",
          "type": "uint256"
        }
      ],
      "stateMutability": "view",
      "type": "function"
    },
    {
      "inputs": [
        {
          "internalType": "uint256",
          "name": "characterTokenId",
          "type": "uint256"
        }
      ],
      "name": "getEquippedSkill",
      "outputs": [
        {
          "internalType": "uint256",
          "name": "",
          "type": "uint256"
        }
      ],
      "stateMutability": "view",
      "type": "function"
    },
    {
      "inputs": [
        {
          "internalType": "uint256",
          "name": "_tokenId",
          "type": "uint256"
        }
      ],
      "name": "getRoyaltyInfoForToken",
      "outputs": [
        {
          "internalType": "address",
          "name": "",
          "type": "address"
        },
        {
          "internalType": "uint16",
          "name": "",
          "type": "uint16"
        }
      ],
      "stateMutability": "view",
      "type": "function"
    },
    {
      "inputs": [
        {
          "internalType": "address",
          "name": "owner",
          "type": "address"
        },
        {
          "internalType": "address",
          "name": "operator",
          "type": "address"
        }
      ],
      "name": "isApprovedForAll",
      "outputs": [
        {
          "internalType": "bool",
          "name": "",
          "type": "bool"
        }
      ],
      "stateMutability": "view",
      "type": "function"
    },
    {
      "inputs": [
        {
          "internalType": "address",
          "name": "_operator",
          "type": "address"
        },
        {
          "internalType": "uint256",
          "name": "_tokenId",
          "type": "uint256"
        }
      ],
      "name": "isApprovedOrOwner",
      "outputs": [
        {
          "internalType": "bool",
          "name": "isApprovedOrOwnerOf",
          "type": "bool"
        }
      ],
      "stateMutability": "view",
      "type": "function"
    },
    {
      "inputs": [
        {
          "internalType": "uint256",
          "name": "characterTokenId",
          "type": "uint256"
        }
      ],
      "name": "levelUp",
      "outputs": [],
      "stateMutability": "nonpayable",
      "type": "function"
    },
    {
      "inputs": [
        {
          "internalType": "uint256",
          "name": "_typeId",
          "type": "uint256"
        },
        {
          "internalType": "uint256",
          "name": "_skillTokenId",
          "type": "uint256"
        }
      ],
      "name": "mintNewCharacterWithItemAndEquip",
      "outputs": [],
      "stateMutability": "nonpayable",
      "type": "function"
    },
    {
      "inputs": [
        {
          "internalType": "address",
          "name": "_to",
          "type": "address"
        },
        {
          "internalType": "string",
          "name": "_tokenURI",
          "type": "string"
        }
      ],
      "name": "mintTo",
      "outputs": [],
      "stateMutability": "nonpayable",
      "type": "function"
    },
    {
      "inputs": [
        {
          "internalType": "bytes[]",
          "name": "data",
          "type": "bytes[]"
        }
      ],
      "name": "multicall",
      "outputs": [
        {
          "internalType": "bytes[]",
          "name": "results",
          "type": "bytes[]"
        }
      ],
      "stateMutability": "nonpayable",
      "type": "function"
    },
    {
      "inputs": [],
      "name": "name",
      "outputs": [
        {
          "internalType": "string",
          "name": "",
          "type": "string"
        }
      ],
      "stateMutability": "view",
      "type": "function"
    },
    {
      "inputs": [
        {
          "internalType": "uint256",
          "name": "_typeId",
          "type": "uint256"
        }
      ],
      "name": "newCharacter",
      "outputs": [],
      "stateMutability": "nonpayable",
      "type": "function"
    },
    {
      "inputs": [],
      "name": "nextTokenIdToMint",
      "outputs": [
        {
          "internalType": "uint256",
          "name": "",
          "type": "uint256"
        }
      ],
      "stateMutability": "view",
      "type": "function"
    },
    {
      "inputs": [],
      "name": "numCharacters",
      "outputs": [
        {
          "internalType": "uint256",
          "name": "",
          "type": "uint256"
        }
      ],
      "stateMutability": "view",
      "type": "function"
    },
    {
      "inputs": [
        {
          "internalType": "address",
          "name": "",
          "type": "address"
        },
        {
          "internalType": "address",
          "name": "",
          "type": "address"
        },
        {
          "internalType": "uint256[]",
          "name": "",
          "type": "uint256[]"
        },
        {
          "internalType": "uint256[]",
          "name": "",
          "type": "uint256[]"
        },
        {
          "internalType": "bytes",
          "name": "",
          "type": "bytes"
        }
      ],
      "name": "onERC1155BatchReceived",
      "outputs": [
        {
          "internalType": "bytes4",
          "name": "",
          "type": "bytes4"
        }
      ],
      "stateMutability": "nonpayable",
      "type": "function"
    },
    {
      "inputs": [
        {
          "internalType": "address",
          "name": "",
          "type": "address"
        },
        {
          "internalType": "address",
          "name": "",
          "type": "address"
        },
        {
          "internalType": "uint256",
          "name": "",
          "type": "uint256"
        },
        {
          "internalType": "uint256",
          "name": "",
          "type": "uint256"
        },
        {
          "internalType": "bytes",
          "name": "",
          "type": "bytes"
        }
      ],
      "name": "onERC1155Received",
      "outputs": [
        {
          "internalType": "bytes4",
          "name": "",
          "type": "bytes4"
        }
      ],
      "stateMutability": "nonpayable",
      "type": "function"
    },
    {
      "inputs": [],
      "name": "operatorRestriction",
      "outputs": [
        {
          "internalType": "bool",
          "name": "",
          "type": "bool"
        }
      ],
      "stateMutability": "view",
      "type": "function"
    },
    {
      "inputs": [],
      "name": "owner",
      "outputs": [
        {
          "internalType": "address",
          "name": "",
          "type": "address"
        }
      ],
      "stateMutability": "view",
      "type": "function"
    },
    {
      "inputs": [
        {
          "internalType": "uint256",
          "name": "tokenId",
          "type": "uint256"
        }
      ],
      "name": "ownerOf",
      "outputs": [
        {
          "internalType": "address",
          "name": "",
          "type": "address"
        }
      ],
      "stateMutability": "view",
      "type": "function"
    },
    {
      "inputs": [
        {
          "internalType": "uint256",
          "name": "tokenId",
          "type": "uint256"
        },
        {
          "internalType": "uint256",
          "name": "salePrice",
          "type": "uint256"
        }
      ],
      "name": "royaltyInfo",
      "outputs": [
        {
          "internalType": "address",
          "name": "receiver",
          "type": "address"
        },
        {
          "internalType": "uint256",
          "name": "royaltyAmount",
          "type": "uint256"
        }
      ],
      "stateMutability": "view",
      "type": "function"
    },
    {
      "inputs": [
        {
          "internalType": "address",
          "name": "from",
          "type": "address"
        },
        {
          "internalType": "address",
          "name": "to",
          "type": "address"
        },
        {
          "internalType": "uint256",
          "name": "tokenId",
          "type": "uint256"
        }
      ],
      "name": "safeTransferFrom",
      "outputs": [],
      "stateMutability": "nonpayable",
      "type": "function"
    },
    {
      "inputs": [
        {
          "internalType": "address",
          "name": "from",
          "type": "address"
        },
        {
          "internalType": "address",
          "name": "to",
          "type": "address"
        },
        {
          "internalType": "uint256",
          "name": "tokenId",
          "type": "uint256"
        },
        {
          "internalType": "bytes",
          "name": "data",
          "type": "bytes"
        }
      ],
      "name": "safeTransferFrom",
      "outputs": [],
      "stateMutability": "nonpayable",
      "type": "function"
    },
    {
      "inputs": [
        {
          "internalType": "address",
          "name": "operator",
          "type": "address"
        },
        {
          "internalType": "bool",
          "name": "approved",
          "type": "bool"
        }
      ],
      "name": "setApprovalForAll",
      "outputs": [],
      "stateMutability": "nonpayable",
      "type": "function"
    },
    {
      "inputs": [
        {
          "internalType": "address",
          "name": "_address",
          "type": "address"
        }
      ],
      "name": "setBattleItems",
      "outputs": [],
      "stateMutability": "nonpayable",
      "type": "function"
    },
    {
      "inputs": [
        {
          "internalType": "address",
          "name": "_address",
          "type": "address"
        }
      ],
      "name": "setBattleSkills",
      "outputs": [],
      "stateMutability": "nonpayable",
      "type": "function"
    },
    {
      "inputs": [
        {
          "internalType": "address",
          "name": "_address",
          "type": "address"
        }
      ],
      "name": "setClassContract",
      "outputs": [],
      "stateMutability": "nonpayable",
      "type": "function"
    },
    {
      "inputs": [
        {
          "internalType": "string",
          "name": "_uri",
          "type": "string"
        }
      ],
      "name": "setContractURI",
      "outputs": [],
      "stateMutability": "nonpayable",
      "type": "function"
    },
    {
      "inputs": [
        {
          "internalType": "address",
          "name": "_royaltyRecipient",
          "type": "address"
        },
        {
          "internalType": "uint256",
          "name": "_royaltyBps",
          "type": "uint256"
        }
      ],
      "name": "setDefaultRoyaltyInfo",
      "outputs": [],
      "stateMutability": "nonpayable",
      "type": "function"
    },
    {
      "inputs": [
        {
          "internalType": "bool",
          "name": "_restriction",
          "type": "bool"
        }
      ],
      "name": "setOperatorRestriction",
      "outputs": [],
      "stateMutability": "nonpayable",
      "type": "function"
    },
    {
      "inputs": [
        {
          "internalType": "address",
          "name": "_newOwner",
          "type": "address"
        }
      ],
      "name": "setOwner",
      "outputs": [],
      "stateMutability": "nonpayable",
      "type": "function"
    },
    {
      "inputs": [
        {
          "internalType": "uint256",
          "name": "_tokenId",
          "type": "uint256"
        },
        {
          "internalType": "address",
          "name": "_recipient",
          "type": "address"
        },
        {
          "internalType": "uint256",
          "name": "_bps",
          "type": "uint256"
        }
      ],
      "name": "setRoyaltyInfoForToken",
      "outputs": [],
      "stateMutability": "nonpayable",
      "type": "function"
    },
    {
      "inputs": [
        {
          "internalType": "bytes4",
          "name": "interfaceId",
          "type": "bytes4"
        }
      ],
      "name": "supportsInterface",
      "outputs": [
        {
          "internalType": "bool",
          "name": "",
          "type": "bool"
        }
      ],
      "stateMutability": "view",
      "type": "function"
    },
    {
      "inputs": [],
      "name": "symbol",
      "outputs": [
        {
          "internalType": "string",
          "name": "",
          "type": "string"
        }
      ],
      "stateMutability": "view",
      "type": "function"
    },
    {
      "inputs": [
        {
          "internalType": "uint256",
          "name": "_tokenId",
          "type": "uint256"
        }
      ],
      "name": "tokenURI",
      "outputs": [
        {
          "internalType": "string",
          "name": "",
          "type": "string"
        }
      ],
      "stateMutability": "view",
      "type": "function"
    },
    {
      "inputs": [],
      "name": "totalSupply",
      "outputs": [
        {
          "internalType": "uint256",
          "name": "",
          "type": "uint256"
        }
      ],
      "stateMutability": "view",
      "type": "function"
    },
    {
      "inputs": [
        {
          "internalType": "address",
          "name": "from",
          "type": "address"
        },
        {
          "internalType": "address",
          "name": "to",
          "type": "address"
        },
        {
          "internalType": "uint256",
          "name": "tokenId",
          "type": "uint256"
        }
      ],
      "name": "transferFrom",
      "outputs": [],
      "stateMutability": "nonpayable",
      "type": "function"
    },
    {
      "inputs": [
        {
          "internalType": "uint256",
          "name": "characterTokenId",
          "type": "uint256"
        }
      ],
      "name": "unequipClass",
      "outputs": [],
      "stateMutability": "nonpayable",
      "type": "function"
    },
    {
      "inputs": [
        {
          "internalType": "uint256",
          "name": "characterTokenId",
          "type": "uint256"
        }
      ],
      "name": "unequipItem",
      "outputs": [],
      "stateMutability": "nonpayable",
      "type": "function"
    },
    {
      "inputs": [
        {
          "internalType": "uint256",
          "name": "characterTokenId",
          "type": "uint256"
        }
      ],
      "name": "unequipSkill",
      "outputs": [],
      "stateMutability": "nonpayable",
      "type": "function"
    }
  ],
  "bytecode": "0x60808060405234620007e757600062000018826200083b565b600982526821b430b930b1ba32b960b91b6020830152604051906200003d826200083b565b60048083526310d3919560e21b60208401528351909390926001600160401b0391828511620007d457600294855491600183811c93168015620007c9575b6020841014620007b6578190601f9384811162000763575b50602090848311600114620006fa578792620006ee575b50508160011b916000199060031b1c19161785555b815190838211620006db576003928354600181811c91168015620006d0575b6020821014620006bd579081838594931162000667575b506020918311600114620005ff578692620005f3575b50508160011b9160001990841b1c19161790555b8180556daaeb6d7670e522a718067333cd4e803b6200056f575b6200055f84620004c08762000421876009543360018060a01b031982161760095560405190339060018060a01b03167f8292fce18fa69edf4db7b94ea2e58241df0ae57f97e0a6c9b29067028bf92d768484a3600a80546001600160b01b0319163361ffff60a01b19811691909117909155828252907f90d7ec04bcb8978719414f82e52e4cb651db41d0e6f8cea6118c2191e6183adb90602090a2600160ff19600e541617600e557f38475885990d8dfe9ca01f0ef160a1b5514426eab9ddbc953a3353410ba78096602060405160018152a1806015556200028b6040516200022381620007ec565b828152600160208201528260408201526064606082015260646080820152600c60a0820152606460c0820152606460e082015260646101008201526064610120820152606461014082015260646101608201526005610180820152826101a082015262000857565b620003066040516200029d81620007ec565b828152600160208201528260408201526064606082015260646080820152600b60a0820152606460c0820152606460e08201526064610100820152606461012082015260646101408201526064610160820152600561018082015260016101a082015262000857565b620003806040516200031881620007ec565b828152600160208201528260408201526064606082015260646080820152600d60a0820152606460c0820152606460e082015260646101008201526064610120820152606461014082015260646101608201526005610180820152866101a082015262000857565b604051906200038f826200081f565b81526040516200039f816200083b565b60078152662bb0b93934b7b960c91b60208201526020820152604051620003c6816200081f565b603581527f697066733a2f2f516d5a7a426d6a726a6e37343244783877504868657138586260208201527f7a6b6f775753367871764c4855525453764c51436f00000000000000000000006040820152604082015262000930565b6040519062000430826200081f565b600182526040519062000443826200083b565b8152634d61676560e01b6020820152602082015260405162000465816200081f565b603581527f697066733a2f2f516d545945695869547a4268597577755137626a533561714360208201527f68726566454a5a33376173384244724b59786b316a00000000000000000000006040820152604082015262000930565b60405190620004cf826200081f565b8152604051620004df816200083b565b6005815264526f67756560d81b6020820152602082015260405162000504816200081f565b603581527f697066733a2f2f516d5579576d7072793853726939426d734853514d4442507460208201527f6e505a6b6f583647533777385a697a706e4658377600000000000000000000006040820152604082015262000930565b604051614c28908162000c238239f35b803b15620005ef5790828092604460405180958193633e9f1edf60e11b8352308b840152733cc6cdda760b79bafa08df41ecfa224f810dceb660248401525af18015620005e4571562000139578111620005d157604052826200042162000139565b634e487b7160e01b825260418452602482fd5b6040513d85823e3d90fd5b8280fd5b0151905038806200010b565b848752602087209250601f198416875b8181106200064e575090846001959493921062000635575b505050811b0190556200011f565b015160001983861b60f8161c1916905538808062000627565b929360206001819287860151815501950193016200060f565b90919250848752602087208380860160051c82019260208710620006b3575b94869594939291940160051c01905b818110620006a45750620000f5565b88815585945060010162000695565b9250819262000686565b634e487b7160e01b875260228952602487fd5b90607f1690620000de565b634e487b7160e01b855260418752602485fd5b015190503880620000aa565b888852602088209250601f198416885b8181106200074a575090846001959493921062000730575b505050811b018555620000bf565b015160001960f88460031b161c1916905538808062000722565b929360206001819287860151815501950193016200070a565b909150878752602087208480850160051c82019260208610620007ac575b9085949392910160051c01905b8181106200079d575062000093565b8881558493506001016200078e565b9250819262000781565b634e487b7160e01b865260228852602486fd5b92607f16926200007b565b634e487b7160e01b845260418652602484fd5b600080fd5b6101c081019081106001600160401b038211176200080957604052565b634e487b7160e01b600052604160045260246000fd5b606081019081106001600160401b038211176200080957604052565b604081019081106001600160401b038211176200080957604052565b60165468010000000000000000811015620008095760018101806016558110156200091a576101a0600d916016600052600e602060002091020192805184556020810151600185015560408101516002850155606081015160038501556080810151600485015560a0810151600585015560c0810151600685015560e0810151600785015561010081015160088501556101208101516009850155610140810151600a850155610160810151600b850155610180810151600c8501550151910155565b634e487b7160e01b600052603260045260246000fd5b6017546801000000000000000081101562000809576001808201806017558210156200091a576000906017825260209260038484209102018451815581810192848601519182519460018060401b039586811162000c0e578154948686811c9616801562000c03575b8987101462000bef57601f9586811162000ba7575b50889086831160011462000b375791806002949260409694889262000b2b575b5050600019600383901b1c191690881b1790555b0196015190815194851162000b175786548481811c9116801562000b0c575b8782101462000af85783811162000ab0575b508592851160011462000a4d57939450849291908362000a41575b50501b916000199060031b1c1916179055565b01519250388062000a2e565b86815285812093958591601f198316915b8883831062000a95575050501062000a7b575b505050811b019055565b015160001960f88460031b161c1916905538808062000a71565b85870151885590960195948501948793509081019062000a5e565b8782528682208480880160051c82019289891062000aee575b0160051c019085905b82811062000ae257505062000a13565b83815501859062000ad2565b9250819262000ac9565b634e487b7160e01b82526022600452602482fd5b90607f169062000a01565b634e487b7160e01b81526041600452602490fd5b015190503880620009ce565b8386528986208893929091601f198416885b8d82821062000b90575050916040979593918560029896941062000b76575b505050811b019055620009e2565b015160001960f88460031b161c1916905538808062000b68565b8385015186558c9790950194938401930162000b49565b8386528986208780850160051c8201928c861062000be5575b0160051c019088905b82811062000bd9575050620009ae565b87815501889062000bc9565b9250819262000bc0565b634e487b7160e01b85526022600452602485fd5b95607f169562000999565b634e487b7160e01b84526041600452602484fdfe60806040526004361015610013575b600080fd5b60003560e01c806275a3171461052657806301ffc9a71461051d57806306fdde0314610514578063081812fc1461050b57806308ec6c3c14610502578063095ea7b3146104f95780630ce90ec2146104f05780630db0de52146104e757806313af4035146104de57806315d57827146104d557806318160ddd146104cc5780631bd2a477146104c357806323b872dd146104ba5780632401c739146104b15780632419f51b146104a8578063262a8c3b1461049f5780632a55205a146104965780632c8854fe1461048d57806332f0cd64146104845780633b1475a71461047b57806341f434341461047257806342842e0e1461046957806342966c6814610460578063430c20811461045757806343a511d51461044e578063479d35e6146104455780634cc157df1461043c578063504c6e011461043357806355483d451461042a5780635ada8456146104215780635cec154914610418578063600dd5ea1461040f5780636352211e1461040657806363b45e2d146103fd57806367772584146103f45780636ffd17d4146103eb57806370a08231146103e257806373726d50146103d9578063754a81d9146103d057806375dd8ace146103c7578063835576ed146103be5780638da5cb5b146103b55780639048e5ca146103ac578063938e3d7b146103a3578063954643ca1461039a57806395d89b41146103915780639bcf7a15146103885780639c7e334c1461037f578063a22cb46514610376578063a6d13ee21461036d578063ac9650d814610364578063b24f2d391461035b578063b88d4fde14610352578063bc197c8114610349578063bcb7ea0814610340578063c87b56dd14610337578063d2e4c1891461032e578063d5937dae14610325578063dabb05311461031c578063e5f69e4114610313578063e8a3d4851461030a578063e985e9c514610301578063ef3877c5146102f8578063f1be42f1146102ef5763f23a6e61146102e757600080fd5b61000e612f8d565b5061000e612f6e565b5061000e612f41565b5061000e612ee3565b5061000e612e4d565b5061000e612c70565b5061000e612b3c565b5061000e612af2565b5061000e612a87565b5061000e612a53565b5061000e612a33565b5061000e6129aa565b5061000e6128c6565b5061000e61288f565b5061000e612829565b5061000e612797565b5061000e6126e2565b5061000e612592565b5061000e6124c6565b5061000e61241e565b5061000e6123f4565b5061000e612276565b5061000e612246565b5061000e61221c565b5061000e6121ff565b5061000e6121cf565b5061000e612016565b5061000e611f59565b5061000e611efd565b5061000e611ed3565b5061000e611ea3565b5061000e611e84565b5061000e611e53565b5061000e611d89565b5061000e611cba565b5061000e611a50565b5061000e611a26565b5061000e611a02565b5061000e6119c4565b5061000e611994565b5061000e6118cd565b5061000e61182d565b5061000e6115cf565b5061000e611545565b5061000e61151b565b5061000e6114fc565b5061000e611435565b5061000e6113fb565b5061000e61138c565b5061000e6110fa565b5061000e611073565b5061000e611043565b5061000e611012565b5061000e610fad565b5061000e610f89565b5061000e610eac565b5061000e610dda565b5061000e610d90565b5061000e610c9f565b5061000e610bf6565b5061000e610b72565b5061000e610b41565b5061000e610a5b565b5061000e610935565b5061000e6106ae565b600435906001600160a01b038216820361000e57565b602435906001600160a01b038216820361000e57565b50634e487b7160e01b600052604160045260246000fd5b6001600160401b03811161058557604052565b61058d61055b565b604052565b604081019081106001600160401b0382111761058557604052565b6101c081019081106001600160401b0382111761058557604052565b606081019081106001600160401b0382111761058557604052565b602081019081106001600160401b0382111761058557604052565b90601f801991011681019081106001600160401b0382111761058557604052565b6040519061062d826105ad565b565b6020906001600160401b03811161064c575b601f01601f19160190565b61065461055b565b610641565b9291926106658261062f565b9161067360405193846105ff565b82948184528183011161000e578281602093846000960137010152565b9080601f8301121561000e578160206106ab93359101610659565b90565b503461000e5760408060031936011261000e576106c961052f565b90602435916001600160401b039081841161000e576106ed60049436908601610690565b9360018060a01b039161070583600954163314613056565b6107126000968754613155565b84519061071e826105e4565b8682528654938116948515610914576001600160a01b0382166000908152600560205260409020610839919061078c905b61077261076382546001600160401b031690565b6001016001600160401b031690565b6001600160401b03166001600160401b0319825416179055565b6001600160a01b03831660009081526005602052604090206107e7905b80546107c09060401c6001600160401b0316610763565b67ffffffffffffffff60401b82549160401b169067ffffffffffffffff60401b1916179055565b61081e836107ff886000526004602052604060002090565b80546001600160a01b0319166001600160a01b03909216919091179055565b4216610834866000526004602052604060002090565b6133e2565b8394600190818601833b15156000146108c55782805b61086b575b5050505050505083540361086757825551f35b8280fd5b156108b8575b8888838c600080516020614bd383398151915281809551a461089e61089a87868c019b886138f4565b1590565b6108a8578361084f565b89516368d2bf6b60e11b81528790fd5b8088106108715780610854565b925094508093508092508651935b6108e2575b5050505050825551f35b15610907575b868280870196868a600080516020614bd38339815191528189a46108d3565b8085106108e857806108d8565b8651622e076360e81b81528490fd5b6001600160e01b031981160361000e57565b503461000e57602036600319011261000e57602060043561095581610923565b6001600160e01b0319166301ffc9a760e01b811480156109d5575b80156109c5575b80156109b5575b80918115610993575b50506040519015158152f35b630271189760e51b14915081156109ad575b503880610987565b9050386109a5565b5063152a902d60e11b811461097e565b50635b5e139f60e01b8114610977565b506380ac58cd60e01b8114610970565b600091031261000e57565b918091926000905b828210610a10575011610a09575050565b6000910152565b915080602091830151818601520182916109f8565b90602091610a3e815180928185528580860191016109f0565b601f01601f1916010190565b9060206106ab928181520190610a25565b503461000e57600080600319360112610b3e576040519080600254610a7f81611b32565b80855291600191808316908115610b145750600114610ab9575b610ab585610aa9818703826105ff565b60405191829182610a4a565b0390f35b9250600283527f405787fa12a823e0f2b7631cc41b3ba8828b3321ca811111fa75cd3aa3bb5ace5b828410610afc575050508101602001610aa982610ab5610a99565b80546020858701810191909152909301928101610ae1565b869550610ab596935060209250610aa994915060ff191682840152151560051b8201019293610a99565b80fd5b503461000e57602036600319011261000e576020610b60600435613389565b6040516001600160a01b039091168152f35b503461000e57602036600319011261000e57610b8c61052f565b6009546001600160a01b03919082163303610bbc57166001600160601b0360a01b60145416176014556000604051f35b60405162461bcd60e51b815260206004820152600e60248201526d139bdd08185d5d1a1bdc9a5e995960921b6044820152606490fd5b0390fd5b503461000e57604036600319011261000e57610c1061052f565b602435610c1c82613c79565b6001600160a01b039081610c2f826132e3565b51168092841614610c8d57813303610c4d575b610c4b926137e7565b005b60008281526007602090815260408083203384529091529020610c769061089a905b5460ff1690565b15610c42576040516367d9dca160e11b8152600490fd5b60405163250fdee360e21b8152600490fd5b503461000e57602036600319011261000e57600435806000526010602052604060002090600c820180549182610d3457610d3092600292610d05610cf5610ce8610d26956132e3565b516001600160a01b031690565b6001600160a01b0316331461456a565b610d1f6001870192610d178454613a22565b809455613a3e565b9055613d45565b9201918254613a4e565b9055005b60405162461bcd60e51b815260206004820152602e60248201527f4d7573742075736520757020616c6c207374617420706f696e7473206265666f60448201526d07265206c6576656c696e672075760941b6064820152608490fd5b503461000e57602036600319011261000e57610daa61052f565b6009546001600160a01b03919082163303610bbc57166001600160601b0360a01b60135416176013556000604051f35b503461000e57602036600319011261000e57610df461052f565b6009546001600160a01b03808216919033839003610bbc576000931680916001600160601b0360a01b1617600955604051917f8292fce18fa69edf4db7b94ea2e58241df0ae57f97e0a6c9b29067028bf92d768484a3f35b50634e487b7160e01b600052603260045260246000fd5b600e90601654811015610e9f575b6016600052027fd833147d7dc355ba459fc788f669e58cfaf9dc25ddcd0702e87d69c7b51242890190600090565b610ea7610e4c565b610e71565b503461000e57602036600319011261000e5760043560165481101561000e57610ed490610e63565b508054610ab560018301549260028101549060038101546004820154600583015460068401546007850154600886015491600987015493600a88015495600b89015497600d600c8b01549a01549a6040519e8f9e8f9b99979593919e9d9c9a98969492909e6101c08d019f8d5260208d015260408c015260608b015260808a015260a089015260c088015260e08701526101008601526101208501526101408401526101608301526101808201526101a00152565b503461000e57600036600319011261000e5760206000546001549003604051908152f35b503461000e57602036600319011261000e5760043560005260106020526020600d60406000200154604051908152f35b606090600319011261000e576001600160a01b0390600435828116810361000e5791602435908116810361000e579060443590565b503461000e57610c4b61102436610fdd565b916001600160a01b03811633146135bc5761103e33613c79565b6135bc565b503461000e57602036600319011261000e5760043560005260116020526020600260406000200154604051908152f35b503461000e57602036600319011261000e57600435600c548110156110c557602090600c6000527fdf6966c971051c3d54ec59162606531493a51404a002842f56009d7e5cf4a8c70154604051908152f35b60405162461bcd60e51b815260206004820152600d60248201526c092dcecc2d8d2c840d2dcc8caf609b1b6044820152606490fd5b503461000e5760408060031936011261000e576013546024359190829060043590611135906001600160a01b03165b6001600160a01b031690565b835163bd85b03960e01b8152600481018490526111ac90602090611173908281602481885afa90811561137f575b600091611362575b5015156145bb565b8551627eeac760e11b8152336004820152602481018690528181604481875afa918215611355575b600092611328575b505015156145ff565b6111cf8360016111c6856000526011602052604060002090565b0154141561464b565b60016111e5836000526011602052604060002090565b01549081158015908161131b575b8115611301575b50611293575b50506112186001916000526011602052604060002090565b015560135461122f906001600160a01b0316611129565b91823b1561000e57600061125d819482938551948580948193637921219560e11b835230336004850161468f565b03925af18015611286575b611270575051f35b8061127d61128392610572565b806109e5565b51f35b61128e6138b7565b611268565b80919293503b1561000e5784926000806112ca611218946001968951948580948193637921219560e11b835233306004850161468f565b03925af180156112f4575b6112e1575b5091611200565b8061127d6112ee92610572565b386112da565b6112fc6138b7565b6112d5565b90508061130f575b386111fa565b5061270f841415611309565b61270f84141591506111f3565b6113479250803d1061134e575b61133f81836105ff565b8101906145ac565b38806111a3565b503d611335565b61135d6138b7565b61119b565b6113799150833d851161134e5761133f81836105ff565b3861116b565b6113876138b7565b611163565b503461000e57604036600319011261000e5761ffff602435610ab56113b2600435613d7d565b939093169282600019048411831515166113ee575b6127106040519485940204908360209093929193604081019460018060a01b031681520152565b6113f6613a0b565b6113c7565b503461000e57602036600319011261000e5760043560005260106020526020600360406000200154604051908152f35b8015150361000e57565b503461000e57602036600319011261000e576004356114538161142b565b6009546001600160a01b031633036114a35760207f38475885990d8dfe9ca01f0ef160a1b5514426eab9ddbc953a3353410ba7809691151560ff19600e541660ff821617600e55604051908152a1005b60405162461bcd60e51b815260206004820152602b60248201527f4e6f7420617574686f72697a656420746f20736574206f70657261746f72207260448201526a32b9ba3934b1ba34b7b71760a91b6064820152608490fd5b503461000e57600036600319011261000e576020600054604051908152f35b503461000e57600036600319011261000e5760206040516daaeb6d7670e522a718067333cd4e8152f35b503461000e5761155436610fdd565b6001600160a01b03831633141591826115c1575b60405192611575846105e4565b600084526115b3575b6115898282866135bc565b803b61159157005b61159a9361399d565b156115a157005b6040516368d2bf6b60e11b8152600490fd5b6115bc33613c79565b61157e565b6115ca33613c79565b611568565b503461000e57602036600319011261000e576004356115ed816132e3565b805190916001600160a01b0391821691829033821480156117ed575b80156117d9575b156117c7576000946116228385613797565b6001600160a01b03831660009081526005602052604090206116c19061168261166561165583546001600160401b031690565b600019016001600160401b031690565b825467ffffffffffffffff19166001600160401b03909116178255565b80546116999060801c6001600160401b0316610763565b815467ffffffffffffffff60801b191660809190911b67ffffffffffffffff60801b16179055565b6117176116d8856000526004602052604060002090565b80546001600160a01b0319166001600160a01b0386161781556117046001600160401b034216826133e2565b805460ff60e01b1916600160e01b179055565b6001840161172f816000526004602052604060002090565b80549093166001600160a01b031615611774575b505050508260405192600080516020614bd38339815191528285a461177261176d60015460010190565b600155565bf35b865403611782575b80611743565b81546001600160a01b0319166001600160a01b039093169290921781556117bf916117b9906020905b01516001600160401b031690565b906133e2565b38808061177c565b604051632ce44b5f60e11b8152600490fd5b50336117e761112985613389565b14611610565b50611828610c6f336118118560018060a01b03166000526007602052604060002090565b9060018060a01b0316600052602052604060002090565b611609565b503461000e57604036600319011261000e57602061184961052f565b602435906001600160a01b038061185f846132e3565b5116928183169284841494851561189d575b50508315611887575b5050506040519015158152f35b61189391929350613389565b161438808061187a565b60009081526007875260408082206001600160a01b03939093168252602092909252205460ff1693503880611871565b503461000e57602036600319011261000e576004356119286001611920816118ff856000526011602052604060002090565b01549361191061270f8614156146c7565b6000526011602052604060002090565b0161270f9055565b60135461193d906001600160a01b0316611129565b803b1561000e57604051637921219560e11b81529060009082908183816119698833306004850161468f565b03925af18015611987575b61197a57005b8061127d610c4b92610572565b61198f6138b7565b611974565b503461000e57602036600319011261000e5760043560005260106020526020600660406000200154604051908152f35b503461000e57602036600319011261000e576119e1600435613d7d565b604080516001600160a01b0393909316835261ffff91909116602083015290f35b503461000e57600036600319011261000e57602060ff600e54166040519015158152f35b503461000e57600036600319011261000e576013546040516001600160a01b039091168152602090f35b503461000e57604036600319011261000e57602435611a706004356140e0565b6012546001600160a01b031690813b1561000e57600080610c4b9360446040518094819363bfa0fedb60e01b83528760048401523360248401525af18015611adc575b611ac9575b50611ac4601554613ef8565b6147d6565b8061127d611ad692610572565b38611ab8565b611ae46138b7565b611ab3565b600390601754811015611b25575b6017600052027fc624b66cc0138b8fabc209247f72d758e1cf3343756d543badbf24212bed8c150190600090565b611b2d610e4c565b611af7565b90600182811c92168015611b62575b6020831014611b4c57565b634e487b7160e01b600052602260045260246000fd5b91607f1691611b41565b6040519060008260085491611b8083611b32565b80835292600190818116908115611bf45750600114611ba7575b5061062d925003836105ff565b600860009081529150600080516020614bb38339815191525b848310611bd9575061062d935050810160200138611b9a565b81935090816020925483858a01015201910190918592611bc0565b90506020925061062d94915060ff191682840152151560051b82010138611b9a565b9060405191826000825492611c2a84611b32565b908184526001948581169081600014611c975750600114611c54575b505061062d925003836105ff565b9093915060005260209081600020936000915b818310611c7f57505061062d93508201013880611c46565b85548884018501529485019487945091830191611c67565b91505061062d94506020925060ff191682840152151560051b8201013880611c46565b503461000e57602036600319011261000e5760043560175481101561000e57600390601760005202807fc624b66cc0138b8fabc209247f72d758e1cf3343756d543badbf24212bed8c150154610ab5611d5f7fc624b66cc0138b8fabc209247f72d758e1cf3343756d543badbf24212bed8c17611d587fc624b66cc0138b8fabc209247f72d758e1cf3343756d543badbf24212bed8c168601611c16565b9401611c16565b611d7b6040519485948552606060208601526060850190610a25565b908382036040850152610a25565b503461000e57604036600319011261000e57611da361052f565b600954602435916001600160a01b039182163303610bbc576127108311611e1c57600a80546001600160b01b0319169190921690811760a084901b61ffff60a01b1617909155604051918252907f90d7ec04bcb8978719414f82e52e4cb651db41d0e6f8cea6118c2191e6183adb9080602081010390a2005b60405162461bcd60e51b815260206004820152600f60248201526e45786365656473206d61782062707360881b6044820152606490fd5b503461000e57602036600319011261000e5760206001600160a01b03611e7a6004356132e3565b5116604051908152f35b503461000e57600036600319011261000e576020600c54604051908152f35b503461000e57602036600319011261000e5760043560005260106020526020600560406000200154604051908152f35b503461000e57600036600319011261000e576012546040516001600160a01b039091168152602090f35b503461000e57602036600319011261000e576001600160a01b03611f1f61052f565b168015611f4757600052600560205260206001600160401b0360406000205416604051908152f35b6040516323d3ad8160e21b8152600490fd5b503461000e57602036600319011261000e57600435600081819282526011602052611f9b611f9460408420549261191061270f851415614a62565b61270f9055565b601254611fb0906001600160a01b0316611129565b90813b15612012578291611fdc91604051948580948193637921219560e11b835233306004850161468f565b03925af18015612005575b611ff2575b50604051f35b8061127d611fff92610572565b38611fec565b61200d6138b7565b611fe7565b5050fd5b503461000e57608036600319011261000e5761203061052f565b602435604435916001600160401b039283811161000e57612055903690600401610690565b9160643584811161000e5761206e903690600401610690565b9161208460018060a01b03600954163314613056565b600093612092838654613a4e565b600c5490680100000000000000008210156121c2575b6120d8816120bd600194858101600c556139c6565b90919082549060031b600019811b9283911b16911916179055565b86526020600d8152604087209280519889116121b5575b612103896120fd8654611b32565b86613101565b81601f8a1160011461214757509780928192899a6121379a9461213c575b50501b916000199060031b1c191617905561340d565b604051f35b015192503880612121565b909891601f1983169961215f86600052602060002090565b928a905b8c821061219e575050836121379a9b10612185575b505050811b01905561340d565b015160001960f88460031b161c19169055388080612178565b808785968294968601518155019501930190612163565b6121bd61055b565b6120ef565b6121ca61055b565b6120a8565b503461000e57602036600319011261000e5760043560005260106020526020600460406000200154604051908152f35b503461000e57602036600319011261000e57610c4b6004356140e0565b503461000e57600036600319011261000e576009546040516001600160a01b039091168152602090f35b503461000e57602036600319011261000e5760043560005260116020526020600160406000200154604051908152f35b503461000e5760208060031936011261000e576001600160401b039060043582811161000e576122aa903690600401610690565b6009549091906001600160a01b03163303610bbc576122c7611b6c565b9082519384116123e7575b6122e6846122e1600854611b32565b6130a2565b80601f8511600114612353575092807fc9c7c3fe08b88b4df9d4d47ef47d2c43d55c025a0ba88ca442580ed9e7348a1694600091612348575b508160011b916000199060031b1c1916176008555b61234360405192839283613b6d565b0390a1005b90508301513861231f565b600860005290601f198516600080516020614bb3833981519152926000905b8282106123cf5750509185917fc9c7c3fe08b88b4df9d4d47ef47d2c43d55c025a0ba88ca442580ed9e7348a1696600194106123b6575b5050811b01600855612334565b85015160001960f88460031b161c1916905538806123a9565b80600185968294968a01518155019501930190612372565b6123ef61055b565b6122d2565b503461000e57600036600319011261000e576014546040516001600160a01b039091168152602090f35b503461000e57600080600319360112610b3e57604051908060035461244281611b32565b80855291600191808316908115610b14575060011461246b57610ab585610aa9818703826105ff565b9250600383527fc2575a0e9e593c00f959f8c92f12db2869c3395a3b0502d05e2516446f71f85b5b8284106124ae575050508101602001610aa982610ab5610a99565b80546020858701810191909152909301928101612493565b503461000e57606036600319011261000e576004356124e3610545565b6009546001600160a01b0392916044359184163303610bbc576127108211611e1c577f7365cf4122f072a3365c20d54eff9b38d73c096c28e1892ec8f5b0e403a0f12d9161258d916001866040519261253b84610592565b1696878352612579602084019185835288600052600b6020526040600020945116849060018060a01b03166001600160601b0360a01b825416179055565b519101556040519081529081906020820190565b0390a3005b503461000e5760a036600319011261000e576084356024356044356064356004356125bc816132e3565b516001600160a01b03166125da906001600160a01b031633146144c1565b84826125e68587613a4e565b906125f091613a4e565b906125fa91613a4e565b6005146126069061451e565b61261a906000526010602052604060002090565b93600785018481549061262c91613a4e565b9055600885018381549061263f91613a4e565b9055600985018281549061265291613a4e565b9055600a85018181549061266591613a4e565b905561267090613d67565b600385019081549061268191613a4e565b905561268c90613d67565b600484019081549061269d91613a4e565b90556126a890613d67565b600b8301908154906126b991613a4e565b90556126c490613d67565b60058201908154906126d591613a4e565b90556000600c9190910155005b503461000e57604036600319011261000e576126fc61052f565b6024356127088161142b565b61271182613c79565b6001600160a01b03821691338314612785573360009081526007602090815260408083206001600160a01b039094168352929052209015159060ff1981541660ff83161790556040519081527f17307eab39ab6107e8899845ad3d59bd9653f200f220920489ca2b5937696c3160203392a3005b60405163b06307db60e01b8152600490fd5b503461000e57602036600319011261000e5760043560005260106020526020600160406000200154604051908152f35b602080820190808352835180925260408301928160408460051b8301019501936000915b8483106127fb5750505050505090565b9091929394958480612819600193603f198682030187528a51610a25565b98019301930191949392906127eb565b503461000e57602036600319011261000e576001600160401b0360043581811161000e573660238201121561000e57806004013591821161000e573660248360051b8301011161000e57610ab59160246128839201613ba2565b604051918291826127c7565b503461000e57600036600319011261000e57600a54604080516001600160a01b038316815260a09290921c61ffff16602083015290f35b503461000e57608036600319011261000e576128e061052f565b6128e8610545565b6044356064356001600160401b03811161000e5761290a903690600401610690565b91336001600160a01b038516036115b3576115898282866135bc565b6020906001600160401b03811161293f575b60051b0190565b61294761055b565b612938565b81601f8201121561000e5780359161296383612926565b9261297160405194856105ff565b808452602092838086019260051b82010192831161000e578301905b82821061299b575050505090565b8135815290830190830161298d565b503461000e5760a036600319011261000e576129c461052f565b506129cd610545565b506001600160401b0360443581811161000e576129ee90369060040161294c565b5060643581811161000e57612a0790369060040161294c565b5060843590811161000e57612a20903690600401610690565b5060405163bc197c8160e01b8152602090f35b503461000e57604036600319011261000e57610c4b6024356004356147d6565b503461000e57602036600319011261000e57610ab5612a73600435612fe3565b604051918291602083526020830190610a25565b503461000e57602036600319011261000e576002612adb60043582612ab6826000526011602052604060002090565b015490612ac4821515614b72565b600093849384926000526011602052604060002090565b0155601454611fb0906001600160a01b0316611129565b503461000e57602036600319011261000e57612b0c61052f565b6009546001600160a01b03919082163303610bbc57166001600160601b0360a01b60125416176012556000604051f35b503461000e57602036600319011261000e57604051612b5a816105ad565b6101a06000918281528260208201528260408201528260608201528260808201528260a08201528260c08201528260e082015282610100820152826101208201528261014082015282610160820152826101808201520152610ab5612bd3612bce6004356000526010602052604060002090565b613ffd565b604051918291829190916101c0810192805182526020810151602083015260408101516040830152606081015160608301526080810151608083015260a081015160a083015260c081015160c083015260e081015160e0830152610100808201519083015261012080820151908301526101408082015190830152610160808201519083015261018080820151908301526101a080910151910152565b503461000e5760408060031936011261000e576014546024359190829060043590612ca3906001600160a01b0316611129565b835163bd85b03960e01b815260048101849052612d1a90602090612ce1908281602481885afa908115612e40575b600091612e23575b501515614aa2565b8551627eeac760e11b8152336004820152602481018690528181604481875afa918215612e16575b600092612df9575b50501515614ae1565b612d3d836002612d34856000526011602052604060002090565b01541415614b2d565b6002612d53836000526011602052604060002090565b01549081612d8b575b5050612d746002916000526011602052604060002090565b015560145461122f906001600160a01b0316611129565b80919293503b1561000e578492600080612dc2612d74946002968951948580948193637921219560e11b835233306004850161468f565b03925af18015612dec575b612dd9575b5091612d5c565b8061127d612de692610572565b38612dd2565b612df46138b7565b612dcd565b612e0f9250803d1061134e5761133f81836105ff565b3880612d11565b612e1e6138b7565b612d09565b612e3a9150833d851161134e5761133f81836105ff565b38612cd9565b612e486138b7565b612cd1565b503461000e57600080600319360112610b3e576040519080600854612e7181611b32565b80855291600191808316908115610b145750600114612e9a57610ab585610aa9818703826105ff565b925060088352600080516020614bb38339815191525b828410612ecb575050508101602001610aa982610ab5610a99565b80546020858701810191909152909301928101612eb0565b503461000e57604036600319011261000e57602060ff612f35612f0461052f565b612f0c610545565b6001600160a01b0391821660009081526007865260408082209290931681526020919091522090565b54166040519015158152f35b503461000e57602036600319011261000e5760043560005260116020526020604060002054604051908152f35b503461000e57600036600319011261000e576020601554604051908152f35b503461000e5760a036600319011261000e57612fa761052f565b50612fb0610545565b506084356001600160401b03811161000e57612fd0903690600401610690565b5060405163f23a6e6160e01b8152602090f35b806000526020600f8152612ffa6040600020611c16565b805161305057506106ab9061301761301184613a7c565b93613f34565b92604051938161303086935180928680870191016109f0565b8201613044825180938680850191016109f0565b010380845201826105ff565b91505090565b1561305d57565b60405162461bcd60e51b815260206004820152601760248201527f4e6f7420617574686f72697a656420746f206d696e742e0000000000000000006044820152606490fd5b601f81116130ae575050565b60009060088252600080516020614bb3833981519152906020601f850160051c830194106130f7575b601f0160051c01915b8281106130ec57505050565b8181556001016130e0565b90925082906130d7565b90601f811161310f57505050565b600091825260208220906020601f850160051c8301941061314b575b601f0160051c01915b82811061314057505050565b818155600101613134565b909250829061312b565b9190600090838252602093600f85526131716040842054611b32565b613250578252600f845260408220918151916001600160401b038311613243575b6131a0836120fd8654611b32565b8591601f84116001146131d9578394959650926131ce575b50508160011b916000199060031b1c1916179055565b0151905038806131b8565b9190601f198416966131f086600052602060002090565b93905b88821061322b57505083600195969710613212575b505050811b019055565b015160001960f88460031b161c19169055388080613208565b806001859682949686015181550195019301906131f3565b61324b61055b565b613192565b60405162461bcd60e51b815260048101869052600f60248201526e15549248185b1c9958591e481cd95d608a1b6044820152606490fd5b60405190613294826105c9565b60006040838281528260208201520152565b906040516132b3816105c9565b91546001600160a01b038116835260a081901c6001600160401b0316602084015260e01c60ff1615156040830152565b6132eb613287565b50806000548110613309575b604051636f96cda160e11b8152600490fd5b613320613325916000526004602052604060002090565b6132a6565b61333561089a6040830151151590565b156132f75780516001600160a01b031661338457505b60001901613366613320826000526004602052604060002090565b805161337a906001600160a01b0316611129565b613384575061334b565b905090565b6000548110806133c6575b156133b4576000908152600660205260409020546001600160a01b031690565b6040516333d1c03960e21b8152600490fd5b5080600052600460205260ff60406000205460e01c1615613394565b805467ffffffffffffffff60a01b191660a09290921b67ffffffffffffffff60a01b16919091179055565b6000805492939092916001600160a01b03811680156135ab578515613599576134c86001600160401b036134b081891661347e61345c8760018060a01b03166000526005602052604060002090565b6107728361347183546001600160401b031690565b016001600160401b031690565b6001600160a01b03861660009081526005602052604090206107c0909161347183546001600160401b039060401c1690565b61081e846107ff886000526004602052604060002090565b8395840190823b151560001461354b5760019182805b6134f3575b505050505050815403610b3e5755565b1561353e575b86604089848a600080516020614bd3833981519152818551a461352361089a88878d019c896138f4565b61352e5750836134de565b516368d2bf6b60e11b8152600490fd5b8088106134f957806134e3565b93509150506001809181604051935b613567575b505050505055565b1561358c575b8482808801978688600080516020614bd38339815191528189a461355a565b80861061356d578061355f565b60405163b562e8dd60e01b8152600490fd5b604051622e076360e81b8152600490fd5b6135c5836132e3565b80516001600160a01b03808416939291811684900361378657833314801561375d575b8015613749575b156117c7578416938415613737576136a29061360b8488613797565b6001600160a01b038416600090815260056020526040902061363b9061077261165582546001600160401b031690565b6001600160a01b038116600090815260056020526040902061365c9061074f565b613692613673886000526004602052604060002090565b80546001600160a01b0319166001600160a01b03909316929092178255565b6001600160401b034216906133e2565b60018501906136bb826000526004602052604060002090565b80549092906136d2906001600160a01b0316611129565b156136f3575b50505050600080516020614bd38339815191526000604051a4565b60005403613702575b806136d8565b81546001600160a01b0319166001600160a01b0390931692909217815561372f916117b9906020906117ab565b3880806136fc565b604051633a954ecd60e21b8152600490fd5b503361375761112988613389565b146135ef565b50613781610c6f336118118660018060a01b03166000526007602052604060002090565b6135e8565b60405162a1148160e81b8152600490fd5b906000908282526006602052604082206001600160601b0360a01b815416905560018060a01b03167f8c5be1e5ebec7d5bd14f71427d1e84f3dd0314c0f7b2291e5b200ac8c7c3b92582604051a4565b600082815260066020526040902080546001600160a01b0319166001600160a01b03831617905590919060018060a01b0380911691167f8c5be1e5ebec7d5bd14f71427d1e84f3dd0314c0f7b2291e5b200ac8c7c3b9256000604051a4565b9081602091031261000e57516106ab81610923565b6106ab939260809260018060a01b031682526000602083015260408201528160608201520190610a25565b6001600160a01b0391821681529116602082015260408101919091526080606082018190526106ab92910190610a25565b506040513d6000823e3d90fd5b3d156138ef573d906138d58261062f565b916138e360405193846105ff565b82523d6000602084013e565b606090565b61391d60209160009394604051948580948193630a85bd0160e11b998a8452336004850161385b565b03926001600160a01b03165af16000918161396d575b5061395f576139406138c4565b8051908161395a576040516368d2bf6b60e11b8152600490fd5b602001fd5b6001600160e01b0319161490565b61398f91925060203d8111613996575b61398781836105ff565b810190613846565b9038613933565b503d61397d565b9260209161391d936000604051809681958294630a85bd0160e11b9a8b85523360048601613886565b600c548110156139fe575b600c6000527fdf6966c971051c3d54ec59162606531493a51404a002842f56009d7e5cf4a8c70190600090565b613a06610e4c565b6139d1565b50634e487b7160e01b600052601160045260246000fd5b6001906001198111613a32570190565b613a3a613a0b565b0190565b6005906005198111613a32570190565b81198111613a32570190565b6020918151811015613a6f575b60051b010190565b613a77610e4c565b613a67565b600c54906040519081838152826020809201600c6000527fdf6966c971051c3d54ec59162606531493a51404a002842f56009d7e5cf4a8c79260005b878110613b56575050613acd925003836105ff565b60005b838110613b0e5760405162461bcd60e51b815260206004820152600f60248201526e125b9d985b1a59081d1bdad95b9259608a1b6044820152606490fd5b613b188184613a5a565b518210613b2d57613b2890613a22565b613ad0565b6106ab9350613b409150613b5192613a5a565b51600052600d602052604060002090565b611c16565b845483526001948501948794509282019201613ab8565b9091613b846106ab93604084526040840190610a25565b916020818403910152610a25565b6001906000198114613a32570190565b90613bac81612926565b91613bba60405193846105ff565b818352601f19613bc983612926565b0160005b818110613c5357505060005b828110613be65750505090565b8060051b820135601e198336030181121561000e578201908135916001600160401b03831161000e57602001823603811361000e57613c2d613c3391613c4e943691610659565b30613df6565b613c3d8287613a5a565b52613c488186613a5a565b50613b92565b613bd9565b806060602080938801015201613bcd565b9081602091031261000e57516106ab8161142b565b600e5460ff16613c865750565b6daaeb6d7670e522a718067333cd4e803b613c9f575050565b604051633185c44d60e21b81523060048201526001600160a01b038316602482015290602090829060449082905afa908115613d38575b600091613d0a575b5015613ce75750565b604051633b79c77360e21b81526001600160a01b03919091166004820152602490fd5b613d2b915060203d8111613d31575b613d2381836105ff565b810190613c64565b38613cde565b503d613d19565b613d406138b7565b613cd6565b6064908060001904821181151516613d5b570290565b613d63613a0b565b0290565b6005908060001904821181151516613d5b570290565b600052600b602052604060002090602060405192604084018481106001600160401b03821117613de9575b60405280546001600160a01b039081168086526001909201549290940182905280613de057505061ffff600a549283169260a01c1690565b925061ffff1690565b613df161055b565b613da8565b9060405190613e04826105c9565b602782527f416464726573733a206c6f772d6c6576656c2064656c65676174652063616c6c6020830152660819985a5b195960ca1b6040830152823b15613e64576000816106ab9460208394519201905af4613e5e6138c4565b90613eb8565b60405162461bcd60e51b815260206004820152602660248201527f416464726573733a2064656c65676174652063616c6c20746f206e6f6e2d636f6044820152651b9d1c9858dd60d21b6064820152608490fd5b90919015613ec4575090565b815115613ed45750805190602001fd5b60405162461bcd60e51b815260206004820152908190610bf2906024830190610a25565b60018110613f08575b6000190190565b613f10613a0b565b613f01565b906020918051821015613f2757010190565b613f2f610e4c565b010190565b8015613fdf57806000908282935b613fcb5750613f508361062f565b92613f5e60405194856105ff565b80845281601f19613f6e8361062f565b013660208701375b613f805750505090565b613f8990613ef8565b90600a90603082820680198211613fbe575b0160f81b6001600160f81b031916841a613fb58487613f15565b53049081613f76565b613fc6613a0b565b613f9b565b92613fd7600a91613b92565b930480613f42565b50604051613fec81610592565b60018152600360fc1b602082015290565b90600d614008610620565b928054845260018101546020850152600281015460408501526003810154606085015260048101546080850152600581015460a0850152600681015460c0850152600781015460e085015260088101546101008501526009810154610120850152600a810154610140850152600b810154610160850152600c81015461018085015201546101a0830152565b1561409b57565b60405162461bcd60e51b815260206004820152601960248201527f496e76616c6964206368617261637465722074797065204944000000000000006044820152606490fd5b60175481106140ee90614094565b6140f733614343565b6015805461410483611ae9565b5060020161411190611c16565b61411a91613155565b805461412583610e63565b50600101549061413484610e63565b50600201548461414381610e63565b506003015461415182610e63565b506004015461415f83610e63565b506005015461416d84610e63565b506006015461417b85610e63565b50600701549061418a86610e63565b50600801549261419987610e63565b5060090154946141a888610e63565b50600a0154966141b789610e63565b50600b0154986141c690610e63565b50600c0154996141d4610620565b9c8d8d81526020015260408d015260608c015260808b015260a08a015260c089015260e0880152610100870152610120860152610140850152610160840152610180830152836101a0830152614234906000526010602052604060002090565b815181556020820151600182015560408201516002820155606082015160038201556080820151600482015560a0820151600582015560c0820151600682015560e0820151600782015561010082015160088201556101208201516009820155610140820151600a820155610160820151600b820155610180820151600c8201556101a090910151600d9091015580546142d8906000526011602052604060002090565b61270f905580546142f3906000526011602052604060002090565b6001016143019061270f9055565b805461430c90613b92565b6015555461431990613ef8565b60405160007f1d70055ce2e34b710424c8ce5a6e724570ab0ff0cdffb52107ba6f70821d21b991a3565b60408051614350816105e4565b60009182825282549160018060a01b0385169485156144b1576001600160a01b038116600090815260056020526040902061438a9061074f565b6001600160a01b03811660009081526005602052604090206143ab906107a9565b6143c3816107ff866000526004602052604060002090565b6143e46001600160401b034216610834866000526004602052604060002090565b8395600190818601833b15156000146144665782805b614410575b50505050505050815403610b3e5755565b15614459575b8789838a600080516020614bd3833981519152818b51a461443e61089a87868d019c886138f4565b61444857836143fa565b86516368d2bf6b60e11b8152600490fd5b80891061441657806143ff565b9250945092838093509051935b61447f57505050505055565b156144a4575b8482808801978688600080516020614bd38339815191528189a4614473565b808610614485578061355f565b8251622e076360e81b8152600490fd5b156144c857565b60405162461bcd60e51b815260206004820152602860248201527f43616c6c6572206973206e6f7420746865206f776e6572206f662074686520636044820152673430b930b1ba32b960c11b6064820152608490fd5b1561452557565b60405162461bcd60e51b815260206004820152601760248201527f55736520616c6c20746865207374617420706f696e74730000000000000000006044820152606490fd5b1561457157565b60405162461bcd60e51b815260206004820152601360248201527221b0b63632b91034b9903737ba1037bbb732b960691b6044820152606490fd5b9081602091031261000e575190565b156145c257565b60405162461bcd60e51b8152602060048201526015602482015274125b9d985b1a59081a5d195b481d1bdad95b881251605a1b6044820152606490fd5b1561460657565b60405162461bcd60e51b815260206004820152601960248201527f4e6f7420746865206f776e6572206f6620746865206974656d000000000000006044820152606490fd5b1561465257565b60405162461bcd60e51b8152602060048201526015602482015274125d195b48185b1c9958591e48195c5d5a5c1c1959605a1b6044820152606490fd5b6001600160a01b0391821681529116602082015260408101919091526001606082015260a06080820181905260009082015260c00190565b156146ce57565b60405162461bcd60e51b815260206004820152601060248201526f139bc81a5d195b48195c5d5a5c1c195960821b6044820152606490fd5b1561470d57565b60405162461bcd60e51b815260206004820152601060248201526f125b9d985b1a59081cdada5b1b08125160821b6044820152606490fd5b1561474c57565b60405162461bcd60e51b815260206004820152601a60248201527f4e6f7420746865206f776e6572206f662074686520736b696c6c0000000000006044820152606490fd5b1561479857565b60405162461bcd60e51b815260206004820152601660248201527514dada5b1b08185b1c9958591e48195c5d5a5c1c195960521b6044820152606490fd5b60125482906147ed906001600160a01b0316611129565b9161487060405163bd85b03960e01b815261483660209182818061481989600483019190602083019252565b03818a5afa908115614a55575b600091614a38575b501515614706565b604051627eeac760e11b8152336004820152602481018590528181604481895afa918215614a2b575b600092614a0e575b50501515614745565b81614885826000526011602052604060002090565b54148015906149e0575b61489890614791565b6148ac816000526011602052604060002090565b54928315801590816149d3575b81156149b9575b5061494e575b506148dd9192506000526011602052604060002090565b556012546148f3906001600160a01b0316611129565b803b1561000e57604051637921219560e11b81529160009183918290849082906149229030336004850161468f565b03925af18015614941575b6149345750565b8061127d61062d92610572565b6149496138b7565b61492d565b8092503b1561000e576000806149816148dd948796604051948580948193637921219560e11b835233306004850161468f565b03925af180156149ac575b614999575b8392506148c6565b8061127d6149a692610572565b38614991565b6149b46138b7565b61498c565b9050806149c7575b386148c0565b5061270f8314156149c1565b61270f86141591506148b9565b508115801561488f575061489861270f614a04836000526011602052604060002090565b541415905061488f565b614a249250803d1061134e5761133f81836105ff565b3880614867565b614a336138b7565b61485f565b614a4f9150833d851161134e5761133f81836105ff565b3861482e565b614a5d6138b7565b614826565b15614a6957565b60405162461bcd60e51b8152602060048201526011602482015270139bc81cdada5b1b08195c5d5a5c1c1959607a1b6044820152606490fd5b15614aa957565b60405162461bcd60e51b815260206004820152601060248201526f125b9d985b1a590818db185cdcc8125160821b6044820152606490fd5b15614ae857565b60405162461bcd60e51b815260206004820152601a60248201527f4e6f7420746865206f776e6572206f662074686520636c6173730000000000006044820152606490fd5b15614b3457565b60405162461bcd60e51b815260206004820152601660248201527510db185cdcc8185b1c9958591e48195c5d5a5c1c195960521b6044820152606490fd5b15614b7957565b60405162461bcd60e51b8152602060048201526011602482015270139bc818db185cdcc8195c5d5a5c1c1959607a1b6044820152606490fdfef3f7a9fe364faab93b216da50a3214154f22a0a2b415b23a84c8169e8b636ee3ddf252ad1be2c89b69c2b068fc378daa952ba7f163c4a11628f55a4df523b3efa2646970667358221220ef4643613416ec298149d73b6144c1f8727c26be763cb9c550081f9a8fcf8f0464736f6c634300080f0033",
  "linkReferences": {},
  "deployedLinkReferences": {}
}