{
  "_format": "hh-sol-artifact-1",
  "contractName": "Character",
  "sourceName": "contracts/Character.sol",
  "abi": [
    {
      "inputs": [],
      "stateMutability": "nonpayable",
      "type": "constructor"
    },
    {
      "inputs": [],
      "name": "ApprovalCallerNotOwnerNorApproved",
      "type": "error"
    },
    {
      "inputs": [],
      "name": "ApprovalQueryForNonexistentToken",
      "type": "error"
    },
    {
      "inputs": [],
      "name": "ApprovalToCurrentOwner",
      "type": "error"
    },
    {
      "inputs": [],
      "name": "ApproveToCaller",
      "type": "error"
    },
    {
      "inputs": [],
      "name": "BalanceQueryForZeroAddress",
      "type": "error"
    },
    {
      "inputs": [],
      "name": "MintToZeroAddress",
      "type": "error"
    },
    {
      "inputs": [],
      "name": "MintZeroQuantity",
      "type": "error"
    },
    {
      "inputs": [
        {
          "internalType": "address",
          "name": "operator",
          "type": "address"
        }
      ],
      "name": "OperatorNotAllowed",
      "type": "error"
    },
    {
      "inputs": [],
      "name": "OwnerQueryForNonexistentToken",
      "type": "error"
    },
    {
      "inputs": [],
      "name": "TransferCallerNotOwnerNorApproved",
      "type": "error"
    },
    {
      "inputs": [],
      "name": "TransferFromIncorrectOwner",
      "type": "error"
    },
    {
      "inputs": [],
      "name": "TransferToNonERC721ReceiverImplementer",
      "type": "error"
    },
    {
      "inputs": [],
      "name": "TransferToZeroAddress",
      "type": "error"
    },
    {
      "inputs": [],
      "name": "URIQueryForNonexistentToken",
      "type": "error"
    },
    {
      "anonymous": false,
      "inputs": [
        {
          "indexed": true,
          "internalType": "address",
          "name": "owner",
          "type": "address"
        },
        {
          "indexed": true,
          "internalType": "address",
          "name": "approved",
          "type": "address"
        },
        {
          "indexed": true,
          "internalType": "uint256",
          "name": "tokenId",
          "type": "uint256"
        }
      ],
      "name": "Approval",
      "type": "event"
    },
    {
      "anonymous": false,
      "inputs": [
        {
          "indexed": true,
          "internalType": "address",
          "name": "owner",
          "type": "address"
        },
        {
          "indexed": true,
          "internalType": "address",
          "name": "operator",
          "type": "address"
        },
        {
          "indexed": false,
          "internalType": "bool",
          "name": "approved",
          "type": "bool"
        }
      ],
      "name": "ApprovalForAll",
      "type": "event"
    },
    {
      "anonymous": false,
      "inputs": [
        {
          "indexed": true,
          "internalType": "uint256",
          "name": "tokenId",
          "type": "uint256"
        },
        {
          "indexed": false,
          "internalType": "uint256",
          "name": "stamina",
          "type": "uint256"
        },
        {
          "indexed": false,
          "internalType": "uint256",
          "name": "maxMana",
          "type": "uint256"
        },
        {
          "indexed": false,
          "internalType": "uint256",
          "name": "lastStaminaUpdateTime",
          "type": "uint256"
        },
        {
          "indexed": false,
          "internalType": "uint256",
          "name": "lastManaUpdateTime",
          "type": "uint256"
        }
      ],
      "name": "CharacterRecoveryStats",
      "type": "event"
    },
    {
      "anonymous": false,
      "inputs": [
        {
          "indexed": true,
          "internalType": "uint256",
          "name": "tokenId",
          "type": "uint256"
        },
        {
          "indexed": false,
          "internalType": "uint256",
          "name": "level",
          "type": "uint256"
        },
        {
          "indexed": false,
          "internalType": "uint256",
          "name": "experience",
          "type": "uint256"
        },
        {
          "indexed": false,
          "internalType": "uint256",
          "name": "health",
          "type": "uint256"
        },
        {
          "indexed": false,
          "internalType": "uint256",
          "name": "mana",
          "type": "uint256"
        },
        {
          "indexed": false,
          "internalType": "uint256",
          "name": "attack",
          "type": "uint256"
        },
        {
          "indexed": false,
          "internalType": "uint256",
          "name": "defense",
          "type": "uint256"
        },
        {
          "indexed": false,
          "internalType": "uint256",
          "name": "strength",
          "type": "uint256"
        },
        {
          "indexed": false,
          "internalType": "uint256",
          "name": "dexterity",
          "type": "uint256"
        },
        {
          "indexed": false,
          "internalType": "uint256",
          "name": "intelligence",
          "type": "uint256"
        },
        {
          "indexed": false,
          "internalType": "uint256",
          "name": "vitality",
          "type": "uint256"
        },
        {
          "indexed": false,
          "internalType": "uint256",
          "name": "accuracy",
          "type": "uint256"
        },
        {
          "indexed": false,
          "internalType": "uint256",
          "name": "statPoints",
          "type": "uint256"
        }
      ],
      "name": "CharacterStatsEvent",
      "type": "event"
    },
    {
      "anonymous": false,
      "inputs": [
        {
          "indexed": true,
          "internalType": "uint256",
          "name": "tokenId",
          "type": "uint256"
        },
        {
          "indexed": false,
          "internalType": "uint256",
          "name": "strength",
          "type": "uint256"
        },
        {
          "indexed": false,
          "internalType": "uint256",
          "name": "dexterity",
          "type": "uint256"
        },
        {
          "indexed": false,
          "internalType": "uint256",
          "name": "intelligence",
          "type": "uint256"
        },
        {
          "indexed": false,
          "internalType": "uint256",
          "name": "vitality",
          "type": "uint256"
        }
      ],
      "name": "CharacterStatsUpdated",
      "type": "event"
    },
    {
      "anonymous": false,
      "inputs": [
        {
          "indexed": true,
          "internalType": "uint256",
          "name": "tokenId",
          "type": "uint256"
        },
        {
          "indexed": false,
          "internalType": "uint256",
          "name": "xp",
          "type": "uint256"
        }
      ],
      "name": "CharacterXPUpdated",
      "type": "event"
    },
    {
      "anonymous": false,
      "inputs": [
        {
          "indexed": true,
          "internalType": "uint256",
          "name": "characterTokenId",
          "type": "uint256"
        },
        {
          "indexed": true,
          "internalType": "uint256",
          "name": "classId",
          "type": "uint256"
        }
      ],
      "name": "ClassEquipped",
      "type": "event"
    },
    {
      "anonymous": false,
      "inputs": [
        {
          "indexed": true,
          "internalType": "uint256",
          "name": "characterTokenId",
          "type": "uint256"
        },
        {
          "indexed": true,
          "internalType": "uint256",
          "name": "classId",
          "type": "uint256"
        }
      ],
      "name": "ClassUnequipped",
      "type": "event"
    },
    {
      "anonymous": false,
      "inputs": [
        {
          "indexed": false,
          "internalType": "string",
          "name": "prevURI",
          "type": "string"
        },
        {
          "indexed": false,
          "internalType": "string",
          "name": "newURI",
          "type": "string"
        }
      ],
      "name": "ContractURIUpdated",
      "type": "event"
    },
    {
      "anonymous": false,
      "inputs": [
        {
          "indexed": true,
          "internalType": "address",
          "name": "newRoyaltyRecipient",
          "type": "address"
        },
        {
          "indexed": false,
          "internalType": "uint256",
          "name": "newRoyaltyBps",
          "type": "uint256"
        }
      ],
      "name": "DefaultRoyalty",
      "type": "event"
    },
    {
      "anonymous": false,
      "inputs": [
        {
          "indexed": true,
          "internalType": "uint256",
          "name": "tokenId",
          "type": "uint256"
        },
        {
          "indexed": false,
          "internalType": "uint256",
          "name": "mana",
          "type": "uint256"
        }
      ],
      "name": "ManaUpdated",
      "type": "event"
    },
    {
      "anonymous": false,
      "inputs": [
        {
          "indexed": true,
          "internalType": "address",
          "name": "player",
          "type": "address"
        },
        {
          "indexed": true,
          "internalType": "uint256",
          "name": "tokenId",
          "type": "uint256"
        },
        {
          "indexed": false,
          "internalType": "uint256",
          "name": "typeId",
          "type": "uint256"
        }
      ],
      "name": "NewCharacter",
      "type": "event"
    },
    {
      "anonymous": false,
      "inputs": [
        {
          "indexed": false,
          "internalType": "bool",
          "name": "restriction",
          "type": "bool"
        }
      ],
      "name": "OperatorRestriction",
      "type": "event"
    },
    {
      "anonymous": false,
      "inputs": [
        {
          "indexed": true,
          "internalType": "address",
          "name": "prevOwner",
          "type": "address"
        },
        {
          "indexed": true,
          "internalType": "address",
          "name": "newOwner",
          "type": "address"
        }
      ],
      "name": "OwnerUpdated",
      "type": "event"
    },
    {
      "anonymous": false,
      "inputs": [
        {
          "indexed": true,
          "internalType": "uint256",
          "name": "tokenId",
          "type": "uint256"
        },
        {
          "indexed": true,
          "internalType": "address",
          "name": "royaltyRecipient",
          "type": "address"
        },
        {
          "indexed": false,
          "internalType": "uint256",
          "name": "royaltyBps",
          "type": "uint256"
        }
      ],
      "name": "RoyaltyForToken",
      "type": "event"
    },
    {
      "anonymous": false,
      "inputs": [
        {
          "indexed": true,
          "internalType": "uint256",
          "name": "tokenId",
          "type": "uint256"
        },
        {
          "indexed": false,
          "internalType": "uint256",
          "name": "stamina",
          "type": "uint256"
        }
      ],
      "name": "StaminaUpdated",
      "type": "event"
    },
    {
      "anonymous": false,
      "inputs": [
        {
          "indexed": true,
          "internalType": "address",
          "name": "from",
          "type": "address"
        },
        {
          "indexed": true,
          "internalType": "address",
          "name": "to",
          "type": "address"
        },
        {
          "indexed": true,
          "internalType": "uint256",
          "name": "tokenId",
          "type": "uint256"
        }
      ],
      "name": "Transfer",
      "type": "event"
    },
    {
      "inputs": [],
      "name": "OPERATOR_FILTER_REGISTRY",
      "outputs": [
        {
          "internalType": "contract IOperatorFilterRegistry",
          "name": "",
          "type": "address"
        }
      ],
      "stateMutability": "view",
      "type": "function"
    },
    {
      "inputs": [
        {
          "internalType": "uint256",
          "name": "tokenId",
          "type": "uint256"
        },
        {
          "internalType": "uint256",
          "name": "amount",
          "type": "uint256"
        }
      ],
      "name": "addMana",
      "outputs": [],
      "stateMutability": "nonpayable",
      "type": "function"
    },
    {
      "inputs": [
        {
          "internalType": "uint256",
          "name": "tokenId",
          "type": "uint256"
        },
        {
          "internalType": "uint256",
          "name": "amount",
          "type": "uint256"
        }
      ],
      "name": "addStamina",
      "outputs": [],
      "stateMutability": "nonpayable",
      "type": "function"
    },
    {
      "inputs": [
        {
          "internalType": "uint256",
          "name": "characterTokenId",
          "type": "uint256"
        },
        {
          "internalType": "uint256",
          "name": "strength",
          "type": "uint256"
        },
        {
          "internalType": "uint256",
          "name": "dexterity",
          "type": "uint256"
        },
        {
          "internalType": "uint256",
          "name": "intelligence",
          "type": "uint256"
        },
        {
          "internalType": "uint256",
          "name": "vitality",
          "type": "uint256"
        }
      ],
      "name": "addStats",
      "outputs": [],
      "stateMutability": "nonpayable",
      "type": "function"
    },
    {
      "inputs": [
        {
          "internalType": "address",
          "name": "operator",
          "type": "address"
        },
        {
          "internalType": "uint256",
          "name": "tokenId",
          "type": "uint256"
        }
      ],
      "name": "approve",
      "outputs": [],
      "stateMutability": "nonpayable",
      "type": "function"
    },
    {
      "inputs": [
        {
          "internalType": "address",
          "name": "owner",
          "type": "address"
        }
      ],
      "name": "balanceOf",
      "outputs": [
        {
          "internalType": "uint256",
          "name": "",
          "type": "uint256"
        }
      ],
      "stateMutability": "view",
      "type": "function"
    },
    {
      "inputs": [
        {
          "internalType": "address",
          "name": "_to",
          "type": "address"
        },
        {
          "internalType": "uint256",
          "name": "_quantity",
          "type": "uint256"
        },
        {
          "internalType": "string",
          "name": "_baseURI",
          "type": "string"
        },
        {
          "internalType": "bytes",
          "name": "_data",
          "type": "bytes"
        }
      ],
      "name": "batchMintTo",
      "outputs": [],
      "stateMutability": "nonpayable",
      "type": "function"
    },
    {
      "inputs": [],
      "name": "battleItems",
      "outputs": [
        {
          "internalType": "contract IBattleItems",
          "name": "",
          "type": "address"
        }
      ],
      "stateMutability": "view",
      "type": "function"
    },
    {
      "inputs": [],
      "name": "battleSkills",
      "outputs": [
        {
          "internalType": "contract IBattleSkills",
          "name": "",
          "type": "address"
        }
      ],
      "stateMutability": "view",
      "type": "function"
    },
    {
      "inputs": [
        {
          "internalType": "uint256",
          "name": "_tokenId",
          "type": "uint256"
        }
      ],
      "name": "burn",
      "outputs": [],
      "stateMutability": "nonpayable",
      "type": "function"
    },
    {
      "inputs": [
        {
          "internalType": "uint256",
          "name": "",
          "type": "uint256"
        }
      ],
      "name": "charStats",
      "outputs": [
        {
          "internalType": "uint256",
          "name": "tokenId",
          "type": "uint256"
        },
        {
          "internalType": "uint256",
          "name": "level",
          "type": "uint256"
        },
        {
          "internalType": "uint256",
          "name": "experience",
          "type": "uint256"
        },
        {
          "internalType": "uint256",
          "name": "health",
          "type": "uint256"
        },
        {
          "internalType": "uint256",
          "name": "mana",
          "type": "uint256"
        },
        {
          "internalType": "uint256",
          "name": "attack",
          "type": "uint256"
        },
        {
          "internalType": "uint256",
          "name": "defense",
          "type": "uint256"
        },
        {
          "internalType": "uint256",
          "name": "strength",
          "type": "uint256"
        },
        {
          "internalType": "uint256",
          "name": "dexterity",
          "type": "uint256"
        },
        {
          "internalType": "uint256",
          "name": "intelligence",
          "type": "uint256"
        },
        {
          "internalType": "uint256",
          "name": "vitality",
          "type": "uint256"
        },
        {
          "internalType": "uint256",
          "name": "accuracy",
          "type": "uint256"
        },
        {
          "internalType": "uint256",
          "name": "statPoints",
          "type": "uint256"
        },
        {
          "internalType": "uint256",
          "name": "typeId",
          "type": "uint256"
        }
      ],
      "stateMutability": "view",
      "type": "function"
    },
    {
      "inputs": [
        {
          "internalType": "uint256",
          "name": "",
          "type": "uint256"
        }
      ],
      "name": "charTypes",
      "outputs": [
        {
          "internalType": "uint256",
          "name": "typeId",
          "type": "uint256"
        },
        {
          "internalType": "string",
          "name": "characterType",
          "type": "string"
        },
        {
          "internalType": "string",
          "name": "uri",
          "type": "string"
        }
      ],
      "stateMutability": "view",
      "type": "function"
    },
    {
      "inputs": [],
      "name": "characterClasses",
      "outputs": [
        {
          "internalType": "contract CharacterClass",
          "name": "",
          "type": "address"
        }
      ],
      "stateMutability": "view",
      "type": "function"
    },
    {
      "inputs": [
        {
          "internalType": "uint256",
          "name": "",
          "type": "uint256"
        }
      ],
      "name": "characterEquips",
      "outputs": [
        {
          "internalType": "uint256",
          "name": "equippedClass",
          "type": "uint256"
        }
      ],
      "stateMutability": "view",
      "type": "function"
    },
    {
      "inputs": [
        {
          "internalType": "uint256",
          "name": "",
          "type": "uint256"
        }
      ],
      "name": "characterRecoveryStats",
      "outputs": [
        {
          "internalType": "uint256",
          "name": "stamina",
          "type": "uint256"
        },
        {
          "internalType": "uint256",
          "name": "maxMana",
          "type": "uint256"
        },
        {
          "internalType": "uint256",
          "name": "lastStaminaUpdateTime",
          "type": "uint256"
        },
        {
          "internalType": "uint256",
          "name": "lastManaUpdateTime",
          "type": "uint256"
        }
      ],
      "stateMutability": "view",
      "type": "function"
    },
    {
      "inputs": [
        {
          "internalType": "uint256",
          "name": "",
          "type": "uint256"
        }
      ],
      "name": "characterStats",
      "outputs": [
        {
          "internalType": "uint256",
          "name": "tokenId",
          "type": "uint256"
        },
        {
          "internalType": "uint256",
          "name": "level",
          "type": "uint256"
        },
        {
          "internalType": "uint256",
          "name": "experience",
          "type": "uint256"
        },
        {
          "internalType": "uint256",
          "name": "health",
          "type": "uint256"
        },
        {
          "internalType": "uint256",
          "name": "mana",
          "type": "uint256"
        },
        {
          "internalType": "uint256",
          "name": "attack",
          "type": "uint256"
        },
        {
          "internalType": "uint256",
          "name": "defense",
          "type": "uint256"
        },
        {
          "internalType": "uint256",
          "name": "strength",
          "type": "uint256"
        },
        {
          "internalType": "uint256",
          "name": "dexterity",
          "type": "uint256"
        },
        {
          "internalType": "uint256",
          "name": "intelligence",
          "type": "uint256"
        },
        {
          "internalType": "uint256",
          "name": "vitality",
          "type": "uint256"
        },
        {
          "internalType": "uint256",
          "name": "accuracy",
          "type": "uint256"
        },
        {
          "internalType": "uint256",
          "name": "statPoints",
          "type": "uint256"
        },
        {
          "internalType": "uint256",
          "name": "typeId",
          "type": "uint256"
        }
      ],
      "stateMutability": "view",
      "type": "function"
    },
    {
      "inputs": [],
      "name": "compositeTokens",
      "outputs": [
        {
          "internalType": "contract ICompositeTokens",
          "name": "",
          "type": "address"
        }
      ],
      "stateMutability": "view",
      "type": "function"
    },
    {
      "inputs": [
        {
          "internalType": "uint256",
          "name": "tokenId",
          "type": "uint256"
        },
        {
          "internalType": "uint256",
          "name": "amount",
          "type": "uint256"
        }
      ],
      "name": "consumeMana",
      "outputs": [],
      "stateMutability": "nonpayable",
      "type": "function"
    },
    {
      "inputs": [
        {
          "internalType": "uint256",
          "name": "tokenId",
          "type": "uint256"
        },
        {
          "internalType": "uint256",
          "name": "amount",
          "type": "uint256"
        }
      ],
      "name": "consumeStamina",
      "outputs": [],
      "stateMutability": "nonpayable",
      "type": "function"
    },
    {
      "inputs": [],
      "name": "contractURI",
      "outputs": [
        {
          "internalType": "string",
          "name": "",
          "type": "string"
        }
      ],
      "stateMutability": "view",
      "type": "function"
    },
    {
      "inputs": [
        {
          "internalType": "uint256",
          "name": "characterTokenId",
          "type": "uint256"
        },
        {
          "internalType": "uint256",
          "name": "classId",
          "type": "uint256"
        }
      ],
      "name": "equipClass",
      "outputs": [],
      "stateMutability": "nonpayable",
      "type": "function"
    },
    {
      "inputs": [
        {
          "internalType": "uint256",
          "name": "characterTokenId",
          "type": "uint256"
        },
        {
          "internalType": "uint256",
          "name": "itemId",
          "type": "uint256"
        },
        {
          "internalType": "enum CharData.ItemType",
          "name": "itemType",
          "type": "uint8"
        }
      ],
      "name": "equipItem",
      "outputs": [],
      "stateMutability": "nonpayable",
      "type": "function"
    },
    {
      "inputs": [],
      "name": "equipManagement",
      "outputs": [
        {
          "internalType": "contract IEquipManagement",
          "name": "",
          "type": "address"
        }
      ],
      "stateMutability": "view",
      "type": "function"
    },
    {
      "inputs": [
        {
          "internalType": "uint256",
          "name": "characterTokenId",
          "type": "uint256"
        },
        {
          "internalType": "uint256",
          "name": "skillId",
          "type": "uint256"
        }
      ],
      "name": "equipSkill",
      "outputs": [],
      "stateMutability": "nonpayable",
      "type": "function"
    },
    {
      "inputs": [
        {
          "internalType": "uint256",
          "name": "characterTokenId",
          "type": "uint256"
        },
        {
          "internalType": "uint256",
          "name": "xp",
          "type": "uint256"
        }
      ],
      "name": "gainXP",
      "outputs": [],
      "stateMutability": "nonpayable",
      "type": "function"
    },
    {
      "inputs": [
        {
          "internalType": "uint256",
          "name": "tokenId",
          "type": "uint256"
        }
      ],
      "name": "getApproved",
      "outputs": [
        {
          "internalType": "address",
          "name": "",
          "type": "address"
        }
      ],
      "stateMutability": "view",
      "type": "function"
    },
    {
      "inputs": [],
      "name": "getBaseURICount",
      "outputs": [
        {
          "internalType": "uint256",
          "name": "",
          "type": "uint256"
        }
      ],
      "stateMutability": "view",
      "type": "function"
    },
    {
      "inputs": [
        {
          "internalType": "uint256",
          "name": "_index",
          "type": "uint256"
        }
      ],
      "name": "getBatchIdAtIndex",
      "outputs": [
        {
          "internalType": "uint256",
          "name": "",
          "type": "uint256"
        }
      ],
      "stateMutability": "view",
      "type": "function"
    },
    {
      "inputs": [
        {
          "internalType": "uint256",
          "name": "_tokenId",
          "type": "uint256"
        }
      ],
      "name": "getCharacter",
      "outputs": [
        {
          "components": [
            {
              "internalType": "uint256",
              "name": "tokenId",
              "type": "uint256"
            },
            {
              "internalType": "uint256",
              "name": "level",
              "type": "uint256"
            },
            {
              "internalType": "uint256",
              "name": "experience",
              "type": "uint256"
            },
            {
              "internalType": "uint256",
              "name": "health",
              "type": "uint256"
            },
            {
              "internalType": "uint256",
              "name": "mana",
              "type": "uint256"
            },
            {
              "internalType": "uint256",
              "name": "attack",
              "type": "uint256"
            },
            {
              "internalType": "uint256",
              "name": "defense",
              "type": "uint256"
            },
            {
              "internalType": "uint256",
              "name": "strength",
              "type": "uint256"
            },
            {
              "internalType": "uint256",
              "name": "dexterity",
              "type": "uint256"
            },
            {
              "internalType": "uint256",
              "name": "intelligence",
              "type": "uint256"
            },
            {
              "internalType": "uint256",
              "name": "vitality",
              "type": "uint256"
            },
            {
              "internalType": "uint256",
              "name": "accuracy",
              "type": "uint256"
            },
            {
              "internalType": "uint256",
              "name": "statPoints",
              "type": "uint256"
            },
            {
              "internalType": "uint256",
              "name": "typeId",
              "type": "uint256"
            }
          ],
          "internalType": "struct CharData.CharacterStats",
          "name": "",
          "type": "tuple"
        }
      ],
      "stateMutability": "view",
      "type": "function"
    },
    {
      "inputs": [
        {
          "internalType": "uint256",
          "name": "characterTokenId",
          "type": "uint256"
        },
        {
          "internalType": "enum CharData.ItemType",
          "name": "itemType",
          "type": "uint8"
        }
      ],
      "name": "getCharacterEquippedItem",
      "outputs": [
        {
          "internalType": "uint256",
          "name": "",
          "type": "uint256"
        }
      ],
      "stateMutability": "view",
      "type": "function"
    },
    {
      "inputs": [
        {
          "internalType": "uint256",
          "name": "characterTokenId",
          "type": "uint256"
        }
      ],
      "name": "getCharacterEquippedSkills",
      "outputs": [
        {
          "internalType": "uint256[]",
          "name": "",
          "type": "uint256[]"
        }
      ],
      "stateMutability": "view",
      "type": "function"
    },
    {
      "inputs": [
        {
          "internalType": "uint256",
          "name": "tokenId",
          "type": "uint256"
        }
      ],
      "name": "getCharacterInfo",
      "outputs": [
        {
          "components": [
            {
              "internalType": "uint256",
              "name": "level",
              "type": "uint256"
            },
            {
              "internalType": "uint256",
              "name": "dexterity",
              "type": "uint256"
            },
            {
              "internalType": "uint256",
              "name": "accuracy",
              "type": "uint256"
            },
            {
              "internalType": "uint256",
              "name": "health",
              "type": "uint256"
            },
            {
              "internalType": "uint256",
              "name": "attack",
              "type": "uint256"
            },
            {
              "internalType": "uint256",
              "name": "defense",
              "type": "uint256"
            },
            {
              "internalType": "uint256",
              "name": "mana",
              "type": "uint256"
            },
            {
              "internalType": "uint256",
              "name": "typeId",
              "type": "uint256"
            },
            {
              "internalType": "uint256[]",
              "name": "equippedSkills",
              "type": "uint256[]"
            }
          ],
          "internalType": "struct CharData.CharBattleData",
          "name": "battleData",
          "type": "tuple"
        }
      ],
      "stateMutability": "view",
      "type": "function"
    },
    {
      "inputs": [],
      "name": "getDefaultRoyaltyInfo",
      "outputs": [
        {
          "internalType": "address",
          "name": "",
          "type": "address"
        },
        {
          "internalType": "uint16",
          "name": "",
          "type": "uint16"
        }
      ],
      "stateMutability": "view",
      "type": "function"
    },
    {
      "inputs": [
        {
          "internalType": "uint256",
          "name": "characterTokenId",
          "type": "uint256"
        }
      ],
      "name": "getEquippedClass",
      "outputs": [
        {
          "internalType": "uint256",
          "name": "",
          "type": "uint256"
        }
      ],
      "stateMutability": "view",
      "type": "function"
    },
    {
      "inputs": [
        {
          "internalType": "uint256",
          "name": "tokenId",
          "type": "uint256"
        }
      ],
      "name": "getMana",
      "outputs": [
        {
          "internalType": "uint256",
          "name": "",
          "type": "uint256"
        }
      ],
      "stateMutability": "view",
      "type": "function"
    },
    {
      "inputs": [
        {
          "internalType": "uint256",
          "name": "tokenId",
          "type": "uint256"
        }
      ],
      "name": "getRecoveryStats",
      "outputs": [
        {
          "components": [
            {
              "internalType": "uint256",
              "name": "stamina",
              "type": "uint256"
            },
            {
              "internalType": "uint256",
              "name": "maxMana",
              "type": "uint256"
            },
            {
              "internalType": "uint256",
              "name": "lastStaminaUpdateTime",
              "type": "uint256"
            },
            {
              "internalType": "uint256",
              "name": "lastManaUpdateTime",
              "type": "uint256"
            }
          ],
          "internalType": "struct CharData.RecoveryStats",
          "name": "",
          "type": "tuple"
        }
      ],
      "stateMutability": "view",
      "type": "function"
    },
    {
      "inputs": [
        {
          "internalType": "uint256",
          "name": "_tokenId",
          "type": "uint256"
        }
      ],
      "name": "getRoyaltyInfoForToken",
      "outputs": [
        {
          "internalType": "address",
          "name": "",
          "type": "address"
        },
        {
          "internalType": "uint16",
          "name": "",
          "type": "uint16"
        }
      ],
      "stateMutability": "view",
      "type": "function"
    },
    {
      "inputs": [
        {
          "internalType": "uint256",
          "name": "tokenId",
          "type": "uint256"
        }
      ],
      "name": "getStamina",
      "outputs": [
        {
          "internalType": "uint256",
          "name": "",
          "type": "uint256"
        }
      ],
      "stateMutability": "view",
      "type": "function"
    },
    {
      "inputs": [
        {
          "internalType": "address",
          "name": "owner",
          "type": "address"
        },
        {
          "internalType": "address",
          "name": "operator",
          "type": "address"
        }
      ],
      "name": "isApprovedForAll",
      "outputs": [
        {
          "internalType": "bool",
          "name": "",
          "type": "bool"
        }
      ],
      "stateMutability": "view",
      "type": "function"
    },
    {
      "inputs": [
        {
          "internalType": "address",
          "name": "_operator",
          "type": "address"
        },
        {
          "internalType": "uint256",
          "name": "_tokenId",
          "type": "uint256"
        }
      ],
      "name": "isApprovedOrOwner",
      "outputs": [
        {
          "internalType": "bool",
          "name": "isApprovedOrOwnerOf",
          "type": "bool"
        }
      ],
      "stateMutability": "view",
      "type": "function"
    },
    {
      "inputs": [
        {
          "internalType": "uint256",
          "name": "_typeId",
          "type": "uint256"
        },
        {
          "internalType": "address",
          "name": "_caller",
          "type": "address"
        },
        {
          "internalType": "uint256",
          "name": "_skillTokenId",
          "type": "uint256"
        }
      ],
      "name": "mintNewCharacterWithItemAndEquip",
      "outputs": [],
      "stateMutability": "nonpayable",
      "type": "function"
    },
    {
      "inputs": [
        {
          "internalType": "address",
          "name": "_to",
          "type": "address"
        },
        {
          "internalType": "string",
          "name": "_tokenURI",
          "type": "string"
        }
      ],
      "name": "mintTo",
      "outputs": [],
      "stateMutability": "nonpayable",
      "type": "function"
    },
    {
      "inputs": [
        {
          "internalType": "bytes[]",
          "name": "data",
          "type": "bytes[]"
        }
      ],
      "name": "multicall",
      "outputs": [
        {
          "internalType": "bytes[]",
          "name": "results",
          "type": "bytes[]"
        }
      ],
      "stateMutability": "nonpayable",
      "type": "function"
    },
    {
      "inputs": [],
      "name": "name",
      "outputs": [
        {
          "internalType": "string",
          "name": "",
          "type": "string"
        }
      ],
      "stateMutability": "view",
      "type": "function"
    },
    {
      "inputs": [
        {
          "internalType": "uint256",
          "name": "_typeId",
          "type": "uint256"
        },
        {
          "internalType": "address",
          "name": "_caller",
          "type": "address"
        }
      ],
      "name": "newCharacter",
      "outputs": [],
      "stateMutability": "nonpayable",
      "type": "function"
    },
    {
      "inputs": [],
      "name": "nextTokenIdToMint",
      "outputs": [
        {
          "internalType": "uint256",
          "name": "",
          "type": "uint256"
        }
      ],
      "stateMutability": "view",
      "type": "function"
    },
    {
      "inputs": [],
      "name": "numCharacters",
      "outputs": [
        {
          "internalType": "uint256",
          "name": "",
          "type": "uint256"
        }
      ],
      "stateMutability": "view",
      "type": "function"
    },
    {
      "inputs": [],
      "name": "operatorRestriction",
      "outputs": [
        {
          "internalType": "bool",
          "name": "",
          "type": "bool"
        }
      ],
      "stateMutability": "view",
      "type": "function"
    },
    {
      "inputs": [],
      "name": "owner",
      "outputs": [
        {
          "internalType": "address",
          "name": "",
          "type": "address"
        }
      ],
      "stateMutability": "view",
      "type": "function"
    },
    {
      "inputs": [
        {
          "internalType": "uint256",
          "name": "tokenId",
          "type": "uint256"
        }
      ],
      "name": "ownerOf",
      "outputs": [
        {
          "internalType": "address",
          "name": "",
          "type": "address"
        }
      ],
      "stateMutability": "view",
      "type": "function"
    },
    {
      "inputs": [
        {
          "internalType": "uint256",
          "name": "tokenId",
          "type": "uint256"
        }
      ],
      "name": "restoreManaToFull",
      "outputs": [],
      "stateMutability": "nonpayable",
      "type": "function"
    },
    {
      "inputs": [
        {
          "internalType": "uint256",
          "name": "tokenId",
          "type": "uint256"
        }
      ],
      "name": "restoreStaminaToFull",
      "outputs": [],
      "stateMutability": "nonpayable",
      "type": "function"
    },
    {
      "inputs": [
        {
          "internalType": "uint256",
          "name": "tokenId",
          "type": "uint256"
        },
        {
          "internalType": "uint256",
          "name": "salePrice",
          "type": "uint256"
        }
      ],
      "name": "royaltyInfo",
      "outputs": [
        {
          "internalType": "address",
          "name": "receiver",
          "type": "address"
        },
        {
          "internalType": "uint256",
          "name": "royaltyAmount",
          "type": "uint256"
        }
      ],
      "stateMutability": "view",
      "type": "function"
    },
    {
      "inputs": [
        {
          "internalType": "address",
          "name": "from",
          "type": "address"
        },
        {
          "internalType": "address",
          "name": "to",
          "type": "address"
        },
        {
          "internalType": "uint256",
          "name": "tokenId",
          "type": "uint256"
        }
      ],
      "name": "safeTransferFrom",
      "outputs": [],
      "stateMutability": "nonpayable",
      "type": "function"
    },
    {
      "inputs": [
        {
          "internalType": "address",
          "name": "from",
          "type": "address"
        },
        {
          "internalType": "address",
          "name": "to",
          "type": "address"
        },
        {
          "internalType": "uint256",
          "name": "tokenId",
          "type": "uint256"
        },
        {
          "internalType": "bytes",
          "name": "data",
          "type": "bytes"
        }
      ],
      "name": "safeTransferFrom",
      "outputs": [],
      "stateMutability": "nonpayable",
      "type": "function"
    },
    {
      "inputs": [
        {
          "internalType": "address",
          "name": "operator",
          "type": "address"
        },
        {
          "internalType": "bool",
          "name": "approved",
          "type": "bool"
        }
      ],
      "name": "setApprovalForAll",
      "outputs": [],
      "stateMutability": "nonpayable",
      "type": "function"
    },
    {
      "inputs": [
        {
          "internalType": "address",
          "name": "_address",
          "type": "address"
        }
      ],
      "name": "setBattleContract",
      "outputs": [],
      "stateMutability": "nonpayable",
      "type": "function"
    },
    {
      "inputs": [
        {
          "internalType": "address",
          "name": "_address",
          "type": "address"
        }
      ],
      "name": "setBattleItems",
      "outputs": [],
      "stateMutability": "nonpayable",
      "type": "function"
    },
    {
      "inputs": [
        {
          "internalType": "address",
          "name": "_address",
          "type": "address"
        }
      ],
      "name": "setBattleSkills",
      "outputs": [],
      "stateMutability": "nonpayable",
      "type": "function"
    },
    {
      "inputs": [
        {
          "internalType": "address",
          "name": "_address",
          "type": "address"
        }
      ],
      "name": "setClassContract",
      "outputs": [],
      "stateMutability": "nonpayable",
      "type": "function"
    },
    {
      "inputs": [
        {
          "internalType": "address",
          "name": "_address",
          "type": "address"
        }
      ],
      "name": "setCompositeTokens",
      "outputs": [],
      "stateMutability": "nonpayable",
      "type": "function"
    },
    {
      "inputs": [
        {
          "internalType": "string",
          "name": "_uri",
          "type": "string"
        }
      ],
      "name": "setContractURI",
      "outputs": [],
      "stateMutability": "nonpayable",
      "type": "function"
    },
    {
      "inputs": [
        {
          "internalType": "address",
          "name": "_royaltyRecipient",
          "type": "address"
        },
        {
          "internalType": "uint256",
          "name": "_royaltyBps",
          "type": "uint256"
        }
      ],
      "name": "setDefaultRoyaltyInfo",
      "outputs": [],
      "stateMutability": "nonpayable",
      "type": "function"
    },
    {
      "inputs": [
        {
          "internalType": "address",
          "name": "_equipManagementAddress",
          "type": "address"
        }
      ],
      "name": "setEquipManagementContract",
      "outputs": [],
      "stateMutability": "nonpayable",
      "type": "function"
    },
    {
      "inputs": [
        {
          "internalType": "bool",
          "name": "_restriction",
          "type": "bool"
        }
      ],
      "name": "setOperatorRestriction",
      "outputs": [],
      "stateMutability": "nonpayable",
      "type": "function"
    },
    {
      "inputs": [
        {
          "internalType": "address",
          "name": "_newOwner",
          "type": "address"
        }
      ],
      "name": "setOwner",
      "outputs": [],
      "stateMutability": "nonpayable",
      "type": "function"
    },
    {
      "inputs": [
        {
          "internalType": "uint256",
          "name": "_tokenId",
          "type": "uint256"
        },
        {
          "internalType": "address",
          "name": "_recipient",
          "type": "address"
        },
        {
          "internalType": "uint256",
          "name": "_bps",
          "type": "uint256"
        }
      ],
      "name": "setRoyaltyInfoForToken",
      "outputs": [],
      "stateMutability": "nonpayable",
      "type": "function"
    },
    {
      "inputs": [
        {
          "internalType": "address",
          "name": "_subscription",
          "type": "address"
        }
      ],
      "name": "subscribeToRegistry",
      "outputs": [],
      "stateMutability": "nonpayable",
      "type": "function"
    },
    {
      "inputs": [
        {
          "internalType": "bytes4",
          "name": "interfaceId",
          "type": "bytes4"
        }
      ],
      "name": "supportsInterface",
      "outputs": [
        {
          "internalType": "bool",
          "name": "",
          "type": "bool"
        }
      ],
      "stateMutability": "view",
      "type": "function"
    },
    {
      "inputs": [],
      "name": "symbol",
      "outputs": [
        {
          "internalType": "string",
          "name": "",
          "type": "string"
        }
      ],
      "stateMutability": "view",
      "type": "function"
    },
    {
      "inputs": [
        {
          "internalType": "uint256",
          "name": "_tokenId",
          "type": "uint256"
        }
      ],
      "name": "tokenURI",
      "outputs": [
        {
          "internalType": "string",
          "name": "",
          "type": "string"
        }
      ],
      "stateMutability": "view",
      "type": "function"
    },
    {
      "inputs": [],
      "name": "totalSupply",
      "outputs": [
        {
          "internalType": "uint256",
          "name": "",
          "type": "uint256"
        }
      ],
      "stateMutability": "view",
      "type": "function"
    },
    {
      "inputs": [
        {
          "internalType": "address",
          "name": "from",
          "type": "address"
        },
        {
          "internalType": "address",
          "name": "to",
          "type": "address"
        },
        {
          "internalType": "uint256",
          "name": "tokenId",
          "type": "uint256"
        }
      ],
      "name": "transferFrom",
      "outputs": [],
      "stateMutability": "nonpayable",
      "type": "function"
    },
    {
      "inputs": [
        {
          "internalType": "uint256",
          "name": "characterTokenId",
          "type": "uint256"
        }
      ],
      "name": "unequipClass",
      "outputs": [],
      "stateMutability": "nonpayable",
      "type": "function"
    },
    {
      "inputs": [
        {
          "internalType": "uint256",
          "name": "characterTokenId",
          "type": "uint256"
        },
        {
          "internalType": "enum CharData.ItemType",
          "name": "itemType",
          "type": "uint8"
        }
      ],
      "name": "unequipItem",
      "outputs": [],
      "stateMutability": "nonpayable",
      "type": "function"
    },
    {
      "inputs": [
        {
          "internalType": "uint256",
          "name": "characterTokenId",
          "type": "uint256"
        },
        {
          "internalType": "uint256",
          "name": "skillId",
          "type": "uint256"
        }
      ],
      "name": "unequipSkill",
      "outputs": [],
      "stateMutability": "nonpayable",
      "type": "function"
    },
    {
      "inputs": [
        {
          "internalType": "uint256",
          "name": "_tokenId",
          "type": "uint256"
        },
        {
          "internalType": "string",
          "name": "_tokenURI",
          "type": "string"
        }
      ],
      "name": "updateURI",
      "outputs": [],
      "stateMutability": "nonpayable",
      "type": "function"
    }
  ],
  "bytecode": "0x6080604052600060145560646017553480156200001b57600080fd5b5033336040518060400160405280600981526020016821b430b930b1ba32b960b91b8152506040518060400160405280600481526020016310d3919560e21b815250336000733cc6cdda760b79bafa08df41ecfa224f810dceb66001858581600290816200008a919062000998565b50600362000099828262000998565b50506000805550620000ac828262000118565b50620000ba90508562000246565b620000cf826001600160801b03831662000298565b620000db600162000343565b5050601080546001600160a01b0319166001600160a01b038616179055506200010791506200038a9050565b620001116200070d565b5062000a64565b6daaeb6d7670e522a718067333cd4e3b1562000242576001600160a01b0382163b15620001fb578015620001ba57604051633e9f1edf60e11b81523060048201526001600160a01b03831660248201526daaeb6d7670e522a718067333cd4e90637d3e3dbe906044015b600060405180830381600087803b1580156200019d57600080fd5b505af1158015620001b2573d6000803e3d6000fd5b505050505050565b60405163a0af290360e01b81523060048201526001600160a01b03831660248201526daaeb6d7670e522a718067333cd4e9063a0af29039060440162000182565b604051632210724360e11b81523060048201526daaeb6d7670e522a718067333cd4e90634420e48690602401600060405180830381600087803b1580156200019d57600080fd5b5050565b600980546001600160a01b038381166001600160a01b0319831681179093556040519116919082907f8292fce18fa69edf4db7b94ea2e58241df0ae57f97e0a6c9b29067028bf92d7690600090a35050565b612710811115620002e15760405162461bcd60e51b815260206004820152600f60248201526e45786365656473206d61782062707360881b604482015260640160405180910390fd5b600a80546001600160a01b0384166001600160b01b03199091168117600160a01b61ffff851602179091556040518281527f90d7ec04bcb8978719414f82e52e4cb651db41d0e6f8cea6118c2191e6183adb9060200160405180910390a25050565b600e805460ff19168215159081179091556040519081527f38475885990d8dfe9ca01f0ef160a1b5514426eab9ddbc953a3353410ba780969060200160405180910390a150565b6015604051806101c001604052806000815260200160018152602001600081526020016064815260200160648152602001600a815260200160648152602001606481526020016064815260200160648152602001606481526020016064815260200160058152602001600081525090806001815401808255809150506001900390600052602060002090600e0201600090919091909150600082015181600001556020820151816001015560408201518160020155606082015181600301556080820151816004015560a0820151816005015560c0820151816006015560e082015181600701556101008201518160080155610120820151816009015561014082015181600a015561016082015181600b015561018082015181600c01556101a082015181600d015550506015604051806101c001604052806000815260200160018152602001600081526020016064815260200160648152602001600a815260200160648152602001606481526020016064815260200160648152602001606481526020016064815260200160058152602001600181525090806001815401808255809150506001900390600052602060002090600e0201600090919091909150600082015181600001556020820151816001015560408201518160020155606082015181600301556080820151816004015560a0820151816005015560c0820151816006015560e082015181600701556101008201518160080155610120820151816009015561014082015181600a015561016082015181600b015561018082015181600c01556101a082015181600d015550506015604051806101c0016040528060008152602001600181526020016000815260200160648152602001606481526020016064815260200160648152602001606481526020016064815260200160648152602001606481526020016064815260200160058152602001600281525090806001815401808255809150506001900390600052602060002090600e0201600090919091909150600082015181600001556020820151816001015560408201518160020155606082015181600301556080820151816004015560a0820151816005015560c0820151816006015560e082015181600701556101008201518160080155610120820151816009015561014082015181600a015561016082015181600b015561018082015181600c01556101a082015181600d01555050565b6016604051806060016040528060008152602001604051806040016040528060078152602001662bb0b93934b7b960c91b8152508152602001604051806060016040528060358152602001620063606035913990528154600181810184556000938452602093849020835160039093020191825592820151919290919082019062000799908262000998565b5060408201516002820190620007b0908262000998565b5050506016604051806060016040528060018152602001604051806040016040528060048152602001634d61676560e01b8152508152602001604051806060016040528060358152602001620063ca603591399052815460018181018455600093845260209384902083516003909302019182559282015191929091908201906200083c908262000998565b506040820151600282019062000853908262000998565b505050601660405180606001604052806002815260200160405180604001604052806005815260200164526f67756560d81b81525081526020016040518060600160405280603581526020016200639560359139905281546001818101845560009384526020938490208351600390930201918255928201519192909190820190620008e0908262000998565b5060408201516002820190620008f7908262000998565b505050565b634e487b7160e01b600052604160045260246000fd5b600181811c908216806200092757607f821691505b6020821081036200094857634e487b7160e01b600052602260045260246000fd5b50919050565b601f821115620008f757600081815260208120601f850160051c81016020861015620009775750805b601f850160051c820191505b81811015620001b25782815560010162000983565b81516001600160401b03811115620009b457620009b4620008fc565b620009cc81620009c5845462000912565b846200094e565b602080601f83116001811462000a045760008415620009eb5750858301515b600019600386901b1c1916600185901b178555620001b2565b600085815260208120601f198616915b8281101562000a355788860151825594840194600190910190840162000a14565b508582101562000a545787850151600019600388901b60f8161c191681555b5050505050600190811b01905550565b6158ec8062000a746000396000f3fe608060405234801561001057600080fd5b506004361061045e5760003560e01c806363b45e2d1161024c578063ac9650d811610146578063e2abdd52116100c3578063e8a3d48511610087578063e8a3d48514610c4c578063e985e9c514610c54578063edd9ca9214610c90578063f1be42f114610ca3578063fe80c55d14610cac57600080fd5b8063e2abdd5214610bed578063e2cb9a8414610c00578063e4c301eb14610c13578063e5f69e4114610c26578063e622563014610c3957600080fd5b8063c87b56dd1161010a578063c87b56dd14610af0578063cbe0c46414610b03578063d2e4c18914610b16578063d5937dae14610b29578063dabb053114610b3c57600080fd5b8063ac9650d814610a46578063b24f2d3914610a66578063b88d4fde14610a84578063bc51181614610a97578063bcb7ea0814610add57600080fd5b80638da5cb5b116101d45780639bcf7a15116101985780639bcf7a15146109da5780639c7e334c146109ed5780639d9ea9f314610a00578063a22cb46514610a20578063a4b9943214610a3357600080fd5b80638da5cb5b14610988578063938e3d7b14610999578063954643ca146109ac57806395d89b41146109bf57806399898a7a146109c757600080fd5b806370a082311161021b57806370a0823114610929578063739420a51461093c578063744e94aa1461094f578063754a81d91461096257806381648e701461097557600080fd5b806363b45e2d146108e85780636a0558a6146108f05780636b87a485146109035780636ffd17d41461091657600080fd5b806332f0cd641161035d578063430c2081116102e557806357fd8455116102a957806357fd84551461087a5780635a5ffb2e1461088d5780635cec1549146108a0578063600dd5ea146108c25780636352211e146108d557600080fd5b8063430c2081146107ff57806345d5007e146108125780634cc157df14610825578063504c6e011461085a57806355483d451461086757600080fd5b80633b1475a71161032c5780633b1475a71461079957806341463be1146107a157806341f43434146107c457806342842e0e146107d957806342966c68146107ec57600080fd5b806332f0cd64146106e65780633468f9cd146106f95780633477979e1461070c578063366e6fdb1461071f57600080fd5b80630db6dff7116103eb5780632401c739116103af5780632401c739146106585780632419f51b1461067b5780632a55205a1461068e5780632c120156146106c057806331d41c69146106d357600080fd5b80630db6dff71461058e57806313af4035146105a157806315d57827146105b457806318160ddd1461062f57806323b872dd1461064557600080fd5b80630846ad48116104325780630846ad48146104e057806308ec6c3c14610535578063095ea7b3146105485780630d8301901461055b5780630db0de521461057b57600080fd5b806275a3171461046357806301ffc9a71461047857806306fdde03146104a0578063081812fc146104b5575b600080fd5b610476610471366004614c8f565b610cbf565b005b61048b610486366004614cf2565b610d43565b60405190151581526020015b60405180910390f35b6104a8610db0565b6040516104979190614d5f565b6104c86104c3366004614d72565b610e42565b6040516001600160a01b039091168152602001610497565b6105156104ee366004614d72565b60126020526000908152604090208054600182015460028301546003909301549192909184565b604080519485526020850193909352918301526060820152608001610497565b610476610543366004614d8b565b610e86565b610476610556366004614da6565b610ed2565b61056e610569366004614d72565b610eeb565b6040516104979190614e0b565b610476610589366004614d8b565b610fe6565b61047661059c366004614d8b565b611032565b6104766105af366004614d8b565b61107e565b6105c76105c2366004614d72565b6110ae565b604080519e8f5260208f019d909d529b8d019a909a5260608c019890985260808b019690965260a08a019490945260c089019290925260e08801526101008701526101208601526101408501526101608401526101808301526101a08201526101c001610497565b600154600054035b604051908152602001610497565b610476610653366004614e7f565b61112a565b610637610666366004614d72565b60009081526013602052604090206002015490565b610637610689366004614d72565b611155565b6106a161069c366004614ebb565b6111c3565b604080516001600160a01b039093168352602083019190915201610497565b6104766106ce366004614ebb565b611200565b6104766106e1366004614edd565b61126d565b6104766106f4366004614f1b565b6112a1565b610476610707366004614d72565b611312565b61047661071a366004614d72565b61135b565b6105c761072d366004614d72565b601160205280600052604060002060009150905080600001549080600101549080600201549080600301549080600401549080600501549080600601549080600701549080600801549080600901549080600a01549080600b01549080600c01549080600d015490508e565b600054610637565b6106376107af366004614d72565b60136020526000908152604090206002015481565b6104c86daaeb6d7670e522a718067333cd4e81565b6104766107e7366004614e7f565b6113a0565b6104766107fa366004614d72565b6113c5565b61048b61080d366004614da6565b6113d0565b610476610820366004614ebb565b61144f565b610838610833366004614d72565b61154a565b604080516001600160a01b03909316835261ffff909116602083015201610497565b600e5461048b9060ff1681565b601b546104c8906001600160a01b031681565b610476610888366004614d8b565b6115b5565b61047661089b366004614ebb565b611625565b6108b36108ae366004614d72565b6116bb565b60405161049793929190614f38565b6104766108d0366004614da6565b611801565b6104c86108e3366004614d72565b61182f565b600c54610637565b6104766108fe366004614ebb565b611841565b610476610911366004614d8b565b61192d565b601c546104c8906001600160a01b031681565b610637610937366004614d8b565b611b14565b61047661094a366004614ebb565b611b62565b61063761095d366004614d72565b611c39565b610476610970366004614f63565b611cb6565b610476610983366004614d8b565b611d24565b6009546001600160a01b03166104c8565b6104766109a7366004614fe0565b611d70565b601a546104c8906001600160a01b031681565b6104a8611d9d565b601e546104c8906001600160a01b031681565b6104766109e8366004615014565b611dac565b6104766109fb366004615039565b611ddb565b610a13610a0e366004614d72565b611ee5565b6040516104979190615074565b610476610a2e3660046150b8565b611f47565b610637610a413660046150fc565b611f5b565b610a59610a54366004615121565b611fa7565b6040516104979190615195565b600a546001600160a01b03811690600160a01b900461ffff16610838565b610476610a923660046151f7565b61209b565b610aaa610aa5366004614d72565b6120c1565b60405161049791908151815260208083015190820152604080830151908201526060918201519181019190915260800190565b610476610aeb366004614ebb565b612186565b6104a8610afe366004614d72565b6121d3565b610476610b11366004615252565b6122c1565b610476610b24366004614d72565b6124f8565b610476610b37366004614d8b565b61265d565b610b4f610b4a366004614d72565b6126a9565b6040516104979190815181526020808301519082015260408083015190820152606080830151908201526080808301519082015260a0808301519082015260c0808301519082015260e08083015190820152610100808301519082015261012080830151908201526101408083015190820152610160808301519082015261018080830151908201526101a091820151918101919091526101c00190565b610476610bfb36600461527e565b6127cb565b601d546104c8906001600160a01b031681565b610476610c21366004614ebb565b612a42565b610476610c34366004614ebb565b612b87565b610637610c47366004614d72565b612f31565b6104a8612f99565b61048b610c623660046152b7565b6001600160a01b03918216600090815260076020908152604080832093909416825291909152205460ff1690565b610476610c9e366004615014565b613027565b61063760145481565b610476610cba3660046150fc565b61309a565b610cc7613321565b610d125760405162461bcd60e51b81526020600482015260176024820152762737ba1030baba3437b934bd32b2103a379036b4b73a1760491b60448201526064015b60405180910390fd5b610d24610d1e60005490565b8261334e565b610d3f82600160405180602001604052806000815250613366565b5050565b60006301ffc9a760e01b6001600160e01b031983161480610d7457506380ac58cd60e01b6001600160e01b03198316145b80610d8f5750635b5e139f60e01b6001600160e01b03198316145b80610daa57506001600160e01b0319821663152a902d60e11b145b92915050565b606060028054610dbf906152e1565b80601f0160208091040260200160405190810160405280929190818152602001828054610deb906152e1565b8015610e385780601f10610e0d57610100808354040283529160200191610e38565b820191906000526020600020905b815481529060010190602001808311610e1b57829003601f168201915b5050505050905090565b6000610e4d82613509565b610e6a576040516333d1c03960e21b815260040160405180910390fd5b506000908152600660205260409020546001600160a01b031690565b6009546001600160a01b03163314610eb05760405162461bcd60e51b8152600401610d099061531b565b601a80546001600160a01b0319166001600160a01b0392909216919091179055565b81610edc81613534565b610ee683836135f8565b505050565b610f3a6040518061012001604052806000815260200160008152602001600081526020016000815260200160008152602001600081526020016000815260200160008152602001606081525090565b60008281526011602052604090206003810154606083015260058101546080830152600681015460a0830152610f6f83611c39565b60c0830152600d81015460e083015260008381526013602090815260409182902080548351818402810184019094528084529091830182828015610fd257602002820191906000526020600020905b815481526020019060010190808311610fbe575b505050505082610100018190525050919050565b6009546001600160a01b031633146110105760405162461bcd60e51b8152600401610d099061531b565b601b80546001600160a01b0319166001600160a01b0392909216919091179055565b6009546001600160a01b0316331461105c5760405162461bcd60e51b8152600401610d099061531b565b601880546001600160a01b0319166001600160a01b0392909216919091179055565b611086613321565b6110a25760405162461bcd60e51b8152600401610d099061531b565b6110ab81613679565b50565b601581815481106110be57600080fd5b90600052602060002090600e020160009150905080600001549080600101549080600201549080600301549080600401549080600501549080600601549080600701549080600801549080600901549080600a01549080600b01549080600c01549080600d015490508e565b826001600160a01b03811633146111445761114433613534565b61114f8484846136cb565b50505050565b6000611160600c5490565b821061119e5760405162461bcd60e51b815260206004820152600d60248201526c092dcecc2d8d2c840d2dcc8caf609b1b6044820152606401610d09565b600c82815481106111b1576111b1615343565b90600052602060002001549050919050565b6000806000806111d28661154a565b90945084925061ffff1690506127106111eb828761536f565b6111f5919061539c565b925050509250929050565b6010546001600160a01b0316331461122a5760405162461bcd60e51b8152600401610d099061531b565b60008281526012602052604081209061124284612f31565b9050600061125084836153b0565b9050606481111561125f575060645b825550426002909101555050565b6009546001600160a01b031633146112975760405162461bcd60e51b8152600401610d099061531b565b610d3f828261334e565b6112a9613321565b6113095760405162461bcd60e51b815260206004820152602b60248201527f4e6f7420617574686f72697a656420746f20736574206f70657261746f72207260448201526a32b9ba3934b1ba34b7b71760a91b6064820152608401610d09565b6110ab816136d6565b6010546001600160a01b0316331461133c5760405162461bcd60e51b8152600401610d099061531b565b6000908152601260209081526040909120601190915242600390910155565b6010546001600160a01b031633146113855760405162461bcd60e51b8152600401610d099061531b565b60009081526012602052604090206064815542600290910155565b826001600160a01b03811633146113ba576113ba33613534565b61114f84848461371d565b6110ab816001613738565b6000806113dc8361182f565b9050806001600160a01b0316846001600160a01b0316148061142357506001600160a01b0380821660009081526007602090815260408083209388168352929052205460ff165b806114475750836001600160a01b031661143c84610e42565b6001600160a01b0316145b949350505050565b6018546001600160a01b031633146114795760405162461bcd60e51b8152600401610d09906153c3565b600082815260126020908152604080832060119092529182902091516330c6919360e01b815260048101829052602481018390526044810184905290919073__$500a10fa9d461fc90c8a058ae925f037b6$__906330c691939060640160006040518083038186803b1580156114ee57600080fd5b505af4158015611502573d6000803e3d6000fd5b50505050837f745e4898b29226a973c2265f8722cf0a83c357f03c529c0e14c4e91d61cffbb5826004015460405161153c91815260200190565b60405180910390a250505050565b6000818152600b60209081526040808320815180830190925280546001600160a01b03168083526001909101549282019290925282911561159157805160208201516115ab565b600a546001600160a01b03811690600160a01b900461ffff165b9250925050915091565b6115bd613321565b61161a5760405162461bcd60e51b815260206004820152602860248201527f4e6f7420617574686f72697a656420746f2073756273637269626520746f207260448201526732b3b4b9ba393c9760c11b6064820152608401610d09565b6110ab8160016138eb565b6010546001600160a01b0316331461164f5760405162461bcd60e51b8152600401610d099061531b565b600082815260126020908152604080832060119092529091206116738183856139c7565b837f745e4898b29226a973c2265f8722cf0a83c357f03c529c0e14c4e91d61cffbb5601160008781526020019081526020016000206004015460405161153c91815260200190565b601681815481106116cb57600080fd5b600091825260209091206003909102018054600182018054919350906116f0906152e1565b80601f016020809104026020016040519081016040528092919081815260200182805461171c906152e1565b80156117695780601f1061173e57610100808354040283529160200191611769565b820191906000526020600020905b81548152906001019060200180831161174c57829003601f168201915b50505050509080600201805461177e906152e1565b80601f01602080910402602001604051908101604052809291908181526020018280546117aa906152e1565b80156117f75780601f106117cc576101008083540402835291602001916117f7565b820191906000526020600020905b8154815290600101906020018083116117da57829003601f168201915b5050505050905083565b611809613321565b6118255760405162461bcd60e51b8152600401610d099061531b565b610d3f8282613a08565b600061183a82613aaf565b5192915050565b6018546001600160a01b0316331461186b5760405162461bcd60e51b8152600401610d09906153c3565b60008281526011602052604090819020601754915162336f0b60e01b8152600481018290526024810184905260448101929092529073__$500a10fa9d461fc90c8a058ae925f037b6$__9062336f0b9060640160006040518083038186803b1580156118d657600080fd5b505af41580156118ea573d6000803e3d6000fd5b50505050827f9a64fe26f5c4acf69f9833056562e90ac966327ef9edc96700beab568bbdac168360405161192091815260200190565b60405180910390a2505050565b6009546001600160a01b031633146119575760405162461bcd60e51b8152600401610d099061531b565b601e546001600160a01b0316156119c85760405162461bcd60e51b815260206004820152602f60248201527f45717569704d616e6167656d656e7420636f6e7472616374206164647265737360448201526e081a5cc8185b1c9958591e481cd95d608a1b6064820152608401610d09565b601e80546001600160a01b0319166001600160a01b03838116918217909255601c5460405163a22cb46560e01b81526004810192909252600160248301529091169063a22cb46590604401600060405180830381600087803b158015611a2d57600080fd5b505af1158015611a41573d6000803e3d6000fd5b5050601b5460405163a22cb46560e01b81526001600160a01b03858116600483015260016024830152909116925063a22cb4659150604401600060405180830381600087803b158015611a9357600080fd5b505af1158015611aa7573d6000803e3d6000fd5b5050601d5460405163a22cb46560e01b81526001600160a01b03858116600483015260016024830152909116925063a22cb4659150604401600060405180830381600087803b158015611af957600080fd5b505af1158015611b0d573d6000803e3d6000fd5b5050505050565b60006001600160a01b038216611b3d576040516323d3ad8160e21b815260040160405180910390fd5b506001600160a01b03166000908152600560205260409020546001600160401b031690565b6018546001600160a01b03163314611b8c5760405162461bcd60e51b8152600401610d09906153c3565b600082815260126020526040908190209051636f39b13760e11b8152600481018290526024810183905273__$500a10fa9d461fc90c8a058ae925f037b6$__9063de73626e9060440160006040518083038186803b158015611bed57600080fd5b505af4158015611c01573d6000803e3d6000fd5b505082546040519081528592507f54d8968607528ba0a500c8ca37b787bcc514c33b28b43efa81e195ffb88fee519150602001611920565b60008181526012602090815260408083206011909252822060038201548390611c629042615404565b90506000610708846001015483611c79919061536f565b611c83919061539c565b90506000818460040154611c9791906153b0565b90508460010154811115611cac575060018401545b9695505050505050565b611cbe613321565b611d045760405162461bcd60e51b81526020600482015260176024820152762737ba1030baba3437b934bd32b2103a379036b4b73a1760491b6044820152606401610d09565b611d17611d1060005490565b8484613bc9565b505061114f848483613366565b6009546001600160a01b03163314611d4e5760405162461bcd60e51b8152600401610d099061531b565b601d80546001600160a01b0319166001600160a01b0392909216919091179055565b611d78613321565b611d945760405162461bcd60e51b8152600401610d099061531b565b6110ab81613c2d565b606060038054610dbf906152e1565b611db4613321565b611dd05760405162461bcd60e51b8152600401610d099061531b565b610ee6838383613d09565b6010546001600160a01b03163314611e055760405162461bcd60e51b8152600401610d099061531b565b600085815260116020526040908190209051635de6438960e01b8152600481018290526024810186905260448101859052606481018490526084810183905273__$500a10fa9d461fc90c8a058ae925f037b6$__90635de643899060a40160006040518083038186803b158015611e7b57600080fd5b505af4158015611e8f573d6000803e3d6000fd5b50506040805188815260208101889052908101869052606081018590528892507f91880eb2655ae83ee3b14d19938b63c2f3077ecf91ef7b3118006e333490ab1f915060800160405180910390a2505050505050565b600081815260136020908152604091829020805483518184028101840190945280845260609392830182828015611f3b57602002820191906000526020600020905b815481526020019060010190808311611f27575b50505050509050919050565b81611f5181613534565b610ee68383613dd2565b600082815260136020526040812060010181836004811115611f7f57611f7f615417565b6004811115611f9057611f90615417565b815260200190815260200160002054905092915050565b6060816001600160401b03811115611fc157611fc1614b81565b604051908082528060200260200182016040528015611ff457816020015b6060815260200190600190039081611fdf5790505b50905060005b82811015612094576120643085858481811061201857612018615343565b905060200281019061202a919061542d565b8080601f016020809104026020016040519081016040528093929190818152602001838380828437600092019190915250613e6792505050565b82828151811061207657612076615343565b6020026020010181905250808061208c9061547a565b915050611ffa565b5092915050565b836001600160a01b03811633146120b5576120b533613534565b611b0d85858585613e93565b6120ec6040518060800160405280600081526020016000815260200160008152602001600081525090565b60008281526012602052604081206002015490036121415760405162461bcd60e51b8152602060048201526012602482015271151bdad95b881251081b9bdd08199bdd5b9960721b6044820152606401610d09565b50600090815260126020908152604091829020825160808101845281548152600182015492810192909252600281015492820192909252600390910154606082015290565b601e546001600160a01b031633146121b05760405162461bcd60e51b8152600401610d099061531b565b600091825260136020908152604083208054600181018255908452922090910155565b6000818152601960205260408120805460609291906121f1906152e1565b80601f016020809104026020016040519081016040528092919081815260200182805461221d906152e1565b801561226a5780601f1061223f5761010080835404028352916020019161226a565b820191906000526020600020905b81548152906001019060200180831161224d57829003601f168201915b505050505090506000815111156122815792915050565b600061228c84613ed7565b90508061229885614073565b6040516020016122a9929190615493565b60405160208183030381529060405292505050919050565b60165482106123125760405162461bcd60e51b815260206004820152601960248201527f496e76616c6964206368617261637465722074797065204944000000000000006044820152606401610d09565b61231d816001614173565b6123d26016838154811061233357612333615343565b9060005260206000209060030201600201805461234f906152e1565b80601f016020809104026020016040519081016040528092919081815260200182805461237b906152e1565b80156123c85780601f1061239d576101008083540402835291602001916123c8565b820191906000526020600020905b8154815290600101906020018083116123ab57829003601f168201915b505050505061418d565b6123dd6014546141d0565b612495601454601684815481106123f6576123f6615343565b90600052602060002090600302016002018054612412906152e1565b80601f016020809104026020016040519081016040528092919081815260200182805461243e906152e1565b801561248b5780601f106124605761010080835404028352916020019161248b565b820191906000526020600020905b81548152906001019060200180831161246e57829003601f168201915b505050505061334e565b60145460405183815233907fd4a95b11484f5e9358b888b250a18a34707faa5c6e49c20dc64315abd077035b9060200160405180910390a36124d682614215565b6124df826145a0565b601480549060006124ef8361547a565b91905055505050565b336125028261182f565b6001600160a01b0316146125585760405162461bcd60e51b815260206004820152601e60248201527f4e6f7420746865206f776e6572206f66207468652063686172616374657200006044820152606401610d09565b600081815260136020526040812060020154908190036125ae5760405162461bcd60e51b8152602060048201526011602482015270139bc818db185cdcc8195c5d5a5c1c1959607a1b6044820152606401610d09565b604051819083907f7e61635513fe31aafbbe8d9f28e1480aaac99ddecc10839a6fad06f460a8fb1d90600090a360008281526013602052604080822060020191909155601a549051637921219560e11b81526001600160a01b039091169063f242432a90612627903090339086906001906004016154c2565b600060405180830381600087803b15801561264157600080fd5b505af1158015612655573d6000803e3d6000fd5b505050505050565b6009546001600160a01b031633146126875760405162461bcd60e51b8152600401610d099061531b565b601c80546001600160a01b0319166001600160a01b0392909216919091179055565b61271b604051806101c0016040528060008152602001600081526020016000815260200160008152602001600081526020016000815260200160008152602001600081526020016000815260200160008152602001600081526020016000815260200160008152602001600081525090565b5060009081526011602090815260409182902082516101c081018452815481526001820154928101929092526002810154928201929092526003820154606082015260048201546080820152600582015460a0820152600682015460c0820152600782015460e082015260088201546101008201526009820154610120820152600a820154610140820152600b820154610160820152600c820154610180820152600d909101546101a082015290565b601e546001600160a01b031633146127f55760405162461bcd60e51b8152600401610d099061531b565b60008381526013602090815260408083206011909252909120612816614b1f565b61271085111561291357601d5460405163681377c960e01b8152600481018790526000916001600160a01b03169063681377c99060240161014060405180830381865afa15801561286b573d6000803e3d6000fd5b505050506040513d601f19601f8201168201806040525081019061288f9190615505565b6080810151601b54604051633129e77360e01b81526004810183905292935090916001600160a01b0390911690633129e77390602401600060405180830381865afa1580156128e2573d6000803e3d6000fd5b505050506040513d6000823e601f3d908101601f1916820160405261290a919081019061559a565b92505050612987565b601b54604051633129e77360e01b8152600481018790526001600160a01b0390911690633129e77390602401600060405180830381865afa15801561295c573d6000803e3d6000fd5b505050506040513d6000823e601f3d908101601f19168201604052612984919081019061559a565b90505b806020015182600501600082825461299f91906153b0565b909155505060408101516006830180546000906129bd9084906153b0565b909155505060608101516003830180546000906129db9084906153b0565b909155505060808101516004830180546000906129f99084906153b0565b90915550859050600184016000866004811115612a1857612a18615417565b6004811115612a2957612a29615417565b8152602081019190915260400160002055505050505050565b601e546001600160a01b03163314612a6c5760405162461bcd60e51b8152600401610d099061531b565b6000828152601360205260408120805490915b8254811015612ac85783836000018281548110612a9e57612a9e615343565b906000526020600020015403612ab657809150612ac8565b80612ac08161547a565b915050612a7f565b5081548110612b0e5760405162461bcd60e51b815260206004820152601260248201527114dada5b1b081b9bdd08195c5d5a5c1c195960721b6044820152606401610d09565b81548290612b1e90600190615404565b81548110612b2e57612b2e615343565b9060005260206000200154826000018281548110612b4e57612b4e615343565b6000918252602090912001558154829080612b6b57612b6b615679565b6001900381819060005260206000200160009055905550505050565b6014548210612bd85760405162461bcd60e51b815260206004820152601a60248201527f496e76616c69642063686172616374657220746f6b656e2049440000000000006044820152606401610d09565b33612be28361182f565b6001600160a01b031614612c385760405162461bcd60e51b815260206004820152601e60248201527f4e6f7420746865206f776e6572206f66207468652063686172616374657200006044820152606401610d09565b601a5460405163bd85b03960e01b8152600481018390526000916001600160a01b03169063bd85b03990602401602060405180830381865afa158015612c82573d6000803e3d6000fd5b505050506040513d601f19601f82011682018060405250810190612ca6919061568f565b11612ce65760405162461bcd60e51b815260206004820152601060248201526f125b9d985b1a590818db185cdcc8125160821b6044820152606401610d09565b601a54604051627eeac760e11b8152336004820152602481018390526000916001600160a01b03169062fdd58e90604401602060405180830381865afa158015612d34573d6000803e3d6000fd5b505050506040513d601f19601f82011682018060405250810190612d58919061568f565b11612da55760405162461bcd60e51b815260206004820152601a60248201527f4e6f7420746865206f776e6572206f662074686520636c6173730000000000006044820152606401610d09565b600082815260136020526040902060020154819003612dff5760405162461bcd60e51b815260206004820152601660248201527510db185cdcc8185b1c9958591e48195c5d5a5c1c195960521b6044820152606401610d09565b6000828152601360205260409020600201548015612e8157601a54604051637921219560e11b81526001600160a01b039091169063f242432a90612e4e903090339086906001906004016154c2565b600060405180830381600087803b158015612e6857600080fd5b505af1158015612e7c573d6000803e3d6000fd5b505050505b60008381526013602052604090819020600201839055601a549051637921219560e11b81526001600160a01b039091169063f242432a90612ecd903390309087906001906004016154c2565b600060405180830381600087803b158015612ee757600080fd5b505af1158015612efb573d6000803e3d6000fd5b50506040518492508591507f9ec2a1abbc94cda98705c1bcace42186fb5bb291c4f4e5a55afb5dbc174e9ce390600090a3505050565b600081815260126020526040812060028101548290612f509042615404565b9050600062015180612f6383606461536f565b612f6d919061539c565b90506000818460000154612f8191906153b0565b90506064811115612f90575060645b95945050505050565b60088054612fa6906152e1565b80601f0160208091040260200160405190810160405280929190818152602001828054612fd2906152e1565b801561301f5780601f10612ff45761010080835404028352916020019161301f565b820191906000526020600020905b81548152906001019060200180831161300257829003601f168201915b505050505081565b61303183836122c1565b601c5460405163bfa0fedb60e01b8152600481018390523360248201526001600160a01b039091169063bfa0fedb90604401600060405180830381600087803b15801561307d57600080fd5b505af1158015613091573d6000803e3d6000fd5b50505050505050565b601e546001600160a01b031633146130c45760405162461bcd60e51b8152600401610d099061531b565b600082815260136020908152604080832060119092528220909160018301818560048111156130f5576130f5615417565b600481111561310657613106615417565b815260200190815260200160002054905061311f614b1f565b61271082111561321c57601d5460405163681377c960e01b8152600481018490526000916001600160a01b03169063681377c99060240161014060405180830381865afa158015613174573d6000803e3d6000fd5b505050506040513d601f19601f820116820180604052508101906131989190615505565b6080810151601b54604051633129e77360e01b81526004810183905292935090916001600160a01b0390911690633129e77390602401600060405180830381865afa1580156131eb573d6000803e3d6000fd5b505050506040513d6000823e601f3d908101601f19168201604052613213919081019061559a565b92505050613290565b601b54604051633129e77360e01b8152600481018490526001600160a01b0390911690633129e77390602401600060405180830381865afa158015613265573d6000803e3d6000fd5b505050506040513d6000823e601f3d908101601f1916820160405261328d919081019061559a565b90505b80602001518360050160008282546132a89190615404565b909155505060408101516006840180546000906132c6908490615404565b909155505060608101516003840180546000906132e4908490615404565b90915550506080810151600484018054600090613302908490615404565b90915550600090506001850181876004811115612a1857612a18615417565b60006133356009546001600160a01b031690565b6001600160a01b0316336001600160a01b031614905090565b6000828152601960205260409020610ee682826156ee565b6000546001600160a01b03841661338f57604051622e076360e81b815260040160405180910390fd5b826000036133b05760405163b562e8dd60e01b815260040160405180910390fd5b6001600160a01b038416600081815260056020908152604080832080546fffffffffffffffffffffffffffffffff1981166001600160401b038083168b0181169182176801000000000000000067ffffffffffffffff1990941690921783900481168b01811690920217909155858452600490925290912080546001600160e01b0319168317600160a01b42909316929092029190911790558190818501903b156134c6575b60405182906001600160a01b03881690600090600080516020615897833981519152908290a461348f600087848060010195508761466d565b6134ac576040516368d2bf6b60e11b815260040160405180910390fd5b8082106134565782600054146134c157600080fd5b6134f9565b5b6040516001830192906001600160a01b03881690600090600080516020615897833981519152908290a48082106134c7575b50600090815561114f9085838684565b6000805482108015610daa575050600090815260046020526040902054600160e01b900460ff161590565b600e5460ff16156110ab576daaeb6d7670e522a718067333cd4e3b156110ab57604051633185c44d60e21b81523060048201526001600160a01b03821660248201526daaeb6d7670e522a718067333cd4e9063c617113490604401602060405180830381865afa1580156135ac573d6000803e3d6000fd5b505050506040513d601f19601f820116820180604052508101906135d091906157ad565b6110ab57604051633b79c77360e21b81526001600160a01b0382166004820152602401610d09565b60006136038261182f565b9050806001600160a01b0316836001600160a01b0316036136375760405163250fdee360e21b815260040160405180910390fd5b336001600160a01b0382161461366e576136518133610c62565b61366e576040516367d9dca160e11b815260040160405180910390fd5b610ee6838383614758565b600980546001600160a01b038381166001600160a01b0319831681179093556040519116919082907f8292fce18fa69edf4db7b94ea2e58241df0ae57f97e0a6c9b29067028bf92d7690600090a35050565b610ee68383836147b4565b600e805460ff19168215159081179091556040519081527f38475885990d8dfe9ca01f0ef160a1b5514426eab9ddbc953a3353410ba780969060200160405180910390a150565b610ee68383836040518060200160405280600081525061209b565b600061374383613aaf565b805190915082156137a9576000336001600160a01b038316148061376c575061376c8233610c62565b8061378757503361377c86610e42565b6001600160a01b0316145b9050806137a757604051632ce44b5f60e11b815260040160405180910390fd5b505b6137b560008583614758565b6001600160a01b0380821660008181526005602090815260408083208054600160801b6000196001600160401b0380841691909101811667ffffffffffffffff198416811783900482166001908101831690930277ffffffffffffffff0000000000000000ffffffffffffffff19909416179290921783558b86526004909452828520805460ff60e01b1942909316600160a01b026001600160e01b03199091169097179690961716600160e01b1785559189018084529220805491949091166138b35760005482146138b357805460208701516001600160401b0316600160a01b026001600160e01b03199091166001600160a01b038716171781555b5050604051869250600091506001600160a01b03841690600080516020615897833981519152908390a4505060018054810190555050565b6daaeb6d7670e522a718067333cd4e3b15610d3f576001600160a01b0382163b1561399657801561395657604051633e9f1edf60e11b81523060048201526001600160a01b03831660248201526daaeb6d7670e522a718067333cd4e90637d3e3dbe90604401612627565b60405163a0af290360e01b81523060048201526001600160a01b03831660248201526daaeb6d7670e522a718067333cd4e9063a0af290390604401612627565b604051632210724360e11b81523060048201526daaeb6d7670e522a718067333cd4e90634420e48690602401612627565b600483015460006139d8848661498d565b905060006139e684836153b0565b9050828111156139f35750815b60049095019490945550504260039091015550565b612710811115613a4c5760405162461bcd60e51b815260206004820152600f60248201526e45786365656473206d61782062707360881b6044820152606401610d09565b600a80546001600160a01b0384166001600160b01b03199091168117600160a01b61ffff851602179091556040518281527f90d7ec04bcb8978719414f82e52e4cb651db41d0e6f8cea6118c2191e6183adb906020015b60405180910390a25050565b604080516060810182526000808252602082018190529181019190915281600054811015613bb057600081815260046020908152604091829020825160608101845290546001600160a01b0381168252600160a01b81046001600160401b031692820192909252600160e01b90910460ff16151591810182905290613bae5780516001600160a01b031615613b45579392505050565b5060001901600081815260046020908152604091829020825160608101845290546001600160a01b038116808352600160a01b82046001600160401b031693830193909352600160e01b900460ff1615159281019290925215613ba9579392505050565b613b45565b505b604051636f96cda160e11b815260040160405180910390fd5b600080613bd684866153b0565b600c8054600181019091557fdf6966c971051c3d54ec59162606531493a51404a002842f56009d7e5cf4a8c7018190556000818152600d60205260409020909250829150613c2484826156ee565b50935093915050565b600060088054613c3c906152e1565b80601f0160208091040260200160405190810160405280929190818152602001828054613c68906152e1565b8015613cb55780601f10613c8a57610100808354040283529160200191613cb5565b820191906000526020600020905b815481529060010190602001808311613c9857829003601f168201915b505050505090508160089081613ccb91906156ee565b507fc9c7c3fe08b88b4df9d4d47ef47d2c43d55c025a0ba88ca442580ed9e7348a168183604051613cfd9291906157ca565b60405180910390a15050565b612710811115613d4d5760405162461bcd60e51b815260206004820152600f60248201526e45786365656473206d61782062707360881b6044820152606401610d09565b6040805180820182526001600160a01b0384811680835260208084018681526000898152600b8352869020945185546001600160a01b031916941693909317845591516001909301929092559151838152909185917f7365cf4122f072a3365c20d54eff9b38d73c096c28e1892ec8f5b0e403a0f12d910160405180910390a3505050565b336001600160a01b03831603613dfb5760405163b06307db60e01b815260040160405180910390fd5b3360008181526007602090815260408083206001600160a01b03871680855290835292819020805460ff191686151590811790915590519081529192917f17307eab39ab6107e8899845ad3d59bd9653f200f220920489ca2b5937696c31910160405180910390a35050565b6060613e8c8383604051806060016040528060278152602001615870602791396149f2565b9392505050565b613e9e8484846147b4565b6001600160a01b0383163b1561114f57613eba8484848461466d565b61114f576040516368d2bf6b60e11b815260040160405180910390fd5b60606000613ee4600c5490565b90506000600c805480602002602001604051908101604052809291908181526020018280548015613f3457602002820191906000526020600020905b815481526020019060010190808311613f20575b5050505050905060005b8281101561403857818181518110613f5857613f58615343565b602002602001015185101561402657600d6000838381518110613f7d57613f7d615343565b602002602001015181526020019081526020016000208054613f9e906152e1565b80601f0160208091040260200160405190810160405280929190818152602001828054613fca906152e1565b80156140175780601f10613fec57610100808354040283529160200191614017565b820191906000526020600020905b815481529060010190602001808311613ffa57829003601f168201915b50505050509350505050919050565b6140316001826153b0565b9050613f3e565b5060405162461bcd60e51b815260206004820152600f60248201526e125b9d985b1a59081d1bdad95b9259608a1b6044820152606401610d09565b60608160000361409a5750506040805180820190915260018152600360fc1b602082015290565b8160005b81156140c457806140ae8161547a565b91506140bd9050600a8361539c565b915061409e565b6000816001600160401b038111156140de576140de614b81565b6040519080825280601f01601f191660200182016040528015614108576020820181803683370190505b5090505b84156114475761411d600183615404565b915061412a600a866157ef565b6141359060306153b0565b60f81b81838151811061414a5761414a615343565b60200101906001600160f81b031916908160001a90535061416c600a8661539c565b945061410c565b610d3f828260405180602001604052806000815250613366565b6110ab816040516024016141a19190614d5f565b60408051601f198184030181529190526020810180516001600160e01b031663104c13eb60e21b179052614ac5565b6110ab816040516024016141e691815260200190565b60408051601f198184030181529190526020810180516001600160e01b031663f82c50f160e01b179052614ac5565b6000604051806101c0016040528060145481526020016015848154811061423e5761423e615343565b90600052602060002090600e02016001015481526020016015848154811061426857614268615343565b90600052602060002090600e02016002015481526020016015848154811061429257614292615343565b90600052602060002090600e0201600301548152602001601584815481106142bc576142bc615343565b90600052602060002090600e0201600401548152602001601584815481106142e6576142e6615343565b90600052602060002090600e02016005015481526020016015848154811061431057614310615343565b90600052602060002090600e02016006015481526020016015848154811061433a5761433a615343565b90600052602060002090600e02016007015481526020016015848154811061436457614364615343565b90600052602060002090600e02016008015481526020016015848154811061438e5761438e615343565b90600052602060002090600e0201600901548152602001601584815481106143b8576143b8615343565b90600052602060002090600e0201600a01548152602001601584815481106143e2576143e2615343565b90600052602060002090600e0201600b015481526020016015848154811061440c5761440c615343565b90600052602060002090600e0201600c0154815260200183815250905080601160006014548152602001908152602001600020600082015181600001556020820151816001015560408201518160020155606082015181600301556080820151816004015560a0820151816005015560c0820151816006015560e082015181600701556101008201518160080155610120820151816009015561014082015181600a015561016082015181600b015561018082015181600c01556101a082015181600d01559050506014547f672e8a5a5ea4546e9da80d8c45321ef467df52d7498dae7ec971387bc464bc6682602001518360400151846060015185608001518660a001518760c001518860e001518961010001518a61012001518b61014001518c61016001518d6101800151604051613aa39c9b9a999897969594939291909b8c5260208c019a909a5260408b019890985260608a0196909652608089019490945260a088019290925260c087015260e08601526101008501526101208401526101408301526101608201526101800190565b6000604051806080016040528060648152602001601584815481106145c7576145c7615343565b60009182526020808320600e929092029091016004015483524283820181905260409384015260148054835260128252918390208451808255858301516001830181905586860151600284018190556060808901516003909501859055955487519384529483019190915294810194909452918301919091529192507f19da20281546911260f62aa6f6b5e92d810a46f937d6030f91dca6442df4dfb490608001613aa3565b604051630a85bd0160e11b81526000906001600160a01b0385169063150b7a02906146a2903390899088908890600401615803565b6020604051808303816000875af19250505080156146dd575060408051601f3d908101601f191682019092526146da91810190615836565b60015b61473b573d80801561470b576040519150601f19603f3d011682016040523d82523d6000602084013e614710565b606091505b508051600003614733576040516368d2bf6b60e11b815260040160405180910390fd5b805181602001fd5b6001600160e01b031916630a85bd0160e11b149050949350505050565b60008281526006602052604080822080546001600160a01b0319166001600160a01b0387811691821790925591518593918516917f8c5be1e5ebec7d5bd14f71427d1e84f3dd0314c0f7b2291e5b200ac8c7c3b92591a4505050565b60006147bf82613aaf565b9050836001600160a01b031681600001516001600160a01b0316146147f65760405162a1148160e81b815260040160405180910390fd5b6000336001600160a01b038616148061481457506148148533610c62565b8061482f57503361482484610e42565b6001600160a01b0316145b90508061484f57604051632ce44b5f60e11b815260040160405180910390fd5b6001600160a01b03841661487657604051633a954ecd60e21b815260040160405180910390fd5b61488260008487614758565b6001600160a01b038581166000908152600560209081526040808320805467ffffffffffffffff198082166001600160401b0392831660001901831617909255898616808652838620805493841693831660019081018416949094179055898652600490945282852080546001600160e01b031916909417600160a01b4290921691909102178355870180845292208054919390911661495657600054821461495657805460208601516001600160401b0316600160a01b026001600160e01b03199091166001600160a01b038a16171781555b50505082846001600160a01b0316866001600160a01b031660008051602061589783398151915260405160405180910390a4611b0d565b6000808360030154426149a09190615404565b905060006107088560010154836149b7919061536f565b6149c1919061539c565b905060008185600401546149d591906153b0565b90508560010154811115612f905750600185015495945050505050565b60606001600160a01b0384163b614a5a5760405162461bcd60e51b815260206004820152602660248201527f416464726573733a2064656c65676174652063616c6c20746f206e6f6e2d636f6044820152651b9d1c9858dd60d21b6064820152608401610d09565b600080856001600160a01b031685604051614a759190615853565b600060405180830381855af49150503d8060008114614ab0576040519150601f19603f3d011682016040523d82523d6000602084013e614ab5565b606091505b5091509150611cac828286614ae6565b80516a636f6e736f6c652e6c6f67602083016000808483855afa5050505050565b60608315614af5575081613e8c565b825115614b055782518084602001fd5b8160405162461bcd60e51b8152600401610d099190614d5f565b6040518060c00160405280606081526020016000815260200160008152602001600081526020016000815260200160006004811115614b6057614b60615417565b905290565b80356001600160a01b0381168114614b7c57600080fd5b919050565b634e487b7160e01b600052604160045260246000fd5b60405161014081016001600160401b0381118282101715614bba57614bba614b81565b60405290565b60405160c081016001600160401b0381118282101715614bba57614bba614b81565b604051601f8201601f191681016001600160401b0381118282101715614c0a57614c0a614b81565b604052919050565b60006001600160401b03821115614c2b57614c2b614b81565b50601f01601f191660200190565b600082601f830112614c4a57600080fd5b8135614c5d614c5882614c12565b614be2565b818152846020838601011115614c7257600080fd5b816020850160208301376000918101602001919091529392505050565b60008060408385031215614ca257600080fd5b614cab83614b65565b915060208301356001600160401b03811115614cc657600080fd5b614cd285828601614c39565b9150509250929050565b6001600160e01b0319811681146110ab57600080fd5b600060208284031215614d0457600080fd5b8135613e8c81614cdc565b60005b83811015614d2a578181015183820152602001614d12565b50506000910152565b60008151808452614d4b816020860160208601614d0f565b601f01601f19169290920160200192915050565b602081526000613e8c6020830184614d33565b600060208284031215614d8457600080fd5b5035919050565b600060208284031215614d9d57600080fd5b613e8c82614b65565b60008060408385031215614db957600080fd5b614dc283614b65565b946020939093013593505050565b600081518084526020808501945080840160005b83811015614e0057815187529582019590820190600101614de4565b509495945050505050565b6020815281516020820152602082015160408201526040820151606082015260608201516080820152608082015160a082015260a082015160c082015260c082015160e0820152600060e0830151610100818185015280850151915050610120808185015250611447610140840182614dd0565b600080600060608486031215614e9457600080fd5b614e9d84614b65565b9250614eab60208501614b65565b9150604084013590509250925092565b60008060408385031215614ece57600080fd5b50508035926020909101359150565b60008060408385031215614ef057600080fd5b8235915060208301356001600160401b03811115614cc657600080fd5b80151581146110ab57600080fd5b600060208284031215614f2d57600080fd5b8135613e8c81614f0d565b838152606060208201526000614f516060830185614d33565b8281036040840152611cac8185614d33565b60008060008060808587031215614f7957600080fd5b614f8285614b65565b93506020850135925060408501356001600160401b0380821115614fa557600080fd5b614fb188838901614c39565b93506060870135915080821115614fc757600080fd5b50614fd487828801614c39565b91505092959194509250565b600060208284031215614ff257600080fd5b81356001600160401b0381111561500857600080fd5b61144784828501614c39565b60008060006060848603121561502957600080fd5b83359250614eab60208501614b65565b600080600080600060a0868803121561505157600080fd5b505083359560208501359550604085013594606081013594506080013592509050565b6020808252825182820181905260009190848201906040850190845b818110156150ac57835183529284019291840191600101615090565b50909695505050505050565b600080604083850312156150cb57600080fd5b6150d483614b65565b915060208301356150e481614f0d565b809150509250929050565b600581106110ab57600080fd5b6000806040838503121561510f57600080fd5b8235915060208301356150e4816150ef565b6000806020838503121561513457600080fd5b82356001600160401b038082111561514b57600080fd5b818501915085601f83011261515f57600080fd5b81358181111561516e57600080fd5b8660208260051b850101111561518357600080fd5b60209290920196919550909350505050565b6000602080830181845280855180835260408601915060408160051b870101925083870160005b828110156151ea57603f198886030184526151d8858351614d33565b945092850192908501906001016151bc565b5092979650505050505050565b6000806000806080858703121561520d57600080fd5b61521685614b65565b935061522460208601614b65565b92506040850135915060608501356001600160401b0381111561524657600080fd5b614fd487828801614c39565b6000806040838503121561526557600080fd5b8235915061527560208401614b65565b90509250929050565b60008060006060848603121561529357600080fd5b833592506020840135915060408401356152ac816150ef565b809150509250925092565b600080604083850312156152ca57600080fd5b6152d383614b65565b915061527560208401614b65565b600181811c908216806152f557607f821691505b60208210810361531557634e487b7160e01b600052602260045260246000fd5b50919050565b6020808252600e908201526d139bdd08185d5d1a1bdc9a5e995960921b604082015260600190565b634e487b7160e01b600052603260045260246000fd5b634e487b7160e01b600052601160045260246000fd5b8082028115828204841417610daa57610daa615359565b634e487b7160e01b600052601260045260246000fd5b6000826153ab576153ab615386565b500490565b80820180821115610daa57610daa615359565b60208082526021908201527f43616c6c6572206973206e6f742074686520426174746c6520636f6e747261636040820152601d60fa1b606082015260800190565b81810381811115610daa57610daa615359565b634e487b7160e01b600052602160045260246000fd5b6000808335601e1984360301811261544457600080fd5b8301803591506001600160401b0382111561545e57600080fd5b60200191503681900382131561547357600080fd5b9250929050565b60006001820161548c5761548c615359565b5060010190565b600083516154a5818460208801614d0f565b8351908301906154b9818360208801614d0f565b01949350505050565b6001600160a01b0394851681529290931660208301526040820152606081019190915260a06080820181905260009082015260c00190565b8051614b7c816150ef565b6000610140828403121561551857600080fd5b615520614b97565b825181526020830151602082015261553a604084016154fa565b604082015261554b606084016154fa565b60608201526080830151608082015260a083015160a082015260c083015160c082015260e083015160e08201526101008084015181830152506101208084015181830152508091505092915050565b600060208083850312156155ad57600080fd5b82516001600160401b03808211156155c457600080fd5b9084019060c082870312156155d857600080fd5b6155e0614bc0565b8251828111156155ef57600080fd5b83019150601f8201871361560257600080fd5b8151615610614c5882614c12565b818152888683860101111561562457600080fd5b61563382878301888701614d0f565b8083525050838301518482015260408301516040820152606083015160608201526080830151608082015261566a60a084016154fa565b60a08201529695505050505050565b634e487b7160e01b600052603160045260246000fd5b6000602082840312156156a157600080fd5b5051919050565b601f821115610ee657600081815260208120601f850160051c810160208610156156cf5750805b601f850160051c820191505b81811015612655578281556001016156db565b81516001600160401b0381111561570757615707614b81565b61571b8161571584546152e1565b846156a8565b602080601f83116001811461575057600084156157385750858301515b600019600386901b1c1916600185901b178555612655565b600085815260208120601f198616915b8281101561577f57888601518255948401946001909101908401615760565b508582101561579d5787850151600019600388901b60f8161c191681555b5050505050600190811b01905550565b6000602082840312156157bf57600080fd5b8151613e8c81614f0d565b6040815260006157dd6040830185614d33565b8281036020840152612f908185614d33565b6000826157fe576157fe615386565b500690565b6001600160a01b0385811682528416602082015260408101839052608060608201819052600090611cac90830184614d33565b60006020828403121561584857600080fd5b8151613e8c81614cdc565b60008251615865818460208701614d0f565b919091019291505056fe416464726573733a206c6f772d6c6576656c2064656c65676174652063616c6c206661696c6564ddf252ad1be2c89b69c2b068fc378daa952ba7f163c4a11628f55a4df523b3efa2646970667358221220646357566fb82a825f3ea77cd798f2666b96be9fdc7192d5faddb43371eab18f64736f6c63430008110033697066733a2f2f516d5a7a426d6a726a6e3734324478387750486865713858627a6b6f775753367871764c4855525453764c51436f697066733a2f2f516d5579576d7072793853726939426d734853514d444250746e505a6b6f583647533777385a697a706e46583776697066733a2f2f516d545945695869547a4268597577755137626a533561714368726566454a5a33376173384244724b59786b316a",
  "linkReferences": {
    "contracts/CMLib.sol": {
      "CMLib": [
        {
          "length": 20,
          "start": 7981
        },
        {
          "length": 20,
          "start": 8982
        },
        {
          "length": 20,
          "start": 9772
        },
        {
          "length": 20,
          "start": 10426
        }
      ]
    }
  },
  "deployedLinkReferences": {
    "contracts/CMLib.sol": {
      "CMLib": [
        {
          "length": 20,
          "start": 5305
        },
        {
          "length": 20,
          "start": 6306
        },
        {
          "length": 20,
          "start": 7096
        },
        {
          "length": 20,
          "start": 7750
        }
      ]
    }
  }
}