{
  "_format": "hh-sol-artifact-1",
  "contractName": "Character",
  "sourceName": "contracts/Character.sol",
  "abi": [
    {
      "inputs": [],
      "stateMutability": "nonpayable",
      "type": "constructor"
    },
    {
      "inputs": [],
      "name": "ApprovalCallerNotOwnerNorApproved",
      "type": "error"
    },
    {
      "inputs": [],
      "name": "ApprovalQueryForNonexistentToken",
      "type": "error"
    },
    {
      "inputs": [],
      "name": "ApprovalToCurrentOwner",
      "type": "error"
    },
    {
      "inputs": [],
      "name": "ApproveToCaller",
      "type": "error"
    },
    {
      "inputs": [],
      "name": "BalanceQueryForZeroAddress",
      "type": "error"
    },
    {
      "inputs": [],
      "name": "MintToZeroAddress",
      "type": "error"
    },
    {
      "inputs": [],
      "name": "MintZeroQuantity",
      "type": "error"
    },
    {
      "inputs": [
        {
          "internalType": "address",
          "name": "operator",
          "type": "address"
        }
      ],
      "name": "OperatorNotAllowed",
      "type": "error"
    },
    {
      "inputs": [],
      "name": "OwnerQueryForNonexistentToken",
      "type": "error"
    },
    {
      "inputs": [],
      "name": "TransferCallerNotOwnerNorApproved",
      "type": "error"
    },
    {
      "inputs": [],
      "name": "TransferFromIncorrectOwner",
      "type": "error"
    },
    {
      "inputs": [],
      "name": "TransferToNonERC721ReceiverImplementer",
      "type": "error"
    },
    {
      "inputs": [],
      "name": "TransferToZeroAddress",
      "type": "error"
    },
    {
      "inputs": [],
      "name": "URIQueryForNonexistentToken",
      "type": "error"
    },
    {
      "anonymous": false,
      "inputs": [
        {
          "indexed": true,
          "internalType": "address",
          "name": "owner",
          "type": "address"
        },
        {
          "indexed": true,
          "internalType": "address",
          "name": "approved",
          "type": "address"
        },
        {
          "indexed": true,
          "internalType": "uint256",
          "name": "tokenId",
          "type": "uint256"
        }
      ],
      "name": "Approval",
      "type": "event"
    },
    {
      "anonymous": false,
      "inputs": [
        {
          "indexed": true,
          "internalType": "address",
          "name": "owner",
          "type": "address"
        },
        {
          "indexed": true,
          "internalType": "address",
          "name": "operator",
          "type": "address"
        },
        {
          "indexed": false,
          "internalType": "bool",
          "name": "approved",
          "type": "bool"
        }
      ],
      "name": "ApprovalForAll",
      "type": "event"
    },
    {
      "anonymous": false,
      "inputs": [
        {
          "indexed": false,
          "internalType": "string",
          "name": "prevURI",
          "type": "string"
        },
        {
          "indexed": false,
          "internalType": "string",
          "name": "newURI",
          "type": "string"
        }
      ],
      "name": "ContractURIUpdated",
      "type": "event"
    },
    {
      "anonymous": false,
      "inputs": [
        {
          "indexed": true,
          "internalType": "address",
          "name": "newRoyaltyRecipient",
          "type": "address"
        },
        {
          "indexed": false,
          "internalType": "uint256",
          "name": "newRoyaltyBps",
          "type": "uint256"
        }
      ],
      "name": "DefaultRoyalty",
      "type": "event"
    },
    {
      "anonymous": false,
      "inputs": [
        {
          "indexed": true,
          "internalType": "uint256",
          "name": "tokenId",
          "type": "uint256"
        },
        {
          "indexed": true,
          "internalType": "uint256",
          "name": "typeId",
          "type": "uint256"
        }
      ],
      "name": "NewCharacter",
      "type": "event"
    },
    {
      "anonymous": false,
      "inputs": [
        {
          "indexed": false,
          "internalType": "bool",
          "name": "restriction",
          "type": "bool"
        }
      ],
      "name": "OperatorRestriction",
      "type": "event"
    },
    {
      "anonymous": false,
      "inputs": [
        {
          "indexed": true,
          "internalType": "address",
          "name": "prevOwner",
          "type": "address"
        },
        {
          "indexed": true,
          "internalType": "address",
          "name": "newOwner",
          "type": "address"
        }
      ],
      "name": "OwnerUpdated",
      "type": "event"
    },
    {
      "anonymous": false,
      "inputs": [
        {
          "indexed": true,
          "internalType": "uint256",
          "name": "tokenId",
          "type": "uint256"
        },
        {
          "indexed": true,
          "internalType": "address",
          "name": "royaltyRecipient",
          "type": "address"
        },
        {
          "indexed": false,
          "internalType": "uint256",
          "name": "royaltyBps",
          "type": "uint256"
        }
      ],
      "name": "RoyaltyForToken",
      "type": "event"
    },
    {
      "anonymous": false,
      "inputs": [
        {
          "indexed": true,
          "internalType": "address",
          "name": "from",
          "type": "address"
        },
        {
          "indexed": true,
          "internalType": "address",
          "name": "to",
          "type": "address"
        },
        {
          "indexed": true,
          "internalType": "uint256",
          "name": "tokenId",
          "type": "uint256"
        }
      ],
      "name": "Transfer",
      "type": "event"
    },
    {
      "inputs": [],
      "name": "OPERATOR_FILTER_REGISTRY",
      "outputs": [
        {
          "internalType": "contract IOperatorFilterRegistry",
          "name": "",
          "type": "address"
        }
      ],
      "stateMutability": "view",
      "type": "function"
    },
    {
      "inputs": [
        {
          "internalType": "uint256",
          "name": "tokenId",
          "type": "uint256"
        },
        {
          "internalType": "uint256",
          "name": "amount",
          "type": "uint256"
        }
      ],
      "name": "addMana",
      "outputs": [],
      "stateMutability": "nonpayable",
      "type": "function"
    },
    {
      "inputs": [
        {
          "internalType": "uint256",
          "name": "tokenId",
          "type": "uint256"
        },
        {
          "internalType": "uint256",
          "name": "amount",
          "type": "uint256"
        }
      ],
      "name": "addStamina",
      "outputs": [],
      "stateMutability": "nonpayable",
      "type": "function"
    },
    {
      "inputs": [
        {
          "internalType": "uint256",
          "name": "characterTokenId",
          "type": "uint256"
        },
        {
          "internalType": "uint256",
          "name": "strength",
          "type": "uint256"
        },
        {
          "internalType": "uint256",
          "name": "dexterity",
          "type": "uint256"
        },
        {
          "internalType": "uint256",
          "name": "intelligence",
          "type": "uint256"
        },
        {
          "internalType": "uint256",
          "name": "vitality",
          "type": "uint256"
        }
      ],
      "name": "addStats",
      "outputs": [],
      "stateMutability": "nonpayable",
      "type": "function"
    },
    {
      "inputs": [
        {
          "internalType": "address",
          "name": "operator",
          "type": "address"
        },
        {
          "internalType": "uint256",
          "name": "tokenId",
          "type": "uint256"
        }
      ],
      "name": "approve",
      "outputs": [],
      "stateMutability": "nonpayable",
      "type": "function"
    },
    {
      "inputs": [
        {
          "internalType": "address",
          "name": "owner",
          "type": "address"
        }
      ],
      "name": "balanceOf",
      "outputs": [
        {
          "internalType": "uint256",
          "name": "",
          "type": "uint256"
        }
      ],
      "stateMutability": "view",
      "type": "function"
    },
    {
      "inputs": [
        {
          "internalType": "address",
          "name": "_to",
          "type": "address"
        },
        {
          "internalType": "uint256",
          "name": "_quantity",
          "type": "uint256"
        },
        {
          "internalType": "string",
          "name": "_baseURI",
          "type": "string"
        },
        {
          "internalType": "bytes",
          "name": "_data",
          "type": "bytes"
        }
      ],
      "name": "batchMintTo",
      "outputs": [],
      "stateMutability": "nonpayable",
      "type": "function"
    },
    {
      "inputs": [],
      "name": "battleContractAddress",
      "outputs": [
        {
          "internalType": "address",
          "name": "",
          "type": "address"
        }
      ],
      "stateMutability": "view",
      "type": "function"
    },
    {
      "inputs": [],
      "name": "battleItems",
      "outputs": [
        {
          "internalType": "contract BattleItems",
          "name": "",
          "type": "address"
        }
      ],
      "stateMutability": "view",
      "type": "function"
    },
    {
      "inputs": [],
      "name": "battleSkills",
      "outputs": [
        {
          "internalType": "contract BattleSkills",
          "name": "",
          "type": "address"
        }
      ],
      "stateMutability": "view",
      "type": "function"
    },
    {
      "inputs": [
        {
          "internalType": "uint256",
          "name": "_tokenId",
          "type": "uint256"
        }
      ],
      "name": "burn",
      "outputs": [],
      "stateMutability": "nonpayable",
      "type": "function"
    },
    {
      "inputs": [
        {
          "internalType": "uint256",
          "name": "level",
          "type": "uint256"
        }
      ],
      "name": "calculateExperienceRequired",
      "outputs": [
        {
          "internalType": "uint256",
          "name": "",
          "type": "uint256"
        }
      ],
      "stateMutability": "view",
      "type": "function"
    },
    {
      "inputs": [
        {
          "internalType": "uint256",
          "name": "",
          "type": "uint256"
        }
      ],
      "name": "charStats",
      "outputs": [
        {
          "internalType": "uint256",
          "name": "tokenId",
          "type": "uint256"
        },
        {
          "internalType": "uint256",
          "name": "level",
          "type": "uint256"
        },
        {
          "internalType": "uint256",
          "name": "experience",
          "type": "uint256"
        },
        {
          "internalType": "uint256",
          "name": "health",
          "type": "uint256"
        },
        {
          "internalType": "uint256",
          "name": "mana",
          "type": "uint256"
        },
        {
          "internalType": "uint256",
          "name": "attack",
          "type": "uint256"
        },
        {
          "internalType": "uint256",
          "name": "defense",
          "type": "uint256"
        },
        {
          "internalType": "uint256",
          "name": "strength",
          "type": "uint256"
        },
        {
          "internalType": "uint256",
          "name": "dexterity",
          "type": "uint256"
        },
        {
          "internalType": "uint256",
          "name": "intelligence",
          "type": "uint256"
        },
        {
          "internalType": "uint256",
          "name": "vitality",
          "type": "uint256"
        },
        {
          "internalType": "uint256",
          "name": "accuracy",
          "type": "uint256"
        },
        {
          "internalType": "uint256",
          "name": "statPoints",
          "type": "uint256"
        },
        {
          "internalType": "uint256",
          "name": "typeId",
          "type": "uint256"
        }
      ],
      "stateMutability": "view",
      "type": "function"
    },
    {
      "inputs": [
        {
          "internalType": "uint256",
          "name": "",
          "type": "uint256"
        }
      ],
      "name": "charTypes",
      "outputs": [
        {
          "internalType": "uint256",
          "name": "typeId",
          "type": "uint256"
        },
        {
          "internalType": "string",
          "name": "characterType",
          "type": "string"
        },
        {
          "internalType": "string",
          "name": "uri",
          "type": "string"
        }
      ],
      "stateMutability": "view",
      "type": "function"
    },
    {
      "inputs": [],
      "name": "characterClasses",
      "outputs": [
        {
          "internalType": "contract CharacterClass",
          "name": "",
          "type": "address"
        }
      ],
      "stateMutability": "view",
      "type": "function"
    },
    {
      "inputs": [
        {
          "internalType": "uint256",
          "name": "",
          "type": "uint256"
        }
      ],
      "name": "characterEquips",
      "outputs": [
        {
          "internalType": "uint256",
          "name": "equippedClass",
          "type": "uint256"
        }
      ],
      "stateMutability": "view",
      "type": "function"
    },
    {
      "inputs": [
        {
          "internalType": "uint256",
          "name": "",
          "type": "uint256"
        }
      ],
      "name": "characterStats",
      "outputs": [
        {
          "internalType": "uint256",
          "name": "tokenId",
          "type": "uint256"
        },
        {
          "internalType": "uint256",
          "name": "level",
          "type": "uint256"
        },
        {
          "internalType": "uint256",
          "name": "experience",
          "type": "uint256"
        },
        {
          "internalType": "uint256",
          "name": "health",
          "type": "uint256"
        },
        {
          "internalType": "uint256",
          "name": "mana",
          "type": "uint256"
        },
        {
          "internalType": "uint256",
          "name": "attack",
          "type": "uint256"
        },
        {
          "internalType": "uint256",
          "name": "defense",
          "type": "uint256"
        },
        {
          "internalType": "uint256",
          "name": "strength",
          "type": "uint256"
        },
        {
          "internalType": "uint256",
          "name": "dexterity",
          "type": "uint256"
        },
        {
          "internalType": "uint256",
          "name": "intelligence",
          "type": "uint256"
        },
        {
          "internalType": "uint256",
          "name": "vitality",
          "type": "uint256"
        },
        {
          "internalType": "uint256",
          "name": "accuracy",
          "type": "uint256"
        },
        {
          "internalType": "uint256",
          "name": "statPoints",
          "type": "uint256"
        },
        {
          "internalType": "uint256",
          "name": "typeId",
          "type": "uint256"
        }
      ],
      "stateMutability": "view",
      "type": "function"
    },
    {
      "inputs": [
        {
          "internalType": "uint256",
          "name": "tokenId",
          "type": "uint256"
        },
        {
          "internalType": "uint256",
          "name": "amount",
          "type": "uint256"
        }
      ],
      "name": "consumeMana",
      "outputs": [],
      "stateMutability": "nonpayable",
      "type": "function"
    },
    {
      "inputs": [
        {
          "internalType": "uint256",
          "name": "tokenId",
          "type": "uint256"
        },
        {
          "internalType": "uint256",
          "name": "amount",
          "type": "uint256"
        }
      ],
      "name": "consumeStamina",
      "outputs": [],
      "stateMutability": "nonpayable",
      "type": "function"
    },
    {
      "inputs": [],
      "name": "contractURI",
      "outputs": [
        {
          "internalType": "string",
          "name": "",
          "type": "string"
        }
      ],
      "stateMutability": "view",
      "type": "function"
    },
    {
      "inputs": [
        {
          "internalType": "uint256",
          "name": "characterTokenId",
          "type": "uint256"
        },
        {
          "internalType": "uint256",
          "name": "classId",
          "type": "uint256"
        }
      ],
      "name": "equipClass",
      "outputs": [],
      "stateMutability": "nonpayable",
      "type": "function"
    },
    {
      "inputs": [
        {
          "internalType": "uint256",
          "name": "characterTokenId",
          "type": "uint256"
        },
        {
          "internalType": "uint256",
          "name": "tokenId",
          "type": "uint256"
        }
      ],
      "name": "equipItem",
      "outputs": [],
      "stateMutability": "nonpayable",
      "type": "function"
    },
    {
      "inputs": [
        {
          "internalType": "uint256",
          "name": "characterTokenId",
          "type": "uint256"
        },
        {
          "internalType": "uint256",
          "name": "skillId",
          "type": "uint256"
        }
      ],
      "name": "equipSkill",
      "outputs": [],
      "stateMutability": "nonpayable",
      "type": "function"
    },
    {
      "inputs": [
        {
          "internalType": "uint256",
          "name": "characterTokenId",
          "type": "uint256"
        },
        {
          "internalType": "uint256",
          "name": "xp",
          "type": "uint256"
        }
      ],
      "name": "gainXP",
      "outputs": [],
      "stateMutability": "nonpayable",
      "type": "function"
    },
    {
      "inputs": [
        {
          "internalType": "uint256",
          "name": "tokenId",
          "type": "uint256"
        }
      ],
      "name": "getApproved",
      "outputs": [
        {
          "internalType": "address",
          "name": "",
          "type": "address"
        }
      ],
      "stateMutability": "view",
      "type": "function"
    },
    {
      "inputs": [],
      "name": "getBaseURICount",
      "outputs": [
        {
          "internalType": "uint256",
          "name": "",
          "type": "uint256"
        }
      ],
      "stateMutability": "view",
      "type": "function"
    },
    {
      "inputs": [
        {
          "internalType": "uint256",
          "name": "_index",
          "type": "uint256"
        }
      ],
      "name": "getBatchIdAtIndex",
      "outputs": [
        {
          "internalType": "uint256",
          "name": "",
          "type": "uint256"
        }
      ],
      "stateMutability": "view",
      "type": "function"
    },
    {
      "inputs": [
        {
          "internalType": "uint256",
          "name": "_tokenId",
          "type": "uint256"
        }
      ],
      "name": "getCharacter",
      "outputs": [
        {
          "components": [
            {
              "internalType": "uint256",
              "name": "tokenId",
              "type": "uint256"
            },
            {
              "internalType": "uint256",
              "name": "level",
              "type": "uint256"
            },
            {
              "internalType": "uint256",
              "name": "experience",
              "type": "uint256"
            },
            {
              "internalType": "uint256",
              "name": "health",
              "type": "uint256"
            },
            {
              "internalType": "uint256",
              "name": "mana",
              "type": "uint256"
            },
            {
              "internalType": "uint256",
              "name": "attack",
              "type": "uint256"
            },
            {
              "internalType": "uint256",
              "name": "defense",
              "type": "uint256"
            },
            {
              "internalType": "uint256",
              "name": "strength",
              "type": "uint256"
            },
            {
              "internalType": "uint256",
              "name": "dexterity",
              "type": "uint256"
            },
            {
              "internalType": "uint256",
              "name": "intelligence",
              "type": "uint256"
            },
            {
              "internalType": "uint256",
              "name": "vitality",
              "type": "uint256"
            },
            {
              "internalType": "uint256",
              "name": "accuracy",
              "type": "uint256"
            },
            {
              "internalType": "uint256",
              "name": "statPoints",
              "type": "uint256"
            },
            {
              "internalType": "uint256",
              "name": "typeId",
              "type": "uint256"
            }
          ],
          "internalType": "struct Character.CharacterStats",
          "name": "",
          "type": "tuple"
        }
      ],
      "stateMutability": "view",
      "type": "function"
    },
    {
      "inputs": [
        {
          "internalType": "uint256",
          "name": "tokenId",
          "type": "uint256"
        }
      ],
      "name": "getCharacterAttack",
      "outputs": [
        {
          "internalType": "uint256",
          "name": "",
          "type": "uint256"
        }
      ],
      "stateMutability": "view",
      "type": "function"
    },
    {
      "inputs": [
        {
          "internalType": "uint256",
          "name": "tokenId",
          "type": "uint256"
        }
      ],
      "name": "getCharacterDefense",
      "outputs": [
        {
          "internalType": "uint256",
          "name": "",
          "type": "uint256"
        }
      ],
      "stateMutability": "view",
      "type": "function"
    },
    {
      "inputs": [
        {
          "internalType": "uint256",
          "name": "tokenId",
          "type": "uint256"
        }
      ],
      "name": "getCharacterHealth",
      "outputs": [
        {
          "internalType": "uint256",
          "name": "",
          "type": "uint256"
        }
      ],
      "stateMutability": "view",
      "type": "function"
    },
    {
      "inputs": [
        {
          "internalType": "uint256",
          "name": "tokenId",
          "type": "uint256"
        }
      ],
      "name": "getCharacterLevel",
      "outputs": [
        {
          "internalType": "uint256",
          "name": "",
          "type": "uint256"
        }
      ],
      "stateMutability": "view",
      "type": "function"
    },
    {
      "inputs": [
        {
          "internalType": "uint256",
          "name": "tokenId",
          "type": "uint256"
        }
      ],
      "name": "getCharacterType",
      "outputs": [
        {
          "internalType": "uint256",
          "name": "",
          "type": "uint256"
        }
      ],
      "stateMutability": "view",
      "type": "function"
    },
    {
      "inputs": [],
      "name": "getDefaultRoyaltyInfo",
      "outputs": [
        {
          "internalType": "address",
          "name": "",
          "type": "address"
        },
        {
          "internalType": "uint16",
          "name": "",
          "type": "uint16"
        }
      ],
      "stateMutability": "view",
      "type": "function"
    },
    {
      "inputs": [
        {
          "internalType": "uint256",
          "name": "characterTokenId",
          "type": "uint256"
        }
      ],
      "name": "getEquippedClass",
      "outputs": [
        {
          "internalType": "uint256",
          "name": "",
          "type": "uint256"
        }
      ],
      "stateMutability": "view",
      "type": "function"
    },
    {
      "inputs": [
        {
          "internalType": "uint256",
          "name": "characterTokenId",
          "type": "uint256"
        },
        {
          "internalType": "enum BattleItems.ItemType",
          "name": "itemType",
          "type": "uint8"
        }
      ],
      "name": "getEquippedItem",
      "outputs": [
        {
          "internalType": "uint256",
          "name": "",
          "type": "uint256"
        }
      ],
      "stateMutability": "view",
      "type": "function"
    },
    {
      "inputs": [
        {
          "internalType": "uint256",
          "name": "characterTokenId",
          "type": "uint256"
        }
      ],
      "name": "getEquippedSkills",
      "outputs": [
        {
          "internalType": "uint256[]",
          "name": "",
          "type": "uint256[]"
        }
      ],
      "stateMutability": "view",
      "type": "function"
    },
    {
      "inputs": [
        {
          "internalType": "uint256",
          "name": "tokenId",
          "type": "uint256"
        }
      ],
      "name": "getMana",
      "outputs": [
        {
          "internalType": "uint256",
          "name": "",
          "type": "uint256"
        }
      ],
      "stateMutability": "view",
      "type": "function"
    },
    {
      "inputs": [
        {
          "internalType": "uint256",
          "name": "_tokenId",
          "type": "uint256"
        }
      ],
      "name": "getRoyaltyInfoForToken",
      "outputs": [
        {
          "internalType": "address",
          "name": "",
          "type": "address"
        },
        {
          "internalType": "uint16",
          "name": "",
          "type": "uint16"
        }
      ],
      "stateMutability": "view",
      "type": "function"
    },
    {
      "inputs": [
        {
          "internalType": "uint256",
          "name": "tokenId",
          "type": "uint256"
        }
      ],
      "name": "getStamina",
      "outputs": [
        {
          "internalType": "uint256",
          "name": "",
          "type": "uint256"
        }
      ],
      "stateMutability": "view",
      "type": "function"
    },
    {
      "inputs": [
        {
          "internalType": "address",
          "name": "owner",
          "type": "address"
        },
        {
          "internalType": "address",
          "name": "operator",
          "type": "address"
        }
      ],
      "name": "isApprovedForAll",
      "outputs": [
        {
          "internalType": "bool",
          "name": "",
          "type": "bool"
        }
      ],
      "stateMutability": "view",
      "type": "function"
    },
    {
      "inputs": [
        {
          "internalType": "address",
          "name": "_operator",
          "type": "address"
        },
        {
          "internalType": "uint256",
          "name": "_tokenId",
          "type": "uint256"
        }
      ],
      "name": "isApprovedOrOwner",
      "outputs": [
        {
          "internalType": "bool",
          "name": "isApprovedOrOwnerOf",
          "type": "bool"
        }
      ],
      "stateMutability": "view",
      "type": "function"
    },
    {
      "inputs": [
        {
          "internalType": "uint256",
          "name": "_typeId",
          "type": "uint256"
        },
        {
          "internalType": "uint256",
          "name": "_skillTokenId",
          "type": "uint256"
        }
      ],
      "name": "mintNewCharacterWithItemAndEquip",
      "outputs": [],
      "stateMutability": "nonpayable",
      "type": "function"
    },
    {
      "inputs": [
        {
          "internalType": "address",
          "name": "_to",
          "type": "address"
        },
        {
          "internalType": "string",
          "name": "_tokenURI",
          "type": "string"
        }
      ],
      "name": "mintTo",
      "outputs": [],
      "stateMutability": "nonpayable",
      "type": "function"
    },
    {
      "inputs": [
        {
          "internalType": "bytes[]",
          "name": "data",
          "type": "bytes[]"
        }
      ],
      "name": "multicall",
      "outputs": [
        {
          "internalType": "bytes[]",
          "name": "results",
          "type": "bytes[]"
        }
      ],
      "stateMutability": "nonpayable",
      "type": "function"
    },
    {
      "inputs": [],
      "name": "name",
      "outputs": [
        {
          "internalType": "string",
          "name": "",
          "type": "string"
        }
      ],
      "stateMutability": "view",
      "type": "function"
    },
    {
      "inputs": [
        {
          "internalType": "uint256",
          "name": "_typeId",
          "type": "uint256"
        }
      ],
      "name": "newCharacter",
      "outputs": [],
      "stateMutability": "nonpayable",
      "type": "function"
    },
    {
      "inputs": [],
      "name": "nextTokenIdToMint",
      "outputs": [
        {
          "internalType": "uint256",
          "name": "",
          "type": "uint256"
        }
      ],
      "stateMutability": "view",
      "type": "function"
    },
    {
      "inputs": [],
      "name": "numCharacters",
      "outputs": [
        {
          "internalType": "uint256",
          "name": "",
          "type": "uint256"
        }
      ],
      "stateMutability": "view",
      "type": "function"
    },
    {
      "inputs": [
        {
          "internalType": "address",
          "name": "",
          "type": "address"
        },
        {
          "internalType": "address",
          "name": "",
          "type": "address"
        },
        {
          "internalType": "uint256[]",
          "name": "",
          "type": "uint256[]"
        },
        {
          "internalType": "uint256[]",
          "name": "",
          "type": "uint256[]"
        },
        {
          "internalType": "bytes",
          "name": "",
          "type": "bytes"
        }
      ],
      "name": "onERC1155BatchReceived",
      "outputs": [
        {
          "internalType": "bytes4",
          "name": "",
          "type": "bytes4"
        }
      ],
      "stateMutability": "nonpayable",
      "type": "function"
    },
    {
      "inputs": [
        {
          "internalType": "address",
          "name": "",
          "type": "address"
        },
        {
          "internalType": "address",
          "name": "",
          "type": "address"
        },
        {
          "internalType": "uint256",
          "name": "",
          "type": "uint256"
        },
        {
          "internalType": "uint256",
          "name": "",
          "type": "uint256"
        },
        {
          "internalType": "bytes",
          "name": "",
          "type": "bytes"
        }
      ],
      "name": "onERC1155Received",
      "outputs": [
        {
          "internalType": "bytes4",
          "name": "",
          "type": "bytes4"
        }
      ],
      "stateMutability": "nonpayable",
      "type": "function"
    },
    {
      "inputs": [],
      "name": "operatorRestriction",
      "outputs": [
        {
          "internalType": "bool",
          "name": "",
          "type": "bool"
        }
      ],
      "stateMutability": "view",
      "type": "function"
    },
    {
      "inputs": [],
      "name": "owner",
      "outputs": [
        {
          "internalType": "address",
          "name": "",
          "type": "address"
        }
      ],
      "stateMutability": "view",
      "type": "function"
    },
    {
      "inputs": [
        {
          "internalType": "uint256",
          "name": "tokenId",
          "type": "uint256"
        }
      ],
      "name": "ownerOf",
      "outputs": [
        {
          "internalType": "address",
          "name": "",
          "type": "address"
        }
      ],
      "stateMutability": "view",
      "type": "function"
    },
    {
      "inputs": [
        {
          "internalType": "uint256",
          "name": "tokenId",
          "type": "uint256"
        }
      ],
      "name": "restoreManaToFull",
      "outputs": [],
      "stateMutability": "nonpayable",
      "type": "function"
    },
    {
      "inputs": [
        {
          "internalType": "uint256",
          "name": "tokenId",
          "type": "uint256"
        }
      ],
      "name": "restoreStaminaToFull",
      "outputs": [],
      "stateMutability": "nonpayable",
      "type": "function"
    },
    {
      "inputs": [
        {
          "internalType": "uint256",
          "name": "tokenId",
          "type": "uint256"
        },
        {
          "internalType": "uint256",
          "name": "salePrice",
          "type": "uint256"
        }
      ],
      "name": "royaltyInfo",
      "outputs": [
        {
          "internalType": "address",
          "name": "receiver",
          "type": "address"
        },
        {
          "internalType": "uint256",
          "name": "royaltyAmount",
          "type": "uint256"
        }
      ],
      "stateMutability": "view",
      "type": "function"
    },
    {
      "inputs": [
        {
          "internalType": "address",
          "name": "from",
          "type": "address"
        },
        {
          "internalType": "address",
          "name": "to",
          "type": "address"
        },
        {
          "internalType": "uint256",
          "name": "tokenId",
          "type": "uint256"
        }
      ],
      "name": "safeTransferFrom",
      "outputs": [],
      "stateMutability": "nonpayable",
      "type": "function"
    },
    {
      "inputs": [
        {
          "internalType": "address",
          "name": "from",
          "type": "address"
        },
        {
          "internalType": "address",
          "name": "to",
          "type": "address"
        },
        {
          "internalType": "uint256",
          "name": "tokenId",
          "type": "uint256"
        },
        {
          "internalType": "bytes",
          "name": "data",
          "type": "bytes"
        }
      ],
      "name": "safeTransferFrom",
      "outputs": [],
      "stateMutability": "nonpayable",
      "type": "function"
    },
    {
      "inputs": [
        {
          "internalType": "address",
          "name": "operator",
          "type": "address"
        },
        {
          "internalType": "bool",
          "name": "approved",
          "type": "bool"
        }
      ],
      "name": "setApprovalForAll",
      "outputs": [],
      "stateMutability": "nonpayable",
      "type": "function"
    },
    {
      "inputs": [
        {
          "internalType": "address",
          "name": "_address",
          "type": "address"
        }
      ],
      "name": "setBattleContract",
      "outputs": [],
      "stateMutability": "nonpayable",
      "type": "function"
    },
    {
      "inputs": [
        {
          "internalType": "address",
          "name": "_address",
          "type": "address"
        }
      ],
      "name": "setBattleItems",
      "outputs": [],
      "stateMutability": "nonpayable",
      "type": "function"
    },
    {
      "inputs": [
        {
          "internalType": "address",
          "name": "_address",
          "type": "address"
        }
      ],
      "name": "setBattleSkills",
      "outputs": [],
      "stateMutability": "nonpayable",
      "type": "function"
    },
    {
      "inputs": [
        {
          "internalType": "address",
          "name": "_address",
          "type": "address"
        }
      ],
      "name": "setClassContract",
      "outputs": [],
      "stateMutability": "nonpayable",
      "type": "function"
    },
    {
      "inputs": [
        {
          "internalType": "string",
          "name": "_uri",
          "type": "string"
        }
      ],
      "name": "setContractURI",
      "outputs": [],
      "stateMutability": "nonpayable",
      "type": "function"
    },
    {
      "inputs": [
        {
          "internalType": "address",
          "name": "_royaltyRecipient",
          "type": "address"
        },
        {
          "internalType": "uint256",
          "name": "_royaltyBps",
          "type": "uint256"
        }
      ],
      "name": "setDefaultRoyaltyInfo",
      "outputs": [],
      "stateMutability": "nonpayable",
      "type": "function"
    },
    {
      "inputs": [
        {
          "internalType": "bool",
          "name": "_restriction",
          "type": "bool"
        }
      ],
      "name": "setOperatorRestriction",
      "outputs": [],
      "stateMutability": "nonpayable",
      "type": "function"
    },
    {
      "inputs": [
        {
          "internalType": "address",
          "name": "_newOwner",
          "type": "address"
        }
      ],
      "name": "setOwner",
      "outputs": [],
      "stateMutability": "nonpayable",
      "type": "function"
    },
    {
      "inputs": [
        {
          "internalType": "uint256",
          "name": "_tokenId",
          "type": "uint256"
        },
        {
          "internalType": "address",
          "name": "_recipient",
          "type": "address"
        },
        {
          "internalType": "uint256",
          "name": "_bps",
          "type": "uint256"
        }
      ],
      "name": "setRoyaltyInfoForToken",
      "outputs": [],
      "stateMutability": "nonpayable",
      "type": "function"
    },
    {
      "inputs": [
        {
          "internalType": "bytes4",
          "name": "interfaceId",
          "type": "bytes4"
        }
      ],
      "name": "supportsInterface",
      "outputs": [
        {
          "internalType": "bool",
          "name": "",
          "type": "bool"
        }
      ],
      "stateMutability": "view",
      "type": "function"
    },
    {
      "inputs": [],
      "name": "symbol",
      "outputs": [
        {
          "internalType": "string",
          "name": "",
          "type": "string"
        }
      ],
      "stateMutability": "view",
      "type": "function"
    },
    {
      "inputs": [
        {
          "internalType": "uint256",
          "name": "_tokenId",
          "type": "uint256"
        }
      ],
      "name": "tokenURI",
      "outputs": [
        {
          "internalType": "string",
          "name": "",
          "type": "string"
        }
      ],
      "stateMutability": "view",
      "type": "function"
    },
    {
      "inputs": [],
      "name": "totalSupply",
      "outputs": [
        {
          "internalType": "uint256",
          "name": "",
          "type": "uint256"
        }
      ],
      "stateMutability": "view",
      "type": "function"
    },
    {
      "inputs": [
        {
          "internalType": "address",
          "name": "from",
          "type": "address"
        },
        {
          "internalType": "address",
          "name": "to",
          "type": "address"
        },
        {
          "internalType": "uint256",
          "name": "tokenId",
          "type": "uint256"
        }
      ],
      "name": "transferFrom",
      "outputs": [],
      "stateMutability": "nonpayable",
      "type": "function"
    },
    {
      "inputs": [
        {
          "internalType": "uint256",
          "name": "characterTokenId",
          "type": "uint256"
        }
      ],
      "name": "unequipClass",
      "outputs": [],
      "stateMutability": "nonpayable",
      "type": "function"
    },
    {
      "inputs": [
        {
          "internalType": "uint256",
          "name": "characterTokenId",
          "type": "uint256"
        },
        {
          "internalType": "enum BattleItems.ItemType",
          "name": "itemType",
          "type": "uint8"
        }
      ],
      "name": "unequipItem",
      "outputs": [],
      "stateMutability": "nonpayable",
      "type": "function"
    },
    {
      "inputs": [
        {
          "internalType": "uint256",
          "name": "characterTokenId",
          "type": "uint256"
        },
        {
          "internalType": "uint256",
          "name": "skillId",
          "type": "uint256"
        }
      ],
      "name": "unequipSkill",
      "outputs": [],
      "stateMutability": "nonpayable",
      "type": "function"
    }
  ],
  "bytecode": "0x60808060405234620009ba5760006200001882620009f8565b600982526821b430b930b1ba32b960b91b6020830152604051906200003d82620009f8565b600482526310d3919560e21b602083015282516001600160401b039190828111620007aa5760025494600186811c96168015620009af575b60208710146200099b578190601f9687811162000947575b50602090878311600114620008bf578492620008b3575b50508160011b916000199060031b1c1916176002555b8251828111620007aa576003938454600181811c91168015620008a8575b6020821014620008945790818784931162000841575b50602090878311600114620007d9578492620007cd575b50508160011b9160001990861b1c19161783555b8080556daaeb6d7670e522a718067333cd4e803b62000748575b5060098054336001600160a01b031982168117909255604051620003c8939290916001600160a01b03167f8292fce18fa69edf4db7b94ea2e58241df0ae57f97e0a6c9b29067028bf92d768484a3600a80546001600160b01b0319163361ffff60a01b19811691909117909155828252907f90d7ec04bcb8978719414f82e52e4cb651db41d0e6f8cea6118c2191e6183adb90602090a2600160ff19600e541617600e557f38475885990d8dfe9ca01f0ef160a1b5514426eab9ddbc953a3353410ba78096602060405160018152a1606460105580601855620002856040516200021d81620009bf565b828152600160208201528260408201526064606082015260646080820152600a60a0820152606460c0820152606460e082015260646101008201526064610120820152606461014082015260646101608201526005610180820152826101a082015262000a14565b620003006040516200029781620009bf565b828152600160208201528260408201526064606082015260646080820152600a60a0820152606460c0820152606460e08201526064610100820152606461012082015260646101408201526064610160820152600561018082015260016101a082015262000a14565b6200037b6040516200031281620009bf565b828152600160208201528260408201526064606082015260646080820152606460a0820152606460c0820152606460e08201526064610100820152606461012082015260646101408201526064610160820152600561018082015260026101a082015262000a14565b604051906200038a82620009dc565b81526040516200039a81620009f8565b60078152662bb0b93934b7b960c91b60208201526020820152620003bd62000ad7565b604082015262000b38565b6200040c604051620003da81620009dc565b60018152604051620003ec81620009f8565b60048152634d61676560e01b60208201526020820152620003bd62000ad7565b604051916200041b83620009dc565b60028352604051926200042e84620009f8565b6005845264526f67756560d81b6020850152602081019384526200045162000ad7565b9360408201948552601a54680100000000000000008110156200064b576001810180601a558110156200073257601a600052836020600020910201915182556001820190518051908582116200064b578254600181811c9116801562000727575b60208210146200062a57888111620006dd575b506020908883116001146200066d576002949392916000918362000661575b50508160011b9160001990871b1c19161790555b0192519384519283116200064b578354600181811c9116801562000640575b60208210146200062a57818111620005e0575b506020908311600114620005735782939460009362000567575b50508260011b92600019911b1c19161790555b604051615b59908162000e2b8239f35b01519150388062000544565b90601f198316918460005260206000209260005b818110620005c7575095846001969710620005ac575b50505050811b01905562000557565b01519060f884600019921b161c19169055388080806200059d565b9193602060018192878b01518155019501920162000587565b8460005260206000208280860160051c8201926020871062000620575b0160051c01905b8181106200061357506200052a565b6000815560010162000604565b92508192620005fd565b634e487b7160e01b600052602260045260246000fd5b90607f169062000517565b634e487b7160e01b600052604160045260246000fd5b015190503880620004e4565b90601f198316918460005260206000209260005b818110620006c4575091600193918560029897969410620006ab575b505050811b019055620004f8565b015160001983891b60f8161c191690553880806200069d565b9293602060018192878601518155019501930162000681565b8360005260206000208980850160051c820192602086106200071d575b0160051c01905b818110620007105750620004c5565b6000815560010162000701565b92508192620006fa565b90607f1690620004b2565b634e487b7160e01b600052603260045260246000fd5b803b15620007c957818091604460405180948193633e9f1edf60e11b8352306004840152733cc6cdda760b79bafa08df41ecfa224f810dceb660248401525af18015620007be57156200013357828111620007aa57604052620003c862000133565b634e487b7160e01b82526041600452602482fd5b6040513d84823e3d90fd5b5080fd5b01519050388062000105565b868552602085209250601f198416855b8181106200082857509084600195949392106200080f575b505050811b01835562000119565b015160001983881b60f8161c1916905538808062000801565b92936020600181928786015181550195019301620007e9565b909150858452602084208780850160051c820192602086106200088a575b9085949392910160051c01905b8181106200087b5750620000ee565b8581558493506001016200086c565b925081926200085f565b634e487b7160e01b84526022600452602484fd5b90607f1690620000d8565b015190503880620000a4565b600285527f405787fa12a823e0f2b7631cc41b3ba8828b3321ca811111fa75cd3aa3bb5ace9250601f198416855b8181106200092e575090846001959493921062000914575b505050811b01600255620000ba565b015160001960f88460031b161c1916905538808062000905565b92936020600181928786015181550195019301620008ed565b90915060028452602084208780850160051c8201926020861062000991575b9085949392910160051c01905b8181106200098257506200008d565b85815584935060010162000973565b9250819262000966565b634e487b7160e01b83526022600452602483fd5b95607f169562000075565b600080fd5b6101c081019081106001600160401b038211176200064b57604052565b606081019081106001600160401b038211176200064b57604052565b604081019081106001600160401b038211176200064b57604052565b601954680100000000000000008110156200064b57600181018060195581101562000732576101a0600d916019600052600e602060002091020192805184556020810151600185015560408101516002850155606081015160038501556080810151600485015560a0810151600585015560c0810151600685015560e0810151600785015561010081015160088501556101208101516009850155610140810151600a850155610160810151600b850155610180810151600c8501550151910155565b6040519062000ae682620009dc565b603582527f6e505a6b6f583647533777385a697a706e4658377600000000000000000000006040837f697066733a2f2f516d5579576d7072793853726939426d734853514d4442507460208201520152565b601a54680100000000000000008110156200064b57600180820180601a558210156200073257600090601a825260209260038484209102018451815581810192848601519182519460018060401b039586811162000e16578154948686811c9616801562000e0b575b8987101462000df757601f9586811162000daf575b50889086831160011462000d3f5791806002949260409694889262000d33575b5050600019600383901b1c191690881b1790555b0196015190815194851162000d1f5786548481811c9116801562000d14575b8782101462000d005783811162000cb8575b508592851160011462000c5557939450849291908362000c49575b50501b916000199060031b1c1916179055565b01519250388062000c36565b86815285812093958591601f198316915b8883831062000c9d575050501062000c83575b505050811b019055565b015160001960f88460031b161c1916905538808062000c79565b85870151885590960195948501948793509081019062000c66565b8782528682208480880160051c82019289891062000cf6575b0160051c019085905b82811062000cea57505062000c1b565b83815501859062000cda565b9250819262000cd1565b634e487b7160e01b82526022600452602482fd5b90607f169062000c09565b634e487b7160e01b81526041600452602490fd5b01519050388062000bd6565b8386528986208893929091601f198416885b8d82821062000d98575050916040979593918560029896941062000d7e575b505050811b01905562000bea565b015160001960f88460031b161c1916905538808062000d70565b8385015186558c9790950194938401930162000d51565b8386528986208780850160051c8201928c861062000ded575b0160051c019088905b82811062000de157505062000bb6565b87815501889062000dd1565b9250819262000dc8565b634e487b7160e01b85526022600452602485fd5b95607f169562000ba1565b634e487b7160e01b84526041600452602484fdfe60806040526004361015610013575b600080fd5b60003560e01c806275a3171461060d57806301ffc9a71461060457806306fdde03146105fb578063081812fc146105f257806308ec6c3c146105e9578063095ea7b3146105e05780630db0de52146105d75780630db6dff7146105ce57806313af4035146105c557806315d57827146105bc57806318160ddd146105b35780631bd2a477146105aa57806323b872dd146105a15780632401c7391461053e5780632419f51b14610598578063262a8c3b1461058f5780632a55205a146105865780632c1201561461057d5780632c8854fe1461057457806332f0cd641461056b5780633468f9cd146105625780633477979e14610559578063366e6fdb146105505780633b1475a71461054757806341463be11461053e57806341f434341461053557806342842e0e1461052c57806342966c6814610523578063430c20811461051a57806345d5007e14610511578063479d35e6146105085780634cc157df146104ff578063504c6e01146104f657806355483d45146104ed5780635a5ffb2e146104e45780635ada8456146104db5780635cec1549146104d2578063600dd5ea146104c95780636352211e146104c057806363b45e2d146104b757806367772584146104ae57806367e54367146104a55780636a0558a61461049c5780636ffd17d41461049357806370a082311461048a578063739420a5146104815780637443b32c14610478578063744e94aa1461046f578063754a81d914610466578063806227f51461045d578063835576ed146104545780638da5cb5b1461044b578063938e3d7b14610442578063954643ca1461043957806395d89b41146104305780639bcf7a15146104275780639c7e334c1461041e578063a22cb46514610415578063a6d13ee21461040c578063ac9650d814610403578063b24f2d39146103fa578063b88d4fde146103f1578063bc197c81146103e8578063bcb7ea08146103df578063c87b56dd146103d6578063d2e4c189146103cd578063d5937dae146103c4578063dabb0531146103bb578063e2cdf0ad146103b2578063e4c301eb146103a9578063e5f69e41146103a0578063e622563014610397578063e8a3d4851461038e578063e985e9c514610385578063f1be42f11461037c578063f23a6e61146103735763fe80c55d1461036b57600080fd5b61000e613767565b5061000e613711565b5061000e6136f2565b5061000e613694565b5061000e6135fe565b5061000e6135df565b5061000e61338a565b5061000e613247565b5061000e613204565b5061000e6130c6565b5061000e61307c565b5061000e612f9c565b5061000e612f68565b5061000e612f48565b5061000e612ebf565b5061000e612ddb565b5061000e612da4565b5061000e612d3e565b5061000e612cac565b5061000e612bf7565b5061000e612a8a565b5061000e6129be565b5061000e612916565b5061000e6128ec565b5061000e61276e565b5061000e612744565b5061000e612727565b5061000e612684565b5061000e61250f565b5061000e6124f0565b5061000e6124c6565b5061000e612429565b5061000e6123cd565b5061000e6123a3565b5061000e61229d565b5061000e612273565b5061000e612243565b5061000e612224565b5061000e6121f3565b5061000e612129565b5061000e61205a565b5061000e611df0565b5061000e611d3e565b5061000e611d14565b5061000e611cf0565b5061000e611cb2565b5061000e611c82565b5061000e611baf565b5061000e611b0f565b5061000e6118b1565b5061000e611827565b5061000e6117fd565b5061000e6110c6565b5061000e6117de565b5061000e611763565b5061000e611730565b5061000e6116fc565b5061000e611635565b5061000e6115fb565b5061000e611594565b5061000e611546565b5061000e61117d565b5061000e6110f6565b5061000e611095565b5061000e611030565b5061000e61100c565b5061000e610f8a565b5061000e610e58565b5061000e610e0e565b5061000e610dc4565b5061000e610d1b565b5061000e610c97565b5061000e610c66565b5061000e610b80565b5061000e610a5a565b5061000e6107d3565b600435906001600160a01b038216820361000e57565b602435906001600160a01b038216820361000e57565b50634e487b7160e01b600052604160045260246000fd5b6001600160401b03811161066c57604052565b610674610642565b604052565b604081019081106001600160401b0382111761066c57604052565b6101c081019081106001600160401b0382111761066c57604052565b606081019081106001600160401b0382111761066c57604052565b602081019081106001600160401b0382111761066c57604052565b90601f801991011681019081106001600160401b0382111761066c57604052565b6040519061071482610694565b565b60405190608082018281106001600160401b0382111761066c57604052565b6040519060e082018281106001600160401b0382111761066c57604052565b6020906001600160401b038111610771575b601f01601f19160190565b610779610642565b610766565b92919261078a82610754565b9161079860405193846106e6565b82948184528183011161000e578281602093846000960137010152565b9080601f8301121561000e578160206107d09335910161077e565b90565b503461000e5760408060031936011261000e576107ee610616565b90602435916001600160401b039081841161000e57610812600494369086016107b5565b9360018060a01b039161082a83600954163314613803565b6108376000968754613902565b845190610843826106cb565b8682528654938116948515610a39576001600160a01b038216600090815260056020526040902061095e91906108b1905b61089761088882546001600160401b031690565b6001016001600160401b031690565b6001600160401b03166001600160401b0319825416179055565b6001600160a01b038316600090815260056020526040902061090c905b80546108e59060401c6001600160401b0316610888565b67ffffffffffffffff60401b82549160401b169067ffffffffffffffff60401b1916179055565b61094383610924886000526004602052604060002090565b80546001600160a01b0319166001600160a01b03909216919091179055565b4216610959866000526004602052604060002090565b613b95565b8394600190818601833b15156000146109ea5782805b610990575b5050505050505083540361098c57825551f35b8280fd5b156109dd575b8888838c600080516020615b0483398151915281809551a46109c36109bf87868c019b886140a7565b1590565b6109cd5783610974565b89516368d2bf6b60e11b81528790fd5b8088106109965780610979565b925094508093508092508651935b610a07575b5050505050825551f35b15610a2c575b868280870196868a600080516020615b048339815191528189a46109f8565b808510610a0d57806109fd565b8651622e076360e81b81528490fd5b6001600160e01b031981160361000e57565b503461000e57602036600319011261000e576020600435610a7a81610a48565b6001600160e01b0319166301ffc9a760e01b81148015610afa575b8015610aea575b8015610ada575b80918115610ab8575b50506040519015158152f35b630271189760e51b1491508115610ad2575b503880610aac565b905038610aca565b5063152a902d60e11b8114610aa3565b50635b5e139f60e01b8114610a9c565b506380ac58cd60e01b8114610a95565b600091031261000e57565b918091926000905b828210610b35575011610b2e575050565b6000910152565b91508060209183015181860152018291610b1d565b90602091610b6381518092818552858086019101610b15565b601f01601f1916010190565b9060206107d0928181520190610b4a565b503461000e57600080600319360112610c63576040519080600254610ba481611ed2565b80855291600191808316908115610c395750600114610bde575b610bda85610bce818703826106e6565b60405191829182610b6f565b0390f35b9250600283527f405787fa12a823e0f2b7631cc41b3ba8828b3321ca811111fa75cd3aa3bb5ace5b828410610c21575050508101602001610bce82610bda610bbe565b80546020858701810191909152909301928101610c06565b869550610bda96935060209250610bce94915060ff191682840152151560051b8201019293610bbe565b80fd5b503461000e57602036600319011261000e576020610c85600435613b3c565b6040516001600160a01b039091168152f35b503461000e57602036600319011261000e57610cb1610616565b6009546001600160a01b03919082163303610ce157166001600160601b0360a01b60165416176016556000604051f35b60405162461bcd60e51b815260206004820152600e60248201526d139bdd08185d5d1a1bdc9a5e995960921b6044820152606490fd5b0390fd5b503461000e57604036600319011261000e57610d35610616565b602435610d418261449e565b6001600160a01b039081610d5482613a96565b51168092841614610db257813303610d72575b610d7092613f9a565b005b60008281526007602090815260408083203384529091529020610d9b906109bf905b5460ff1690565b15610d67576040516367d9dca160e11b8152600490fd5b60405163250fdee360e21b8152600490fd5b503461000e57602036600319011261000e57610dde610616565b6009546001600160a01b03919082163303610ce157166001600160601b0360a01b60155416176015556000604051f35b503461000e57602036600319011261000e57610e28610616565b6009546001600160a01b03919082163303610ce157166001600160601b0360a01b60175416176017556000604051f35b503461000e57602036600319011261000e57610e72610616565b6009546001600160a01b03808216919033839003610ce1576000931680916001600160601b0360a01b1617600955604051917f8292fce18fa69edf4db7b94ea2e58241df0ae57f97e0a6c9b29067028bf92d768484a3f35b50634e487b7160e01b600052603260045260246000fd5b600e90601954811015610f1d575b6019600052027f944998273e477b495144fb8794c914197f3ccb46be2900f4698fd0ef743c96950190600090565b610f25610eca565b610eef565b9b99979593919e9d9c9a98969492909e6101c08d019f8d5260208d015260408c015260608b015260808a015260a089015260c088015260e08701526101008601526101208501526101408401526101608301526101808201526101a00152565b503461000e57602036600319011261000e5760043560195481101561000e57610fb290610ee1565b508054610bda60018301549260028101549060038101546004820154600583015460068401546007850154600886015491600987015493600a88015495600b89015497600d600c8b01549a01549a6040519e8f9e8f610f2a565b503461000e57600036600319011261000e5760206000546001549003604051908152f35b503461000e57602036600319011261000e5760043560005260116020526020600d60406000200154604051908152f35b606090600319011261000e576001600160a01b0390600435828116810361000e5791602435908116810361000e579060443590565b503461000e57610d706110a736611060565b916001600160a01b0381163314613d6f576110c13361449e565b613d6f565b503461000e57602036600319011261000e5760043560005260126020526020600260406000200154604051908152f35b503461000e57602036600319011261000e57600435600c5481101561114857602090600c6000527fdf6966c971051c3d54ec59162606531493a51404a002842f56009d7e5cf4a8c70154604051908152f35b60405162461bcd60e51b815260206004820152600d60248201526c092dcecc2d8d2c840d2dcc8caf609b1b6044820152606490fd5b503461000e5760408060031936011261000e5760049081356024356111a56018548310615172565b6111d16111c16111b484613a96565b516001600160a01b031690565b6001600160a01b031633146151be565b6015546111ee906001600160a01b03165b6001600160a01b031690565b938161131985519663bd85b03960e01b885261123760209889818061121a888a83019190602083019252565b0381865afa908115611539575b60009161151c575b501515615219565b8651627eeac760e11b8152338582019081526020810185905261127b91908a90829081906040010381865afa90811561150f575b6000916114e2575b50151561525d565b878751809263c19a4ef560e01b8252818061129d888a83019190602083019252565b03915afa9081156114d5575b6000916114a8575b506112de836112d68360016112d08b6000526012602052604060002090565b01614957565b5414156152c9565b620f423f6112fc8260016112d08a6000526012602052604060002090565b5403611499575b60016112d0876000526012602052604060002090565b5560155461132f906001600160a01b03166111e2565b94853b1561000e5760a06113b16113e19260008661136c8261143e99819d8a838f51809681958294637921219560e11b845230903390850161530d565b03925af1801561148c575b611473575b50601554611392906001600160a01b03166111e2565b8a51633129e77360e01b81528881019283529485928391829160200190565b03915afa918215611466575b8992611443575b508101516113ea60056113e1896000526011602052604060002090565b01918254614223565b90558681015161140960066113e1896000526011602052604060002090565b9055606081015161142960036113e1896000526011602052604060002090565b90550151936000526011602052604060002090565b905551f35b61145f91923d8091833e61145781836106e6565b810190615387565b90386113c4565b61146e61406a565b6113bd565b8061148061148692610659565b80610b0a565b3861137c565b61149461406a565b611377565b6114a38187615453565b611303565b6114c89150883d8a116114ce575b6114c081836106e6565b8101906152b4565b386112b1565b503d6114b6565b6114dd61406a565b6112a9565b61150291508a3d8c11611508575b6114fa81836106e6565b81019061520a565b38611273565b503d6114f0565b61151761406a565b61126b565b61153391508a3d8c11611508576114fa81836106e6565b3861122f565b61154161406a565b611227565b503461000e57604036600319011261000e5761ffff61271061157761156c6004356145dd565b9093166024356145ca565b604080516001600160a01b03949094168452919004602083015290f35b503461000e57604036600319011261000e57600954600435906001600160a01b03163303610ce1578060005260136020526115df6040600020916115da6024359161504b565b614223565b606481116115f3575b815542600290910155005b5060646115e8565b503461000e57602036600319011261000e5760043560005260116020526020600360406000200154604051908152f35b8015150361000e57565b503461000e57602036600319011261000e576004356116538161162b565b6009546001600160a01b031633036116a35760207f38475885990d8dfe9ca01f0ef160a1b5514426eab9ddbc953a3353410ba7809691151560ff19600e541660ff821617600e55604051908152a1005b60405162461bcd60e51b815260206004820152602b60248201527f4e6f7420617574686f72697a656420746f20736574206f70657261746f72207260448201526a32b9ba3934b1ba34b7b71760a91b6064820152608490fd5b503461000e57602036600319011261000e576004356000908152601360209081526040909120601190915242600390910155005b503461000e57602036600319011261000e5760043560005260136020526040600020606481556002429101556000604051f35b503461000e57602036600319011261000e57600435600052601160205260406000208054610bda60018301549260028101549060038101546004820154600583015460068401546007850154600886015491600987015493600a88015495600b89015497600d600c8b01549a01549a6040519e8f9e8f610f2a565b503461000e57600036600319011261000e576020600054604051908152f35b503461000e57600036600319011261000e5760206040516daaeb6d7670e522a718067333cd4e8152f35b503461000e5761183636611060565b6001600160a01b03831633141591826118a3575b60405192611857846106cb565b60008452611895575b61186b828286613d6f565b803b61187357005b61187c93614150565b1561188357005b6040516368d2bf6b60e11b8152600490fd5b61189e3361449e565b611860565b6118ac3361449e565b61184a565b503461000e57602036600319011261000e576004356118cf81613a96565b805190916001600160a01b039182169182903382148015611acf575b8015611abb575b15611aa9576000946119048385613f4a565b6001600160a01b03831660009081526005602052604090206119a39061196461194761193783546001600160401b031690565b600019016001600160401b031690565b825467ffffffffffffffff19166001600160401b03909116178255565b805461197b9060801c6001600160401b0316610888565b815467ffffffffffffffff60801b191660809190911b67ffffffffffffffff60801b16179055565b6119f96119ba856000526004602052604060002090565b80546001600160a01b0319166001600160a01b0386161781556119e66001600160401b03421682613b95565b805460ff60e01b1916600160e01b179055565b60018401611a11816000526004602052604060002090565b80549093166001600160a01b031615611a56575b505050508260405192600080516020615b048339815191528285a4611a54611a4f60015460010190565b600155565bf35b865403611a64575b80611a25565b81546001600160a01b0319166001600160a01b03909316929092178155611aa191611a9b906020905b01516001600160401b031690565b90613b95565b388080611a5e565b604051632ce44b5f60e11b8152600490fd5b5033611ac96111e285613b3c565b146118f2565b50611b0a610d9433611af38560018060a01b03166000526007602052604060002090565b9060018060a01b0316600052602052604060002090565b6118eb565b503461000e57604036600319011261000e576020611b2b610616565b602435906001600160a01b0380611b4184613a96565b51169281831692848414948515611b7f575b50508315611b69575b5050506040519015158152f35b611b7591929350613b3c565b1614388080611b5c565b60009081526007875260408082206001600160a01b03939093168252602092909252205460ff1693503880611b53565b503461000e57604036600319011261000e57600435602435611bdc60018060a01b03601754163314614f7f565b611be5826150e4565b90808210611c4b5782600492611c0f611c3c93610d70966000526013602052604060002092614775565b84611c24846000526011602052604060002090565b01556003429101556000526011602052604060002090565b0154611c46615148565b615aa0565b60405162461bcd60e51b815260206004820152600f60248201526e4e6f7420656e6f756768206d616e6160881b6044820152606490fd5b503461000e57602036600319011261000e5760043560005260116020526020600660406000200154604051908152f35b503461000e57602036600319011261000e57611ccf6004356145dd565b604080516001600160a01b0393909316835261ffff91909116602083015290f35b503461000e57600036600319011261000e57602060ff600e54166040519015158152f35b503461000e57600036600319011261000e576015546040516001600160a01b039091168152602090f35b503461000e5760408060031936011261000e5760095460043591906001600160a01b03163303611dbc5760009180835260136020528183209060116020526004838520015490611d936024356115da836150e4565b91808311611db4575b50845260116020526004838520015560034291015551f35b915038611d9c565b5162461bcd60e51b815260206004820152600e60248201526d139bdd08185d5d1a1bdc9a5e995960921b6044820152606490fd5b503461000e57604036600319011261000e57602435611e10600435614985565b6014546001600160a01b031690813b1561000e57600080610d709360446040518094819363bfa0fedb60e01b83528760048401523360248401525af18015611e7c575b611e69575b50611e64601854614758565b6156ee565b80611480611e7692610659565b38611e58565b611e8461406a565b611e53565b600390601a54811015611ec5575b601a600052027f057c384a7d1c54f3a1b2e5e67b2617b8224fdfd1ea7234eea573a6ff665ff63e0190600090565b611ecd610eca565b611e97565b90600182811c92168015611f02575b6020831014611eec57565b634e487b7160e01b600052602260045260246000fd5b91607f1691611ee1565b6040519060008260085491611f2083611ed2565b80835292600190818116908115611f945750600114611f47575b50610714925003836106e6565b600860009081529150600080516020615ae48339815191525b848310611f795750610714935050810160200138611f3a565b81935090816020925483858a01015201910190918592611f60565b90506020925061071494915060ff191682840152151560051b82010138611f3a565b9060405191826000825492611fca84611ed2565b9081845260019485811690816000146120375750600114611ff4575b5050610714925003836106e6565b9093915060005260209081600020936000915b81831061201f57505061071493508201013880611fe6565b85548884018501529485019487945091830191612007565b91505061071494506020925060ff191682840152151560051b8201013880611fe6565b503461000e57602036600319011261000e57600435601a5481101561000e57600390601a60005202807f057c384a7d1c54f3a1b2e5e67b2617b8224fdfd1ea7234eea573a6ff665ff63e0154610bda6120ff7f057c384a7d1c54f3a1b2e5e67b2617b8224fdfd1ea7234eea573a6ff665ff6406120f87f057c384a7d1c54f3a1b2e5e67b2617b8224fdfd1ea7234eea573a6ff665ff63f8601611fb6565b9401611fb6565b61211b6040519485948552606060208601526060850190610b4a565b908382036040850152610b4a565b503461000e57604036600319011261000e57612143610616565b600954602435916001600160a01b039182163303610ce15761271083116121bc57600a80546001600160b01b0319169190921690811760a084901b61ffff60a01b1617909155604051918252907f90d7ec04bcb8978719414f82e52e4cb651db41d0e6f8cea6118c2191e6183adb9080602081010390a2005b60405162461bcd60e51b815260206004820152600f60248201526e45786365656473206d61782062707360881b6044820152606490fd5b503461000e57602036600319011261000e5760206001600160a01b0361221a600435613a96565b5116604051908152f35b503461000e57600036600319011261000e576020600c54604051908152f35b503461000e57602036600319011261000e5760043560005260116020526020600560406000200154604051908152f35b503461000e57600036600319011261000e576017546040516001600160a01b039091168152602090f35b503461000e57604036600319011261000e576004356122c760018060a01b03601754163314614f7f565b806000526011602052604060002060016122f3600283016122eb6024358254614223565b809155614fd5565b910154106122fd57005b6000526011602052604060002060018101805461231d6002840154614fd5565b8181111561234d5761233a600c928261233f936123499655614775565b61456a565b9201918254614223565b9055005b60405162461bcd60e51b815260206004820152602860248201527f4e6f7420656e6f75676820657870657269656e636520706f696e747320746f2060448201526706c6576656c2075760c41b6064820152608490fd5b503461000e57600036600319011261000e576014546040516001600160a01b039091168152602090f35b503461000e57602036600319011261000e576001600160a01b036123ef610616565b16801561241757600052600560205260206001600160401b0360406000205416604051908152f35b6040516323d3ad8160e21b8152600490fd5b503461000e57604036600319011261000e5760043560243561245660018060a01b03601754163314614f7f565b61245f8261504b565b9080821061248c57610d709260005260136020526040600020910390818155600242910155611c466150b7565b60405162461bcd60e51b81526020600482015260126024820152714e6f7420656e6f756768207374616d696e6160701b6044820152606490fd5b503461000e57602036600319011261000e5760206124e86004356010546145ca565b604051908152f35b503461000e57602036600319011261000e5760206124e86004356150e4565b503461000e57608036600319011261000e57612529610616565b602435906001600160401b039060443582811161000e5761254e9036906004016107b5565b9260643583811161000e576125679036906004016107b5565b9161257d60018060a01b03600954163314613803565b60009361258b838654614223565b612594816142fe565b8552602090600d825260408620918751918211612677575b6125c0826125ba8554611ed2565b856138ae565b80601f83116001146126045750819087986125f498926125f9575b50508160011b916000199060031b1c1916179055613bc0565b604051f35b0151905038806125db565b9197601f19891661261a85600052602060002090565b9389905b82821061265f57505091600193918a6125f49a9b9410612646575b505050811b019055613bc0565b015160001960f88460031b161c19169055388080612639565b8060018697829497870151815501960194019061261e565b61267f610642565b6125ac565b503461000e5760208060031936011261000e576000906004358252601281526040822060405192838383549182815201908193835284832090835b81811061271357505050846126d59103856106e6565b60405193838594850191818652518092526040850193925b8281106126fc57505050500390f35b8351855286955093810193928101926001016126ed565b8254845292860192600192830192016126bf565b503461000e57602036600319011261000e57610d70600435614985565b503461000e57600036600319011261000e576009546040516001600160a01b039091168152602090f35b503461000e5760208060031936011261000e576001600160401b039060043582811161000e576127a29036906004016107b5565b6009549091906001600160a01b03163303610ce1576127bf611f0c565b9082519384116128df575b6127de846127d9600854611ed2565b61384f565b80601f851160011461284b575092807fc9c7c3fe08b88b4df9d4d47ef47d2c43d55c025a0ba88ca442580ed9e7348a1694600091612840575b508160011b916000199060031b1c1916176008555b61283b60405192839283614392565b0390a1005b905083015138612817565b600860005290601f198516600080516020615ae4833981519152926000905b8282106128c75750509185917fc9c7c3fe08b88b4df9d4d47ef47d2c43d55c025a0ba88ca442580ed9e7348a1696600194106128ae575b5050811b0160085561282c565b85015160001960f88460031b161c1916905538806128a1565b80600185968294968a0151815501950193019061286a565b6128e7610642565b6127ca565b503461000e57600036600319011261000e576016546040516001600160a01b039091168152602090f35b503461000e57600080600319360112610c6357604051908060035461293a81611ed2565b80855291600191808316908115610c39575060011461296357610bda85610bce818703826106e6565b9250600383527fc2575a0e9e593c00f959f8c92f12db2869c3395a3b0502d05e2516446f71f85b5b8284106129a6575050508101602001610bce82610bda610bbe565b8054602085870181019190915290930192810161298b565b503461000e57606036600319011261000e576004356129db61062c565b6009546001600160a01b0392916044359184163303610ce15761271082116121bc577f7365cf4122f072a3365c20d54eff9b38d73c096c28e1892ec8f5b0e403a0f12d91612a859160018660405192612a3384610679565b1696878352612a71602084019185835288600052600b6020526040600020945116849060018060a01b03166001600160601b0360a01b825416179055565b519101556040519081529081906020820190565b0390a3005b503461000e5760a036600319011261000e57608435606435600435602435604435612ab483613a96565b516001600160a01b0316612ad2906001600160a01b03163314614eb0565b612ae6836000526011602052604060002090565b928585612af38486614223565b90612afd91614223565b90612b0791614223565b94600c8501968754871115612b1b90614f0d565b6007860185815490612b2c91614223565b90556008860184815490612b3f91614223565b90556009860182815490612b5291614223565b9055600a860181815490612b6591614223565b9055612b70906145a8565b6003860190815490612b8191614223565b9055612b8c906145a8565b90612ba1906000526013602052604060002090565b60010190815490612bb191614223565b9055612bbc906145a8565b600b830190815490612bcd91614223565b9055612bd8906145a8565b9060050190815490612be991614223565b905581549061234991614775565b503461000e57604036600319011261000e57612c11610616565b602435612c1d8161162b565b612c268261449e565b6001600160a01b03821691338314612c9a573360009081526007602090815260408083206001600160a01b039094168352929052209015159060ff1981541660ff83161790556040519081527f17307eab39ab6107e8899845ad3d59bd9653f200f220920489ca2b5937696c3160203392a3005b60405163b06307db60e01b8152600490fd5b503461000e57602036600319011261000e5760043560005260116020526020600160406000200154604051908152f35b602080820190808352835180925260408301928160408460051b8301019501936000915b848310612d105750505050505090565b9091929394958480612d2e600193603f198682030187528a51610b4a565b9801930193019194939290612d00565b503461000e57602036600319011261000e576001600160401b0360043581811161000e573660238201121561000e57806004013591821161000e573660248360051b8301011161000e57610bda916024612d9892016143c7565b60405191829182612cdc565b503461000e57600036600319011261000e57600a54604080516001600160a01b038316815260a09290921c61ffff16602083015290f35b503461000e57608036600319011261000e57612df5610616565b612dfd61062c565b6044356064356001600160401b03811161000e57612e1f9036906004016107b5565b91336001600160a01b038516036118955761186b828286613d6f565b6020906001600160401b038111612e54575b60051b0190565b612e5c610642565b612e4d565b81601f8201121561000e57803591612e7883612e3b565b92612e8660405194856106e6565b808452602092838086019260051b82010192831161000e578301905b828210612eb0575050505090565b81358152908301908301612ea2565b503461000e5760a036600319011261000e57612ed9610616565b50612ee261062c565b506001600160401b0360443581811161000e57612f03903690600401612e61565b5060643581811161000e57612f1c903690600401612e61565b5060843590811161000e57612f359036906004016107b5565b5060405163bc197c8160e01b8152602090f35b503461000e57604036600319011261000e57610d706024356004356156ee565b503461000e57602036600319011261000e57610bda612f88600435613790565b604051918291602083526020830190610b4a565b503461000e57602036600319011261000e576002612fff600435612fc56111c16111b483613a96565b82612fda826000526012602052604060002090565b015490612fe88215156159e2565b600093849384926000526012602052604060002090565b0155601654613016906001600160a01b03166111e2565b90813b1561307857829161304291604051948580948193637921219560e11b835233306004850161530d565b03925af1801561306b575b613058575b50604051f35b8061148061306592610659565b38613052565b61307361406a565b61304d565b5050fd5b503461000e57602036600319011261000e57613096610616565b6009546001600160a01b03919082163303610ce157166001600160601b0360a01b60145416176014556000604051f35b503461000e57602036600319011261000e576040516130e481610694565b6101a06000918281528260208201528260408201528260608201528260808201528260a08201528260c08201528260e082015282610100820152826101208201528261014082015282610160820152826101808201520152610bda61315d6131586004356000526011602052604060002090565b614874565b604051918291829190916101c0810192805182526020810151602083015260408101516040830152606081015160608301526080810151608083015260a081015160a083015260c081015160c083015260e081015160e0830152610100808201519083015261012080820151908301526101408082015190830152610160808201519083015261018080820151908301526101a080910151910152565b6005111561000e57565b503461000e57604036600319011261000e57602061323e602435613227816131fa565b600435600052601283526001604060002001614957565b54604051908152f35b503461000e57604036600319011261000e576024356132816004356132716111c16111b483613a96565b6000526012602052604060002090565b80548060005b81811061335f575b5061329b908210615894565b6014546132b0906001600160a01b03166111e2565b90813b1561000e576000806132e461333a94610d7097604051948580948193637921219560e11b835233306004850161530d565b03925af18015613352575b61333f575b5061331f61331861330e6133088654614758565b86614179565b90549060031b1c90565b9184614179565b90919082549060031b600019811b9283911b16911916179055565b6158d2565b8061148061334c92610659565b386132f4565b61335a61406a565b6132ef565b8461336d61330e8387614179565b146133805761337b906143b7565b613287565b915061329b61328f565b503461000e5760408060031936011261000e576004359060243580926133b36018548210615172565b6133c26111c16111b483613a96565b6016546133d7906001600160a01b03166111e2565b835163bd85b03960e01b81526004810184905261344e90602090613415908281602481885afa9081156135d2575b6000916135b5575b501515615912565b8551627eeac760e11b8152336004820152602481018690528181604481875afa9182156135a8575b60009261358b575b50501515615951565b613471836002613468856000526012602052604060002090565b0154141561599d565b6002613487836000526012602052604060002090565b0154908161351d575b50506134a86002916000526012602052604060002090565b01556016546134bf906001600160a01b03166111e2565b91823b1561000e5760006134ed819482938551948580948193637921219560e11b835230336004850161530d565b03925af18015613510575b613500575051f35b8061148061350d92610659565b51f35b61351861406a565b6134f8565b80919293503b1561000e5784926000806135546134a8946002968951948580948193637921219560e11b835233306004850161530d565b03925af1801561357e575b61356b575b5091613490565b8061148061357892610659565b38613564565b61358661406a565b61355f565b6135a19250803d10611508576114fa81836106e6565b3880613445565b6135b061406a565b61343d565b6135cc9150833d8511611508576114fa81836106e6565b3861340d565b6135da61406a565b613405565b503461000e57602036600319011261000e5760206124e860043561504b565b503461000e57600080600319360112610c6357604051908060085461362281611ed2565b80855291600191808316908115610c39575060011461364b57610bda85610bce818703826106e6565b925060088352600080516020615ae48339815191525b82841061367c575050508101602001610bce82610bda610bbe565b80546020858701810191909152909301928101613661565b503461000e57604036600319011261000e57602060ff6136e66136b5610616565b6136bd61062c565b6001600160a01b0391821660009081526007865260408082209290931681526020919091522090565b54166040519015158152f35b503461000e57600036600319011261000e576020601854604051908152f35b503461000e5760a036600319011261000e5761372b610616565b5061373461062c565b506084356001600160401b03811161000e576137549036906004016107b5565b5060405163f23a6e6160e01b8152602090f35b503461000e57604036600319011261000e57610d70602435613788816131fa565b600435615453565b806000526020600f81526137a76040600020611fb6565b80516137fd57506107d0906137c46137be8461425d565b936147ab565b9260405193816137dd8693518092868087019101610b15565b82016137f182518093868085019101610b15565b010380845201826106e6565b91505090565b1561380a57565b60405162461bcd60e51b815260206004820152601760248201527f4e6f7420617574686f72697a656420746f206d696e742e0000000000000000006044820152606490fd5b601f811161385b575050565b60009060088252600080516020615ae4833981519152906020601f850160051c830194106138a4575b601f0160051c01915b82811061389957505050565b81815560010161388d565b9092508290613884565b90601f81116138bc57505050565b600091825260208220906020601f850160051c830194106138f8575b601f0160051c01915b8281106138ed57505050565b8181556001016138e1565b90925082906138d8565b9190600090838252602093600f855261391e6040842054611ed2565b613a03578252600f845260408220918151916001600160401b0383116139f6575b6139538361394d8654611ed2565b866138ae565b8591601f841160011461398c57839495965092613981575b50508160011b916000199060031b1c1916179055565b01519050388061396b565b9190601f198416966139a386600052602060002090565b93905b8882106139de575050836001959697106139c5575b505050811b019055565b015160001960f88460031b161c191690553880806139bb565b806001859682949686015181550195019301906139a6565b6139fe610642565b61393f565b60405162461bcd60e51b815260048101869052600f60248201526e15549248185b1c9958591e481cd95d608a1b6044820152606490fd5b60405190613a47826106b0565b60006040838281528260208201520152565b90604051613a66816106b0565b91546001600160a01b038116835260a081901c6001600160401b0316602084015260e01c60ff1615156040830152565b613a9e613a3a565b50806000548110613abc575b604051636f96cda160e11b8152600490fd5b613ad3613ad8916000526004602052604060002090565b613a59565b613ae86109bf6040830151151590565b15613aaa5780516001600160a01b0316613b3757505b60001901613b19613ad3826000526004602052604060002090565b8051613b2d906001600160a01b03166111e2565b613b375750613afe565b905090565b600054811080613b79575b15613b67576000908152600660205260409020546001600160a01b031690565b6040516333d1c03960e21b8152600490fd5b5080600052600460205260ff60406000205460e01c1615613b47565b805467ffffffffffffffff60a01b191660a09290921b67ffffffffffffffff60a01b16919091179055565b6000805492939092916001600160a01b0381168015613d5e578515613d4c57613c7b6001600160401b03613c63818916613c31613c0f8760018060a01b03166000526005602052604060002090565b61089783613c2483546001600160401b031690565b016001600160401b031690565b6001600160a01b03861660009081526005602052604090206108e59091613c2483546001600160401b039060401c1690565b61094384610924886000526004602052604060002090565b8395840190823b1515600014613cfe5760019182805b613ca6575b505050505050815403610c635755565b15613cf1575b86604089848a600080516020615b04833981519152818551a4613cd66109bf88878d019c896140a7565b613ce1575083613c91565b516368d2bf6b60e11b8152600490fd5b808810613cac5780613c96565b93509150506001809181604051935b613d1a575b505050505055565b15613d3f575b8482808801978688600080516020615b048339815191528189a4613d0d565b808610613d205780613d12565b60405163b562e8dd60e01b8152600490fd5b604051622e076360e81b8152600490fd5b613d7883613a96565b80516001600160a01b038084169392918116849003613f39578333148015613f10575b8015613efc575b15611aa9578416938415613eea57613e5590613dbe8488613f4a565b6001600160a01b0384166000908152600560205260409020613dee9061089761193782546001600160401b031690565b6001600160a01b0381166000908152600560205260409020613e0f90610874565b613e45613e26886000526004602052604060002090565b80546001600160a01b0319166001600160a01b03909316929092178255565b6001600160401b03421690613b95565b6001850190613e6e826000526004602052604060002090565b8054909290613e85906001600160a01b03166111e2565b15613ea6575b50505050600080516020615b048339815191526000604051a4565b60005403613eb5575b80613e8b565b81546001600160a01b0319166001600160a01b03909316929092178155613ee291611a9b90602090611a8d565b388080613eaf565b604051633a954ecd60e21b8152600490fd5b5033613f0a6111e288613b3c565b14613da2565b50613f34610d9433611af38660018060a01b03166000526007602052604060002090565b613d9b565b60405162a1148160e81b8152600490fd5b906000908282526006602052604082206001600160601b0360a01b815416905560018060a01b03167f8c5be1e5ebec7d5bd14f71427d1e84f3dd0314c0f7b2291e5b200ac8c7c3b92582604051a4565b600082815260066020526040902080546001600160a01b0319166001600160a01b03831617905590919060018060a01b0380911691167f8c5be1e5ebec7d5bd14f71427d1e84f3dd0314c0f7b2291e5b200ac8c7c3b9256000604051a4565b9081602091031261000e57516107d081610a48565b6107d0939260809260018060a01b031682526000602083015260408201528160608201520190610b4a565b6001600160a01b0391821681529116602082015260408101919091526080606082018190526107d092910190610b4a565b506040513d6000823e3d90fd5b3d156140a2573d9061408882610754565b9161409660405193846106e6565b82523d6000602084013e565b606090565b6140d060209160009394604051948580948193630a85bd0160e11b998a8452336004850161400e565b03926001600160a01b03165af160009181614120575b50614112576140f3614077565b8051908161410d576040516368d2bf6b60e11b8152600490fd5b602001fd5b6001600160e01b0319161490565b61414291925060203d8111614149575b61413a81836106e6565b810190613ff9565b90386140e6565b503d614130565b926020916140d0936000604051809681958294630a85bd0160e11b9a8b85523360048601614039565b8054821015614192575b60005260206000200190600090565b61419a610eca565b614183565b60405190600c548083528260209182820190600c6000527fdf6966c971051c3d54ec59162606531493a51404a002842f56009d7e5cf4a8c7936000905b8282106141f257505050610714925003836106e6565b8554845260019586019588955093810193909101906141dc565b50634e487b7160e01b600052601160045260246000fd5b8119811161422f570190565b61423761420c565b0190565b6020918151811015614250575b60051b010190565b614258610eca565b614248565b600c549061426961419f565b600091825b8481106142ac5760405162461bcd60e51b815260206004820152600f60248201526e125b9d985b1a59081d1bdad95b9259608a1b6044820152606490fd5b6142b6818461423b565b5182106142dd5760019060011981116142d0575b0161426e565b6142d861420c565b6142ca565b6107d094506142f091506040939261423b565b518152600d60205220611fb6565b600c54600160401b811015614355575b6001810180600c55811015614348575b600c6000527fdf6966c971051c3d54ec59162606531493a51404a002842f56009d7e5cf4a8c70155565b614350610eca565b61431e565b61435d610642565b61430e565b9061331f61071492805490600160401b821015614385575b600182018155614179565b61438d610642565b61437a565b90916143a96107d093604084526040840190610b4a565b916020818403910152610b4a565b600190600019811461422f570190565b906143d181612e3b565b916143df60405193846106e6565b818352601f196143ee83612e3b565b0160005b81811061447857505060005b82811061440b5750505090565b8060051b820135601e198336030181121561000e578201908135916001600160401b03831161000e57602001823603811361000e576144526144589161447394369161077e565b30614656565b614462828761423b565b5261446d818661423b565b506143b7565b6143fe565b8060606020809388010152016143f2565b9081602091031261000e57516107d08161162b565b600e5460ff166144ab5750565b6daaeb6d7670e522a718067333cd4e803b6144c4575050565b604051633185c44d60e21b81523060048201526001600160a01b038316602482015290602090829060449082905afa90811561455d575b60009161452f575b501561450c5750565b604051633b79c77360e21b81526001600160a01b03919091166004820152602490fd5b614550915060203d8111614556575b61454881836106e6565b810190614489565b38614503565b503d61453e565b61456561406a565b6144fb565b7f3333333333333333333333333333333333333333333333333333333333333333811160011661459b575b60050290565b6145a361420c565b614595565b60059080600019048211811515166145be570290565b6145c661420c565b0290565b80600019048211811515166145be570290565b600052600b602052604060002090602060405192604084018481106001600160401b03821117614649575b60405280546001600160a01b03908116808652600190920154929094018290528061464057505061ffff600a549283169260a01c1690565b925061ffff1690565b614651610642565b614608565b9060405190614664826106b0565b602782527f416464726573733a206c6f772d6c6576656c2064656c65676174652063616c6c6020830152660819985a5b195960ca1b6040830152823b156146c4576000816107d09460208394519201905af46146be614077565b90614718565b60405162461bcd60e51b815260206004820152602660248201527f416464726573733a2064656c65676174652063616c6c20746f206e6f6e2d636f6044820152651b9d1c9858dd60d21b6064820152608490fd5b90919015614724575090565b8151156147345750805190602001fd5b60405162461bcd60e51b815260206004820152908190610d17906024830190610b4a565b60018110614768575b6000190190565b61477061420c565b614761565b818110614780570390565b61478861420c565b0390565b90602091805182101561479e57010190565b6147a6610eca565b010190565b801561485657806000908282935b61484257506147c783610754565b926147d560405194856106e6565b80845281601f196147e583610754565b013660208701375b6147f75750505090565b61480090614758565b90600a90603082820680198211614835575b0160f81b6001600160f81b031916841a61482c848761478c565b530490816147ed565b61483d61420c565b614812565b9261484e600a916143b7565b9304806147b9565b5060405161486381610679565b60018152600360fc1b602082015290565b90600d61487f610707565b928054845260018101546020850152600281015460408501526003810154606085015260048101546080850152600581015460a0850152600681015460c0850152600781015460e085015260088101546101008501526009810154610120850152600a810154610140850152600b810154610160850152600c81015461018085015201546101a0830152565b1561491257565b60405162461bcd60e51b815260206004820152601960248201527f496e76616c6964206368617261637465722074797065204944000000000000006044820152606490fd5b90600581101561496f57600052602052604060002090565b634e487b7160e01b600052602160045260246000fd5b601a5481106149939061490b565b61499c33614d32565b6149a581611e89565b506002016149b290611fb6565b6149bb90615a64565b601880546149c881615a22565b6149d183611e89565b506002016149de90611fb6565b6149e791613902565b80546149f283610ee1565b509060018092015490614a0485610ee1565b506002015485614a1381610ee1565b5060030154614a2182610ee1565b5060040154614a2f83610ee1565b5060050154614a3d84610ee1565b5060060154614a4b85610ee1565b506007015490614a5a86610ee1565b506008015492614a6987610ee1565b506009015494614a7888610ee1565b50600a015496614a8789610ee1565b50600b015498614a9690610ee1565b50600c015499614aa4610707565b9c8d8d81526020015260408d015260608c015260808b015260a08a015260c089015260e0880152610100870152610120860152610140850152610160840152610180830152846101a0830152614b04906000526011602052604060002090565b815181556020820151600182015560408201516002820155606082015160038201556080820151600482015560a0820151600582015560c0820151600682015560e0820151600782015561010082015160088201556101208201516009820155610140820151600a820155610160820151600b820155610180820151600c8201556101a090910151600d90910155808254614ba9906000526012602052604060002090565b01614bbd9060008052602052604060002090565b620f423f9055808254614bda906000526012602052604060002090565b01614bef906001600052602052604060002090565b620f423f9055808254614c0c906000526012602052604060002090565b01614c21906002600052602052604060002090565b620f423f9055808254614c3e906000526012602052604060002090565b01614c53906003600052602052604060002090565b620f423f90558154614c6f906000526012602052604060002090565b01614c84906004600052602052604060002090565b620f423f9055614c9382610ee1565b5060040154614ca0610716565b906064825260208201524260408201524260608201528154614ccc906000526013602052604060002090565b8151815560208201516001820155604082015160028201556060909101516003909101558054614cfb906143b7565b60185554614d0890614758565b60405160007f1d70055ce2e34b710424c8ce5a6e724570ab0ff0cdffb52107ba6f70821d21b991a3565b60408051614d3f816106cb565b60009182825282549160018060a01b038516948515614ea0576001600160a01b0381166000908152600560205260409020614d7990610874565b6001600160a01b0381166000908152600560205260409020614d9a906108ce565b614db281610924866000526004602052604060002090565b614dd36001600160401b034216610959866000526004602052604060002090565b8395600190818601833b1515600014614e555782805b614dff575b50505050505050815403610c635755565b15614e48575b8789838a600080516020615b04833981519152818b51a4614e2d6109bf87868d019c886140a7565b614e375783614de9565b86516368d2bf6b60e11b8152600490fd5b808910614e055780614dee565b9250945092838093509051935b614e6e57505050505055565b15614e93575b8482808801978688600080516020615b048339815191528189a4614e62565b808610614e745780613d12565b8251622e076360e81b8152600490fd5b15614eb757565b60405162461bcd60e51b815260206004820152602860248201527f43616c6c6572206973206e6f7420746865206f776e6572206f662074686520636044820152673430b930b1ba32b960c11b6064820152608490fd5b15614f1457565b60405162461bcd60e51b815260206004820152603c60248201527f5374617420706f696e747320746f207370656e642073686f756c64206e6f742060448201527f65786365656420617661696c61626c65207374617420706f696e7473000000006064820152608490fd5b15614f8657565b60405162461bcd60e51b815260206004820152602160248201527f43616c6c6572206973206e6f742074686520426174746c6520636f6e747261636044820152601d60fa1b6064820152608490fd5b6001908180601054905b614fea575b50505090565b614ff88482959394956145ca565b84106150435782809461500b84846145ca565b90818110615036575b03926001198111615029575b01939192614fdf565b61503161420c565b615020565b61503e61420c565b615014565b819350614fe4565b600052601360205261508c604060002062015180606460028301548042106150aa575b4281810391141560001982900483111661509d575b02049054614223565b606481116150975790565b50606490565b6150a561420c565b615083565b6150b261420c565b61506e565b604051906150c482610679565b6011825270039ba30b6b4b7309031b7b739bab6b2b21607d1b6020830152565b80600052601360205261512f604060002091610708615117600160038601549586421061513b575b0154809542036145ca565b04906000526011602052600460406000200154614223565b90808211613b37575090565b61514361420c565b61510c565b6040519061515582610679565b600e82526d036b0b7309031b7b739bab6b2b2160951b6020830152565b1561517957565b60405162461bcd60e51b815260206004820152601a60248201527f496e76616c69642063686172616374657220746f6b656e2049440000000000006044820152606490fd5b156151c557565b60405162461bcd60e51b815260206004820152601e60248201527f4e6f7420746865206f776e6572206f66207468652063686172616374657200006044820152606490fd5b9081602091031261000e575190565b1561522057565b60405162461bcd60e51b8152602060048201526015602482015274125b9d985b1a59081a5d195b481d1bdad95b881251605a1b6044820152606490fd5b1561526457565b60405162461bcd60e51b815260206004820152601960248201527f4e6f7420746865206f776e6572206f6620746865206974656d000000000000006044820152606490fd5b5190610714826131fa565b9081602091031261000e57516107d0816131fa565b156152d057565b60405162461bcd60e51b8152602060048201526015602482015274125d195b48185b1c9958591e48195c5d5a5c1c1959605a1b6044820152606490fd5b6001600160a01b0391821681529116602082015260408101919091526001606082015260a06080820181905260009082015260c00190565b81601f8201121561000e57805161535b81610754565b9261536960405194856106e6565b8184526020828401011161000e576107d09160208085019101610b15565b60208183031261000e5780516001600160401b039182821161000e57019160e08382031261000e576153b7610735565b92805192831161000e576153d260c09261540c948301615345565b84526020810151602085015260408101516040850152606081015160608501526080810151608085015260a081015160a0850152016152a9565b60c082015290565b1561541b57565b60405162461bcd60e51b815260206004820152601060248201526f139bc81a5d195b48195c5d5a5c1c195960821b6044820152606490fd5b61558a6155826154d89361546c6111c16111b486613a96565b60016112d061548a83836112d0896000526012602052604060002090565b549561549b620f423f881415615414565b60155460a0906154b3906001600160a01b03166111e2565b886040518092633129e77360e01b8252818060009e8f95600483019190602083019252565b03915afa908115615611575b8a916155f7575b506020810151615513600561550a866000526011602052604060002090565b01918254614775565b90556040810151615533600661550a866000526011602052604060002090565b90556060810151615553600361550a866000526011602052604060002090565b90550151615570600461550a846000526011602052604060002090565b90556000526012602052604060002090565b620f423f9055565b60155461559f906001600160a01b03166111e2565b90813b1561098c5782916155cb91604051948580948193637921219560e11b835233306004850161530d565b03925af180156155ea575b6155dd5750565b8061148061071492610659565b6155f261406a565b6155d6565b61560b91503d808c833e61145781836106e6565b386154eb565b61561961406a565b6154e4565b1561562557565b60405162461bcd60e51b815260206004820152601060248201526f125b9d985b1a59081cdada5b1b08125160821b6044820152606490fd5b1561566457565b60405162461bcd60e51b815260206004820152601a60248201527f4e6f7420746865206f776e6572206f662074686520736b696c6c0000000000006044820152606490fd5b156156b057565b60405162461bcd60e51b815260206004820152601660248201527514dada5b1b08185b1c9958591e48195c5d5a5c1c195960521b6044820152606490fd5b906156fc6018548310615172565b61570b6111c16111b484613a96565b6014546157a790615724906001600160a01b03166111e2565b9261327160405163bd85b03960e01b815261576d6020918281806157508a600483019190602083019252565b03818b5afa908115615887575b60009161586a575b50151561561e565b604051627eeac760e11b81523360048201526024810186905281816044818a5afa91821561585d575b600092615840575b5050151561565d565b805460005b81811061581a575050823b1561000e57604051637921219560e11b81526107149360009082908183816157e48930336004850161530d565b03925af1801561580d575b6157fa575b50614362565b8061148061580792610659565b386157f4565b61581561406a565b6157ef565b806158368561582f61330e61583b9588614179565b14156156a9565b6143b7565b6157ac565b6158569250803d10611508576114fa81836106e6565b388061579e565b61586561406a565b615796565b6158819150833d8511611508576114fa81836106e6565b38615765565b61588f61406a565b61575d565b1561589b57565b60405162461bcd60e51b815260206004820152600f60248201526e14dada5b1b081b9bdd08199bdd5b99608a1b6044820152606490fd5b80549081156158fc57600019918201916158ec8383614179565b909182549160031b1b1916905555565b634e487b7160e01b600052603160045260246000fd5b1561591957565b60405162461bcd60e51b815260206004820152601060248201526f125b9d985b1a590818db185cdcc8125160821b6044820152606490fd5b1561595857565b60405162461bcd60e51b815260206004820152601a60248201527f4e6f7420746865206f776e6572206f662074686520636c6173730000000000006044820152606490fd5b156159a457565b60405162461bcd60e51b815260206004820152601660248201527510db185cdcc8185b1c9958591e48195c5d5a5c1c195960521b6044820152606490fd5b156159e957565b60405162461bcd60e51b8152602060048201526011602482015270139bc818db185cdcc8195c5d5a5c1c1959607a1b6044820152606490fd5b610714906040519063f82c50f160e01b6020830152602482015260248152615a49816106b0565b600080916020815191016a636f6e736f6c652e6c6f675afa50565b615a92615a496107149260405192839163104c13eb60e21b6020840152602060248401526044830190610b4a565b03601f1981018352826106e6565b615a49615acf9161071493604051938492632d839cb360e21b6020850152604060248501526064840190610b4a565b90604483015203601f1981018352826106e656fef3f7a9fe364faab93b216da50a3214154f22a0a2b415b23a84c8169e8b636ee3ddf252ad1be2c89b69c2b068fc378daa952ba7f163c4a11628f55a4df523b3efa2646970667358221220900ad129620d94b5746f3a0efeee006364a1efc3b1348372a5b37bef506257bf64736f6c634300080f0033",
  "linkReferences": {},
  "deployedLinkReferences": {}
}