{
  "_format": "hh-sol-artifact-1",
  "contractName": "Character",
  "sourceName": "contracts/Character.sol",
  "abi": [
    {
      "inputs": [],
      "stateMutability": "nonpayable",
      "type": "constructor"
    },
    {
      "inputs": [],
      "name": "ApprovalCallerNotOwnerNorApproved",
      "type": "error"
    },
    {
      "inputs": [],
      "name": "ApprovalQueryForNonexistentToken",
      "type": "error"
    },
    {
      "inputs": [],
      "name": "ApprovalToCurrentOwner",
      "type": "error"
    },
    {
      "inputs": [],
      "name": "ApproveToCaller",
      "type": "error"
    },
    {
      "inputs": [],
      "name": "BalanceQueryForZeroAddress",
      "type": "error"
    },
    {
      "inputs": [],
      "name": "MintToZeroAddress",
      "type": "error"
    },
    {
      "inputs": [],
      "name": "MintZeroQuantity",
      "type": "error"
    },
    {
      "inputs": [
        {
          "internalType": "address",
          "name": "operator",
          "type": "address"
        }
      ],
      "name": "OperatorNotAllowed",
      "type": "error"
    },
    {
      "inputs": [],
      "name": "OwnerQueryForNonexistentToken",
      "type": "error"
    },
    {
      "inputs": [],
      "name": "TransferCallerNotOwnerNorApproved",
      "type": "error"
    },
    {
      "inputs": [],
      "name": "TransferFromIncorrectOwner",
      "type": "error"
    },
    {
      "inputs": [],
      "name": "TransferToNonERC721ReceiverImplementer",
      "type": "error"
    },
    {
      "inputs": [],
      "name": "TransferToZeroAddress",
      "type": "error"
    },
    {
      "inputs": [],
      "name": "URIQueryForNonexistentToken",
      "type": "error"
    },
    {
      "anonymous": false,
      "inputs": [
        {
          "indexed": true,
          "internalType": "address",
          "name": "owner",
          "type": "address"
        },
        {
          "indexed": true,
          "internalType": "address",
          "name": "approved",
          "type": "address"
        },
        {
          "indexed": true,
          "internalType": "uint256",
          "name": "tokenId",
          "type": "uint256"
        }
      ],
      "name": "Approval",
      "type": "event"
    },
    {
      "anonymous": false,
      "inputs": [
        {
          "indexed": true,
          "internalType": "address",
          "name": "owner",
          "type": "address"
        },
        {
          "indexed": true,
          "internalType": "address",
          "name": "operator",
          "type": "address"
        },
        {
          "indexed": false,
          "internalType": "bool",
          "name": "approved",
          "type": "bool"
        }
      ],
      "name": "ApprovalForAll",
      "type": "event"
    },
    {
      "anonymous": false,
      "inputs": [
        {
          "indexed": true,
          "internalType": "uint256",
          "name": "tokenId",
          "type": "uint256"
        },
        {
          "indexed": false,
          "internalType": "uint256",
          "name": "stamina",
          "type": "uint256"
        },
        {
          "indexed": false,
          "internalType": "uint256",
          "name": "maxMana",
          "type": "uint256"
        },
        {
          "indexed": false,
          "internalType": "uint256",
          "name": "lastStaminaUpdateTime",
          "type": "uint256"
        },
        {
          "indexed": false,
          "internalType": "uint256",
          "name": "lastManaUpdateTime",
          "type": "uint256"
        }
      ],
      "name": "CharacterRecoveryStats",
      "type": "event"
    },
    {
      "anonymous": false,
      "inputs": [
        {
          "indexed": true,
          "internalType": "uint256",
          "name": "tokenId",
          "type": "uint256"
        },
        {
          "indexed": false,
          "internalType": "uint256",
          "name": "level",
          "type": "uint256"
        },
        {
          "indexed": false,
          "internalType": "uint256",
          "name": "experience",
          "type": "uint256"
        },
        {
          "indexed": false,
          "internalType": "uint256",
          "name": "health",
          "type": "uint256"
        },
        {
          "indexed": false,
          "internalType": "uint256",
          "name": "mana",
          "type": "uint256"
        },
        {
          "indexed": false,
          "internalType": "uint256",
          "name": "attack",
          "type": "uint256"
        },
        {
          "indexed": false,
          "internalType": "uint256",
          "name": "defense",
          "type": "uint256"
        },
        {
          "indexed": false,
          "internalType": "uint256",
          "name": "strength",
          "type": "uint256"
        },
        {
          "indexed": false,
          "internalType": "uint256",
          "name": "dexterity",
          "type": "uint256"
        },
        {
          "indexed": false,
          "internalType": "uint256",
          "name": "intelligence",
          "type": "uint256"
        },
        {
          "indexed": false,
          "internalType": "uint256",
          "name": "vitality",
          "type": "uint256"
        },
        {
          "indexed": false,
          "internalType": "uint256",
          "name": "accuracy",
          "type": "uint256"
        },
        {
          "indexed": false,
          "internalType": "uint256",
          "name": "statPoints",
          "type": "uint256"
        }
      ],
      "name": "CharacterStatsEvent",
      "type": "event"
    },
    {
      "anonymous": false,
      "inputs": [
        {
          "indexed": true,
          "internalType": "uint256",
          "name": "tokenId",
          "type": "uint256"
        },
        {
          "indexed": false,
          "internalType": "uint256",
          "name": "strength",
          "type": "uint256"
        },
        {
          "indexed": false,
          "internalType": "uint256",
          "name": "dexterity",
          "type": "uint256"
        },
        {
          "indexed": false,
          "internalType": "uint256",
          "name": "intelligence",
          "type": "uint256"
        },
        {
          "indexed": false,
          "internalType": "uint256",
          "name": "vitality",
          "type": "uint256"
        }
      ],
      "name": "CharacterStatsUpdated",
      "type": "event"
    },
    {
      "anonymous": false,
      "inputs": [
        {
          "indexed": true,
          "internalType": "uint256",
          "name": "tokenId",
          "type": "uint256"
        },
        {
          "indexed": false,
          "internalType": "uint256",
          "name": "xp",
          "type": "uint256"
        }
      ],
      "name": "CharacterXPUpdated",
      "type": "event"
    },
    {
      "anonymous": false,
      "inputs": [
        {
          "indexed": true,
          "internalType": "uint256",
          "name": "characterTokenId",
          "type": "uint256"
        },
        {
          "indexed": true,
          "internalType": "uint256",
          "name": "classId",
          "type": "uint256"
        }
      ],
      "name": "ClassEquipped",
      "type": "event"
    },
    {
      "anonymous": false,
      "inputs": [
        {
          "indexed": true,
          "internalType": "uint256",
          "name": "characterTokenId",
          "type": "uint256"
        },
        {
          "indexed": true,
          "internalType": "uint256",
          "name": "classId",
          "type": "uint256"
        }
      ],
      "name": "ClassUnequipped",
      "type": "event"
    },
    {
      "anonymous": false,
      "inputs": [
        {
          "indexed": false,
          "internalType": "string",
          "name": "prevURI",
          "type": "string"
        },
        {
          "indexed": false,
          "internalType": "string",
          "name": "newURI",
          "type": "string"
        }
      ],
      "name": "ContractURIUpdated",
      "type": "event"
    },
    {
      "anonymous": false,
      "inputs": [
        {
          "indexed": true,
          "internalType": "address",
          "name": "newRoyaltyRecipient",
          "type": "address"
        },
        {
          "indexed": false,
          "internalType": "uint256",
          "name": "newRoyaltyBps",
          "type": "uint256"
        }
      ],
      "name": "DefaultRoyalty",
      "type": "event"
    },
    {
      "anonymous": false,
      "inputs": [
        {
          "indexed": true,
          "internalType": "uint256",
          "name": "characterTokenId",
          "type": "uint256"
        },
        {
          "indexed": true,
          "internalType": "uint256",
          "name": "itemTokenId",
          "type": "uint256"
        }
      ],
      "name": "ItemEquipped",
      "type": "event"
    },
    {
      "anonymous": false,
      "inputs": [
        {
          "indexed": true,
          "internalType": "uint256",
          "name": "characterTokenId",
          "type": "uint256"
        },
        {
          "indexed": true,
          "internalType": "uint256",
          "name": "itemTokenId",
          "type": "uint256"
        }
      ],
      "name": "ItemUnequipped",
      "type": "event"
    },
    {
      "anonymous": false,
      "inputs": [
        {
          "indexed": true,
          "internalType": "uint256",
          "name": "tokenId",
          "type": "uint256"
        },
        {
          "indexed": false,
          "internalType": "uint256",
          "name": "mana",
          "type": "uint256"
        }
      ],
      "name": "ManaUpdated",
      "type": "event"
    },
    {
      "anonymous": false,
      "inputs": [
        {
          "indexed": true,
          "internalType": "uint256",
          "name": "tokenId",
          "type": "uint256"
        },
        {
          "indexed": false,
          "internalType": "uint256",
          "name": "typeId",
          "type": "uint256"
        }
      ],
      "name": "NewCharacter",
      "type": "event"
    },
    {
      "anonymous": false,
      "inputs": [
        {
          "indexed": false,
          "internalType": "bool",
          "name": "restriction",
          "type": "bool"
        }
      ],
      "name": "OperatorRestriction",
      "type": "event"
    },
    {
      "anonymous": false,
      "inputs": [
        {
          "indexed": true,
          "internalType": "address",
          "name": "prevOwner",
          "type": "address"
        },
        {
          "indexed": true,
          "internalType": "address",
          "name": "newOwner",
          "type": "address"
        }
      ],
      "name": "OwnerUpdated",
      "type": "event"
    },
    {
      "anonymous": false,
      "inputs": [
        {
          "indexed": true,
          "internalType": "uint256",
          "name": "tokenId",
          "type": "uint256"
        },
        {
          "indexed": true,
          "internalType": "address",
          "name": "royaltyRecipient",
          "type": "address"
        },
        {
          "indexed": false,
          "internalType": "uint256",
          "name": "royaltyBps",
          "type": "uint256"
        }
      ],
      "name": "RoyaltyForToken",
      "type": "event"
    },
    {
      "anonymous": false,
      "inputs": [
        {
          "indexed": true,
          "internalType": "uint256",
          "name": "characterTokenId",
          "type": "uint256"
        },
        {
          "indexed": true,
          "internalType": "uint256",
          "name": "skillId",
          "type": "uint256"
        }
      ],
      "name": "SkillEquipped",
      "type": "event"
    },
    {
      "anonymous": false,
      "inputs": [
        {
          "indexed": true,
          "internalType": "uint256",
          "name": "characterTokenId",
          "type": "uint256"
        },
        {
          "indexed": true,
          "internalType": "uint256",
          "name": "skillId",
          "type": "uint256"
        }
      ],
      "name": "SkillUnequipped",
      "type": "event"
    },
    {
      "anonymous": false,
      "inputs": [
        {
          "indexed": true,
          "internalType": "uint256",
          "name": "tokenId",
          "type": "uint256"
        },
        {
          "indexed": false,
          "internalType": "uint256",
          "name": "stamina",
          "type": "uint256"
        }
      ],
      "name": "StaminaUpdated",
      "type": "event"
    },
    {
      "anonymous": false,
      "inputs": [
        {
          "indexed": true,
          "internalType": "address",
          "name": "from",
          "type": "address"
        },
        {
          "indexed": true,
          "internalType": "address",
          "name": "to",
          "type": "address"
        },
        {
          "indexed": true,
          "internalType": "uint256",
          "name": "tokenId",
          "type": "uint256"
        }
      ],
      "name": "Transfer",
      "type": "event"
    },
    {
      "inputs": [],
      "name": "OPERATOR_FILTER_REGISTRY",
      "outputs": [
        {
          "internalType": "contract IOperatorFilterRegistry",
          "name": "",
          "type": "address"
        }
      ],
      "stateMutability": "view",
      "type": "function"
    },
    {
      "inputs": [
        {
          "internalType": "uint256",
          "name": "tokenId",
          "type": "uint256"
        },
        {
          "internalType": "uint256",
          "name": "amount",
          "type": "uint256"
        }
      ],
      "name": "addMana",
      "outputs": [],
      "stateMutability": "nonpayable",
      "type": "function"
    },
    {
      "inputs": [
        {
          "internalType": "uint256",
          "name": "tokenId",
          "type": "uint256"
        },
        {
          "internalType": "uint256",
          "name": "amount",
          "type": "uint256"
        }
      ],
      "name": "addStamina",
      "outputs": [],
      "stateMutability": "nonpayable",
      "type": "function"
    },
    {
      "inputs": [
        {
          "internalType": "uint256",
          "name": "characterTokenId",
          "type": "uint256"
        },
        {
          "internalType": "uint256",
          "name": "strength",
          "type": "uint256"
        },
        {
          "internalType": "uint256",
          "name": "dexterity",
          "type": "uint256"
        },
        {
          "internalType": "uint256",
          "name": "intelligence",
          "type": "uint256"
        },
        {
          "internalType": "uint256",
          "name": "vitality",
          "type": "uint256"
        }
      ],
      "name": "addStats",
      "outputs": [],
      "stateMutability": "nonpayable",
      "type": "function"
    },
    {
      "inputs": [
        {
          "internalType": "address",
          "name": "operator",
          "type": "address"
        },
        {
          "internalType": "uint256",
          "name": "tokenId",
          "type": "uint256"
        }
      ],
      "name": "approve",
      "outputs": [],
      "stateMutability": "nonpayable",
      "type": "function"
    },
    {
      "inputs": [
        {
          "internalType": "address",
          "name": "owner",
          "type": "address"
        }
      ],
      "name": "balanceOf",
      "outputs": [
        {
          "internalType": "uint256",
          "name": "",
          "type": "uint256"
        }
      ],
      "stateMutability": "view",
      "type": "function"
    },
    {
      "inputs": [
        {
          "internalType": "address",
          "name": "_to",
          "type": "address"
        },
        {
          "internalType": "uint256",
          "name": "_quantity",
          "type": "uint256"
        },
        {
          "internalType": "string",
          "name": "_baseURI",
          "type": "string"
        },
        {
          "internalType": "bytes",
          "name": "_data",
          "type": "bytes"
        }
      ],
      "name": "batchMintTo",
      "outputs": [],
      "stateMutability": "nonpayable",
      "type": "function"
    },
    {
      "inputs": [],
      "name": "battleContractAddress",
      "outputs": [
        {
          "internalType": "address",
          "name": "",
          "type": "address"
        }
      ],
      "stateMutability": "view",
      "type": "function"
    },
    {
      "inputs": [],
      "name": "battleItems",
      "outputs": [
        {
          "internalType": "contract IBattleItems",
          "name": "",
          "type": "address"
        }
      ],
      "stateMutability": "view",
      "type": "function"
    },
    {
      "inputs": [],
      "name": "battleSkills",
      "outputs": [
        {
          "internalType": "contract IBattleSkills",
          "name": "",
          "type": "address"
        }
      ],
      "stateMutability": "view",
      "type": "function"
    },
    {
      "inputs": [
        {
          "internalType": "uint256",
          "name": "_tokenId",
          "type": "uint256"
        }
      ],
      "name": "burn",
      "outputs": [],
      "stateMutability": "nonpayable",
      "type": "function"
    },
    {
      "inputs": [
        {
          "internalType": "uint256",
          "name": "level",
          "type": "uint256"
        }
      ],
      "name": "calculateExperienceRequired",
      "outputs": [
        {
          "internalType": "uint256",
          "name": "",
          "type": "uint256"
        }
      ],
      "stateMutability": "view",
      "type": "function"
    },
    {
      "inputs": [
        {
          "internalType": "uint256",
          "name": "",
          "type": "uint256"
        }
      ],
      "name": "charStats",
      "outputs": [
        {
          "internalType": "uint256",
          "name": "tokenId",
          "type": "uint256"
        },
        {
          "internalType": "uint256",
          "name": "level",
          "type": "uint256"
        },
        {
          "internalType": "uint256",
          "name": "experience",
          "type": "uint256"
        },
        {
          "internalType": "uint256",
          "name": "health",
          "type": "uint256"
        },
        {
          "internalType": "uint256",
          "name": "mana",
          "type": "uint256"
        },
        {
          "internalType": "uint256",
          "name": "attack",
          "type": "uint256"
        },
        {
          "internalType": "uint256",
          "name": "defense",
          "type": "uint256"
        },
        {
          "internalType": "uint256",
          "name": "strength",
          "type": "uint256"
        },
        {
          "internalType": "uint256",
          "name": "dexterity",
          "type": "uint256"
        },
        {
          "internalType": "uint256",
          "name": "intelligence",
          "type": "uint256"
        },
        {
          "internalType": "uint256",
          "name": "vitality",
          "type": "uint256"
        },
        {
          "internalType": "uint256",
          "name": "accuracy",
          "type": "uint256"
        },
        {
          "internalType": "uint256",
          "name": "statPoints",
          "type": "uint256"
        },
        {
          "internalType": "uint256",
          "name": "typeId",
          "type": "uint256"
        }
      ],
      "stateMutability": "view",
      "type": "function"
    },
    {
      "inputs": [
        {
          "internalType": "uint256",
          "name": "",
          "type": "uint256"
        }
      ],
      "name": "charTypes",
      "outputs": [
        {
          "internalType": "uint256",
          "name": "typeId",
          "type": "uint256"
        },
        {
          "internalType": "string",
          "name": "characterType",
          "type": "string"
        },
        {
          "internalType": "string",
          "name": "uri",
          "type": "string"
        }
      ],
      "stateMutability": "view",
      "type": "function"
    },
    {
      "inputs": [],
      "name": "characterClasses",
      "outputs": [
        {
          "internalType": "contract CharacterClass",
          "name": "",
          "type": "address"
        }
      ],
      "stateMutability": "view",
      "type": "function"
    },
    {
      "inputs": [
        {
          "internalType": "uint256",
          "name": "",
          "type": "uint256"
        }
      ],
      "name": "characterEquips",
      "outputs": [
        {
          "internalType": "uint256",
          "name": "equippedClass",
          "type": "uint256"
        }
      ],
      "stateMutability": "view",
      "type": "function"
    },
    {
      "inputs": [
        {
          "internalType": "uint256",
          "name": "",
          "type": "uint256"
        }
      ],
      "name": "characterStats",
      "outputs": [
        {
          "internalType": "uint256",
          "name": "tokenId",
          "type": "uint256"
        },
        {
          "internalType": "uint256",
          "name": "level",
          "type": "uint256"
        },
        {
          "internalType": "uint256",
          "name": "experience",
          "type": "uint256"
        },
        {
          "internalType": "uint256",
          "name": "health",
          "type": "uint256"
        },
        {
          "internalType": "uint256",
          "name": "mana",
          "type": "uint256"
        },
        {
          "internalType": "uint256",
          "name": "attack",
          "type": "uint256"
        },
        {
          "internalType": "uint256",
          "name": "defense",
          "type": "uint256"
        },
        {
          "internalType": "uint256",
          "name": "strength",
          "type": "uint256"
        },
        {
          "internalType": "uint256",
          "name": "dexterity",
          "type": "uint256"
        },
        {
          "internalType": "uint256",
          "name": "intelligence",
          "type": "uint256"
        },
        {
          "internalType": "uint256",
          "name": "vitality",
          "type": "uint256"
        },
        {
          "internalType": "uint256",
          "name": "accuracy",
          "type": "uint256"
        },
        {
          "internalType": "uint256",
          "name": "statPoints",
          "type": "uint256"
        },
        {
          "internalType": "uint256",
          "name": "typeId",
          "type": "uint256"
        }
      ],
      "stateMutability": "view",
      "type": "function"
    },
    {
      "inputs": [
        {
          "internalType": "uint256",
          "name": "tokenId",
          "type": "uint256"
        },
        {
          "internalType": "uint256",
          "name": "amount",
          "type": "uint256"
        }
      ],
      "name": "consumeMana",
      "outputs": [],
      "stateMutability": "nonpayable",
      "type": "function"
    },
    {
      "inputs": [
        {
          "internalType": "uint256",
          "name": "tokenId",
          "type": "uint256"
        },
        {
          "internalType": "uint256",
          "name": "amount",
          "type": "uint256"
        }
      ],
      "name": "consumeStamina",
      "outputs": [],
      "stateMutability": "nonpayable",
      "type": "function"
    },
    {
      "inputs": [],
      "name": "contractURI",
      "outputs": [
        {
          "internalType": "string",
          "name": "",
          "type": "string"
        }
      ],
      "stateMutability": "view",
      "type": "function"
    },
    {
      "inputs": [
        {
          "internalType": "uint256",
          "name": "characterTokenId",
          "type": "uint256"
        },
        {
          "internalType": "uint256",
          "name": "classId",
          "type": "uint256"
        }
      ],
      "name": "equipClass",
      "outputs": [],
      "stateMutability": "nonpayable",
      "type": "function"
    },
    {
      "inputs": [
        {
          "internalType": "uint256",
          "name": "characterTokenId",
          "type": "uint256"
        },
        {
          "internalType": "uint256",
          "name": "tokenId",
          "type": "uint256"
        }
      ],
      "name": "equipItem",
      "outputs": [],
      "stateMutability": "nonpayable",
      "type": "function"
    },
    {
      "inputs": [
        {
          "internalType": "uint256",
          "name": "characterTokenId",
          "type": "uint256"
        },
        {
          "internalType": "uint256",
          "name": "skillId",
          "type": "uint256"
        }
      ],
      "name": "equipSkill",
      "outputs": [],
      "stateMutability": "nonpayable",
      "type": "function"
    },
    {
      "inputs": [
        {
          "internalType": "uint256",
          "name": "characterTokenId",
          "type": "uint256"
        },
        {
          "internalType": "uint256",
          "name": "xp",
          "type": "uint256"
        }
      ],
      "name": "gainXP",
      "outputs": [],
      "stateMutability": "nonpayable",
      "type": "function"
    },
    {
      "inputs": [
        {
          "internalType": "uint256",
          "name": "tokenId",
          "type": "uint256"
        }
      ],
      "name": "getApproved",
      "outputs": [
        {
          "internalType": "address",
          "name": "",
          "type": "address"
        }
      ],
      "stateMutability": "view",
      "type": "function"
    },
    {
      "inputs": [],
      "name": "getBaseURICount",
      "outputs": [
        {
          "internalType": "uint256",
          "name": "",
          "type": "uint256"
        }
      ],
      "stateMutability": "view",
      "type": "function"
    },
    {
      "inputs": [
        {
          "internalType": "uint256",
          "name": "_index",
          "type": "uint256"
        }
      ],
      "name": "getBatchIdAtIndex",
      "outputs": [
        {
          "internalType": "uint256",
          "name": "",
          "type": "uint256"
        }
      ],
      "stateMutability": "view",
      "type": "function"
    },
    {
      "inputs": [
        {
          "internalType": "uint256",
          "name": "_tokenId",
          "type": "uint256"
        }
      ],
      "name": "getCharacter",
      "outputs": [
        {
          "components": [
            {
              "internalType": "uint256",
              "name": "tokenId",
              "type": "uint256"
            },
            {
              "internalType": "uint256",
              "name": "level",
              "type": "uint256"
            },
            {
              "internalType": "uint256",
              "name": "experience",
              "type": "uint256"
            },
            {
              "internalType": "uint256",
              "name": "health",
              "type": "uint256"
            },
            {
              "internalType": "uint256",
              "name": "mana",
              "type": "uint256"
            },
            {
              "internalType": "uint256",
              "name": "attack",
              "type": "uint256"
            },
            {
              "internalType": "uint256",
              "name": "defense",
              "type": "uint256"
            },
            {
              "internalType": "uint256",
              "name": "strength",
              "type": "uint256"
            },
            {
              "internalType": "uint256",
              "name": "dexterity",
              "type": "uint256"
            },
            {
              "internalType": "uint256",
              "name": "intelligence",
              "type": "uint256"
            },
            {
              "internalType": "uint256",
              "name": "vitality",
              "type": "uint256"
            },
            {
              "internalType": "uint256",
              "name": "accuracy",
              "type": "uint256"
            },
            {
              "internalType": "uint256",
              "name": "statPoints",
              "type": "uint256"
            },
            {
              "internalType": "uint256",
              "name": "typeId",
              "type": "uint256"
            }
          ],
          "internalType": "struct StatCalculation.CharacterStats",
          "name": "",
          "type": "tuple"
        }
      ],
      "stateMutability": "view",
      "type": "function"
    },
    {
      "inputs": [
        {
          "internalType": "uint256",
          "name": "tokenId",
          "type": "uint256"
        }
      ],
      "name": "getCharacterAttack",
      "outputs": [
        {
          "internalType": "uint256",
          "name": "",
          "type": "uint256"
        }
      ],
      "stateMutability": "view",
      "type": "function"
    },
    {
      "inputs": [
        {
          "internalType": "uint256",
          "name": "tokenId",
          "type": "uint256"
        }
      ],
      "name": "getCharacterDefense",
      "outputs": [
        {
          "internalType": "uint256",
          "name": "",
          "type": "uint256"
        }
      ],
      "stateMutability": "view",
      "type": "function"
    },
    {
      "inputs": [
        {
          "internalType": "uint256",
          "name": "tokenId",
          "type": "uint256"
        }
      ],
      "name": "getCharacterHealth",
      "outputs": [
        {
          "internalType": "uint256",
          "name": "",
          "type": "uint256"
        }
      ],
      "stateMutability": "view",
      "type": "function"
    },
    {
      "inputs": [
        {
          "internalType": "uint256",
          "name": "tokenId",
          "type": "uint256"
        }
      ],
      "name": "getCharacterLevel",
      "outputs": [
        {
          "internalType": "uint256",
          "name": "",
          "type": "uint256"
        }
      ],
      "stateMutability": "view",
      "type": "function"
    },
    {
      "inputs": [
        {
          "internalType": "uint256",
          "name": "tokenId",
          "type": "uint256"
        }
      ],
      "name": "getCharacterType",
      "outputs": [
        {
          "internalType": "uint256",
          "name": "",
          "type": "uint256"
        }
      ],
      "stateMutability": "view",
      "type": "function"
    },
    {
      "inputs": [],
      "name": "getDefaultRoyaltyInfo",
      "outputs": [
        {
          "internalType": "address",
          "name": "",
          "type": "address"
        },
        {
          "internalType": "uint16",
          "name": "",
          "type": "uint16"
        }
      ],
      "stateMutability": "view",
      "type": "function"
    },
    {
      "inputs": [
        {
          "internalType": "uint256",
          "name": "characterTokenId",
          "type": "uint256"
        }
      ],
      "name": "getEquippedClass",
      "outputs": [
        {
          "internalType": "uint256",
          "name": "",
          "type": "uint256"
        }
      ],
      "stateMutability": "view",
      "type": "function"
    },
    {
      "inputs": [
        {
          "internalType": "uint256",
          "name": "characterTokenId",
          "type": "uint256"
        },
        {
          "internalType": "enum IBattleItems.ItemType",
          "name": "itemType",
          "type": "uint8"
        }
      ],
      "name": "getEquippedItem",
      "outputs": [
        {
          "internalType": "uint256",
          "name": "",
          "type": "uint256"
        }
      ],
      "stateMutability": "view",
      "type": "function"
    },
    {
      "inputs": [
        {
          "internalType": "uint256",
          "name": "characterTokenId",
          "type": "uint256"
        }
      ],
      "name": "getEquippedSkills",
      "outputs": [
        {
          "internalType": "uint256[]",
          "name": "",
          "type": "uint256[]"
        }
      ],
      "stateMutability": "view",
      "type": "function"
    },
    {
      "inputs": [
        {
          "internalType": "uint256",
          "name": "tokenId",
          "type": "uint256"
        }
      ],
      "name": "getMana",
      "outputs": [
        {
          "internalType": "uint256",
          "name": "",
          "type": "uint256"
        }
      ],
      "stateMutability": "view",
      "type": "function"
    },
    {
      "inputs": [
        {
          "internalType": "uint256",
          "name": "tokenId",
          "type": "uint256"
        }
      ],
      "name": "getRecoveryStats",
      "outputs": [
        {
          "components": [
            {
              "internalType": "uint256",
              "name": "stamina",
              "type": "uint256"
            },
            {
              "internalType": "uint256",
              "name": "maxMana",
              "type": "uint256"
            },
            {
              "internalType": "uint256",
              "name": "lastStaminaUpdateTime",
              "type": "uint256"
            },
            {
              "internalType": "uint256",
              "name": "lastManaUpdateTime",
              "type": "uint256"
            }
          ],
          "internalType": "struct StatCalculation.RecoveryStats",
          "name": "",
          "type": "tuple"
        }
      ],
      "stateMutability": "view",
      "type": "function"
    },
    {
      "inputs": [
        {
          "internalType": "uint256",
          "name": "_tokenId",
          "type": "uint256"
        }
      ],
      "name": "getRoyaltyInfoForToken",
      "outputs": [
        {
          "internalType": "address",
          "name": "",
          "type": "address"
        },
        {
          "internalType": "uint16",
          "name": "",
          "type": "uint16"
        }
      ],
      "stateMutability": "view",
      "type": "function"
    },
    {
      "inputs": [
        {
          "internalType": "uint256",
          "name": "tokenId",
          "type": "uint256"
        }
      ],
      "name": "getStamina",
      "outputs": [
        {
          "internalType": "uint256",
          "name": "",
          "type": "uint256"
        }
      ],
      "stateMutability": "view",
      "type": "function"
    },
    {
      "inputs": [
        {
          "internalType": "address",
          "name": "owner",
          "type": "address"
        },
        {
          "internalType": "address",
          "name": "operator",
          "type": "address"
        }
      ],
      "name": "isApprovedForAll",
      "outputs": [
        {
          "internalType": "bool",
          "name": "",
          "type": "bool"
        }
      ],
      "stateMutability": "view",
      "type": "function"
    },
    {
      "inputs": [
        {
          "internalType": "address",
          "name": "_operator",
          "type": "address"
        },
        {
          "internalType": "uint256",
          "name": "_tokenId",
          "type": "uint256"
        }
      ],
      "name": "isApprovedOrOwner",
      "outputs": [
        {
          "internalType": "bool",
          "name": "isApprovedOrOwnerOf",
          "type": "bool"
        }
      ],
      "stateMutability": "view",
      "type": "function"
    },
    {
      "inputs": [
        {
          "internalType": "uint256",
          "name": "_typeId",
          "type": "uint256"
        },
        {
          "internalType": "uint256",
          "name": "_skillTokenId",
          "type": "uint256"
        }
      ],
      "name": "mintNewCharacterWithItemAndEquip",
      "outputs": [],
      "stateMutability": "nonpayable",
      "type": "function"
    },
    {
      "inputs": [
        {
          "internalType": "address",
          "name": "_to",
          "type": "address"
        },
        {
          "internalType": "string",
          "name": "_tokenURI",
          "type": "string"
        }
      ],
      "name": "mintTo",
      "outputs": [],
      "stateMutability": "nonpayable",
      "type": "function"
    },
    {
      "inputs": [
        {
          "internalType": "bytes[]",
          "name": "data",
          "type": "bytes[]"
        }
      ],
      "name": "multicall",
      "outputs": [
        {
          "internalType": "bytes[]",
          "name": "results",
          "type": "bytes[]"
        }
      ],
      "stateMutability": "nonpayable",
      "type": "function"
    },
    {
      "inputs": [],
      "name": "name",
      "outputs": [
        {
          "internalType": "string",
          "name": "",
          "type": "string"
        }
      ],
      "stateMutability": "view",
      "type": "function"
    },
    {
      "inputs": [
        {
          "internalType": "uint256",
          "name": "_typeId",
          "type": "uint256"
        }
      ],
      "name": "newCharacter",
      "outputs": [],
      "stateMutability": "nonpayable",
      "type": "function"
    },
    {
      "inputs": [],
      "name": "nextTokenIdToMint",
      "outputs": [
        {
          "internalType": "uint256",
          "name": "",
          "type": "uint256"
        }
      ],
      "stateMutability": "view",
      "type": "function"
    },
    {
      "inputs": [],
      "name": "numCharacters",
      "outputs": [
        {
          "internalType": "uint256",
          "name": "",
          "type": "uint256"
        }
      ],
      "stateMutability": "view",
      "type": "function"
    },
    {
      "inputs": [
        {
          "internalType": "address",
          "name": "",
          "type": "address"
        },
        {
          "internalType": "address",
          "name": "",
          "type": "address"
        },
        {
          "internalType": "uint256[]",
          "name": "",
          "type": "uint256[]"
        },
        {
          "internalType": "uint256[]",
          "name": "",
          "type": "uint256[]"
        },
        {
          "internalType": "bytes",
          "name": "",
          "type": "bytes"
        }
      ],
      "name": "onERC1155BatchReceived",
      "outputs": [
        {
          "internalType": "bytes4",
          "name": "",
          "type": "bytes4"
        }
      ],
      "stateMutability": "nonpayable",
      "type": "function"
    },
    {
      "inputs": [
        {
          "internalType": "address",
          "name": "",
          "type": "address"
        },
        {
          "internalType": "address",
          "name": "",
          "type": "address"
        },
        {
          "internalType": "uint256",
          "name": "",
          "type": "uint256"
        },
        {
          "internalType": "uint256",
          "name": "",
          "type": "uint256"
        },
        {
          "internalType": "bytes",
          "name": "",
          "type": "bytes"
        }
      ],
      "name": "onERC1155Received",
      "outputs": [
        {
          "internalType": "bytes4",
          "name": "",
          "type": "bytes4"
        }
      ],
      "stateMutability": "nonpayable",
      "type": "function"
    },
    {
      "inputs": [],
      "name": "operatorRestriction",
      "outputs": [
        {
          "internalType": "bool",
          "name": "",
          "type": "bool"
        }
      ],
      "stateMutability": "view",
      "type": "function"
    },
    {
      "inputs": [],
      "name": "owner",
      "outputs": [
        {
          "internalType": "address",
          "name": "",
          "type": "address"
        }
      ],
      "stateMutability": "view",
      "type": "function"
    },
    {
      "inputs": [
        {
          "internalType": "uint256",
          "name": "tokenId",
          "type": "uint256"
        }
      ],
      "name": "ownerOf",
      "outputs": [
        {
          "internalType": "address",
          "name": "",
          "type": "address"
        }
      ],
      "stateMutability": "view",
      "type": "function"
    },
    {
      "inputs": [
        {
          "internalType": "uint256",
          "name": "tokenId",
          "type": "uint256"
        }
      ],
      "name": "restoreManaToFull",
      "outputs": [],
      "stateMutability": "nonpayable",
      "type": "function"
    },
    {
      "inputs": [
        {
          "internalType": "uint256",
          "name": "tokenId",
          "type": "uint256"
        }
      ],
      "name": "restoreStaminaToFull",
      "outputs": [],
      "stateMutability": "nonpayable",
      "type": "function"
    },
    {
      "inputs": [
        {
          "internalType": "uint256",
          "name": "tokenId",
          "type": "uint256"
        },
        {
          "internalType": "uint256",
          "name": "salePrice",
          "type": "uint256"
        }
      ],
      "name": "royaltyInfo",
      "outputs": [
        {
          "internalType": "address",
          "name": "receiver",
          "type": "address"
        },
        {
          "internalType": "uint256",
          "name": "royaltyAmount",
          "type": "uint256"
        }
      ],
      "stateMutability": "view",
      "type": "function"
    },
    {
      "inputs": [
        {
          "internalType": "address",
          "name": "from",
          "type": "address"
        },
        {
          "internalType": "address",
          "name": "to",
          "type": "address"
        },
        {
          "internalType": "uint256",
          "name": "tokenId",
          "type": "uint256"
        }
      ],
      "name": "safeTransferFrom",
      "outputs": [],
      "stateMutability": "nonpayable",
      "type": "function"
    },
    {
      "inputs": [
        {
          "internalType": "address",
          "name": "from",
          "type": "address"
        },
        {
          "internalType": "address",
          "name": "to",
          "type": "address"
        },
        {
          "internalType": "uint256",
          "name": "tokenId",
          "type": "uint256"
        },
        {
          "internalType": "bytes",
          "name": "data",
          "type": "bytes"
        }
      ],
      "name": "safeTransferFrom",
      "outputs": [],
      "stateMutability": "nonpayable",
      "type": "function"
    },
    {
      "inputs": [
        {
          "internalType": "address",
          "name": "operator",
          "type": "address"
        },
        {
          "internalType": "bool",
          "name": "approved",
          "type": "bool"
        }
      ],
      "name": "setApprovalForAll",
      "outputs": [],
      "stateMutability": "nonpayable",
      "type": "function"
    },
    {
      "inputs": [
        {
          "internalType": "address",
          "name": "_address",
          "type": "address"
        }
      ],
      "name": "setBattleContract",
      "outputs": [],
      "stateMutability": "nonpayable",
      "type": "function"
    },
    {
      "inputs": [
        {
          "internalType": "address",
          "name": "_address",
          "type": "address"
        }
      ],
      "name": "setBattleItems",
      "outputs": [],
      "stateMutability": "nonpayable",
      "type": "function"
    },
    {
      "inputs": [
        {
          "internalType": "address",
          "name": "_address",
          "type": "address"
        }
      ],
      "name": "setBattleSkills",
      "outputs": [],
      "stateMutability": "nonpayable",
      "type": "function"
    },
    {
      "inputs": [
        {
          "internalType": "address",
          "name": "_address",
          "type": "address"
        }
      ],
      "name": "setClassContract",
      "outputs": [],
      "stateMutability": "nonpayable",
      "type": "function"
    },
    {
      "inputs": [
        {
          "internalType": "string",
          "name": "_uri",
          "type": "string"
        }
      ],
      "name": "setContractURI",
      "outputs": [],
      "stateMutability": "nonpayable",
      "type": "function"
    },
    {
      "inputs": [
        {
          "internalType": "address",
          "name": "_royaltyRecipient",
          "type": "address"
        },
        {
          "internalType": "uint256",
          "name": "_royaltyBps",
          "type": "uint256"
        }
      ],
      "name": "setDefaultRoyaltyInfo",
      "outputs": [],
      "stateMutability": "nonpayable",
      "type": "function"
    },
    {
      "inputs": [
        {
          "internalType": "bool",
          "name": "_restriction",
          "type": "bool"
        }
      ],
      "name": "setOperatorRestriction",
      "outputs": [],
      "stateMutability": "nonpayable",
      "type": "function"
    },
    {
      "inputs": [
        {
          "internalType": "address",
          "name": "_newOwner",
          "type": "address"
        }
      ],
      "name": "setOwner",
      "outputs": [],
      "stateMutability": "nonpayable",
      "type": "function"
    },
    {
      "inputs": [
        {
          "internalType": "uint256",
          "name": "_tokenId",
          "type": "uint256"
        },
        {
          "internalType": "address",
          "name": "_recipient",
          "type": "address"
        },
        {
          "internalType": "uint256",
          "name": "_bps",
          "type": "uint256"
        }
      ],
      "name": "setRoyaltyInfoForToken",
      "outputs": [],
      "stateMutability": "nonpayable",
      "type": "function"
    },
    {
      "inputs": [
        {
          "internalType": "bytes4",
          "name": "interfaceId",
          "type": "bytes4"
        }
      ],
      "name": "supportsInterface",
      "outputs": [
        {
          "internalType": "bool",
          "name": "",
          "type": "bool"
        }
      ],
      "stateMutability": "view",
      "type": "function"
    },
    {
      "inputs": [],
      "name": "symbol",
      "outputs": [
        {
          "internalType": "string",
          "name": "",
          "type": "string"
        }
      ],
      "stateMutability": "view",
      "type": "function"
    },
    {
      "inputs": [
        {
          "internalType": "uint256",
          "name": "_tokenId",
          "type": "uint256"
        }
      ],
      "name": "tokenURI",
      "outputs": [
        {
          "internalType": "string",
          "name": "",
          "type": "string"
        }
      ],
      "stateMutability": "view",
      "type": "function"
    },
    {
      "inputs": [],
      "name": "totalSupply",
      "outputs": [
        {
          "internalType": "uint256",
          "name": "",
          "type": "uint256"
        }
      ],
      "stateMutability": "view",
      "type": "function"
    },
    {
      "inputs": [
        {
          "internalType": "address",
          "name": "from",
          "type": "address"
        },
        {
          "internalType": "address",
          "name": "to",
          "type": "address"
        },
        {
          "internalType": "uint256",
          "name": "tokenId",
          "type": "uint256"
        }
      ],
      "name": "transferFrom",
      "outputs": [],
      "stateMutability": "nonpayable",
      "type": "function"
    },
    {
      "inputs": [
        {
          "internalType": "uint256",
          "name": "characterTokenId",
          "type": "uint256"
        }
      ],
      "name": "unequipClass",
      "outputs": [],
      "stateMutability": "nonpayable",
      "type": "function"
    },
    {
      "inputs": [
        {
          "internalType": "uint256",
          "name": "characterTokenId",
          "type": "uint256"
        },
        {
          "internalType": "uint256",
          "name": "itemTokenId",
          "type": "uint256"
        }
      ],
      "name": "unequipItem",
      "outputs": [],
      "stateMutability": "nonpayable",
      "type": "function"
    },
    {
      "inputs": [
        {
          "internalType": "uint256",
          "name": "characterTokenId",
          "type": "uint256"
        },
        {
          "internalType": "uint256",
          "name": "skillId",
          "type": "uint256"
        }
      ],
      "name": "unequipSkill",
      "outputs": [],
      "stateMutability": "nonpayable",
      "type": "function"
    },
    {
      "inputs": [
        {
          "internalType": "uint256",
          "name": "_tokenId",
          "type": "uint256"
        },
        {
          "internalType": "string",
          "name": "_tokenURI",
          "type": "string"
        }
      ],
      "name": "updateURI",
      "outputs": [],
      "stateMutability": "nonpayable",
      "type": "function"
    }
  ],
  "bytecode": "0x6080604052606460105560006019553480156200001b57600080fd5b506040518060400160405280600981526020016821b430b930b1ba32b960b91b8152506040518060400160405280600481526020016310d3919560e21b815250336000733cc6cdda760b79bafa08df41ecfa224f810dceb660018585816002908162000088919062000990565b50600362000097828262000990565b506000805550506daaeb6d7670e522a718067333cd4e3b15620001e35780156200013157604051633e9f1edf60e11b81523060048201526001600160a01b03831660248201526daaeb6d7670e522a718067333cd4e90637d3e3dbe906044015b600060405180830381600087803b1580156200011257600080fd5b505af115801562000127573d6000803e3d6000fd5b50505050620001e3565b6001600160a01b03821615620001825760405163a0af290360e01b81523060048201526001600160a01b03831660248201526daaeb6d7670e522a718067333cd4e9063a0af290390604401620000f7565b604051632210724360e11b81523060048201526daaeb6d7670e522a718067333cd4e90634420e48690602401600060405180830381600087803b158015620001c957600080fd5b505af1158015620001de573d6000803e3d6000fd5b505050505b50620001f190503362000236565b62000206826001600160801b03831662000288565b62000212600162000333565b50505050620002266200037a60201b60201c565b62000230620006fd565b62000a5c565b600980546001600160a01b038381166001600160a01b0319831681179093556040519116919082907f8292fce18fa69edf4db7b94ea2e58241df0ae57f97e0a6c9b29067028bf92d7690600090a35050565b612710811115620002d15760405162461bcd60e51b815260206004820152600f60248201526e45786365656473206d61782062707360881b604482015260640160405180910390fd5b600a80546001600160a01b0384166001600160b01b03199091168117600160a01b61ffff851602179091556040518281527f90d7ec04bcb8978719414f82e52e4cb651db41d0e6f8cea6118c2191e6183adb9060200160405180910390a25050565b600e805460ff19168215159081179091556040519081527f38475885990d8dfe9ca01f0ef160a1b5514426eab9ddbc953a3353410ba780969060200160405180910390a150565b601a604051806101c001604052806000815260200160018152602001600081526020016064815260200160648152602001600a815260200160648152602001606481526020016064815260200160648152602001606481526020016064815260200160058152602001600081525090806001815401808255809150506001900390600052602060002090600e0201600090919091909150600082015181600001556020820151816001015560408201518160020155606082015181600301556080820151816004015560a0820151816005015560c0820151816006015560e082015181600701556101008201518160080155610120820151816009015561014082015181600a015561016082015181600b015561018082015181600c01556101a082015181600d01555050601a604051806101c001604052806000815260200160018152602001600081526020016064815260200160648152602001600a815260200160648152602001606481526020016064815260200160648152602001606481526020016064815260200160058152602001600181525090806001815401808255809150506001900390600052602060002090600e0201600090919091909150600082015181600001556020820151816001015560408201518160020155606082015181600301556080820151816004015560a0820151816005015560c0820151816006015560e082015181600701556101008201518160080155610120820151816009015561014082015181600a015561016082015181600b015561018082015181600c01556101a082015181600d01555050601a604051806101c0016040528060008152602001600181526020016000815260200160648152602001606481526020016064815260200160648152602001606481526020016064815260200160648152602001606481526020016064815260200160058152602001600281525090806001815401808255809150506001900390600052602060002090600e0201600090919091909150600082015181600001556020820151816001015560408201518160020155606082015181600301556080820151816004015560a0820151816005015560c0820151816006015560e082015181600701556101008201518160080155610120820151816009015561014082015181600a015561016082015181600b015561018082015181600c01556101a082015181600d01555050565b601b604051806060016040528060008152602001604051806040016040528060078152602001662bb0b93934b7b960c91b8152508152602001604051806060016040528060358152602001620068dc6035913990528154600181810184556000938452602093849020835160039093020191825592820151919290919082019062000789908262000990565b5060408201516002820190620007a0908262000990565b505050601b604051806060016040528060018152602001604051806040016040528060048152602001634d61676560e01b815250815260200160405180606001604052806035815260200162006946603591399052815460018181018455600093845260209384902083516003909302019182559282015191929091908201906200082c908262000990565b506040820151600282019062000843908262000990565b505050601b60405180606001604052806002815260200160405180604001604052806005815260200164526f67756560d81b81525081526020016040518060600160405280603581526020016200691160359139905281546001818101845560009384526020938490208351600390930201918255928201519192909190820190620008d0908262000990565b5060408201516002820190620008e7908262000990565b505050565b634e487b7160e01b600052604160045260246000fd5b600181811c908216806200091757607f821691505b6020821081036200093857634e487b7160e01b600052602260045260246000fd5b50919050565b601f821115620008e757600081815260208120601f850160051c81016020861015620009675750805b601f850160051c820191505b81811015620009885782815560010162000973565b505050505050565b81516001600160401b03811115620009ac57620009ac620008ec565b620009c481620009bd845462000902565b846200093e565b602080601f831160018114620009fc5760008415620009e35750858301515b600019600386901b1c1916600185901b17855562000988565b600085815260208120601f198616915b8281101562000a2d5788860151825594840194600190910190840162000a0c565b508582101562000a4c5787850151600019600388901b60f8161c191681555b5050505050600190811b01905550565b615e708062000a6c6000396000f3fe608060405234801561001057600080fd5b50600436106104745760003560e01c8063600dd5ea11610257578063a22cb46511610146578063d5937dae116100c3578063e622563011610087578063e622563014610fbd578063e8a3d48514610fd0578063e985e9c514610fd8578063f1be42f114611014578063f23a6e611461101d57600080fd5b8063d5937dae14610ec0578063dabb053114610ed3578063e2cdf0ad14610f84578063e4c301eb14610f97578063e5f69e4114610faa57600080fd5b8063bc197c811161010a578063bc197c8114610e09578063bc51181614610e41578063bcb7ea0814610e87578063c87b56dd14610e9a578063d2e4c18914610ead57600080fd5b8063a22cb46514610ce7578063a6d13ee214610cfa578063ac9650d814610db8578063b24f2d3914610dd8578063b88d4fde14610df657600080fd5b8063744e94aa116101d4578063938e3d7b11610198578063938e3d7b14610c93578063954643ca14610ca657806395d89b4114610cb95780639bcf7a1514610cc15780639c7e334c14610cd457600080fd5b8063744e94aa14610c29578063754a81d914610c3c578063806227f514610c4f578063835576ed14610c6f5780638da5cb5b14610c8257600080fd5b80636a0558a61161021b5780636a0558a614610bca5780636ffd17d414610bdd57806370a0823114610bf0578063739420a514610c035780637443b32c14610c1657600080fd5b8063600dd5ea14610ac95780636352211e14610adc57806363b45e2d14610aef5780636777258414610af757806367e5436714610bb757600080fd5b806331d41c691161037357806342966c68116102f0578063504c6e01116102b4578063504c6e0114610a6157806355483d4514610a6e5780635a5ffb2e14610a815780635ada845614610a945780635cec154914610aa757600080fd5b806342966c6814610933578063430c20811461094657806345d5007e14610959578063479d35e61461096c5780634cc157df14610a2c57600080fd5b80633a345446116103375780633a345446146108cd5780633b1475a7146108e057806341463be1146108e857806341f434341461090b57806342842e0e1461092057600080fd5b806331d41c691461080757806332f0cd641461081a5780633468f9cd1461082d5780633477979e14610840578063366e6fdb1461085357600080fd5b806315d57827116104015780632419f51b116103c55780632419f51b146106dc578063262a8c3b146106ef5780632a55205a146107025780632c120156146107345780632c8854fe1461074757600080fd5b806315d578271461055557806318160ddd146105d05780631bd2a477146105e657806323b872dd146106a65780632401c739146106b957600080fd5b806308ec6c3c1161044857806308ec6c3c146104f6578063095ea7b3146105095780630db0de521461051c5780630db6dff71461052f57806313af40351461054257600080fd5b806275a3171461047957806301ffc9a71461048e57806306fdde03146104b6578063081812fc146104cb575b600080fd5b61048c61048736600461517e565b61103c565b005b6104a161049c3660046151e1565b6110c0565b60405190151581526020015b60405180910390f35b6104be6110e0565b6040516104ad919061524e565b6104de6104d9366004615261565b611172565b6040516001600160a01b0390911681526020016104ad565b61048c61050436600461527a565b6111b6565b61048c610517366004615295565b611202565b61048c61052a36600461527a565b61121b565b61048c61053d36600461527a565b611267565b61048c61055036600461527a565b6112b3565b610568610563366004615261565b6112e3565b604080519e8f5260208f019d909d529b8d019a909a5260608c019890985260808b019690965260a08a019490945260c089019290925260e08801526101008701526101208601526101408501526101608401526101808301526101a08201526101c0016104ad565b600154600054035b6040519081526020016104ad565b6105d86105f4366004615261565b60009081526011602090815260409182902082516101c081018452815481526001820154928101929092526002810154928201929092526003820154606082015260048201546080820152600582015460a0820152600682015460c0820152600782015460e082015260088201546101008201526009820154610120820152600a820154610140820152600b820154610160820152600c820154610180820152600d909101546101a090910181905290565b61048c6106b43660046152bf565b61135f565b6105d86106c7366004615261565b60009081526013602052604090206002015490565b6105d86106ea366004615261565b61138a565b61048c6106fd3660046152fb565b6113f8565b6107156107103660046152fb565b611923565b604080516001600160a01b0390931683526020830191909152016104ad565b61048c6107423660046152fb565b611960565b6105d8610755366004615261565b60009081526011602090815260409182902082516101c0810184528154815260018201549281019290925260028101549282019290925260038201546060820181905260048301546080830152600583015460a0830152600683015460c0830152600783015460e083015260088301546101008301526009830154610120830152600a830154610140830152600b830154610160830152600c830154610180830152600d909201546101a09091015290565b61048c61081536600461531d565b611a09565b61048c61082836600461535b565b611a3d565b61048c61083b366004615261565b611aae565b61048c61084e366004615261565b611b3b565b610568610861366004615261565b601160205280600052604060002060009150905080600001549080600101549080600201549080600301549080600401549080600501549080600601549080600701549080600801549080600901549080600a01549080600b01549080600c01549080600d015490508e565b61048c6108db3660046152fb565b611b83565b6000546105d8565b6105d86108f6366004615261565b60136020526000908152604090206002015481565b6104de6daaeb6d7670e522a718067333cd4e81565b61048c61092e3660046152bf565b611e56565b61048c610941366004615261565b611e7b565b6104a1610954366004615295565b611e86565b61048c6109673660046152fb565b611f05565b6105d861097a366004615261565b60009081526011602090815260409182902082516101c081018452815481526001820154928101929092526002810154928201929092526003820154606082015260048201546080820152600582015460a0820152600682015460c08201819052600783015460e083015260088301546101008301526009830154610120830152600a830154610140830152600b830154610160830152600c830154610180830152600d909201546101a09091015290565b610a3f610a3a366004615261565b611f90565b604080516001600160a01b03909316835261ffff9091166020830152016104ad565b600e546104a19060ff1681565b6016546104de906001600160a01b031681565b61048c610a8f3660046152fb565b611ffb565b61048c610aa23660046152fb565b6120fb565b610aba610ab5366004615261565b612180565b6040516104ad93929190615378565b61048c610ad7366004615295565b6122c6565b6104de610aea366004615261565b6122f4565b600c546105d8565b6105d8610b05366004615261565b60009081526011602090815260409182902082516101c081018452815481526001820154928101929092526002810154928201929092526003820154606082015260048201546080820152600582015460a08201819052600683015460c0830152600783015460e083015260088301546101008301526009830154610120830152600a830154610140830152600b830154610160830152600c830154610180830152600d909201546101a09091015290565b6018546104de906001600160a01b031681565b61048c610bd83660046152fb565b612306565b6015546104de906001600160a01b031681565b6105d8610bfe36600461527a565b6123f3565b61048c610c113660046152fb565b612441565b6105d8610c24366004615261565b612527565b6105d8610c37366004615261565b612537565b61048c610c4a3660046153a3565b6125ce565b610c62610c5d366004615261565b61263c565b6040516104ad9190615420565b61048c610c7d366004615261565b61269e565b6009546001600160a01b03166104de565b61048c610ca1366004615464565b61295e565b6017546104de906001600160a01b031681565b6104be61298b565b61048c610ccf366004615498565b61299a565b61048c610ce23660046154bd565b6129c9565b61048c610cf53660046154f8565b612aa9565b6105d8610d08366004615261565b60009081526011602090815260409182902082516101c0810184528154815260018201549281018390526002820154938101939093526003810154606084015260048101546080840152600581015460a0840152600681015460c0840152600781015460e084015260088101546101008401526009810154610120840152600a810154610140840152600b810154610160840152600c810154610180840152600d01546101a09092019190915290565b610dcb610dc636600461552f565b612abd565b6040516104ad91906155a3565b600a546001600160a01b03811690600160a01b900461ffff16610a3f565b61048c610e04366004615605565b612bb1565b610e28610e173660046156df565b63bc197c8160e01b95945050505050565b6040516001600160e01b031990911681526020016104ad565b610e54610e4f366004615261565b612bd7565b6040516104ad91908151815260208083015190820152604080830151908201526060918201519181019190915260800190565b61048c610e953660046152fb565b612c9c565b6104be610ea8366004615261565b612f9a565b61048c610ebb366004615261565b613088565b61048c610ece36600461527a565b6131b5565b610ee6610ee1366004615261565b613201565b6040516104ad9190815181526020808301519082015260408083015190820152606080830151908201526080808301519082015260a0808301519082015260c0808301519082015260e08083015190820152610100808301519082015261012080830151908201526101408083015190820152610160808301519082015261018080830151908201526101a091820151918101919091526101c00190565b6105d8610f92366004615795565b613323565b61048c610fa53660046152fb565b61336f565b61048c610fb83660046152fb565b613549565b6105d8610fcb366004615261565b613893565b6104be6138da565b6104a1610fe63660046157ba565b6001600160a01b03918216600090815260076020908152604080832093909416825291909152205460ff1690565b6105d860195481565b610e2861102b3660046157ed565b63f23a6e6160e01b95945050505050565b611044613968565b61108f5760405162461bcd60e51b81526020600482015260176024820152762737ba1030baba3437b934bd32b2103a379036b4b73a1760491b60448201526064015b60405180910390fd5b6110a161109b60005490565b82613995565b6110bc826001604051806020016040528060008152506139ad565b5050565b60006110cb82613b50565b806110da57506110da82613bbc565b92915050565b6060600280546110ef90615851565b80601f016020809104026020016040519081016040528092919081815260200182805461111b90615851565b80156111685780601f1061113d57610100808354040283529160200191611168565b820191906000526020600020905b81548152906001019060200180831161114b57829003601f168201915b5050505050905090565b600061117d82613be1565b61119a576040516333d1c03960e21b815260040160405180910390fd5b506000908152600660205260409020546001600160a01b031690565b6009546001600160a01b031633146111e05760405162461bcd60e51b81526004016110869061588b565b601780546001600160a01b0319166001600160a01b0392909216919091179055565b8161120c81613c0c565b6112168383613cd0565b505050565b6009546001600160a01b031633146112455760405162461bcd60e51b81526004016110869061588b565b601680546001600160a01b0319166001600160a01b0392909216919091179055565b6009546001600160a01b031633146112915760405162461bcd60e51b81526004016110869061588b565b601880546001600160a01b0319166001600160a01b0392909216919091179055565b6112bb613968565b6112d75760405162461bcd60e51b81526004016110869061588b565b6112e081613d51565b50565b601a81815481106112f357600080fd5b90600052602060002090600e020160009150905080600001549080600101549080600201549080600301549080600401549080600501549080600601549080600701549080600801549080600901549080600a01549080600b01549080600c01549080600d015490508e565b826001600160a01b03811633146113795761137933613c0c565b611384848484613da3565b50505050565b6000611395600c5490565b82106113d35760405162461bcd60e51b815260206004820152600d60248201526c092dcecc2d8d2c840d2dcc8caf609b1b6044820152606401611086565b600c82815481106113e6576113e66158b3565b90600052602060002001549050919050565b60195482106114195760405162461bcd60e51b8152600401611086906158c9565b33611423836122f4565b6001600160a01b0316146114495760405162461bcd60e51b815260040161108690615900565b60165460405163bd85b03960e01b8152600481018390526000916001600160a01b03169063bd85b03990602401602060405180830381865afa158015611493573d6000803e3d6000fd5b505050506040513d601f19601f820116820180604052508101906114b79190615937565b116114fc5760405162461bcd60e51b8152602060048201526015602482015274125b9d985b1a59081a5d195b481d1bdad95b881251605a1b6044820152606401611086565b601654604051627eeac760e11b8152336004820152602481018390526000916001600160a01b03169062fdd58e90604401602060405180830381865afa15801561154a573d6000803e3d6000fd5b505050506040513d601f19601f8201168201806040525081019061156e9190615937565b116115bb5760405162461bcd60e51b815260206004820152601960248201527f4e6f7420746865206f776e6572206f6620746865206974656d000000000000006044820152606401611086565b60165460405163c19a4ef560e01b8152600481018390526000916001600160a01b03169063c19a4ef590602401602060405180830381865afa158015611605573d6000803e3d6000fd5b505050506040513d601f19601f82011682018060405250810190611629919061595b565b600084815260136020526040812091925083916001019083600481111561165257611652615978565b600481111561166357611663615978565b815260200190815260200160002054036116b75760405162461bcd60e51b8152602060048201526015602482015274125d195b48185b1c9958591e48195c5d5a5c1c1959605a1b6044820152606401611086565b6000838152601360205260408120600101818360048111156116db576116db615978565b60048111156116ec576116ec615978565b815260200190815260200160002054905080620f423f14611711576117118482611b83565b6000848152601360205260408120849160019091019084600481111561173957611739615978565b600481111561174a5761174a615978565b815260208101919091526040908101600020919091556016549051637921219560e11b81526001600160a01b039091169063f242432a906117969033903090889060019060040161598e565b600060405180830381600087803b1580156117b057600080fd5b505af11580156117c4573d6000803e3d6000fd5b5050601654604051633129e77360e01b815260048101879052600093506001600160a01b039091169150633129e77390602401600060405180830381865afa158015611814573d6000803e3d6000fd5b505050506040513d6000823e601f3d908101601f1916820160405261183c9190810190615a0b565b905080602001516011600087815260200190815260200160002060050160008282546118689190615ad0565b909155505060408082015160008781526011602052918220600601805491929091611894908490615ad0565b90915550506060810151600086815260116020526040812060030180549091906118bf908490615ad0565b909155505060a0810151600086815260116020526040812060040180549091906118ea908490615ad0565b9091555050604051849086907ff109238e78bd4a8f9c5112c1bcf42640a1a20f49b268497b2c3c18295445f15990600090a35050505050565b60008060008061193286611f90565b90945084925061ffff16905061271061194b8287615ae3565b6119559190615b10565b925050509250929050565b6009546001600160a01b0316331461198a5760405162461bcd60e51b81526004016110869061588b565b600082815260126020526040908190209051631e61f66f60e21b815260048101919091526024810182905273__$4f715ed8ecebe53e331cf92f67ef75a261$__90637987d9bc906044015b60006040518083038186803b1580156119ed57600080fd5b505af4158015611a01573d6000803e3d6000fd5b505050505050565b6009546001600160a01b03163314611a335760405162461bcd60e51b81526004016110869061588b565b6110bc8282613995565b611a45613968565b611aa55760405162461bcd60e51b815260206004820152602b60248201527f4e6f7420617574686f72697a656420746f20736574206f70657261746f72207260448201526a32b9ba3934b1ba34b7b71760a91b6064820152608401611086565b6112e081613dae565b6000818152601260209081526040808320601190925291829020915163585d151560e01b815273__$4f715ed8ecebe53e331cf92f67ef75a261$__9263585d151592611b0892909190600401918252602082015260400190565b60006040518083038186803b158015611b2057600080fd5b505af4158015611b34573d6000803e3d6000fd5b5050505050565b600081815260126020526040908190209051639ae1890560e01b8152600481019190915273__$4f715ed8ecebe53e331cf92f67ef75a261$__90639ae1890590602401611b08565b33611b8d836122f4565b6001600160a01b031614611bb35760405162461bcd60e51b815260040161108690615900565b601654604051633129e77360e01b8152600481018390526000916001600160a01b031690633129e77390602401600060405180830381865afa158015611bfd573d6000803e3d6000fd5b505050506040513d6000823e601f3d908101601f19168201604052611c259190810190615a0b565b60c0810151600085815260136020526040812092935090918491600190910190836004811115611c5757611c57615978565b6004811115611c6857611c68615978565b81526020019081526020016000205414611cb85760405162461bcd60e51b8152602060048201526011602482015270125d195b481b9bdd08195c5d5a5c1c1959607a1b6044820152606401611086565b8160200151601160008681526020019081526020016000206005016000828254611ce29190615b24565b909155505060408083015160008681526011602052918220600601805491929091611d0e908490615b24565b9091555050606082015160008581526011602052604081206003018054909190611d39908490615b24565b909155505060a082015160008581526011602052604081206004018054909190611d64908490615b24565b90915550506000848152601360205260408120620f423f91600190910190836004811115611d9457611d94615978565b6004811115611da557611da5615978565b815260208101919091526040908101600020919091556016549051637921219560e11b81526001600160a01b039091169063f242432a90611df19030903390889060019060040161598e565b600060405180830381600087803b158015611e0b57600080fd5b505af1158015611e1f573d6000803e3d6000fd5b50506040518592508691507f3932d74064b76bcfc68c5e51810daa5a2d561d79822e052848940db45f0e393590600090a350505050565b826001600160a01b0381163314611e7057611e7033613c0c565b611384848484613df5565b6112e0816001613e10565b600080611e92836122f4565b9050806001600160a01b0316846001600160a01b03161480611ed957506001600160a01b0380821660009081526007602090815260408083209388168352929052205460ff165b80611efd5750836001600160a01b0316611ef284611172565b6001600160a01b0316145b949350505050565b6018546001600160a01b03163314611f2f5760405162461bcd60e51b815260040161108690615b37565b60008281526012602090815260408083206011909252918290209151632d337ff560e01b8152600481019190915260248101919091526044810182905273__$4f715ed8ecebe53e331cf92f67ef75a261$__90632d337ff5906064016119d5565b6000818152600b60209081526040808320815180830190925280546001600160a01b031680835260019091015492820192909252829115611fd75780516020820151611ff1565b600a546001600160a01b03811690600160a01b900461ffff165b9250925050915091565b6009546001600160a01b031633146120255760405162461bcd60e51b81526004016110869061588b565b600082815260126020908152604080832060119092528083208151632d52a27360e01b815260048101939093526024830152604482018490525173__$4f715ed8ecebe53e331cf92f67ef75a261$__92632d52a2739260648082019391829003018186803b15801561209657600080fd5b505af41580156120aa573d6000803e3d6000fd5b5050506000838152601160209081526040918290206004015491519182528492507f745e4898b29226a973c2265f8722cf0a83c357f03c529c0e14c4e91d61cffbb591015b60405180910390a25050565b6121048261269e565b60155460405163bfa0fedb60e01b8152600481018390523360248201526001600160a01b039091169063bfa0fedb90604401600060405180830381600087803b15801561215057600080fd5b505af1158015612164573d6000803e3d6000fd5b505050506110bc600160195461217a9190615b24565b82612c9c565b601b818154811061219057600080fd5b600091825260209091206003909102018054600182018054919350906121b590615851565b80601f01602080910402602001604051908101604052809291908181526020018280546121e190615851565b801561222e5780601f106122035761010080835404028352916020019161222e565b820191906000526020600020905b81548152906001019060200180831161221157829003601f168201915b50505050509080600201805461224390615851565b80601f016020809104026020016040519081016040528092919081815260200182805461226f90615851565b80156122bc5780601f10612291576101008083540402835291602001916122bc565b820191906000526020600020905b81548152906001019060200180831161229f57829003601f168201915b5050505050905083565b6122ce613968565b6122ea5760405162461bcd60e51b81526004016110869061588b565b6110bc8282613fc3565b60006122ff82614062565b5192915050565b6018546001600160a01b031633146123305760405162461bcd60e51b815260040161108690615b37565b60008281526011602052604090819020601054915162833ed760e81b8152600481018290526024810184905260448101929092529073__$4f715ed8ecebe53e331cf92f67ef75a261$__9063833ed7009060640160006040518083038186803b15801561239c57600080fd5b505af41580156123b0573d6000803e3d6000fd5b50505050827f9a64fe26f5c4acf69f9833056562e90ac966327ef9edc96700beab568bbdac16836040516123e691815260200190565b60405180910390a2505050565b60006001600160a01b03821661241c576040516323d3ad8160e21b815260040160405180910390fd5b506001600160a01b03166000908152600560205260409020546001600160401b031690565b6018546001600160a01b0316331461246b5760405162461bcd60e51b815260040161108690615b37565b60008281526012602052604090819020905163051c31b960e31b815260048101919091526024810182905273__$4f715ed8ecebe53e331cf92f67ef75a261$__906328e18dc89060440160006040518083038186803b1580156124cd57600080fd5b505af41580156124e1573d6000803e3d6000fd5b5050506000838152601260209081526040918290205491519182528492507f54d8968607528ba0a500c8ca37b787bcc514c33b28b43efa81e195ffb88fee5191016120ef565b6000816010546110da9190615ae3565b60008181526012602090815260408083206011909252808320905163f9b5113760e01b815273__$4f715ed8ecebe53e331cf92f67ef75a261$__9263f9b511379261258d92600401918252602082015260400190565b602060405180830381865af41580156125aa573d6000803e3d6000fd5b505050506040513d601f19601f820116820180604052508101906110da9190615937565b6125d6613968565b61261c5760405162461bcd60e51b81526020600482015260176024820152762737ba1030baba3437b934bd32b2103a379036b4b73a1760491b6044820152606401611086565b61262f61262860005490565b848461417c565b50506113848484836139ad565b60008181526013602090815260409182902080548351818402810184019094528084526060939283018282801561269257602002820191906000526020600020905b81548152602001906001019080831161267e575b50505050509050919050565b601b5481106126ef5760405162461bcd60e51b815260206004820152601960248201527f496e76616c6964206368617261637465722074797065204944000000000000006044820152606401611086565b6126fa3360016141e0565b6127af601b8281548110612710576127106158b3565b9060005260206000209060030201600201805461272c90615851565b80601f016020809104026020016040519081016040528092919081815260200182805461275890615851565b80156127a55780601f1061277a576101008083540402835291602001916127a5565b820191906000526020600020905b81548152906001019060200180831161278857829003601f168201915b50505050506141fa565b6127ba60195461423d565b612872601954601b83815481106127d3576127d36158b3565b906000526020600020906003020160020180546127ef90615851565b80601f016020809104026020016040519081016040528092919081815260200182805461281b90615851565b80156128685780601f1061283d57610100808354040283529160200191612868565b820191906000526020600020905b81548152906001019060200180831161284b57829003601f168201915b5050505050613995565b61287b81614282565b61290760198054600090815260136020818152604080842060018086529081018352818520620f423f90819055865486528484528286208680528201845282862081905586548652848452828620600287528201845282862081905586548652848452828620600387528201845282862081905595548552928252808420600485529092019052902055565b6129108161460d565b6019805490600061292083615b78565b90915550506019546040518281527f1d70055ce2e34b710424c8ce5a6e724570ab0ff0cdffb52107ba6f70821d21b99060200160405180910390a250565b612966613968565b6129825760405162461bcd60e51b81526004016110869061588b565b6112e0816146da565b6060600380546110ef90615851565b6129a2613968565b6129be5760405162461bcd60e51b81526004016110869061588b565b6112168383836147b6565b60008581526011602052604090819020905163060f887160e31b8152600481018290526024810186905260448101859052606481018490526084810183905273__$4f715ed8ecebe53e331cf92f67ef75a261$__9063307c43889060a40160006040518083038186803b158015612a3f57600080fd5b505af4158015612a53573d6000803e3d6000fd5b50506040805188815260208101889052908101869052606081018590528892507f91880eb2655ae83ee3b14d19938b63c2f3077ecf91ef7b3118006e333490ab1f915060800160405180910390a2505050505050565b81612ab381613c0c565b611216838361487f565b6060816001600160401b03811115612ad757612ad7615093565b604051908082528060200260200182016040528015612b0a57816020015b6060815260200190600190039081612af55790505b50905060005b82811015612baa57612b7a30858584818110612b2e57612b2e6158b3565b9050602002810190612b409190615b91565b8080601f01602080910402602001604051908101604052809392919081815260200183838082843760009201919091525061491492505050565b828281518110612b8c57612b8c6158b3565b60200260200101819052508080612ba290615b78565b915050612b10565b5092915050565b836001600160a01b0381163314612bcb57612bcb33613c0c565b611b3485858585614940565b612c026040518060800160405280600081526020016000815260200160008152602001600081525090565b6000828152601260205260408120600201549003612c575760405162461bcd60e51b8152602060048201526012602482015271151bdad95b881251081b9bdd08199bdd5b9960721b6044820152606401611086565b50600090815260126020908152604091829020825160808101845281548152600182015492810192909252600281015492820192909252600390910154606082015290565b6019548210612cbd5760405162461bcd60e51b8152600401611086906158c9565b33612cc7836122f4565b6001600160a01b031614612ced5760405162461bcd60e51b815260040161108690615900565b60155460405163bd85b03960e01b8152600481018390526000916001600160a01b03169063bd85b03990602401602060405180830381865afa158015612d37573d6000803e3d6000fd5b505050506040513d601f19601f82011682018060405250810190612d5b9190615937565b11612d9b5760405162461bcd60e51b815260206004820152601060248201526f125b9d985b1a59081cdada5b1b08125160821b6044820152606401611086565b601554604051627eeac760e11b8152336004820152602481018390526000916001600160a01b03169062fdd58e90604401602060405180830381865afa158015612de9573d6000803e3d6000fd5b505050506040513d601f19601f82011682018060405250810190612e0d9190615937565b11612e5a5760405162461bcd60e51b815260206004820152601a60248201527f4e6f7420746865206f776e6572206f662074686520736b696c6c0000000000006044820152606401611086565b6000828152601360205260408120905b8154811015612ee95782828281548110612e8657612e866158b3565b906000526020600020015403612ed75760405162461bcd60e51b815260206004820152601660248201527514dada5b1b08185b1c9958591e48195c5d5a5c1c195960521b6044820152606401611086565b80612ee181615b78565b915050612e6a565b50601554604051637921219560e11b81526001600160a01b039091169063f242432a90612f219033903090879060019060040161598e565b600060405180830381600087803b158015612f3b57600080fd5b505af1158015612f4f573d6000803e3d6000fd5b505082546001810184556000848152602081209091018590556040518593508692507f1a72c2097d744cc43f0d03d975ee118086c0cb8f144355e9b1e20731bc7b84fc9190a3505050565b600081815260146020526040812080546060929190612fb890615851565b80601f0160208091040260200160405190810160405280929190818152602001828054612fe490615851565b80156130315780601f1061300657610100808354040283529160200191613031565b820191906000526020600020905b81548152906001019060200180831161301457829003601f168201915b505050505090506000815111156130485792915050565b600061305384614984565b90508061305f85614b20565b604051602001613070929190615bde565b60405160208183030381529060405292505050919050565b33613092826122f4565b6001600160a01b0316146130b85760405162461bcd60e51b815260040161108690615900565b6000818152601360205260408120600201549081900361310e5760405162461bcd60e51b8152602060048201526011602482015270139bc818db185cdcc8195c5d5a5c1c1959607a1b6044820152606401611086565b604051819083907f7e61635513fe31aafbbe8d9f28e1480aaac99ddecc10839a6fad06f460a8fb1d90600090a3600082815260136020526040808220600201919091556017549051637921219560e11b81526001600160a01b039091169063f242432a906131879030903390869060019060040161598e565b600060405180830381600087803b1580156131a157600080fd5b505af1158015611a01573d6000803e3d6000fd5b6009546001600160a01b031633146131df5760405162461bcd60e51b81526004016110869061588b565b601580546001600160a01b0319166001600160a01b0392909216919091179055565b613273604051806101c0016040528060008152602001600081526020016000815260200160008152602001600081526020016000815260200160008152602001600081526020016000815260200160008152602001600081526020016000815260200160008152602001600081525090565b5060009081526011602090815260409182902082516101c081018452815481526001820154928101929092526002810154928201929092526003820154606082015260048201546080820152600582015460a0820152600682015460c0820152600782015460e082015260088201546101008201526009820154610120820152600a820154610140820152600b820154610160820152600c820154610180820152600d909101546101a082015290565b60008281526013602052604081206001018183600481111561334757613347615978565b600481111561335857613358615978565b815260200190815260200160002054905092915050565b33613379836122f4565b6001600160a01b03161461339f5760405162461bcd60e51b815260040161108690615900565b6000828152601360205260408120805490915b82548110156133f857838382815481106133ce576133ce6158b3565b9060005260206000200154036133e6578091506133f8565b806133f081615b78565b9150506133b2565b508154811061343b5760405162461bcd60e51b815260206004820152600f60248201526e14dada5b1b081b9bdd08199bdd5b99608a1b6044820152606401611086565b601554604051637921219560e11b81526001600160a01b039091169063f242432a906134729030903390889060019060040161598e565b600060405180830381600087803b15801561348c57600080fd5b505af11580156134a0573d6000803e3d6000fd5b505083548492506134b49150600190615b24565b815481106134c4576134c46158b3565b90600052602060002001548282815481106134e1576134e16158b3565b9060005260206000200181905550818054806134ff576134ff615c0d565b6001900381819060005260206000200160009055905582847fae1b435680f86011fc1110e59d5c02688575495657e17f93cd009273cdc5feba60405160405180910390a350505050565b601954821061356a5760405162461bcd60e51b8152600401611086906158c9565b33613574836122f4565b6001600160a01b03161461359a5760405162461bcd60e51b815260040161108690615900565b60175460405163bd85b03960e01b8152600481018390526000916001600160a01b03169063bd85b03990602401602060405180830381865afa1580156135e4573d6000803e3d6000fd5b505050506040513d601f19601f820116820180604052508101906136089190615937565b116136485760405162461bcd60e51b815260206004820152601060248201526f125b9d985b1a590818db185cdcc8125160821b6044820152606401611086565b601754604051627eeac760e11b8152336004820152602481018390526000916001600160a01b03169062fdd58e90604401602060405180830381865afa158015613696573d6000803e3d6000fd5b505050506040513d601f19601f820116820180604052508101906136ba9190615937565b116137075760405162461bcd60e51b815260206004820152601a60248201527f4e6f7420746865206f776e6572206f662074686520636c6173730000000000006044820152606401611086565b6000828152601360205260409020600201548190036137615760405162461bcd60e51b815260206004820152601660248201527510db185cdcc8185b1c9958591e48195c5d5a5c1c195960521b6044820152606401611086565b60008281526013602052604090206002015480156137e357601754604051637921219560e11b81526001600160a01b039091169063f242432a906137b09030903390869060019060040161598e565b600060405180830381600087803b1580156137ca57600080fd5b505af11580156137de573d6000803e3d6000fd5b505050505b600083815260136020526040908190206002018390556017549051637921219560e11b81526001600160a01b039091169063f242432a9061382f9033903090879060019060040161598e565b600060405180830381600087803b15801561384957600080fd5b505af115801561385d573d6000803e3d6000fd5b50506040518492508591507f9ec2a1abbc94cda98705c1bcace42186fb5bb291c4f4e5a55afb5dbc174e9ce390600090a3505050565b60008181526012602052604080822090516308d9e75160e11b8152600481019190915273__$4f715ed8ecebe53e331cf92f67ef75a261$__906311b3cea29060240161258d565b600880546138e790615851565b80601f016020809104026020016040519081016040528092919081815260200182805461391390615851565b80156139605780601f1061393557610100808354040283529160200191613960565b820191906000526020600020905b81548152906001019060200180831161394357829003601f168201915b505050505081565b600061397c6009546001600160a01b031690565b6001600160a01b0316336001600160a01b031614905090565b60008281526014602052604090206112168282615c69565b6000546001600160a01b0384166139d657604051622e076360e81b815260040160405180910390fd5b826000036139f75760405163b562e8dd60e01b815260040160405180910390fd5b6001600160a01b038416600081815260056020908152604080832080546fffffffffffffffffffffffffffffffff1981166001600160401b038083168b0181169182176801000000000000000067ffffffffffffffff1990941690921783900481168b01811690920217909155858452600490925290912080546001600160e01b0319168317600160a01b42909316929092029190911790558190818501903b15613b0d575b60405182906001600160a01b03881690600090600080516020615e1b833981519152908290a4613ad66000878480600101955087614c20565b613af3576040516368d2bf6b60e11b815260040160405180910390fd5b808210613a9d578260005414613b0857600080fd5b613b40565b5b6040516001830192906001600160a01b03881690600090600080516020615e1b833981519152908290a4808210613b0e575b5060009081556113849085838684565b60006301ffc9a760e01b6001600160e01b031983161480613b8157506380ac58cd60e01b6001600160e01b03198316145b80613b9c5750635b5e139f60e01b6001600160e01b03198316145b806110da57506001600160e01b0319821663152a902d60e11b1492915050565b60006001600160e01b03198216630271189760e51b14806110da57506110da82613b50565b60008054821080156110da575050600090815260046020526040902054600160e01b900460ff161590565b600e5460ff16156112e0576daaeb6d7670e522a718067333cd4e3b156112e057604051633185c44d60e21b81523060048201526001600160a01b03821660248201526daaeb6d7670e522a718067333cd4e9063c617113490604401602060405180830381865afa158015613c84573d6000803e3d6000fd5b505050506040513d601f19601f82011682018060405250810190613ca89190615d28565b6112e057604051633b79c77360e21b81526001600160a01b0382166004820152602401611086565b6000613cdb826122f4565b9050806001600160a01b0316836001600160a01b031603613d0f5760405163250fdee360e21b815260040160405180910390fd5b336001600160a01b03821614613d4657613d298133610fe6565b613d46576040516367d9dca160e11b815260040160405180910390fd5b611216838383614d0b565b600980546001600160a01b038381166001600160a01b0319831681179093556040519116919082907f8292fce18fa69edf4db7b94ea2e58241df0ae57f97e0a6c9b29067028bf92d7690600090a35050565b611216838383614d67565b600e805460ff19168215159081179091556040519081527f38475885990d8dfe9ca01f0ef160a1b5514426eab9ddbc953a3353410ba780969060200160405180910390a150565b61121683838360405180602001604052806000815250612bb1565b6000613e1b83614062565b80519091508215613e81576000336001600160a01b0383161480613e445750613e448233610fe6565b80613e5f575033613e5486611172565b6001600160a01b0316145b905080613e7f57604051632ce44b5f60e11b815260040160405180910390fd5b505b613e8d60008583614d0b565b6001600160a01b0380821660008181526005602090815260408083208054600160801b6000196001600160401b0380841691909101811667ffffffffffffffff198416811783900482166001908101831690930277ffffffffffffffff0000000000000000ffffffffffffffff19909416179290921783558b86526004909452828520805460ff60e01b1942909316600160a01b026001600160e01b03199091169097179690961716600160e01b178555918901808452922080549194909116613f8b576000548214613f8b57805460208701516001600160401b0316600160a01b026001600160e01b03199091166001600160a01b038716171781555b5050604051869250600091506001600160a01b03841690600080516020615e1b833981519152908390a4505060018054810190555050565b6127108111156140075760405162461bcd60e51b815260206004820152600f60248201526e45786365656473206d61782062707360881b6044820152606401611086565b600a80546001600160a01b0384166001600160b01b03199091168117600160a01b61ffff851602179091556040518281527f90d7ec04bcb8978719414f82e52e4cb651db41d0e6f8cea6118c2191e6183adb906020016120ef565b60408051606081018252600080825260208201819052918101919091528160005481101561416357600081815260046020908152604091829020825160608101845290546001600160a01b0381168252600160a01b81046001600160401b031692820192909252600160e01b90910460ff161515918101829052906141615780516001600160a01b0316156140f8579392505050565b5060001901600081815260046020908152604091829020825160608101845290546001600160a01b038116808352600160a01b82046001600160401b031693830193909352600160e01b900460ff161515928101929092521561415c579392505050565b6140f8565b505b604051636f96cda160e11b815260040160405180910390fd5b6000806141898486615ad0565b600c8054600181019091557fdf6966c971051c3d54ec59162606531493a51404a002842f56009d7e5cf4a8c7018190556000818152600d602052604090209092508291506141d78482615c69565b50935093915050565b6110bc8282604051806020016040528060008152506139ad565b6112e08160405160240161420e919061524e565b60408051601f198184030181529190526020810180516001600160e01b031663104c13eb60e21b179052614f40565b6112e08160405160240161425391815260200190565b60408051601f198184030181529190526020810180516001600160e01b031663f82c50f160e01b179052614f40565b6000604051806101c001604052806019548152602001601a84815481106142ab576142ab6158b3565b90600052602060002090600e0201600101548152602001601a84815481106142d5576142d56158b3565b90600052602060002090600e0201600201548152602001601a84815481106142ff576142ff6158b3565b90600052602060002090600e0201600301548152602001601a8481548110614329576143296158b3565b90600052602060002090600e0201600401548152602001601a8481548110614353576143536158b3565b90600052602060002090600e0201600501548152602001601a848154811061437d5761437d6158b3565b90600052602060002090600e0201600601548152602001601a84815481106143a7576143a76158b3565b90600052602060002090600e0201600701548152602001601a84815481106143d1576143d16158b3565b90600052602060002090600e0201600801548152602001601a84815481106143fb576143fb6158b3565b90600052602060002090600e0201600901548152602001601a8481548110614425576144256158b3565b90600052602060002090600e0201600a01548152602001601a848154811061444f5761444f6158b3565b90600052602060002090600e0201600b01548152602001601a8481548110614479576144796158b3565b90600052602060002090600e0201600c0154815260200183815250905080601160006019548152602001908152602001600020600082015181600001556020820151816001015560408201518160020155606082015181600301556080820151816004015560a0820151816005015560c0820151816006015560e082015181600701556101008201518160080155610120820151816009015561014082015181600a015561016082015181600b015561018082015181600c01556101a082015181600d01559050506019547f672e8a5a5ea4546e9da80d8c45321ef467df52d7498dae7ec971387bc464bc6682602001518360400151846060015185608001518660a001518760c001518860e001518961010001518a61012001518b61014001518c61016001518d61018001516040516120ef9c9b9a999897969594939291909b8c5260208c019a909a5260408b019890985260608a0196909652608089019490945260a088019290925260c087015260e08601526101008501526101208401526101408301526101608201526101800190565b6000604051806080016040528060648152602001601a8481548110614634576146346158b3565b60009182526020808320600e929092029091016004015483524283820181905260409384015260198054835260128252918390208451808255858301516001830181905586860151600284018190556060808901516003909501859055955487519384529483019190915294810194909452918301919091529192507f19da20281546911260f62aa6f6b5e92d810a46f937d6030f91dca6442df4dfb4906080016120ef565b6000600880546146e990615851565b80601f016020809104026020016040519081016040528092919081815260200182805461471590615851565b80156147625780601f1061473757610100808354040283529160200191614762565b820191906000526020600020905b81548152906001019060200180831161474557829003601f168201915b5050505050905081600890816147789190615c69565b507fc9c7c3fe08b88b4df9d4d47ef47d2c43d55c025a0ba88ca442580ed9e7348a1681836040516147aa929190615d45565b60405180910390a15050565b6127108111156147fa5760405162461bcd60e51b815260206004820152600f60248201526e45786365656473206d61782062707360881b6044820152606401611086565b6040805180820182526001600160a01b0384811680835260208084018681526000898152600b8352869020945185546001600160a01b031916941693909317845591516001909301929092559151838152909185917f7365cf4122f072a3365c20d54eff9b38d73c096c28e1892ec8f5b0e403a0f12d910160405180910390a3505050565b336001600160a01b038316036148a85760405163b06307db60e01b815260040160405180910390fd5b3360008181526007602090815260408083206001600160a01b03871680855290835292819020805460ff191686151590811790915590519081529192917f17307eab39ab6107e8899845ad3d59bd9653f200f220920489ca2b5937696c31910160405180910390a35050565b60606149398383604051806060016040528060278152602001615df460279139614f61565b9392505050565b61494b848484614d67565b6001600160a01b0383163b156113845761496784848484614c20565b611384576040516368d2bf6b60e11b815260040160405180910390fd5b60606000614991600c5490565b90506000600c8054806020026020016040519081016040528092919081815260200182805480156149e157602002820191906000526020600020905b8154815260200190600101908083116149cd575b5050505050905060005b82811015614ae557818181518110614a0557614a056158b3565b6020026020010151851015614ad357600d6000838381518110614a2a57614a2a6158b3565b602002602001015181526020019081526020016000208054614a4b90615851565b80601f0160208091040260200160405190810160405280929190818152602001828054614a7790615851565b8015614ac45780601f10614a9957610100808354040283529160200191614ac4565b820191906000526020600020905b815481529060010190602001808311614aa757829003601f168201915b50505050509350505050919050565b614ade600182615ad0565b90506149eb565b5060405162461bcd60e51b815260206004820152600f60248201526e125b9d985b1a59081d1bdad95b9259608a1b6044820152606401611086565b606081600003614b475750506040805180820190915260018152600360fc1b602082015290565b8160005b8115614b715780614b5b81615b78565b9150614b6a9050600a83615b10565b9150614b4b565b6000816001600160401b03811115614b8b57614b8b615093565b6040519080825280601f01601f191660200182016040528015614bb5576020820181803683370190505b5090505b8415611efd57614bca600183615b24565b9150614bd7600a86615d73565b614be2906030615ad0565b60f81b818381518110614bf757614bf76158b3565b60200101906001600160f81b031916908160001a905350614c19600a86615b10565b9450614bb9565b604051630a85bd0160e11b81526000906001600160a01b0385169063150b7a0290614c55903390899088908890600401615d87565b6020604051808303816000875af1925050508015614c90575060408051601f3d908101601f19168201909252614c8d91810190615dba565b60015b614cee573d808015614cbe576040519150601f19603f3d011682016040523d82523d6000602084013e614cc3565b606091505b508051600003614ce6576040516368d2bf6b60e11b815260040160405180910390fd5b805181602001fd5b6001600160e01b031916630a85bd0160e11b149050949350505050565b60008281526006602052604080822080546001600160a01b0319166001600160a01b0387811691821790925591518593918516917f8c5be1e5ebec7d5bd14f71427d1e84f3dd0314c0f7b2291e5b200ac8c7c3b92591a4505050565b6000614d7282614062565b9050836001600160a01b031681600001516001600160a01b031614614da95760405162a1148160e81b815260040160405180910390fd5b6000336001600160a01b0386161480614dc75750614dc78533610fe6565b80614de2575033614dd784611172565b6001600160a01b0316145b905080614e0257604051632ce44b5f60e11b815260040160405180910390fd5b6001600160a01b038416614e2957604051633a954ecd60e21b815260040160405180910390fd5b614e3560008487614d0b565b6001600160a01b038581166000908152600560209081526040808320805467ffffffffffffffff198082166001600160401b0392831660001901831617909255898616808652838620805493841693831660019081018416949094179055898652600490945282852080546001600160e01b031916909417600160a01b42909216919091021783558701808452922080549193909116614f09576000548214614f0957805460208601516001600160401b0316600160a01b026001600160e01b03199091166001600160a01b038a16171781555b50505082846001600160a01b0316866001600160a01b0316600080516020615e1b83398151915260405160405180910390a4611b34565b80516a636f6e736f6c652e6c6f67602083016000808483855afa5050505050565b60606001600160a01b0384163b614fc95760405162461bcd60e51b815260206004820152602660248201527f416464726573733a2064656c65676174652063616c6c20746f206e6f6e2d636f6044820152651b9d1c9858dd60d21b6064820152608401611086565b600080856001600160a01b031685604051614fe49190615dd7565b600060405180830381855af49150503d806000811461501f576040519150601f19603f3d011682016040523d82523d6000602084013e615024565b606091505b509150915061503482828661503e565b9695505050505050565b6060831561504d575081614939565b82511561505d5782518084602001fd5b8160405162461bcd60e51b8152600401611086919061524e565b80356001600160a01b038116811461508e57600080fd5b919050565b634e487b7160e01b600052604160045260246000fd5b60405160e081016001600160401b03811182821017156150cb576150cb615093565b60405290565b604051601f8201601f191681016001600160401b03811182821017156150f9576150f9615093565b604052919050565b60006001600160401b0382111561511a5761511a615093565b50601f01601f191660200190565b600082601f83011261513957600080fd5b813561514c61514782615101565b6150d1565b81815284602083860101111561516157600080fd5b816020850160208301376000918101602001919091529392505050565b6000806040838503121561519157600080fd5b61519a83615077565b915060208301356001600160401b038111156151b557600080fd5b6151c185828601615128565b9150509250929050565b6001600160e01b0319811681146112e057600080fd5b6000602082840312156151f357600080fd5b8135614939816151cb565b60005b83811015615219578181015183820152602001615201565b50506000910152565b6000815180845261523a8160208601602086016151fe565b601f01601f19169290920160200192915050565b6020815260006149396020830184615222565b60006020828403121561527357600080fd5b5035919050565b60006020828403121561528c57600080fd5b61493982615077565b600080604083850312156152a857600080fd5b6152b183615077565b946020939093013593505050565b6000806000606084860312156152d457600080fd5b6152dd84615077565b92506152eb60208501615077565b9150604084013590509250925092565b6000806040838503121561530e57600080fd5b50508035926020909101359150565b6000806040838503121561533057600080fd5b8235915060208301356001600160401b038111156151b557600080fd5b80151581146112e057600080fd5b60006020828403121561536d57600080fd5b81356149398161534d565b8381526060602082015260006153916060830185615222565b82810360408401526150348185615222565b600080600080608085870312156153b957600080fd5b6153c285615077565b93506020850135925060408501356001600160401b03808211156153e557600080fd5b6153f188838901615128565b9350606087013591508082111561540757600080fd5b5061541487828801615128565b91505092959194509250565b6020808252825182820181905260009190848201906040850190845b818110156154585783518352928401929184019160010161543c565b50909695505050505050565b60006020828403121561547657600080fd5b81356001600160401b0381111561548c57600080fd5b611efd84828501615128565b6000806000606084860312156154ad57600080fd5b833592506152eb60208501615077565b600080600080600060a086880312156154d557600080fd5b505083359560208501359550604085013594606081013594506080013592509050565b6000806040838503121561550b57600080fd5b61551483615077565b915060208301356155248161534d565b809150509250929050565b6000806020838503121561554257600080fd5b82356001600160401b038082111561555957600080fd5b818501915085601f83011261556d57600080fd5b81358181111561557c57600080fd5b8660208260051b850101111561559157600080fd5b60209290920196919550909350505050565b6000602080830181845280855180835260408601915060408160051b870101925083870160005b828110156155f857603f198886030184526155e6858351615222565b945092850192908501906001016155ca565b5092979650505050505050565b6000806000806080858703121561561b57600080fd5b61562485615077565b935061563260208601615077565b92506040850135915060608501356001600160401b0381111561565457600080fd5b61541487828801615128565b600082601f83011261567157600080fd5b813560206001600160401b0382111561568c5761568c615093565b8160051b61569b8282016150d1565b92835284810182019282810190878511156156b557600080fd5b83870192505b848310156156d4578235825291830191908301906156bb565b979650505050505050565b600080600080600060a086880312156156f757600080fd5b61570086615077565b945061570e60208701615077565b935060408601356001600160401b038082111561572a57600080fd5b61573689838a01615660565b9450606088013591508082111561574c57600080fd5b61575889838a01615660565b9350608088013591508082111561576e57600080fd5b5061577b88828901615128565b9150509295509295909350565b600581106112e057600080fd5b600080604083850312156157a857600080fd5b82359150602083013561552481615788565b600080604083850312156157cd57600080fd5b6157d683615077565b91506157e460208401615077565b90509250929050565b600080600080600060a0868803121561580557600080fd5b61580e86615077565b945061581c60208701615077565b9350604086013592506060860135915060808601356001600160401b0381111561584557600080fd5b61577b88828901615128565b600181811c9082168061586557607f821691505b60208210810361588557634e487b7160e01b600052602260045260246000fd5b50919050565b6020808252600e908201526d139bdd08185d5d1a1bdc9a5e995960921b604082015260600190565b634e487b7160e01b600052603260045260246000fd5b6020808252601a908201527f496e76616c69642063686172616374657220746f6b656e204944000000000000604082015260600190565b6020808252601e908201527f4e6f7420746865206f776e6572206f6620746865206368617261637465720000604082015260600190565b60006020828403121561594957600080fd5b5051919050565b805161508e81615788565b60006020828403121561596d57600080fd5b815161493981615788565b634e487b7160e01b600052602160045260246000fd5b6001600160a01b0394851681529290931660208301526040820152606081019190915260a06080820181905260009082015260c00190565b600082601f8301126159d757600080fd5b81516159e561514782615101565b8181528460208386010111156159fa57600080fd5b611efd8260208301602087016151fe565b600060208284031215615a1d57600080fd5b81516001600160401b0380821115615a3457600080fd5b9083019060e08286031215615a4857600080fd5b615a506150a9565b825182811115615a5f57600080fd5b615a6b878286016159c6565b8252506020830151602082015260408301516040820152606083015160608201526080830151608082015260a083015160a0820152615aac60c08401615950565b60c082015295945050505050565b634e487b7160e01b600052601160045260246000fd5b808201808211156110da576110da615aba565b80820281158282048414176110da576110da615aba565b634e487b7160e01b600052601260045260246000fd5b600082615b1f57615b1f615afa565b500490565b818103818111156110da576110da615aba565b60208082526021908201527f43616c6c6572206973206e6f742074686520426174746c6520636f6e747261636040820152601d60fa1b606082015260800190565b600060018201615b8a57615b8a615aba565b5060010190565b6000808335601e19843603018112615ba857600080fd5b8301803591506001600160401b03821115615bc257600080fd5b602001915036819003821315615bd757600080fd5b9250929050565b60008351615bf08184602088016151fe565b835190830190615c048183602088016151fe565b01949350505050565b634e487b7160e01b600052603160045260246000fd5b601f82111561121657600081815260208120601f850160051c81016020861015615c4a5750805b601f850160051c820191505b81811015611a0157828155600101615c56565b81516001600160401b03811115615c8257615c82615093565b615c9681615c908454615851565b84615c23565b602080601f831160018114615ccb5760008415615cb35750858301515b600019600386901b1c1916600185901b178555611a01565b600085815260208120601f198616915b82811015615cfa57888601518255948401946001909101908401615cdb565b5085821015615d185787850151600019600388901b60f8161c191681555b5050505050600190811b01905550565b600060208284031215615d3a57600080fd5b81516149398161534d565b604081526000615d586040830185615222565b8281036020840152615d6a8185615222565b95945050505050565b600082615d8257615d82615afa565b500690565b6001600160a01b038581168252841660208201526040810183905260806060820181905260009061503490830184615222565b600060208284031215615dcc57600080fd5b8151614939816151cb565b60008251615de98184602087016151fe565b919091019291505056fe416464726573733a206c6f772d6c6576656c2064656c65676174652063616c6c206661696c6564ddf252ad1be2c89b69c2b068fc378daa952ba7f163c4a11628f55a4df523b3efa2646970667358221220f6bbb43e527d4300ba8c1b39b98bee9197268fa46bcb99aedd9d61ac533d062b64736f6c63430008110033697066733a2f2f516d5a7a426d6a726a6e3734324478387750486865713858627a6b6f775753367871764c4855525453764c51436f697066733a2f2f516d5579576d7072793853726939426d734853514d444250746e505a6b6f583647533777385a697a706e46583776697066733a2f2f516d545945695869547a4268597577755137626a533561714368726566454a5a33376173384244724b59786b316a",
  "linkReferences": {
    "contracts/StatCalculation.sol": {
      "StatCalculation": [
        {
          "length": 20,
          "start": 9251
        },
        {
          "length": 20,
          "start": 9538
        },
        {
          "length": 20,
          "start": 9677
        },
        {
          "length": 20,
          "start": 10714
        },
        {
          "length": 20,
          "start": 10957
        },
        {
          "length": 20,
          "start": 11731
        },
        {
          "length": 20,
          "start": 12036
        },
        {
          "length": 20,
          "start": 12234
        },
        {
          "length": 20,
          "start": 13430
        },
        {
          "length": 20,
          "start": 17188
        }
      ]
    }
  },
  "deployedLinkReferences": {
    "contracts/StatCalculation.sol": {
      "StatCalculation": [
        {
          "length": 20,
          "start": 6583
        },
        {
          "length": 20,
          "start": 6870
        },
        {
          "length": 20,
          "start": 7009
        },
        {
          "length": 20,
          "start": 8046
        },
        {
          "length": 20,
          "start": 8289
        },
        {
          "length": 20,
          "start": 9063
        },
        {
          "length": 20,
          "start": 9368
        },
        {
          "length": 20,
          "start": 9566
        },
        {
          "length": 20,
          "start": 10762
        },
        {
          "length": 20,
          "start": 14520
        }
      ]
    }
  }
}