{
  "_format": "hh-sol-artifact-1",
  "contractName": "CompositeTokens",
  "sourceName": "contracts/CompositeTokens.sol",
  "abi": [
    {
      "inputs": [
        {
          "internalType": "address",
          "name": "_battleSkillsAddress",
          "type": "address"
        },
        {
          "internalType": "address",
          "name": "_battleItemsAddress",
          "type": "address"
        },
        {
          "internalType": "address",
          "name": "_battleEffectsAddress",
          "type": "address"
        }
      ],
      "stateMutability": "nonpayable",
      "type": "constructor"
    },
    {
      "inputs": [
        {
          "internalType": "address",
          "name": "operator",
          "type": "address"
        }
      ],
      "name": "OperatorNotAllowed",
      "type": "error"
    },
    {
      "anonymous": false,
      "inputs": [
        {
          "indexed": true,
          "internalType": "address",
          "name": "_owner",
          "type": "address"
        },
        {
          "indexed": true,
          "internalType": "address",
          "name": "_operator",
          "type": "address"
        },
        {
          "indexed": false,
          "internalType": "bool",
          "name": "_approved",
          "type": "bool"
        }
      ],
      "name": "ApprovalForAll",
      "type": "event"
    },
    {
      "anonymous": false,
      "inputs": [
        {
          "indexed": false,
          "internalType": "string",
          "name": "prevURI",
          "type": "string"
        },
        {
          "indexed": false,
          "internalType": "string",
          "name": "newURI",
          "type": "string"
        }
      ],
      "name": "ContractURIUpdated",
      "type": "event"
    },
    {
      "anonymous": false,
      "inputs": [
        {
          "indexed": true,
          "internalType": "address",
          "name": "newRoyaltyRecipient",
          "type": "address"
        },
        {
          "indexed": false,
          "internalType": "uint256",
          "name": "newRoyaltyBps",
          "type": "uint256"
        }
      ],
      "name": "DefaultRoyalty",
      "type": "event"
    },
    {
      "anonymous": false,
      "inputs": [
        {
          "indexed": false,
          "internalType": "bool",
          "name": "restriction",
          "type": "bool"
        }
      ],
      "name": "OperatorRestriction",
      "type": "event"
    },
    {
      "anonymous": false,
      "inputs": [
        {
          "indexed": true,
          "internalType": "address",
          "name": "prevOwner",
          "type": "address"
        },
        {
          "indexed": true,
          "internalType": "address",
          "name": "newOwner",
          "type": "address"
        }
      ],
      "name": "OwnerUpdated",
      "type": "event"
    },
    {
      "anonymous": false,
      "inputs": [
        {
          "indexed": true,
          "internalType": "uint256",
          "name": "tokenId",
          "type": "uint256"
        },
        {
          "indexed": true,
          "internalType": "address",
          "name": "royaltyRecipient",
          "type": "address"
        },
        {
          "indexed": false,
          "internalType": "uint256",
          "name": "royaltyBps",
          "type": "uint256"
        }
      ],
      "name": "RoyaltyForToken",
      "type": "event"
    },
    {
      "anonymous": false,
      "inputs": [
        {
          "indexed": true,
          "internalType": "address",
          "name": "_operator",
          "type": "address"
        },
        {
          "indexed": true,
          "internalType": "address",
          "name": "_from",
          "type": "address"
        },
        {
          "indexed": true,
          "internalType": "address",
          "name": "_to",
          "type": "address"
        },
        {
          "indexed": false,
          "internalType": "uint256[]",
          "name": "_ids",
          "type": "uint256[]"
        },
        {
          "indexed": false,
          "internalType": "uint256[]",
          "name": "_values",
          "type": "uint256[]"
        }
      ],
      "name": "TransferBatch",
      "type": "event"
    },
    {
      "anonymous": false,
      "inputs": [
        {
          "indexed": true,
          "internalType": "address",
          "name": "_operator",
          "type": "address"
        },
        {
          "indexed": true,
          "internalType": "address",
          "name": "_from",
          "type": "address"
        },
        {
          "indexed": true,
          "internalType": "address",
          "name": "_to",
          "type": "address"
        },
        {
          "indexed": false,
          "internalType": "uint256",
          "name": "_id",
          "type": "uint256"
        },
        {
          "indexed": false,
          "internalType": "uint256",
          "name": "_value",
          "type": "uint256"
        }
      ],
      "name": "TransferSingle",
      "type": "event"
    },
    {
      "anonymous": false,
      "inputs": [
        {
          "indexed": false,
          "internalType": "string",
          "name": "_value",
          "type": "string"
        },
        {
          "indexed": true,
          "internalType": "uint256",
          "name": "_id",
          "type": "uint256"
        }
      ],
      "name": "URI",
      "type": "event"
    },
    {
      "inputs": [],
      "name": "OPERATOR_FILTER_REGISTRY",
      "outputs": [
        {
          "internalType": "contract IOperatorFilterRegistry",
          "name": "",
          "type": "address"
        }
      ],
      "stateMutability": "view",
      "type": "function"
    },
    {
      "inputs": [
        {
          "internalType": "address",
          "name": "",
          "type": "address"
        },
        {
          "internalType": "uint256",
          "name": "",
          "type": "uint256"
        }
      ],
      "name": "balanceOf",
      "outputs": [
        {
          "internalType": "uint256",
          "name": "",
          "type": "uint256"
        }
      ],
      "stateMutability": "view",
      "type": "function"
    },
    {
      "inputs": [
        {
          "internalType": "address[]",
          "name": "accounts",
          "type": "address[]"
        },
        {
          "internalType": "uint256[]",
          "name": "ids",
          "type": "uint256[]"
        }
      ],
      "name": "balanceOfBatch",
      "outputs": [
        {
          "internalType": "uint256[]",
          "name": "",
          "type": "uint256[]"
        }
      ],
      "stateMutability": "view",
      "type": "function"
    },
    {
      "inputs": [
        {
          "internalType": "address",
          "name": "_to",
          "type": "address"
        },
        {
          "internalType": "uint256[]",
          "name": "_tokenIds",
          "type": "uint256[]"
        },
        {
          "internalType": "uint256[]",
          "name": "_amounts",
          "type": "uint256[]"
        },
        {
          "internalType": "string",
          "name": "_baseURI",
          "type": "string"
        }
      ],
      "name": "batchMintTo",
      "outputs": [],
      "stateMutability": "nonpayable",
      "type": "function"
    },
    {
      "inputs": [],
      "name": "battleEffects",
      "outputs": [
        {
          "internalType": "contract BattleEffects",
          "name": "",
          "type": "address"
        }
      ],
      "stateMutability": "view",
      "type": "function"
    },
    {
      "inputs": [],
      "name": "battleItems",
      "outputs": [
        {
          "internalType": "contract BattleItems",
          "name": "",
          "type": "address"
        }
      ],
      "stateMutability": "view",
      "type": "function"
    },
    {
      "inputs": [],
      "name": "battleSkills",
      "outputs": [
        {
          "internalType": "contract BattleSkills",
          "name": "",
          "type": "address"
        }
      ],
      "stateMutability": "view",
      "type": "function"
    },
    {
      "inputs": [
        {
          "internalType": "address",
          "name": "_owner",
          "type": "address"
        },
        {
          "internalType": "uint256",
          "name": "_tokenId",
          "type": "uint256"
        },
        {
          "internalType": "uint256",
          "name": "_amount",
          "type": "uint256"
        }
      ],
      "name": "burn",
      "outputs": [],
      "stateMutability": "nonpayable",
      "type": "function"
    },
    {
      "inputs": [
        {
          "internalType": "address",
          "name": "_owner",
          "type": "address"
        },
        {
          "internalType": "uint256[]",
          "name": "_tokenIds",
          "type": "uint256[]"
        },
        {
          "internalType": "uint256[]",
          "name": "_amounts",
          "type": "uint256[]"
        }
      ],
      "name": "burnBatch",
      "outputs": [],
      "stateMutability": "nonpayable",
      "type": "function"
    },
    {
      "inputs": [
        {
          "internalType": "uint256",
          "name": "_compositeId",
          "type": "uint256"
        },
        {
          "internalType": "address",
          "name": "_caller",
          "type": "address"
        }
      ],
      "name": "burnComposite",
      "outputs": [],
      "stateMutability": "nonpayable",
      "type": "function"
    },
    {
      "inputs": [
        {
          "internalType": "uint256",
          "name": "tokenId",
          "type": "uint256"
        }
      ],
      "name": "burnCompositeToken",
      "outputs": [],
      "stateMutability": "nonpayable",
      "type": "function"
    },
    {
      "inputs": [],
      "name": "contractURI",
      "outputs": [
        {
          "internalType": "string",
          "name": "",
          "type": "string"
        }
      ],
      "stateMutability": "view",
      "type": "function"
    },
    {
      "inputs": [
        {
          "internalType": "uint256",
          "name": "tokenId1",
          "type": "uint256"
        },
        {
          "internalType": "uint256",
          "name": "tokenId2",
          "type": "uint256"
        },
        {
          "internalType": "enum CompositeTokens.CompositeType",
          "name": "_compositeType",
          "type": "uint8"
        }
      ],
      "name": "createCompositeToken",
      "outputs": [
        {
          "internalType": "uint256",
          "name": "",
          "type": "uint256"
        }
      ],
      "stateMutability": "nonpayable",
      "type": "function"
    },
    {
      "inputs": [],
      "name": "getBaseURICount",
      "outputs": [
        {
          "internalType": "uint256",
          "name": "",
          "type": "uint256"
        }
      ],
      "stateMutability": "view",
      "type": "function"
    },
    {
      "inputs": [
        {
          "internalType": "uint256",
          "name": "_index",
          "type": "uint256"
        }
      ],
      "name": "getBatchIdAtIndex",
      "outputs": [
        {
          "internalType": "uint256",
          "name": "",
          "type": "uint256"
        }
      ],
      "stateMutability": "view",
      "type": "function"
    },
    {
      "inputs": [],
      "name": "getCompositeTokenCount",
      "outputs": [
        {
          "internalType": "uint256",
          "name": "",
          "type": "uint256"
        }
      ],
      "stateMutability": "view",
      "type": "function"
    },
    {
      "inputs": [
        {
          "internalType": "uint256",
          "name": "tokenId",
          "type": "uint256"
        }
      ],
      "name": "getCompositeTokenDetails",
      "outputs": [
        {
          "components": [
            {
              "internalType": "uint256",
              "name": "tokenId",
              "type": "uint256"
            },
            {
              "internalType": "bytes32",
              "name": "compositeHash",
              "type": "bytes32"
            },
            {
              "internalType": "enum CompositeTokens.CompositeType",
              "name": "compositeType",
              "type": "uint8"
            },
            {
              "internalType": "enum CharData.TokenType",
              "name": "tokenType",
              "type": "uint8"
            },
            {
              "internalType": "uint256",
              "name": "itemId",
              "type": "uint256"
            },
            {
              "internalType": "uint256",
              "name": "itemEffectId",
              "type": "uint256"
            },
            {
              "internalType": "uint256",
              "name": "battleSkillId",
              "type": "uint256"
            },
            {
              "internalType": "uint256",
              "name": "skillEffectId",
              "type": "uint256"
            },
            {
              "internalType": "uint256",
              "name": "compositeItemId",
              "type": "uint256"
            },
            {
              "internalType": "uint256",
              "name": "compositeSkillId",
              "type": "uint256"
            }
          ],
          "internalType": "struct CompositeTokens.CompositeTokenDetails",
          "name": "",
          "type": "tuple"
        }
      ],
      "stateMutability": "view",
      "type": "function"
    },
    {
      "inputs": [
        {
          "internalType": "uint256",
          "name": "tokenId",
          "type": "uint256"
        }
      ],
      "name": "getCompositeType",
      "outputs": [
        {
          "internalType": "enum CompositeTokens.CompositeType",
          "name": "",
          "type": "uint8"
        }
      ],
      "stateMutability": "view",
      "type": "function"
    },
    {
      "inputs": [],
      "name": "getDefaultRoyaltyInfo",
      "outputs": [
        {
          "internalType": "address",
          "name": "",
          "type": "address"
        },
        {
          "internalType": "uint16",
          "name": "",
          "type": "uint16"
        }
      ],
      "stateMutability": "view",
      "type": "function"
    },
    {
      "inputs": [
        {
          "internalType": "uint256",
          "name": "_tokenId",
          "type": "uint256"
        }
      ],
      "name": "getRoyaltyInfoForToken",
      "outputs": [
        {
          "internalType": "address",
          "name": "",
          "type": "address"
        },
        {
          "internalType": "uint16",
          "name": "",
          "type": "uint16"
        }
      ],
      "stateMutability": "view",
      "type": "function"
    },
    {
      "inputs": [
        {
          "internalType": "uint256",
          "name": "tokenId",
          "type": "uint256"
        }
      ],
      "name": "getTokenType",
      "outputs": [
        {
          "internalType": "enum CharData.TokenType",
          "name": "",
          "type": "uint8"
        }
      ],
      "stateMutability": "view",
      "type": "function"
    },
    {
      "inputs": [
        {
          "internalType": "address",
          "name": "",
          "type": "address"
        },
        {
          "internalType": "address",
          "name": "",
          "type": "address"
        }
      ],
      "name": "isApprovedForAll",
      "outputs": [
        {
          "internalType": "bool",
          "name": "",
          "type": "bool"
        }
      ],
      "stateMutability": "view",
      "type": "function"
    },
    {
      "inputs": [
        {
          "internalType": "uint256",
          "name": "_compositeTokenId",
          "type": "uint256"
        },
        {
          "internalType": "address",
          "name": "_caller",
          "type": "address"
        }
      ],
      "name": "mintCompositeToken",
      "outputs": [],
      "stateMutability": "nonpayable",
      "type": "function"
    },
    {
      "inputs": [
        {
          "internalType": "address",
          "name": "_to",
          "type": "address"
        },
        {
          "internalType": "uint256",
          "name": "_tokenId",
          "type": "uint256"
        },
        {
          "internalType": "string",
          "name": "_tokenURI",
          "type": "string"
        },
        {
          "internalType": "uint256",
          "name": "_amount",
          "type": "uint256"
        }
      ],
      "name": "mintTo",
      "outputs": [],
      "stateMutability": "nonpayable",
      "type": "function"
    },
    {
      "inputs": [
        {
          "internalType": "bytes[]",
          "name": "data",
          "type": "bytes[]"
        }
      ],
      "name": "multicall",
      "outputs": [
        {
          "internalType": "bytes[]",
          "name": "results",
          "type": "bytes[]"
        }
      ],
      "stateMutability": "nonpayable",
      "type": "function"
    },
    {
      "inputs": [],
      "name": "name",
      "outputs": [
        {
          "internalType": "string",
          "name": "",
          "type": "string"
        }
      ],
      "stateMutability": "view",
      "type": "function"
    },
    {
      "inputs": [],
      "name": "nextTokenIdToMint",
      "outputs": [
        {
          "internalType": "uint256",
          "name": "",
          "type": "uint256"
        }
      ],
      "stateMutability": "view",
      "type": "function"
    },
    {
      "inputs": [],
      "name": "operatorRestriction",
      "outputs": [
        {
          "internalType": "bool",
          "name": "",
          "type": "bool"
        }
      ],
      "stateMutability": "view",
      "type": "function"
    },
    {
      "inputs": [],
      "name": "owner",
      "outputs": [
        {
          "internalType": "address",
          "name": "",
          "type": "address"
        }
      ],
      "stateMutability": "view",
      "type": "function"
    },
    {
      "inputs": [
        {
          "internalType": "uint256",
          "name": "tokenId",
          "type": "uint256"
        },
        {
          "internalType": "uint256",
          "name": "salePrice",
          "type": "uint256"
        }
      ],
      "name": "royaltyInfo",
      "outputs": [
        {
          "internalType": "address",
          "name": "receiver",
          "type": "address"
        },
        {
          "internalType": "uint256",
          "name": "royaltyAmount",
          "type": "uint256"
        }
      ],
      "stateMutability": "view",
      "type": "function"
    },
    {
      "inputs": [
        {
          "internalType": "address",
          "name": "from",
          "type": "address"
        },
        {
          "internalType": "address",
          "name": "to",
          "type": "address"
        },
        {
          "internalType": "uint256[]",
          "name": "ids",
          "type": "uint256[]"
        },
        {
          "internalType": "uint256[]",
          "name": "amounts",
          "type": "uint256[]"
        },
        {
          "internalType": "bytes",
          "name": "data",
          "type": "bytes"
        }
      ],
      "name": "safeBatchTransferFrom",
      "outputs": [],
      "stateMutability": "nonpayable",
      "type": "function"
    },
    {
      "inputs": [
        {
          "internalType": "address",
          "name": "from",
          "type": "address"
        },
        {
          "internalType": "address",
          "name": "to",
          "type": "address"
        },
        {
          "internalType": "uint256",
          "name": "id",
          "type": "uint256"
        },
        {
          "internalType": "uint256",
          "name": "amount",
          "type": "uint256"
        },
        {
          "internalType": "bytes",
          "name": "data",
          "type": "bytes"
        }
      ],
      "name": "safeTransferFrom",
      "outputs": [],
      "stateMutability": "nonpayable",
      "type": "function"
    },
    {
      "inputs": [
        {
          "internalType": "address",
          "name": "operator",
          "type": "address"
        },
        {
          "internalType": "bool",
          "name": "approved",
          "type": "bool"
        }
      ],
      "name": "setApprovalForAll",
      "outputs": [],
      "stateMutability": "nonpayable",
      "type": "function"
    },
    {
      "inputs": [
        {
          "internalType": "string",
          "name": "_uri",
          "type": "string"
        }
      ],
      "name": "setContractURI",
      "outputs": [],
      "stateMutability": "nonpayable",
      "type": "function"
    },
    {
      "inputs": [
        {
          "internalType": "address",
          "name": "_royaltyRecipient",
          "type": "address"
        },
        {
          "internalType": "uint256",
          "name": "_royaltyBps",
          "type": "uint256"
        }
      ],
      "name": "setDefaultRoyaltyInfo",
      "outputs": [],
      "stateMutability": "nonpayable",
      "type": "function"
    },
    {
      "inputs": [
        {
          "internalType": "bool",
          "name": "_restriction",
          "type": "bool"
        }
      ],
      "name": "setOperatorRestriction",
      "outputs": [],
      "stateMutability": "nonpayable",
      "type": "function"
    },
    {
      "inputs": [
        {
          "internalType": "address",
          "name": "_newOwner",
          "type": "address"
        }
      ],
      "name": "setOwner",
      "outputs": [],
      "stateMutability": "nonpayable",
      "type": "function"
    },
    {
      "inputs": [
        {
          "internalType": "uint256",
          "name": "_tokenId",
          "type": "uint256"
        },
        {
          "internalType": "address",
          "name": "_recipient",
          "type": "address"
        },
        {
          "internalType": "uint256",
          "name": "_bps",
          "type": "uint256"
        }
      ],
      "name": "setRoyaltyInfoForToken",
      "outputs": [],
      "stateMutability": "nonpayable",
      "type": "function"
    },
    {
      "inputs": [
        {
          "internalType": "address",
          "name": "_subscription",
          "type": "address"
        }
      ],
      "name": "subscribeToRegistry",
      "outputs": [],
      "stateMutability": "nonpayable",
      "type": "function"
    },
    {
      "inputs": [
        {
          "internalType": "bytes4",
          "name": "interfaceId",
          "type": "bytes4"
        }
      ],
      "name": "supportsInterface",
      "outputs": [
        {
          "internalType": "bool",
          "name": "",
          "type": "bool"
        }
      ],
      "stateMutability": "view",
      "type": "function"
    },
    {
      "inputs": [],
      "name": "symbol",
      "outputs": [
        {
          "internalType": "string",
          "name": "",
          "type": "string"
        }
      ],
      "stateMutability": "view",
      "type": "function"
    },
    {
      "inputs": [
        {
          "internalType": "uint256",
          "name": "",
          "type": "uint256"
        }
      ],
      "name": "totalSupply",
      "outputs": [
        {
          "internalType": "uint256",
          "name": "",
          "type": "uint256"
        }
      ],
      "stateMutability": "view",
      "type": "function"
    },
    {
      "inputs": [
        {
          "internalType": "uint256",
          "name": "_tokenId",
          "type": "uint256"
        }
      ],
      "name": "uri",
      "outputs": [
        {
          "internalType": "string",
          "name": "",
          "type": "string"
        }
      ],
      "stateMutability": "view",
      "type": "function"
    }
  ],
  "bytecode": "0x6080604052612711600e553480156200001757600080fd5b5060405162005114380380620051148339810160408190526200003a91620003db565b336040518060400160405280600f81526020016e436f6d706f73697465546f6b656e7360881b8152506040518060400160405280600281526020016110d560f21b815250600080733cc6cdda760b79bafa08df41ecfa224f810dceb6600185858160009081620000ab9190620004c6565b506001620000ba8282620004c6565b505050620000cf82826200014c60201b60201c565b50620000dd9050856200027a565b620000f2826001600160801b038316620002cc565b620000fe600162000377565b5050601180546001600160a01b03199081166001600160a01b0398891617909155601280548216968816969096179095555050601380549093169190931617905550612711600c5562000592565b6daaeb6d7670e522a718067333cd4e3b1562000276576001600160a01b0382163b156200022f578015620001ee57604051633e9f1edf60e11b81523060048201526001600160a01b03831660248201526daaeb6d7670e522a718067333cd4e90637d3e3dbe906044015b600060405180830381600087803b158015620001d157600080fd5b505af1158015620001e6573d6000803e3d6000fd5b505050505050565b60405163a0af290360e01b81523060048201526001600160a01b03831660248201526daaeb6d7670e522a718067333cd4e9063a0af290390604401620001b6565b604051632210724360e11b81523060048201526daaeb6d7670e522a718067333cd4e90634420e48690602401600060405180830381600087803b158015620001d157600080fd5b5050565b600680546001600160a01b038381166001600160a01b0319831681179093556040519116919082907f8292fce18fa69edf4db7b94ea2e58241df0ae57f97e0a6c9b29067028bf92d7690600090a35050565b612710811115620003155760405162461bcd60e51b815260206004820152600f60248201526e45786365656473206d61782062707360881b604482015260640160405180910390fd5b600780546001600160a01b0384166001600160b01b03199091168117600160a01b61ffff851602179091556040518281527f90d7ec04bcb8978719414f82e52e4cb651db41d0e6f8cea6118c2191e6183adb9060200160405180910390a25050565b600b805460ff19168215159081179091556040519081527f38475885990d8dfe9ca01f0ef160a1b5514426eab9ddbc953a3353410ba780969060200160405180910390a150565b80516001600160a01b0381168114620003d657600080fd5b919050565b600080600060608486031215620003f157600080fd5b620003fc84620003be565b92506200040c60208501620003be565b91506200041c60408501620003be565b90509250925092565b634e487b7160e01b600052604160045260246000fd5b600181811c908216806200045057607f821691505b6020821081036200047157634e487b7160e01b600052602260045260246000fd5b50919050565b601f821115620004c157600081815260208120601f850160051c81016020861015620004a05750805b601f850160051c820191505b81811015620001e657828155600101620004ac565b505050565b81516001600160401b03811115620004e257620004e262000425565b620004fa81620004f384546200043b565b8462000477565b602080601f831160018114620005325760008415620005195750858301515b600019600386901b1c1916600185901b178555620001e6565b600085815260208120601f198616915b82811015620005635788860151825594840194600190910190840162000542565b5085821015620005825787850151600019600388901b60f8161c191681555b5050505050600190811b01905550565b614b7280620005a26000396000f3fe608060405234801561001057600080fd5b50600436106102685760003560e01c80636630abfa116101515780639e0f275e116100c3578063bd85b03911610087578063bd85b039146105d1578063c76d9992146105f1578063e8a3d48514610617578063e985e9c51461061f578063f242432a1461064d578063f5298aca1461066057600080fd5b80639e0f275e1461055a578063a22cb4651461056d578063ac9650d814610580578063b03f4528146105a0578063b24f2d39146105b357600080fd5b80638c27e285116101155780638c27e285146104f55780638da5cb5b14610508578063938e3d7b14610519578063949c09f71461052c57806395d89b411461053f5780639bcf7a151461054757600080fd5b80636630abfa1461047c578063681377c91461048f5780636b20c454146104af5780636ffd17d4146104c257806376aed2e1146104d557600080fd5b8063371d1a46116101ea5780634f761c75116101ae5780634f761c751461041b578063504c6e011461042e57806355483d451461043b57806357fd84551461044e578063600dd5ea1461046157806363b45e2d1461047457600080fd5b8063371d1a46146103895780633b1475a71461039157806341f43434146103995780634cc157df146103c65780634e1273f4146103fb57600080fd5b80632419f51b116102315780632419f51b1461030b5780632a55205a1461031e5780632b4fa31a146103505780632eb2c2d61461036357806332f0cd641461037657600080fd5b8062fdd58e1461026d57806301ffc9a7146102ab57806306fdde03146102ce5780630e89341c146102e357806313af4035146102f6575b600080fd5b61029861027b366004613c46565b600260209081526000928352604080842090915290825290205481565b6040519081526020015b60405180910390f35b6102be6102b9366004613c86565b610673565b60405190151581526020016102a2565b6102d66106e0565b6040516102a29190613cf3565b6102d66102f1366004613d06565b61076e565b610309610304366004613d1f565b61085c565b005b610298610319366004613d06565b610895565b61033161032c366004613d3a565b610903565b604080516001600160a01b0390931683526020830191909152016102a2565b61030961035e366004613d5c565b610940565b610309610371366004613ee1565b6109bd565b610309610384366004613f98565b6109ec565b600e54610298565b600c54610298565b6103ae6daaeb6d7670e522a718067333cd4e81565b6040516001600160a01b0390911681526020016102a2565b6103d96103d4366004613d06565b610a5d565b604080516001600160a01b03909316835261ffff9091166020830152016102a2565b61040e610409366004613fb5565b610ac8565b6040516102a291906140ba565b6102986104293660046140cd565b610bdc565b600b546102be9060ff1681565b6012546103ae906001600160a01b031681565b61030961045c366004613d1f565b6111f0565b61030961046f366004613c46565b611260565b600954610298565b61030961048a366004613d06565b61128e565b6104a261049d366004613d06565b61156c565b6040516102a2919061414b565b6103096104bd3660046141ce565b611650565b6011546103ae906001600160a01b031681565b6104e86104e3366004613d06565b6117f2565b6040516102a29190614241565b610309610503366004613d5c565b611817565b6006546001600160a01b03166103ae565b610309610527366004614254565b6118e7565b61030961053a366004614288565b611914565b6102d6611b06565b610309610555366004614320565b611b13565b6013546103ae906001600160a01b031681565b61030961057b366004614355565b611b42565b61059361058e36600461438c565b611b56565b6040516102a29190614400565b6103096105ae366004614462565b611c4a565b6007546001600160a01b03811690600160a01b900461ffff166103d9565b6102986105df366004613d06565b600d6020526000908152604090205481565b6104e86105ff366004613d06565b6000908152600f602052604090206002015460ff1690565b6102d6611d35565b6102be61062d3660046144c0565b600360209081526000928352604080842090915290825290205460ff1681565b61030961065b3660046144ea565b611d42565b61030961066e36600461454e565b611d69565b60006301ffc9a760e01b6001600160e01b0319831614806106a45750636cdb3d1360e11b6001600160e01b03198316145b806106bf57506303a24d0760e21b6001600160e01b03198316145b806106da57506001600160e01b0319821663152a902d60e11b145b92915050565b600080546106ed90614581565b80601f016020809104026020016040519081016040528092919081815260200182805461071990614581565b80156107665780601f1061073b57610100808354040283529160200191610766565b820191906000526020600020905b81548152906001019060200180831161074957829003601f168201915b505050505081565b60008181526004602052604081208054606092919061078c90614581565b80601f01602080910402602001604051908101604052809291908181526020018280546107b890614581565b80156108055780601f106107da57610100808354040283529160200191610805565b820191906000526020600020905b8154815290600101906020018083116107e857829003601f168201915b5050505050905060008151111561081c5792915050565b600061082784611e5e565b90508061083385611ffa565b6040516020016108449291906145bb565b60405160208183030381529060405292505050919050565b6108646120fa565b6108895760405162461bcd60e51b8152600401610880906145ea565b60405180910390fd5b61089281612127565b50565b60006108a060095490565b82106108de5760405162461bcd60e51b815260206004820152600d60248201526c092dcecc2d8d2c840d2dcc8caf609b1b6044820152606401610880565b600982815481106108f1576108f1614612565b90600052602060002001549050919050565b60008060008061091286610a5d565b90945084925061ffff16905061271061092b828761463e565b610935919061466b565b925050509250929050565b600e54821115801561095157508115155b61099d5760405162461bcd60e51b815260206004820152601e60248201527f436f6d706f7369746520746f6b656e20646f6573206e6f7420657869737400006044820152606401610880565b6109b98183600160405180602001604052806000815250612179565b5050565b846001600160a01b03811633146109d7576109d733612259565b6109e4868686868661231d565b505050505050565b6109f46120fa565b610a545760405162461bcd60e51b815260206004820152602b60248201527f4e6f7420617574686f72697a656420746f20736574206f70657261746f72207260448201526a32b9ba3934b1ba34b7b71760a91b6064820152608401610880565b610892816123a5565b6000818152600860209081526040808320815180830190925280546001600160a01b031680835260019091015492820192909252829115610aa45780516020820151610abe565b6007546001600160a01b03811690600160a01b900461ffff165b9250925050915091565b60608151835114610aeb5760405162461bcd60e51b81526004016108809061467f565b600083516001600160401b03811115610b0657610b06613d88565b604051908082528060200260200182016040528015610b2f578160200160208202803683370190505b50905060005b8451811015610bd45760026000868381518110610b5457610b54614612565b60200260200101516001600160a01b03166001600160a01b031681526020019081526020016000206000858381518110610b9057610b90614612565b6020026020010151815260200190815260200160002054828281518110610bb957610bb9614612565b6020908102919091010152610bcd816146a8565b9050610b35565b509392505050565b6000806000610bea846123ec565b604051627eeac760e11b81523360048201526024810189905291935091506000906001600160a01b0384169062fdd58e90604401602060405180830381865afa158015610c3b573d6000803e3d6000fd5b505050506040513d601f19601f82011682018060405250810190610c5f91906146c1565b11610cac5760405162461bcd60e51b815260206004820152601b60248201527f4e6f7420746865206f776e6572206f662074686520746f6b656e3100000000006044820152606401610880565b604051627eeac760e11b8152336004820152602481018690526000906001600160a01b0383169062fdd58e90604401602060405180830381865afa158015610cf8573d6000803e3d6000fd5b505050506040513d601f19601f82011682018060405250810190610d1c91906146c1565b11610d695760405162461bcd60e51b815260206004820152601b60248201527f4e6f7420746865206f776e6572206f662074686520746f6b656e3200000000006044820152606401610880565b6000846004811115610d7d57610d7d61410a565b03610e495760405163396b847960e21b8152600481018790523360248201526001600160a01b0383169063e5ae11e4906044015b600060405180830381600087803b158015610dcb57600080fd5b505af1158015610ddf573d6000803e3d6000fd5b5050604051630eb19d8960e01b8152600481018890523360248201526001600160a01b0384169250630eb19d8991506044015b600060405180830381600087803b158015610e2c57600080fd5b505af1158015610e40573d6000803e3d6000fd5b50505050610fd1565b6001846004811115610e5d57610e5d61410a565b03610ef557604051631a1e2f0f60e21b8152600481018790523360248201526001600160a01b03831690636878bc3c90604401600060405180830381600087803b158015610eaa57600080fd5b505af1158015610ebe573d6000803e3d6000fd5b505060405163396b847960e21b8152600481018890523360248201526001600160a01b038416925063e5ae11e49150604401610e12565b6002846004811115610f0957610f0961410a565b03610f4157604051631a1e2f0f60e21b8152600481018790523360248201526001600160a01b03831690636878bc3c90604401610db1565b6003846004811115610f5557610f5561410a565b1480610f7257506004846004811115610f7057610f7061410a565b145b15610f9057610f818633611817565b610f8b8633611817565b610fd1565b60405162461bcd60e51b8152602060048201526016602482015275496e76616c696420636f6d706f73697465207479706560501b6044820152606401610880565b6040516bffffffffffffffffffffffff19606084811b821660208401526034830189905283901b1660548201526068810186905260009060880160408051601f198184030181529181528151602092830120600081815260109093529120549091508015611060576110553382600160405180602001604052806000815250612179565b93506111e992505050565b600061106f8786868c8c6124c7565b600e546000908152600f602090815260409182902083518155908301516001808301919091559183015160028201805494955060001994869460ff19909116908360048111156110c1576110c161410a565b0217905550606082015160028201805461ff0019166101008360048111156110eb576110eb61410a565b02179055506080820151600382015560a082015160048083019190915560c0830151600583015560e08301516006830155610100830151600783015561012090920151600890910155600e546000868152601060205260408082209290925590516303a24d0760e21b81529182018c9052906001600160a01b03881690630e89341c90602401600060405180830381865afa15801561118e573d6000803e3d6000fd5b505050506040513d6000823e601f3d908101601f191682016040526111b691908101906146da565b600e549091506111c93384846001611c4a565b600e80549060006111d9836146a8565b9091555090985050505050505050505b9392505050565b6111f86120fa565b6112555760405162461bcd60e51b815260206004820152602860248201527f4e6f7420617574686f72697a656420746f2073756273637269626520746f207260448201526732b3b4b9ba393c9760c11b6064820152608401610880565b610892816001612adc565b6112686120fa565b6112845760405162461bcd60e51b8152600401610880906145ea565b6109b98282612be2565b336000908152600260209081526040808320848452909152902054806113005760405162461bcd60e51b815260206004820152602160248201527f596f75206d757374206f776e2074686520746f6b656e20746f206275726e20696044820152601d60fa1b6064820152608401610880565b61130c33836001612c88565b60006113178361156c565b90508061010001516000146113355761133581610100015133610940565b6101208101511561134f5761134f81610120015133610940565b6080810151158015906113655750610100810151155b156113d557601254608082015160405163013724db60e61b815260048101919091523360248201526001600160a01b0390911690634dc936c090604401600060405180830381600087803b1580156113bc57600080fd5b505af11580156113d0573d6000803e3d6000fd5b505050505b60c0810151158015906113eb5750610120810151155b1561145b5760115460c082015160405163bfa0fedb60e01b815260048101919091523360248201526001600160a01b039091169063bfa0fedb90604401600060405180830381600087803b15801561144257600080fd5b505af1158015611456573d6000803e3d6000fd5b505050505b60a0810151158015906114715750610100810151155b156114e15760135460a082015160405163f9b2977560e01b815260048101919091523360248201526001600160a01b039091169063f9b2977590604401600060405180830381600087803b1580156114c857600080fd5b505af11580156114dc573d6000803e3d6000fd5b505050505b60e0810151158015906114f75750610120810151155b156115675760135460e082015160405163f9b2977560e01b815260048101919091523360248201526001600160a01b039091169063f9b2977590604401600060405180830381600087803b15801561154e57600080fd5b505af1158015611562573d6000803e3d6000fd5b505050505b505050565b611574613bdc565b6000828152600f6020908152604091829020825161014081018452815481526001820154928101929092526002810154919290919083019060ff1660048111156115c0576115c061410a565b60048111156115d1576115d161410a565b81526020016002820160019054906101000a900460ff1660048111156115f9576115f961410a565b600481111561160a5761160a61410a565b815260038201546020820152600482015460408201526005820154606082015260068201546080820152600782015460a082015260089091015460c09091015292915050565b336001600160a01b03841681148061168d57506001600160a01b0380851660009081526003602090815260408083209385168352929052205460ff165b6116cd5760405162461bcd60e51b81526020600482015260116024820152702ab730b8383937bb32b21031b0b63632b960791b6044820152606401610880565b81518351146117105760405162461bcd60e51b815260206004820152600f60248201526e098cadccee8d040dad2e6dac2e8c6d608b1b6044820152606401610880565b60005b83518110156117e05782818151811061172e5761172e614612565b602002602001015160026000876001600160a01b03166001600160a01b03168152602001908152602001600020600086848151811061176f5761176f614612565b602002602001015181526020019081526020016000205410156117ce5760405162461bcd60e51b8152602060048201526017602482015276139bdd08195b9bdd59da081d1bdad95b9cc81bdddb9959604a1b6044820152606401610880565b6117d9600182614751565b9050611713565b506117ec848484612dad565b50505050565b6000806117fe8361156c565b604081015190915061180f81612f62565b949350505050565b600e54821115801561182857508115155b61186b5760405162461bcd60e51b8152602060048201526014602482015273125b9d985b1a590818dbdb5c1bdcda5d1948125160621b6044820152606401610880565b6001600160a01b03811660009081526002602090815260408083208584529091529020546118db5760405162461bcd60e51b815260206004820152601e60248201527f43616c6c657220646f6573206e6f74206f776e207468697320746f6b656e00006044820152606401610880565b6109b981836001612c88565b6118ef6120fa565b61190b5760405162461bcd60e51b8152600401610880906145ea565b61089281612f91565b61191c6120fa565b6119625760405162461bcd60e51b81526020600482015260176024820152762737ba1030baba3437b934bd32b2103a379036b4b73a1760491b6044820152606401610880565b60008251116119aa5760405162461bcd60e51b815260206004820152601460248201527326b4b73a34b733903d32b937903a37b5b2b7399760611b6044820152606401610880565b81518351146119ee5760405162461bcd60e51b815260206004820152601060248201526f2632b733ba341036b4b9b6b0ba31b41760811b6044820152606401610880565b60006119f9600c5490565b9050806000805b8651811015611acf57600019878281518110611a1e57611a1e614612565b602002602001015103611a685783878281518110611a3e57611a3e614612565b6020908102919091010152611a54600185614751565b9350611a61600183614751565b9150611abd565b83878281518110611a7b57611a7b614612565b602002602001015110611abd5760405162461bcd60e51b815260206004820152600a6024820152691a5b9d985b1a59081a5960b21b6044820152606401610880565b611ac8600182614751565b9050611a00565b508015611ae457611ae182828661306d565b50505b82600c81905550611562878787604051806020016040528060008152506130d1565b600180546106ed90614581565b611b1b6120fa565b611b375760405162461bcd60e51b8152600401610880906145ea565b61156783838361322c565b81611b4c81612259565b61156783836132f6565b6060816001600160401b03811115611b7057611b70613d88565b604051908082528060200260200182016040528015611ba357816020015b6060815260200190600190039081611b8e5790505b50905060005b82811015611c4357611c1330858584818110611bc757611bc7614612565b9050602002810190611bd99190614764565b8080601f0160208091040260200160405190810160405280939291908181526020018383808284376000920191909152506133a592505050565b828281518110611c2557611c25614612565b60200260200101819052508080611c3b906146a8565b915050611ba9565b5092915050565b611c526120fa565b611c985760405162461bcd60e51b81526020600482015260176024820152762737ba1030baba3437b934bd32b2103a379036b4b73a1760491b6044820152606401610880565b600080611ca4600c5490565b90506000198503611cda578091506001600c6000828254611cc59190614751565b90915550611cd5905081856133ca565b611d1a565b808510611d165760405162461bcd60e51b815260206004820152600a6024820152691a5b9d985b1a59081a5960b21b6044820152606401610880565b8491505b6109e486838560405180602001604052806000815250612179565b600580546106ed90614581565b846001600160a01b0381163314611d5c57611d5c33612259565b6109e486868686866133e2565b336001600160a01b038416811480611da657506001600160a01b0380851660009081526003602090815260408083209385168352929052205460ff165b611de65760405162461bcd60e51b81526020600482015260116024820152702ab730b8383937bb32b21031b0b63632b960791b6044820152606401610880565b6001600160a01b0384166000908152600260209081526040808320868452909152902054821115611e535760405162461bcd60e51b8152602060048201526017602482015276139bdd08195b9bdd59da081d1bdad95b9cc81bdddb9959604a1b6044820152606401610880565b6117ec848484612c88565b60606000611e6b60095490565b905060006009805480602002602001604051908101604052809291908181526020018280548015611ebb57602002820191906000526020600020905b815481526020019060010190808311611ea7575b5050505050905060005b82811015611fbf57818181518110611edf57611edf614612565b6020026020010151851015611fad57600a6000838381518110611f0457611f04614612565b602002602001015181526020019081526020016000208054611f2590614581565b80601f0160208091040260200160405190810160405280929190818152602001828054611f5190614581565b8015611f9e5780601f10611f7357610100808354040283529160200191611f9e565b820191906000526020600020905b815481529060010190602001808311611f8157829003601f168201915b50505050509350505050919050565b611fb8600182614751565b9050611ec5565b5060405162461bcd60e51b815260206004820152600f60248201526e125b9d985b1a59081d1bdad95b9259608a1b6044820152606401610880565b6060816000036120215750506040805180820190915260018152600360fc1b602082015290565b8160005b811561204b5780612035816146a8565b91506120449050600a8361466b565b9150612025565b6000816001600160401b0381111561206557612065613d88565b6040519080825280601f01601f19166020018201604052801561208f576020820181803683370190505b5090505b841561180f576120a46001836147b1565b91506120b1600a866147c4565b6120bc906030614751565b60f81b8183815181106120d1576120d1614612565b60200101906001600160f81b031916908160001a9053506120f3600a8661466b565b9450612093565b600061210e6006546001600160a01b031690565b6001600160a01b0316336001600160a01b031614905090565b600680546001600160a01b038381166001600160a01b0319831681179093556040519116919082907f8292fce18fa69edf4db7b94ea2e58241df0ae57f97e0a6c9b29067028bf92d7690600090a35050565b6001600160a01b03841661219f5760405162461bcd60e51b8152600401610880906147d8565b336121bf816000876121b08861346a565b6121b98861346a565b876134b5565b6001600160a01b0385166000908152600260209081526040808320878452909152812080548592906121f2908490614751565b909155505060408051858152602081018590526001600160a01b0380881692600092918516917fc3d58168c5ae7397731d063d5bbf3d657854427343f4c083240f7aacaa2d0f62910160405180910390a4612252816000878787876135c1565b5050505050565b600b5460ff1615610892576daaeb6d7670e522a718067333cd4e3b1561089257604051633185c44d60e21b81523060048201526001600160a01b03821660248201526daaeb6d7670e522a718067333cd4e9063c617113490604401602060405180830381865afa1580156122d1573d6000803e3d6000fd5b505050506040513d601f19601f820116820180604052508101906122f591906147fe565b61089257604051633b79c77360e21b81526001600160a01b0382166004820152602401610880565b6001600160a01b03851633148061235757506001600160a01b038516600090815260036020908152604080832033845290915290205460ff165b6123985760405162461bcd60e51b81526020600482015260126024820152710853d5d3915497d3d497d054141493d5915160721b6044820152606401610880565b6122528585858585613714565b600b805460ff19168215159081179091556040519081527f38475885990d8dfe9ca01f0ef160a1b5514426eab9ddbc953a3353410ba780969060200160405180910390a150565b600080808360048111156124025761240261410a565b036124215750506011546013546001600160a01b039182169391169150565b60018360048111156124355761243561410a565b036124545750506012546011546001600160a01b039182169391169150565b60028360048111156124685761246861410a565b036124875750506012546013546001600160a01b039182169391169150565b600383600481111561249b5761249b61410a565b14806124b8575060048360048111156124b6576124b661410a565b145b15610f90575030928392509050565b6124cf613bdc565b60008660048111156124e3576124e361410a565b036125bc57604051806101400160405280600e5481526020018484604051602001612518929190918252602082015260400190565b6040516020818303038152906040528051906020012081526020018760048111156125455761254561410a565b81526020016004815260006020820181905260408201526011546060909101906001600160a01b0388811691161461257d578361257f565b845b81526013546020909101906001600160a01b038781169116146125a257846125a4565b835b81526020016000815260200160008152509050612ad3565b60018660048111156125d0576125d061410a565b036126a957604051806101400160405280600e5481526020018484604051602001612605929190918252602082015260400190565b6040516020818303038152906040528051906020012081526020018760048111156126325761263261410a565b8152602001600381526012546020909101906001600160a01b0388811691161461265c578361265e565b845b8152600060208201526011546040909101906001600160a01b03878116911614612688578461268a565b835b8152602001600081526020016000815260200160008152509050612ad3565b60028660048111156126bd576126bd61410a565b0361279657604051806101400160405280600e54815260200184846040516020016126f2929190918252602082015260400190565b60405160208183030381529060405280519060200120815260200187600481111561271f5761271f61410a565b8152602001600381526012546020909101906001600160a01b03888116911614612749578361274b565b845b81526013546020909101906001600160a01b0387811691161461276e5784612770565b835b815260200160008152602001600081526020016000815260200160008152509050612ad3565b60038660048111156127aa576127aa61410a565b14806127c7575060048660048111156127c5576127c561410a565b145b15610f90576000838152600f60209081526040808320815161014081018352815481526001820154938101939093526002810154909183019060ff1660048111156128145761281461410a565b60048111156128255761282561410a565b81526020016002820160019054906101000a900460ff16600481111561284d5761284d61410a565b600481111561285e5761285e61410a565b8152602001600382015481526020016004820154815260200160058201548152602001600682015481526020016007820154815260200160088201548152505090506000600f60008581526020019081526020016000206040518061014001604052908160008201548152602001600182015481526020016002820160009054906101000a900460ff1660048111156128f9576128f961410a565b600481111561290a5761290a61410a565b81526020016002820160019054906101000a900460ff1660048111156129325761293261410a565b60048111156129435761294361410a565b815260200160038201548152602001600482015481526020016005820154815260200160068201548152602001600782015481526020016008820154815250509050604051806101400160405280600e54815260200186866040516020016129b5929190918252602082015260400190565b6040516020818303038152906040528051906020012081526020018960048111156129e2576129e261410a565b815260200183608001516000036129fa5760046129fd565b60035b6004811115612a0e57612a0e61410a565b81526020018360800151600003612a29578260800151612a2f565b83608001515b81526020018360a00151600003612a4a578260a00151612a50565b8360a001515b81526020018360c00151600003612a6b578260c00151612a71565b8360c001515b81526020018360e00151600003612a8c578260e00151612a92565b8360e001515b81526020016001600160a01b0389163014612aad5785612aaf565b865b81526020016001600160a01b0389163014612aca5786612acc565b855b9052925050505b95945050505050565b6daaeb6d7670e522a718067333cd4e3b156109b9576001600160a01b0382163b15612bb1578015612b7157604051633e9f1edf60e11b81523060048201526001600160a01b03831660248201526daaeb6d7670e522a718067333cd4e90637d3e3dbe906044015b600060405180830381600087803b158015612b5d57600080fd5b505af11580156109e4573d6000803e3d6000fd5b60405163a0af290360e01b81523060048201526001600160a01b03831660248201526daaeb6d7670e522a718067333cd4e9063a0af290390604401612b43565b604051632210724360e11b81523060048201526daaeb6d7670e522a718067333cd4e90634420e48690602401612b43565b612710811115612c265760405162461bcd60e51b815260206004820152600f60248201526e45786365656473206d61782062707360881b6044820152606401610880565b600780546001600160a01b0384166001600160b01b03199091168117600160a01b61ffff851602179091556040518281527f90d7ec04bcb8978719414f82e52e4cb651db41d0e6f8cea6118c2191e6183adb9060200160405180910390a25050565b6001600160a01b038316612ccf5760405162461bcd60e51b815260206004820152600e60248201526d232927a6afad22a927afa0a2222960911b6044820152606401610880565b33612cfe81856000612ce08761346a565b612ce98761346a565b604051806020016040528060008152506134b5565b6001600160a01b038416600090815260026020908152604080832086845290915290205482811015612d425760405162461bcd60e51b81526004016108809061481b565b6001600160a01b03858116600081815260026020908152604080832089845282528083208887039055805189815291820188905291938616917fc3d58168c5ae7397731d063d5bbf3d657854427343f4c083240f7aacaa2d0f62910160405180910390a45050505050565b6001600160a01b038316612df45760405162461bcd60e51b815260206004820152600e60248201526d232927a6afad22a927afa0a2222960911b6044820152606401610880565b8051825114612e155760405162461bcd60e51b81526004016108809061467f565b6000339050612e38818560008686604051806020016040528060008152506134b5565b60005b8351811015612f03576000848281518110612e5857612e58614612565b602002602001015190506000848381518110612e7657612e76614612565b6020908102919091018101516001600160a01b0389166000908152600283526040808220868352909352919091205490915081811015612ec85760405162461bcd60e51b81526004016108809061481b565b6001600160a01b0388166000908152600260209081526040808320958352949052929092209103905580612efb816146a8565b915050612e3b565b5060006001600160a01b0316846001600160a01b0316826001600160a01b03167f4a39dc06d4c0dbc64b70af90fd698a233a518aa5d07e595d983b8c0526c8f7fb8686604051612f54929190614845565b60405180910390a450505050565b600080826004811115612f7757612f7761410a565b03612f8457506004919050565b506003919050565b919050565b600060058054612fa090614581565b80601f0160208091040260200160405190810160405280929190818152602001828054612fcc90614581565b80156130195780601f10612fee57610100808354040283529160200191613019565b820191906000526020600020905b815481529060010190602001808311612ffc57829003601f168201915b50505050509050816005908161302f91906148b0565b507fc9c7c3fe08b88b4df9d4d47ef47d2c43d55c025a0ba88ca442580ed9e7348a16818360405161306192919061496f565b60405180910390a15050565b60008061307a8486614751565b60098054600181019091557f6e1540171b6c0c960b71a7020d9f60077f6af931a8bbf590da0223dacf75c7af018190556000818152600a602052604090209092508291506130c884826148b0565b50935093915050565b6001600160a01b0384166130f75760405162461bcd60e51b8152600401610880906147d8565b81518351146131185760405162461bcd60e51b81526004016108809061467f565b33613128816000878787876134b5565b60005b84518110156131c45783818151811061314657613146614612565b602002602001015160026000886001600160a01b03166001600160a01b03168152602001908152602001600020600087848151811061318757613187614612565b6020026020010151815260200190815260200160002060008282546131ac9190614751565b909155508190506131bc816146a8565b91505061312b565b50846001600160a01b031660006001600160a01b0316826001600160a01b03167f4a39dc06d4c0dbc64b70af90fd698a233a518aa5d07e595d983b8c0526c8f7fb8787604051613215929190614845565b60405180910390a4612252816000878787876138c3565b6127108111156132705760405162461bcd60e51b815260206004820152600f60248201526e45786365656473206d61782062707360881b6044820152606401610880565b6040805180820182526001600160a01b038481168083526020808401868152600089815260088352869020945185546001600160a01b031916941693909317845591516001909301929092559151838152909185917f7365cf4122f072a3365c20d54eff9b38d73c096c28e1892ec8f5b0e403a0f12d91015b60405180910390a3505050565b336001600160a01b03831681036133405760405162461bcd60e51b815260206004820152600e60248201526d20a8282927ab24a723afa9a2a62360911b6044820152606401610880565b6001600160a01b03818116600081815260036020908152604080832094881680845294825291829020805460ff191687151590811790915591519182527f17307eab39ab6107e8899845ad3d59bd9653f200f220920489ca2b5937696c3191016132e9565b60606111e98383604051806060016040528060278152602001614b16602791396139a0565b600082815260046020526040902061156782826148b0565b6001600160a01b03851633148061341c57506001600160a01b038516600090815260036020908152604080832033845290915290205460ff165b61345d5760405162461bcd60e51b81526020600482015260126024820152710853d5d3915497d3d497d054141493d5915160721b6044820152606401610880565b6122528585858585613a7d565b604080516001808252818301909252606091600091906020808301908036833701905050905082816000815181106134a4576134a4614612565b602090810291909101015292915050565b6001600160a01b03851661353c5760005b835181101561353a578281815181106134e1576134e1614612565b6020026020010151600d60008684815181106134ff576134ff614612565b6020026020010151815260200190815260200160002060008282546135249190614751565b909155506135339050816146a8565b90506134c6565b505b6001600160a01b0384166109e45760005b83518110156115625782818151811061356857613568614612565b6020026020010151600d600086848151811061358657613586614612565b6020026020010151815260200190815260200160002060008282546135ab91906147b1565b909155506135ba9050816146a8565b905061354d565b6001600160a01b0384163b156109e45760405163f23a6e6160e01b81526001600160a01b0385169063f23a6e61906136059089908990889088908890600401614994565b6020604051808303816000875af1925050508015613640575060408051601f3d908101601f1916820190925261363d918101906149d9565b60015b6136c25761364c6149f6565b806308c379a0036136855750613660614a12565b8061366b5750613687565b8060405162461bcd60e51b81526004016108809190613cf3565b505b60405162461bcd60e51b815260206004820152601060248201526f10a2a92198989a9aa922a1a2a4ab22a960811b6044820152606401610880565b6001600160e01b0319811663f23a6e6160e01b146115625760405162461bcd60e51b815260206004820152600f60248201526e1513d2d15394d7d491529150d51151608a1b6044820152606401610880565b81518351146137355760405162461bcd60e51b81526004016108809061467f565b6001600160a01b03841661375b5760405162461bcd60e51b8152600401610880906147d8565b3361376a8187878787876134b5565b60005b845181101561386157600085828151811061378a5761378a614612565b6020026020010151905060008583815181106137a8576137a8614612565b6020908102919091018101516001600160a01b038b1660009081526002835260408082208683529093529190912054909150818110156137fa5760405162461bcd60e51b81526004016108809061481b565b6001600160a01b03808b16600090815260026020818152604080842088855282528084208787039055938d16835290815282822086835290529081208054849290613846908490614751565b925050819055505050508061385a906146a8565b905061376d565b50846001600160a01b0316866001600160a01b0316826001600160a01b03167f4a39dc06d4c0dbc64b70af90fd698a233a518aa5d07e595d983b8c0526c8f7fb87876040516138b1929190614845565b60405180910390a46109e48187878787875b6001600160a01b0384163b156109e45760405163bc197c8160e01b81526001600160a01b0385169063bc197c81906139079089908990889088908890600401614a9b565b6020604051808303816000875af1925050508015613942575060408051601f3d908101601f1916820190925261393f918101906149d9565b60015b61394e5761364c6149f6565b6001600160e01b0319811663bc197c8160e01b146115625760405162461bcd60e51b815260206004820152600f60248201526e1513d2d15394d7d491529150d51151608a1b6044820152606401610880565b60606001600160a01b0384163b613a085760405162461bcd60e51b815260206004820152602660248201527f416464726573733a2064656c65676174652063616c6c20746f206e6f6e2d636f6044820152651b9d1c9858dd60d21b6064820152608401610880565b600080856001600160a01b031685604051613a239190614af9565b600060405180830381855af49150503d8060008114613a5e576040519150601f19603f3d011682016040523d82523d6000602084013e613a63565b606091505b5091509150613a73828286613ba3565b9695505050505050565b6001600160a01b038416613aa35760405162461bcd60e51b8152600401610880906147d8565b33613ab38187876121b08861346a565b6001600160a01b038616600090815260026020908152604080832087845290915290205483811015613af75760405162461bcd60e51b81526004016108809061481b565b6001600160a01b0380881660009081526002602081815260408084208a855282528084208987039055938a16835290815282822088835290529081208054869290613b43908490614751565b909155505060408051868152602081018690526001600160a01b03808916928a821692918616917fc3d58168c5ae7397731d063d5bbf3d657854427343f4c083240f7aacaa2d0f62910160405180910390a46115628288888888886135c1565b60608315613bb25750816111e9565b825115613bc25782518084602001fd5b8160405162461bcd60e51b81526004016108809190613cf3565b604080516101408101825260008082526020820181905290918201908152602001600081526020016000815260200160008152602001600081526020016000815260200160008152602001600081525090565b80356001600160a01b0381168114612f8c57600080fd5b60008060408385031215613c5957600080fd5b613c6283613c2f565b946020939093013593505050565b6001600160e01b03198116811461089257600080fd5b600060208284031215613c9857600080fd5b81356111e981613c70565b60005b83811015613cbe578181015183820152602001613ca6565b50506000910152565b60008151808452613cdf816020860160208601613ca3565b601f01601f19169290920160200192915050565b6020815260006111e96020830184613cc7565b600060208284031215613d1857600080fd5b5035919050565b600060208284031215613d3157600080fd5b6111e982613c2f565b60008060408385031215613d4d57600080fd5b50508035926020909101359150565b60008060408385031215613d6f57600080fd5b82359150613d7f60208401613c2f565b90509250929050565b634e487b7160e01b600052604160045260246000fd5b601f8201601f191681016001600160401b0381118282101715613dc357613dc3613d88565b6040525050565b60006001600160401b03821115613de357613de3613d88565b5060051b60200190565b600082601f830112613dfe57600080fd5b81356020613e0b82613dca565b604051613e188282613d9e565b83815260059390931b8501820192828101915086841115613e3857600080fd5b8286015b84811015613e535780358352918301918301613e3c565b509695505050505050565b60006001600160401b03821115613e7757613e77613d88565b50601f01601f191660200190565b600082601f830112613e9657600080fd5b8135613ea181613e5e565b604051613eae8282613d9e565b828152856020848701011115613ec357600080fd5b82602086016020830137600092810160200192909252509392505050565b600080600080600060a08688031215613ef957600080fd5b613f0286613c2f565b9450613f1060208701613c2f565b935060408601356001600160401b0380821115613f2c57600080fd5b613f3889838a01613ded565b94506060880135915080821115613f4e57600080fd5b613f5a89838a01613ded565b93506080880135915080821115613f7057600080fd5b50613f7d88828901613e85565b9150509295509295909350565b801515811461089257600080fd5b600060208284031215613faa57600080fd5b81356111e981613f8a565b60008060408385031215613fc857600080fd5b82356001600160401b0380821115613fdf57600080fd5b818501915085601f830112613ff357600080fd5b8135602061400082613dca565b60405161400d8282613d9e565b83815260059390931b850182019282810191508984111561402d57600080fd5b948201945b838610156140525761404386613c2f565b82529482019490820190614032565b9650508601359250508082111561406857600080fd5b5061407585828601613ded565b9150509250929050565b600081518084526020808501945080840160005b838110156140af57815187529582019590820190600101614093565b509495945050505050565b6020815260006111e9602083018461407f565b6000806000606084860312156140e257600080fd5b83359250602084013591506040840135600581106140ff57600080fd5b809150509250925092565b634e487b7160e01b600052602160045260246000fd5b6005811061089257634e487b7160e01b600052602160045260246000fd5b61414781614120565b9052565b60006101408201905082518252602083015160208301526040830151614174604084018261413e565b506060830151614187606084018261413e565b506080830151608083015260a083015160a083015260c083015160c083015260e083015160e083015261010080840151818401525061012080840151818401525092915050565b6000806000606084860312156141e357600080fd5b6141ec84613c2f565b925060208401356001600160401b038082111561420857600080fd5b61421487838801613ded565b9350604086013591508082111561422a57600080fd5b5061423786828701613ded565b9150509250925092565b6020810161424e83614120565b91905290565b60006020828403121561426657600080fd5b81356001600160401b0381111561427c57600080fd5b61180f84828501613e85565b6000806000806080858703121561429e57600080fd5b6142a785613c2f565b935060208501356001600160401b03808211156142c357600080fd5b6142cf88838901613ded565b945060408701359150808211156142e557600080fd5b6142f188838901613ded565b9350606087013591508082111561430757600080fd5b5061431487828801613e85565b91505092959194509250565b60008060006060848603121561433557600080fd5b8335925061434560208501613c2f565b9150604084013590509250925092565b6000806040838503121561436857600080fd5b61437183613c2f565b9150602083013561438181613f8a565b809150509250929050565b6000806020838503121561439f57600080fd5b82356001600160401b03808211156143b657600080fd5b818501915085601f8301126143ca57600080fd5b8135818111156143d957600080fd5b8660208260051b85010111156143ee57600080fd5b60209290920196919550909350505050565b6000602080830181845280855180835260408601915060408160051b870101925083870160005b8281101561445557603f19888603018452614443858351613cc7565b94509285019290850190600101614427565b5092979650505050505050565b6000806000806080858703121561447857600080fd5b61448185613c2f565b93506020850135925060408501356001600160401b038111156144a357600080fd5b6144af87828801613e85565b949793965093946060013593505050565b600080604083850312156144d357600080fd5b6144dc83613c2f565b9150613d7f60208401613c2f565b600080600080600060a0868803121561450257600080fd5b61450b86613c2f565b945061451960208701613c2f565b9350604086013592506060860135915060808601356001600160401b0381111561454257600080fd5b613f7d88828901613e85565b60008060006060848603121561456357600080fd5b61456c84613c2f565b95602085013595506040909401359392505050565b600181811c9082168061459557607f821691505b6020821081036145b557634e487b7160e01b600052602260045260246000fd5b50919050565b600083516145cd818460208801613ca3565b8351908301906145e1818360208801613ca3565b01949350505050565b6020808252600e908201526d139bdd08185d5d1a1bdc9a5e995960921b604082015260600190565b634e487b7160e01b600052603260045260246000fd5b634e487b7160e01b600052601160045260246000fd5b80820281158282048414176106da576106da614628565b634e487b7160e01b600052601260045260246000fd5b60008261467a5761467a614655565b500490565b6020808252600f908201526e0988a9c8ea890be9a92a69a82a8869608b1b604082015260600190565b6000600182016146ba576146ba614628565b5060010190565b6000602082840312156146d357600080fd5b5051919050565b6000602082840312156146ec57600080fd5b81516001600160401b0381111561470257600080fd5b8201601f8101841361471357600080fd5b805161471e81613e5e565b60405161472b8282613d9e565b82815286602084860101111561474057600080fd5b613a73836020830160208701613ca3565b808201808211156106da576106da614628565b6000808335601e1984360301811261477b57600080fd5b8301803591506001600160401b0382111561479557600080fd5b6020019150368190038213156147aa57600080fd5b9250929050565b818103818111156106da576106da614628565b6000826147d3576147d3614655565b500690565b6020808252600c908201526b2a27afad22a927afa0a2222960a11b604082015260600190565b60006020828403121561481057600080fd5b81516111e981613f8a565b60208082526010908201526f125394d551919250d251539517d0905360821b604082015260600190565b604081526000614858604083018561407f565b8281036020840152612ad3818561407f565b601f82111561156757600081815260208120601f850160051c810160208610156148915750805b601f850160051c820191505b818110156109e45782815560010161489d565b81516001600160401b038111156148c9576148c9613d88565b6148dd816148d78454614581565b8461486a565b602080601f83116001811461491257600084156148fa5750858301515b600019600386901b1c1916600185901b1785556109e4565b600085815260208120601f198616915b8281101561494157888601518255948401946001909101908401614922565b508582101561495f5787850151600019600388901b60f8161c191681555b5050505050600190811b01905550565b6040815260006149826040830185613cc7565b8281036020840152612ad38185613cc7565b6001600160a01b03868116825285166020820152604081018490526060810183905260a0608082018190526000906149ce90830184613cc7565b979650505050505050565b6000602082840312156149eb57600080fd5b81516111e981613c70565b600060033d1115614a0f5760046000803e5060005160e01c5b90565b600060443d1015614a205790565b6040516003193d81016004833e81513d6001600160401b038160248401118184111715614a4f57505050505090565b8285019150815181811115614a675750505050505090565b843d8701016020828501011115614a815750505050505090565b614a9060208286010187613d9e565b509095945050505050565b6001600160a01b0386811682528516602082015260a060408201819052600090614ac79083018661407f565b8281036060840152614ad9818661407f565b90508281036080840152614aed8185613cc7565b98975050505050505050565b60008251614b0b818460208701613ca3565b919091019291505056fe416464726573733a206c6f772d6c6576656c2064656c65676174652063616c6c206661696c6564a2646970667358221220b611c079db604cc5dbb5e47b5db83d7a08fa78c612539c66f68757bb879efa4f64736f6c63430008110033",
  "linkReferences": {},
  "deployedLinkReferences": {}
}