{
  "_format": "hh-sol-artifact-1",
  "contractName": "CompositeTokens",
  "sourceName": "contracts/CompositeTokens.sol",
  "abi": [
    {
      "inputs": [
        {
          "internalType": "address",
          "name": "_battleSkillsAddress",
          "type": "address"
        },
        {
          "internalType": "address",
          "name": "_battleItemsAddress",
          "type": "address"
        },
        {
          "internalType": "address",
          "name": "_battleEffectsAddress",
          "type": "address"
        }
      ],
      "stateMutability": "nonpayable",
      "type": "constructor"
    },
    {
      "inputs": [
        {
          "internalType": "address",
          "name": "operator",
          "type": "address"
        }
      ],
      "name": "OperatorNotAllowed",
      "type": "error"
    },
    {
      "anonymous": false,
      "inputs": [
        {
          "indexed": true,
          "internalType": "address",
          "name": "_owner",
          "type": "address"
        },
        {
          "indexed": true,
          "internalType": "address",
          "name": "_operator",
          "type": "address"
        },
        {
          "indexed": false,
          "internalType": "bool",
          "name": "_approved",
          "type": "bool"
        }
      ],
      "name": "ApprovalForAll",
      "type": "event"
    },
    {
      "anonymous": false,
      "inputs": [
        {
          "indexed": false,
          "internalType": "string",
          "name": "prevURI",
          "type": "string"
        },
        {
          "indexed": false,
          "internalType": "string",
          "name": "newURI",
          "type": "string"
        }
      ],
      "name": "ContractURIUpdated",
      "type": "event"
    },
    {
      "anonymous": false,
      "inputs": [
        {
          "indexed": true,
          "internalType": "address",
          "name": "newRoyaltyRecipient",
          "type": "address"
        },
        {
          "indexed": false,
          "internalType": "uint256",
          "name": "newRoyaltyBps",
          "type": "uint256"
        }
      ],
      "name": "DefaultRoyalty",
      "type": "event"
    },
    {
      "anonymous": false,
      "inputs": [
        {
          "indexed": false,
          "internalType": "bool",
          "name": "restriction",
          "type": "bool"
        }
      ],
      "name": "OperatorRestriction",
      "type": "event"
    },
    {
      "anonymous": false,
      "inputs": [
        {
          "indexed": true,
          "internalType": "address",
          "name": "prevOwner",
          "type": "address"
        },
        {
          "indexed": true,
          "internalType": "address",
          "name": "newOwner",
          "type": "address"
        }
      ],
      "name": "OwnerUpdated",
      "type": "event"
    },
    {
      "anonymous": false,
      "inputs": [
        {
          "indexed": true,
          "internalType": "uint256",
          "name": "tokenId",
          "type": "uint256"
        },
        {
          "indexed": true,
          "internalType": "address",
          "name": "royaltyRecipient",
          "type": "address"
        },
        {
          "indexed": false,
          "internalType": "uint256",
          "name": "royaltyBps",
          "type": "uint256"
        }
      ],
      "name": "RoyaltyForToken",
      "type": "event"
    },
    {
      "anonymous": false,
      "inputs": [
        {
          "indexed": true,
          "internalType": "address",
          "name": "_operator",
          "type": "address"
        },
        {
          "indexed": true,
          "internalType": "address",
          "name": "_from",
          "type": "address"
        },
        {
          "indexed": true,
          "internalType": "address",
          "name": "_to",
          "type": "address"
        },
        {
          "indexed": false,
          "internalType": "uint256[]",
          "name": "_ids",
          "type": "uint256[]"
        },
        {
          "indexed": false,
          "internalType": "uint256[]",
          "name": "_values",
          "type": "uint256[]"
        }
      ],
      "name": "TransferBatch",
      "type": "event"
    },
    {
      "anonymous": false,
      "inputs": [
        {
          "indexed": true,
          "internalType": "address",
          "name": "_operator",
          "type": "address"
        },
        {
          "indexed": true,
          "internalType": "address",
          "name": "_from",
          "type": "address"
        },
        {
          "indexed": true,
          "internalType": "address",
          "name": "_to",
          "type": "address"
        },
        {
          "indexed": false,
          "internalType": "uint256",
          "name": "_id",
          "type": "uint256"
        },
        {
          "indexed": false,
          "internalType": "uint256",
          "name": "_value",
          "type": "uint256"
        }
      ],
      "name": "TransferSingle",
      "type": "event"
    },
    {
      "anonymous": false,
      "inputs": [
        {
          "indexed": false,
          "internalType": "string",
          "name": "_value",
          "type": "string"
        },
        {
          "indexed": true,
          "internalType": "uint256",
          "name": "_id",
          "type": "uint256"
        }
      ],
      "name": "URI",
      "type": "event"
    },
    {
      "inputs": [],
      "name": "OPERATOR_FILTER_REGISTRY",
      "outputs": [
        {
          "internalType": "contract IOperatorFilterRegistry",
          "name": "",
          "type": "address"
        }
      ],
      "stateMutability": "view",
      "type": "function"
    },
    {
      "inputs": [
        {
          "internalType": "address",
          "name": "",
          "type": "address"
        },
        {
          "internalType": "uint256",
          "name": "",
          "type": "uint256"
        }
      ],
      "name": "balanceOf",
      "outputs": [
        {
          "internalType": "uint256",
          "name": "",
          "type": "uint256"
        }
      ],
      "stateMutability": "view",
      "type": "function"
    },
    {
      "inputs": [
        {
          "internalType": "address[]",
          "name": "accounts",
          "type": "address[]"
        },
        {
          "internalType": "uint256[]",
          "name": "ids",
          "type": "uint256[]"
        }
      ],
      "name": "balanceOfBatch",
      "outputs": [
        {
          "internalType": "uint256[]",
          "name": "",
          "type": "uint256[]"
        }
      ],
      "stateMutability": "view",
      "type": "function"
    },
    {
      "inputs": [
        {
          "internalType": "address",
          "name": "_to",
          "type": "address"
        },
        {
          "internalType": "uint256[]",
          "name": "_tokenIds",
          "type": "uint256[]"
        },
        {
          "internalType": "uint256[]",
          "name": "_amounts",
          "type": "uint256[]"
        },
        {
          "internalType": "string",
          "name": "_baseURI",
          "type": "string"
        }
      ],
      "name": "batchMintTo",
      "outputs": [],
      "stateMutability": "nonpayable",
      "type": "function"
    },
    {
      "inputs": [],
      "name": "battleEffects",
      "outputs": [
        {
          "internalType": "contract BattleEffects",
          "name": "",
          "type": "address"
        }
      ],
      "stateMutability": "view",
      "type": "function"
    },
    {
      "inputs": [],
      "name": "battleItems",
      "outputs": [
        {
          "internalType": "contract BattleItems",
          "name": "",
          "type": "address"
        }
      ],
      "stateMutability": "view",
      "type": "function"
    },
    {
      "inputs": [],
      "name": "battleSkills",
      "outputs": [
        {
          "internalType": "contract BattleSkills",
          "name": "",
          "type": "address"
        }
      ],
      "stateMutability": "view",
      "type": "function"
    },
    {
      "inputs": [
        {
          "internalType": "address",
          "name": "_owner",
          "type": "address"
        },
        {
          "internalType": "uint256",
          "name": "_tokenId",
          "type": "uint256"
        },
        {
          "internalType": "uint256",
          "name": "_amount",
          "type": "uint256"
        }
      ],
      "name": "burn",
      "outputs": [],
      "stateMutability": "nonpayable",
      "type": "function"
    },
    {
      "inputs": [
        {
          "internalType": "address",
          "name": "_owner",
          "type": "address"
        },
        {
          "internalType": "uint256[]",
          "name": "_tokenIds",
          "type": "uint256[]"
        },
        {
          "internalType": "uint256[]",
          "name": "_amounts",
          "type": "uint256[]"
        }
      ],
      "name": "burnBatch",
      "outputs": [],
      "stateMutability": "nonpayable",
      "type": "function"
    },
    {
      "inputs": [
        {
          "internalType": "uint256",
          "name": "tokenId",
          "type": "uint256"
        }
      ],
      "name": "burnCompositeToken",
      "outputs": [],
      "stateMutability": "nonpayable",
      "type": "function"
    },
    {
      "inputs": [],
      "name": "contractURI",
      "outputs": [
        {
          "internalType": "string",
          "name": "",
          "type": "string"
        }
      ],
      "stateMutability": "view",
      "type": "function"
    },
    {
      "inputs": [],
      "name": "getBaseURICount",
      "outputs": [
        {
          "internalType": "uint256",
          "name": "",
          "type": "uint256"
        }
      ],
      "stateMutability": "view",
      "type": "function"
    },
    {
      "inputs": [
        {
          "internalType": "uint256",
          "name": "_index",
          "type": "uint256"
        }
      ],
      "name": "getBatchIdAtIndex",
      "outputs": [
        {
          "internalType": "uint256",
          "name": "",
          "type": "uint256"
        }
      ],
      "stateMutability": "view",
      "type": "function"
    },
    {
      "inputs": [],
      "name": "getCompositeTokenCount",
      "outputs": [
        {
          "internalType": "uint256",
          "name": "",
          "type": "uint256"
        }
      ],
      "stateMutability": "view",
      "type": "function"
    },
    {
      "inputs": [
        {
          "internalType": "uint256",
          "name": "tokenId",
          "type": "uint256"
        }
      ],
      "name": "getCompositeTokenDetails",
      "outputs": [
        {
          "components": [
            {
              "internalType": "uint256",
              "name": "tokenId",
              "type": "uint256"
            },
            {
              "internalType": "bytes32",
              "name": "compositeHash",
              "type": "bytes32"
            },
            {
              "internalType": "enum CompositeTokens.CompositeType",
              "name": "compositeType",
              "type": "uint8"
            },
            {
              "internalType": "enum CharData.TokenType",
              "name": "tokenType",
              "type": "uint8"
            },
            {
              "internalType": "uint256",
              "name": "itemId",
              "type": "uint256"
            },
            {
              "internalType": "uint256",
              "name": "itemEffectId",
              "type": "uint256"
            },
            {
              "internalType": "uint256",
              "name": "battleSkillId",
              "type": "uint256"
            },
            {
              "internalType": "uint256",
              "name": "skillEffectId",
              "type": "uint256"
            },
            {
              "internalType": "uint256",
              "name": "compositeItemId",
              "type": "uint256"
            },
            {
              "internalType": "uint256",
              "name": "compositeSkillId",
              "type": "uint256"
            }
          ],
          "internalType": "struct CompositeTokens.CompositeTokenDetails",
          "name": "",
          "type": "tuple"
        }
      ],
      "stateMutability": "view",
      "type": "function"
    },
    {
      "inputs": [
        {
          "internalType": "uint256",
          "name": "tokenId",
          "type": "uint256"
        }
      ],
      "name": "getCompositeType",
      "outputs": [
        {
          "internalType": "enum CompositeTokens.CompositeType",
          "name": "",
          "type": "uint8"
        }
      ],
      "stateMutability": "view",
      "type": "function"
    },
    {
      "inputs": [],
      "name": "getDefaultRoyaltyInfo",
      "outputs": [
        {
          "internalType": "address",
          "name": "",
          "type": "address"
        },
        {
          "internalType": "uint16",
          "name": "",
          "type": "uint16"
        }
      ],
      "stateMutability": "view",
      "type": "function"
    },
    {
      "inputs": [
        {
          "internalType": "uint256",
          "name": "_tokenId",
          "type": "uint256"
        }
      ],
      "name": "getRoyaltyInfoForToken",
      "outputs": [
        {
          "internalType": "address",
          "name": "",
          "type": "address"
        },
        {
          "internalType": "uint16",
          "name": "",
          "type": "uint16"
        }
      ],
      "stateMutability": "view",
      "type": "function"
    },
    {
      "inputs": [
        {
          "internalType": "uint256",
          "name": "tokenId",
          "type": "uint256"
        }
      ],
      "name": "getTokenType",
      "outputs": [
        {
          "internalType": "enum CharData.TokenType",
          "name": "",
          "type": "uint8"
        }
      ],
      "stateMutability": "view",
      "type": "function"
    },
    {
      "inputs": [
        {
          "internalType": "address",
          "name": "",
          "type": "address"
        },
        {
          "internalType": "address",
          "name": "",
          "type": "address"
        }
      ],
      "name": "isApprovedForAll",
      "outputs": [
        {
          "internalType": "bool",
          "name": "",
          "type": "bool"
        }
      ],
      "stateMutability": "view",
      "type": "function"
    },
    {
      "inputs": [
        {
          "internalType": "uint256",
          "name": "tokenId1",
          "type": "uint256"
        },
        {
          "internalType": "uint256",
          "name": "tokenId2",
          "type": "uint256"
        },
        {
          "internalType": "enum CompositeTokens.CompositeType",
          "name": "_compositeType",
          "type": "uint8"
        }
      ],
      "name": "mintCompositeToken",
      "outputs": [],
      "stateMutability": "nonpayable",
      "type": "function"
    },
    {
      "inputs": [
        {
          "internalType": "address",
          "name": "_to",
          "type": "address"
        },
        {
          "internalType": "uint256",
          "name": "_tokenId",
          "type": "uint256"
        },
        {
          "internalType": "string",
          "name": "_tokenURI",
          "type": "string"
        },
        {
          "internalType": "uint256",
          "name": "_amount",
          "type": "uint256"
        }
      ],
      "name": "mintTo",
      "outputs": [],
      "stateMutability": "nonpayable",
      "type": "function"
    },
    {
      "inputs": [
        {
          "internalType": "bytes[]",
          "name": "data",
          "type": "bytes[]"
        }
      ],
      "name": "multicall",
      "outputs": [
        {
          "internalType": "bytes[]",
          "name": "results",
          "type": "bytes[]"
        }
      ],
      "stateMutability": "nonpayable",
      "type": "function"
    },
    {
      "inputs": [],
      "name": "name",
      "outputs": [
        {
          "internalType": "string",
          "name": "",
          "type": "string"
        }
      ],
      "stateMutability": "view",
      "type": "function"
    },
    {
      "inputs": [],
      "name": "nextTokenIdToMint",
      "outputs": [
        {
          "internalType": "uint256",
          "name": "",
          "type": "uint256"
        }
      ],
      "stateMutability": "view",
      "type": "function"
    },
    {
      "inputs": [],
      "name": "operatorRestriction",
      "outputs": [
        {
          "internalType": "bool",
          "name": "",
          "type": "bool"
        }
      ],
      "stateMutability": "view",
      "type": "function"
    },
    {
      "inputs": [],
      "name": "owner",
      "outputs": [
        {
          "internalType": "address",
          "name": "",
          "type": "address"
        }
      ],
      "stateMutability": "view",
      "type": "function"
    },
    {
      "inputs": [
        {
          "internalType": "uint256",
          "name": "tokenId",
          "type": "uint256"
        },
        {
          "internalType": "uint256",
          "name": "salePrice",
          "type": "uint256"
        }
      ],
      "name": "royaltyInfo",
      "outputs": [
        {
          "internalType": "address",
          "name": "receiver",
          "type": "address"
        },
        {
          "internalType": "uint256",
          "name": "royaltyAmount",
          "type": "uint256"
        }
      ],
      "stateMutability": "view",
      "type": "function"
    },
    {
      "inputs": [
        {
          "internalType": "address",
          "name": "from",
          "type": "address"
        },
        {
          "internalType": "address",
          "name": "to",
          "type": "address"
        },
        {
          "internalType": "uint256[]",
          "name": "ids",
          "type": "uint256[]"
        },
        {
          "internalType": "uint256[]",
          "name": "amounts",
          "type": "uint256[]"
        },
        {
          "internalType": "bytes",
          "name": "data",
          "type": "bytes"
        }
      ],
      "name": "safeBatchTransferFrom",
      "outputs": [],
      "stateMutability": "nonpayable",
      "type": "function"
    },
    {
      "inputs": [
        {
          "internalType": "address",
          "name": "from",
          "type": "address"
        },
        {
          "internalType": "address",
          "name": "to",
          "type": "address"
        },
        {
          "internalType": "uint256",
          "name": "id",
          "type": "uint256"
        },
        {
          "internalType": "uint256",
          "name": "amount",
          "type": "uint256"
        },
        {
          "internalType": "bytes",
          "name": "data",
          "type": "bytes"
        }
      ],
      "name": "safeTransferFrom",
      "outputs": [],
      "stateMutability": "nonpayable",
      "type": "function"
    },
    {
      "inputs": [
        {
          "internalType": "address",
          "name": "operator",
          "type": "address"
        },
        {
          "internalType": "bool",
          "name": "approved",
          "type": "bool"
        }
      ],
      "name": "setApprovalForAll",
      "outputs": [],
      "stateMutability": "nonpayable",
      "type": "function"
    },
    {
      "inputs": [
        {
          "internalType": "string",
          "name": "_uri",
          "type": "string"
        }
      ],
      "name": "setContractURI",
      "outputs": [],
      "stateMutability": "nonpayable",
      "type": "function"
    },
    {
      "inputs": [
        {
          "internalType": "address",
          "name": "_royaltyRecipient",
          "type": "address"
        },
        {
          "internalType": "uint256",
          "name": "_royaltyBps",
          "type": "uint256"
        }
      ],
      "name": "setDefaultRoyaltyInfo",
      "outputs": [],
      "stateMutability": "nonpayable",
      "type": "function"
    },
    {
      "inputs": [
        {
          "internalType": "bool",
          "name": "_restriction",
          "type": "bool"
        }
      ],
      "name": "setOperatorRestriction",
      "outputs": [],
      "stateMutability": "nonpayable",
      "type": "function"
    },
    {
      "inputs": [
        {
          "internalType": "address",
          "name": "_newOwner",
          "type": "address"
        }
      ],
      "name": "setOwner",
      "outputs": [],
      "stateMutability": "nonpayable",
      "type": "function"
    },
    {
      "inputs": [
        {
          "internalType": "uint256",
          "name": "_tokenId",
          "type": "uint256"
        },
        {
          "internalType": "address",
          "name": "_recipient",
          "type": "address"
        },
        {
          "internalType": "uint256",
          "name": "_bps",
          "type": "uint256"
        }
      ],
      "name": "setRoyaltyInfoForToken",
      "outputs": [],
      "stateMutability": "nonpayable",
      "type": "function"
    },
    {
      "inputs": [
        {
          "internalType": "address",
          "name": "_subscription",
          "type": "address"
        }
      ],
      "name": "subscribeToRegistry",
      "outputs": [],
      "stateMutability": "nonpayable",
      "type": "function"
    },
    {
      "inputs": [
        {
          "internalType": "bytes4",
          "name": "interfaceId",
          "type": "bytes4"
        }
      ],
      "name": "supportsInterface",
      "outputs": [
        {
          "internalType": "bool",
          "name": "",
          "type": "bool"
        }
      ],
      "stateMutability": "view",
      "type": "function"
    },
    {
      "inputs": [],
      "name": "symbol",
      "outputs": [
        {
          "internalType": "string",
          "name": "",
          "type": "string"
        }
      ],
      "stateMutability": "view",
      "type": "function"
    },
    {
      "inputs": [
        {
          "internalType": "uint256",
          "name": "",
          "type": "uint256"
        }
      ],
      "name": "totalSupply",
      "outputs": [
        {
          "internalType": "uint256",
          "name": "",
          "type": "uint256"
        }
      ],
      "stateMutability": "view",
      "type": "function"
    },
    {
      "inputs": [
        {
          "internalType": "uint256",
          "name": "_tokenId",
          "type": "uint256"
        }
      ],
      "name": "uri",
      "outputs": [
        {
          "internalType": "string",
          "name": "",
          "type": "string"
        }
      ],
      "stateMutability": "view",
      "type": "function"
    }
  ],
  "bytecode": "0x6080604052612711600e553480156200001757600080fd5b5060405162004fb438038062004fb48339810160408190526200003a91620003db565b336040518060400160405280600f81526020016e436f6d706f73697465546f6b656e7360881b8152506040518060400160405280600281526020016110d560f21b815250600080733cc6cdda760b79bafa08df41ecfa224f810dceb6600185858160009081620000ab9190620004c6565b506001620000ba8282620004c6565b505050620000cf82826200014c60201b60201c565b50620000dd9050856200027a565b620000f2826001600160801b038316620002cc565b620000fe600162000377565b5050601180546001600160a01b03199081166001600160a01b0398891617909155601280548216968816969096179095555050601380549093169190931617905550612711600c5562000592565b6daaeb6d7670e522a718067333cd4e3b1562000276576001600160a01b0382163b156200022f578015620001ee57604051633e9f1edf60e11b81523060048201526001600160a01b03831660248201526daaeb6d7670e522a718067333cd4e90637d3e3dbe906044015b600060405180830381600087803b158015620001d157600080fd5b505af1158015620001e6573d6000803e3d6000fd5b505050505050565b60405163a0af290360e01b81523060048201526001600160a01b03831660248201526daaeb6d7670e522a718067333cd4e9063a0af290390604401620001b6565b604051632210724360e11b81523060048201526daaeb6d7670e522a718067333cd4e90634420e48690602401600060405180830381600087803b158015620001d157600080fd5b5050565b600680546001600160a01b038381166001600160a01b0319831681179093556040519116919082907f8292fce18fa69edf4db7b94ea2e58241df0ae57f97e0a6c9b29067028bf92d7690600090a35050565b612710811115620003155760405162461bcd60e51b815260206004820152600f60248201526e45786365656473206d61782062707360881b604482015260640160405180910390fd5b600780546001600160a01b0384166001600160b01b03199091168117600160a01b61ffff851602179091556040518281527f90d7ec04bcb8978719414f82e52e4cb651db41d0e6f8cea6118c2191e6183adb9060200160405180910390a25050565b600b805460ff19168215159081179091556040519081527f38475885990d8dfe9ca01f0ef160a1b5514426eab9ddbc953a3353410ba780969060200160405180910390a150565b80516001600160a01b0381168114620003d657600080fd5b919050565b600080600060608486031215620003f157600080fd5b620003fc84620003be565b92506200040c60208501620003be565b91506200041c60408501620003be565b90509250925092565b634e487b7160e01b600052604160045260246000fd5b600181811c908216806200045057607f821691505b6020821081036200047157634e487b7160e01b600052602260045260246000fd5b50919050565b601f821115620004c157600081815260208120601f850160051c81016020861015620004a05750805b601f850160051c820191505b81811015620001e657828155600101620004ac565b505050565b81516001600160401b03811115620004e257620004e262000425565b620004fa81620004f384546200043b565b8462000477565b602080601f831160018114620005325760008415620005195750858301515b600019600386901b1c1916600185901b178555620001e6565b600085815260208120601f198616915b82811015620005635788860151825594840194600190910190840162000542565b5085821015620005825787850151600019600388901b60f8161c191681555b5050505050600190811b01905550565b614a1280620005a26000396000f3fe608060405234801561001057600080fd5b50600436106102525760003560e01c8063681377c911610146578063a22cb465116100c3578063c55ec50111610087578063c55ec501146105a2578063c76d9992146105b5578063e8a3d485146105db578063e985e9c5146105e3578063f242432a14610611578063f5298aca1461062457600080fd5b8063a22cb4651461051e578063ac9650d814610531578063b03f452814610551578063b24f2d3914610564578063bd85b0391461058257600080fd5b8063938e3d7b1161010a578063938e3d7b146104ca578063949c09f7146104dd57806395d89b41146104f05780639bcf7a15146104f85780639e0f275e1461050b57600080fd5b8063681377c9146104535780636b20c454146104735780636ffd17d41461048657806376aed2e1146104995780638da5cb5b146104b957600080fd5b80633b1475a7116101d457806355483d451161019857806355483d45146103ff57806357fd845514610412578063600dd5ea1461042557806363b45e2d146104385780636630abfa1461044057600080fd5b80633b1475a71461036857806341f43434146103705780634cc157df1461039d5780634e1273f4146103d2578063504c6e01146103f257600080fd5b80632419f51b1161021b5780632419f51b146102f55780632a55205a146103085780632eb2c2d61461033a57806332f0cd641461034d578063371d1a461461036057600080fd5b8062fdd58e1461025757806301ffc9a71461029557806306fdde03146102b85780630e89341c146102cd57806313af4035146102e0575b600080fd5b610282610265366004613b09565b600260209081526000928352604080842090915290825290205481565b6040519081526020015b60405180910390f35b6102a86102a3366004613b49565b610637565b604051901515815260200161028c565b6102c06106a4565b60405161028c9190613bb6565b6102c06102db366004613bc9565b610732565b6102f36102ee366004613be2565b610820565b005b610282610303366004613bc9565b610859565b61031b610316366004613bfd565b6108c7565b604080516001600160a01b03909316835260208301919091520161028c565b6102f3610348366004613d78565b610904565b6102f361035b366004613e2f565b610933565b600e54610282565b600c54610282565b6103856daaeb6d7670e522a718067333cd4e81565b6040516001600160a01b03909116815260200161028c565b6103b06103ab366004613bc9565b6109a4565b604080516001600160a01b03909316835261ffff90911660208301520161028c565b6103e56103e0366004613e4c565b610a0f565b60405161028c9190613f51565b600b546102a89060ff1681565b601254610385906001600160a01b031681565b6102f3610420366004613be2565b610b23565b6102f3610433366004613b09565b610b93565b600954610282565b6102f361044e366004613bc9565b610bc5565b610466610461366004613bc9565b610e2b565b60405161028c9190613fa5565b6102f3610481366004614028565b610f0f565b601154610385906001600160a01b031681565b6104ac6104a7366004613bc9565b6110b1565b60405161028c919061409b565b6006546001600160a01b0316610385565b6102f36104d83660046140ae565b6110d6565b6102f36104eb3660046140e2565b611103565b6102c06112f5565b6102f361050636600461417a565b611302565b601354610385906001600160a01b031681565b6102f361052c3660046141af565b611331565b61054461053f3660046141e6565b611345565b60405161028c919061425a565b6102f361055f3660046142bc565b611439565b6007546001600160a01b03811690600160a01b900461ffff166103b0565b610282610590366004613bc9565b600d6020526000908152604090205481565b6102f36105b036600461431a565b611524565b6104ac6105c3366004613bc9565b6000908152600f602052604090206002015460ff1690565b6102c0611b21565b6102a86105f1366004614357565b600360209081526000928352604080842090915290825290205460ff1681565b6102f361061f36600461438a565b611b2e565b6102f36106323660046143ee565b611b55565b60006301ffc9a760e01b6001600160e01b0319831614806106685750636cdb3d1360e11b6001600160e01b03198316145b8061068357506303a24d0760e21b6001600160e01b03198316145b8061069e57506001600160e01b0319821663152a902d60e11b145b92915050565b600080546106b190614421565b80601f01602080910402602001604051908101604052809291908181526020018280546106dd90614421565b801561072a5780601f106106ff5761010080835404028352916020019161072a565b820191906000526020600020905b81548152906001019060200180831161070d57829003601f168201915b505050505081565b60008181526004602052604081208054606092919061075090614421565b80601f016020809104026020016040519081016040528092919081815260200182805461077c90614421565b80156107c95780601f1061079e576101008083540402835291602001916107c9565b820191906000526020600020905b8154815290600101906020018083116107ac57829003601f168201915b505050505090506000815111156107e05792915050565b60006107eb84611c4a565b9050806107f785611de6565b60405160200161080892919061445b565b60405160208183030381529060405292505050919050565b610828611ee6565b61084d5760405162461bcd60e51b81526004016108449061448a565b60405180910390fd5b61085681611f13565b50565b600061086460095490565b82106108a25760405162461bcd60e51b815260206004820152600d60248201526c092dcecc2d8d2c840d2dcc8caf609b1b6044820152606401610844565b600982815481106108b5576108b56144b2565b90600052602060002001549050919050565b6000806000806108d6866109a4565b90945084925061ffff1690506127106108ef82876144de565b6108f9919061450b565b925050509250929050565b846001600160a01b038116331461091e5761091e33611f65565b61092b8686868686612029565b505050505050565b61093b611ee6565b61099b5760405162461bcd60e51b815260206004820152602b60248201527f4e6f7420617574686f72697a656420746f20736574206f70657261746f72207260448201526a32b9ba3934b1ba34b7b71760a91b6064820152608401610844565b610856816120b8565b6000818152600860209081526040808320815180830190925280546001600160a01b0316808352600190910154928201929092528291156109eb5780516020820151610a05565b6007546001600160a01b03811690600160a01b900461ffff165b9250925050915091565b60608151835114610a325760405162461bcd60e51b81526004016108449061451f565b600083516001600160401b03811115610a4d57610a4d613c1f565b604051908082528060200260200182016040528015610a76578160200160208202803683370190505b50905060005b8451811015610b1b5760026000868381518110610a9b57610a9b6144b2565b60200260200101516001600160a01b03166001600160a01b031681526020019081526020016000206000858381518110610ad757610ad76144b2565b6020026020010151815260200190815260200160002054828281518110610b0057610b006144b2565b6020908102919091010152610b1481614548565b9050610a7c565b509392505050565b610b2b611ee6565b610b885760405162461bcd60e51b815260206004820152602860248201527f4e6f7420617574686f72697a656420746f2073756273637269626520746f207260448201526732b3b4b9ba393c9760c11b6064820152608401610844565b6108568160016120ff565b610b9b611ee6565b610bb75760405162461bcd60e51b81526004016108449061448a565b610bc18282612205565b5050565b33600090815260026020908152604080832084845290915290205480610c375760405162461bcd60e51b815260206004820152602160248201527f596f75206d757374206f776e2074686520746f6b656e20746f206275726e20696044820152601d60fa1b6064820152608401610844565b610c43338360016122ab565b6000610c4e83610e2b565b90508060800151600014610cc757601254608082015160405163013724db60e61b815260048101919091523360248201526001600160a01b0390911690634dc936c090604401600060405180830381600087803b158015610cae57600080fd5b505af1158015610cc2573d6000803e3d6000fd5b505050505b60c081015115610d3c5760115460c082015160405163bfa0fedb60e01b815260048101919091523360248201526001600160a01b039091169063bfa0fedb90604401600060405180830381600087803b158015610d2357600080fd5b505af1158015610d37573d6000803e3d6000fd5b505050505b60a081015115610db15760135460a082015160405163f9b2977560e01b815260048101919091523360248201526001600160a01b039091169063f9b2977590604401600060405180830381600087803b158015610d9857600080fd5b505af1158015610dac573d6000803e3d6000fd5b505050505b60e081015115610e265760135460e082015160405163f9b2977560e01b815260048101919091523360248201526001600160a01b039091169063f9b2977590604401600060405180830381600087803b158015610e0d57600080fd5b505af1158015610e21573d6000803e3d6000fd5b505050505b505050565b610e33613a9f565b6000828152600f6020908152604091829020825161014081018452815481526001820154928101929092526002810154919290919083019060ff166004811115610e7f57610e7f613f64565b6004811115610e9057610e90613f64565b81526020016002820160019054906101000a900460ff166004811115610eb857610eb8613f64565b6004811115610ec957610ec9613f64565b815260038201546020820152600482015460408201526005820154606082015260068201546080820152600782015460a082015260089091015460c09091015292915050565b336001600160a01b038416811480610f4c57506001600160a01b0380851660009081526003602090815260408083209385168352929052205460ff165b610f8c5760405162461bcd60e51b81526020600482015260116024820152702ab730b8383937bb32b21031b0b63632b960791b6044820152606401610844565b8151835114610fcf5760405162461bcd60e51b815260206004820152600f60248201526e098cadccee8d040dad2e6dac2e8c6d608b1b6044820152606401610844565b60005b835181101561109f57828181518110610fed57610fed6144b2565b602002602001015160026000876001600160a01b03166001600160a01b03168152602001908152602001600020600086848151811061102e5761102e6144b2565b6020026020010151815260200190815260200160002054101561108d5760405162461bcd60e51b8152602060048201526017602482015276139bdd08195b9bdd59da081d1bdad95b9cc81bdddb9959604a1b6044820152606401610844565b611098600182614561565b9050610fd2565b506110ab8484846123d0565b50505050565b6000806110bd83610e2b565b60408101519091506110ce81612585565b949350505050565b6110de611ee6565b6110fa5760405162461bcd60e51b81526004016108449061448a565b610856816125b4565b61110b611ee6565b6111515760405162461bcd60e51b81526020600482015260176024820152762737ba1030baba3437b934bd32b2103a379036b4b73a1760491b6044820152606401610844565b60008251116111995760405162461bcd60e51b815260206004820152601460248201527326b4b73a34b733903d32b937903a37b5b2b7399760611b6044820152606401610844565b81518351146111dd5760405162461bcd60e51b815260206004820152601060248201526f2632b733ba341036b4b9b6b0ba31b41760811b6044820152606401610844565b60006111e8600c5490565b9050806000805b86518110156112be5760001987828151811061120d5761120d6144b2565b602002602001015103611257578387828151811061122d5761122d6144b2565b6020908102919091010152611243600185614561565b9350611250600183614561565b91506112ac565b8387828151811061126a5761126a6144b2565b6020026020010151106112ac5760405162461bcd60e51b815260206004820152600a6024820152691a5b9d985b1a59081a5960b21b6044820152606401610844565b6112b7600182614561565b90506111ef565b5080156112d3576112d0828286612690565b50505b82600c81905550610e21878787604051806020016040528060008152506126f4565b600180546106b190614421565b61130a611ee6565b6113265760405162461bcd60e51b81526004016108449061448a565b610e2683838361284f565b8161133b81611f65565b610e268383612919565b6060816001600160401b0381111561135f5761135f613c1f565b60405190808252806020026020018201604052801561139257816020015b606081526020019060019003908161137d5790505b50905060005b8281101561143257611402308585848181106113b6576113b66144b2565b90506020028101906113c89190614574565b8080601f0160208091040260200160405190810160405280939291908181526020018383808284376000920191909152506129c892505050565b828281518110611414576114146144b2565b6020026020010181905250808061142a90614548565b915050611398565b5092915050565b611441611ee6565b6114875760405162461bcd60e51b81526020600482015260176024820152762737ba1030baba3437b934bd32b2103a379036b4b73a1760491b6044820152606401610844565b600080611493600c5490565b905060001985036114c9578091506001600c60008282546114b49190614561565b909155506114c4905081856129f4565b611509565b8085106115055760405162461bcd60e51b815260206004820152600a6024820152691a5b9d985b1a59081a5960b21b6044820152606401610844565b8491505b61092b86838560405180602001604052806000815250612a0c565b60008061153083612ae5565b604051627eeac760e11b81523360048201526024810188905291935091506000906001600160a01b0384169062fdd58e90604401602060405180830381865afa158015611581573d6000803e3d6000fd5b505050506040513d601f19601f820116820180604052508101906115a591906145c1565b116115f25760405162461bcd60e51b815260206004820152601b60248201527f4e6f7420746865206f776e6572206f662074686520746f6b656e3100000000006044820152606401610844565b604051627eeac760e11b8152336004820152602481018590526000906001600160a01b0383169062fdd58e90604401602060405180830381865afa15801561163e573d6000803e3d6000fd5b505050506040513d601f19601f8201168201806040525081019061166291906145c1565b116116af5760405162461bcd60e51b815260206004820152601b60248201527f4e6f7420746865206f776e6572206f662074686520746f6b656e3200000000006044820152606401610844565b60008360048111156116c3576116c3613f64565b0361178f5760405163396b847960e21b8152600481018690523360248201526001600160a01b0383169063e5ae11e4906044015b600060405180830381600087803b15801561171157600080fd5b505af1158015611725573d6000803e3d6000fd5b5050604051630eb19d8960e01b8152600481018790523360248201526001600160a01b0384169250630eb19d8991506044015b600060405180830381600087803b15801561177257600080fd5b505af1158015611786573d6000803e3d6000fd5b50505050611917565b60018360048111156117a3576117a3613f64565b0361183b57604051631a1e2f0f60e21b8152600481018690523360248201526001600160a01b03831690636878bc3c90604401600060405180830381600087803b1580156117f057600080fd5b505af1158015611804573d6000803e3d6000fd5b505060405163396b847960e21b8152600481018790523360248201526001600160a01b038416925063e5ae11e49150604401611758565b600283600481111561184f5761184f613f64565b0361188757604051631a1e2f0f60e21b8152600481018690523360248201526001600160a01b03831690636878bc3c906044016116f7565b600383600481111561189b5761189b613f64565b14806118b8575060048360048111156118b6576118b6613f64565b145b156118d6576118c78533612bc0565b6118d18533612bc0565b611917565b60405162461bcd60e51b8152602060048201526016602482015275496e76616c696420636f6d706f73697465207479706560501b6044820152606401610844565b6040516bffffffffffffffffffffffff19606084811b821660208401526034830188905283901b1660548201526068810185905260009060880160408051601f19818403018152918152815160209283012060008181526010909352912054909150801561199b57610e213382600160405180602001604052806000815250612a0c565b60006119aa8686868b8b612c8c565b600e546000908152600f602090815260409182902083518155908301516001808301919091559183015160028201805494955060001994869460ff19909116908360048111156119fc576119fc613f64565b0217905550606082015160028201805461ff001916610100836004811115611a2657611a26613f64565b02179055506080820151600382015560a082015160048083019190915560c0830151600583015560e08301516006830155610100830151600783015561012090920151600890910155600e546000868152601060205260408082209290925590516303a24d0760e21b81529182018b9052906001600160a01b03881690630e89341c90602401600060405180830381865afa158015611ac9573d6000803e3d6000fd5b505050506040513d6000823e601f3d908101601f19168201604052611af191908101906145da565b9050611b003383836001611439565b600e8054906000611b1083614548565b919050555050505050505050505050565b600580546106b190614421565b846001600160a01b0381163314611b4857611b4833611f65565b61092b86868686866132a1565b336001600160a01b038416811480611b9257506001600160a01b0380851660009081526003602090815260408083209385168352929052205460ff165b611bd25760405162461bcd60e51b81526020600482015260116024820152702ab730b8383937bb32b21031b0b63632b960791b6044820152606401610844565b6001600160a01b0384166000908152600260209081526040808320868452909152902054821115611c3f5760405162461bcd60e51b8152602060048201526017602482015276139bdd08195b9bdd59da081d1bdad95b9cc81bdddb9959604a1b6044820152606401610844565b6110ab8484846122ab565b60606000611c5760095490565b905060006009805480602002602001604051908101604052809291908181526020018280548015611ca757602002820191906000526020600020905b815481526020019060010190808311611c93575b5050505050905060005b82811015611dab57818181518110611ccb57611ccb6144b2565b6020026020010151851015611d9957600a6000838381518110611cf057611cf06144b2565b602002602001015181526020019081526020016000208054611d1190614421565b80601f0160208091040260200160405190810160405280929190818152602001828054611d3d90614421565b8015611d8a5780601f10611d5f57610100808354040283529160200191611d8a565b820191906000526020600020905b815481529060010190602001808311611d6d57829003601f168201915b50505050509350505050919050565b611da4600182614561565b9050611cb1565b5060405162461bcd60e51b815260206004820152600f60248201526e125b9d985b1a59081d1bdad95b9259608a1b6044820152606401610844565b606081600003611e0d5750506040805180820190915260018152600360fc1b602082015290565b8160005b8115611e375780611e2181614548565b9150611e309050600a8361450b565b9150611e11565b6000816001600160401b03811115611e5157611e51613c1f565b6040519080825280601f01601f191660200182016040528015611e7b576020820181803683370190505b5090505b84156110ce57611e90600183614651565b9150611e9d600a86614664565b611ea8906030614561565b60f81b818381518110611ebd57611ebd6144b2565b60200101906001600160f81b031916908160001a905350611edf600a8661450b565b9450611e7f565b6000611efa6006546001600160a01b031690565b6001600160a01b0316336001600160a01b031614905090565b600680546001600160a01b038381166001600160a01b0319831681179093556040519116919082907f8292fce18fa69edf4db7b94ea2e58241df0ae57f97e0a6c9b29067028bf92d7690600090a35050565b600b5460ff1615610856576daaeb6d7670e522a718067333cd4e3b1561085657604051633185c44d60e21b81523060048201526001600160a01b03821660248201526daaeb6d7670e522a718067333cd4e9063c617113490604401602060405180830381865afa158015611fdd573d6000803e3d6000fd5b505050506040513d601f19601f820116820180604052508101906120019190614678565b61085657604051633b79c77360e21b81526001600160a01b0382166004820152602401610844565b6001600160a01b03851633148061206357506001600160a01b038516600090815260036020908152604080832033845290915290205460ff165b6120a45760405162461bcd60e51b81526020600482015260126024820152710853d5d3915497d3d497d054141493d5915160721b6044820152606401610844565b6120b18585858585613329565b5050505050565b600b805460ff19168215159081179091556040519081527f38475885990d8dfe9ca01f0ef160a1b5514426eab9ddbc953a3353410ba780969060200160405180910390a150565b6daaeb6d7670e522a718067333cd4e3b15610bc1576001600160a01b0382163b156121d457801561219457604051633e9f1edf60e11b81523060048201526001600160a01b03831660248201526daaeb6d7670e522a718067333cd4e90637d3e3dbe906044015b600060405180830381600087803b15801561218057600080fd5b505af115801561092b573d6000803e3d6000fd5b60405163a0af290360e01b81523060048201526001600160a01b03831660248201526daaeb6d7670e522a718067333cd4e9063a0af290390604401612166565b604051632210724360e11b81523060048201526daaeb6d7670e522a718067333cd4e90634420e48690602401612166565b6127108111156122495760405162461bcd60e51b815260206004820152600f60248201526e45786365656473206d61782062707360881b6044820152606401610844565b600780546001600160a01b0384166001600160b01b03199091168117600160a01b61ffff851602179091556040518281527f90d7ec04bcb8978719414f82e52e4cb651db41d0e6f8cea6118c2191e6183adb9060200160405180910390a25050565b6001600160a01b0383166122f25760405162461bcd60e51b815260206004820152600e60248201526d232927a6afad22a927afa0a2222960911b6044820152606401610844565b3361232181856000612303876134dc565b61230c876134dc565b60405180602001604052806000815250613527565b6001600160a01b0384166000908152600260209081526040808320868452909152902054828110156123655760405162461bcd60e51b815260040161084490614695565b6001600160a01b03858116600081815260026020908152604080832089845282528083208887039055805189815291820188905291938616917fc3d58168c5ae7397731d063d5bbf3d657854427343f4c083240f7aacaa2d0f62910160405180910390a45050505050565b6001600160a01b0383166124175760405162461bcd60e51b815260206004820152600e60248201526d232927a6afad22a927afa0a2222960911b6044820152606401610844565b80518251146124385760405162461bcd60e51b81526004016108449061451f565b600033905061245b81856000868660405180602001604052806000815250613527565b60005b835181101561252657600084828151811061247b5761247b6144b2565b602002602001015190506000848381518110612499576124996144b2565b6020908102919091018101516001600160a01b03891660009081526002835260408082208683529093529190912054909150818110156124eb5760405162461bcd60e51b815260040161084490614695565b6001600160a01b038816600090815260026020908152604080832095835294905292909220910390558061251e81614548565b91505061245e565b5060006001600160a01b0316846001600160a01b0316826001600160a01b03167f4a39dc06d4c0dbc64b70af90fd698a233a518aa5d07e595d983b8c0526c8f7fb86866040516125779291906146bf565b60405180910390a450505050565b60008082600481111561259a5761259a613f64565b036125a757506004919050565b506003919050565b919050565b6000600580546125c390614421565b80601f01602080910402602001604051908101604052809291908181526020018280546125ef90614421565b801561263c5780601f106126115761010080835404028352916020019161263c565b820191906000526020600020905b81548152906001019060200180831161261f57829003601f168201915b505050505090508160059081612652919061472a565b507fc9c7c3fe08b88b4df9d4d47ef47d2c43d55c025a0ba88ca442580ed9e7348a1681836040516126849291906147e9565b60405180910390a15050565b60008061269d8486614561565b60098054600181019091557f6e1540171b6c0c960b71a7020d9f60077f6af931a8bbf590da0223dacf75c7af018190556000818152600a602052604090209092508291506126eb848261472a565b50935093915050565b6001600160a01b03841661271a5760405162461bcd60e51b81526004016108449061480e565b815183511461273b5760405162461bcd60e51b81526004016108449061451f565b3361274b81600087878787613527565b60005b84518110156127e757838181518110612769576127696144b2565b602002602001015160026000886001600160a01b03166001600160a01b0316815260200190815260200160002060008784815181106127aa576127aa6144b2565b6020026020010151815260200190815260200160002060008282546127cf9190614561565b909155508190506127df81614548565b91505061274e565b50846001600160a01b031660006001600160a01b0316826001600160a01b03167f4a39dc06d4c0dbc64b70af90fd698a233a518aa5d07e595d983b8c0526c8f7fb87876040516128389291906146bf565b60405180910390a46120b181600087878787613633565b6127108111156128935760405162461bcd60e51b815260206004820152600f60248201526e45786365656473206d61782062707360881b6044820152606401610844565b6040805180820182526001600160a01b038481168083526020808401868152600089815260088352869020945185546001600160a01b031916941693909317845591516001909301929092559151838152909185917f7365cf4122f072a3365c20d54eff9b38d73c096c28e1892ec8f5b0e403a0f12d91015b60405180910390a3505050565b336001600160a01b03831681036129635760405162461bcd60e51b815260206004820152600e60248201526d20a8282927ab24a723afa9a2a62360911b6044820152606401610844565b6001600160a01b03818116600081815260036020908152604080832094881680845294825291829020805460ff191687151590811790915591519182527f17307eab39ab6107e8899845ad3d59bd9653f200f220920489ca2b5937696c31910161290c565b60606129ed83836040518060600160405280602781526020016149b660279139613786565b9392505050565b6000828152600460205260409020610e26828261472a565b6001600160a01b038416612a325760405162461bcd60e51b81526004016108449061480e565b33612a5281600087612a43886134dc565b612a4c886134dc565b87613527565b6001600160a01b038516600090815260026020908152604080832087845290915281208054859290612a85908490614561565b909155505060408051858152602081018590526001600160a01b0380881692600092918516917fc3d58168c5ae7397731d063d5bbf3d657854427343f4c083240f7aacaa2d0f62910160405180910390a46120b181600087878787613863565b60008080836004811115612afb57612afb613f64565b03612b1a5750506011546013546001600160a01b039182169391169150565b6001836004811115612b2e57612b2e613f64565b03612b4d5750506012546011546001600160a01b039182169391169150565b6002836004811115612b6157612b61613f64565b03612b805750506012546013546001600160a01b039182169391169150565b6003836004811115612b9457612b94613f64565b1480612bb157506004836004811115612baf57612baf613f64565b145b156118d6575030928392509050565b600e548211158015612bd157508115155b612c105760405162461bcd60e51b815260206004820152601060248201526f125b9d985b1a59081cdada5b1b08125160821b6044820152606401610844565b6001600160a01b0381166000908152600260209081526040808320858452909152902054612c805760405162461bcd60e51b815260206004820152601e60248201527f43616c6c657220646f6573206e6f74206f776e207468697320736b696c6c00006044820152606401610844565b610bc1818360016122ab565b612c94613a9f565b6000866004811115612ca857612ca8613f64565b03612d8157604051806101400160405280600e5481526020018484604051602001612cdd929190918252602082015260400190565b604051602081830303815290604052805190602001208152602001876004811115612d0a57612d0a613f64565b81526020016004815260006020820181905260408201526011546060909101906001600160a01b03888116911614612d425783612d44565b845b81526013546020909101906001600160a01b03878116911614612d675784612d69565b835b81526020016000815260200160008152509050613298565b6001866004811115612d9557612d95613f64565b03612e6e57604051806101400160405280600e5481526020018484604051602001612dca929190918252602082015260400190565b604051602081830303815290604052805190602001208152602001876004811115612df757612df7613f64565b8152602001600381526012546020909101906001600160a01b03888116911614612e215783612e23565b845b8152600060208201526011546040909101906001600160a01b03878116911614612e4d5784612e4f565b835b8152602001600081526020016000815260200160008152509050613298565b6002866004811115612e8257612e82613f64565b03612f5b57604051806101400160405280600e5481526020018484604051602001612eb7929190918252602082015260400190565b604051602081830303815290604052805190602001208152602001876004811115612ee457612ee4613f64565b8152602001600381526012546020909101906001600160a01b03888116911614612f0e5783612f10565b845b81526013546020909101906001600160a01b03878116911614612f335784612f35565b835b815260200160008152602001600081526020016000815260200160008152509050613298565b6003866004811115612f6f57612f6f613f64565b1480612f8c57506004866004811115612f8a57612f8a613f64565b145b156118d6576000838152600f60209081526040808320815161014081018352815481526001820154938101939093526002810154909183019060ff166004811115612fd957612fd9613f64565b6004811115612fea57612fea613f64565b81526020016002820160019054906101000a900460ff16600481111561301257613012613f64565b600481111561302357613023613f64565b8152602001600382015481526020016004820154815260200160058201548152602001600682015481526020016007820154815260200160088201548152505090506000600f60008581526020019081526020016000206040518061014001604052908160008201548152602001600182015481526020016002820160009054906101000a900460ff1660048111156130be576130be613f64565b60048111156130cf576130cf613f64565b81526020016002820160019054906101000a900460ff1660048111156130f7576130f7613f64565b600481111561310857613108613f64565b815260200160038201548152602001600482015481526020016005820154815260200160068201548152602001600782015481526020016008820154815250509050604051806101400160405280600e548152602001868660405160200161317a929190918252602082015260400190565b6040516020818303038152906040528051906020012081526020018960048111156131a7576131a7613f64565b815260200183608001516000036131bf5760046131c2565b60035b60048111156131d3576131d3613f64565b815260200183608001516000036131ee5782608001516131f4565b83608001515b81526020018360a0015160000361320f578260a00151613215565b8360a001515b81526020018360c00151600003613230578260c00151613236565b8360c001515b81526020018360e00151600003613251578260e00151613257565b8360e001515b81526020016001600160a01b03891630146132725785613274565b865b81526020016001600160a01b038916301461328f5786613291565b855b9052925050505b95945050505050565b6001600160a01b0385163314806132db57506001600160a01b038516600090815260036020908152604080832033845290915290205460ff165b61331c5760405162461bcd60e51b81526020600482015260126024820152710853d5d3915497d3d497d054141493d5915160721b6044820152606401610844565b6120b18585858585613940565b815183511461334a5760405162461bcd60e51b81526004016108449061451f565b6001600160a01b0384166133705760405162461bcd60e51b81526004016108449061480e565b3361337f818787878787613527565b60005b845181101561347657600085828151811061339f5761339f6144b2565b6020026020010151905060008583815181106133bd576133bd6144b2565b6020908102919091018101516001600160a01b038b16600090815260028352604080822086835290935291909120549091508181101561340f5760405162461bcd60e51b815260040161084490614695565b6001600160a01b03808b16600090815260026020818152604080842088855282528084208787039055938d1683529081528282208683529052908120805484929061345b908490614561565b925050819055505050508061346f90614548565b9050613382565b50846001600160a01b0316866001600160a01b0316826001600160a01b03167f4a39dc06d4c0dbc64b70af90fd698a233a518aa5d07e595d983b8c0526c8f7fb87876040516134c69291906146bf565b60405180910390a461092b818787878787613633565b60408051600180825281830190925260609160009190602080830190803683370190505090508281600081518110613516576135166144b2565b602090810291909101015292915050565b6001600160a01b0385166135ae5760005b83518110156135ac57828181518110613553576135536144b2565b6020026020010151600d6000868481518110613571576135716144b2565b6020026020010151815260200190815260200160002060008282546135969190614561565b909155506135a5905081614548565b9050613538565b505b6001600160a01b03841661092b5760005b8351811015610e21578281815181106135da576135da6144b2565b6020026020010151600d60008684815181106135f8576135f86144b2565b60200260200101518152602001908152602001600020600082825461361d9190614651565b9091555061362c905081614548565b90506135bf565b6001600160a01b0384163b1561092b5760405163bc197c8160e01b81526001600160a01b0385169063bc197c81906136779089908990889088908890600401614834565b6020604051808303816000875af19250505080156136b2575060408051601f3d908101601f191682019092526136af91810190614892565b60015b613734576136be6148af565b806308c379a0036136f757506136d26148cb565b806136dd57506136f9565b8060405162461bcd60e51b81526004016108449190613bb6565b505b60405162461bcd60e51b815260206004820152601060248201526f10a2a92198989a9aa922a1a2a4ab22a960811b6044820152606401610844565b6001600160e01b0319811663bc197c8160e01b14610e215760405162461bcd60e51b815260206004820152600f60248201526e1513d2d15394d7d491529150d51151608a1b6044820152606401610844565b60606001600160a01b0384163b6137ee5760405162461bcd60e51b815260206004820152602660248201527f416464726573733a2064656c65676174652063616c6c20746f206e6f6e2d636f6044820152651b9d1c9858dd60d21b6064820152608401610844565b600080856001600160a01b0316856040516138099190614954565b600060405180830381855af49150503d8060008114613844576040519150601f19603f3d011682016040523d82523d6000602084013e613849565b606091505b5091509150613859828286613a66565b9695505050505050565b6001600160a01b0384163b1561092b5760405163f23a6e6160e01b81526001600160a01b0385169063f23a6e61906138a79089908990889088908890600401614970565b6020604051808303816000875af19250505080156138e2575060408051601f3d908101601f191682019092526138df91810190614892565b60015b6138ee576136be6148af565b6001600160e01b0319811663f23a6e6160e01b14610e215760405162461bcd60e51b815260206004820152600f60248201526e1513d2d15394d7d491529150d51151608a1b6044820152606401610844565b6001600160a01b0384166139665760405162461bcd60e51b81526004016108449061480e565b33613976818787612a43886134dc565b6001600160a01b0386166000908152600260209081526040808320878452909152902054838110156139ba5760405162461bcd60e51b815260040161084490614695565b6001600160a01b0380881660009081526002602081815260408084208a855282528084208987039055938a16835290815282822088835290529081208054869290613a06908490614561565b909155505060408051868152602081018690526001600160a01b03808916928a821692918616917fc3d58168c5ae7397731d063d5bbf3d657854427343f4c083240f7aacaa2d0f62910160405180910390a4610e21828888888888613863565b60608315613a755750816129ed565b825115613a855782518084602001fd5b8160405162461bcd60e51b81526004016108449190613bb6565b604080516101408101825260008082526020820181905290918201908152602001600081526020016000815260200160008152602001600081526020016000815260200160008152602001600081525090565b80356001600160a01b03811681146125af57600080fd5b60008060408385031215613b1c57600080fd5b613b2583613af2565b946020939093013593505050565b6001600160e01b03198116811461085657600080fd5b600060208284031215613b5b57600080fd5b81356129ed81613b33565b60005b83811015613b81578181015183820152602001613b69565b50506000910152565b60008151808452613ba2816020860160208601613b66565b601f01601f19169290920160200192915050565b6020815260006129ed6020830184613b8a565b600060208284031215613bdb57600080fd5b5035919050565b600060208284031215613bf457600080fd5b6129ed82613af2565b60008060408385031215613c1057600080fd5b50508035926020909101359150565b634e487b7160e01b600052604160045260246000fd5b601f8201601f191681016001600160401b0381118282101715613c5a57613c5a613c1f565b6040525050565b60006001600160401b03821115613c7a57613c7a613c1f565b5060051b60200190565b600082601f830112613c9557600080fd5b81356020613ca282613c61565b604051613caf8282613c35565b83815260059390931b8501820192828101915086841115613ccf57600080fd5b8286015b84811015613cea5780358352918301918301613cd3565b509695505050505050565b60006001600160401b03821115613d0e57613d0e613c1f565b50601f01601f191660200190565b600082601f830112613d2d57600080fd5b8135613d3881613cf5565b604051613d458282613c35565b828152856020848701011115613d5a57600080fd5b82602086016020830137600092810160200192909252509392505050565b600080600080600060a08688031215613d9057600080fd5b613d9986613af2565b9450613da760208701613af2565b935060408601356001600160401b0380821115613dc357600080fd5b613dcf89838a01613c84565b94506060880135915080821115613de557600080fd5b613df189838a01613c84565b93506080880135915080821115613e0757600080fd5b50613e1488828901613d1c565b9150509295509295909350565b801515811461085657600080fd5b600060208284031215613e4157600080fd5b81356129ed81613e21565b60008060408385031215613e5f57600080fd5b82356001600160401b0380821115613e7657600080fd5b818501915085601f830112613e8a57600080fd5b81356020613e9782613c61565b604051613ea48282613c35565b83815260059390931b8501820192828101915089841115613ec457600080fd5b948201945b83861015613ee957613eda86613af2565b82529482019490820190613ec9565b96505086013592505080821115613eff57600080fd5b50613f0c85828601613c84565b9150509250929050565b600081518084526020808501945080840160005b83811015613f4657815187529582019590820190600101613f2a565b509495945050505050565b6020815260006129ed6020830184613f16565b634e487b7160e01b600052602160045260246000fd5b6005811061085657634e487b7160e01b600052602160045260246000fd5b613fa181613f7a565b9052565b60006101408201905082518252602083015160208301526040830151613fce6040840182613f98565b506060830151613fe16060840182613f98565b506080830151608083015260a083015160a083015260c083015160c083015260e083015160e083015261010080840151818401525061012080840151818401525092915050565b60008060006060848603121561403d57600080fd5b61404684613af2565b925060208401356001600160401b038082111561406257600080fd5b61406e87838801613c84565b9350604086013591508082111561408457600080fd5b5061409186828701613c84565b9150509250925092565b602081016140a883613f7a565b91905290565b6000602082840312156140c057600080fd5b81356001600160401b038111156140d657600080fd5b6110ce84828501613d1c565b600080600080608085870312156140f857600080fd5b61410185613af2565b935060208501356001600160401b038082111561411d57600080fd5b61412988838901613c84565b9450604087013591508082111561413f57600080fd5b61414b88838901613c84565b9350606087013591508082111561416157600080fd5b5061416e87828801613d1c565b91505092959194509250565b60008060006060848603121561418f57600080fd5b8335925061419f60208501613af2565b9150604084013590509250925092565b600080604083850312156141c257600080fd5b6141cb83613af2565b915060208301356141db81613e21565b809150509250929050565b600080602083850312156141f957600080fd5b82356001600160401b038082111561421057600080fd5b818501915085601f83011261422457600080fd5b81358181111561423357600080fd5b8660208260051b850101111561424857600080fd5b60209290920196919550909350505050565b6000602080830181845280855180835260408601915060408160051b870101925083870160005b828110156142af57603f1988860301845261429d858351613b8a565b94509285019290850190600101614281565b5092979650505050505050565b600080600080608085870312156142d257600080fd5b6142db85613af2565b93506020850135925060408501356001600160401b038111156142fd57600080fd5b61430987828801613d1c565b949793965093946060013593505050565b60008060006060848603121561432f57600080fd5b833592506020840135915060408401356005811061434c57600080fd5b809150509250925092565b6000806040838503121561436a57600080fd5b61437383613af2565b915061438160208401613af2565b90509250929050565b600080600080600060a086880312156143a257600080fd5b6143ab86613af2565b94506143b960208701613af2565b9350604086013592506060860135915060808601356001600160401b038111156143e257600080fd5b613e1488828901613d1c565b60008060006060848603121561440357600080fd5b61440c84613af2565b95602085013595506040909401359392505050565b600181811c9082168061443557607f821691505b60208210810361445557634e487b7160e01b600052602260045260246000fd5b50919050565b6000835161446d818460208801613b66565b835190830190614481818360208801613b66565b01949350505050565b6020808252600e908201526d139bdd08185d5d1a1bdc9a5e995960921b604082015260600190565b634e487b7160e01b600052603260045260246000fd5b634e487b7160e01b600052601160045260246000fd5b808202811582820484141761069e5761069e6144c8565b634e487b7160e01b600052601260045260246000fd5b60008261451a5761451a6144f5565b500490565b6020808252600f908201526e0988a9c8ea890be9a92a69a82a8869608b1b604082015260600190565b60006001820161455a5761455a6144c8565b5060010190565b8082018082111561069e5761069e6144c8565b6000808335601e1984360301811261458b57600080fd5b8301803591506001600160401b038211156145a557600080fd5b6020019150368190038213156145ba57600080fd5b9250929050565b6000602082840312156145d357600080fd5b5051919050565b6000602082840312156145ec57600080fd5b81516001600160401b0381111561460257600080fd5b8201601f8101841361461357600080fd5b805161461e81613cf5565b60405161462b8282613c35565b82815286602084860101111561464057600080fd5b613859836020830160208701613b66565b8181038181111561069e5761069e6144c8565b600082614673576146736144f5565b500690565b60006020828403121561468a57600080fd5b81516129ed81613e21565b60208082526010908201526f125394d551919250d251539517d0905360821b604082015260600190565b6040815260006146d26040830185613f16565b82810360208401526132988185613f16565b601f821115610e2657600081815260208120601f850160051c8101602086101561470b5750805b601f850160051c820191505b8181101561092b57828155600101614717565b81516001600160401b0381111561474357614743613c1f565b614757816147518454614421565b846146e4565b602080601f83116001811461478c57600084156147745750858301515b600019600386901b1c1916600185901b17855561092b565b600085815260208120601f198616915b828110156147bb5788860151825594840194600190910190840161479c565b50858210156147d95787850151600019600388901b60f8161c191681555b5050505050600190811b01905550565b6040815260006147fc6040830185613b8a565b82810360208401526132988185613b8a565b6020808252600c908201526b2a27afad22a927afa0a2222960a11b604082015260600190565b6001600160a01b0386811682528516602082015260a06040820181905260009061486090830186613f16565b82810360608401526148728186613f16565b905082810360808401526148868185613b8a565b98975050505050505050565b6000602082840312156148a457600080fd5b81516129ed81613b33565b600060033d11156148c85760046000803e5060005160e01c5b90565b600060443d10156148d95790565b6040516003193d81016004833e81513d6001600160401b03816024840111818411171561490857505050505090565b82850191508151818111156149205750505050505090565b843d870101602082850101111561493a5750505050505090565b61494960208286010187613c35565b509095945050505050565b60008251614966818460208701613b66565b9190910192915050565b6001600160a01b03868116825285166020820152604081018490526060810183905260a0608082018190526000906149aa90830184613b8a565b97965050505050505056fe416464726573733a206c6f772d6c6576656c2064656c65676174652063616c6c206661696c6564a2646970667358221220306e295d96e9e3146c6b04da15f604ba32ff0f0ecb7a73b4de5bd76059a3cf9164736f6c63430008130033",
  "linkReferences": {},
  "deployedLinkReferences": {}
}