{
  "_format": "hh-sol-artifact-1",
  "contractName": "DappAccountFactory",
  "sourceName": "contracts/DappAccountFactory.sol",
  "abi": [
    {
      "inputs": [
        {
          "internalType": "contract IEntryPoint",
          "name": "_entrypoint",
          "type": "address"
        }
      ],
      "stateMutability": "nonpayable",
      "type": "constructor"
    },
    {
      "anonymous": false,
      "inputs": [
        {
          "indexed": true,
          "internalType": "address",
          "name": "account",
          "type": "address"
        },
        {
          "indexed": true,
          "internalType": "address",
          "name": "accountAdmin",
          "type": "address"
        }
      ],
      "name": "AccountCreated",
      "type": "event"
    },
    {
      "anonymous": false,
      "inputs": [
        {
          "indexed": false,
          "internalType": "string",
          "name": "prevURI",
          "type": "string"
        },
        {
          "indexed": false,
          "internalType": "string",
          "name": "newURI",
          "type": "string"
        }
      ],
      "name": "ContractURIUpdated",
      "type": "event"
    },
    {
      "anonymous": false,
      "inputs": [
        {
          "indexed": true,
          "internalType": "bytes32",
          "name": "role",
          "type": "bytes32"
        },
        {
          "indexed": true,
          "internalType": "bytes32",
          "name": "previousAdminRole",
          "type": "bytes32"
        },
        {
          "indexed": true,
          "internalType": "bytes32",
          "name": "newAdminRole",
          "type": "bytes32"
        }
      ],
      "name": "RoleAdminChanged",
      "type": "event"
    },
    {
      "anonymous": false,
      "inputs": [
        {
          "indexed": true,
          "internalType": "bytes32",
          "name": "role",
          "type": "bytes32"
        },
        {
          "indexed": true,
          "internalType": "address",
          "name": "account",
          "type": "address"
        },
        {
          "indexed": true,
          "internalType": "address",
          "name": "sender",
          "type": "address"
        }
      ],
      "name": "RoleGranted",
      "type": "event"
    },
    {
      "anonymous": false,
      "inputs": [
        {
          "indexed": true,
          "internalType": "bytes32",
          "name": "role",
          "type": "bytes32"
        },
        {
          "indexed": true,
          "internalType": "address",
          "name": "account",
          "type": "address"
        },
        {
          "indexed": true,
          "internalType": "address",
          "name": "sender",
          "type": "address"
        }
      ],
      "name": "RoleRevoked",
      "type": "event"
    },
    {
      "anonymous": false,
      "inputs": [
        {
          "indexed": true,
          "internalType": "address",
          "name": "account",
          "type": "address"
        },
        {
          "indexed": true,
          "internalType": "address",
          "name": "signer",
          "type": "address"
        }
      ],
      "name": "SignerAdded",
      "type": "event"
    },
    {
      "anonymous": false,
      "inputs": [
        {
          "indexed": true,
          "internalType": "address",
          "name": "account",
          "type": "address"
        },
        {
          "indexed": true,
          "internalType": "address",
          "name": "signer",
          "type": "address"
        }
      ],
      "name": "SignerRemoved",
      "type": "event"
    },
    {
      "inputs": [],
      "name": "DEFAULT_ADMIN_ROLE",
      "outputs": [
        {
          "internalType": "bytes32",
          "name": "",
          "type": "bytes32"
        }
      ],
      "stateMutability": "view",
      "type": "function"
    },
    {
      "inputs": [],
      "name": "accountImplementation",
      "outputs": [
        {
          "internalType": "address",
          "name": "",
          "type": "address"
        }
      ],
      "stateMutability": "view",
      "type": "function"
    },
    {
      "inputs": [],
      "name": "contractURI",
      "outputs": [
        {
          "internalType": "string",
          "name": "",
          "type": "string"
        }
      ],
      "stateMutability": "view",
      "type": "function"
    },
    {
      "inputs": [
        {
          "internalType": "address",
          "name": "_admin",
          "type": "address"
        },
        {
          "internalType": "bytes",
          "name": "_data",
          "type": "bytes"
        }
      ],
      "name": "createAccount",
      "outputs": [
        {
          "internalType": "address",
          "name": "",
          "type": "address"
        }
      ],
      "stateMutability": "nonpayable",
      "type": "function"
    },
    {
      "inputs": [],
      "name": "entrypoint",
      "outputs": [
        {
          "internalType": "address",
          "name": "",
          "type": "address"
        }
      ],
      "stateMutability": "view",
      "type": "function"
    },
    {
      "inputs": [
        {
          "internalType": "address",
          "name": "signer",
          "type": "address"
        }
      ],
      "name": "getAccountsOfSigner",
      "outputs": [
        {
          "internalType": "address[]",
          "name": "accounts",
          "type": "address[]"
        }
      ],
      "stateMutability": "view",
      "type": "function"
    },
    {
      "inputs": [
        {
          "internalType": "address",
          "name": "_adminSigner",
          "type": "address"
        },
        {
          "internalType": "bytes",
          "name": "_data",
          "type": "bytes"
        }
      ],
      "name": "getAddress",
      "outputs": [
        {
          "internalType": "address",
          "name": "",
          "type": "address"
        }
      ],
      "stateMutability": "view",
      "type": "function"
    },
    {
      "inputs": [],
      "name": "getAllAccounts",
      "outputs": [
        {
          "internalType": "address[]",
          "name": "",
          "type": "address[]"
        }
      ],
      "stateMutability": "view",
      "type": "function"
    },
    {
      "inputs": [
        {
          "internalType": "bytes32",
          "name": "role",
          "type": "bytes32"
        }
      ],
      "name": "getRoleAdmin",
      "outputs": [
        {
          "internalType": "bytes32",
          "name": "",
          "type": "bytes32"
        }
      ],
      "stateMutability": "view",
      "type": "function"
    },
    {
      "inputs": [
        {
          "internalType": "bytes32",
          "name": "role",
          "type": "bytes32"
        },
        {
          "internalType": "uint256",
          "name": "index",
          "type": "uint256"
        }
      ],
      "name": "getRoleMember",
      "outputs": [
        {
          "internalType": "address",
          "name": "member",
          "type": "address"
        }
      ],
      "stateMutability": "view",
      "type": "function"
    },
    {
      "inputs": [
        {
          "internalType": "bytes32",
          "name": "role",
          "type": "bytes32"
        }
      ],
      "name": "getRoleMemberCount",
      "outputs": [
        {
          "internalType": "uint256",
          "name": "count",
          "type": "uint256"
        }
      ],
      "stateMutability": "view",
      "type": "function"
    },
    {
      "inputs": [
        {
          "internalType": "bytes32",
          "name": "role",
          "type": "bytes32"
        },
        {
          "internalType": "address",
          "name": "account",
          "type": "address"
        }
      ],
      "name": "grantRole",
      "outputs": [],
      "stateMutability": "nonpayable",
      "type": "function"
    },
    {
      "inputs": [
        {
          "internalType": "bytes32",
          "name": "role",
          "type": "bytes32"
        },
        {
          "internalType": "address",
          "name": "account",
          "type": "address"
        }
      ],
      "name": "hasRole",
      "outputs": [
        {
          "internalType": "bool",
          "name": "",
          "type": "bool"
        }
      ],
      "stateMutability": "view",
      "type": "function"
    },
    {
      "inputs": [
        {
          "internalType": "bytes32",
          "name": "role",
          "type": "bytes32"
        },
        {
          "internalType": "address",
          "name": "account",
          "type": "address"
        }
      ],
      "name": "hasRoleWithSwitch",
      "outputs": [
        {
          "internalType": "bool",
          "name": "",
          "type": "bool"
        }
      ],
      "stateMutability": "view",
      "type": "function"
    },
    {
      "inputs": [
        {
          "internalType": "address",
          "name": "_account",
          "type": "address"
        }
      ],
      "name": "isRegistered",
      "outputs": [
        {
          "internalType": "bool",
          "name": "",
          "type": "bool"
        }
      ],
      "stateMutability": "view",
      "type": "function"
    },
    {
      "inputs": [
        {
          "internalType": "bytes[]",
          "name": "data",
          "type": "bytes[]"
        }
      ],
      "name": "multicall",
      "outputs": [
        {
          "internalType": "bytes[]",
          "name": "results",
          "type": "bytes[]"
        }
      ],
      "stateMutability": "nonpayable",
      "type": "function"
    },
    {
      "inputs": [],
      "name": "onRegister",
      "outputs": [],
      "stateMutability": "nonpayable",
      "type": "function"
    },
    {
      "inputs": [
        {
          "internalType": "address",
          "name": "_signer",
          "type": "address"
        }
      ],
      "name": "onSignerAdded",
      "outputs": [],
      "stateMutability": "nonpayable",
      "type": "function"
    },
    {
      "inputs": [
        {
          "internalType": "address",
          "name": "_signer",
          "type": "address"
        }
      ],
      "name": "onSignerRemoved",
      "outputs": [],
      "stateMutability": "nonpayable",
      "type": "function"
    },
    {
      "inputs": [
        {
          "internalType": "bytes32",
          "name": "role",
          "type": "bytes32"
        },
        {
          "internalType": "address",
          "name": "account",
          "type": "address"
        }
      ],
      "name": "renounceRole",
      "outputs": [],
      "stateMutability": "nonpayable",
      "type": "function"
    },
    {
      "inputs": [
        {
          "internalType": "bytes32",
          "name": "role",
          "type": "bytes32"
        },
        {
          "internalType": "address",
          "name": "account",
          "type": "address"
        }
      ],
      "name": "revokeRole",
      "outputs": [],
      "stateMutability": "nonpayable",
      "type": "function"
    },
    {
      "inputs": [
        {
          "internalType": "string",
          "name": "_uri",
          "type": "string"
        }
      ],
      "name": "setContractURI",
      "outputs": [],
      "stateMutability": "nonpayable",
      "type": "function"
    }
  ],
  "bytecode": "0x60c06040523480156200001157600080fd5b506040516200627f3803806200627f833981016040819052620000349162000234565b8030604051620000449062000226565b6001600160a01b03928316815291166020820152604001604051809103906000f08015801562000078573d6000803e3d6000fd5b506001600160a01b03908116608052811660a05262000099600033620000a0565b506200028e565b620000b78282620000c760201b62000c251760201c565b620000c3828262000158565b5050565b6000620000de620001de60201b62000ca81760201c565b6000848152602082815260408083206001600160a01b03871684529091529020805460ff191660011790559050620001133390565b6001600160a01b0316826001600160a01b0316847f2f8788117e7eff1d82e926ec794901d17c78024a50270940304540a733656f0d60405160405180910390a4505050565b60006200016f6200020260201b62000ccc1760201c565b6000848152602082905260408120805492935060019162000191838562000266565b909155505060009384526020918252604080852082865260018101845281862080546001600160a01b039096166001600160a01b0319909616861790559385526002909301909152912055565b7fd0ebebe8e6445c62babf8fef767eb39f1002bb957bb5b83258275a4e46428ed590565b7f0c4ba382c0009cf238e4c1ca1a52f51c61e6248a70bdfb34e5ed49d5578a5c0c90565b61411f806200216083390190565b6000602082840312156200024757600080fd5b81516001600160a01b03811681146200025f57600080fd5b9392505050565b808201808211156200028857634e487b7160e01b600052601160045260246000fd5b92915050565b60805160a051611e90620002d06000396000818161027c01526109a301526000818161017d015281816104ee015281816109440152610f830152611e906000f3fe608060405234801561001057600080fd5b50600436106101425760003560e01c8063a32fa5b3116100b8578063ca15c8731161007c578063ca15c873146102d9578063d547741f146102ec578063d8fd8f44146102ff578063e8a3d48514610312578063ed9e4b7d14610327578063eed89d721461033a57600080fd5b8063a32fa5b314610264578063a65d69d414610277578063ac9650d81461029e578063c3c5a547146102be578063c7b90cc3146102d157600080fd5b806336568abe1161010a57806336568abe146101ed5780638878ed33146102005780639010d07c1461021357806391d1485414610226578063938e3d7b14610249578063a217fddf1461025c57600080fd5b806308e93d0a146101475780630e6254fd1461016557806311464fbe14610178578063248a9ca3146101b75780632f2ff15d146101d8575b600080fd5b61014f61034d565b60405161015c9190611710565b60405180910390f35b61014f610173366004611779565b61035e565b61019f7f000000000000000000000000000000000000000000000000000000000000000081565b6040516001600160a01b03909116815260200161015c565b6101ca6101c5366004611794565b610388565b60405190815260200161015c565b6101eb6101e63660046117ad565b6103a8565b005b6101eb6101fb3660046117ad565b610455565b61019f61020e3660046117d9565b6104bb565b61019f61022136600461185c565b61051e565b6102396102343660046117ad565b610617565b604051901515815260200161015c565b6101eb610257366004611894565b61064d565b6101ca600081565b6102396102723660046117ad565b61069e565b61019f7f000000000000000000000000000000000000000000000000000000000000000081565b6102b16102ac366004611945565b6106ff565b60405161015c9190611a0a565b6102396102cc366004611779565b6107f4565b6101eb610800565b6101ca6102e7366004611794565b61084d565b6101eb6102fa3660046117ad565b6108e2565b61019f61030d3660046117d9565b610914565b61031a610a45565b60405161015c9190611a6c565b6101eb610335366004611779565b610afb565b6101eb610348366004611779565b610b90565b60606103596000610cf0565b905090565b6001600160a01b038116600090815260026020526040902060609061038290610cf0565b92915050565b600080610393610ca8565b60009384526001016020525050604090205490565b60006103b2610ca8565b60008481526001820160205260409020549091506103d09033610cfd565b6000838152602082815260408083206001600160a01b038616845290915290205460ff16156104465760405162461bcd60e51b815260206004820152601d60248201527f43616e206f6e6c79206772616e7420746f206e6f6e20686f6c6465727300000060448201526064015b60405180910390fd5b6104508383610d88565b505050565b336001600160a01b038216146104ad5760405162461bcd60e51b815260206004820152601a60248201527f43616e206f6e6c792072656e6f756e636520666f722073656c66000000000000604482015260640161043d565b6104b78282610d9c565b5050565b604080516001600160a01b03851660208083019190915282518083038201815291830190925280519101206000906105137f000000000000000000000000000000000000000000000000000000000000000082610db0565b9150505b9392505050565b600080610529610ccc565b600085815260208290526040812054919250805b8281101561060d576000878152602085815260408083208484526001019091529020546001600160a01b0316156105b8578582036105a6576000878152602094855260408082209282526001909201909452909220546001600160a01b03169250610382915050565b6105b1600183611a95565b91506105fb565b6105c3876000610617565b80156105e8575060008781526020858152604080832083805260020190915290205481145b156105fb576105f8600183611a95565b91505b610606600182611a95565b905061053d565b5050505092915050565b600080610622610ca8565b6000948552602090815260408086206001600160a01b03959095168652939052505090205460ff1690565b610655610e0a565b6106925760405162461bcd60e51b815260206004820152600e60248201526d139bdd08185d5d1a1bdc9a5e995960921b604482015260640161043d565b61069b81610e16565b50565b6000806106a9610ca8565b60008581526020828152604080832083805290915290205490915060ff166106f5576000848152602091825260408082206001600160a01b0386168352909252205460ff169050610382565b5060019392505050565b60608167ffffffffffffffff81111561071a5761071a61187e565b60405190808252806020026020018201604052801561074d57816020015b60608152602001906001900390816107385790505b50905060005b828110156107ed576107bd3085858481811061077157610771611aa8565b90506020028101906107839190611abe565b8080601f016020809104026020016040519081016040528093929190818152602001838380828437600092019190915250610f1792505050565b8282815181106107cf576107cf611aa8565b602002602001018190525080806107e590611b0c565b915050610753565b5092915050565b60006103828183610f3c565b3361080a81610f5e565b6108265760405162461bcd60e51b815260040161043d90611b25565b610831600082610fbd565b61069b5760405162461bcd60e51b815260040161043d90611b5c565b600080610858610ccc565b6000848152602082905260408120549192505b818110156108bc576000858152602084815260408083208484526001019091529020546001600160a01b0316156108aa576108a7600185611a95565b93505b6108b5600182611a95565b905061086b565b506108c8846000610617565b156108db576108d8600184611a95565b92505b5050919050565b60006108ec610ca8565b600084815260018201602052604090205490915061090a9033610cfd565b6104508383610d9c565b604080516001600160a01b03851660208083019190915282518083038201815291830190925280519101206000907f00000000000000000000000000000000000000000000000000000000000000009060006109708383610db0565b90506001600160a01b0381163b1561098c579250610517915050565b6109968383610fd2565b9050336001600160a01b037f000000000000000000000000000000000000000000000000000000000000000016146109ef576109d3600082610fbd565b6109ef5760405162461bcd60e51b815260040161043d90611b5c565b6109fb8188888861106f565b866001600160a01b0316816001600160a01b03167fac631f3001b55ea1509cf3d7e74898f85392a61a76e8149181ae1259622dabc860405160405180910390a39695505050505050565b7fa7d40346e44ca145e94a946aa34a7d4a67245577dc18699a626fe0ffc6ce32818054606091908190610a7790611ba6565b80601f0160208091040260200160405190810160405280929190818152602001828054610aa390611ba6565b8015610af05780601f10610ac557610100808354040283529160200191610af0565b820191906000526020600020905b815481529060010190602001808311610ad357829003601f168201915b505050505091505090565b33610b0581610f5e565b610b215760405162461bcd60e51b815260040161043d90611b25565b6001600160a01b0382166000908152600260205260408120610b439083610fbd565b9050801561045057826001600160a01b0316826001600160a01b03167f12146497b3b826918ec47f0cac7272a09ed06b30c16c030e99ec48ff5dd60b4760405160405180910390a3505050565b33610b9a81610f5e565b610bb65760405162461bcd60e51b815260040161043d90611b25565b6001600160a01b0382166000908152600260205260408120610bd890836110d7565b9050801561045057826001600160a01b0316826001600160a01b03167f98d1ebbe00ae92a5de96a0f49742a8afa89f42363592bc2e7cfaaed68b45e7a660405160405180910390a3505050565b6000610c2f610ca8565b6000848152602082815260408083206001600160a01b03871684529091529020805460ff191660011790559050610c633390565b6001600160a01b0316826001600160a01b0316847f2f8788117e7eff1d82e926ec794901d17c78024a50270940304540a733656f0d60405160405180910390a4505050565b7fd0ebebe8e6445c62babf8fef767eb39f1002bb957bb5b83258275a4e46428ed590565b7f0c4ba382c0009cf238e4c1ca1a52f51c61e6248a70bdfb34e5ed49d5578a5c0c90565b60606000610517836110ec565b6000610d07610ca8565b6000848152602082815260408083206001600160a01b038716845290915290205490915060ff1661045057610d46826001600160a01b03166014611148565b610d51846020611148565b604051602001610d62929190611be0565b60408051601f198184030181529082905262461bcd60e51b825261043d91600401611a6c565b610d928282610c25565b6104b782826112e4565b610da6828261135b565b6104b782826113c8565b6040513060388201526f5af43d82803e903d91602b57fd5bf3ff60248201526014810192909252733d602d80600a3d3981f3363d3d373d3d3d363d73825260588201526037600c8201206078820152605560439091012090565b60006103598133610617565b7fa7d40346e44ca145e94a946aa34a7d4a67245577dc18699a626fe0ffc6ce328180546000908290610e4790611ba6565b80601f0160208091040260200160405190810160405280929190818152602001828054610e7390611ba6565b8015610ec05780601f10610e9557610100808354040283529160200191610ec0565b820191906000526020600020905b815481529060010190602001808311610ea357829003601f168201915b5050505050905082826000019081610ed89190611c9b565b507fc9c7c3fe08b88b4df9d4d47ef47d2c43d55c025a0ba88ca442580ed9e7348a168184604051610f0a929190611d5b565b60405180910390a1505050565b60606105178383604051806060016040528060278152602001611e346027913961141d565b6001600160a01b03811660009081526001830160205260408120541515610517565b600080610f6a836114fa565b90506000836001600160a01b03163b11801561051757507f00000000000000000000000000000000000000000000000000000000000000006001600160a01b0316816001600160a01b0316149392505050565b6000610517836001600160a01b038416611530565b6000763d602d80600a3d3981f3363d3d373d3d3d363d730000008360601b60e81c176000526e5af43d82803e903d91602b57fd5bf38360781b1760205281603760096000f590506001600160a01b0381166103825760405162461bcd60e51b815260206004820152601760248201527f455243313136373a2063726561746532206661696c6564000000000000000000604482015260640161043d565b60405163347d5e2560e21b81526001600160a01b0385169063d1f578949061109f90869086908690600401611d80565b600060405180830381600087803b1580156110b957600080fd5b505af11580156110cd573d6000803e3d6000fd5b5050505050505050565b6000610517836001600160a01b03841661157f565b60608160000180548060200260200160405190810160405280929190818152602001828054801561113c57602002820191906000526020600020905b815481526020019060010190808311611128575b50505050509050919050565b60606000611157836002611dc0565b611162906002611a95565b67ffffffffffffffff81111561117a5761117a61187e565b6040519080825280601f01601f1916602001820160405280156111a4576020820181803683370190505b509050600360fc1b816000815181106111bf576111bf611aa8565b60200101906001600160f81b031916908160001a905350600f60fb1b816001815181106111ee576111ee611aa8565b60200101906001600160f81b031916908160001a9053506000611212846002611dc0565b61121d906001611a95565b90505b6001811115611295576f181899199a1a9b1b9c1cb0b131b232b360811b85600f166010811061125157611251611aa8565b1a60f81b82828151811061126757611267611aa8565b60200101906001600160f81b031916908160001a90535060049490941c9361128e81611dd7565b9050611220565b5083156105175760405162461bcd60e51b815260206004820181905260248201527f537472696e67733a20686578206c656e67746820696e73756666696369656e74604482015260640161043d565b60006112ee610ccc565b6000848152602082905260408120805492935060019161130e8385611a95565b909155505060009384526020918252604080852082865260018101845281862080546001600160a01b039096166001600160a01b0319909616861790559385526002909301909152912055565b6000611365610ca8565b90506113718383610cfd565b6000838152602082815260408083206001600160a01b0386168085529252808320805460ff1916905551339286917ff6391f5c32d9c69d2a47ea670b442974b53935d1edc7fd64eb21e047a839171b9190a4505050565b60006113d2610ccc565b6000938452602090815260408085206001600160a01b0390941680865260028501808452828720805488526001909601845291862080546001600160a01b0319169055855290525055565b60606001600160a01b0384163b6114855760405162461bcd60e51b815260206004820152602660248201527f416464726573733a2064656c65676174652063616c6c20746f206e6f6e2d636f6044820152651b9d1c9858dd60d21b606482015260840161043d565b600080856001600160a01b0316856040516114a09190611dee565b600060405180830381855af49150503d80600081146114db576040519150601f19603f3d011682016040523d82523d6000602084013e6114e0565b606091505b50915091506114f0828286611672565b9695505050505050565b600080826001600160a01b0316803b806020016040519081016040528181526000908060200190933c905061051781600a6116ab565b600081815260018301602052604081205461157757508154600181810184556000848152602080822090930184905584548482528286019093526040902091909155610382565b506000610382565b600081815260018301602052604081205480156116685760006115a3600183611e0a565b85549091506000906115b790600190611e0a565b905081811461161c5760008660000182815481106115d7576115d7611aa8565b90600052602060002001549050808760000184815481106115fa576115fa611aa8565b6000918252602080832090910192909255918252600188019052604090208390555b855486908061162d5761162d611e1d565b600190038181906000526020600020016000905590558560010160008681526020019081526020016000206000905560019350505050610382565b6000915050610382565b60608315611681575081610517565b8251156116915782518084602001fd5b8160405162461bcd60e51b815260040161043d9190611a6c565b60006116b8826014611a95565b835110156117005760405162461bcd60e51b8152602060048201526015602482015274746f416464726573735f6f75744f66426f756e647360581b604482015260640161043d565b500160200151600160601b900490565b6020808252825182820181905260009190848201906040850190845b818110156117515783516001600160a01b03168352928401929184019160010161172c565b50909695505050505050565b80356001600160a01b038116811461177457600080fd5b919050565b60006020828403121561178b57600080fd5b6105178261175d565b6000602082840312156117a657600080fd5b5035919050565b600080604083850312156117c057600080fd5b823591506117d06020840161175d565b90509250929050565b6000806000604084860312156117ee57600080fd5b6117f78461175d565b9250602084013567ffffffffffffffff8082111561181457600080fd5b818601915086601f83011261182857600080fd5b81358181111561183757600080fd5b87602082850101111561184957600080fd5b6020830194508093505050509250925092565b6000806040838503121561186f57600080fd5b50508035926020909101359150565b634e487b7160e01b600052604160045260246000fd5b6000602082840312156118a657600080fd5b813567ffffffffffffffff808211156118be57600080fd5b818401915084601f8301126118d257600080fd5b8135818111156118e4576118e461187e565b604051601f8201601f19908116603f0116810190838211818310171561190c5761190c61187e565b8160405282815287602084870101111561192557600080fd5b826020860160208301376000928101602001929092525095945050505050565b6000806020838503121561195857600080fd5b823567ffffffffffffffff8082111561197057600080fd5b818501915085601f83011261198457600080fd5b81358181111561199357600080fd5b8660208260051b85010111156119a857600080fd5b60209290920196919550909350505050565b60005b838110156119d55781810151838201526020016119bd565b50506000910152565b600081518084526119f68160208601602086016119ba565b601f01601f19169290920160200192915050565b6000602080830181845280855180835260408601915060408160051b870101925083870160005b82811015611a5f57603f19888603018452611a4d8583516119de565b94509285019290850190600101611a31565b5092979650505050505050565b60208152600061051760208301846119de565b634e487b7160e01b600052601160045260246000fd5b8082018082111561038257610382611a7f565b634e487b7160e01b600052603260045260246000fd5b6000808335601e19843603018112611ad557600080fd5b83018035915067ffffffffffffffff821115611af057600080fd5b602001915036819003821315611b0557600080fd5b9250929050565b600060018201611b1e57611b1e611a7f565b5060010190565b6020808252601f908201527f4163636f756e74466163746f72793a206e6f7420616e206163636f756e742e00604082015260600190565b6020808252602a908201527f4163636f756e74466163746f72793a206163636f756e7420616c7265616479206040820152691c9959da5cdd195c995960b21b606082015260800190565b600181811c90821680611bba57607f821691505b602082108103611bda57634e487b7160e01b600052602260045260246000fd5b50919050565b7402832b936b4b9b9b4b7b7399d1030b1b1b7bab73a1605d1b815260008351611c108160158501602088016119ba565b7001034b99036b4b9b9b4b733903937b6329607d1b6015918401918201528351611c418160268401602088016119ba565b01602601949350505050565b601f82111561045057600081815260208120601f850160051c81016020861015611c745750805b601f850160051c820191505b81811015611c9357828155600101611c80565b505050505050565b815167ffffffffffffffff811115611cb557611cb561187e565b611cc981611cc38454611ba6565b84611c4d565b602080601f831160018114611cfe5760008415611ce65750858301515b600019600386901b1c1916600185901b178555611c93565b600085815260208120601f198616915b82811015611d2d57888601518255948401946001909101908401611d0e565b5085821015611d4b5787850151600019600388901b60f8161c191681555b5050505050600190811b01905550565b604081526000611d6e60408301856119de565b828103602084015261051381856119de565b6001600160a01b03841681526040602082018190528101829052818360608301376000818301606090810191909152601f909201601f1916010192915050565b808202811582820484141761038257610382611a7f565b600081611de657611de6611a7f565b506000190190565b60008251611e008184602087016119ba565b9190910192915050565b8181038181111561038257610382611a7f565b634e487b7160e01b600052603160045260246000fdfe416464726573733a206c6f772d6c6576656c2064656c65676174652063616c6c206661696c6564a2646970667358221220fceee30f9ede313a37c90af73d4debf61417806fe4ebbed88cc60c50150e7b5f64736f6c634300081100336101806040523480156200001257600080fd5b506040516200411f3803806200411f83398101604081905262000035916200024e565b60408051808201825260078152661058d8dbdd5b9d60ca1b60208083019182528351808501855260018152603160f81b908201529151902060e08190527fc89efdaa54c0f20c7adf612882df0950f5a951637e0307cdcb4c672f298b8bc66101008190524660a081815285517f8b73c3c69bb8fe3d512ecc4cf759cc79239f7b179b0ffacaa9a75d522b39400f818701819052818801959095526060810193909352608080840192909252308382018190528651808503909201825260c093840190965280519401939093209092529190526101205281816200011762000134565b6001600160a01b03908116610140521661016052506200028d9050565b60006200014b6200021160201b62001c4e1760201c565b805490915060ff808216916101009004168015620001bf5760405162461bcd60e51b815260206004820152602760248201527f496e697469616c697a61626c653a20636f6e747261637420697320696e697469604482015266616c697a696e6760c81b606482015260840160405180910390fd5b60ff82811610156200020c57825460ff191660ff90811784556040519081527f7f26b83ff96e1f2b6a682f133852f6798a09c465da95921460cefb38474024989060200160405180910390a15b505050565b7f627d6cbb4eb558f37de3c2ec08b04710e54e06be936a302f087f7bfb80f39ae090565b6001600160a01b03811681146200024b57600080fd5b50565b600080604083850312156200026257600080fd5b82516200026f8162000235565b6020840151909250620002828162000235565b809150509250929050565b60805160a05160c05160e05161010051610120516101405161016051613dc36200035c600039600081816104a301528181610e1201528181610e7d01528181610f9c01528181611098015281816115d801528181611643015281816116f9015281816117910152611dee01526000818161053a01528181611f9001528181611fc00152818161204801528181612181015281816121cc015261221a01526000612b4601526000612b9501526000612b7001526000612ac901526000612af301526000612b1d0152613dc36000f3fe6080604052600436106101d15760003560e01c80638b52d723116100f7578063c45a015511610095578063e8a3d48511610064578063e8a3d485146105a6578063e9523c97146105c8578063f15d424e146105ea578063f23a6e611461061757600080fd5b8063c45a015514610528578063d087d2881461055c578063d1f5789414610571578063d42f2f351461059157600080fd5b8063b0d691fe116100d1578063b0d691fe14610494578063b61d27f6146104c7578063bc197c81146104e7578063c399ec881461051357600080fd5b80638b52d72314610425578063938e3d7b14610447578063ac9650d81461046757600080fd5b80633a871cdd1161016f5780634b0bddd21161013e5780634b0bddd2146103865780634d44560d146103a657806373e925d6146103c65780637dff5a791461040557600080fd5b80633a871cdd1461031057806340053da61461033e57806347e1da2a1461035e5780634a58db191461037e57600080fd5b806318e45427116101ab57806318e45427146102765780631dd756c5146102ae57806324d7806c146102ce5780632ab25f63146102ee57600080fd5b806301ffc9a7146101dd578063150b7a02146102125780631626ba7e1461025657600080fd5b366101d857005b600080fd5b3480156101e957600080fd5b506101fd6101f8366004612c66565b610643565b60405190151581526020015b60405180910390f35b34801561021e57600080fd5b5061023d61022d366004612d62565b630a85bd0160e11b949350505050565b6040516001600160e01b03199091168152602001610209565b34801561026257600080fd5b5061023d610271366004612dcd565b610689565b34801561028257600080fd5b50600054610296906001600160a01b031681565b6040516001600160a01b039091168152602001610209565b3480156102ba57600080fd5b506101fd6102c9366004612e2c565b6106c7565b3480156102da57600080fd5b506101fd6102e9366004612e71565b610962565b3480156102fa57600080fd5b5061030e610309366004612e71565b61099f565b005b34801561031c57600080fd5b5061033061032b366004612e8e565b6109ef565b604051908152602001610209565b34801561034a57600080fd5b5061030e610359366004612f1c565b610a15565b34801561036a57600080fd5b5061030e610379366004612fd1565b610e07565b61030e610f9a565b34801561039257600080fd5b5061030e6103a1366004613078565b61101a565b3480156103b257600080fd5b5061030e6103c13660046130b1565b61104d565b3480156103d257600080fd5b506103e66103e1366004612f1c565b6110f9565b6040805192151583526001600160a01b03909116602083015201610209565b34801561041157600080fd5b506101fd610420366004612e71565b61114e565b34801561043157600080fd5b5061043a61121a565b6040516102099190613182565b34801561045357600080fd5b5061030e6104623660046131e4565b6114b0565b34801561047357600080fd5b5061048761048236600461322c565b6114e0565b60405161020991906132bd565b3480156104a057600080fd5b507f0000000000000000000000000000000000000000000000000000000000000000610296565b3480156104d357600080fd5b5061030e6104e2366004613312565b6115cd565b3480156104f357600080fd5b5061023d6105023660046133fb565b63bc197c8160e01b95945050505050565b34801561051f57600080fd5b506103306116d9565b34801561053457600080fd5b506102967f000000000000000000000000000000000000000000000000000000000000000081565b34801561056857600080fd5b5061033061176a565b34801561057d57600080fd5b5061030e61058c3660046134a8565b6117c0565b34801561059d57600080fd5b5061043a6118de565b3480156105b257600080fd5b506105bb611a7c565b60405161020991906134ef565b3480156105d457600080fd5b506105dd611b32565b6040516102099190613502565b3480156105f657600080fd5b5061060a610605366004612e71565b611b52565b604051610209919061354f565b34801561062357600080fd5b5061023d610632366004613562565b63f23a6e6160e01b95945050505050565b60006001600160e01b03198216630271189760e51b148061067457506001600160e01b03198216630a85bd0160e11b145b80610683575061068382611c72565b92915050565b6000806106968484611ca7565b90506106a181610962565b806106b057506106b08161114e565b156106c057630b135d3f60e11b91505b5092915050565b6001600160a01b03821660009081527ff2776159535489b2c8217c06dac58993e45cb245272f968642d4d3ef6aa761546020526040812054600080516020613d478339815191529060ff1615610721576001915050610683565b6001600160a01b03841660009081526005820160209081526040918290208251606081018452815481526001909101546001600160801b03808216938301849052600160801b909104169281019290925242108061078c575080604001516001600160801b03164210155b806107b757506001600160a01b038516600090815260068301602052604090206107b590611ccb565b155b156107c757600092505050610683565b60006107de6107d960608701876135ca565b611cd5565b90506324f16c0560e11b6001600160e01b03198216016108615760008061081061080b60608901896135ca565b611d0f565b91509150808460000151108061084757506001600160a01b038816600090815260068601602052604090206108459083611d74565b155b1561085a57600095505050505050610683565b5050610956565b635c0f12eb60e11b6001600160e01b031982160161094a5760008061089161088c60608901896135ca565b611d96565b509150915060005b8251811015610942578181815181106108b4576108b4613610565b60200260200101518560000151108061091c575061091a8382815181106108dd576108dd613610565b60200260200101518760060160008c6001600160a01b03166001600160a01b03168152602001908152602001600020611d7490919063ffffffff16565b155b156109305760009650505050505050610683565b8061093a8161363c565b915050610899565b505050610956565b60009350505050610683565b50600195945050505050565b6001600160a01b031660009081527ff2776159535489b2c8217c06dac58993e45cb245272f968642d4d3ef6aa76154602052604090205460ff1690565b6109a833610962565b6109cd5760405162461bcd60e51b81526004016109c490613655565b60405180910390fd5b600080546001600160a01b0319166001600160a01b0392909216919091179055565b60006109f9611de3565b610a038484611e5d565b9050610a0e82611f02565b9392505050565b6000610a246020850185612e71565b9050610a2f81610962565b15610a935760405162461bcd60e51b815260206004820152602e60248201527f4163636f756e745065726d697373696f6e733a207369676e657220697320616c60448201526d3932b0b23c9030b71030b236b4b760911b60648201526084016109c4565b42610aa460c0860160a087016136bb565b6001600160801b031611158015610ad25750610ac660e0850160c086016136bb565b6001600160801b031642105b610b3a5760405162461bcd60e51b815260206004820152603360248201527f4163636f756e745065726d697373696f6e733a20696e76616c69642072657175604482015272195cdd081d985b1a591a5d1e481c195c9a5bd9606a1b60648201526084016109c4565b600080610b488686866110f9565b9150915081610ba75760405162461bcd60e51b815260206004820152602560248201527f4163636f756e745065726d697373696f6e733a20696e76616c6964207369676e604482015264617475726560d81b60648201526084016109c4565b600080516020613d47833981519152610be07ff2776159535489b2c8217c06dac58993e45cb245272f968642d4d3ef6aa7615285611f4f565b5060e08701356000908152600782016020908152604091829020805460ff19166001179055815160608082018452928a013581529190820190610c299060808b01908b016136bb565b6001600160801b03168152602001610c4760a08a0160808b016136bb565b6001600160801b039081169091526001600160a01b038616600090815260058401602090815260408083208551815585830151958201518516600160801b02959094169490941760019093019290925560068401909152908120610caa90611f64565b805190915060005b81811015610d1f57610d0c838281518110610ccf57610ccf613610565b60200260200101518560060160008a6001600160a01b03166001600160a01b03168152602001908152602001600020611f7190919063ffffffff16565b50610d186001826136d6565b9050610cb2565b506000610d2f60208b018b6136e9565b9050905060005b81811015610da657610d93610d4e60208d018d6136e9565b83818110610d5e57610d5e613610565b9050602002016020810190610d739190612e71565b6001600160a01b038a166000908152600688016020526040902090611f4f565b50610d9f6001826136d6565b9050610d36565b50610db08a611f86565b866001600160a01b0316856001600160a01b03167f09ac2cdf09c127af4eedd5aab0a6ca1224c4ae5586d5339657f7fa675d079b948c604051610df391906137c3565b60405180910390a350505050505050505050565b336001600160a01b037f0000000000000000000000000000000000000000000000000000000000000000161480610e425750610e4233610962565b610e5e5760405162461bcd60e51b81526004016109c49061389f565b6000546001600160a01b0316331480610e9f5750336001600160a01b037f000000000000000000000000000000000000000000000000000000000000000016145b80610eae5750610eae33610962565b610eca5760405162461bcd60e51b81526004016109c4906138e0565b610ed2612033565b60005b85811015610f9157610f7e878783818110610ef257610ef2613610565b9050602002016020810190610f079190612e71565b868684818110610f1957610f19613610565b90506020020135858585818110610f3257610f32613610565b9050602002810190610f4491906135ca565b8080601f0160208091040260200160405190810160405280939291908181526020018383808284376000920191909152506120fc92505050565b5080610f898161363c565b915050610ed5565b50505050505050565b7f000000000000000000000000000000000000000000000000000000000000000060405163b760faf960e01b81523060048201526001600160a01b03919091169063b760faf99034906024016000604051808303818588803b158015610fff57600080fd5b505af1158015611013573d6000803e3d6000fd5b5050505050565b61102333610962565b61103f5760405162461bcd60e51b81526004016109c490613655565b611049828261216d565b5050565b61105633610962565b6110725760405162461bcd60e51b81526004016109c490613655565b60405163040b850f60e31b81526001600160a01b038381166004830152602482018390527f0000000000000000000000000000000000000000000000000000000000000000169063205c2878906044015b600060405180830381600087803b1580156110dd57600080fd5b505af11580156110f1573d6000803e3d6000fd5b505050505050565b600080600080516020613d47833981519152611116868686612249565b60e0870135600090815260078301602052604090205490925060ff16158015611143575061114382610962565b925050935093915050565b6001600160a01b03811660009081527ff2776159535489b2c8217c06dac58993e45cb245272f968642d4d3ef6aa76155602090815260408083208151606081018352815481526001909101546001600160801b03808216948301859052600160801b9091041691810191909152600080516020613d478339815191529142108015906111e6575080604001516001600160801b031642105b801561121257506001600160a01b0384166000908152600683016020526040812061121090611ccb565b115b949350505050565b6060600080516020613d4783398151915260006112567ff2776159535489b2c8217c06dac58993e45cb245272f968642d4d3ef6aa76152611f64565b8051909150600080826001600160401b0381111561127657611276612ca5565b60405190808252806020026020018201604052801561129f578160200160208202803683370190505b50905060005b838110156113245760008582815181106112c1576112c1613610565b6020026020010151905060006112d68261114e565b9050808484815181106112eb576112eb613610565b91151560209283029190910190910152801561130f578461130b8161363c565b9550505b5061131d90506001826136d6565b90506112a5565b50816001600160401b0381111561133d5761133d612ca5565b60405190808252806020026020018201604052801561137657816020015b611363612c1c565b81526020019060019003908161135b5790505b5095506000805b848110156114a65782818151811061139757611397613610565b6020026020010151156114945760008682815181106113b8576113b8613610565b6020908102919091018101516001600160a01b038116600081815260058c01845260408082208151606081018352815481526001909101546001600160801b0380821683890152600160801b9091041681830152815160a08101835284815293835260068e01865291209294509290919082019061143590611f64565b81526020018260000151815260200182602001516001600160801b0316815260200182604001516001600160801b03168152508a85806114749061363c565b96508151811061148657611486613610565b602002602001018190525050505b61149f6001826136d6565b905061137d565b5050505050505090565b6114b86122a5565b6114d45760405162461bcd60e51b81526004016109c4906138e0565b6114dd816122b0565b50565b6060816001600160401b038111156114fa576114fa612ca5565b60405190808252806020026020018201604052801561152d57816020015b60608152602001906001900390816115185790505b50905060005b828110156106c05761159d3085858481811061155157611551613610565b905060200281019061156391906135ca565b8080601f0160208091040260200160405190810160405280939291908181526020018383808284376000920191909152506123b192505050565b8282815181106115af576115af613610565b602002602001018190525080806115c59061363c565b915050611533565b336001600160a01b037f0000000000000000000000000000000000000000000000000000000000000000161480611608575061160833610962565b6116245760405162461bcd60e51b81526004016109c49061389f565b6000546001600160a01b03163314806116655750336001600160a01b037f000000000000000000000000000000000000000000000000000000000000000016145b80611674575061167433610962565b6116905760405162461bcd60e51b81526004016109c4906138e0565b611698612033565b611013848484848080601f0160208091040260200160405190810160405280939291908181526020018383808284376000920191909152506120fc92505050565b6040516370a0823160e01b81523060048201526000906001600160a01b037f000000000000000000000000000000000000000000000000000000000000000016906370a08231906024015b602060405180830381865afa158015611741573d6000803e3d6000fd5b505050506040513d601f19601f820116820180604052508101906117659190613908565b905090565b604051631aab3f0d60e11b8152306004820152600060248201819052906001600160a01b037f000000000000000000000000000000000000000000000000000000000000000016906335567e1a90604401611724565b60006117ca611c4e565b805490915060ff8082169161010090041680158080156117ed575060018360ff16105b806118055750303b15801561180557508260ff166001145b6118685760405162461bcd60e51b815260206004820152602e60248201527f496e697469616c697a61626c653a20636f6e747261637420697320616c72656160448201526d191e481a5b9a5d1a585b1a5e995960921b60648201526084016109c4565b835460ff19166001178455801561188757835461ff0019166101001784555b61189287600161216d565b8015610f9157835461ff0019168455604051600181527f7f26b83ff96e1f2b6a682f133852f6798a09c465da95921460cefb38474024989060200160405180910390a150505050505050565b6060600080516020613d47833981519152600061191a7ff2776159535489b2c8217c06dac58993e45cb245272f968642d4d3ef6aa76152611f64565b8051909150806001600160401b0381111561193757611937612ca5565b60405190808252806020026020018201604052801561197057816020015b61195d612c1c565b8152602001906001900390816119555790505b50935060005b81811015611a7557600083828151811061199257611992613610565b6020908102919091018101516001600160a01b038116600081815260058901845260408082208151606081018352815481526001909101546001600160801b0380821683890152600160801b9091041681830152815160a08101835284815293835260068b018652912092945092909190820190611a0f90611f64565b81526020018260000151815260200182602001516001600160801b0316815260200182604001516001600160801b0316815250878481518110611a5457611a54613610565b60200260200101819052505050600181611a6e91906136d6565b9050611976565b5050505090565b7fa7d40346e44ca145e94a946aa34a7d4a67245577dc18699a626fe0ffc6ce32818054606091908190611aae90613921565b80601f0160208091040260200160405190810160405280929190818152602001828054611ada90613921565b8015611b275780601f10611afc57610100808354040283529160200191611b27565b820191906000526020600020905b815481529060010190602001808311611b0a57829003601f168201915b505050505091505090565b6060600080516020613d47833981519152611b4c81611f64565b91505090565b611b5a612c1c565b6001600160a01b03821660008181527ff2776159535489b2c8217c06dac58993e45cb245272f968642d4d3ef6aa76155602090815260408083208151606081018352815481526001909101546001600160801b0380821683860152600160801b9091041681830152815160a0810183528581529484527ff2776159535489b2c8217c06dac58993e45cb245272f968642d4d3ef6aa7615683529220600080516020613d478339815191529391820190611c1290611f64565b81526020018260000151815260200182602001516001600160801b0316815260200182604001516001600160801b031681525092505050919050565b7f627d6cbb4eb558f37de3c2ec08b04710e54e06be936a302f087f7bfb80f39ae090565b60006001600160e01b03198216630271189760e51b148061068357506301ffc9a760e01b6001600160e01b0319831614610683565b6000806000611cb685856123d6565b91509150611cc38161241b565b509392505050565b6000610683825490565b60006004821015611cf85760405162461bcd60e51b81526004016109c490613955565b611d0660046000848661397d565b610a0e916139a7565b6000806044831015611d335760405162461bcd60e51b81526004016109c490613955565b611d4160246004858761397d565b810190611d4e9190612e71565b9150611d5e60446024858761397d565b810190611d6b91906139d7565b90509250929050565b6001600160a01b03811660009081526001830160205260408120541515610a0e565b606080806064841015611dbb5760405162461bcd60e51b81526004016109c490613955565b611dc8846004818861397d565b810190611dd59190613a6f565b919790965090945092505050565b336001600160a01b037f00000000000000000000000000000000000000000000000000000000000000001614611e5b5760405162461bcd60e51b815260206004820152601c60248201527f6163636f756e743a206e6f742066726f6d20456e747279506f696e740000000060448201526064016109c4565b565b7f19457468657265756d205369676e6564204d6573736167653a0a3332000000006000908152601c829052603c81206000611edc611e9f6101408701876135ca565b8080601f0160208091040260200160405190810160405280939291908181526020018383808284376000920191909152508693925050611ca79050565b9050611ee881866106c7565b611ef757600192505050610683565b506000949350505050565b80156114dd57604051600090339060001990849084818181858888f193505050503d8060008114611013576040519150601f19603f3d011682016040523d82523d6000602084013e611013565b6000610a0e836001600160a01b038416612565565b60606000610a0e836125b4565b6000610a0e836001600160a01b038416612610565b6001600160a01b037f0000000000000000000000000000000000000000000000000000000000000000163b156114dd576001600160a01b037f00000000000000000000000000000000000000000000000000000000000000001663ed9e4b7d611ff26020840184612e71565b6040516001600160e01b031960e084901b1681526001600160a01b039091166004820152602401600060405180830381600087803b158015610fff57600080fd5b60405163c3c5a54760e01b81523060048201527f0000000000000000000000000000000000000000000000000000000000000000906001600160a01b0382169063c3c5a54790602401602060405180830381865afa158015612099573d6000803e3d6000fd5b505050506040513d601f19601f820116820180604052508101906120bd9190613b54565b6114dd57806001600160a01b031663c7b90cc36040518163ffffffff1660e01b8152600401600060405180830381600087803b158015610fff57600080fd5b60606000846001600160a01b031684846040516121199190613b71565b60006040518083038185875af1925050503d8060008114612156576040519150601f19603f3d011682016040523d82523d6000602084013e61215b565b606091505b509250905080611cc357815160208301fd5b6121778282612703565b6001600160a01b037f0000000000000000000000000000000000000000000000000000000000000000163b156110495780156121fb5760405163ed9e4b7d60e01b81526001600160a01b0383811660048301527f0000000000000000000000000000000000000000000000000000000000000000169063ed9e4b7d906024016110c3565b60405163776c4eb960e11b81526001600160a01b0383811660048301527f0000000000000000000000000000000000000000000000000000000000000000169063eed89d72906024016110c3565b600061121283838080601f01602080910402602001604051908101604052809392919081815260200183838082843760009201919091525061229f925061229391508890506127c5565b805190602001206128ee565b90611ca7565b600061176533610962565b7fa7d40346e44ca145e94a946aa34a7d4a67245577dc18699a626fe0ffc6ce3281805460009082906122e190613921565b80601f016020809104026020016040519081016040528092919081815260200182805461230d90613921565b801561235a5780601f1061232f5761010080835404028352916020019161235a565b820191906000526020600020905b81548152906001019060200180831161233d57829003601f168201915b50505050509050828260000190816123729190613bd8565b507fc9c7c3fe08b88b4df9d4d47ef47d2c43d55c025a0ba88ca442580ed9e7348a1681846040516123a4929190613c97565b60405180910390a1505050565b6060610a0e8383604051806060016040528060278152602001613d676027913961291b565b600080825160410361240c5760208301516040840151606085015160001a612400878285856129f8565b94509450505050612414565b506000905060025b9250929050565b600081600481111561242f5761242f613cc5565b036124375750565b600181600481111561244b5761244b613cc5565b036124985760405162461bcd60e51b815260206004820152601860248201527f45434453413a20696e76616c6964207369676e6174757265000000000000000060448201526064016109c4565b60028160048111156124ac576124ac613cc5565b036124f95760405162461bcd60e51b815260206004820152601f60248201527f45434453413a20696e76616c6964207369676e6174757265206c656e6774680060448201526064016109c4565b600381600481111561250d5761250d613cc5565b036114dd5760405162461bcd60e51b815260206004820152602260248201527f45434453413a20696e76616c6964207369676e6174757265202773272076616c604482015261756560f01b60648201526084016109c4565b60008181526001830160205260408120546125ac57508154600181810184556000848152602080822090930184905584548482528286019093526040902091909155610683565b506000610683565b60608160000180548060200260200160405190810160405280929190818152602001828054801561260457602002820191906000526020600020905b8154815260200190600101908083116125f0575b50505050509050919050565b600081815260018301602052604081205480156126f9576000612634600183613cdb565b855490915060009061264890600190613cdb565b90508181146126ad57600086600001828154811061266857612668613610565b906000526020600020015490508087600001848154811061268b5761268b613610565b6000918252602080832090910192909255918252600188019052604090208390555b85548690806126be576126be613cee565b600190038181906000526020600020016000905590558560010160008681526020019081526020016000206000905560019350505050610683565b6000915050610683565b6001600160a01b03821660009081527ff2776159535489b2c8217c06dac58993e45cb245272f968642d4d3ef6aa7615460205260409020805460ff19168215801591909117909155600080516020613d478339815191529061276f576127698184611f4f565b5061277b565b6127798184611f71565b505b826001600160a01b03167f235bc17e7930760029e9f4d860a2a8089976de5b381cf8380fc11c1d88a11133836040516127b8911515815260200190565b60405180910390a2505050565b60607f1652558f82172f3162b9e179c9f4ce0654bac7c4802d6326a2868cc56afae2026127f56020840184612e71565b61280260208501856136e9565b604051602001612813929190613d04565b60405160208183030381529060405280519060200120846040013585606001602081019061284191906136bb565b61285160a08801608089016136bb565b61286160c0890160a08a016136bb565b61287160e08a0160c08b016136bb565b6040805160208101999099526001600160a01b0390971696880196909652606087019490945260808601929092526001600160801b0390811660a086015290811660c085015290811660e0848101919091529116610100830152830135610120820152610140016040516020818303038152906040529050919050565b60006106836128fb612abc565b8360405161190160f01b8152600281019290925260228201526042902090565b60606001600160a01b0384163b6129835760405162461bcd60e51b815260206004820152602660248201527f416464726573733a2064656c65676174652063616c6c20746f206e6f6e2d636f6044820152651b9d1c9858dd60d21b60648201526084016109c4565b600080856001600160a01b03168560405161299e9190613b71565b600060405180830381855af49150503d80600081146129d9576040519150601f19603f3d011682016040523d82523d6000602084013e6129de565b606091505b50915091506129ee828286612be3565b9695505050505050565b6000807f7fffffffffffffffffffffffffffffff5d576e7357a4501ddfe92f46681b20a0831115612a2f5750600090506003612ab3565b6040805160008082526020820180845289905260ff881692820192909252606081018690526080810185905260019060a0016020604051602081039080840390855afa158015612a83573d6000803e3d6000fd5b5050604051601f1901519150506001600160a01b038116612aac57600060019250925050612ab3565b9150600090505b94509492505050565b6000306001600160a01b037f000000000000000000000000000000000000000000000000000000000000000016148015612b1557507f000000000000000000000000000000000000000000000000000000000000000046145b15612b3f57507f000000000000000000000000000000000000000000000000000000000000000090565b50604080517f00000000000000000000000000000000000000000000000000000000000000006020808301919091527f0000000000000000000000000000000000000000000000000000000000000000828401527f000000000000000000000000000000000000000000000000000000000000000060608301524660808301523060a0808401919091528351808403909101815260c0909201909252805191012090565b60608315612bf2575081610a0e565b825115612c025782518084602001fd5b8160405162461bcd60e51b81526004016109c491906134ef565b6040518060a0016040528060006001600160a01b03168152602001606081526020016000815260200160006001600160801b0316815260200160006001600160801b031681525090565b600060208284031215612c7857600080fd5b81356001600160e01b031981168114610a0e57600080fd5b6001600160a01b03811681146114dd57600080fd5b634e487b7160e01b600052604160045260246000fd5b604051601f8201601f191681016001600160401b0381118282101715612ce357612ce3612ca5565b604052919050565b60006001600160401b03831115612d0457612d04612ca5565b612d17601f8401601f1916602001612cbb565b9050828152838383011115612d2b57600080fd5b828260208301376000602084830101529392505050565b600082601f830112612d5357600080fd5b610a0e83833560208501612ceb565b60008060008060808587031215612d7857600080fd5b8435612d8381612c90565b93506020850135612d9381612c90565b92506040850135915060608501356001600160401b03811115612db557600080fd5b612dc187828801612d42565b91505092959194509250565b60008060408385031215612de057600080fd5b8235915060208301356001600160401b03811115612dfd57600080fd5b612e0985828601612d42565b9150509250929050565b60006101608284031215612e2657600080fd5b50919050565b60008060408385031215612e3f57600080fd5b8235612e4a81612c90565b915060208301356001600160401b03811115612e6557600080fd5b612e0985828601612e13565b600060208284031215612e8357600080fd5b8135610a0e81612c90565b600080600060608486031215612ea357600080fd5b83356001600160401b03811115612eb957600080fd5b612ec586828701612e13565b9660208601359650604090950135949350505050565b60008083601f840112612eed57600080fd5b5081356001600160401b03811115612f0457600080fd5b60208301915083602082850101111561241457600080fd5b600080600060408486031215612f3157600080fd5b83356001600160401b0380821115612f4857600080fd5b908501906101008288031215612f5d57600080fd5b90935060208501359080821115612f7357600080fd5b50612f8086828701612edb565b9497909650939450505050565b60008083601f840112612f9f57600080fd5b5081356001600160401b03811115612fb657600080fd5b6020830191508360208260051b850101111561241457600080fd5b60008060008060008060608789031215612fea57600080fd5b86356001600160401b038082111561300157600080fd5b61300d8a838b01612f8d565b9098509650602089013591508082111561302657600080fd5b6130328a838b01612f8d565b9096509450604089013591508082111561304b57600080fd5b5061305889828a01612f8d565b979a9699509497509295939492505050565b80151581146114dd57600080fd5b6000806040838503121561308b57600080fd5b823561309681612c90565b915060208301356130a68161306a565b809150509250929050565b600080604083850312156130c457600080fd5b82356130cf81612c90565b946020939093013593505050565b80516001600160a01b03908116835260208083015160a082860181905281519086018190526000939183019290849060c08801905b8083101561313457855185168252948301946001929092019190830190613112565b50604087015160408901526060870151945061315b60608901866001600160801b03169052565b6080870151945061317760808901866001600160801b03169052565b979650505050505050565b6000602080830181845280855180835260408601915060408160051b870101925083870160005b828110156131d757603f198886030184526131c58583516130dd565b945092850192908501906001016131a9565b5092979650505050505050565b6000602082840312156131f657600080fd5b81356001600160401b0381111561320c57600080fd5b8201601f8101841361321d57600080fd5b61121284823560208401612ceb565b6000806020838503121561323f57600080fd5b82356001600160401b0381111561325557600080fd5b61326185828601612f8d565b90969095509350505050565b60005b83811015613288578181015183820152602001613270565b50506000910152565b600081518084526132a981602086016020860161326d565b601f01601f19169290920160200192915050565b6000602080830181845280855180835260408601915060408160051b870101925083870160005b828110156131d757603f19888603018452613300858351613291565b945092850192908501906001016132e4565b6000806000806060858703121561332857600080fd5b843561333381612c90565b93506020850135925060408501356001600160401b0381111561335557600080fd5b61336187828801612edb565b95989497509550505050565b60006001600160401b0382111561338657613386612ca5565b5060051b60200190565b600082601f8301126133a157600080fd5b813560206133b66133b18361336d565b612cbb565b82815260059290921b840181019181810190868411156133d557600080fd5b8286015b848110156133f057803583529183019183016133d9565b509695505050505050565b600080600080600060a0868803121561341357600080fd5b853561341e81612c90565b9450602086013561342e81612c90565b935060408601356001600160401b038082111561344a57600080fd5b61345689838a01613390565b9450606088013591508082111561346c57600080fd5b61347889838a01613390565b9350608088013591508082111561348e57600080fd5b5061349b88828901612d42565b9150509295509295909350565b6000806000604084860312156134bd57600080fd5b83356134c881612c90565b925060208401356001600160401b038111156134e357600080fd5b612f8086828701612edb565b602081526000610a0e6020830184613291565b6020808252825182820181905260009190848201906040850190845b818110156135435783516001600160a01b03168352928401929184019160010161351e565b50909695505050505050565b602081526000610a0e60208301846130dd565b600080600080600060a0868803121561357a57600080fd5b853561358581612c90565b9450602086013561359581612c90565b9350604086013592506060860135915060808601356001600160401b038111156135be57600080fd5b61349b88828901612d42565b6000808335601e198436030181126135e157600080fd5b8301803591506001600160401b038211156135fb57600080fd5b60200191503681900382131561241457600080fd5b634e487b7160e01b600052603260045260246000fd5b634e487b7160e01b600052601160045260246000fd5b60006001820161364e5761364e613626565b5060010190565b6020808252602a908201527f4163636f756e745065726d697373696f6e733a2063616c6c6572206973206e6f6040820152693a1030b71030b236b4b760b11b606082015260800190565b80356001600160801b03811681146136b657600080fd5b919050565b6000602082840312156136cd57600080fd5b610a0e8261369f565b8082018082111561068357610683613626565b6000808335601e1984360301811261370057600080fd5b8301803591506001600160401b0382111561371a57600080fd5b6020019150600581901b360382131561241457600080fd5b6000808335601e1984360301811261374957600080fd5b83016020810192503590506001600160401b0381111561376857600080fd5b8060051b360382131561241457600080fd5b8183526000602080850194508260005b858110156137b857813561379d81612c90565b6001600160a01b03168752958201959082019060010161378a565b509495945050505050565b60208152600082356137d481612c90565b6001600160a01b03166020838101919091526137f290840184613732565b61010080604086015261380a6101208601838561377a565b9250604086013560608601526138226060870161369f565b6001600160801b0381166080870152915061383f6080870161369f565b6001600160801b03811660a0870152915061385c60a0870161369f565b6001600160801b03811660c0870152915061387960c0870161369f565b6001600160801b03811660e0870152915060e08601358186015250508091505092915050565b60208082526021908201527f4163636f756e743a206e6f742061646d696e206f7220456e747279506f696e746040820152601760f91b606082015260800190565b6020808252600e908201526d139bdd08185d5d1a1bdc9a5e995960921b604082015260600190565b60006020828403121561391a57600080fd5b5051919050565b600181811c9082168061393557607f821691505b602082108103612e2657634e487b7160e01b600052602260045260246000fd5b6020808252600e908201526d11185d18481d1bdbc81cda1bdc9d60921b604082015260600190565b6000808585111561398d57600080fd5b8386111561399a57600080fd5b5050820193919092039150565b6001600160e01b031981358181169160048510156139cf5780818660040360031b1b83161692505b505092915050565b6000602082840312156139e957600080fd5b5035919050565b600082601f830112613a0157600080fd5b81356020613a116133b18361336d565b82815260059290921b84018101918181019086841115613a3057600080fd5b8286015b848110156133f05780356001600160401b03811115613a535760008081fd5b613a618986838b0101612d42565b845250918301918301613a34565b600080600060608486031215613a8457600080fd5b83356001600160401b0380821115613a9b57600080fd5b818601915086601f830112613aaf57600080fd5b81356020613abf6133b18361336d565b82815260059290921b8401810191818101908a841115613ade57600080fd5b948201945b83861015613b05578535613af681612c90565b82529482019490820190613ae3565b97505087013592505080821115613b1b57600080fd5b613b2787838801613390565b93506040860135915080821115613b3d57600080fd5b50613b4a868287016139f0565b9150509250925092565b600060208284031215613b6657600080fd5b8151610a0e8161306a565b60008251613b8381846020870161326d565b9190910192915050565b601f821115613bd357600081815260208120601f850160051c81016020861015613bb45750805b601f850160051c820191505b818110156110f157828155600101613bc0565b505050565b81516001600160401b03811115613bf157613bf1612ca5565b613c0581613bff8454613921565b84613b8d565b602080601f831160018114613c3a5760008415613c225750858301515b600019600386901b1c1916600185901b1785556110f1565b600085815260208120601f198616915b82811015613c6957888601518255948401946001909101908401613c4a565b5085821015613c875787850151600019600388901b60f8161c191681555b5050505050600190811b01905550565b604081526000613caa6040830185613291565b8281036020840152613cbc8185613291565b95945050505050565b634e487b7160e01b600052602160045260246000fd5b8181038181111561068357610683613626565b634e487b7160e01b600052603160045260246000fd5b60008184825b85811015613d3b578135613d1d81612c90565b6001600160a01b031683526020928301929190910190600101613d0a565b50909594505050505056fef2776159535489b2c8217c06dac58993e45cb245272f968642d4d3ef6aa76150416464726573733a206c6f772d6c6576656c2064656c65676174652063616c6c206661696c6564a264697066735822122098a529e94b1cf906698ffba0f5c27423a905d9d0a98f67474332fef260911d6564736f6c63430008110033",
  "linkReferences": {},
  "deployedLinkReferences": {}
}