{
  "_format": "hh-sol-artifact-1",
  "contractName": "DappAccountFactory",
  "sourceName": "contracts/DappAccountFactory.sol",
  "abi": [
    {
      "inputs": [
        {
          "internalType": "contract IEntryPoint",
          "name": "_entrypoint",
          "type": "address"
        }
      ],
      "stateMutability": "nonpayable",
      "type": "constructor"
    },
    {
      "anonymous": false,
      "inputs": [
        {
          "indexed": true,
          "internalType": "address",
          "name": "account",
          "type": "address"
        },
        {
          "indexed": true,
          "internalType": "address",
          "name": "accountAdmin",
          "type": "address"
        }
      ],
      "name": "AccountCreated",
      "type": "event"
    },
    {
      "anonymous": false,
      "inputs": [
        {
          "indexed": false,
          "internalType": "string",
          "name": "prevURI",
          "type": "string"
        },
        {
          "indexed": false,
          "internalType": "string",
          "name": "newURI",
          "type": "string"
        }
      ],
      "name": "ContractURIUpdated",
      "type": "event"
    },
    {
      "anonymous": false,
      "inputs": [
        {
          "indexed": true,
          "internalType": "bytes32",
          "name": "role",
          "type": "bytes32"
        },
        {
          "indexed": true,
          "internalType": "bytes32",
          "name": "previousAdminRole",
          "type": "bytes32"
        },
        {
          "indexed": true,
          "internalType": "bytes32",
          "name": "newAdminRole",
          "type": "bytes32"
        }
      ],
      "name": "RoleAdminChanged",
      "type": "event"
    },
    {
      "anonymous": false,
      "inputs": [
        {
          "indexed": true,
          "internalType": "bytes32",
          "name": "role",
          "type": "bytes32"
        },
        {
          "indexed": true,
          "internalType": "address",
          "name": "account",
          "type": "address"
        },
        {
          "indexed": true,
          "internalType": "address",
          "name": "sender",
          "type": "address"
        }
      ],
      "name": "RoleGranted",
      "type": "event"
    },
    {
      "anonymous": false,
      "inputs": [
        {
          "indexed": true,
          "internalType": "bytes32",
          "name": "role",
          "type": "bytes32"
        },
        {
          "indexed": true,
          "internalType": "address",
          "name": "account",
          "type": "address"
        },
        {
          "indexed": true,
          "internalType": "address",
          "name": "sender",
          "type": "address"
        }
      ],
      "name": "RoleRevoked",
      "type": "event"
    },
    {
      "anonymous": false,
      "inputs": [
        {
          "indexed": true,
          "internalType": "address",
          "name": "account",
          "type": "address"
        },
        {
          "indexed": true,
          "internalType": "address",
          "name": "signer",
          "type": "address"
        }
      ],
      "name": "SignerAdded",
      "type": "event"
    },
    {
      "anonymous": false,
      "inputs": [
        {
          "indexed": true,
          "internalType": "address",
          "name": "account",
          "type": "address"
        },
        {
          "indexed": true,
          "internalType": "address",
          "name": "signer",
          "type": "address"
        }
      ],
      "name": "SignerRemoved",
      "type": "event"
    },
    {
      "inputs": [],
      "name": "DEFAULT_ADMIN_ROLE",
      "outputs": [
        {
          "internalType": "bytes32",
          "name": "",
          "type": "bytes32"
        }
      ],
      "stateMutability": "view",
      "type": "function"
    },
    {
      "inputs": [],
      "name": "accountImplementation",
      "outputs": [
        {
          "internalType": "address",
          "name": "",
          "type": "address"
        }
      ],
      "stateMutability": "view",
      "type": "function"
    },
    {
      "inputs": [],
      "name": "contractURI",
      "outputs": [
        {
          "internalType": "string",
          "name": "",
          "type": "string"
        }
      ],
      "stateMutability": "view",
      "type": "function"
    },
    {
      "inputs": [
        {
          "internalType": "address",
          "name": "_admin",
          "type": "address"
        },
        {
          "internalType": "bytes",
          "name": "_data",
          "type": "bytes"
        }
      ],
      "name": "createAccount",
      "outputs": [
        {
          "internalType": "address",
          "name": "",
          "type": "address"
        }
      ],
      "stateMutability": "nonpayable",
      "type": "function"
    },
    {
      "inputs": [],
      "name": "defaultWhitelistedContract",
      "outputs": [
        {
          "internalType": "address",
          "name": "",
          "type": "address"
        }
      ],
      "stateMutability": "view",
      "type": "function"
    },
    {
      "inputs": [],
      "name": "entrypoint",
      "outputs": [
        {
          "internalType": "address",
          "name": "",
          "type": "address"
        }
      ],
      "stateMutability": "view",
      "type": "function"
    },
    {
      "inputs": [
        {
          "internalType": "address",
          "name": "signer",
          "type": "address"
        }
      ],
      "name": "getAccountsOfSigner",
      "outputs": [
        {
          "internalType": "address[]",
          "name": "accounts",
          "type": "address[]"
        }
      ],
      "stateMutability": "view",
      "type": "function"
    },
    {
      "inputs": [
        {
          "internalType": "address",
          "name": "_adminSigner",
          "type": "address"
        },
        {
          "internalType": "bytes",
          "name": "_data",
          "type": "bytes"
        }
      ],
      "name": "getAddress",
      "outputs": [
        {
          "internalType": "address",
          "name": "",
          "type": "address"
        }
      ],
      "stateMutability": "view",
      "type": "function"
    },
    {
      "inputs": [],
      "name": "getAllAccounts",
      "outputs": [
        {
          "internalType": "address[]",
          "name": "",
          "type": "address[]"
        }
      ],
      "stateMutability": "view",
      "type": "function"
    },
    {
      "inputs": [
        {
          "internalType": "bytes32",
          "name": "role",
          "type": "bytes32"
        }
      ],
      "name": "getRoleAdmin",
      "outputs": [
        {
          "internalType": "bytes32",
          "name": "",
          "type": "bytes32"
        }
      ],
      "stateMutability": "view",
      "type": "function"
    },
    {
      "inputs": [
        {
          "internalType": "bytes32",
          "name": "role",
          "type": "bytes32"
        },
        {
          "internalType": "uint256",
          "name": "index",
          "type": "uint256"
        }
      ],
      "name": "getRoleMember",
      "outputs": [
        {
          "internalType": "address",
          "name": "member",
          "type": "address"
        }
      ],
      "stateMutability": "view",
      "type": "function"
    },
    {
      "inputs": [
        {
          "internalType": "bytes32",
          "name": "role",
          "type": "bytes32"
        }
      ],
      "name": "getRoleMemberCount",
      "outputs": [
        {
          "internalType": "uint256",
          "name": "count",
          "type": "uint256"
        }
      ],
      "stateMutability": "view",
      "type": "function"
    },
    {
      "inputs": [
        {
          "internalType": "bytes32",
          "name": "role",
          "type": "bytes32"
        },
        {
          "internalType": "address",
          "name": "account",
          "type": "address"
        }
      ],
      "name": "grantRole",
      "outputs": [],
      "stateMutability": "nonpayable",
      "type": "function"
    },
    {
      "inputs": [
        {
          "internalType": "bytes32",
          "name": "role",
          "type": "bytes32"
        },
        {
          "internalType": "address",
          "name": "account",
          "type": "address"
        }
      ],
      "name": "hasRole",
      "outputs": [
        {
          "internalType": "bool",
          "name": "",
          "type": "bool"
        }
      ],
      "stateMutability": "view",
      "type": "function"
    },
    {
      "inputs": [
        {
          "internalType": "bytes32",
          "name": "role",
          "type": "bytes32"
        },
        {
          "internalType": "address",
          "name": "account",
          "type": "address"
        }
      ],
      "name": "hasRoleWithSwitch",
      "outputs": [
        {
          "internalType": "bool",
          "name": "",
          "type": "bool"
        }
      ],
      "stateMutability": "view",
      "type": "function"
    },
    {
      "inputs": [
        {
          "internalType": "address",
          "name": "_account",
          "type": "address"
        }
      ],
      "name": "isRegistered",
      "outputs": [
        {
          "internalType": "bool",
          "name": "",
          "type": "bool"
        }
      ],
      "stateMutability": "view",
      "type": "function"
    },
    {
      "inputs": [
        {
          "internalType": "bytes[]",
          "name": "data",
          "type": "bytes[]"
        }
      ],
      "name": "multicall",
      "outputs": [
        {
          "internalType": "bytes[]",
          "name": "results",
          "type": "bytes[]"
        }
      ],
      "stateMutability": "nonpayable",
      "type": "function"
    },
    {
      "inputs": [],
      "name": "onRegister",
      "outputs": [],
      "stateMutability": "nonpayable",
      "type": "function"
    },
    {
      "inputs": [
        {
          "internalType": "address",
          "name": "_signer",
          "type": "address"
        }
      ],
      "name": "onSignerAdded",
      "outputs": [],
      "stateMutability": "nonpayable",
      "type": "function"
    },
    {
      "inputs": [
        {
          "internalType": "address",
          "name": "_signer",
          "type": "address"
        }
      ],
      "name": "onSignerRemoved",
      "outputs": [],
      "stateMutability": "nonpayable",
      "type": "function"
    },
    {
      "inputs": [
        {
          "internalType": "bytes32",
          "name": "role",
          "type": "bytes32"
        },
        {
          "internalType": "address",
          "name": "account",
          "type": "address"
        }
      ],
      "name": "renounceRole",
      "outputs": [],
      "stateMutability": "nonpayable",
      "type": "function"
    },
    {
      "inputs": [
        {
          "internalType": "bytes32",
          "name": "role",
          "type": "bytes32"
        },
        {
          "internalType": "address",
          "name": "account",
          "type": "address"
        }
      ],
      "name": "revokeRole",
      "outputs": [],
      "stateMutability": "nonpayable",
      "type": "function"
    },
    {
      "inputs": [
        {
          "internalType": "string",
          "name": "_uri",
          "type": "string"
        }
      ],
      "name": "setContractURI",
      "outputs": [],
      "stateMutability": "nonpayable",
      "type": "function"
    },
    {
      "inputs": [
        {
          "internalType": "address",
          "name": "_whitelistedContract",
          "type": "address"
        }
      ],
      "name": "setDefaultWhitelistedContract",
      "outputs": [],
      "stateMutability": "nonpayable",
      "type": "function"
    }
  ],
  "bytecode": "0x60c06040523480156200001157600080fd5b50604051620063e6380380620063e6833981016040819052620000349162000234565b8030604051620000449062000226565b6001600160a01b03928316815291166020820152604001604051809103906000f08015801562000078573d6000803e3d6000fd5b506001600160a01b03908116608052811660a05262000099600033620000a0565b506200028e565b620000b78282620000c760201b62000c121760201c565b620000c3828262000158565b5050565b6000620000de620001de60201b62000c951760201c565b6000848152602082815260408083206001600160a01b03871684529091529020805460ff191660011790559050620001133390565b6001600160a01b0316826001600160a01b0316847f2f8788117e7eff1d82e926ec794901d17c78024a50270940304540a733656f0d60405160405180910390a4505050565b60006200016f6200020260201b62000cb91760201c565b6000848152602082905260408120805492935060019162000191838562000266565b909155505060009384526020918252604080852082865260018101845281862080546001600160a01b039096166001600160a01b0319909616861790559385526002909301909152912055565b7fd0ebebe8e6445c62babf8fef767eb39f1002bb957bb5b83258275a4e46428ed590565b7f0c4ba382c0009cf238e4c1ca1a52f51c61e6248a70bdfb34e5ed49d5578a5c0c90565b614175806200227183390190565b6000602082840312156200024757600080fd5b81516001600160a01b03811681146200025f57600080fd5b9392505050565b808201808211156200028857634e487b7160e01b600052601160045260246000fd5b92915050565b60805160a051611fa1620002d0600039600081816102a5015261104e0152600081816101930152818161052a01528181610f700152610fef0152611fa16000f3fe608060405234801561001057600080fd5b50600436106101585760003560e01c8063a32fa5b3116100c3578063d547741f1161007c578063d547741f14610315578063d8fd8f4414610328578063e8a3d4851461033b578063ed9e4b7d14610350578063eed89d7214610363578063f5fbef231461037657600080fd5b8063a32fa5b31461028d578063a65d69d4146102a0578063ac9650d8146102c7578063c3c5a547146102e7578063c7b90cc3146102fa578063ca15c8731461030257600080fd5b806336568abe1161011557806336568abe146102165780638878ed33146102295780639010d07c1461023c57806391d148541461024f578063938e3d7b14610272578063a217fddf1461028557600080fd5b806308e93d0a1461015d5780630e6254fd1461017b57806311464fbe1461018e578063248a9ca3146101cd5780632f2ff15d146101ee578063312b379114610203575b600080fd5b610165610389565b604051610172919061182e565b60405180910390f35b610165610189366004611897565b61039a565b6101b57f000000000000000000000000000000000000000000000000000000000000000081565b6040516001600160a01b039091168152602001610172565b6101e06101db3660046118b2565b6103c4565b604051908152602001610172565b6102016101fc3660046118cb565b6103e4565b005b6003546101b5906001600160a01b031681565b6102016102243660046118cb565b610491565b6101b56102373660046118f7565b6104f7565b6101b561024a36600461197a565b61055a565b61026261025d3660046118cb565b610653565b6040519015158152602001610172565b6102016102803660046119b2565b610689565b6101e0600081565b61026261029b3660046118cb565b6106da565b6101b57f000000000000000000000000000000000000000000000000000000000000000081565b6102da6102d5366004611a63565b61073b565b6040516101729190611b28565b6102626102f5366004611897565b610830565b61020161083c565b6101e06103103660046118b2565b610889565b6102016103233660046118cb565b61091e565b6101b56103363660046118f7565b610950565b6103436109c8565b6040516101729190611b7d565b61020161035e366004611897565b610a7e565b610201610371366004611897565b610b13565b610201610384366004611897565b610ba8565b60606103956000610cdd565b905090565b6001600160a01b03811660009081526002602052604090206060906103be90610cdd565b92915050565b6000806103cf610c95565b60009384526001016020525050604090205490565b60006103ee610c95565b600084815260018201602052604090205490915061040c9033610cea565b6000838152602082815260408083206001600160a01b038616845290915290205460ff16156104825760405162461bcd60e51b815260206004820152601d60248201527f43616e206f6e6c79206772616e7420746f206e6f6e20686f6c6465727300000060448201526064015b60405180910390fd5b61048c8383610d75565b505050565b336001600160a01b038216146104e95760405162461bcd60e51b815260206004820152601a60248201527f43616e206f6e6c792072656e6f756e636520666f722073656c660000000000006044820152606401610479565b6104f38282610d89565b5050565b604080516001600160a01b038516602080830191909152825180830382018152918301909252805191012060009061054f7f000000000000000000000000000000000000000000000000000000000000000082610d9d565b9150505b9392505050565b600080610565610cb9565b600085815260208290526040812054919250805b82811015610649576000878152602085815260408083208484526001019091529020546001600160a01b0316156105f4578582036105e2576000878152602094855260408082209282526001909201909452909220546001600160a01b031692506103be915050565b6105ed600183611ba6565b9150610637565b6105ff876000610653565b8015610624575060008781526020858152604080832083805260020190915290205481145b1561063757610634600183611ba6565b91505b610642600182611ba6565b9050610579565b5050505092915050565b60008061065e610c95565b6000948552602090815260408086206001600160a01b03959095168652939052505090205460ff1690565b610691610df7565b6106ce5760405162461bcd60e51b815260206004820152600e60248201526d139bdd08185d5d1a1bdc9a5e995960921b6044820152606401610479565b6106d781610e03565b50565b6000806106e5610c95565b60008581526020828152604080832083805290915290205490915060ff16610731576000848152602091825260408082206001600160a01b0386168352909252205460ff1690506103be565b5060019392505050565b60608167ffffffffffffffff8111156107565761075661199c565b60405190808252806020026020018201604052801561078957816020015b60608152602001906001900390816107745790505b50905060005b82811015610829576107f9308585848181106107ad576107ad611bb9565b90506020028101906107bf9190611bcf565b8080601f016020809104026020016040519081016040528093929190818152602001838380828437600092019190915250610f0492505050565b82828151811061080b5761080b611bb9565b6020026020010181905250808061082190611c1d565b91505061078f565b5092915050565b60006103be8183610f29565b3361084681610f4b565b6108625760405162461bcd60e51b815260040161047990611c36565b61086d600082610faa565b6106d75760405162461bcd60e51b815260040161047990611c6d565b600080610894610cb9565b6000848152602082905260408120549192505b818110156108f8576000858152602084815260408083208484526001019091529020546001600160a01b0316156108e6576108e3600185611ba6565b93505b6108f1600182611ba6565b90506108a7565b50610904846000610653565b1561091757610914600184611ba6565b92505b5050919050565b6000610928610c95565b60008481526001820160205260409020549091506109469033610cea565b61048c8383610d89565b60008061095e858585610fbf565b600354604051639cf86b3360e01b81526001600160a01b039182166004820152919250821690639cf86b3390602401600060405180830381600087803b1580156109a757600080fd5b505af11580156109bb573d6000803e3d6000fd5b5092979650505050505050565b7fa7d40346e44ca145e94a946aa34a7d4a67245577dc18699a626fe0ffc6ce328180546060919081906109fa90611cb7565b80601f0160208091040260200160405190810160405280929190818152602001828054610a2690611cb7565b8015610a735780601f10610a4857610100808354040283529160200191610a73565b820191906000526020600020905b815481529060010190602001808311610a5657829003601f168201915b505050505091505090565b33610a8881610f4b565b610aa45760405162461bcd60e51b815260040161047990611c36565b6001600160a01b0382166000908152600260205260408120610ac69083610faa565b9050801561048c57826001600160a01b0316826001600160a01b03167f12146497b3b826918ec47f0cac7272a09ed06b30c16c030e99ec48ff5dd60b4760405160405180910390a3505050565b33610b1d81610f4b565b610b395760405162461bcd60e51b815260040161047990611c36565b6001600160a01b0382166000908152600260205260408120610b5b90836110f0565b9050801561048c57826001600160a01b0316826001600160a01b03167f98d1ebbe00ae92a5de96a0f49742a8afa89f42363592bc2e7cfaaed68b45e7a660405160405180910390a3505050565b610bb3600033610653565b610bf05760405162461bcd60e51b815260206004820152600e60248201526d139bdd08185d5d1a1bdc9a5e995960921b6044820152606401610479565b600380546001600160a01b0319166001600160a01b0392909216919091179055565b6000610c1c610c95565b6000848152602082815260408083206001600160a01b03871684529091529020805460ff191660011790559050610c503390565b6001600160a01b0316826001600160a01b0316847f2f8788117e7eff1d82e926ec794901d17c78024a50270940304540a733656f0d60405160405180910390a4505050565b7fd0ebebe8e6445c62babf8fef767eb39f1002bb957bb5b83258275a4e46428ed590565b7f0c4ba382c0009cf238e4c1ca1a52f51c61e6248a70bdfb34e5ed49d5578a5c0c90565b6060600061055383611105565b6000610cf4610c95565b6000848152602082815260408083206001600160a01b038716845290915290205490915060ff1661048c57610d33826001600160a01b03166014611161565b610d3e846020611161565b604051602001610d4f929190611cf1565b60408051601f198184030181529082905262461bcd60e51b825261047991600401611b7d565b610d7f8282610c12565b6104f382826112fd565b610d938282611374565b6104f382826113e1565b6040513060388201526f5af43d82803e903d91602b57fd5bf3ff60248201526014810192909252733d602d80600a3d3981f3363d3d373d3d3d363d73825260588201526037600c8201206078820152605560439091012090565b60006103958133610653565b7fa7d40346e44ca145e94a946aa34a7d4a67245577dc18699a626fe0ffc6ce328180546000908290610e3490611cb7565b80601f0160208091040260200160405190810160405280929190818152602001828054610e6090611cb7565b8015610ead5780601f10610e8257610100808354040283529160200191610ead565b820191906000526020600020905b815481529060010190602001808311610e9057829003601f168201915b5050505050905082826000019081610ec59190611dac565b507fc9c7c3fe08b88b4df9d4d47ef47d2c43d55c025a0ba88ca442580ed9e7348a168184604051610ef7929190611e6c565b60405180910390a1505050565b60606105538383604051806060016040528060278152602001611f4560279139611436565b6001600160a01b03811660009081526001830160205260408120541515610553565b600080610f5783611513565b90506000836001600160a01b03163b11801561055357507f00000000000000000000000000000000000000000000000000000000000000006001600160a01b0316816001600160a01b0316149392505050565b6000610553836001600160a01b038416611549565b604080516001600160a01b03851660208083019190915282518083038201815291830190925280519101206000907f000000000000000000000000000000000000000000000000000000000000000090600061101b8383610d9d565b90506001600160a01b0381163b15611037579250610553915050565b6110418383611598565b9050336001600160a01b037f0000000000000000000000000000000000000000000000000000000000000000161461109a5761107e600082610faa565b61109a5760405162461bcd60e51b815260040161047990611c6d565b6110a681888888611635565b866001600160a01b0316816001600160a01b03167fac631f3001b55ea1509cf3d7e74898f85392a61a76e8149181ae1259622dabc860405160405180910390a39695505050505050565b6000610553836001600160a01b03841661169d565b60608160000180548060200260200160405190810160405280929190818152602001828054801561115557602002820191906000526020600020905b815481526020019060010190808311611141575b50505050509050919050565b60606000611170836002611e91565b61117b906002611ba6565b67ffffffffffffffff8111156111935761119361199c565b6040519080825280601f01601f1916602001820160405280156111bd576020820181803683370190505b509050600360fc1b816000815181106111d8576111d8611bb9565b60200101906001600160f81b031916908160001a905350600f60fb1b8160018151811061120757611207611bb9565b60200101906001600160f81b031916908160001a905350600061122b846002611e91565b611236906001611ba6565b90505b60018111156112ae576f181899199a1a9b1b9c1cb0b131b232b360811b85600f166010811061126a5761126a611bb9565b1a60f81b82828151811061128057611280611bb9565b60200101906001600160f81b031916908160001a90535060049490941c936112a781611ea8565b9050611239565b5083156105535760405162461bcd60e51b815260206004820181905260248201527f537472696e67733a20686578206c656e67746820696e73756666696369656e746044820152606401610479565b6000611307610cb9565b600084815260208290526040812080549293506001916113278385611ba6565b909155505060009384526020918252604080852082865260018101845281862080546001600160a01b039096166001600160a01b0319909616861790559385526002909301909152912055565b600061137e610c95565b905061138a8383610cea565b6000838152602082815260408083206001600160a01b0386168085529252808320805460ff1916905551339286917ff6391f5c32d9c69d2a47ea670b442974b53935d1edc7fd64eb21e047a839171b9190a4505050565b60006113eb610cb9565b6000938452602090815260408085206001600160a01b0390941680865260028501808452828720805488526001909601845291862080546001600160a01b0319169055855290525055565b60606001600160a01b0384163b61149e5760405162461bcd60e51b815260206004820152602660248201527f416464726573733a2064656c65676174652063616c6c20746f206e6f6e2d636f6044820152651b9d1c9858dd60d21b6064820152608401610479565b600080856001600160a01b0316856040516114b99190611ebf565b600060405180830381855af49150503d80600081146114f4576040519150601f19603f3d011682016040523d82523d6000602084013e6114f9565b606091505b5091509150611509828286611790565b9695505050505050565b600080826001600160a01b0316803b806020016040519081016040528181526000908060200190933c905061055381600a6117c9565b6000818152600183016020526040812054611590575081546001818101845560008481526020808220909301849055845484825282860190935260409020919091556103be565b5060006103be565b6000763d602d80600a3d3981f3363d3d373d3d3d363d730000008360601b60e81c176000526e5af43d82803e903d91602b57fd5bf38360781b1760205281603760096000f590506001600160a01b0381166103be5760405162461bcd60e51b815260206004820152601760248201527f455243313136373a2063726561746532206661696c65640000000000000000006044820152606401610479565b60405163347d5e2560e21b81526001600160a01b0385169063d1f578949061166590869086908690600401611edb565b600060405180830381600087803b15801561167f57600080fd5b505af1158015611693573d6000803e3d6000fd5b5050505050505050565b600081815260018301602052604081205480156117865760006116c1600183611f1b565b85549091506000906116d590600190611f1b565b905081811461173a5760008660000182815481106116f5576116f5611bb9565b906000526020600020015490508087600001848154811061171857611718611bb9565b6000918252602080832090910192909255918252600188019052604090208390555b855486908061174b5761174b611f2e565b6001900381819060005260206000200160009055905585600101600086815260200190815260200160002060009055600193505050506103be565b60009150506103be565b6060831561179f575081610553565b8251156117af5782518084602001fd5b8160405162461bcd60e51b81526004016104799190611b7d565b60006117d6826014611ba6565b8351101561181e5760405162461bcd60e51b8152602060048201526015602482015274746f416464726573735f6f75744f66426f756e647360581b6044820152606401610479565b500160200151600160601b900490565b6020808252825182820181905260009190848201906040850190845b8181101561186f5783516001600160a01b03168352928401929184019160010161184a565b50909695505050505050565b80356001600160a01b038116811461189257600080fd5b919050565b6000602082840312156118a957600080fd5b6105538261187b565b6000602082840312156118c457600080fd5b5035919050565b600080604083850312156118de57600080fd5b823591506118ee6020840161187b565b90509250929050565b60008060006040848603121561190c57600080fd5b6119158461187b565b9250602084013567ffffffffffffffff8082111561193257600080fd5b818601915086601f83011261194657600080fd5b81358181111561195557600080fd5b87602082850101111561196757600080fd5b6020830194508093505050509250925092565b6000806040838503121561198d57600080fd5b50508035926020909101359150565b634e487b7160e01b600052604160045260246000fd5b6000602082840312156119c457600080fd5b813567ffffffffffffffff808211156119dc57600080fd5b818401915084601f8301126119f057600080fd5b813581811115611a0257611a0261199c565b604051601f8201601f19908116603f01168101908382118183101715611a2a57611a2a61199c565b81604052828152876020848701011115611a4357600080fd5b826020860160208301376000928101602001929092525095945050505050565b60008060208385031215611a7657600080fd5b823567ffffffffffffffff80821115611a8e57600080fd5b818501915085601f830112611aa257600080fd5b813581811115611ab157600080fd5b8660208260051b8501011115611ac657600080fd5b60209290920196919550909350505050565b60005b83811015611af3578181015183820152602001611adb565b50506000910152565b60008151808452611b14816020860160208601611ad8565b601f01601f19169290920160200192915050565b6000602080830181845280855180835260408601915060408160051b870101925083870160005b828110156109bb57603f19888603018452611b6b858351611afc565b94509285019290850190600101611b4f565b6020815260006105536020830184611afc565b634e487b7160e01b600052601160045260246000fd5b808201808211156103be576103be611b90565b634e487b7160e01b600052603260045260246000fd5b6000808335601e19843603018112611be657600080fd5b83018035915067ffffffffffffffff821115611c0157600080fd5b602001915036819003821315611c1657600080fd5b9250929050565b600060018201611c2f57611c2f611b90565b5060010190565b6020808252601f908201527f4163636f756e74466163746f72793a206e6f7420616e206163636f756e742e00604082015260600190565b6020808252602a908201527f4163636f756e74466163746f72793a206163636f756e7420616c7265616479206040820152691c9959da5cdd195c995960b21b606082015260800190565b600181811c90821680611ccb57607f821691505b602082108103611ceb57634e487b7160e01b600052602260045260246000fd5b50919050565b7402832b936b4b9b9b4b7b7399d1030b1b1b7bab73a1605d1b815260008351611d21816015850160208801611ad8565b7001034b99036b4b9b9b4b733903937b6329607d1b6015918401918201528351611d52816026840160208801611ad8565b01602601949350505050565b601f82111561048c57600081815260208120601f850160051c81016020861015611d855750805b601f850160051c820191505b81811015611da457828155600101611d91565b505050505050565b815167ffffffffffffffff811115611dc657611dc661199c565b611dda81611dd48454611cb7565b84611d5e565b602080601f831160018114611e0f5760008415611df75750858301515b600019600386901b1c1916600185901b178555611da4565b600085815260208120601f198616915b82811015611e3e57888601518255948401946001909101908401611e1f565b5085821015611e5c5787850151600019600388901b60f8161c191681555b5050505050600190811b01905550565b604081526000611e7f6040830185611afc565b828103602084015261054f8185611afc565b80820281158282048414176103be576103be611b90565b600081611eb757611eb7611b90565b506000190190565b60008251611ed1818460208701611ad8565b9190910192915050565b6001600160a01b03841681526040602082018190528101829052818360608301376000818301606090810191909152601f909201601f1916010192915050565b818103818111156103be576103be611b90565b634e487b7160e01b600052603160045260246000fdfe416464726573733a206c6f772d6c6576656c2064656c65676174652063616c6c206661696c6564a26469706673582212205a10176560be17d8cea1b853c1133d4c6487d18ee59e644611a86ce4f2b92b8b64736f6c634300081100336101806040523480156200001257600080fd5b50604051620041753803806200417583398101604081905262000035916200024e565b60408051808201825260078152661058d8dbdd5b9d60ca1b60208083019182528351808501855260018152603160f81b908201529151902060e08190527fc89efdaa54c0f20c7adf612882df0950f5a951637e0307cdcb4c672f298b8bc66101008190524660a081815285517f8b73c3c69bb8fe3d512ecc4cf759cc79239f7b179b0ffacaa9a75d522b39400f818701819052818801959095526060810193909352608080840192909252308382018190528651808503909201825260c093840190965280519401939093209092529190526101205281816200011762000134565b6001600160a01b03908116610140521661016052506200028d9050565b60006200014b6200021160201b62001c9d1760201c565b805490915060ff808216916101009004168015620001bf5760405162461bcd60e51b815260206004820152602760248201527f496e697469616c697a61626c653a20636f6e747261637420697320696e697469604482015266616c697a696e6760c81b606482015260840160405180910390fd5b60ff82811610156200020c57825460ff191660ff90811784556040519081527f7f26b83ff96e1f2b6a682f133852f6798a09c465da95921460cefb38474024989060200160405180910390a15b505050565b7f627d6cbb4eb558f37de3c2ec08b04710e54e06be936a302f087f7bfb80f39ae090565b6001600160a01b03811681146200024b57600080fd5b50565b600080604083850312156200026257600080fd5b82516200026f8162000235565b6020840151909250620002828162000235565b809150509250929050565b60805160a05160c05160e05161010051610120516101405161016051613e1262000363600039600081816104a301528181610dc701528181610e3201528181610f510152818161104d015281816116270152818161169201528181611748015281816117e00152611e3d01526000818161053a015281816114a001528181611fdf0152818161200f01528181612097015281816121d00152818161221b015261226901526000612b9501526000612be401526000612bbf01526000612b1801526000612b4201526000612b6c0152613e126000f3fe6080604052600436106101d15760003560e01c8063938e3d7b116100f7578063c45a015511610095578063e8a3d48511610064578063e8a3d485146105a6578063e9523c97146105c8578063f15d424e146105ea578063f23a6e611461061757600080fd5b8063c45a015514610528578063d087d2881461055c578063d1f5789414610571578063d42f2f351461059157600080fd5b8063b0d691fe116100d1578063b0d691fe14610494578063b61d27f6146104c7578063bc197c81146104e7578063c399ec881461051357600080fd5b8063938e3d7b146104275780639cf86b3314610447578063ac9650d81461046757600080fd5b806340053da61161016f5780634d44560d1161013e5780634d44560d1461038657806373e925d6146103a65780637dff5a79146103e55780638b52d7231461040557600080fd5b806340053da61461031c57806347e1da2a1461033e5780634a58db191461035e5780634b0bddd21461036657600080fd5b806318e45427116101ab57806318e45427146102765780631dd756c5146102ae57806324d7806c146102ce5780633a871cdd146102ee57600080fd5b806301ffc9a7146101dd578063150b7a02146102125780631626ba7e1461025657600080fd5b366101d857005b600080fd5b3480156101e957600080fd5b506101fd6101f8366004612cb5565b610643565b60405190151581526020015b60405180910390f35b34801561021e57600080fd5b5061023d61022d366004612db1565b630a85bd0160e11b949350505050565b6040516001600160e01b03199091168152602001610209565b34801561026257600080fd5b5061023d610271366004612e1c565b610689565b34801561028257600080fd5b50600054610296906001600160a01b031681565b6040516001600160a01b039091168152602001610209565b3480156102ba57600080fd5b506101fd6102c9366004612e7b565b6106c7565b3480156102da57600080fd5b506101fd6102e9366004612ec0565b610962565b3480156102fa57600080fd5b5061030e610309366004612edd565b61099f565b604051908152602001610209565b34801561032857600080fd5b5061033c610337366004612f6b565b6109c5565b005b34801561034a57600080fd5b5061033c610359366004613020565b610dbc565b61033c610f4f565b34801561037257600080fd5b5061033c6103813660046130c7565b610fcf565b34801561039257600080fd5b5061033c6103a1366004613100565b611002565b3480156103b257600080fd5b506103c66103c1366004612f6b565b6110ae565b6040805192151583526001600160a01b03909116602083015201610209565b3480156103f157600080fd5b506101fd610400366004612ec0565b611103565b34801561041157600080fd5b5061041a6111cf565b60405161020991906131d1565b34801561043357600080fd5b5061033c610442366004613233565b611465565b34801561045357600080fd5b5061033c610462366004612ec0565b611495565b34801561047357600080fd5b5061048761048236600461327b565b61152f565b604051610209919061330c565b3480156104a057600080fd5b507f0000000000000000000000000000000000000000000000000000000000000000610296565b3480156104d357600080fd5b5061033c6104e2366004613361565b61161c565b3480156104f357600080fd5b5061023d61050236600461344a565b63bc197c8160e01b95945050505050565b34801561051f57600080fd5b5061030e611728565b34801561053457600080fd5b506102967f000000000000000000000000000000000000000000000000000000000000000081565b34801561056857600080fd5b5061030e6117b9565b34801561057d57600080fd5b5061033c61058c3660046134f7565b61180f565b34801561059d57600080fd5b5061041a61192d565b3480156105b257600080fd5b506105bb611acb565b604051610209919061353e565b3480156105d457600080fd5b506105dd611b81565b6040516102099190613551565b3480156105f657600080fd5b5061060a610605366004612ec0565b611ba1565b604051610209919061359e565b34801561062357600080fd5b5061023d6106323660046135b1565b63f23a6e6160e01b95945050505050565b60006001600160e01b03198216630271189760e51b148061067457506001600160e01b03198216630a85bd0160e11b145b80610683575061068382611cc1565b92915050565b6000806106968484611cf6565b90506106a181610962565b806106b057506106b081611103565b156106c057630b135d3f60e11b91505b5092915050565b6001600160a01b03821660009081527ff2776159535489b2c8217c06dac58993e45cb245272f968642d4d3ef6aa761546020526040812054600080516020613d968339815191529060ff1615610721576001915050610683565b6001600160a01b03841660009081526005820160209081526040918290208251606081018452815481526001909101546001600160801b03808216938301849052600160801b909104169281019290925242108061078c575080604001516001600160801b03164210155b806107b757506001600160a01b038516600090815260068301602052604090206107b590611d1a565b155b156107c757600092505050610683565b60006107de6107d96060870187613619565b611d24565b90506324f16c0560e11b6001600160e01b03198216016108615760008061081061080b6060890189613619565b611d5e565b91509150808460000151108061084757506001600160a01b038816600090815260068601602052604090206108459083611dc3565b155b1561085a57600095505050505050610683565b5050610956565b635c0f12eb60e11b6001600160e01b031982160161094a5760008061089161088c6060890189613619565b611de5565b509150915060005b8251811015610942578181815181106108b4576108b461365f565b60200260200101518560000151108061091c575061091a8382815181106108dd576108dd61365f565b60200260200101518760060160008c6001600160a01b03166001600160a01b03168152602001908152602001600020611dc390919063ffffffff16565b155b156109305760009650505050505050610683565b8061093a8161368b565b915050610899565b505050610956565b60009350505050610683565b50600195945050505050565b6001600160a01b031660009081527ff2776159535489b2c8217c06dac58993e45cb245272f968642d4d3ef6aa76154602052604090205460ff1690565b60006109a9611e32565b6109b38484611eac565b90506109be82611f51565b9392505050565b60006109d46020850185612ec0565b90506109df81610962565b15610a485760405162461bcd60e51b815260206004820152602e60248201527f4163636f756e745065726d697373696f6e733a207369676e657220697320616c60448201526d3932b0b23c9030b71030b236b4b760911b60648201526084015b60405180910390fd5b42610a5960c0860160a087016136c0565b6001600160801b031611158015610a875750610a7b60e0850160c086016136c0565b6001600160801b031642105b610aef5760405162461bcd60e51b815260206004820152603360248201527f4163636f756e745065726d697373696f6e733a20696e76616c69642072657175604482015272195cdd081d985b1a591a5d1e481c195c9a5bd9606a1b6064820152608401610a3f565b600080610afd8686866110ae565b9150915081610b5c5760405162461bcd60e51b815260206004820152602560248201527f4163636f756e745065726d697373696f6e733a20696e76616c6964207369676e604482015264617475726560d81b6064820152608401610a3f565b600080516020613d96833981519152610b957ff2776159535489b2c8217c06dac58993e45cb245272f968642d4d3ef6aa7615285611f9e565b5060e08701356000908152600782016020908152604091829020805460ff19166001179055815160608082018452928a013581529190820190610bde9060808b01908b016136c0565b6001600160801b03168152602001610bfc60a08a0160808b016136c0565b6001600160801b039081169091526001600160a01b038616600090815260058401602090815260408083208551815585830151958201518516600160801b02959094169490941760019093019290925560068401909152908120610c5f90611fb3565b805190915060005b81811015610cd457610cc1838281518110610c8457610c8461365f565b60200260200101518560060160008a6001600160a01b03166001600160a01b03168152602001908152602001600020611fc090919063ffffffff16565b50610ccd6001826136db565b9050610c67565b506000610ce460208b018b6136ee565b9050905060005b81811015610d5b57610d48610d0360208d018d6136ee565b83818110610d1357610d1361365f565b9050602002016020810190610d289190612ec0565b6001600160a01b038a166000908152600688016020526040902090611f9e565b50610d546001826136db565b9050610ceb565b50610d658a611fd5565b866001600160a01b0316856001600160a01b03167f09ac2cdf09c127af4eedd5aab0a6ca1224c4ae5586d5339657f7fa675d079b948c604051610da891906137c8565b60405180910390a350505050505050505050565b336001600160a01b037f0000000000000000000000000000000000000000000000000000000000000000161480610df75750610df733610962565b610e135760405162461bcd60e51b8152600401610a3f906138a4565b6000546001600160a01b0316331480610e545750336001600160a01b037f000000000000000000000000000000000000000000000000000000000000000016145b80610e635750610e6333610962565b610e7f5760405162461bcd60e51b8152600401610a3f906138e5565b610e87612082565b60005b85811015610f4657610f33878783818110610ea757610ea761365f565b9050602002016020810190610ebc9190612ec0565b868684818110610ece57610ece61365f565b90506020020135858585818110610ee757610ee761365f565b9050602002810190610ef99190613619565b8080601f01602080910402602001604051908101604052809392919081815260200183838082843760009201919091525061214b92505050565b5080610f3e8161368b565b915050610e8a565b50505050505050565b7f000000000000000000000000000000000000000000000000000000000000000060405163b760faf960e01b81523060048201526001600160a01b03919091169063b760faf99034906024016000604051808303818588803b158015610fb457600080fd5b505af1158015610fc8573d6000803e3d6000fd5b5050505050565b610fd833610962565b610ff45760405162461bcd60e51b8152600401610a3f9061390d565b610ffe82826121bc565b5050565b61100b33610962565b6110275760405162461bcd60e51b8152600401610a3f9061390d565b60405163040b850f60e31b81526001600160a01b038381166004830152602482018390527f0000000000000000000000000000000000000000000000000000000000000000169063205c2878906044015b600060405180830381600087803b15801561109257600080fd5b505af11580156110a6573d6000803e3d6000fd5b505050505050565b600080600080516020613d968339815191526110cb868686612298565b60e0870135600090815260078301602052604090205490925060ff161580156110f857506110f882610962565b925050935093915050565b6001600160a01b03811660009081527ff2776159535489b2c8217c06dac58993e45cb245272f968642d4d3ef6aa76155602090815260408083208151606081018352815481526001909101546001600160801b03808216948301859052600160801b9091041691810191909152600080516020613d9683398151915291421080159061119b575080604001516001600160801b031642105b80156111c757506001600160a01b038416600090815260068301602052604081206111c590611d1a565b115b949350505050565b6060600080516020613d96833981519152600061120b7ff2776159535489b2c8217c06dac58993e45cb245272f968642d4d3ef6aa76152611fb3565b8051909150600080826001600160401b0381111561122b5761122b612cf4565b604051908082528060200260200182016040528015611254578160200160208202803683370190505b50905060005b838110156112d95760008582815181106112765761127661365f565b60200260200101519050600061128b82611103565b9050808484815181106112a0576112a061365f565b9115156020928302919091019091015280156112c457846112c08161368b565b9550505b506112d290506001826136db565b905061125a565b50816001600160401b038111156112f2576112f2612cf4565b60405190808252806020026020018201604052801561132b57816020015b611318612c6b565b8152602001906001900390816113105790505b5095506000805b8481101561145b5782818151811061134c5761134c61365f565b60200260200101511561144957600086828151811061136d5761136d61365f565b6020908102919091018101516001600160a01b038116600081815260058c01845260408082208151606081018352815481526001909101546001600160801b0380821683890152600160801b9091041681830152815160a08101835284815293835260068e0186529120929450929091908201906113ea90611fb3565b81526020018260000151815260200182602001516001600160801b0316815260200182604001516001600160801b03168152508a85806114299061368b565b96508151811061143b5761143b61365f565b602002602001018190525050505b6114546001826136db565b9050611332565b5050505050505090565b61146d6122f4565b6114895760405162461bcd60e51b8152600401610a3f906138e5565b611492816122ff565b50565b336001600160a01b037f0000000000000000000000000000000000000000000000000000000000000000161461150d5760405162461bcd60e51b815260206004820152601a60248201527f4f6e6c7920666163746f72792063616e2063616c6c20746869730000000000006044820152606401610a3f565b600080546001600160a01b0319166001600160a01b0392909216919091179055565b6060816001600160401b0381111561154957611549612cf4565b60405190808252806020026020018201604052801561157c57816020015b60608152602001906001900390816115675790505b50905060005b828110156106c0576115ec308585848181106115a0576115a061365f565b90506020028101906115b29190613619565b8080601f01602080910402602001604051908101604052809392919081815260200183838082843760009201919091525061240092505050565b8282815181106115fe576115fe61365f565b602002602001018190525080806116149061368b565b915050611582565b336001600160a01b037f0000000000000000000000000000000000000000000000000000000000000000161480611657575061165733610962565b6116735760405162461bcd60e51b8152600401610a3f906138a4565b6000546001600160a01b03163314806116b45750336001600160a01b037f000000000000000000000000000000000000000000000000000000000000000016145b806116c357506116c333610962565b6116df5760405162461bcd60e51b8152600401610a3f906138e5565b6116e7612082565b610fc8848484848080601f01602080910402602001604051908101604052809392919081815260200183838082843760009201919091525061214b92505050565b6040516370a0823160e01b81523060048201526000906001600160a01b037f000000000000000000000000000000000000000000000000000000000000000016906370a08231906024015b602060405180830381865afa158015611790573d6000803e3d6000fd5b505050506040513d601f19601f820116820180604052508101906117b49190613957565b905090565b604051631aab3f0d60e11b8152306004820152600060248201819052906001600160a01b037f000000000000000000000000000000000000000000000000000000000000000016906335567e1a90604401611773565b6000611819611c9d565b805490915060ff80821691610100900416801580801561183c575060018360ff16105b806118545750303b15801561185457508260ff166001145b6118b75760405162461bcd60e51b815260206004820152602e60248201527f496e697469616c697a61626c653a20636f6e747261637420697320616c72656160448201526d191e481a5b9a5d1a585b1a5e995960921b6064820152608401610a3f565b835460ff1916600117845580156118d657835461ff0019166101001784555b6118e18760016121bc565b8015610f4657835461ff0019168455604051600181527f7f26b83ff96e1f2b6a682f133852f6798a09c465da95921460cefb38474024989060200160405180910390a150505050505050565b6060600080516020613d9683398151915260006119697ff2776159535489b2c8217c06dac58993e45cb245272f968642d4d3ef6aa76152611fb3565b8051909150806001600160401b0381111561198657611986612cf4565b6040519080825280602002602001820160405280156119bf57816020015b6119ac612c6b565b8152602001906001900390816119a45790505b50935060005b81811015611ac45760008382815181106119e1576119e161365f565b6020908102919091018101516001600160a01b038116600081815260058901845260408082208151606081018352815481526001909101546001600160801b0380821683890152600160801b9091041681830152815160a08101835284815293835260068b018652912092945092909190820190611a5e90611fb3565b81526020018260000151815260200182602001516001600160801b0316815260200182604001516001600160801b0316815250878481518110611aa357611aa361365f565b60200260200101819052505050600181611abd91906136db565b90506119c5565b5050505090565b7fa7d40346e44ca145e94a946aa34a7d4a67245577dc18699a626fe0ffc6ce32818054606091908190611afd90613970565b80601f0160208091040260200160405190810160405280929190818152602001828054611b2990613970565b8015611b765780601f10611b4b57610100808354040283529160200191611b76565b820191906000526020600020905b815481529060010190602001808311611b5957829003601f168201915b505050505091505090565b6060600080516020613d96833981519152611b9b81611fb3565b91505090565b611ba9612c6b565b6001600160a01b03821660008181527ff2776159535489b2c8217c06dac58993e45cb245272f968642d4d3ef6aa76155602090815260408083208151606081018352815481526001909101546001600160801b0380821683860152600160801b9091041681830152815160a0810183528581529484527ff2776159535489b2c8217c06dac58993e45cb245272f968642d4d3ef6aa7615683529220600080516020613d968339815191529391820190611c6190611fb3565b81526020018260000151815260200182602001516001600160801b0316815260200182604001516001600160801b031681525092505050919050565b7f627d6cbb4eb558f37de3c2ec08b04710e54e06be936a302f087f7bfb80f39ae090565b60006001600160e01b03198216630271189760e51b148061068357506301ffc9a760e01b6001600160e01b0319831614610683565b6000806000611d058585612425565b91509150611d128161246a565b509392505050565b6000610683825490565b60006004821015611d475760405162461bcd60e51b8152600401610a3f906139a4565b611d556004600084866139cc565b6109be916139f6565b6000806044831015611d825760405162461bcd60e51b8152600401610a3f906139a4565b611d906024600485876139cc565b810190611d9d9190612ec0565b9150611dad6044602485876139cc565b810190611dba9190613a26565b90509250929050565b6001600160a01b038116600090815260018301602052604081205415156109be565b606080806064841015611e0a5760405162461bcd60e51b8152600401610a3f906139a4565b611e1784600481886139cc565b810190611e249190613abe565b919790965090945092505050565b336001600160a01b037f00000000000000000000000000000000000000000000000000000000000000001614611eaa5760405162461bcd60e51b815260206004820152601c60248201527f6163636f756e743a206e6f742066726f6d20456e747279506f696e74000000006044820152606401610a3f565b565b7f19457468657265756d205369676e6564204d6573736167653a0a3332000000006000908152601c829052603c81206000611f2b611eee610140870187613619565b8080601f0160208091040260200160405190810160405280939291908181526020018383808284376000920191909152508693925050611cf69050565b9050611f3781866106c7565b611f4657600192505050610683565b506000949350505050565b801561149257604051600090339060001990849084818181858888f193505050503d8060008114610fc8576040519150601f19603f3d011682016040523d82523d6000602084013e610fc8565b60006109be836001600160a01b0384166125b4565b606060006109be83612603565b60006109be836001600160a01b03841661265f565b6001600160a01b037f0000000000000000000000000000000000000000000000000000000000000000163b15611492576001600160a01b037f00000000000000000000000000000000000000000000000000000000000000001663ed9e4b7d6120416020840184612ec0565b6040516001600160e01b031960e084901b1681526001600160a01b039091166004820152602401600060405180830381600087803b158015610fb457600080fd5b60405163c3c5a54760e01b81523060048201527f0000000000000000000000000000000000000000000000000000000000000000906001600160a01b0382169063c3c5a54790602401602060405180830381865afa1580156120e8573d6000803e3d6000fd5b505050506040513d601f19601f8201168201806040525081019061210c9190613ba3565b61149257806001600160a01b031663c7b90cc36040518163ffffffff1660e01b8152600401600060405180830381600087803b158015610fb457600080fd5b60606000846001600160a01b031684846040516121689190613bc0565b60006040518083038185875af1925050503d80600081146121a5576040519150601f19603f3d011682016040523d82523d6000602084013e6121aa565b606091505b509250905080611d1257815160208301fd5b6121c68282612752565b6001600160a01b037f0000000000000000000000000000000000000000000000000000000000000000163b15610ffe57801561224a5760405163ed9e4b7d60e01b81526001600160a01b0383811660048301527f0000000000000000000000000000000000000000000000000000000000000000169063ed9e4b7d90602401611078565b60405163776c4eb960e11b81526001600160a01b0383811660048301527f0000000000000000000000000000000000000000000000000000000000000000169063eed89d7290602401611078565b60006111c783838080601f0160208091040260200160405190810160405280939291908181526020018383808284376000920191909152506122ee92506122e29150889050612814565b8051906020012061293d565b90611cf6565b60006117b433610962565b7fa7d40346e44ca145e94a946aa34a7d4a67245577dc18699a626fe0ffc6ce32818054600090829061233090613970565b80601f016020809104026020016040519081016040528092919081815260200182805461235c90613970565b80156123a95780601f1061237e576101008083540402835291602001916123a9565b820191906000526020600020905b81548152906001019060200180831161238c57829003601f168201915b50505050509050828260000190816123c19190613c27565b507fc9c7c3fe08b88b4df9d4d47ef47d2c43d55c025a0ba88ca442580ed9e7348a1681846040516123f3929190613ce6565b60405180910390a1505050565b60606109be8383604051806060016040528060278152602001613db66027913961296a565b600080825160410361245b5760208301516040840151606085015160001a61244f87828585612a47565b94509450505050612463565b506000905060025b9250929050565b600081600481111561247e5761247e613d14565b036124865750565b600181600481111561249a5761249a613d14565b036124e75760405162461bcd60e51b815260206004820152601860248201527f45434453413a20696e76616c6964207369676e617475726500000000000000006044820152606401610a3f565b60028160048111156124fb576124fb613d14565b036125485760405162461bcd60e51b815260206004820152601f60248201527f45434453413a20696e76616c6964207369676e6174757265206c656e677468006044820152606401610a3f565b600381600481111561255c5761255c613d14565b036114925760405162461bcd60e51b815260206004820152602260248201527f45434453413a20696e76616c6964207369676e6174757265202773272076616c604482015261756560f01b6064820152608401610a3f565b60008181526001830160205260408120546125fb57508154600181810184556000848152602080822090930184905584548482528286019093526040902091909155610683565b506000610683565b60608160000180548060200260200160405190810160405280929190818152602001828054801561265357602002820191906000526020600020905b81548152602001906001019080831161263f575b50505050509050919050565b60008181526001830160205260408120548015612748576000612683600183613d2a565b855490915060009061269790600190613d2a565b90508181146126fc5760008660000182815481106126b7576126b761365f565b90600052602060002001549050808760000184815481106126da576126da61365f565b6000918252602080832090910192909255918252600188019052604090208390555b855486908061270d5761270d613d3d565b600190038181906000526020600020016000905590558560010160008681526020019081526020016000206000905560019350505050610683565b6000915050610683565b6001600160a01b03821660009081527ff2776159535489b2c8217c06dac58993e45cb245272f968642d4d3ef6aa7615460205260409020805460ff19168215801591909117909155600080516020613d96833981519152906127be576127b88184611f9e565b506127ca565b6127c88184611fc0565b505b826001600160a01b03167f235bc17e7930760029e9f4d860a2a8089976de5b381cf8380fc11c1d88a1113383604051612807911515815260200190565b60405180910390a2505050565b60607f1652558f82172f3162b9e179c9f4ce0654bac7c4802d6326a2868cc56afae2026128446020840184612ec0565b61285160208501856136ee565b604051602001612862929190613d53565b60405160208183030381529060405280519060200120846040013585606001602081019061289091906136c0565b6128a060a08801608089016136c0565b6128b060c0890160a08a016136c0565b6128c060e08a0160c08b016136c0565b6040805160208101999099526001600160a01b0390971696880196909652606087019490945260808601929092526001600160801b0390811660a086015290811660c085015290811660e0848101919091529116610100830152830135610120820152610140016040516020818303038152906040529050919050565b600061068361294a612b0b565b8360405161190160f01b8152600281019290925260228201526042902090565b60606001600160a01b0384163b6129d25760405162461bcd60e51b815260206004820152602660248201527f416464726573733a2064656c65676174652063616c6c20746f206e6f6e2d636f6044820152651b9d1c9858dd60d21b6064820152608401610a3f565b600080856001600160a01b0316856040516129ed9190613bc0565b600060405180830381855af49150503d8060008114612a28576040519150601f19603f3d011682016040523d82523d6000602084013e612a2d565b606091505b5091509150612a3d828286612c32565b9695505050505050565b6000807f7fffffffffffffffffffffffffffffff5d576e7357a4501ddfe92f46681b20a0831115612a7e5750600090506003612b02565b6040805160008082526020820180845289905260ff881692820192909252606081018690526080810185905260019060a0016020604051602081039080840390855afa158015612ad2573d6000803e3d6000fd5b5050604051601f1901519150506001600160a01b038116612afb57600060019250925050612b02565b9150600090505b94509492505050565b6000306001600160a01b037f000000000000000000000000000000000000000000000000000000000000000016148015612b6457507f000000000000000000000000000000000000000000000000000000000000000046145b15612b8e57507f000000000000000000000000000000000000000000000000000000000000000090565b50604080517f00000000000000000000000000000000000000000000000000000000000000006020808301919091527f0000000000000000000000000000000000000000000000000000000000000000828401527f000000000000000000000000000000000000000000000000000000000000000060608301524660808301523060a0808401919091528351808403909101815260c0909201909252805191012090565b60608315612c415750816109be565b825115612c515782518084602001fd5b8160405162461bcd60e51b8152600401610a3f919061353e565b6040518060a0016040528060006001600160a01b03168152602001606081526020016000815260200160006001600160801b0316815260200160006001600160801b031681525090565b600060208284031215612cc757600080fd5b81356001600160e01b0319811681146109be57600080fd5b6001600160a01b038116811461149257600080fd5b634e487b7160e01b600052604160045260246000fd5b604051601f8201601f191681016001600160401b0381118282101715612d3257612d32612cf4565b604052919050565b60006001600160401b03831115612d5357612d53612cf4565b612d66601f8401601f1916602001612d0a565b9050828152838383011115612d7a57600080fd5b828260208301376000602084830101529392505050565b600082601f830112612da257600080fd5b6109be83833560208501612d3a565b60008060008060808587031215612dc757600080fd5b8435612dd281612cdf565b93506020850135612de281612cdf565b92506040850135915060608501356001600160401b03811115612e0457600080fd5b612e1087828801612d91565b91505092959194509250565b60008060408385031215612e2f57600080fd5b8235915060208301356001600160401b03811115612e4c57600080fd5b612e5885828601612d91565b9150509250929050565b60006101608284031215612e7557600080fd5b50919050565b60008060408385031215612e8e57600080fd5b8235612e9981612cdf565b915060208301356001600160401b03811115612eb457600080fd5b612e5885828601612e62565b600060208284031215612ed257600080fd5b81356109be81612cdf565b600080600060608486031215612ef257600080fd5b83356001600160401b03811115612f0857600080fd5b612f1486828701612e62565b9660208601359650604090950135949350505050565b60008083601f840112612f3c57600080fd5b5081356001600160401b03811115612f5357600080fd5b60208301915083602082850101111561246357600080fd5b600080600060408486031215612f8057600080fd5b83356001600160401b0380821115612f9757600080fd5b908501906101008288031215612fac57600080fd5b90935060208501359080821115612fc257600080fd5b50612fcf86828701612f2a565b9497909650939450505050565b60008083601f840112612fee57600080fd5b5081356001600160401b0381111561300557600080fd5b6020830191508360208260051b850101111561246357600080fd5b6000806000806000806060878903121561303957600080fd5b86356001600160401b038082111561305057600080fd5b61305c8a838b01612fdc565b9098509650602089013591508082111561307557600080fd5b6130818a838b01612fdc565b9096509450604089013591508082111561309a57600080fd5b506130a789828a01612fdc565b979a9699509497509295939492505050565b801515811461149257600080fd5b600080604083850312156130da57600080fd5b82356130e581612cdf565b915060208301356130f5816130b9565b809150509250929050565b6000806040838503121561311357600080fd5b823561311e81612cdf565b946020939093013593505050565b80516001600160a01b03908116835260208083015160a082860181905281519086018190526000939183019290849060c08801905b8083101561318357855185168252948301946001929092019190830190613161565b5060408701516040890152606087015194506131aa60608901866001600160801b03169052565b608087015194506131c660808901866001600160801b03169052565b979650505050505050565b6000602080830181845280855180835260408601915060408160051b870101925083870160005b8281101561322657603f1988860301845261321485835161312c565b945092850192908501906001016131f8565b5092979650505050505050565b60006020828403121561324557600080fd5b81356001600160401b0381111561325b57600080fd5b8201601f8101841361326c57600080fd5b6111c784823560208401612d3a565b6000806020838503121561328e57600080fd5b82356001600160401b038111156132a457600080fd5b6132b085828601612fdc565b90969095509350505050565b60005b838110156132d75781810151838201526020016132bf565b50506000910152565b600081518084526132f88160208601602086016132bc565b601f01601f19169290920160200192915050565b6000602080830181845280855180835260408601915060408160051b870101925083870160005b8281101561322657603f1988860301845261334f8583516132e0565b94509285019290850190600101613333565b6000806000806060858703121561337757600080fd5b843561338281612cdf565b93506020850135925060408501356001600160401b038111156133a457600080fd5b6133b087828801612f2a565b95989497509550505050565b60006001600160401b038211156133d5576133d5612cf4565b5060051b60200190565b600082601f8301126133f057600080fd5b81356020613405613400836133bc565b612d0a565b82815260059290921b8401810191818101908684111561342457600080fd5b8286015b8481101561343f5780358352918301918301613428565b509695505050505050565b600080600080600060a0868803121561346257600080fd5b853561346d81612cdf565b9450602086013561347d81612cdf565b935060408601356001600160401b038082111561349957600080fd5b6134a589838a016133df565b945060608801359150808211156134bb57600080fd5b6134c789838a016133df565b935060808801359150808211156134dd57600080fd5b506134ea88828901612d91565b9150509295509295909350565b60008060006040848603121561350c57600080fd5b833561351781612cdf565b925060208401356001600160401b0381111561353257600080fd5b612fcf86828701612f2a565b6020815260006109be60208301846132e0565b6020808252825182820181905260009190848201906040850190845b818110156135925783516001600160a01b03168352928401929184019160010161356d565b50909695505050505050565b6020815260006109be602083018461312c565b600080600080600060a086880312156135c957600080fd5b85356135d481612cdf565b945060208601356135e481612cdf565b9350604086013592506060860135915060808601356001600160401b0381111561360d57600080fd5b6134ea88828901612d91565b6000808335601e1984360301811261363057600080fd5b8301803591506001600160401b0382111561364a57600080fd5b60200191503681900382131561246357600080fd5b634e487b7160e01b600052603260045260246000fd5b634e487b7160e01b600052601160045260246000fd5b60006001820161369d5761369d613675565b5060010190565b80356001600160801b03811681146136bb57600080fd5b919050565b6000602082840312156136d257600080fd5b6109be826136a4565b8082018082111561068357610683613675565b6000808335601e1984360301811261370557600080fd5b8301803591506001600160401b0382111561371f57600080fd5b6020019150600581901b360382131561246357600080fd5b6000808335601e1984360301811261374e57600080fd5b83016020810192503590506001600160401b0381111561376d57600080fd5b8060051b360382131561246357600080fd5b8183526000602080850194508260005b858110156137bd5781356137a281612cdf565b6001600160a01b03168752958201959082019060010161378f565b509495945050505050565b60208152600082356137d981612cdf565b6001600160a01b03166020838101919091526137f790840184613737565b61010080604086015261380f6101208601838561377f565b925060408601356060860152613827606087016136a4565b6001600160801b03811660808701529150613844608087016136a4565b6001600160801b03811660a0870152915061386160a087016136a4565b6001600160801b03811660c0870152915061387e60c087016136a4565b6001600160801b03811660e0870152915060e08601358186015250508091505092915050565b60208082526021908201527f4163636f756e743a206e6f742061646d696e206f7220456e747279506f696e746040820152601760f91b606082015260800190565b6020808252600e908201526d139bdd08185d5d1a1bdc9a5e995960921b604082015260600190565b6020808252602a908201527f4163636f756e745065726d697373696f6e733a2063616c6c6572206973206e6f6040820152693a1030b71030b236b4b760b11b606082015260800190565b60006020828403121561396957600080fd5b5051919050565b600181811c9082168061398457607f821691505b602082108103612e7557634e487b7160e01b600052602260045260246000fd5b6020808252600e908201526d11185d18481d1bdbc81cda1bdc9d60921b604082015260600190565b600080858511156139dc57600080fd5b838611156139e957600080fd5b5050820193919092039150565b6001600160e01b03198135818116916004851015613a1e5780818660040360031b1b83161692505b505092915050565b600060208284031215613a3857600080fd5b5035919050565b600082601f830112613a5057600080fd5b81356020613a60613400836133bc565b82815260059290921b84018101918181019086841115613a7f57600080fd5b8286015b8481101561343f5780356001600160401b03811115613aa25760008081fd5b613ab08986838b0101612d91565b845250918301918301613a83565b600080600060608486031215613ad357600080fd5b83356001600160401b0380821115613aea57600080fd5b818601915086601f830112613afe57600080fd5b81356020613b0e613400836133bc565b82815260059290921b8401810191818101908a841115613b2d57600080fd5b948201945b83861015613b54578535613b4581612cdf565b82529482019490820190613b32565b97505087013592505080821115613b6a57600080fd5b613b76878388016133df565b93506040860135915080821115613b8c57600080fd5b50613b9986828701613a3f565b9150509250925092565b600060208284031215613bb557600080fd5b81516109be816130b9565b60008251613bd28184602087016132bc565b9190910192915050565b601f821115613c2257600081815260208120601f850160051c81016020861015613c035750805b601f850160051c820191505b818110156110a657828155600101613c0f565b505050565b81516001600160401b03811115613c4057613c40612cf4565b613c5481613c4e8454613970565b84613bdc565b602080601f831160018114613c895760008415613c715750858301515b600019600386901b1c1916600185901b1785556110a6565b600085815260208120601f198616915b82811015613cb857888601518255948401946001909101908401613c99565b5085821015613cd65787850151600019600388901b60f8161c191681555b5050505050600190811b01905550565b604081526000613cf960408301856132e0565b8281036020840152613d0b81856132e0565b95945050505050565b634e487b7160e01b600052602160045260246000fd5b8181038181111561068357610683613675565b634e487b7160e01b600052603160045260246000fd5b60008184825b85811015613d8a578135613d6c81612cdf565b6001600160a01b031683526020928301929190910190600101613d59565b50909594505050505056fef2776159535489b2c8217c06dac58993e45cb245272f968642d4d3ef6aa76150416464726573733a206c6f772d6c6576656c2064656c65676174652063616c6c206661696c6564a26469706673582212200121e83e86fcc96ca6bdd741d563eecfa94f1fd350bf83f1b2cee64bb7b2a9ab64736f6c63430008110033",
  "linkReferences": {},
  "deployedLinkReferences": {}
}