{
  "_format": "hh-sol-artifact-1",
  "contractName": "EquipManagement",
  "sourceName": "contracts/EquipManagement.sol",
  "abi": [
    {
      "inputs": [
        {
          "internalType": "address",
          "name": "_battleItemsAddress",
          "type": "address"
        },
        {
          "internalType": "address",
          "name": "_battleSkillsAddress",
          "type": "address"
        },
        {
          "internalType": "address",
          "name": "_compositeTokensAddress",
          "type": "address"
        }
      ],
      "stateMutability": "nonpayable",
      "type": "constructor"
    },
    {
      "anonymous": false,
      "inputs": [
        {
          "indexed": true,
          "internalType": "uint256",
          "name": "characterTokenId",
          "type": "uint256"
        },
        {
          "indexed": true,
          "internalType": "uint256",
          "name": "itemTokenId",
          "type": "uint256"
        }
      ],
      "name": "ItemEquipped",
      "type": "event"
    },
    {
      "anonymous": false,
      "inputs": [
        {
          "indexed": true,
          "internalType": "uint256",
          "name": "characterTokenId",
          "type": "uint256"
        },
        {
          "indexed": true,
          "internalType": "uint256",
          "name": "itemTokenId",
          "type": "uint256"
        }
      ],
      "name": "ItemUnequipped",
      "type": "event"
    },
    {
      "anonymous": false,
      "inputs": [
        {
          "indexed": true,
          "internalType": "uint256",
          "name": "characterTokenId",
          "type": "uint256"
        },
        {
          "indexed": true,
          "internalType": "uint256",
          "name": "skillId",
          "type": "uint256"
        }
      ],
      "name": "SkillEquipped",
      "type": "event"
    },
    {
      "anonymous": false,
      "inputs": [
        {
          "indexed": true,
          "internalType": "uint256",
          "name": "characterTokenId",
          "type": "uint256"
        },
        {
          "indexed": true,
          "internalType": "uint256",
          "name": "skillId",
          "type": "uint256"
        }
      ],
      "name": "SkillUnequipped",
      "type": "event"
    },
    {
      "inputs": [],
      "name": "characterContract",
      "outputs": [
        {
          "internalType": "contract ICharacter",
          "name": "",
          "type": "address"
        }
      ],
      "stateMutability": "view",
      "type": "function"
    },
    {
      "inputs": [
        {
          "internalType": "uint256",
          "name": "characterTokenId",
          "type": "uint256"
        },
        {
          "internalType": "uint256",
          "name": "tokenId",
          "type": "uint256"
        },
        {
          "internalType": "enum CharData.TokenType",
          "name": "tokenType",
          "type": "uint8"
        },
        {
          "internalType": "address",
          "name": "_caller",
          "type": "address"
        }
      ],
      "name": "equip",
      "outputs": [],
      "stateMutability": "nonpayable",
      "type": "function"
    },
    {
      "inputs": [
        {
          "internalType": "address",
          "name": "_characterContractAddress",
          "type": "address"
        }
      ],
      "name": "setCharacterContract",
      "outputs": [],
      "stateMutability": "nonpayable",
      "type": "function"
    },
    {
      "inputs": [
        {
          "internalType": "uint256",
          "name": "characterTokenId",
          "type": "uint256"
        },
        {
          "internalType": "uint256",
          "name": "tokenId",
          "type": "uint256"
        },
        {
          "internalType": "enum CharData.TokenType",
          "name": "tokenType",
          "type": "uint8"
        }
      ],
      "name": "unequip",
      "outputs": [],
      "stateMutability": "nonpayable",
      "type": "function"
    }
  ],
  "bytecode": "0x60806040523480156200001157600080fd5b50604051620025e3380380620025e383398101604081905262000034916200009f565b600080546001600160a01b03199081163317909155600180546001600160a01b03958616908316179055600280549385169382169390931790925560038054919093169116179055620000e9565b80516001600160a01b03811681146200009a57600080fd5b919050565b600080600060608486031215620000b557600080fd5b620000c08462000082565b9250620000d06020850162000082565b9150620000e06040850162000082565b90509250925092565b6124ea80620000f96000396000f3fe608060405234801561001057600080fd5b506004361061004c5760003560e01c806343b60f74146100515780636a950a83146100805780639af3c67c14610095578063f6336e32146100a8575b600080fd5b600454610064906001600160a01b031681565b6040516001600160a01b03909116815260200160405180910390f35b61009361008e366004611f15565b6100bb565b005b6100936100a3366004611f5f565b610332565b6100936100b6366004611f83565b61040a565b600480546040516331a9108f60e11b81529182018690526001600160a01b0383811692911690636352211e90602401602060405180830381865afa158015610107573d6000803e3d6000fd5b505050506040513d601f19601f8201168201806040525081019061012b9190611fbc565b6001600160a01b0316146101735760405162461bcd60e51b815260206004820152600a6024820152694e6f74204f776e65722160b01b60448201526064015b60405180910390fd5b6127108311156101da57600382600481111561019157610191611fd9565b14806101ae575060048260048111156101ac576101ac611fd9565b145b6101ca5760405162461bcd60e51b815260040161016a90611fef565b6101d584828561061f565b61027d565b60008260048111156101ee576101ee611fd9565b0361020d576004546101d590859083906001600160a01b031686610845565b600182600481111561022157610221611fd9565b03610240576004546101d590859083906001600160a01b031686610be7565b60405162461bcd60e51b8152602060048201526012602482015271496e76616c696420746f6b656e207479706560701b604482015260640161016a565b600182600481111561029157610291611fd9565b036102c857604051839085907f1a72c2097d744cc43f0d03d975ee118086c0cb8f144355e9b1e20731bc7b84fc90600090a361032c565b60008260048111156102dc576102dc611fd9565b14806102f9575060038260048111156102f7576102f7611fd9565b145b1561032c57604051839085907ff109238e78bd4a8f9c5112c1bcf42640a1a20f49b268497b2c3c18295445f15990600090a35b50505050565b6000546001600160a01b0316331461037d5760405162461bcd60e51b815260206004820152600e60248201526d139bdd08185d5d1a1bdc9a5e995960921b604482015260640161016a565b6004546001600160a01b0316156103e85760405162461bcd60e51b815260206004820152602960248201527f43686172616374657220636f6e7472616374206164647265737320697320616c6044820152681c9958591e481cd95d60ba1b606482015260840161016a565b600480546001600160a01b0319166001600160a01b0392909216919091179055565b600480546040516331a9108f60e11b815291820185905233916001600160a01b0390911690636352211e90602401602060405180830381865afa158015610455573d6000803e3d6000fd5b505050506040513d601f19601f820116820180604052508101906104799190611fbc565b6001600160a01b0316146104bc5760405162461bcd60e51b815260206004820152600a6024820152694e6f74204f776e65722160b01b604482015260640161016a565b6127108211156105235760038160048111156104da576104da611fd9565b14806104f7575060048160048111156104f5576104f5611fd9565b145b6105135760405162461bcd60e51b815260040161016a90611fef565b61051e833384610f1e565b61056b565b600081600481111561053757610537611fd9565b036105475761051e833384610fee565b600181600481111561055b5761055b611fd9565b036102405761051e833384611268565b600181600481111561057f5761057f611fd9565b036105b657604051829084907fae1b435680f86011fc1110e59d5c02688575495657e17f93cd009273cdc5feba90600090a3505050565b60008160048111156105ca576105ca611fd9565b14806105e7575060038160048111156105e5576105e5611fd9565b145b1561061a57604051829084907f3932d74064b76bcfc68c5e51810daa5a2d561d79822e052848940db45f0e393590600090a35b505050565b60035460405163bd85b03960e01b8152600481018390526000916001600160a01b03169063bd85b03990602401602060405180830381865afa158015610669573d6000803e3d6000fd5b505050506040513d601f19601f8201168201806040525081019061068d9190612026565b116106aa5760405162461bcd60e51b815260040161016a9061203f565b600354604051627eeac760e11b81526001600160a01b03848116600483015260248201849052600092169062fdd58e90604401602060405180830381865afa1580156106fa573d6000803e3d6000fd5b505050506040513d601f19601f8201168201806040525081019061071e9190612026565b1161073b5760405162461bcd60e51b815260040161016a90612076565b6003546040516376aed2e160e01b8152600481018390526000916001600160a01b0316906376aed2e190602401602060405180830381865afa158015610785573d6000803e3d6000fd5b505050506040513d601f19601f820116820180604052508101906107a991906120ca565b905060038160048111156107bf576107bf611fd9565b14806107dc575060048160048111156107da576107da611fd9565b145b6107f85760405162461bcd60e51b815260040161016a90611fef565b600381600481111561080c5761080c611fd9565b036108215761081c8484846113f6565b61032c565b600481600481111561083557610835611fd9565b0361032c5761032c8484846117c8565b60015460405163bd85b03960e01b8152600481018390526000916001600160a01b03169063bd85b03990602401602060405180830381865afa15801561088f573d6000803e3d6000fd5b505050506040513d601f19601f820116820180604052508101906108b39190612026565b116108f85760405162461bcd60e51b8152602060048201526015602482015274125b9d985b1a59081a5d195b481d1bdad95b881251605a1b604482015260640161016a565b600154604051627eeac760e11b81526001600160a01b03858116600483015260248201849052600092169062fdd58e90604401602060405180830381865afa158015610948573d6000803e3d6000fd5b505050506040513d601f19601f8201168201806040525081019061096c9190612026565b116109b95760405162461bcd60e51b815260206004820152601960248201527f4e6f7420746865206f776e6572206f6620746865206974656d00000000000000604482015260640161016a565b60015460405163c19a4ef560e01b8152600481018390526000916001600160a01b03169063c19a4ef590602401602060405180830381865afa158015610a03573d6000803e3d6000fd5b505050506040513d601f19601f82011682018060405250810190610a2791906120ca565b6004805460405163525cca1960e11b81529293506000926001600160a01b039091169163a4b9943291610a5e918a91879101612109565b602060405180830381865afa158015610a7b573d6000803e3d6000fd5b505050506040513d601f19601f82011682018060405250810190610a9f9190612026565b90508015610b1357828103610aee5760405162461bcd60e51b8152602060048201526015602482015274125d195b48185b1c9958591e48195c5d5a5c1c1959605a1b604482015260640161016a565b612710811115610b0857610b03868683611abf565b610b13565b610b13868683610fee565b60048054604051637155eea960e11b81526001600160a01b039091169163e2abdd5291610b46918a91889188910161211d565b600060405180830381600087803b158015610b6057600080fd5b505af1158015610b74573d6000803e3d6000fd5b505060018054604051637921219560e11b81526001600160a01b03909116935063f242432a9250610bad91899189918991600401612140565b600060405180830381600087803b158015610bc757600080fd5b505af1158015610bdb573d6000803e3d6000fd5b50505050505050505050565b60025460405163d6bc3d7360e01b8152600481018390526001600160a01b039091169063d6bc3d7390602401602060405180830381865afa158015610c30573d6000803e3d6000fd5b505050506040513d601f19601f82011682018060405250810190610c549190612178565b610c935760405162461bcd60e51b815260206004820152601060248201526f125b9d985b1a59081cdada5b1b08125160821b604482015260640161016a565b600254604051627eeac760e11b81526001600160a01b03858116600483015260248201849052600092169062fdd58e90604401602060405180830381865afa158015610ce3573d6000803e3d6000fd5b505050506040513d601f19601f82011682018060405250810190610d079190612026565b11610d545760405162461bcd60e51b815260206004820152601a60248201527f4e6f7420746865206f776e6572206f662074686520736b696c6c000000000000604482015260640161016a565b60048054604051639d9ea9f360e01b81529182018690526000916001600160a01b0390911690639d9ea9f390602401600060405180830381865afa158015610da0573d6000803e3d6000fd5b505050506040513d6000823e601f3d908101601f19168201604052610dc8919081019061222e565b905060005b8151811015610e495782828281518110610de957610de96122d4565b602002602001015103610e375760405162461bcd60e51b815260206004820152601660248201527514dada5b1b08185b1c9958591e48195c5d5a5c1c195960521b604482015260640161016a565b80610e41816122ea565b915050610dcd565b50600254604051637921219560e11b81526001600160a01b039091169063f242432a90610e8190879087908790600190600401612140565b600060405180830381600087803b158015610e9b57600080fd5b505af1158015610eaf573d6000803e3d6000fd5b505060048054604051631796fd4160e31b8152918201899052602482018690526001600160a01b0316925063bcb7ea0891506044015b600060405180830381600087803b158015610eff57600080fd5b505af1158015610f13573d6000803e3d6000fd5b505050505050505050565b6003546040516376aed2e160e01b8152600481018390526000916001600160a01b0316906376aed2e190602401602060405180830381865afa158015610f68573d6000803e3d6000fd5b505050506040513d601f19601f82011682018060405250810190610f8c91906120ca565b90506003816004811115610fa257610fa2611fd9565b03610fb25761081c848484611abf565b6004816004811115610fc657610fc6611fd9565b03610fd65761081c848484611da0565b60405162461bcd60e51b815260040161016a90611fef565b60015460405163bd85b03960e01b8152600481018390526000916001600160a01b03169063bd85b03990602401602060405180830381865afa158015611038573d6000803e3d6000fd5b505050506040513d601f19601f8201168201806040525081019061105c9190612026565b116110a15760405162461bcd60e51b8152602060048201526015602482015274125b9d985b1a59081a5d195b481d1bdad95b881251605a1b604482015260640161016a565b60015460405163c19a4ef560e01b8152600481018390526000916001600160a01b03169063c19a4ef590602401602060405180830381865afa1580156110eb573d6000803e3d6000fd5b505050506040513d601f19601f8201168201806040525081019061110f91906120ca565b6004805460405163525cca1960e11b81529293506000926001600160a01b039091169163a4b9943291611146918991879101612109565b602060405180830381865afa158015611163573d6000803e3d6000fd5b505050506040513d601f19601f820116820180604052508101906111879190612026565b90508281146111cc5760405162461bcd60e51b8152602060048201526011602482015270125d195b481b9bdd08195c5d5a5c1c1959607a1b604482015260640161016a565b6004805460405163fe80c55d60e01b81526001600160a01b039091169163fe80c55d916111fd918991879101612109565b600060405180830381600087803b15801561121757600080fd5b505af115801561122b573d6000803e3d6000fd5b505060015460405163013724db60e61b8152600481018790526001600160a01b0388811660248301529091169250634dc936c09150604401610ee5565b60048054604051639d9ea9f360e01b81529182018590526000916001600160a01b0390911690639d9ea9f390602401600060405180830381865afa1580156112b4573d6000803e3d6000fd5b505050506040513d6000823e601f3d908101601f191682016040526112dc919081019061222e565b905060005b81518110156113b857828282815181106112fd576112fd6122d4565b6020026020010151036113a6576004805460405163e4c301eb60e01b8152918201879052602482018590526001600160a01b03169063e4c301eb90604401600060405180830381600087803b15801561135557600080fd5b505af1158015611369573d6000803e3d6000fd5b505060025460405163bfa0fedb60e01b8152600481018790526001600160a01b038881166024830152909116925063bfa0fedb9150604401610ee5565b806113b0816122ea565b9150506112e1565b5060405162461bcd60e51b815260206004820152601260248201527114dada5b1b081b9bdd08195c5d5a5c1c195960721b604482015260640161016a565b60035460405163bd85b03960e01b8152600481018390526000916001600160a01b03169063bd85b03990602401602060405180830381865afa158015611440573d6000803e3d6000fd5b505050506040513d601f19601f820116820180604052508101906114649190612026565b116114815760405162461bcd60e51b815260040161016a9061203f565b600354604051627eeac760e11b81526001600160a01b03848116600483015260248201849052600092169062fdd58e90604401602060405180830381865afa1580156114d1573d6000803e3d6000fd5b505050506040513d601f19601f820116820180604052508101906114f59190612026565b116115125760405162461bcd60e51b815260040161016a90612076565b60035460405163681377c960e01b8152600481018390526000916001600160a01b03169063681377c99060240161014060405180830381865afa15801561155d573d6000803e3d6000fd5b505050506040513d601f19601f820116820180604052508101906115819190612311565b6001546080820151604051633129e77360e01b81529293506000926001600160a01b0390921691633129e773916115be9160040190815260200190565b600060405180830381865afa1580156115db573d6000803e3d6000fd5b505050506040513d6000823e601f3d908101601f1916820160405261160391908101906123a6565b60a08101516004805460405163525cca1960e11b815293945091926000926001600160a01b03169163a4b994329161163f918b91879101612109565b602060405180830381865afa15801561165c573d6000803e3d6000fd5b505050506040513d601f19601f820116820180604052508101906116809190612026565b905080156116f4578481036116cf5760405162461bcd60e51b8152602060048201526015602482015274125d195b48185b1c9958591e48195c5d5a5c1c1959605a1b604482015260640161016a565b6127108111156116e9576116e4878783611abf565b6116f4565b6116f4878783610fee565b600354604051638c27e28560e01b8152600481018790526001600160a01b03888116602483015290911690638c27e28590604401600060405180830381600087803b15801561174257600080fd5b505af1158015611756573d6000803e3d6000fd5b505060048054604051637155eea960e11b81526001600160a01b03909116935063e2abdd52925061178d918b918a9188910161211d565b600060405180830381600087803b1580156117a757600080fd5b505af11580156117bb573d6000803e3d6000fd5b5050505050505050505050565b60035460405163bd85b03960e01b8152600481018390526000916001600160a01b03169063bd85b03990602401602060405180830381865afa158015611812573d6000803e3d6000fd5b505050506040513d601f19601f820116820180604052508101906118369190612026565b116118535760405162461bcd60e51b815260040161016a9061203f565b600354604051627eeac760e11b81526001600160a01b03848116600483015260248201849052600092169062fdd58e90604401602060405180830381865afa1580156118a3573d6000803e3d6000fd5b505050506040513d601f19601f820116820180604052508101906118c79190612026565b116118e45760405162461bcd60e51b815260040161016a90612076565b60048054604051639d9ea9f360e01b81529182018590526000916001600160a01b0390911690639d9ea9f390602401600060405180830381865afa158015611930573d6000803e3d6000fd5b505050506040513d6000823e601f3d908101601f19168201604052611958919081019061222e565b905060005b81518110156119ef5782828281518110611979576119796122d4565b6020026020010151036119dd5760405162461bcd60e51b815260206004820152602660248201527f436f6d706f7369746520736b696c6c20746f6b656e20616c72656164792065716044820152651d5a5c1c195960d21b606482015260840161016a565b806119e7816122ea565b91505061195d565b50600354604051638c27e28560e01b8152600481018490526001600160a01b03858116602483015290911690638c27e28590604401600060405180830381600087803b158015611a3e57600080fd5b505af1158015611a52573d6000803e3d6000fd5b505060048054604051631796fd4160e31b8152918201889052602482018690526001600160a01b0316925063bcb7ea089150604401600060405180830381600087803b158015611aa157600080fd5b505af1158015611ab5573d6000803e3d6000fd5b5050505050505050565b60035460405163bd85b03960e01b8152600481018390526000916001600160a01b03169063bd85b03990602401602060405180830381865afa158015611b09573d6000803e3d6000fd5b505050506040513d601f19601f82011682018060405250810190611b2d9190612026565b11611b4a5760405162461bcd60e51b815260040161016a9061203f565b60035460405163681377c960e01b8152600481018390526000916001600160a01b03169063681377c99060240161014060405180830381865afa158015611b95573d6000803e3d6000fd5b505050506040513d601f19601f82011682018060405250810190611bb99190612311565b6001546080820151604051633129e77360e01b81529293506000926001600160a01b0390921691633129e77391611bf69160040190815260200190565b600060405180830381865afa158015611c13573d6000803e3d6000fd5b505050506040513d6000823e601f3d908101601f19168201604052611c3b91908101906123a6565b60a08101516004805460405163525cca1960e11b8152939450919286926001600160a01b03169163a4b9943291611c76918b91879101612109565b602060405180830381865afa158015611c93573d6000803e3d6000fd5b505050506040513d601f19601f82011682018060405250810190611cb79190612026565b14611d045760405162461bcd60e51b815260206004820152601c60248201527f436f6d706f7369746520746f6b656e206e6f7420657175697070656400000000604482015260640161016a565b6004805460405163fe80c55d60e01b81526001600160a01b039091169163fe80c55d91611d35918a91869101612109565b600060405180830381600087803b158015611d4f57600080fd5b505af1158015611d63573d6000803e3d6000fd5b50506003546040516315a7d18d60e11b8152600481018890526001600160a01b0389811660248301529091169250632b4fa31a9150604401610bad565b60048054604051639d9ea9f360e01b81529182018590526000916001600160a01b0390911690639d9ea9f390602401600060405180830381865afa158015611dec573d6000803e3d6000fd5b505050506040513d6000823e601f3d908101601f19168201604052611e14919081019061222e565b905060005b81518110156113b85782828281518110611e3557611e356122d4565b602002602001015103611ede576004805460405163e4c301eb60e01b8152918201879052602482018590526001600160a01b03169063e4c301eb90604401600060405180830381600087803b158015611e8d57600080fd5b505af1158015611ea1573d6000803e3d6000fd5b50506003546040516315a7d18d60e11b8152600481018790526001600160a01b0388811660248301529091169250632b4fa31a9150604401610ee5565b80611ee8816122ea565b915050611e19565b60058110611efd57600080fd5b50565b6001600160a01b0381168114611efd57600080fd5b60008060008060808587031215611f2b57600080fd5b84359350602085013592506040850135611f4481611ef0565b91506060850135611f5481611f00565b939692955090935050565b600060208284031215611f7157600080fd5b8135611f7c81611f00565b9392505050565b600080600060608486031215611f9857600080fd5b83359250602084013591506040840135611fb181611ef0565b809150509250925092565b600060208284031215611fce57600080fd5b8151611f7c81611f00565b634e487b7160e01b600052602160045260246000fd5b6020808252601c908201527f496e76616c696420636f6d706f7369746520746f6b656e207479706500000000604082015260600190565b60006020828403121561203857600080fd5b5051919050565b6020808252601a908201527f496e76616c696420636f6d706f7369746520746f6b656e204944000000000000604082015260600190565b60208082526024908201527f4e6f7420746865206f776e6572206f662074686520636f6d706f73697465207460408201526337b5b2b760e11b606082015260800190565b80516120c581611ef0565b919050565b6000602082840312156120dc57600080fd5b8151611f7c81611ef0565b6005811061210557634e487b7160e01b600052602160045260246000fd5b9052565b82815260408101611f7c60208301846120e7565b838152602081018390526060810161213860408301846120e7565b949350505050565b6001600160a01b0394851681529290931660208301526040820152606081019190915260a06080820181905260009082015260c00190565b60006020828403121561218a57600080fd5b81518015158114611f7c57600080fd5b634e487b7160e01b600052604160045260246000fd5b604051610140810167ffffffffffffffff811182821017156121d4576121d461219a565b60405290565b60405160c0810167ffffffffffffffff811182821017156121d4576121d461219a565b604051601f8201601f1916810167ffffffffffffffff811182821017156122265761222661219a565b604052919050565b6000602080838503121561224157600080fd5b825167ffffffffffffffff8082111561225957600080fd5b818501915085601f83011261226d57600080fd5b81518181111561227f5761227f61219a565b8060051b91506122908483016121fd565b81815291830184019184810190888411156122aa57600080fd5b938501935b838510156122c8578451825293850193908501906122af565b98975050505050505050565b634e487b7160e01b600052603260045260246000fd5b60006001820161230a57634e487b7160e01b600052601160045260246000fd5b5060010190565b6000610140828403121561232457600080fd5b61232c6121b0565b8251815260208301516020820152612346604084016120ba565b6040820152612357606084016120ba565b60608201526080830151608082015260a083015160a082015260c083015160c082015260e083015160e08201526101008084015181830152506101208084015181830152508091505092915050565b600060208083850312156123b957600080fd5b825167ffffffffffffffff808211156123d157600080fd5b9084019060c082870312156123e557600080fd5b6123ed6121da565b8251828111156123fc57600080fd5b8301601f8101881361240d57600080fd5b80518381111561241f5761241f61219a565b612431601f8201601f191687016121fd565b9350808452888682840101111561244757600080fd5b60005b8181101561246557828101870151858201880152860161244a565b506000868286010152505081815283830151848201526040830151604082015260608301516060820152608083015160808201526124a560a084016120ba565b60a0820152969550505050505056fea2646970667358221220d375f7015decc5f6125d9edf9706d885bd8c9b669065c82b7430a6c3238211af64736f6c63430008110033",
  "linkReferences": {},
  "deployedLinkReferences": {}
}