{
  "_format": "hh-sol-artifact-1",
  "contractName": "EquipManagement",
  "sourceName": "contracts/EquipManagement.sol",
  "abi": [
    {
      "inputs": [
        {
          "internalType": "address",
          "name": "_battleItemsAddress",
          "type": "address"
        },
        {
          "internalType": "address",
          "name": "_battleSkillsAddress",
          "type": "address"
        },
        {
          "internalType": "address",
          "name": "_compositeTokensAddress",
          "type": "address"
        }
      ],
      "stateMutability": "nonpayable",
      "type": "constructor"
    },
    {
      "anonymous": false,
      "inputs": [
        {
          "indexed": true,
          "internalType": "uint256",
          "name": "characterTokenId",
          "type": "uint256"
        },
        {
          "indexed": true,
          "internalType": "uint256",
          "name": "itemTokenId",
          "type": "uint256"
        }
      ],
      "name": "ItemEquipped",
      "type": "event"
    },
    {
      "anonymous": false,
      "inputs": [
        {
          "indexed": true,
          "internalType": "uint256",
          "name": "characterTokenId",
          "type": "uint256"
        },
        {
          "indexed": true,
          "internalType": "uint256",
          "name": "itemTokenId",
          "type": "uint256"
        }
      ],
      "name": "ItemUnequipped",
      "type": "event"
    },
    {
      "anonymous": false,
      "inputs": [
        {
          "indexed": true,
          "internalType": "uint256",
          "name": "characterTokenId",
          "type": "uint256"
        },
        {
          "indexed": true,
          "internalType": "uint256",
          "name": "skillId",
          "type": "uint256"
        }
      ],
      "name": "SkillEquipped",
      "type": "event"
    },
    {
      "anonymous": false,
      "inputs": [
        {
          "indexed": true,
          "internalType": "uint256",
          "name": "characterTokenId",
          "type": "uint256"
        },
        {
          "indexed": true,
          "internalType": "uint256",
          "name": "skillId",
          "type": "uint256"
        }
      ],
      "name": "SkillUnequipped",
      "type": "event"
    },
    {
      "inputs": [],
      "name": "characterContract",
      "outputs": [
        {
          "internalType": "contract ICharacter",
          "name": "",
          "type": "address"
        }
      ],
      "stateMutability": "view",
      "type": "function"
    },
    {
      "inputs": [
        {
          "internalType": "uint256",
          "name": "characterTokenId",
          "type": "uint256"
        },
        {
          "internalType": "uint256",
          "name": "tokenId",
          "type": "uint256"
        },
        {
          "internalType": "enum CharData.TokenType",
          "name": "tokenType",
          "type": "uint8"
        },
        {
          "internalType": "address",
          "name": "_caller",
          "type": "address"
        }
      ],
      "name": "equip",
      "outputs": [],
      "stateMutability": "nonpayable",
      "type": "function"
    },
    {
      "inputs": [
        {
          "internalType": "address",
          "name": "_characterContractAddress",
          "type": "address"
        }
      ],
      "name": "setCharacterContract",
      "outputs": [],
      "stateMutability": "nonpayable",
      "type": "function"
    },
    {
      "inputs": [
        {
          "internalType": "uint256",
          "name": "characterTokenId",
          "type": "uint256"
        },
        {
          "internalType": "uint256",
          "name": "tokenId",
          "type": "uint256"
        },
        {
          "internalType": "enum CharData.TokenType",
          "name": "tokenType",
          "type": "uint8"
        }
      ],
      "name": "unequip",
      "outputs": [],
      "stateMutability": "nonpayable",
      "type": "function"
    }
  ],
  "bytecode": "0x60806040523480156200001157600080fd5b50604051620026673803806200266783398101604081905262000034916200009f565b600080546001600160a01b03199081163317909155600180546001600160a01b03958616908316179055600280549385169382169390931790925560038054919093169116179055620000e9565b80516001600160a01b03811681146200009a57600080fd5b919050565b600080600060608486031215620000b557600080fd5b620000c08462000082565b9250620000d06020850162000082565b9150620000e06040850162000082565b90509250925092565b61256e80620000f96000396000f3fe608060405234801561001057600080fd5b506004361061004c5760003560e01c806343b60f74146100515780636a950a83146100805780639af3c67c14610095578063f6336e32146100a8575b600080fd5b600454610064906001600160a01b031681565b6040516001600160a01b03909116815260200160405180910390f35b61009361008e366004611f99565b6100bb565b005b6100936100a3366004611fe3565b610341565b6100936100b6366004612007565b610419565b600480546040516331a9108f60e11b81529182018690526001600160a01b0383811692911690636352211e90602401602060405180830381865afa158015610107573d6000803e3d6000fd5b505050506040513d601f19601f8201168201806040525081019061012b9190612040565b6001600160a01b0316146101735760405162461bcd60e51b815260206004820152600a6024820152694e6f74204f776e65722160b01b60448201526064015b60405180910390fd5b6127108311156101e95760038260048111156101915761019161205d565b14806101ae575060048260048111156101ac576101ac61205d565b145b6101ca5760405162461bcd60e51b815260040161016a90612073565b6004546101e490859083906001600160a01b03168661065b565b61028c565b60008260048111156101fd576101fd61205d565b0361021c576004546101e490859083906001600160a01b03168661088a565b60018260048111156102305761023061205d565b0361024f576004546101e490859083906001600160a01b031686610c2e565b60405162461bcd60e51b8152602060048201526012602482015271496e76616c696420746f6b656e207479706560701b604482015260640161016a565b60018260048111156102a0576102a061205d565b036102d757604051839085907f1a72c2097d744cc43f0d03d975ee118086c0cb8f144355e9b1e20731bc7b84fc90600090a361033b565b60008260048111156102eb576102eb61205d565b1480610308575060038260048111156103065761030661205d565b145b1561033b57604051839085907ff109238e78bd4a8f9c5112c1bcf42640a1a20f49b268497b2c3c18295445f15990600090a35b50505050565b6000546001600160a01b0316331461038c5760405162461bcd60e51b815260206004820152600e60248201526d139bdd08185d5d1a1bdc9a5e995960921b604482015260640161016a565b6004546001600160a01b0316156103f75760405162461bcd60e51b815260206004820152602960248201527f43686172616374657220636f6e7472616374206164647265737320697320616c6044820152681c9958591e481cd95d60ba1b606482015260840161016a565b600480546001600160a01b0319166001600160a01b0392909216919091179055565b600480546040516331a9108f60e11b815291820185905233916001600160a01b0390911690636352211e90602401602060405180830381865afa158015610464573d6000803e3d6000fd5b505050506040513d601f19601f820116820180604052508101906104889190612040565b6001600160a01b0316146104cb5760405162461bcd60e51b815260206004820152600a6024820152694e6f74204f776e65722160b01b604482015260640161016a565b6127108211156105415760038160048111156104e9576104e961205d565b1480610506575060048160048111156105045761050461205d565b145b6105225760405162461bcd60e51b815260040161016a90612073565b60045461053c90849033906001600160a01b031685610f65565b6105a7565b60008160048111156105555761055561205d565b036105745760045461053c90849033906001600160a01b031685611037565b60018160048111156105885761058861205d565b0361024f5760045461053c90849033906001600160a01b0316856112ad565b60018160048111156105bb576105bb61205d565b036105f257604051829084907fae1b435680f86011fc1110e59d5c02688575495657e17f93cd009273cdc5feba90600090a3505050565b60008160048111156106065761060661205d565b1480610623575060038160048111156106215761062161205d565b145b1561065657604051829084907f3932d74064b76bcfc68c5e51810daa5a2d561d79822e052848940db45f0e393590600090a35b505050565b60035460405163bd85b03960e01b8152600481018390526000916001600160a01b03169063bd85b03990602401602060405180830381865afa1580156106a5573d6000803e3d6000fd5b505050506040513d601f19601f820116820180604052508101906106c991906120aa565b116106e65760405162461bcd60e51b815260040161016a906120c3565b600354604051627eeac760e11b81526001600160a01b03858116600483015260248201849052600092169062fdd58e90604401602060405180830381865afa158015610736573d6000803e3d6000fd5b505050506040513d601f19601f8201168201806040525081019061075a91906120aa565b116107775760405162461bcd60e51b815260040161016a906120fa565b6003546040516376aed2e160e01b8152600481018390526000916001600160a01b0316906376aed2e190602401602060405180830381865afa1580156107c1573d6000803e3d6000fd5b505050506040513d601f19601f820116820180604052508101906107e5919061214e565b905060038160048111156107fb576107fb61205d565b1480610818575060048160048111156108165761081661205d565b145b6108345760405162461bcd60e51b815260040161016a90612073565b60038160048111156108485761084861205d565b0361085e5761085985858585611472565b610883565b60048160048111156108725761087261205d565b03610883576108838585858561184a565b5050505050565b60015460405163bd85b03960e01b8152600481018390526000916001600160a01b03169063bd85b03990602401602060405180830381865afa1580156108d4573d6000803e3d6000fd5b505050506040513d601f19601f820116820180604052508101906108f891906120aa565b1161093d5760405162461bcd60e51b8152602060048201526015602482015274125b9d985b1a59081a5d195b481d1bdad95b881251605a1b604482015260640161016a565b600154604051627eeac760e11b81526001600160a01b03858116600483015260248201849052600092169062fdd58e90604401602060405180830381865afa15801561098d573d6000803e3d6000fd5b505050506040513d601f19601f820116820180604052508101906109b191906120aa565b116109fe5760405162461bcd60e51b815260206004820152601960248201527f4e6f7420746865206f776e6572206f6620746865206974656d00000000000000604482015260640161016a565b60015460405163c19a4ef560e01b8152600481018390526000916001600160a01b03169063c19a4ef590602401602060405180830381865afa158015610a48573d6000803e3d6000fd5b505050506040513d601f19601f82011682018060405250810190610a6c919061214e565b6004805460405163525cca1960e11b81529293506000926001600160a01b039091169163a4b9943291610aa3918a9187910161218d565b602060405180830381865afa158015610ac0573d6000803e3d6000fd5b505050506040513d601f19601f82011682018060405250810190610ae491906120aa565b90508015610b5a57828103610b335760405162461bcd60e51b8152602060048201526015602482015274125d195b48185b1c9958591e48195c5d5a5c1c1959605a1b604482015260640161016a565b612710811115610b4e57610b4986868684611b0c565b610b5a565b610b5a86868684611037565b60048054604051637155eea960e11b81526001600160a01b039091169163e2abdd5291610b8d918a9188918891016121a1565b600060405180830381600087803b158015610ba757600080fd5b505af1158015610bbb573d6000803e3d6000fd5b505060018054604051637921219560e11b81526001600160a01b03909116935063f242432a9250610bf4918991899189916004016121c4565b600060405180830381600087803b158015610c0e57600080fd5b505af1158015610c22573d6000803e3d6000fd5b50505050505050505050565b60025460405163d6bc3d7360e01b8152600481018390526001600160a01b039091169063d6bc3d7390602401602060405180830381865afa158015610c77573d6000803e3d6000fd5b505050506040513d601f19601f82011682018060405250810190610c9b91906121fc565b610cda5760405162461bcd60e51b815260206004820152601060248201526f125b9d985b1a59081cdada5b1b08125160821b604482015260640161016a565b600254604051627eeac760e11b81526001600160a01b03858116600483015260248201849052600092169062fdd58e90604401602060405180830381865afa158015610d2a573d6000803e3d6000fd5b505050506040513d601f19601f82011682018060405250810190610d4e91906120aa565b11610d9b5760405162461bcd60e51b815260206004820152601a60248201527f4e6f7420746865206f776e6572206f662074686520736b696c6c000000000000604482015260640161016a565b60048054604051639d9ea9f360e01b81529182018690526000916001600160a01b0390911690639d9ea9f390602401600060405180830381865afa158015610de7573d6000803e3d6000fd5b505050506040513d6000823e601f3d908101601f19168201604052610e0f91908101906122b2565b905060005b8151811015610e905782828281518110610e3057610e30612358565b602002602001015103610e7e5760405162461bcd60e51b815260206004820152601660248201527514dada5b1b08185b1c9958591e48195c5d5a5c1c195960521b604482015260640161016a565b80610e888161236e565b915050610e14565b50600254604051637921219560e11b81526001600160a01b039091169063f242432a90610ec8908790879087906001906004016121c4565b600060405180830381600087803b158015610ee257600080fd5b505af1158015610ef6573d6000803e3d6000fd5b505060048054604051631796fd4160e31b8152918201899052602482018690526001600160a01b0316925063bcb7ea0891506044015b600060405180830381600087803b158015610f4657600080fd5b505af1158015610f5a573d6000803e3d6000fd5b505050505050505050565b6003546040516376aed2e160e01b8152600481018390526000916001600160a01b0316906376aed2e190602401602060405180830381865afa158015610faf573d6000803e3d6000fd5b505050506040513d601f19601f82011682018060405250810190610fd3919061214e565b90506003816004811115610fe957610fe961205d565b03610ffa5761085985858585611b0c565b600481600481111561100e5761100e61205d565b0361101f5761085985858585611e26565b60405162461bcd60e51b815260040161016a90612073565b60015460405163bd85b03960e01b8152600481018390526000916001600160a01b03169063bd85b03990602401602060405180830381865afa158015611081573d6000803e3d6000fd5b505050506040513d601f19601f820116820180604052508101906110a591906120aa565b116110ea5760405162461bcd60e51b8152602060048201526015602482015274125b9d985b1a59081a5d195b481d1bdad95b881251605a1b604482015260640161016a565b60015460405163c19a4ef560e01b8152600481018390526000916001600160a01b03169063c19a4ef590602401602060405180830381865afa158015611134573d6000803e3d6000fd5b505050506040513d601f19601f82011682018060405250810190611158919061214e565b6004805460405163525cca1960e11b81529293506000926001600160a01b039091169163a4b994329161118f918a9187910161218d565b602060405180830381865afa1580156111ac573d6000803e3d6000fd5b505050506040513d601f19601f820116820180604052508101906111d091906120aa565b90508281146112155760405162461bcd60e51b8152602060048201526011602482015270125d195b481b9bdd08195c5d5a5c1c1959607a1b604482015260640161016a565b6004805460405163fe80c55d60e01b81526001600160a01b039091169163fe80c55d91611246918a9187910161218d565b600060405180830381600087803b15801561126057600080fd5b505af1158015611274573d6000803e3d6000fd5b505060018054604051637921219560e11b81526001600160a01b03909116935063f242432a9250610bf49188918a9189916004016121c4565b60048054604051639d9ea9f360e01b81529182018690526000916001600160a01b0390911690639d9ea9f390602401600060405180830381865afa1580156112f9573d6000803e3d6000fd5b505050506040513d6000823e601f3d908101601f1916820160405261132191908101906122b2565b905060005b8151811015611434578282828151811061134257611342612358565b602002602001015103611422576004805460405163e4c301eb60e01b8152918201889052602482018590526001600160a01b03169063e4c301eb90604401600060405180830381600087803b15801561139a57600080fd5b505af11580156113ae573d6000803e3d6000fd5b5050600254604051637921219560e11b81526001600160a01b03909116925063f242432a91506113e9908790899088906001906004016121c4565b600060405180830381600087803b15801561140357600080fd5b505af1158015611417573d6000803e3d6000fd5b50505050505061033b565b8061142c8161236e565b915050611326565b5060405162461bcd60e51b815260206004820152601260248201527114dada5b1b081b9bdd08195c5d5a5c1c195960721b604482015260640161016a565b60035460405163bd85b03960e01b8152600481018390526000916001600160a01b03169063bd85b03990602401602060405180830381865afa1580156114bc573d6000803e3d6000fd5b505050506040513d601f19601f820116820180604052508101906114e091906120aa565b116114fd5760405162461bcd60e51b815260040161016a906120c3565b600354604051627eeac760e11b81526001600160a01b03858116600483015260248201849052600092169062fdd58e90604401602060405180830381865afa15801561154d573d6000803e3d6000fd5b505050506040513d601f19601f8201168201806040525081019061157191906120aa565b1161158e5760405162461bcd60e51b815260040161016a906120fa565b60035460405163681377c960e01b8152600481018390526000916001600160a01b03169063681377c99060240161014060405180830381865afa1580156115d9573d6000803e3d6000fd5b505050506040513d601f19601f820116820180604052508101906115fd9190612395565b6001546080820151604051633129e77360e01b81529293506000926001600160a01b0390921691633129e7739161163a9160040190815260200190565b600060405180830381865afa158015611657573d6000803e3d6000fd5b505050506040513d6000823e601f3d908101601f1916820160405261167f919081019061242a565b60a08101516004805460405163525cca1960e11b815293945091926000926001600160a01b03169163a4b99432916116bb918c9187910161218d565b602060405180830381865afa1580156116d8573d6000803e3d6000fd5b505050506040513d601f19601f820116820180604052508101906116fc91906120aa565b905080156117725784810361174b5760405162461bcd60e51b8152602060048201526015602482015274125d195b48185b1c9958591e48195c5d5a5c1c1959605a1b604482015260640161016a565b6127108111156117665761176188888884611b0c565b611772565b61177288888884611037565b60048054604051637155eea960e11b81526001600160a01b039091169163e2abdd52916117a5918c918a918891016121a1565b600060405180830381600087803b1580156117bf57600080fd5b505af11580156117d3573d6000803e3d6000fd5b5050600354604051637921219560e11b81526001600160a01b03909116925063f242432a915061180e908a908a908a906001906004016121c4565b600060405180830381600087803b15801561182857600080fd5b505af115801561183c573d6000803e3d6000fd5b505050505050505050505050565b60035460405163bd85b03960e01b8152600481018390526000916001600160a01b03169063bd85b03990602401602060405180830381865afa158015611894573d6000803e3d6000fd5b505050506040513d601f19601f820116820180604052508101906118b891906120aa565b116118d55760405162461bcd60e51b815260040161016a906120c3565b600354604051627eeac760e11b81526001600160a01b03858116600483015260248201849052600092169062fdd58e90604401602060405180830381865afa158015611925573d6000803e3d6000fd5b505050506040513d601f19601f8201168201806040525081019061194991906120aa565b116119665760405162461bcd60e51b815260040161016a906120fa565b60048054604051639d9ea9f360e01b81529182018690526000916001600160a01b0390911690639d9ea9f390602401600060405180830381865afa1580156119b2573d6000803e3d6000fd5b505050506040513d6000823e601f3d908101601f191682016040526119da91908101906122b2565b905060005b8151811015611a7157828282815181106119fb576119fb612358565b602002602001015103611a5f5760405162461bcd60e51b815260206004820152602660248201527f436f6d706f7369746520736b696c6c20746f6b656e20616c72656164792065716044820152651d5a5c1c195960d21b606482015260840161016a565b80611a698161236e565b9150506119df565b5060048054604051631796fd4160e31b8152918201879052602482018490526001600160a01b03169063bcb7ea0890604401600060405180830381600087803b158015611abd57600080fd5b505af1158015611ad1573d6000803e3d6000fd5b5050600354604051637921219560e11b81526001600160a01b03909116925063f242432a9150610f2c908790879087906001906004016121c4565b60035460405163bd85b03960e01b8152600481018390526000916001600160a01b03169063bd85b03990602401602060405180830381865afa158015611b56573d6000803e3d6000fd5b505050506040513d601f19601f82011682018060405250810190611b7a91906120aa565b11611b975760405162461bcd60e51b815260040161016a906120c3565b60035460405163681377c960e01b8152600481018390526000916001600160a01b03169063681377c99060240161014060405180830381865afa158015611be2573d6000803e3d6000fd5b505050506040513d601f19601f82011682018060405250810190611c069190612395565b6001546080820151604051633129e77360e01b81529293506000926001600160a01b0390921691633129e77391611c439160040190815260200190565b600060405180830381865afa158015611c60573d6000803e3d6000fd5b505050506040513d6000823e601f3d908101601f19168201604052611c88919081019061242a565b60a08101516004805460405163525cca1960e11b8152939450919286926001600160a01b03169163a4b9943291611cc3918c9187910161218d565b602060405180830381865afa158015611ce0573d6000803e3d6000fd5b505050506040513d601f19601f82011682018060405250810190611d0491906120aa565b14611d515760405162461bcd60e51b815260206004820152601c60248201527f436f6d706f7369746520746f6b656e206e6f7420657175697070656400000000604482015260640161016a565b6004805460405163fe80c55d60e01b81526001600160a01b039091169163fe80c55d91611d82918b9186910161218d565b600060405180830381600087803b158015611d9c57600080fd5b505af1158015611db0573d6000803e3d6000fd5b5050600354604051637921219560e11b81526001600160a01b03909116925063f242432a9150611deb9088908a9089906001906004016121c4565b600060405180830381600087803b158015611e0557600080fd5b505af1158015611e19573d6000803e3d6000fd5b5050505050505050505050565b60048054604051639d9ea9f360e01b81529182018690526000916001600160a01b0390911690639d9ea9f390602401600060405180830381865afa158015611e72573d6000803e3d6000fd5b505050506040513d6000823e601f3d908101601f19168201604052611e9a91908101906122b2565b905060005b81518110156114345782828281518110611ebb57611ebb612358565b602002602001015103611f62576004805460405163e4c301eb60e01b8152918201889052602482018590526001600160a01b03169063e4c301eb90604401600060405180830381600087803b158015611f1357600080fd5b505af1158015611f27573d6000803e3d6000fd5b5050600354604051637921219560e11b81526001600160a01b03909116925063f242432a91506113e9908790899088906001906004016121c4565b80611f6c8161236e565b915050611e9f565b60058110611f8157600080fd5b50565b6001600160a01b0381168114611f8157600080fd5b60008060008060808587031215611faf57600080fd5b84359350602085013592506040850135611fc881611f74565b91506060850135611fd881611f84565b939692955090935050565b600060208284031215611ff557600080fd5b813561200081611f84565b9392505050565b60008060006060848603121561201c57600080fd5b8335925060208401359150604084013561203581611f74565b809150509250925092565b60006020828403121561205257600080fd5b815161200081611f84565b634e487b7160e01b600052602160045260246000fd5b6020808252601c908201527f496e76616c696420636f6d706f7369746520746f6b656e207479706500000000604082015260600190565b6000602082840312156120bc57600080fd5b5051919050565b6020808252601a908201527f496e76616c696420636f6d706f7369746520746f6b656e204944000000000000604082015260600190565b60208082526024908201527f4e6f7420746865206f776e6572206f662074686520636f6d706f73697465207460408201526337b5b2b760e11b606082015260800190565b805161214981611f74565b919050565b60006020828403121561216057600080fd5b815161200081611f74565b6005811061218957634e487b7160e01b600052602160045260246000fd5b9052565b82815260408101612000602083018461216b565b83815260208101839052606081016121bc604083018461216b565b949350505050565b6001600160a01b0394851681529290931660208301526040820152606081019190915260a06080820181905260009082015260c00190565b60006020828403121561220e57600080fd5b8151801515811461200057600080fd5b634e487b7160e01b600052604160045260246000fd5b604051610140810167ffffffffffffffff811182821017156122585761225861221e565b60405290565b60405160c0810167ffffffffffffffff811182821017156122585761225861221e565b604051601f8201601f1916810167ffffffffffffffff811182821017156122aa576122aa61221e565b604052919050565b600060208083850312156122c557600080fd5b825167ffffffffffffffff808211156122dd57600080fd5b818501915085601f8301126122f157600080fd5b8151818111156123035761230361221e565b8060051b9150612314848301612281565b818152918301840191848101908884111561232e57600080fd5b938501935b8385101561234c57845182529385019390850190612333565b98975050505050505050565b634e487b7160e01b600052603260045260246000fd5b60006001820161238e57634e487b7160e01b600052601160045260246000fd5b5060010190565b600061014082840312156123a857600080fd5b6123b0612234565b82518152602083015160208201526123ca6040840161213e565b60408201526123db6060840161213e565b60608201526080830151608082015260a083015160a082015260c083015160c082015260e083015160e08201526101008084015181830152506101208084015181830152508091505092915050565b6000602080838503121561243d57600080fd5b825167ffffffffffffffff8082111561245557600080fd5b9084019060c0828703121561246957600080fd5b61247161225e565b82518281111561248057600080fd5b8301601f8101881361249157600080fd5b8051838111156124a3576124a361221e565b6124b5601f8201601f19168701612281565b935080845288868284010111156124cb57600080fd5b60005b818110156124e95782810187015185820188015286016124ce565b5060008682860101525050818152838301518482015260408301516040820152606083015160608201526080830151608082015261252960a0840161213e565b60a0820152969550505050505056fea2646970667358221220b026a50e10dbac06b7e27371a0591518f27131ad568afbe0471969654b2a147a64736f6c63430008110033",
  "linkReferences": {},
  "deployedLinkReferences": {}
}