{
  "_format": "hh-sol-artifact-1",
  "contractName": "EquipManagement",
  "sourceName": "contracts/EquipManagement.sol",
  "abi": [
    {
      "inputs": [
        {
          "internalType": "address",
          "name": "_battleItemsAddress",
          "type": "address"
        },
        {
          "internalType": "address",
          "name": "_battleSkillsAddress",
          "type": "address"
        },
        {
          "internalType": "address",
          "name": "_compositeTokensAddress",
          "type": "address"
        }
      ],
      "stateMutability": "nonpayable",
      "type": "constructor"
    },
    {
      "anonymous": false,
      "inputs": [
        {
          "indexed": true,
          "internalType": "uint256",
          "name": "characterTokenId",
          "type": "uint256"
        },
        {
          "indexed": true,
          "internalType": "uint256",
          "name": "itemTokenId",
          "type": "uint256"
        }
      ],
      "name": "ItemEquipped",
      "type": "event"
    },
    {
      "anonymous": false,
      "inputs": [
        {
          "indexed": true,
          "internalType": "uint256",
          "name": "characterTokenId",
          "type": "uint256"
        },
        {
          "indexed": true,
          "internalType": "uint256",
          "name": "itemTokenId",
          "type": "uint256"
        }
      ],
      "name": "ItemUnequipped",
      "type": "event"
    },
    {
      "anonymous": false,
      "inputs": [
        {
          "indexed": true,
          "internalType": "uint256",
          "name": "characterTokenId",
          "type": "uint256"
        },
        {
          "indexed": true,
          "internalType": "uint256",
          "name": "skillId",
          "type": "uint256"
        }
      ],
      "name": "SkillEquipped",
      "type": "event"
    },
    {
      "anonymous": false,
      "inputs": [
        {
          "indexed": true,
          "internalType": "uint256",
          "name": "characterTokenId",
          "type": "uint256"
        },
        {
          "indexed": true,
          "internalType": "uint256",
          "name": "skillId",
          "type": "uint256"
        }
      ],
      "name": "SkillUnequipped",
      "type": "event"
    },
    {
      "inputs": [],
      "name": "characterContract",
      "outputs": [
        {
          "internalType": "contract ICharacter",
          "name": "",
          "type": "address"
        }
      ],
      "stateMutability": "view",
      "type": "function"
    },
    {
      "inputs": [
        {
          "internalType": "uint256",
          "name": "characterTokenId",
          "type": "uint256"
        },
        {
          "internalType": "uint256",
          "name": "tokenId",
          "type": "uint256"
        },
        {
          "internalType": "enum CharData.TokenType",
          "name": "tokenType",
          "type": "uint8"
        }
      ],
      "name": "equip",
      "outputs": [],
      "stateMutability": "nonpayable",
      "type": "function"
    },
    {
      "inputs": [
        {
          "internalType": "address",
          "name": "_characterContractAddress",
          "type": "address"
        }
      ],
      "name": "setCharacterContract",
      "outputs": [],
      "stateMutability": "nonpayable",
      "type": "function"
    },
    {
      "inputs": [
        {
          "internalType": "uint256",
          "name": "characterTokenId",
          "type": "uint256"
        },
        {
          "internalType": "uint256",
          "name": "tokenId",
          "type": "uint256"
        },
        {
          "internalType": "enum CharData.TokenType",
          "name": "tokenType",
          "type": "uint8"
        }
      ],
      "name": "unequip",
      "outputs": [],
      "stateMutability": "nonpayable",
      "type": "function"
    }
  ],
  "bytecode": "0x60806040523480156200001157600080fd5b50604051620026203803806200262083398101604081905262000034916200009f565b600080546001600160a01b03199081163317909155600180546001600160a01b03958616908316179055600280549385169382169390931790925560038054919093169116179055620000e9565b80516001600160a01b03811681146200009a57600080fd5b919050565b600080600060608486031215620000b557600080fd5b620000c08462000082565b9250620000d06020850162000082565b9150620000e06040850162000082565b90509250925092565b61252780620000f96000396000f3fe608060405234801561001057600080fd5b506004361061004c5760003560e01c8063426a09951461005157806343b60f74146100665780639af3c67c14610095578063f6336e32146100a8575b600080fd5b61006461005f366004611f87565b6100bb565b005b600454610079906001600160a01b031681565b6040516001600160a01b03909116815260200160405180910390f35b6100646100a3366004611fd5565b61033f565b6100646100b6366004611f87565b610417565b600480546040516331a9108f60e11b815291820185905233916001600160a01b0390911690636352211e90602401602060405180830381865afa158015610106573d6000803e3d6000fd5b505050506040513d601f19601f8201168201806040525081019061012a9190611ff9565b6001600160a01b0316146101725760405162461bcd60e51b815260206004820152600a6024820152694e6f74204f776e65722160b01b60448201526064015b60405180910390fd5b6127108211156101e857600381600481111561019057610190612016565b14806101ad575060048160048111156101ab576101ab612016565b145b6101c95760405162461bcd60e51b81526004016101699061202c565b6004546101e390849033906001600160a01b031685610658565b61028b565b60008160048111156101fc576101fc612016565b0361021b576004546101e390849033906001600160a01b031685610887565b600181600481111561022f5761022f612016565b0361024e576004546101e390849033906001600160a01b031685610c2b565b60405162461bcd60e51b8152602060048201526012602482015271496e76616c696420746f6b656e207479706560701b6044820152606401610169565b600181600481111561029f5761029f612016565b036102d657604051829084907f1a72c2097d744cc43f0d03d975ee118086c0cb8f144355e9b1e20731bc7b84fc90600090a3505050565b60008160048111156102ea576102ea612016565b14806103075750600381600481111561030557610305612016565b145b1561033a57604051829084907ff109238e78bd4a8f9c5112c1bcf42640a1a20f49b268497b2c3c18295445f15990600090a35b505050565b6000546001600160a01b0316331461038a5760405162461bcd60e51b815260206004820152600e60248201526d139bdd08185d5d1a1bdc9a5e995960921b6044820152606401610169565b6004546001600160a01b0316156103f55760405162461bcd60e51b815260206004820152602960248201527f43686172616374657220636f6e7472616374206164647265737320697320616c6044820152681c9958591e481cd95d60ba1b6064820152608401610169565b600480546001600160a01b0319166001600160a01b0392909216919091179055565b600480546040516331a9108f60e11b815291820185905233916001600160a01b0390911690636352211e90602401602060405180830381865afa158015610462573d6000803e3d6000fd5b505050506040513d601f19601f820116820180604052508101906104869190611ff9565b6001600160a01b0316146104c95760405162461bcd60e51b815260206004820152600a6024820152694e6f74204f776e65722160b01b6044820152606401610169565b61271082111561053f5760038160048111156104e7576104e7612016565b14806105045750600481600481111561050257610502612016565b145b6105205760405162461bcd60e51b81526004016101699061202c565b60045461053a90849033906001600160a01b031685610f62565b6105a5565b600081600481111561055357610553612016565b036105725760045461053a90849033906001600160a01b031685611034565b600181600481111561058657610586612016565b0361024e5760045461053a90849033906001600160a01b0316856112aa565b60018160048111156105b9576105b9612016565b036105f057604051829084907fae1b435680f86011fc1110e59d5c02688575495657e17f93cd009273cdc5feba90600090a3505050565b600081600481111561060457610604612016565b14806106215750600381600481111561061f5761061f612016565b145b1561033a57604051829084907f3932d74064b76bcfc68c5e51810daa5a2d561d79822e052848940db45f0e393590600090a3505050565b60035460405163bd85b03960e01b8152600481018390526000916001600160a01b03169063bd85b03990602401602060405180830381865afa1580156106a2573d6000803e3d6000fd5b505050506040513d601f19601f820116820180604052508101906106c69190612063565b116106e35760405162461bcd60e51b81526004016101699061207c565b600354604051627eeac760e11b81526001600160a01b03858116600483015260248201849052600092169062fdd58e90604401602060405180830381865afa158015610733573d6000803e3d6000fd5b505050506040513d601f19601f820116820180604052508101906107579190612063565b116107745760405162461bcd60e51b8152600401610169906120b3565b6003546040516376aed2e160e01b8152600481018390526000916001600160a01b0316906376aed2e190602401602060405180830381865afa1580156107be573d6000803e3d6000fd5b505050506040513d601f19601f820116820180604052508101906107e29190612107565b905060038160048111156107f8576107f8612016565b14806108155750600481600481111561081357610813612016565b145b6108315760405162461bcd60e51b81526004016101699061202c565b600381600481111561084557610845612016565b0361085b5761085685858585611475565b610880565b600481600481111561086f5761086f612016565b03610880576108808585858561184d565b5050505050565b60015460405163bd85b03960e01b8152600481018390526000916001600160a01b03169063bd85b03990602401602060405180830381865afa1580156108d1573d6000803e3d6000fd5b505050506040513d601f19601f820116820180604052508101906108f59190612063565b1161093a5760405162461bcd60e51b8152602060048201526015602482015274125b9d985b1a59081a5d195b481d1bdad95b881251605a1b6044820152606401610169565b600154604051627eeac760e11b81526001600160a01b03858116600483015260248201849052600092169062fdd58e90604401602060405180830381865afa15801561098a573d6000803e3d6000fd5b505050506040513d601f19601f820116820180604052508101906109ae9190612063565b116109fb5760405162461bcd60e51b815260206004820152601960248201527f4e6f7420746865206f776e6572206f6620746865206974656d000000000000006044820152606401610169565b60015460405163c19a4ef560e01b8152600481018390526000916001600160a01b03169063c19a4ef590602401602060405180830381865afa158015610a45573d6000803e3d6000fd5b505050506040513d601f19601f82011682018060405250810190610a699190612107565b6004805460405163525cca1960e11b81529293506000926001600160a01b039091169163a4b9943291610aa0918a91879101612146565b602060405180830381865afa158015610abd573d6000803e3d6000fd5b505050506040513d601f19601f82011682018060405250810190610ae19190612063565b90508015610b5757828103610b305760405162461bcd60e51b8152602060048201526015602482015274125d195b48185b1c9958591e48195c5d5a5c1c1959605a1b6044820152606401610169565b612710811115610b4b57610b4686868684611b0f565b610b57565b610b5786868684611034565b60048054604051637155eea960e11b81526001600160a01b039091169163e2abdd5291610b8a918a91889188910161215a565b600060405180830381600087803b158015610ba457600080fd5b505af1158015610bb8573d6000803e3d6000fd5b505060018054604051637921219560e11b81526001600160a01b03909116935063f242432a9250610bf19189918991899160040161217d565b600060405180830381600087803b158015610c0b57600080fd5b505af1158015610c1f573d6000803e3d6000fd5b50505050505050505050565b60025460405163d6bc3d7360e01b8152600481018390526001600160a01b039091169063d6bc3d7390602401602060405180830381865afa158015610c74573d6000803e3d6000fd5b505050506040513d601f19601f82011682018060405250810190610c9891906121b5565b610cd75760405162461bcd60e51b815260206004820152601060248201526f125b9d985b1a59081cdada5b1b08125160821b6044820152606401610169565b600254604051627eeac760e11b81526001600160a01b03858116600483015260248201849052600092169062fdd58e90604401602060405180830381865afa158015610d27573d6000803e3d6000fd5b505050506040513d601f19601f82011682018060405250810190610d4b9190612063565b11610d985760405162461bcd60e51b815260206004820152601a60248201527f4e6f7420746865206f776e6572206f662074686520736b696c6c0000000000006044820152606401610169565b60048054604051639d9ea9f360e01b81529182018690526000916001600160a01b0390911690639d9ea9f390602401600060405180830381865afa158015610de4573d6000803e3d6000fd5b505050506040513d6000823e601f3d908101601f19168201604052610e0c919081019061226b565b905060005b8151811015610e8d5782828281518110610e2d57610e2d612311565b602002602001015103610e7b5760405162461bcd60e51b815260206004820152601660248201527514dada5b1b08185b1c9958591e48195c5d5a5c1c195960521b6044820152606401610169565b80610e8581612327565b915050610e11565b50600254604051637921219560e11b81526001600160a01b039091169063f242432a90610ec59087908790879060019060040161217d565b600060405180830381600087803b158015610edf57600080fd5b505af1158015610ef3573d6000803e3d6000fd5b505060048054604051631796fd4160e31b8152918201899052602482018690526001600160a01b0316925063bcb7ea0891506044015b600060405180830381600087803b158015610f4357600080fd5b505af1158015610f57573d6000803e3d6000fd5b505050505050505050565b6003546040516376aed2e160e01b8152600481018390526000916001600160a01b0316906376aed2e190602401602060405180830381865afa158015610fac573d6000803e3d6000fd5b505050506040513d601f19601f82011682018060405250810190610fd09190612107565b90506003816004811115610fe657610fe6612016565b03610ff75761085685858585611b0f565b600481600481111561100b5761100b612016565b0361101c5761085685858585611e29565b60405162461bcd60e51b81526004016101699061202c565b60015460405163bd85b03960e01b8152600481018390526000916001600160a01b03169063bd85b03990602401602060405180830381865afa15801561107e573d6000803e3d6000fd5b505050506040513d601f19601f820116820180604052508101906110a29190612063565b116110e75760405162461bcd60e51b8152602060048201526015602482015274125b9d985b1a59081a5d195b481d1bdad95b881251605a1b6044820152606401610169565b60015460405163c19a4ef560e01b8152600481018390526000916001600160a01b03169063c19a4ef590602401602060405180830381865afa158015611131573d6000803e3d6000fd5b505050506040513d601f19601f820116820180604052508101906111559190612107565b6004805460405163525cca1960e11b81529293506000926001600160a01b039091169163a4b994329161118c918a91879101612146565b602060405180830381865afa1580156111a9573d6000803e3d6000fd5b505050506040513d601f19601f820116820180604052508101906111cd9190612063565b90508281146112125760405162461bcd60e51b8152602060048201526011602482015270125d195b481b9bdd08195c5d5a5c1c1959607a1b6044820152606401610169565b6004805460405163fe80c55d60e01b81526001600160a01b039091169163fe80c55d91611243918a91879101612146565b600060405180830381600087803b15801561125d57600080fd5b505af1158015611271573d6000803e3d6000fd5b505060018054604051637921219560e11b81526001600160a01b03909116935063f242432a9250610bf19188918a91899160040161217d565b60048054604051639d9ea9f360e01b81529182018690526000916001600160a01b0390911690639d9ea9f390602401600060405180830381865afa1580156112f6573d6000803e3d6000fd5b505050506040513d6000823e601f3d908101601f1916820160405261131e919081019061226b565b905060005b8151811015611431578282828151811061133f5761133f612311565b60200260200101510361141f576004805460405163e4c301eb60e01b8152918201889052602482018590526001600160a01b03169063e4c301eb90604401600060405180830381600087803b15801561139757600080fd5b505af11580156113ab573d6000803e3d6000fd5b5050600254604051637921219560e11b81526001600160a01b03909116925063f242432a91506113e69087908990889060019060040161217d565b600060405180830381600087803b15801561140057600080fd5b505af1158015611414573d6000803e3d6000fd5b50505050505061146f565b8061142981612327565b915050611323565b5060405162461bcd60e51b815260206004820152601260248201527114dada5b1b081b9bdd08195c5d5a5c1c195960721b6044820152606401610169565b50505050565b60035460405163bd85b03960e01b8152600481018390526000916001600160a01b03169063bd85b03990602401602060405180830381865afa1580156114bf573d6000803e3d6000fd5b505050506040513d601f19601f820116820180604052508101906114e39190612063565b116115005760405162461bcd60e51b81526004016101699061207c565b600354604051627eeac760e11b81526001600160a01b03858116600483015260248201849052600092169062fdd58e90604401602060405180830381865afa158015611550573d6000803e3d6000fd5b505050506040513d601f19601f820116820180604052508101906115749190612063565b116115915760405162461bcd60e51b8152600401610169906120b3565b60035460405163681377c960e01b8152600481018390526000916001600160a01b03169063681377c99060240161014060405180830381865afa1580156115dc573d6000803e3d6000fd5b505050506040513d601f19601f82011682018060405250810190611600919061234e565b6001546080820151604051633129e77360e01b81529293506000926001600160a01b0390921691633129e7739161163d9160040190815260200190565b600060405180830381865afa15801561165a573d6000803e3d6000fd5b505050506040513d6000823e601f3d908101601f1916820160405261168291908101906123e3565b60a08101516004805460405163525cca1960e11b815293945091926000926001600160a01b03169163a4b99432916116be918c91879101612146565b602060405180830381865afa1580156116db573d6000803e3d6000fd5b505050506040513d601f19601f820116820180604052508101906116ff9190612063565b905080156117755784810361174e5760405162461bcd60e51b8152602060048201526015602482015274125d195b48185b1c9958591e48195c5d5a5c1c1959605a1b6044820152606401610169565b6127108111156117695761176488888884611b0f565b611775565b61177588888884611034565b60048054604051637155eea960e11b81526001600160a01b039091169163e2abdd52916117a8918c918a9188910161215a565b600060405180830381600087803b1580156117c257600080fd5b505af11580156117d6573d6000803e3d6000fd5b5050600354604051637921219560e11b81526001600160a01b03909116925063f242432a9150611811908a908a908a9060019060040161217d565b600060405180830381600087803b15801561182b57600080fd5b505af115801561183f573d6000803e3d6000fd5b505050505050505050505050565b60035460405163bd85b03960e01b8152600481018390526000916001600160a01b03169063bd85b03990602401602060405180830381865afa158015611897573d6000803e3d6000fd5b505050506040513d601f19601f820116820180604052508101906118bb9190612063565b116118d85760405162461bcd60e51b81526004016101699061207c565b600354604051627eeac760e11b81526001600160a01b03858116600483015260248201849052600092169062fdd58e90604401602060405180830381865afa158015611928573d6000803e3d6000fd5b505050506040513d601f19601f8201168201806040525081019061194c9190612063565b116119695760405162461bcd60e51b8152600401610169906120b3565b60048054604051639d9ea9f360e01b81529182018690526000916001600160a01b0390911690639d9ea9f390602401600060405180830381865afa1580156119b5573d6000803e3d6000fd5b505050506040513d6000823e601f3d908101601f191682016040526119dd919081019061226b565b905060005b8151811015611a7457828282815181106119fe576119fe612311565b602002602001015103611a625760405162461bcd60e51b815260206004820152602660248201527f436f6d706f7369746520736b696c6c20746f6b656e20616c72656164792065716044820152651d5a5c1c195960d21b6064820152608401610169565b80611a6c81612327565b9150506119e2565b5060048054604051631796fd4160e31b8152918201879052602482018490526001600160a01b03169063bcb7ea0890604401600060405180830381600087803b158015611ac057600080fd5b505af1158015611ad4573d6000803e3d6000fd5b5050600354604051637921219560e11b81526001600160a01b03909116925063f242432a9150610f299087908790879060019060040161217d565b60035460405163bd85b03960e01b8152600481018390526000916001600160a01b03169063bd85b03990602401602060405180830381865afa158015611b59573d6000803e3d6000fd5b505050506040513d601f19601f82011682018060405250810190611b7d9190612063565b11611b9a5760405162461bcd60e51b81526004016101699061207c565b60035460405163681377c960e01b8152600481018390526000916001600160a01b03169063681377c99060240161014060405180830381865afa158015611be5573d6000803e3d6000fd5b505050506040513d601f19601f82011682018060405250810190611c09919061234e565b6001546080820151604051633129e77360e01b81529293506000926001600160a01b0390921691633129e77391611c469160040190815260200190565b600060405180830381865afa158015611c63573d6000803e3d6000fd5b505050506040513d6000823e601f3d908101601f19168201604052611c8b91908101906123e3565b60a08101516004805460405163525cca1960e11b8152939450919286926001600160a01b03169163a4b9943291611cc6918c91879101612146565b602060405180830381865afa158015611ce3573d6000803e3d6000fd5b505050506040513d601f19601f82011682018060405250810190611d079190612063565b14611d545760405162461bcd60e51b815260206004820152601c60248201527f436f6d706f7369746520746f6b656e206e6f74206571756970706564000000006044820152606401610169565b6004805460405163fe80c55d60e01b81526001600160a01b039091169163fe80c55d91611d85918b91869101612146565b600060405180830381600087803b158015611d9f57600080fd5b505af1158015611db3573d6000803e3d6000fd5b5050600354604051637921219560e11b81526001600160a01b03909116925063f242432a9150611dee9088908a90899060019060040161217d565b600060405180830381600087803b158015611e0857600080fd5b505af1158015611e1c573d6000803e3d6000fd5b5050505050505050505050565b60048054604051639d9ea9f360e01b81529182018690526000916001600160a01b0390911690639d9ea9f390602401600060405180830381865afa158015611e75573d6000803e3d6000fd5b505050506040513d6000823e601f3d908101601f19168201604052611e9d919081019061226b565b905060005b81518110156114315782828281518110611ebe57611ebe612311565b602002602001015103611f65576004805460405163e4c301eb60e01b8152918201889052602482018590526001600160a01b03169063e4c301eb90604401600060405180830381600087803b158015611f1657600080fd5b505af1158015611f2a573d6000803e3d6000fd5b5050600354604051637921219560e11b81526001600160a01b03909116925063f242432a91506113e69087908990889060019060040161217d565b80611f6f81612327565b915050611ea2565b60058110611f8457600080fd5b50565b600080600060608486031215611f9c57600080fd5b83359250602084013591506040840135611fb581611f77565b809150509250925092565b6001600160a01b0381168114611f8457600080fd5b600060208284031215611fe757600080fd5b8135611ff281611fc0565b9392505050565b60006020828403121561200b57600080fd5b8151611ff281611fc0565b634e487b7160e01b600052602160045260246000fd5b6020808252601c908201527f496e76616c696420636f6d706f7369746520746f6b656e207479706500000000604082015260600190565b60006020828403121561207557600080fd5b5051919050565b6020808252601a908201527f496e76616c696420636f6d706f7369746520746f6b656e204944000000000000604082015260600190565b60208082526024908201527f4e6f7420746865206f776e6572206f662074686520636f6d706f73697465207460408201526337b5b2b760e11b606082015260800190565b805161210281611f77565b919050565b60006020828403121561211957600080fd5b8151611ff281611f77565b6005811061214257634e487b7160e01b600052602160045260246000fd5b9052565b82815260408101611ff26020830184612124565b83815260208101839052606081016121756040830184612124565b949350505050565b6001600160a01b0394851681529290931660208301526040820152606081019190915260a06080820181905260009082015260c00190565b6000602082840312156121c757600080fd5b81518015158114611ff257600080fd5b634e487b7160e01b600052604160045260246000fd5b604051610140810167ffffffffffffffff81118282101715612211576122116121d7565b60405290565b60405160c0810167ffffffffffffffff81118282101715612211576122116121d7565b604051601f8201601f1916810167ffffffffffffffff81118282101715612263576122636121d7565b604052919050565b6000602080838503121561227e57600080fd5b825167ffffffffffffffff8082111561229657600080fd5b818501915085601f8301126122aa57600080fd5b8151818111156122bc576122bc6121d7565b8060051b91506122cd84830161223a565b81815291830184019184810190888411156122e757600080fd5b938501935b83851015612305578451825293850193908501906122ec565b98975050505050505050565b634e487b7160e01b600052603260045260246000fd5b60006001820161234757634e487b7160e01b600052601160045260246000fd5b5060010190565b6000610140828403121561236157600080fd5b6123696121ed565b8251815260208301516020820152612383604084016120f7565b6040820152612394606084016120f7565b60608201526080830151608082015260a083015160a082015260c083015160c082015260e083015160e08201526101008084015181830152506101208084015181830152508091505092915050565b600060208083850312156123f657600080fd5b825167ffffffffffffffff8082111561240e57600080fd5b9084019060c0828703121561242257600080fd5b61242a612217565b82518281111561243957600080fd5b8301601f8101881361244a57600080fd5b80518381111561245c5761245c6121d7565b61246e601f8201601f1916870161223a565b9350808452888682840101111561248457600080fd5b60005b818110156124a2578281018701518582018801528601612487565b506000868286010152505081815283830151848201526040830151604082015260608301516060820152608083015160808201526124e260a084016120f7565b60a0820152969550505050505056fea264697066735822122058eeac481f9a9e800826f9e2e11067c593a68bb756a5f9b3c7f496f9233a43af64736f6c63430008110033",
  "linkReferences": {},
  "deployedLinkReferences": {}
}